{
  "_format": "hh-sol-artifact-1",
  "contractName": "BittensorReceiver",
  "sourceName": "contracts/BittensorReceiver.sol",
  "abi": [
    {
      "inputs": [
        {
          "internalType": "address",
          "name": "_endpoint",
          "type": "address"
        },
        {
          "internalType": "address",
          "name": "_owner",
          "type": "address"
        }
      ],
      "stateMutability": "nonpayable",
      "type": "constructor"
    },
    {
      "inputs": [],
      "name": "InvalidDelegate",
      "type": "error"
    },
    {
      "inputs": [],
      "name": "InvalidEndpointCall",
      "type": "error"
    },
    {
      "inputs": [],
      "name": "LzTokenUnavailable",
      "type": "error"
    },
    {
      "inputs": [
        {
          "internalType": "uint32",
          "name": "eid",
          "type": "uint32"
        }
      ],
      "name": "NoPeer",
      "type": "error"
    },
    {
      "inputs": [
        {
          "internalType": "uint256",
          "name": "msgValue",
          "type": "uint256"
        }
      ],
      "name": "NotEnoughNative",
      "type": "error"
    },
    {
      "inputs": [
        {
          "internalType": "address",
          "name": "addr",
          "type": "address"
        }
      ],
      "name": "OnlyEndpoint",
      "type": "error"
    },
    {
      "inputs": [
        {
          "internalType": "uint32",
          "name": "eid",
          "type": "uint32"
        },
        {
          "internalType": "bytes32",
          "name": "sender",
          "type": "bytes32"
        }
      ],
      "name": "OnlyPeer",
      "type": "error"
    },
    {
      "anonymous": false,
      "inputs": [
        {
          "indexed": true,
          "internalType": "uint256",
          "name": "index",
          "type": "uint256"
        },
        {
          "indexed": false,
          "internalType": "uint32",
          "name": "srcEid",
          "type": "uint32"
        },
        {
          "indexed": false,
          "internalType": "bytes32",
          "name": "sender",
          "type": "bytes32"
        },
        {
          "indexed": false,
          "internalType": "uint256",
          "name": "blockNumber",
          "type": "uint256"
        }
      ],
      "name": "MessageReceived",
      "type": "event"
    },
    {
      "anonymous": false,
      "inputs": [
        {
          "indexed": true,
          "internalType": "address",
          "name": "previousOwner",
          "type": "address"
        },
        {
          "indexed": true,
          "internalType": "address",
          "name": "newOwner",
          "type": "address"
        }
      ],
      "name": "OwnershipTransferred",
      "type": "event"
    },
    {
      "anonymous": false,
      "inputs": [
        {
          "indexed": false,
          "internalType": "uint32",
          "name": "eid",
          "type": "uint32"
        },
        {
          "indexed": false,
          "internalType": "bytes32",
          "name": "peer",
          "type": "bytes32"
        }
      ],
      "name": "PeerSet",
      "type": "event"
    },
    {
      "inputs": [
        {
          "components": [
            {
              "internalType": "uint32",
              "name": "srcEid",
              "type": "uint32"
            },
            {
              "internalType": "bytes32",
              "name": "sender",
              "type": "bytes32"
            },
            {
              "internalType": "uint64",
              "name": "nonce",
              "type": "uint64"
            }
          ],
          "internalType": "struct Origin",
          "name": "origin",
          "type": "tuple"
        }
      ],
      "name": "allowInitializePath",
      "outputs": [
        {
          "internalType": "bool",
          "name": "",
          "type": "bool"
        }
      ],
      "stateMutability": "view",
      "type": "function"
    },
    {
      "inputs": [
        {
          "internalType": "uint32",
          "name": "srcEid",
          "type": "uint32"
        }
      ],
      "name": "countBySourceEid",
      "outputs": [
        {
          "internalType": "uint256",
          "name": "",
          "type": "uint256"
        }
      ],
      "stateMutability": "view",
      "type": "function"
    },
    {
      "inputs": [],
      "name": "endpoint",
      "outputs": [
        {
          "internalType": "contract ILayerZeroEndpointV2",
          "name": "",
          "type": "address"
        }
      ],
      "stateMutability": "view",
      "type": "function"
    },
    {
      "inputs": [
        {
          "internalType": "uint256",
          "name": "_index",
          "type": "uint256"
        }
      ],
      "name": "getMessage",
      "outputs": [
        {
          "components": [
            {
              "internalType": "uint32",
              "name": "srcEid",
              "type": "uint32"
            },
            {
              "internalType": "bytes32",
              "name": "sender",
              "type": "bytes32"
            },
            {
              "internalType": "bytes",
              "name": "payload",
              "type": "bytes"
            },
            {
              "internalType": "uint256",
              "name": "blockNumber",
              "type": "uint256"
            },
            {
              "internalType": "uint256",
              "name": "index",
              "type": "uint256"
            }
          ],
          "internalType": "struct BittensorReceiver.ReceivedMessage",
          "name": "",
          "type": "tuple"
        }
      ],
      "stateMutability": "view",
      "type": "function"
    },
    {
      "inputs": [
        {
          "components": [
            {
              "internalType": "uint32",
              "name": "srcEid",
              "type": "uint32"
            },
            {
              "internalType": "bytes32",
              "name": "sender",
              "type": "bytes32"
            },
            {
              "internalType": "uint64",
              "name": "nonce",
              "type": "uint64"
            }
          ],
          "internalType": "struct Origin",
          "name": "",
          "type": "tuple"
        },
        {
          "internalType": "bytes",
          "name": "",
          "type": "bytes"
        },
        {
          "internalType": "address",
          "name": "_sender",
          "type": "address"
        }
      ],
      "name": "isComposeMsgSender",
      "outputs": [
        {
          "internalType": "bool",
          "name": "",
          "type": "bool"
        }
      ],
      "stateMutability": "view",
      "type": "function"
    },
    {
      "inputs": [
        {
          "components": [
            {
              "internalType": "uint32",
              "name": "srcEid",
              "type": "uint32"
            },
            {
              "internalType": "bytes32",
              "name": "sender",
              "type": "bytes32"
            },
            {
              "internalType": "uint64",
              "name": "nonce",
              "type": "uint64"
            }
          ],
          "internalType": "struct Origin",
          "name": "_origin",
          "type": "tuple"
        },
        {
          "internalType": "bytes32",
          "name": "_guid",
          "type": "bytes32"
        },
        {
          "internalType": "bytes",
          "name": "_message",
          "type": "bytes"
        },
        {
          "internalType": "address",
          "name": "_executor",
          "type": "address"
        },
        {
          "internalType": "bytes",
          "name": "_extraData",
          "type": "bytes"
        }
      ],
      "name": "lzReceive",
      "outputs": [],
      "stateMutability": "payable",
      "type": "function"
    },
    {
      "inputs": [],
      "name": "messageCount",
      "outputs": [
        {
          "internalType": "uint256",
          "name": "",
          "type": "uint256"
        }
      ],
      "stateMutability": "view",
      "type": "function"
    },
    {
      "inputs": [
        {
          "internalType": "uint256",
          "name": "",
          "type": "uint256"
        }
      ],
      "name": "messages",
      "outputs": [
        {
          "internalType": "uint32",
          "name": "srcEid",
          "type": "uint32"
        },
        {
          "internalType": "bytes32",
          "name": "sender",
          "type": "bytes32"
        },
        {
          "internalType": "bytes",
          "name": "payload",
          "type": "bytes"
        },
        {
          "internalType": "uint256",
          "name": "blockNumber",
          "type": "uint256"
        },
        {
          "internalType": "uint256",
          "name": "index",
          "type": "uint256"
        }
      ],
      "stateMutability": "view",
      "type": "function"
    },
    {
      "inputs": [
        {
          "internalType": "uint32",
          "name": "",
          "type": "uint32"
        },
        {
          "internalType": "bytes32",
          "name": "",
          "type": "bytes32"
        }
      ],
      "name": "nextNonce",
      "outputs": [
        {
          "internalType": "uint64",
          "name": "nonce",
          "type": "uint64"
        }
      ],
      "stateMutability": "view",
      "type": "function"
    },
    {
      "inputs": [],
      "name": "oAppVersion",
      "outputs": [
        {
          "internalType": "uint64",
          "name": "senderVersion",
          "type": "uint64"
        },
        {
          "internalType": "uint64",
          "name": "receiverVersion",
          "type": "uint64"
        }
      ],
      "stateMutability": "pure",
      "type": "function"
    },
    {
      "inputs": [],
      "name": "owner",
      "outputs": [
        {
          "internalType": "address",
          "name": "",
          "type": "address"
        }
      ],
      "stateMutability": "view",
      "type": "function"
    },
    {
      "inputs": [
        {
          "internalType": "uint32",
          "name": "eid",
          "type": "uint32"
        }
      ],
      "name": "peers",
      "outputs": [
        {
          "internalType": "bytes32",
          "name": "peer",
          "type": "bytes32"
        }
      ],
      "stateMutability": "view",
      "type": "function"
    },
    {
      "inputs": [],
      "name": "renounceOwnership",
      "outputs": [],
      "stateMutability": "nonpayable",
      "type": "function"
    },
    {
      "inputs": [
        {
          "internalType": "address",
          "name": "_delegate",
          "type": "address"
        }
      ],
      "name": "setDelegate",
      "outputs": [],
      "stateMutability": "nonpayable",
      "type": "function"
    },
    {
      "inputs": [
        {
          "internalType": "uint32",
          "name": "_eid",
          "type": "uint32"
        },
        {
          "internalType": "bytes32",
          "name": "_peer",
          "type": "bytes32"
        }
      ],
      "name": "setPeer",
      "outputs": [],
      "stateMutability": "nonpayable",
      "type": "function"
    },
    {
      "inputs": [
        {
          "internalType": "address",
          "name": "newOwner",
          "type": "address"
        }
      ],
      "name": "transferOwnership",
      "outputs": [],
      "stateMutability": "nonpayable",
      "type": "function"
    }
  ],
  "bytecode": "0x60a03461014f57610eae906001600160401b03601f38849003908101601f191683019082821184831017610154578084916040968794855283398101031261014f57610056602061004f8461016a565b930161016a565b60008054336001600160a01b03198216811783558651929592936001600160a01b039384939192849283167f8be0079c531659141344cd1fd0a4f28419497f9722a3daafe3b4186f6b6457e08a80a3166080521691821561014057506080511690813b1561013c57839291602484928751968793849263ca5eb5e160e01b845260048401525af180156101325761010d575b8351610d2f908161017f82396080518181816101ff01528181610549015261068e0152f35b821161011e575081523880806100e8565b634e487b7160e01b81526041600452602490fd5b84513d84823e3d90fd5b8380fd5b632d618d8160e21b8152600490fd5b600080fd5b634e487b7160e01b600052604160045260246000fd5b51906001600160a01b038216820361014f5756fe6080604052600436101561001257600080fd5b6000803560e01c80630d80fefd146109f057806313137d651461062757806317442b70146106055780633400288b146105965780633dbcc8d1146105785780635e280f1114610533578063715018a6146104d95780637d25a05e146104b357806382413eac1461045157806385e94e091461041c57806386f79edb146102eb5780638da5cb5b146102c4578063bb0b6a531461028f578063ca5eb5e1146101d3578063f2fde38b146101085763ff7bd03d146100cd57600080fd5b3461010557606036600319011261010557604060209163ffffffff6100f0610c8e565b16815260018352205460405190602435148152f35b80fd5b503461010557602036600319011261010557610122610c65565b61012a610ca1565b6001600160a01b0390811690811561017f57600054826bffffffffffffffffffffffff60a01b821617600055167f8be0079c531659141344cd1fd0a4f28419497f9722a3daafe3b4186f6b6457e0600080a380f35b60405162461bcd60e51b815260206004820152602660248201527f4f776e61626c653a206e6577206f776e657220697320746865207a65726f206160448201526564647265737360d01b6064820152608490fd5b5034610105576020366003190112610105576101ed610c65565b6101f5610ca1565b6001600160a01b037f0000000000000000000000000000000000000000000000000000000000000000811691839190833b1561028b5760249083604051958694859363ca5eb5e160e01b85521660048401525af1801561028057610257575080f35b67ffffffffffffffff811161026c5760405280f35b634e487b7160e01b82526041600452602482fd5b6040513d84823e3d90fd5b8280fd5b503461010557602036600319011261010557604060209163ffffffff6102b3610c7b565b168152600183522054604051908152f35b5034610105578060031936011261010557546040516001600160a01b039091168152602090f35b503461010557602090816003193601126101055760043590608060405161031181610af9565b82815282858201526060604082015282606082015201526002548110156103c85761033b90610a6e565b506040519061034982610af9565b63ffffffff928382541683526103b7600183015482850190815261036f60028501610b4d565b9060408601918252600460038601549560608801968752015493608087019485526040519788978289525116908701525160408601525160a0606086015260c0850190610bf2565b915160808401525160a08301520390f35b60405162461bcd60e51b815260048101839052602660248201527f42697474656e736f7252656365697665723a20696e646578206f7574206f6620604482015265626f756e647360d01b6064820152608490fd5b503461010557602036600319011261010557604060209163ffffffff610440610c7b565b168152600383522054604051908152f35b503461010557366003190160a081126104af576060136101055760643567ffffffffffffffff81116104af5761048b903690600401610c32565b50506084356001600160a01b038116908190036104af576020906040519030148152f35b5080fd5b5034610105576040366003190112610105576020906104d0610c7b565b50604051908152f35b50346101055780600319360112610105576104f2610ca1565b80546001600160a01b03198116825581906001600160a01b03167f8be0079c531659141344cd1fd0a4f28419497f9722a3daafe3b4186f6b6457e08280a380f35b50346101055780600319360112610105576040517f00000000000000000000000000000000000000000000000000000000000000006001600160a01b03168152602090f35b50346101055780600319360112610105576020600254604051908152f35b5034610105576040366003190112610105577f238399d427b947898edb290f5ff0f9109849b1c3ba196a42e35f00c50a54b98b6105d1610c7b565b602435906105dd610ca1565b63ffffffff16808452600160209081526040808620849055805192835290820192909252a180f35b5034610105578060031936011261010557604080516001815260026020820152f35b50366003190160e081126104af576060136101055767ffffffffffffffff60843581811161028b5761065d903690600401610c32565b6001600160a01b0360a435818116036109ec5760c4358481116109e857610688903690600401610c32565b505033907f000000000000000000000000000000000000000000000000000000000000000016036109d05763ffffffff6106c0610c8e565b16808552600160205260408520549081156109b857506024350361097d57600254926106ea610c8e565b9163ffffffff604051936106fd85610af9565b168352602083019360243585528282116109695786906040519261072b6020601f19601f8401160185610b2b565b808452368183011161028b578060209283860137830101526040830190815243606084015284608084015268010000000000000000851015610941576001850160025561077785610a6e565b9490946109555763ffffffff84511663ffffffff19865416178555516001850155518051918211610941576107af6002850154610abf565b601f81116108fd575b50602090601f831160011461088e579180600494926080948992610883575b50508160011b916000199060031b1c19161760028501555b60608101516003850155015191015563ffffffff61080b610c8e565b1682526003602052604082208054906001820180921161086f57557f242f8e427411817769952b7358e982a8ad8a3e818eee20eeadea56b1e16090ca6060610851610c8e565b63ffffffff604051911681526024356020820152436040820152a280f35b634e487b7160e01b84526011600452602484fd5b0151905038806107d7565b600285018752602087209190601f198416885b8181106108e5575092600192859260809660049896106108cc575b505050811b0160028501556107ef565b015160001960f88460031b161c191690553880806108bc565b929360206001819287860151815501950193016108a1565b60028501875260208720601f840160051c81016020851061093a575b601f830160051c8201811061092f5750506107b8565b888155600101610919565b5080610919565b634e487b7160e01b86526041600452602486fd5b634e487b7160e01b87526004879052602487fd5b634e487b7160e01b87526041600452602487fd5b6109b4610988610c8e565b60405163309afaf360e21b815263ffffffff909116600482015260248035908201529081906044820190565b0390fd5b6024906040519063f6ff4fb760e01b82526004820152fd5b6040516391ac5e4f60e01b8152336004820152602490fd5b8580fd5b8480fd5b5034610105576020366003190112610105576004356002548110156104af57610a1890610a6e565b5063ffffffff815416600182015491610a3360028201610b4d565b610a5f60046003840154930154916040519586958652602086015260a0604086015260a0850190610bf2565b91606084015260808301520390f35b600254811015610aa9576005906002600052027f405787fa12a823e0f2b7631cc41b3ba8828b3321ca811111fa75cd3aa3bb5ace0190600090565b634e487b7160e01b600052603260045260246000fd5b90600182811c92168015610aef575b6020831014610ad957565b634e487b7160e01b600052602260045260246000fd5b91607f1691610ace565b60a0810190811067ffffffffffffffff821117610b1557604052565b634e487b7160e01b600052604160045260246000fd5b90601f8019910116810190811067ffffffffffffffff821117610b1557604052565b90604051918260008254610b6081610abf565b90818452602094600191600181169081600014610bd05750600114610b91575b505050610b8f92500383610b2b565b565b600090815285812095935091905b818310610bb8575050610b8f9350820101388080610b80565b85548884018501529485019487945091830191610b9f565b92505050610b8f94925060ff191682840152151560051b820101388080610b80565b919082519283825260005b848110610c1e575050826000602080949584010152601f8019910116010190565b602081830181015184830182015201610bfd565b9181601f84011215610c605782359167ffffffffffffffff8311610c605760208381860195010111610c6057565b600080fd5b600435906001600160a01b0382168203610c6057565b6004359063ffffffff82168203610c6057565b60043563ffffffff81168103610c605790565b6000546001600160a01b03163303610cb557565b606460405162461bcd60e51b815260206004820152602060248201527f4f776e61626c653a2063616c6c6572206973206e6f7420746865206f776e65726044820152fdfea2646970667358221220a305a688a4a80dee418f6d731d548b59d1d35dc86657441e194e8258f026738364736f6c63430008160033",
  "linkReferences": {},
  "deployedLinkReferences": {}
}