{
  "_format": "hh-sol-artifact-1",
  "contractName": "BittensorReceiver",
  "sourceName": "contracts/BittensorReceiver.sol",
  "abi": [
    {
      "inputs": [
        {
          "internalType": "address",
          "name": "_endpoint",
          "type": "address"
        },
        {
          "internalType": "address",
          "name": "_owner",
          "type": "address"
        }
      ],
      "stateMutability": "nonpayable",
      "type": "constructor"
    },
    {
      "inputs": [],
      "name": "InvalidDelegate",
      "type": "error"
    },
    {
      "inputs": [],
      "name": "InvalidEndpointCall",
      "type": "error"
    },
    {
      "inputs": [],
      "name": "LzTokenUnavailable",
      "type": "error"
    },
    {
      "inputs": [
        {
          "internalType": "uint32",
          "name": "eid",
          "type": "uint32"
        }
      ],
      "name": "NoPeer",
      "type": "error"
    },
    {
      "inputs": [
        {
          "internalType": "uint256",
          "name": "msgValue",
          "type": "uint256"
        }
      ],
      "name": "NotEnoughNative",
      "type": "error"
    },
    {
      "inputs": [
        {
          "internalType": "address",
          "name": "addr",
          "type": "address"
        }
      ],
      "name": "OnlyEndpoint",
      "type": "error"
    },
    {
      "inputs": [
        {
          "internalType": "uint32",
          "name": "eid",
          "type": "uint32"
        },
        {
          "internalType": "bytes32",
          "name": "sender",
          "type": "bytes32"
        }
      ],
      "name": "OnlyPeer",
      "type": "error"
    },
    {
      "anonymous": false,
      "inputs": [
        {
          "indexed": true,
          "internalType": "uint256",
          "name": "index",
          "type": "uint256"
        },
        {
          "indexed": false,
          "internalType": "uint32",
          "name": "srcEid",
          "type": "uint32"
        },
        {
          "indexed": false,
          "internalType": "bytes32",
          "name": "sender",
          "type": "bytes32"
        },
        {
          "indexed": false,
          "internalType": "uint256",
          "name": "blockNumber",
          "type": "uint256"
        }
      ],
      "name": "MessageReceived",
      "type": "event"
    },
    {
      "anonymous": false,
      "inputs": [
        {
          "indexed": true,
          "internalType": "address",
          "name": "previousOwner",
          "type": "address"
        },
        {
          "indexed": true,
          "internalType": "address",
          "name": "newOwner",
          "type": "address"
        }
      ],
      "name": "OwnershipTransferred",
      "type": "event"
    },
    {
      "anonymous": false,
      "inputs": [
        {
          "indexed": false,
          "internalType": "uint32",
          "name": "eid",
          "type": "uint32"
        },
        {
          "indexed": false,
          "internalType": "bytes32",
          "name": "peer",
          "type": "bytes32"
        }
      ],
      "name": "PeerSet",
      "type": "event"
    },
    {
      "inputs": [
        {
          "components": [
            {
              "internalType": "uint32",
              "name": "srcEid",
              "type": "uint32"
            },
            {
              "internalType": "bytes32",
              "name": "sender",
              "type": "bytes32"
            },
            {
              "internalType": "uint64",
              "name": "nonce",
              "type": "uint64"
            }
          ],
          "internalType": "struct Origin",
          "name": "origin",
          "type": "tuple"
        }
      ],
      "name": "allowInitializePath",
      "outputs": [
        {
          "internalType": "bool",
          "name": "",
          "type": "bool"
        }
      ],
      "stateMutability": "view",
      "type": "function"
    },
    {
      "inputs": [
        {
          "internalType": "uint32",
          "name": "srcEid",
          "type": "uint32"
        }
      ],
      "name": "countBySourceEid",
      "outputs": [
        {
          "internalType": "uint256",
          "name": "",
          "type": "uint256"
        }
      ],
      "stateMutability": "view",
      "type": "function"
    },
    {
      "inputs": [],
      "name": "endpoint",
      "outputs": [
        {
          "internalType": "contract ILayerZeroEndpointV2",
          "name": "",
          "type": "address"
        }
      ],
      "stateMutability": "view",
      "type": "function"
    },
    {
      "inputs": [
        {
          "internalType": "uint256",
          "name": "_index",
          "type": "uint256"
        }
      ],
      "name": "getMessage",
      "outputs": [
        {
          "components": [
            {
              "internalType": "uint32",
              "name": "srcEid",
              "type": "uint32"
            },
            {
              "internalType": "bytes32",
              "name": "sender",
              "type": "bytes32"
            },
            {
              "internalType": "bytes",
              "name": "payload",
              "type": "bytes"
            },
            {
              "internalType": "uint256",
              "name": "blockNumber",
              "type": "uint256"
            },
            {
              "internalType": "uint256",
              "name": "index",
              "type": "uint256"
            }
          ],
          "internalType": "struct BittensorReceiver.ReceivedMessage",
          "name": "",
          "type": "tuple"
        }
      ],
      "stateMutability": "view",
      "type": "function"
    },
    {
      "inputs": [
        {
          "components": [
            {
              "internalType": "uint32",
              "name": "srcEid",
              "type": "uint32"
            },
            {
              "internalType": "bytes32",
              "name": "sender",
              "type": "bytes32"
            },
            {
              "internalType": "uint64",
              "name": "nonce",
              "type": "uint64"
            }
          ],
          "internalType": "struct Origin",
          "name": "",
          "type": "tuple"
        },
        {
          "internalType": "bytes",
          "name": "",
          "type": "bytes"
        },
        {
          "internalType": "address",
          "name": "_sender",
          "type": "address"
        }
      ],
      "name": "isComposeMsgSender",
      "outputs": [
        {
          "internalType": "bool",
          "name": "",
          "type": "bool"
        }
      ],
      "stateMutability": "view",
      "type": "function"
    },
    {
      "inputs": [
        {
          "components": [
            {
              "internalType": "uint32",
              "name": "srcEid",
              "type": "uint32"
            },
            {
              "internalType": "bytes32",
              "name": "sender",
              "type": "bytes32"
            },
            {
              "internalType": "uint64",
              "name": "nonce",
              "type": "uint64"
            }
          ],
          "internalType": "struct Origin",
          "name": "_origin",
          "type": "tuple"
        },
        {
          "internalType": "bytes32",
          "name": "_guid",
          "type": "bytes32"
        },
        {
          "internalType": "bytes",
          "name": "_message",
          "type": "bytes"
        },
        {
          "internalType": "address",
          "name": "_executor",
          "type": "address"
        },
        {
          "internalType": "bytes",
          "name": "_extraData",
          "type": "bytes"
        }
      ],
      "name": "lzReceive",
      "outputs": [],
      "stateMutability": "payable",
      "type": "function"
    },
    {
      "inputs": [],
      "name": "messageCount",
      "outputs": [
        {
          "internalType": "uint256",
          "name": "",
          "type": "uint256"
        }
      ],
      "stateMutability": "view",
      "type": "function"
    },
    {
      "inputs": [
        {
          "internalType": "uint256",
          "name": "",
          "type": "uint256"
        }
      ],
      "name": "messages",
      "outputs": [
        {
          "internalType": "uint32",
          "name": "srcEid",
          "type": "uint32"
        },
        {
          "internalType": "bytes32",
          "name": "sender",
          "type": "bytes32"
        },
        {
          "internalType": "bytes",
          "name": "payload",
          "type": "bytes"
        },
        {
          "internalType": "uint256",
          "name": "blockNumber",
          "type": "uint256"
        },
        {
          "internalType": "uint256",
          "name": "index",
          "type": "uint256"
        }
      ],
      "stateMutability": "view",
      "type": "function"
    },
    {
      "inputs": [
        {
          "internalType": "uint32",
          "name": "",
          "type": "uint32"
        },
        {
          "internalType": "bytes32",
          "name": "",
          "type": "bytes32"
        }
      ],
      "name": "nextNonce",
      "outputs": [
        {
          "internalType": "uint64",
          "name": "nonce",
          "type": "uint64"
        }
      ],
      "stateMutability": "view",
      "type": "function"
    },
    {
      "inputs": [],
      "name": "oAppVersion",
      "outputs": [
        {
          "internalType": "uint64",
          "name": "senderVersion",
          "type": "uint64"
        },
        {
          "internalType": "uint64",
          "name": "receiverVersion",
          "type": "uint64"
        }
      ],
      "stateMutability": "pure",
      "type": "function"
    },
    {
      "inputs": [],
      "name": "owner",
      "outputs": [
        {
          "internalType": "address",
          "name": "",
          "type": "address"
        }
      ],
      "stateMutability": "view",
      "type": "function"
    },
    {
      "inputs": [
        {
          "internalType": "uint32",
          "name": "eid",
          "type": "uint32"
        }
      ],
      "name": "peers",
      "outputs": [
        {
          "internalType": "bytes32",
          "name": "peer",
          "type": "bytes32"
        }
      ],
      "stateMutability": "view",
      "type": "function"
    },
    {
      "inputs": [],
      "name": "renounceOwnership",
      "outputs": [],
      "stateMutability": "nonpayable",
      "type": "function"
    },
    {
      "inputs": [
        {
          "internalType": "address",
          "name": "_delegate",
          "type": "address"
        }
      ],
      "name": "setDelegate",
      "outputs": [],
      "stateMutability": "nonpayable",
      "type": "function"
    },
    {
      "inputs": [
        {
          "internalType": "uint32",
          "name": "_eid",
          "type": "uint32"
        },
        {
          "internalType": "bytes32",
          "name": "_peer",
          "type": "bytes32"
        }
      ],
      "name": "setPeer",
      "outputs": [],
      "stateMutability": "nonpayable",
      "type": "function"
    },
    {
      "inputs": [
        {
          "internalType": "address",
          "name": "newOwner",
          "type": "address"
        }
      ],
      "name": "transferOwnership",
      "outputs": [],
      "stateMutability": "nonpayable",
      "type": "function"
    }
  ],
  "bytecode": "0x60a060405234801561001057600080fd5b50604051620011573803806200115783398101604081905261003191610141565b8181818161003e336100d5565b6001600160a01b03808316608052811661006b57604051632d618d8160e21b815260040160405180910390fd5b60805160405163ca5eb5e160e01b81526001600160a01b0383811660048301529091169063ca5eb5e190602401600060405180830381600087803b1580156100b257600080fd5b505af11580156100c6573d6000803e3d6000fd5b50505050505050505050610174565b600080546001600160a01b038381166001600160a01b0319831681178455604051919092169283917f8be0079c531659141344cd1fd0a4f28419497f9722a3daafe3b4186f6b6457e09190a35050565b80516001600160a01b038116811461013c57600080fd5b919050565b6000806040838503121561015457600080fd5b61015d83610125565b915061016b60208401610125565b90509250929050565b608051610fb96200019e600039600081816101ba0152818161045a01526107160152610fb96000f3fe6080604052600436106100f35760003560e01c806382413eac1161008a578063bb0b6a5311610059578063bb0b6a53146102f9578063ca5eb5e114610326578063f2fde38b14610346578063ff7bd03d1461036657600080fd5b806382413eac1461024257806385e94e091461028157806386f79edb146102ae5780638da5cb5b146102db57600080fd5b80633dbcc8d1116100c65780633dbcc8d1146101895780635e280f11146101a8578063715018a6146101f45780637d25a05e1461020957600080fd5b80630d80fefd146100f857806313137d651461013257806317442b70146101475780633400288b14610169575b600080fd5b34801561010457600080fd5b50610118610113366004610aea565b610386565b604051610129959493929190610b49565b60405180910390f35b610145610140366004610bff565b610458565b005b34801561015357600080fd5b5060408051600181526002602082015201610129565b34801561017557600080fd5b50610145610184366004610cb2565b610518565b34801561019557600080fd5b506002545b604051908152602001610129565b3480156101b457600080fd5b506101dc7f000000000000000000000000000000000000000000000000000000000000000081565b6040516001600160a01b039091168152602001610129565b34801561020057600080fd5b5061014561052e565b34801561021557600080fd5b50610229610224366004610cb2565b610542565b60405167ffffffffffffffff9091168152602001610129565b34801561024e57600080fd5b5061027161025d366004610cdc565b6001600160a01b0381163014949350505050565b6040519015158152602001610129565b34801561028d57600080fd5b5061019a61029c366004610d42565b60036020526000908152604090205481565b3480156102ba57600080fd5b506102ce6102c9366004610aea565b61054b565b6040516101299190610d64565b3480156102e757600080fd5b506000546001600160a01b03166101dc565b34801561030557600080fd5b5061019a610314366004610d42565b60016020526000908152604090205481565b34801561033257600080fd5b50610145610341366004610dba565b6106ef565b34801561035257600080fd5b50610145610361366004610dba565b610775565b34801561037257600080fd5b50610271610381366004610dd5565b6107ee565b6002818154811061039657600080fd5b600091825260209091206005909102018054600182015460028301805463ffffffff90931694509092916103c990610df1565b80601f01602080910402602001604051908101604052809291908181526020018280546103f590610df1565b80156104425780601f1061041757610100808354040283529160200191610442565b820191906000526020600020905b81548152906001019060200180831161042557829003601f168201915b5050505050908060030154908060040154905085565b7f00000000000000000000000000000000000000000000000000000000000000006001600160a01b031633146104a8576040516391ac5e4f60e01b81523360048201526024015b60405180910390fd5b602087018035906104c2906104bd908a610d42565b610824565b14610500576104d46020880188610d42565b60405163309afaf360e21b815263ffffffff90911660048201526020880135602482015260440161049f565b61050f87878787878787610860565b50505050505050565b6105206109eb565b61052a8282610a45565b5050565b6105366109eb565b6105406000610a9a565b565b60005b92915050565b6105866040518060a00160405280600063ffffffff168152602001600080191681526020016060815260200160008152602001600081525090565b60025482106105e65760405162461bcd60e51b815260206004820152602660248201527f42697474656e736f7252656365697665723a20696e646578206f7574206f6620604482015265626f756e647360d01b606482015260840161049f565b600282815481106105f9576105f9610e25565b90600052602060002090600502016040518060a00160405290816000820160009054906101000a900463ffffffff1663ffffffff1663ffffffff1681526020016001820154815260200160028201805461065290610df1565b80601f016020809104026020016040519081016040528092919081815260200182805461067e90610df1565b80156106cb5780601f106106a0576101008083540402835291602001916106cb565b820191906000526020600020905b8154815290600101906020018083116106ae57829003601f168201915b50505050508152602001600382015481526020016004820154815250509050919050565b6106f76109eb565b60405163ca5eb5e160e01b81526001600160a01b0382811660048301527f0000000000000000000000000000000000000000000000000000000000000000169063ca5eb5e190602401600060405180830381600087803b15801561075a57600080fd5b505af115801561076e573d6000803e3d6000fd5b5050505050565b61077d6109eb565b6001600160a01b0381166107e25760405162461bcd60e51b815260206004820152602660248201527f4f776e61626c653a206e6577206f776e657220697320746865207a65726f206160448201526564647265737360d01b606482015260840161049f565b6107eb81610a9a565b50565b60006020820180359060019083906108069086610d42565b63ffffffff1681526020810191909152604001600020541492915050565b63ffffffff8116600090815260016020526040812054806105455760405163f6ff4fb760e01b815263ffffffff8416600482015260240161049f565b600280546040805160a081019091529091908061088060208c018c610d42565b63ffffffff1681526020018a60200135815260200188888080601f01602080910402602001604051908101604052809392919081815260200183838082843760009201829052509385525050436020808501919091526040938401879052855460018082018855968452928190208551600590940201805463ffffffff191663ffffffff909416939093178355840151948201949094559082015191925090600282019061092e9082610ea2565b506060820151600380830191909155608090920151600490910155600190600061095b60208c018c610d42565b63ffffffff1663ffffffff16815260200190815260200160002060008282546109849190610f62565b909155508190507f242f8e427411817769952b7358e982a8ad8a3e818eee20eeadea56b1e16090ca6109b960208b018b610d42565b6040805163ffffffff90921682526020808d013590830152439082015260600160405180910390a25050505050505050565b6000546001600160a01b031633146105405760405162461bcd60e51b815260206004820181905260248201527f4f776e61626c653a2063616c6c6572206973206e6f7420746865206f776e6572604482015260640161049f565b63ffffffff8216600081815260016020908152604091829020849055815192835282018390527f238399d427b947898edb290f5ff0f9109849b1c3ba196a42e35f00c50a54b98b910160405180910390a15050565b600080546001600160a01b038381166001600160a01b0319831681178455604051919092169283917f8be0079c531659141344cd1fd0a4f28419497f9722a3daafe3b4186f6b6457e09190a35050565b600060208284031215610afc57600080fd5b5035919050565b6000815180845260005b81811015610b2957602081850181015186830182015201610b0d565b506000602082860101526020601f19601f83011685010191505092915050565b63ffffffff8616815284602082015260a060408201526000610b6e60a0830186610b03565b606083019490945250608001529392505050565b600060608284031215610b9457600080fd5b50919050565b60008083601f840112610bac57600080fd5b50813567ffffffffffffffff811115610bc457600080fd5b602083019150836020828501011115610bdc57600080fd5b9250929050565b80356001600160a01b0381168114610bfa57600080fd5b919050565b600080600080600080600060e0888a031215610c1a57600080fd5b610c248989610b82565b965060608801359550608088013567ffffffffffffffff80821115610c4857600080fd5b610c548b838c01610b9a565b9097509550859150610c6860a08b01610be3565b945060c08a0135915080821115610c7e57600080fd5b50610c8b8a828b01610b9a565b989b979a50959850939692959293505050565b803563ffffffff81168114610bfa57600080fd5b60008060408385031215610cc557600080fd5b610cce83610c9e565b946020939093013593505050565b60008060008060a08587031215610cf257600080fd5b610cfc8686610b82565b9350606085013567ffffffffffffffff811115610d1857600080fd5b610d2487828801610b9a565b9094509250610d37905060808601610be3565b905092959194509250565b600060208284031215610d5457600080fd5b610d5d82610c9e565b9392505050565b6020815263ffffffff8251166020820152602082015160408201526000604083015160a06060840152610d9a60c0840182610b03565b905060608401516080840152608084015160a08401528091505092915050565b600060208284031215610dcc57600080fd5b610d5d82610be3565b600060608284031215610de757600080fd5b610d5d8383610b82565b600181811c90821680610e0557607f821691505b602082108103610b9457634e487b7160e01b600052602260045260246000fd5b634e487b7160e01b600052603260045260246000fd5b634e487b7160e01b600052604160045260246000fd5b601f821115610e9d576000816000526020600020601f850160051c81016020861015610e7a5750805b601f850160051c820191505b81811015610e9957828155600101610e86565b5050505b505050565b815167ffffffffffffffff811115610ebc57610ebc610e3b565b610ed081610eca8454610df1565b84610e51565b602080601f831160018114610f055760008415610eed5750858301515b600019600386901b1c1916600185901b178555610e99565b600085815260208120601f198616915b82811015610f3457888601518255948401946001909101908401610f15565b5085821015610f525787850151600019600388901b60f8161c191681555b5050505050600190811b01905550565b8082018082111561054557634e487b7160e01b600052601160045260246000fdfea26469706673582212203dc2a423e088288aca143ab487ead4790afb6874663b2c601778edbe9350d04e64736f6c63430008160033",
  "linkReferences": {},
  "deployedLinkReferences": {}
}