{
  "_format": "hh-sol-artifact-1",
  "contractName": "Mev",
  "sourceName": "contracts/Mev.sol",
  "abi": [
    {
      "inputs": [],
      "stateMutability": "nonpayable",
      "type": "constructor"
    },
    {
      "inputs": [],
      "name": "AmountZero",
      "type": "error"
    },
    {
      "inputs": [],
      "name": "ArrayLengthMismatch",
      "type": "error"
    },
    {
      "inputs": [],
      "name": "FunctionNotFound",
      "type": "error"
    },
    {
      "inputs": [],
      "name": "InvalidAddress",
      "type": "error"
    },
    {
      "inputs": [],
      "name": "InvalidLength",
      "type": "error"
    },
    {
      "inputs": [],
      "name": "NotWithdrawer",
      "type": "error"
    },
    {
      "inputs": [],
      "name": "TransferFailed",
      "type": "error"
    },
    {
      "anonymous": false,
      "inputs": [
        {
          "indexed": true,
          "internalType": "address",
          "name": "previousOwner",
          "type": "address"
        },
        {
          "indexed": true,
          "internalType": "address",
          "name": "newOwner",
          "type": "address"
        }
      ],
      "name": "OwnershipTransferred",
      "type": "event"
    },
    {
      "stateMutability": "payable",
      "type": "fallback"
    },
    {
      "inputs": [],
      "name": "NETUID_COUNT",
      "outputs": [
        {
          "internalType": "uint256",
          "name": "",
          "type": "uint256"
        }
      ],
      "stateMutability": "view",
      "type": "function"
    },
    {
      "inputs": [
        {
          "internalType": "address",
          "name": "to",
          "type": "address"
        },
        {
          "internalType": "uint256",
          "name": "amount",
          "type": "uint256"
        }
      ],
      "name": "emergencyWithdrawTao",
      "outputs": [],
      "stateMutability": "nonpayable",
      "type": "function"
    },
    {
      "inputs": [],
      "name": "getAlphaPrices",
      "outputs": [
        {
          "internalType": "uint256[129]",
          "name": "alphaPrices",
          "type": "uint256[129]"
        }
      ],
      "stateMutability": "view",
      "type": "function"
    },
    {
      "inputs": [],
      "name": "getInfo",
      "outputs": [
        {
          "internalType": "bool",
          "name": "staked",
          "type": "bool"
        },
        {
          "internalType": "uint256",
          "name": "ownerBalance",
          "type": "uint256"
        },
        {
          "internalType": "uint256",
          "name": "contractBalance",
          "type": "uint256"
        }
      ],
      "stateMutability": "view",
      "type": "function"
    },
    {
      "inputs": [
        {
          "internalType": "bytes32[]",
          "name": "hotkeys",
          "type": "bytes32[]"
        },
        {
          "internalType": "bytes32[]",
          "name": "coldkeys",
          "type": "bytes32[]"
        }
      ],
      "name": "getStakedAmounts",
      "outputs": [
        {
          "internalType": "uint256[129][]",
          "name": "amounts",
          "type": "uint256[129][]"
        }
      ],
      "stateMutability": "view",
      "type": "function"
    },
    {
      "inputs": [],
      "name": "getTaoInPools",
      "outputs": [
        {
          "internalType": "uint64[129]",
          "name": "taoInPools",
          "type": "uint64[129]"
        }
      ],
      "stateMutability": "view",
      "type": "function"
    },
    {
      "inputs": [],
      "name": "lastStakeTimestamp",
      "outputs": [
        {
          "internalType": "uint256",
          "name": "",
          "type": "uint256"
        }
      ],
      "stateMutability": "view",
      "type": "function"
    },
    {
      "inputs": [],
      "name": "owner",
      "outputs": [
        {
          "internalType": "address",
          "name": "",
          "type": "address"
        }
      ],
      "stateMutability": "view",
      "type": "function"
    },
    {
      "inputs": [],
      "name": "removeStakeAlpha",
      "outputs": [],
      "stateMutability": "nonpayable",
      "type": "function"
    },
    {
      "inputs": [],
      "name": "renounceOwnership",
      "outputs": [],
      "stateMutability": "nonpayable",
      "type": "function"
    },
    {
      "inputs": [
        {
          "internalType": "address",
          "name": "newWithdrawer",
          "type": "address"
        }
      ],
      "name": "setWithdrawer",
      "outputs": [],
      "stateMutability": "nonpayable",
      "type": "function"
    },
    {
      "inputs": [
        {
          "internalType": "uint256",
          "name": "stakeAmount",
          "type": "uint256"
        },
        {
          "internalType": "uint256",
          "name": "alphaNetuid",
          "type": "uint256"
        },
        {
          "internalType": "uint256",
          "name": "alphaPrice",
          "type": "uint256"
        },
        {
          "internalType": "bytes32",
          "name": "_validatorHotkey",
          "type": "bytes32"
        },
        {
          "internalType": "uint256",
          "name": "stakedamount",
          "type": "uint256"
        },
        {
          "internalType": "bytes32",
          "name": "stakedhotkey",
          "type": "bytes32"
        },
        {
          "internalType": "bytes32",
          "name": "stakedcoldkey",
          "type": "bytes32"
        },
        {
          "internalType": "bytes32[]",
          "name": "mevHotkeyBytesKeys",
          "type": "bytes32[]"
        },
        {
          "internalType": "bytes32[]",
          "name": "mevColdkeyBytesKeys",
          "type": "bytes32[]"
        }
      ],
      "name": "stakeTaoForAlpha",
      "outputs": [],
      "stateMutability": "payable",
      "type": "function"
    },
    {
      "inputs": [
        {
          "internalType": "address",
          "name": "newOwner",
          "type": "address"
        }
      ],
      "name": "transferOwnership",
      "outputs": [],
      "stateMutability": "nonpayable",
      "type": "function"
    },
    {
      "inputs": [
        {
          "internalType": "uint256[]",
          "name": "newNetuids",
          "type": "uint256[]"
        }
      ],
      "name": "updateNetuids",
      "outputs": [],
      "stateMutability": "nonpayable",
      "type": "function"
    },
    {
      "inputs": [
        {
          "internalType": "address",
          "name": "to",
          "type": "address"
        }
      ],
      "name": "withdrawAll",
      "outputs": [],
      "stateMutability": "nonpayable",
      "type": "function"
    },
    {
      "inputs": [],
      "name": "withdrawer",
      "outputs": [
        {
          "internalType": "address",
          "name": "",
          "type": "address"
        }
      ],
      "stateMutability": "view",
      "type": "function"
    },
    {
      "stateMutability": "payable",
      "type": "receive"
    }
  ],
  "bytecode": "0x6110a0604090815260016080908152603760a052606e60c052604c60e05260516101005260076101205260706101405260136101605260006101805260126101a052602f6101c05260546101e05260716102005260246102205260336102405260626102605260316102805260756102a05260276102c052605a6102e052603c6103005260676103205261034091909152605f61036052607c61038052606c6103a05260186103c05260576103e052606161040052605361042052604361044052603b61046052602561048052601e6104a05260026104c05260056104e052600e61050052602661052052602c61054052607461056052601b61058052603f6105a05260106105c052607a6105e052605661060052606061062052607261064052605861066052601d6106805260116106a05260236106c05260636106e052600861070052605561072052604961074052601561076052602161078052602d6107a052600c6107c05260296107e052607961080052602261082052603661084052610860819052604b61088052600b6108a052600a6108c052602e6108e052606f61090052606d61092052602a61094052603961096052602b61098052604d6109a05260286109c05260686109e052603a610a0052605e610a2052607f610a40526073610a60526020610a8052607b610aa0526069610ac0526016610ae0526044610b00526017610b2052606a610b40526035610b6052601f610b80526014610ba0526065610bc0526034610be052606b610c00526042610c20526006610c40819052603d610c60526045610c80526064610ca0526059610cc0526009610ce0526038610d00526077610d2052604e610d40526019610d60526032610d8052603e610da0526003610dc0526048610de052604f610e0052601a610e20526076610e4052600d610e60526078610e8052600f610ea052605c610ec0526052610ee0526004610f00526030610f2052605d610f40526066610f6052601c610f80526041610fa0526046610fc052607d610fe052605061100052605b61102052604761104052607e61106052604a611080526200031b916081620003a6565b503480156200032957600080fd5b50620003353362000356565b600180556000600455600380546001600160a01b0319163317905562000405565b600080546001600160a01b038381166001600160a01b0319831681178455604051919092169283917f8be0079c531659141344cd1fd0a4f28419497f9722a3daafe3b4186f6b6457e09190a35050565b8260818101928215620003dc579160200282015b82811115620003dc578251829060ff16905591602001919060010190620003ba565b50620003ea929150620003ee565b5090565b5b80821115620003ea5760008155600101620003ef565b61124e80620004156000396000f3fe6080604052600436106100f75760003560e01c8063a504edf91161008a578063f0f9e97511610059578063f0f9e975146102b7578063f2fde38b146102cd578063f528c62e146102ed578063fa09e6301461030d576100fe565b8063a504edf914610240578063a8c2bb0d14610253578063bc28d5d014610275578063cdc1842414610297576100fe565b80635a9b0b89116100c65780635a9b0b89146101b2578063715018a6146101e45780638da5cb5b146101f95780639be3ac011461022b576100fe565b80630d174c241461011757806326a224e0146101395780633f3b78581461016f57806350bf86491461018f576100fe565b366100fe57005b60405163201f3fd360e11b815260040160405180910390fd5b34801561012357600080fd5b50610137610132366004610e8f565b61032d565b005b34801561014557600080fd5b50610159610154366004610efd565b6103a1565b6040516101669190610f69565b60405180910390f35b34801561017b57600080fd5b5061013761018a366004610fd4565b61052a565b34801561019b57600080fd5b506101a4608181565b604051908152602001610166565b3480156101be57600080fd5b506101c761059a565b604080519315158452602084019290925290820152606001610166565b3480156101f057600080fd5b506101376105db565b34801561020557600080fd5b506000546001600160a01b03165b6040516001600160a01b039091168152602001610166565b34801561023757600080fd5b506101376105ef565b61013761024e366004611016565b61067b565b34801561025f57600080fd5b506102686109bc565b60405161016691906110d1565b34801561028157600080fd5b5061028a6109d1565b604051610166919061110d565b3480156102a357600080fd5b50600354610213906001600160a01b031681565b3480156102c357600080fd5b506101a460025481565b3480156102d957600080fd5b506101376102e8366004610e8f565b6109e1565b3480156102f957600080fd5b50610137610308366004611136565b610a5f565b34801561031957600080fd5b50610137610328366004610e8f565b610b1f565b6003546001600160a01b0316331461035857604051632d99bc8360e21b815260040160405180910390fd5b6001600160a01b03811661037f5760405163e6c4247b60e01b815260040160405180910390fd5b600380546001600160a01b0319166001600160a01b0392909216919091179055565b6060838281146103c45760405163512509d360e11b815260040160405180910390fd5b8067ffffffffffffffff8111156103dd576103dd611160565b60405190808252806020026020018201604052801561041657816020015b610403610e54565b8152602001906001900390816103fb5790505b50915060005b8181101561052057600087878381811061043857610438611176565b905060200201359050600086868481811061045557610455611176565b90506020020135905060005b6081811015610512576040516371dacc7d60e11b81526004810184905260248101839052604481018290526108059063e3b598fa90606401602060405180830381865afa1580156104b6573d6000803e3d6000fd5b505050506040513d601f19601f820116820180604052508101906104da919061118c565b8685815181106104ec576104ec611176565b6020026020010151826081811061050557610505611176565b6020020152600101610461565b50826001019250505061041c565b5050949350505050565b610532610b6d565b608181146105535760405163251f56a160e21b815260040160405180910390fd5b60005b60818110156105955782828281811061057157610571611176565b905060200201356006826081811061058b5761058b611176565b0155600101610556565b505050565b60008060006004546000036105b05760006105b3565b60015b92506105c76000546001600160a01b031690565b6001600160a01b0316319150479050909192565b6105e3610b6d565b6105ed6000610bc7565b565b6105f7610b6d565b6004541580159061060a57506002544214155b156105ed576005546004805460405163d4626bb960e01b81526108059363d4626bb99361064293919201918252602082015260400190565b600060405180830381600087803b15801561065c57600080fd5b505af1158015610670573d6000803e3d6000fd5b505060006004555050565b610683610c17565b61068b610b6d565b6000600661069c60ff8b168d6111a5565b608181106106ac576106ac611176565b015490506004546000141580156106c557506002544214155b15610735576005546004805460405163d4626bb960e01b81526108059363d4626bb9936106fd93919201918252602082015260400190565b600060405180830381600087803b15801561071757600080fd5b505af115801561072b573d6000803e3d6000fd5b5050600060045550505b8b156109a457838815610855576040516371dacc7d60e11b81526004810189905260248101889052604481018390526000906108059063e3b598fa90606401602060405180830381865afa158015610791573d6000803e3d6000fd5b505050506040513d601f19601f820116820180604052508101906107b5919061118c565b6107bf908b6111a5565b60405163c2ba9e8760e01b815261ffff851660048201529091506000906108089063c2ba9e8790602401602060405180830381865afa158015610806573d6000803e3d6000fd5b505050506040513d601f19601f8201168201806040525081019061082a91906111cc565b67ffffffffffffffff1690506108426107d0826111f6565b82101561085257505050506109a6565b50505b60005b8181101561092a57600061080563e3b598fa89898581811061087c5761087c611176565b9050602002013588888681811061089557610895611176565b6040516001600160e01b031960e087901b1681526004810194909452602002919091013560248301525060448101879052606401602060405180830381865afa1580156108e6573d6000803e3d6000fd5b505050506040513d601f19601f8201168201806040525081019061090a919061118c565b9050633b9aca0081111561092157505050506109a6565b50600101610858565b506040516369e38bc360e01b815261ffff831660048201528b90610808906369e38bc390602401602060405180830381865afa15801561096e573d6000803e3d6000fd5b505050506040513d601f19601f82011682018060405250810190610992919061118c565b116109a2576109a28a8e84610c70565b505b505b6109af60018055565b5050505050505050505050565b6109c4610e54565b6109cc610d01565b905090565b6109d9610e54565b6109cc610db4565b6109e9610b6d565b6001600160a01b038116610a535760405162461bcd60e51b815260206004820152602660248201527f4f776e61626c653a206e6577206f776e657220697320746865207a65726f206160448201526564647265737360d01b60648201526084015b60405180910390fd5b610a5c81610bc7565b50565b6003546001600160a01b03163314610a8a57604051632d99bc8360e21b815260040160405180910390fd5b80600003610aab576040516365e52d5160e11b815260040160405180910390fd5b6000826001600160a01b03168260405160006040518083038185875af1925050503d8060008114610af8576040519150601f19603f3d011682016040523d82523d6000602084013e610afd565b606091505b5050905080610595576040516312171d8360e31b815260040160405180910390fd5b6003546001600160a01b03163314610b4a57604051632d99bc8360e21b815260040160405180910390fd5b476000819003610aab576040516365e52d5160e11b815260040160405180910390fd5b6000546001600160a01b031633146105ed5760405162461bcd60e51b815260206004820181905260248201527f4f776e61626c653a2063616c6c6572206973206e6f7420746865206f776e65726044820152606401610a4a565b600080546001600160a01b038381166001600160a01b0319831681178455604051919092169283917f8be0079c531659141344cd1fd0a4f28419497f9722a3daafe3b4186f6b6457e09190a35050565b600260015403610c695760405162461bcd60e51b815260206004820152601f60248201527f5265656e7472616e637947756172643a207265656e7472616e742063616c6c006044820152606401610a4a565b6002600155565b4782811115610c7c5750815b610805631fc9b14185610c93633b9aca00856111f6565b6040516001600160e01b031960e085901b1681526004810192909252602482015260448101859052606401600060405180830381600087803b158015610cd857600080fd5b505af1158015610cec573d6000803e3d6000fd5b50505060059490945550600455505042600255565b610d09610e54565b60005b608161ffff82161015610db057604051632d9bfc7160e01b815261ffff8216600482015261080890632d9bfc7190602401602060405180830381865afa925050508015610d76575060408051601f3d908101601f19168201909252610d73918101906111cc565b60015b15610da85780838361ffff1660818110610d9257610d92611176565b67ffffffffffffffff9092166020929092020152505b600101610d0c565b5090565b610dbc610e54565b60005b608161ffff82161015610db0576040516369e38bc360e01b815261ffff82166004820152610808906369e38bc390602401602060405180830381865afa925050508015610e29575060408051601f3d908101601f19168201909252610e269181019061118c565b60015b15610e4c5780838361ffff1660818110610e4557610e45611176565b6020020152505b600101610dbf565b6040518061102001604052806081906020820280368337509192915050565b80356001600160a01b0381168114610e8a57600080fd5b919050565b600060208284031215610ea157600080fd5b610eaa82610e73565b9392505050565b60008083601f840112610ec357600080fd5b50813567ffffffffffffffff811115610edb57600080fd5b6020830191508360208260051b8501011115610ef657600080fd5b9250929050565b60008060008060408587031215610f1357600080fd5b843567ffffffffffffffff80821115610f2b57600080fd5b610f3788838901610eb1565b90965094506020870135915080821115610f5057600080fd5b50610f5d87828801610eb1565b95989497509550505050565b602080825282518282018190526000919084820190604085019084805b82811015610fc757845184835b6081811015610fb057825182529188019190880190600101610f93565b505050938501936110209390930192600101610f86565b5091979650505050505050565b60008060208385031215610fe757600080fd5b823567ffffffffffffffff811115610ffe57600080fd5b61100a85828601610eb1565b90969095509350505050565b60008060008060008060008060008060006101208c8e03121561103857600080fd5b8b359a5060208c0135995060408c0135985060608c0135975060808c0135965060a08c0135955060c08c0135945067ffffffffffffffff8060e08e0135111561108057600080fd5b6110908e60e08f01358f01610eb1565b90955093506101008d01358110156110a757600080fd5b506110b98d6101008e01358e01610eb1565b81935080925050509295989b509295989b9093969950565b6110208101818360005b608181101561110457815167ffffffffffffffff168352602092830192909101906001016110db565b50505092915050565b6110208101818360005b6081811015611104578151835260209283019290910190600101611117565b6000806040838503121561114957600080fd5b61115283610e73565b946020939093013593505050565b634e487b7160e01b600052604160045260246000fd5b634e487b7160e01b600052603260045260246000fd5b60006020828403121561119e57600080fd5b5051919050565b818103818111156111c657634e487b7160e01b600052601160045260246000fd5b92915050565b6000602082840312156111de57600080fd5b815167ffffffffffffffff81168114610eaa57600080fd5b60008261121357634e487b7160e01b600052601260045260246000fd5b50049056fea2646970667358221220d296cb4ca837263094329c09a736b4b10281cc663565a80760c73400ed90b48364736f6c63430008160033",
  "linkReferences": {},
  "deployedLinkReferences": {}
}