{
  "_format": "hh-sol-artifact-1",
  "contractName": "Mev",
  "sourceName": "contracts/Mev.sol",
  "abi": [
    {
      "inputs": [],
      "stateMutability": "nonpayable",
      "type": "constructor"
    },
    {
      "inputs": [],
      "name": "AmountZero",
      "type": "error"
    },
    {
      "inputs": [],
      "name": "ArrayLengthMismatch",
      "type": "error"
    },
    {
      "inputs": [],
      "name": "FunctionNotFound",
      "type": "error"
    },
    {
      "inputs": [],
      "name": "InvalidAddress",
      "type": "error"
    },
    {
      "inputs": [],
      "name": "InvalidLength",
      "type": "error"
    },
    {
      "inputs": [],
      "name": "NotWithdrawer",
      "type": "error"
    },
    {
      "inputs": [],
      "name": "TransferFailed",
      "type": "error"
    },
    {
      "anonymous": false,
      "inputs": [
        {
          "indexed": true,
          "internalType": "address",
          "name": "previousOwner",
          "type": "address"
        },
        {
          "indexed": true,
          "internalType": "address",
          "name": "newOwner",
          "type": "address"
        }
      ],
      "name": "OwnershipTransferred",
      "type": "event"
    },
    {
      "stateMutability": "payable",
      "type": "fallback"
    },
    {
      "inputs": [],
      "name": "NETUID_COUNT",
      "outputs": [
        {
          "internalType": "uint256",
          "name": "",
          "type": "uint256"
        }
      ],
      "stateMutability": "view",
      "type": "function"
    },
    {
      "inputs": [
        {
          "internalType": "address",
          "name": "to",
          "type": "address"
        },
        {
          "internalType": "uint256",
          "name": "amount",
          "type": "uint256"
        }
      ],
      "name": "emergencyWithdrawTao",
      "outputs": [],
      "stateMutability": "nonpayable",
      "type": "function"
    },
    {
      "inputs": [],
      "name": "getAlphaPrices",
      "outputs": [
        {
          "internalType": "uint256[129]",
          "name": "alphaPrices",
          "type": "uint256[129]"
        }
      ],
      "stateMutability": "view",
      "type": "function"
    },
    {
      "inputs": [],
      "name": "getInfo",
      "outputs": [
        {
          "internalType": "bool",
          "name": "staked",
          "type": "bool"
        },
        {
          "internalType": "uint256",
          "name": "ownerBalance",
          "type": "uint256"
        },
        {
          "internalType": "uint256",
          "name": "contractBalance",
          "type": "uint256"
        }
      ],
      "stateMutability": "view",
      "type": "function"
    },
    {
      "inputs": [
        {
          "internalType": "bytes32[]",
          "name": "hotkeys",
          "type": "bytes32[]"
        },
        {
          "internalType": "bytes32[]",
          "name": "coldkeys",
          "type": "bytes32[]"
        }
      ],
      "name": "getStakedAmounts",
      "outputs": [
        {
          "internalType": "uint256[129][]",
          "name": "amounts",
          "type": "uint256[129][]"
        }
      ],
      "stateMutability": "view",
      "type": "function"
    },
    {
      "inputs": [],
      "name": "getTaoInPools",
      "outputs": [
        {
          "internalType": "uint64[129]",
          "name": "taoInPools",
          "type": "uint64[129]"
        }
      ],
      "stateMutability": "view",
      "type": "function"
    },
    {
      "inputs": [],
      "name": "lastStakeTimestamp",
      "outputs": [
        {
          "internalType": "uint256",
          "name": "",
          "type": "uint256"
        }
      ],
      "stateMutability": "view",
      "type": "function"
    },
    {
      "inputs": [],
      "name": "owner",
      "outputs": [
        {
          "internalType": "address",
          "name": "",
          "type": "address"
        }
      ],
      "stateMutability": "view",
      "type": "function"
    },
    {
      "inputs": [],
      "name": "removeStakeAlpha",
      "outputs": [],
      "stateMutability": "nonpayable",
      "type": "function"
    },
    {
      "inputs": [],
      "name": "renounceOwnership",
      "outputs": [],
      "stateMutability": "nonpayable",
      "type": "function"
    },
    {
      "inputs": [
        {
          "internalType": "address",
          "name": "newWithdrawer",
          "type": "address"
        }
      ],
      "name": "setWithdrawer",
      "outputs": [],
      "stateMutability": "nonpayable",
      "type": "function"
    },
    {
      "inputs": [
        {
          "internalType": "uint256",
          "name": "stakeAmount",
          "type": "uint256"
        },
        {
          "internalType": "uint256",
          "name": "alphaNetuid",
          "type": "uint256"
        },
        {
          "internalType": "uint256",
          "name": "alphaPrice",
          "type": "uint256"
        },
        {
          "internalType": "bytes32",
          "name": "_validatorHotkey",
          "type": "bytes32"
        },
        {
          "internalType": "uint256",
          "name": "stakedamount",
          "type": "uint256"
        },
        {
          "internalType": "bytes32",
          "name": "stakedhotkey",
          "type": "bytes32"
        },
        {
          "internalType": "bytes32",
          "name": "stakedcoldkey",
          "type": "bytes32"
        },
        {
          "internalType": "bytes32[]",
          "name": "mevHotkeyBytesKeys",
          "type": "bytes32[]"
        },
        {
          "internalType": "bytes32[]",
          "name": "mevColdkeyBytesKeys",
          "type": "bytes32[]"
        }
      ],
      "name": "stakeTaoForAlpha",
      "outputs": [],
      "stateMutability": "payable",
      "type": "function"
    },
    {
      "inputs": [
        {
          "internalType": "address",
          "name": "newOwner",
          "type": "address"
        }
      ],
      "name": "transferOwnership",
      "outputs": [],
      "stateMutability": "nonpayable",
      "type": "function"
    },
    {
      "inputs": [
        {
          "internalType": "uint256[]",
          "name": "newNetuids",
          "type": "uint256[]"
        }
      ],
      "name": "updateNetuids",
      "outputs": [],
      "stateMutability": "nonpayable",
      "type": "function"
    },
    {
      "inputs": [
        {
          "internalType": "address",
          "name": "to",
          "type": "address"
        }
      ],
      "name": "withdrawAll",
      "outputs": [],
      "stateMutability": "nonpayable",
      "type": "function"
    },
    {
      "inputs": [],
      "name": "withdrawer",
      "outputs": [
        {
          "internalType": "address",
          "name": "",
          "type": "address"
        }
      ],
      "stateMutability": "view",
      "type": "function"
    },
    {
      "stateMutability": "payable",
      "type": "receive"
    }
  ],
  "bytecode": "0x6080346104bd5760008054336001600160a01b03198083168217845593916001600160a01b03167f8be0079c531659141344cd1fd0a4f28419497f9722a3daafe3b4186f6b6457e08480a360018080559061102081016001600160401b038111828210176104a9576040526001815260209060376020820152606e6040820152604c606082015260516080820152600760a0820152607060c0820152601360e0820152836101008201526012610120820152602f6101408201526054610160820152607161018082015260246101a082015260336101c082015260626101e0820152603161020082015260756102208201526027610240820152605a610260820152603c61028082015260676102a082015260406102c0820152605f6102e0820152607c610300820152606c61032082015260186103408201526057610360820152606161038082015260536103a082015260436103c0820152603b6103e08201526025610400820152601e61042082015260026104408201526005610460820152600e61048082015260266104a0820152602c6104c082015260746104e0820152601b610500820152603f6105208201526010610540820152607a610560820152605661058082015260606105a082015260726105c082015260586105e0820152601d610600820152601161062082015260236106408201526063610660820152600861068082015260556106a082015260496106c082015260156106e08201526021610700820152602d610720820152600c6107408201526029610760820152607961078082015260226107a082015260366107c082015260806107e0820152604b610800820152600b610820820152600a610840820152602e610860820152606f610880820152606d6108a0820152602a6108c082015260396108e0820152602b610900820152604d61092082015260286109408201526068610960820152603a610980820152605e6109a0820152607f6109c082015260736109e08201526020610a00820152607b610a208201526069610a408201526016610a608201526044610a808201526017610aa0820152606a610ac08201526035610ae0820152601f610b008201526014610b208201526065610b408201526034610b60820152606b610b808201526042610ba08201526006906006610bc0820152603d610be08201526045610c008201526064610c208201526059610c408201526009610c608201526038610c808201526077610ca0820152604e610cc08201526019610ce08201526032610d00820152603e610d208201526003610d408201526048610d60820152604f610d80820152601a610da08201526076610dc0820152600d610de08201526078610e00820152600f610e20820152605c610e408201526052610e608201526004610e808201526030610ea0820152605d610ec08201526066610ee0820152601c610f008201526041610f208201526046610f40820152607d610f608201526050610f80820152605b610fa08201526047610fc0820152607e610fe0820152604a61100082015290845b608181106104955786866004553390600354161760035560405161100590816104c38239f35b825160ff168282015591830191840161046f565b634e487b7160e01b84526041600452602484fd5b600080fdfe6080604081815260049182361015610028575b503615610026575163201f3fd360e11b8152fd5b005b600090813560e01c9081630d174c24146109d05750806326a224e0146107ab5780633f3b78581461073157806350bf8649146107155780635a9b0b89146106d0578063715018a6146106765780638da5cb5b1461064e5780639be3ac01146105b3578063a504edf9146104da578063a8c2bb0d146103d5578063bc28d5d0146102d8578063cdc18424146102af578063f0f9e9751461028c578063f2fde38b146101bf578063f528c62e146101645763fa09e6300361001257919034610160576020366003190112610160576100fc610a3b565b6003546001600160a01b03908116330361015157479182156101415785809381938293165af161012a610f38565b5015610134578280f35b516312171d8360e31b8152fd5b505050516365e52d5160e11b8152fd5b505051632d99bc8360e21b8152fd5b8280fd5b5091903461016057806003193601126101605761017f610a3b565b600354602435916001600160a01b0391821633036101af5782156101415785809381938293165af161012a610f38565b50505051632d99bc8360e21b8152fd5b509134610160576020366003190112610160576101da610a3b565b906101e3610f77565b6001600160a01b0391821692831561023a575050600054826bffffffffffffffffffffffff60a01b821617600055167f8be0079c531659141344cd1fd0a4f28419497f9722a3daafe3b4186f6b6457e0600080a380f35b906020608492519162461bcd60e51b8352820152602660248201527f4f776e61626c653a206e6577206f776e657220697320746865207a65726f206160448201526564647265737360d01b6064820152fd5b5090346102ab57816003193601126102ab576020906002549051908152f35b5080fd5b5090346102ab57816003193601126102ab5760035490516001600160a01b039091168152602090f35b508290346103d257806003193601126103d2578251906102f782610aaa565b6110208092369037835161030a81610aaa565b82368237815b61ffff908181169060818210156103a45787516369e38bc360e01b81528781018390529160209081846024816108085afa87928161036e575b506001945061035c575b50500116610310565b6103669086610b24565b528880610353565b90925084813d831161039d575b6103858183610ac6565b810103126103985760019351918b610349565b600080fd5b503d61037b565b5050855192919050825b608183106103bb57505050f35b6001908251815260208091019201920191906103ae565b80fd5b5082346102ab57816003193601126102ab578251906103f382610aaa565b611020809236903783519161040783610aaa565b80368437835b61ffff9081811660818110156104a5578751632d9bfc7160e01b815285810182905260019291602080836024816108085afa9283918b94610476575b5050610459575b5050011661040d565b61046b6001600160401b039189610b24565b911690528880610450565b610496929450803d1061049e575b61048e8183610ac6565b810190610b58565b918b80610449565b503d610484565b875184908888825b608183106104ba57505050f35b6001906001600160401b03835116815260208091019201920191906104ad565b50826101203660031901126102ab576001600160401b039060e4358281116105af576105099036908301610a51565b9092610104359081116105ab576105239036908401610a51565b939092600260015414610568576105619596506002600155610543610f77565b60c4359060a435906084359060643590604435906024359035610b77565b6001805580f35b606490602088519162461bcd60e51b8352820152601f60248201527f5265656e7472616e637947756172643a207265656e7472616e742063616c6c006044820152fd5b8480fd5b8380fd5b5090346102ab57816003193601126102ab576105cd610f77565b82549081151580610642575b6105e1578280f35b6005549161080592833b156105ab579060448592838551968794859363d4626bb960e01b85528b85015260248401525af1908115610639575061062a575b508091558038808280f35b61063390610a81565b3861061f565b513d84823e3d90fd5b506002544214156105d9565b5090346102ab57816003193601126102ab57905490516001600160a01b039091168152602090f35b50346103d257806003193601126103d25761068f610f77565b80546001600160a01b03198116825581906001600160a01b03167f8be0079c531659141344cd1fd0a4f28419497f9722a3daafe3b4186f6b6457e08280a380f35b5090346102ab57816003193601126102ab579154606092901561070f576001915b54815192151583526001600160a01b03163160208301524790820152f35b816106f1565b5090346102ab57816003193601126102ab576020905160818152f35b5091346101605760203660031901126101605780356001600160401b0381116105af576107619036908301610a51565b9161076a610f77565b6081936081840361079e575050835b838110610784578480f35b806107926001928585610afe565b35816006015501610779565b5163251f56a160e21b8152fd5b509190346101605780600319360112610160576001600160401b039082358281116105ab576107dd9036908501610a51565b936024936024359081116109cc576107f89036908301610a51565b9490918587036109be5761080d879597610ae7565b9561081a88519788610ac6565b85875261082686610ae7565b60209690601f19018a5b81811061099a575050895b8181106108ab578a8a8a8a825192818085019181865284518093528501930191855b82811061086a5785850386f35b90919293828551829089915b608183106108955750505061102060019201950191019291909261085d565b8151815286936001909301929182019101610876565b6108b98183899c9a9c610afe565b356108c5828589610afe565b358c5b8d8d888d608185106108e6575050505050505060010198969861083b565b516371dacc7d60e11b815290810186815260208101869052604081018590529091908290819060600103816108055afa91821561098f579161095e575b508c5185101561094c57906001916109458f8f9084918960051b010151610b24565b52016108c8565b634e487b7160e01b8f5260328852888ffd5b90508d81813d8311610988575b6109758183610ac6565b81010312610984575138610923565b8e80fd5b503d61096b565b8d51903d90823e3d90fd5b978a98819b516109a981610aaa565b61102036823782828d01015201999799610830565b845163512509d360e11b8152fd5b8680fd5b91939050346105af5760203660031901126105af576109ed610a3b565b600354926001600160a01b0391908285163303610a2d575016928315610a205750506001600160a01b0319161760035580f35b5163e6c4247b60e01b8152fd5b632d99bc8360e21b81528390fd5b600435906001600160a01b038216820361039857565b9181601f84011215610398578235916001600160401b038311610398576020808501948460051b01011161039857565b6001600160401b038111610a9457604052565b634e487b7160e01b600052604160045260246000fd5b61102081019081106001600160401b03821117610a9457604052565b90601f801991011681019081106001600160401b03821117610a9457604052565b6001600160401b038111610a945760051b60200190565b9190811015610b0e5760051b0190565b634e487b7160e01b600052603260045260246000fd5b906081811015610b0e5760051b0190565b91908203918211610b4257565b634e487b7160e01b600052601160045260246000fd5b9081602091031261039857516001600160401b03811681036103985790565b9599919498929790969398610b9260009860ff8b1690610b35565b6081811015610f2457600601549a60049a8b5480151580610f18575b610eb1575b5088610bc9575b50505050505050505050505050565b8b8d82610db2575b5050505050865b818110610cf05750505050506040516369e38bc360e01b815261ffff8716868201526020816024816108085afa908115610ce5578491610cb3575b501115610c28575b8080808080808080610bba565b4790808211610cab575b5061080590813b1561016057633b9aca0060648492836040519586948593631fc9b14160e01b85528a8c8601520460248401528a60448401525af18015610ca057610c8c575b505060055555426002553880808080610c1b565b610c968291610a81565b6103d25780610c78565b6040513d84823e3d90fd5b905038610c32565b90506020813d602011610cdd575b81610cce60209383610ac6565b81010312610398575138610c13565b3d9150610cc1565b6040513d86823e3d90fd5b610d3f8b610cff838589610afe565b358c610d0c85888a610afe565b3592604093845195869283926371dacc7d60e11b8452602096879685016040919493926060820195825260208201520152565b03816108055afa918215610da957508a91610d77575b50633b9aca00915011610d6a57600101610bd8565b5050505050505050505050565b905081813d8311610da2575b610d8d8183610ac6565b8101031261039857633b9aca00905138610d55565b503d610d83565b513d8c823e3d90fd5b604080516371dacc7d60e11b8152928301958652602086810195909552850152919283908390819060600103816108055afa908115610e75578a91610e80575b610dfc9250610b35565b9060405163c2ba9e8760e01b815261ffff8d168c82015281816024816108085afa918215610e7557916001600160401b03916107d0938c92610e58575b5050160411610e4c573880808b8d610bd1565b50505050505050505050565b610e6e9250803d1061049e5761048e8183610ac6565b3880610e39565b6040513d8c823e3d90fd5b90508282813d8311610eaa575b610e978183610ac6565b8101031261039857610dfc915190610df2565b503d610e8d565b600554610805803b15610f14579060448f8e8094604051968795869463d4626bb960e01b865285015260248401525af18015610f0957610ef6575b50898c5538610bb3565b610f02909a919a610a81565b9838610eec565b6040513d8d823e3d90fd5b8c80fd5b50600254421415610bae565b634e487b7160e01b89526032600452602489fd5b3d15610f72573d906001600160401b038211610a945760405191610f66601f8201601f191660200184610ac6565b82523d6000602084013e565b606090565b6000546001600160a01b03163303610f8b57565b606460405162461bcd60e51b815260206004820152602060248201527f4f776e61626c653a2063616c6c6572206973206e6f7420746865206f776e65726044820152fdfea2646970667358221220f8594f01bb0eb7c32d36d40f819b1036b8ecb556e7c90efe0b99e2282202d86164736f6c63430008160033",
  "linkReferences": {},
  "deployedLinkReferences": {}
}