{
  "_format": "hh-sol-artifact-1",
  "contractName": "Mev",
  "sourceName": "contracts/Mev.sol",
  "abi": [
    {
      "inputs": [],
      "stateMutability": "nonpayable",
      "type": "constructor"
    },
    {
      "inputs": [],
      "name": "AmountZero",
      "type": "error"
    },
    {
      "inputs": [],
      "name": "ArrayLengthMismatch",
      "type": "error"
    },
    {
      "inputs": [],
      "name": "FunctionNotFound",
      "type": "error"
    },
    {
      "inputs": [],
      "name": "InvalidLength",
      "type": "error"
    },
    {
      "inputs": [],
      "name": "TransferFailed",
      "type": "error"
    },
    {
      "anonymous": false,
      "inputs": [
        {
          "indexed": true,
          "internalType": "address",
          "name": "previousOwner",
          "type": "address"
        },
        {
          "indexed": true,
          "internalType": "address",
          "name": "newOwner",
          "type": "address"
        }
      ],
      "name": "OwnershipTransferred",
      "type": "event"
    },
    {
      "stateMutability": "payable",
      "type": "fallback"
    },
    {
      "inputs": [
        {
          "internalType": "uint256",
          "name": "stakeAmount",
          "type": "uint256"
        },
        {
          "internalType": "uint256",
          "name": "alphaNetuid",
          "type": "uint256"
        },
        {
          "internalType": "bytes32",
          "name": "_validatorHotkey",
          "type": "bytes32"
        }
      ],
      "name": "ForceStake",
      "outputs": [],
      "stateMutability": "payable",
      "type": "function"
    },
    {
      "inputs": [],
      "name": "NETUID_COUNT",
      "outputs": [
        {
          "internalType": "uint256",
          "name": "",
          "type": "uint256"
        }
      ],
      "stateMutability": "view",
      "type": "function"
    },
    {
      "inputs": [
        {
          "internalType": "address",
          "name": "to",
          "type": "address"
        },
        {
          "internalType": "uint256",
          "name": "amount",
          "type": "uint256"
        }
      ],
      "name": "emergencyWithdrawTao",
      "outputs": [],
      "stateMutability": "nonpayable",
      "type": "function"
    },
    {
      "inputs": [],
      "name": "getAlphaPrices",
      "outputs": [
        {
          "internalType": "uint256[129]",
          "name": "alphaPrices",
          "type": "uint256[129]"
        }
      ],
      "stateMutability": "view",
      "type": "function"
    },
    {
      "inputs": [],
      "name": "getInfo",
      "outputs": [
        {
          "internalType": "bool",
          "name": "staked",
          "type": "bool"
        },
        {
          "internalType": "uint256",
          "name": "ownerBalance",
          "type": "uint256"
        },
        {
          "internalType": "uint256",
          "name": "contractBalance",
          "type": "uint256"
        }
      ],
      "stateMutability": "view",
      "type": "function"
    },
    {
      "inputs": [],
      "name": "getTaoInPools",
      "outputs": [
        {
          "internalType": "uint64[129]",
          "name": "taoInPools",
          "type": "uint64[129]"
        }
      ],
      "stateMutability": "view",
      "type": "function"
    },
    {
      "inputs": [],
      "name": "is_staked",
      "outputs": [
        {
          "internalType": "bool",
          "name": "",
          "type": "bool"
        }
      ],
      "stateMutability": "view",
      "type": "function"
    },
    {
      "inputs": [],
      "name": "lastStakeTimestamp",
      "outputs": [
        {
          "internalType": "uint256",
          "name": "",
          "type": "uint256"
        }
      ],
      "stateMutability": "view",
      "type": "function"
    },
    {
      "inputs": [
        {
          "internalType": "uint256",
          "name": "",
          "type": "uint256"
        }
      ],
      "name": "mevColdkeyBytesKeys",
      "outputs": [
        {
          "internalType": "bytes32",
          "name": "",
          "type": "bytes32"
        }
      ],
      "stateMutability": "view",
      "type": "function"
    },
    {
      "inputs": [
        {
          "internalType": "uint256",
          "name": "",
          "type": "uint256"
        }
      ],
      "name": "mevHotkeyBytesKeys",
      "outputs": [
        {
          "internalType": "bytes32",
          "name": "",
          "type": "bytes32"
        }
      ],
      "stateMutability": "view",
      "type": "function"
    },
    {
      "inputs": [],
      "name": "owner",
      "outputs": [
        {
          "internalType": "address",
          "name": "",
          "type": "address"
        }
      ],
      "stateMutability": "view",
      "type": "function"
    },
    {
      "inputs": [],
      "name": "renounceOwnership",
      "outputs": [],
      "stateMutability": "nonpayable",
      "type": "function"
    },
    {
      "inputs": [
        {
          "internalType": "address",
          "name": "newWithdrawer",
          "type": "address"
        }
      ],
      "name": "setWithdrawer",
      "outputs": [],
      "stateMutability": "nonpayable",
      "type": "function"
    },
    {
      "inputs": [
        {
          "internalType": "uint256",
          "name": "stakeAmount",
          "type": "uint256"
        },
        {
          "internalType": "uint256",
          "name": "alphaNetuid",
          "type": "uint256"
        },
        {
          "internalType": "uint256",
          "name": "alphaPrice",
          "type": "uint256"
        },
        {
          "internalType": "bytes32",
          "name": "_validatorHotkey",
          "type": "bytes32"
        }
      ],
      "name": "stakeTaoForAlpha",
      "outputs": [],
      "stateMutability": "payable",
      "type": "function"
    },
    {
      "inputs": [
        {
          "internalType": "address",
          "name": "newOwner",
          "type": "address"
        }
      ],
      "name": "transferOwnership",
      "outputs": [],
      "stateMutability": "nonpayable",
      "type": "function"
    },
    {
      "inputs": [
        {
          "internalType": "bytes32[]",
          "name": "newMevHotkeyBytesKeys",
          "type": "bytes32[]"
        },
        {
          "internalType": "bytes32[]",
          "name": "newMevColdkeyBytesKeys",
          "type": "bytes32[]"
        }
      ],
      "name": "updateMevKeys",
      "outputs": [],
      "stateMutability": "nonpayable",
      "type": "function"
    },
    {
      "inputs": [
        {
          "internalType": "uint256[]",
          "name": "newNetuids",
          "type": "uint256[]"
        }
      ],
      "name": "updateNetuids",
      "outputs": [],
      "stateMutability": "nonpayable",
      "type": "function"
    },
    {
      "inputs": [
        {
          "internalType": "address",
          "name": "to",
          "type": "address"
        }
      ],
      "name": "withdrawAll",
      "outputs": [],
      "stateMutability": "nonpayable",
      "type": "function"
    },
    {
      "inputs": [],
      "name": "withdrawer",
      "outputs": [
        {
          "internalType": "address",
          "name": "",
          "type": "address"
        }
      ],
      "stateMutability": "view",
      "type": "function"
    },
    {
      "stateMutability": "payable",
      "type": "receive"
    }
  ],
  "bytecode": "0x600680546001600160a01b03191681556110a0604090815260016080908152603760a052606e60c052604c60e05260516101005260076101205260706101405260136101605260006101805260126101a052602f6101c05260546101e05260716102005260246102205260336102405260626102605260316102805260756102a05260276102c052605a6102e052603c6103005260676103205261034091909152605f61036052607c61038052606c6103a05260186103c05260576103e052606161040052605361042052604361044052603b61046052602561048052601e6104a05260026104c05260056104e052600e61050052602661052052602c61054052607461056052601b61058052603f6105a05260106105c052607a6105e052605661060052606061062052607261064052605861066052601d6106805260116106a05260236106c05260636106e052600861070052605561072052604961074052601561076052602161078052602d6107a052600c6107c05260296107e052607961080052602261082052603661084052610860819052604b61088052600b6108a052600a6108c052602e6108e052606f61090052606d61092052602a61094052603961096052602b61098052604d6109a05260286109c05260686109e052603a610a0052605e610a2052607f610a40526073610a60526020610a8052607b610aa0526069610ac0526016610ae0526044610b00526017610b2052606a610b40526035610b6052601f610b80526014610ba0526065610bc0526034610be052606b610c00526042610c2052610c4091909152603d610c60526045610c80526064610ca0526059610cc0526009610ce08190526038610d00526077610d2052604e610d40526019610d60526032610d8052603e610da0526003610dc0526048610de052604f610e0052601a610e20526076610e4052600d610e60526078610e8052600f610ea052605c610ec0526052610ee0526004610f00526030610f2052605d610f40526066610f6052601c610f80526041610fa0526046610fc052607d610fe052605061100052605b61102052604761104052607e61106052604a611080526200032c916081620003c1565b503480156200033a57600080fd5b50620003463362000371565b600180556002805460ff191690556000600755600680546001600160a01b0319163317905562000420565b600080546001600160a01b038381166001600160a01b0319831681178455604051919092169283917f8be0079c531659141344cd1fd0a4f28419497f9722a3daafe3b4186f6b6457e09190a35050565b8260818101928215620003f7579160200282015b82811115620003f7578251829060ff16905591602001919060010190620003d5565b506200040592915062000409565b5090565b5b808211156200040557600081556001016200040a565b6112c380620004306000396000f3fe6080604052600436106101185760003560e01c80639ebf1378116100a0578063cdc1842411610064578063cdc184241461030f578063f0f9e9751461032f578063f2fde38b14610345578063f528c62e14610365578063fa09e630146103855761011f565b80639ebf137814610278578063a8c2bb0d1461028b578063b6b2a68d146102ad578063bc28d5d0146102cd578063c82ad204146102ef5761011f565b806350bf8649116100e757806350bf8649146101bc57806351b2e72d146101df5780635a9b0b89146101ff578063715018a6146102315780638da5cb5b146102465761011f565b80630d174c2414610138578063169374dc1461015a5780632f6fc02e1461016d5780633f3b78581461019c5761011f565b3661011f57005b60405163201f3fd360e11b815260040160405180910390fd5b34801561014457600080fd5b50610158610153366004610f8c565b6103a5565b005b610158610168366004610fa7565b610442565b34801561017957600080fd5b506002546101879060ff1681565b60405190151581526020015b60405180910390f35b3480156101a857600080fd5b506101586101b736600461101f565b610698565b3480156101c857600080fd5b506101d1608181565b604051908152602001610193565b3480156101eb57600080fd5b506101d16101fa366004611061565b610703565b34801561020b57600080fd5b50610214610724565b604080519315158452602084019290925290820152606001610193565b34801561023d57600080fd5b50610158610753565b34801561025257600080fd5b506000546001600160a01b03165b6040516001600160a01b039091168152602001610193565b61015861028636600461107a565b610767565b34801561029757600080fd5b506102a0610a26565b60405161019391906110ac565b3480156102b957600080fd5b506101d16102c8366004611061565b610a3b565b3480156102d957600080fd5b506102e2610a4b565b60405161019391906110e8565b3480156102fb57600080fd5b5061015861030a366004611111565b610a5b565b34801561031b57600080fd5b50600654610260906001600160a01b031681565b34801561033b57600080fd5b506101d160035481565b34801561035157600080fd5b50610158610360366004610f8c565b610aa4565b34801561037157600080fd5b5061015861038036600461117d565b610b1d565b34801561039157600080fd5b506101586103a0366004610f8c565b610bdc565b6006546001600160a01b031633146103d85760405162461bcd60e51b81526004016103cf906111a7565b60405180910390fd5b6001600160a01b0381166104205760405162461bcd60e51b815260206004820152600f60248201526e496e76616c6964206164647265737360881b60448201526064016103cf565b600680546001600160a01b0319166001600160a01b0392909216919091179055565b61044a610c29565b610452610c82565b6000600961046360ff8416856111e5565b60818110610473576104736111f8565b015460025490915060ff16801561048c57506003544214155b156105005760085460075460405163d4626bb960e01b81526108059263d4626bb9926104c392600401918252602082015260400190565b600060405180830381600087803b1580156104dd57600080fd5b505af11580156104f1573d6000803e3d6000fd5b50506002805460ff1916905550505b8315610688576004546000805b828110156105e3576108056001600160a01b031663e3b598fa60048381548110610539576105396111f8565b906000526020600020015460058481548110610557576105576111f8565b6000918252602090912001546040516001600160e01b031960e085901b1681526004810192909252602482015260448101879052606401602060405180830381865afa1580156105ab573d6000803e3d6000fd5b505050506040513d601f19601f820116820180604052508101906105cf919061120e565b6105d99083611227565b915060010161050d565b5080156105f25750505061068a565b6008849055610805631fc9b1418561061261060d478b610cdc565b610cf6565b6040516001600160e01b031960e085901b1681526004810192909252602482015260448101869052606401600060405180830381600087803b15801561065757600080fd5b505af115801561066b573d6000803e3d6000fd5b50506002805460ff19166001179055505050600782905550426003555b505b61069360018055565b505050565b6106a0610c82565b608181146106c15760405163251f56a160e21b815260040160405180910390fd5b60005b6081811015610693578282828181106106df576106df6111f8565b90506020020135600982608181106106f9576106f96111f8565b01556001016106c4565b6005818154811061071357600080fd5b600091825260209091200154905081565b60025460ff1660008061073f6000546001600160a01b031690565b6001600160a01b0316319150479050909192565b61075b610c82565b6107656000610d06565b565b61076f610c29565b610777610c82565b6000600961078860ff8416866111e5565b60818110610798576107986111f8565b015460025490915060ff1680156107b157506003544214155b156108255760085460075460405163d4626bb960e01b81526108059263d4626bb9926107e892600401918252602082015260400190565b600060405180830381600087803b15801561080257600080fd5b505af1158015610816573d6000803e3d6000fd5b50506002805460ff1916905550505b8415610a15576004546000805b82811015610908576108056001600160a01b031663e3b598fa6004838154811061085e5761085e6111f8565b90600052602060002001546005848154811061087c5761087c6111f8565b6000918252602090912001546040516001600160e01b031960e085901b1681526004810192909252602482015260448101879052606401602060405180830381865afa1580156108d0573d6000803e3d6000fd5b505050506040513d601f19601f820116820180604052508101906108f4919061120e565b6108fe9083611227565b9150600101610832565b50801561091757505050610a17565b6040516369e38bc360e01b815261ffff841660048201528590610808906369e38bc390602401602060405180830381865afa15801561095a573d6000803e3d6000fd5b505050506040513d601f19601f8201168201806040525081019061097e919061120e565b11610a12576008849055610805631fc9b1418561099e61060d478c610cdc565b6040516001600160e01b031960e085901b1681526004810192909252602482015260448101869052606401600060405180830381600087803b1580156109e357600080fd5b505af11580156109f7573d6000803e3d6000fd5b50506002805460ff1916600117905550506007839055426003555b50505b505b610a2060018055565b50505050565b610a2e610efa565b610a36610d56565b905090565b6004818154811061071357600080fd5b610a53610efa565b610a36610e39565b610a63610c29565b610a6b610c82565b828114610a8b5760405163512509d360e11b815260040160405180910390fd5b610a9760048585610f19565b50610a1560058383610f19565b610aac610c82565b6001600160a01b038116610b115760405162461bcd60e51b815260206004820152602660248201527f4f776e61626c653a206e6577206f776e657220697320746865207a65726f206160448201526564647265737360d01b60648201526084016103cf565b610b1a81610d06565b50565b6006546001600160a01b03163314610b475760405162461bcd60e51b81526004016103cf906111a7565b80600003610b68576040516365e52d5160e11b815260040160405180910390fd5b6000826001600160a01b03168260405160006040518083038185875af1925050503d8060008114610bb5576040519150601f19603f3d011682016040523d82523d6000602084013e610bba565b606091505b5050905080610693576040516312171d8360e31b815260040160405180910390fd5b6006546001600160a01b03163314610c065760405162461bcd60e51b81526004016103cf906111a7565b476000819003610b68576040516365e52d5160e11b815260040160405180910390fd5b600260015403610c7b5760405162461bcd60e51b815260206004820152601f60248201527f5265656e7472616e637947756172643a207265656e7472616e742063616c6c0060448201526064016103cf565b6002600155565b6000546001600160a01b031633146107655760405162461bcd60e51b815260206004820181905260248201527f4f776e61626c653a2063616c6c6572206973206e6f7420746865206f776e657260448201526064016103cf565b6000818310610ceb5781610ced565b825b90505b92915050565b6000610cf0633b9aca008361123a565b600080546001600160a01b038381166001600160a01b0319831681178455604051919092169283917f8be0079c531659141344cd1fd0a4f28419497f9722a3daafe3b4186f6b6457e09190a35050565b610d5e610efa565b60005b608161ffff82161015610e3557604051632d9bfc7160e01b815261ffff8216600482015261080890632d9bfc7190602401602060405180830381865afa925050508015610dcb575060408051601f3d908101601f19168201909252610dc89181019061125c565b60015b610e00576000828261ffff1660818110610de757610de76111f8565b67ffffffffffffffff9092166020929092020152610e2d565b80838361ffff1660818110610e1757610e176111f8565b67ffffffffffffffff9092166020929092020152505b600101610d61565b5090565b610e41610efa565b60005b608161ffff82161015610e35576040516369e38bc360e01b815261ffff82166004820152610808906369e38bc390602401602060405180830381865afa925050508015610eae575060408051601f3d908101601f19168201909252610eab9181019061120e565b60015b610ed4576000828261ffff1660818110610eca57610eca6111f8565b6020020152610ef2565b80838361ffff1660818110610eeb57610eeb6111f8565b6020020152505b600101610e44565b6040518061102001604052806081906020820280368337509192915050565b828054828255906000526020600020908101928215610f54579160200282015b82811115610f54578235825591602001919060010190610f39565b50610e359291505b80821115610e355760008155600101610f5c565b80356001600160a01b0381168114610f8757600080fd5b919050565b600060208284031215610f9e57600080fd5b610ced82610f70565b600080600060608486031215610fbc57600080fd5b505081359360208301359350604090920135919050565b60008083601f840112610fe557600080fd5b50813567ffffffffffffffff811115610ffd57600080fd5b6020830191508360208260051b850101111561101857600080fd5b9250929050565b6000806020838503121561103257600080fd5b823567ffffffffffffffff81111561104957600080fd5b61105585828601610fd3565b90969095509350505050565b60006020828403121561107357600080fd5b5035919050565b6000806000806080858703121561109057600080fd5b5050823594602084013594506040840135936060013592509050565b6110208101818360005b60818110156110df57815167ffffffffffffffff168352602092830192909101906001016110b6565b50505092915050565b6110208101818360005b60818110156110df5781518352602092830192909101906001016110f2565b6000806000806040858703121561112757600080fd5b843567ffffffffffffffff8082111561113f57600080fd5b61114b88838901610fd3565b9096509450602087013591508082111561116457600080fd5b5061117187828801610fd3565b95989497509550505050565b6000806040838503121561119057600080fd5b61119983610f70565b946020939093013593505050565b6020808252600e908201526d2737ba103bb4ba34323930bbb2b960911b604082015260600190565b634e487b7160e01b600052601160045260246000fd5b81810381811115610cf057610cf06111cf565b634e487b7160e01b600052603260045260246000fd5b60006020828403121561122057600080fd5b5051919050565b80820180821115610cf057610cf06111cf565b60008261125757634e487b7160e01b600052601260045260246000fd5b500490565b60006020828403121561126e57600080fd5b815167ffffffffffffffff8116811461128657600080fd5b939250505056fea26469706673582212202cd144cc36f08eb2841c40550dfc302d4ae0e646c49e2df1f5c88d1ba95dbe1764736f6c63430008160033",
  "linkReferences": {},
  "deployedLinkReferences": {}
}