{
  "_format": "hh-sol-artifact-1",
  "contractName": "Monitor",
  "sourceName": "contracts/Monitor.sol",
  "abi": [
    {
      "inputs": [],
      "name": "LengthMismatch",
      "type": "error"
    },
    {
      "inputs": [
        {
          "internalType": "bytes32[]",
          "name": "hotkeys",
          "type": "bytes32[]"
        },
        {
          "internalType": "bytes32[]",
          "name": "coldkeys",
          "type": "bytes32[]"
        }
      ],
      "name": "getStakedAmount",
      "outputs": [
        {
          "internalType": "uint256[129]",
          "name": "amount",
          "type": "uint256[129]"
        }
      ],
      "stateMutability": "view",
      "type": "function"
    },
    {
      "inputs": [
        {
          "internalType": "uint256",
          "name": "",
          "type": "uint256"
        }
      ],
      "name": "is_staked",
      "outputs": [
        {
          "internalType": "bool",
          "name": "",
          "type": "bool"
        }
      ],
      "stateMutability": "view",
      "type": "function"
    }
  ],
  "bytecode": "0x60808060405234610016576102e8908161001c8239f35b600080fdfe60806040908082526004908136101561001757600080fd5b600090813560e01c90816308b41c011461021d5750637cdfe4491461003b57600080fd5b3461021a578260031936011261021a5767ffffffffffffffff9180358381116102165761006b9036908301610256565b92602492602435868111610216576100869036908301610256565b9690885198611020808b018b81108582111761020357825280368c378989036101f05760015b61ffff811660818110156101c4578c8b8d928a938b925b8d8185106100e8575050505050600583901b621fffe016015260010161ffff166100ac565b6101059293955084809795926100fd9261028c565b35928a61028c565b358751916371dacc7d60e11b83528b8301528d82015282604482015260209081816064816108055afa9182156101ba578c92610168575b50508101809111610156579060018f929301908e8e6100c3565b634e487b7160e01b8a52601189528b8afd5b809192503d82116101b3575b601f8101601f191683018b8111848210176101a157895282018290031261019d5751388061013c565b8a80fd5b634e487b7160e01b8e5260418d528f8efd5b503d610174565b88513d8e823e3d90fd5b83518390898f825b608183106101d957505050f35b6001908251815260208091019201920191906101cc565b81516001621398b960e31b031981528590fd5b634e487b7160e01b875260418652602487fd5b8280fd5b80fd5b90508234610216576020366003190112610216573591608183101561021a575060ff8260f860209460051c549160031b161c1615158152f35b9181601f840112156102875782359167ffffffffffffffff8311610287576020808501948460051b01011161028757565b600080fd5b919081101561029c5760051b0190565b634e487b7160e01b600052603260045260246000fdfea2646970667358221220865f205f48a7ca23902c3d2f36741646829c322c3e09ffe9abf57a1e05e393dc64736f6c63430008160033",
  "linkReferences": {},
  "deployedLinkReferences": {}
}