{
  "_format": "hh-sol-artifact-1",
  "contractName": "Monitor",
  "sourceName": "contracts/Monitor.sol",
  "abi": [
    {
      "inputs": [],
      "name": "LengthMismatch",
      "type": "error"
    },
    {
      "inputs": [
        {
          "internalType": "bytes32[]",
          "name": "hotkeys",
          "type": "bytes32[]"
        },
        {
          "internalType": "bytes32[]",
          "name": "coldkeys",
          "type": "bytes32[]"
        }
      ],
      "name": "getStakedAmount",
      "outputs": [
        {
          "internalType": "uint256[129]",
          "name": "amount",
          "type": "uint256[129]"
        }
      ],
      "stateMutability": "view",
      "type": "function"
    },
    {
      "inputs": [
        {
          "internalType": "uint256",
          "name": "",
          "type": "uint256"
        }
      ],
      "name": "is_staked",
      "outputs": [
        {
          "internalType": "bool",
          "name": "",
          "type": "bool"
        }
      ],
      "stateMutability": "view",
      "type": "function"
    }
  ],
  "bytecode": "0x608060405234801561001057600080fd5b50610390806100206000396000f3fe608060405234801561001057600080fd5b50600436106100365760003560e01c806308b41c011461003b5780637cdfe44914610063575b600080fd5b61004e610049366004610201565b610083565b60405190151581526020015b60405180910390f35b610076610071366004610266565b6100ad565b60405161005a91906102d2565b6000816081811061009357600080fd5b60209182820401919006915054906101000a900460ff1681565b6100b56101e2565b8382146100d8576040516001621398b960e31b0319815260040160405180910390fd5b60015b60818161ffff1610156101d9576000805b868110156101b35761080563e3b598fa89898481811061010e5761010e610304565b9050602002013588888581811061012757610127610304565b6040516001600160e01b031960e087901b1681526004810194909452602002919091013560248301525061ffff86166044820152606401602060405180830381865afa15801561017b573d6000803e3d6000fd5b505050506040513d601f19601f8201168201806040525081019061019f919061031a565b6101a99083610333565b91506001016100ec565b5080838361ffff16608181106101cb576101cb610304565b6020020152506001016100db565b50949350505050565b6040518061102001604052806081906020820280368337509192915050565b60006020828403121561021357600080fd5b5035919050565b60008083601f84011261022c57600080fd5b50813567ffffffffffffffff81111561024457600080fd5b6020830191508360208260051b850101111561025f57600080fd5b9250929050565b6000806000806040858703121561027c57600080fd5b843567ffffffffffffffff8082111561029457600080fd5b6102a08883890161021a565b909650945060208701359150808211156102b957600080fd5b506102c68782880161021a565b95989497509550505050565b6110208101818360005b60818110156102fb5781518352602092830192909101906001016102dc565b50505092915050565b634e487b7160e01b600052603260045260246000fd5b60006020828403121561032c57600080fd5b5051919050565b8082018082111561035457634e487b7160e01b600052601160045260246000fd5b9291505056fea26469706673582212208cd88a4aea8d156017bc455169d25519120d2cc8ffca13649d4e3443ac5040c364736f6c63430008160033",
  "linkReferences": {},
  "deployedLinkReferences": {}
}