{"contracts/TradingV7_2.sol":{"TradingV6":{"abi":[{"inputs":[],"stateMutability":"nonpayable","type":"constructor"},{"inputs":[],"name":"AmountZero","type":"error"},{"inputs":[],"name":"ArrayLengthMismatch","type":"error"},{"inputs":[],"name":"FunctionNotFound","type":"error"},{"inputs":[],"name":"InvalidAddress","type":"error"},{"inputs":[],"name":"InvalidBytesKey","type":"error"},{"inputs":[],"name":"InvalidNetuid","type":"error"},{"inputs":[],"name":"NotWithdrawer","type":"error"},{"inputs":[],"name":"TransferFailed","type":"error"},{"anonymous":false,"inputs":[{"indexed":true,"internalType":"address","name":"previousOwner","type":"address"},{"indexed":true,"internalType":"address","name":"newOwner","type":"address"}],"name":"OwnershipTransferred","type":"event"},{"stateMutability":"payable","type":"fallback"},{"inputs":[],"name":"DELEGATOR_BYTES_KEY","outputs":[{"internalType":"bytes32","name":"","type":"bytes32"}],"stateMutability":"view","type":"function"},{"inputs":[{"internalType":"uint256[]","name":"netuids","type":"uint256[]"},{"internalType":"uint256[]","name":"amounts","type":"uint256[]"},{"internalType":"uint256[]","name":"limitPrices","type":"uint256[]"}],"name":"addStakeLimits","outputs":[],"stateMutability":"payable","type":"function"},{"inputs":[],"name":"contractBytesKey","outputs":[{"internalType":"bytes32","name":"","type":"bytes32"}],"stateMutability":"view","type":"function"},{"inputs":[{"internalType":"address","name":"to","type":"address"},{"internalType":"uint256","name":"amount","type":"uint256"}],"name":"emergencyWithdrawTao","outputs":[],"stateMutability":"nonpayable","type":"function"},{"inputs":[],"name":"getAlphaPrices","outputs":[{"internalType":"uint256[129]","name":"alphaPrices","type":"uint256[129]"}],"stateMutability":"view","type":"function"},{"inputs":[{"internalType":"uint256[]","name":"netuids","type":"uint256[]"}],"name":"getMevStakedAmounts","outputs":[{"internalType":"uint256[]","name":"amounts","type":"uint256[]"}],"stateMutability":"view","type":"function"},{"inputs":[{"internalType":"bytes32[]","name":"hotkeys","type":"bytes32[]"},{"internalType":"bytes32[]","name":"coldkeys","type":"bytes32[]"}],"name":"getStakedAmounts","outputs":[{"internalType":"uint256[129]","name":"amounts","type":"uint256[129]"}],"stateMutability":"view","type":"function"},{"inputs":[],"name":"getTaoInPools","outputs":[{"internalType":"uint64[129]","name":"taoInPools","type":"uint64[129]"}],"stateMutability":"view","type":"function"},{"inputs":[],"name":"getTradingInfo","outputs":[{"internalType":"uint256[129]","name":"alphaPrices","type":"uint256[129]"},{"internalType":"uint64[129]","name":"taoInPools","type":"uint64[129]"},{"internalType":"bool[129]","name":"staked","type":"bool[129]"},{"internalType":"uint256[129]","name":"limitPrices","type":"uint256[129]"},{"internalType":"uint256[129]","name":"stakedAmounts","type":"uint256[129]"},{"internalType":"uint256[]","name":"mevFreeBalances","type":"uint256[]"},{"internalType":"uint256","name":"freeBalance","type":"uint256"},{"internalType":"uint256","name":"ownerBalance","type":"uint256"}],"stateMutability":"view","type":"function"},{"inputs":[{"internalType":"uint256","name":"","type":"uint256"}],"name":"isStaked","outputs":[{"internalType":"bool","name":"","type":"bool"}],"stateMutability":"view","type":"function"},{"inputs":[{"internalType":"uint256","name":"","type":"uint256"}],"name":"lastLimitPrices","outputs":[{"internalType":"uint256","name":"","type":"uint256"}],"stateMutability":"view","type":"function"},{"inputs":[{"internalType":"uint256","name":"","type":"uint256"}],"name":"lastStakeTimestamps","outputs":[{"internalType":"uint256","name":"","type":"uint256"}],"stateMutability":"view","type":"function"},{"inputs":[{"internalType":"uint256[]","name":"netuids","type":"uint256[]"},{"internalType":"uint256[]","name":"amounts","type":"uint256[]"},{"internalType":"bytes32[]","name":"_mevHotkeyBytesKeys","type":"bytes32[]"},{"internalType":"bytes32[]","name":"_mevColdkeyBytesKeys","type":"bytes32[]"}],"name":"mevAddStakes","outputs":[],"stateMutability":"payable","type":"function"},{"inputs":[{"internalType":"uint256","name":"","type":"uint256"}],"name":"mevAddresses","outputs":[{"internalType":"address","name":"","type":"address"}],"stateMutability":"view","type":"function"},{"inputs":[{"internalType":"uint256","name":"","type":"uint256"}],"name":"mevColdkeyBytesKeys","outputs":[{"internalType":"bytes32","name":"","type":"bytes32"}],"stateMutability":"view","type":"function"},{"inputs":[{"internalType":"uint256","name":"","type":"uint256"}],"name":"mevHotkeyBytesKeys","outputs":[{"internalType":"bytes32","name":"","type":"bytes32"}],"stateMutability":"view","type":"function"},{"inputs":[{"internalType":"uint256[]","name":"netuids","type":"uint256[]"},{"internalType":"bytes32[]","name":"_mevHotkeyBytesKeys","type":"bytes32[]"},{"internalType":"bytes32[]","name":"_mevColdkeyBytesKeys","type":"bytes32[]"}],"name":"mevRemoveStakes","outputs":[],"stateMutability":"payable","type":"function"},{"inputs":[],"name":"owner","outputs":[{"internalType":"address","name":"","type":"address"}],"stateMutability":"view","type":"function"},{"inputs":[{"internalType":"uint256[]","name":"netuids","type":"uint256[]"}],"name":"removeDeregisteredStakes","outputs":[],"stateMutability":"nonpayable","type":"function"},{"inputs":[{"internalType":"uint256[]","name":"netuids","type":"uint256[]"},{"internalType":"uint256[]","name":"limitPrices","type":"uint256[]"}],"name":"removeStakeLimits","outputs":[],"stateMutability":"payable","type":"function"},{"inputs":[],"name":"renounceOwnership","outputs":[],"stateMutability":"nonpayable","type":"function"},{"inputs":[{"internalType":"uint256[]","name":"netuids","type":"uint256[]"}],"name":"resetLimitPrices","outputs":[],"stateMutability":"nonpayable","type":"function"},{"inputs":[{"internalType":"address","name":"newWithdrawer","type":"address"}],"name":"setWithdrawer","outputs":[],"stateMutability":"nonpayable","type":"function"},{"inputs":[{"internalType":"address","name":"newOwner","type":"address"}],"name":"transferOwnership","outputs":[],"stateMutability":"nonpayable","type":"function"},{"inputs":[{"internalType":"bytes32","name":"newContractBytesKey","type":"bytes32"}],"name":"updateContractBytesKey","outputs":[],"stateMutability":"nonpayable","type":"function"},{"inputs":[{"internalType":"address[]","name":"newMevAddresses","type":"address[]"},{"internalType":"bytes32[]","name":"newMevHotkeyBytesKeys","type":"bytes32[]"},{"internalType":"bytes32[]","name":"newMevColdkeyBytesKeys","type":"bytes32[]"}],"name":"updateMevKeys","outputs":[],"stateMutability":"nonpayable","type":"function"},{"inputs":[{"internalType":"address","name":"to","type":"address"}],"name":"withdrawAll","outputs":[],"stateMutability":"nonpayable","type":"function"},{"inputs":[],"name":"withdrawer","outputs":[{"internalType":"address","name":"","type":"address"}],"stateMutability":"view","type":"function"},{"stateMutability":"payable","type":"receive"}],"evm":{"bytecode":{"linkReferences":{},"object":"608060405234801561001057600080fd5b5061001a33610036565b6001805561010d80546001600160a01b03191633179055610086565b600080546001600160a01b038381166001600160a01b0319831681178455604051919092169283917f8be0079c531659141344cd1fd0a4f28419497f9722a3daafe3b4186f6b6457e09190a35050565b612412806100956000396000f3fe6080604052600436106101bb5760003560e01c8063ae257e60116100ec578063e2edac251161008a578063f528c62e11610064578063f528c62e146104e8578063f9036f0214610508578063fa09e63014610528578063fcd1a8d614610548576101c2565b8063e2edac2514610488578063e4240e7f146104a8578063f2fde38b146104c8576101c2565b8063baa51f86116100c6578063baa51f8614610402578063bc28d5d014610432578063c6df7daf14610447578063cdc1842414610467576101c2565b8063ae257e6014610395578063af31a15d146103c2578063b6b2a68d146103e2576101c2565b8063646e569b116101595780638da5cb5b116101335780638da5cb5b1461030b578063947d3c3f1461033d578063a767877514610353578063a8c2bb0d14610373576101c2565b8063646e569b146102d057806369686275146102e3578063715018a6146102f6576101c2565b80633004c502116101955780633004c5021461025c5780633eb5152d1461026f57806351b2e72d1461028f5780635c45f3ef146102bd576101c2565b80630d174c24146101db57806326a224e0146101fd578063276ef78914610233576101c2565b366101c257005b60405163201f3fd360e11b815260040160405180910390fd5b3480156101e757600080fd5b506101fb6101f6366004611efd565b61056a565b005b34801561020957600080fd5b5061021d610218366004611f64565b6105eb565b60405161022a9190611ff3565b60405180910390f35b34801561023f57600080fd5b50610248610714565b60405161022a98979695949392919061206b565b6101fb61026a3660046120fe565b61082a565b34801561027b57600080fd5b506101fb61028a3660046120fe565b610ad8565b34801561029b57600080fd5b506102af6102aa366004612198565b610b58565b60405190815260200161022a565b6101fb6102cb3660046120fe565b610b79565b6101fb6102de366004611f64565b610d2a565b6101fb6102f13660046121b1565b610f61565b34801561030257600080fd5b506101fb6111ad565b34801561031757600080fd5b506000546001600160a01b03165b6040516001600160a01b03909116815260200161022a565b34801561034957600080fd5b506102af60055481565b34801561035f57600080fd5b5061032561036e366004612198565b6111c1565b34801561037f57600080fd5b506103886111eb565b60405161022a9190612275565b3480156103a157600080fd5b506103b56103b0366004612284565b611200565b60405161022a91906122c6565b3480156103ce57600080fd5b506102af6103dd366004612198565b6112a1565b3480156103ee57600080fd5b506102af6103fd366004612198565b6112b8565b34801561040e57600080fd5b5061042261041d366004612198565b6112c8565b604051901515815260200161022a565b34801561043e57600080fd5b5061021d6112f2565b34801561045357600080fd5b506101fb610462366004612284565b611302565b34801561047357600080fd5b5061010d54610325906001600160a01b031681565b34801561049457600080fd5b506102af6104a3366004612198565b6113ec565b3480156104b457600080fd5b506101fb6104c3366004612284565b6113fc565b3480156104d457600080fd5b506101fb6104e3366004611efd565b611504565b3480156104f457600080fd5b506101fb6105033660046122d9565b61157f565b34801561051457600080fd5b506101fb610523366004612198565b611679565b34801561053457600080fd5b506101fb610543366004611efd565b6116b5565b34801561055457600080fd5b506102af6000805160206123bd83398151915281565b6105726117b2565b61010d546001600160a01b0316331461059e57604051632d99bc8360e21b815260040160405180910390fd5b6001600160a01b0381166105c55760405163e6c4247b60e01b815260040160405180910390fd5b61010d80546001600160a01b0319166001600160a01b0383161790556001805550565b50565b6105f3611e13565b838281146106145760405163512509d360e11b815260040160405180910390fd5b60005b8181101561070a5760015b60818110156107015761080563e3b598fa89898581811061064557610645612303565b9050602002013588888681811061065e5761065e612303565b6040516001600160e01b031960e087901b1681526004810194909452602002919091013560248301525060448101849052606401602060405180830381865afa1580156106af573d6000803e3d6000fd5b505050506040513d601f19601f820116820180604052508101906106d39190612319565b8482608181106106e5576106e5612303565b602002018181516106f69190612332565b905250600101610622565b50600101610617565b5050949350505050565b61071c611e13565b610724611e13565b61072c611e13565b610734611e13565b61073c611e13565b606060008061074961180b565b97506107536118d0565b60408051611020810191829052919850600690608190826000855b825461010083900a900460ff16151581526020600192830181810494850194909303909202910180841161076e579050505050505095506107c26000805160206123bd83398151915260001b6005546119af565b93506107cc611aa6565b60408051611020810191829052919450600b9060819082845b8154815260200190600101908083116107e557505050505094504791506108146000546001600160a01b031690565b6001600160a01b03163190509091929394959697565b6108326117b2565b61083a611b54565b84838114158061084a5750808214155b156108685760405163512509d360e11b815260040160405180910390fd5b60005b81811015610ac557600086868381811061088757610887612303565b90506020020135905080600014610abc5760008989848181106108ac576108ac612303565b9050602002013590506108be81611bae565b6040516369e38bc360e01b815261ffff82166004820152600090610808906369e38bc390602401602060405180830381865afa158015610902573d6000803e3d6000fd5b505050506040513d601f19601f820116820180604052508101906109269190612319565b90508087878681811061093b5761093b612303565b9050602002013510610ab95760006109534785611bcf565b905080600003610976576040516365e52d5160e11b815260040160405180910390fd5b610805631fc9b1416000805160206123bd83398151915261099684611be9565b6040516001600160e01b031960e085901b1681526004810192909252602482015260448101869052606401600060405180830381600087803b1580156109db57600080fd5b505af11580156109ef573d6000803e3d6000fd5b50506040516369e38bc360e01b815261ffff8616600482015261080892506369e38bc39150602401602060405180830381865afa158015610a34573d6000803e3d6000fd5b505050506040513d601f19601f82011682018060405250810190610a589190612319565b600b8460818110610a6b57610a6b612303565b0155600160068460818110610a8257610a82612303565b602091828204019190066101000a81548160ff02191690831515021790555042608c8460818110610ab557610ab5612303565b0155505b50505b5060010161086b565b5050610ad060018055565b505050505050565b610ae06117b2565b610ae8611b54565b828114610b085760405163512509d360e11b815260040160405180910390fd5b848314610b285760405163512509d360e11b815260040160405180910390fd5b610b3460048787611e32565b50610b4160028585611e91565b50610b4e60038383611e91565b50610ad060018055565b60038181548110610b6857600080fd5b600091825260209091200154905081565b610b816117b2565b610b89611b54565b84838214610baa5760405163512509d360e11b815260040160405180910390fd5b60005b81811015610ac5576000888883818110610bc957610bc9612303565b905060200201359050610bdb81611bae565b608c8160818110610bee57610bee612303565b01544214610d21576000610c058289898989611bf9565b1115610d215760405163d4626bb960e01b81526000805160206123bd8339815191526004820152602481018290526108059063d4626bb990604401600060405180830381600087803b158015610c5a57600080fd5b505af1158015610c6e573d6000803e3d6000fd5b50506040516369e38bc360e01b815261ffff8416600482015261080892506369e38bc39150602401602060405180830381865afa158015610cb3573d6000803e3d6000fd5b505050506040513d601f19601f82011682018060405250810190610cd79190612319565b600b8260818110610cea57610cea612303565b0155600060068260818110610d0157610d01612303565b602091828204019190066101000a81548160ff0219169083151502179055505b50600101610bad565b610d326117b2565b610d3a611b54565b82818114610d5b5760405163512509d360e11b815260040160405180910390fd5b60005b81811015610f50576000868683818110610d7a57610d7a612303565b905060200201359050610d8c81611bae565b6040516369e38bc360e01b815261ffff82166004820152600090610808906369e38bc390602401602060405180830381865afa158015610dd0573d6000803e3d6000fd5b505050506040513d601f19601f82011682018060405250810190610df49190612319565b905080868685818110610e0957610e09612303565b9050602002013511610f4657608c8260818110610e2857610e28612303565b01544214610f465760405163d4626bb960e01b81526000805160206123bd8339815191526004820152602481018390526108059063d4626bb990604401600060405180830381600087803b158015610e7f57600080fd5b505af1158015610e93573d6000803e3d6000fd5b50506040516369e38bc360e01b815261ffff8516600482015261080892506369e38bc39150602401602060405180830381865afa158015610ed8573d6000803e3d6000fd5b505050506040513d601f19601f82011682018060405250810190610efc9190612319565b600b8360818110610f0f57610f0f612303565b0155600060068360818110610f2657610f26612303565b602091828204019190066101000a81548160ff0219169083151502179055505b5050600101610d5e565b5050610f5b60018055565b50505050565b610f696117b2565b610f71611b54565b86858114610f925760405163512509d360e11b815260040160405180910390fd5b838214610fb25760405163512509d360e11b815260040160405180910390fd5b60005b818110156111985760008a8a83818110610fd157610fd1612303565b905060200201359050610fe381611bae565b6000898984818110610ff757610ff7612303565b905060200201359050600061100c4783611bcf565b90508060000361102f576040516365e52d5160e11b815260040160405180910390fd5b61103c838a8a8a8a611bf9565b60000361118a57610805631fc9b1416000805160206123bd83398151915261106384611be9565b6040516001600160e01b031960e085901b1681526004810192909252602482015260448101869052606401600060405180830381600087803b1580156110a857600080fd5b505af11580156110bc573d6000803e3d6000fd5b505050506001600684608181106110d5576110d5612303565b602081049091018054921515601f9092166101000a91820260ff909202199092161790556040516369e38bc360e01b815261ffff84166004820152610808906369e38bc390602401602060405180830381865afa15801561113a573d6000803e3d6000fd5b505050506040513d601f19601f8201168201806040525081019061115e9190612319565b600b846081811061117157611171612303565b015542608c846081811061118757611187612303565b01555b836001019350505050610fb5565b50506111a360018055565b5050505050505050565b6111b5611b54565b6111bf6000611cd5565b565b600481815481106111d157600080fd5b6000918252602090912001546001600160a01b0316905081565b6111f3611e13565b6111fb6118d0565b905090565b6060818067ffffffffffffffff81111561121c5761121c612353565b604051908082528060200260200182016040528015611245578160200160208202803683370190505b50915060005b818110156112995761127485858381811061126857611268612303565b90506020020135611d25565b83828151811061128657611286612303565b602090810291909101015260010161124b565b505092915050565b608c81608181106112b157600080fd5b0154905081565b60028181548110610b6857600080fd5b600681608181106112d857600080fd5b60209182820401919006915054906101000a900460ff1681565b6112fa611e13565b6111fb61180b565b61130a6117b2565b611312611b54565b8060005b818110156113dd57600084848381811061133257611332612303565b90506020020135905061134481611bae565b6040516369e38bc360e01b815261ffff82166004820152610808906369e38bc390602401602060405180830381865afa158015611385573d6000803e3d6000fd5b505050506040513d601f19601f820116820180604052508101906113a99190612319565b600b82608181106113bc576113bc612303565b015542608c82608181106113d2576113d2612303565b015550600101611316565b50506113e860018055565b5050565b600b81608181106112b157600080fd5b6114046117b2565b61140c611b54565b8060005b818110156113dd57600084848381811061142c5761142c612303565b90506020020135905061143e81611bae565b6005546040516371dacc7d60e11b81526000805160206123bd83398151915260048201526024810191909152604481018290526108059063e3b598fa90606401602060405180830381865afa15801561149b573d6000803e3d6000fd5b505050506040513d601f19601f820116820180604052508101906114bf9190612319565b6000036114fb576000600682608181106114db576114db612303565b602091828204019190066101000a81548160ff0219169083151502179055505b50600101611410565b61150c611b54565b6001600160a01b0381166115765760405162461bcd60e51b815260206004820152602660248201527f4f776e61626c653a206e6577206f776e657220697320746865207a65726f206160448201526564647265737360d01b60648201526084015b60405180910390fd5b6105e881611cd5565b6115876117b2565b61010d546001600160a01b031633146115b357604051632d99bc8360e21b815260040160405180910390fd5b6001600160a01b0382166115da5760405163e6c4247b60e01b815260040160405180910390fd5b806000036115fb576040516365e52d5160e11b815260040160405180910390fd5b6000826001600160a01b03168260405160006040518083038185875af1925050503d8060008114611648576040519150601f19603f3d011682016040523d82523d6000602084013e61164d565b606091505b505090508061166f576040516312171d8360e31b815260040160405180910390fd5b506113e860018055565b6116816117b2565b611689611b54565b806116a75760405163666b0c5d60e01b815260040160405180910390fd5b60058190556105e860018055565b6116bd6117b2565b61010d546001600160a01b031633146116e957604051632d99bc8360e21b815260040160405180910390fd5b6001600160a01b0381166117105760405163e6c4247b60e01b815260040160405180910390fd5b476000819003611733576040516365e52d5160e11b815260040160405180910390fd5b6000826001600160a01b03168260405160006040518083038185875af1925050503d8060008114611780576040519150601f19603f3d011682016040523d82523d6000602084013e611785565b606091505b50509050806117a7576040516312171d8360e31b815260040160405180910390fd5b50506105e860018055565b6002600154036118045760405162461bcd60e51b815260206004820152601f60248201527f5265656e7472616e637947756172643a207265656e7472616e742063616c6c00604482015260640161156d565b6002600155565b611813611e13565b60005b608161ffff821610156118cc576040516369e38bc360e01b815261ffff82166004820152610808906369e38bc390602401602060405180830381865afa925050508015611880575060408051601f3d908101601f1916820190925261187d91810190612319565b60015b6118a6576000828261ffff166081811061189c5761189c612303565b60200201526118c4565b80838361ffff16608181106118bd576118bd612303565b6020020152505b600101611816565b5090565b6118d8611e13565b60005b608161ffff821610156118cc57604051632d9bfc7160e01b815261ffff8216600482015261080890632d9bfc7190602401602060405180830381865afa925050508015611945575060408051601f3d908101601f1916820190925261194291810190612369565b60015b61197a576000828261ffff166081811061196157611961612303565b67ffffffffffffffff90921660209290920201526119a7565b80838361ffff166081811061199157611991612303565b67ffffffffffffffff9092166020929092020152505b6001016118db565b6119b7611e13565b60015b6081811015611a9f57600681608181106119d6576119d6612303565b602081049091015460ff601f9092166101000a90041615611a7d576040516371dacc7d60e11b81526004810185905260248101849052604481018290526108059063e3b598fa90606401602060405180830381865afa158015611a3d573d6000803e3d6000fd5b505050506040513d601f19601f82011682018060405250810190611a619190612319565b828260818110611a7357611a73612303565b6020020152611a97565b6000828260818110611a9157611a91612303565b60200201525b6001016119ba565b5092915050565b6004546060908067ffffffffffffffff811115611ac557611ac5612353565b604051908082528060200260200182016040528015611aee578160200160208202803683370190505b50915060005b81811015611b4f5760048181548110611b0f57611b0f612303565b60009182526020909120015483516001600160a01b039091163190849083908110611b3c57611b3c612303565b6020908102919091010152600101611af4565b505090565b6000546001600160a01b031633146111bf5760405162461bcd60e51b815260206004820181905260248201527f4f776e61626c653a2063616c6c6572206973206e6f7420746865206f776e6572604482015260640161156d565b608181106105e8576040516368a3a6c360e11b815260040160405180910390fd5b6000818310611bde5781611be0565b825b90505b92915050565b6000611be3633b9aca008361239a565b60008084815b81811015611cc857600061080563e3b598fa8a8a85818110611c2357611c23612303565b90506020020135898986818110611c3c57611c3c612303565b6040516001600160e01b031960e087901b16815260048101949094526020029190910135602483015250604481018d9052606401602060405180830381865afa158015611c8d573d6000803e3d6000fd5b505050506040513d601f19601f82011682018060405250810190611cb19190612319565b9050611cbd8185612332565b935050600101611bff565b5090979650505050505050565b600080546001600160a01b038381166001600160a01b0319831681178455604051919092169283917f8be0079c531659141344cd1fd0a4f28419497f9722a3daafe3b4186f6b6457e09190a35050565b6002546000908190815b81811015611e0a5760006108056001600160a01b031663e3b598fa60028481548110611d5d57611d5d612303565b906000526020600020015460038581548110611d7b57611d7b612303565b6000918252602090912001546040516001600160e01b031960e085901b1681526004810192909252602482015260448101899052606401602060405180830381865afa158015611dcf573d6000803e3d6000fd5b505050506040513d601f19601f82011682018060405250810190611df39190612319565b9050611dff8185612332565b935050600101611d2f565b50909392505050565b6040518061102001604052806081906020820280368337509192915050565b828054828255906000526020600020908101928215611e85579160200282015b82811115611e855781546001600160a01b0319166001600160a01b03843516178255602090920191600190910190611e52565b506118cc929150611ecc565b828054828255906000526020600020908101928215611e85579160200282015b82811115611e85578235825591602001919060010190611eb1565b5b808211156118cc5760008155600101611ecd565b80356001600160a01b0381168114611ef857600080fd5b919050565b600060208284031215611f0f57600080fd5b611be082611ee1565b60008083601f840112611f2a57600080fd5b50813567ffffffffffffffff811115611f4257600080fd5b6020830191508360208260051b8501011115611f5d57600080fd5b9250929050565b60008060008060408587031215611f7a57600080fd5b843567ffffffffffffffff80821115611f9257600080fd5b611f9e88838901611f18565b90965094506020870135915080821115611fb757600080fd5b50611fc487828801611f18565b95989497509550505050565b8060005b6081811015610f5b578151845260209384019390910190600101611fd4565b6110208101611be38284611fd0565b8060005b6081811015610f5b57815167ffffffffffffffff16845260209384019390910190600101612006565b60008151808452602080850194506020840160005b8381101561206057815187529582019590820190600101612044565b509495945050505050565b600061510061207a838c611fd0565b61208861102084018b612002565b61204083018960005b60818110156120b25781511515835260209283019290910190600101612091565b5050506120c3613060840189611fd0565b6120d1614080840188611fd0565b806150a08401526120e48184018761202f565b6150c084019590955250506150e001529695505050505050565b6000806000806000806060878903121561211757600080fd5b863567ffffffffffffffff8082111561212f57600080fd5b61213b8a838b01611f18565b9098509650602089013591508082111561215457600080fd5b6121608a838b01611f18565b9096509450604089013591508082111561217957600080fd5b5061218689828a01611f18565b979a9699509497509295939492505050565b6000602082840312156121aa57600080fd5b5035919050565b6000806000806000806000806080898b0312156121cd57600080fd5b883567ffffffffffffffff808211156121e557600080fd5b6121f18c838d01611f18565b909a50985060208b013591508082111561220a57600080fd5b6122168c838d01611f18565b909850965060408b013591508082111561222f57600080fd5b61223b8c838d01611f18565b909650945060608b013591508082111561225457600080fd5b506122618b828c01611f18565b999c989b5096995094979396929594505050565b6110208101611be38284612002565b6000806020838503121561229757600080fd5b823567ffffffffffffffff8111156122ae57600080fd5b6122ba85828601611f18565b90969095509350505050565b602081526000611be0602083018461202f565b600080604083850312156122ec57600080fd5b6122f583611ee1565b946020939093013593505050565b634e487b7160e01b600052603260045260246000fd5b60006020828403121561232b57600080fd5b5051919050565b80820180821115611be357634e487b7160e01b600052601160045260246000fd5b634e487b7160e01b600052604160045260246000fd5b60006020828403121561237b57600080fd5b815167ffffffffffffffff8116811461239357600080fd5b9392505050565b6000826123b757634e487b7160e01b600052601260045260246000fd5b50049056feb4c087119097fbe3985298eef52f35ef6271c48322a8c2d430902a9cc38d9473a2646970667358221220ed5aee09202a4d83d50cf1adca11cfaa8872e87459236e81289804920bd8d06064736f6c63430008160033","opcodes":"PUSH1 0x80 PUSH1 0x40 MSTORE CALLVALUE DUP1 ISZERO PUSH2 0x10 JUMPI PUSH1 0x0 DUP1 REVERT JUMPDEST POP PUSH2 0x1A CALLER PUSH2 0x36 JUMP JUMPDEST PUSH1 0x1 DUP1 SSTORE PUSH2 0x10D DUP1 SLOAD PUSH1 0x1 PUSH1 0x1 PUSH1 0xA0 SHL SUB NOT AND CALLER OR SWAP1 SSTORE PUSH2 0x86 JUMP JUMPDEST PUSH1 0x0 DUP1 SLOAD PUSH1 0x1 PUSH1 0x1 PUSH1 0xA0 SHL SUB DUP4 DUP2 AND PUSH1 0x1 PUSH1 0x1 PUSH1 0xA0 SHL SUB NOT DUP4 AND DUP2 OR DUP5 SSTORE PUSH1 0x40 MLOAD SWAP2 SWAP1 SWAP3 AND SWAP3 DUP4 SWAP2 PUSH32 0x8BE0079C531659141344CD1FD0A4F28419497F9722A3DAAFE3B4186F6B6457E0 SWAP2 SWAP1 LOG3 POP POP JUMP JUMPDEST PUSH2 0x2412 DUP1 PUSH2 0x95 PUSH1 0x0 CODECOPY PUSH1 0x0 RETURN INVALID PUSH1 0x80 PUSH1 0x40 MSTORE PUSH1 0x4 CALLDATASIZE LT PUSH2 0x1BB JUMPI PUSH1 0x0 CALLDATALOAD PUSH1 0xE0 SHR DUP1 PUSH4 0xAE257E60 GT PUSH2 0xEC JUMPI DUP1 PUSH4 0xE2EDAC25 GT PUSH2 0x8A JUMPI DUP1 PUSH4 0xF528C62E GT PUSH2 0x64 JUMPI DUP1 PUSH4 0xF528C62E EQ PUSH2 0x4E8 JUMPI DUP1 PUSH4 0xF9036F02 EQ PUSH2 0x508 JUMPI DUP1 PUSH4 0xFA09E630 EQ PUSH2 0x528 JUMPI DUP1 PUSH4 0xFCD1A8D6 EQ PUSH2 0x548 JUMPI PUSH2 0x1C2 JUMP JUMPDEST DUP1 PUSH4 0xE2EDAC25 EQ PUSH2 0x488 JUMPI DUP1 PUSH4 0xE4240E7F EQ PUSH2 0x4A8 JUMPI DUP1 PUSH4 0xF2FDE38B EQ PUSH2 0x4C8 JUMPI PUSH2 0x1C2 JUMP JUMPDEST DUP1 PUSH4 0xBAA51F86 GT PUSH2 0xC6 JUMPI DUP1 PUSH4 0xBAA51F86 EQ PUSH2 0x402 JUMPI DUP1 PUSH4 0xBC28D5D0 EQ PUSH2 0x432 JUMPI DUP1 PUSH4 0xC6DF7DAF EQ PUSH2 0x447 JUMPI DUP1 PUSH4 0xCDC18424 EQ PUSH2 0x467 JUMPI PUSH2 0x1C2 JUMP JUMPDEST DUP1 PUSH4 0xAE257E60 EQ PUSH2 0x395 JUMPI DUP1 PUSH4 0xAF31A15D EQ PUSH2 0x3C2 JUMPI DUP1 PUSH4 0xB6B2A68D EQ PUSH2 0x3E2 JUMPI PUSH2 0x1C2 JUMP JUMPDEST DUP1 PUSH4 0x646E569B GT PUSH2 0x159 JUMPI DUP1 PUSH4 0x8DA5CB5B GT PUSH2 0x133 JUMPI DUP1 PUSH4 0x8DA5CB5B EQ PUSH2 0x30B JUMPI DUP1 PUSH4 0x947D3C3F EQ PUSH2 0x33D JUMPI DUP1 PUSH4 0xA7678775 EQ PUSH2 0x353 JUMPI DUP1 PUSH4 0xA8C2BB0D EQ PUSH2 0x373 JUMPI PUSH2 0x1C2 JUMP JUMPDEST DUP1 PUSH4 0x646E569B EQ PUSH2 0x2D0 JUMPI DUP1 PUSH4 0x69686275 EQ PUSH2 0x2E3 JUMPI DUP1 PUSH4 0x715018A6 EQ PUSH2 0x2F6 JUMPI PUSH2 0x1C2 JUMP JUMPDEST DUP1 PUSH4 0x3004C502 GT PUSH2 0x195 JUMPI DUP1 PUSH4 0x3004C502 EQ PUSH2 0x25C JUMPI DUP1 PUSH4 0x3EB5152D EQ PUSH2 0x26F JUMPI DUP1 PUSH4 0x51B2E72D EQ PUSH2 0x28F JUMPI DUP1 PUSH4 0x5C45F3EF EQ PUSH2 0x2BD JUMPI PUSH2 0x1C2 JUMP JUMPDEST DUP1 PUSH4 0xD174C24 EQ PUSH2 0x1DB JUMPI DUP1 PUSH4 0x26A224E0 EQ PUSH2 0x1FD JUMPI DUP1 PUSH4 0x276EF789 EQ PUSH2 0x233 JUMPI PUSH2 0x1C2 JUMP JUMPDEST CALLDATASIZE PUSH2 0x1C2 JUMPI STOP JUMPDEST PUSH1 0x40 MLOAD PUSH4 0x201F3FD3 PUSH1 0xE1 SHL DUP2 MSTORE PUSH1 0x4 ADD PUSH1 0x40 MLOAD DUP1 SWAP2 SUB SWAP1 REVERT JUMPDEST CALLVALUE DUP1 ISZERO PUSH2 0x1E7 JUMPI PUSH1 0x0 DUP1 REVERT JUMPDEST POP PUSH2 0x1FB PUSH2 0x1F6 CALLDATASIZE PUSH1 0x4 PUSH2 0x1EFD JUMP JUMPDEST PUSH2 0x56A JUMP JUMPDEST STOP JUMPDEST CALLVALUE DUP1 ISZERO PUSH2 0x209 JUMPI PUSH1 0x0 DUP1 REVERT JUMPDEST POP PUSH2 0x21D PUSH2 0x218 CALLDATASIZE PUSH1 0x4 PUSH2 0x1F64 JUMP JUMPDEST PUSH2 0x5EB JUMP JUMPDEST PUSH1 0x40 MLOAD PUSH2 0x22A SWAP2 SWAP1 PUSH2 0x1FF3 JUMP JUMPDEST PUSH1 0x40 MLOAD DUP1 SWAP2 SUB SWAP1 RETURN JUMPDEST CALLVALUE DUP1 ISZERO PUSH2 0x23F JUMPI PUSH1 0x0 DUP1 REVERT JUMPDEST POP PUSH2 0x248 PUSH2 0x714 JUMP JUMPDEST PUSH1 0x40 MLOAD PUSH2 0x22A SWAP9 SWAP8 SWAP7 SWAP6 SWAP5 SWAP4 SWAP3 SWAP2 SWAP1 PUSH2 0x206B JUMP JUMPDEST PUSH2 0x1FB PUSH2 0x26A CALLDATASIZE PUSH1 0x4 PUSH2 0x20FE JUMP JUMPDEST PUSH2 0x82A JUMP JUMPDEST CALLVALUE DUP1 ISZERO PUSH2 0x27B JUMPI PUSH1 0x0 DUP1 REVERT JUMPDEST POP PUSH2 0x1FB PUSH2 0x28A CALLDATASIZE PUSH1 0x4 PUSH2 0x20FE JUMP JUMPDEST PUSH2 0xAD8 JUMP JUMPDEST CALLVALUE DUP1 ISZERO PUSH2 0x29B JUMPI PUSH1 0x0 DUP1 REVERT JUMPDEST POP PUSH2 0x2AF PUSH2 0x2AA CALLDATASIZE PUSH1 0x4 PUSH2 0x2198 JUMP JUMPDEST PUSH2 0xB58 JUMP JUMPDEST PUSH1 0x40 MLOAD SWAP1 DUP2 MSTORE PUSH1 0x20 ADD PUSH2 0x22A JUMP JUMPDEST PUSH2 0x1FB PUSH2 0x2CB CALLDATASIZE PUSH1 0x4 PUSH2 0x20FE JUMP JUMPDEST PUSH2 0xB79 JUMP JUMPDEST PUSH2 0x1FB PUSH2 0x2DE CALLDATASIZE PUSH1 0x4 PUSH2 0x1F64 JUMP JUMPDEST PUSH2 0xD2A JUMP JUMPDEST PUSH2 0x1FB PUSH2 0x2F1 CALLDATASIZE PUSH1 0x4 PUSH2 0x21B1 JUMP JUMPDEST PUSH2 0xF61 JUMP JUMPDEST CALLVALUE DUP1 ISZERO PUSH2 0x302 JUMPI PUSH1 0x0 DUP1 REVERT JUMPDEST POP PUSH2 0x1FB PUSH2 0x11AD JUMP JUMPDEST CALLVALUE DUP1 ISZERO PUSH2 0x317 JUMPI PUSH1 0x0 DUP1 REVERT JUMPDEST POP PUSH1 0x0 SLOAD PUSH1 0x1 PUSH1 0x1 PUSH1 0xA0 SHL SUB AND JUMPDEST PUSH1 0x40 MLOAD PUSH1 0x1 PUSH1 0x1 PUSH1 0xA0 SHL SUB SWAP1 SWAP2 AND DUP2 MSTORE PUSH1 0x20 ADD PUSH2 0x22A JUMP JUMPDEST CALLVALUE DUP1 ISZERO PUSH2 0x349 JUMPI PUSH1 0x0 DUP1 REVERT JUMPDEST POP PUSH2 0x2AF PUSH1 0x5 SLOAD DUP2 JUMP JUMPDEST CALLVALUE DUP1 ISZERO PUSH2 0x35F JUMPI PUSH1 0x0 DUP1 REVERT JUMPDEST POP PUSH2 0x325 PUSH2 0x36E CALLDATASIZE PUSH1 0x4 PUSH2 0x2198 JUMP JUMPDEST PUSH2 0x11C1 JUMP JUMPDEST CALLVALUE DUP1 ISZERO PUSH2 0x37F JUMPI PUSH1 0x0 DUP1 REVERT JUMPDEST POP PUSH2 0x388 PUSH2 0x11EB JUMP JUMPDEST PUSH1 0x40 MLOAD PUSH2 0x22A SWAP2 SWAP1 PUSH2 0x2275 JUMP JUMPDEST CALLVALUE DUP1 ISZERO PUSH2 0x3A1 JUMPI PUSH1 0x0 DUP1 REVERT JUMPDEST POP PUSH2 0x3B5 PUSH2 0x3B0 CALLDATASIZE PUSH1 0x4 PUSH2 0x2284 JUMP JUMPDEST PUSH2 0x1200 JUMP JUMPDEST PUSH1 0x40 MLOAD PUSH2 0x22A SWAP2 SWAP1 PUSH2 0x22C6 JUMP JUMPDEST CALLVALUE DUP1 ISZERO PUSH2 0x3CE JUMPI PUSH1 0x0 DUP1 REVERT JUMPDEST POP PUSH2 0x2AF PUSH2 0x3DD CALLDATASIZE PUSH1 0x4 PUSH2 0x2198 JUMP JUMPDEST PUSH2 0x12A1 JUMP JUMPDEST CALLVALUE DUP1 ISZERO PUSH2 0x3EE JUMPI PUSH1 0x0 DUP1 REVERT JUMPDEST POP PUSH2 0x2AF PUSH2 0x3FD CALLDATASIZE PUSH1 0x4 PUSH2 0x2198 JUMP JUMPDEST PUSH2 0x12B8 JUMP JUMPDEST CALLVALUE DUP1 ISZERO PUSH2 0x40E JUMPI PUSH1 0x0 DUP1 REVERT JUMPDEST POP PUSH2 0x422 PUSH2 0x41D CALLDATASIZE PUSH1 0x4 PUSH2 0x2198 JUMP JUMPDEST PUSH2 0x12C8 JUMP JUMPDEST PUSH1 0x40 MLOAD SWAP1 ISZERO ISZERO DUP2 MSTORE PUSH1 0x20 ADD PUSH2 0x22A JUMP JUMPDEST CALLVALUE DUP1 ISZERO PUSH2 0x43E JUMPI PUSH1 0x0 DUP1 REVERT JUMPDEST POP PUSH2 0x21D PUSH2 0x12F2 JUMP JUMPDEST CALLVALUE DUP1 ISZERO PUSH2 0x453 JUMPI PUSH1 0x0 DUP1 REVERT JUMPDEST POP PUSH2 0x1FB PUSH2 0x462 CALLDATASIZE PUSH1 0x4 PUSH2 0x2284 JUMP JUMPDEST PUSH2 0x1302 JUMP JUMPDEST CALLVALUE DUP1 ISZERO PUSH2 0x473 JUMPI PUSH1 0x0 DUP1 REVERT JUMPDEST POP PUSH2 0x10D SLOAD PUSH2 0x325 SWAP1 PUSH1 0x1 PUSH1 0x1 PUSH1 0xA0 SHL SUB AND DUP2 JUMP JUMPDEST CALLVALUE DUP1 ISZERO PUSH2 0x494 JUMPI PUSH1 0x0 DUP1 REVERT JUMPDEST POP PUSH2 0x2AF PUSH2 0x4A3 CALLDATASIZE PUSH1 0x4 PUSH2 0x2198 JUMP JUMPDEST PUSH2 0x13EC JUMP JUMPDEST CALLVALUE DUP1 ISZERO PUSH2 0x4B4 JUMPI PUSH1 0x0 DUP1 REVERT JUMPDEST POP PUSH2 0x1FB PUSH2 0x4C3 CALLDATASIZE PUSH1 0x4 PUSH2 0x2284 JUMP JUMPDEST PUSH2 0x13FC JUMP JUMPDEST CALLVALUE DUP1 ISZERO PUSH2 0x4D4 JUMPI PUSH1 0x0 DUP1 REVERT JUMPDEST POP PUSH2 0x1FB PUSH2 0x4E3 CALLDATASIZE PUSH1 0x4 PUSH2 0x1EFD JUMP JUMPDEST PUSH2 0x1504 JUMP JUMPDEST CALLVALUE DUP1 ISZERO PUSH2 0x4F4 JUMPI PUSH1 0x0 DUP1 REVERT JUMPDEST POP PUSH2 0x1FB PUSH2 0x503 CALLDATASIZE PUSH1 0x4 PUSH2 0x22D9 JUMP JUMPDEST PUSH2 0x157F JUMP JUMPDEST CALLVALUE DUP1 ISZERO PUSH2 0x514 JUMPI PUSH1 0x0 DUP1 REVERT JUMPDEST POP PUSH2 0x1FB PUSH2 0x523 CALLDATASIZE PUSH1 0x4 PUSH2 0x2198 JUMP JUMPDEST PUSH2 0x1679 JUMP JUMPDEST CALLVALUE DUP1 ISZERO PUSH2 0x534 JUMPI PUSH1 0x0 DUP1 REVERT JUMPDEST POP PUSH2 0x1FB PUSH2 0x543 CALLDATASIZE PUSH1 0x4 PUSH2 0x1EFD JUMP JUMPDEST PUSH2 0x16B5 JUMP JUMPDEST CALLVALUE DUP1 ISZERO PUSH2 0x554 JUMPI PUSH1 0x0 DUP1 REVERT JUMPDEST POP PUSH2 0x2AF PUSH1 0x0 DUP1 MLOAD PUSH1 0x20 PUSH2 0x23BD DUP4 CODECOPY DUP2 MLOAD SWAP2 MSTORE DUP2 JUMP JUMPDEST PUSH2 0x572 PUSH2 0x17B2 JUMP JUMPDEST PUSH2 0x10D SLOAD PUSH1 0x1 PUSH1 0x1 PUSH1 0xA0 SHL SUB AND CALLER EQ PUSH2 0x59E JUMPI PUSH1 0x40 MLOAD PUSH4 0x2D99BC83 PUSH1 0xE2 SHL DUP2 MSTORE PUSH1 0x4 ADD PUSH1 0x40 MLOAD DUP1 SWAP2 SUB SWAP1 REVERT JUMPDEST PUSH1 0x1 PUSH1 0x1 PUSH1 0xA0 SHL SUB DUP2 AND PUSH2 0x5C5 JUMPI PUSH1 0x40 MLOAD PUSH4 0xE6C4247B PUSH1 0xE0 SHL DUP2 MSTORE PUSH1 0x4 ADD PUSH1 0x40 MLOAD DUP1 SWAP2 SUB SWAP1 REVERT JUMPDEST PUSH2 0x10D DUP1 SLOAD PUSH1 0x1 PUSH1 0x1 PUSH1 0xA0 SHL SUB NOT AND PUSH1 0x1 PUSH1 0x1 PUSH1 0xA0 SHL SUB DUP4 AND OR SWAP1 SSTORE PUSH1 0x1 DUP1 SSTORE POP JUMP JUMPDEST POP JUMP JUMPDEST PUSH2 0x5F3 PUSH2 0x1E13 JUMP JUMPDEST DUP4 DUP3 DUP2 EQ PUSH2 0x614 JUMPI PUSH1 0x40 MLOAD PUSH4 0x512509D3 PUSH1 0xE1 SHL DUP2 MSTORE PUSH1 0x4 ADD PUSH1 0x40 MLOAD DUP1 SWAP2 SUB SWAP1 REVERT JUMPDEST PUSH1 0x0 JUMPDEST DUP2 DUP2 LT ISZERO PUSH2 0x70A JUMPI PUSH1 0x1 JUMPDEST PUSH1 0x81 DUP2 LT ISZERO PUSH2 0x701 JUMPI PUSH2 0x805 PUSH4 0xE3B598FA DUP10 DUP10 DUP6 DUP2 DUP2 LT PUSH2 0x645 JUMPI PUSH2 0x645 PUSH2 0x2303 JUMP JUMPDEST SWAP1 POP PUSH1 0x20 MUL ADD CALLDATALOAD DUP9 DUP9 DUP7 DUP2 DUP2 LT PUSH2 0x65E JUMPI PUSH2 0x65E PUSH2 0x2303 JUMP JUMPDEST PUSH1 0x40 MLOAD PUSH1 0x1 PUSH1 0x1 PUSH1 0xE0 SHL SUB NOT PUSH1 0xE0 DUP8 SWAP1 SHL AND DUP2 MSTORE PUSH1 0x4 DUP2 ADD SWAP5 SWAP1 SWAP5 MSTORE PUSH1 0x20 MUL SWAP2 SWAP1 SWAP2 ADD CALLDATALOAD PUSH1 0x24 DUP4 ADD MSTORE POP PUSH1 0x44 DUP2 ADD DUP5 SWAP1 MSTORE PUSH1 0x64 ADD PUSH1 0x20 PUSH1 0x40 MLOAD DUP1 DUP4 SUB DUP2 DUP7 GAS STATICCALL ISZERO DUP1 ISZERO PUSH2 0x6AF JUMPI RETURNDATASIZE PUSH1 0x0 DUP1 RETURNDATACOPY RETURNDATASIZE PUSH1 0x0 REVERT JUMPDEST POP POP POP POP PUSH1 0x40 MLOAD RETURNDATASIZE PUSH1 0x1F NOT PUSH1 0x1F DUP3 ADD AND DUP3 ADD DUP1 PUSH1 0x40 MSTORE POP DUP2 ADD SWAP1 PUSH2 0x6D3 SWAP2 SWAP1 PUSH2 0x2319 JUMP JUMPDEST DUP5 DUP3 PUSH1 0x81 DUP2 LT PUSH2 0x6E5 JUMPI PUSH2 0x6E5 PUSH2 0x2303 JUMP JUMPDEST PUSH1 0x20 MUL ADD DUP2 DUP2 MLOAD PUSH2 0x6F6 SWAP2 SWAP1 PUSH2 0x2332 JUMP JUMPDEST SWAP1 MSTORE POP PUSH1 0x1 ADD PUSH2 0x622 JUMP JUMPDEST POP PUSH1 0x1 ADD PUSH2 0x617 JUMP JUMPDEST POP POP SWAP5 SWAP4 POP POP POP POP JUMP JUMPDEST PUSH2 0x71C PUSH2 0x1E13 JUMP JUMPDEST PUSH2 0x724 PUSH2 0x1E13 JUMP JUMPDEST PUSH2 0x72C PUSH2 0x1E13 JUMP JUMPDEST PUSH2 0x734 PUSH2 0x1E13 JUMP JUMPDEST PUSH2 0x73C PUSH2 0x1E13 JUMP JUMPDEST PUSH1 0x60 PUSH1 0x0 DUP1 PUSH2 0x749 PUSH2 0x180B JUMP JUMPDEST SWAP8 POP PUSH2 0x753 PUSH2 0x18D0 JUMP JUMPDEST PUSH1 0x40 DUP1 MLOAD PUSH2 0x1020 DUP2 ADD SWAP2 DUP3 SWAP1 MSTORE SWAP2 SWAP9 POP PUSH1 0x6 SWAP1 PUSH1 0x81 SWAP1 DUP3 PUSH1 0x0 DUP6 JUMPDEST DUP3 SLOAD PUSH2 0x100 DUP4 SWAP1 EXP SWAP1 DIV PUSH1 0xFF AND ISZERO ISZERO DUP2 MSTORE PUSH1 0x20 PUSH1 0x1 SWAP3 DUP4 ADD DUP2 DUP2 DIV SWAP5 DUP6 ADD SWAP5 SWAP1 SWAP4 SUB SWAP1 SWAP3 MUL SWAP2 ADD DUP1 DUP5 GT PUSH2 0x76E JUMPI SWAP1 POP POP POP POP POP POP SWAP6 POP PUSH2 0x7C2 PUSH1 0x0 DUP1 MLOAD PUSH1 0x20 PUSH2 0x23BD DUP4 CODECOPY DUP2 MLOAD SWAP2 MSTORE PUSH1 0x0 SHL PUSH1 0x5 SLOAD PUSH2 0x19AF JUMP JUMPDEST SWAP4 POP PUSH2 0x7CC PUSH2 0x1AA6 JUMP JUMPDEST PUSH1 0x40 DUP1 MLOAD PUSH2 0x1020 DUP2 ADD SWAP2 DUP3 SWAP1 MSTORE SWAP2 SWAP5 POP PUSH1 0xB SWAP1 PUSH1 0x81 SWAP1 DUP3 DUP5 JUMPDEST DUP2 SLOAD DUP2 MSTORE PUSH1 0x20 ADD SWAP1 PUSH1 0x1 ADD SWAP1 DUP1 DUP4 GT PUSH2 0x7E5 JUMPI POP POP POP POP POP SWAP5 POP SELFBALANCE SWAP2 POP PUSH2 0x814 PUSH1 0x0 SLOAD PUSH1 0x1 PUSH1 0x1 PUSH1 0xA0 SHL SUB AND SWAP1 JUMP JUMPDEST PUSH1 0x1 PUSH1 0x1 PUSH1 0xA0 SHL SUB AND BALANCE SWAP1 POP SWAP1 SWAP2 SWAP3 SWAP4 SWAP5 SWAP6 SWAP7 SWAP8 JUMP JUMPDEST PUSH2 0x832 PUSH2 0x17B2 JUMP JUMPDEST PUSH2 0x83A PUSH2 0x1B54 JUMP JUMPDEST DUP5 DUP4 DUP2 EQ ISZERO DUP1 PUSH2 0x84A JUMPI POP DUP1 DUP3 EQ ISZERO JUMPDEST ISZERO PUSH2 0x868 JUMPI PUSH1 0x40 MLOAD PUSH4 0x512509D3 PUSH1 0xE1 SHL DUP2 MSTORE PUSH1 0x4 ADD PUSH1 0x40 MLOAD DUP1 SWAP2 SUB SWAP1 REVERT JUMPDEST PUSH1 0x0 JUMPDEST DUP2 DUP2 LT ISZERO PUSH2 0xAC5 JUMPI PUSH1 0x0 DUP7 DUP7 DUP4 DUP2 DUP2 LT PUSH2 0x887 JUMPI PUSH2 0x887 PUSH2 0x2303 JUMP JUMPDEST SWAP1 POP PUSH1 0x20 MUL ADD CALLDATALOAD SWAP1 POP DUP1 PUSH1 0x0 EQ PUSH2 0xABC JUMPI PUSH1 0x0 DUP10 DUP10 DUP5 DUP2 DUP2 LT PUSH2 0x8AC JUMPI PUSH2 0x8AC PUSH2 0x2303 JUMP JUMPDEST SWAP1 POP PUSH1 0x20 MUL ADD CALLDATALOAD SWAP1 POP PUSH2 0x8BE DUP2 PUSH2 0x1BAE JUMP JUMPDEST PUSH1 0x40 MLOAD PUSH4 0x69E38BC3 PUSH1 0xE0 SHL DUP2 MSTORE PUSH2 0xFFFF DUP3 AND PUSH1 0x4 DUP3 ADD MSTORE PUSH1 0x0 SWAP1 PUSH2 0x808 SWAP1 PUSH4 0x69E38BC3 SWAP1 PUSH1 0x24 ADD PUSH1 0x20 PUSH1 0x40 MLOAD DUP1 DUP4 SUB DUP2 DUP7 GAS STATICCALL ISZERO DUP1 ISZERO PUSH2 0x902 JUMPI RETURNDATASIZE PUSH1 0x0 DUP1 RETURNDATACOPY RETURNDATASIZE PUSH1 0x0 REVERT JUMPDEST POP POP POP POP PUSH1 0x40 MLOAD RETURNDATASIZE PUSH1 0x1F NOT PUSH1 0x1F DUP3 ADD AND DUP3 ADD DUP1 PUSH1 0x40 MSTORE POP DUP2 ADD SWAP1 PUSH2 0x926 SWAP2 SWAP1 PUSH2 0x2319 JUMP JUMPDEST SWAP1 POP DUP1 DUP8 DUP8 DUP7 DUP2 DUP2 LT PUSH2 0x93B JUMPI PUSH2 0x93B PUSH2 0x2303 JUMP JUMPDEST SWAP1 POP PUSH1 0x20 MUL ADD CALLDATALOAD LT PUSH2 0xAB9 JUMPI PUSH1 0x0 PUSH2 0x953 SELFBALANCE DUP6 PUSH2 0x1BCF JUMP JUMPDEST SWAP1 POP DUP1 PUSH1 0x0 SUB PUSH2 0x976 JUMPI PUSH1 0x40 MLOAD PUSH4 0x65E52D51 PUSH1 0xE1 SHL DUP2 MSTORE PUSH1 0x4 ADD PUSH1 0x40 MLOAD DUP1 SWAP2 SUB SWAP1 REVERT JUMPDEST PUSH2 0x805 PUSH4 0x1FC9B141 PUSH1 0x0 DUP1 MLOAD PUSH1 0x20 PUSH2 0x23BD DUP4 CODECOPY DUP2 MLOAD SWAP2 MSTORE PUSH2 0x996 DUP5 PUSH2 0x1BE9 JUMP JUMPDEST PUSH1 0x40 MLOAD PUSH1 0x1 PUSH1 0x1 PUSH1 0xE0 SHL SUB NOT PUSH1 0xE0 DUP6 SWAP1 SHL AND DUP2 MSTORE PUSH1 0x4 DUP2 ADD SWAP3 SWAP1 SWAP3 MSTORE PUSH1 0x24 DUP3 ADD MSTORE PUSH1 0x44 DUP2 ADD DUP7 SWAP1 MSTORE PUSH1 0x64 ADD PUSH1 0x0 PUSH1 0x40 MLOAD DUP1 DUP4 SUB DUP2 PUSH1 0x0 DUP8 DUP1 EXTCODESIZE ISZERO DUP1 ISZERO PUSH2 0x9DB JUMPI PUSH1 0x0 DUP1 REVERT JUMPDEST POP GAS CALL ISZERO DUP1 ISZERO PUSH2 0x9EF JUMPI RETURNDATASIZE PUSH1 0x0 DUP1 RETURNDATACOPY RETURNDATASIZE PUSH1 0x0 REVERT JUMPDEST POP POP PUSH1 0x40 MLOAD PUSH4 0x69E38BC3 PUSH1 0xE0 SHL DUP2 MSTORE PUSH2 0xFFFF DUP7 AND PUSH1 0x4 DUP3 ADD MSTORE PUSH2 0x808 SWAP3 POP PUSH4 0x69E38BC3 SWAP2 POP PUSH1 0x24 ADD PUSH1 0x20 PUSH1 0x40 MLOAD DUP1 DUP4 SUB DUP2 DUP7 GAS STATICCALL ISZERO DUP1 ISZERO PUSH2 0xA34 JUMPI RETURNDATASIZE PUSH1 0x0 DUP1 RETURNDATACOPY RETURNDATASIZE PUSH1 0x0 REVERT JUMPDEST POP POP POP POP PUSH1 0x40 MLOAD RETURNDATASIZE PUSH1 0x1F NOT PUSH1 0x1F DUP3 ADD AND DUP3 ADD DUP1 PUSH1 0x40 MSTORE POP DUP2 ADD SWAP1 PUSH2 0xA58 SWAP2 SWAP1 PUSH2 0x2319 JUMP JUMPDEST PUSH1 0xB DUP5 PUSH1 0x81 DUP2 LT PUSH2 0xA6B JUMPI PUSH2 0xA6B PUSH2 0x2303 JUMP JUMPDEST ADD SSTORE PUSH1 0x1 PUSH1 0x6 DUP5 PUSH1 0x81 DUP2 LT PUSH2 0xA82 JUMPI PUSH2 0xA82 PUSH2 0x2303 JUMP JUMPDEST PUSH1 0x20 SWAP2 DUP3 DUP3 DIV ADD SWAP2 SWAP1 MOD PUSH2 0x100 EXP DUP2 SLOAD DUP2 PUSH1 0xFF MUL NOT AND SWAP1 DUP4 ISZERO ISZERO MUL OR SWAP1 SSTORE POP TIMESTAMP PUSH1 0x8C DUP5 PUSH1 0x81 DUP2 LT PUSH2 0xAB5 JUMPI PUSH2 0xAB5 PUSH2 0x2303 JUMP JUMPDEST ADD SSTORE POP JUMPDEST POP POP JUMPDEST POP PUSH1 0x1 ADD PUSH2 0x86B JUMP JUMPDEST POP POP PUSH2 0xAD0 PUSH1 0x1 DUP1 SSTORE JUMP JUMPDEST POP POP POP POP POP POP JUMP JUMPDEST PUSH2 0xAE0 PUSH2 0x17B2 JUMP JUMPDEST PUSH2 0xAE8 PUSH2 0x1B54 JUMP JUMPDEST DUP3 DUP2 EQ PUSH2 0xB08 JUMPI PUSH1 0x40 MLOAD PUSH4 0x512509D3 PUSH1 0xE1 SHL DUP2 MSTORE PUSH1 0x4 ADD PUSH1 0x40 MLOAD DUP1 SWAP2 SUB SWAP1 REVERT JUMPDEST DUP5 DUP4 EQ PUSH2 0xB28 JUMPI PUSH1 0x40 MLOAD PUSH4 0x512509D3 PUSH1 0xE1 SHL DUP2 MSTORE PUSH1 0x4 ADD PUSH1 0x40 MLOAD DUP1 SWAP2 SUB SWAP1 REVERT JUMPDEST PUSH2 0xB34 PUSH1 0x4 DUP8 DUP8 PUSH2 0x1E32 JUMP JUMPDEST POP PUSH2 0xB41 PUSH1 0x2 DUP6 DUP6 PUSH2 0x1E91 JUMP JUMPDEST POP PUSH2 0xB4E PUSH1 0x3 DUP4 DUP4 PUSH2 0x1E91 JUMP JUMPDEST POP PUSH2 0xAD0 PUSH1 0x1 DUP1 SSTORE JUMP JUMPDEST PUSH1 0x3 DUP2 DUP2 SLOAD DUP2 LT PUSH2 0xB68 JUMPI PUSH1 0x0 DUP1 REVERT JUMPDEST PUSH1 0x0 SWAP2 DUP3 MSTORE PUSH1 0x20 SWAP1 SWAP2 KECCAK256 ADD SLOAD SWAP1 POP DUP2 JUMP JUMPDEST PUSH2 0xB81 PUSH2 0x17B2 JUMP JUMPDEST PUSH2 0xB89 PUSH2 0x1B54 JUMP JUMPDEST DUP5 DUP4 DUP3 EQ PUSH2 0xBAA JUMPI PUSH1 0x40 MLOAD PUSH4 0x512509D3 PUSH1 0xE1 SHL DUP2 MSTORE PUSH1 0x4 ADD PUSH1 0x40 MLOAD DUP1 SWAP2 SUB SWAP1 REVERT JUMPDEST PUSH1 0x0 JUMPDEST DUP2 DUP2 LT ISZERO PUSH2 0xAC5 JUMPI PUSH1 0x0 DUP9 DUP9 DUP4 DUP2 DUP2 LT PUSH2 0xBC9 JUMPI PUSH2 0xBC9 PUSH2 0x2303 JUMP JUMPDEST SWAP1 POP PUSH1 0x20 MUL ADD CALLDATALOAD SWAP1 POP PUSH2 0xBDB DUP2 PUSH2 0x1BAE JUMP JUMPDEST PUSH1 0x8C DUP2 PUSH1 0x81 DUP2 LT PUSH2 0xBEE JUMPI PUSH2 0xBEE PUSH2 0x2303 JUMP JUMPDEST ADD SLOAD TIMESTAMP EQ PUSH2 0xD21 JUMPI PUSH1 0x0 PUSH2 0xC05 DUP3 DUP10 DUP10 DUP10 DUP10 PUSH2 0x1BF9 JUMP JUMPDEST GT ISZERO PUSH2 0xD21 JUMPI PUSH1 0x40 MLOAD PUSH4 0xD4626BB9 PUSH1 0xE0 SHL DUP2 MSTORE PUSH1 0x0 DUP1 MLOAD PUSH1 0x20 PUSH2 0x23BD DUP4 CODECOPY DUP2 MLOAD SWAP2 MSTORE PUSH1 0x4 DUP3 ADD MSTORE PUSH1 0x24 DUP2 ADD DUP3 SWAP1 MSTORE PUSH2 0x805 SWAP1 PUSH4 0xD4626BB9 SWAP1 PUSH1 0x44 ADD PUSH1 0x0 PUSH1 0x40 MLOAD DUP1 DUP4 SUB DUP2 PUSH1 0x0 DUP8 DUP1 EXTCODESIZE ISZERO DUP1 ISZERO PUSH2 0xC5A JUMPI PUSH1 0x0 DUP1 REVERT JUMPDEST POP GAS CALL ISZERO DUP1 ISZERO PUSH2 0xC6E JUMPI RETURNDATASIZE PUSH1 0x0 DUP1 RETURNDATACOPY RETURNDATASIZE PUSH1 0x0 REVERT JUMPDEST POP POP PUSH1 0x40 MLOAD PUSH4 0x69E38BC3 PUSH1 0xE0 SHL DUP2 MSTORE PUSH2 0xFFFF DUP5 AND PUSH1 0x4 DUP3 ADD MSTORE PUSH2 0x808 SWAP3 POP PUSH4 0x69E38BC3 SWAP2 POP PUSH1 0x24 ADD PUSH1 0x20 PUSH1 0x40 MLOAD DUP1 DUP4 SUB DUP2 DUP7 GAS STATICCALL ISZERO DUP1 ISZERO PUSH2 0xCB3 JUMPI RETURNDATASIZE PUSH1 0x0 DUP1 RETURNDATACOPY RETURNDATASIZE PUSH1 0x0 REVERT JUMPDEST POP POP POP POP PUSH1 0x40 MLOAD RETURNDATASIZE PUSH1 0x1F NOT PUSH1 0x1F DUP3 ADD AND DUP3 ADD DUP1 PUSH1 0x40 MSTORE POP DUP2 ADD SWAP1 PUSH2 0xCD7 SWAP2 SWAP1 PUSH2 0x2319 JUMP JUMPDEST PUSH1 0xB DUP3 PUSH1 0x81 DUP2 LT PUSH2 0xCEA JUMPI PUSH2 0xCEA PUSH2 0x2303 JUMP JUMPDEST ADD SSTORE PUSH1 0x0 PUSH1 0x6 DUP3 PUSH1 0x81 DUP2 LT PUSH2 0xD01 JUMPI PUSH2 0xD01 PUSH2 0x2303 JUMP JUMPDEST PUSH1 0x20 SWAP2 DUP3 DUP3 DIV ADD SWAP2 SWAP1 MOD PUSH2 0x100 EXP DUP2 SLOAD DUP2 PUSH1 0xFF MUL NOT AND SWAP1 DUP4 ISZERO ISZERO MUL OR SWAP1 SSTORE POP JUMPDEST POP PUSH1 0x1 ADD PUSH2 0xBAD JUMP JUMPDEST PUSH2 0xD32 PUSH2 0x17B2 JUMP JUMPDEST PUSH2 0xD3A PUSH2 0x1B54 JUMP JUMPDEST DUP3 DUP2 DUP2 EQ PUSH2 0xD5B JUMPI PUSH1 0x40 MLOAD PUSH4 0x512509D3 PUSH1 0xE1 SHL DUP2 MSTORE PUSH1 0x4 ADD PUSH1 0x40 MLOAD DUP1 SWAP2 SUB SWAP1 REVERT JUMPDEST PUSH1 0x0 JUMPDEST DUP2 DUP2 LT ISZERO PUSH2 0xF50 JUMPI PUSH1 0x0 DUP7 DUP7 DUP4 DUP2 DUP2 LT PUSH2 0xD7A JUMPI PUSH2 0xD7A PUSH2 0x2303 JUMP JUMPDEST SWAP1 POP PUSH1 0x20 MUL ADD CALLDATALOAD SWAP1 POP PUSH2 0xD8C DUP2 PUSH2 0x1BAE JUMP JUMPDEST PUSH1 0x40 MLOAD PUSH4 0x69E38BC3 PUSH1 0xE0 SHL DUP2 MSTORE PUSH2 0xFFFF DUP3 AND PUSH1 0x4 DUP3 ADD MSTORE PUSH1 0x0 SWAP1 PUSH2 0x808 SWAP1 PUSH4 0x69E38BC3 SWAP1 PUSH1 0x24 ADD PUSH1 0x20 PUSH1 0x40 MLOAD DUP1 DUP4 SUB DUP2 DUP7 GAS STATICCALL ISZERO DUP1 ISZERO PUSH2 0xDD0 JUMPI RETURNDATASIZE PUSH1 0x0 DUP1 RETURNDATACOPY RETURNDATASIZE PUSH1 0x0 REVERT JUMPDEST POP POP POP POP PUSH1 0x40 MLOAD RETURNDATASIZE PUSH1 0x1F NOT PUSH1 0x1F DUP3 ADD AND DUP3 ADD DUP1 PUSH1 0x40 MSTORE POP DUP2 ADD SWAP1 PUSH2 0xDF4 SWAP2 SWAP1 PUSH2 0x2319 JUMP JUMPDEST SWAP1 POP DUP1 DUP7 DUP7 DUP6 DUP2 DUP2 LT PUSH2 0xE09 JUMPI PUSH2 0xE09 PUSH2 0x2303 JUMP JUMPDEST SWAP1 POP PUSH1 0x20 MUL ADD CALLDATALOAD GT PUSH2 0xF46 JUMPI PUSH1 0x8C DUP3 PUSH1 0x81 DUP2 LT PUSH2 0xE28 JUMPI PUSH2 0xE28 PUSH2 0x2303 JUMP JUMPDEST ADD SLOAD TIMESTAMP EQ PUSH2 0xF46 JUMPI PUSH1 0x40 MLOAD PUSH4 0xD4626BB9 PUSH1 0xE0 SHL DUP2 MSTORE PUSH1 0x0 DUP1 MLOAD PUSH1 0x20 PUSH2 0x23BD DUP4 CODECOPY DUP2 MLOAD SWAP2 MSTORE PUSH1 0x4 DUP3 ADD MSTORE PUSH1 0x24 DUP2 ADD DUP4 SWAP1 MSTORE PUSH2 0x805 SWAP1 PUSH4 0xD4626BB9 SWAP1 PUSH1 0x44 ADD PUSH1 0x0 PUSH1 0x40 MLOAD DUP1 DUP4 SUB DUP2 PUSH1 0x0 DUP8 DUP1 EXTCODESIZE ISZERO DUP1 ISZERO PUSH2 0xE7F JUMPI PUSH1 0x0 DUP1 REVERT JUMPDEST POP GAS CALL ISZERO DUP1 ISZERO PUSH2 0xE93 JUMPI RETURNDATASIZE PUSH1 0x0 DUP1 RETURNDATACOPY RETURNDATASIZE PUSH1 0x0 REVERT JUMPDEST POP POP PUSH1 0x40 MLOAD PUSH4 0x69E38BC3 PUSH1 0xE0 SHL DUP2 MSTORE PUSH2 0xFFFF DUP6 AND PUSH1 0x4 DUP3 ADD MSTORE PUSH2 0x808 SWAP3 POP PUSH4 0x69E38BC3 SWAP2 POP PUSH1 0x24 ADD PUSH1 0x20 PUSH1 0x40 MLOAD DUP1 DUP4 SUB DUP2 DUP7 GAS STATICCALL ISZERO DUP1 ISZERO PUSH2 0xED8 JUMPI RETURNDATASIZE PUSH1 0x0 DUP1 RETURNDATACOPY RETURNDATASIZE PUSH1 0x0 REVERT JUMPDEST POP POP POP POP PUSH1 0x40 MLOAD RETURNDATASIZE PUSH1 0x1F NOT PUSH1 0x1F DUP3 ADD AND DUP3 ADD DUP1 PUSH1 0x40 MSTORE POP DUP2 ADD SWAP1 PUSH2 0xEFC SWAP2 SWAP1 PUSH2 0x2319 JUMP JUMPDEST PUSH1 0xB DUP4 PUSH1 0x81 DUP2 LT PUSH2 0xF0F JUMPI PUSH2 0xF0F PUSH2 0x2303 JUMP JUMPDEST ADD SSTORE PUSH1 0x0 PUSH1 0x6 DUP4 PUSH1 0x81 DUP2 LT PUSH2 0xF26 JUMPI PUSH2 0xF26 PUSH2 0x2303 JUMP JUMPDEST PUSH1 0x20 SWAP2 DUP3 DUP3 DIV ADD SWAP2 SWAP1 MOD PUSH2 0x100 EXP DUP2 SLOAD DUP2 PUSH1 0xFF MUL NOT AND SWAP1 DUP4 ISZERO ISZERO MUL OR SWAP1 SSTORE POP JUMPDEST POP POP PUSH1 0x1 ADD PUSH2 0xD5E JUMP JUMPDEST POP POP PUSH2 0xF5B PUSH1 0x1 DUP1 SSTORE JUMP JUMPDEST POP POP POP POP JUMP JUMPDEST PUSH2 0xF69 PUSH2 0x17B2 JUMP JUMPDEST PUSH2 0xF71 PUSH2 0x1B54 JUMP JUMPDEST DUP7 DUP6 DUP2 EQ PUSH2 0xF92 JUMPI PUSH1 0x40 MLOAD PUSH4 0x512509D3 PUSH1 0xE1 SHL DUP2 MSTORE PUSH1 0x4 ADD PUSH1 0x40 MLOAD DUP1 SWAP2 SUB SWAP1 REVERT JUMPDEST DUP4 DUP3 EQ PUSH2 0xFB2 JUMPI PUSH1 0x40 MLOAD PUSH4 0x512509D3 PUSH1 0xE1 SHL DUP2 MSTORE PUSH1 0x4 ADD PUSH1 0x40 MLOAD DUP1 SWAP2 SUB SWAP1 REVERT JUMPDEST PUSH1 0x0 JUMPDEST DUP2 DUP2 LT ISZERO PUSH2 0x1198 JUMPI PUSH1 0x0 DUP11 DUP11 DUP4 DUP2 DUP2 LT PUSH2 0xFD1 JUMPI PUSH2 0xFD1 PUSH2 0x2303 JUMP JUMPDEST SWAP1 POP PUSH1 0x20 MUL ADD CALLDATALOAD SWAP1 POP PUSH2 0xFE3 DUP2 PUSH2 0x1BAE JUMP JUMPDEST PUSH1 0x0 DUP10 DUP10 DUP5 DUP2 DUP2 LT PUSH2 0xFF7 JUMPI PUSH2 0xFF7 PUSH2 0x2303 JUMP JUMPDEST SWAP1 POP PUSH1 0x20 MUL ADD CALLDATALOAD SWAP1 POP PUSH1 0x0 PUSH2 0x100C SELFBALANCE DUP4 PUSH2 0x1BCF JUMP JUMPDEST SWAP1 POP DUP1 PUSH1 0x0 SUB PUSH2 0x102F JUMPI PUSH1 0x40 MLOAD PUSH4 0x65E52D51 PUSH1 0xE1 SHL DUP2 MSTORE PUSH1 0x4 ADD PUSH1 0x40 MLOAD DUP1 SWAP2 SUB SWAP1 REVERT JUMPDEST PUSH2 0x103C DUP4 DUP11 DUP11 DUP11 DUP11 PUSH2 0x1BF9 JUMP JUMPDEST PUSH1 0x0 SUB PUSH2 0x118A JUMPI PUSH2 0x805 PUSH4 0x1FC9B141 PUSH1 0x0 DUP1 MLOAD PUSH1 0x20 PUSH2 0x23BD DUP4 CODECOPY DUP2 MLOAD SWAP2 MSTORE PUSH2 0x1063 DUP5 PUSH2 0x1BE9 JUMP JUMPDEST PUSH1 0x40 MLOAD PUSH1 0x1 PUSH1 0x1 PUSH1 0xE0 SHL SUB NOT PUSH1 0xE0 DUP6 SWAP1 SHL AND DUP2 MSTORE PUSH1 0x4 DUP2 ADD SWAP3 SWAP1 SWAP3 MSTORE PUSH1 0x24 DUP3 ADD MSTORE PUSH1 0x44 DUP2 ADD DUP7 SWAP1 MSTORE PUSH1 0x64 ADD PUSH1 0x0 PUSH1 0x40 MLOAD DUP1 DUP4 SUB DUP2 PUSH1 0x0 DUP8 DUP1 EXTCODESIZE ISZERO DUP1 ISZERO PUSH2 0x10A8 JUMPI PUSH1 0x0 DUP1 REVERT JUMPDEST POP GAS CALL ISZERO DUP1 ISZERO PUSH2 0x10BC JUMPI RETURNDATASIZE PUSH1 0x0 DUP1 RETURNDATACOPY RETURNDATASIZE PUSH1 0x0 REVERT JUMPDEST POP POP POP POP PUSH1 0x1 PUSH1 0x6 DUP5 PUSH1 0x81 DUP2 LT PUSH2 0x10D5 JUMPI PUSH2 0x10D5 PUSH2 0x2303 JUMP JUMPDEST PUSH1 0x20 DUP2 DIV SWAP1 SWAP2 ADD DUP1 SLOAD SWAP3 ISZERO ISZERO PUSH1 0x1F SWAP1 SWAP3 AND PUSH2 0x100 EXP SWAP2 DUP3 MUL PUSH1 0xFF SWAP1 SWAP3 MUL NOT SWAP1 SWAP3 AND OR SWAP1 SSTORE PUSH1 0x40 MLOAD PUSH4 0x69E38BC3 PUSH1 0xE0 SHL DUP2 MSTORE PUSH2 0xFFFF DUP5 AND PUSH1 0x4 DUP3 ADD MSTORE PUSH2 0x808 SWAP1 PUSH4 0x69E38BC3 SWAP1 PUSH1 0x24 ADD PUSH1 0x20 PUSH1 0x40 MLOAD DUP1 DUP4 SUB DUP2 DUP7 GAS STATICCALL ISZERO DUP1 ISZERO PUSH2 0x113A JUMPI RETURNDATASIZE PUSH1 0x0 DUP1 RETURNDATACOPY RETURNDATASIZE PUSH1 0x0 REVERT JUMPDEST POP POP POP POP PUSH1 0x40 MLOAD RETURNDATASIZE PUSH1 0x1F NOT PUSH1 0x1F DUP3 ADD AND DUP3 ADD DUP1 PUSH1 0x40 MSTORE POP DUP2 ADD SWAP1 PUSH2 0x115E SWAP2 SWAP1 PUSH2 0x2319 JUMP JUMPDEST PUSH1 0xB DUP5 PUSH1 0x81 DUP2 LT PUSH2 0x1171 JUMPI PUSH2 0x1171 PUSH2 0x2303 JUMP JUMPDEST ADD SSTORE TIMESTAMP PUSH1 0x8C DUP5 PUSH1 0x81 DUP2 LT PUSH2 0x1187 JUMPI PUSH2 0x1187 PUSH2 0x2303 JUMP JUMPDEST ADD SSTORE JUMPDEST DUP4 PUSH1 0x1 ADD SWAP4 POP POP POP POP PUSH2 0xFB5 JUMP JUMPDEST POP POP PUSH2 0x11A3 PUSH1 0x1 DUP1 SSTORE JUMP JUMPDEST POP POP POP POP POP POP POP POP JUMP JUMPDEST PUSH2 0x11B5 PUSH2 0x1B54 JUMP JUMPDEST PUSH2 0x11BF PUSH1 0x0 PUSH2 0x1CD5 JUMP JUMPDEST JUMP JUMPDEST PUSH1 0x4 DUP2 DUP2 SLOAD DUP2 LT PUSH2 0x11D1 JUMPI PUSH1 0x0 DUP1 REVERT JUMPDEST PUSH1 0x0 SWAP2 DUP3 MSTORE PUSH1 0x20 SWAP1 SWAP2 KECCAK256 ADD SLOAD PUSH1 0x1 PUSH1 0x1 PUSH1 0xA0 SHL SUB AND SWAP1 POP DUP2 JUMP JUMPDEST PUSH2 0x11F3 PUSH2 0x1E13 JUMP JUMPDEST PUSH2 0x11FB PUSH2 0x18D0 JUMP JUMPDEST SWAP1 POP SWAP1 JUMP JUMPDEST PUSH1 0x60 DUP2 DUP1 PUSH8 0xFFFFFFFFFFFFFFFF DUP2 GT ISZERO PUSH2 0x121C JUMPI PUSH2 0x121C PUSH2 0x2353 JUMP JUMPDEST PUSH1 0x40 MLOAD SWAP1 DUP1 DUP3 MSTORE DUP1 PUSH1 0x20 MUL PUSH1 0x20 ADD DUP3 ADD PUSH1 0x40 MSTORE DUP1 ISZERO PUSH2 0x1245 JUMPI DUP2 PUSH1 0x20 ADD PUSH1 0x20 DUP3 MUL DUP1 CALLDATASIZE DUP4 CALLDATACOPY ADD SWAP1 POP JUMPDEST POP SWAP2 POP PUSH1 0x0 JUMPDEST DUP2 DUP2 LT ISZERO PUSH2 0x1299 JUMPI PUSH2 0x1274 DUP6 DUP6 DUP4 DUP2 DUP2 LT PUSH2 0x1268 JUMPI PUSH2 0x1268 PUSH2 0x2303 JUMP JUMPDEST SWAP1 POP PUSH1 0x20 MUL ADD CALLDATALOAD PUSH2 0x1D25 JUMP JUMPDEST DUP4 DUP3 DUP2 MLOAD DUP2 LT PUSH2 0x1286 JUMPI PUSH2 0x1286 PUSH2 0x2303 JUMP JUMPDEST PUSH1 0x20 SWAP1 DUP2 MUL SWAP2 SWAP1 SWAP2 ADD ADD MSTORE PUSH1 0x1 ADD PUSH2 0x124B JUMP JUMPDEST POP POP SWAP3 SWAP2 POP POP JUMP JUMPDEST PUSH1 0x8C DUP2 PUSH1 0x81 DUP2 LT PUSH2 0x12B1 JUMPI PUSH1 0x0 DUP1 REVERT JUMPDEST ADD SLOAD SWAP1 POP DUP2 JUMP JUMPDEST PUSH1 0x2 DUP2 DUP2 SLOAD DUP2 LT PUSH2 0xB68 JUMPI PUSH1 0x0 DUP1 REVERT JUMPDEST PUSH1 0x6 DUP2 PUSH1 0x81 DUP2 LT PUSH2 0x12D8 JUMPI PUSH1 0x0 DUP1 REVERT JUMPDEST PUSH1 0x20 SWAP2 DUP3 DUP3 DIV ADD SWAP2 SWAP1 MOD SWAP2 POP SLOAD SWAP1 PUSH2 0x100 EXP SWAP1 DIV PUSH1 0xFF AND DUP2 JUMP JUMPDEST PUSH2 0x12FA PUSH2 0x1E13 JUMP JUMPDEST PUSH2 0x11FB PUSH2 0x180B JUMP JUMPDEST PUSH2 0x130A PUSH2 0x17B2 JUMP JUMPDEST PUSH2 0x1312 PUSH2 0x1B54 JUMP JUMPDEST DUP1 PUSH1 0x0 JUMPDEST DUP2 DUP2 LT ISZERO PUSH2 0x13DD JUMPI PUSH1 0x0 DUP5 DUP5 DUP4 DUP2 DUP2 LT PUSH2 0x1332 JUMPI PUSH2 0x1332 PUSH2 0x2303 JUMP JUMPDEST SWAP1 POP PUSH1 0x20 MUL ADD CALLDATALOAD SWAP1 POP PUSH2 0x1344 DUP2 PUSH2 0x1BAE JUMP JUMPDEST PUSH1 0x40 MLOAD PUSH4 0x69E38BC3 PUSH1 0xE0 SHL DUP2 MSTORE PUSH2 0xFFFF DUP3 AND PUSH1 0x4 DUP3 ADD MSTORE PUSH2 0x808 SWAP1 PUSH4 0x69E38BC3 SWAP1 PUSH1 0x24 ADD PUSH1 0x20 PUSH1 0x40 MLOAD DUP1 DUP4 SUB DUP2 DUP7 GAS STATICCALL ISZERO DUP1 ISZERO PUSH2 0x1385 JUMPI RETURNDATASIZE PUSH1 0x0 DUP1 RETURNDATACOPY RETURNDATASIZE PUSH1 0x0 REVERT JUMPDEST POP POP POP POP PUSH1 0x40 MLOAD RETURNDATASIZE PUSH1 0x1F NOT PUSH1 0x1F DUP3 ADD AND DUP3 ADD DUP1 PUSH1 0x40 MSTORE POP DUP2 ADD SWAP1 PUSH2 0x13A9 SWAP2 SWAP1 PUSH2 0x2319 JUMP JUMPDEST PUSH1 0xB DUP3 PUSH1 0x81 DUP2 LT PUSH2 0x13BC JUMPI PUSH2 0x13BC PUSH2 0x2303 JUMP JUMPDEST ADD SSTORE TIMESTAMP PUSH1 0x8C DUP3 PUSH1 0x81 DUP2 LT PUSH2 0x13D2 JUMPI PUSH2 0x13D2 PUSH2 0x2303 JUMP JUMPDEST ADD SSTORE POP PUSH1 0x1 ADD PUSH2 0x1316 JUMP JUMPDEST POP POP PUSH2 0x13E8 PUSH1 0x1 DUP1 SSTORE JUMP JUMPDEST POP POP JUMP JUMPDEST PUSH1 0xB DUP2 PUSH1 0x81 DUP2 LT PUSH2 0x12B1 JUMPI PUSH1 0x0 DUP1 REVERT JUMPDEST PUSH2 0x1404 PUSH2 0x17B2 JUMP JUMPDEST PUSH2 0x140C PUSH2 0x1B54 JUMP JUMPDEST DUP1 PUSH1 0x0 JUMPDEST DUP2 DUP2 LT ISZERO PUSH2 0x13DD JUMPI PUSH1 0x0 DUP5 DUP5 DUP4 DUP2 DUP2 LT PUSH2 0x142C JUMPI PUSH2 0x142C PUSH2 0x2303 JUMP JUMPDEST SWAP1 POP PUSH1 0x20 MUL ADD CALLDATALOAD SWAP1 POP PUSH2 0x143E DUP2 PUSH2 0x1BAE JUMP JUMPDEST PUSH1 0x5 SLOAD PUSH1 0x40 MLOAD PUSH4 0x71DACC7D PUSH1 0xE1 SHL DUP2 MSTORE PUSH1 0x0 DUP1 MLOAD PUSH1 0x20 PUSH2 0x23BD DUP4 CODECOPY DUP2 MLOAD SWAP2 MSTORE PUSH1 0x4 DUP3 ADD MSTORE PUSH1 0x24 DUP2 ADD SWAP2 SWAP1 SWAP2 MSTORE PUSH1 0x44 DUP2 ADD DUP3 SWAP1 MSTORE PUSH2 0x805 SWAP1 PUSH4 0xE3B598FA SWAP1 PUSH1 0x64 ADD PUSH1 0x20 PUSH1 0x40 MLOAD DUP1 DUP4 SUB DUP2 DUP7 GAS STATICCALL ISZERO DUP1 ISZERO PUSH2 0x149B JUMPI RETURNDATASIZE PUSH1 0x0 DUP1 RETURNDATACOPY RETURNDATASIZE PUSH1 0x0 REVERT JUMPDEST POP POP POP POP PUSH1 0x40 MLOAD RETURNDATASIZE PUSH1 0x1F NOT PUSH1 0x1F DUP3 ADD AND DUP3 ADD DUP1 PUSH1 0x40 MSTORE POP DUP2 ADD SWAP1 PUSH2 0x14BF SWAP2 SWAP1 PUSH2 0x2319 JUMP JUMPDEST PUSH1 0x0 SUB PUSH2 0x14FB JUMPI PUSH1 0x0 PUSH1 0x6 DUP3 PUSH1 0x81 DUP2 LT PUSH2 0x14DB JUMPI PUSH2 0x14DB PUSH2 0x2303 JUMP JUMPDEST PUSH1 0x20 SWAP2 DUP3 DUP3 DIV ADD SWAP2 SWAP1 MOD PUSH2 0x100 EXP DUP2 SLOAD DUP2 PUSH1 0xFF MUL NOT AND SWAP1 DUP4 ISZERO ISZERO MUL OR SWAP1 SSTORE POP JUMPDEST POP PUSH1 0x1 ADD PUSH2 0x1410 JUMP JUMPDEST PUSH2 0x150C PUSH2 0x1B54 JUMP JUMPDEST PUSH1 0x1 PUSH1 0x1 PUSH1 0xA0 SHL SUB DUP2 AND PUSH2 0x1576 JUMPI PUSH1 0x40 MLOAD PUSH3 0x461BCD PUSH1 0xE5 SHL DUP2 MSTORE PUSH1 0x20 PUSH1 0x4 DUP3 ADD MSTORE PUSH1 0x26 PUSH1 0x24 DUP3 ADD MSTORE PUSH32 0x4F776E61626C653A206E6577206F776E657220697320746865207A65726F2061 PUSH1 0x44 DUP3 ADD MSTORE PUSH6 0x646472657373 PUSH1 0xD0 SHL PUSH1 0x64 DUP3 ADD MSTORE PUSH1 0x84 ADD JUMPDEST PUSH1 0x40 MLOAD DUP1 SWAP2 SUB SWAP1 REVERT JUMPDEST PUSH2 0x5E8 DUP2 PUSH2 0x1CD5 JUMP JUMPDEST PUSH2 0x1587 PUSH2 0x17B2 JUMP JUMPDEST PUSH2 0x10D SLOAD PUSH1 0x1 PUSH1 0x1 PUSH1 0xA0 SHL SUB AND CALLER EQ PUSH2 0x15B3 JUMPI PUSH1 0x40 MLOAD PUSH4 0x2D99BC83 PUSH1 0xE2 SHL DUP2 MSTORE PUSH1 0x4 ADD PUSH1 0x40 MLOAD DUP1 SWAP2 SUB SWAP1 REVERT JUMPDEST PUSH1 0x1 PUSH1 0x1 PUSH1 0xA0 SHL SUB DUP3 AND PUSH2 0x15DA JUMPI PUSH1 0x40 MLOAD PUSH4 0xE6C4247B PUSH1 0xE0 SHL DUP2 MSTORE PUSH1 0x4 ADD PUSH1 0x40 MLOAD DUP1 SWAP2 SUB SWAP1 REVERT JUMPDEST DUP1 PUSH1 0x0 SUB PUSH2 0x15FB JUMPI PUSH1 0x40 MLOAD PUSH4 0x65E52D51 PUSH1 0xE1 SHL DUP2 MSTORE PUSH1 0x4 ADD PUSH1 0x40 MLOAD DUP1 SWAP2 SUB SWAP1 REVERT JUMPDEST PUSH1 0x0 DUP3 PUSH1 0x1 PUSH1 0x1 PUSH1 0xA0 SHL SUB AND DUP3 PUSH1 0x40 MLOAD PUSH1 0x0 PUSH1 0x40 MLOAD DUP1 DUP4 SUB DUP2 DUP6 DUP8 GAS CALL SWAP3 POP POP POP RETURNDATASIZE DUP1 PUSH1 0x0 DUP2 EQ PUSH2 0x1648 JUMPI PUSH1 0x40 MLOAD SWAP2 POP PUSH1 0x1F NOT PUSH1 0x3F RETURNDATASIZE ADD AND DUP3 ADD PUSH1 0x40 MSTORE RETURNDATASIZE DUP3 MSTORE RETURNDATASIZE PUSH1 0x0 PUSH1 0x20 DUP5 ADD RETURNDATACOPY PUSH2 0x164D JUMP JUMPDEST PUSH1 0x60 SWAP2 POP JUMPDEST POP POP SWAP1 POP DUP1 PUSH2 0x166F JUMPI PUSH1 0x40 MLOAD PUSH4 0x12171D83 PUSH1 0xE3 SHL DUP2 MSTORE PUSH1 0x4 ADD PUSH1 0x40 MLOAD DUP1 SWAP2 SUB SWAP1 REVERT JUMPDEST POP PUSH2 0x13E8 PUSH1 0x1 DUP1 SSTORE JUMP JUMPDEST PUSH2 0x1681 PUSH2 0x17B2 JUMP JUMPDEST PUSH2 0x1689 PUSH2 0x1B54 JUMP JUMPDEST DUP1 PUSH2 0x16A7 JUMPI PUSH1 0x40 MLOAD PUSH4 0x666B0C5D PUSH1 0xE0 SHL DUP2 MSTORE PUSH1 0x4 ADD PUSH1 0x40 MLOAD DUP1 SWAP2 SUB SWAP1 REVERT JUMPDEST PUSH1 0x5 DUP2 SWAP1 SSTORE PUSH2 0x5E8 PUSH1 0x1 DUP1 SSTORE JUMP JUMPDEST PUSH2 0x16BD PUSH2 0x17B2 JUMP JUMPDEST PUSH2 0x10D SLOAD PUSH1 0x1 PUSH1 0x1 PUSH1 0xA0 SHL SUB AND CALLER EQ PUSH2 0x16E9 JUMPI PUSH1 0x40 MLOAD PUSH4 0x2D99BC83 PUSH1 0xE2 SHL DUP2 MSTORE PUSH1 0x4 ADD PUSH1 0x40 MLOAD DUP1 SWAP2 SUB SWAP1 REVERT JUMPDEST PUSH1 0x1 PUSH1 0x1 PUSH1 0xA0 SHL SUB DUP2 AND PUSH2 0x1710 JUMPI PUSH1 0x40 MLOAD PUSH4 0xE6C4247B PUSH1 0xE0 SHL DUP2 MSTORE PUSH1 0x4 ADD PUSH1 0x40 MLOAD DUP1 SWAP2 SUB SWAP1 REVERT JUMPDEST SELFBALANCE PUSH1 0x0 DUP2 SWAP1 SUB PUSH2 0x1733 JUMPI PUSH1 0x40 MLOAD PUSH4 0x65E52D51 PUSH1 0xE1 SHL DUP2 MSTORE PUSH1 0x4 ADD PUSH1 0x40 MLOAD DUP1 SWAP2 SUB SWAP1 REVERT JUMPDEST PUSH1 0x0 DUP3 PUSH1 0x1 PUSH1 0x1 PUSH1 0xA0 SHL SUB AND DUP3 PUSH1 0x40 MLOAD PUSH1 0x0 PUSH1 0x40 MLOAD DUP1 DUP4 SUB DUP2 DUP6 DUP8 GAS CALL SWAP3 POP POP POP RETURNDATASIZE DUP1 PUSH1 0x0 DUP2 EQ PUSH2 0x1780 JUMPI PUSH1 0x40 MLOAD SWAP2 POP PUSH1 0x1F NOT PUSH1 0x3F RETURNDATASIZE ADD AND DUP3 ADD PUSH1 0x40 MSTORE RETURNDATASIZE DUP3 MSTORE RETURNDATASIZE PUSH1 0x0 PUSH1 0x20 DUP5 ADD RETURNDATACOPY PUSH2 0x1785 JUMP JUMPDEST PUSH1 0x60 SWAP2 POP JUMPDEST POP POP SWAP1 POP DUP1 PUSH2 0x17A7 JUMPI PUSH1 0x40 MLOAD PUSH4 0x12171D83 PUSH1 0xE3 SHL DUP2 MSTORE PUSH1 0x4 ADD PUSH1 0x40 MLOAD DUP1 SWAP2 SUB SWAP1 REVERT JUMPDEST POP POP PUSH2 0x5E8 PUSH1 0x1 DUP1 SSTORE JUMP JUMPDEST PUSH1 0x2 PUSH1 0x1 SLOAD SUB PUSH2 0x1804 JUMPI PUSH1 0x40 MLOAD PUSH3 0x461BCD PUSH1 0xE5 SHL DUP2 MSTORE PUSH1 0x20 PUSH1 0x4 DUP3 ADD MSTORE PUSH1 0x1F PUSH1 0x24 DUP3 ADD MSTORE PUSH32 0x5265656E7472616E637947756172643A207265656E7472616E742063616C6C00 PUSH1 0x44 DUP3 ADD MSTORE PUSH1 0x64 ADD PUSH2 0x156D JUMP JUMPDEST PUSH1 0x2 PUSH1 0x1 SSTORE JUMP JUMPDEST PUSH2 0x1813 PUSH2 0x1E13 JUMP JUMPDEST PUSH1 0x0 JUMPDEST PUSH1 0x81 PUSH2 0xFFFF DUP3 AND LT ISZERO PUSH2 0x18CC JUMPI PUSH1 0x40 MLOAD PUSH4 0x69E38BC3 PUSH1 0xE0 SHL DUP2 MSTORE PUSH2 0xFFFF DUP3 AND PUSH1 0x4 DUP3 ADD MSTORE PUSH2 0x808 SWAP1 PUSH4 0x69E38BC3 SWAP1 PUSH1 0x24 ADD PUSH1 0x20 PUSH1 0x40 MLOAD DUP1 DUP4 SUB DUP2 DUP7 GAS STATICCALL SWAP3 POP POP POP DUP1 ISZERO PUSH2 0x1880 JUMPI POP PUSH1 0x40 DUP1 MLOAD PUSH1 0x1F RETURNDATASIZE SWAP1 DUP2 ADD PUSH1 0x1F NOT AND DUP3 ADD SWAP1 SWAP3 MSTORE PUSH2 0x187D SWAP2 DUP2 ADD SWAP1 PUSH2 0x2319 JUMP JUMPDEST PUSH1 0x1 JUMPDEST PUSH2 0x18A6 JUMPI PUSH1 0x0 DUP3 DUP3 PUSH2 0xFFFF AND PUSH1 0x81 DUP2 LT PUSH2 0x189C JUMPI PUSH2 0x189C PUSH2 0x2303 JUMP JUMPDEST PUSH1 0x20 MUL ADD MSTORE PUSH2 0x18C4 JUMP JUMPDEST DUP1 DUP4 DUP4 PUSH2 0xFFFF AND PUSH1 0x81 DUP2 LT PUSH2 0x18BD JUMPI PUSH2 0x18BD PUSH2 0x2303 JUMP JUMPDEST PUSH1 0x20 MUL ADD MSTORE POP JUMPDEST PUSH1 0x1 ADD PUSH2 0x1816 JUMP JUMPDEST POP SWAP1 JUMP JUMPDEST PUSH2 0x18D8 PUSH2 0x1E13 JUMP JUMPDEST PUSH1 0x0 JUMPDEST PUSH1 0x81 PUSH2 0xFFFF DUP3 AND LT ISZERO PUSH2 0x18CC JUMPI PUSH1 0x40 MLOAD PUSH4 0x2D9BFC71 PUSH1 0xE0 SHL DUP2 MSTORE PUSH2 0xFFFF DUP3 AND PUSH1 0x4 DUP3 ADD MSTORE PUSH2 0x808 SWAP1 PUSH4 0x2D9BFC71 SWAP1 PUSH1 0x24 ADD PUSH1 0x20 PUSH1 0x40 MLOAD DUP1 DUP4 SUB DUP2 DUP7 GAS STATICCALL SWAP3 POP POP POP DUP1 ISZERO PUSH2 0x1945 JUMPI POP PUSH1 0x40 DUP1 MLOAD PUSH1 0x1F RETURNDATASIZE SWAP1 DUP2 ADD PUSH1 0x1F NOT AND DUP3 ADD SWAP1 SWAP3 MSTORE PUSH2 0x1942 SWAP2 DUP2 ADD SWAP1 PUSH2 0x2369 JUMP JUMPDEST PUSH1 0x1 JUMPDEST PUSH2 0x197A JUMPI PUSH1 0x0 DUP3 DUP3 PUSH2 0xFFFF AND PUSH1 0x81 DUP2 LT PUSH2 0x1961 JUMPI PUSH2 0x1961 PUSH2 0x2303 JUMP JUMPDEST PUSH8 0xFFFFFFFFFFFFFFFF SWAP1 SWAP3 AND PUSH1 0x20 SWAP3 SWAP1 SWAP3 MUL ADD MSTORE PUSH2 0x19A7 JUMP JUMPDEST DUP1 DUP4 DUP4 PUSH2 0xFFFF AND PUSH1 0x81 DUP2 LT PUSH2 0x1991 JUMPI PUSH2 0x1991 PUSH2 0x2303 JUMP JUMPDEST PUSH8 0xFFFFFFFFFFFFFFFF SWAP1 SWAP3 AND PUSH1 0x20 SWAP3 SWAP1 SWAP3 MUL ADD MSTORE POP JUMPDEST PUSH1 0x1 ADD PUSH2 0x18DB JUMP JUMPDEST PUSH2 0x19B7 PUSH2 0x1E13 JUMP JUMPDEST PUSH1 0x1 JUMPDEST PUSH1 0x81 DUP2 LT ISZERO PUSH2 0x1A9F JUMPI PUSH1 0x6 DUP2 PUSH1 0x81 DUP2 LT PUSH2 0x19D6 JUMPI PUSH2 0x19D6 PUSH2 0x2303 JUMP JUMPDEST PUSH1 0x20 DUP2 DIV SWAP1 SWAP2 ADD SLOAD PUSH1 0xFF PUSH1 0x1F SWAP1 SWAP3 AND PUSH2 0x100 EXP SWAP1 DIV AND ISZERO PUSH2 0x1A7D JUMPI PUSH1 0x40 MLOAD PUSH4 0x71DACC7D PUSH1 0xE1 SHL DUP2 MSTORE PUSH1 0x4 DUP2 ADD DUP6 SWAP1 MSTORE PUSH1 0x24 DUP2 ADD DUP5 SWAP1 MSTORE PUSH1 0x44 DUP2 ADD DUP3 SWAP1 MSTORE PUSH2 0x805 SWAP1 PUSH4 0xE3B598FA SWAP1 PUSH1 0x64 ADD PUSH1 0x20 PUSH1 0x40 MLOAD DUP1 DUP4 SUB DUP2 DUP7 GAS STATICCALL ISZERO DUP1 ISZERO PUSH2 0x1A3D JUMPI RETURNDATASIZE PUSH1 0x0 DUP1 RETURNDATACOPY RETURNDATASIZE PUSH1 0x0 REVERT JUMPDEST POP POP POP POP PUSH1 0x40 MLOAD RETURNDATASIZE PUSH1 0x1F NOT PUSH1 0x1F DUP3 ADD AND DUP3 ADD DUP1 PUSH1 0x40 MSTORE POP DUP2 ADD SWAP1 PUSH2 0x1A61 SWAP2 SWAP1 PUSH2 0x2319 JUMP JUMPDEST DUP3 DUP3 PUSH1 0x81 DUP2 LT PUSH2 0x1A73 JUMPI PUSH2 0x1A73 PUSH2 0x2303 JUMP JUMPDEST PUSH1 0x20 MUL ADD MSTORE PUSH2 0x1A97 JUMP JUMPDEST PUSH1 0x0 DUP3 DUP3 PUSH1 0x81 DUP2 LT PUSH2 0x1A91 JUMPI PUSH2 0x1A91 PUSH2 0x2303 JUMP JUMPDEST PUSH1 0x20 MUL ADD MSTORE JUMPDEST PUSH1 0x1 ADD PUSH2 0x19BA JUMP JUMPDEST POP SWAP3 SWAP2 POP POP JUMP JUMPDEST PUSH1 0x4 SLOAD PUSH1 0x60 SWAP1 DUP1 PUSH8 0xFFFFFFFFFFFFFFFF DUP2 GT ISZERO PUSH2 0x1AC5 JUMPI PUSH2 0x1AC5 PUSH2 0x2353 JUMP JUMPDEST PUSH1 0x40 MLOAD SWAP1 DUP1 DUP3 MSTORE DUP1 PUSH1 0x20 MUL PUSH1 0x20 ADD DUP3 ADD PUSH1 0x40 MSTORE DUP1 ISZERO PUSH2 0x1AEE JUMPI DUP2 PUSH1 0x20 ADD PUSH1 0x20 DUP3 MUL DUP1 CALLDATASIZE DUP4 CALLDATACOPY ADD SWAP1 POP JUMPDEST POP SWAP2 POP PUSH1 0x0 JUMPDEST DUP2 DUP2 LT ISZERO PUSH2 0x1B4F JUMPI PUSH1 0x4 DUP2 DUP2 SLOAD DUP2 LT PUSH2 0x1B0F JUMPI PUSH2 0x1B0F PUSH2 0x2303 JUMP JUMPDEST PUSH1 0x0 SWAP2 DUP3 MSTORE PUSH1 0x20 SWAP1 SWAP2 KECCAK256 ADD SLOAD DUP4 MLOAD PUSH1 0x1 PUSH1 0x1 PUSH1 0xA0 SHL SUB SWAP1 SWAP2 AND BALANCE SWAP1 DUP5 SWAP1 DUP4 SWAP1 DUP2 LT PUSH2 0x1B3C JUMPI PUSH2 0x1B3C PUSH2 0x2303 JUMP JUMPDEST PUSH1 0x20 SWAP1 DUP2 MUL SWAP2 SWAP1 SWAP2 ADD ADD MSTORE PUSH1 0x1 ADD PUSH2 0x1AF4 JUMP JUMPDEST POP POP SWAP1 JUMP JUMPDEST PUSH1 0x0 SLOAD PUSH1 0x1 PUSH1 0x1 PUSH1 0xA0 SHL SUB AND CALLER EQ PUSH2 0x11BF JUMPI PUSH1 0x40 MLOAD PUSH3 0x461BCD PUSH1 0xE5 SHL DUP2 MSTORE PUSH1 0x20 PUSH1 0x4 DUP3 ADD DUP2 SWAP1 MSTORE PUSH1 0x24 DUP3 ADD MSTORE PUSH32 0x4F776E61626C653A2063616C6C6572206973206E6F7420746865206F776E6572 PUSH1 0x44 DUP3 ADD MSTORE PUSH1 0x64 ADD PUSH2 0x156D JUMP JUMPDEST PUSH1 0x81 DUP2 LT PUSH2 0x5E8 JUMPI PUSH1 0x40 MLOAD PUSH4 0x68A3A6C3 PUSH1 0xE1 SHL DUP2 MSTORE PUSH1 0x4 ADD PUSH1 0x40 MLOAD DUP1 SWAP2 SUB SWAP1 REVERT JUMPDEST PUSH1 0x0 DUP2 DUP4 LT PUSH2 0x1BDE JUMPI DUP2 PUSH2 0x1BE0 JUMP JUMPDEST DUP3 JUMPDEST SWAP1 POP JUMPDEST SWAP3 SWAP2 POP POP JUMP JUMPDEST PUSH1 0x0 PUSH2 0x1BE3 PUSH4 0x3B9ACA00 DUP4 PUSH2 0x239A JUMP JUMPDEST PUSH1 0x0 DUP1 DUP5 DUP2 JUMPDEST DUP2 DUP2 LT ISZERO PUSH2 0x1CC8 JUMPI PUSH1 0x0 PUSH2 0x805 PUSH4 0xE3B598FA DUP11 DUP11 DUP6 DUP2 DUP2 LT PUSH2 0x1C23 JUMPI PUSH2 0x1C23 PUSH2 0x2303 JUMP JUMPDEST SWAP1 POP PUSH1 0x20 MUL ADD CALLDATALOAD DUP10 DUP10 DUP7 DUP2 DUP2 LT PUSH2 0x1C3C JUMPI PUSH2 0x1C3C PUSH2 0x2303 JUMP JUMPDEST PUSH1 0x40 MLOAD PUSH1 0x1 PUSH1 0x1 PUSH1 0xE0 SHL SUB NOT PUSH1 0xE0 DUP8 SWAP1 SHL AND DUP2 MSTORE PUSH1 0x4 DUP2 ADD SWAP5 SWAP1 SWAP5 MSTORE PUSH1 0x20 MUL SWAP2 SWAP1 SWAP2 ADD CALLDATALOAD PUSH1 0x24 DUP4 ADD MSTORE POP PUSH1 0x44 DUP2 ADD DUP14 SWAP1 MSTORE PUSH1 0x64 ADD PUSH1 0x20 PUSH1 0x40 MLOAD DUP1 DUP4 SUB DUP2 DUP7 GAS STATICCALL ISZERO DUP1 ISZERO PUSH2 0x1C8D JUMPI RETURNDATASIZE PUSH1 0x0 DUP1 RETURNDATACOPY RETURNDATASIZE PUSH1 0x0 REVERT JUMPDEST POP POP POP POP PUSH1 0x40 MLOAD RETURNDATASIZE PUSH1 0x1F NOT PUSH1 0x1F DUP3 ADD AND DUP3 ADD DUP1 PUSH1 0x40 MSTORE POP DUP2 ADD SWAP1 PUSH2 0x1CB1 SWAP2 SWAP1 PUSH2 0x2319 JUMP JUMPDEST SWAP1 POP PUSH2 0x1CBD DUP2 DUP6 PUSH2 0x2332 JUMP JUMPDEST SWAP4 POP POP PUSH1 0x1 ADD PUSH2 0x1BFF JUMP JUMPDEST POP SWAP1 SWAP8 SWAP7 POP POP POP POP POP POP POP JUMP JUMPDEST PUSH1 0x0 DUP1 SLOAD PUSH1 0x1 PUSH1 0x1 PUSH1 0xA0 SHL SUB DUP4 DUP2 AND PUSH1 0x1 PUSH1 0x1 PUSH1 0xA0 SHL SUB NOT DUP4 AND DUP2 OR DUP5 SSTORE PUSH1 0x40 MLOAD SWAP2 SWAP1 SWAP3 AND SWAP3 DUP4 SWAP2 PUSH32 0x8BE0079C531659141344CD1FD0A4F28419497F9722A3DAAFE3B4186F6B6457E0 SWAP2 SWAP1 LOG3 POP POP JUMP JUMPDEST PUSH1 0x2 SLOAD PUSH1 0x0 SWAP1 DUP2 SWAP1 DUP2 JUMPDEST DUP2 DUP2 LT ISZERO PUSH2 0x1E0A JUMPI PUSH1 0x0 PUSH2 0x805 PUSH1 0x1 PUSH1 0x1 PUSH1 0xA0 SHL SUB AND PUSH4 0xE3B598FA PUSH1 0x2 DUP5 DUP2 SLOAD DUP2 LT PUSH2 0x1D5D JUMPI PUSH2 0x1D5D PUSH2 0x2303 JUMP JUMPDEST SWAP1 PUSH1 0x0 MSTORE PUSH1 0x20 PUSH1 0x0 KECCAK256 ADD SLOAD PUSH1 0x3 DUP6 DUP2 SLOAD DUP2 LT PUSH2 0x1D7B JUMPI PUSH2 0x1D7B PUSH2 0x2303 JUMP JUMPDEST PUSH1 0x0 SWAP2 DUP3 MSTORE PUSH1 0x20 SWAP1 SWAP2 KECCAK256 ADD SLOAD PUSH1 0x40 MLOAD PUSH1 0x1 PUSH1 0x1 PUSH1 0xE0 SHL SUB NOT PUSH1 0xE0 DUP6 SWAP1 SHL AND DUP2 MSTORE PUSH1 0x4 DUP2 ADD SWAP3 SWAP1 SWAP3 MSTORE PUSH1 0x24 DUP3 ADD MSTORE PUSH1 0x44 DUP2 ADD DUP10 SWAP1 MSTORE PUSH1 0x64 ADD PUSH1 0x20 PUSH1 0x40 MLOAD DUP1 DUP4 SUB DUP2 DUP7 GAS STATICCALL ISZERO DUP1 ISZERO PUSH2 0x1DCF JUMPI RETURNDATASIZE PUSH1 0x0 DUP1 RETURNDATACOPY RETURNDATASIZE PUSH1 0x0 REVERT JUMPDEST POP POP POP POP PUSH1 0x40 MLOAD RETURNDATASIZE PUSH1 0x1F NOT PUSH1 0x1F DUP3 ADD AND DUP3 ADD DUP1 PUSH1 0x40 MSTORE POP DUP2 ADD SWAP1 PUSH2 0x1DF3 SWAP2 SWAP1 PUSH2 0x2319 JUMP JUMPDEST SWAP1 POP PUSH2 0x1DFF DUP2 DUP6 PUSH2 0x2332 JUMP JUMPDEST SWAP4 POP POP PUSH1 0x1 ADD PUSH2 0x1D2F JUMP JUMPDEST POP SWAP1 SWAP4 SWAP3 POP POP POP JUMP JUMPDEST PUSH1 0x40 MLOAD DUP1 PUSH2 0x1020 ADD PUSH1 0x40 MSTORE DUP1 PUSH1 0x81 SWAP1 PUSH1 0x20 DUP3 MUL DUP1 CALLDATASIZE DUP4 CALLDATACOPY POP SWAP2 SWAP3 SWAP2 POP POP JUMP JUMPDEST DUP3 DUP1 SLOAD DUP3 DUP3 SSTORE SWAP1 PUSH1 0x0 MSTORE PUSH1 0x20 PUSH1 0x0 KECCAK256 SWAP1 DUP2 ADD SWAP3 DUP3 ISZERO PUSH2 0x1E85 JUMPI SWAP2 PUSH1 0x20 MUL DUP3 ADD JUMPDEST DUP3 DUP2 GT ISZERO PUSH2 0x1E85 JUMPI DUP2 SLOAD PUSH1 0x1 PUSH1 0x1 PUSH1 0xA0 SHL SUB NOT AND PUSH1 0x1 PUSH1 0x1 PUSH1 0xA0 SHL SUB DUP5 CALLDATALOAD AND OR DUP3 SSTORE PUSH1 0x20 SWAP1 SWAP3 ADD SWAP2 PUSH1 0x1 SWAP1 SWAP2 ADD SWAP1 PUSH2 0x1E52 JUMP JUMPDEST POP PUSH2 0x18CC SWAP3 SWAP2 POP PUSH2 0x1ECC JUMP JUMPDEST DUP3 DUP1 SLOAD DUP3 DUP3 SSTORE SWAP1 PUSH1 0x0 MSTORE PUSH1 0x20 PUSH1 0x0 KECCAK256 SWAP1 DUP2 ADD SWAP3 DUP3 ISZERO PUSH2 0x1E85 JUMPI SWAP2 PUSH1 0x20 MUL DUP3 ADD JUMPDEST DUP3 DUP2 GT ISZERO PUSH2 0x1E85 JUMPI DUP3 CALLDATALOAD DUP3 SSTORE SWAP2 PUSH1 0x20 ADD SWAP2 SWAP1 PUSH1 0x1 ADD SWAP1 PUSH2 0x1EB1 JUMP JUMPDEST JUMPDEST DUP1 DUP3 GT ISZERO PUSH2 0x18CC JUMPI PUSH1 0x0 DUP2 SSTORE PUSH1 0x1 ADD PUSH2 0x1ECD JUMP JUMPDEST DUP1 CALLDATALOAD PUSH1 0x1 PUSH1 0x1 PUSH1 0xA0 SHL SUB DUP2 AND DUP2 EQ PUSH2 0x1EF8 JUMPI PUSH1 0x0 DUP1 REVERT JUMPDEST SWAP2 SWAP1 POP JUMP JUMPDEST PUSH1 0x0 PUSH1 0x20 DUP3 DUP5 SUB SLT ISZERO PUSH2 0x1F0F JUMPI PUSH1 0x0 DUP1 REVERT JUMPDEST PUSH2 0x1BE0 DUP3 PUSH2 0x1EE1 JUMP JUMPDEST PUSH1 0x0 DUP1 DUP4 PUSH1 0x1F DUP5 ADD SLT PUSH2 0x1F2A JUMPI PUSH1 0x0 DUP1 REVERT JUMPDEST POP DUP2 CALLDATALOAD PUSH8 0xFFFFFFFFFFFFFFFF DUP2 GT ISZERO PUSH2 0x1F42 JUMPI PUSH1 0x0 DUP1 REVERT JUMPDEST PUSH1 0x20 DUP4 ADD SWAP2 POP DUP4 PUSH1 0x20 DUP3 PUSH1 0x5 SHL DUP6 ADD ADD GT ISZERO PUSH2 0x1F5D JUMPI PUSH1 0x0 DUP1 REVERT JUMPDEST SWAP3 POP SWAP3 SWAP1 POP JUMP JUMPDEST PUSH1 0x0 DUP1 PUSH1 0x0 DUP1 PUSH1 0x40 DUP6 DUP8 SUB SLT ISZERO PUSH2 0x1F7A JUMPI PUSH1 0x0 DUP1 REVERT JUMPDEST DUP5 CALLDATALOAD PUSH8 0xFFFFFFFFFFFFFFFF DUP1 DUP3 GT ISZERO PUSH2 0x1F92 JUMPI PUSH1 0x0 DUP1 REVERT JUMPDEST PUSH2 0x1F9E DUP9 DUP4 DUP10 ADD PUSH2 0x1F18 JUMP JUMPDEST SWAP1 SWAP7 POP SWAP5 POP PUSH1 0x20 DUP8 ADD CALLDATALOAD SWAP2 POP DUP1 DUP3 GT ISZERO PUSH2 0x1FB7 JUMPI PUSH1 0x0 DUP1 REVERT JUMPDEST POP PUSH2 0x1FC4 DUP8 DUP3 DUP9 ADD PUSH2 0x1F18 JUMP JUMPDEST SWAP6 SWAP9 SWAP5 SWAP8 POP SWAP6 POP POP POP POP JUMP JUMPDEST DUP1 PUSH1 0x0 JUMPDEST PUSH1 0x81 DUP2 LT ISZERO PUSH2 0xF5B JUMPI DUP2 MLOAD DUP5 MSTORE PUSH1 0x20 SWAP4 DUP5 ADD SWAP4 SWAP1 SWAP2 ADD SWAP1 PUSH1 0x1 ADD PUSH2 0x1FD4 JUMP JUMPDEST PUSH2 0x1020 DUP2 ADD PUSH2 0x1BE3 DUP3 DUP5 PUSH2 0x1FD0 JUMP JUMPDEST DUP1 PUSH1 0x0 JUMPDEST PUSH1 0x81 DUP2 LT ISZERO PUSH2 0xF5B JUMPI DUP2 MLOAD PUSH8 0xFFFFFFFFFFFFFFFF AND DUP5 MSTORE PUSH1 0x20 SWAP4 DUP5 ADD SWAP4 SWAP1 SWAP2 ADD SWAP1 PUSH1 0x1 ADD PUSH2 0x2006 JUMP JUMPDEST PUSH1 0x0 DUP2 MLOAD DUP1 DUP5 MSTORE PUSH1 0x20 DUP1 DUP6 ADD SWAP5 POP PUSH1 0x20 DUP5 ADD PUSH1 0x0 JUMPDEST DUP4 DUP2 LT ISZERO PUSH2 0x2060 JUMPI DUP2 MLOAD DUP8 MSTORE SWAP6 DUP3 ADD SWAP6 SWAP1 DUP3 ADD SWAP1 PUSH1 0x1 ADD PUSH2 0x2044 JUMP JUMPDEST POP SWAP5 SWAP6 SWAP5 POP POP POP POP POP JUMP JUMPDEST PUSH1 0x0 PUSH2 0x5100 PUSH2 0x207A DUP4 DUP13 PUSH2 0x1FD0 JUMP JUMPDEST PUSH2 0x2088 PUSH2 0x1020 DUP5 ADD DUP12 PUSH2 0x2002 JUMP JUMPDEST PUSH2 0x2040 DUP4 ADD DUP10 PUSH1 0x0 JUMPDEST PUSH1 0x81 DUP2 LT ISZERO PUSH2 0x20B2 JUMPI DUP2 MLOAD ISZERO ISZERO DUP4 MSTORE PUSH1 0x20 SWAP3 DUP4 ADD SWAP3 SWAP1 SWAP2 ADD SWAP1 PUSH1 0x1 ADD PUSH2 0x2091 JUMP JUMPDEST POP POP POP PUSH2 0x20C3 PUSH2 0x3060 DUP5 ADD DUP10 PUSH2 0x1FD0 JUMP JUMPDEST PUSH2 0x20D1 PUSH2 0x4080 DUP5 ADD DUP9 PUSH2 0x1FD0 JUMP JUMPDEST DUP1 PUSH2 0x50A0 DUP5 ADD MSTORE PUSH2 0x20E4 DUP2 DUP5 ADD DUP8 PUSH2 0x202F JUMP JUMPDEST PUSH2 0x50C0 DUP5 ADD SWAP6 SWAP1 SWAP6 MSTORE POP POP PUSH2 0x50E0 ADD MSTORE SWAP7 SWAP6 POP POP POP POP POP POP JUMP JUMPDEST PUSH1 0x0 DUP1 PUSH1 0x0 DUP1 PUSH1 0x0 DUP1 PUSH1 0x60 DUP8 DUP10 SUB SLT ISZERO PUSH2 0x2117 JUMPI PUSH1 0x0 DUP1 REVERT JUMPDEST DUP7 CALLDATALOAD PUSH8 0xFFFFFFFFFFFFFFFF DUP1 DUP3 GT ISZERO PUSH2 0x212F JUMPI PUSH1 0x0 DUP1 REVERT JUMPDEST PUSH2 0x213B DUP11 DUP4 DUP12 ADD PUSH2 0x1F18 JUMP JUMPDEST SWAP1 SWAP9 POP SWAP7 POP PUSH1 0x20 DUP10 ADD CALLDATALOAD SWAP2 POP DUP1 DUP3 GT ISZERO PUSH2 0x2154 JUMPI PUSH1 0x0 DUP1 REVERT JUMPDEST PUSH2 0x2160 DUP11 DUP4 DUP12 ADD PUSH2 0x1F18 JUMP JUMPDEST SWAP1 SWAP7 POP SWAP5 POP PUSH1 0x40 DUP10 ADD CALLDATALOAD SWAP2 POP DUP1 DUP3 GT ISZERO PUSH2 0x2179 JUMPI PUSH1 0x0 DUP1 REVERT JUMPDEST POP PUSH2 0x2186 DUP10 DUP3 DUP11 ADD PUSH2 0x1F18 JUMP JUMPDEST SWAP8 SWAP11 SWAP7 SWAP10 POP SWAP5 SWAP8 POP SWAP3 SWAP6 SWAP4 SWAP5 SWAP3 POP POP POP JUMP JUMPDEST PUSH1 0x0 PUSH1 0x20 DUP3 DUP5 SUB SLT ISZERO PUSH2 0x21AA JUMPI PUSH1 0x0 DUP1 REVERT JUMPDEST POP CALLDATALOAD SWAP2 SWAP1 POP JUMP JUMPDEST PUSH1 0x0 DUP1 PUSH1 0x0 DUP1 PUSH1 0x0 DUP1 PUSH1 0x0 DUP1 PUSH1 0x80 DUP10 DUP12 SUB SLT ISZERO PUSH2 0x21CD JUMPI PUSH1 0x0 DUP1 REVERT JUMPDEST DUP9 CALLDATALOAD PUSH8 0xFFFFFFFFFFFFFFFF DUP1 DUP3 GT ISZERO PUSH2 0x21E5 JUMPI PUSH1 0x0 DUP1 REVERT JUMPDEST PUSH2 0x21F1 DUP13 DUP4 DUP14 ADD PUSH2 0x1F18 JUMP JUMPDEST SWAP1 SWAP11 POP SWAP9 POP PUSH1 0x20 DUP12 ADD CALLDATALOAD SWAP2 POP DUP1 DUP3 GT ISZERO PUSH2 0x220A JUMPI PUSH1 0x0 DUP1 REVERT JUMPDEST PUSH2 0x2216 DUP13 DUP4 DUP14 ADD PUSH2 0x1F18 JUMP JUMPDEST SWAP1 SWAP9 POP SWAP7 POP PUSH1 0x40 DUP12 ADD CALLDATALOAD SWAP2 POP DUP1 DUP3 GT ISZERO PUSH2 0x222F JUMPI PUSH1 0x0 DUP1 REVERT JUMPDEST PUSH2 0x223B DUP13 DUP4 DUP14 ADD PUSH2 0x1F18 JUMP JUMPDEST SWAP1 SWAP7 POP SWAP5 POP PUSH1 0x60 DUP12 ADD CALLDATALOAD SWAP2 POP DUP1 DUP3 GT ISZERO PUSH2 0x2254 JUMPI PUSH1 0x0 DUP1 REVERT JUMPDEST POP PUSH2 0x2261 DUP12 DUP3 DUP13 ADD PUSH2 0x1F18 JUMP JUMPDEST SWAP10 SWAP13 SWAP9 SWAP12 POP SWAP7 SWAP10 POP SWAP5 SWAP8 SWAP4 SWAP7 SWAP3 SWAP6 SWAP5 POP POP POP JUMP JUMPDEST PUSH2 0x1020 DUP2 ADD PUSH2 0x1BE3 DUP3 DUP5 PUSH2 0x2002 JUMP JUMPDEST PUSH1 0x0 DUP1 PUSH1 0x20 DUP4 DUP6 SUB SLT ISZERO PUSH2 0x2297 JUMPI PUSH1 0x0 DUP1 REVERT JUMPDEST DUP3 CALLDATALOAD PUSH8 0xFFFFFFFFFFFFFFFF DUP2 GT ISZERO PUSH2 0x22AE JUMPI PUSH1 0x0 DUP1 REVERT JUMPDEST PUSH2 0x22BA DUP6 DUP3 DUP7 ADD PUSH2 0x1F18 JUMP JUMPDEST SWAP1 SWAP7 SWAP1 SWAP6 POP SWAP4 POP POP POP POP JUMP JUMPDEST PUSH1 0x20 DUP2 MSTORE PUSH1 0x0 PUSH2 0x1BE0 PUSH1 0x20 DUP4 ADD DUP5 PUSH2 0x202F JUMP JUMPDEST PUSH1 0x0 DUP1 PUSH1 0x40 DUP4 DUP6 SUB SLT ISZERO PUSH2 0x22EC JUMPI PUSH1 0x0 DUP1 REVERT JUMPDEST PUSH2 0x22F5 DUP4 PUSH2 0x1EE1 JUMP JUMPDEST SWAP5 PUSH1 0x20 SWAP4 SWAP1 SWAP4 ADD CALLDATALOAD SWAP4 POP POP POP JUMP JUMPDEST PUSH4 0x4E487B71 PUSH1 0xE0 SHL PUSH1 0x0 MSTORE PUSH1 0x32 PUSH1 0x4 MSTORE PUSH1 0x24 PUSH1 0x0 REVERT JUMPDEST PUSH1 0x0 PUSH1 0x20 DUP3 DUP5 SUB SLT ISZERO PUSH2 0x232B JUMPI PUSH1 0x0 DUP1 REVERT JUMPDEST POP MLOAD SWAP2 SWAP1 POP JUMP JUMPDEST DUP1 DUP3 ADD DUP1 DUP3 GT ISZERO PUSH2 0x1BE3 JUMPI PUSH4 0x4E487B71 PUSH1 0xE0 SHL PUSH1 0x0 MSTORE PUSH1 0x11 PUSH1 0x4 MSTORE PUSH1 0x24 PUSH1 0x0 REVERT JUMPDEST PUSH4 0x4E487B71 PUSH1 0xE0 SHL PUSH1 0x0 MSTORE PUSH1 0x41 PUSH1 0x4 MSTORE PUSH1 0x24 PUSH1 0x0 REVERT JUMPDEST PUSH1 0x0 PUSH1 0x20 DUP3 DUP5 SUB SLT ISZERO PUSH2 0x237B JUMPI PUSH1 0x0 DUP1 REVERT JUMPDEST DUP2 MLOAD PUSH8 0xFFFFFFFFFFFFFFFF DUP2 AND DUP2 EQ PUSH2 0x2393 JUMPI PUSH1 0x0 DUP1 REVERT JUMPDEST SWAP4 SWAP3 POP POP POP JUMP JUMPDEST PUSH1 0x0 DUP3 PUSH2 0x23B7 JUMPI PUSH4 0x4E487B71 PUSH1 0xE0 SHL PUSH1 0x0 MSTORE PUSH1 0x12 PUSH1 0x4 MSTORE PUSH1 0x24 PUSH1 0x0 REVERT JUMPDEST POP DIV SWAP1 JUMP INVALID 0xB4 0xC0 DUP8 GT SWAP1 SWAP8 0xFB 0xE3 SWAP9 MSTORE SWAP9 0xEE CREATE2 0x2F CALLDATALOAD 0xEF PUSH3 0x71C483 0x22 0xA8 0xC2 0xD4 ADDRESS SWAP1 0x2A SWAP13 0xC3 DUP14 SWAP5 PUSH20 0xA2646970667358221220ED5AEE09202A4D83D50C CALL 0xAD 0xCA GT 0xCF 0xAA DUP9 PUSH19 0xE87459236E81289804920BD8D06064736F6C63 NUMBER STOP ADDMOD AND STOP CALLER "},"methodIdentifiers":{"DELEGATOR_BYTES_KEY()":"fcd1a8d6","addStakeLimits(uint256[],uint256[],uint256[])":"3004c502","contractBytesKey()":"947d3c3f","emergencyWithdrawTao(address,uint256)":"f528c62e","getAlphaPrices()":"bc28d5d0","getMevStakedAmounts(uint256[])":"ae257e60","getStakedAmounts(bytes32[],bytes32[])":"26a224e0","getTaoInPools()":"a8c2bb0d","getTradingInfo()":"276ef789","isStaked(uint256)":"baa51f86","lastLimitPrices(uint256)":"e2edac25","lastStakeTimestamps(uint256)":"af31a15d","mevAddStakes(uint256[],uint256[],bytes32[],bytes32[])":"69686275","mevAddresses(uint256)":"a7678775","mevColdkeyBytesKeys(uint256)":"51b2e72d","mevHotkeyBytesKeys(uint256)":"b6b2a68d","mevRemoveStakes(uint256[],bytes32[],bytes32[])":"5c45f3ef","owner()":"8da5cb5b","removeDeregisteredStakes(uint256[])":"e4240e7f","removeStakeLimits(uint256[],uint256[])":"646e569b","renounceOwnership()":"715018a6","resetLimitPrices(uint256[])":"c6df7daf","setWithdrawer(address)":"0d174c24","transferOwnership(address)":"f2fde38b","updateContractBytesKey(bytes32)":"f9036f02","updateMevKeys(address[],bytes32[],bytes32[])":"3eb5152d","withdrawAll(address)":"fa09e630","withdrawer()":"cdc18424"}}}}}