{"contracts/Mev.sol":{"Mev":{"abi":[{"inputs":[],"stateMutability":"nonpayable","type":"constructor"},{"inputs":[],"name":"AmountZero","type":"error"},{"inputs":[],"name":"ArrayLengthMismatch","type":"error"},{"inputs":[],"name":"FunctionNotFound","type":"error"},{"inputs":[],"name":"InvalidAddress","type":"error"},{"inputs":[],"name":"InvalidLength","type":"error"},{"inputs":[],"name":"NotWithdrawer","type":"error"},{"inputs":[],"name":"TransferFailed","type":"error"},{"anonymous":false,"inputs":[{"indexed":true,"internalType":"address","name":"previousOwner","type":"address"},{"indexed":true,"internalType":"address","name":"newOwner","type":"address"}],"name":"OwnershipTransferred","type":"event"},{"stateMutability":"payable","type":"fallback"},{"inputs":[],"name":"NETUID_COUNT","outputs":[{"internalType":"uint256","name":"","type":"uint256"}],"stateMutability":"view","type":"function"},{"inputs":[{"internalType":"address","name":"to","type":"address"},{"internalType":"uint256","name":"amount","type":"uint256"}],"name":"emergencyWithdrawTao","outputs":[],"stateMutability":"nonpayable","type":"function"},{"inputs":[],"name":"getAlphaPrices","outputs":[{"internalType":"uint256[129]","name":"alphaPrices","type":"uint256[129]"}],"stateMutability":"view","type":"function"},{"inputs":[],"name":"getInfo","outputs":[{"internalType":"bool","name":"staked","type":"bool"},{"internalType":"uint256","name":"ownerBalance","type":"uint256"},{"internalType":"uint256","name":"contractBalance","type":"uint256"}],"stateMutability":"view","type":"function"},{"inputs":[{"internalType":"bytes32[]","name":"hotkeys","type":"bytes32[]"},{"internalType":"bytes32[]","name":"coldkeys","type":"bytes32[]"}],"name":"getStakedAmounts","outputs":[{"internalType":"uint256[129][]","name":"amounts","type":"uint256[129][]"}],"stateMutability":"view","type":"function"},{"inputs":[],"name":"getTaoInPools","outputs":[{"internalType":"uint64[129]","name":"taoInPools","type":"uint64[129]"}],"stateMutability":"view","type":"function"},{"inputs":[],"name":"lastStakeTimestamp","outputs":[{"internalType":"uint256","name":"","type":"uint256"}],"stateMutability":"view","type":"function"},{"inputs":[],"name":"owner","outputs":[{"internalType":"address","name":"","type":"address"}],"stateMutability":"view","type":"function"},{"inputs":[],"name":"removeStakeAlpha","outputs":[],"stateMutability":"nonpayable","type":"function"},{"inputs":[],"name":"renounceOwnership","outputs":[],"stateMutability":"nonpayable","type":"function"},{"inputs":[{"internalType":"address","name":"newWithdrawer","type":"address"}],"name":"setWithdrawer","outputs":[],"stateMutability":"nonpayable","type":"function"},{"inputs":[{"internalType":"uint256","name":"stakeAmount","type":"uint256"},{"internalType":"uint256","name":"alphaNetuid","type":"uint256"},{"internalType":"uint256","name":"alphaPrice","type":"uint256"},{"internalType":"bytes32","name":"_validatorHotkey","type":"bytes32"},{"internalType":"uint256","name":"stakedamount","type":"uint256"},{"internalType":"bytes32","name":"stakedhotkey","type":"bytes32"},{"internalType":"bytes32","name":"stakedcoldkey","type":"bytes32"},{"internalType":"bytes32[]","name":"mevHotkeyBytesKeys","type":"bytes32[]"},{"internalType":"bytes32[]","name":"mevColdkeyBytesKeys","type":"bytes32[]"}],"name":"stakeTaoForAlpha","outputs":[],"stateMutability":"payable","type":"function"},{"inputs":[{"internalType":"address","name":"newOwner","type":"address"}],"name":"transferOwnership","outputs":[],"stateMutability":"nonpayable","type":"function"},{"inputs":[{"internalType":"uint256[]","name":"newNetuids","type":"uint256[]"}],"name":"updateNetuids","outputs":[],"stateMutability":"nonpayable","type":"function"},{"inputs":[{"internalType":"address","name":"to","type":"address"}],"name":"withdrawAll","outputs":[],"stateMutability":"nonpayable","type":"function"},{"inputs":[],"name":"withdrawer","outputs":[{"internalType":"address","name":"","type":"address"}],"stateMutability":"view","type":"function"},{"stateMutability":"payable","type":"receive"}],"evm":{"bytecode":{"linkReferences":{},"object":"6110a0604090815260016080908152603760a052606e60c052604c60e05260516101005260076101205260706101405260136101605260006101805260126101a052602f6101c05260546101e05260716102005260246102205260336102405260626102605260316102805260756102a05260276102c052605a6102e052603c6103005260676103205261034091909152605f61036052607c61038052606c6103a05260186103c05260576103e052606161040052605361042052604361044052603b61046052602561048052601e6104a05260026104c05260056104e052600e61050052602661052052602c61054052607461056052601b61058052603f6105a05260106105c052607a6105e052605661060052606061062052607261064052605861066052601d6106805260116106a05260236106c05260636106e052600861070052605561072052604961074052601561076052602161078052602d6107a052600c6107c05260296107e052607961080052602261082052603661084052610860819052604b61088052600b6108a052600a6108c052602e6108e052606f61090052606d61092052602a61094052603961096052602b61098052604d6109a05260286109c05260686109e052603a610a0052605e610a2052607f610a40526073610a60526020610a8052607b610aa0526069610ac0526016610ae0526044610b00526017610b2052606a610b40526035610b6052601f610b80526014610ba0526065610bc0526034610be052606b610c00526042610c20526006610c40819052603d610c60526045610c80526064610ca0526059610cc0526009610ce0526038610d00526077610d2052604e610d40526019610d60526032610d8052603e610da0526003610dc0526048610de052604f610e0052601a610e20526076610e4052600d610e60526078610e8052600f610ea052605c610ec0526052610ee0526004610f00526030610f2052605d610f40526066610f6052601c610f80526041610fa0526046610fc052607d610fe052605061100052605b61102052604761104052607e61106052604a611080526200031b916081620003a6565b503480156200032957600080fd5b50620003353362000356565b600180556000600455600380546001600160a01b0319163317905562000405565b600080546001600160a01b038381166001600160a01b0319831681178455604051919092169283917f8be0079c531659141344cd1fd0a4f28419497f9722a3daafe3b4186f6b6457e09190a35050565b8260818101928215620003dc579160200282015b82811115620003dc578251829060ff16905591602001919060010190620003ba565b50620003ea929150620003ee565b5090565b5b80821115620003ea5760008155600101620003ef565b61124e80620004156000396000f3fe6080604052600436106100f75760003560e01c8063a504edf91161008a578063f0f9e97511610059578063f0f9e975146102b7578063f2fde38b146102cd578063f528c62e146102ed578063fa09e6301461030d576100fe565b8063a504edf914610240578063a8c2bb0d14610253578063bc28d5d014610275578063cdc1842414610297576100fe565b80635a9b0b89116100c65780635a9b0b89146101b2578063715018a6146101e45780638da5cb5b146101f95780639be3ac011461022b576100fe565b80630d174c241461011757806326a224e0146101395780633f3b78581461016f57806350bf86491461018f576100fe565b366100fe57005b60405163201f3fd360e11b815260040160405180910390fd5b34801561012357600080fd5b50610137610132366004610e8f565b61032d565b005b34801561014557600080fd5b50610159610154366004610efd565b6103a1565b6040516101669190610f69565b60405180910390f35b34801561017b57600080fd5b5061013761018a366004610fd4565b61052a565b34801561019b57600080fd5b506101a4608181565b604051908152602001610166565b3480156101be57600080fd5b506101c761059a565b604080519315158452602084019290925290820152606001610166565b3480156101f057600080fd5b506101376105db565b34801561020557600080fd5b506000546001600160a01b03165b6040516001600160a01b039091168152602001610166565b34801561023757600080fd5b506101376105ef565b61013761024e366004611016565b61067b565b34801561025f57600080fd5b506102686109bc565b60405161016691906110d1565b34801561028157600080fd5b5061028a6109d1565b604051610166919061110d565b3480156102a357600080fd5b50600354610213906001600160a01b031681565b3480156102c357600080fd5b506101a460025481565b3480156102d957600080fd5b506101376102e8366004610e8f565b6109e1565b3480156102f957600080fd5b50610137610308366004611136565b610a5f565b34801561031957600080fd5b50610137610328366004610e8f565b610b1f565b6003546001600160a01b0316331461035857604051632d99bc8360e21b815260040160405180910390fd5b6001600160a01b03811661037f5760405163e6c4247b60e01b815260040160405180910390fd5b600380546001600160a01b0319166001600160a01b0392909216919091179055565b6060838281146103c45760405163512509d360e11b815260040160405180910390fd5b8067ffffffffffffffff8111156103dd576103dd611160565b60405190808252806020026020018201604052801561041657816020015b610403610e54565b8152602001906001900390816103fb5790505b50915060005b8181101561052057600087878381811061043857610438611176565b905060200201359050600086868481811061045557610455611176565b90506020020135905060005b6081811015610512576040516371dacc7d60e11b81526004810184905260248101839052604481018290526108059063e3b598fa90606401602060405180830381865afa1580156104b6573d6000803e3d6000fd5b505050506040513d601f19601f820116820180604052508101906104da919061118c565b8685815181106104ec576104ec611176565b6020026020010151826081811061050557610505611176565b6020020152600101610461565b50826001019250505061041c565b5050949350505050565b610532610b6d565b608181146105535760405163251f56a160e21b815260040160405180910390fd5b60005b60818110156105955782828281811061057157610571611176565b905060200201356006826081811061058b5761058b611176565b0155600101610556565b505050565b60008060006004546000036105b05760006105b3565b60015b92506105c76000546001600160a01b031690565b6001600160a01b0316319150479050909192565b6105e3610b6d565b6105ed6000610bc7565b565b6105f7610b6d565b6004541580159061060a57506002544214155b156105ed576005546004805460405163d4626bb960e01b81526108059363d4626bb99361064293919201918252602082015260400190565b600060405180830381600087803b15801561065c57600080fd5b505af1158015610670573d6000803e3d6000fd5b505060006004555050565b610683610c17565b61068b610b6d565b6000600661069c60ff8b168d6111a5565b608181106106ac576106ac611176565b015490506004546000141580156106c557506002544214155b15610735576005546004805460405163d4626bb960e01b81526108059363d4626bb9936106fd93919201918252602082015260400190565b600060405180830381600087803b15801561071757600080fd5b505af115801561072b573d6000803e3d6000fd5b5050600060045550505b8b156109a457838815610855576040516371dacc7d60e11b81526004810189905260248101889052604481018390526000906108059063e3b598fa90606401602060405180830381865afa158015610791573d6000803e3d6000fd5b505050506040513d601f19601f820116820180604052508101906107b5919061118c565b6107bf908b6111a5565b60405163c2ba9e8760e01b815261ffff851660048201529091506000906108089063c2ba9e8790602401602060405180830381865afa158015610806573d6000803e3d6000fd5b505050506040513d601f19601f8201168201806040525081019061082a91906111cc565b67ffffffffffffffff1690506108426107d0826111f6565b82101561085257505050506109a6565b50505b60005b8181101561092a57600061080563e3b598fa89898581811061087c5761087c611176565b9050602002013588888681811061089557610895611176565b6040516001600160e01b031960e087901b1681526004810194909452602002919091013560248301525060448101879052606401602060405180830381865afa1580156108e6573d6000803e3d6000fd5b505050506040513d601f19601f8201168201806040525081019061090a919061118c565b9050633b9aca0081111561092157505050506109a6565b50600101610858565b506040516369e38bc360e01b815261ffff831660048201528b90610808906369e38bc390602401602060405180830381865afa15801561096e573d6000803e3d6000fd5b505050506040513d601f19601f82011682018060405250810190610992919061118c565b116109a2576109a28a8e84610c70565b505b505b6109af60018055565b5050505050505050505050565b6109c4610e54565b6109cc610d01565b905090565b6109d9610e54565b6109cc610db4565b6109e9610b6d565b6001600160a01b038116610a535760405162461bcd60e51b815260206004820152602660248201527f4f776e61626c653a206e6577206f776e657220697320746865207a65726f206160448201526564647265737360d01b60648201526084015b60405180910390fd5b610a5c81610bc7565b50565b6003546001600160a01b03163314610a8a57604051632d99bc8360e21b815260040160405180910390fd5b80600003610aab576040516365e52d5160e11b815260040160405180910390fd5b6000826001600160a01b03168260405160006040518083038185875af1925050503d8060008114610af8576040519150601f19603f3d011682016040523d82523d6000602084013e610afd565b606091505b5050905080610595576040516312171d8360e31b815260040160405180910390fd5b6003546001600160a01b03163314610b4a57604051632d99bc8360e21b815260040160405180910390fd5b476000819003610aab576040516365e52d5160e11b815260040160405180910390fd5b6000546001600160a01b031633146105ed5760405162461bcd60e51b815260206004820181905260248201527f4f776e61626c653a2063616c6c6572206973206e6f7420746865206f776e65726044820152606401610a4a565b600080546001600160a01b038381166001600160a01b0319831681178455604051919092169283917f8be0079c531659141344cd1fd0a4f28419497f9722a3daafe3b4186f6b6457e09190a35050565b600260015403610c695760405162461bcd60e51b815260206004820152601f60248201527f5265656e7472616e637947756172643a207265656e7472616e742063616c6c006044820152606401610a4a565b6002600155565b4782811115610c7c5750815b610805631fc9b14185610c93633b9aca00856111f6565b6040516001600160e01b031960e085901b1681526004810192909252602482015260448101859052606401600060405180830381600087803b158015610cd857600080fd5b505af1158015610cec573d6000803e3d6000fd5b50505060059490945550600455505042600255565b610d09610e54565b60005b608161ffff82161015610db057604051632d9bfc7160e01b815261ffff8216600482015261080890632d9bfc7190602401602060405180830381865afa925050508015610d76575060408051601f3d908101601f19168201909252610d73918101906111cc565b60015b15610da85780838361ffff1660818110610d9257610d92611176565b67ffffffffffffffff9092166020929092020152505b600101610d0c565b5090565b610dbc610e54565b60005b608161ffff82161015610db0576040516369e38bc360e01b815261ffff82166004820152610808906369e38bc390602401602060405180830381865afa925050508015610e29575060408051601f3d908101601f19168201909252610e269181019061118c565b60015b15610e4c5780838361ffff1660818110610e4557610e45611176565b6020020152505b600101610dbf565b6040518061102001604052806081906020820280368337509192915050565b80356001600160a01b0381168114610e8a57600080fd5b919050565b600060208284031215610ea157600080fd5b610eaa82610e73565b9392505050565b60008083601f840112610ec357600080fd5b50813567ffffffffffffffff811115610edb57600080fd5b6020830191508360208260051b8501011115610ef657600080fd5b9250929050565b60008060008060408587031215610f1357600080fd5b843567ffffffffffffffff80821115610f2b57600080fd5b610f3788838901610eb1565b90965094506020870135915080821115610f5057600080fd5b50610f5d87828801610eb1565b95989497509550505050565b602080825282518282018190526000919084820190604085019084805b82811015610fc757845184835b6081811015610fb057825182529188019190880190600101610f93565b505050938501936110209390930192600101610f86565b5091979650505050505050565b60008060208385031215610fe757600080fd5b823567ffffffffffffffff811115610ffe57600080fd5b61100a85828601610eb1565b90969095509350505050565b60008060008060008060008060008060006101208c8e03121561103857600080fd5b8b359a5060208c0135995060408c0135985060608c0135975060808c0135965060a08c0135955060c08c0135945067ffffffffffffffff8060e08e0135111561108057600080fd5b6110908e60e08f01358f01610eb1565b90955093506101008d01358110156110a757600080fd5b506110b98d6101008e01358e01610eb1565b81935080925050509295989b509295989b9093969950565b6110208101818360005b608181101561110457815167ffffffffffffffff168352602092830192909101906001016110db565b50505092915050565b6110208101818360005b6081811015611104578151835260209283019290910190600101611117565b6000806040838503121561114957600080fd5b61115283610e73565b946020939093013593505050565b634e487b7160e01b600052604160045260246000fd5b634e487b7160e01b600052603260045260246000fd5b60006020828403121561119e57600080fd5b5051919050565b818103818111156111c657634e487b7160e01b600052601160045260246000fd5b92915050565b6000602082840312156111de57600080fd5b815167ffffffffffffffff81168114610eaa57600080fd5b60008261121357634e487b7160e01b600052601260045260246000fd5b50049056fea2646970667358221220d296cb4ca837263094329c09a736b4b10281cc663565a80760c73400ed90b48364736f6c63430008160033","opcodes":"PUSH2 0x10A0 PUSH1 0x40 SWAP1 DUP2 MSTORE PUSH1 0x1 PUSH1 0x80 SWAP1 DUP2 MSTORE PUSH1 0x37 PUSH1 0xA0 MSTORE PUSH1 0x6E PUSH1 0xC0 MSTORE PUSH1 0x4C PUSH1 0xE0 MSTORE PUSH1 0x51 PUSH2 0x100 MSTORE PUSH1 0x7 PUSH2 0x120 MSTORE PUSH1 0x70 PUSH2 0x140 MSTORE PUSH1 0x13 PUSH2 0x160 MSTORE PUSH1 0x0 PUSH2 0x180 MSTORE PUSH1 0x12 PUSH2 0x1A0 MSTORE PUSH1 0x2F PUSH2 0x1C0 MSTORE PUSH1 0x54 PUSH2 0x1E0 MSTORE PUSH1 0x71 PUSH2 0x200 MSTORE PUSH1 0x24 PUSH2 0x220 MSTORE PUSH1 0x33 PUSH2 0x240 MSTORE PUSH1 0x62 PUSH2 0x260 MSTORE PUSH1 0x31 PUSH2 0x280 MSTORE PUSH1 0x75 PUSH2 0x2A0 MSTORE PUSH1 0x27 PUSH2 0x2C0 MSTORE PUSH1 0x5A PUSH2 0x2E0 MSTORE PUSH1 0x3C PUSH2 0x300 MSTORE PUSH1 0x67 PUSH2 0x320 MSTORE PUSH2 0x340 SWAP2 SWAP1 SWAP2 MSTORE PUSH1 0x5F PUSH2 0x360 MSTORE PUSH1 0x7C PUSH2 0x380 MSTORE PUSH1 0x6C PUSH2 0x3A0 MSTORE PUSH1 0x18 PUSH2 0x3C0 MSTORE PUSH1 0x57 PUSH2 0x3E0 MSTORE PUSH1 0x61 PUSH2 0x400 MSTORE PUSH1 0x53 PUSH2 0x420 MSTORE PUSH1 0x43 PUSH2 0x440 MSTORE PUSH1 0x3B PUSH2 0x460 MSTORE PUSH1 0x25 PUSH2 0x480 MSTORE PUSH1 0x1E PUSH2 0x4A0 MSTORE PUSH1 0x2 PUSH2 0x4C0 MSTORE PUSH1 0x5 PUSH2 0x4E0 MSTORE PUSH1 0xE PUSH2 0x500 MSTORE PUSH1 0x26 PUSH2 0x520 MSTORE PUSH1 0x2C PUSH2 0x540 MSTORE PUSH1 0x74 PUSH2 0x560 MSTORE PUSH1 0x1B PUSH2 0x580 MSTORE PUSH1 0x3F PUSH2 0x5A0 MSTORE PUSH1 0x10 PUSH2 0x5C0 MSTORE PUSH1 0x7A PUSH2 0x5E0 MSTORE PUSH1 0x56 PUSH2 0x600 MSTORE PUSH1 0x60 PUSH2 0x620 MSTORE PUSH1 0x72 PUSH2 0x640 MSTORE PUSH1 0x58 PUSH2 0x660 MSTORE PUSH1 0x1D PUSH2 0x680 MSTORE PUSH1 0x11 PUSH2 0x6A0 MSTORE PUSH1 0x23 PUSH2 0x6C0 MSTORE PUSH1 0x63 PUSH2 0x6E0 MSTORE PUSH1 0x8 PUSH2 0x700 MSTORE PUSH1 0x55 PUSH2 0x720 MSTORE PUSH1 0x49 PUSH2 0x740 MSTORE PUSH1 0x15 PUSH2 0x760 MSTORE PUSH1 0x21 PUSH2 0x780 MSTORE PUSH1 0x2D PUSH2 0x7A0 MSTORE PUSH1 0xC PUSH2 0x7C0 MSTORE PUSH1 0x29 PUSH2 0x7E0 MSTORE PUSH1 0x79 PUSH2 0x800 MSTORE PUSH1 0x22 PUSH2 0x820 MSTORE PUSH1 0x36 PUSH2 0x840 MSTORE PUSH2 0x860 DUP2 SWAP1 MSTORE PUSH1 0x4B PUSH2 0x880 MSTORE PUSH1 0xB PUSH2 0x8A0 MSTORE PUSH1 0xA PUSH2 0x8C0 MSTORE PUSH1 0x2E PUSH2 0x8E0 MSTORE PUSH1 0x6F PUSH2 0x900 MSTORE PUSH1 0x6D PUSH2 0x920 MSTORE PUSH1 0x2A PUSH2 0x940 MSTORE PUSH1 0x39 PUSH2 0x960 MSTORE PUSH1 0x2B PUSH2 0x980 MSTORE PUSH1 0x4D PUSH2 0x9A0 MSTORE PUSH1 0x28 PUSH2 0x9C0 MSTORE PUSH1 0x68 PUSH2 0x9E0 MSTORE PUSH1 0x3A PUSH2 0xA00 MSTORE PUSH1 0x5E PUSH2 0xA20 MSTORE PUSH1 0x7F PUSH2 0xA40 MSTORE PUSH1 0x73 PUSH2 0xA60 MSTORE PUSH1 0x20 PUSH2 0xA80 MSTORE PUSH1 0x7B PUSH2 0xAA0 MSTORE PUSH1 0x69 PUSH2 0xAC0 MSTORE PUSH1 0x16 PUSH2 0xAE0 MSTORE PUSH1 0x44 PUSH2 0xB00 MSTORE PUSH1 0x17 PUSH2 0xB20 MSTORE PUSH1 0x6A PUSH2 0xB40 MSTORE PUSH1 0x35 PUSH2 0xB60 MSTORE PUSH1 0x1F PUSH2 0xB80 MSTORE PUSH1 0x14 PUSH2 0xBA0 MSTORE PUSH1 0x65 PUSH2 0xBC0 MSTORE PUSH1 0x34 PUSH2 0xBE0 MSTORE PUSH1 0x6B PUSH2 0xC00 MSTORE PUSH1 0x42 PUSH2 0xC20 MSTORE PUSH1 0x6 PUSH2 0xC40 DUP2 SWAP1 MSTORE PUSH1 0x3D PUSH2 0xC60 MSTORE PUSH1 0x45 PUSH2 0xC80 MSTORE PUSH1 0x64 PUSH2 0xCA0 MSTORE PUSH1 0x59 PUSH2 0xCC0 MSTORE PUSH1 0x9 PUSH2 0xCE0 MSTORE PUSH1 0x38 PUSH2 0xD00 MSTORE PUSH1 0x77 PUSH2 0xD20 MSTORE PUSH1 0x4E PUSH2 0xD40 MSTORE PUSH1 0x19 PUSH2 0xD60 MSTORE PUSH1 0x32 PUSH2 0xD80 MSTORE PUSH1 0x3E PUSH2 0xDA0 MSTORE PUSH1 0x3 PUSH2 0xDC0 MSTORE PUSH1 0x48 PUSH2 0xDE0 MSTORE PUSH1 0x4F PUSH2 0xE00 MSTORE PUSH1 0x1A PUSH2 0xE20 MSTORE PUSH1 0x76 PUSH2 0xE40 MSTORE PUSH1 0xD PUSH2 0xE60 MSTORE PUSH1 0x78 PUSH2 0xE80 MSTORE PUSH1 0xF PUSH2 0xEA0 MSTORE PUSH1 0x5C PUSH2 0xEC0 MSTORE PUSH1 0x52 PUSH2 0xEE0 MSTORE PUSH1 0x4 PUSH2 0xF00 MSTORE PUSH1 0x30 PUSH2 0xF20 MSTORE PUSH1 0x5D PUSH2 0xF40 MSTORE PUSH1 0x66 PUSH2 0xF60 MSTORE PUSH1 0x1C PUSH2 0xF80 MSTORE PUSH1 0x41 PUSH2 0xFA0 MSTORE PUSH1 0x46 PUSH2 0xFC0 MSTORE PUSH1 0x7D PUSH2 0xFE0 MSTORE PUSH1 0x50 PUSH2 0x1000 MSTORE PUSH1 0x5B PUSH2 0x1020 MSTORE PUSH1 0x47 PUSH2 0x1040 MSTORE PUSH1 0x7E PUSH2 0x1060 MSTORE PUSH1 0x4A PUSH2 0x1080 MSTORE PUSH3 0x31B SWAP2 PUSH1 0x81 PUSH3 0x3A6 JUMP JUMPDEST POP CALLVALUE DUP1 ISZERO PUSH3 0x329 JUMPI PUSH1 0x0 DUP1 REVERT JUMPDEST POP PUSH3 0x335 CALLER PUSH3 0x356 JUMP JUMPDEST PUSH1 0x1 DUP1 SSTORE PUSH1 0x0 PUSH1 0x4 SSTORE PUSH1 0x3 DUP1 SLOAD PUSH1 0x1 PUSH1 0x1 PUSH1 0xA0 SHL SUB NOT AND CALLER OR SWAP1 SSTORE PUSH3 0x405 JUMP JUMPDEST PUSH1 0x0 DUP1 SLOAD PUSH1 0x1 PUSH1 0x1 PUSH1 0xA0 SHL SUB DUP4 DUP2 AND PUSH1 0x1 PUSH1 0x1 PUSH1 0xA0 SHL SUB NOT DUP4 AND DUP2 OR DUP5 SSTORE PUSH1 0x40 MLOAD SWAP2 SWAP1 SWAP3 AND SWAP3 DUP4 SWAP2 PUSH32 0x8BE0079C531659141344CD1FD0A4F28419497F9722A3DAAFE3B4186F6B6457E0 SWAP2 SWAP1 LOG3 POP POP JUMP JUMPDEST DUP3 PUSH1 0x81 DUP2 ADD SWAP3 DUP3 ISZERO PUSH3 0x3DC JUMPI SWAP2 PUSH1 0x20 MUL DUP3 ADD JUMPDEST DUP3 DUP2 GT ISZERO PUSH3 0x3DC JUMPI DUP3 MLOAD DUP3 SWAP1 PUSH1 0xFF AND SWAP1 SSTORE SWAP2 PUSH1 0x20 ADD SWAP2 SWAP1 PUSH1 0x1 ADD SWAP1 PUSH3 0x3BA JUMP JUMPDEST POP PUSH3 0x3EA SWAP3 SWAP2 POP PUSH3 0x3EE JUMP JUMPDEST POP SWAP1 JUMP JUMPDEST JUMPDEST DUP1 DUP3 GT ISZERO PUSH3 0x3EA JUMPI PUSH1 0x0 DUP2 SSTORE PUSH1 0x1 ADD PUSH3 0x3EF JUMP JUMPDEST PUSH2 0x124E DUP1 PUSH3 0x415 PUSH1 0x0 CODECOPY PUSH1 0x0 RETURN INVALID PUSH1 0x80 PUSH1 0x40 MSTORE PUSH1 0x4 CALLDATASIZE LT PUSH2 0xF7 JUMPI PUSH1 0x0 CALLDATALOAD PUSH1 0xE0 SHR DUP1 PUSH4 0xA504EDF9 GT PUSH2 0x8A JUMPI DUP1 PUSH4 0xF0F9E975 GT PUSH2 0x59 JUMPI DUP1 PUSH4 0xF0F9E975 EQ PUSH2 0x2B7 JUMPI DUP1 PUSH4 0xF2FDE38B EQ PUSH2 0x2CD JUMPI DUP1 PUSH4 0xF528C62E EQ PUSH2 0x2ED JUMPI DUP1 PUSH4 0xFA09E630 EQ PUSH2 0x30D JUMPI PUSH2 0xFE JUMP JUMPDEST DUP1 PUSH4 0xA504EDF9 EQ PUSH2 0x240 JUMPI DUP1 PUSH4 0xA8C2BB0D EQ PUSH2 0x253 JUMPI DUP1 PUSH4 0xBC28D5D0 EQ PUSH2 0x275 JUMPI DUP1 PUSH4 0xCDC18424 EQ PUSH2 0x297 JUMPI PUSH2 0xFE JUMP JUMPDEST DUP1 PUSH4 0x5A9B0B89 GT PUSH2 0xC6 JUMPI DUP1 PUSH4 0x5A9B0B89 EQ PUSH2 0x1B2 JUMPI DUP1 PUSH4 0x715018A6 EQ PUSH2 0x1E4 JUMPI DUP1 PUSH4 0x8DA5CB5B EQ PUSH2 0x1F9 JUMPI DUP1 PUSH4 0x9BE3AC01 EQ PUSH2 0x22B JUMPI PUSH2 0xFE JUMP JUMPDEST DUP1 PUSH4 0xD174C24 EQ PUSH2 0x117 JUMPI DUP1 PUSH4 0x26A224E0 EQ PUSH2 0x139 JUMPI DUP1 PUSH4 0x3F3B7858 EQ PUSH2 0x16F JUMPI DUP1 PUSH4 0x50BF8649 EQ PUSH2 0x18F JUMPI PUSH2 0xFE JUMP JUMPDEST CALLDATASIZE PUSH2 0xFE JUMPI STOP JUMPDEST PUSH1 0x40 MLOAD PUSH4 0x201F3FD3 PUSH1 0xE1 SHL DUP2 MSTORE PUSH1 0x4 ADD PUSH1 0x40 MLOAD DUP1 SWAP2 SUB SWAP1 REVERT JUMPDEST CALLVALUE DUP1 ISZERO PUSH2 0x123 JUMPI PUSH1 0x0 DUP1 REVERT JUMPDEST POP PUSH2 0x137 PUSH2 0x132 CALLDATASIZE PUSH1 0x4 PUSH2 0xE8F JUMP JUMPDEST PUSH2 0x32D JUMP JUMPDEST STOP JUMPDEST CALLVALUE DUP1 ISZERO PUSH2 0x145 JUMPI PUSH1 0x0 DUP1 REVERT JUMPDEST POP PUSH2 0x159 PUSH2 0x154 CALLDATASIZE PUSH1 0x4 PUSH2 0xEFD JUMP JUMPDEST PUSH2 0x3A1 JUMP JUMPDEST PUSH1 0x40 MLOAD PUSH2 0x166 SWAP2 SWAP1 PUSH2 0xF69 JUMP JUMPDEST PUSH1 0x40 MLOAD DUP1 SWAP2 SUB SWAP1 RETURN JUMPDEST CALLVALUE DUP1 ISZERO PUSH2 0x17B JUMPI PUSH1 0x0 DUP1 REVERT JUMPDEST POP PUSH2 0x137 PUSH2 0x18A CALLDATASIZE PUSH1 0x4 PUSH2 0xFD4 JUMP JUMPDEST PUSH2 0x52A JUMP JUMPDEST CALLVALUE DUP1 ISZERO PUSH2 0x19B JUMPI PUSH1 0x0 DUP1 REVERT JUMPDEST POP PUSH2 0x1A4 PUSH1 0x81 DUP2 JUMP JUMPDEST PUSH1 0x40 MLOAD SWAP1 DUP2 MSTORE PUSH1 0x20 ADD PUSH2 0x166 JUMP JUMPDEST CALLVALUE DUP1 ISZERO PUSH2 0x1BE JUMPI PUSH1 0x0 DUP1 REVERT JUMPDEST POP PUSH2 0x1C7 PUSH2 0x59A JUMP JUMPDEST PUSH1 0x40 DUP1 MLOAD SWAP4 ISZERO ISZERO DUP5 MSTORE PUSH1 0x20 DUP5 ADD SWAP3 SWAP1 SWAP3 MSTORE SWAP1 DUP3 ADD MSTORE PUSH1 0x60 ADD PUSH2 0x166 JUMP JUMPDEST CALLVALUE DUP1 ISZERO PUSH2 0x1F0 JUMPI PUSH1 0x0 DUP1 REVERT JUMPDEST POP PUSH2 0x137 PUSH2 0x5DB JUMP JUMPDEST CALLVALUE DUP1 ISZERO PUSH2 0x205 JUMPI PUSH1 0x0 DUP1 REVERT JUMPDEST POP PUSH1 0x0 SLOAD PUSH1 0x1 PUSH1 0x1 PUSH1 0xA0 SHL SUB AND JUMPDEST PUSH1 0x40 MLOAD PUSH1 0x1 PUSH1 0x1 PUSH1 0xA0 SHL SUB SWAP1 SWAP2 AND DUP2 MSTORE PUSH1 0x20 ADD PUSH2 0x166 JUMP JUMPDEST CALLVALUE DUP1 ISZERO PUSH2 0x237 JUMPI PUSH1 0x0 DUP1 REVERT JUMPDEST POP PUSH2 0x137 PUSH2 0x5EF JUMP JUMPDEST PUSH2 0x137 PUSH2 0x24E CALLDATASIZE PUSH1 0x4 PUSH2 0x1016 JUMP JUMPDEST PUSH2 0x67B JUMP JUMPDEST CALLVALUE DUP1 ISZERO PUSH2 0x25F JUMPI PUSH1 0x0 DUP1 REVERT JUMPDEST POP PUSH2 0x268 PUSH2 0x9BC JUMP JUMPDEST PUSH1 0x40 MLOAD PUSH2 0x166 SWAP2 SWAP1 PUSH2 0x10D1 JUMP JUMPDEST CALLVALUE DUP1 ISZERO PUSH2 0x281 JUMPI PUSH1 0x0 DUP1 REVERT JUMPDEST POP PUSH2 0x28A PUSH2 0x9D1 JUMP JUMPDEST PUSH1 0x40 MLOAD PUSH2 0x166 SWAP2 SWAP1 PUSH2 0x110D JUMP JUMPDEST CALLVALUE DUP1 ISZERO PUSH2 0x2A3 JUMPI PUSH1 0x0 DUP1 REVERT JUMPDEST POP PUSH1 0x3 SLOAD PUSH2 0x213 SWAP1 PUSH1 0x1 PUSH1 0x1 PUSH1 0xA0 SHL SUB AND DUP2 JUMP JUMPDEST CALLVALUE DUP1 ISZERO PUSH2 0x2C3 JUMPI PUSH1 0x0 DUP1 REVERT JUMPDEST POP PUSH2 0x1A4 PUSH1 0x2 SLOAD DUP2 JUMP JUMPDEST CALLVALUE DUP1 ISZERO PUSH2 0x2D9 JUMPI PUSH1 0x0 DUP1 REVERT JUMPDEST POP PUSH2 0x137 PUSH2 0x2E8 CALLDATASIZE PUSH1 0x4 PUSH2 0xE8F JUMP JUMPDEST PUSH2 0x9E1 JUMP JUMPDEST CALLVALUE DUP1 ISZERO PUSH2 0x2F9 JUMPI PUSH1 0x0 DUP1 REVERT JUMPDEST POP PUSH2 0x137 PUSH2 0x308 CALLDATASIZE PUSH1 0x4 PUSH2 0x1136 JUMP JUMPDEST PUSH2 0xA5F JUMP JUMPDEST CALLVALUE DUP1 ISZERO PUSH2 0x319 JUMPI PUSH1 0x0 DUP1 REVERT JUMPDEST POP PUSH2 0x137 PUSH2 0x328 CALLDATASIZE PUSH1 0x4 PUSH2 0xE8F JUMP JUMPDEST PUSH2 0xB1F JUMP JUMPDEST PUSH1 0x3 SLOAD PUSH1 0x1 PUSH1 0x1 PUSH1 0xA0 SHL SUB AND CALLER EQ PUSH2 0x358 JUMPI PUSH1 0x40 MLOAD PUSH4 0x2D99BC83 PUSH1 0xE2 SHL DUP2 MSTORE PUSH1 0x4 ADD PUSH1 0x40 MLOAD DUP1 SWAP2 SUB SWAP1 REVERT JUMPDEST PUSH1 0x1 PUSH1 0x1 PUSH1 0xA0 SHL SUB DUP2 AND PUSH2 0x37F JUMPI PUSH1 0x40 MLOAD PUSH4 0xE6C4247B PUSH1 0xE0 SHL DUP2 MSTORE PUSH1 0x4 ADD PUSH1 0x40 MLOAD DUP1 SWAP2 SUB SWAP1 REVERT JUMPDEST PUSH1 0x3 DUP1 SLOAD PUSH1 0x1 PUSH1 0x1 PUSH1 0xA0 SHL SUB NOT AND PUSH1 0x1 PUSH1 0x1 PUSH1 0xA0 SHL SUB SWAP3 SWAP1 SWAP3 AND SWAP2 SWAP1 SWAP2 OR SWAP1 SSTORE JUMP JUMPDEST PUSH1 0x60 DUP4 DUP3 DUP2 EQ PUSH2 0x3C4 JUMPI PUSH1 0x40 MLOAD PUSH4 0x512509D3 PUSH1 0xE1 SHL DUP2 MSTORE PUSH1 0x4 ADD PUSH1 0x40 MLOAD DUP1 SWAP2 SUB SWAP1 REVERT JUMPDEST DUP1 PUSH8 0xFFFFFFFFFFFFFFFF DUP2 GT ISZERO PUSH2 0x3DD JUMPI PUSH2 0x3DD PUSH2 0x1160 JUMP JUMPDEST PUSH1 0x40 MLOAD SWAP1 DUP1 DUP3 MSTORE DUP1 PUSH1 0x20 MUL PUSH1 0x20 ADD DUP3 ADD PUSH1 0x40 MSTORE DUP1 ISZERO PUSH2 0x416 JUMPI DUP2 PUSH1 0x20 ADD JUMPDEST PUSH2 0x403 PUSH2 0xE54 JUMP JUMPDEST DUP2 MSTORE PUSH1 0x20 ADD SWAP1 PUSH1 0x1 SWAP1 SUB SWAP1 DUP2 PUSH2 0x3FB JUMPI SWAP1 POP JUMPDEST POP SWAP2 POP PUSH1 0x0 JUMPDEST DUP2 DUP2 LT ISZERO PUSH2 0x520 JUMPI PUSH1 0x0 DUP8 DUP8 DUP4 DUP2 DUP2 LT PUSH2 0x438 JUMPI PUSH2 0x438 PUSH2 0x1176 JUMP JUMPDEST SWAP1 POP PUSH1 0x20 MUL ADD CALLDATALOAD SWAP1 POP PUSH1 0x0 DUP7 DUP7 DUP5 DUP2 DUP2 LT PUSH2 0x455 JUMPI PUSH2 0x455 PUSH2 0x1176 JUMP JUMPDEST SWAP1 POP PUSH1 0x20 MUL ADD CALLDATALOAD SWAP1 POP PUSH1 0x0 JUMPDEST PUSH1 0x81 DUP2 LT ISZERO PUSH2 0x512 JUMPI PUSH1 0x40 MLOAD PUSH4 0x71DACC7D PUSH1 0xE1 SHL DUP2 MSTORE PUSH1 0x4 DUP2 ADD DUP5 SWAP1 MSTORE PUSH1 0x24 DUP2 ADD DUP4 SWAP1 MSTORE PUSH1 0x44 DUP2 ADD DUP3 SWAP1 MSTORE PUSH2 0x805 SWAP1 PUSH4 0xE3B598FA SWAP1 PUSH1 0x64 ADD PUSH1 0x20 PUSH1 0x40 MLOAD DUP1 DUP4 SUB DUP2 DUP7 GAS STATICCALL ISZERO DUP1 ISZERO PUSH2 0x4B6 JUMPI RETURNDATASIZE PUSH1 0x0 DUP1 RETURNDATACOPY RETURNDATASIZE PUSH1 0x0 REVERT JUMPDEST POP POP POP POP PUSH1 0x40 MLOAD RETURNDATASIZE PUSH1 0x1F NOT PUSH1 0x1F DUP3 ADD AND DUP3 ADD DUP1 PUSH1 0x40 MSTORE POP DUP2 ADD SWAP1 PUSH2 0x4DA SWAP2 SWAP1 PUSH2 0x118C JUMP JUMPDEST DUP7 DUP6 DUP2 MLOAD DUP2 LT PUSH2 0x4EC JUMPI PUSH2 0x4EC PUSH2 0x1176 JUMP JUMPDEST PUSH1 0x20 MUL PUSH1 0x20 ADD ADD MLOAD DUP3 PUSH1 0x81 DUP2 LT PUSH2 0x505 JUMPI PUSH2 0x505 PUSH2 0x1176 JUMP JUMPDEST PUSH1 0x20 MUL ADD MSTORE PUSH1 0x1 ADD PUSH2 0x461 JUMP JUMPDEST POP DUP3 PUSH1 0x1 ADD SWAP3 POP POP POP PUSH2 0x41C JUMP JUMPDEST POP POP SWAP5 SWAP4 POP POP POP POP JUMP JUMPDEST PUSH2 0x532 PUSH2 0xB6D JUMP JUMPDEST PUSH1 0x81 DUP2 EQ PUSH2 0x553 JUMPI PUSH1 0x40 MLOAD PUSH4 0x251F56A1 PUSH1 0xE2 SHL DUP2 MSTORE PUSH1 0x4 ADD PUSH1 0x40 MLOAD DUP1 SWAP2 SUB SWAP1 REVERT JUMPDEST PUSH1 0x0 JUMPDEST PUSH1 0x81 DUP2 LT ISZERO PUSH2 0x595 JUMPI DUP3 DUP3 DUP3 DUP2 DUP2 LT PUSH2 0x571 JUMPI PUSH2 0x571 PUSH2 0x1176 JUMP JUMPDEST SWAP1 POP PUSH1 0x20 MUL ADD CALLDATALOAD PUSH1 0x6 DUP3 PUSH1 0x81 DUP2 LT PUSH2 0x58B JUMPI PUSH2 0x58B PUSH2 0x1176 JUMP JUMPDEST ADD SSTORE PUSH1 0x1 ADD PUSH2 0x556 JUMP JUMPDEST POP POP POP JUMP JUMPDEST PUSH1 0x0 DUP1 PUSH1 0x0 PUSH1 0x4 SLOAD PUSH1 0x0 SUB PUSH2 0x5B0 JUMPI PUSH1 0x0 PUSH2 0x5B3 JUMP JUMPDEST PUSH1 0x1 JUMPDEST SWAP3 POP PUSH2 0x5C7 PUSH1 0x0 SLOAD PUSH1 0x1 PUSH1 0x1 PUSH1 0xA0 SHL SUB AND SWAP1 JUMP JUMPDEST PUSH1 0x1 PUSH1 0x1 PUSH1 0xA0 SHL SUB AND BALANCE SWAP2 POP SELFBALANCE SWAP1 POP SWAP1 SWAP2 SWAP3 JUMP JUMPDEST PUSH2 0x5E3 PUSH2 0xB6D JUMP JUMPDEST PUSH2 0x5ED PUSH1 0x0 PUSH2 0xBC7 JUMP JUMPDEST JUMP JUMPDEST PUSH2 0x5F7 PUSH2 0xB6D JUMP JUMPDEST PUSH1 0x4 SLOAD ISZERO DUP1 ISZERO SWAP1 PUSH2 0x60A JUMPI POP PUSH1 0x2 SLOAD TIMESTAMP EQ ISZERO JUMPDEST ISZERO PUSH2 0x5ED JUMPI PUSH1 0x5 SLOAD PUSH1 0x4 DUP1 SLOAD PUSH1 0x40 MLOAD PUSH4 0xD4626BB9 PUSH1 0xE0 SHL DUP2 MSTORE PUSH2 0x805 SWAP4 PUSH4 0xD4626BB9 SWAP4 PUSH2 0x642 SWAP4 SWAP2 SWAP3 ADD SWAP2 DUP3 MSTORE PUSH1 0x20 DUP3 ADD MSTORE PUSH1 0x40 ADD SWAP1 JUMP JUMPDEST PUSH1 0x0 PUSH1 0x40 MLOAD DUP1 DUP4 SUB DUP2 PUSH1 0x0 DUP8 DUP1 EXTCODESIZE ISZERO DUP1 ISZERO PUSH2 0x65C JUMPI PUSH1 0x0 DUP1 REVERT JUMPDEST POP GAS CALL ISZERO DUP1 ISZERO PUSH2 0x670 JUMPI RETURNDATASIZE PUSH1 0x0 DUP1 RETURNDATACOPY RETURNDATASIZE PUSH1 0x0 REVERT JUMPDEST POP POP PUSH1 0x0 PUSH1 0x4 SSTORE POP POP JUMP JUMPDEST PUSH2 0x683 PUSH2 0xC17 JUMP JUMPDEST PUSH2 0x68B PUSH2 0xB6D JUMP JUMPDEST PUSH1 0x0 PUSH1 0x6 PUSH2 0x69C PUSH1 0xFF DUP12 AND DUP14 PUSH2 0x11A5 JUMP JUMPDEST PUSH1 0x81 DUP2 LT PUSH2 0x6AC JUMPI PUSH2 0x6AC PUSH2 0x1176 JUMP JUMPDEST ADD SLOAD SWAP1 POP PUSH1 0x4 SLOAD PUSH1 0x0 EQ ISZERO DUP1 ISZERO PUSH2 0x6C5 JUMPI POP PUSH1 0x2 SLOAD TIMESTAMP EQ ISZERO JUMPDEST ISZERO PUSH2 0x735 JUMPI PUSH1 0x5 SLOAD PUSH1 0x4 DUP1 SLOAD PUSH1 0x40 MLOAD PUSH4 0xD4626BB9 PUSH1 0xE0 SHL DUP2 MSTORE PUSH2 0x805 SWAP4 PUSH4 0xD4626BB9 SWAP4 PUSH2 0x6FD SWAP4 SWAP2 SWAP3 ADD SWAP2 DUP3 MSTORE PUSH1 0x20 DUP3 ADD MSTORE PUSH1 0x40 ADD SWAP1 JUMP JUMPDEST PUSH1 0x0 PUSH1 0x40 MLOAD DUP1 DUP4 SUB DUP2 PUSH1 0x0 DUP8 DUP1 EXTCODESIZE ISZERO DUP1 ISZERO PUSH2 0x717 JUMPI PUSH1 0x0 DUP1 REVERT JUMPDEST POP GAS CALL ISZERO DUP1 ISZERO PUSH2 0x72B JUMPI RETURNDATASIZE PUSH1 0x0 DUP1 RETURNDATACOPY RETURNDATASIZE PUSH1 0x0 REVERT JUMPDEST POP POP PUSH1 0x0 PUSH1 0x4 SSTORE POP POP JUMPDEST DUP12 ISZERO PUSH2 0x9A4 JUMPI DUP4 DUP9 ISZERO PUSH2 0x855 JUMPI PUSH1 0x40 MLOAD PUSH4 0x71DACC7D PUSH1 0xE1 SHL DUP2 MSTORE PUSH1 0x4 DUP2 ADD DUP10 SWAP1 MSTORE PUSH1 0x24 DUP2 ADD DUP9 SWAP1 MSTORE PUSH1 0x44 DUP2 ADD DUP4 SWAP1 MSTORE PUSH1 0x0 SWAP1 PUSH2 0x805 SWAP1 PUSH4 0xE3B598FA SWAP1 PUSH1 0x64 ADD PUSH1 0x20 PUSH1 0x40 MLOAD DUP1 DUP4 SUB DUP2 DUP7 GAS STATICCALL ISZERO DUP1 ISZERO PUSH2 0x791 JUMPI RETURNDATASIZE PUSH1 0x0 DUP1 RETURNDATACOPY RETURNDATASIZE PUSH1 0x0 REVERT JUMPDEST POP POP POP POP PUSH1 0x40 MLOAD RETURNDATASIZE PUSH1 0x1F NOT PUSH1 0x1F DUP3 ADD AND DUP3 ADD DUP1 PUSH1 0x40 MSTORE POP DUP2 ADD SWAP1 PUSH2 0x7B5 SWAP2 SWAP1 PUSH2 0x118C JUMP JUMPDEST PUSH2 0x7BF SWAP1 DUP12 PUSH2 0x11A5 JUMP JUMPDEST PUSH1 0x40 MLOAD PUSH4 0xC2BA9E87 PUSH1 0xE0 SHL DUP2 MSTORE PUSH2 0xFFFF DUP6 AND PUSH1 0x4 DUP3 ADD MSTORE SWAP1 SWAP2 POP PUSH1 0x0 SWAP1 PUSH2 0x808 SWAP1 PUSH4 0xC2BA9E87 SWAP1 PUSH1 0x24 ADD PUSH1 0x20 PUSH1 0x40 MLOAD DUP1 DUP4 SUB DUP2 DUP7 GAS STATICCALL ISZERO DUP1 ISZERO PUSH2 0x806 JUMPI RETURNDATASIZE PUSH1 0x0 DUP1 RETURNDATACOPY RETURNDATASIZE PUSH1 0x0 REVERT JUMPDEST POP POP POP POP PUSH1 0x40 MLOAD RETURNDATASIZE PUSH1 0x1F NOT PUSH1 0x1F DUP3 ADD AND DUP3 ADD DUP1 PUSH1 0x40 MSTORE POP DUP2 ADD SWAP1 PUSH2 0x82A SWAP2 SWAP1 PUSH2 0x11CC JUMP JUMPDEST PUSH8 0xFFFFFFFFFFFFFFFF AND SWAP1 POP PUSH2 0x842 PUSH2 0x7D0 DUP3 PUSH2 0x11F6 JUMP JUMPDEST DUP3 LT ISZERO PUSH2 0x852 JUMPI POP POP POP POP PUSH2 0x9A6 JUMP JUMPDEST POP POP JUMPDEST PUSH1 0x0 JUMPDEST DUP2 DUP2 LT ISZERO PUSH2 0x92A JUMPI PUSH1 0x0 PUSH2 0x805 PUSH4 0xE3B598FA DUP10 DUP10 DUP6 DUP2 DUP2 LT PUSH2 0x87C JUMPI PUSH2 0x87C PUSH2 0x1176 JUMP JUMPDEST SWAP1 POP PUSH1 0x20 MUL ADD CALLDATALOAD DUP9 DUP9 DUP7 DUP2 DUP2 LT PUSH2 0x895 JUMPI PUSH2 0x895 PUSH2 0x1176 JUMP JUMPDEST PUSH1 0x40 MLOAD PUSH1 0x1 PUSH1 0x1 PUSH1 0xE0 SHL SUB NOT PUSH1 0xE0 DUP8 SWAP1 SHL AND DUP2 MSTORE PUSH1 0x4 DUP2 ADD SWAP5 SWAP1 SWAP5 MSTORE PUSH1 0x20 MUL SWAP2 SWAP1 SWAP2 ADD CALLDATALOAD PUSH1 0x24 DUP4 ADD MSTORE POP PUSH1 0x44 DUP2 ADD DUP8 SWAP1 MSTORE PUSH1 0x64 ADD PUSH1 0x20 PUSH1 0x40 MLOAD DUP1 DUP4 SUB DUP2 DUP7 GAS STATICCALL ISZERO DUP1 ISZERO PUSH2 0x8E6 JUMPI RETURNDATASIZE PUSH1 0x0 DUP1 RETURNDATACOPY RETURNDATASIZE PUSH1 0x0 REVERT JUMPDEST POP POP POP POP PUSH1 0x40 MLOAD RETURNDATASIZE PUSH1 0x1F NOT PUSH1 0x1F DUP3 ADD AND DUP3 ADD DUP1 PUSH1 0x40 MSTORE POP DUP2 ADD SWAP1 PUSH2 0x90A SWAP2 SWAP1 PUSH2 0x118C JUMP JUMPDEST SWAP1 POP PUSH4 0x3B9ACA00 DUP2 GT ISZERO PUSH2 0x921 JUMPI POP POP POP POP PUSH2 0x9A6 JUMP JUMPDEST POP PUSH1 0x1 ADD PUSH2 0x858 JUMP JUMPDEST POP PUSH1 0x40 MLOAD PUSH4 0x69E38BC3 PUSH1 0xE0 SHL DUP2 MSTORE PUSH2 0xFFFF DUP4 AND PUSH1 0x4 DUP3 ADD MSTORE DUP12 SWAP1 PUSH2 0x808 SWAP1 PUSH4 0x69E38BC3 SWAP1 PUSH1 0x24 ADD PUSH1 0x20 PUSH1 0x40 MLOAD DUP1 DUP4 SUB DUP2 DUP7 GAS STATICCALL ISZERO DUP1 ISZERO PUSH2 0x96E JUMPI RETURNDATASIZE PUSH1 0x0 DUP1 RETURNDATACOPY RETURNDATASIZE PUSH1 0x0 REVERT JUMPDEST POP POP POP POP PUSH1 0x40 MLOAD RETURNDATASIZE PUSH1 0x1F NOT PUSH1 0x1F DUP3 ADD AND DUP3 ADD DUP1 PUSH1 0x40 MSTORE POP DUP2 ADD SWAP1 PUSH2 0x992 SWAP2 SWAP1 PUSH2 0x118C JUMP JUMPDEST GT PUSH2 0x9A2 JUMPI PUSH2 0x9A2 DUP11 DUP15 DUP5 PUSH2 0xC70 JUMP JUMPDEST POP JUMPDEST POP JUMPDEST PUSH2 0x9AF PUSH1 0x1 DUP1 SSTORE JUMP JUMPDEST POP POP POP POP POP POP POP POP POP POP POP JUMP JUMPDEST PUSH2 0x9C4 PUSH2 0xE54 JUMP JUMPDEST PUSH2 0x9CC PUSH2 0xD01 JUMP JUMPDEST SWAP1 POP SWAP1 JUMP JUMPDEST PUSH2 0x9D9 PUSH2 0xE54 JUMP JUMPDEST PUSH2 0x9CC PUSH2 0xDB4 JUMP JUMPDEST PUSH2 0x9E9 PUSH2 0xB6D JUMP JUMPDEST PUSH1 0x1 PUSH1 0x1 PUSH1 0xA0 SHL SUB DUP2 AND PUSH2 0xA53 JUMPI PUSH1 0x40 MLOAD PUSH3 0x461BCD PUSH1 0xE5 SHL DUP2 MSTORE PUSH1 0x20 PUSH1 0x4 DUP3 ADD MSTORE PUSH1 0x26 PUSH1 0x24 DUP3 ADD MSTORE PUSH32 0x4F776E61626C653A206E6577206F776E657220697320746865207A65726F2061 PUSH1 0x44 DUP3 ADD MSTORE PUSH6 0x646472657373 PUSH1 0xD0 SHL PUSH1 0x64 DUP3 ADD MSTORE PUSH1 0x84 ADD JUMPDEST PUSH1 0x40 MLOAD DUP1 SWAP2 SUB SWAP1 REVERT JUMPDEST PUSH2 0xA5C DUP2 PUSH2 0xBC7 JUMP JUMPDEST POP JUMP JUMPDEST PUSH1 0x3 SLOAD PUSH1 0x1 PUSH1 0x1 PUSH1 0xA0 SHL SUB AND CALLER EQ PUSH2 0xA8A JUMPI PUSH1 0x40 MLOAD PUSH4 0x2D99BC83 PUSH1 0xE2 SHL DUP2 MSTORE PUSH1 0x4 ADD PUSH1 0x40 MLOAD DUP1 SWAP2 SUB SWAP1 REVERT JUMPDEST DUP1 PUSH1 0x0 SUB PUSH2 0xAAB JUMPI PUSH1 0x40 MLOAD PUSH4 0x65E52D51 PUSH1 0xE1 SHL DUP2 MSTORE PUSH1 0x4 ADD PUSH1 0x40 MLOAD DUP1 SWAP2 SUB SWAP1 REVERT JUMPDEST PUSH1 0x0 DUP3 PUSH1 0x1 PUSH1 0x1 PUSH1 0xA0 SHL SUB AND DUP3 PUSH1 0x40 MLOAD PUSH1 0x0 PUSH1 0x40 MLOAD DUP1 DUP4 SUB DUP2 DUP6 DUP8 GAS CALL SWAP3 POP POP POP RETURNDATASIZE DUP1 PUSH1 0x0 DUP2 EQ PUSH2 0xAF8 JUMPI PUSH1 0x40 MLOAD SWAP2 POP PUSH1 0x1F NOT PUSH1 0x3F RETURNDATASIZE ADD AND DUP3 ADD PUSH1 0x40 MSTORE RETURNDATASIZE DUP3 MSTORE RETURNDATASIZE PUSH1 0x0 PUSH1 0x20 DUP5 ADD RETURNDATACOPY PUSH2 0xAFD JUMP JUMPDEST PUSH1 0x60 SWAP2 POP JUMPDEST POP POP SWAP1 POP DUP1 PUSH2 0x595 JUMPI PUSH1 0x40 MLOAD PUSH4 0x12171D83 PUSH1 0xE3 SHL DUP2 MSTORE PUSH1 0x4 ADD PUSH1 0x40 MLOAD DUP1 SWAP2 SUB SWAP1 REVERT JUMPDEST PUSH1 0x3 SLOAD PUSH1 0x1 PUSH1 0x1 PUSH1 0xA0 SHL SUB AND CALLER EQ PUSH2 0xB4A JUMPI PUSH1 0x40 MLOAD PUSH4 0x2D99BC83 PUSH1 0xE2 SHL DUP2 MSTORE PUSH1 0x4 ADD PUSH1 0x40 MLOAD DUP1 SWAP2 SUB SWAP1 REVERT JUMPDEST SELFBALANCE PUSH1 0x0 DUP2 SWAP1 SUB PUSH2 0xAAB JUMPI PUSH1 0x40 MLOAD PUSH4 0x65E52D51 PUSH1 0xE1 SHL DUP2 MSTORE PUSH1 0x4 ADD PUSH1 0x40 MLOAD DUP1 SWAP2 SUB SWAP1 REVERT JUMPDEST PUSH1 0x0 SLOAD PUSH1 0x1 PUSH1 0x1 PUSH1 0xA0 SHL SUB AND CALLER EQ PUSH2 0x5ED JUMPI PUSH1 0x40 MLOAD PUSH3 0x461BCD PUSH1 0xE5 SHL DUP2 MSTORE PUSH1 0x20 PUSH1 0x4 DUP3 ADD DUP2 SWAP1 MSTORE PUSH1 0x24 DUP3 ADD MSTORE PUSH32 0x4F776E61626C653A2063616C6C6572206973206E6F7420746865206F776E6572 PUSH1 0x44 DUP3 ADD MSTORE PUSH1 0x64 ADD PUSH2 0xA4A JUMP JUMPDEST PUSH1 0x0 DUP1 SLOAD PUSH1 0x1 PUSH1 0x1 PUSH1 0xA0 SHL SUB DUP4 DUP2 AND PUSH1 0x1 PUSH1 0x1 PUSH1 0xA0 SHL SUB NOT DUP4 AND DUP2 OR DUP5 SSTORE PUSH1 0x40 MLOAD SWAP2 SWAP1 SWAP3 AND SWAP3 DUP4 SWAP2 PUSH32 0x8BE0079C531659141344CD1FD0A4F28419497F9722A3DAAFE3B4186F6B6457E0 SWAP2 SWAP1 LOG3 POP POP JUMP JUMPDEST PUSH1 0x2 PUSH1 0x1 SLOAD SUB PUSH2 0xC69 JUMPI PUSH1 0x40 MLOAD PUSH3 0x461BCD PUSH1 0xE5 SHL DUP2 MSTORE PUSH1 0x20 PUSH1 0x4 DUP3 ADD MSTORE PUSH1 0x1F PUSH1 0x24 DUP3 ADD MSTORE PUSH32 0x5265656E7472616E637947756172643A207265656E7472616E742063616C6C00 PUSH1 0x44 DUP3 ADD MSTORE PUSH1 0x64 ADD PUSH2 0xA4A JUMP JUMPDEST PUSH1 0x2 PUSH1 0x1 SSTORE JUMP JUMPDEST SELFBALANCE DUP3 DUP2 GT ISZERO PUSH2 0xC7C JUMPI POP DUP2 JUMPDEST PUSH2 0x805 PUSH4 0x1FC9B141 DUP6 PUSH2 0xC93 PUSH4 0x3B9ACA00 DUP6 PUSH2 0x11F6 JUMP JUMPDEST PUSH1 0x40 MLOAD PUSH1 0x1 PUSH1 0x1 PUSH1 0xE0 SHL SUB NOT PUSH1 0xE0 DUP6 SWAP1 SHL AND DUP2 MSTORE PUSH1 0x4 DUP2 ADD SWAP3 SWAP1 SWAP3 MSTORE PUSH1 0x24 DUP3 ADD MSTORE PUSH1 0x44 DUP2 ADD DUP6 SWAP1 MSTORE PUSH1 0x64 ADD PUSH1 0x0 PUSH1 0x40 MLOAD DUP1 DUP4 SUB DUP2 PUSH1 0x0 DUP8 DUP1 EXTCODESIZE ISZERO DUP1 ISZERO PUSH2 0xCD8 JUMPI PUSH1 0x0 DUP1 REVERT JUMPDEST POP GAS CALL ISZERO DUP1 ISZERO PUSH2 0xCEC JUMPI RETURNDATASIZE PUSH1 0x0 DUP1 RETURNDATACOPY RETURNDATASIZE PUSH1 0x0 REVERT JUMPDEST POP POP POP PUSH1 0x5 SWAP5 SWAP1 SWAP5 SSTORE POP PUSH1 0x4 SSTORE POP POP TIMESTAMP PUSH1 0x2 SSTORE JUMP JUMPDEST PUSH2 0xD09 PUSH2 0xE54 JUMP JUMPDEST PUSH1 0x0 JUMPDEST PUSH1 0x81 PUSH2 0xFFFF DUP3 AND LT ISZERO PUSH2 0xDB0 JUMPI PUSH1 0x40 MLOAD PUSH4 0x2D9BFC71 PUSH1 0xE0 SHL DUP2 MSTORE PUSH2 0xFFFF DUP3 AND PUSH1 0x4 DUP3 ADD MSTORE PUSH2 0x808 SWAP1 PUSH4 0x2D9BFC71 SWAP1 PUSH1 0x24 ADD PUSH1 0x20 PUSH1 0x40 MLOAD DUP1 DUP4 SUB DUP2 DUP7 GAS STATICCALL SWAP3 POP POP POP DUP1 ISZERO PUSH2 0xD76 JUMPI POP PUSH1 0x40 DUP1 MLOAD PUSH1 0x1F RETURNDATASIZE SWAP1 DUP2 ADD PUSH1 0x1F NOT AND DUP3 ADD SWAP1 SWAP3 MSTORE PUSH2 0xD73 SWAP2 DUP2 ADD SWAP1 PUSH2 0x11CC JUMP JUMPDEST PUSH1 0x1 JUMPDEST ISZERO PUSH2 0xDA8 JUMPI DUP1 DUP4 DUP4 PUSH2 0xFFFF AND PUSH1 0x81 DUP2 LT PUSH2 0xD92 JUMPI PUSH2 0xD92 PUSH2 0x1176 JUMP JUMPDEST PUSH8 0xFFFFFFFFFFFFFFFF SWAP1 SWAP3 AND PUSH1 0x20 SWAP3 SWAP1 SWAP3 MUL ADD MSTORE POP JUMPDEST PUSH1 0x1 ADD PUSH2 0xD0C JUMP JUMPDEST POP SWAP1 JUMP JUMPDEST PUSH2 0xDBC PUSH2 0xE54 JUMP JUMPDEST PUSH1 0x0 JUMPDEST PUSH1 0x81 PUSH2 0xFFFF DUP3 AND LT ISZERO PUSH2 0xDB0 JUMPI PUSH1 0x40 MLOAD PUSH4 0x69E38BC3 PUSH1 0xE0 SHL DUP2 MSTORE PUSH2 0xFFFF DUP3 AND PUSH1 0x4 DUP3 ADD MSTORE PUSH2 0x808 SWAP1 PUSH4 0x69E38BC3 SWAP1 PUSH1 0x24 ADD PUSH1 0x20 PUSH1 0x40 MLOAD DUP1 DUP4 SUB DUP2 DUP7 GAS STATICCALL SWAP3 POP POP POP DUP1 ISZERO PUSH2 0xE29 JUMPI POP PUSH1 0x40 DUP1 MLOAD PUSH1 0x1F RETURNDATASIZE SWAP1 DUP2 ADD PUSH1 0x1F NOT AND DUP3 ADD SWAP1 SWAP3 MSTORE PUSH2 0xE26 SWAP2 DUP2 ADD SWAP1 PUSH2 0x118C JUMP JUMPDEST PUSH1 0x1 JUMPDEST ISZERO PUSH2 0xE4C JUMPI DUP1 DUP4 DUP4 PUSH2 0xFFFF AND PUSH1 0x81 DUP2 LT PUSH2 0xE45 JUMPI PUSH2 0xE45 PUSH2 0x1176 JUMP JUMPDEST PUSH1 0x20 MUL ADD MSTORE POP JUMPDEST PUSH1 0x1 ADD PUSH2 0xDBF JUMP JUMPDEST PUSH1 0x40 MLOAD DUP1 PUSH2 0x1020 ADD PUSH1 0x40 MSTORE DUP1 PUSH1 0x81 SWAP1 PUSH1 0x20 DUP3 MUL DUP1 CALLDATASIZE DUP4 CALLDATACOPY POP SWAP2 SWAP3 SWAP2 POP POP JUMP JUMPDEST DUP1 CALLDATALOAD PUSH1 0x1 PUSH1 0x1 PUSH1 0xA0 SHL SUB DUP2 AND DUP2 EQ PUSH2 0xE8A JUMPI PUSH1 0x0 DUP1 REVERT JUMPDEST SWAP2 SWAP1 POP JUMP JUMPDEST PUSH1 0x0 PUSH1 0x20 DUP3 DUP5 SUB SLT ISZERO PUSH2 0xEA1 JUMPI PUSH1 0x0 DUP1 REVERT JUMPDEST PUSH2 0xEAA DUP3 PUSH2 0xE73 JUMP JUMPDEST SWAP4 SWAP3 POP POP POP JUMP JUMPDEST PUSH1 0x0 DUP1 DUP4 PUSH1 0x1F DUP5 ADD SLT PUSH2 0xEC3 JUMPI PUSH1 0x0 DUP1 REVERT JUMPDEST POP DUP2 CALLDATALOAD PUSH8 0xFFFFFFFFFFFFFFFF DUP2 GT ISZERO PUSH2 0xEDB JUMPI PUSH1 0x0 DUP1 REVERT JUMPDEST PUSH1 0x20 DUP4 ADD SWAP2 POP DUP4 PUSH1 0x20 DUP3 PUSH1 0x5 SHL DUP6 ADD ADD GT ISZERO PUSH2 0xEF6 JUMPI PUSH1 0x0 DUP1 REVERT JUMPDEST SWAP3 POP SWAP3 SWAP1 POP JUMP JUMPDEST PUSH1 0x0 DUP1 PUSH1 0x0 DUP1 PUSH1 0x40 DUP6 DUP8 SUB SLT ISZERO PUSH2 0xF13 JUMPI PUSH1 0x0 DUP1 REVERT JUMPDEST DUP5 CALLDATALOAD PUSH8 0xFFFFFFFFFFFFFFFF DUP1 DUP3 GT ISZERO PUSH2 0xF2B JUMPI PUSH1 0x0 DUP1 REVERT JUMPDEST PUSH2 0xF37 DUP9 DUP4 DUP10 ADD PUSH2 0xEB1 JUMP JUMPDEST SWAP1 SWAP7 POP SWAP5 POP PUSH1 0x20 DUP8 ADD CALLDATALOAD SWAP2 POP DUP1 DUP3 GT ISZERO PUSH2 0xF50 JUMPI PUSH1 0x0 DUP1 REVERT JUMPDEST POP PUSH2 0xF5D DUP8 DUP3 DUP9 ADD PUSH2 0xEB1 JUMP JUMPDEST SWAP6 SWAP9 SWAP5 SWAP8 POP SWAP6 POP POP POP POP JUMP JUMPDEST PUSH1 0x20 DUP1 DUP3 MSTORE DUP3 MLOAD DUP3 DUP3 ADD DUP2 SWAP1 MSTORE PUSH1 0x0 SWAP2 SWAP1 DUP5 DUP3 ADD SWAP1 PUSH1 0x40 DUP6 ADD SWAP1 DUP5 DUP1 JUMPDEST DUP3 DUP2 LT ISZERO PUSH2 0xFC7 JUMPI DUP5 MLOAD DUP5 DUP4 JUMPDEST PUSH1 0x81 DUP2 LT ISZERO PUSH2 0xFB0 JUMPI DUP3 MLOAD DUP3 MSTORE SWAP2 DUP9 ADD SWAP2 SWAP1 DUP9 ADD SWAP1 PUSH1 0x1 ADD PUSH2 0xF93 JUMP JUMPDEST POP POP POP SWAP4 DUP6 ADD SWAP4 PUSH2 0x1020 SWAP4 SWAP1 SWAP4 ADD SWAP3 PUSH1 0x1 ADD PUSH2 0xF86 JUMP JUMPDEST POP SWAP2 SWAP8 SWAP7 POP POP POP POP POP POP POP JUMP JUMPDEST PUSH1 0x0 DUP1 PUSH1 0x20 DUP4 DUP6 SUB SLT ISZERO PUSH2 0xFE7 JUMPI PUSH1 0x0 DUP1 REVERT JUMPDEST DUP3 CALLDATALOAD PUSH8 0xFFFFFFFFFFFFFFFF DUP2 GT ISZERO PUSH2 0xFFE JUMPI PUSH1 0x0 DUP1 REVERT JUMPDEST PUSH2 0x100A DUP6 DUP3 DUP7 ADD PUSH2 0xEB1 JUMP JUMPDEST SWAP1 SWAP7 SWAP1 SWAP6 POP SWAP4 POP POP POP POP JUMP JUMPDEST PUSH1 0x0 DUP1 PUSH1 0x0 DUP1 PUSH1 0x0 DUP1 PUSH1 0x0 DUP1 PUSH1 0x0 DUP1 PUSH1 0x0 PUSH2 0x120 DUP13 DUP15 SUB SLT ISZERO PUSH2 0x1038 JUMPI PUSH1 0x0 DUP1 REVERT JUMPDEST DUP12 CALLDATALOAD SWAP11 POP PUSH1 0x20 DUP13 ADD CALLDATALOAD SWAP10 POP PUSH1 0x40 DUP13 ADD CALLDATALOAD SWAP9 POP PUSH1 0x60 DUP13 ADD CALLDATALOAD SWAP8 POP PUSH1 0x80 DUP13 ADD CALLDATALOAD SWAP7 POP PUSH1 0xA0 DUP13 ADD CALLDATALOAD SWAP6 POP PUSH1 0xC0 DUP13 ADD CALLDATALOAD SWAP5 POP PUSH8 0xFFFFFFFFFFFFFFFF DUP1 PUSH1 0xE0 DUP15 ADD CALLDATALOAD GT ISZERO PUSH2 0x1080 JUMPI PUSH1 0x0 DUP1 REVERT JUMPDEST PUSH2 0x1090 DUP15 PUSH1 0xE0 DUP16 ADD CALLDATALOAD DUP16 ADD PUSH2 0xEB1 JUMP JUMPDEST SWAP1 SWAP6 POP SWAP4 POP PUSH2 0x100 DUP14 ADD CALLDATALOAD DUP2 LT ISZERO PUSH2 0x10A7 JUMPI PUSH1 0x0 DUP1 REVERT JUMPDEST POP PUSH2 0x10B9 DUP14 PUSH2 0x100 DUP15 ADD CALLDATALOAD DUP15 ADD PUSH2 0xEB1 JUMP JUMPDEST DUP2 SWAP4 POP DUP1 SWAP3 POP POP POP SWAP3 SWAP6 SWAP9 SWAP12 POP SWAP3 SWAP6 SWAP9 SWAP12 SWAP1 SWAP4 SWAP7 SWAP10 POP JUMP JUMPDEST PUSH2 0x1020 DUP2 ADD DUP2 DUP4 PUSH1 0x0 JUMPDEST PUSH1 0x81 DUP2 LT ISZERO PUSH2 0x1104 JUMPI DUP2 MLOAD PUSH8 0xFFFFFFFFFFFFFFFF AND DUP4 MSTORE PUSH1 0x20 SWAP3 DUP4 ADD SWAP3 SWAP1 SWAP2 ADD SWAP1 PUSH1 0x1 ADD PUSH2 0x10DB JUMP JUMPDEST POP POP POP SWAP3 SWAP2 POP POP JUMP JUMPDEST PUSH2 0x1020 DUP2 ADD DUP2 DUP4 PUSH1 0x0 JUMPDEST PUSH1 0x81 DUP2 LT ISZERO PUSH2 0x1104 JUMPI DUP2 MLOAD DUP4 MSTORE PUSH1 0x20 SWAP3 DUP4 ADD SWAP3 SWAP1 SWAP2 ADD SWAP1 PUSH1 0x1 ADD PUSH2 0x1117 JUMP JUMPDEST PUSH1 0x0 DUP1 PUSH1 0x40 DUP4 DUP6 SUB SLT ISZERO PUSH2 0x1149 JUMPI PUSH1 0x0 DUP1 REVERT JUMPDEST PUSH2 0x1152 DUP4 PUSH2 0xE73 JUMP JUMPDEST SWAP5 PUSH1 0x20 SWAP4 SWAP1 SWAP4 ADD CALLDATALOAD SWAP4 POP POP POP JUMP JUMPDEST PUSH4 0x4E487B71 PUSH1 0xE0 SHL PUSH1 0x0 MSTORE PUSH1 0x41 PUSH1 0x4 MSTORE PUSH1 0x24 PUSH1 0x0 REVERT JUMPDEST PUSH4 0x4E487B71 PUSH1 0xE0 SHL PUSH1 0x0 MSTORE PUSH1 0x32 PUSH1 0x4 MSTORE PUSH1 0x24 PUSH1 0x0 REVERT JUMPDEST PUSH1 0x0 PUSH1 0x20 DUP3 DUP5 SUB SLT ISZERO PUSH2 0x119E JUMPI PUSH1 0x0 DUP1 REVERT JUMPDEST POP MLOAD SWAP2 SWAP1 POP JUMP JUMPDEST DUP2 DUP2 SUB DUP2 DUP2 GT ISZERO PUSH2 0x11C6 JUMPI PUSH4 0x4E487B71 PUSH1 0xE0 SHL PUSH1 0x0 MSTORE PUSH1 0x11 PUSH1 0x4 MSTORE PUSH1 0x24 PUSH1 0x0 REVERT JUMPDEST SWAP3 SWAP2 POP POP JUMP JUMPDEST PUSH1 0x0 PUSH1 0x20 DUP3 DUP5 SUB SLT ISZERO PUSH2 0x11DE JUMPI PUSH1 0x0 DUP1 REVERT JUMPDEST DUP2 MLOAD PUSH8 0xFFFFFFFFFFFFFFFF DUP2 AND DUP2 EQ PUSH2 0xEAA JUMPI PUSH1 0x0 DUP1 REVERT JUMPDEST PUSH1 0x0 DUP3 PUSH2 0x1213 JUMPI PUSH4 0x4E487B71 PUSH1 0xE0 SHL PUSH1 0x0 MSTORE PUSH1 0x12 PUSH1 0x4 MSTORE PUSH1 0x24 PUSH1 0x0 REVERT JUMPDEST POP DIV SWAP1 JUMP INVALID LOG2 PUSH5 0x6970667358 0x22 SLT KECCAK256 0xD2 SWAP7 0xCB 0x4C 0xA8 CALLDATACOPY 0x26 ADDRESS SWAP5 ORIGIN SWAP13 MULMOD 0xA7 CALLDATASIZE 0xB4 0xB1 MUL DUP2 0xCC PUSH7 0x3565A80760C734 STOP 0xED SWAP1 0xB4 DUP4 PUSH5 0x736F6C6343 STOP ADDMOD AND STOP CALLER "},"methodIdentifiers":{"NETUID_COUNT()":"50bf8649","emergencyWithdrawTao(address,uint256)":"f528c62e","getAlphaPrices()":"bc28d5d0","getInfo()":"5a9b0b89","getStakedAmounts(bytes32[],bytes32[])":"26a224e0","getTaoInPools()":"a8c2bb0d","lastStakeTimestamp()":"f0f9e975","owner()":"8da5cb5b","removeStakeAlpha()":"9be3ac01","renounceOwnership()":"715018a6","setWithdrawer(address)":"0d174c24","stakeTaoForAlpha(uint256,uint256,uint256,bytes32,uint256,bytes32,bytes32,bytes32[],bytes32[])":"a504edf9","transferOwnership(address)":"f2fde38b","updateNetuids(uint256[])":"3f3b7858","withdrawAll(address)":"fa09e630","withdrawer()":"cdc18424"}}}}}