{"contracts/Mev_2.sol":{"Mev":{"abi":[{"inputs":[],"stateMutability":"nonpayable","type":"constructor"},{"inputs":[],"name":"AmountZero","type":"error"},{"inputs":[],"name":"ArrayLengthMismatch","type":"error"},{"inputs":[],"name":"FunctionNotFound","type":"error"},{"inputs":[],"name":"InvalidLength","type":"error"},{"inputs":[],"name":"TransferFailed","type":"error"},{"anonymous":false,"inputs":[{"indexed":true,"internalType":"address","name":"previousOwner","type":"address"},{"indexed":true,"internalType":"address","name":"newOwner","type":"address"}],"name":"OwnershipTransferred","type":"event"},{"stateMutability":"payable","type":"fallback"},{"inputs":[{"internalType":"uint256","name":"stakeAmount","type":"uint256"},{"internalType":"uint256","name":"alphaNetuid","type":"uint256"},{"internalType":"bytes32","name":"_validatorHotkey","type":"bytes32"}],"name":"ForceStake","outputs":[],"stateMutability":"payable","type":"function"},{"inputs":[],"name":"NETUID_COUNT","outputs":[{"internalType":"uint256","name":"","type":"uint256"}],"stateMutability":"view","type":"function"},{"inputs":[{"internalType":"address","name":"to","type":"address"},{"internalType":"uint256","name":"amount","type":"uint256"}],"name":"emergencyWithdrawTao","outputs":[],"stateMutability":"nonpayable","type":"function"},{"inputs":[],"name":"getAlphaPrices","outputs":[{"internalType":"uint256[129]","name":"alphaPrices","type":"uint256[129]"}],"stateMutability":"view","type":"function"},{"inputs":[],"name":"getInfo","outputs":[{"internalType":"bool","name":"staked","type":"bool"},{"internalType":"uint256","name":"ownerBalance","type":"uint256"},{"internalType":"uint256","name":"contractBalance","type":"uint256"}],"stateMutability":"view","type":"function"},{"inputs":[],"name":"getTaoInPools","outputs":[{"internalType":"uint64[129]","name":"taoInPools","type":"uint64[129]"}],"stateMutability":"view","type":"function"},{"inputs":[],"name":"is_staked","outputs":[{"internalType":"bool","name":"","type":"bool"}],"stateMutability":"view","type":"function"},{"inputs":[],"name":"lastStakeTimestamp","outputs":[{"internalType":"uint256","name":"","type":"uint256"}],"stateMutability":"view","type":"function"},{"inputs":[{"internalType":"uint256","name":"","type":"uint256"}],"name":"mevColdkeyBytesKeys","outputs":[{"internalType":"bytes32","name":"","type":"bytes32"}],"stateMutability":"view","type":"function"},{"inputs":[{"internalType":"uint256","name":"","type":"uint256"}],"name":"mevHotkeyBytesKeys","outputs":[{"internalType":"bytes32","name":"","type":"bytes32"}],"stateMutability":"view","type":"function"},{"inputs":[],"name":"owner","outputs":[{"internalType":"address","name":"","type":"address"}],"stateMutability":"view","type":"function"},{"inputs":[],"name":"renounceOwnership","outputs":[],"stateMutability":"nonpayable","type":"function"},{"inputs":[{"internalType":"address","name":"newWithdrawer","type":"address"}],"name":"setWithdrawer","outputs":[],"stateMutability":"nonpayable","type":"function"},{"inputs":[{"internalType":"uint256","name":"stakeAmount","type":"uint256"},{"internalType":"uint256","name":"alphaNetuid","type":"uint256"},{"internalType":"uint256","name":"alphaPrice","type":"uint256"},{"internalType":"bytes32","name":"_validatorHotkey","type":"bytes32"}],"name":"stakeTaoForAlpha","outputs":[],"stateMutability":"payable","type":"function"},{"inputs":[{"internalType":"address","name":"newOwner","type":"address"}],"name":"transferOwnership","outputs":[],"stateMutability":"nonpayable","type":"function"},{"inputs":[{"internalType":"bytes32[]","name":"newMevHotkeyBytesKeys","type":"bytes32[]"},{"internalType":"bytes32[]","name":"newMevColdkeyBytesKeys","type":"bytes32[]"}],"name":"updateMevKeys","outputs":[],"stateMutability":"nonpayable","type":"function"},{"inputs":[{"internalType":"uint256[]","name":"newNetuids","type":"uint256[]"}],"name":"updateNetuids","outputs":[],"stateMutability":"nonpayable","type":"function"},{"inputs":[{"internalType":"address","name":"to","type":"address"}],"name":"withdrawAll","outputs":[],"stateMutability":"nonpayable","type":"function"},{"inputs":[],"name":"withdrawer","outputs":[{"internalType":"address","name":"","type":"address"}],"stateMutability":"view","type":"function"},{"stateMutability":"payable","type":"receive"}],"evm":{"bytecode":{"linkReferences":{},"object":"600680546001600160a01b03191681556110a0604090815260016080908152603760a052606e60c052604c60e05260516101005260076101205260706101405260136101605260006101805260126101a052602f6101c05260546101e05260716102005260246102205260336102405260626102605260316102805260756102a05260276102c052605a6102e052603c6103005260676103205261034091909152605f61036052607c61038052606c6103a05260186103c05260576103e052606161040052605361042052604361044052603b61046052602561048052601e6104a05260026104c05260056104e052600e61050052602661052052602c61054052607461056052601b61058052603f6105a05260106105c052607a6105e052605661060052606061062052607261064052605861066052601d6106805260116106a05260236106c05260636106e052600861070052605561072052604961074052601561076052602161078052602d6107a052600c6107c05260296107e052607961080052602261082052603661084052610860819052604b61088052600b6108a052600a6108c052602e6108e052606f61090052606d61092052602a61094052603961096052602b61098052604d6109a05260286109c05260686109e052603a610a0052605e610a2052607f610a40526073610a60526020610a8052607b610aa0526069610ac0526016610ae0526044610b00526017610b2052606a610b40526035610b6052601f610b80526014610ba0526065610bc0526034610be052606b610c00526042610c2052610c4091909152603d610c60526045610c80526064610ca0526059610cc0526009610ce08190526038610d00526077610d2052604e610d40526019610d60526032610d8052603e610da0526003610dc0526048610de052604f610e0052601a610e20526076610e4052600d610e60526078610e8052600f610ea052605c610ec0526052610ee0526004610f00526030610f2052605d610f40526066610f6052601c610f80526041610fa0526046610fc052607d610fe052605061100052605b61102052604761104052607e61106052604a611080526200032c916081620003c1565b503480156200033a57600080fd5b50620003463362000371565b600180556002805460ff191690556000600755600680546001600160a01b0319163317905562000420565b600080546001600160a01b038381166001600160a01b0319831681178455604051919092169283917f8be0079c531659141344cd1fd0a4f28419497f9722a3daafe3b4186f6b6457e09190a35050565b8260818101928215620003f7579160200282015b82811115620003f7578251829060ff16905591602001919060010190620003d5565b506200040592915062000409565b5090565b5b808211156200040557600081556001016200040a565b6112c380620004306000396000f3fe6080604052600436106101185760003560e01c80639ebf1378116100a0578063cdc1842411610064578063cdc184241461030f578063f0f9e9751461032f578063f2fde38b14610345578063f528c62e14610365578063fa09e630146103855761011f565b80639ebf137814610278578063a8c2bb0d1461028b578063b6b2a68d146102ad578063bc28d5d0146102cd578063c82ad204146102ef5761011f565b806350bf8649116100e757806350bf8649146101bc57806351b2e72d146101df5780635a9b0b89146101ff578063715018a6146102315780638da5cb5b146102465761011f565b80630d174c2414610138578063169374dc1461015a5780632f6fc02e1461016d5780633f3b78581461019c5761011f565b3661011f57005b60405163201f3fd360e11b815260040160405180910390fd5b34801561014457600080fd5b50610158610153366004610f8c565b6103a5565b005b610158610168366004610fa7565b610442565b34801561017957600080fd5b506002546101879060ff1681565b60405190151581526020015b60405180910390f35b3480156101a857600080fd5b506101586101b736600461101f565b610698565b3480156101c857600080fd5b506101d1608181565b604051908152602001610193565b3480156101eb57600080fd5b506101d16101fa366004611061565b610703565b34801561020b57600080fd5b50610214610724565b604080519315158452602084019290925290820152606001610193565b34801561023d57600080fd5b50610158610753565b34801561025257600080fd5b506000546001600160a01b03165b6040516001600160a01b039091168152602001610193565b61015861028636600461107a565b610767565b34801561029757600080fd5b506102a0610a26565b60405161019391906110ac565b3480156102b957600080fd5b506101d16102c8366004611061565b610a3b565b3480156102d957600080fd5b506102e2610a4b565b60405161019391906110e8565b3480156102fb57600080fd5b5061015861030a366004611111565b610a5b565b34801561031b57600080fd5b50600654610260906001600160a01b031681565b34801561033b57600080fd5b506101d160035481565b34801561035157600080fd5b50610158610360366004610f8c565b610aa4565b34801561037157600080fd5b5061015861038036600461117d565b610b1d565b34801561039157600080fd5b506101586103a0366004610f8c565b610bdc565b6006546001600160a01b031633146103d85760405162461bcd60e51b81526004016103cf906111a7565b60405180910390fd5b6001600160a01b0381166104205760405162461bcd60e51b815260206004820152600f60248201526e496e76616c6964206164647265737360881b60448201526064016103cf565b600680546001600160a01b0319166001600160a01b0392909216919091179055565b61044a610c29565b610452610c82565b6000600961046360ff8416856111e5565b60818110610473576104736111f8565b015460025490915060ff16801561048c57506003544214155b156105005760085460075460405163d4626bb960e01b81526108059263d4626bb9926104c392600401918252602082015260400190565b600060405180830381600087803b1580156104dd57600080fd5b505af11580156104f1573d6000803e3d6000fd5b50506002805460ff1916905550505b8315610688576004546000805b828110156105e3576108056001600160a01b031663e3b598fa60048381548110610539576105396111f8565b906000526020600020015460058481548110610557576105576111f8565b6000918252602090912001546040516001600160e01b031960e085901b1681526004810192909252602482015260448101879052606401602060405180830381865afa1580156105ab573d6000803e3d6000fd5b505050506040513d601f19601f820116820180604052508101906105cf919061120e565b6105d99083611227565b915060010161050d565b5080156105f25750505061068a565b6008849055610805631fc9b1418561061261060d478b610cdc565b610cf6565b6040516001600160e01b031960e085901b1681526004810192909252602482015260448101869052606401600060405180830381600087803b15801561065757600080fd5b505af115801561066b573d6000803e3d6000fd5b50506002805460ff19166001179055505050600782905550426003555b505b61069360018055565b505050565b6106a0610c82565b608181146106c15760405163251f56a160e21b815260040160405180910390fd5b60005b6081811015610693578282828181106106df576106df6111f8565b90506020020135600982608181106106f9576106f96111f8565b01556001016106c4565b6005818154811061071357600080fd5b600091825260209091200154905081565b60025460ff1660008061073f6000546001600160a01b031690565b6001600160a01b0316319150479050909192565b61075b610c82565b6107656000610d06565b565b61076f610c29565b610777610c82565b6000600961078860ff8416866111e5565b60818110610798576107986111f8565b015460025490915060ff1680156107b157506003544214155b156108255760085460075460405163d4626bb960e01b81526108059263d4626bb9926107e892600401918252602082015260400190565b600060405180830381600087803b15801561080257600080fd5b505af1158015610816573d6000803e3d6000fd5b50506002805460ff1916905550505b8415610a15576004546000805b82811015610908576108056001600160a01b031663e3b598fa6004838154811061085e5761085e6111f8565b90600052602060002001546005848154811061087c5761087c6111f8565b6000918252602090912001546040516001600160e01b031960e085901b1681526004810192909252602482015260448101879052606401602060405180830381865afa1580156108d0573d6000803e3d6000fd5b505050506040513d601f19601f820116820180604052508101906108f4919061120e565b6108fe9083611227565b9150600101610832565b50801561091757505050610a17565b6040516369e38bc360e01b815261ffff841660048201528590610808906369e38bc390602401602060405180830381865afa15801561095a573d6000803e3d6000fd5b505050506040513d601f19601f8201168201806040525081019061097e919061120e565b11610a12576008849055610805631fc9b1418561099e61060d478c610cdc565b6040516001600160e01b031960e085901b1681526004810192909252602482015260448101869052606401600060405180830381600087803b1580156109e357600080fd5b505af11580156109f7573d6000803e3d6000fd5b50506002805460ff1916600117905550506007839055426003555b50505b505b610a2060018055565b50505050565b610a2e610efa565b610a36610d56565b905090565b6004818154811061071357600080fd5b610a53610efa565b610a36610e39565b610a63610c29565b610a6b610c82565b828114610a8b5760405163512509d360e11b815260040160405180910390fd5b610a9760048585610f19565b50610a1560058383610f19565b610aac610c82565b6001600160a01b038116610b115760405162461bcd60e51b815260206004820152602660248201527f4f776e61626c653a206e6577206f776e657220697320746865207a65726f206160448201526564647265737360d01b60648201526084016103cf565b610b1a81610d06565b50565b6006546001600160a01b03163314610b475760405162461bcd60e51b81526004016103cf906111a7565b80600003610b68576040516365e52d5160e11b815260040160405180910390fd5b6000826001600160a01b03168260405160006040518083038185875af1925050503d8060008114610bb5576040519150601f19603f3d011682016040523d82523d6000602084013e610bba565b606091505b5050905080610693576040516312171d8360e31b815260040160405180910390fd5b6006546001600160a01b03163314610c065760405162461bcd60e51b81526004016103cf906111a7565b476000819003610b68576040516365e52d5160e11b815260040160405180910390fd5b600260015403610c7b5760405162461bcd60e51b815260206004820152601f60248201527f5265656e7472616e637947756172643a207265656e7472616e742063616c6c0060448201526064016103cf565b6002600155565b6000546001600160a01b031633146107655760405162461bcd60e51b815260206004820181905260248201527f4f776e61626c653a2063616c6c6572206973206e6f7420746865206f776e657260448201526064016103cf565b6000818310610ceb5781610ced565b825b90505b92915050565b6000610cf0633b9aca008361123a565b600080546001600160a01b038381166001600160a01b0319831681178455604051919092169283917f8be0079c531659141344cd1fd0a4f28419497f9722a3daafe3b4186f6b6457e09190a35050565b610d5e610efa565b60005b608161ffff82161015610e3557604051632d9bfc7160e01b815261ffff8216600482015261080890632d9bfc7190602401602060405180830381865afa925050508015610dcb575060408051601f3d908101601f19168201909252610dc89181019061125c565b60015b610e00576000828261ffff1660818110610de757610de76111f8565b67ffffffffffffffff9092166020929092020152610e2d565b80838361ffff1660818110610e1757610e176111f8565b67ffffffffffffffff9092166020929092020152505b600101610d61565b5090565b610e41610efa565b60005b608161ffff82161015610e35576040516369e38bc360e01b815261ffff82166004820152610808906369e38bc390602401602060405180830381865afa925050508015610eae575060408051601f3d908101601f19168201909252610eab9181019061120e565b60015b610ed4576000828261ffff1660818110610eca57610eca6111f8565b6020020152610ef2565b80838361ffff1660818110610eeb57610eeb6111f8565b6020020152505b600101610e44565b6040518061102001604052806081906020820280368337509192915050565b828054828255906000526020600020908101928215610f54579160200282015b82811115610f54578235825591602001919060010190610f39565b50610e359291505b80821115610e355760008155600101610f5c565b80356001600160a01b0381168114610f8757600080fd5b919050565b600060208284031215610f9e57600080fd5b610ced82610f70565b600080600060608486031215610fbc57600080fd5b505081359360208301359350604090920135919050565b60008083601f840112610fe557600080fd5b50813567ffffffffffffffff811115610ffd57600080fd5b6020830191508360208260051b850101111561101857600080fd5b9250929050565b6000806020838503121561103257600080fd5b823567ffffffffffffffff81111561104957600080fd5b61105585828601610fd3565b90969095509350505050565b60006020828403121561107357600080fd5b5035919050565b6000806000806080858703121561109057600080fd5b5050823594602084013594506040840135936060013592509050565b6110208101818360005b60818110156110df57815167ffffffffffffffff168352602092830192909101906001016110b6565b50505092915050565b6110208101818360005b60818110156110df5781518352602092830192909101906001016110f2565b6000806000806040858703121561112757600080fd5b843567ffffffffffffffff8082111561113f57600080fd5b61114b88838901610fd3565b9096509450602087013591508082111561116457600080fd5b5061117187828801610fd3565b95989497509550505050565b6000806040838503121561119057600080fd5b61119983610f70565b946020939093013593505050565b6020808252600e908201526d2737ba103bb4ba34323930bbb2b960911b604082015260600190565b634e487b7160e01b600052601160045260246000fd5b81810381811115610cf057610cf06111cf565b634e487b7160e01b600052603260045260246000fd5b60006020828403121561122057600080fd5b5051919050565b80820180821115610cf057610cf06111cf565b60008261125757634e487b7160e01b600052601260045260246000fd5b500490565b60006020828403121561126e57600080fd5b815167ffffffffffffffff8116811461128657600080fd5b939250505056fea26469706673582212207e59062c8bb91119cb2d08ececb28ea003968d1cffc0f4ab0a3847a96c10a48c64736f6c63430008160033","opcodes":"PUSH1 0x6 DUP1 SLOAD PUSH1 0x1 PUSH1 0x1 PUSH1 0xA0 SHL SUB NOT AND DUP2 SSTORE PUSH2 0x10A0 PUSH1 0x40 SWAP1 DUP2 MSTORE PUSH1 0x1 PUSH1 0x80 SWAP1 DUP2 MSTORE PUSH1 0x37 PUSH1 0xA0 MSTORE PUSH1 0x6E PUSH1 0xC0 MSTORE PUSH1 0x4C PUSH1 0xE0 MSTORE PUSH1 0x51 PUSH2 0x100 MSTORE PUSH1 0x7 PUSH2 0x120 MSTORE PUSH1 0x70 PUSH2 0x140 MSTORE PUSH1 0x13 PUSH2 0x160 MSTORE PUSH1 0x0 PUSH2 0x180 MSTORE PUSH1 0x12 PUSH2 0x1A0 MSTORE PUSH1 0x2F PUSH2 0x1C0 MSTORE PUSH1 0x54 PUSH2 0x1E0 MSTORE PUSH1 0x71 PUSH2 0x200 MSTORE PUSH1 0x24 PUSH2 0x220 MSTORE PUSH1 0x33 PUSH2 0x240 MSTORE PUSH1 0x62 PUSH2 0x260 MSTORE PUSH1 0x31 PUSH2 0x280 MSTORE PUSH1 0x75 PUSH2 0x2A0 MSTORE PUSH1 0x27 PUSH2 0x2C0 MSTORE PUSH1 0x5A PUSH2 0x2E0 MSTORE PUSH1 0x3C PUSH2 0x300 MSTORE PUSH1 0x67 PUSH2 0x320 MSTORE PUSH2 0x340 SWAP2 SWAP1 SWAP2 MSTORE PUSH1 0x5F PUSH2 0x360 MSTORE PUSH1 0x7C PUSH2 0x380 MSTORE PUSH1 0x6C PUSH2 0x3A0 MSTORE PUSH1 0x18 PUSH2 0x3C0 MSTORE PUSH1 0x57 PUSH2 0x3E0 MSTORE PUSH1 0x61 PUSH2 0x400 MSTORE PUSH1 0x53 PUSH2 0x420 MSTORE PUSH1 0x43 PUSH2 0x440 MSTORE PUSH1 0x3B PUSH2 0x460 MSTORE PUSH1 0x25 PUSH2 0x480 MSTORE PUSH1 0x1E PUSH2 0x4A0 MSTORE PUSH1 0x2 PUSH2 0x4C0 MSTORE PUSH1 0x5 PUSH2 0x4E0 MSTORE PUSH1 0xE PUSH2 0x500 MSTORE PUSH1 0x26 PUSH2 0x520 MSTORE PUSH1 0x2C PUSH2 0x540 MSTORE PUSH1 0x74 PUSH2 0x560 MSTORE PUSH1 0x1B PUSH2 0x580 MSTORE PUSH1 0x3F PUSH2 0x5A0 MSTORE PUSH1 0x10 PUSH2 0x5C0 MSTORE PUSH1 0x7A PUSH2 0x5E0 MSTORE PUSH1 0x56 PUSH2 0x600 MSTORE PUSH1 0x60 PUSH2 0x620 MSTORE PUSH1 0x72 PUSH2 0x640 MSTORE PUSH1 0x58 PUSH2 0x660 MSTORE PUSH1 0x1D PUSH2 0x680 MSTORE PUSH1 0x11 PUSH2 0x6A0 MSTORE PUSH1 0x23 PUSH2 0x6C0 MSTORE PUSH1 0x63 PUSH2 0x6E0 MSTORE PUSH1 0x8 PUSH2 0x700 MSTORE PUSH1 0x55 PUSH2 0x720 MSTORE PUSH1 0x49 PUSH2 0x740 MSTORE PUSH1 0x15 PUSH2 0x760 MSTORE PUSH1 0x21 PUSH2 0x780 MSTORE PUSH1 0x2D PUSH2 0x7A0 MSTORE PUSH1 0xC PUSH2 0x7C0 MSTORE PUSH1 0x29 PUSH2 0x7E0 MSTORE PUSH1 0x79 PUSH2 0x800 MSTORE PUSH1 0x22 PUSH2 0x820 MSTORE PUSH1 0x36 PUSH2 0x840 MSTORE PUSH2 0x860 DUP2 SWAP1 MSTORE PUSH1 0x4B PUSH2 0x880 MSTORE PUSH1 0xB PUSH2 0x8A0 MSTORE PUSH1 0xA PUSH2 0x8C0 MSTORE PUSH1 0x2E PUSH2 0x8E0 MSTORE PUSH1 0x6F PUSH2 0x900 MSTORE PUSH1 0x6D PUSH2 0x920 MSTORE PUSH1 0x2A PUSH2 0x940 MSTORE PUSH1 0x39 PUSH2 0x960 MSTORE PUSH1 0x2B PUSH2 0x980 MSTORE PUSH1 0x4D PUSH2 0x9A0 MSTORE PUSH1 0x28 PUSH2 0x9C0 MSTORE PUSH1 0x68 PUSH2 0x9E0 MSTORE PUSH1 0x3A PUSH2 0xA00 MSTORE PUSH1 0x5E PUSH2 0xA20 MSTORE PUSH1 0x7F PUSH2 0xA40 MSTORE PUSH1 0x73 PUSH2 0xA60 MSTORE PUSH1 0x20 PUSH2 0xA80 MSTORE PUSH1 0x7B PUSH2 0xAA0 MSTORE PUSH1 0x69 PUSH2 0xAC0 MSTORE PUSH1 0x16 PUSH2 0xAE0 MSTORE PUSH1 0x44 PUSH2 0xB00 MSTORE PUSH1 0x17 PUSH2 0xB20 MSTORE PUSH1 0x6A PUSH2 0xB40 MSTORE PUSH1 0x35 PUSH2 0xB60 MSTORE PUSH1 0x1F PUSH2 0xB80 MSTORE PUSH1 0x14 PUSH2 0xBA0 MSTORE PUSH1 0x65 PUSH2 0xBC0 MSTORE PUSH1 0x34 PUSH2 0xBE0 MSTORE PUSH1 0x6B PUSH2 0xC00 MSTORE PUSH1 0x42 PUSH2 0xC20 MSTORE PUSH2 0xC40 SWAP2 SWAP1 SWAP2 MSTORE PUSH1 0x3D PUSH2 0xC60 MSTORE PUSH1 0x45 PUSH2 0xC80 MSTORE PUSH1 0x64 PUSH2 0xCA0 MSTORE PUSH1 0x59 PUSH2 0xCC0 MSTORE PUSH1 0x9 PUSH2 0xCE0 DUP2 SWAP1 MSTORE PUSH1 0x38 PUSH2 0xD00 MSTORE PUSH1 0x77 PUSH2 0xD20 MSTORE PUSH1 0x4E PUSH2 0xD40 MSTORE PUSH1 0x19 PUSH2 0xD60 MSTORE PUSH1 0x32 PUSH2 0xD80 MSTORE PUSH1 0x3E PUSH2 0xDA0 MSTORE PUSH1 0x3 PUSH2 0xDC0 MSTORE PUSH1 0x48 PUSH2 0xDE0 MSTORE PUSH1 0x4F PUSH2 0xE00 MSTORE PUSH1 0x1A PUSH2 0xE20 MSTORE PUSH1 0x76 PUSH2 0xE40 MSTORE PUSH1 0xD PUSH2 0xE60 MSTORE PUSH1 0x78 PUSH2 0xE80 MSTORE PUSH1 0xF PUSH2 0xEA0 MSTORE PUSH1 0x5C PUSH2 0xEC0 MSTORE PUSH1 0x52 PUSH2 0xEE0 MSTORE PUSH1 0x4 PUSH2 0xF00 MSTORE PUSH1 0x30 PUSH2 0xF20 MSTORE PUSH1 0x5D PUSH2 0xF40 MSTORE PUSH1 0x66 PUSH2 0xF60 MSTORE PUSH1 0x1C PUSH2 0xF80 MSTORE PUSH1 0x41 PUSH2 0xFA0 MSTORE PUSH1 0x46 PUSH2 0xFC0 MSTORE PUSH1 0x7D PUSH2 0xFE0 MSTORE PUSH1 0x50 PUSH2 0x1000 MSTORE PUSH1 0x5B PUSH2 0x1020 MSTORE PUSH1 0x47 PUSH2 0x1040 MSTORE PUSH1 0x7E PUSH2 0x1060 MSTORE PUSH1 0x4A PUSH2 0x1080 MSTORE PUSH3 0x32C SWAP2 PUSH1 0x81 PUSH3 0x3C1 JUMP JUMPDEST POP CALLVALUE DUP1 ISZERO PUSH3 0x33A JUMPI PUSH1 0x0 DUP1 REVERT JUMPDEST POP PUSH3 0x346 CALLER PUSH3 0x371 JUMP JUMPDEST PUSH1 0x1 DUP1 SSTORE PUSH1 0x2 DUP1 SLOAD PUSH1 0xFF NOT AND SWAP1 SSTORE PUSH1 0x0 PUSH1 0x7 SSTORE PUSH1 0x6 DUP1 SLOAD PUSH1 0x1 PUSH1 0x1 PUSH1 0xA0 SHL SUB NOT AND CALLER OR SWAP1 SSTORE PUSH3 0x420 JUMP JUMPDEST PUSH1 0x0 DUP1 SLOAD PUSH1 0x1 PUSH1 0x1 PUSH1 0xA0 SHL SUB DUP4 DUP2 AND PUSH1 0x1 PUSH1 0x1 PUSH1 0xA0 SHL SUB NOT DUP4 AND DUP2 OR DUP5 SSTORE PUSH1 0x40 MLOAD SWAP2 SWAP1 SWAP3 AND SWAP3 DUP4 SWAP2 PUSH32 0x8BE0079C531659141344CD1FD0A4F28419497F9722A3DAAFE3B4186F6B6457E0 SWAP2 SWAP1 LOG3 POP POP JUMP JUMPDEST DUP3 PUSH1 0x81 DUP2 ADD SWAP3 DUP3 ISZERO PUSH3 0x3F7 JUMPI SWAP2 PUSH1 0x20 MUL DUP3 ADD JUMPDEST DUP3 DUP2 GT ISZERO PUSH3 0x3F7 JUMPI DUP3 MLOAD DUP3 SWAP1 PUSH1 0xFF AND SWAP1 SSTORE SWAP2 PUSH1 0x20 ADD SWAP2 SWAP1 PUSH1 0x1 ADD SWAP1 PUSH3 0x3D5 JUMP JUMPDEST POP PUSH3 0x405 SWAP3 SWAP2 POP PUSH3 0x409 JUMP JUMPDEST POP SWAP1 JUMP JUMPDEST JUMPDEST DUP1 DUP3 GT ISZERO PUSH3 0x405 JUMPI PUSH1 0x0 DUP2 SSTORE PUSH1 0x1 ADD PUSH3 0x40A JUMP JUMPDEST PUSH2 0x12C3 DUP1 PUSH3 0x430 PUSH1 0x0 CODECOPY PUSH1 0x0 RETURN INVALID PUSH1 0x80 PUSH1 0x40 MSTORE PUSH1 0x4 CALLDATASIZE LT PUSH2 0x118 JUMPI PUSH1 0x0 CALLDATALOAD PUSH1 0xE0 SHR DUP1 PUSH4 0x9EBF1378 GT PUSH2 0xA0 JUMPI DUP1 PUSH4 0xCDC18424 GT PUSH2 0x64 JUMPI DUP1 PUSH4 0xCDC18424 EQ PUSH2 0x30F JUMPI DUP1 PUSH4 0xF0F9E975 EQ PUSH2 0x32F JUMPI DUP1 PUSH4 0xF2FDE38B EQ PUSH2 0x345 JUMPI DUP1 PUSH4 0xF528C62E EQ PUSH2 0x365 JUMPI DUP1 PUSH4 0xFA09E630 EQ PUSH2 0x385 JUMPI PUSH2 0x11F JUMP JUMPDEST DUP1 PUSH4 0x9EBF1378 EQ PUSH2 0x278 JUMPI DUP1 PUSH4 0xA8C2BB0D EQ PUSH2 0x28B JUMPI DUP1 PUSH4 0xB6B2A68D EQ PUSH2 0x2AD JUMPI DUP1 PUSH4 0xBC28D5D0 EQ PUSH2 0x2CD JUMPI DUP1 PUSH4 0xC82AD204 EQ PUSH2 0x2EF JUMPI PUSH2 0x11F JUMP JUMPDEST DUP1 PUSH4 0x50BF8649 GT PUSH2 0xE7 JUMPI DUP1 PUSH4 0x50BF8649 EQ PUSH2 0x1BC JUMPI DUP1 PUSH4 0x51B2E72D EQ PUSH2 0x1DF JUMPI DUP1 PUSH4 0x5A9B0B89 EQ PUSH2 0x1FF JUMPI DUP1 PUSH4 0x715018A6 EQ PUSH2 0x231 JUMPI DUP1 PUSH4 0x8DA5CB5B EQ PUSH2 0x246 JUMPI PUSH2 0x11F JUMP JUMPDEST DUP1 PUSH4 0xD174C24 EQ PUSH2 0x138 JUMPI DUP1 PUSH4 0x169374DC EQ PUSH2 0x15A JUMPI DUP1 PUSH4 0x2F6FC02E EQ PUSH2 0x16D JUMPI DUP1 PUSH4 0x3F3B7858 EQ PUSH2 0x19C JUMPI PUSH2 0x11F JUMP JUMPDEST CALLDATASIZE PUSH2 0x11F JUMPI STOP JUMPDEST PUSH1 0x40 MLOAD PUSH4 0x201F3FD3 PUSH1 0xE1 SHL DUP2 MSTORE PUSH1 0x4 ADD PUSH1 0x40 MLOAD DUP1 SWAP2 SUB SWAP1 REVERT JUMPDEST CALLVALUE DUP1 ISZERO PUSH2 0x144 JUMPI PUSH1 0x0 DUP1 REVERT JUMPDEST POP PUSH2 0x158 PUSH2 0x153 CALLDATASIZE PUSH1 0x4 PUSH2 0xF8C JUMP JUMPDEST PUSH2 0x3A5 JUMP JUMPDEST STOP JUMPDEST PUSH2 0x158 PUSH2 0x168 CALLDATASIZE PUSH1 0x4 PUSH2 0xFA7 JUMP JUMPDEST PUSH2 0x442 JUMP JUMPDEST CALLVALUE DUP1 ISZERO PUSH2 0x179 JUMPI PUSH1 0x0 DUP1 REVERT JUMPDEST POP PUSH1 0x2 SLOAD PUSH2 0x187 SWAP1 PUSH1 0xFF AND DUP2 JUMP JUMPDEST PUSH1 0x40 MLOAD SWAP1 ISZERO ISZERO DUP2 MSTORE PUSH1 0x20 ADD JUMPDEST PUSH1 0x40 MLOAD DUP1 SWAP2 SUB SWAP1 RETURN JUMPDEST CALLVALUE DUP1 ISZERO PUSH2 0x1A8 JUMPI PUSH1 0x0 DUP1 REVERT JUMPDEST POP PUSH2 0x158 PUSH2 0x1B7 CALLDATASIZE PUSH1 0x4 PUSH2 0x101F JUMP JUMPDEST PUSH2 0x698 JUMP JUMPDEST CALLVALUE DUP1 ISZERO PUSH2 0x1C8 JUMPI PUSH1 0x0 DUP1 REVERT JUMPDEST POP PUSH2 0x1D1 PUSH1 0x81 DUP2 JUMP JUMPDEST PUSH1 0x40 MLOAD SWAP1 DUP2 MSTORE PUSH1 0x20 ADD PUSH2 0x193 JUMP JUMPDEST CALLVALUE DUP1 ISZERO PUSH2 0x1EB JUMPI PUSH1 0x0 DUP1 REVERT JUMPDEST POP PUSH2 0x1D1 PUSH2 0x1FA CALLDATASIZE PUSH1 0x4 PUSH2 0x1061 JUMP JUMPDEST PUSH2 0x703 JUMP JUMPDEST CALLVALUE DUP1 ISZERO PUSH2 0x20B JUMPI PUSH1 0x0 DUP1 REVERT JUMPDEST POP PUSH2 0x214 PUSH2 0x724 JUMP JUMPDEST PUSH1 0x40 DUP1 MLOAD SWAP4 ISZERO ISZERO DUP5 MSTORE PUSH1 0x20 DUP5 ADD SWAP3 SWAP1 SWAP3 MSTORE SWAP1 DUP3 ADD MSTORE PUSH1 0x60 ADD PUSH2 0x193 JUMP JUMPDEST CALLVALUE DUP1 ISZERO PUSH2 0x23D JUMPI PUSH1 0x0 DUP1 REVERT JUMPDEST POP PUSH2 0x158 PUSH2 0x753 JUMP JUMPDEST CALLVALUE DUP1 ISZERO PUSH2 0x252 JUMPI PUSH1 0x0 DUP1 REVERT JUMPDEST POP PUSH1 0x0 SLOAD PUSH1 0x1 PUSH1 0x1 PUSH1 0xA0 SHL SUB AND JUMPDEST PUSH1 0x40 MLOAD PUSH1 0x1 PUSH1 0x1 PUSH1 0xA0 SHL SUB SWAP1 SWAP2 AND DUP2 MSTORE PUSH1 0x20 ADD PUSH2 0x193 JUMP JUMPDEST PUSH2 0x158 PUSH2 0x286 CALLDATASIZE PUSH1 0x4 PUSH2 0x107A JUMP JUMPDEST PUSH2 0x767 JUMP JUMPDEST CALLVALUE DUP1 ISZERO PUSH2 0x297 JUMPI PUSH1 0x0 DUP1 REVERT JUMPDEST POP PUSH2 0x2A0 PUSH2 0xA26 JUMP JUMPDEST PUSH1 0x40 MLOAD PUSH2 0x193 SWAP2 SWAP1 PUSH2 0x10AC JUMP JUMPDEST CALLVALUE DUP1 ISZERO PUSH2 0x2B9 JUMPI PUSH1 0x0 DUP1 REVERT JUMPDEST POP PUSH2 0x1D1 PUSH2 0x2C8 CALLDATASIZE PUSH1 0x4 PUSH2 0x1061 JUMP JUMPDEST PUSH2 0xA3B JUMP JUMPDEST CALLVALUE DUP1 ISZERO PUSH2 0x2D9 JUMPI PUSH1 0x0 DUP1 REVERT JUMPDEST POP PUSH2 0x2E2 PUSH2 0xA4B JUMP JUMPDEST PUSH1 0x40 MLOAD PUSH2 0x193 SWAP2 SWAP1 PUSH2 0x10E8 JUMP JUMPDEST CALLVALUE DUP1 ISZERO PUSH2 0x2FB JUMPI PUSH1 0x0 DUP1 REVERT JUMPDEST POP PUSH2 0x158 PUSH2 0x30A CALLDATASIZE PUSH1 0x4 PUSH2 0x1111 JUMP JUMPDEST PUSH2 0xA5B JUMP JUMPDEST CALLVALUE DUP1 ISZERO PUSH2 0x31B JUMPI PUSH1 0x0 DUP1 REVERT JUMPDEST POP PUSH1 0x6 SLOAD PUSH2 0x260 SWAP1 PUSH1 0x1 PUSH1 0x1 PUSH1 0xA0 SHL SUB AND DUP2 JUMP JUMPDEST CALLVALUE DUP1 ISZERO PUSH2 0x33B JUMPI PUSH1 0x0 DUP1 REVERT JUMPDEST POP PUSH2 0x1D1 PUSH1 0x3 SLOAD DUP2 JUMP JUMPDEST CALLVALUE DUP1 ISZERO PUSH2 0x351 JUMPI PUSH1 0x0 DUP1 REVERT JUMPDEST POP PUSH2 0x158 PUSH2 0x360 CALLDATASIZE PUSH1 0x4 PUSH2 0xF8C JUMP JUMPDEST PUSH2 0xAA4 JUMP JUMPDEST CALLVALUE DUP1 ISZERO PUSH2 0x371 JUMPI PUSH1 0x0 DUP1 REVERT JUMPDEST POP PUSH2 0x158 PUSH2 0x380 CALLDATASIZE PUSH1 0x4 PUSH2 0x117D JUMP JUMPDEST PUSH2 0xB1D JUMP JUMPDEST CALLVALUE DUP1 ISZERO PUSH2 0x391 JUMPI PUSH1 0x0 DUP1 REVERT JUMPDEST POP PUSH2 0x158 PUSH2 0x3A0 CALLDATASIZE PUSH1 0x4 PUSH2 0xF8C JUMP JUMPDEST PUSH2 0xBDC JUMP JUMPDEST PUSH1 0x6 SLOAD PUSH1 0x1 PUSH1 0x1 PUSH1 0xA0 SHL SUB AND CALLER EQ PUSH2 0x3D8 JUMPI PUSH1 0x40 MLOAD PUSH3 0x461BCD PUSH1 0xE5 SHL DUP2 MSTORE PUSH1 0x4 ADD PUSH2 0x3CF SWAP1 PUSH2 0x11A7 JUMP JUMPDEST PUSH1 0x40 MLOAD DUP1 SWAP2 SUB SWAP1 REVERT JUMPDEST PUSH1 0x1 PUSH1 0x1 PUSH1 0xA0 SHL SUB DUP2 AND PUSH2 0x420 JUMPI PUSH1 0x40 MLOAD PUSH3 0x461BCD PUSH1 0xE5 SHL DUP2 MSTORE PUSH1 0x20 PUSH1 0x4 DUP3 ADD MSTORE PUSH1 0xF PUSH1 0x24 DUP3 ADD MSTORE PUSH15 0x496E76616C69642061646472657373 PUSH1 0x88 SHL PUSH1 0x44 DUP3 ADD MSTORE PUSH1 0x64 ADD PUSH2 0x3CF JUMP JUMPDEST PUSH1 0x6 DUP1 SLOAD PUSH1 0x1 PUSH1 0x1 PUSH1 0xA0 SHL SUB NOT AND PUSH1 0x1 PUSH1 0x1 PUSH1 0xA0 SHL SUB SWAP3 SWAP1 SWAP3 AND SWAP2 SWAP1 SWAP2 OR SWAP1 SSTORE JUMP JUMPDEST PUSH2 0x44A PUSH2 0xC29 JUMP JUMPDEST PUSH2 0x452 PUSH2 0xC82 JUMP JUMPDEST PUSH1 0x0 PUSH1 0x9 PUSH2 0x463 PUSH1 0xFF DUP5 AND DUP6 PUSH2 0x11E5 JUMP JUMPDEST PUSH1 0x81 DUP2 LT PUSH2 0x473 JUMPI PUSH2 0x473 PUSH2 0x11F8 JUMP JUMPDEST ADD SLOAD PUSH1 0x2 SLOAD SWAP1 SWAP2 POP PUSH1 0xFF AND DUP1 ISZERO PUSH2 0x48C JUMPI POP PUSH1 0x3 SLOAD TIMESTAMP EQ ISZERO JUMPDEST ISZERO PUSH2 0x500 JUMPI PUSH1 0x8 SLOAD PUSH1 0x7 SLOAD PUSH1 0x40 MLOAD PUSH4 0xD4626BB9 PUSH1 0xE0 SHL DUP2 MSTORE PUSH2 0x805 SWAP3 PUSH4 0xD4626BB9 SWAP3 PUSH2 0x4C3 SWAP3 PUSH1 0x4 ADD SWAP2 DUP3 MSTORE PUSH1 0x20 DUP3 ADD MSTORE PUSH1 0x40 ADD SWAP1 JUMP JUMPDEST PUSH1 0x0 PUSH1 0x40 MLOAD DUP1 DUP4 SUB DUP2 PUSH1 0x0 DUP8 DUP1 EXTCODESIZE ISZERO DUP1 ISZERO PUSH2 0x4DD JUMPI PUSH1 0x0 DUP1 REVERT JUMPDEST POP GAS CALL ISZERO DUP1 ISZERO PUSH2 0x4F1 JUMPI RETURNDATASIZE PUSH1 0x0 DUP1 RETURNDATACOPY RETURNDATASIZE PUSH1 0x0 REVERT JUMPDEST POP POP PUSH1 0x2 DUP1 SLOAD PUSH1 0xFF NOT AND SWAP1 SSTORE POP POP JUMPDEST DUP4 ISZERO PUSH2 0x688 JUMPI PUSH1 0x4 SLOAD PUSH1 0x0 DUP1 JUMPDEST DUP3 DUP2 LT ISZERO PUSH2 0x5E3 JUMPI PUSH2 0x805 PUSH1 0x1 PUSH1 0x1 PUSH1 0xA0 SHL SUB AND PUSH4 0xE3B598FA PUSH1 0x4 DUP4 DUP2 SLOAD DUP2 LT PUSH2 0x539 JUMPI PUSH2 0x539 PUSH2 0x11F8 JUMP JUMPDEST SWAP1 PUSH1 0x0 MSTORE PUSH1 0x20 PUSH1 0x0 KECCAK256 ADD SLOAD PUSH1 0x5 DUP5 DUP2 SLOAD DUP2 LT PUSH2 0x557 JUMPI PUSH2 0x557 PUSH2 0x11F8 JUMP JUMPDEST PUSH1 0x0 SWAP2 DUP3 MSTORE PUSH1 0x20 SWAP1 SWAP2 KECCAK256 ADD SLOAD PUSH1 0x40 MLOAD PUSH1 0x1 PUSH1 0x1 PUSH1 0xE0 SHL SUB NOT PUSH1 0xE0 DUP6 SWAP1 SHL AND DUP2 MSTORE PUSH1 0x4 DUP2 ADD SWAP3 SWAP1 SWAP3 MSTORE PUSH1 0x24 DUP3 ADD MSTORE PUSH1 0x44 DUP2 ADD DUP8 SWAP1 MSTORE PUSH1 0x64 ADD PUSH1 0x20 PUSH1 0x40 MLOAD DUP1 DUP4 SUB DUP2 DUP7 GAS STATICCALL ISZERO DUP1 ISZERO PUSH2 0x5AB JUMPI RETURNDATASIZE PUSH1 0x0 DUP1 RETURNDATACOPY RETURNDATASIZE PUSH1 0x0 REVERT JUMPDEST POP POP POP POP PUSH1 0x40 MLOAD RETURNDATASIZE PUSH1 0x1F NOT PUSH1 0x1F DUP3 ADD AND DUP3 ADD DUP1 PUSH1 0x40 MSTORE POP DUP2 ADD SWAP1 PUSH2 0x5CF SWAP2 SWAP1 PUSH2 0x120E JUMP JUMPDEST PUSH2 0x5D9 SWAP1 DUP4 PUSH2 0x1227 JUMP JUMPDEST SWAP2 POP PUSH1 0x1 ADD PUSH2 0x50D JUMP JUMPDEST POP DUP1 ISZERO PUSH2 0x5F2 JUMPI POP POP POP PUSH2 0x68A JUMP JUMPDEST PUSH1 0x8 DUP5 SWAP1 SSTORE PUSH2 0x805 PUSH4 0x1FC9B141 DUP6 PUSH2 0x612 PUSH2 0x60D SELFBALANCE DUP12 PUSH2 0xCDC JUMP JUMPDEST PUSH2 0xCF6 JUMP JUMPDEST PUSH1 0x40 MLOAD PUSH1 0x1 PUSH1 0x1 PUSH1 0xE0 SHL SUB NOT PUSH1 0xE0 DUP6 SWAP1 SHL AND DUP2 MSTORE PUSH1 0x4 DUP2 ADD SWAP3 SWAP1 SWAP3 MSTORE PUSH1 0x24 DUP3 ADD MSTORE PUSH1 0x44 DUP2 ADD DUP7 SWAP1 MSTORE PUSH1 0x64 ADD PUSH1 0x0 PUSH1 0x40 MLOAD DUP1 DUP4 SUB DUP2 PUSH1 0x0 DUP8 DUP1 EXTCODESIZE ISZERO DUP1 ISZERO PUSH2 0x657 JUMPI PUSH1 0x0 DUP1 REVERT JUMPDEST POP GAS CALL ISZERO DUP1 ISZERO PUSH2 0x66B JUMPI RETURNDATASIZE PUSH1 0x0 DUP1 RETURNDATACOPY RETURNDATASIZE PUSH1 0x0 REVERT JUMPDEST POP POP PUSH1 0x2 DUP1 SLOAD PUSH1 0xFF NOT AND PUSH1 0x1 OR SWAP1 SSTORE POP POP POP PUSH1 0x7 DUP3 SWAP1 SSTORE POP TIMESTAMP PUSH1 0x3 SSTORE JUMPDEST POP JUMPDEST PUSH2 0x693 PUSH1 0x1 DUP1 SSTORE JUMP JUMPDEST POP POP POP JUMP JUMPDEST PUSH2 0x6A0 PUSH2 0xC82 JUMP JUMPDEST PUSH1 0x81 DUP2 EQ PUSH2 0x6C1 JUMPI PUSH1 0x40 MLOAD PUSH4 0x251F56A1 PUSH1 0xE2 SHL DUP2 MSTORE PUSH1 0x4 ADD PUSH1 0x40 MLOAD DUP1 SWAP2 SUB SWAP1 REVERT JUMPDEST PUSH1 0x0 JUMPDEST PUSH1 0x81 DUP2 LT ISZERO PUSH2 0x693 JUMPI DUP3 DUP3 DUP3 DUP2 DUP2 LT PUSH2 0x6DF JUMPI PUSH2 0x6DF PUSH2 0x11F8 JUMP JUMPDEST SWAP1 POP PUSH1 0x20 MUL ADD CALLDATALOAD PUSH1 0x9 DUP3 PUSH1 0x81 DUP2 LT PUSH2 0x6F9 JUMPI PUSH2 0x6F9 PUSH2 0x11F8 JUMP JUMPDEST ADD SSTORE PUSH1 0x1 ADD PUSH2 0x6C4 JUMP JUMPDEST PUSH1 0x5 DUP2 DUP2 SLOAD DUP2 LT PUSH2 0x713 JUMPI PUSH1 0x0 DUP1 REVERT JUMPDEST PUSH1 0x0 SWAP2 DUP3 MSTORE PUSH1 0x20 SWAP1 SWAP2 KECCAK256 ADD SLOAD SWAP1 POP DUP2 JUMP JUMPDEST PUSH1 0x2 SLOAD PUSH1 0xFF AND PUSH1 0x0 DUP1 PUSH2 0x73F PUSH1 0x0 SLOAD PUSH1 0x1 PUSH1 0x1 PUSH1 0xA0 SHL SUB AND SWAP1 JUMP JUMPDEST PUSH1 0x1 PUSH1 0x1 PUSH1 0xA0 SHL SUB AND BALANCE SWAP2 POP SELFBALANCE SWAP1 POP SWAP1 SWAP2 SWAP3 JUMP JUMPDEST PUSH2 0x75B PUSH2 0xC82 JUMP JUMPDEST PUSH2 0x765 PUSH1 0x0 PUSH2 0xD06 JUMP JUMPDEST JUMP JUMPDEST PUSH2 0x76F PUSH2 0xC29 JUMP JUMPDEST PUSH2 0x777 PUSH2 0xC82 JUMP JUMPDEST PUSH1 0x0 PUSH1 0x9 PUSH2 0x788 PUSH1 0xFF DUP5 AND DUP7 PUSH2 0x11E5 JUMP JUMPDEST PUSH1 0x81 DUP2 LT PUSH2 0x798 JUMPI PUSH2 0x798 PUSH2 0x11F8 JUMP JUMPDEST ADD SLOAD PUSH1 0x2 SLOAD SWAP1 SWAP2 POP PUSH1 0xFF AND DUP1 ISZERO PUSH2 0x7B1 JUMPI POP PUSH1 0x3 SLOAD TIMESTAMP EQ ISZERO JUMPDEST ISZERO PUSH2 0x825 JUMPI PUSH1 0x8 SLOAD PUSH1 0x7 SLOAD PUSH1 0x40 MLOAD PUSH4 0xD4626BB9 PUSH1 0xE0 SHL DUP2 MSTORE PUSH2 0x805 SWAP3 PUSH4 0xD4626BB9 SWAP3 PUSH2 0x7E8 SWAP3 PUSH1 0x4 ADD SWAP2 DUP3 MSTORE PUSH1 0x20 DUP3 ADD MSTORE PUSH1 0x40 ADD SWAP1 JUMP JUMPDEST PUSH1 0x0 PUSH1 0x40 MLOAD DUP1 DUP4 SUB DUP2 PUSH1 0x0 DUP8 DUP1 EXTCODESIZE ISZERO DUP1 ISZERO PUSH2 0x802 JUMPI PUSH1 0x0 DUP1 REVERT JUMPDEST POP GAS CALL ISZERO DUP1 ISZERO PUSH2 0x816 JUMPI RETURNDATASIZE PUSH1 0x0 DUP1 RETURNDATACOPY RETURNDATASIZE PUSH1 0x0 REVERT JUMPDEST POP POP PUSH1 0x2 DUP1 SLOAD PUSH1 0xFF NOT AND SWAP1 SSTORE POP POP JUMPDEST DUP5 ISZERO PUSH2 0xA15 JUMPI PUSH1 0x4 SLOAD PUSH1 0x0 DUP1 JUMPDEST DUP3 DUP2 LT ISZERO PUSH2 0x908 JUMPI PUSH2 0x805 PUSH1 0x1 PUSH1 0x1 PUSH1 0xA0 SHL SUB AND PUSH4 0xE3B598FA PUSH1 0x4 DUP4 DUP2 SLOAD DUP2 LT PUSH2 0x85E JUMPI PUSH2 0x85E PUSH2 0x11F8 JUMP JUMPDEST SWAP1 PUSH1 0x0 MSTORE PUSH1 0x20 PUSH1 0x0 KECCAK256 ADD SLOAD PUSH1 0x5 DUP5 DUP2 SLOAD DUP2 LT PUSH2 0x87C JUMPI PUSH2 0x87C PUSH2 0x11F8 JUMP JUMPDEST PUSH1 0x0 SWAP2 DUP3 MSTORE PUSH1 0x20 SWAP1 SWAP2 KECCAK256 ADD SLOAD PUSH1 0x40 MLOAD PUSH1 0x1 PUSH1 0x1 PUSH1 0xE0 SHL SUB NOT PUSH1 0xE0 DUP6 SWAP1 SHL AND DUP2 MSTORE PUSH1 0x4 DUP2 ADD SWAP3 SWAP1 SWAP3 MSTORE PUSH1 0x24 DUP3 ADD MSTORE PUSH1 0x44 DUP2 ADD DUP8 SWAP1 MSTORE PUSH1 0x64 ADD PUSH1 0x20 PUSH1 0x40 MLOAD DUP1 DUP4 SUB DUP2 DUP7 GAS STATICCALL ISZERO DUP1 ISZERO PUSH2 0x8D0 JUMPI RETURNDATASIZE PUSH1 0x0 DUP1 RETURNDATACOPY RETURNDATASIZE PUSH1 0x0 REVERT JUMPDEST POP POP POP POP PUSH1 0x40 MLOAD RETURNDATASIZE PUSH1 0x1F NOT PUSH1 0x1F DUP3 ADD AND DUP3 ADD DUP1 PUSH1 0x40 MSTORE POP DUP2 ADD SWAP1 PUSH2 0x8F4 SWAP2 SWAP1 PUSH2 0x120E JUMP JUMPDEST PUSH2 0x8FE SWAP1 DUP4 PUSH2 0x1227 JUMP JUMPDEST SWAP2 POP PUSH1 0x1 ADD PUSH2 0x832 JUMP JUMPDEST POP DUP1 ISZERO PUSH2 0x917 JUMPI POP POP POP PUSH2 0xA17 JUMP JUMPDEST PUSH1 0x40 MLOAD PUSH4 0x69E38BC3 PUSH1 0xE0 SHL DUP2 MSTORE PUSH2 0xFFFF DUP5 AND PUSH1 0x4 DUP3 ADD MSTORE DUP6 SWAP1 PUSH2 0x808 SWAP1 PUSH4 0x69E38BC3 SWAP1 PUSH1 0x24 ADD PUSH1 0x20 PUSH1 0x40 MLOAD DUP1 DUP4 SUB DUP2 DUP7 GAS STATICCALL ISZERO DUP1 ISZERO PUSH2 0x95A JUMPI RETURNDATASIZE PUSH1 0x0 DUP1 RETURNDATACOPY RETURNDATASIZE PUSH1 0x0 REVERT JUMPDEST POP POP POP POP PUSH1 0x40 MLOAD RETURNDATASIZE PUSH1 0x1F NOT PUSH1 0x1F DUP3 ADD AND DUP3 ADD DUP1 PUSH1 0x40 MSTORE POP DUP2 ADD SWAP1 PUSH2 0x97E SWAP2 SWAP1 PUSH2 0x120E JUMP JUMPDEST GT PUSH2 0xA12 JUMPI PUSH1 0x8 DUP5 SWAP1 SSTORE PUSH2 0x805 PUSH4 0x1FC9B141 DUP6 PUSH2 0x99E PUSH2 0x60D SELFBALANCE DUP13 PUSH2 0xCDC JUMP JUMPDEST PUSH1 0x40 MLOAD PUSH1 0x1 PUSH1 0x1 PUSH1 0xE0 SHL SUB NOT PUSH1 0xE0 DUP6 SWAP1 SHL AND DUP2 MSTORE PUSH1 0x4 DUP2 ADD SWAP3 SWAP1 SWAP3 MSTORE PUSH1 0x24 DUP3 ADD MSTORE PUSH1 0x44 DUP2 ADD DUP7 SWAP1 MSTORE PUSH1 0x64 ADD PUSH1 0x0 PUSH1 0x40 MLOAD DUP1 DUP4 SUB DUP2 PUSH1 0x0 DUP8 DUP1 EXTCODESIZE ISZERO DUP1 ISZERO PUSH2 0x9E3 JUMPI PUSH1 0x0 DUP1 REVERT JUMPDEST POP GAS CALL ISZERO DUP1 ISZERO PUSH2 0x9F7 JUMPI RETURNDATASIZE PUSH1 0x0 DUP1 RETURNDATACOPY RETURNDATASIZE PUSH1 0x0 REVERT JUMPDEST POP POP PUSH1 0x2 DUP1 SLOAD PUSH1 0xFF NOT AND PUSH1 0x1 OR SWAP1 SSTORE POP POP PUSH1 0x7 DUP4 SWAP1 SSTORE TIMESTAMP PUSH1 0x3 SSTORE JUMPDEST POP POP JUMPDEST POP JUMPDEST PUSH2 0xA20 PUSH1 0x1 DUP1 SSTORE JUMP JUMPDEST POP POP POP POP JUMP JUMPDEST PUSH2 0xA2E PUSH2 0xEFA JUMP JUMPDEST PUSH2 0xA36 PUSH2 0xD56 JUMP JUMPDEST SWAP1 POP SWAP1 JUMP JUMPDEST PUSH1 0x4 DUP2 DUP2 SLOAD DUP2 LT PUSH2 0x713 JUMPI PUSH1 0x0 DUP1 REVERT JUMPDEST PUSH2 0xA53 PUSH2 0xEFA JUMP JUMPDEST PUSH2 0xA36 PUSH2 0xE39 JUMP JUMPDEST PUSH2 0xA63 PUSH2 0xC29 JUMP JUMPDEST PUSH2 0xA6B PUSH2 0xC82 JUMP JUMPDEST DUP3 DUP2 EQ PUSH2 0xA8B JUMPI PUSH1 0x40 MLOAD PUSH4 0x512509D3 PUSH1 0xE1 SHL DUP2 MSTORE PUSH1 0x4 ADD PUSH1 0x40 MLOAD DUP1 SWAP2 SUB SWAP1 REVERT JUMPDEST PUSH2 0xA97 PUSH1 0x4 DUP6 DUP6 PUSH2 0xF19 JUMP JUMPDEST POP PUSH2 0xA15 PUSH1 0x5 DUP4 DUP4 PUSH2 0xF19 JUMP JUMPDEST PUSH2 0xAAC PUSH2 0xC82 JUMP JUMPDEST PUSH1 0x1 PUSH1 0x1 PUSH1 0xA0 SHL SUB DUP2 AND PUSH2 0xB11 JUMPI PUSH1 0x40 MLOAD PUSH3 0x461BCD PUSH1 0xE5 SHL DUP2 MSTORE PUSH1 0x20 PUSH1 0x4 DUP3 ADD MSTORE PUSH1 0x26 PUSH1 0x24 DUP3 ADD MSTORE PUSH32 0x4F776E61626C653A206E6577206F776E657220697320746865207A65726F2061 PUSH1 0x44 DUP3 ADD MSTORE PUSH6 0x646472657373 PUSH1 0xD0 SHL PUSH1 0x64 DUP3 ADD MSTORE PUSH1 0x84 ADD PUSH2 0x3CF JUMP JUMPDEST PUSH2 0xB1A DUP2 PUSH2 0xD06 JUMP JUMPDEST POP JUMP JUMPDEST PUSH1 0x6 SLOAD PUSH1 0x1 PUSH1 0x1 PUSH1 0xA0 SHL SUB AND CALLER EQ PUSH2 0xB47 JUMPI PUSH1 0x40 MLOAD PUSH3 0x461BCD PUSH1 0xE5 SHL DUP2 MSTORE PUSH1 0x4 ADD PUSH2 0x3CF SWAP1 PUSH2 0x11A7 JUMP JUMPDEST DUP1 PUSH1 0x0 SUB PUSH2 0xB68 JUMPI PUSH1 0x40 MLOAD PUSH4 0x65E52D51 PUSH1 0xE1 SHL DUP2 MSTORE PUSH1 0x4 ADD PUSH1 0x40 MLOAD DUP1 SWAP2 SUB SWAP1 REVERT JUMPDEST PUSH1 0x0 DUP3 PUSH1 0x1 PUSH1 0x1 PUSH1 0xA0 SHL SUB AND DUP3 PUSH1 0x40 MLOAD PUSH1 0x0 PUSH1 0x40 MLOAD DUP1 DUP4 SUB DUP2 DUP6 DUP8 GAS CALL SWAP3 POP POP POP RETURNDATASIZE DUP1 PUSH1 0x0 DUP2 EQ PUSH2 0xBB5 JUMPI PUSH1 0x40 MLOAD SWAP2 POP PUSH1 0x1F NOT PUSH1 0x3F RETURNDATASIZE ADD AND DUP3 ADD PUSH1 0x40 MSTORE RETURNDATASIZE DUP3 MSTORE RETURNDATASIZE PUSH1 0x0 PUSH1 0x20 DUP5 ADD RETURNDATACOPY PUSH2 0xBBA JUMP JUMPDEST PUSH1 0x60 SWAP2 POP JUMPDEST POP POP SWAP1 POP DUP1 PUSH2 0x693 JUMPI PUSH1 0x40 MLOAD PUSH4 0x12171D83 PUSH1 0xE3 SHL DUP2 MSTORE PUSH1 0x4 ADD PUSH1 0x40 MLOAD DUP1 SWAP2 SUB SWAP1 REVERT JUMPDEST PUSH1 0x6 SLOAD PUSH1 0x1 PUSH1 0x1 PUSH1 0xA0 SHL SUB AND CALLER EQ PUSH2 0xC06 JUMPI PUSH1 0x40 MLOAD PUSH3 0x461BCD PUSH1 0xE5 SHL DUP2 MSTORE PUSH1 0x4 ADD PUSH2 0x3CF SWAP1 PUSH2 0x11A7 JUMP JUMPDEST SELFBALANCE PUSH1 0x0 DUP2 SWAP1 SUB PUSH2 0xB68 JUMPI PUSH1 0x40 MLOAD PUSH4 0x65E52D51 PUSH1 0xE1 SHL DUP2 MSTORE PUSH1 0x4 ADD PUSH1 0x40 MLOAD DUP1 SWAP2 SUB SWAP1 REVERT JUMPDEST PUSH1 0x2 PUSH1 0x1 SLOAD SUB PUSH2 0xC7B JUMPI PUSH1 0x40 MLOAD PUSH3 0x461BCD PUSH1 0xE5 SHL DUP2 MSTORE PUSH1 0x20 PUSH1 0x4 DUP3 ADD MSTORE PUSH1 0x1F PUSH1 0x24 DUP3 ADD MSTORE PUSH32 0x5265656E7472616E637947756172643A207265656E7472616E742063616C6C00 PUSH1 0x44 DUP3 ADD MSTORE PUSH1 0x64 ADD PUSH2 0x3CF JUMP JUMPDEST PUSH1 0x2 PUSH1 0x1 SSTORE JUMP JUMPDEST PUSH1 0x0 SLOAD PUSH1 0x1 PUSH1 0x1 PUSH1 0xA0 SHL SUB AND CALLER EQ PUSH2 0x765 JUMPI PUSH1 0x40 MLOAD PUSH3 0x461BCD PUSH1 0xE5 SHL DUP2 MSTORE PUSH1 0x20 PUSH1 0x4 DUP3 ADD DUP2 SWAP1 MSTORE PUSH1 0x24 DUP3 ADD MSTORE PUSH32 0x4F776E61626C653A2063616C6C6572206973206E6F7420746865206F776E6572 PUSH1 0x44 DUP3 ADD MSTORE PUSH1 0x64 ADD PUSH2 0x3CF JUMP JUMPDEST PUSH1 0x0 DUP2 DUP4 LT PUSH2 0xCEB JUMPI DUP2 PUSH2 0xCED JUMP JUMPDEST DUP3 JUMPDEST SWAP1 POP JUMPDEST SWAP3 SWAP2 POP POP JUMP JUMPDEST PUSH1 0x0 PUSH2 0xCF0 PUSH4 0x3B9ACA00 DUP4 PUSH2 0x123A JUMP JUMPDEST PUSH1 0x0 DUP1 SLOAD PUSH1 0x1 PUSH1 0x1 PUSH1 0xA0 SHL SUB DUP4 DUP2 AND PUSH1 0x1 PUSH1 0x1 PUSH1 0xA0 SHL SUB NOT DUP4 AND DUP2 OR DUP5 SSTORE PUSH1 0x40 MLOAD SWAP2 SWAP1 SWAP3 AND SWAP3 DUP4 SWAP2 PUSH32 0x8BE0079C531659141344CD1FD0A4F28419497F9722A3DAAFE3B4186F6B6457E0 SWAP2 SWAP1 LOG3 POP POP JUMP JUMPDEST PUSH2 0xD5E PUSH2 0xEFA JUMP JUMPDEST PUSH1 0x0 JUMPDEST PUSH1 0x81 PUSH2 0xFFFF DUP3 AND LT ISZERO PUSH2 0xE35 JUMPI PUSH1 0x40 MLOAD PUSH4 0x2D9BFC71 PUSH1 0xE0 SHL DUP2 MSTORE PUSH2 0xFFFF DUP3 AND PUSH1 0x4 DUP3 ADD MSTORE PUSH2 0x808 SWAP1 PUSH4 0x2D9BFC71 SWAP1 PUSH1 0x24 ADD PUSH1 0x20 PUSH1 0x40 MLOAD DUP1 DUP4 SUB DUP2 DUP7 GAS STATICCALL SWAP3 POP POP POP DUP1 ISZERO PUSH2 0xDCB JUMPI POP PUSH1 0x40 DUP1 MLOAD PUSH1 0x1F RETURNDATASIZE SWAP1 DUP2 ADD PUSH1 0x1F NOT AND DUP3 ADD SWAP1 SWAP3 MSTORE PUSH2 0xDC8 SWAP2 DUP2 ADD SWAP1 PUSH2 0x125C JUMP JUMPDEST PUSH1 0x1 JUMPDEST PUSH2 0xE00 JUMPI PUSH1 0x0 DUP3 DUP3 PUSH2 0xFFFF AND PUSH1 0x81 DUP2 LT PUSH2 0xDE7 JUMPI PUSH2 0xDE7 PUSH2 0x11F8 JUMP JUMPDEST PUSH8 0xFFFFFFFFFFFFFFFF SWAP1 SWAP3 AND PUSH1 0x20 SWAP3 SWAP1 SWAP3 MUL ADD MSTORE PUSH2 0xE2D JUMP JUMPDEST DUP1 DUP4 DUP4 PUSH2 0xFFFF AND PUSH1 0x81 DUP2 LT PUSH2 0xE17 JUMPI PUSH2 0xE17 PUSH2 0x11F8 JUMP JUMPDEST PUSH8 0xFFFFFFFFFFFFFFFF SWAP1 SWAP3 AND PUSH1 0x20 SWAP3 SWAP1 SWAP3 MUL ADD MSTORE POP JUMPDEST PUSH1 0x1 ADD PUSH2 0xD61 JUMP JUMPDEST POP SWAP1 JUMP JUMPDEST PUSH2 0xE41 PUSH2 0xEFA JUMP JUMPDEST PUSH1 0x0 JUMPDEST PUSH1 0x81 PUSH2 0xFFFF DUP3 AND LT ISZERO PUSH2 0xE35 JUMPI PUSH1 0x40 MLOAD PUSH4 0x69E38BC3 PUSH1 0xE0 SHL DUP2 MSTORE PUSH2 0xFFFF DUP3 AND PUSH1 0x4 DUP3 ADD MSTORE PUSH2 0x808 SWAP1 PUSH4 0x69E38BC3 SWAP1 PUSH1 0x24 ADD PUSH1 0x20 PUSH1 0x40 MLOAD DUP1 DUP4 SUB DUP2 DUP7 GAS STATICCALL SWAP3 POP POP POP DUP1 ISZERO PUSH2 0xEAE JUMPI POP PUSH1 0x40 DUP1 MLOAD PUSH1 0x1F RETURNDATASIZE SWAP1 DUP2 ADD PUSH1 0x1F NOT AND DUP3 ADD SWAP1 SWAP3 MSTORE PUSH2 0xEAB SWAP2 DUP2 ADD SWAP1 PUSH2 0x120E JUMP JUMPDEST PUSH1 0x1 JUMPDEST PUSH2 0xED4 JUMPI PUSH1 0x0 DUP3 DUP3 PUSH2 0xFFFF AND PUSH1 0x81 DUP2 LT PUSH2 0xECA JUMPI PUSH2 0xECA PUSH2 0x11F8 JUMP JUMPDEST PUSH1 0x20 MUL ADD MSTORE PUSH2 0xEF2 JUMP JUMPDEST DUP1 DUP4 DUP4 PUSH2 0xFFFF AND PUSH1 0x81 DUP2 LT PUSH2 0xEEB JUMPI PUSH2 0xEEB PUSH2 0x11F8 JUMP JUMPDEST PUSH1 0x20 MUL ADD MSTORE POP JUMPDEST PUSH1 0x1 ADD PUSH2 0xE44 JUMP JUMPDEST PUSH1 0x40 MLOAD DUP1 PUSH2 0x1020 ADD PUSH1 0x40 MSTORE DUP1 PUSH1 0x81 SWAP1 PUSH1 0x20 DUP3 MUL DUP1 CALLDATASIZE DUP4 CALLDATACOPY POP SWAP2 SWAP3 SWAP2 POP POP JUMP JUMPDEST DUP3 DUP1 SLOAD DUP3 DUP3 SSTORE SWAP1 PUSH1 0x0 MSTORE PUSH1 0x20 PUSH1 0x0 KECCAK256 SWAP1 DUP2 ADD SWAP3 DUP3 ISZERO PUSH2 0xF54 JUMPI SWAP2 PUSH1 0x20 MUL DUP3 ADD JUMPDEST DUP3 DUP2 GT ISZERO PUSH2 0xF54 JUMPI DUP3 CALLDATALOAD DUP3 SSTORE SWAP2 PUSH1 0x20 ADD SWAP2 SWAP1 PUSH1 0x1 ADD SWAP1 PUSH2 0xF39 JUMP JUMPDEST POP PUSH2 0xE35 SWAP3 SWAP2 POP JUMPDEST DUP1 DUP3 GT ISZERO PUSH2 0xE35 JUMPI PUSH1 0x0 DUP2 SSTORE PUSH1 0x1 ADD PUSH2 0xF5C JUMP JUMPDEST DUP1 CALLDATALOAD PUSH1 0x1 PUSH1 0x1 PUSH1 0xA0 SHL SUB DUP2 AND DUP2 EQ PUSH2 0xF87 JUMPI PUSH1 0x0 DUP1 REVERT JUMPDEST SWAP2 SWAP1 POP JUMP JUMPDEST PUSH1 0x0 PUSH1 0x20 DUP3 DUP5 SUB SLT ISZERO PUSH2 0xF9E JUMPI PUSH1 0x0 DUP1 REVERT JUMPDEST PUSH2 0xCED DUP3 PUSH2 0xF70 JUMP JUMPDEST PUSH1 0x0 DUP1 PUSH1 0x0 PUSH1 0x60 DUP5 DUP7 SUB SLT ISZERO PUSH2 0xFBC JUMPI PUSH1 0x0 DUP1 REVERT JUMPDEST POP POP DUP2 CALLDATALOAD SWAP4 PUSH1 0x20 DUP4 ADD CALLDATALOAD SWAP4 POP PUSH1 0x40 SWAP1 SWAP3 ADD CALLDATALOAD SWAP2 SWAP1 POP JUMP JUMPDEST PUSH1 0x0 DUP1 DUP4 PUSH1 0x1F DUP5 ADD SLT PUSH2 0xFE5 JUMPI PUSH1 0x0 DUP1 REVERT JUMPDEST POP DUP2 CALLDATALOAD PUSH8 0xFFFFFFFFFFFFFFFF DUP2 GT ISZERO PUSH2 0xFFD JUMPI PUSH1 0x0 DUP1 REVERT JUMPDEST PUSH1 0x20 DUP4 ADD SWAP2 POP DUP4 PUSH1 0x20 DUP3 PUSH1 0x5 SHL DUP6 ADD ADD GT ISZERO PUSH2 0x1018 JUMPI PUSH1 0x0 DUP1 REVERT JUMPDEST SWAP3 POP SWAP3 SWAP1 POP JUMP JUMPDEST PUSH1 0x0 DUP1 PUSH1 0x20 DUP4 DUP6 SUB SLT ISZERO PUSH2 0x1032 JUMPI PUSH1 0x0 DUP1 REVERT JUMPDEST DUP3 CALLDATALOAD PUSH8 0xFFFFFFFFFFFFFFFF DUP2 GT ISZERO PUSH2 0x1049 JUMPI PUSH1 0x0 DUP1 REVERT JUMPDEST PUSH2 0x1055 DUP6 DUP3 DUP7 ADD PUSH2 0xFD3 JUMP JUMPDEST SWAP1 SWAP7 SWAP1 SWAP6 POP SWAP4 POP POP POP POP JUMP JUMPDEST PUSH1 0x0 PUSH1 0x20 DUP3 DUP5 SUB SLT ISZERO PUSH2 0x1073 JUMPI PUSH1 0x0 DUP1 REVERT JUMPDEST POP CALLDATALOAD SWAP2 SWAP1 POP JUMP JUMPDEST PUSH1 0x0 DUP1 PUSH1 0x0 DUP1 PUSH1 0x80 DUP6 DUP8 SUB SLT ISZERO PUSH2 0x1090 JUMPI PUSH1 0x0 DUP1 REVERT JUMPDEST POP POP DUP3 CALLDATALOAD SWAP5 PUSH1 0x20 DUP5 ADD CALLDATALOAD SWAP5 POP PUSH1 0x40 DUP5 ADD CALLDATALOAD SWAP4 PUSH1 0x60 ADD CALLDATALOAD SWAP3 POP SWAP1 POP JUMP JUMPDEST PUSH2 0x1020 DUP2 ADD DUP2 DUP4 PUSH1 0x0 JUMPDEST PUSH1 0x81 DUP2 LT ISZERO PUSH2 0x10DF JUMPI DUP2 MLOAD PUSH8 0xFFFFFFFFFFFFFFFF AND DUP4 MSTORE PUSH1 0x20 SWAP3 DUP4 ADD SWAP3 SWAP1 SWAP2 ADD SWAP1 PUSH1 0x1 ADD PUSH2 0x10B6 JUMP JUMPDEST POP POP POP SWAP3 SWAP2 POP POP JUMP JUMPDEST PUSH2 0x1020 DUP2 ADD DUP2 DUP4 PUSH1 0x0 JUMPDEST PUSH1 0x81 DUP2 LT ISZERO PUSH2 0x10DF JUMPI DUP2 MLOAD DUP4 MSTORE PUSH1 0x20 SWAP3 DUP4 ADD SWAP3 SWAP1 SWAP2 ADD SWAP1 PUSH1 0x1 ADD PUSH2 0x10F2 JUMP JUMPDEST PUSH1 0x0 DUP1 PUSH1 0x0 DUP1 PUSH1 0x40 DUP6 DUP8 SUB SLT ISZERO PUSH2 0x1127 JUMPI PUSH1 0x0 DUP1 REVERT JUMPDEST DUP5 CALLDATALOAD PUSH8 0xFFFFFFFFFFFFFFFF DUP1 DUP3 GT ISZERO PUSH2 0x113F JUMPI PUSH1 0x0 DUP1 REVERT JUMPDEST PUSH2 0x114B DUP9 DUP4 DUP10 ADD PUSH2 0xFD3 JUMP JUMPDEST SWAP1 SWAP7 POP SWAP5 POP PUSH1 0x20 DUP8 ADD CALLDATALOAD SWAP2 POP DUP1 DUP3 GT ISZERO PUSH2 0x1164 JUMPI PUSH1 0x0 DUP1 REVERT JUMPDEST POP PUSH2 0x1171 DUP8 DUP3 DUP9 ADD PUSH2 0xFD3 JUMP JUMPDEST SWAP6 SWAP9 SWAP5 SWAP8 POP SWAP6 POP POP POP POP JUMP JUMPDEST PUSH1 0x0 DUP1 PUSH1 0x40 DUP4 DUP6 SUB SLT ISZERO PUSH2 0x1190 JUMPI PUSH1 0x0 DUP1 REVERT JUMPDEST PUSH2 0x1199 DUP4 PUSH2 0xF70 JUMP JUMPDEST SWAP5 PUSH1 0x20 SWAP4 SWAP1 SWAP4 ADD CALLDATALOAD SWAP4 POP POP POP JUMP JUMPDEST PUSH1 0x20 DUP1 DUP3 MSTORE PUSH1 0xE SWAP1 DUP3 ADD MSTORE PUSH14 0x2737BA103BB4BA34323930BBB2B9 PUSH1 0x91 SHL PUSH1 0x40 DUP3 ADD MSTORE PUSH1 0x60 ADD SWAP1 JUMP JUMPDEST PUSH4 0x4E487B71 PUSH1 0xE0 SHL PUSH1 0x0 MSTORE PUSH1 0x11 PUSH1 0x4 MSTORE PUSH1 0x24 PUSH1 0x0 REVERT JUMPDEST DUP2 DUP2 SUB DUP2 DUP2 GT ISZERO PUSH2 0xCF0 JUMPI PUSH2 0xCF0 PUSH2 0x11CF JUMP JUMPDEST PUSH4 0x4E487B71 PUSH1 0xE0 SHL PUSH1 0x0 MSTORE PUSH1 0x32 PUSH1 0x4 MSTORE PUSH1 0x24 PUSH1 0x0 REVERT JUMPDEST PUSH1 0x0 PUSH1 0x20 DUP3 DUP5 SUB SLT ISZERO PUSH2 0x1220 JUMPI PUSH1 0x0 DUP1 REVERT JUMPDEST POP MLOAD SWAP2 SWAP1 POP JUMP JUMPDEST DUP1 DUP3 ADD DUP1 DUP3 GT ISZERO PUSH2 0xCF0 JUMPI PUSH2 0xCF0 PUSH2 0x11CF JUMP JUMPDEST PUSH1 0x0 DUP3 PUSH2 0x1257 JUMPI PUSH4 0x4E487B71 PUSH1 0xE0 SHL PUSH1 0x0 MSTORE PUSH1 0x12 PUSH1 0x4 MSTORE PUSH1 0x24 PUSH1 0x0 REVERT JUMPDEST POP DIV SWAP1 JUMP JUMPDEST PUSH1 0x0 PUSH1 0x20 DUP3 DUP5 SUB SLT ISZERO PUSH2 0x126E JUMPI PUSH1 0x0 DUP1 REVERT JUMPDEST DUP2 MLOAD PUSH8 0xFFFFFFFFFFFFFFFF DUP2 AND DUP2 EQ PUSH2 0x1286 JUMPI PUSH1 0x0 DUP1 REVERT JUMPDEST SWAP4 SWAP3 POP POP POP JUMP INVALID LOG2 PUSH5 0x6970667358 0x22 SLT KECCAK256 PUSH31 0x59062C8BB91119CB2D08ECECB28EA003968D1CFFC0F4AB0A3847A96C10A48C PUSH5 0x736F6C6343 STOP ADDMOD AND STOP CALLER "},"methodIdentifiers":{"ForceStake(uint256,uint256,bytes32)":"169374dc","NETUID_COUNT()":"50bf8649","emergencyWithdrawTao(address,uint256)":"f528c62e","getAlphaPrices()":"bc28d5d0","getInfo()":"5a9b0b89","getTaoInPools()":"a8c2bb0d","is_staked()":"2f6fc02e","lastStakeTimestamp()":"f0f9e975","mevColdkeyBytesKeys(uint256)":"51b2e72d","mevHotkeyBytesKeys(uint256)":"b6b2a68d","owner()":"8da5cb5b","renounceOwnership()":"715018a6","setWithdrawer(address)":"0d174c24","stakeTaoForAlpha(uint256,uint256,uint256,bytes32)":"9ebf1378","transferOwnership(address)":"f2fde38b","updateMevKeys(bytes32[],bytes32[])":"c82ad204","updateNetuids(uint256[])":"3f3b7858","withdrawAll(address)":"fa09e630","withdrawer()":"cdc18424"}}}}}