{"contracts/TradingV8_2.sol":{"TradingV8_2":{"abi":[{"inputs":[],"stateMutability":"nonpayable","type":"constructor"},{"inputs":[],"name":"AmountTooLarge","type":"error"},{"inputs":[],"name":"AmountZero","type":"error"},{"inputs":[],"name":"ArrayLengthMismatch","type":"error"},{"inputs":[],"name":"FunctionNotFound","type":"error"},{"inputs":[],"name":"InvalidAddress","type":"error"},{"inputs":[],"name":"InvalidBytesKey","type":"error"},{"inputs":[],"name":"NotOwner","type":"error"},{"inputs":[],"name":"NotOwnerOrWithdrawer","type":"error"},{"inputs":[],"name":"NotWithdrawer","type":"error"},{"inputs":[],"name":"OutsideWithdrawWindow","type":"error"},{"inputs":[],"name":"Rocked","type":"error"},{"inputs":[],"name":"TransferFailed","type":"error"},{"inputs":[],"name":"WithdrawTooSoon","type":"error"},{"stateMutability":"payable","type":"fallback"},{"inputs":[],"name":"DELEGATOR_COLDKEY","outputs":[{"internalType":"bytes32","name":"","type":"bytes32"}],"stateMutability":"view","type":"function"},{"inputs":[],"name":"DELEGATOR_HOTKEY","outputs":[{"internalType":"bytes32","name":"","type":"bytes32"}],"stateMutability":"view","type":"function"},{"inputs":[{"internalType":"uint256[]","name":"netuids","type":"uint256[]"},{"internalType":"uint256[]","name":"amounts","type":"uint256[]"},{"internalType":"uint256[]","name":"limitPrices","type":"uint256[]"}],"name":"addStakeLimits","outputs":[],"stateMutability":"nonpayable","type":"function"},{"inputs":[{"internalType":"uint256","name":"amount","type":"uint256"}],"name":"addStakeToRoot","outputs":[],"stateMutability":"nonpayable","type":"function"},{"inputs":[],"name":"addStakeToRootFull","outputs":[],"stateMutability":"nonpayable","type":"function"},{"inputs":[],"name":"contractBytesKey","outputs":[{"internalType":"bytes32","name":"","type":"bytes32"}],"stateMutability":"view","type":"function"},{"inputs":[],"name":"getAlphaInPools","outputs":[{"internalType":"uint64[129]","name":"alphaInPools","type":"uint64[129]"}],"stateMutability":"view","type":"function"},{"inputs":[],"name":"getAlphaPrices","outputs":[{"internalType":"uint256[129]","name":"alphaPrices","type":"uint256[129]"}],"stateMutability":"view","type":"function"},{"inputs":[{"internalType":"uint256[]","name":"netuids","type":"uint256[]"},{"internalType":"bytes32[]","name":"_mevHotkeyBytesKeys","type":"bytes32[]"},{"internalType":"bytes32[]","name":"_mevColdkeyBytesKeys","type":"bytes32[]"}],"name":"getMevStakedAmounts","outputs":[{"internalType":"uint256[]","name":"amounts","type":"uint256[]"}],"stateMutability":"view","type":"function"},{"inputs":[{"internalType":"bytes32[]","name":"hotkeys","type":"bytes32[]"},{"internalType":"bytes32[]","name":"coldkeys","type":"bytes32[]"}],"name":"getStakedAmounts","outputs":[{"internalType":"uint256[129]","name":"amounts","type":"uint256[129]"}],"stateMutability":"view","type":"function"},{"inputs":[],"name":"getTaoInPools","outputs":[{"internalType":"uint64[129]","name":"taoInPools","type":"uint64[129]"}],"stateMutability":"view","type":"function"},{"inputs":[],"name":"getTradingInfo","outputs":[{"internalType":"uint256[129]","name":"alphaPrices","type":"uint256[129]"},{"internalType":"uint64[129]","name":"taoInPools","type":"uint64[129]"},{"internalType":"uint64[129]","name":"alphaInPools","type":"uint64[129]"},{"internalType":"uint256[129]","name":"limitPrices","type":"uint256[129]"},{"internalType":"uint256[129]","name":"stakedAmounts","type":"uint256[129]"},{"internalType":"uint256[]","name":"mevFreeBalances","type":"uint256[]"},{"internalType":"uint256","name":"freeBalance","type":"uint256"},{"internalType":"uint256","name":"ownerBalance","type":"uint256"}],"stateMutability":"view","type":"function"},{"inputs":[{"internalType":"uint256","name":"","type":"uint256"}],"name":"lastLimitPrices","outputs":[{"internalType":"uint256","name":"","type":"uint256"}],"stateMutability":"view","type":"function"},{"inputs":[],"name":"lastWithdrawSmallTime","outputs":[{"internalType":"uint256","name":"","type":"uint256"}],"stateMutability":"view","type":"function"},{"inputs":[{"internalType":"uint256[]","name":"netuids","type":"uint256[]"},{"internalType":"uint256[]","name":"amounts","type":"uint256[]"},{"internalType":"bytes32[]","name":"_mevHotkeyBytesKeys","type":"bytes32[]"},{"internalType":"bytes32[]","name":"_mevColdkeyBytesKeys","type":"bytes32[]"},{"internalType":"uint256[]","name":"min_alphas","type":"uint256[]"},{"internalType":"bool","name":"is_mine_staked","type":"bool"}],"name":"mevAddStakes","outputs":[],"stateMutability":"nonpayable","type":"function"},{"inputs":[{"internalType":"uint256","name":"","type":"uint256"}],"name":"mevAddresses","outputs":[{"internalType":"address","name":"","type":"address"}],"stateMutability":"view","type":"function"},{"inputs":[{"internalType":"uint256[]","name":"netuids","type":"uint256[]"},{"internalType":"bytes32[]","name":"_mevHotkeyBytesKeys","type":"bytes32[]"},{"internalType":"bytes32[]","name":"_mevColdkeyBytesKeys","type":"bytes32[]"},{"internalType":"uint256[]","name":"min_alphas","type":"uint256[]"}],"name":"mevRemoveStakes","outputs":[],"stateMutability":"nonpayable","type":"function"},{"inputs":[{"internalType":"bytes32","name":"destination_coldkey","type":"bytes32"}],"name":"moveStakeAll","outputs":[],"stateMutability":"nonpayable","type":"function"},{"inputs":[],"name":"owner","outputs":[{"internalType":"address","name":"","type":"address"}],"stateMutability":"view","type":"function"},{"inputs":[{"internalType":"uint256","name":"amount","type":"uint256"}],"name":"removeStakeFromRoot","outputs":[],"stateMutability":"nonpayable","type":"function"},{"inputs":[],"name":"removeStakeFromRootFull","outputs":[],"stateMutability":"nonpayable","type":"function"},{"inputs":[{"internalType":"uint256[]","name":"netuids","type":"uint256[]"},{"internalType":"uint256[]","name":"limitPrices","type":"uint256[]"}],"name":"removeStakeLimits","outputs":[],"stateMutability":"nonpayable","type":"function"},{"inputs":[],"name":"rocked","outputs":[{"internalType":"bool","name":"","type":"bool"}],"stateMutability":"view","type":"function"},{"inputs":[{"internalType":"address","name":"newWithdrawer","type":"address"},{"internalType":"bytes32","name":"newDelegatorColdkey","type":"bytes32"}],"name":"setConfig","outputs":[],"stateMutability":"nonpayable","type":"function"},{"inputs":[{"internalType":"uint256[]","name":"netuids","type":"uint256[]"},{"internalType":"uint256[]","name":"limitPrices","type":"uint256[]"}],"name":"setLimitPrices","outputs":[],"stateMutability":"nonpayable","type":"function"},{"inputs":[],"name":"setRock","outputs":[],"stateMutability":"nonpayable","type":"function"},{"inputs":[{"internalType":"address","name":"newWithdrawer","type":"address"}],"name":"setWithdrawer","outputs":[],"stateMutability":"nonpayable","type":"function"},{"inputs":[],"name":"unRock","outputs":[],"stateMutability":"nonpayable","type":"function"},{"inputs":[{"internalType":"bytes32","name":"newContractBytesKey","type":"bytes32"}],"name":"updateContractBytesKey","outputs":[],"stateMutability":"nonpayable","type":"function"},{"inputs":[{"internalType":"address[]","name":"newMevAddresses","type":"address[]"}],"name":"updateMevAddresses","outputs":[],"stateMutability":"nonpayable","type":"function"},{"inputs":[{"internalType":"address","name":"to","type":"address"}],"name":"withdrawAll","outputs":[],"stateMutability":"nonpayable","type":"function"},{"inputs":[{"internalType":"address","name":"to","type":"address"},{"internalType":"uint256","name":"amount","type":"uint256"}],"name":"withdrawBig","outputs":[],"stateMutability":"nonpayable","type":"function"},{"inputs":[{"internalType":"address","name":"to","type":"address"},{"internalType":"uint256","name":"amount","type":"uint256"}],"name":"withdrawSmall","outputs":[],"stateMutability":"nonpayable","type":"function"},{"inputs":[],"name":"withdrawer","outputs":[{"internalType":"address","name":"","type":"address"}],"stateMutability":"view","type":"function"},{"stateMutability":"payable","type":"receive"}],"evm":{"bytecode":{"linkReferences":{},"object":"608060405234801561001057600080fd5b506001600055608480546001600160a01b031990811633908117909255608580549091169091179055613069806100486000396000f3fe6080604052600436106101fd5760003560e01c80639d2736cc1161010d578063c74db335116100a0578063e2edac251161006f578063e2edac25146105d6578063e8d23d2a146105f6578063f4f1726b1461060b578063f9036f021461062b578063fa09e6301461064b57610204565b8063c74db33514610561578063cdc1842414610581578063d7d31ae3146105a1578063e2157244146105c157610204565b8063bb817a1a116100dc578063bb817a1a146104f5578063bc28d5d014610515578063be7b5a641461052a578063c6c4a86f1461053f57610204565b80639d2736cc1461047e5780639e6eb20b1461049e578063a7678775146104c0578063a8c2bb0d146104e057610204565b806358c0b896116101905780638799111f1161015f5780638799111f146103db578063892208c5146103fb5780638da5cb5b14610410578063947d3c3f14610448578063987d0e591461045e57610204565b806358c0b89614610365578063646e569b1461038557806364ee6aec146103a55780637e11ca0a146103bb57610204565b806326a224e0116101cc57806326a224e0146102c5578063276ef789146102f25780633004c5021461031b5780633383dfe51461033b57610204565b80630d16ab811461021d5780630d174c241461025357806313cd4940146102755780631f20ff4c146102a557610204565b3661020457005b60405163201f3fd360e11b815260040160405180910390fd5b34801561022957600080fd5b5061023d610238366004612a1e565b61066b565b60405161024a9190612af4565b60405180910390f35b34801561025f57600080fd5b5061027361026e366004612b2a565b610734565b005b34801561028157600080fd5b5061029760008051602061301483398151915281565b60405190815260200161024a565b3480156102b157600080fd5b506102736102c0366004612b55565b6107a8565b3480156102d157600080fd5b506102e56102e0366004612c56565b610c9a565b60405161024a9190612ce5565b3480156102fe57600080fd5b50610307610dce565b60405161024a989796959493929190612d27565b34801561032757600080fd5b50610273610336366004612a1e565b610f21565b34801561034757600080fd5b506087546103559060ff1681565b604051901515815260200161024a565b34801561037157600080fd5b50610273610380366004612d9b565b6113ca565b34801561039157600080fd5b506102736103a0366004612c56565b611492565b3480156103b157600080fd5b5061029760865481565b3480156103c757600080fd5b506102736103d6366004612db4565b611744565b3480156103e757600080fd5b506102736103f6366004612d9b565b6118b3565b34801561040757600080fd5b50610273611940565b34801561041c57600080fd5b50608554610430906001600160a01b031681565b6040516001600160a01b03909116815260200161024a565b34801561045457600080fd5b5061029760025481565b34801561046a57600080fd5b50610273610479366004612dde565b6119ff565b34801561048a57600080fd5b50610273610499366004612d9b565b611a3b565b3480156104aa57600080fd5b506104b3611add565b60405161024a9190612e20565b3480156104cc57600080fd5b506104306104db366004612d9b565b611af2565b3480156104ec57600080fd5b506104b3611b1c565b34801561050157600080fd5b50610273610510366004612c56565b611b2c565b34801561052157600080fd5b506102e5611bd1565b34801561053657600080fd5b50610273611be1565b34801561054b57600080fd5b50610297600080516020612ff483398151915281565b34801561056d57600080fd5b5061027361057c366004612e2f565b611c1b565b34801561058d57600080fd5b50608454610430906001600160a01b031681565b3480156105ad57600080fd5b506102736105bc366004612db4565b611e5f565b3480156105cd57600080fd5b50610273611fd8565b3480156105e257600080fd5b506102976105f1366004612d9b565b61200f565b34801561060257600080fd5b50610273612026565b34801561061757600080fd5b50610273610626366004612db4565b612122565b34801561063757600080fd5b50610273610646366004612d9b565b612218565b34801561065757600080fd5b50610273610666366004612b2a565b612266565b60608584831461068e5760405163512509d360e11b815260040160405180910390fd5b8067ffffffffffffffff8111156106a7576106a7612ef3565b6040519080825280602002602001820160405280156106d0578160200160208202803683370190505b50915060005b81811015610728576107038989838181106106f3576106f3612f09565b90506020020135888888886123d4565b83828151811061071557610715612f09565b60209081029190910101526001016106d6565b50509695505050505050565b6084546001600160a01b0316331461075f57604051632d99bc8360e21b815260040160405180910390fd5b6001600160a01b0381166107865760405163e6c4247b60e01b815260040160405180910390fd5b608480546001600160a01b0319166001600160a01b0392909216919091179055565b6107b06124ab565b6085546001600160a01b031633146107db576040516330cd747160e01b815260040160405180910390fd5b6002548a908982146108005760405163512509d360e11b815260040160405180910390fd5b8786146108205760405163512509d360e11b815260040160405180910390fd5b60005b82811015610c7f5760008e8e8381811061083f5761083f612f09565b9050602002013590508480156108e257506040516371dacc7d60e11b8152600080516020612ff48339815191526004820152600080516020613014833981519152602482015260448101829052633b9aca00906108059063e3b598fa90606401602060405180830381865afa1580156108bc573d6000803e3d6000fd5b505050506040513d601f19601f820116820180604052508101906108e09190612f1f565b115b156108f05750600101610823565b6109168188888581811061090657610906612f09565b905060200201358d8d8d8d612508565b610c765760008d8d8481811061092e5761092e612f09565b6040516371dacc7d60e11b8152600080516020612ff48339815191526004820152602481018890526000604482018190526020929092029390930135935091610805915063e3b598fa90606401602060405180830381865afa158015610998573d6000803e3d6000fd5b505050506040513d601f19601f820116820180604052508101906109bc9190612f1f565b9050818111156109c95750805b806000036109dc57505050505050610c83565b6040516371dacc7d60e11b8152600080516020612ff483398151915260048201526000805160206130148339815191526024820152604481018490526000906108059063e3b598fa90606401602060405180830381865afa158015610a45573d6000803e3d6000fd5b505050506040513d601f19601f82011682018060405250810190610a699190612f1f565b604051630be72fb160e11b81526000805160206130148339815191526004820152600080516020612ff48339815191526024820152600060448201526064810186905260848101849052909150610805906317ce5f629060a401600060405180830381600087803b158015610add57600080fd5b505af1158015610af1573d6000803e3d6000fd5b50506040516369e38bc360e01b815261ffff871660048201526000925061080891506369e38bc390602401602060405180830381865afa158015610b39573d6000803e3d6000fd5b505050506040513d601f19601f82011682018060405250810190610b5d9190612f1f565b905081600003610b82578060038660818110610b7b57610b7b612f09565b0155610c71565b6040516371dacc7d60e11b8152600080516020612ff483398151915260048201526000805160206130148339815191526024820152604481018690526000906108059063e3b598fa90606401602060405180830381865afa158015610beb573d6000803e3d6000fd5b505050506040513d601f19601f82011682018060405250810190610c0f9190612f1f565b905080610c1c8482612f4e565b610c269084612f61565b8460038960818110610c3a57610c3a612f09565b0154610c469190612f61565b610c509190612f78565b610c5a9190612fa1565b60038760818110610c6d57610c6d612f09565b0155505b505050505b50600101610823565b5050505b610c8d6001600055565b5050505050505050505050565b610ca2612944565b83828114610cc35760405163512509d360e11b815260040160405180910390fd5b60005b81811015610dc4576000878783818110610ce257610ce2612f09565b9050602002013590506000868684818110610cff57610cff612f09565b9050602002013590506000600190505b6081811015610db6576040516371dacc7d60e11b81526004810184905260248101839052604481018290526108059063e3b598fa90606401602060405180830381865afa158015610d64573d6000803e3d6000fd5b505050506040513d601f19601f82011682018060405250810190610d889190612f1f565b868260818110610d9a57610d9a612f09565b60200201818151610dab9190612f78565b905250600101610d0f565b508260010192505050610cc6565b5050949350505050565b610dd6612944565b610dde612944565b610de6612944565b610dee612944565b610df6612944565b6060600080610e036125e8565b9750610e0d61268c565b9650610e1761273b565b9550610e3f600080516020612ff48339815191526000805160206130148339815191526127ea565b6002546040516371dacc7d60e11b8152600080516020612ff483398151915260048201526024810191909152600060448201529094506108059063e3b598fa90606401602060405180830381865afa158015610e9f573d6000803e3d6000fd5b505050506040513d601f19601f82011682018060405250810190610ec39190612f1f565b8452610ecd612894565b6040805161102081019182905291945060039060819082845b815481526020019060010190808311610ee65750506085549b9c9a9b999a939997985095964796506001600160a01b03163194509192505050565b610f296124ab565b6085546001600160a01b03163314610f54576040516330cd747160e01b815260040160405180910390fd5b60025485908482141580610f685750818314155b15610f865760405163512509d360e11b815260040160405180910390fd5b60005b828110156113b4576000878783818110610fa557610fa5612f09565b905060200201359050806000146113ab5760008a8a84818110610fca57610fca612f09565b90506020020135905060008190506000888886818110610fec57610fec612f09565b6040516369e38bc360e01b815261ffff8616600482015260209091029290920135925060009161080891506369e38bc390602401602060405180830381865afa15801561103d573d6000803e3d6000fd5b505050506040513d601f19601f820116820180604052508101906110619190612f1f565b90508082106113a6576040516371dacc7d60e11b8152600080516020612ff4833981519152600482015260248101889052600060448201819052906108059063e3b598fa90606401602060405180830381865afa1580156110c6573d6000803e3d6000fd5b505050506040513d601f19601f820116820180604052508101906110ea9190612f1f565b9050858111156110f75750845b8060000361110d575050505050505050506113b8565b6040516371dacc7d60e11b8152600080516020612ff483398151915260048201526000805160206130148339815191526024820152604481018690526000906108059063e3b598fa90606401602060405180830381865afa158015611176573d6000803e3d6000fd5b505050506040513d601f19601f8201168201806040525081019061119a9190612f1f565b604051630be72fb160e11b81526000805160206130148339815191526004820152600080516020612ff48339815191526024820152600060448201526064810188905260848101849052909150610805906317ce5f629060a401600060405180830381600087803b15801561120e57600080fd5b505af1158015611222573d6000803e3d6000fd5b50506040516369e38bc360e01b815261ffff891660048201526000925061080891506369e38bc390602401602060405180830381865afa15801561126a573d6000803e3d6000fd5b505050506040513d601f19601f8201168201806040525081019061128e9190612f1f565b9050816000036112b35780600388608181106112ac576112ac612f09565b01556113a2565b6040516371dacc7d60e11b8152600080516020612ff483398151915260048201526000805160206130148339815191526024820152604481018890526000906108059063e3b598fa90606401602060405180830381865afa15801561131c573d6000803e3d6000fd5b505050506040513d601f19601f820116820180604052508101906113409190612f1f565b90508061134d8482612f4e565b6113579084612f61565b8460038b6081811061136b5761136b612f09565b01546113779190612f61565b6113819190612f78565b61138b9190612fa1565b6003896081811061139e5761139e612f09565b0155505b5050505b505050505b50600101610f89565b5050505b6113c26001600055565b505050505050565b6113d26124ab565b6085546001600160a01b031633148015906113f857506084546001600160a01b03163314155b1561141657604051630b4a87e760e11b815260040160405180910390fd5b6040516307d691e360e41b8152600080516020612ff48339815191526004820152602481018290526000604482015261080590637d691e30906064015b600060405180830381600087803b15801561146d57600080fd5b505af1158015611481573d6000803e3d6000fd5b5050505061148f6001600055565b50565b61149a6124ab565b6085546001600160a01b031633146114c5576040516330cd747160e01b815260040160405180910390fd5b828181146114e65760405163512509d360e11b815260040160405180910390fd5b60005b8181101561173257600086868381811061150557611505612f09565b9050602002013590506000819050600086868581811061152757611527612f09565b6040516369e38bc360e01b815261ffff8616600482015260209091029290920135925060009161080891506369e38bc390602401602060405180830381865afa158015611578573d6000803e3d6000fd5b505050506040513d601f19601f8201168201806040525081019061159c9190612f1f565b9050808211611723576040516371dacc7d60e11b8152600080516020612ff483398151915260048201526000805160206130148339815191526024820152604481018590526000906108059063e3b598fa90606401602060405180830381865afa15801561160e573d6000803e3d6000fd5b505050506040513d601f19601f820116820180604052508101906116329190612f1f565b9050801561172157604051632d67f0b960e01b8152600481018690526024810182905273cfc33f8523008e7d128c24f72df9e482de5d115990632d67f0b990604401600060405180830381600087803b15801561168e57600080fd5b505af11580156116a2573d6000803e3d6000fd5b50506040516369e38bc360e01b815261ffff8716600482015261080892506369e38bc39150602401602060405180830381865afa1580156116e7573d6000803e3d6000fd5b505050506040513d601f19601f8201168201806040525081019061170b9190612f1f565b6003866081811061171e5761171e612f09565b01555b505b846001019450505050506114e9565b505061173e6001600055565b50505050565b61174c6124ab565b60875460ff16156117705760405163a62baeb760e01b815260040160405180910390fd5b6000610e106117826201518042612fb5565b61178c9190612fa1565b9050600e81108061179e575060108110155b156117bc5760405163cc1de8d960e01b815260040160405180910390fd5b6084546001600160a01b031633146117e757604051632d99bc8360e21b815260040160405180910390fd5b6001600160a01b03831661180e5760405163e6c4247b60e01b815260040160405180910390fd5b8160000361182f576040516365e52d5160e11b815260040160405180910390fd5b6000836001600160a01b03168360405160006040518083038185875af1925050503d806000811461187c576040519150601f19603f3d011682016040523d82523d6000602084013e611881565b606091505b50509050806118a3576040516312171d8360e31b815260040160405180910390fd5b50506118af6001600055565b5050565b6118bb6124ab565b6085546001600160a01b031633148015906118e157506084546001600160a01b03163314155b156118ff57604051630b4a87e760e11b815260040160405180910390fd5b604051631fc9b14160e01b8152600080516020612ff48339815191526004820152602481018290526000604482015261080590631fc9b14190606401611453565b6119486124ab565b6085546001600160a01b0316331480159061196e57506084546001600160a01b03163314155b1561198c57604051630b4a87e760e11b815260040160405180910390fd5b60405163d4626bb960e01b8152600080516020612ff48339815191526004820152600060248201526108059063d4626bb990604401600060405180830381600087803b1580156119db57600080fd5b505af11580156119ef573d6000803e3d6000fd5b505050506119fd6001600055565b565b6085546001600160a01b03163314611a2a576040516330cd747160e01b815260040160405180910390fd5b611a3660018383612963565b505050565b611a436124ab565b60875460ff1615611a675760405163a62baeb760e01b815260040160405180910390fd5b6084546001600160a01b03163314611a9257604051632d99bc8360e21b815260040160405180910390fd5b6040516257c71b60e41b815260048101829052600080516020613014833981519152602482015273cfc33f8523008e7d128c24f72df9e482de5d11599063057c71b090604401611453565b611ae5612944565b611aed61273b565b905090565b60018181548110611b0257600080fd5b6000918252602090912001546001600160a01b0316905081565b611b24612944565b611aed61268c565b6085546001600160a01b03163314611b57576040516330cd747160e01b815260040160405180910390fd5b82818114611b785760405163512509d360e11b815260040160405180910390fd5b60005b818110156113c257838382818110611b9557611b95612f09565b905060200201356003878784818110611bb057611bb0612f09565b9050602002013560818110611bc757611bc7612f09565b0155600101611b7b565b611bd9612944565b611aed6125e8565b6085546001600160a01b03163314611c0c576040516330cd747160e01b815260040160405180910390fd5b6087805460ff19166001179055565b611c236124ab565b6085546001600160a01b03163314611c4e576040516330cd747160e01b815260040160405180910390fd5b86858414611c6f5760405163512509d360e11b815260040160405180910390fd5b60005b81811015611e495760008a8a83818110611c8e57611c8e612f09565b905060200201359050611cbd81868685818110611cad57611cad612f09565b905060200201358b8b8b8b612508565b15611e40576040516371dacc7d60e11b8152600080516020612ff483398151915260048201526000805160206130148339815191526024820152604481018290526000906108059063e3b598fa90606401602060405180830381865afa158015611d2b573d6000803e3d6000fd5b505050506040513d601f19601f82011682018060405250810190611d4f9190612f1f565b90508015611e3e57604051632d67f0b960e01b8152600481018390526024810182905273cfc33f8523008e7d128c24f72df9e482de5d115990632d67f0b990604401600060405180830381600087803b158015611dab57600080fd5b505af1158015611dbf573d6000803e3d6000fd5b50506040516369e38bc360e01b815261ffff8516600482015261080892506369e38bc39150602401602060405180830381865afa158015611e04573d6000803e3d6000fd5b505050506040513d601f19601f82011682018060405250810190611e289190612f1f565b60038360818110611e3b57611e3b612f09565b01555b505b50600101611c72565b5050611e556001600055565b5050505050505050565b611e676124ab565b60875460ff1615611e8b5760405163a62baeb760e01b815260040160405180910390fd5b6085546001600160a01b03163314611eb6576040516330cd747160e01b815260040160405180910390fd5b6001600160a01b038216611edd5760405163e6c4247b60e01b815260040160405180910390fd5b80600003611efe576040516365e52d5160e11b815260040160405180910390fd5b670de0b6b3a7640000811115611f2757604051630625040160e01b815260040160405180910390fd5b61a8c0608654611f379190612f78565b421015611f575760405163034932ef60e51b815260040160405180910390fd5b426086556040516000906001600160a01b0384169083908381818185875af1925050503d8060008114611fa6576040519150601f19603f3d011682016040523d82523d6000602084013e611fab565b606091505b5050905080611fcd576040516312171d8360e31b815260040160405180910390fd5b506118af6001600055565b6084546001600160a01b0316331461200357604051632d99bc8360e21b815260040160405180910390fd5b6087805460ff19169055565b6003816081811061201f57600080fd5b0154905081565b61202e6124ab565b6085546001600160a01b0316331480159061205457506084546001600160a01b03163314155b1561207257604051630b4a87e760e11b815260040160405180910390fd5b476000819003612095576040516365e52d5160e11b815260040160405180910390fd5b610805631fc9b141600080516020612ff48339815191526120ba633b9aca0085612fa1565b6040516001600160e01b031960e085901b1681526004810192909252602482015260006044820152606401600060405180830381600087803b1580156120ff57600080fd5b505af1158015612113573d6000803e3d6000fd5b50505050506119fd6001600055565b61212a6124ab565b6084546001600160a01b0316331461215557604051632d99bc8360e21b815260040160405180910390fd5b6001600160a01b03821661217c5760405163e6c4247b60e01b815260040160405180910390fd5b8061219a5760405163666b0c5d60e01b815260040160405180910390fd5b60405163f4f1726b60e01b81526001600160a01b03831660048201526024810182905273cfc33f8523008e7d128c24f72df9e482de5d11599063f4f1726b90604401600060405180830381600087803b1580156121f657600080fd5b505af115801561220a573d6000803e3d6000fd5b505050506118af6001600055565b6085546001600160a01b03163314612243576040516330cd747160e01b815260040160405180910390fd5b806122615760405163666b0c5d60e01b815260040160405180910390fd5b600255565b61226e6124ab565b60875460ff16156122925760405163a62baeb760e01b815260040160405180910390fd5b6000610e106122a46201518042612fb5565b6122ae9190612fa1565b9050600e8110806122c0575060108110155b156122de5760405163cc1de8d960e01b815260040160405180910390fd5b6084546001600160a01b0316331461230957604051632d99bc8360e21b815260040160405180910390fd5b6001600160a01b0382166123305760405163e6c4247b60e01b815260040160405180910390fd5b476000819003612353576040516365e52d5160e11b815260040160405180910390fd5b6000836001600160a01b03168260405160006040518083038185875af1925050503d80600081146123a0576040519150601f19603f3d011682016040523d82523d6000602084013e6123a5565b606091505b50509050806123c7576040516312171d8360e31b815260040160405180910390fd5b50505061148f6001600055565b60008084815b8181101561249e5761080563e3b598fa8989848181106123fc576123fc612f09565b9050602002013588888581811061241557612415612f09565b6040516001600160e01b031960e087901b16815260048101949094526020029190910135602483015250604481018c9052606401602060405180830381865afa158015612466573d6000803e3d6000fd5b505050506040513d601f19601f8201168201806040525081019061248a9190612f1f565b6124949084612f78565b92506001016123da565b5090979650505050505050565b6002600054036125015760405162461bcd60e51b815260206004820152601f60248201527f5265656e7472616e637947756172643a207265656e7472616e742063616c6c00604482015260640160405180910390fd5b6002600055565b600083815b818110156125d7578761080563e3b598fa89898581811061253057612530612f09565b9050602002013588888681811061254957612549612f09565b6040516001600160e01b031960e087901b16815260048101949094526020029190910135602483015250604481018d9052606401602060405180830381865afa15801561259a573d6000803e3d6000fd5b505050506040513d601f19601f820116820180604052508101906125be9190612f1f565b11156125cf576001925050506125de565b60010161250d565b5060009150505b9695505050505050565b6125f0612944565b60005b608161ffff82161015612688576040516369e38bc360e01b815261ffff82166004820152610808906369e38bc390602401602060405180830381865afa92505050801561265d575060408051601f3d908101601f1916820190925261265a91810190612f1f565b60015b156126805780838361ffff166081811061267957612679612f09565b6020020152505b6001016125f3565b5090565b612694612944565b60005b608161ffff8216101561268857604051632d9bfc7160e01b815261ffff8216600482015261080890632d9bfc7190602401602060405180830381865afa925050508015612701575060408051601f3d908101601f191682019092526126fe91810190612fc9565b60015b156127335780838361ffff166081811061271d5761271d612f09565b67ffffffffffffffff9092166020929092020152505b600101612697565b612743612944565b60005b608161ffff821610156126885760405163c2ba9e8760e01b815261ffff821660048201526108089063c2ba9e8790602401602060405180830381865afa9250505080156127b0575060408051601f3d908101601f191682019092526127ad91810190612fc9565b60015b156127e25780838361ffff16608181106127cc576127cc612f09565b67ffffffffffffffff9092166020929092020152505b600101612746565b6127f2612944565b60015b608181101561288d576040516371dacc7d60e11b81526004810185905260248101849052604481018290526108059063e3b598fa90606401602060405180830381865afa15801561284a573d6000803e3d6000fd5b505050506040513d601f19601f8201168201806040525081019061286e9190612f1f565b82826081811061288057612880612f09565b60200201526001016127f5565b5092915050565b60018054606091908067ffffffffffffffff8111156128b5576128b5612ef3565b6040519080825280602002602001820160405280156128de578160200160208202803683370190505b50925060005b8181101561293e578281815481106128fe576128fe612f09565b60009182526020909120015484516001600160a01b03909116319085908390811061292b5761292b612f09565b60209081029190910101526001016128e4565b50505090565b6040518061102001604052806081906020820280368337509192915050565b8280548282559060005260206000209081019282156129b6579160200282015b828111156129b65781546001600160a01b0319166001600160a01b03843516178255602090920191600190910190612983565b506126889291505b8082111561268857600081556001016129be565b60008083601f8401126129e457600080fd5b50813567ffffffffffffffff8111156129fc57600080fd5b6020830191508360208260051b8501011115612a1757600080fd5b9250929050565b60008060008060008060608789031215612a3757600080fd5b863567ffffffffffffffff80821115612a4f57600080fd5b612a5b8a838b016129d2565b90985096506020890135915080821115612a7457600080fd5b612a808a838b016129d2565b90965094506040890135915080821115612a9957600080fd5b50612aa689828a016129d2565b979a9699509497509295939492505050565b60008151808452602080850194506020840160005b83811015612ae957815187529582019590820190600101612acd565b509495945050505050565b602081526000612b076020830184612ab8565b9392505050565b80356001600160a01b0381168114612b2557600080fd5b919050565b600060208284031215612b3c57600080fd5b612b0782612b0e565b80358015158114612b2557600080fd5b600080600080600080600080600080600060c08c8e031215612b7657600080fd5b67ffffffffffffffff808d351115612b8d57600080fd5b612b9a8e8e358f016129d2565b909c509a5060208d0135811015612bb057600080fd5b612bc08e60208f01358f016129d2565b909a50985060408d0135811015612bd657600080fd5b612be68e60408f01358f016129d2565b909850965060608d0135811015612bfc57600080fd5b612c0c8e60608f01358f016129d2565b909650945060808d0135811015612c2257600080fd5b50612c338d60808e01358e016129d2565b9093509150612c4460a08d01612b45565b90509295989b509295989b9093969950565b60008060008060408587031215612c6c57600080fd5b843567ffffffffffffffff80821115612c8457600080fd5b612c90888389016129d2565b90965094506020870135915080821115612ca957600080fd5b50612cb6878288016129d2565b95989497509550505050565b8060005b608181101561173e578151845260209384019390910190600101612cc6565b6110208101612cf48284612cc2565b92915050565b8060005b608181101561173e57815167ffffffffffffffff16845260209384019390910190600101612cfe565b6000615100612d36838c612cc2565b612d4461102084018b612cfa565b612d5261204084018a612cfa565b612d60613060840189612cc2565b612d6e614080840188612cc2565b806150a0840152612d8181840187612ab8565b6150c084019590955250506150e001529695505050505050565b600060208284031215612dad57600080fd5b5035919050565b60008060408385031215612dc757600080fd5b612dd083612b0e565b946020939093013593505050565b60008060208385031215612df157600080fd5b823567ffffffffffffffff811115612e0857600080fd5b612e14858286016129d2565b90969095509350505050565b6110208101612cf48284612cfa565b6000806000806000806000806080898b031215612e4b57600080fd5b883567ffffffffffffffff80821115612e6357600080fd5b612e6f8c838d016129d2565b909a50985060208b0135915080821115612e8857600080fd5b612e948c838d016129d2565b909850965060408b0135915080821115612ead57600080fd5b612eb98c838d016129d2565b909650945060608b0135915080821115612ed257600080fd5b50612edf8b828c016129d2565b999c989b5096995094979396929594505050565b634e487b7160e01b600052604160045260246000fd5b634e487b7160e01b600052603260045260246000fd5b600060208284031215612f3157600080fd5b5051919050565b634e487b7160e01b600052601160045260246000fd5b81810381811115612cf457612cf4612f38565b8082028115828204841417612cf457612cf4612f38565b80820180821115612cf457612cf4612f38565b634e487b7160e01b600052601260045260246000fd5b600082612fb057612fb0612f8b565b500490565b600082612fc457612fc4612f8b565b500690565b600060208284031215612fdb57600080fd5b815167ffffffffffffffff81168114612b0757600080fdfeb4c087119097fbe3985298eef52f35ef6271c48322a8c2d430902a9cc38d9473aa7af5a46bf6739465dfc2726ba407cab42a6a4d8793fe1c3f2f11ed1e25c7d7a2646970667358221220c4368c72c82ef6011e242dbfc122f8e17f5e71022a773ad9513ef570544d9ff864736f6c63430008160033","opcodes":"PUSH1 0x80 PUSH1 0x40 MSTORE CALLVALUE DUP1 ISZERO PUSH2 0x10 JUMPI PUSH1 0x0 DUP1 REVERT JUMPDEST POP PUSH1 0x1 PUSH1 0x0 SSTORE PUSH1 0x84 DUP1 SLOAD PUSH1 0x1 PUSH1 0x1 PUSH1 0xA0 SHL SUB NOT SWAP1 DUP2 AND CALLER SWAP1 DUP2 OR SWAP1 SWAP3 SSTORE PUSH1 0x85 DUP1 SLOAD SWAP1 SWAP2 AND SWAP1 SWAP2 OR SWAP1 SSTORE PUSH2 0x3069 DUP1 PUSH2 0x48 PUSH1 0x0 CODECOPY PUSH1 0x0 RETURN INVALID PUSH1 0x80 PUSH1 0x40 MSTORE PUSH1 0x4 CALLDATASIZE LT PUSH2 0x1FD JUMPI PUSH1 0x0 CALLDATALOAD PUSH1 0xE0 SHR DUP1 PUSH4 0x9D2736CC GT PUSH2 0x10D JUMPI DUP1 PUSH4 0xC74DB335 GT PUSH2 0xA0 JUMPI DUP1 PUSH4 0xE2EDAC25 GT PUSH2 0x6F JUMPI DUP1 PUSH4 0xE2EDAC25 EQ PUSH2 0x5D6 JUMPI DUP1 PUSH4 0xE8D23D2A EQ PUSH2 0x5F6 JUMPI DUP1 PUSH4 0xF4F1726B EQ PUSH2 0x60B JUMPI DUP1 PUSH4 0xF9036F02 EQ PUSH2 0x62B JUMPI DUP1 PUSH4 0xFA09E630 EQ PUSH2 0x64B JUMPI PUSH2 0x204 JUMP JUMPDEST DUP1 PUSH4 0xC74DB335 EQ PUSH2 0x561 JUMPI DUP1 PUSH4 0xCDC18424 EQ PUSH2 0x581 JUMPI DUP1 PUSH4 0xD7D31AE3 EQ PUSH2 0x5A1 JUMPI DUP1 PUSH4 0xE2157244 EQ PUSH2 0x5C1 JUMPI PUSH2 0x204 JUMP JUMPDEST DUP1 PUSH4 0xBB817A1A GT PUSH2 0xDC JUMPI DUP1 PUSH4 0xBB817A1A EQ PUSH2 0x4F5 JUMPI DUP1 PUSH4 0xBC28D5D0 EQ PUSH2 0x515 JUMPI DUP1 PUSH4 0xBE7B5A64 EQ PUSH2 0x52A JUMPI DUP1 PUSH4 0xC6C4A86F EQ PUSH2 0x53F JUMPI PUSH2 0x204 JUMP JUMPDEST DUP1 PUSH4 0x9D2736CC EQ PUSH2 0x47E JUMPI DUP1 PUSH4 0x9E6EB20B EQ PUSH2 0x49E JUMPI DUP1 PUSH4 0xA7678775 EQ PUSH2 0x4C0 JUMPI DUP1 PUSH4 0xA8C2BB0D EQ PUSH2 0x4E0 JUMPI PUSH2 0x204 JUMP JUMPDEST DUP1 PUSH4 0x58C0B896 GT PUSH2 0x190 JUMPI DUP1 PUSH4 0x8799111F GT PUSH2 0x15F JUMPI DUP1 PUSH4 0x8799111F EQ PUSH2 0x3DB JUMPI DUP1 PUSH4 0x892208C5 EQ PUSH2 0x3FB JUMPI DUP1 PUSH4 0x8DA5CB5B EQ PUSH2 0x410 JUMPI DUP1 PUSH4 0x947D3C3F EQ PUSH2 0x448 JUMPI DUP1 PUSH4 0x987D0E59 EQ PUSH2 0x45E JUMPI PUSH2 0x204 JUMP JUMPDEST DUP1 PUSH4 0x58C0B896 EQ PUSH2 0x365 JUMPI DUP1 PUSH4 0x646E569B EQ PUSH2 0x385 JUMPI DUP1 PUSH4 0x64EE6AEC EQ PUSH2 0x3A5 JUMPI DUP1 PUSH4 0x7E11CA0A EQ PUSH2 0x3BB JUMPI PUSH2 0x204 JUMP JUMPDEST DUP1 PUSH4 0x26A224E0 GT PUSH2 0x1CC JUMPI DUP1 PUSH4 0x26A224E0 EQ PUSH2 0x2C5 JUMPI DUP1 PUSH4 0x276EF789 EQ PUSH2 0x2F2 JUMPI DUP1 PUSH4 0x3004C502 EQ PUSH2 0x31B JUMPI DUP1 PUSH4 0x3383DFE5 EQ PUSH2 0x33B JUMPI PUSH2 0x204 JUMP JUMPDEST DUP1 PUSH4 0xD16AB81 EQ PUSH2 0x21D JUMPI DUP1 PUSH4 0xD174C24 EQ PUSH2 0x253 JUMPI DUP1 PUSH4 0x13CD4940 EQ PUSH2 0x275 JUMPI DUP1 PUSH4 0x1F20FF4C EQ PUSH2 0x2A5 JUMPI PUSH2 0x204 JUMP JUMPDEST CALLDATASIZE PUSH2 0x204 JUMPI STOP JUMPDEST PUSH1 0x40 MLOAD PUSH4 0x201F3FD3 PUSH1 0xE1 SHL DUP2 MSTORE PUSH1 0x4 ADD PUSH1 0x40 MLOAD DUP1 SWAP2 SUB SWAP1 REVERT JUMPDEST CALLVALUE DUP1 ISZERO PUSH2 0x229 JUMPI PUSH1 0x0 DUP1 REVERT JUMPDEST POP PUSH2 0x23D PUSH2 0x238 CALLDATASIZE PUSH1 0x4 PUSH2 0x2A1E JUMP JUMPDEST PUSH2 0x66B JUMP JUMPDEST PUSH1 0x40 MLOAD PUSH2 0x24A SWAP2 SWAP1 PUSH2 0x2AF4 JUMP JUMPDEST PUSH1 0x40 MLOAD DUP1 SWAP2 SUB SWAP1 RETURN JUMPDEST CALLVALUE DUP1 ISZERO PUSH2 0x25F JUMPI PUSH1 0x0 DUP1 REVERT JUMPDEST POP PUSH2 0x273 PUSH2 0x26E CALLDATASIZE PUSH1 0x4 PUSH2 0x2B2A JUMP JUMPDEST PUSH2 0x734 JUMP JUMPDEST STOP JUMPDEST CALLVALUE DUP1 ISZERO PUSH2 0x281 JUMPI PUSH1 0x0 DUP1 REVERT JUMPDEST POP PUSH2 0x297 PUSH1 0x0 DUP1 MLOAD PUSH1 0x20 PUSH2 0x3014 DUP4 CODECOPY DUP2 MLOAD SWAP2 MSTORE DUP2 JUMP JUMPDEST PUSH1 0x40 MLOAD SWAP1 DUP2 MSTORE PUSH1 0x20 ADD PUSH2 0x24A JUMP JUMPDEST CALLVALUE DUP1 ISZERO PUSH2 0x2B1 JUMPI PUSH1 0x0 DUP1 REVERT JUMPDEST POP PUSH2 0x273 PUSH2 0x2C0 CALLDATASIZE PUSH1 0x4 PUSH2 0x2B55 JUMP JUMPDEST PUSH2 0x7A8 JUMP JUMPDEST CALLVALUE DUP1 ISZERO PUSH2 0x2D1 JUMPI PUSH1 0x0 DUP1 REVERT JUMPDEST POP PUSH2 0x2E5 PUSH2 0x2E0 CALLDATASIZE PUSH1 0x4 PUSH2 0x2C56 JUMP JUMPDEST PUSH2 0xC9A JUMP JUMPDEST PUSH1 0x40 MLOAD PUSH2 0x24A SWAP2 SWAP1 PUSH2 0x2CE5 JUMP JUMPDEST CALLVALUE DUP1 ISZERO PUSH2 0x2FE JUMPI PUSH1 0x0 DUP1 REVERT JUMPDEST POP PUSH2 0x307 PUSH2 0xDCE JUMP JUMPDEST PUSH1 0x40 MLOAD PUSH2 0x24A SWAP9 SWAP8 SWAP7 SWAP6 SWAP5 SWAP4 SWAP3 SWAP2 SWAP1 PUSH2 0x2D27 JUMP JUMPDEST CALLVALUE DUP1 ISZERO PUSH2 0x327 JUMPI PUSH1 0x0 DUP1 REVERT JUMPDEST POP PUSH2 0x273 PUSH2 0x336 CALLDATASIZE PUSH1 0x4 PUSH2 0x2A1E JUMP JUMPDEST PUSH2 0xF21 JUMP JUMPDEST CALLVALUE DUP1 ISZERO PUSH2 0x347 JUMPI PUSH1 0x0 DUP1 REVERT JUMPDEST POP PUSH1 0x87 SLOAD PUSH2 0x355 SWAP1 PUSH1 0xFF AND DUP2 JUMP JUMPDEST PUSH1 0x40 MLOAD SWAP1 ISZERO ISZERO DUP2 MSTORE PUSH1 0x20 ADD PUSH2 0x24A JUMP JUMPDEST CALLVALUE DUP1 ISZERO PUSH2 0x371 JUMPI PUSH1 0x0 DUP1 REVERT JUMPDEST POP PUSH2 0x273 PUSH2 0x380 CALLDATASIZE PUSH1 0x4 PUSH2 0x2D9B JUMP JUMPDEST PUSH2 0x13CA JUMP JUMPDEST CALLVALUE DUP1 ISZERO PUSH2 0x391 JUMPI PUSH1 0x0 DUP1 REVERT JUMPDEST POP PUSH2 0x273 PUSH2 0x3A0 CALLDATASIZE PUSH1 0x4 PUSH2 0x2C56 JUMP JUMPDEST PUSH2 0x1492 JUMP JUMPDEST CALLVALUE DUP1 ISZERO PUSH2 0x3B1 JUMPI PUSH1 0x0 DUP1 REVERT JUMPDEST POP PUSH2 0x297 PUSH1 0x86 SLOAD DUP2 JUMP JUMPDEST CALLVALUE DUP1 ISZERO PUSH2 0x3C7 JUMPI PUSH1 0x0 DUP1 REVERT JUMPDEST POP PUSH2 0x273 PUSH2 0x3D6 CALLDATASIZE PUSH1 0x4 PUSH2 0x2DB4 JUMP JUMPDEST PUSH2 0x1744 JUMP JUMPDEST CALLVALUE DUP1 ISZERO PUSH2 0x3E7 JUMPI PUSH1 0x0 DUP1 REVERT JUMPDEST POP PUSH2 0x273 PUSH2 0x3F6 CALLDATASIZE PUSH1 0x4 PUSH2 0x2D9B JUMP JUMPDEST PUSH2 0x18B3 JUMP JUMPDEST CALLVALUE DUP1 ISZERO PUSH2 0x407 JUMPI PUSH1 0x0 DUP1 REVERT JUMPDEST POP PUSH2 0x273 PUSH2 0x1940 JUMP JUMPDEST CALLVALUE DUP1 ISZERO PUSH2 0x41C JUMPI PUSH1 0x0 DUP1 REVERT JUMPDEST POP PUSH1 0x85 SLOAD PUSH2 0x430 SWAP1 PUSH1 0x1 PUSH1 0x1 PUSH1 0xA0 SHL SUB AND DUP2 JUMP JUMPDEST PUSH1 0x40 MLOAD PUSH1 0x1 PUSH1 0x1 PUSH1 0xA0 SHL SUB SWAP1 SWAP2 AND DUP2 MSTORE PUSH1 0x20 ADD PUSH2 0x24A JUMP JUMPDEST CALLVALUE DUP1 ISZERO PUSH2 0x454 JUMPI PUSH1 0x0 DUP1 REVERT JUMPDEST POP PUSH2 0x297 PUSH1 0x2 SLOAD DUP2 JUMP JUMPDEST CALLVALUE DUP1 ISZERO PUSH2 0x46A JUMPI PUSH1 0x0 DUP1 REVERT JUMPDEST POP PUSH2 0x273 PUSH2 0x479 CALLDATASIZE PUSH1 0x4 PUSH2 0x2DDE JUMP JUMPDEST PUSH2 0x19FF JUMP JUMPDEST CALLVALUE DUP1 ISZERO PUSH2 0x48A JUMPI PUSH1 0x0 DUP1 REVERT JUMPDEST POP PUSH2 0x273 PUSH2 0x499 CALLDATASIZE PUSH1 0x4 PUSH2 0x2D9B JUMP JUMPDEST PUSH2 0x1A3B JUMP JUMPDEST CALLVALUE DUP1 ISZERO PUSH2 0x4AA JUMPI PUSH1 0x0 DUP1 REVERT JUMPDEST POP PUSH2 0x4B3 PUSH2 0x1ADD JUMP JUMPDEST PUSH1 0x40 MLOAD PUSH2 0x24A SWAP2 SWAP1 PUSH2 0x2E20 JUMP JUMPDEST CALLVALUE DUP1 ISZERO PUSH2 0x4CC JUMPI PUSH1 0x0 DUP1 REVERT JUMPDEST POP PUSH2 0x430 PUSH2 0x4DB CALLDATASIZE PUSH1 0x4 PUSH2 0x2D9B JUMP JUMPDEST PUSH2 0x1AF2 JUMP JUMPDEST CALLVALUE DUP1 ISZERO PUSH2 0x4EC JUMPI PUSH1 0x0 DUP1 REVERT JUMPDEST POP PUSH2 0x4B3 PUSH2 0x1B1C JUMP JUMPDEST CALLVALUE DUP1 ISZERO PUSH2 0x501 JUMPI PUSH1 0x0 DUP1 REVERT JUMPDEST POP PUSH2 0x273 PUSH2 0x510 CALLDATASIZE PUSH1 0x4 PUSH2 0x2C56 JUMP JUMPDEST PUSH2 0x1B2C JUMP JUMPDEST CALLVALUE DUP1 ISZERO PUSH2 0x521 JUMPI PUSH1 0x0 DUP1 REVERT JUMPDEST POP PUSH2 0x2E5 PUSH2 0x1BD1 JUMP JUMPDEST CALLVALUE DUP1 ISZERO PUSH2 0x536 JUMPI PUSH1 0x0 DUP1 REVERT JUMPDEST POP PUSH2 0x273 PUSH2 0x1BE1 JUMP JUMPDEST CALLVALUE DUP1 ISZERO PUSH2 0x54B JUMPI PUSH1 0x0 DUP1 REVERT JUMPDEST POP PUSH2 0x297 PUSH1 0x0 DUP1 MLOAD PUSH1 0x20 PUSH2 0x2FF4 DUP4 CODECOPY DUP2 MLOAD SWAP2 MSTORE DUP2 JUMP JUMPDEST CALLVALUE DUP1 ISZERO PUSH2 0x56D JUMPI PUSH1 0x0 DUP1 REVERT JUMPDEST POP PUSH2 0x273 PUSH2 0x57C CALLDATASIZE PUSH1 0x4 PUSH2 0x2E2F JUMP JUMPDEST PUSH2 0x1C1B JUMP JUMPDEST CALLVALUE DUP1 ISZERO PUSH2 0x58D JUMPI PUSH1 0x0 DUP1 REVERT JUMPDEST POP PUSH1 0x84 SLOAD PUSH2 0x430 SWAP1 PUSH1 0x1 PUSH1 0x1 PUSH1 0xA0 SHL SUB AND DUP2 JUMP JUMPDEST CALLVALUE DUP1 ISZERO PUSH2 0x5AD JUMPI PUSH1 0x0 DUP1 REVERT JUMPDEST POP PUSH2 0x273 PUSH2 0x5BC CALLDATASIZE PUSH1 0x4 PUSH2 0x2DB4 JUMP JUMPDEST PUSH2 0x1E5F JUMP JUMPDEST CALLVALUE DUP1 ISZERO PUSH2 0x5CD JUMPI PUSH1 0x0 DUP1 REVERT JUMPDEST POP PUSH2 0x273 PUSH2 0x1FD8 JUMP JUMPDEST CALLVALUE DUP1 ISZERO PUSH2 0x5E2 JUMPI PUSH1 0x0 DUP1 REVERT JUMPDEST POP PUSH2 0x297 PUSH2 0x5F1 CALLDATASIZE PUSH1 0x4 PUSH2 0x2D9B JUMP JUMPDEST PUSH2 0x200F JUMP JUMPDEST CALLVALUE DUP1 ISZERO PUSH2 0x602 JUMPI PUSH1 0x0 DUP1 REVERT JUMPDEST POP PUSH2 0x273 PUSH2 0x2026 JUMP JUMPDEST CALLVALUE DUP1 ISZERO PUSH2 0x617 JUMPI PUSH1 0x0 DUP1 REVERT JUMPDEST POP PUSH2 0x273 PUSH2 0x626 CALLDATASIZE PUSH1 0x4 PUSH2 0x2DB4 JUMP JUMPDEST PUSH2 0x2122 JUMP JUMPDEST CALLVALUE DUP1 ISZERO PUSH2 0x637 JUMPI PUSH1 0x0 DUP1 REVERT JUMPDEST POP PUSH2 0x273 PUSH2 0x646 CALLDATASIZE PUSH1 0x4 PUSH2 0x2D9B JUMP JUMPDEST PUSH2 0x2218 JUMP JUMPDEST CALLVALUE DUP1 ISZERO PUSH2 0x657 JUMPI PUSH1 0x0 DUP1 REVERT JUMPDEST POP PUSH2 0x273 PUSH2 0x666 CALLDATASIZE PUSH1 0x4 PUSH2 0x2B2A JUMP JUMPDEST PUSH2 0x2266 JUMP JUMPDEST PUSH1 0x60 DUP6 DUP5 DUP4 EQ PUSH2 0x68E JUMPI PUSH1 0x40 MLOAD PUSH4 0x512509D3 PUSH1 0xE1 SHL DUP2 MSTORE PUSH1 0x4 ADD PUSH1 0x40 MLOAD DUP1 SWAP2 SUB SWAP1 REVERT JUMPDEST DUP1 PUSH8 0xFFFFFFFFFFFFFFFF DUP2 GT ISZERO PUSH2 0x6A7 JUMPI PUSH2 0x6A7 PUSH2 0x2EF3 JUMP JUMPDEST PUSH1 0x40 MLOAD SWAP1 DUP1 DUP3 MSTORE DUP1 PUSH1 0x20 MUL PUSH1 0x20 ADD DUP3 ADD PUSH1 0x40 MSTORE DUP1 ISZERO PUSH2 0x6D0 JUMPI DUP2 PUSH1 0x20 ADD PUSH1 0x20 DUP3 MUL DUP1 CALLDATASIZE DUP4 CALLDATACOPY ADD SWAP1 POP JUMPDEST POP SWAP2 POP PUSH1 0x0 JUMPDEST DUP2 DUP2 LT ISZERO PUSH2 0x728 JUMPI PUSH2 0x703 DUP10 DUP10 DUP4 DUP2 DUP2 LT PUSH2 0x6F3 JUMPI PUSH2 0x6F3 PUSH2 0x2F09 JUMP JUMPDEST SWAP1 POP PUSH1 0x20 MUL ADD CALLDATALOAD DUP9 DUP9 DUP9 DUP9 PUSH2 0x23D4 JUMP JUMPDEST DUP4 DUP3 DUP2 MLOAD DUP2 LT PUSH2 0x715 JUMPI PUSH2 0x715 PUSH2 0x2F09 JUMP JUMPDEST PUSH1 0x20 SWAP1 DUP2 MUL SWAP2 SWAP1 SWAP2 ADD ADD MSTORE PUSH1 0x1 ADD PUSH2 0x6D6 JUMP JUMPDEST POP POP SWAP7 SWAP6 POP POP POP POP POP POP JUMP JUMPDEST PUSH1 0x84 SLOAD PUSH1 0x1 PUSH1 0x1 PUSH1 0xA0 SHL SUB AND CALLER EQ PUSH2 0x75F JUMPI PUSH1 0x40 MLOAD PUSH4 0x2D99BC83 PUSH1 0xE2 SHL DUP2 MSTORE PUSH1 0x4 ADD PUSH1 0x40 MLOAD DUP1 SWAP2 SUB SWAP1 REVERT JUMPDEST PUSH1 0x1 PUSH1 0x1 PUSH1 0xA0 SHL SUB DUP2 AND PUSH2 0x786 JUMPI PUSH1 0x40 MLOAD PUSH4 0xE6C4247B PUSH1 0xE0 SHL DUP2 MSTORE PUSH1 0x4 ADD PUSH1 0x40 MLOAD DUP1 SWAP2 SUB SWAP1 REVERT JUMPDEST PUSH1 0x84 DUP1 SLOAD PUSH1 0x1 PUSH1 0x1 PUSH1 0xA0 SHL SUB NOT AND PUSH1 0x1 PUSH1 0x1 PUSH1 0xA0 SHL SUB SWAP3 SWAP1 SWAP3 AND SWAP2 SWAP1 SWAP2 OR SWAP1 SSTORE JUMP JUMPDEST PUSH2 0x7B0 PUSH2 0x24AB JUMP JUMPDEST PUSH1 0x85 SLOAD PUSH1 0x1 PUSH1 0x1 PUSH1 0xA0 SHL SUB AND CALLER EQ PUSH2 0x7DB JUMPI PUSH1 0x40 MLOAD PUSH4 0x30CD7471 PUSH1 0xE0 SHL DUP2 MSTORE PUSH1 0x4 ADD PUSH1 0x40 MLOAD DUP1 SWAP2 SUB SWAP1 REVERT JUMPDEST PUSH1 0x2 SLOAD DUP11 SWAP1 DUP10 DUP3 EQ PUSH2 0x800 JUMPI PUSH1 0x40 MLOAD PUSH4 0x512509D3 PUSH1 0xE1 SHL DUP2 MSTORE PUSH1 0x4 ADD PUSH1 0x40 MLOAD DUP1 SWAP2 SUB SWAP1 REVERT JUMPDEST DUP8 DUP7 EQ PUSH2 0x820 JUMPI PUSH1 0x40 MLOAD PUSH4 0x512509D3 PUSH1 0xE1 SHL DUP2 MSTORE PUSH1 0x4 ADD PUSH1 0x40 MLOAD DUP1 SWAP2 SUB SWAP1 REVERT JUMPDEST PUSH1 0x0 JUMPDEST DUP3 DUP2 LT ISZERO PUSH2 0xC7F JUMPI PUSH1 0x0 DUP15 DUP15 DUP4 DUP2 DUP2 LT PUSH2 0x83F JUMPI PUSH2 0x83F PUSH2 0x2F09 JUMP JUMPDEST SWAP1 POP PUSH1 0x20 MUL ADD CALLDATALOAD SWAP1 POP DUP5 DUP1 ISZERO PUSH2 0x8E2 JUMPI POP PUSH1 0x40 MLOAD PUSH4 0x71DACC7D PUSH1 0xE1 SHL DUP2 MSTORE PUSH1 0x0 DUP1 MLOAD PUSH1 0x20 PUSH2 0x2FF4 DUP4 CODECOPY DUP2 MLOAD SWAP2 MSTORE PUSH1 0x4 DUP3 ADD MSTORE PUSH1 0x0 DUP1 MLOAD PUSH1 0x20 PUSH2 0x3014 DUP4 CODECOPY DUP2 MLOAD SWAP2 MSTORE PUSH1 0x24 DUP3 ADD MSTORE PUSH1 0x44 DUP2 ADD DUP3 SWAP1 MSTORE PUSH4 0x3B9ACA00 SWAP1 PUSH2 0x805 SWAP1 PUSH4 0xE3B598FA SWAP1 PUSH1 0x64 ADD PUSH1 0x20 PUSH1 0x40 MLOAD DUP1 DUP4 SUB DUP2 DUP7 GAS STATICCALL ISZERO DUP1 ISZERO PUSH2 0x8BC JUMPI RETURNDATASIZE PUSH1 0x0 DUP1 RETURNDATACOPY RETURNDATASIZE PUSH1 0x0 REVERT JUMPDEST POP POP POP POP PUSH1 0x40 MLOAD RETURNDATASIZE PUSH1 0x1F NOT PUSH1 0x1F DUP3 ADD AND DUP3 ADD DUP1 PUSH1 0x40 MSTORE POP DUP2 ADD SWAP1 PUSH2 0x8E0 SWAP2 SWAP1 PUSH2 0x2F1F JUMP JUMPDEST GT JUMPDEST ISZERO PUSH2 0x8F0 JUMPI POP PUSH1 0x1 ADD PUSH2 0x823 JUMP JUMPDEST PUSH2 0x916 DUP2 DUP9 DUP9 DUP6 DUP2 DUP2 LT PUSH2 0x906 JUMPI PUSH2 0x906 PUSH2 0x2F09 JUMP JUMPDEST SWAP1 POP PUSH1 0x20 MUL ADD CALLDATALOAD DUP14 DUP14 DUP14 DUP14 PUSH2 0x2508 JUMP JUMPDEST PUSH2 0xC76 JUMPI PUSH1 0x0 DUP14 DUP14 DUP5 DUP2 DUP2 LT PUSH2 0x92E JUMPI PUSH2 0x92E PUSH2 0x2F09 JUMP JUMPDEST PUSH1 0x40 MLOAD PUSH4 0x71DACC7D PUSH1 0xE1 SHL DUP2 MSTORE PUSH1 0x0 DUP1 MLOAD PUSH1 0x20 PUSH2 0x2FF4 DUP4 CODECOPY DUP2 MLOAD SWAP2 MSTORE PUSH1 0x4 DUP3 ADD MSTORE PUSH1 0x24 DUP2 ADD DUP9 SWAP1 MSTORE PUSH1 0x0 PUSH1 0x44 DUP3 ADD DUP2 SWAP1 MSTORE PUSH1 0x20 SWAP3 SWAP1 SWAP3 MUL SWAP4 SWAP1 SWAP4 ADD CALLDATALOAD SWAP4 POP SWAP2 PUSH2 0x805 SWAP2 POP PUSH4 0xE3B598FA SWAP1 PUSH1 0x64 ADD PUSH1 0x20 PUSH1 0x40 MLOAD DUP1 DUP4 SUB DUP2 DUP7 GAS STATICCALL ISZERO DUP1 ISZERO PUSH2 0x998 JUMPI RETURNDATASIZE PUSH1 0x0 DUP1 RETURNDATACOPY RETURNDATASIZE PUSH1 0x0 REVERT JUMPDEST POP POP POP POP PUSH1 0x40 MLOAD RETURNDATASIZE PUSH1 0x1F NOT PUSH1 0x1F DUP3 ADD AND DUP3 ADD DUP1 PUSH1 0x40 MSTORE POP DUP2 ADD SWAP1 PUSH2 0x9BC SWAP2 SWAP1 PUSH2 0x2F1F JUMP JUMPDEST SWAP1 POP DUP2 DUP2 GT ISZERO PUSH2 0x9C9 JUMPI POP DUP1 JUMPDEST DUP1 PUSH1 0x0 SUB PUSH2 0x9DC JUMPI POP POP POP POP POP POP PUSH2 0xC83 JUMP JUMPDEST PUSH1 0x40 MLOAD PUSH4 0x71DACC7D PUSH1 0xE1 SHL DUP2 MSTORE PUSH1 0x0 DUP1 MLOAD PUSH1 0x20 PUSH2 0x2FF4 DUP4 CODECOPY DUP2 MLOAD SWAP2 MSTORE PUSH1 0x4 DUP3 ADD MSTORE PUSH1 0x0 DUP1 MLOAD PUSH1 0x20 PUSH2 0x3014 DUP4 CODECOPY DUP2 MLOAD SWAP2 MSTORE PUSH1 0x24 DUP3 ADD MSTORE PUSH1 0x44 DUP2 ADD DUP5 SWAP1 MSTORE PUSH1 0x0 SWAP1 PUSH2 0x805 SWAP1 PUSH4 0xE3B598FA SWAP1 PUSH1 0x64 ADD PUSH1 0x20 PUSH1 0x40 MLOAD DUP1 DUP4 SUB DUP2 DUP7 GAS STATICCALL ISZERO DUP1 ISZERO PUSH2 0xA45 JUMPI RETURNDATASIZE PUSH1 0x0 DUP1 RETURNDATACOPY RETURNDATASIZE PUSH1 0x0 REVERT JUMPDEST POP POP POP POP PUSH1 0x40 MLOAD RETURNDATASIZE PUSH1 0x1F NOT PUSH1 0x1F DUP3 ADD AND DUP3 ADD DUP1 PUSH1 0x40 MSTORE POP DUP2 ADD SWAP1 PUSH2 0xA69 SWAP2 SWAP1 PUSH2 0x2F1F JUMP JUMPDEST PUSH1 0x40 MLOAD PUSH4 0xBE72FB1 PUSH1 0xE1 SHL DUP2 MSTORE PUSH1 0x0 DUP1 MLOAD PUSH1 0x20 PUSH2 0x3014 DUP4 CODECOPY DUP2 MLOAD SWAP2 MSTORE PUSH1 0x4 DUP3 ADD MSTORE PUSH1 0x0 DUP1 MLOAD PUSH1 0x20 PUSH2 0x2FF4 DUP4 CODECOPY DUP2 MLOAD SWAP2 MSTORE PUSH1 0x24 DUP3 ADD MSTORE PUSH1 0x0 PUSH1 0x44 DUP3 ADD MSTORE PUSH1 0x64 DUP2 ADD DUP7 SWAP1 MSTORE PUSH1 0x84 DUP2 ADD DUP5 SWAP1 MSTORE SWAP1 SWAP2 POP PUSH2 0x805 SWAP1 PUSH4 0x17CE5F62 SWAP1 PUSH1 0xA4 ADD PUSH1 0x0 PUSH1 0x40 MLOAD DUP1 DUP4 SUB DUP2 PUSH1 0x0 DUP8 DUP1 EXTCODESIZE ISZERO DUP1 ISZERO PUSH2 0xADD JUMPI PUSH1 0x0 DUP1 REVERT JUMPDEST POP GAS CALL ISZERO DUP1 ISZERO PUSH2 0xAF1 JUMPI RETURNDATASIZE PUSH1 0x0 DUP1 RETURNDATACOPY RETURNDATASIZE PUSH1 0x0 REVERT JUMPDEST POP POP PUSH1 0x40 MLOAD PUSH4 0x69E38BC3 PUSH1 0xE0 SHL DUP2 MSTORE PUSH2 0xFFFF DUP8 AND PUSH1 0x4 DUP3 ADD MSTORE PUSH1 0x0 SWAP3 POP PUSH2 0x808 SWAP2 POP PUSH4 0x69E38BC3 SWAP1 PUSH1 0x24 ADD PUSH1 0x20 PUSH1 0x40 MLOAD DUP1 DUP4 SUB DUP2 DUP7 GAS STATICCALL ISZERO DUP1 ISZERO PUSH2 0xB39 JUMPI RETURNDATASIZE PUSH1 0x0 DUP1 RETURNDATACOPY RETURNDATASIZE PUSH1 0x0 REVERT JUMPDEST POP POP POP POP PUSH1 0x40 MLOAD RETURNDATASIZE PUSH1 0x1F NOT PUSH1 0x1F DUP3 ADD AND DUP3 ADD DUP1 PUSH1 0x40 MSTORE POP DUP2 ADD SWAP1 PUSH2 0xB5D SWAP2 SWAP1 PUSH2 0x2F1F JUMP JUMPDEST SWAP1 POP DUP2 PUSH1 0x0 SUB PUSH2 0xB82 JUMPI DUP1 PUSH1 0x3 DUP7 PUSH1 0x81 DUP2 LT PUSH2 0xB7B JUMPI PUSH2 0xB7B PUSH2 0x2F09 JUMP JUMPDEST ADD SSTORE PUSH2 0xC71 JUMP JUMPDEST PUSH1 0x40 MLOAD PUSH4 0x71DACC7D PUSH1 0xE1 SHL DUP2 MSTORE PUSH1 0x0 DUP1 MLOAD PUSH1 0x20 PUSH2 0x2FF4 DUP4 CODECOPY DUP2 MLOAD SWAP2 MSTORE PUSH1 0x4 DUP3 ADD MSTORE PUSH1 0x0 DUP1 MLOAD PUSH1 0x20 PUSH2 0x3014 DUP4 CODECOPY DUP2 MLOAD SWAP2 MSTORE PUSH1 0x24 DUP3 ADD MSTORE PUSH1 0x44 DUP2 ADD DUP7 SWAP1 MSTORE PUSH1 0x0 SWAP1 PUSH2 0x805 SWAP1 PUSH4 0xE3B598FA SWAP1 PUSH1 0x64 ADD PUSH1 0x20 PUSH1 0x40 MLOAD DUP1 DUP4 SUB DUP2 DUP7 GAS STATICCALL ISZERO DUP1 ISZERO PUSH2 0xBEB JUMPI RETURNDATASIZE PUSH1 0x0 DUP1 RETURNDATACOPY RETURNDATASIZE PUSH1 0x0 REVERT JUMPDEST POP POP POP POP PUSH1 0x40 MLOAD RETURNDATASIZE PUSH1 0x1F NOT PUSH1 0x1F DUP3 ADD AND DUP3 ADD DUP1 PUSH1 0x40 MSTORE POP DUP2 ADD SWAP1 PUSH2 0xC0F SWAP2 SWAP1 PUSH2 0x2F1F JUMP JUMPDEST SWAP1 POP DUP1 PUSH2 0xC1C DUP5 DUP3 PUSH2 0x2F4E JUMP JUMPDEST PUSH2 0xC26 SWAP1 DUP5 PUSH2 0x2F61 JUMP JUMPDEST DUP5 PUSH1 0x3 DUP10 PUSH1 0x81 DUP2 LT PUSH2 0xC3A JUMPI PUSH2 0xC3A PUSH2 0x2F09 JUMP JUMPDEST ADD SLOAD PUSH2 0xC46 SWAP2 SWAP1 PUSH2 0x2F61 JUMP JUMPDEST PUSH2 0xC50 SWAP2 SWAP1 PUSH2 0x2F78 JUMP JUMPDEST PUSH2 0xC5A SWAP2 SWAP1 PUSH2 0x2FA1 JUMP JUMPDEST PUSH1 0x3 DUP8 PUSH1 0x81 DUP2 LT PUSH2 0xC6D JUMPI PUSH2 0xC6D PUSH2 0x2F09 JUMP JUMPDEST ADD SSTORE POP JUMPDEST POP POP POP POP JUMPDEST POP PUSH1 0x1 ADD PUSH2 0x823 JUMP JUMPDEST POP POP POP JUMPDEST PUSH2 0xC8D PUSH1 0x1 PUSH1 0x0 SSTORE JUMP JUMPDEST POP POP POP POP POP POP POP POP POP POP POP JUMP JUMPDEST PUSH2 0xCA2 PUSH2 0x2944 JUMP JUMPDEST DUP4 DUP3 DUP2 EQ PUSH2 0xCC3 JUMPI PUSH1 0x40 MLOAD PUSH4 0x512509D3 PUSH1 0xE1 SHL DUP2 MSTORE PUSH1 0x4 ADD PUSH1 0x40 MLOAD DUP1 SWAP2 SUB SWAP1 REVERT JUMPDEST PUSH1 0x0 JUMPDEST DUP2 DUP2 LT ISZERO PUSH2 0xDC4 JUMPI PUSH1 0x0 DUP8 DUP8 DUP4 DUP2 DUP2 LT PUSH2 0xCE2 JUMPI PUSH2 0xCE2 PUSH2 0x2F09 JUMP JUMPDEST SWAP1 POP PUSH1 0x20 MUL ADD CALLDATALOAD SWAP1 POP PUSH1 0x0 DUP7 DUP7 DUP5 DUP2 DUP2 LT PUSH2 0xCFF JUMPI PUSH2 0xCFF PUSH2 0x2F09 JUMP JUMPDEST SWAP1 POP PUSH1 0x20 MUL ADD CALLDATALOAD SWAP1 POP PUSH1 0x0 PUSH1 0x1 SWAP1 POP JUMPDEST PUSH1 0x81 DUP2 LT ISZERO PUSH2 0xDB6 JUMPI PUSH1 0x40 MLOAD PUSH4 0x71DACC7D PUSH1 0xE1 SHL DUP2 MSTORE PUSH1 0x4 DUP2 ADD DUP5 SWAP1 MSTORE PUSH1 0x24 DUP2 ADD DUP4 SWAP1 MSTORE PUSH1 0x44 DUP2 ADD DUP3 SWAP1 MSTORE PUSH2 0x805 SWAP1 PUSH4 0xE3B598FA SWAP1 PUSH1 0x64 ADD PUSH1 0x20 PUSH1 0x40 MLOAD DUP1 DUP4 SUB DUP2 DUP7 GAS STATICCALL ISZERO DUP1 ISZERO PUSH2 0xD64 JUMPI RETURNDATASIZE PUSH1 0x0 DUP1 RETURNDATACOPY RETURNDATASIZE PUSH1 0x0 REVERT JUMPDEST POP POP POP POP PUSH1 0x40 MLOAD RETURNDATASIZE PUSH1 0x1F NOT PUSH1 0x1F DUP3 ADD AND DUP3 ADD DUP1 PUSH1 0x40 MSTORE POP DUP2 ADD SWAP1 PUSH2 0xD88 SWAP2 SWAP1 PUSH2 0x2F1F JUMP JUMPDEST DUP7 DUP3 PUSH1 0x81 DUP2 LT PUSH2 0xD9A JUMPI PUSH2 0xD9A PUSH2 0x2F09 JUMP JUMPDEST PUSH1 0x20 MUL ADD DUP2 DUP2 MLOAD PUSH2 0xDAB SWAP2 SWAP1 PUSH2 0x2F78 JUMP JUMPDEST SWAP1 MSTORE POP PUSH1 0x1 ADD PUSH2 0xD0F JUMP JUMPDEST POP DUP3 PUSH1 0x1 ADD SWAP3 POP POP POP PUSH2 0xCC6 JUMP JUMPDEST POP POP SWAP5 SWAP4 POP POP POP POP JUMP JUMPDEST PUSH2 0xDD6 PUSH2 0x2944 JUMP JUMPDEST PUSH2 0xDDE PUSH2 0x2944 JUMP JUMPDEST PUSH2 0xDE6 PUSH2 0x2944 JUMP JUMPDEST PUSH2 0xDEE PUSH2 0x2944 JUMP JUMPDEST PUSH2 0xDF6 PUSH2 0x2944 JUMP JUMPDEST PUSH1 0x60 PUSH1 0x0 DUP1 PUSH2 0xE03 PUSH2 0x25E8 JUMP JUMPDEST SWAP8 POP PUSH2 0xE0D PUSH2 0x268C JUMP JUMPDEST SWAP7 POP PUSH2 0xE17 PUSH2 0x273B JUMP JUMPDEST SWAP6 POP PUSH2 0xE3F PUSH1 0x0 DUP1 MLOAD PUSH1 0x20 PUSH2 0x2FF4 DUP4 CODECOPY DUP2 MLOAD SWAP2 MSTORE PUSH1 0x0 DUP1 MLOAD PUSH1 0x20 PUSH2 0x3014 DUP4 CODECOPY DUP2 MLOAD SWAP2 MSTORE PUSH2 0x27EA JUMP JUMPDEST PUSH1 0x2 SLOAD PUSH1 0x40 MLOAD PUSH4 0x71DACC7D PUSH1 0xE1 SHL DUP2 MSTORE PUSH1 0x0 DUP1 MLOAD PUSH1 0x20 PUSH2 0x2FF4 DUP4 CODECOPY DUP2 MLOAD SWAP2 MSTORE PUSH1 0x4 DUP3 ADD MSTORE PUSH1 0x24 DUP2 ADD SWAP2 SWAP1 SWAP2 MSTORE PUSH1 0x0 PUSH1 0x44 DUP3 ADD MSTORE SWAP1 SWAP5 POP PUSH2 0x805 SWAP1 PUSH4 0xE3B598FA SWAP1 PUSH1 0x64 ADD PUSH1 0x20 PUSH1 0x40 MLOAD DUP1 DUP4 SUB DUP2 DUP7 GAS STATICCALL ISZERO DUP1 ISZERO PUSH2 0xE9F JUMPI RETURNDATASIZE PUSH1 0x0 DUP1 RETURNDATACOPY RETURNDATASIZE PUSH1 0x0 REVERT JUMPDEST POP POP POP POP PUSH1 0x40 MLOAD RETURNDATASIZE PUSH1 0x1F NOT PUSH1 0x1F DUP3 ADD AND DUP3 ADD DUP1 PUSH1 0x40 MSTORE POP DUP2 ADD SWAP1 PUSH2 0xEC3 SWAP2 SWAP1 PUSH2 0x2F1F JUMP JUMPDEST DUP5 MSTORE PUSH2 0xECD PUSH2 0x2894 JUMP JUMPDEST PUSH1 0x40 DUP1 MLOAD PUSH2 0x1020 DUP2 ADD SWAP2 DUP3 SWAP1 MSTORE SWAP2 SWAP5 POP PUSH1 0x3 SWAP1 PUSH1 0x81 SWAP1 DUP3 DUP5 JUMPDEST DUP2 SLOAD DUP2 MSTORE PUSH1 0x20 ADD SWAP1 PUSH1 0x1 ADD SWAP1 DUP1 DUP4 GT PUSH2 0xEE6 JUMPI POP POP PUSH1 0x85 SLOAD SWAP12 SWAP13 SWAP11 SWAP12 SWAP10 SWAP11 SWAP4 SWAP10 SWAP8 SWAP9 POP SWAP6 SWAP7 SELFBALANCE SWAP7 POP PUSH1 0x1 PUSH1 0x1 PUSH1 0xA0 SHL SUB AND BALANCE SWAP5 POP SWAP2 SWAP3 POP POP POP JUMP JUMPDEST PUSH2 0xF29 PUSH2 0x24AB JUMP JUMPDEST PUSH1 0x85 SLOAD PUSH1 0x1 PUSH1 0x1 PUSH1 0xA0 SHL SUB AND CALLER EQ PUSH2 0xF54 JUMPI PUSH1 0x40 MLOAD PUSH4 0x30CD7471 PUSH1 0xE0 SHL DUP2 MSTORE PUSH1 0x4 ADD PUSH1 0x40 MLOAD DUP1 SWAP2 SUB SWAP1 REVERT JUMPDEST PUSH1 0x2 SLOAD DUP6 SWAP1 DUP5 DUP3 EQ ISZERO DUP1 PUSH2 0xF68 JUMPI POP DUP2 DUP4 EQ ISZERO JUMPDEST ISZERO PUSH2 0xF86 JUMPI PUSH1 0x40 MLOAD PUSH4 0x512509D3 PUSH1 0xE1 SHL DUP2 MSTORE PUSH1 0x4 ADD PUSH1 0x40 MLOAD DUP1 SWAP2 SUB SWAP1 REVERT JUMPDEST PUSH1 0x0 JUMPDEST DUP3 DUP2 LT ISZERO PUSH2 0x13B4 JUMPI PUSH1 0x0 DUP8 DUP8 DUP4 DUP2 DUP2 LT PUSH2 0xFA5 JUMPI PUSH2 0xFA5 PUSH2 0x2F09 JUMP JUMPDEST SWAP1 POP PUSH1 0x20 MUL ADD CALLDATALOAD SWAP1 POP DUP1 PUSH1 0x0 EQ PUSH2 0x13AB JUMPI PUSH1 0x0 DUP11 DUP11 DUP5 DUP2 DUP2 LT PUSH2 0xFCA JUMPI PUSH2 0xFCA PUSH2 0x2F09 JUMP JUMPDEST SWAP1 POP PUSH1 0x20 MUL ADD CALLDATALOAD SWAP1 POP PUSH1 0x0 DUP2 SWAP1 POP PUSH1 0x0 DUP9 DUP9 DUP7 DUP2 DUP2 LT PUSH2 0xFEC JUMPI PUSH2 0xFEC PUSH2 0x2F09 JUMP JUMPDEST PUSH1 0x40 MLOAD PUSH4 0x69E38BC3 PUSH1 0xE0 SHL DUP2 MSTORE PUSH2 0xFFFF DUP7 AND PUSH1 0x4 DUP3 ADD MSTORE PUSH1 0x20 SWAP1 SWAP2 MUL SWAP3 SWAP1 SWAP3 ADD CALLDATALOAD SWAP3 POP PUSH1 0x0 SWAP2 PUSH2 0x808 SWAP2 POP PUSH4 0x69E38BC3 SWAP1 PUSH1 0x24 ADD PUSH1 0x20 PUSH1 0x40 MLOAD DUP1 DUP4 SUB DUP2 DUP7 GAS STATICCALL ISZERO DUP1 ISZERO PUSH2 0x103D JUMPI RETURNDATASIZE PUSH1 0x0 DUP1 RETURNDATACOPY RETURNDATASIZE PUSH1 0x0 REVERT JUMPDEST POP POP POP POP PUSH1 0x40 MLOAD RETURNDATASIZE PUSH1 0x1F NOT PUSH1 0x1F DUP3 ADD AND DUP3 ADD DUP1 PUSH1 0x40 MSTORE POP DUP2 ADD SWAP1 PUSH2 0x1061 SWAP2 SWAP1 PUSH2 0x2F1F JUMP JUMPDEST SWAP1 POP DUP1 DUP3 LT PUSH2 0x13A6 JUMPI PUSH1 0x40 MLOAD PUSH4 0x71DACC7D PUSH1 0xE1 SHL DUP2 MSTORE PUSH1 0x0 DUP1 MLOAD PUSH1 0x20 PUSH2 0x2FF4 DUP4 CODECOPY DUP2 MLOAD SWAP2 MSTORE PUSH1 0x4 DUP3 ADD MSTORE PUSH1 0x24 DUP2 ADD DUP9 SWAP1 MSTORE PUSH1 0x0 PUSH1 0x44 DUP3 ADD DUP2 SWAP1 MSTORE SWAP1 PUSH2 0x805 SWAP1 PUSH4 0xE3B598FA SWAP1 PUSH1 0x64 ADD PUSH1 0x20 PUSH1 0x40 MLOAD DUP1 DUP4 SUB DUP2 DUP7 GAS STATICCALL ISZERO DUP1 ISZERO PUSH2 0x10C6 JUMPI RETURNDATASIZE PUSH1 0x0 DUP1 RETURNDATACOPY RETURNDATASIZE PUSH1 0x0 REVERT JUMPDEST POP POP POP POP PUSH1 0x40 MLOAD RETURNDATASIZE PUSH1 0x1F NOT PUSH1 0x1F DUP3 ADD AND DUP3 ADD DUP1 PUSH1 0x40 MSTORE POP DUP2 ADD SWAP1 PUSH2 0x10EA SWAP2 SWAP1 PUSH2 0x2F1F JUMP JUMPDEST SWAP1 POP DUP6 DUP2 GT ISZERO PUSH2 0x10F7 JUMPI POP DUP5 JUMPDEST DUP1 PUSH1 0x0 SUB PUSH2 0x110D JUMPI POP POP POP POP POP POP POP POP POP PUSH2 0x13B8 JUMP JUMPDEST PUSH1 0x40 MLOAD PUSH4 0x71DACC7D PUSH1 0xE1 SHL DUP2 MSTORE PUSH1 0x0 DUP1 MLOAD PUSH1 0x20 PUSH2 0x2FF4 DUP4 CODECOPY DUP2 MLOAD SWAP2 MSTORE PUSH1 0x4 DUP3 ADD MSTORE PUSH1 0x0 DUP1 MLOAD PUSH1 0x20 PUSH2 0x3014 DUP4 CODECOPY DUP2 MLOAD SWAP2 MSTORE PUSH1 0x24 DUP3 ADD MSTORE PUSH1 0x44 DUP2 ADD DUP7 SWAP1 MSTORE PUSH1 0x0 SWAP1 PUSH2 0x805 SWAP1 PUSH4 0xE3B598FA SWAP1 PUSH1 0x64 ADD PUSH1 0x20 PUSH1 0x40 MLOAD DUP1 DUP4 SUB DUP2 DUP7 GAS STATICCALL ISZERO DUP1 ISZERO PUSH2 0x1176 JUMPI RETURNDATASIZE PUSH1 0x0 DUP1 RETURNDATACOPY RETURNDATASIZE PUSH1 0x0 REVERT JUMPDEST POP POP POP POP PUSH1 0x40 MLOAD RETURNDATASIZE PUSH1 0x1F NOT PUSH1 0x1F DUP3 ADD AND DUP3 ADD DUP1 PUSH1 0x40 MSTORE POP DUP2 ADD SWAP1 PUSH2 0x119A SWAP2 SWAP1 PUSH2 0x2F1F JUMP JUMPDEST PUSH1 0x40 MLOAD PUSH4 0xBE72FB1 PUSH1 0xE1 SHL DUP2 MSTORE PUSH1 0x0 DUP1 MLOAD PUSH1 0x20 PUSH2 0x3014 DUP4 CODECOPY DUP2 MLOAD SWAP2 MSTORE PUSH1 0x4 DUP3 ADD MSTORE PUSH1 0x0 DUP1 MLOAD PUSH1 0x20 PUSH2 0x2FF4 DUP4 CODECOPY DUP2 MLOAD SWAP2 MSTORE PUSH1 0x24 DUP3 ADD MSTORE PUSH1 0x0 PUSH1 0x44 DUP3 ADD MSTORE PUSH1 0x64 DUP2 ADD DUP9 SWAP1 MSTORE PUSH1 0x84 DUP2 ADD DUP5 SWAP1 MSTORE SWAP1 SWAP2 POP PUSH2 0x805 SWAP1 PUSH4 0x17CE5F62 SWAP1 PUSH1 0xA4 ADD PUSH1 0x0 PUSH1 0x40 MLOAD DUP1 DUP4 SUB DUP2 PUSH1 0x0 DUP8 DUP1 EXTCODESIZE ISZERO DUP1 ISZERO PUSH2 0x120E JUMPI PUSH1 0x0 DUP1 REVERT JUMPDEST POP GAS CALL ISZERO DUP1 ISZERO PUSH2 0x1222 JUMPI RETURNDATASIZE PUSH1 0x0 DUP1 RETURNDATACOPY RETURNDATASIZE PUSH1 0x0 REVERT JUMPDEST POP POP PUSH1 0x40 MLOAD PUSH4 0x69E38BC3 PUSH1 0xE0 SHL DUP2 MSTORE PUSH2 0xFFFF DUP10 AND PUSH1 0x4 DUP3 ADD MSTORE PUSH1 0x0 SWAP3 POP PUSH2 0x808 SWAP2 POP PUSH4 0x69E38BC3 SWAP1 PUSH1 0x24 ADD PUSH1 0x20 PUSH1 0x40 MLOAD DUP1 DUP4 SUB DUP2 DUP7 GAS STATICCALL ISZERO DUP1 ISZERO PUSH2 0x126A JUMPI RETURNDATASIZE PUSH1 0x0 DUP1 RETURNDATACOPY RETURNDATASIZE PUSH1 0x0 REVERT JUMPDEST POP POP POP POP PUSH1 0x40 MLOAD RETURNDATASIZE PUSH1 0x1F NOT PUSH1 0x1F DUP3 ADD AND DUP3 ADD DUP1 PUSH1 0x40 MSTORE POP DUP2 ADD SWAP1 PUSH2 0x128E SWAP2 SWAP1 PUSH2 0x2F1F JUMP JUMPDEST SWAP1 POP DUP2 PUSH1 0x0 SUB PUSH2 0x12B3 JUMPI DUP1 PUSH1 0x3 DUP9 PUSH1 0x81 DUP2 LT PUSH2 0x12AC JUMPI PUSH2 0x12AC PUSH2 0x2F09 JUMP JUMPDEST ADD SSTORE PUSH2 0x13A2 JUMP JUMPDEST PUSH1 0x40 MLOAD PUSH4 0x71DACC7D PUSH1 0xE1 SHL DUP2 MSTORE PUSH1 0x0 DUP1 MLOAD PUSH1 0x20 PUSH2 0x2FF4 DUP4 CODECOPY DUP2 MLOAD SWAP2 MSTORE PUSH1 0x4 DUP3 ADD MSTORE PUSH1 0x0 DUP1 MLOAD PUSH1 0x20 PUSH2 0x3014 DUP4 CODECOPY DUP2 MLOAD SWAP2 MSTORE PUSH1 0x24 DUP3 ADD MSTORE PUSH1 0x44 DUP2 ADD DUP9 SWAP1 MSTORE PUSH1 0x0 SWAP1 PUSH2 0x805 SWAP1 PUSH4 0xE3B598FA SWAP1 PUSH1 0x64 ADD PUSH1 0x20 PUSH1 0x40 MLOAD DUP1 DUP4 SUB DUP2 DUP7 GAS STATICCALL ISZERO DUP1 ISZERO PUSH2 0x131C JUMPI RETURNDATASIZE PUSH1 0x0 DUP1 RETURNDATACOPY RETURNDATASIZE PUSH1 0x0 REVERT JUMPDEST POP POP POP POP PUSH1 0x40 MLOAD RETURNDATASIZE PUSH1 0x1F NOT PUSH1 0x1F DUP3 ADD AND DUP3 ADD DUP1 PUSH1 0x40 MSTORE POP DUP2 ADD SWAP1 PUSH2 0x1340 SWAP2 SWAP1 PUSH2 0x2F1F JUMP JUMPDEST SWAP1 POP DUP1 PUSH2 0x134D DUP5 DUP3 PUSH2 0x2F4E JUMP JUMPDEST PUSH2 0x1357 SWAP1 DUP5 PUSH2 0x2F61 JUMP JUMPDEST DUP5 PUSH1 0x3 DUP12 PUSH1 0x81 DUP2 LT PUSH2 0x136B JUMPI PUSH2 0x136B PUSH2 0x2F09 JUMP JUMPDEST ADD SLOAD PUSH2 0x1377 SWAP2 SWAP1 PUSH2 0x2F61 JUMP JUMPDEST PUSH2 0x1381 SWAP2 SWAP1 PUSH2 0x2F78 JUMP JUMPDEST PUSH2 0x138B SWAP2 SWAP1 PUSH2 0x2FA1 JUMP JUMPDEST PUSH1 0x3 DUP10 PUSH1 0x81 DUP2 LT PUSH2 0x139E JUMPI PUSH2 0x139E PUSH2 0x2F09 JUMP JUMPDEST ADD SSTORE POP JUMPDEST POP POP POP JUMPDEST POP POP POP POP JUMPDEST POP PUSH1 0x1 ADD PUSH2 0xF89 JUMP JUMPDEST POP POP POP JUMPDEST PUSH2 0x13C2 PUSH1 0x1 PUSH1 0x0 SSTORE JUMP JUMPDEST POP POP POP POP POP POP JUMP JUMPDEST PUSH2 0x13D2 PUSH2 0x24AB JUMP JUMPDEST PUSH1 0x85 SLOAD PUSH1 0x1 PUSH1 0x1 PUSH1 0xA0 SHL SUB AND CALLER EQ DUP1 ISZERO SWAP1 PUSH2 0x13F8 JUMPI POP PUSH1 0x84 SLOAD PUSH1 0x1 PUSH1 0x1 PUSH1 0xA0 SHL SUB AND CALLER EQ ISZERO JUMPDEST ISZERO PUSH2 0x1416 JUMPI PUSH1 0x40 MLOAD PUSH4 0xB4A87E7 PUSH1 0xE1 SHL DUP2 MSTORE PUSH1 0x4 ADD PUSH1 0x40 MLOAD DUP1 SWAP2 SUB SWAP1 REVERT JUMPDEST PUSH1 0x40 MLOAD PUSH4 0x7D691E3 PUSH1 0xE4 SHL DUP2 MSTORE PUSH1 0x0 DUP1 MLOAD PUSH1 0x20 PUSH2 0x2FF4 DUP4 CODECOPY DUP2 MLOAD SWAP2 MSTORE PUSH1 0x4 DUP3 ADD MSTORE PUSH1 0x24 DUP2 ADD DUP3 SWAP1 MSTORE PUSH1 0x0 PUSH1 0x44 DUP3 ADD MSTORE PUSH2 0x805 SWAP1 PUSH4 0x7D691E30 SWAP1 PUSH1 0x64 ADD JUMPDEST PUSH1 0x0 PUSH1 0x40 MLOAD DUP1 DUP4 SUB DUP2 PUSH1 0x0 DUP8 DUP1 EXTCODESIZE ISZERO DUP1 ISZERO PUSH2 0x146D JUMPI PUSH1 0x0 DUP1 REVERT JUMPDEST POP GAS CALL ISZERO DUP1 ISZERO PUSH2 0x1481 JUMPI RETURNDATASIZE PUSH1 0x0 DUP1 RETURNDATACOPY RETURNDATASIZE PUSH1 0x0 REVERT JUMPDEST POP POP POP POP PUSH2 0x148F PUSH1 0x1 PUSH1 0x0 SSTORE JUMP JUMPDEST POP JUMP JUMPDEST PUSH2 0x149A PUSH2 0x24AB JUMP JUMPDEST PUSH1 0x85 SLOAD PUSH1 0x1 PUSH1 0x1 PUSH1 0xA0 SHL SUB AND CALLER EQ PUSH2 0x14C5 JUMPI PUSH1 0x40 MLOAD PUSH4 0x30CD7471 PUSH1 0xE0 SHL DUP2 MSTORE PUSH1 0x4 ADD PUSH1 0x40 MLOAD DUP1 SWAP2 SUB SWAP1 REVERT JUMPDEST DUP3 DUP2 DUP2 EQ PUSH2 0x14E6 JUMPI PUSH1 0x40 MLOAD PUSH4 0x512509D3 PUSH1 0xE1 SHL DUP2 MSTORE PUSH1 0x4 ADD PUSH1 0x40 MLOAD DUP1 SWAP2 SUB SWAP1 REVERT JUMPDEST PUSH1 0x0 JUMPDEST DUP2 DUP2 LT ISZERO PUSH2 0x1732 JUMPI PUSH1 0x0 DUP7 DUP7 DUP4 DUP2 DUP2 LT PUSH2 0x1505 JUMPI PUSH2 0x1505 PUSH2 0x2F09 JUMP JUMPDEST SWAP1 POP PUSH1 0x20 MUL ADD CALLDATALOAD SWAP1 POP PUSH1 0x0 DUP2 SWAP1 POP PUSH1 0x0 DUP7 DUP7 DUP6 DUP2 DUP2 LT PUSH2 0x1527 JUMPI PUSH2 0x1527 PUSH2 0x2F09 JUMP JUMPDEST PUSH1 0x40 MLOAD PUSH4 0x69E38BC3 PUSH1 0xE0 SHL DUP2 MSTORE PUSH2 0xFFFF DUP7 AND PUSH1 0x4 DUP3 ADD MSTORE PUSH1 0x20 SWAP1 SWAP2 MUL SWAP3 SWAP1 SWAP3 ADD CALLDATALOAD SWAP3 POP PUSH1 0x0 SWAP2 PUSH2 0x808 SWAP2 POP PUSH4 0x69E38BC3 SWAP1 PUSH1 0x24 ADD PUSH1 0x20 PUSH1 0x40 MLOAD DUP1 DUP4 SUB DUP2 DUP7 GAS STATICCALL ISZERO DUP1 ISZERO PUSH2 0x1578 JUMPI RETURNDATASIZE PUSH1 0x0 DUP1 RETURNDATACOPY RETURNDATASIZE PUSH1 0x0 REVERT JUMPDEST POP POP POP POP PUSH1 0x40 MLOAD RETURNDATASIZE PUSH1 0x1F NOT PUSH1 0x1F DUP3 ADD AND DUP3 ADD DUP1 PUSH1 0x40 MSTORE POP DUP2 ADD SWAP1 PUSH2 0x159C SWAP2 SWAP1 PUSH2 0x2F1F JUMP JUMPDEST SWAP1 POP DUP1 DUP3 GT PUSH2 0x1723 JUMPI PUSH1 0x40 MLOAD PUSH4 0x71DACC7D PUSH1 0xE1 SHL DUP2 MSTORE PUSH1 0x0 DUP1 MLOAD PUSH1 0x20 PUSH2 0x2FF4 DUP4 CODECOPY DUP2 MLOAD SWAP2 MSTORE PUSH1 0x4 DUP3 ADD MSTORE PUSH1 0x0 DUP1 MLOAD PUSH1 0x20 PUSH2 0x3014 DUP4 CODECOPY DUP2 MLOAD SWAP2 MSTORE PUSH1 0x24 DUP3 ADD MSTORE PUSH1 0x44 DUP2 ADD DUP6 SWAP1 MSTORE PUSH1 0x0 SWAP1 PUSH2 0x805 SWAP1 PUSH4 0xE3B598FA SWAP1 PUSH1 0x64 ADD PUSH1 0x20 PUSH1 0x40 MLOAD DUP1 DUP4 SUB DUP2 DUP7 GAS STATICCALL ISZERO DUP1 ISZERO PUSH2 0x160E JUMPI RETURNDATASIZE PUSH1 0x0 DUP1 RETURNDATACOPY RETURNDATASIZE PUSH1 0x0 REVERT JUMPDEST POP POP POP POP PUSH1 0x40 MLOAD RETURNDATASIZE PUSH1 0x1F NOT PUSH1 0x1F DUP3 ADD AND DUP3 ADD DUP1 PUSH1 0x40 MSTORE POP DUP2 ADD SWAP1 PUSH2 0x1632 SWAP2 SWAP1 PUSH2 0x2F1F JUMP JUMPDEST SWAP1 POP DUP1 ISZERO PUSH2 0x1721 JUMPI PUSH1 0x40 MLOAD PUSH4 0x2D67F0B9 PUSH1 0xE0 SHL DUP2 MSTORE PUSH1 0x4 DUP2 ADD DUP7 SWAP1 MSTORE PUSH1 0x24 DUP2 ADD DUP3 SWAP1 MSTORE PUSH20 0xCFC33F8523008E7D128C24F72DF9E482DE5D1159 SWAP1 PUSH4 0x2D67F0B9 SWAP1 PUSH1 0x44 ADD PUSH1 0x0 PUSH1 0x40 MLOAD DUP1 DUP4 SUB DUP2 PUSH1 0x0 DUP8 DUP1 EXTCODESIZE ISZERO DUP1 ISZERO PUSH2 0x168E JUMPI PUSH1 0x0 DUP1 REVERT JUMPDEST POP GAS CALL ISZERO DUP1 ISZERO PUSH2 0x16A2 JUMPI RETURNDATASIZE PUSH1 0x0 DUP1 RETURNDATACOPY RETURNDATASIZE PUSH1 0x0 REVERT JUMPDEST POP POP PUSH1 0x40 MLOAD PUSH4 0x69E38BC3 PUSH1 0xE0 SHL DUP2 MSTORE PUSH2 0xFFFF DUP8 AND PUSH1 0x4 DUP3 ADD MSTORE PUSH2 0x808 SWAP3 POP PUSH4 0x69E38BC3 SWAP2 POP PUSH1 0x24 ADD PUSH1 0x20 PUSH1 0x40 MLOAD DUP1 DUP4 SUB DUP2 DUP7 GAS STATICCALL ISZERO DUP1 ISZERO PUSH2 0x16E7 JUMPI RETURNDATASIZE PUSH1 0x0 DUP1 RETURNDATACOPY RETURNDATASIZE PUSH1 0x0 REVERT JUMPDEST POP POP POP POP PUSH1 0x40 MLOAD RETURNDATASIZE PUSH1 0x1F NOT PUSH1 0x1F DUP3 ADD AND DUP3 ADD DUP1 PUSH1 0x40 MSTORE POP DUP2 ADD SWAP1 PUSH2 0x170B SWAP2 SWAP1 PUSH2 0x2F1F JUMP JUMPDEST PUSH1 0x3 DUP7 PUSH1 0x81 DUP2 LT PUSH2 0x171E JUMPI PUSH2 0x171E PUSH2 0x2F09 JUMP JUMPDEST ADD SSTORE JUMPDEST POP JUMPDEST DUP5 PUSH1 0x1 ADD SWAP5 POP POP POP POP POP PUSH2 0x14E9 JUMP JUMPDEST POP POP PUSH2 0x173E PUSH1 0x1 PUSH1 0x0 SSTORE JUMP JUMPDEST POP POP POP POP JUMP JUMPDEST PUSH2 0x174C PUSH2 0x24AB JUMP JUMPDEST PUSH1 0x87 SLOAD PUSH1 0xFF AND ISZERO PUSH2 0x1770 JUMPI PUSH1 0x40 MLOAD PUSH4 0xA62BAEB7 PUSH1 0xE0 SHL DUP2 MSTORE PUSH1 0x4 ADD PUSH1 0x40 MLOAD DUP1 SWAP2 SUB SWAP1 REVERT JUMPDEST PUSH1 0x0 PUSH2 0xE10 PUSH2 0x1782 PUSH3 0x15180 TIMESTAMP PUSH2 0x2FB5 JUMP JUMPDEST PUSH2 0x178C SWAP2 SWAP1 PUSH2 0x2FA1 JUMP JUMPDEST SWAP1 POP PUSH1 0xE DUP2 LT DUP1 PUSH2 0x179E JUMPI POP PUSH1 0x10 DUP2 LT ISZERO JUMPDEST ISZERO PUSH2 0x17BC JUMPI PUSH1 0x40 MLOAD PUSH4 0xCC1DE8D9 PUSH1 0xE0 SHL DUP2 MSTORE PUSH1 0x4 ADD PUSH1 0x40 MLOAD DUP1 SWAP2 SUB SWAP1 REVERT JUMPDEST PUSH1 0x84 SLOAD PUSH1 0x1 PUSH1 0x1 PUSH1 0xA0 SHL SUB AND CALLER EQ PUSH2 0x17E7 JUMPI PUSH1 0x40 MLOAD PUSH4 0x2D99BC83 PUSH1 0xE2 SHL DUP2 MSTORE PUSH1 0x4 ADD PUSH1 0x40 MLOAD DUP1 SWAP2 SUB SWAP1 REVERT JUMPDEST PUSH1 0x1 PUSH1 0x1 PUSH1 0xA0 SHL SUB DUP4 AND PUSH2 0x180E JUMPI PUSH1 0x40 MLOAD PUSH4 0xE6C4247B PUSH1 0xE0 SHL DUP2 MSTORE PUSH1 0x4 ADD PUSH1 0x40 MLOAD DUP1 SWAP2 SUB SWAP1 REVERT JUMPDEST DUP2 PUSH1 0x0 SUB PUSH2 0x182F JUMPI PUSH1 0x40 MLOAD PUSH4 0x65E52D51 PUSH1 0xE1 SHL DUP2 MSTORE PUSH1 0x4 ADD PUSH1 0x40 MLOAD DUP1 SWAP2 SUB SWAP1 REVERT JUMPDEST PUSH1 0x0 DUP4 PUSH1 0x1 PUSH1 0x1 PUSH1 0xA0 SHL SUB AND DUP4 PUSH1 0x40 MLOAD PUSH1 0x0 PUSH1 0x40 MLOAD DUP1 DUP4 SUB DUP2 DUP6 DUP8 GAS CALL SWAP3 POP POP POP RETURNDATASIZE DUP1 PUSH1 0x0 DUP2 EQ PUSH2 0x187C JUMPI PUSH1 0x40 MLOAD SWAP2 POP PUSH1 0x1F NOT PUSH1 0x3F RETURNDATASIZE ADD AND DUP3 ADD PUSH1 0x40 MSTORE RETURNDATASIZE DUP3 MSTORE RETURNDATASIZE PUSH1 0x0 PUSH1 0x20 DUP5 ADD RETURNDATACOPY PUSH2 0x1881 JUMP JUMPDEST PUSH1 0x60 SWAP2 POP JUMPDEST POP POP SWAP1 POP DUP1 PUSH2 0x18A3 JUMPI PUSH1 0x40 MLOAD PUSH4 0x12171D83 PUSH1 0xE3 SHL DUP2 MSTORE PUSH1 0x4 ADD PUSH1 0x40 MLOAD DUP1 SWAP2 SUB SWAP1 REVERT JUMPDEST POP POP PUSH2 0x18AF PUSH1 0x1 PUSH1 0x0 SSTORE JUMP JUMPDEST POP POP JUMP JUMPDEST PUSH2 0x18BB PUSH2 0x24AB JUMP JUMPDEST PUSH1 0x85 SLOAD PUSH1 0x1 PUSH1 0x1 PUSH1 0xA0 SHL SUB AND CALLER EQ DUP1 ISZERO SWAP1 PUSH2 0x18E1 JUMPI POP PUSH1 0x84 SLOAD PUSH1 0x1 PUSH1 0x1 PUSH1 0xA0 SHL SUB AND CALLER EQ ISZERO JUMPDEST ISZERO PUSH2 0x18FF JUMPI PUSH1 0x40 MLOAD PUSH4 0xB4A87E7 PUSH1 0xE1 SHL DUP2 MSTORE PUSH1 0x4 ADD PUSH1 0x40 MLOAD DUP1 SWAP2 SUB SWAP1 REVERT JUMPDEST PUSH1 0x40 MLOAD PUSH4 0x1FC9B141 PUSH1 0xE0 SHL DUP2 MSTORE PUSH1 0x0 DUP1 MLOAD PUSH1 0x20 PUSH2 0x2FF4 DUP4 CODECOPY DUP2 MLOAD SWAP2 MSTORE PUSH1 0x4 DUP3 ADD MSTORE PUSH1 0x24 DUP2 ADD DUP3 SWAP1 MSTORE PUSH1 0x0 PUSH1 0x44 DUP3 ADD MSTORE PUSH2 0x805 SWAP1 PUSH4 0x1FC9B141 SWAP1 PUSH1 0x64 ADD PUSH2 0x1453 JUMP JUMPDEST PUSH2 0x1948 PUSH2 0x24AB JUMP JUMPDEST PUSH1 0x85 SLOAD PUSH1 0x1 PUSH1 0x1 PUSH1 0xA0 SHL SUB AND CALLER EQ DUP1 ISZERO SWAP1 PUSH2 0x196E JUMPI POP PUSH1 0x84 SLOAD PUSH1 0x1 PUSH1 0x1 PUSH1 0xA0 SHL SUB AND CALLER EQ ISZERO JUMPDEST ISZERO PUSH2 0x198C JUMPI PUSH1 0x40 MLOAD PUSH4 0xB4A87E7 PUSH1 0xE1 SHL DUP2 MSTORE PUSH1 0x4 ADD PUSH1 0x40 MLOAD DUP1 SWAP2 SUB SWAP1 REVERT JUMPDEST PUSH1 0x40 MLOAD PUSH4 0xD4626BB9 PUSH1 0xE0 SHL DUP2 MSTORE PUSH1 0x0 DUP1 MLOAD PUSH1 0x20 PUSH2 0x2FF4 DUP4 CODECOPY DUP2 MLOAD SWAP2 MSTORE PUSH1 0x4 DUP3 ADD MSTORE PUSH1 0x0 PUSH1 0x24 DUP3 ADD MSTORE PUSH2 0x805 SWAP1 PUSH4 0xD4626BB9 SWAP1 PUSH1 0x44 ADD PUSH1 0x0 PUSH1 0x40 MLOAD DUP1 DUP4 SUB DUP2 PUSH1 0x0 DUP8 DUP1 EXTCODESIZE ISZERO DUP1 ISZERO PUSH2 0x19DB JUMPI PUSH1 0x0 DUP1 REVERT JUMPDEST POP GAS CALL ISZERO DUP1 ISZERO PUSH2 0x19EF JUMPI RETURNDATASIZE PUSH1 0x0 DUP1 RETURNDATACOPY RETURNDATASIZE PUSH1 0x0 REVERT JUMPDEST POP POP POP POP PUSH2 0x19FD PUSH1 0x1 PUSH1 0x0 SSTORE JUMP JUMPDEST JUMP JUMPDEST PUSH1 0x85 SLOAD PUSH1 0x1 PUSH1 0x1 PUSH1 0xA0 SHL SUB AND CALLER EQ PUSH2 0x1A2A JUMPI PUSH1 0x40 MLOAD PUSH4 0x30CD7471 PUSH1 0xE0 SHL DUP2 MSTORE PUSH1 0x4 ADD PUSH1 0x40 MLOAD DUP1 SWAP2 SUB SWAP1 REVERT JUMPDEST PUSH2 0x1A36 PUSH1 0x1 DUP4 DUP4 PUSH2 0x2963 JUMP JUMPDEST POP POP POP JUMP JUMPDEST PUSH2 0x1A43 PUSH2 0x24AB JUMP JUMPDEST PUSH1 0x87 SLOAD PUSH1 0xFF AND ISZERO PUSH2 0x1A67 JUMPI PUSH1 0x40 MLOAD PUSH4 0xA62BAEB7 PUSH1 0xE0 SHL DUP2 MSTORE PUSH1 0x4 ADD PUSH1 0x40 MLOAD DUP1 SWAP2 SUB SWAP1 REVERT JUMPDEST PUSH1 0x84 SLOAD PUSH1 0x1 PUSH1 0x1 PUSH1 0xA0 SHL SUB AND CALLER EQ PUSH2 0x1A92 JUMPI PUSH1 0x40 MLOAD PUSH4 0x2D99BC83 PUSH1 0xE2 SHL DUP2 MSTORE PUSH1 0x4 ADD PUSH1 0x40 MLOAD DUP1 SWAP2 SUB SWAP1 REVERT JUMPDEST PUSH1 0x40 MLOAD PUSH3 0x57C71B PUSH1 0xE4 SHL DUP2 MSTORE PUSH1 0x4 DUP2 ADD DUP3 SWAP1 MSTORE PUSH1 0x0 DUP1 MLOAD PUSH1 0x20 PUSH2 0x3014 DUP4 CODECOPY DUP2 MLOAD SWAP2 MSTORE PUSH1 0x24 DUP3 ADD MSTORE PUSH20 0xCFC33F8523008E7D128C24F72DF9E482DE5D1159 SWAP1 PUSH4 0x57C71B0 SWAP1 PUSH1 0x44 ADD PUSH2 0x1453 JUMP JUMPDEST PUSH2 0x1AE5 PUSH2 0x2944 JUMP JUMPDEST PUSH2 0x1AED PUSH2 0x273B JUMP JUMPDEST SWAP1 POP SWAP1 JUMP JUMPDEST PUSH1 0x1 DUP2 DUP2 SLOAD DUP2 LT PUSH2 0x1B02 JUMPI PUSH1 0x0 DUP1 REVERT JUMPDEST PUSH1 0x0 SWAP2 DUP3 MSTORE PUSH1 0x20 SWAP1 SWAP2 KECCAK256 ADD SLOAD PUSH1 0x1 PUSH1 0x1 PUSH1 0xA0 SHL SUB AND SWAP1 POP DUP2 JUMP JUMPDEST PUSH2 0x1B24 PUSH2 0x2944 JUMP JUMPDEST PUSH2 0x1AED PUSH2 0x268C JUMP JUMPDEST PUSH1 0x85 SLOAD PUSH1 0x1 PUSH1 0x1 PUSH1 0xA0 SHL SUB AND CALLER EQ PUSH2 0x1B57 JUMPI PUSH1 0x40 MLOAD PUSH4 0x30CD7471 PUSH1 0xE0 SHL DUP2 MSTORE PUSH1 0x4 ADD PUSH1 0x40 MLOAD DUP1 SWAP2 SUB SWAP1 REVERT JUMPDEST DUP3 DUP2 DUP2 EQ PUSH2 0x1B78 JUMPI PUSH1 0x40 MLOAD PUSH4 0x512509D3 PUSH1 0xE1 SHL DUP2 MSTORE PUSH1 0x4 ADD PUSH1 0x40 MLOAD DUP1 SWAP2 SUB SWAP1 REVERT JUMPDEST PUSH1 0x0 JUMPDEST DUP2 DUP2 LT ISZERO PUSH2 0x13C2 JUMPI DUP4 DUP4 DUP3 DUP2 DUP2 LT PUSH2 0x1B95 JUMPI PUSH2 0x1B95 PUSH2 0x2F09 JUMP JUMPDEST SWAP1 POP PUSH1 0x20 MUL ADD CALLDATALOAD PUSH1 0x3 DUP8 DUP8 DUP5 DUP2 DUP2 LT PUSH2 0x1BB0 JUMPI PUSH2 0x1BB0 PUSH2 0x2F09 JUMP JUMPDEST SWAP1 POP PUSH1 0x20 MUL ADD CALLDATALOAD PUSH1 0x81 DUP2 LT PUSH2 0x1BC7 JUMPI PUSH2 0x1BC7 PUSH2 0x2F09 JUMP JUMPDEST ADD SSTORE PUSH1 0x1 ADD PUSH2 0x1B7B JUMP JUMPDEST PUSH2 0x1BD9 PUSH2 0x2944 JUMP JUMPDEST PUSH2 0x1AED PUSH2 0x25E8 JUMP JUMPDEST PUSH1 0x85 SLOAD PUSH1 0x1 PUSH1 0x1 PUSH1 0xA0 SHL SUB AND CALLER EQ PUSH2 0x1C0C JUMPI PUSH1 0x40 MLOAD PUSH4 0x30CD7471 PUSH1 0xE0 SHL DUP2 MSTORE PUSH1 0x4 ADD PUSH1 0x40 MLOAD DUP1 SWAP2 SUB SWAP1 REVERT JUMPDEST PUSH1 0x87 DUP1 SLOAD PUSH1 0xFF NOT AND PUSH1 0x1 OR SWAP1 SSTORE JUMP JUMPDEST PUSH2 0x1C23 PUSH2 0x24AB JUMP JUMPDEST PUSH1 0x85 SLOAD PUSH1 0x1 PUSH1 0x1 PUSH1 0xA0 SHL SUB AND CALLER EQ PUSH2 0x1C4E JUMPI PUSH1 0x40 MLOAD PUSH4 0x30CD7471 PUSH1 0xE0 SHL DUP2 MSTORE PUSH1 0x4 ADD PUSH1 0x40 MLOAD DUP1 SWAP2 SUB SWAP1 REVERT JUMPDEST DUP7 DUP6 DUP5 EQ PUSH2 0x1C6F JUMPI PUSH1 0x40 MLOAD PUSH4 0x512509D3 PUSH1 0xE1 SHL DUP2 MSTORE PUSH1 0x4 ADD PUSH1 0x40 MLOAD DUP1 SWAP2 SUB SWAP1 REVERT JUMPDEST PUSH1 0x0 JUMPDEST DUP2 DUP2 LT ISZERO PUSH2 0x1E49 JUMPI PUSH1 0x0 DUP11 DUP11 DUP4 DUP2 DUP2 LT PUSH2 0x1C8E JUMPI PUSH2 0x1C8E PUSH2 0x2F09 JUMP JUMPDEST SWAP1 POP PUSH1 0x20 MUL ADD CALLDATALOAD SWAP1 POP PUSH2 0x1CBD DUP2 DUP7 DUP7 DUP6 DUP2 DUP2 LT PUSH2 0x1CAD JUMPI PUSH2 0x1CAD PUSH2 0x2F09 JUMP JUMPDEST SWAP1 POP PUSH1 0x20 MUL ADD CALLDATALOAD DUP12 DUP12 DUP12 DUP12 PUSH2 0x2508 JUMP JUMPDEST ISZERO PUSH2 0x1E40 JUMPI PUSH1 0x40 MLOAD PUSH4 0x71DACC7D PUSH1 0xE1 SHL DUP2 MSTORE PUSH1 0x0 DUP1 MLOAD PUSH1 0x20 PUSH2 0x2FF4 DUP4 CODECOPY DUP2 MLOAD SWAP2 MSTORE PUSH1 0x4 DUP3 ADD MSTORE PUSH1 0x0 DUP1 MLOAD PUSH1 0x20 PUSH2 0x3014 DUP4 CODECOPY DUP2 MLOAD SWAP2 MSTORE PUSH1 0x24 DUP3 ADD MSTORE PUSH1 0x44 DUP2 ADD DUP3 SWAP1 MSTORE PUSH1 0x0 SWAP1 PUSH2 0x805 SWAP1 PUSH4 0xE3B598FA SWAP1 PUSH1 0x64 ADD PUSH1 0x20 PUSH1 0x40 MLOAD DUP1 DUP4 SUB DUP2 DUP7 GAS STATICCALL ISZERO DUP1 ISZERO PUSH2 0x1D2B JUMPI RETURNDATASIZE PUSH1 0x0 DUP1 RETURNDATACOPY RETURNDATASIZE PUSH1 0x0 REVERT JUMPDEST POP POP POP POP PUSH1 0x40 MLOAD RETURNDATASIZE PUSH1 0x1F NOT PUSH1 0x1F DUP3 ADD AND DUP3 ADD DUP1 PUSH1 0x40 MSTORE POP DUP2 ADD SWAP1 PUSH2 0x1D4F SWAP2 SWAP1 PUSH2 0x2F1F JUMP JUMPDEST SWAP1 POP DUP1 ISZERO PUSH2 0x1E3E JUMPI PUSH1 0x40 MLOAD PUSH4 0x2D67F0B9 PUSH1 0xE0 SHL DUP2 MSTORE PUSH1 0x4 DUP2 ADD DUP4 SWAP1 MSTORE PUSH1 0x24 DUP2 ADD DUP3 SWAP1 MSTORE PUSH20 0xCFC33F8523008E7D128C24F72DF9E482DE5D1159 SWAP1 PUSH4 0x2D67F0B9 SWAP1 PUSH1 0x44 ADD PUSH1 0x0 PUSH1 0x40 MLOAD DUP1 DUP4 SUB DUP2 PUSH1 0x0 DUP8 DUP1 EXTCODESIZE ISZERO DUP1 ISZERO PUSH2 0x1DAB JUMPI PUSH1 0x0 DUP1 REVERT JUMPDEST POP GAS CALL ISZERO DUP1 ISZERO PUSH2 0x1DBF JUMPI RETURNDATASIZE PUSH1 0x0 DUP1 RETURNDATACOPY RETURNDATASIZE PUSH1 0x0 REVERT JUMPDEST POP POP PUSH1 0x40 MLOAD PUSH4 0x69E38BC3 PUSH1 0xE0 SHL DUP2 MSTORE PUSH2 0xFFFF DUP6 AND PUSH1 0x4 DUP3 ADD MSTORE PUSH2 0x808 SWAP3 POP PUSH4 0x69E38BC3 SWAP2 POP PUSH1 0x24 ADD PUSH1 0x20 PUSH1 0x40 MLOAD DUP1 DUP4 SUB DUP2 DUP7 GAS STATICCALL ISZERO DUP1 ISZERO PUSH2 0x1E04 JUMPI RETURNDATASIZE PUSH1 0x0 DUP1 RETURNDATACOPY RETURNDATASIZE PUSH1 0x0 REVERT JUMPDEST POP POP POP POP PUSH1 0x40 MLOAD RETURNDATASIZE PUSH1 0x1F NOT PUSH1 0x1F DUP3 ADD AND DUP3 ADD DUP1 PUSH1 0x40 MSTORE POP DUP2 ADD SWAP1 PUSH2 0x1E28 SWAP2 SWAP1 PUSH2 0x2F1F JUMP JUMPDEST PUSH1 0x3 DUP4 PUSH1 0x81 DUP2 LT PUSH2 0x1E3B JUMPI PUSH2 0x1E3B PUSH2 0x2F09 JUMP JUMPDEST ADD SSTORE JUMPDEST POP JUMPDEST POP PUSH1 0x1 ADD PUSH2 0x1C72 JUMP JUMPDEST POP POP PUSH2 0x1E55 PUSH1 0x1 PUSH1 0x0 SSTORE JUMP JUMPDEST POP POP POP POP POP POP POP POP JUMP JUMPDEST PUSH2 0x1E67 PUSH2 0x24AB JUMP JUMPDEST PUSH1 0x87 SLOAD PUSH1 0xFF AND ISZERO PUSH2 0x1E8B JUMPI PUSH1 0x40 MLOAD PUSH4 0xA62BAEB7 PUSH1 0xE0 SHL DUP2 MSTORE PUSH1 0x4 ADD PUSH1 0x40 MLOAD DUP1 SWAP2 SUB SWAP1 REVERT JUMPDEST PUSH1 0x85 SLOAD PUSH1 0x1 PUSH1 0x1 PUSH1 0xA0 SHL SUB AND CALLER EQ PUSH2 0x1EB6 JUMPI PUSH1 0x40 MLOAD PUSH4 0x30CD7471 PUSH1 0xE0 SHL DUP2 MSTORE PUSH1 0x4 ADD PUSH1 0x40 MLOAD DUP1 SWAP2 SUB SWAP1 REVERT JUMPDEST PUSH1 0x1 PUSH1 0x1 PUSH1 0xA0 SHL SUB DUP3 AND PUSH2 0x1EDD JUMPI PUSH1 0x40 MLOAD PUSH4 0xE6C4247B PUSH1 0xE0 SHL DUP2 MSTORE PUSH1 0x4 ADD PUSH1 0x40 MLOAD DUP1 SWAP2 SUB SWAP1 REVERT JUMPDEST DUP1 PUSH1 0x0 SUB PUSH2 0x1EFE JUMPI PUSH1 0x40 MLOAD PUSH4 0x65E52D51 PUSH1 0xE1 SHL DUP2 MSTORE PUSH1 0x4 ADD PUSH1 0x40 MLOAD DUP1 SWAP2 SUB SWAP1 REVERT JUMPDEST PUSH8 0xDE0B6B3A7640000 DUP2 GT ISZERO PUSH2 0x1F27 JUMPI PUSH1 0x40 MLOAD PUSH4 0x6250401 PUSH1 0xE0 SHL DUP2 MSTORE PUSH1 0x4 ADD PUSH1 0x40 MLOAD DUP1 SWAP2 SUB SWAP1 REVERT JUMPDEST PUSH2 0xA8C0 PUSH1 0x86 SLOAD PUSH2 0x1F37 SWAP2 SWAP1 PUSH2 0x2F78 JUMP JUMPDEST TIMESTAMP LT ISZERO PUSH2 0x1F57 JUMPI PUSH1 0x40 MLOAD PUSH4 0x34932EF PUSH1 0xE5 SHL DUP2 MSTORE PUSH1 0x4 ADD PUSH1 0x40 MLOAD DUP1 SWAP2 SUB SWAP1 REVERT JUMPDEST TIMESTAMP PUSH1 0x86 SSTORE PUSH1 0x40 MLOAD PUSH1 0x0 SWAP1 PUSH1 0x1 PUSH1 0x1 PUSH1 0xA0 SHL SUB DUP5 AND SWAP1 DUP4 SWAP1 DUP4 DUP2 DUP2 DUP2 DUP6 DUP8 GAS CALL SWAP3 POP POP POP RETURNDATASIZE DUP1 PUSH1 0x0 DUP2 EQ PUSH2 0x1FA6 JUMPI PUSH1 0x40 MLOAD SWAP2 POP PUSH1 0x1F NOT PUSH1 0x3F RETURNDATASIZE ADD AND DUP3 ADD PUSH1 0x40 MSTORE RETURNDATASIZE DUP3 MSTORE RETURNDATASIZE PUSH1 0x0 PUSH1 0x20 DUP5 ADD RETURNDATACOPY PUSH2 0x1FAB JUMP JUMPDEST PUSH1 0x60 SWAP2 POP JUMPDEST POP POP SWAP1 POP DUP1 PUSH2 0x1FCD JUMPI PUSH1 0x40 MLOAD PUSH4 0x12171D83 PUSH1 0xE3 SHL DUP2 MSTORE PUSH1 0x4 ADD PUSH1 0x40 MLOAD DUP1 SWAP2 SUB SWAP1 REVERT JUMPDEST POP PUSH2 0x18AF PUSH1 0x1 PUSH1 0x0 SSTORE JUMP JUMPDEST PUSH1 0x84 SLOAD PUSH1 0x1 PUSH1 0x1 PUSH1 0xA0 SHL SUB AND CALLER EQ PUSH2 0x2003 JUMPI PUSH1 0x40 MLOAD PUSH4 0x2D99BC83 PUSH1 0xE2 SHL DUP2 MSTORE PUSH1 0x4 ADD PUSH1 0x40 MLOAD DUP1 SWAP2 SUB SWAP1 REVERT JUMPDEST PUSH1 0x87 DUP1 SLOAD PUSH1 0xFF NOT AND SWAP1 SSTORE JUMP JUMPDEST PUSH1 0x3 DUP2 PUSH1 0x81 DUP2 LT PUSH2 0x201F JUMPI PUSH1 0x0 DUP1 REVERT JUMPDEST ADD SLOAD SWAP1 POP DUP2 JUMP JUMPDEST PUSH2 0x202E PUSH2 0x24AB JUMP JUMPDEST PUSH1 0x85 SLOAD PUSH1 0x1 PUSH1 0x1 PUSH1 0xA0 SHL SUB AND CALLER EQ DUP1 ISZERO SWAP1 PUSH2 0x2054 JUMPI POP PUSH1 0x84 SLOAD PUSH1 0x1 PUSH1 0x1 PUSH1 0xA0 SHL SUB AND CALLER EQ ISZERO JUMPDEST ISZERO PUSH2 0x2072 JUMPI PUSH1 0x40 MLOAD PUSH4 0xB4A87E7 PUSH1 0xE1 SHL DUP2 MSTORE PUSH1 0x4 ADD PUSH1 0x40 MLOAD DUP1 SWAP2 SUB SWAP1 REVERT JUMPDEST SELFBALANCE PUSH1 0x0 DUP2 SWAP1 SUB PUSH2 0x2095 JUMPI PUSH1 0x40 MLOAD PUSH4 0x65E52D51 PUSH1 0xE1 SHL DUP2 MSTORE PUSH1 0x4 ADD PUSH1 0x40 MLOAD DUP1 SWAP2 SUB SWAP1 REVERT JUMPDEST PUSH2 0x805 PUSH4 0x1FC9B141 PUSH1 0x0 DUP1 MLOAD PUSH1 0x20 PUSH2 0x2FF4 DUP4 CODECOPY DUP2 MLOAD SWAP2 MSTORE PUSH2 0x20BA PUSH4 0x3B9ACA00 DUP6 PUSH2 0x2FA1 JUMP JUMPDEST PUSH1 0x40 MLOAD PUSH1 0x1 PUSH1 0x1 PUSH1 0xE0 SHL SUB NOT PUSH1 0xE0 DUP6 SWAP1 SHL AND DUP2 MSTORE PUSH1 0x4 DUP2 ADD SWAP3 SWAP1 SWAP3 MSTORE PUSH1 0x24 DUP3 ADD MSTORE PUSH1 0x0 PUSH1 0x44 DUP3 ADD MSTORE PUSH1 0x64 ADD PUSH1 0x0 PUSH1 0x40 MLOAD DUP1 DUP4 SUB DUP2 PUSH1 0x0 DUP8 DUP1 EXTCODESIZE ISZERO DUP1 ISZERO PUSH2 0x20FF JUMPI PUSH1 0x0 DUP1 REVERT JUMPDEST POP GAS CALL ISZERO DUP1 ISZERO PUSH2 0x2113 JUMPI RETURNDATASIZE PUSH1 0x0 DUP1 RETURNDATACOPY RETURNDATASIZE PUSH1 0x0 REVERT JUMPDEST POP POP POP POP POP PUSH2 0x19FD PUSH1 0x1 PUSH1 0x0 SSTORE JUMP JUMPDEST PUSH2 0x212A PUSH2 0x24AB JUMP JUMPDEST PUSH1 0x84 SLOAD PUSH1 0x1 PUSH1 0x1 PUSH1 0xA0 SHL SUB AND CALLER EQ PUSH2 0x2155 JUMPI PUSH1 0x40 MLOAD PUSH4 0x2D99BC83 PUSH1 0xE2 SHL DUP2 MSTORE PUSH1 0x4 ADD PUSH1 0x40 MLOAD DUP1 SWAP2 SUB SWAP1 REVERT JUMPDEST PUSH1 0x1 PUSH1 0x1 PUSH1 0xA0 SHL SUB DUP3 AND PUSH2 0x217C JUMPI PUSH1 0x40 MLOAD PUSH4 0xE6C4247B PUSH1 0xE0 SHL DUP2 MSTORE PUSH1 0x4 ADD PUSH1 0x40 MLOAD DUP1 SWAP2 SUB SWAP1 REVERT JUMPDEST DUP1 PUSH2 0x219A JUMPI PUSH1 0x40 MLOAD PUSH4 0x666B0C5D PUSH1 0xE0 SHL DUP2 MSTORE PUSH1 0x4 ADD PUSH1 0x40 MLOAD DUP1 SWAP2 SUB SWAP1 REVERT JUMPDEST PUSH1 0x40 MLOAD PUSH4 0xF4F1726B PUSH1 0xE0 SHL DUP2 MSTORE PUSH1 0x1 PUSH1 0x1 PUSH1 0xA0 SHL SUB DUP4 AND PUSH1 0x4 DUP3 ADD MSTORE PUSH1 0x24 DUP2 ADD DUP3 SWAP1 MSTORE PUSH20 0xCFC33F8523008E7D128C24F72DF9E482DE5D1159 SWAP1 PUSH4 0xF4F1726B SWAP1 PUSH1 0x44 ADD PUSH1 0x0 PUSH1 0x40 MLOAD DUP1 DUP4 SUB DUP2 PUSH1 0x0 DUP8 DUP1 EXTCODESIZE ISZERO DUP1 ISZERO PUSH2 0x21F6 JUMPI PUSH1 0x0 DUP1 REVERT JUMPDEST POP GAS CALL ISZERO DUP1 ISZERO PUSH2 0x220A JUMPI RETURNDATASIZE PUSH1 0x0 DUP1 RETURNDATACOPY RETURNDATASIZE PUSH1 0x0 REVERT JUMPDEST POP POP POP POP PUSH2 0x18AF PUSH1 0x1 PUSH1 0x0 SSTORE JUMP JUMPDEST PUSH1 0x85 SLOAD PUSH1 0x1 PUSH1 0x1 PUSH1 0xA0 SHL SUB AND CALLER EQ PUSH2 0x2243 JUMPI PUSH1 0x40 MLOAD PUSH4 0x30CD7471 PUSH1 0xE0 SHL DUP2 MSTORE PUSH1 0x4 ADD PUSH1 0x40 MLOAD DUP1 SWAP2 SUB SWAP1 REVERT JUMPDEST DUP1 PUSH2 0x2261 JUMPI PUSH1 0x40 MLOAD PUSH4 0x666B0C5D PUSH1 0xE0 SHL DUP2 MSTORE PUSH1 0x4 ADD PUSH1 0x40 MLOAD DUP1 SWAP2 SUB SWAP1 REVERT JUMPDEST PUSH1 0x2 SSTORE JUMP JUMPDEST PUSH2 0x226E PUSH2 0x24AB JUMP JUMPDEST PUSH1 0x87 SLOAD PUSH1 0xFF AND ISZERO PUSH2 0x2292 JUMPI PUSH1 0x40 MLOAD PUSH4 0xA62BAEB7 PUSH1 0xE0 SHL DUP2 MSTORE PUSH1 0x4 ADD PUSH1 0x40 MLOAD DUP1 SWAP2 SUB SWAP1 REVERT JUMPDEST PUSH1 0x0 PUSH2 0xE10 PUSH2 0x22A4 PUSH3 0x15180 TIMESTAMP PUSH2 0x2FB5 JUMP JUMPDEST PUSH2 0x22AE SWAP2 SWAP1 PUSH2 0x2FA1 JUMP JUMPDEST SWAP1 POP PUSH1 0xE DUP2 LT DUP1 PUSH2 0x22C0 JUMPI POP PUSH1 0x10 DUP2 LT ISZERO JUMPDEST ISZERO PUSH2 0x22DE JUMPI PUSH1 0x40 MLOAD PUSH4 0xCC1DE8D9 PUSH1 0xE0 SHL DUP2 MSTORE PUSH1 0x4 ADD PUSH1 0x40 MLOAD DUP1 SWAP2 SUB SWAP1 REVERT JUMPDEST PUSH1 0x84 SLOAD PUSH1 0x1 PUSH1 0x1 PUSH1 0xA0 SHL SUB AND CALLER EQ PUSH2 0x2309 JUMPI PUSH1 0x40 MLOAD PUSH4 0x2D99BC83 PUSH1 0xE2 SHL DUP2 MSTORE PUSH1 0x4 ADD PUSH1 0x40 MLOAD DUP1 SWAP2 SUB SWAP1 REVERT JUMPDEST PUSH1 0x1 PUSH1 0x1 PUSH1 0xA0 SHL SUB DUP3 AND PUSH2 0x2330 JUMPI PUSH1 0x40 MLOAD PUSH4 0xE6C4247B PUSH1 0xE0 SHL DUP2 MSTORE PUSH1 0x4 ADD PUSH1 0x40 MLOAD DUP1 SWAP2 SUB SWAP1 REVERT JUMPDEST SELFBALANCE PUSH1 0x0 DUP2 SWAP1 SUB PUSH2 0x2353 JUMPI PUSH1 0x40 MLOAD PUSH4 0x65E52D51 PUSH1 0xE1 SHL DUP2 MSTORE PUSH1 0x4 ADD PUSH1 0x40 MLOAD DUP1 SWAP2 SUB SWAP1 REVERT JUMPDEST PUSH1 0x0 DUP4 PUSH1 0x1 PUSH1 0x1 PUSH1 0xA0 SHL SUB AND DUP3 PUSH1 0x40 MLOAD PUSH1 0x0 PUSH1 0x40 MLOAD DUP1 DUP4 SUB DUP2 DUP6 DUP8 GAS CALL SWAP3 POP POP POP RETURNDATASIZE DUP1 PUSH1 0x0 DUP2 EQ PUSH2 0x23A0 JUMPI PUSH1 0x40 MLOAD SWAP2 POP PUSH1 0x1F NOT PUSH1 0x3F RETURNDATASIZE ADD AND DUP3 ADD PUSH1 0x40 MSTORE RETURNDATASIZE DUP3 MSTORE RETURNDATASIZE PUSH1 0x0 PUSH1 0x20 DUP5 ADD RETURNDATACOPY PUSH2 0x23A5 JUMP JUMPDEST PUSH1 0x60 SWAP2 POP JUMPDEST POP POP SWAP1 POP DUP1 PUSH2 0x23C7 JUMPI PUSH1 0x40 MLOAD PUSH4 0x12171D83 PUSH1 0xE3 SHL DUP2 MSTORE PUSH1 0x4 ADD PUSH1 0x40 MLOAD DUP1 SWAP2 SUB SWAP1 REVERT JUMPDEST POP POP POP PUSH2 0x148F PUSH1 0x1 PUSH1 0x0 SSTORE JUMP JUMPDEST PUSH1 0x0 DUP1 DUP5 DUP2 JUMPDEST DUP2 DUP2 LT ISZERO PUSH2 0x249E JUMPI PUSH2 0x805 PUSH4 0xE3B598FA DUP10 DUP10 DUP5 DUP2 DUP2 LT PUSH2 0x23FC JUMPI PUSH2 0x23FC PUSH2 0x2F09 JUMP JUMPDEST SWAP1 POP PUSH1 0x20 MUL ADD CALLDATALOAD DUP9 DUP9 DUP6 DUP2 DUP2 LT PUSH2 0x2415 JUMPI PUSH2 0x2415 PUSH2 0x2F09 JUMP JUMPDEST PUSH1 0x40 MLOAD PUSH1 0x1 PUSH1 0x1 PUSH1 0xE0 SHL SUB NOT PUSH1 0xE0 DUP8 SWAP1 SHL AND DUP2 MSTORE PUSH1 0x4 DUP2 ADD SWAP5 SWAP1 SWAP5 MSTORE PUSH1 0x20 MUL SWAP2 SWAP1 SWAP2 ADD CALLDATALOAD PUSH1 0x24 DUP4 ADD MSTORE POP PUSH1 0x44 DUP2 ADD DUP13 SWAP1 MSTORE PUSH1 0x64 ADD PUSH1 0x20 PUSH1 0x40 MLOAD DUP1 DUP4 SUB DUP2 DUP7 GAS STATICCALL ISZERO DUP1 ISZERO PUSH2 0x2466 JUMPI RETURNDATASIZE PUSH1 0x0 DUP1 RETURNDATACOPY RETURNDATASIZE PUSH1 0x0 REVERT JUMPDEST POP POP POP POP PUSH1 0x40 MLOAD RETURNDATASIZE PUSH1 0x1F NOT PUSH1 0x1F DUP3 ADD AND DUP3 ADD DUP1 PUSH1 0x40 MSTORE POP DUP2 ADD SWAP1 PUSH2 0x248A SWAP2 SWAP1 PUSH2 0x2F1F JUMP JUMPDEST PUSH2 0x2494 SWAP1 DUP5 PUSH2 0x2F78 JUMP JUMPDEST SWAP3 POP PUSH1 0x1 ADD PUSH2 0x23DA JUMP JUMPDEST POP SWAP1 SWAP8 SWAP7 POP POP POP POP POP POP POP JUMP JUMPDEST PUSH1 0x2 PUSH1 0x0 SLOAD SUB PUSH2 0x2501 JUMPI PUSH1 0x40 MLOAD PUSH3 0x461BCD PUSH1 0xE5 SHL DUP2 MSTORE PUSH1 0x20 PUSH1 0x4 DUP3 ADD MSTORE PUSH1 0x1F PUSH1 0x24 DUP3 ADD MSTORE PUSH32 0x5265656E7472616E637947756172643A207265656E7472616E742063616C6C00 PUSH1 0x44 DUP3 ADD MSTORE PUSH1 0x64 ADD PUSH1 0x40 MLOAD DUP1 SWAP2 SUB SWAP1 REVERT JUMPDEST PUSH1 0x2 PUSH1 0x0 SSTORE JUMP JUMPDEST PUSH1 0x0 DUP4 DUP2 JUMPDEST DUP2 DUP2 LT ISZERO PUSH2 0x25D7 JUMPI DUP8 PUSH2 0x805 PUSH4 0xE3B598FA DUP10 DUP10 DUP6 DUP2 DUP2 LT PUSH2 0x2530 JUMPI PUSH2 0x2530 PUSH2 0x2F09 JUMP JUMPDEST SWAP1 POP PUSH1 0x20 MUL ADD CALLDATALOAD DUP9 DUP9 DUP7 DUP2 DUP2 LT PUSH2 0x2549 JUMPI PUSH2 0x2549 PUSH2 0x2F09 JUMP JUMPDEST PUSH1 0x40 MLOAD PUSH1 0x1 PUSH1 0x1 PUSH1 0xE0 SHL SUB NOT PUSH1 0xE0 DUP8 SWAP1 SHL AND DUP2 MSTORE PUSH1 0x4 DUP2 ADD SWAP5 SWAP1 SWAP5 MSTORE PUSH1 0x20 MUL SWAP2 SWAP1 SWAP2 ADD CALLDATALOAD PUSH1 0x24 DUP4 ADD MSTORE POP PUSH1 0x44 DUP2 ADD DUP14 SWAP1 MSTORE PUSH1 0x64 ADD PUSH1 0x20 PUSH1 0x40 MLOAD DUP1 DUP4 SUB DUP2 DUP7 GAS STATICCALL ISZERO DUP1 ISZERO PUSH2 0x259A JUMPI RETURNDATASIZE PUSH1 0x0 DUP1 RETURNDATACOPY RETURNDATASIZE PUSH1 0x0 REVERT JUMPDEST POP POP POP POP PUSH1 0x40 MLOAD RETURNDATASIZE PUSH1 0x1F NOT PUSH1 0x1F DUP3 ADD AND DUP3 ADD DUP1 PUSH1 0x40 MSTORE POP DUP2 ADD SWAP1 PUSH2 0x25BE SWAP2 SWAP1 PUSH2 0x2F1F JUMP JUMPDEST GT ISZERO PUSH2 0x25CF JUMPI PUSH1 0x1 SWAP3 POP POP POP PUSH2 0x25DE JUMP JUMPDEST PUSH1 0x1 ADD PUSH2 0x250D JUMP JUMPDEST POP PUSH1 0x0 SWAP2 POP POP JUMPDEST SWAP7 SWAP6 POP POP POP POP POP POP JUMP JUMPDEST PUSH2 0x25F0 PUSH2 0x2944 JUMP JUMPDEST PUSH1 0x0 JUMPDEST PUSH1 0x81 PUSH2 0xFFFF DUP3 AND LT ISZERO PUSH2 0x2688 JUMPI PUSH1 0x40 MLOAD PUSH4 0x69E38BC3 PUSH1 0xE0 SHL DUP2 MSTORE PUSH2 0xFFFF DUP3 AND PUSH1 0x4 DUP3 ADD MSTORE PUSH2 0x808 SWAP1 PUSH4 0x69E38BC3 SWAP1 PUSH1 0x24 ADD PUSH1 0x20 PUSH1 0x40 MLOAD DUP1 DUP4 SUB DUP2 DUP7 GAS STATICCALL SWAP3 POP POP POP DUP1 ISZERO PUSH2 0x265D JUMPI POP PUSH1 0x40 DUP1 MLOAD PUSH1 0x1F RETURNDATASIZE SWAP1 DUP2 ADD PUSH1 0x1F NOT AND DUP3 ADD SWAP1 SWAP3 MSTORE PUSH2 0x265A SWAP2 DUP2 ADD SWAP1 PUSH2 0x2F1F JUMP JUMPDEST PUSH1 0x1 JUMPDEST ISZERO PUSH2 0x2680 JUMPI DUP1 DUP4 DUP4 PUSH2 0xFFFF AND PUSH1 0x81 DUP2 LT PUSH2 0x2679 JUMPI PUSH2 0x2679 PUSH2 0x2F09 JUMP JUMPDEST PUSH1 0x20 MUL ADD MSTORE POP JUMPDEST PUSH1 0x1 ADD PUSH2 0x25F3 JUMP JUMPDEST POP SWAP1 JUMP JUMPDEST PUSH2 0x2694 PUSH2 0x2944 JUMP JUMPDEST PUSH1 0x0 JUMPDEST PUSH1 0x81 PUSH2 0xFFFF DUP3 AND LT ISZERO PUSH2 0x2688 JUMPI PUSH1 0x40 MLOAD PUSH4 0x2D9BFC71 PUSH1 0xE0 SHL DUP2 MSTORE PUSH2 0xFFFF DUP3 AND PUSH1 0x4 DUP3 ADD MSTORE PUSH2 0x808 SWAP1 PUSH4 0x2D9BFC71 SWAP1 PUSH1 0x24 ADD PUSH1 0x20 PUSH1 0x40 MLOAD DUP1 DUP4 SUB DUP2 DUP7 GAS STATICCALL SWAP3 POP POP POP DUP1 ISZERO PUSH2 0x2701 JUMPI POP PUSH1 0x40 DUP1 MLOAD PUSH1 0x1F RETURNDATASIZE SWAP1 DUP2 ADD PUSH1 0x1F NOT AND DUP3 ADD SWAP1 SWAP3 MSTORE PUSH2 0x26FE SWAP2 DUP2 ADD SWAP1 PUSH2 0x2FC9 JUMP JUMPDEST PUSH1 0x1 JUMPDEST ISZERO PUSH2 0x2733 JUMPI DUP1 DUP4 DUP4 PUSH2 0xFFFF AND PUSH1 0x81 DUP2 LT PUSH2 0x271D JUMPI PUSH2 0x271D PUSH2 0x2F09 JUMP JUMPDEST PUSH8 0xFFFFFFFFFFFFFFFF SWAP1 SWAP3 AND PUSH1 0x20 SWAP3 SWAP1 SWAP3 MUL ADD MSTORE POP JUMPDEST PUSH1 0x1 ADD PUSH2 0x2697 JUMP JUMPDEST PUSH2 0x2743 PUSH2 0x2944 JUMP JUMPDEST PUSH1 0x0 JUMPDEST PUSH1 0x81 PUSH2 0xFFFF DUP3 AND LT ISZERO PUSH2 0x2688 JUMPI PUSH1 0x40 MLOAD PUSH4 0xC2BA9E87 PUSH1 0xE0 SHL DUP2 MSTORE PUSH2 0xFFFF DUP3 AND PUSH1 0x4 DUP3 ADD MSTORE PUSH2 0x808 SWAP1 PUSH4 0xC2BA9E87 SWAP1 PUSH1 0x24 ADD PUSH1 0x20 PUSH1 0x40 MLOAD DUP1 DUP4 SUB DUP2 DUP7 GAS STATICCALL SWAP3 POP POP POP DUP1 ISZERO PUSH2 0x27B0 JUMPI POP PUSH1 0x40 DUP1 MLOAD PUSH1 0x1F RETURNDATASIZE SWAP1 DUP2 ADD PUSH1 0x1F NOT AND DUP3 ADD SWAP1 SWAP3 MSTORE PUSH2 0x27AD SWAP2 DUP2 ADD SWAP1 PUSH2 0x2FC9 JUMP JUMPDEST PUSH1 0x1 JUMPDEST ISZERO PUSH2 0x27E2 JUMPI DUP1 DUP4 DUP4 PUSH2 0xFFFF AND PUSH1 0x81 DUP2 LT PUSH2 0x27CC JUMPI PUSH2 0x27CC PUSH2 0x2F09 JUMP JUMPDEST PUSH8 0xFFFFFFFFFFFFFFFF SWAP1 SWAP3 AND PUSH1 0x20 SWAP3 SWAP1 SWAP3 MUL ADD MSTORE POP JUMPDEST PUSH1 0x1 ADD PUSH2 0x2746 JUMP JUMPDEST PUSH2 0x27F2 PUSH2 0x2944 JUMP JUMPDEST PUSH1 0x1 JUMPDEST PUSH1 0x81 DUP2 LT ISZERO PUSH2 0x288D JUMPI PUSH1 0x40 MLOAD PUSH4 0x71DACC7D PUSH1 0xE1 SHL DUP2 MSTORE PUSH1 0x4 DUP2 ADD DUP6 SWAP1 MSTORE PUSH1 0x24 DUP2 ADD DUP5 SWAP1 MSTORE PUSH1 0x44 DUP2 ADD DUP3 SWAP1 MSTORE PUSH2 0x805 SWAP1 PUSH4 0xE3B598FA SWAP1 PUSH1 0x64 ADD PUSH1 0x20 PUSH1 0x40 MLOAD DUP1 DUP4 SUB DUP2 DUP7 GAS STATICCALL ISZERO DUP1 ISZERO PUSH2 0x284A JUMPI RETURNDATASIZE PUSH1 0x0 DUP1 RETURNDATACOPY RETURNDATASIZE PUSH1 0x0 REVERT JUMPDEST POP POP POP POP PUSH1 0x40 MLOAD RETURNDATASIZE PUSH1 0x1F NOT PUSH1 0x1F DUP3 ADD AND DUP3 ADD DUP1 PUSH1 0x40 MSTORE POP DUP2 ADD SWAP1 PUSH2 0x286E SWAP2 SWAP1 PUSH2 0x2F1F JUMP JUMPDEST DUP3 DUP3 PUSH1 0x81 DUP2 LT PUSH2 0x2880 JUMPI PUSH2 0x2880 PUSH2 0x2F09 JUMP JUMPDEST PUSH1 0x20 MUL ADD MSTORE PUSH1 0x1 ADD PUSH2 0x27F5 JUMP JUMPDEST POP SWAP3 SWAP2 POP POP JUMP JUMPDEST PUSH1 0x1 DUP1 SLOAD PUSH1 0x60 SWAP2 SWAP1 DUP1 PUSH8 0xFFFFFFFFFFFFFFFF DUP2 GT ISZERO PUSH2 0x28B5 JUMPI PUSH2 0x28B5 PUSH2 0x2EF3 JUMP JUMPDEST PUSH1 0x40 MLOAD SWAP1 DUP1 DUP3 MSTORE DUP1 PUSH1 0x20 MUL PUSH1 0x20 ADD DUP3 ADD PUSH1 0x40 MSTORE DUP1 ISZERO PUSH2 0x28DE JUMPI DUP2 PUSH1 0x20 ADD PUSH1 0x20 DUP3 MUL DUP1 CALLDATASIZE DUP4 CALLDATACOPY ADD SWAP1 POP JUMPDEST POP SWAP3 POP PUSH1 0x0 JUMPDEST DUP2 DUP2 LT ISZERO PUSH2 0x293E JUMPI DUP3 DUP2 DUP2 SLOAD DUP2 LT PUSH2 0x28FE JUMPI PUSH2 0x28FE PUSH2 0x2F09 JUMP JUMPDEST PUSH1 0x0 SWAP2 DUP3 MSTORE PUSH1 0x20 SWAP1 SWAP2 KECCAK256 ADD SLOAD DUP5 MLOAD PUSH1 0x1 PUSH1 0x1 PUSH1 0xA0 SHL SUB SWAP1 SWAP2 AND BALANCE SWAP1 DUP6 SWAP1 DUP4 SWAP1 DUP2 LT PUSH2 0x292B JUMPI PUSH2 0x292B PUSH2 0x2F09 JUMP JUMPDEST PUSH1 0x20 SWAP1 DUP2 MUL SWAP2 SWAP1 SWAP2 ADD ADD MSTORE PUSH1 0x1 ADD PUSH2 0x28E4 JUMP JUMPDEST POP POP POP SWAP1 JUMP JUMPDEST PUSH1 0x40 MLOAD DUP1 PUSH2 0x1020 ADD PUSH1 0x40 MSTORE DUP1 PUSH1 0x81 SWAP1 PUSH1 0x20 DUP3 MUL DUP1 CALLDATASIZE DUP4 CALLDATACOPY POP SWAP2 SWAP3 SWAP2 POP POP JUMP JUMPDEST DUP3 DUP1 SLOAD DUP3 DUP3 SSTORE SWAP1 PUSH1 0x0 MSTORE PUSH1 0x20 PUSH1 0x0 KECCAK256 SWAP1 DUP2 ADD SWAP3 DUP3 ISZERO PUSH2 0x29B6 JUMPI SWAP2 PUSH1 0x20 MUL DUP3 ADD JUMPDEST DUP3 DUP2 GT ISZERO PUSH2 0x29B6 JUMPI DUP2 SLOAD PUSH1 0x1 PUSH1 0x1 PUSH1 0xA0 SHL SUB NOT AND PUSH1 0x1 PUSH1 0x1 PUSH1 0xA0 SHL SUB DUP5 CALLDATALOAD AND OR DUP3 SSTORE PUSH1 0x20 SWAP1 SWAP3 ADD SWAP2 PUSH1 0x1 SWAP1 SWAP2 ADD SWAP1 PUSH2 0x2983 JUMP JUMPDEST POP PUSH2 0x2688 SWAP3 SWAP2 POP JUMPDEST DUP1 DUP3 GT ISZERO PUSH2 0x2688 JUMPI PUSH1 0x0 DUP2 SSTORE PUSH1 0x1 ADD PUSH2 0x29BE JUMP JUMPDEST PUSH1 0x0 DUP1 DUP4 PUSH1 0x1F DUP5 ADD SLT PUSH2 0x29E4 JUMPI PUSH1 0x0 DUP1 REVERT JUMPDEST POP DUP2 CALLDATALOAD PUSH8 0xFFFFFFFFFFFFFFFF DUP2 GT ISZERO PUSH2 0x29FC JUMPI PUSH1 0x0 DUP1 REVERT JUMPDEST PUSH1 0x20 DUP4 ADD SWAP2 POP DUP4 PUSH1 0x20 DUP3 PUSH1 0x5 SHL DUP6 ADD ADD GT ISZERO PUSH2 0x2A17 JUMPI PUSH1 0x0 DUP1 REVERT JUMPDEST SWAP3 POP SWAP3 SWAP1 POP JUMP JUMPDEST PUSH1 0x0 DUP1 PUSH1 0x0 DUP1 PUSH1 0x0 DUP1 PUSH1 0x60 DUP8 DUP10 SUB SLT ISZERO PUSH2 0x2A37 JUMPI PUSH1 0x0 DUP1 REVERT JUMPDEST DUP7 CALLDATALOAD PUSH8 0xFFFFFFFFFFFFFFFF DUP1 DUP3 GT ISZERO PUSH2 0x2A4F JUMPI PUSH1 0x0 DUP1 REVERT JUMPDEST PUSH2 0x2A5B DUP11 DUP4 DUP12 ADD PUSH2 0x29D2 JUMP JUMPDEST SWAP1 SWAP9 POP SWAP7 POP PUSH1 0x20 DUP10 ADD CALLDATALOAD SWAP2 POP DUP1 DUP3 GT ISZERO PUSH2 0x2A74 JUMPI PUSH1 0x0 DUP1 REVERT JUMPDEST PUSH2 0x2A80 DUP11 DUP4 DUP12 ADD PUSH2 0x29D2 JUMP JUMPDEST SWAP1 SWAP7 POP SWAP5 POP PUSH1 0x40 DUP10 ADD CALLDATALOAD SWAP2 POP DUP1 DUP3 GT ISZERO PUSH2 0x2A99 JUMPI PUSH1 0x0 DUP1 REVERT JUMPDEST POP PUSH2 0x2AA6 DUP10 DUP3 DUP11 ADD PUSH2 0x29D2 JUMP JUMPDEST SWAP8 SWAP11 SWAP7 SWAP10 POP SWAP5 SWAP8 POP SWAP3 SWAP6 SWAP4 SWAP5 SWAP3 POP POP POP JUMP JUMPDEST PUSH1 0x0 DUP2 MLOAD DUP1 DUP5 MSTORE PUSH1 0x20 DUP1 DUP6 ADD SWAP5 POP PUSH1 0x20 DUP5 ADD PUSH1 0x0 JUMPDEST DUP4 DUP2 LT ISZERO PUSH2 0x2AE9 JUMPI DUP2 MLOAD DUP8 MSTORE SWAP6 DUP3 ADD SWAP6 SWAP1 DUP3 ADD SWAP1 PUSH1 0x1 ADD PUSH2 0x2ACD JUMP JUMPDEST POP SWAP5 SWAP6 SWAP5 POP POP POP POP POP JUMP JUMPDEST PUSH1 0x20 DUP2 MSTORE PUSH1 0x0 PUSH2 0x2B07 PUSH1 0x20 DUP4 ADD DUP5 PUSH2 0x2AB8 JUMP JUMPDEST SWAP4 SWAP3 POP POP POP JUMP JUMPDEST DUP1 CALLDATALOAD PUSH1 0x1 PUSH1 0x1 PUSH1 0xA0 SHL SUB DUP2 AND DUP2 EQ PUSH2 0x2B25 JUMPI PUSH1 0x0 DUP1 REVERT JUMPDEST SWAP2 SWAP1 POP JUMP JUMPDEST PUSH1 0x0 PUSH1 0x20 DUP3 DUP5 SUB SLT ISZERO PUSH2 0x2B3C JUMPI PUSH1 0x0 DUP1 REVERT JUMPDEST PUSH2 0x2B07 DUP3 PUSH2 0x2B0E JUMP JUMPDEST DUP1 CALLDATALOAD DUP1 ISZERO ISZERO DUP2 EQ PUSH2 0x2B25 JUMPI PUSH1 0x0 DUP1 REVERT JUMPDEST PUSH1 0x0 DUP1 PUSH1 0x0 DUP1 PUSH1 0x0 DUP1 PUSH1 0x0 DUP1 PUSH1 0x0 DUP1 PUSH1 0x0 PUSH1 0xC0 DUP13 DUP15 SUB SLT ISZERO PUSH2 0x2B76 JUMPI PUSH1 0x0 DUP1 REVERT JUMPDEST PUSH8 0xFFFFFFFFFFFFFFFF DUP1 DUP14 CALLDATALOAD GT ISZERO PUSH2 0x2B8D JUMPI PUSH1 0x0 DUP1 REVERT JUMPDEST PUSH2 0x2B9A DUP15 DUP15 CALLDATALOAD DUP16 ADD PUSH2 0x29D2 JUMP JUMPDEST SWAP1 SWAP13 POP SWAP11 POP PUSH1 0x20 DUP14 ADD CALLDATALOAD DUP2 LT ISZERO PUSH2 0x2BB0 JUMPI PUSH1 0x0 DUP1 REVERT JUMPDEST PUSH2 0x2BC0 DUP15 PUSH1 0x20 DUP16 ADD CALLDATALOAD DUP16 ADD PUSH2 0x29D2 JUMP JUMPDEST SWAP1 SWAP11 POP SWAP9 POP PUSH1 0x40 DUP14 ADD CALLDATALOAD DUP2 LT ISZERO PUSH2 0x2BD6 JUMPI PUSH1 0x0 DUP1 REVERT JUMPDEST PUSH2 0x2BE6 DUP15 PUSH1 0x40 DUP16 ADD CALLDATALOAD DUP16 ADD PUSH2 0x29D2 JUMP JUMPDEST SWAP1 SWAP9 POP SWAP7 POP PUSH1 0x60 DUP14 ADD CALLDATALOAD DUP2 LT ISZERO PUSH2 0x2BFC JUMPI PUSH1 0x0 DUP1 REVERT JUMPDEST PUSH2 0x2C0C DUP15 PUSH1 0x60 DUP16 ADD CALLDATALOAD DUP16 ADD PUSH2 0x29D2 JUMP JUMPDEST SWAP1 SWAP7 POP SWAP5 POP PUSH1 0x80 DUP14 ADD CALLDATALOAD DUP2 LT ISZERO PUSH2 0x2C22 JUMPI PUSH1 0x0 DUP1 REVERT JUMPDEST POP PUSH2 0x2C33 DUP14 PUSH1 0x80 DUP15 ADD CALLDATALOAD DUP15 ADD PUSH2 0x29D2 JUMP JUMPDEST SWAP1 SWAP4 POP SWAP2 POP PUSH2 0x2C44 PUSH1 0xA0 DUP14 ADD PUSH2 0x2B45 JUMP JUMPDEST SWAP1 POP SWAP3 SWAP6 SWAP9 SWAP12 POP SWAP3 SWAP6 SWAP9 SWAP12 SWAP1 SWAP4 SWAP7 SWAP10 POP JUMP JUMPDEST PUSH1 0x0 DUP1 PUSH1 0x0 DUP1 PUSH1 0x40 DUP6 DUP8 SUB SLT ISZERO PUSH2 0x2C6C JUMPI PUSH1 0x0 DUP1 REVERT JUMPDEST DUP5 CALLDATALOAD PUSH8 0xFFFFFFFFFFFFFFFF DUP1 DUP3 GT ISZERO PUSH2 0x2C84 JUMPI PUSH1 0x0 DUP1 REVERT JUMPDEST PUSH2 0x2C90 DUP9 DUP4 DUP10 ADD PUSH2 0x29D2 JUMP JUMPDEST SWAP1 SWAP7 POP SWAP5 POP PUSH1 0x20 DUP8 ADD CALLDATALOAD SWAP2 POP DUP1 DUP3 GT ISZERO PUSH2 0x2CA9 JUMPI PUSH1 0x0 DUP1 REVERT JUMPDEST POP PUSH2 0x2CB6 DUP8 DUP3 DUP9 ADD PUSH2 0x29D2 JUMP JUMPDEST SWAP6 SWAP9 SWAP5 SWAP8 POP SWAP6 POP POP POP POP JUMP JUMPDEST DUP1 PUSH1 0x0 JUMPDEST PUSH1 0x81 DUP2 LT ISZERO PUSH2 0x173E JUMPI DUP2 MLOAD DUP5 MSTORE PUSH1 0x20 SWAP4 DUP5 ADD SWAP4 SWAP1 SWAP2 ADD SWAP1 PUSH1 0x1 ADD PUSH2 0x2CC6 JUMP JUMPDEST PUSH2 0x1020 DUP2 ADD PUSH2 0x2CF4 DUP3 DUP5 PUSH2 0x2CC2 JUMP JUMPDEST SWAP3 SWAP2 POP POP JUMP JUMPDEST DUP1 PUSH1 0x0 JUMPDEST PUSH1 0x81 DUP2 LT ISZERO PUSH2 0x173E JUMPI DUP2 MLOAD PUSH8 0xFFFFFFFFFFFFFFFF AND DUP5 MSTORE PUSH1 0x20 SWAP4 DUP5 ADD SWAP4 SWAP1 SWAP2 ADD SWAP1 PUSH1 0x1 ADD PUSH2 0x2CFE JUMP JUMPDEST PUSH1 0x0 PUSH2 0x5100 PUSH2 0x2D36 DUP4 DUP13 PUSH2 0x2CC2 JUMP JUMPDEST PUSH2 0x2D44 PUSH2 0x1020 DUP5 ADD DUP12 PUSH2 0x2CFA JUMP JUMPDEST PUSH2 0x2D52 PUSH2 0x2040 DUP5 ADD DUP11 PUSH2 0x2CFA JUMP JUMPDEST PUSH2 0x2D60 PUSH2 0x3060 DUP5 ADD DUP10 PUSH2 0x2CC2 JUMP JUMPDEST PUSH2 0x2D6E PUSH2 0x4080 DUP5 ADD DUP9 PUSH2 0x2CC2 JUMP JUMPDEST DUP1 PUSH2 0x50A0 DUP5 ADD MSTORE PUSH2 0x2D81 DUP2 DUP5 ADD DUP8 PUSH2 0x2AB8 JUMP JUMPDEST PUSH2 0x50C0 DUP5 ADD SWAP6 SWAP1 SWAP6 MSTORE POP POP PUSH2 0x50E0 ADD MSTORE SWAP7 SWAP6 POP POP POP POP POP POP JUMP JUMPDEST PUSH1 0x0 PUSH1 0x20 DUP3 DUP5 SUB SLT ISZERO PUSH2 0x2DAD JUMPI PUSH1 0x0 DUP1 REVERT JUMPDEST POP CALLDATALOAD SWAP2 SWAP1 POP JUMP JUMPDEST PUSH1 0x0 DUP1 PUSH1 0x40 DUP4 DUP6 SUB SLT ISZERO PUSH2 0x2DC7 JUMPI PUSH1 0x0 DUP1 REVERT JUMPDEST PUSH2 0x2DD0 DUP4 PUSH2 0x2B0E JUMP JUMPDEST SWAP5 PUSH1 0x20 SWAP4 SWAP1 SWAP4 ADD CALLDATALOAD SWAP4 POP POP POP JUMP JUMPDEST PUSH1 0x0 DUP1 PUSH1 0x20 DUP4 DUP6 SUB SLT ISZERO PUSH2 0x2DF1 JUMPI PUSH1 0x0 DUP1 REVERT JUMPDEST DUP3 CALLDATALOAD PUSH8 0xFFFFFFFFFFFFFFFF DUP2 GT ISZERO PUSH2 0x2E08 JUMPI PUSH1 0x0 DUP1 REVERT JUMPDEST PUSH2 0x2E14 DUP6 DUP3 DUP7 ADD PUSH2 0x29D2 JUMP JUMPDEST SWAP1 SWAP7 SWAP1 SWAP6 POP SWAP4 POP POP POP POP JUMP JUMPDEST PUSH2 0x1020 DUP2 ADD PUSH2 0x2CF4 DUP3 DUP5 PUSH2 0x2CFA JUMP JUMPDEST PUSH1 0x0 DUP1 PUSH1 0x0 DUP1 PUSH1 0x0 DUP1 PUSH1 0x0 DUP1 PUSH1 0x80 DUP10 DUP12 SUB SLT ISZERO PUSH2 0x2E4B JUMPI PUSH1 0x0 DUP1 REVERT JUMPDEST DUP9 CALLDATALOAD PUSH8 0xFFFFFFFFFFFFFFFF DUP1 DUP3 GT ISZERO PUSH2 0x2E63 JUMPI PUSH1 0x0 DUP1 REVERT JUMPDEST PUSH2 0x2E6F DUP13 DUP4 DUP14 ADD PUSH2 0x29D2 JUMP JUMPDEST SWAP1 SWAP11 POP SWAP9 POP PUSH1 0x20 DUP12 ADD CALLDATALOAD SWAP2 POP DUP1 DUP3 GT ISZERO PUSH2 0x2E88 JUMPI PUSH1 0x0 DUP1 REVERT JUMPDEST PUSH2 0x2E94 DUP13 DUP4 DUP14 ADD PUSH2 0x29D2 JUMP JUMPDEST SWAP1 SWAP9 POP SWAP7 POP PUSH1 0x40 DUP12 ADD CALLDATALOAD SWAP2 POP DUP1 DUP3 GT ISZERO PUSH2 0x2EAD JUMPI PUSH1 0x0 DUP1 REVERT JUMPDEST PUSH2 0x2EB9 DUP13 DUP4 DUP14 ADD PUSH2 0x29D2 JUMP JUMPDEST SWAP1 SWAP7 POP SWAP5 POP PUSH1 0x60 DUP12 ADD CALLDATALOAD SWAP2 POP DUP1 DUP3 GT ISZERO PUSH2 0x2ED2 JUMPI PUSH1 0x0 DUP1 REVERT JUMPDEST POP PUSH2 0x2EDF DUP12 DUP3 DUP13 ADD PUSH2 0x29D2 JUMP JUMPDEST SWAP10 SWAP13 SWAP9 SWAP12 POP SWAP7 SWAP10 POP SWAP5 SWAP8 SWAP4 SWAP7 SWAP3 SWAP6 SWAP5 POP POP POP JUMP JUMPDEST PUSH4 0x4E487B71 PUSH1 0xE0 SHL PUSH1 0x0 MSTORE PUSH1 0x41 PUSH1 0x4 MSTORE PUSH1 0x24 PUSH1 0x0 REVERT JUMPDEST PUSH4 0x4E487B71 PUSH1 0xE0 SHL PUSH1 0x0 MSTORE PUSH1 0x32 PUSH1 0x4 MSTORE PUSH1 0x24 PUSH1 0x0 REVERT JUMPDEST PUSH1 0x0 PUSH1 0x20 DUP3 DUP5 SUB SLT ISZERO PUSH2 0x2F31 JUMPI PUSH1 0x0 DUP1 REVERT JUMPDEST POP MLOAD SWAP2 SWAP1 POP JUMP JUMPDEST PUSH4 0x4E487B71 PUSH1 0xE0 SHL PUSH1 0x0 MSTORE PUSH1 0x11 PUSH1 0x4 MSTORE PUSH1 0x24 PUSH1 0x0 REVERT JUMPDEST DUP2 DUP2 SUB DUP2 DUP2 GT ISZERO PUSH2 0x2CF4 JUMPI PUSH2 0x2CF4 PUSH2 0x2F38 JUMP JUMPDEST DUP1 DUP3 MUL DUP2 ISZERO DUP3 DUP3 DIV DUP5 EQ OR PUSH2 0x2CF4 JUMPI PUSH2 0x2CF4 PUSH2 0x2F38 JUMP JUMPDEST DUP1 DUP3 ADD DUP1 DUP3 GT ISZERO PUSH2 0x2CF4 JUMPI PUSH2 0x2CF4 PUSH2 0x2F38 JUMP JUMPDEST PUSH4 0x4E487B71 PUSH1 0xE0 SHL PUSH1 0x0 MSTORE PUSH1 0x12 PUSH1 0x4 MSTORE PUSH1 0x24 PUSH1 0x0 REVERT JUMPDEST PUSH1 0x0 DUP3 PUSH2 0x2FB0 JUMPI PUSH2 0x2FB0 PUSH2 0x2F8B JUMP JUMPDEST POP DIV SWAP1 JUMP JUMPDEST PUSH1 0x0 DUP3 PUSH2 0x2FC4 JUMPI PUSH2 0x2FC4 PUSH2 0x2F8B JUMP JUMPDEST POP MOD SWAP1 JUMP JUMPDEST PUSH1 0x0 PUSH1 0x20 DUP3 DUP5 SUB SLT ISZERO PUSH2 0x2FDB JUMPI PUSH1 0x0 DUP1 REVERT JUMPDEST DUP2 MLOAD PUSH8 0xFFFFFFFFFFFFFFFF DUP2 AND DUP2 EQ PUSH2 0x2B07 JUMPI PUSH1 0x0 DUP1 REVERT INVALID 0xB4 0xC0 DUP8 GT SWAP1 SWAP8 0xFB 0xE3 SWAP9 MSTORE SWAP9 0xEE CREATE2 0x2F CALLDATALOAD 0xEF PUSH3 0x71C483 0x22 0xA8 0xC2 0xD4 ADDRESS SWAP1 0x2A SWAP13 0xC3 DUP14 SWAP5 PUSH20 0xAA7AF5A46BF6739465DFC2726BA407CAB42A6A4D DUP8 SWAP4 INVALID SHR EXTCODEHASH 0x2F GT 0xED 0x1E 0x25 0xC7 0xD7 LOG2 PUSH5 0x6970667358 0x22 SLT KECCAK256 0xC4 CALLDATASIZE DUP13 PUSH19 0xC82EF6011E242DBFC122F8E17F5E71022A773A 0xD9 MLOAD RETURNDATACOPY CREATE2 PUSH17 0x544D9FF864736F6C634300081600330000 "},"methodIdentifiers":{"DELEGATOR_COLDKEY()":"13cd4940","DELEGATOR_HOTKEY()":"c6c4a86f","addStakeLimits(uint256[],uint256[],uint256[])":"3004c502","addStakeToRoot(uint256)":"8799111f","addStakeToRootFull()":"e8d23d2a","contractBytesKey()":"947d3c3f","getAlphaInPools()":"9e6eb20b","getAlphaPrices()":"bc28d5d0","getMevStakedAmounts(uint256[],bytes32[],bytes32[])":"0d16ab81","getStakedAmounts(bytes32[],bytes32[])":"26a224e0","getTaoInPools()":"a8c2bb0d","getTradingInfo()":"276ef789","lastLimitPrices(uint256)":"e2edac25","lastWithdrawSmallTime()":"64ee6aec","mevAddStakes(uint256[],uint256[],bytes32[],bytes32[],uint256[],bool)":"1f20ff4c","mevAddresses(uint256)":"a7678775","mevRemoveStakes(uint256[],bytes32[],bytes32[],uint256[])":"c74db335","moveStakeAll(bytes32)":"9d2736cc","owner()":"8da5cb5b","removeStakeFromRoot(uint256)":"58c0b896","removeStakeFromRootFull()":"892208c5","removeStakeLimits(uint256[],uint256[])":"646e569b","rocked()":"3383dfe5","setConfig(address,bytes32)":"f4f1726b","setLimitPrices(uint256[],uint256[])":"bb817a1a","setRock()":"be7b5a64","setWithdrawer(address)":"0d174c24","unRock()":"e2157244","updateContractBytesKey(bytes32)":"f9036f02","updateMevAddresses(address[])":"987d0e59","withdrawAll(address)":"fa09e630","withdrawBig(address,uint256)":"7e11ca0a","withdrawSmall(address,uint256)":"d7d31ae3","withdrawer()":"cdc18424"}}}}}