{"contracts/Monitor.sol":{"Monitor":{"abi":[{"inputs":[],"name":"LengthMismatch","type":"error"},{"inputs":[{"internalType":"bytes32[]","name":"hotkeys","type":"bytes32[]"},{"internalType":"bytes32[]","name":"coldkeys","type":"bytes32[]"}],"name":"getStakedAmount","outputs":[{"internalType":"uint256[129]","name":"amount","type":"uint256[129]"}],"stateMutability":"view","type":"function"},{"inputs":[{"internalType":"uint256","name":"","type":"uint256"}],"name":"is_staked","outputs":[{"internalType":"bool","name":"","type":"bool"}],"stateMutability":"view","type":"function"}],"evm":{"bytecode":{"linkReferences":{},"object":"608060405234801561001057600080fd5b50610390806100206000396000f3fe608060405234801561001057600080fd5b50600436106100365760003560e01c806308b41c011461003b5780637cdfe44914610063575b600080fd5b61004e610049366004610201565b610083565b60405190151581526020015b60405180910390f35b610076610071366004610266565b6100ad565b60405161005a91906102d2565b6000816081811061009357600080fd5b60209182820401919006915054906101000a900460ff1681565b6100b56101e2565b8382146100d8576040516001621398b960e31b0319815260040160405180910390fd5b60015b60818161ffff1610156101d9576000805b868110156101b35761080563e3b598fa89898481811061010e5761010e610304565b9050602002013588888581811061012757610127610304565b6040516001600160e01b031960e087901b1681526004810194909452602002919091013560248301525061ffff86166044820152606401602060405180830381865afa15801561017b573d6000803e3d6000fd5b505050506040513d601f19601f8201168201806040525081019061019f919061031a565b6101a99083610333565b91506001016100ec565b5080838361ffff16608181106101cb576101cb610304565b6020020152506001016100db565b50949350505050565b6040518061102001604052806081906020820280368337509192915050565b60006020828403121561021357600080fd5b5035919050565b60008083601f84011261022c57600080fd5b50813567ffffffffffffffff81111561024457600080fd5b6020830191508360208260051b850101111561025f57600080fd5b9250929050565b6000806000806040858703121561027c57600080fd5b843567ffffffffffffffff8082111561029457600080fd5b6102a08883890161021a565b909650945060208701359150808211156102b957600080fd5b506102c68782880161021a565b95989497509550505050565b6110208101818360005b60818110156102fb5781518352602092830192909101906001016102dc565b50505092915050565b634e487b7160e01b600052603260045260246000fd5b60006020828403121561032c57600080fd5b5051919050565b8082018082111561035457634e487b7160e01b600052601160045260246000fd5b9291505056fea26469706673582212208cd88a4aea8d156017bc455169d25519120d2cc8ffca13649d4e3443ac5040c364736f6c63430008160033","opcodes":"PUSH1 0x80 PUSH1 0x40 MSTORE CALLVALUE DUP1 ISZERO PUSH2 0x10 JUMPI PUSH1 0x0 DUP1 REVERT JUMPDEST POP PUSH2 0x390 DUP1 PUSH2 0x20 PUSH1 0x0 CODECOPY PUSH1 0x0 RETURN INVALID PUSH1 0x80 PUSH1 0x40 MSTORE CALLVALUE DUP1 ISZERO PUSH2 0x10 JUMPI PUSH1 0x0 DUP1 REVERT JUMPDEST POP PUSH1 0x4 CALLDATASIZE LT PUSH2 0x36 JUMPI PUSH1 0x0 CALLDATALOAD PUSH1 0xE0 SHR DUP1 PUSH4 0x8B41C01 EQ PUSH2 0x3B JUMPI DUP1 PUSH4 0x7CDFE449 EQ PUSH2 0x63 JUMPI JUMPDEST PUSH1 0x0 DUP1 REVERT JUMPDEST PUSH2 0x4E PUSH2 0x49 CALLDATASIZE PUSH1 0x4 PUSH2 0x201 JUMP JUMPDEST PUSH2 0x83 JUMP JUMPDEST PUSH1 0x40 MLOAD SWAP1 ISZERO ISZERO DUP2 MSTORE PUSH1 0x20 ADD JUMPDEST PUSH1 0x40 MLOAD DUP1 SWAP2 SUB SWAP1 RETURN JUMPDEST PUSH2 0x76 PUSH2 0x71 CALLDATASIZE PUSH1 0x4 PUSH2 0x266 JUMP JUMPDEST PUSH2 0xAD JUMP JUMPDEST PUSH1 0x40 MLOAD PUSH2 0x5A SWAP2 SWAP1 PUSH2 0x2D2 JUMP JUMPDEST PUSH1 0x0 DUP2 PUSH1 0x81 DUP2 LT PUSH2 0x93 JUMPI PUSH1 0x0 DUP1 REVERT JUMPDEST PUSH1 0x20 SWAP2 DUP3 DUP3 DIV ADD SWAP2 SWAP1 MOD SWAP2 POP SLOAD SWAP1 PUSH2 0x100 EXP SWAP1 DIV PUSH1 0xFF AND DUP2 JUMP JUMPDEST PUSH2 0xB5 PUSH2 0x1E2 JUMP JUMPDEST DUP4 DUP3 EQ PUSH2 0xD8 JUMPI PUSH1 0x40 MLOAD PUSH1 0x1 PUSH3 0x1398B9 PUSH1 0xE3 SHL SUB NOT DUP2 MSTORE PUSH1 0x4 ADD PUSH1 0x40 MLOAD DUP1 SWAP2 SUB SWAP1 REVERT JUMPDEST PUSH1 0x1 JUMPDEST PUSH1 0x81 DUP2 PUSH2 0xFFFF AND LT ISZERO PUSH2 0x1D9 JUMPI PUSH1 0x0 DUP1 JUMPDEST DUP7 DUP2 LT ISZERO PUSH2 0x1B3 JUMPI PUSH2 0x805 PUSH4 0xE3B598FA DUP10 DUP10 DUP5 DUP2 DUP2 LT PUSH2 0x10E JUMPI PUSH2 0x10E PUSH2 0x304 JUMP JUMPDEST SWAP1 POP PUSH1 0x20 MUL ADD CALLDATALOAD DUP9 DUP9 DUP6 DUP2 DUP2 LT PUSH2 0x127 JUMPI PUSH2 0x127 PUSH2 0x304 JUMP JUMPDEST PUSH1 0x40 MLOAD PUSH1 0x1 PUSH1 0x1 PUSH1 0xE0 SHL SUB NOT PUSH1 0xE0 DUP8 SWAP1 SHL AND DUP2 MSTORE PUSH1 0x4 DUP2 ADD SWAP5 SWAP1 SWAP5 MSTORE PUSH1 0x20 MUL SWAP2 SWAP1 SWAP2 ADD CALLDATALOAD PUSH1 0x24 DUP4 ADD MSTORE POP PUSH2 0xFFFF DUP7 AND PUSH1 0x44 DUP3 ADD MSTORE PUSH1 0x64 ADD PUSH1 0x20 PUSH1 0x40 MLOAD DUP1 DUP4 SUB DUP2 DUP7 GAS STATICCALL ISZERO DUP1 ISZERO PUSH2 0x17B JUMPI RETURNDATASIZE PUSH1 0x0 DUP1 RETURNDATACOPY RETURNDATASIZE PUSH1 0x0 REVERT JUMPDEST POP POP POP POP PUSH1 0x40 MLOAD RETURNDATASIZE PUSH1 0x1F NOT PUSH1 0x1F DUP3 ADD AND DUP3 ADD DUP1 PUSH1 0x40 MSTORE POP DUP2 ADD SWAP1 PUSH2 0x19F SWAP2 SWAP1 PUSH2 0x31A JUMP JUMPDEST PUSH2 0x1A9 SWAP1 DUP4 PUSH2 0x333 JUMP JUMPDEST SWAP2 POP PUSH1 0x1 ADD PUSH2 0xEC JUMP JUMPDEST POP DUP1 DUP4 DUP4 PUSH2 0xFFFF AND PUSH1 0x81 DUP2 LT PUSH2 0x1CB JUMPI PUSH2 0x1CB PUSH2 0x304 JUMP JUMPDEST PUSH1 0x20 MUL ADD MSTORE POP PUSH1 0x1 ADD PUSH2 0xDB JUMP JUMPDEST POP SWAP5 SWAP4 POP POP POP POP JUMP JUMPDEST PUSH1 0x40 MLOAD DUP1 PUSH2 0x1020 ADD PUSH1 0x40 MSTORE DUP1 PUSH1 0x81 SWAP1 PUSH1 0x20 DUP3 MUL DUP1 CALLDATASIZE DUP4 CALLDATACOPY POP SWAP2 SWAP3 SWAP2 POP POP JUMP JUMPDEST PUSH1 0x0 PUSH1 0x20 DUP3 DUP5 SUB SLT ISZERO PUSH2 0x213 JUMPI PUSH1 0x0 DUP1 REVERT JUMPDEST POP CALLDATALOAD SWAP2 SWAP1 POP JUMP JUMPDEST PUSH1 0x0 DUP1 DUP4 PUSH1 0x1F DUP5 ADD SLT PUSH2 0x22C JUMPI PUSH1 0x0 DUP1 REVERT JUMPDEST POP DUP2 CALLDATALOAD PUSH8 0xFFFFFFFFFFFFFFFF DUP2 GT ISZERO PUSH2 0x244 JUMPI PUSH1 0x0 DUP1 REVERT JUMPDEST PUSH1 0x20 DUP4 ADD SWAP2 POP DUP4 PUSH1 0x20 DUP3 PUSH1 0x5 SHL DUP6 ADD ADD GT ISZERO PUSH2 0x25F JUMPI PUSH1 0x0 DUP1 REVERT JUMPDEST SWAP3 POP SWAP3 SWAP1 POP JUMP JUMPDEST PUSH1 0x0 DUP1 PUSH1 0x0 DUP1 PUSH1 0x40 DUP6 DUP8 SUB SLT ISZERO PUSH2 0x27C JUMPI PUSH1 0x0 DUP1 REVERT JUMPDEST DUP5 CALLDATALOAD PUSH8 0xFFFFFFFFFFFFFFFF DUP1 DUP3 GT ISZERO PUSH2 0x294 JUMPI PUSH1 0x0 DUP1 REVERT JUMPDEST PUSH2 0x2A0 DUP9 DUP4 DUP10 ADD PUSH2 0x21A JUMP JUMPDEST SWAP1 SWAP7 POP SWAP5 POP PUSH1 0x20 DUP8 ADD CALLDATALOAD SWAP2 POP DUP1 DUP3 GT ISZERO PUSH2 0x2B9 JUMPI PUSH1 0x0 DUP1 REVERT JUMPDEST POP PUSH2 0x2C6 DUP8 DUP3 DUP9 ADD PUSH2 0x21A JUMP JUMPDEST SWAP6 SWAP9 SWAP5 SWAP8 POP SWAP6 POP POP POP POP JUMP JUMPDEST PUSH2 0x1020 DUP2 ADD DUP2 DUP4 PUSH1 0x0 JUMPDEST PUSH1 0x81 DUP2 LT ISZERO PUSH2 0x2FB JUMPI DUP2 MLOAD DUP4 MSTORE PUSH1 0x20 SWAP3 DUP4 ADD SWAP3 SWAP1 SWAP2 ADD SWAP1 PUSH1 0x1 ADD PUSH2 0x2DC JUMP JUMPDEST POP POP POP SWAP3 SWAP2 POP POP JUMP JUMPDEST PUSH4 0x4E487B71 PUSH1 0xE0 SHL PUSH1 0x0 MSTORE PUSH1 0x32 PUSH1 0x4 MSTORE PUSH1 0x24 PUSH1 0x0 REVERT JUMPDEST PUSH1 0x0 PUSH1 0x20 DUP3 DUP5 SUB SLT ISZERO PUSH2 0x32C JUMPI PUSH1 0x0 DUP1 REVERT JUMPDEST POP MLOAD SWAP2 SWAP1 POP JUMP JUMPDEST DUP1 DUP3 ADD DUP1 DUP3 GT ISZERO PUSH2 0x354 JUMPI PUSH4 0x4E487B71 PUSH1 0xE0 SHL PUSH1 0x0 MSTORE PUSH1 0x11 PUSH1 0x4 MSTORE PUSH1 0x24 PUSH1 0x0 REVERT JUMPDEST SWAP3 SWAP2 POP POP JUMP INVALID LOG2 PUSH5 0x6970667358 0x22 SLT KECCAK256 DUP13 0xD8 DUP11 0x4A 0xEA DUP14 ISZERO PUSH1 0x17 0xBC GASLIMIT MLOAD PUSH10 0xD25519120D2CC8FFCA13 PUSH5 0x9D4E3443AC POP BLOCKHASH 0xC3 PUSH5 0x736F6C6343 STOP ADDMOD AND STOP CALLER "},"methodIdentifiers":{"getStakedAmount(bytes32[],bytes32[])":"7cdfe449","is_staked(uint256)":"08b41c01"}}}}}