{"contracts/FreeBalanceReader.sol":{"FreeBalanceReader":{"abi":[{"inputs":[{"internalType":"bytes","name":"keySuffix","type":"bytes"}],"name":"freeBalance","outputs":[{"internalType":"uint256","name":"free","type":"uint256"}],"stateMutability":"view","type":"function"},{"inputs":[{"internalType":"bytes","name":"keySuffix","type":"bytes"}],"name":"rawAccountInfo","outputs":[{"internalType":"bytes","name":"","type":"bytes"}],"stateMutability":"view","type":"function"}],"evm":{"bytecode":{"linkReferences":{},"object":"608060405234801561001057600080fd5b50610599806100206000396000f3fe608060405234801561001057600080fd5b50600436106100365760003560e01c80630ba179ee1461003b5780631821cdc014610061575b600080fd5b61004e610049366004610400565b610081565b6040519081526020015b60405180910390f35b61007461006f366004610400565b610255565b6040516100589190610496565b6000603082146100d25760405162461bcd60e51b8152602060048201526017602482015276737566666978206d75737420626520343820627974657360481b60448201526064015b60405180910390fd5b60006040518060400160405280602081526020017f26aa394eea5630e07c48ae0c9558cef7b99d880ec681799c0cf30e8886371da9815250848460405160200161011e939291906104c9565b60405160208183030381529060405290506000806108076001600160a01b03168360405161014c91906104f1565b600060405180830381855afa9150503d8060008114610187576040519150601f19603f3d011682016040523d82523d6000602084013e61018c565b606091505b5091509150816101d75760405162461bcd60e51b81526020600482015260166024820152751cdd1bdc9859d9481c5d595c9e481c995d995c9d195960521b60448201526064016100c9565b80516000036101ec576000935050505061024f565b60208151101561023e5760405162461bcd60e51b815260206004820152601d60248201527f756e6578706563746564204163636f756e74496e666f206c656e67746800000060448201526064016100c9565b6102498160106103af565b93505050505b92915050565b6060603082146102a15760405162461bcd60e51b8152602060048201526017602482015276737566666978206d75737420626520343820627974657360481b60448201526064016100c9565b60006040518060400160405280602081526020017f26aa394eea5630e07c48ae0c9558cef7b99d880ec681799c0cf30e8886371da981525084846040516020016102ed939291906104c9565b60405160208183030381529060405290506000806108076001600160a01b03168360405161031b91906104f1565b600060405180830381855afa9150503d8060008114610356576040519150601f19603f3d011682016040523d82523d6000602084013e61035b565b606091505b5091509150816103a65760405162461bcd60e51b81526020600482015260166024820152751cdd1bdc9859d9481c5d595c9e481c995d995c9d195960521b60448201526064016100c9565b95945050505050565b6000805b60108110156103f9576103c7816008610523565b846103d2838661053a565b815181106103e2576103e261054d565b016020015160f81c901b91909117906001016103b3565b5092915050565b6000806020838503121561041357600080fd5b823567ffffffffffffffff8082111561042b57600080fd5b818501915085601f83011261043f57600080fd5b81358181111561044e57600080fd5b86602082850101111561046057600080fd5b60209290920196919550909350505050565b60005b8381101561048d578181015183820152602001610475565b50506000910152565b60208152600082518060208401526104b5816040850160208701610472565b601f01601f19169190910160400192915050565b600084516104db818460208901610472565b8201838582376000930192835250909392505050565b60008251610503818460208701610472565b9190910192915050565b634e487b7160e01b600052601160045260246000fd5b808202811582820484141761024f5761024f61050d565b8082018082111561024f5761024f61050d565b634e487b7160e01b600052603260045260246000fdfea2646970667358221220a2b4f8aea57965ec9bd8e6fe04a408b2cabbd32ef46eca2fac58c73f0651c07c64736f6c63430008160033","opcodes":"PUSH1 0x80 PUSH1 0x40 MSTORE CALLVALUE DUP1 ISZERO PUSH2 0x10 JUMPI PUSH1 0x0 DUP1 REVERT JUMPDEST POP PUSH2 0x599 DUP1 PUSH2 0x20 PUSH1 0x0 CODECOPY PUSH1 0x0 RETURN INVALID PUSH1 0x80 PUSH1 0x40 MSTORE CALLVALUE DUP1 ISZERO PUSH2 0x10 JUMPI PUSH1 0x0 DUP1 REVERT JUMPDEST POP PUSH1 0x4 CALLDATASIZE LT PUSH2 0x36 JUMPI PUSH1 0x0 CALLDATALOAD PUSH1 0xE0 SHR DUP1 PUSH4 0xBA179EE EQ PUSH2 0x3B JUMPI DUP1 PUSH4 0x1821CDC0 EQ PUSH2 0x61 JUMPI JUMPDEST PUSH1 0x0 DUP1 REVERT JUMPDEST PUSH2 0x4E PUSH2 0x49 CALLDATASIZE PUSH1 0x4 PUSH2 0x400 JUMP JUMPDEST PUSH2 0x81 JUMP JUMPDEST PUSH1 0x40 MLOAD SWAP1 DUP2 MSTORE PUSH1 0x20 ADD JUMPDEST PUSH1 0x40 MLOAD DUP1 SWAP2 SUB SWAP1 RETURN JUMPDEST PUSH2 0x74 PUSH2 0x6F CALLDATASIZE PUSH1 0x4 PUSH2 0x400 JUMP JUMPDEST PUSH2 0x255 JUMP JUMPDEST PUSH1 0x40 MLOAD PUSH2 0x58 SWAP2 SWAP1 PUSH2 0x496 JUMP JUMPDEST PUSH1 0x0 PUSH1 0x30 DUP3 EQ PUSH2 0xD2 JUMPI PUSH1 0x40 MLOAD PUSH3 0x461BCD PUSH1 0xE5 SHL DUP2 MSTORE PUSH1 0x20 PUSH1 0x4 DUP3 ADD MSTORE PUSH1 0x17 PUSH1 0x24 DUP3 ADD MSTORE PUSH23 0x737566666978206D757374206265203438206279746573 PUSH1 0x48 SHL PUSH1 0x44 DUP3 ADD MSTORE PUSH1 0x64 ADD JUMPDEST PUSH1 0x40 MLOAD DUP1 SWAP2 SUB SWAP1 REVERT JUMPDEST PUSH1 0x0 PUSH1 0x40 MLOAD DUP1 PUSH1 0x40 ADD PUSH1 0x40 MSTORE DUP1 PUSH1 0x20 DUP2 MSTORE PUSH1 0x20 ADD PUSH32 0x26AA394EEA5630E07C48AE0C9558CEF7B99D880EC681799C0CF30E8886371DA9 DUP2 MSTORE POP DUP5 DUP5 PUSH1 0x40 MLOAD PUSH1 0x20 ADD PUSH2 0x11E SWAP4 SWAP3 SWAP2 SWAP1 PUSH2 0x4C9 JUMP JUMPDEST PUSH1 0x40 MLOAD PUSH1 0x20 DUP2 DUP4 SUB SUB DUP2 MSTORE SWAP1 PUSH1 0x40 MSTORE SWAP1 POP PUSH1 0x0 DUP1 PUSH2 0x807 PUSH1 0x1 PUSH1 0x1 PUSH1 0xA0 SHL SUB AND DUP4 PUSH1 0x40 MLOAD PUSH2 0x14C SWAP2 SWAP1 PUSH2 0x4F1 JUMP JUMPDEST PUSH1 0x0 PUSH1 0x40 MLOAD DUP1 DUP4 SUB DUP2 DUP6 GAS STATICCALL SWAP2 POP POP RETURNDATASIZE DUP1 PUSH1 0x0 DUP2 EQ PUSH2 0x187 JUMPI PUSH1 0x40 MLOAD SWAP2 POP PUSH1 0x1F NOT PUSH1 0x3F RETURNDATASIZE ADD AND DUP3 ADD PUSH1 0x40 MSTORE RETURNDATASIZE DUP3 MSTORE RETURNDATASIZE PUSH1 0x0 PUSH1 0x20 DUP5 ADD RETURNDATACOPY PUSH2 0x18C JUMP JUMPDEST PUSH1 0x60 SWAP2 POP JUMPDEST POP SWAP2 POP SWAP2 POP DUP2 PUSH2 0x1D7 JUMPI PUSH1 0x40 MLOAD PUSH3 0x461BCD PUSH1 0xE5 SHL DUP2 MSTORE PUSH1 0x20 PUSH1 0x4 DUP3 ADD MSTORE PUSH1 0x16 PUSH1 0x24 DUP3 ADD MSTORE PUSH22 0x1CDD1BDC9859D9481C5D595C9E481C995D995C9D1959 PUSH1 0x52 SHL PUSH1 0x44 DUP3 ADD MSTORE PUSH1 0x64 ADD PUSH2 0xC9 JUMP JUMPDEST DUP1 MLOAD PUSH1 0x0 SUB PUSH2 0x1EC JUMPI PUSH1 0x0 SWAP4 POP POP POP POP PUSH2 0x24F JUMP JUMPDEST PUSH1 0x20 DUP2 MLOAD LT ISZERO PUSH2 0x23E JUMPI PUSH1 0x40 MLOAD PUSH3 0x461BCD PUSH1 0xE5 SHL DUP2 MSTORE PUSH1 0x20 PUSH1 0x4 DUP3 ADD MSTORE PUSH1 0x1D PUSH1 0x24 DUP3 ADD MSTORE PUSH32 0x756E6578706563746564204163636F756E74496E666F206C656E677468000000 PUSH1 0x44 DUP3 ADD MSTORE PUSH1 0x64 ADD PUSH2 0xC9 JUMP JUMPDEST PUSH2 0x249 DUP2 PUSH1 0x10 PUSH2 0x3AF JUMP JUMPDEST SWAP4 POP POP POP POP JUMPDEST SWAP3 SWAP2 POP POP JUMP JUMPDEST PUSH1 0x60 PUSH1 0x30 DUP3 EQ PUSH2 0x2A1 JUMPI PUSH1 0x40 MLOAD PUSH3 0x461BCD PUSH1 0xE5 SHL DUP2 MSTORE PUSH1 0x20 PUSH1 0x4 DUP3 ADD MSTORE PUSH1 0x17 PUSH1 0x24 DUP3 ADD MSTORE PUSH23 0x737566666978206D757374206265203438206279746573 PUSH1 0x48 SHL PUSH1 0x44 DUP3 ADD MSTORE PUSH1 0x64 ADD PUSH2 0xC9 JUMP JUMPDEST PUSH1 0x0 PUSH1 0x40 MLOAD DUP1 PUSH1 0x40 ADD PUSH1 0x40 MSTORE DUP1 PUSH1 0x20 DUP2 MSTORE PUSH1 0x20 ADD PUSH32 0x26AA394EEA5630E07C48AE0C9558CEF7B99D880EC681799C0CF30E8886371DA9 DUP2 MSTORE POP DUP5 DUP5 PUSH1 0x40 MLOAD PUSH1 0x20 ADD PUSH2 0x2ED SWAP4 SWAP3 SWAP2 SWAP1 PUSH2 0x4C9 JUMP JUMPDEST PUSH1 0x40 MLOAD PUSH1 0x20 DUP2 DUP4 SUB SUB DUP2 MSTORE SWAP1 PUSH1 0x40 MSTORE SWAP1 POP PUSH1 0x0 DUP1 PUSH2 0x807 PUSH1 0x1 PUSH1 0x1 PUSH1 0xA0 SHL SUB AND DUP4 PUSH1 0x40 MLOAD PUSH2 0x31B SWAP2 SWAP1 PUSH2 0x4F1 JUMP JUMPDEST PUSH1 0x0 PUSH1 0x40 MLOAD DUP1 DUP4 SUB DUP2 DUP6 GAS STATICCALL SWAP2 POP POP RETURNDATASIZE DUP1 PUSH1 0x0 DUP2 EQ PUSH2 0x356 JUMPI PUSH1 0x40 MLOAD SWAP2 POP PUSH1 0x1F NOT PUSH1 0x3F RETURNDATASIZE ADD AND DUP3 ADD PUSH1 0x40 MSTORE RETURNDATASIZE DUP3 MSTORE RETURNDATASIZE PUSH1 0x0 PUSH1 0x20 DUP5 ADD RETURNDATACOPY PUSH2 0x35B JUMP JUMPDEST PUSH1 0x60 SWAP2 POP JUMPDEST POP SWAP2 POP SWAP2 POP DUP2 PUSH2 0x3A6 JUMPI PUSH1 0x40 MLOAD PUSH3 0x461BCD PUSH1 0xE5 SHL DUP2 MSTORE PUSH1 0x20 PUSH1 0x4 DUP3 ADD MSTORE PUSH1 0x16 PUSH1 0x24 DUP3 ADD MSTORE PUSH22 0x1CDD1BDC9859D9481C5D595C9E481C995D995C9D1959 PUSH1 0x52 SHL PUSH1 0x44 DUP3 ADD MSTORE PUSH1 0x64 ADD PUSH2 0xC9 JUMP JUMPDEST SWAP6 SWAP5 POP POP POP POP POP JUMP JUMPDEST PUSH1 0x0 DUP1 JUMPDEST PUSH1 0x10 DUP2 LT ISZERO PUSH2 0x3F9 JUMPI PUSH2 0x3C7 DUP2 PUSH1 0x8 PUSH2 0x523 JUMP JUMPDEST DUP5 PUSH2 0x3D2 DUP4 DUP7 PUSH2 0x53A JUMP JUMPDEST DUP2 MLOAD DUP2 LT PUSH2 0x3E2 JUMPI PUSH2 0x3E2 PUSH2 0x54D JUMP JUMPDEST ADD PUSH1 0x20 ADD MLOAD PUSH1 0xF8 SHR SWAP1 SHL SWAP2 SWAP1 SWAP2 OR SWAP1 PUSH1 0x1 ADD PUSH2 0x3B3 JUMP JUMPDEST POP SWAP3 SWAP2 POP POP JUMP JUMPDEST PUSH1 0x0 DUP1 PUSH1 0x20 DUP4 DUP6 SUB SLT ISZERO PUSH2 0x413 JUMPI PUSH1 0x0 DUP1 REVERT JUMPDEST DUP3 CALLDATALOAD PUSH8 0xFFFFFFFFFFFFFFFF DUP1 DUP3 GT ISZERO PUSH2 0x42B JUMPI PUSH1 0x0 DUP1 REVERT JUMPDEST DUP2 DUP6 ADD SWAP2 POP DUP6 PUSH1 0x1F DUP4 ADD SLT PUSH2 0x43F JUMPI PUSH1 0x0 DUP1 REVERT JUMPDEST DUP2 CALLDATALOAD DUP2 DUP2 GT ISZERO PUSH2 0x44E JUMPI PUSH1 0x0 DUP1 REVERT JUMPDEST DUP7 PUSH1 0x20 DUP3 DUP6 ADD ADD GT ISZERO PUSH2 0x460 JUMPI PUSH1 0x0 DUP1 REVERT JUMPDEST PUSH1 0x20 SWAP3 SWAP1 SWAP3 ADD SWAP7 SWAP2 SWAP6 POP SWAP1 SWAP4 POP POP POP POP JUMP JUMPDEST PUSH1 0x0 JUMPDEST DUP4 DUP2 LT ISZERO PUSH2 0x48D JUMPI DUP2 DUP2 ADD MLOAD DUP4 DUP3 ADD MSTORE PUSH1 0x20 ADD PUSH2 0x475 JUMP JUMPDEST POP POP PUSH1 0x0 SWAP2 ADD MSTORE JUMP JUMPDEST PUSH1 0x20 DUP2 MSTORE PUSH1 0x0 DUP3 MLOAD DUP1 PUSH1 0x20 DUP5 ADD MSTORE PUSH2 0x4B5 DUP2 PUSH1 0x40 DUP6 ADD PUSH1 0x20 DUP8 ADD PUSH2 0x472 JUMP JUMPDEST PUSH1 0x1F ADD PUSH1 0x1F NOT AND SWAP2 SWAP1 SWAP2 ADD PUSH1 0x40 ADD SWAP3 SWAP2 POP POP JUMP JUMPDEST PUSH1 0x0 DUP5 MLOAD PUSH2 0x4DB DUP2 DUP5 PUSH1 0x20 DUP10 ADD PUSH2 0x472 JUMP JUMPDEST DUP3 ADD DUP4 DUP6 DUP3 CALLDATACOPY PUSH1 0x0 SWAP4 ADD SWAP3 DUP4 MSTORE POP SWAP1 SWAP4 SWAP3 POP POP POP JUMP JUMPDEST PUSH1 0x0 DUP3 MLOAD PUSH2 0x503 DUP2 DUP5 PUSH1 0x20 DUP8 ADD PUSH2 0x472 JUMP JUMPDEST SWAP2 SWAP1 SWAP2 ADD SWAP3 SWAP2 POP POP JUMP JUMPDEST PUSH4 0x4E487B71 PUSH1 0xE0 SHL PUSH1 0x0 MSTORE PUSH1 0x11 PUSH1 0x4 MSTORE PUSH1 0x24 PUSH1 0x0 REVERT JUMPDEST DUP1 DUP3 MUL DUP2 ISZERO DUP3 DUP3 DIV DUP5 EQ OR PUSH2 0x24F JUMPI PUSH2 0x24F PUSH2 0x50D JUMP JUMPDEST DUP1 DUP3 ADD DUP1 DUP3 GT ISZERO PUSH2 0x24F JUMPI PUSH2 0x24F PUSH2 0x50D JUMP JUMPDEST PUSH4 0x4E487B71 PUSH1 0xE0 SHL PUSH1 0x0 MSTORE PUSH1 0x32 PUSH1 0x4 MSTORE PUSH1 0x24 PUSH1 0x0 REVERT INVALID LOG2 PUSH5 0x6970667358 0x22 SLT KECCAK256 LOG2 0xB4 0xF8 0xAE 0xA5 PUSH26 0x65EC9BD8E6FE04A408B2CABBD32EF46ECA2FAC58C73F0651C07C PUSH5 0x736F6C6343 STOP ADDMOD AND STOP CALLER "},"methodIdentifiers":{"freeBalance(bytes)":"0ba179ee","rawAccountInfo(bytes)":"1821cdc0"}}}}}