{"contracts/TradingV8_2.sol":{"TradingV8_2":{"abi":[{"inputs":[],"stateMutability":"nonpayable","type":"constructor"},{"inputs":[],"name":"AmountTooLarge","type":"error"},{"inputs":[],"name":"AmountZero","type":"error"},{"inputs":[],"name":"ArrayLengthMismatch","type":"error"},{"inputs":[],"name":"FunctionNotFound","type":"error"},{"inputs":[],"name":"InvalidAddress","type":"error"},{"inputs":[],"name":"InvalidBytesKey","type":"error"},{"inputs":[],"name":"NotOwner","type":"error"},{"inputs":[],"name":"NotOwnerOrWithdrawer","type":"error"},{"inputs":[],"name":"NotWithdrawer","type":"error"},{"inputs":[],"name":"OutsideWithdrawWindow","type":"error"},{"inputs":[],"name":"Rocked","type":"error"},{"inputs":[],"name":"TransferFailed","type":"error"},{"inputs":[],"name":"WithdrawTooSoon","type":"error"},{"stateMutability":"payable","type":"fallback"},{"inputs":[],"name":"DELEGATOR_COLDKEY","outputs":[{"internalType":"bytes32","name":"","type":"bytes32"}],"stateMutability":"view","type":"function"},{"inputs":[],"name":"DELEGATOR_HOTKEY","outputs":[{"internalType":"bytes32","name":"","type":"bytes32"}],"stateMutability":"view","type":"function"},{"inputs":[],"name":"REAL_COLDKEY","outputs":[{"internalType":"bytes32","name":"","type":"bytes32"}],"stateMutability":"view","type":"function"},{"inputs":[{"internalType":"uint256[]","name":"netuids","type":"uint256[]"},{"internalType":"uint256[]","name":"amounts","type":"uint256[]"},{"internalType":"uint256[]","name":"limitPrices","type":"uint256[]"}],"name":"addStakeLimits","outputs":[],"stateMutability":"nonpayable","type":"function"},{"inputs":[{"internalType":"uint256","name":"amount","type":"uint256"}],"name":"addStakeToRoot","outputs":[],"stateMutability":"nonpayable","type":"function"},{"inputs":[],"name":"addStakeToRootFull","outputs":[],"stateMutability":"nonpayable","type":"function"},{"inputs":[],"name":"contractBytesKey","outputs":[{"internalType":"bytes32","name":"","type":"bytes32"}],"stateMutability":"view","type":"function"},{"inputs":[],"name":"execute","outputs":[],"stateMutability":"nonpayable","type":"function"},{"inputs":[],"name":"getAlphaInPools","outputs":[{"internalType":"uint64[129]","name":"alphaInPools","type":"uint64[129]"}],"stateMutability":"view","type":"function"},{"inputs":[],"name":"getAlphaPrices","outputs":[{"internalType":"uint256[129]","name":"alphaPrices","type":"uint256[129]"}],"stateMutability":"view","type":"function"},{"inputs":[{"internalType":"uint256[]","name":"netuids","type":"uint256[]"},{"internalType":"bytes32[]","name":"_mevHotkeyBytesKeys","type":"bytes32[]"},{"internalType":"bytes32[]","name":"_mevColdkeyBytesKeys","type":"bytes32[]"}],"name":"getMevStakedAmounts","outputs":[{"internalType":"uint256[]","name":"amounts","type":"uint256[]"}],"stateMutability":"view","type":"function"},{"inputs":[{"internalType":"bytes32[]","name":"hotkeys","type":"bytes32[]"},{"internalType":"bytes32[]","name":"coldkeys","type":"bytes32[]"}],"name":"getStakedAmounts","outputs":[{"internalType":"uint256[129]","name":"amounts","type":"uint256[129]"}],"stateMutability":"view","type":"function"},{"inputs":[],"name":"getTaoInPools","outputs":[{"internalType":"uint64[129]","name":"taoInPools","type":"uint64[129]"}],"stateMutability":"view","type":"function"},{"inputs":[],"name":"getTradingInfo","outputs":[{"internalType":"uint256[129]","name":"alphaPrices","type":"uint256[129]"},{"internalType":"uint64[129]","name":"taoInPools","type":"uint64[129]"},{"internalType":"uint64[129]","name":"alphaInPools","type":"uint64[129]"},{"internalType":"uint256[129]","name":"orgStakedAmounts","type":"uint256[129]"},{"internalType":"uint256[129]","name":"curStakedAmounts","type":"uint256[129]"},{"internalType":"uint256[]","name":"mevFreeBalances","type":"uint256[]"},{"internalType":"uint256","name":"freeBalance","type":"uint256"},{"internalType":"uint256","name":"ownerBalance","type":"uint256"}],"stateMutability":"view","type":"function"},{"inputs":[],"name":"lastWithdrawSmallTime","outputs":[{"internalType":"uint256","name":"","type":"uint256"}],"stateMutability":"view","type":"function"},{"inputs":[{"internalType":"uint256[]","name":"netuids","type":"uint256[]"},{"internalType":"uint256[]","name":"amounts","type":"uint256[]"},{"internalType":"bytes32[]","name":"_mevHotkeyBytesKeys","type":"bytes32[]"},{"internalType":"bytes32[]","name":"_mevColdkeyBytesKeys","type":"bytes32[]"},{"internalType":"uint256[]","name":"min_alphas","type":"uint256[]"},{"internalType":"bool","name":"is_mine_staked","type":"bool"}],"name":"mevAddStakes","outputs":[],"stateMutability":"nonpayable","type":"function"},{"inputs":[{"internalType":"uint256","name":"","type":"uint256"}],"name":"mevAddresses","outputs":[{"internalType":"address","name":"","type":"address"}],"stateMutability":"view","type":"function"},{"inputs":[{"internalType":"uint256[]","name":"netuids","type":"uint256[]"},{"internalType":"bytes32[]","name":"_mevHotkeyBytesKeys","type":"bytes32[]"},{"internalType":"bytes32[]","name":"_mevColdkeyBytesKeys","type":"bytes32[]"},{"internalType":"uint256[]","name":"min_alphas","type":"uint256[]"}],"name":"mevRemoveStakes","outputs":[],"stateMutability":"nonpayable","type":"function"},{"inputs":[{"internalType":"bytes32","name":"destination_coldkey","type":"bytes32"}],"name":"moveStakeAll","outputs":[],"stateMutability":"nonpayable","type":"function"},{"inputs":[],"name":"owner","outputs":[{"internalType":"address","name":"","type":"address"}],"stateMutability":"view","type":"function"},{"inputs":[{"internalType":"uint256","name":"amount","type":"uint256"}],"name":"removeStakeFromRoot","outputs":[],"stateMutability":"nonpayable","type":"function"},{"inputs":[],"name":"removeStakeFromRootFull","outputs":[],"stateMutability":"nonpayable","type":"function"},{"inputs":[{"internalType":"uint256","name":"netuid","type":"uint256"}],"name":"removeStakeFromSubnetFull","outputs":[],"stateMutability":"nonpayable","type":"function"},{"inputs":[{"internalType":"uint256[]","name":"netuids","type":"uint256[]"},{"internalType":"uint256[]","name":"limitPrices","type":"uint256[]"}],"name":"removeStakeLimits","outputs":[],"stateMutability":"nonpayable","type":"function"},{"inputs":[],"name":"rocked","outputs":[{"internalType":"bool","name":"","type":"bool"}],"stateMutability":"view","type":"function"},{"inputs":[{"internalType":"uint8[]","name":"_callData","type":"uint8[]"}],"name":"setCallData","outputs":[],"stateMutability":"nonpayable","type":"function"},{"inputs":[{"internalType":"address","name":"newWithdrawer","type":"address"},{"internalType":"bytes32","name":"newDelegatorColdkey","type":"bytes32"}],"name":"setConfig","outputs":[],"stateMutability":"nonpayable","type":"function"},{"inputs":[],"name":"setRock","outputs":[],"stateMutability":"nonpayable","type":"function"},{"inputs":[{"internalType":"uint256[]","name":"netuids","type":"uint256[]"},{"internalType":"uint256[]","name":"amounts","type":"uint256[]"}],"name":"setStakedAmounts","outputs":[],"stateMutability":"nonpayable","type":"function"},{"inputs":[{"internalType":"address","name":"newWithdrawer","type":"address"}],"name":"setWithdrawer","outputs":[],"stateMutability":"nonpayable","type":"function"},{"inputs":[{"internalType":"uint256","name":"","type":"uint256"}],"name":"stakedAmounts","outputs":[{"internalType":"uint256","name":"","type":"uint256"}],"stateMutability":"view","type":"function"},{"inputs":[],"name":"unRock","outputs":[],"stateMutability":"nonpayable","type":"function"},{"inputs":[{"internalType":"bytes32","name":"newContractBytesKey","type":"bytes32"}],"name":"updateContractBytesKey","outputs":[],"stateMutability":"nonpayable","type":"function"},{"inputs":[{"internalType":"address[]","name":"newMevAddresses","type":"address[]"}],"name":"updateMevAddresses","outputs":[],"stateMutability":"nonpayable","type":"function"},{"inputs":[{"internalType":"address","name":"to","type":"address"}],"name":"withdrawAll","outputs":[],"stateMutability":"nonpayable","type":"function"},{"inputs":[{"internalType":"bytes32","name":"coldkey","type":"bytes32"}],"name":"withdrawAllColdkey","outputs":[],"stateMutability":"nonpayable","type":"function"},{"inputs":[{"internalType":"address","name":"to","type":"address"},{"internalType":"uint256","name":"amount","type":"uint256"}],"name":"withdrawBig","outputs":[],"stateMutability":"nonpayable","type":"function"},{"inputs":[{"internalType":"bytes32","name":"coldkey","type":"bytes32"},{"internalType":"uint256","name":"amount","type":"uint256"}],"name":"withdrawBigColdkey","outputs":[],"stateMutability":"nonpayable","type":"function"},{"inputs":[{"internalType":"address","name":"to","type":"address"},{"internalType":"uint256","name":"amount","type":"uint256"}],"name":"withdrawSmall","outputs":[],"stateMutability":"nonpayable","type":"function"},{"inputs":[],"name":"withdrawer","outputs":[{"internalType":"address","name":"","type":"address"}],"stateMutability":"view","type":"function"},{"stateMutability":"payable","type":"receive"}],"evm":{"bytecode":{"linkReferences":{},"object":"608060405234801561001057600080fd5b506001600055608580546001600160a01b031990811633908117909255608680549091169091179055613b0b806100486000396000f3fe60806040526004361061023f5760003560e01c80639d2736cc1161012e578063c3a97fc9116100ab578063e21572441161006f578063e2157244146106ec578063e8d23d2a14610701578063f4f1726b14610716578063f9036f0214610736578063fa09e6301461075657610246565b8063c3a97fc91461064a578063c6c4a86f1461066a578063c74db3351461068c578063cdc18424146106ac578063d7d31ae3146106cc57610246565b8063a8c2bb0d116100f2578063a8c2bb0d146105cb578063bc28d5d0146105e0578063bc3fd048146105f5578063bc49912814610615578063be7b5a641461063557610246565b80639d2736cc146105295780639e6eb20b14610549578063a38455221461056b578063a76787751461058b578063a83ed0c1146105ab57610246565b806358c0b896116101bc5780638799111f116101805780638799111f14610486578063892208c5146104a65780638da5cb5b146104bb578063947d3c3f146104f3578063987d0e591461050957610246565b806358c0b896146103fb578063614619541461041b578063646e569b1461043057806364ee6aec146104505780637e11ca0a1461046657610246565b806326a224e01161020357806326a224e014610327578063276ef789146103545780633004c5021461037d5780633383dfe51461039d578063565dea95146103c757610246565b80630d16ab811461025f5780630d174c241461029557806313cd4940146102b75780631881d708146102e75780631f20ff4c1461030757610246565b3661024657005b60405163201f3fd360e11b815260040160405180910390fd5b34801561026b57600080fd5b5061027f61027a366004612eba565b610776565b60405161028c9190612f90565b60405180910390f35b3480156102a157600080fd5b506102b56102b0366004612fc6565b61083f565b005b3480156102c357600080fd5b506102d9600080516020613ab683398151915281565b60405190815260200161028c565b3480156102f357600080fd5b506102b5610302366004612fe1565b6108b3565b34801561031357600080fd5b506102b561032236600461305d565b610960565b34801561033357600080fd5b50610347610342366004612fe1565b610c71565b60405161028c9190613181565b34801561036057600080fd5b50610369610da5565b60405161028c9897969594939291906131c3565b34801561038957600080fd5b506102b5610398366004612eba565b610ef8565b3480156103a957600080fd5b506088546103b79060ff1681565b604051901515815260200161028c565b3480156103d357600080fd5b506102d97f2636ad834cd47318572033620d50377260a54fc64e5f150896186b2bafda745481565b34801561040757600080fd5b506102b5610416366004613237565b6111b8565b34801561042757600080fd5b506102b5611280565b34801561043c57600080fd5b506102b561044b366004612fe1565b611667565b34801561045c57600080fd5b506102d960875481565b34801561047257600080fd5b506102b5610481366004613250565b6118cd565b34801561049257600080fd5b506102b56104a1366004613237565b611a3c565b3480156104b257600080fd5b506102b5611ac9565b3480156104c757600080fd5b506086546104db906001600160a01b031681565b6040516001600160a01b03909116815260200161028c565b3480156104ff57600080fd5b506102d960025481565b34801561051557600080fd5b506102b561052436600461327a565b611b86565b34801561053557600080fd5b506102b5610544366004613237565b611bc2565b34801561055557600080fd5b5061055e611c64565b60405161028c91906132bc565b34801561057757600080fd5b506102b561058636600461327a565b611c79565b34801561059757600080fd5b506104db6105a6366004613237565b611cb0565b3480156105b757600080fd5b506102b56105c6366004613237565b611cda565b3480156105d757600080fd5b5061055e611d60565b3480156105ec57600080fd5b50610347611d70565b34801561060157600080fd5b506102b56106103660046132cb565b611d80565b34801561062157600080fd5b506102d9610630366004613237565b611ec2565b34801561064157600080fd5b506102b5611ed9565b34801561065657600080fd5b506102b5610665366004613237565b611f13565b34801561067657600080fd5b506102d9600080516020613a9683398151915281565b34801561069857600080fd5b506102b56106a73660046132ed565b612058565b3480156106b857600080fd5b506085546104db906001600160a01b031681565b3480156106d857600080fd5b506102b56106e7366004613250565b61226d565b3480156106f857600080fd5b506102b56123e6565b34801561070d57600080fd5b506102b561241d565b34801561072257600080fd5b506102b5610731366004613250565b612519565b34801561074257600080fd5b506102b5610751366004613237565b61260f565b34801561076257600080fd5b506102b5610771366004612fc6565b61265d565b6060858483146107995760405163512509d360e11b815260040160405180910390fd5b8067ffffffffffffffff8111156107b2576107b26133b1565b6040519080825280602002602001820160405280156107db578160200160208202803683370190505b50915060005b818110156108335761080e8989838181106107fe576107fe6133c7565b90506020020135888888886127cb565b838281518110610820576108206133c7565b60209081029190910101526001016107e1565b50509695505050505050565b6085546001600160a01b0316331461086a57604051632d99bc8360e21b815260040160405180910390fd5b6001600160a01b0381166108915760405163e6c4247b60e01b815260040160405180910390fd5b608580546001600160a01b0319166001600160a01b0392909216919091179055565b6086546001600160a01b031633146108de576040516330cd747160e01b815260040160405180910390fd5b828181146108ff5760405163512509d360e11b815260040160405180910390fd5b60005b818110156109585783838281811061091c5761091c6133c7565b905060200201356003878784818110610937576109376133c7565b905060200201356081811061094e5761094e6133c7565b0155600101610902565b505050505050565b6109686128a2565b6086546001600160a01b03163314610993576040516330cd747160e01b815260040160405180910390fd5b6002548a908982146109b85760405163512509d360e11b815260040160405180910390fd5b8786146109d85760405163512509d360e11b815260040160405180910390fd5b60005b82811015610c565760008e8e838181106109f7576109f76133c7565b905060200201359050848015610a9a57506040516371dacc7d60e11b8152600080516020613a968339815191526004820152600080516020613ab6833981519152602482015260448101829052633b9aca00906108059063e3b598fa90606401602060405180830381865afa158015610a74573d6000803e3d6000fd5b505050506040513d601f19601f82011682018060405250810190610a9891906133dd565b115b15610aa857506001016109db565b610ace81888885818110610abe57610abe6133c7565b905060200201358d8d8d8d6128ff565b610c4d5760008d8d84818110610ae657610ae66133c7565b6040516371dacc7d60e11b8152600080516020613a968339815191526004820152602481018890526000604482018190526020929092029390930135935091610805915063e3b598fa90606401602060405180830381865afa158015610b50573d6000803e3d6000fd5b505050506040513d601f19601f82011682018060405250810190610b7491906133dd565b905081811115610b815750805b631dcd6500811015610b9857505050505050610c5a565b604051630be72fb160e11b8152600080516020613ab68339815191526004820152600080516020613a968339815191526024820152600060448201526064810184905260848101829052610805906317ce5f629060a401600060405180830381600087803b158015610c0957600080fd5b505af1158015610c1d573d6000803e3d6000fd5b505050508060038460818110610c3557610c356133c7565b016000828254610c4591906133f6565b909155505050505b506001016109db565b5050505b610c646001600055565b5050505050505050505050565b610c79612d3b565b83828114610c9a5760405163512509d360e11b815260040160405180910390fd5b60005b81811015610d9b576000878783818110610cb957610cb96133c7565b9050602002013590506000868684818110610cd657610cd66133c7565b9050602002013590506000600190505b6081811015610d8d576040516371dacc7d60e11b81526004810184905260248101839052604481018290526108059063e3b598fa90606401602060405180830381865afa158015610d3b573d6000803e3d6000fd5b505050506040513d601f19601f82011682018060405250810190610d5f91906133dd565b868260818110610d7157610d716133c7565b60200201818151610d8291906133f6565b905250600101610ce6565b508260010192505050610c9d565b5050949350505050565b610dad612d3b565b610db5612d3b565b610dbd612d3b565b610dc5612d3b565b610dcd612d3b565b6060600080610dda6129df565b9750610de4612a83565b9650610dee612b32565b9550610e16600080516020613a96833981519152600080516020613ab6833981519152612be1565b6002546040516371dacc7d60e11b8152600080516020613a9683398151915260048201526024810191909152600060448201529094506108059063e3b598fa90606401602060405180830381865afa158015610e76573d6000803e3d6000fd5b505050506040513d601f19601f82011682018060405250810190610e9a91906133dd565b8452610ea4612c8b565b6040805161102081019182905291945060039060819082845b815481526020019060010190808311610ebd5750506086549b9c9a9b999a939997985095964796506001600160a01b03163194509192505050565b610f006128a2565b6086546001600160a01b03163314610f2b576040516330cd747160e01b815260040160405180910390fd5b60025485908482141580610f3f5750818314155b15610f5d5760405163512509d360e11b815260040160405180910390fd5b60005b828110156111aa576000878783818110610f7c57610f7c6133c7565b905060200201359050806000146111a15760008a8a84818110610fa157610fa16133c7565b90506020020135905060008190506000888886818110610fc357610fc36133c7565b6040516369e38bc360e01b815261ffff8616600482015260209091029290920135925060009161080891506369e38bc390602401602060405180830381865afa158015611014573d6000803e3d6000fd5b505050506040513d601f19601f8201168201806040525081019061103891906133dd565b905080821061119c576040516371dacc7d60e11b8152600080516020613a96833981519152600482015260248101889052600060448201819052906108059063e3b598fa90606401602060405180830381865afa15801561109d573d6000803e3d6000fd5b505050506040513d601f19601f820116820180604052508101906110c191906133dd565b9050858111156110ce5750845b631dcd65008110156110e8575050505050505050506111ae565b604051630be72fb160e11b8152600080516020613ab68339815191526004820152600080516020613a968339815191526024820152600060448201526064810186905260848101829052610805906317ce5f629060a401600060405180830381600087803b15801561115957600080fd5b505af115801561116d573d6000803e3d6000fd5b505050508060038660818110611185576111856133c7565b01600082825461119591906133f6565b9091555050505b505050505b50600101610f60565b5050505b6109586001600055565b6111c06128a2565b6086546001600160a01b031633148015906111e657506085546001600160a01b03163314155b1561120457604051630b4a87e760e11b815260040160405180910390fd5b6040516307d691e360e41b8152600080516020613a968339815191526004820152602481018290526000604482015261080590637d691e30906064015b600060405180830381600087803b15801561125b57600080fd5b505af115801561126f573d6000803e3d6000fd5b5050505061127d6001600055565b50565b6112886128a2565b6086546001600160a01b031633146112b3576040516330cd747160e01b815260040160405180910390fd5b4761080b620ae7597f2636ad834cd47318572033620d50377260a54fc64e5f150896186b2bafda74546000604051908082528060200260200182016040528015611307578160200160208202803683370190505b5060846040518463ffffffff1660e01b815260040161132893929190613417565b600060405180830381600087803b15801561134257600080fd5b505af1158015611356573d6000803e3d6000fd5b5050505060008167016345785d8a000061137091906133f6565b90504781810361137f57600080fd5b62024c5619633b9aca008284030401607f8116600782901c81156114b8576040516371dacc7d60e11b8152600080516020613a968339815191526004820152600080516020613ab68339815191526024820152604481018390526000906108059063e3b598fa90606401602060405180830381865afa158015611406573d6000803e3d6000fd5b505050506040513d601f19601f8201168201806040525081019061142a91906133dd565b905080156114b657604051632d67f0b960e01b8152600481018490526024810182905273d689d29f7ea0c511f4dde84171b10d34078bb17c90632d67f0b990604401600060405180830381600087803b15801561148657600080fd5b505af115801561149a573d6000803e3d6000fd5b505050506000600384608181106114b3576114b36133c7565b01555b505b80156115d9576040516371dacc7d60e11b8152600080516020613a968339815191526004820152600080516020613ab68339815191526024820152604481018290526000906108059063e3b598fa90606401602060405180830381865afa158015611527573d6000803e3d6000fd5b505050506040513d601f19601f8201168201806040525081019061154b91906133dd565b905080156115d757604051632d67f0b960e01b8152600481018390526024810182905273d689d29f7ea0c511f4dde84171b10d34078bb17c90632d67f0b990604401600060405180830381600087803b1580156115a757600080fd5b505af11580156115bb573d6000803e3d6000fd5b505050506000600383608181106115d4576115d46133c7565b01555b505b60405163cd6f4eb160e01b81527f2636ad834cd47318572033620d50377260a54fc64e5f150896186b2bafda745460048201526108009063cd6f4eb19067016345785d8a0000906024016000604051808303818588803b15801561163c57600080fd5b505af1158015611650573d6000803e3d6000fd5b50505050505050505050506116656001600055565b565b61166f6128a2565b6086546001600160a01b0316331461169a576040516330cd747160e01b815260040160405180910390fd5b828181146116bb5760405163512509d360e11b815260040160405180910390fd5b60005b818110156118bb5760008686838181106116da576116da6133c7565b905060200201359050600081905060008686858181106116fc576116fc6133c7565b6040516369e38bc360e01b815261ffff8616600482015260209091029290920135925060009161080891506369e38bc390602401602060405180830381865afa15801561174d573d6000803e3d6000fd5b505050506040513d601f19601f8201168201806040525081019061177191906133dd565b90508082116118ac576040516371dacc7d60e11b8152600080516020613a968339815191526004820152600080516020613ab68339815191526024820152604481018590526000906108059063e3b598fa90606401602060405180830381865afa1580156117e3573d6000803e3d6000fd5b505050506040513d601f19601f8201168201806040525081019061180791906133dd565b905060006003866081811061181e5761181e6133c7565b015411156118aa57604051632d67f0b960e01b8152600481018690526024810182905273d689d29f7ea0c511f4dde84171b10d34078bb17c90632d67f0b990604401600060405180830381600087803b15801561187a57600080fd5b505af115801561188e573d6000803e3d6000fd5b505050506000600386608181106118a7576118a76133c7565b01555b505b846001019450505050506116be565b50506118c76001600055565b50505050565b6118d56128a2565b60885460ff16156118f95760405163a62baeb760e01b815260040160405180910390fd5b6000610e1061190b6201518042613a43565b6119159190613a57565b9050600e811080611927575060108110155b156119455760405163cc1de8d960e01b815260040160405180910390fd5b6085546001600160a01b0316331461197057604051632d99bc8360e21b815260040160405180910390fd5b6001600160a01b0383166119975760405163e6c4247b60e01b815260040160405180910390fd5b816000036119b8576040516365e52d5160e11b815260040160405180910390fd5b6000836001600160a01b03168360405160006040518083038185875af1925050503d8060008114611a05576040519150601f19603f3d011682016040523d82523d6000602084013e611a0a565b606091505b5050905080611a2c576040516312171d8360e31b815260040160405180910390fd5b5050611a386001600055565b5050565b611a446128a2565b6086546001600160a01b03163314801590611a6a57506085546001600160a01b03163314155b15611a8857604051630b4a87e760e11b815260040160405180910390fd5b604051631fc9b14160e01b8152600080516020613a968339815191526004820152602481018290526000604482015261080590631fc9b14190606401611241565b611ad16128a2565b6086546001600160a01b03163314801590611af757506085546001600160a01b03163314155b15611b1557604051630b4a87e760e11b815260040160405180910390fd5b60405163d4626bb960e01b8152600080516020613a968339815191526004820152600060248201526108059063d4626bb990604401600060405180830381600087803b158015611b6457600080fd5b505af1158015611b78573d6000803e3d6000fd5b505050506116656001600055565b6086546001600160a01b03163314611bb1576040516330cd747160e01b815260040160405180910390fd5b611bbd60018383612d5a565b505050565b611bca6128a2565b60885460ff1615611bee5760405163a62baeb760e01b815260040160405180910390fd5b6085546001600160a01b03163314611c1957604051632d99bc8360e21b815260040160405180910390fd5b6040516257c71b60e41b815260048101829052600080516020613ab6833981519152602482015273d689d29f7ea0c511f4dde84171b10d34078bb17c9063057c71b090604401611241565b611c6c612d3b565b611c74612b32565b905090565b6086546001600160a01b03163314611ca4576040516330cd747160e01b815260040160405180910390fd5b611bbd60848383612db9565b60018181548110611cc057600080fd5b6000918252602090912001546001600160a01b0316905081565b611ce26128a2565b6086546001600160a01b03163314801590611d0857506085546001600160a01b03163314155b15611d2657604051630b4a87e760e11b815260040160405180910390fd5b60405163d4626bb960e01b8152600080516020613a968339815191526004820152602481018290526108059063d4626bb990604401611241565b611d68612d3b565b611c74612a83565b611d78612d3b565b611c746129df565b611d886128a2565b60885460ff1615611dac5760405163a62baeb760e01b815260040160405180910390fd5b6000610e10611dbe6201518042613a43565b611dc89190613a57565b9050600e811080611dda575060108110155b15611df85760405163cc1de8d960e01b815260040160405180910390fd5b6085546001600160a01b03163314611e2357604051632d99bc8360e21b815260040160405180910390fd5b82611e415760405163666b0c5d60e01b815260040160405180910390fd5b81600003611e62576040516365e52d5160e11b815260040160405180910390fd5b60405163cd6f4eb160e01b8152600481018490526108009063cd6f4eb19084906024016000604051808303818588803b158015611e9e57600080fd5b505af1158015611eb2573d6000803e3d6000fd5b505050505050611a386001600055565b60038160818110611ed257600080fd5b0154905081565b6086546001600160a01b03163314611f04576040516330cd747160e01b815260040160405180910390fd5b6088805460ff19166001179055565b611f1b6128a2565b60885460ff1615611f3f5760405163a62baeb760e01b815260040160405180910390fd5b6000610e10611f516201518042613a43565b611f5b9190613a57565b9050600e811080611f6d575060108110155b15611f8b5760405163cc1de8d960e01b815260040160405180910390fd5b6085546001600160a01b03163314611fb657604051632d99bc8360e21b815260040160405180910390fd5b81611fd45760405163666b0c5d60e01b815260040160405180910390fd5b476000819003611ff7576040516365e52d5160e11b815260040160405180910390fd5b60405163cd6f4eb160e01b8152600481018490526108009063cd6f4eb19083906024016000604051808303818588803b15801561203357600080fd5b505af1158015612047573d6000803e3d6000fd5b5050505050505061127d6001600055565b6120606128a2565b6086546001600160a01b0316331461208b576040516330cd747160e01b815260040160405180910390fd5b868584146120ac5760405163512509d360e11b815260040160405180910390fd5b60005b818110156122575760008a8a838181106120cb576120cb6133c7565b9050602002013590506120fa818686858181106120ea576120ea6133c7565b905060200201358b8b8b8b6128ff565b1561224e57600060038260818110612114576121146133c7565b0154111561224e57600061080563e3b598fa8b8b86818110612138576121386133c7565b905060200201358a8a87818110612151576121516133c7565b6040516001600160e01b031960e087901b1681526004810194909452602002919091013560248301525060448101859052606401602060405180830381865afa1580156121a2573d6000803e3d6000fd5b505050506040513d601f19601f820116820180604052508101906121c691906133dd565b604051632d67f0b960e01b8152600481018490526024810182905290915073d689d29f7ea0c511f4dde84171b10d34078bb17c90632d67f0b990604401600060405180830381600087803b15801561221d57600080fd5b505af1158015612231573d6000803e3d6000fd5b5050505060006003836081811061224a5761224a6133c7565b0155505b506001016120af565b50506122636001600055565b5050505050505050565b6122756128a2565b60885460ff16156122995760405163a62baeb760e01b815260040160405180910390fd5b6086546001600160a01b031633146122c4576040516330cd747160e01b815260040160405180910390fd5b6001600160a01b0382166122eb5760405163e6c4247b60e01b815260040160405180910390fd5b8060000361230c576040516365e52d5160e11b815260040160405180910390fd5b670de0b6b3a764000081111561233557604051630625040160e01b815260040160405180910390fd5b61a8c060875461234591906133f6565b4210156123655760405163034932ef60e51b815260040160405180910390fd5b426087556040516000906001600160a01b0384169083908381818185875af1925050503d80600081146123b4576040519150601f19603f3d011682016040523d82523d6000602084013e6123b9565b606091505b50509050806123db576040516312171d8360e31b815260040160405180910390fd5b50611a386001600055565b6085546001600160a01b0316331461241157604051632d99bc8360e21b815260040160405180910390fd5b6088805460ff19169055565b6124256128a2565b6086546001600160a01b0316331480159061244b57506085546001600160a01b03163314155b1561246957604051630b4a87e760e11b815260040160405180910390fd5b47600081900361248c576040516365e52d5160e11b815260040160405180910390fd5b610805631fc9b141600080516020613a968339815191526124b1633b9aca0085613a57565b6040516001600160e01b031960e085901b1681526004810192909252602482015260006044820152606401600060405180830381600087803b1580156124f657600080fd5b505af115801561250a573d6000803e3d6000fd5b50505050506116656001600055565b6125216128a2565b6085546001600160a01b0316331461254c57604051632d99bc8360e21b815260040160405180910390fd5b6001600160a01b0382166125735760405163e6c4247b60e01b815260040160405180910390fd5b806125915760405163666b0c5d60e01b815260040160405180910390fd5b60405163f4f1726b60e01b81526001600160a01b03831660048201526024810182905273d689d29f7ea0c511f4dde84171b10d34078bb17c9063f4f1726b90604401600060405180830381600087803b1580156125ed57600080fd5b505af1158015612601573d6000803e3d6000fd5b50505050611a386001600055565b6086546001600160a01b0316331461263a576040516330cd747160e01b815260040160405180910390fd5b806126585760405163666b0c5d60e01b815260040160405180910390fd5b600255565b6126656128a2565b60885460ff16156126895760405163a62baeb760e01b815260040160405180910390fd5b6000610e1061269b6201518042613a43565b6126a59190613a57565b9050600e8110806126b7575060108110155b156126d55760405163cc1de8d960e01b815260040160405180910390fd5b6085546001600160a01b0316331461270057604051632d99bc8360e21b815260040160405180910390fd5b6001600160a01b0382166127275760405163e6c4247b60e01b815260040160405180910390fd5b47600081900361274a576040516365e52d5160e11b815260040160405180910390fd5b6000836001600160a01b03168260405160006040518083038185875af1925050503d8060008114612797576040519150601f19603f3d011682016040523d82523d6000602084013e61279c565b606091505b50509050806127be576040516312171d8360e31b815260040160405180910390fd5b50505061127d6001600055565b60008084815b818110156128955761080563e3b598fa8989848181106127f3576127f36133c7565b9050602002013588888581811061280c5761280c6133c7565b6040516001600160e01b031960e087901b16815260048101949094526020029190910135602483015250604481018c9052606401602060405180830381865afa15801561285d573d6000803e3d6000fd5b505050506040513d601f19601f8201168201806040525081019061288191906133dd565b61288b90846133f6565b92506001016127d1565b5090979650505050505050565b6002600054036128f85760405162461bcd60e51b815260206004820152601f60248201527f5265656e7472616e637947756172643a207265656e7472616e742063616c6c00604482015260640160405180910390fd5b6002600055565b600083815b818110156129ce578761080563e3b598fa898985818110612927576129276133c7565b90506020020135888886818110612940576129406133c7565b6040516001600160e01b031960e087901b16815260048101949094526020029190910135602483015250604481018d9052606401602060405180830381865afa158015612991573d6000803e3d6000fd5b505050506040513d601f19601f820116820180604052508101906129b591906133dd565b11156129c6576001925050506129d5565b600101612904565b5060009150505b9695505050505050565b6129e7612d3b565b60005b608161ffff82161015612a7f576040516369e38bc360e01b815261ffff82166004820152610808906369e38bc390602401602060405180830381865afa925050508015612a54575060408051601f3d908101601f19168201909252612a51918101906133dd565b60015b15612a775780838361ffff1660818110612a7057612a706133c7565b6020020152505b6001016129ea565b5090565b612a8b612d3b565b60005b608161ffff82161015612a7f57604051632d9bfc7160e01b815261ffff8216600482015261080890632d9bfc7190602401602060405180830381865afa925050508015612af8575060408051601f3d908101601f19168201909252612af591810190613a6b565b60015b15612b2a5780838361ffff1660818110612b1457612b146133c7565b67ffffffffffffffff9092166020929092020152505b600101612a8e565b612b3a612d3b565b60005b608161ffff82161015612a7f5760405163c2ba9e8760e01b815261ffff821660048201526108089063c2ba9e8790602401602060405180830381865afa925050508015612ba7575060408051601f3d908101601f19168201909252612ba491810190613a6b565b60015b15612bd95780838361ffff1660818110612bc357612bc36133c7565b67ffffffffffffffff9092166020929092020152505b600101612b3d565b612be9612d3b565b60015b6081811015612c84576040516371dacc7d60e11b81526004810185905260248101849052604481018290526108059063e3b598fa90606401602060405180830381865afa158015612c41573d6000803e3d6000fd5b505050506040513d601f19601f82011682018060405250810190612c6591906133dd565b828260818110612c7757612c776133c7565b6020020152600101612bec565b5092915050565b60018054606091908067ffffffffffffffff811115612cac57612cac6133b1565b604051908082528060200260200182016040528015612cd5578160200160208202803683370190505b50925060005b81811015612d3557828181548110612cf557612cf56133c7565b60009182526020909120015484516001600160a01b039091163190859083908110612d2257612d226133c7565b6020908102919091010152600101612cdb565b50505090565b6040518061102001604052806081906020820280368337509192915050565b828054828255906000526020600020908101928215612dad579160200282015b82811115612dad5781546001600160a01b0319166001600160a01b03843516178255602090920191600190910190612d7a565b50612a7f929150612e59565b82805482825590600052602060002090601f01602090048101928215612dad5791602002820160005b83821115612e2357833560ff1683826101000a81548160ff021916908360ff1602179055509260200192600101602081600001049283019260010302612de2565b8015612e505782816101000a81549060ff0219169055600101602081600001049283019260010302612e23565b5050612a7f9291505b5b80821115612a7f5760008155600101612e5a565b60008083601f840112612e8057600080fd5b50813567ffffffffffffffff811115612e9857600080fd5b6020830191508360208260051b8501011115612eb357600080fd5b9250929050565b60008060008060008060608789031215612ed357600080fd5b863567ffffffffffffffff80821115612eeb57600080fd5b612ef78a838b01612e6e565b90985096506020890135915080821115612f1057600080fd5b612f1c8a838b01612e6e565b90965094506040890135915080821115612f3557600080fd5b50612f4289828a01612e6e565b979a9699509497509295939492505050565b60008151808452602080850194506020840160005b83811015612f8557815187529582019590820190600101612f69565b509495945050505050565b602081526000612fa36020830184612f54565b9392505050565b80356001600160a01b0381168114612fc157600080fd5b919050565b600060208284031215612fd857600080fd5b612fa382612faa565b60008060008060408587031215612ff757600080fd5b843567ffffffffffffffff8082111561300f57600080fd5b61301b88838901612e6e565b9096509450602087013591508082111561303457600080fd5b5061304187828801612e6e565b95989497509550505050565b80358015158114612fc157600080fd5b600080600080600080600080600080600060c08c8e03121561307e57600080fd5b67ffffffffffffffff808d35111561309557600080fd5b6130a28e8e358f01612e6e565b909c509a5060208d01358110156130b857600080fd5b6130c88e60208f01358f01612e6e565b909a50985060408d01358110156130de57600080fd5b6130ee8e60408f01358f01612e6e565b909850965060608d013581101561310457600080fd5b6131148e60608f01358f01612e6e565b909650945060808d013581101561312a57600080fd5b5061313b8d60808e01358e01612e6e565b909350915061314c60a08d0161304d565b90509295989b509295989b9093969950565b8060005b60818110156118c7578151845260209384019390910190600101613162565b6110208101613190828461315e565b92915050565b8060005b60818110156118c757815167ffffffffffffffff1684526020938401939091019060010161319a565b60006151006131d2838c61315e565b6131e061102084018b613196565b6131ee61204084018a613196565b6131fc61306084018961315e565b61320a61408084018861315e565b806150a084015261321d81840187612f54565b6150c084019590955250506150e001529695505050505050565b60006020828403121561324957600080fd5b5035919050565b6000806040838503121561326357600080fd5b61326c83612faa565b946020939093013593505050565b6000806020838503121561328d57600080fd5b823567ffffffffffffffff8111156132a457600080fd5b6132b085828601612e6e565b90969095509350505050565b61102081016131908284613196565b600080604083850312156132de57600080fd5b50508035926020909101359150565b6000806000806000806000806080898b03121561330957600080fd5b883567ffffffffffffffff8082111561332157600080fd5b61332d8c838d01612e6e565b909a50985060208b013591508082111561334657600080fd5b6133528c838d01612e6e565b909850965060408b013591508082111561336b57600080fd5b6133778c838d01612e6e565b909650945060608b013591508082111561339057600080fd5b5061339d8b828c01612e6e565b999c989b5096995094979396929594505050565b634e487b7160e01b600052604160045260246000fd5b634e487b7160e01b600052603260045260246000fd5b6000602082840312156133ef57600080fd5b5051919050565b8082018082111561319057634e487b7160e01b600052601160045260246000fd5b60006060820185835260206060818501528186518084526080935060808601915082880160005b8281101561345d57815160ff168452928401929084019060010161343e565b5050506040858203604087015281875461347b818590815260200190565b60008a81526020812095509092505b81601f820110156136e557845460ff8082168552600882901c811688860152601082901c811686860152601882901c8116606086015281881c811689860152602882901c811660a08087019190915260c06134ee818801848660301c1660ff169052565b60e0613503818901858760381c1660ff169052565b60ff858a1c8516166101008901526135266101208901858760481c1660ff169052565b61353b6101408901858760501c1660ff169052565b6135506101608901858760581c1660ff169052565b6135656101808901858760601c1660ff169052565b61357a6101a08901858760681c1660ff169052565b61358f6101c08901858760701c1660ff169052565b6135a46101e08901858760781c1660ff169052565b60ff858d1c8516166102008901526135c76102208901858760881c1660ff169052565b6135dc6102408901858760901c1660ff169052565b6135f16102608901858760981c1660ff169052565b60ff85841c8516166102808901526136146102a08901858760a81c1660ff169052565b6136296102c08901858760b01c1660ff169052565b61363e6102e08901858760b81c1660ff169052565b60ff85831c8516166103008901526136616103208901858760c81c1660ff169052565b6136766103408901858760d01c1660ff169052565b61368b6103608901858760d81c1660ff169052565b60ff85821c8516166103808901525050506136b16103a08601828460e81c1660ff169052565b6136c66103c08601828460f01c1660ff169052565b5060f81c6103e08401526001949094019361040090920191850161348a565b84549650818110156136ff5760ff87168352918501916001015b8181101561371957600887901c60ff168352918501916001015b8181101561373357601087901c60ff168352918501916001015b8181101561374d57601887901c60ff168352918501916001015b818110156137655786861c60ff168352918501916001015b8181101561377f57602887901c60ff168352918501916001015b8181101561379957603087901c60ff168352918501916001015b818110156137b357603887901c60ff168352918501916001015b818110156137cd57604087901c60ff168352918501916001015b818110156137e757604887901c60ff168352918501916001015b8181101561380157605087901c60ff168352918501916001015b8181101561381b57605887901c60ff168352918501916001015b8181101561383557606087901c60ff168352918501916001015b8181101561384f57606887901c60ff168352918501916001015b8181101561386957607087901c60ff168352918501916001015b8181101561388357607887901c60ff168352918501916001015b8181101561389d57608087901c60ff168352918501916001015b818110156138b757608887901c60ff168352918501916001015b818110156138d157609087901c60ff168352918501916001015b818110156138eb57609887901c60ff168352918501916001015b818110156139055760a087901c60ff168352918501916001015b8181101561391f5760a887901c60ff168352918501916001015b818110156139395760b087901c60ff168352918501916001015b818110156139535760b887901c60ff168352918501916001015b8181101561396d5760c087901c60ff168352918501916001015b818110156139875760c887901c60ff168352918501916001015b818110156139a15760d087901c60ff168352918501916001015b818110156139bb5760d887901c60ff168352918501916001015b818110156139d55760e087901c60ff168352918501916001015b818110156139ef5760e887901c60ff168352918501916001015b81811015613a095760f087901c60ff168352918501916001015b81811015613a1d5760f887901c8352918501915b50909a9950505050505050505050565b634e487b7160e01b600052601260045260246000fd5b600082613a5257613a52613a2d565b500690565b600082613a6657613a66613a2d565b500490565b600060208284031215613a7d57600080fd5b815167ffffffffffffffff81168114612fa357600080fdfeb4c087119097fbe3985298eef52f35ef6271c48322a8c2d430902a9cc38d94735bc73267f9990b1554109dc41e624a7dab56b1128f1ef2f62f6314294c038f9da2646970667358221220d1d33e9035f01100b1a4037372f3f9a873da778712272bea416e1da3abbf21c764736f6c63430008160033","opcodes":"PUSH1 0x80 PUSH1 0x40 MSTORE CALLVALUE DUP1 ISZERO PUSH2 0x10 JUMPI PUSH1 0x0 DUP1 REVERT JUMPDEST POP PUSH1 0x1 PUSH1 0x0 SSTORE PUSH1 0x85 DUP1 SLOAD PUSH1 0x1 PUSH1 0x1 PUSH1 0xA0 SHL SUB NOT SWAP1 DUP2 AND CALLER SWAP1 DUP2 OR SWAP1 SWAP3 SSTORE PUSH1 0x86 DUP1 SLOAD SWAP1 SWAP2 AND SWAP1 SWAP2 OR SWAP1 SSTORE PUSH2 0x3B0B DUP1 PUSH2 0x48 PUSH1 0x0 CODECOPY PUSH1 0x0 RETURN INVALID PUSH1 0x80 PUSH1 0x40 MSTORE PUSH1 0x4 CALLDATASIZE LT PUSH2 0x23F JUMPI PUSH1 0x0 CALLDATALOAD PUSH1 0xE0 SHR DUP1 PUSH4 0x9D2736CC GT PUSH2 0x12E JUMPI DUP1 PUSH4 0xC3A97FC9 GT PUSH2 0xAB JUMPI DUP1 PUSH4 0xE2157244 GT PUSH2 0x6F JUMPI DUP1 PUSH4 0xE2157244 EQ PUSH2 0x6EC JUMPI DUP1 PUSH4 0xE8D23D2A EQ PUSH2 0x701 JUMPI DUP1 PUSH4 0xF4F1726B EQ PUSH2 0x716 JUMPI DUP1 PUSH4 0xF9036F02 EQ PUSH2 0x736 JUMPI DUP1 PUSH4 0xFA09E630 EQ PUSH2 0x756 JUMPI PUSH2 0x246 JUMP JUMPDEST DUP1 PUSH4 0xC3A97FC9 EQ PUSH2 0x64A JUMPI DUP1 PUSH4 0xC6C4A86F EQ PUSH2 0x66A JUMPI DUP1 PUSH4 0xC74DB335 EQ PUSH2 0x68C JUMPI DUP1 PUSH4 0xCDC18424 EQ PUSH2 0x6AC JUMPI DUP1 PUSH4 0xD7D31AE3 EQ PUSH2 0x6CC JUMPI PUSH2 0x246 JUMP JUMPDEST DUP1 PUSH4 0xA8C2BB0D GT PUSH2 0xF2 JUMPI DUP1 PUSH4 0xA8C2BB0D EQ PUSH2 0x5CB JUMPI DUP1 PUSH4 0xBC28D5D0 EQ PUSH2 0x5E0 JUMPI DUP1 PUSH4 0xBC3FD048 EQ PUSH2 0x5F5 JUMPI DUP1 PUSH4 0xBC499128 EQ PUSH2 0x615 JUMPI DUP1 PUSH4 0xBE7B5A64 EQ PUSH2 0x635 JUMPI PUSH2 0x246 JUMP JUMPDEST DUP1 PUSH4 0x9D2736CC EQ PUSH2 0x529 JUMPI DUP1 PUSH4 0x9E6EB20B EQ PUSH2 0x549 JUMPI DUP1 PUSH4 0xA3845522 EQ PUSH2 0x56B JUMPI DUP1 PUSH4 0xA7678775 EQ PUSH2 0x58B JUMPI DUP1 PUSH4 0xA83ED0C1 EQ PUSH2 0x5AB JUMPI PUSH2 0x246 JUMP JUMPDEST DUP1 PUSH4 0x58C0B896 GT PUSH2 0x1BC JUMPI DUP1 PUSH4 0x8799111F GT PUSH2 0x180 JUMPI DUP1 PUSH4 0x8799111F EQ PUSH2 0x486 JUMPI DUP1 PUSH4 0x892208C5 EQ PUSH2 0x4A6 JUMPI DUP1 PUSH4 0x8DA5CB5B EQ PUSH2 0x4BB JUMPI DUP1 PUSH4 0x947D3C3F EQ PUSH2 0x4F3 JUMPI DUP1 PUSH4 0x987D0E59 EQ PUSH2 0x509 JUMPI PUSH2 0x246 JUMP JUMPDEST DUP1 PUSH4 0x58C0B896 EQ PUSH2 0x3FB JUMPI DUP1 PUSH4 0x61461954 EQ PUSH2 0x41B JUMPI DUP1 PUSH4 0x646E569B EQ PUSH2 0x430 JUMPI DUP1 PUSH4 0x64EE6AEC EQ PUSH2 0x450 JUMPI DUP1 PUSH4 0x7E11CA0A EQ PUSH2 0x466 JUMPI PUSH2 0x246 JUMP JUMPDEST DUP1 PUSH4 0x26A224E0 GT PUSH2 0x203 JUMPI DUP1 PUSH4 0x26A224E0 EQ PUSH2 0x327 JUMPI DUP1 PUSH4 0x276EF789 EQ PUSH2 0x354 JUMPI DUP1 PUSH4 0x3004C502 EQ PUSH2 0x37D JUMPI DUP1 PUSH4 0x3383DFE5 EQ PUSH2 0x39D JUMPI DUP1 PUSH4 0x565DEA95 EQ PUSH2 0x3C7 JUMPI PUSH2 0x246 JUMP JUMPDEST DUP1 PUSH4 0xD16AB81 EQ PUSH2 0x25F JUMPI DUP1 PUSH4 0xD174C24 EQ PUSH2 0x295 JUMPI DUP1 PUSH4 0x13CD4940 EQ PUSH2 0x2B7 JUMPI DUP1 PUSH4 0x1881D708 EQ PUSH2 0x2E7 JUMPI DUP1 PUSH4 0x1F20FF4C EQ PUSH2 0x307 JUMPI PUSH2 0x246 JUMP JUMPDEST CALLDATASIZE PUSH2 0x246 JUMPI STOP JUMPDEST PUSH1 0x40 MLOAD PUSH4 0x201F3FD3 PUSH1 0xE1 SHL DUP2 MSTORE PUSH1 0x4 ADD PUSH1 0x40 MLOAD DUP1 SWAP2 SUB SWAP1 REVERT JUMPDEST CALLVALUE DUP1 ISZERO PUSH2 0x26B JUMPI PUSH1 0x0 DUP1 REVERT JUMPDEST POP PUSH2 0x27F PUSH2 0x27A CALLDATASIZE PUSH1 0x4 PUSH2 0x2EBA JUMP JUMPDEST PUSH2 0x776 JUMP JUMPDEST PUSH1 0x40 MLOAD PUSH2 0x28C SWAP2 SWAP1 PUSH2 0x2F90 JUMP JUMPDEST PUSH1 0x40 MLOAD DUP1 SWAP2 SUB SWAP1 RETURN JUMPDEST CALLVALUE DUP1 ISZERO PUSH2 0x2A1 JUMPI PUSH1 0x0 DUP1 REVERT JUMPDEST POP PUSH2 0x2B5 PUSH2 0x2B0 CALLDATASIZE PUSH1 0x4 PUSH2 0x2FC6 JUMP JUMPDEST PUSH2 0x83F JUMP JUMPDEST STOP JUMPDEST CALLVALUE DUP1 ISZERO PUSH2 0x2C3 JUMPI PUSH1 0x0 DUP1 REVERT JUMPDEST POP PUSH2 0x2D9 PUSH1 0x0 DUP1 MLOAD PUSH1 0x20 PUSH2 0x3AB6 DUP4 CODECOPY DUP2 MLOAD SWAP2 MSTORE DUP2 JUMP JUMPDEST PUSH1 0x40 MLOAD SWAP1 DUP2 MSTORE PUSH1 0x20 ADD PUSH2 0x28C JUMP JUMPDEST CALLVALUE DUP1 ISZERO PUSH2 0x2F3 JUMPI PUSH1 0x0 DUP1 REVERT JUMPDEST POP PUSH2 0x2B5 PUSH2 0x302 CALLDATASIZE PUSH1 0x4 PUSH2 0x2FE1 JUMP JUMPDEST PUSH2 0x8B3 JUMP JUMPDEST CALLVALUE DUP1 ISZERO PUSH2 0x313 JUMPI PUSH1 0x0 DUP1 REVERT JUMPDEST POP PUSH2 0x2B5 PUSH2 0x322 CALLDATASIZE PUSH1 0x4 PUSH2 0x305D JUMP JUMPDEST PUSH2 0x960 JUMP JUMPDEST CALLVALUE DUP1 ISZERO PUSH2 0x333 JUMPI PUSH1 0x0 DUP1 REVERT JUMPDEST POP PUSH2 0x347 PUSH2 0x342 CALLDATASIZE PUSH1 0x4 PUSH2 0x2FE1 JUMP JUMPDEST PUSH2 0xC71 JUMP JUMPDEST PUSH1 0x40 MLOAD PUSH2 0x28C SWAP2 SWAP1 PUSH2 0x3181 JUMP JUMPDEST CALLVALUE DUP1 ISZERO PUSH2 0x360 JUMPI PUSH1 0x0 DUP1 REVERT JUMPDEST POP PUSH2 0x369 PUSH2 0xDA5 JUMP JUMPDEST PUSH1 0x40 MLOAD PUSH2 0x28C SWAP9 SWAP8 SWAP7 SWAP6 SWAP5 SWAP4 SWAP3 SWAP2 SWAP1 PUSH2 0x31C3 JUMP JUMPDEST CALLVALUE DUP1 ISZERO PUSH2 0x389 JUMPI PUSH1 0x0 DUP1 REVERT JUMPDEST POP PUSH2 0x2B5 PUSH2 0x398 CALLDATASIZE PUSH1 0x4 PUSH2 0x2EBA JUMP JUMPDEST PUSH2 0xEF8 JUMP JUMPDEST CALLVALUE DUP1 ISZERO PUSH2 0x3A9 JUMPI PUSH1 0x0 DUP1 REVERT JUMPDEST POP PUSH1 0x88 SLOAD PUSH2 0x3B7 SWAP1 PUSH1 0xFF AND DUP2 JUMP JUMPDEST PUSH1 0x40 MLOAD SWAP1 ISZERO ISZERO DUP2 MSTORE PUSH1 0x20 ADD PUSH2 0x28C JUMP JUMPDEST CALLVALUE DUP1 ISZERO PUSH2 0x3D3 JUMPI PUSH1 0x0 DUP1 REVERT JUMPDEST POP PUSH2 0x2D9 PUSH32 0x2636AD834CD47318572033620D50377260A54FC64E5F150896186B2BAFDA7454 DUP2 JUMP JUMPDEST CALLVALUE DUP1 ISZERO PUSH2 0x407 JUMPI PUSH1 0x0 DUP1 REVERT JUMPDEST POP PUSH2 0x2B5 PUSH2 0x416 CALLDATASIZE PUSH1 0x4 PUSH2 0x3237 JUMP JUMPDEST PUSH2 0x11B8 JUMP JUMPDEST CALLVALUE DUP1 ISZERO PUSH2 0x427 JUMPI PUSH1 0x0 DUP1 REVERT JUMPDEST POP PUSH2 0x2B5 PUSH2 0x1280 JUMP JUMPDEST CALLVALUE DUP1 ISZERO PUSH2 0x43C JUMPI PUSH1 0x0 DUP1 REVERT JUMPDEST POP PUSH2 0x2B5 PUSH2 0x44B CALLDATASIZE PUSH1 0x4 PUSH2 0x2FE1 JUMP JUMPDEST PUSH2 0x1667 JUMP JUMPDEST CALLVALUE DUP1 ISZERO PUSH2 0x45C JUMPI PUSH1 0x0 DUP1 REVERT JUMPDEST POP PUSH2 0x2D9 PUSH1 0x87 SLOAD DUP2 JUMP JUMPDEST CALLVALUE DUP1 ISZERO PUSH2 0x472 JUMPI PUSH1 0x0 DUP1 REVERT JUMPDEST POP PUSH2 0x2B5 PUSH2 0x481 CALLDATASIZE PUSH1 0x4 PUSH2 0x3250 JUMP JUMPDEST PUSH2 0x18CD JUMP JUMPDEST CALLVALUE DUP1 ISZERO PUSH2 0x492 JUMPI PUSH1 0x0 DUP1 REVERT JUMPDEST POP PUSH2 0x2B5 PUSH2 0x4A1 CALLDATASIZE PUSH1 0x4 PUSH2 0x3237 JUMP JUMPDEST PUSH2 0x1A3C JUMP JUMPDEST CALLVALUE DUP1 ISZERO PUSH2 0x4B2 JUMPI PUSH1 0x0 DUP1 REVERT JUMPDEST POP PUSH2 0x2B5 PUSH2 0x1AC9 JUMP JUMPDEST CALLVALUE DUP1 ISZERO PUSH2 0x4C7 JUMPI PUSH1 0x0 DUP1 REVERT JUMPDEST POP PUSH1 0x86 SLOAD PUSH2 0x4DB SWAP1 PUSH1 0x1 PUSH1 0x1 PUSH1 0xA0 SHL SUB AND DUP2 JUMP JUMPDEST PUSH1 0x40 MLOAD PUSH1 0x1 PUSH1 0x1 PUSH1 0xA0 SHL SUB SWAP1 SWAP2 AND DUP2 MSTORE PUSH1 0x20 ADD PUSH2 0x28C JUMP JUMPDEST CALLVALUE DUP1 ISZERO PUSH2 0x4FF JUMPI PUSH1 0x0 DUP1 REVERT JUMPDEST POP PUSH2 0x2D9 PUSH1 0x2 SLOAD DUP2 JUMP JUMPDEST CALLVALUE DUP1 ISZERO PUSH2 0x515 JUMPI PUSH1 0x0 DUP1 REVERT JUMPDEST POP PUSH2 0x2B5 PUSH2 0x524 CALLDATASIZE PUSH1 0x4 PUSH2 0x327A JUMP JUMPDEST PUSH2 0x1B86 JUMP JUMPDEST CALLVALUE DUP1 ISZERO PUSH2 0x535 JUMPI PUSH1 0x0 DUP1 REVERT JUMPDEST POP PUSH2 0x2B5 PUSH2 0x544 CALLDATASIZE PUSH1 0x4 PUSH2 0x3237 JUMP JUMPDEST PUSH2 0x1BC2 JUMP JUMPDEST CALLVALUE DUP1 ISZERO PUSH2 0x555 JUMPI PUSH1 0x0 DUP1 REVERT JUMPDEST POP PUSH2 0x55E PUSH2 0x1C64 JUMP JUMPDEST PUSH1 0x40 MLOAD PUSH2 0x28C SWAP2 SWAP1 PUSH2 0x32BC JUMP JUMPDEST CALLVALUE DUP1 ISZERO PUSH2 0x577 JUMPI PUSH1 0x0 DUP1 REVERT JUMPDEST POP PUSH2 0x2B5 PUSH2 0x586 CALLDATASIZE PUSH1 0x4 PUSH2 0x327A JUMP JUMPDEST PUSH2 0x1C79 JUMP JUMPDEST CALLVALUE DUP1 ISZERO PUSH2 0x597 JUMPI PUSH1 0x0 DUP1 REVERT JUMPDEST POP PUSH2 0x4DB PUSH2 0x5A6 CALLDATASIZE PUSH1 0x4 PUSH2 0x3237 JUMP JUMPDEST PUSH2 0x1CB0 JUMP JUMPDEST CALLVALUE DUP1 ISZERO PUSH2 0x5B7 JUMPI PUSH1 0x0 DUP1 REVERT JUMPDEST POP PUSH2 0x2B5 PUSH2 0x5C6 CALLDATASIZE PUSH1 0x4 PUSH2 0x3237 JUMP JUMPDEST PUSH2 0x1CDA JUMP JUMPDEST CALLVALUE DUP1 ISZERO PUSH2 0x5D7 JUMPI PUSH1 0x0 DUP1 REVERT JUMPDEST POP PUSH2 0x55E PUSH2 0x1D60 JUMP JUMPDEST CALLVALUE DUP1 ISZERO PUSH2 0x5EC JUMPI PUSH1 0x0 DUP1 REVERT JUMPDEST POP PUSH2 0x347 PUSH2 0x1D70 JUMP JUMPDEST CALLVALUE DUP1 ISZERO PUSH2 0x601 JUMPI PUSH1 0x0 DUP1 REVERT JUMPDEST POP PUSH2 0x2B5 PUSH2 0x610 CALLDATASIZE PUSH1 0x4 PUSH2 0x32CB JUMP JUMPDEST PUSH2 0x1D80 JUMP JUMPDEST CALLVALUE DUP1 ISZERO PUSH2 0x621 JUMPI PUSH1 0x0 DUP1 REVERT JUMPDEST POP PUSH2 0x2D9 PUSH2 0x630 CALLDATASIZE PUSH1 0x4 PUSH2 0x3237 JUMP JUMPDEST PUSH2 0x1EC2 JUMP JUMPDEST CALLVALUE DUP1 ISZERO PUSH2 0x641 JUMPI PUSH1 0x0 DUP1 REVERT JUMPDEST POP PUSH2 0x2B5 PUSH2 0x1ED9 JUMP JUMPDEST CALLVALUE DUP1 ISZERO PUSH2 0x656 JUMPI PUSH1 0x0 DUP1 REVERT JUMPDEST POP PUSH2 0x2B5 PUSH2 0x665 CALLDATASIZE PUSH1 0x4 PUSH2 0x3237 JUMP JUMPDEST PUSH2 0x1F13 JUMP JUMPDEST CALLVALUE DUP1 ISZERO PUSH2 0x676 JUMPI PUSH1 0x0 DUP1 REVERT JUMPDEST POP PUSH2 0x2D9 PUSH1 0x0 DUP1 MLOAD PUSH1 0x20 PUSH2 0x3A96 DUP4 CODECOPY DUP2 MLOAD SWAP2 MSTORE DUP2 JUMP JUMPDEST CALLVALUE DUP1 ISZERO PUSH2 0x698 JUMPI PUSH1 0x0 DUP1 REVERT JUMPDEST POP PUSH2 0x2B5 PUSH2 0x6A7 CALLDATASIZE PUSH1 0x4 PUSH2 0x32ED JUMP JUMPDEST PUSH2 0x2058 JUMP JUMPDEST CALLVALUE DUP1 ISZERO PUSH2 0x6B8 JUMPI PUSH1 0x0 DUP1 REVERT JUMPDEST POP PUSH1 0x85 SLOAD PUSH2 0x4DB SWAP1 PUSH1 0x1 PUSH1 0x1 PUSH1 0xA0 SHL SUB AND DUP2 JUMP JUMPDEST CALLVALUE DUP1 ISZERO PUSH2 0x6D8 JUMPI PUSH1 0x0 DUP1 REVERT JUMPDEST POP PUSH2 0x2B5 PUSH2 0x6E7 CALLDATASIZE PUSH1 0x4 PUSH2 0x3250 JUMP JUMPDEST PUSH2 0x226D JUMP JUMPDEST CALLVALUE DUP1 ISZERO PUSH2 0x6F8 JUMPI PUSH1 0x0 DUP1 REVERT JUMPDEST POP PUSH2 0x2B5 PUSH2 0x23E6 JUMP JUMPDEST CALLVALUE DUP1 ISZERO PUSH2 0x70D JUMPI PUSH1 0x0 DUP1 REVERT JUMPDEST POP PUSH2 0x2B5 PUSH2 0x241D JUMP JUMPDEST CALLVALUE DUP1 ISZERO PUSH2 0x722 JUMPI PUSH1 0x0 DUP1 REVERT JUMPDEST POP PUSH2 0x2B5 PUSH2 0x731 CALLDATASIZE PUSH1 0x4 PUSH2 0x3250 JUMP JUMPDEST PUSH2 0x2519 JUMP JUMPDEST CALLVALUE DUP1 ISZERO PUSH2 0x742 JUMPI PUSH1 0x0 DUP1 REVERT JUMPDEST POP PUSH2 0x2B5 PUSH2 0x751 CALLDATASIZE PUSH1 0x4 PUSH2 0x3237 JUMP JUMPDEST PUSH2 0x260F JUMP JUMPDEST CALLVALUE DUP1 ISZERO PUSH2 0x762 JUMPI PUSH1 0x0 DUP1 REVERT JUMPDEST POP PUSH2 0x2B5 PUSH2 0x771 CALLDATASIZE PUSH1 0x4 PUSH2 0x2FC6 JUMP JUMPDEST PUSH2 0x265D JUMP JUMPDEST PUSH1 0x60 DUP6 DUP5 DUP4 EQ PUSH2 0x799 JUMPI PUSH1 0x40 MLOAD PUSH4 0x512509D3 PUSH1 0xE1 SHL DUP2 MSTORE PUSH1 0x4 ADD PUSH1 0x40 MLOAD DUP1 SWAP2 SUB SWAP1 REVERT JUMPDEST DUP1 PUSH8 0xFFFFFFFFFFFFFFFF DUP2 GT ISZERO PUSH2 0x7B2 JUMPI PUSH2 0x7B2 PUSH2 0x33B1 JUMP JUMPDEST PUSH1 0x40 MLOAD SWAP1 DUP1 DUP3 MSTORE DUP1 PUSH1 0x20 MUL PUSH1 0x20 ADD DUP3 ADD PUSH1 0x40 MSTORE DUP1 ISZERO PUSH2 0x7DB JUMPI DUP2 PUSH1 0x20 ADD PUSH1 0x20 DUP3 MUL DUP1 CALLDATASIZE DUP4 CALLDATACOPY ADD SWAP1 POP JUMPDEST POP SWAP2 POP PUSH1 0x0 JUMPDEST DUP2 DUP2 LT ISZERO PUSH2 0x833 JUMPI PUSH2 0x80E DUP10 DUP10 DUP4 DUP2 DUP2 LT PUSH2 0x7FE JUMPI PUSH2 0x7FE PUSH2 0x33C7 JUMP JUMPDEST SWAP1 POP PUSH1 0x20 MUL ADD CALLDATALOAD DUP9 DUP9 DUP9 DUP9 PUSH2 0x27CB JUMP JUMPDEST DUP4 DUP3 DUP2 MLOAD DUP2 LT PUSH2 0x820 JUMPI PUSH2 0x820 PUSH2 0x33C7 JUMP JUMPDEST PUSH1 0x20 SWAP1 DUP2 MUL SWAP2 SWAP1 SWAP2 ADD ADD MSTORE PUSH1 0x1 ADD PUSH2 0x7E1 JUMP JUMPDEST POP POP SWAP7 SWAP6 POP POP POP POP POP POP JUMP JUMPDEST PUSH1 0x85 SLOAD PUSH1 0x1 PUSH1 0x1 PUSH1 0xA0 SHL SUB AND CALLER EQ PUSH2 0x86A JUMPI PUSH1 0x40 MLOAD PUSH4 0x2D99BC83 PUSH1 0xE2 SHL DUP2 MSTORE PUSH1 0x4 ADD PUSH1 0x40 MLOAD DUP1 SWAP2 SUB SWAP1 REVERT JUMPDEST PUSH1 0x1 PUSH1 0x1 PUSH1 0xA0 SHL SUB DUP2 AND PUSH2 0x891 JUMPI PUSH1 0x40 MLOAD PUSH4 0xE6C4247B PUSH1 0xE0 SHL DUP2 MSTORE PUSH1 0x4 ADD PUSH1 0x40 MLOAD DUP1 SWAP2 SUB SWAP1 REVERT JUMPDEST PUSH1 0x85 DUP1 SLOAD PUSH1 0x1 PUSH1 0x1 PUSH1 0xA0 SHL SUB NOT AND PUSH1 0x1 PUSH1 0x1 PUSH1 0xA0 SHL SUB SWAP3 SWAP1 SWAP3 AND SWAP2 SWAP1 SWAP2 OR SWAP1 SSTORE JUMP JUMPDEST PUSH1 0x86 SLOAD PUSH1 0x1 PUSH1 0x1 PUSH1 0xA0 SHL SUB AND CALLER EQ PUSH2 0x8DE JUMPI PUSH1 0x40 MLOAD PUSH4 0x30CD7471 PUSH1 0xE0 SHL DUP2 MSTORE PUSH1 0x4 ADD PUSH1 0x40 MLOAD DUP1 SWAP2 SUB SWAP1 REVERT JUMPDEST DUP3 DUP2 DUP2 EQ PUSH2 0x8FF JUMPI PUSH1 0x40 MLOAD PUSH4 0x512509D3 PUSH1 0xE1 SHL DUP2 MSTORE PUSH1 0x4 ADD PUSH1 0x40 MLOAD DUP1 SWAP2 SUB SWAP1 REVERT JUMPDEST PUSH1 0x0 JUMPDEST DUP2 DUP2 LT ISZERO PUSH2 0x958 JUMPI DUP4 DUP4 DUP3 DUP2 DUP2 LT PUSH2 0x91C JUMPI PUSH2 0x91C PUSH2 0x33C7 JUMP JUMPDEST SWAP1 POP PUSH1 0x20 MUL ADD CALLDATALOAD PUSH1 0x3 DUP8 DUP8 DUP5 DUP2 DUP2 LT PUSH2 0x937 JUMPI PUSH2 0x937 PUSH2 0x33C7 JUMP JUMPDEST SWAP1 POP PUSH1 0x20 MUL ADD CALLDATALOAD PUSH1 0x81 DUP2 LT PUSH2 0x94E JUMPI PUSH2 0x94E PUSH2 0x33C7 JUMP JUMPDEST ADD SSTORE PUSH1 0x1 ADD PUSH2 0x902 JUMP JUMPDEST POP POP POP POP POP POP JUMP JUMPDEST PUSH2 0x968 PUSH2 0x28A2 JUMP JUMPDEST PUSH1 0x86 SLOAD PUSH1 0x1 PUSH1 0x1 PUSH1 0xA0 SHL SUB AND CALLER EQ PUSH2 0x993 JUMPI PUSH1 0x40 MLOAD PUSH4 0x30CD7471 PUSH1 0xE0 SHL DUP2 MSTORE PUSH1 0x4 ADD PUSH1 0x40 MLOAD DUP1 SWAP2 SUB SWAP1 REVERT JUMPDEST PUSH1 0x2 SLOAD DUP11 SWAP1 DUP10 DUP3 EQ PUSH2 0x9B8 JUMPI PUSH1 0x40 MLOAD PUSH4 0x512509D3 PUSH1 0xE1 SHL DUP2 MSTORE PUSH1 0x4 ADD PUSH1 0x40 MLOAD DUP1 SWAP2 SUB SWAP1 REVERT JUMPDEST DUP8 DUP7 EQ PUSH2 0x9D8 JUMPI PUSH1 0x40 MLOAD PUSH4 0x512509D3 PUSH1 0xE1 SHL DUP2 MSTORE PUSH1 0x4 ADD PUSH1 0x40 MLOAD DUP1 SWAP2 SUB SWAP1 REVERT JUMPDEST PUSH1 0x0 JUMPDEST DUP3 DUP2 LT ISZERO PUSH2 0xC56 JUMPI PUSH1 0x0 DUP15 DUP15 DUP4 DUP2 DUP2 LT PUSH2 0x9F7 JUMPI PUSH2 0x9F7 PUSH2 0x33C7 JUMP JUMPDEST SWAP1 POP PUSH1 0x20 MUL ADD CALLDATALOAD SWAP1 POP DUP5 DUP1 ISZERO PUSH2 0xA9A JUMPI POP PUSH1 0x40 MLOAD PUSH4 0x71DACC7D PUSH1 0xE1 SHL DUP2 MSTORE PUSH1 0x0 DUP1 MLOAD PUSH1 0x20 PUSH2 0x3A96 DUP4 CODECOPY DUP2 MLOAD SWAP2 MSTORE PUSH1 0x4 DUP3 ADD MSTORE PUSH1 0x0 DUP1 MLOAD PUSH1 0x20 PUSH2 0x3AB6 DUP4 CODECOPY DUP2 MLOAD SWAP2 MSTORE PUSH1 0x24 DUP3 ADD MSTORE PUSH1 0x44 DUP2 ADD DUP3 SWAP1 MSTORE PUSH4 0x3B9ACA00 SWAP1 PUSH2 0x805 SWAP1 PUSH4 0xE3B598FA SWAP1 PUSH1 0x64 ADD PUSH1 0x20 PUSH1 0x40 MLOAD DUP1 DUP4 SUB DUP2 DUP7 GAS STATICCALL ISZERO DUP1 ISZERO PUSH2 0xA74 JUMPI RETURNDATASIZE PUSH1 0x0 DUP1 RETURNDATACOPY RETURNDATASIZE PUSH1 0x0 REVERT JUMPDEST POP POP POP POP PUSH1 0x40 MLOAD RETURNDATASIZE PUSH1 0x1F NOT PUSH1 0x1F DUP3 ADD AND DUP3 ADD DUP1 PUSH1 0x40 MSTORE POP DUP2 ADD SWAP1 PUSH2 0xA98 SWAP2 SWAP1 PUSH2 0x33DD JUMP JUMPDEST GT JUMPDEST ISZERO PUSH2 0xAA8 JUMPI POP PUSH1 0x1 ADD PUSH2 0x9DB JUMP JUMPDEST PUSH2 0xACE DUP2 DUP9 DUP9 DUP6 DUP2 DUP2 LT PUSH2 0xABE JUMPI PUSH2 0xABE PUSH2 0x33C7 JUMP JUMPDEST SWAP1 POP PUSH1 0x20 MUL ADD CALLDATALOAD DUP14 DUP14 DUP14 DUP14 PUSH2 0x28FF JUMP JUMPDEST PUSH2 0xC4D JUMPI PUSH1 0x0 DUP14 DUP14 DUP5 DUP2 DUP2 LT PUSH2 0xAE6 JUMPI PUSH2 0xAE6 PUSH2 0x33C7 JUMP JUMPDEST PUSH1 0x40 MLOAD PUSH4 0x71DACC7D PUSH1 0xE1 SHL DUP2 MSTORE PUSH1 0x0 DUP1 MLOAD PUSH1 0x20 PUSH2 0x3A96 DUP4 CODECOPY DUP2 MLOAD SWAP2 MSTORE PUSH1 0x4 DUP3 ADD MSTORE PUSH1 0x24 DUP2 ADD DUP9 SWAP1 MSTORE PUSH1 0x0 PUSH1 0x44 DUP3 ADD DUP2 SWAP1 MSTORE PUSH1 0x20 SWAP3 SWAP1 SWAP3 MUL SWAP4 SWAP1 SWAP4 ADD CALLDATALOAD SWAP4 POP SWAP2 PUSH2 0x805 SWAP2 POP PUSH4 0xE3B598FA SWAP1 PUSH1 0x64 ADD PUSH1 0x20 PUSH1 0x40 MLOAD DUP1 DUP4 SUB DUP2 DUP7 GAS STATICCALL ISZERO DUP1 ISZERO PUSH2 0xB50 JUMPI RETURNDATASIZE PUSH1 0x0 DUP1 RETURNDATACOPY RETURNDATASIZE PUSH1 0x0 REVERT JUMPDEST POP POP POP POP PUSH1 0x40 MLOAD RETURNDATASIZE PUSH1 0x1F NOT PUSH1 0x1F DUP3 ADD AND DUP3 ADD DUP1 PUSH1 0x40 MSTORE POP DUP2 ADD SWAP1 PUSH2 0xB74 SWAP2 SWAP1 PUSH2 0x33DD JUMP JUMPDEST SWAP1 POP DUP2 DUP2 GT ISZERO PUSH2 0xB81 JUMPI POP DUP1 JUMPDEST PUSH4 0x1DCD6500 DUP2 LT ISZERO PUSH2 0xB98 JUMPI POP POP POP POP POP POP PUSH2 0xC5A JUMP JUMPDEST PUSH1 0x40 MLOAD PUSH4 0xBE72FB1 PUSH1 0xE1 SHL DUP2 MSTORE PUSH1 0x0 DUP1 MLOAD PUSH1 0x20 PUSH2 0x3AB6 DUP4 CODECOPY DUP2 MLOAD SWAP2 MSTORE PUSH1 0x4 DUP3 ADD MSTORE PUSH1 0x0 DUP1 MLOAD PUSH1 0x20 PUSH2 0x3A96 DUP4 CODECOPY DUP2 MLOAD SWAP2 MSTORE PUSH1 0x24 DUP3 ADD MSTORE PUSH1 0x0 PUSH1 0x44 DUP3 ADD MSTORE PUSH1 0x64 DUP2 ADD DUP5 SWAP1 MSTORE PUSH1 0x84 DUP2 ADD DUP3 SWAP1 MSTORE PUSH2 0x805 SWAP1 PUSH4 0x17CE5F62 SWAP1 PUSH1 0xA4 ADD PUSH1 0x0 PUSH1 0x40 MLOAD DUP1 DUP4 SUB DUP2 PUSH1 0x0 DUP8 DUP1 EXTCODESIZE ISZERO DUP1 ISZERO PUSH2 0xC09 JUMPI PUSH1 0x0 DUP1 REVERT JUMPDEST POP GAS CALL ISZERO DUP1 ISZERO PUSH2 0xC1D JUMPI RETURNDATASIZE PUSH1 0x0 DUP1 RETURNDATACOPY RETURNDATASIZE PUSH1 0x0 REVERT JUMPDEST POP POP POP POP DUP1 PUSH1 0x3 DUP5 PUSH1 0x81 DUP2 LT PUSH2 0xC35 JUMPI PUSH2 0xC35 PUSH2 0x33C7 JUMP JUMPDEST ADD PUSH1 0x0 DUP3 DUP3 SLOAD PUSH2 0xC45 SWAP2 SWAP1 PUSH2 0x33F6 JUMP JUMPDEST SWAP1 SWAP2 SSTORE POP POP POP POP JUMPDEST POP PUSH1 0x1 ADD PUSH2 0x9DB JUMP JUMPDEST POP POP POP JUMPDEST PUSH2 0xC64 PUSH1 0x1 PUSH1 0x0 SSTORE JUMP JUMPDEST POP POP POP POP POP POP POP POP POP POP POP JUMP JUMPDEST PUSH2 0xC79 PUSH2 0x2D3B JUMP JUMPDEST DUP4 DUP3 DUP2 EQ PUSH2 0xC9A JUMPI PUSH1 0x40 MLOAD PUSH4 0x512509D3 PUSH1 0xE1 SHL DUP2 MSTORE PUSH1 0x4 ADD PUSH1 0x40 MLOAD DUP1 SWAP2 SUB SWAP1 REVERT JUMPDEST PUSH1 0x0 JUMPDEST DUP2 DUP2 LT ISZERO PUSH2 0xD9B JUMPI PUSH1 0x0 DUP8 DUP8 DUP4 DUP2 DUP2 LT PUSH2 0xCB9 JUMPI PUSH2 0xCB9 PUSH2 0x33C7 JUMP JUMPDEST SWAP1 POP PUSH1 0x20 MUL ADD CALLDATALOAD SWAP1 POP PUSH1 0x0 DUP7 DUP7 DUP5 DUP2 DUP2 LT PUSH2 0xCD6 JUMPI PUSH2 0xCD6 PUSH2 0x33C7 JUMP JUMPDEST SWAP1 POP PUSH1 0x20 MUL ADD CALLDATALOAD SWAP1 POP PUSH1 0x0 PUSH1 0x1 SWAP1 POP JUMPDEST PUSH1 0x81 DUP2 LT ISZERO PUSH2 0xD8D JUMPI PUSH1 0x40 MLOAD PUSH4 0x71DACC7D PUSH1 0xE1 SHL DUP2 MSTORE PUSH1 0x4 DUP2 ADD DUP5 SWAP1 MSTORE PUSH1 0x24 DUP2 ADD DUP4 SWAP1 MSTORE PUSH1 0x44 DUP2 ADD DUP3 SWAP1 MSTORE PUSH2 0x805 SWAP1 PUSH4 0xE3B598FA SWAP1 PUSH1 0x64 ADD PUSH1 0x20 PUSH1 0x40 MLOAD DUP1 DUP4 SUB DUP2 DUP7 GAS STATICCALL ISZERO DUP1 ISZERO PUSH2 0xD3B JUMPI RETURNDATASIZE PUSH1 0x0 DUP1 RETURNDATACOPY RETURNDATASIZE PUSH1 0x0 REVERT JUMPDEST POP POP POP POP PUSH1 0x40 MLOAD RETURNDATASIZE PUSH1 0x1F NOT PUSH1 0x1F DUP3 ADD AND DUP3 ADD DUP1 PUSH1 0x40 MSTORE POP DUP2 ADD SWAP1 PUSH2 0xD5F SWAP2 SWAP1 PUSH2 0x33DD JUMP JUMPDEST DUP7 DUP3 PUSH1 0x81 DUP2 LT PUSH2 0xD71 JUMPI PUSH2 0xD71 PUSH2 0x33C7 JUMP JUMPDEST PUSH1 0x20 MUL ADD DUP2 DUP2 MLOAD PUSH2 0xD82 SWAP2 SWAP1 PUSH2 0x33F6 JUMP JUMPDEST SWAP1 MSTORE POP PUSH1 0x1 ADD PUSH2 0xCE6 JUMP JUMPDEST POP DUP3 PUSH1 0x1 ADD SWAP3 POP POP POP PUSH2 0xC9D JUMP JUMPDEST POP POP SWAP5 SWAP4 POP POP POP POP JUMP JUMPDEST PUSH2 0xDAD PUSH2 0x2D3B JUMP JUMPDEST PUSH2 0xDB5 PUSH2 0x2D3B JUMP JUMPDEST PUSH2 0xDBD PUSH2 0x2D3B JUMP JUMPDEST PUSH2 0xDC5 PUSH2 0x2D3B JUMP JUMPDEST PUSH2 0xDCD PUSH2 0x2D3B JUMP JUMPDEST PUSH1 0x60 PUSH1 0x0 DUP1 PUSH2 0xDDA PUSH2 0x29DF JUMP JUMPDEST SWAP8 POP PUSH2 0xDE4 PUSH2 0x2A83 JUMP JUMPDEST SWAP7 POP PUSH2 0xDEE PUSH2 0x2B32 JUMP JUMPDEST SWAP6 POP PUSH2 0xE16 PUSH1 0x0 DUP1 MLOAD PUSH1 0x20 PUSH2 0x3A96 DUP4 CODECOPY DUP2 MLOAD SWAP2 MSTORE PUSH1 0x0 DUP1 MLOAD PUSH1 0x20 PUSH2 0x3AB6 DUP4 CODECOPY DUP2 MLOAD SWAP2 MSTORE PUSH2 0x2BE1 JUMP JUMPDEST PUSH1 0x2 SLOAD PUSH1 0x40 MLOAD PUSH4 0x71DACC7D PUSH1 0xE1 SHL DUP2 MSTORE PUSH1 0x0 DUP1 MLOAD PUSH1 0x20 PUSH2 0x3A96 DUP4 CODECOPY DUP2 MLOAD SWAP2 MSTORE PUSH1 0x4 DUP3 ADD MSTORE PUSH1 0x24 DUP2 ADD SWAP2 SWAP1 SWAP2 MSTORE PUSH1 0x0 PUSH1 0x44 DUP3 ADD MSTORE SWAP1 SWAP5 POP PUSH2 0x805 SWAP1 PUSH4 0xE3B598FA SWAP1 PUSH1 0x64 ADD PUSH1 0x20 PUSH1 0x40 MLOAD DUP1 DUP4 SUB DUP2 DUP7 GAS STATICCALL ISZERO DUP1 ISZERO PUSH2 0xE76 JUMPI RETURNDATASIZE PUSH1 0x0 DUP1 RETURNDATACOPY RETURNDATASIZE PUSH1 0x0 REVERT JUMPDEST POP POP POP POP PUSH1 0x40 MLOAD RETURNDATASIZE PUSH1 0x1F NOT PUSH1 0x1F DUP3 ADD AND DUP3 ADD DUP1 PUSH1 0x40 MSTORE POP DUP2 ADD SWAP1 PUSH2 0xE9A SWAP2 SWAP1 PUSH2 0x33DD JUMP JUMPDEST DUP5 MSTORE PUSH2 0xEA4 PUSH2 0x2C8B JUMP JUMPDEST PUSH1 0x40 DUP1 MLOAD PUSH2 0x1020 DUP2 ADD SWAP2 DUP3 SWAP1 MSTORE SWAP2 SWAP5 POP PUSH1 0x3 SWAP1 PUSH1 0x81 SWAP1 DUP3 DUP5 JUMPDEST DUP2 SLOAD DUP2 MSTORE PUSH1 0x20 ADD SWAP1 PUSH1 0x1 ADD SWAP1 DUP1 DUP4 GT PUSH2 0xEBD JUMPI POP POP PUSH1 0x86 SLOAD SWAP12 SWAP13 SWAP11 SWAP12 SWAP10 SWAP11 SWAP4 SWAP10 SWAP8 SWAP9 POP SWAP6 SWAP7 SELFBALANCE SWAP7 POP PUSH1 0x1 PUSH1 0x1 PUSH1 0xA0 SHL SUB AND BALANCE SWAP5 POP SWAP2 SWAP3 POP POP POP JUMP JUMPDEST PUSH2 0xF00 PUSH2 0x28A2 JUMP JUMPDEST PUSH1 0x86 SLOAD PUSH1 0x1 PUSH1 0x1 PUSH1 0xA0 SHL SUB AND CALLER EQ PUSH2 0xF2B JUMPI PUSH1 0x40 MLOAD PUSH4 0x30CD7471 PUSH1 0xE0 SHL DUP2 MSTORE PUSH1 0x4 ADD PUSH1 0x40 MLOAD DUP1 SWAP2 SUB SWAP1 REVERT JUMPDEST PUSH1 0x2 SLOAD DUP6 SWAP1 DUP5 DUP3 EQ ISZERO DUP1 PUSH2 0xF3F JUMPI POP DUP2 DUP4 EQ ISZERO JUMPDEST ISZERO PUSH2 0xF5D JUMPI PUSH1 0x40 MLOAD PUSH4 0x512509D3 PUSH1 0xE1 SHL DUP2 MSTORE PUSH1 0x4 ADD PUSH1 0x40 MLOAD DUP1 SWAP2 SUB SWAP1 REVERT JUMPDEST PUSH1 0x0 JUMPDEST DUP3 DUP2 LT ISZERO PUSH2 0x11AA JUMPI PUSH1 0x0 DUP8 DUP8 DUP4 DUP2 DUP2 LT PUSH2 0xF7C JUMPI PUSH2 0xF7C PUSH2 0x33C7 JUMP JUMPDEST SWAP1 POP PUSH1 0x20 MUL ADD CALLDATALOAD SWAP1 POP DUP1 PUSH1 0x0 EQ PUSH2 0x11A1 JUMPI PUSH1 0x0 DUP11 DUP11 DUP5 DUP2 DUP2 LT PUSH2 0xFA1 JUMPI PUSH2 0xFA1 PUSH2 0x33C7 JUMP JUMPDEST SWAP1 POP PUSH1 0x20 MUL ADD CALLDATALOAD SWAP1 POP PUSH1 0x0 DUP2 SWAP1 POP PUSH1 0x0 DUP9 DUP9 DUP7 DUP2 DUP2 LT PUSH2 0xFC3 JUMPI PUSH2 0xFC3 PUSH2 0x33C7 JUMP JUMPDEST PUSH1 0x40 MLOAD PUSH4 0x69E38BC3 PUSH1 0xE0 SHL DUP2 MSTORE PUSH2 0xFFFF DUP7 AND PUSH1 0x4 DUP3 ADD MSTORE PUSH1 0x20 SWAP1 SWAP2 MUL SWAP3 SWAP1 SWAP3 ADD CALLDATALOAD SWAP3 POP PUSH1 0x0 SWAP2 PUSH2 0x808 SWAP2 POP PUSH4 0x69E38BC3 SWAP1 PUSH1 0x24 ADD PUSH1 0x20 PUSH1 0x40 MLOAD DUP1 DUP4 SUB DUP2 DUP7 GAS STATICCALL ISZERO DUP1 ISZERO PUSH2 0x1014 JUMPI RETURNDATASIZE PUSH1 0x0 DUP1 RETURNDATACOPY RETURNDATASIZE PUSH1 0x0 REVERT JUMPDEST POP POP POP POP PUSH1 0x40 MLOAD RETURNDATASIZE PUSH1 0x1F NOT PUSH1 0x1F DUP3 ADD AND DUP3 ADD DUP1 PUSH1 0x40 MSTORE POP DUP2 ADD SWAP1 PUSH2 0x1038 SWAP2 SWAP1 PUSH2 0x33DD JUMP JUMPDEST SWAP1 POP DUP1 DUP3 LT PUSH2 0x119C JUMPI PUSH1 0x40 MLOAD PUSH4 0x71DACC7D PUSH1 0xE1 SHL DUP2 MSTORE PUSH1 0x0 DUP1 MLOAD PUSH1 0x20 PUSH2 0x3A96 DUP4 CODECOPY DUP2 MLOAD SWAP2 MSTORE PUSH1 0x4 DUP3 ADD MSTORE PUSH1 0x24 DUP2 ADD DUP9 SWAP1 MSTORE PUSH1 0x0 PUSH1 0x44 DUP3 ADD DUP2 SWAP1 MSTORE SWAP1 PUSH2 0x805 SWAP1 PUSH4 0xE3B598FA SWAP1 PUSH1 0x64 ADD PUSH1 0x20 PUSH1 0x40 MLOAD DUP1 DUP4 SUB DUP2 DUP7 GAS STATICCALL ISZERO DUP1 ISZERO PUSH2 0x109D JUMPI RETURNDATASIZE PUSH1 0x0 DUP1 RETURNDATACOPY RETURNDATASIZE PUSH1 0x0 REVERT JUMPDEST POP POP POP POP PUSH1 0x40 MLOAD RETURNDATASIZE PUSH1 0x1F NOT PUSH1 0x1F DUP3 ADD AND DUP3 ADD DUP1 PUSH1 0x40 MSTORE POP DUP2 ADD SWAP1 PUSH2 0x10C1 SWAP2 SWAP1 PUSH2 0x33DD JUMP JUMPDEST SWAP1 POP DUP6 DUP2 GT ISZERO PUSH2 0x10CE JUMPI POP DUP5 JUMPDEST PUSH4 0x1DCD6500 DUP2 LT ISZERO PUSH2 0x10E8 JUMPI POP POP POP POP POP POP POP POP POP PUSH2 0x11AE JUMP JUMPDEST PUSH1 0x40 MLOAD PUSH4 0xBE72FB1 PUSH1 0xE1 SHL DUP2 MSTORE PUSH1 0x0 DUP1 MLOAD PUSH1 0x20 PUSH2 0x3AB6 DUP4 CODECOPY DUP2 MLOAD SWAP2 MSTORE PUSH1 0x4 DUP3 ADD MSTORE PUSH1 0x0 DUP1 MLOAD PUSH1 0x20 PUSH2 0x3A96 DUP4 CODECOPY DUP2 MLOAD SWAP2 MSTORE PUSH1 0x24 DUP3 ADD MSTORE PUSH1 0x0 PUSH1 0x44 DUP3 ADD MSTORE PUSH1 0x64 DUP2 ADD DUP7 SWAP1 MSTORE PUSH1 0x84 DUP2 ADD DUP3 SWAP1 MSTORE PUSH2 0x805 SWAP1 PUSH4 0x17CE5F62 SWAP1 PUSH1 0xA4 ADD PUSH1 0x0 PUSH1 0x40 MLOAD DUP1 DUP4 SUB DUP2 PUSH1 0x0 DUP8 DUP1 EXTCODESIZE ISZERO DUP1 ISZERO PUSH2 0x1159 JUMPI PUSH1 0x0 DUP1 REVERT JUMPDEST POP GAS CALL ISZERO DUP1 ISZERO PUSH2 0x116D JUMPI RETURNDATASIZE PUSH1 0x0 DUP1 RETURNDATACOPY RETURNDATASIZE PUSH1 0x0 REVERT JUMPDEST POP POP POP POP DUP1 PUSH1 0x3 DUP7 PUSH1 0x81 DUP2 LT PUSH2 0x1185 JUMPI PUSH2 0x1185 PUSH2 0x33C7 JUMP JUMPDEST ADD PUSH1 0x0 DUP3 DUP3 SLOAD PUSH2 0x1195 SWAP2 SWAP1 PUSH2 0x33F6 JUMP JUMPDEST SWAP1 SWAP2 SSTORE POP POP POP JUMPDEST POP POP POP POP JUMPDEST POP PUSH1 0x1 ADD PUSH2 0xF60 JUMP JUMPDEST POP POP POP JUMPDEST PUSH2 0x958 PUSH1 0x1 PUSH1 0x0 SSTORE JUMP JUMPDEST PUSH2 0x11C0 PUSH2 0x28A2 JUMP JUMPDEST PUSH1 0x86 SLOAD PUSH1 0x1 PUSH1 0x1 PUSH1 0xA0 SHL SUB AND CALLER EQ DUP1 ISZERO SWAP1 PUSH2 0x11E6 JUMPI POP PUSH1 0x85 SLOAD PUSH1 0x1 PUSH1 0x1 PUSH1 0xA0 SHL SUB AND CALLER EQ ISZERO JUMPDEST ISZERO PUSH2 0x1204 JUMPI PUSH1 0x40 MLOAD PUSH4 0xB4A87E7 PUSH1 0xE1 SHL DUP2 MSTORE PUSH1 0x4 ADD PUSH1 0x40 MLOAD DUP1 SWAP2 SUB SWAP1 REVERT JUMPDEST PUSH1 0x40 MLOAD PUSH4 0x7D691E3 PUSH1 0xE4 SHL DUP2 MSTORE PUSH1 0x0 DUP1 MLOAD PUSH1 0x20 PUSH2 0x3A96 DUP4 CODECOPY DUP2 MLOAD SWAP2 MSTORE PUSH1 0x4 DUP3 ADD MSTORE PUSH1 0x24 DUP2 ADD DUP3 SWAP1 MSTORE PUSH1 0x0 PUSH1 0x44 DUP3 ADD MSTORE PUSH2 0x805 SWAP1 PUSH4 0x7D691E30 SWAP1 PUSH1 0x64 ADD JUMPDEST PUSH1 0x0 PUSH1 0x40 MLOAD DUP1 DUP4 SUB DUP2 PUSH1 0x0 DUP8 DUP1 EXTCODESIZE ISZERO DUP1 ISZERO PUSH2 0x125B JUMPI PUSH1 0x0 DUP1 REVERT JUMPDEST POP GAS CALL ISZERO DUP1 ISZERO PUSH2 0x126F JUMPI RETURNDATASIZE PUSH1 0x0 DUP1 RETURNDATACOPY RETURNDATASIZE PUSH1 0x0 REVERT JUMPDEST POP POP POP POP PUSH2 0x127D PUSH1 0x1 PUSH1 0x0 SSTORE JUMP JUMPDEST POP JUMP JUMPDEST PUSH2 0x1288 PUSH2 0x28A2 JUMP JUMPDEST PUSH1 0x86 SLOAD PUSH1 0x1 PUSH1 0x1 PUSH1 0xA0 SHL SUB AND CALLER EQ PUSH2 0x12B3 JUMPI PUSH1 0x40 MLOAD PUSH4 0x30CD7471 PUSH1 0xE0 SHL DUP2 MSTORE PUSH1 0x4 ADD PUSH1 0x40 MLOAD DUP1 SWAP2 SUB SWAP1 REVERT JUMPDEST SELFBALANCE PUSH2 0x80B PUSH3 0xAE759 PUSH32 0x2636AD834CD47318572033620D50377260A54FC64E5F150896186B2BAFDA7454 PUSH1 0x0 PUSH1 0x40 MLOAD SWAP1 DUP1 DUP3 MSTORE DUP1 PUSH1 0x20 MUL PUSH1 0x20 ADD DUP3 ADD PUSH1 0x40 MSTORE DUP1 ISZERO PUSH2 0x1307 JUMPI DUP2 PUSH1 0x20 ADD PUSH1 0x20 DUP3 MUL DUP1 CALLDATASIZE DUP4 CALLDATACOPY ADD SWAP1 POP JUMPDEST POP PUSH1 0x84 PUSH1 0x40 MLOAD DUP5 PUSH4 0xFFFFFFFF AND PUSH1 0xE0 SHL DUP2 MSTORE PUSH1 0x4 ADD PUSH2 0x1328 SWAP4 SWAP3 SWAP2 SWAP1 PUSH2 0x3417 JUMP JUMPDEST PUSH1 0x0 PUSH1 0x40 MLOAD DUP1 DUP4 SUB DUP2 PUSH1 0x0 DUP8 DUP1 EXTCODESIZE ISZERO DUP1 ISZERO PUSH2 0x1342 JUMPI PUSH1 0x0 DUP1 REVERT JUMPDEST POP GAS CALL ISZERO DUP1 ISZERO PUSH2 0x1356 JUMPI RETURNDATASIZE PUSH1 0x0 DUP1 RETURNDATACOPY RETURNDATASIZE PUSH1 0x0 REVERT JUMPDEST POP POP POP POP PUSH1 0x0 DUP2 PUSH8 0x16345785D8A0000 PUSH2 0x1370 SWAP2 SWAP1 PUSH2 0x33F6 JUMP JUMPDEST SWAP1 POP SELFBALANCE DUP2 DUP2 SUB PUSH2 0x137F JUMPI PUSH1 0x0 DUP1 REVERT JUMPDEST PUSH3 0x24C56 NOT PUSH4 0x3B9ACA00 DUP3 DUP5 SUB DIV ADD PUSH1 0x7F DUP2 AND PUSH1 0x7 DUP3 SWAP1 SHR DUP2 ISZERO PUSH2 0x14B8 JUMPI PUSH1 0x40 MLOAD PUSH4 0x71DACC7D PUSH1 0xE1 SHL DUP2 MSTORE PUSH1 0x0 DUP1 MLOAD PUSH1 0x20 PUSH2 0x3A96 DUP4 CODECOPY DUP2 MLOAD SWAP2 MSTORE PUSH1 0x4 DUP3 ADD MSTORE PUSH1 0x0 DUP1 MLOAD PUSH1 0x20 PUSH2 0x3AB6 DUP4 CODECOPY DUP2 MLOAD SWAP2 MSTORE PUSH1 0x24 DUP3 ADD MSTORE PUSH1 0x44 DUP2 ADD DUP4 SWAP1 MSTORE PUSH1 0x0 SWAP1 PUSH2 0x805 SWAP1 PUSH4 0xE3B598FA SWAP1 PUSH1 0x64 ADD PUSH1 0x20 PUSH1 0x40 MLOAD DUP1 DUP4 SUB DUP2 DUP7 GAS STATICCALL ISZERO DUP1 ISZERO PUSH2 0x1406 JUMPI RETURNDATASIZE PUSH1 0x0 DUP1 RETURNDATACOPY RETURNDATASIZE PUSH1 0x0 REVERT JUMPDEST POP POP POP POP PUSH1 0x40 MLOAD RETURNDATASIZE PUSH1 0x1F NOT PUSH1 0x1F DUP3 ADD AND DUP3 ADD DUP1 PUSH1 0x40 MSTORE POP DUP2 ADD SWAP1 PUSH2 0x142A SWAP2 SWAP1 PUSH2 0x33DD JUMP JUMPDEST SWAP1 POP DUP1 ISZERO PUSH2 0x14B6 JUMPI PUSH1 0x40 MLOAD PUSH4 0x2D67F0B9 PUSH1 0xE0 SHL DUP2 MSTORE PUSH1 0x4 DUP2 ADD DUP5 SWAP1 MSTORE PUSH1 0x24 DUP2 ADD DUP3 SWAP1 MSTORE PUSH20 0xD689D29F7EA0C511F4DDE84171B10D34078BB17C SWAP1 PUSH4 0x2D67F0B9 SWAP1 PUSH1 0x44 ADD PUSH1 0x0 PUSH1 0x40 MLOAD DUP1 DUP4 SUB DUP2 PUSH1 0x0 DUP8 DUP1 EXTCODESIZE ISZERO DUP1 ISZERO PUSH2 0x1486 JUMPI PUSH1 0x0 DUP1 REVERT JUMPDEST POP GAS CALL ISZERO DUP1 ISZERO PUSH2 0x149A JUMPI RETURNDATASIZE PUSH1 0x0 DUP1 RETURNDATACOPY RETURNDATASIZE PUSH1 0x0 REVERT JUMPDEST POP POP POP POP PUSH1 0x0 PUSH1 0x3 DUP5 PUSH1 0x81 DUP2 LT PUSH2 0x14B3 JUMPI PUSH2 0x14B3 PUSH2 0x33C7 JUMP JUMPDEST ADD SSTORE JUMPDEST POP JUMPDEST DUP1 ISZERO PUSH2 0x15D9 JUMPI PUSH1 0x40 MLOAD PUSH4 0x71DACC7D PUSH1 0xE1 SHL DUP2 MSTORE PUSH1 0x0 DUP1 MLOAD PUSH1 0x20 PUSH2 0x3A96 DUP4 CODECOPY DUP2 MLOAD SWAP2 MSTORE PUSH1 0x4 DUP3 ADD MSTORE PUSH1 0x0 DUP1 MLOAD PUSH1 0x20 PUSH2 0x3AB6 DUP4 CODECOPY DUP2 MLOAD SWAP2 MSTORE PUSH1 0x24 DUP3 ADD MSTORE PUSH1 0x44 DUP2 ADD DUP3 SWAP1 MSTORE PUSH1 0x0 SWAP1 PUSH2 0x805 SWAP1 PUSH4 0xE3B598FA SWAP1 PUSH1 0x64 ADD PUSH1 0x20 PUSH1 0x40 MLOAD DUP1 DUP4 SUB DUP2 DUP7 GAS STATICCALL ISZERO DUP1 ISZERO PUSH2 0x1527 JUMPI RETURNDATASIZE PUSH1 0x0 DUP1 RETURNDATACOPY RETURNDATASIZE PUSH1 0x0 REVERT JUMPDEST POP POP POP POP PUSH1 0x40 MLOAD RETURNDATASIZE PUSH1 0x1F NOT PUSH1 0x1F DUP3 ADD AND DUP3 ADD DUP1 PUSH1 0x40 MSTORE POP DUP2 ADD SWAP1 PUSH2 0x154B SWAP2 SWAP1 PUSH2 0x33DD JUMP JUMPDEST SWAP1 POP DUP1 ISZERO PUSH2 0x15D7 JUMPI PUSH1 0x40 MLOAD PUSH4 0x2D67F0B9 PUSH1 0xE0 SHL DUP2 MSTORE PUSH1 0x4 DUP2 ADD DUP4 SWAP1 MSTORE PUSH1 0x24 DUP2 ADD DUP3 SWAP1 MSTORE PUSH20 0xD689D29F7EA0C511F4DDE84171B10D34078BB17C SWAP1 PUSH4 0x2D67F0B9 SWAP1 PUSH1 0x44 ADD PUSH1 0x0 PUSH1 0x40 MLOAD DUP1 DUP4 SUB DUP2 PUSH1 0x0 DUP8 DUP1 EXTCODESIZE ISZERO DUP1 ISZERO PUSH2 0x15A7 JUMPI PUSH1 0x0 DUP1 REVERT JUMPDEST POP GAS CALL ISZERO DUP1 ISZERO PUSH2 0x15BB JUMPI RETURNDATASIZE PUSH1 0x0 DUP1 RETURNDATACOPY RETURNDATASIZE PUSH1 0x0 REVERT JUMPDEST POP POP POP POP PUSH1 0x0 PUSH1 0x3 DUP4 PUSH1 0x81 DUP2 LT PUSH2 0x15D4 JUMPI PUSH2 0x15D4 PUSH2 0x33C7 JUMP JUMPDEST ADD SSTORE JUMPDEST POP JUMPDEST PUSH1 0x40 MLOAD PUSH4 0xCD6F4EB1 PUSH1 0xE0 SHL DUP2 MSTORE PUSH32 0x2636AD834CD47318572033620D50377260A54FC64E5F150896186B2BAFDA7454 PUSH1 0x4 DUP3 ADD MSTORE PUSH2 0x800 SWAP1 PUSH4 0xCD6F4EB1 SWAP1 PUSH8 0x16345785D8A0000 SWAP1 PUSH1 0x24 ADD PUSH1 0x0 PUSH1 0x40 MLOAD DUP1 DUP4 SUB DUP2 DUP6 DUP9 DUP1 EXTCODESIZE ISZERO DUP1 ISZERO PUSH2 0x163C JUMPI PUSH1 0x0 DUP1 REVERT JUMPDEST POP GAS CALL ISZERO DUP1 ISZERO PUSH2 0x1650 JUMPI RETURNDATASIZE PUSH1 0x0 DUP1 RETURNDATACOPY RETURNDATASIZE PUSH1 0x0 REVERT JUMPDEST POP POP POP POP POP POP POP POP POP POP POP PUSH2 0x1665 PUSH1 0x1 PUSH1 0x0 SSTORE JUMP JUMPDEST JUMP JUMPDEST PUSH2 0x166F PUSH2 0x28A2 JUMP JUMPDEST PUSH1 0x86 SLOAD PUSH1 0x1 PUSH1 0x1 PUSH1 0xA0 SHL SUB AND CALLER EQ PUSH2 0x169A JUMPI PUSH1 0x40 MLOAD PUSH4 0x30CD7471 PUSH1 0xE0 SHL DUP2 MSTORE PUSH1 0x4 ADD PUSH1 0x40 MLOAD DUP1 SWAP2 SUB SWAP1 REVERT JUMPDEST DUP3 DUP2 DUP2 EQ PUSH2 0x16BB JUMPI PUSH1 0x40 MLOAD PUSH4 0x512509D3 PUSH1 0xE1 SHL DUP2 MSTORE PUSH1 0x4 ADD PUSH1 0x40 MLOAD DUP1 SWAP2 SUB SWAP1 REVERT JUMPDEST PUSH1 0x0 JUMPDEST DUP2 DUP2 LT ISZERO PUSH2 0x18BB JUMPI PUSH1 0x0 DUP7 DUP7 DUP4 DUP2 DUP2 LT PUSH2 0x16DA JUMPI PUSH2 0x16DA PUSH2 0x33C7 JUMP JUMPDEST SWAP1 POP PUSH1 0x20 MUL ADD CALLDATALOAD SWAP1 POP PUSH1 0x0 DUP2 SWAP1 POP PUSH1 0x0 DUP7 DUP7 DUP6 DUP2 DUP2 LT PUSH2 0x16FC JUMPI PUSH2 0x16FC PUSH2 0x33C7 JUMP JUMPDEST PUSH1 0x40 MLOAD PUSH4 0x69E38BC3 PUSH1 0xE0 SHL DUP2 MSTORE PUSH2 0xFFFF DUP7 AND PUSH1 0x4 DUP3 ADD MSTORE PUSH1 0x20 SWAP1 SWAP2 MUL SWAP3 SWAP1 SWAP3 ADD CALLDATALOAD SWAP3 POP PUSH1 0x0 SWAP2 PUSH2 0x808 SWAP2 POP PUSH4 0x69E38BC3 SWAP1 PUSH1 0x24 ADD PUSH1 0x20 PUSH1 0x40 MLOAD DUP1 DUP4 SUB DUP2 DUP7 GAS STATICCALL ISZERO DUP1 ISZERO PUSH2 0x174D JUMPI RETURNDATASIZE PUSH1 0x0 DUP1 RETURNDATACOPY RETURNDATASIZE PUSH1 0x0 REVERT JUMPDEST POP POP POP POP PUSH1 0x40 MLOAD RETURNDATASIZE PUSH1 0x1F NOT PUSH1 0x1F DUP3 ADD AND DUP3 ADD DUP1 PUSH1 0x40 MSTORE POP DUP2 ADD SWAP1 PUSH2 0x1771 SWAP2 SWAP1 PUSH2 0x33DD JUMP JUMPDEST SWAP1 POP DUP1 DUP3 GT PUSH2 0x18AC JUMPI PUSH1 0x40 MLOAD PUSH4 0x71DACC7D PUSH1 0xE1 SHL DUP2 MSTORE PUSH1 0x0 DUP1 MLOAD PUSH1 0x20 PUSH2 0x3A96 DUP4 CODECOPY DUP2 MLOAD SWAP2 MSTORE PUSH1 0x4 DUP3 ADD MSTORE PUSH1 0x0 DUP1 MLOAD PUSH1 0x20 PUSH2 0x3AB6 DUP4 CODECOPY DUP2 MLOAD SWAP2 MSTORE PUSH1 0x24 DUP3 ADD MSTORE PUSH1 0x44 DUP2 ADD DUP6 SWAP1 MSTORE PUSH1 0x0 SWAP1 PUSH2 0x805 SWAP1 PUSH4 0xE3B598FA SWAP1 PUSH1 0x64 ADD PUSH1 0x20 PUSH1 0x40 MLOAD DUP1 DUP4 SUB DUP2 DUP7 GAS STATICCALL ISZERO DUP1 ISZERO PUSH2 0x17E3 JUMPI RETURNDATASIZE PUSH1 0x0 DUP1 RETURNDATACOPY RETURNDATASIZE PUSH1 0x0 REVERT JUMPDEST POP POP POP POP PUSH1 0x40 MLOAD RETURNDATASIZE PUSH1 0x1F NOT PUSH1 0x1F DUP3 ADD AND DUP3 ADD DUP1 PUSH1 0x40 MSTORE POP DUP2 ADD SWAP1 PUSH2 0x1807 SWAP2 SWAP1 PUSH2 0x33DD JUMP JUMPDEST SWAP1 POP PUSH1 0x0 PUSH1 0x3 DUP7 PUSH1 0x81 DUP2 LT PUSH2 0x181E JUMPI PUSH2 0x181E PUSH2 0x33C7 JUMP JUMPDEST ADD SLOAD GT ISZERO PUSH2 0x18AA JUMPI PUSH1 0x40 MLOAD PUSH4 0x2D67F0B9 PUSH1 0xE0 SHL DUP2 MSTORE PUSH1 0x4 DUP2 ADD DUP7 SWAP1 MSTORE PUSH1 0x24 DUP2 ADD DUP3 SWAP1 MSTORE PUSH20 0xD689D29F7EA0C511F4DDE84171B10D34078BB17C SWAP1 PUSH4 0x2D67F0B9 SWAP1 PUSH1 0x44 ADD PUSH1 0x0 PUSH1 0x40 MLOAD DUP1 DUP4 SUB DUP2 PUSH1 0x0 DUP8 DUP1 EXTCODESIZE ISZERO DUP1 ISZERO PUSH2 0x187A JUMPI PUSH1 0x0 DUP1 REVERT JUMPDEST POP GAS CALL ISZERO DUP1 ISZERO PUSH2 0x188E JUMPI RETURNDATASIZE PUSH1 0x0 DUP1 RETURNDATACOPY RETURNDATASIZE PUSH1 0x0 REVERT JUMPDEST POP POP POP POP PUSH1 0x0 PUSH1 0x3 DUP7 PUSH1 0x81 DUP2 LT PUSH2 0x18A7 JUMPI PUSH2 0x18A7 PUSH2 0x33C7 JUMP JUMPDEST ADD SSTORE JUMPDEST POP JUMPDEST DUP5 PUSH1 0x1 ADD SWAP5 POP POP POP POP POP PUSH2 0x16BE JUMP JUMPDEST POP POP PUSH2 0x18C7 PUSH1 0x1 PUSH1 0x0 SSTORE JUMP JUMPDEST POP POP POP POP JUMP JUMPDEST PUSH2 0x18D5 PUSH2 0x28A2 JUMP JUMPDEST PUSH1 0x88 SLOAD PUSH1 0xFF AND ISZERO PUSH2 0x18F9 JUMPI PUSH1 0x40 MLOAD PUSH4 0xA62BAEB7 PUSH1 0xE0 SHL DUP2 MSTORE PUSH1 0x4 ADD PUSH1 0x40 MLOAD DUP1 SWAP2 SUB SWAP1 REVERT JUMPDEST PUSH1 0x0 PUSH2 0xE10 PUSH2 0x190B PUSH3 0x15180 TIMESTAMP PUSH2 0x3A43 JUMP JUMPDEST PUSH2 0x1915 SWAP2 SWAP1 PUSH2 0x3A57 JUMP JUMPDEST SWAP1 POP PUSH1 0xE DUP2 LT DUP1 PUSH2 0x1927 JUMPI POP PUSH1 0x10 DUP2 LT ISZERO JUMPDEST ISZERO PUSH2 0x1945 JUMPI PUSH1 0x40 MLOAD PUSH4 0xCC1DE8D9 PUSH1 0xE0 SHL DUP2 MSTORE PUSH1 0x4 ADD PUSH1 0x40 MLOAD DUP1 SWAP2 SUB SWAP1 REVERT JUMPDEST PUSH1 0x85 SLOAD PUSH1 0x1 PUSH1 0x1 PUSH1 0xA0 SHL SUB AND CALLER EQ PUSH2 0x1970 JUMPI PUSH1 0x40 MLOAD PUSH4 0x2D99BC83 PUSH1 0xE2 SHL DUP2 MSTORE PUSH1 0x4 ADD PUSH1 0x40 MLOAD DUP1 SWAP2 SUB SWAP1 REVERT JUMPDEST PUSH1 0x1 PUSH1 0x1 PUSH1 0xA0 SHL SUB DUP4 AND PUSH2 0x1997 JUMPI PUSH1 0x40 MLOAD PUSH4 0xE6C4247B PUSH1 0xE0 SHL DUP2 MSTORE PUSH1 0x4 ADD PUSH1 0x40 MLOAD DUP1 SWAP2 SUB SWAP1 REVERT JUMPDEST DUP2 PUSH1 0x0 SUB PUSH2 0x19B8 JUMPI PUSH1 0x40 MLOAD PUSH4 0x65E52D51 PUSH1 0xE1 SHL DUP2 MSTORE PUSH1 0x4 ADD PUSH1 0x40 MLOAD DUP1 SWAP2 SUB SWAP1 REVERT JUMPDEST PUSH1 0x0 DUP4 PUSH1 0x1 PUSH1 0x1 PUSH1 0xA0 SHL SUB AND DUP4 PUSH1 0x40 MLOAD PUSH1 0x0 PUSH1 0x40 MLOAD DUP1 DUP4 SUB DUP2 DUP6 DUP8 GAS CALL SWAP3 POP POP POP RETURNDATASIZE DUP1 PUSH1 0x0 DUP2 EQ PUSH2 0x1A05 JUMPI PUSH1 0x40 MLOAD SWAP2 POP PUSH1 0x1F NOT PUSH1 0x3F RETURNDATASIZE ADD AND DUP3 ADD PUSH1 0x40 MSTORE RETURNDATASIZE DUP3 MSTORE RETURNDATASIZE PUSH1 0x0 PUSH1 0x20 DUP5 ADD RETURNDATACOPY PUSH2 0x1A0A JUMP JUMPDEST PUSH1 0x60 SWAP2 POP JUMPDEST POP POP SWAP1 POP DUP1 PUSH2 0x1A2C JUMPI PUSH1 0x40 MLOAD PUSH4 0x12171D83 PUSH1 0xE3 SHL DUP2 MSTORE PUSH1 0x4 ADD PUSH1 0x40 MLOAD DUP1 SWAP2 SUB SWAP1 REVERT JUMPDEST POP POP PUSH2 0x1A38 PUSH1 0x1 PUSH1 0x0 SSTORE JUMP JUMPDEST POP POP JUMP JUMPDEST PUSH2 0x1A44 PUSH2 0x28A2 JUMP JUMPDEST PUSH1 0x86 SLOAD PUSH1 0x1 PUSH1 0x1 PUSH1 0xA0 SHL SUB AND CALLER EQ DUP1 ISZERO SWAP1 PUSH2 0x1A6A JUMPI POP PUSH1 0x85 SLOAD PUSH1 0x1 PUSH1 0x1 PUSH1 0xA0 SHL SUB AND CALLER EQ ISZERO JUMPDEST ISZERO PUSH2 0x1A88 JUMPI PUSH1 0x40 MLOAD PUSH4 0xB4A87E7 PUSH1 0xE1 SHL DUP2 MSTORE PUSH1 0x4 ADD PUSH1 0x40 MLOAD DUP1 SWAP2 SUB SWAP1 REVERT JUMPDEST PUSH1 0x40 MLOAD PUSH4 0x1FC9B141 PUSH1 0xE0 SHL DUP2 MSTORE PUSH1 0x0 DUP1 MLOAD PUSH1 0x20 PUSH2 0x3A96 DUP4 CODECOPY DUP2 MLOAD SWAP2 MSTORE PUSH1 0x4 DUP3 ADD MSTORE PUSH1 0x24 DUP2 ADD DUP3 SWAP1 MSTORE PUSH1 0x0 PUSH1 0x44 DUP3 ADD MSTORE PUSH2 0x805 SWAP1 PUSH4 0x1FC9B141 SWAP1 PUSH1 0x64 ADD PUSH2 0x1241 JUMP JUMPDEST PUSH2 0x1AD1 PUSH2 0x28A2 JUMP JUMPDEST PUSH1 0x86 SLOAD PUSH1 0x1 PUSH1 0x1 PUSH1 0xA0 SHL SUB AND CALLER EQ DUP1 ISZERO SWAP1 PUSH2 0x1AF7 JUMPI POP PUSH1 0x85 SLOAD PUSH1 0x1 PUSH1 0x1 PUSH1 0xA0 SHL SUB AND CALLER EQ ISZERO JUMPDEST ISZERO PUSH2 0x1B15 JUMPI PUSH1 0x40 MLOAD PUSH4 0xB4A87E7 PUSH1 0xE1 SHL DUP2 MSTORE PUSH1 0x4 ADD PUSH1 0x40 MLOAD DUP1 SWAP2 SUB SWAP1 REVERT JUMPDEST PUSH1 0x40 MLOAD PUSH4 0xD4626BB9 PUSH1 0xE0 SHL DUP2 MSTORE PUSH1 0x0 DUP1 MLOAD PUSH1 0x20 PUSH2 0x3A96 DUP4 CODECOPY DUP2 MLOAD SWAP2 MSTORE PUSH1 0x4 DUP3 ADD MSTORE PUSH1 0x0 PUSH1 0x24 DUP3 ADD MSTORE PUSH2 0x805 SWAP1 PUSH4 0xD4626BB9 SWAP1 PUSH1 0x44 ADD PUSH1 0x0 PUSH1 0x40 MLOAD DUP1 DUP4 SUB DUP2 PUSH1 0x0 DUP8 DUP1 EXTCODESIZE ISZERO DUP1 ISZERO PUSH2 0x1B64 JUMPI PUSH1 0x0 DUP1 REVERT JUMPDEST POP GAS CALL ISZERO DUP1 ISZERO PUSH2 0x1B78 JUMPI RETURNDATASIZE PUSH1 0x0 DUP1 RETURNDATACOPY RETURNDATASIZE PUSH1 0x0 REVERT JUMPDEST POP POP POP POP PUSH2 0x1665 PUSH1 0x1 PUSH1 0x0 SSTORE JUMP JUMPDEST PUSH1 0x86 SLOAD PUSH1 0x1 PUSH1 0x1 PUSH1 0xA0 SHL SUB AND CALLER EQ PUSH2 0x1BB1 JUMPI PUSH1 0x40 MLOAD PUSH4 0x30CD7471 PUSH1 0xE0 SHL DUP2 MSTORE PUSH1 0x4 ADD PUSH1 0x40 MLOAD DUP1 SWAP2 SUB SWAP1 REVERT JUMPDEST PUSH2 0x1BBD PUSH1 0x1 DUP4 DUP4 PUSH2 0x2D5A JUMP JUMPDEST POP POP POP JUMP JUMPDEST PUSH2 0x1BCA PUSH2 0x28A2 JUMP JUMPDEST PUSH1 0x88 SLOAD PUSH1 0xFF AND ISZERO PUSH2 0x1BEE JUMPI PUSH1 0x40 MLOAD PUSH4 0xA62BAEB7 PUSH1 0xE0 SHL DUP2 MSTORE PUSH1 0x4 ADD PUSH1 0x40 MLOAD DUP1 SWAP2 SUB SWAP1 REVERT JUMPDEST PUSH1 0x85 SLOAD PUSH1 0x1 PUSH1 0x1 PUSH1 0xA0 SHL SUB AND CALLER EQ PUSH2 0x1C19 JUMPI PUSH1 0x40 MLOAD PUSH4 0x2D99BC83 PUSH1 0xE2 SHL DUP2 MSTORE PUSH1 0x4 ADD PUSH1 0x40 MLOAD DUP1 SWAP2 SUB SWAP1 REVERT JUMPDEST PUSH1 0x40 MLOAD PUSH3 0x57C71B PUSH1 0xE4 SHL DUP2 MSTORE PUSH1 0x4 DUP2 ADD DUP3 SWAP1 MSTORE PUSH1 0x0 DUP1 MLOAD PUSH1 0x20 PUSH2 0x3AB6 DUP4 CODECOPY DUP2 MLOAD SWAP2 MSTORE PUSH1 0x24 DUP3 ADD MSTORE PUSH20 0xD689D29F7EA0C511F4DDE84171B10D34078BB17C SWAP1 PUSH4 0x57C71B0 SWAP1 PUSH1 0x44 ADD PUSH2 0x1241 JUMP JUMPDEST PUSH2 0x1C6C PUSH2 0x2D3B JUMP JUMPDEST PUSH2 0x1C74 PUSH2 0x2B32 JUMP JUMPDEST SWAP1 POP SWAP1 JUMP JUMPDEST PUSH1 0x86 SLOAD PUSH1 0x1 PUSH1 0x1 PUSH1 0xA0 SHL SUB AND CALLER EQ PUSH2 0x1CA4 JUMPI PUSH1 0x40 MLOAD PUSH4 0x30CD7471 PUSH1 0xE0 SHL DUP2 MSTORE PUSH1 0x4 ADD PUSH1 0x40 MLOAD DUP1 SWAP2 SUB SWAP1 REVERT JUMPDEST PUSH2 0x1BBD PUSH1 0x84 DUP4 DUP4 PUSH2 0x2DB9 JUMP JUMPDEST PUSH1 0x1 DUP2 DUP2 SLOAD DUP2 LT PUSH2 0x1CC0 JUMPI PUSH1 0x0 DUP1 REVERT JUMPDEST PUSH1 0x0 SWAP2 DUP3 MSTORE PUSH1 0x20 SWAP1 SWAP2 KECCAK256 ADD SLOAD PUSH1 0x1 PUSH1 0x1 PUSH1 0xA0 SHL SUB AND SWAP1 POP DUP2 JUMP JUMPDEST PUSH2 0x1CE2 PUSH2 0x28A2 JUMP JUMPDEST PUSH1 0x86 SLOAD PUSH1 0x1 PUSH1 0x1 PUSH1 0xA0 SHL SUB AND CALLER EQ DUP1 ISZERO SWAP1 PUSH2 0x1D08 JUMPI POP PUSH1 0x85 SLOAD PUSH1 0x1 PUSH1 0x1 PUSH1 0xA0 SHL SUB AND CALLER EQ ISZERO JUMPDEST ISZERO PUSH2 0x1D26 JUMPI PUSH1 0x40 MLOAD PUSH4 0xB4A87E7 PUSH1 0xE1 SHL DUP2 MSTORE PUSH1 0x4 ADD PUSH1 0x40 MLOAD DUP1 SWAP2 SUB SWAP1 REVERT JUMPDEST PUSH1 0x40 MLOAD PUSH4 0xD4626BB9 PUSH1 0xE0 SHL DUP2 MSTORE PUSH1 0x0 DUP1 MLOAD PUSH1 0x20 PUSH2 0x3A96 DUP4 CODECOPY DUP2 MLOAD SWAP2 MSTORE PUSH1 0x4 DUP3 ADD MSTORE PUSH1 0x24 DUP2 ADD DUP3 SWAP1 MSTORE PUSH2 0x805 SWAP1 PUSH4 0xD4626BB9 SWAP1 PUSH1 0x44 ADD PUSH2 0x1241 JUMP JUMPDEST PUSH2 0x1D68 PUSH2 0x2D3B JUMP JUMPDEST PUSH2 0x1C74 PUSH2 0x2A83 JUMP JUMPDEST PUSH2 0x1D78 PUSH2 0x2D3B JUMP JUMPDEST PUSH2 0x1C74 PUSH2 0x29DF JUMP JUMPDEST PUSH2 0x1D88 PUSH2 0x28A2 JUMP JUMPDEST PUSH1 0x88 SLOAD PUSH1 0xFF AND ISZERO PUSH2 0x1DAC JUMPI PUSH1 0x40 MLOAD PUSH4 0xA62BAEB7 PUSH1 0xE0 SHL DUP2 MSTORE PUSH1 0x4 ADD PUSH1 0x40 MLOAD DUP1 SWAP2 SUB SWAP1 REVERT JUMPDEST PUSH1 0x0 PUSH2 0xE10 PUSH2 0x1DBE PUSH3 0x15180 TIMESTAMP PUSH2 0x3A43 JUMP JUMPDEST PUSH2 0x1DC8 SWAP2 SWAP1 PUSH2 0x3A57 JUMP JUMPDEST SWAP1 POP PUSH1 0xE DUP2 LT DUP1 PUSH2 0x1DDA JUMPI POP PUSH1 0x10 DUP2 LT ISZERO JUMPDEST ISZERO PUSH2 0x1DF8 JUMPI PUSH1 0x40 MLOAD PUSH4 0xCC1DE8D9 PUSH1 0xE0 SHL DUP2 MSTORE PUSH1 0x4 ADD PUSH1 0x40 MLOAD DUP1 SWAP2 SUB SWAP1 REVERT JUMPDEST PUSH1 0x85 SLOAD PUSH1 0x1 PUSH1 0x1 PUSH1 0xA0 SHL SUB AND CALLER EQ PUSH2 0x1E23 JUMPI PUSH1 0x40 MLOAD PUSH4 0x2D99BC83 PUSH1 0xE2 SHL DUP2 MSTORE PUSH1 0x4 ADD PUSH1 0x40 MLOAD DUP1 SWAP2 SUB SWAP1 REVERT JUMPDEST DUP3 PUSH2 0x1E41 JUMPI PUSH1 0x40 MLOAD PUSH4 0x666B0C5D PUSH1 0xE0 SHL DUP2 MSTORE PUSH1 0x4 ADD PUSH1 0x40 MLOAD DUP1 SWAP2 SUB SWAP1 REVERT JUMPDEST DUP2 PUSH1 0x0 SUB PUSH2 0x1E62 JUMPI PUSH1 0x40 MLOAD PUSH4 0x65E52D51 PUSH1 0xE1 SHL DUP2 MSTORE PUSH1 0x4 ADD PUSH1 0x40 MLOAD DUP1 SWAP2 SUB SWAP1 REVERT JUMPDEST PUSH1 0x40 MLOAD PUSH4 0xCD6F4EB1 PUSH1 0xE0 SHL DUP2 MSTORE PUSH1 0x4 DUP2 ADD DUP5 SWAP1 MSTORE PUSH2 0x800 SWAP1 PUSH4 0xCD6F4EB1 SWAP1 DUP5 SWAP1 PUSH1 0x24 ADD PUSH1 0x0 PUSH1 0x40 MLOAD DUP1 DUP4 SUB DUP2 DUP6 DUP9 DUP1 EXTCODESIZE ISZERO DUP1 ISZERO PUSH2 0x1E9E JUMPI PUSH1 0x0 DUP1 REVERT JUMPDEST POP GAS CALL ISZERO DUP1 ISZERO PUSH2 0x1EB2 JUMPI RETURNDATASIZE PUSH1 0x0 DUP1 RETURNDATACOPY RETURNDATASIZE PUSH1 0x0 REVERT JUMPDEST POP POP POP POP POP POP PUSH2 0x1A38 PUSH1 0x1 PUSH1 0x0 SSTORE JUMP JUMPDEST PUSH1 0x3 DUP2 PUSH1 0x81 DUP2 LT PUSH2 0x1ED2 JUMPI PUSH1 0x0 DUP1 REVERT JUMPDEST ADD SLOAD SWAP1 POP DUP2 JUMP JUMPDEST PUSH1 0x86 SLOAD PUSH1 0x1 PUSH1 0x1 PUSH1 0xA0 SHL SUB AND CALLER EQ PUSH2 0x1F04 JUMPI PUSH1 0x40 MLOAD PUSH4 0x30CD7471 PUSH1 0xE0 SHL DUP2 MSTORE PUSH1 0x4 ADD PUSH1 0x40 MLOAD DUP1 SWAP2 SUB SWAP1 REVERT JUMPDEST PUSH1 0x88 DUP1 SLOAD PUSH1 0xFF NOT AND PUSH1 0x1 OR SWAP1 SSTORE JUMP JUMPDEST PUSH2 0x1F1B PUSH2 0x28A2 JUMP JUMPDEST PUSH1 0x88 SLOAD PUSH1 0xFF AND ISZERO PUSH2 0x1F3F JUMPI PUSH1 0x40 MLOAD PUSH4 0xA62BAEB7 PUSH1 0xE0 SHL DUP2 MSTORE PUSH1 0x4 ADD PUSH1 0x40 MLOAD DUP1 SWAP2 SUB SWAP1 REVERT JUMPDEST PUSH1 0x0 PUSH2 0xE10 PUSH2 0x1F51 PUSH3 0x15180 TIMESTAMP PUSH2 0x3A43 JUMP JUMPDEST PUSH2 0x1F5B SWAP2 SWAP1 PUSH2 0x3A57 JUMP JUMPDEST SWAP1 POP PUSH1 0xE DUP2 LT DUP1 PUSH2 0x1F6D JUMPI POP PUSH1 0x10 DUP2 LT ISZERO JUMPDEST ISZERO PUSH2 0x1F8B JUMPI PUSH1 0x40 MLOAD PUSH4 0xCC1DE8D9 PUSH1 0xE0 SHL DUP2 MSTORE PUSH1 0x4 ADD PUSH1 0x40 MLOAD DUP1 SWAP2 SUB SWAP1 REVERT JUMPDEST PUSH1 0x85 SLOAD PUSH1 0x1 PUSH1 0x1 PUSH1 0xA0 SHL SUB AND CALLER EQ PUSH2 0x1FB6 JUMPI PUSH1 0x40 MLOAD PUSH4 0x2D99BC83 PUSH1 0xE2 SHL DUP2 MSTORE PUSH1 0x4 ADD PUSH1 0x40 MLOAD DUP1 SWAP2 SUB SWAP1 REVERT JUMPDEST DUP2 PUSH2 0x1FD4 JUMPI PUSH1 0x40 MLOAD PUSH4 0x666B0C5D PUSH1 0xE0 SHL DUP2 MSTORE PUSH1 0x4 ADD PUSH1 0x40 MLOAD DUP1 SWAP2 SUB SWAP1 REVERT JUMPDEST SELFBALANCE PUSH1 0x0 DUP2 SWAP1 SUB PUSH2 0x1FF7 JUMPI PUSH1 0x40 MLOAD PUSH4 0x65E52D51 PUSH1 0xE1 SHL DUP2 MSTORE PUSH1 0x4 ADD PUSH1 0x40 MLOAD DUP1 SWAP2 SUB SWAP1 REVERT JUMPDEST PUSH1 0x40 MLOAD PUSH4 0xCD6F4EB1 PUSH1 0xE0 SHL DUP2 MSTORE PUSH1 0x4 DUP2 ADD DUP5 SWAP1 MSTORE PUSH2 0x800 SWAP1 PUSH4 0xCD6F4EB1 SWAP1 DUP4 SWAP1 PUSH1 0x24 ADD PUSH1 0x0 PUSH1 0x40 MLOAD DUP1 DUP4 SUB DUP2 DUP6 DUP9 DUP1 EXTCODESIZE ISZERO DUP1 ISZERO PUSH2 0x2033 JUMPI PUSH1 0x0 DUP1 REVERT JUMPDEST POP GAS CALL ISZERO DUP1 ISZERO PUSH2 0x2047 JUMPI RETURNDATASIZE PUSH1 0x0 DUP1 RETURNDATACOPY RETURNDATASIZE PUSH1 0x0 REVERT JUMPDEST POP POP POP POP POP POP POP PUSH2 0x127D PUSH1 0x1 PUSH1 0x0 SSTORE JUMP JUMPDEST PUSH2 0x2060 PUSH2 0x28A2 JUMP JUMPDEST PUSH1 0x86 SLOAD PUSH1 0x1 PUSH1 0x1 PUSH1 0xA0 SHL SUB AND CALLER EQ PUSH2 0x208B JUMPI PUSH1 0x40 MLOAD PUSH4 0x30CD7471 PUSH1 0xE0 SHL DUP2 MSTORE PUSH1 0x4 ADD PUSH1 0x40 MLOAD DUP1 SWAP2 SUB SWAP1 REVERT JUMPDEST DUP7 DUP6 DUP5 EQ PUSH2 0x20AC JUMPI PUSH1 0x40 MLOAD PUSH4 0x512509D3 PUSH1 0xE1 SHL DUP2 MSTORE PUSH1 0x4 ADD PUSH1 0x40 MLOAD DUP1 SWAP2 SUB SWAP1 REVERT JUMPDEST PUSH1 0x0 JUMPDEST DUP2 DUP2 LT ISZERO PUSH2 0x2257 JUMPI PUSH1 0x0 DUP11 DUP11 DUP4 DUP2 DUP2 LT PUSH2 0x20CB JUMPI PUSH2 0x20CB PUSH2 0x33C7 JUMP JUMPDEST SWAP1 POP PUSH1 0x20 MUL ADD CALLDATALOAD SWAP1 POP PUSH2 0x20FA DUP2 DUP7 DUP7 DUP6 DUP2 DUP2 LT PUSH2 0x20EA JUMPI PUSH2 0x20EA PUSH2 0x33C7 JUMP JUMPDEST SWAP1 POP PUSH1 0x20 MUL ADD CALLDATALOAD DUP12 DUP12 DUP12 DUP12 PUSH2 0x28FF JUMP JUMPDEST ISZERO PUSH2 0x224E JUMPI PUSH1 0x0 PUSH1 0x3 DUP3 PUSH1 0x81 DUP2 LT PUSH2 0x2114 JUMPI PUSH2 0x2114 PUSH2 0x33C7 JUMP JUMPDEST ADD SLOAD GT ISZERO PUSH2 0x224E JUMPI PUSH1 0x0 PUSH2 0x805 PUSH4 0xE3B598FA DUP12 DUP12 DUP7 DUP2 DUP2 LT PUSH2 0x2138 JUMPI PUSH2 0x2138 PUSH2 0x33C7 JUMP JUMPDEST SWAP1 POP PUSH1 0x20 MUL ADD CALLDATALOAD DUP11 DUP11 DUP8 DUP2 DUP2 LT PUSH2 0x2151 JUMPI PUSH2 0x2151 PUSH2 0x33C7 JUMP JUMPDEST PUSH1 0x40 MLOAD PUSH1 0x1 PUSH1 0x1 PUSH1 0xE0 SHL SUB NOT PUSH1 0xE0 DUP8 SWAP1 SHL AND DUP2 MSTORE PUSH1 0x4 DUP2 ADD SWAP5 SWAP1 SWAP5 MSTORE PUSH1 0x20 MUL SWAP2 SWAP1 SWAP2 ADD CALLDATALOAD PUSH1 0x24 DUP4 ADD MSTORE POP PUSH1 0x44 DUP2 ADD DUP6 SWAP1 MSTORE PUSH1 0x64 ADD PUSH1 0x20 PUSH1 0x40 MLOAD DUP1 DUP4 SUB DUP2 DUP7 GAS STATICCALL ISZERO DUP1 ISZERO PUSH2 0x21A2 JUMPI RETURNDATASIZE PUSH1 0x0 DUP1 RETURNDATACOPY RETURNDATASIZE PUSH1 0x0 REVERT JUMPDEST POP POP POP POP PUSH1 0x40 MLOAD RETURNDATASIZE PUSH1 0x1F NOT PUSH1 0x1F DUP3 ADD AND DUP3 ADD DUP1 PUSH1 0x40 MSTORE POP DUP2 ADD SWAP1 PUSH2 0x21C6 SWAP2 SWAP1 PUSH2 0x33DD JUMP JUMPDEST PUSH1 0x40 MLOAD PUSH4 0x2D67F0B9 PUSH1 0xE0 SHL DUP2 MSTORE PUSH1 0x4 DUP2 ADD DUP5 SWAP1 MSTORE PUSH1 0x24 DUP2 ADD DUP3 SWAP1 MSTORE SWAP1 SWAP2 POP PUSH20 0xD689D29F7EA0C511F4DDE84171B10D34078BB17C SWAP1 PUSH4 0x2D67F0B9 SWAP1 PUSH1 0x44 ADD PUSH1 0x0 PUSH1 0x40 MLOAD DUP1 DUP4 SUB DUP2 PUSH1 0x0 DUP8 DUP1 EXTCODESIZE ISZERO DUP1 ISZERO PUSH2 0x221D JUMPI PUSH1 0x0 DUP1 REVERT JUMPDEST POP GAS CALL ISZERO DUP1 ISZERO PUSH2 0x2231 JUMPI RETURNDATASIZE PUSH1 0x0 DUP1 RETURNDATACOPY RETURNDATASIZE PUSH1 0x0 REVERT JUMPDEST POP POP POP POP PUSH1 0x0 PUSH1 0x3 DUP4 PUSH1 0x81 DUP2 LT PUSH2 0x224A JUMPI PUSH2 0x224A PUSH2 0x33C7 JUMP JUMPDEST ADD SSTORE POP JUMPDEST POP PUSH1 0x1 ADD PUSH2 0x20AF JUMP JUMPDEST POP POP PUSH2 0x2263 PUSH1 0x1 PUSH1 0x0 SSTORE JUMP JUMPDEST POP POP POP POP POP POP POP POP JUMP JUMPDEST PUSH2 0x2275 PUSH2 0x28A2 JUMP JUMPDEST PUSH1 0x88 SLOAD PUSH1 0xFF AND ISZERO PUSH2 0x2299 JUMPI PUSH1 0x40 MLOAD PUSH4 0xA62BAEB7 PUSH1 0xE0 SHL DUP2 MSTORE PUSH1 0x4 ADD PUSH1 0x40 MLOAD DUP1 SWAP2 SUB SWAP1 REVERT JUMPDEST PUSH1 0x86 SLOAD PUSH1 0x1 PUSH1 0x1 PUSH1 0xA0 SHL SUB AND CALLER EQ PUSH2 0x22C4 JUMPI PUSH1 0x40 MLOAD PUSH4 0x30CD7471 PUSH1 0xE0 SHL DUP2 MSTORE PUSH1 0x4 ADD PUSH1 0x40 MLOAD DUP1 SWAP2 SUB SWAP1 REVERT JUMPDEST PUSH1 0x1 PUSH1 0x1 PUSH1 0xA0 SHL SUB DUP3 AND PUSH2 0x22EB JUMPI PUSH1 0x40 MLOAD PUSH4 0xE6C4247B PUSH1 0xE0 SHL DUP2 MSTORE PUSH1 0x4 ADD PUSH1 0x40 MLOAD DUP1 SWAP2 SUB SWAP1 REVERT JUMPDEST DUP1 PUSH1 0x0 SUB PUSH2 0x230C JUMPI PUSH1 0x40 MLOAD PUSH4 0x65E52D51 PUSH1 0xE1 SHL DUP2 MSTORE PUSH1 0x4 ADD PUSH1 0x40 MLOAD DUP1 SWAP2 SUB SWAP1 REVERT JUMPDEST PUSH8 0xDE0B6B3A7640000 DUP2 GT ISZERO PUSH2 0x2335 JUMPI PUSH1 0x40 MLOAD PUSH4 0x6250401 PUSH1 0xE0 SHL DUP2 MSTORE PUSH1 0x4 ADD PUSH1 0x40 MLOAD DUP1 SWAP2 SUB SWAP1 REVERT JUMPDEST PUSH2 0xA8C0 PUSH1 0x87 SLOAD PUSH2 0x2345 SWAP2 SWAP1 PUSH2 0x33F6 JUMP JUMPDEST TIMESTAMP LT ISZERO PUSH2 0x2365 JUMPI PUSH1 0x40 MLOAD PUSH4 0x34932EF PUSH1 0xE5 SHL DUP2 MSTORE PUSH1 0x4 ADD PUSH1 0x40 MLOAD DUP1 SWAP2 SUB SWAP1 REVERT JUMPDEST TIMESTAMP PUSH1 0x87 SSTORE PUSH1 0x40 MLOAD PUSH1 0x0 SWAP1 PUSH1 0x1 PUSH1 0x1 PUSH1 0xA0 SHL SUB DUP5 AND SWAP1 DUP4 SWAP1 DUP4 DUP2 DUP2 DUP2 DUP6 DUP8 GAS CALL SWAP3 POP POP POP RETURNDATASIZE DUP1 PUSH1 0x0 DUP2 EQ PUSH2 0x23B4 JUMPI PUSH1 0x40 MLOAD SWAP2 POP PUSH1 0x1F NOT PUSH1 0x3F RETURNDATASIZE ADD AND DUP3 ADD PUSH1 0x40 MSTORE RETURNDATASIZE DUP3 MSTORE RETURNDATASIZE PUSH1 0x0 PUSH1 0x20 DUP5 ADD RETURNDATACOPY PUSH2 0x23B9 JUMP JUMPDEST PUSH1 0x60 SWAP2 POP JUMPDEST POP POP SWAP1 POP DUP1 PUSH2 0x23DB JUMPI PUSH1 0x40 MLOAD PUSH4 0x12171D83 PUSH1 0xE3 SHL DUP2 MSTORE PUSH1 0x4 ADD PUSH1 0x40 MLOAD DUP1 SWAP2 SUB SWAP1 REVERT JUMPDEST POP PUSH2 0x1A38 PUSH1 0x1 PUSH1 0x0 SSTORE JUMP JUMPDEST PUSH1 0x85 SLOAD PUSH1 0x1 PUSH1 0x1 PUSH1 0xA0 SHL SUB AND CALLER EQ PUSH2 0x2411 JUMPI PUSH1 0x40 MLOAD PUSH4 0x2D99BC83 PUSH1 0xE2 SHL DUP2 MSTORE PUSH1 0x4 ADD PUSH1 0x40 MLOAD DUP1 SWAP2 SUB SWAP1 REVERT JUMPDEST PUSH1 0x88 DUP1 SLOAD PUSH1 0xFF NOT AND SWAP1 SSTORE JUMP JUMPDEST PUSH2 0x2425 PUSH2 0x28A2 JUMP JUMPDEST PUSH1 0x86 SLOAD PUSH1 0x1 PUSH1 0x1 PUSH1 0xA0 SHL SUB AND CALLER EQ DUP1 ISZERO SWAP1 PUSH2 0x244B JUMPI POP PUSH1 0x85 SLOAD PUSH1 0x1 PUSH1 0x1 PUSH1 0xA0 SHL SUB AND CALLER EQ ISZERO JUMPDEST ISZERO PUSH2 0x2469 JUMPI PUSH1 0x40 MLOAD PUSH4 0xB4A87E7 PUSH1 0xE1 SHL DUP2 MSTORE PUSH1 0x4 ADD PUSH1 0x40 MLOAD DUP1 SWAP2 SUB SWAP1 REVERT JUMPDEST SELFBALANCE PUSH1 0x0 DUP2 SWAP1 SUB PUSH2 0x248C JUMPI PUSH1 0x40 MLOAD PUSH4 0x65E52D51 PUSH1 0xE1 SHL DUP2 MSTORE PUSH1 0x4 ADD PUSH1 0x40 MLOAD DUP1 SWAP2 SUB SWAP1 REVERT JUMPDEST PUSH2 0x805 PUSH4 0x1FC9B141 PUSH1 0x0 DUP1 MLOAD PUSH1 0x20 PUSH2 0x3A96 DUP4 CODECOPY DUP2 MLOAD SWAP2 MSTORE PUSH2 0x24B1 PUSH4 0x3B9ACA00 DUP6 PUSH2 0x3A57 JUMP JUMPDEST PUSH1 0x40 MLOAD PUSH1 0x1 PUSH1 0x1 PUSH1 0xE0 SHL SUB NOT PUSH1 0xE0 DUP6 SWAP1 SHL AND DUP2 MSTORE PUSH1 0x4 DUP2 ADD SWAP3 SWAP1 SWAP3 MSTORE PUSH1 0x24 DUP3 ADD MSTORE PUSH1 0x0 PUSH1 0x44 DUP3 ADD MSTORE PUSH1 0x64 ADD PUSH1 0x0 PUSH1 0x40 MLOAD DUP1 DUP4 SUB DUP2 PUSH1 0x0 DUP8 DUP1 EXTCODESIZE ISZERO DUP1 ISZERO PUSH2 0x24F6 JUMPI PUSH1 0x0 DUP1 REVERT JUMPDEST POP GAS CALL ISZERO DUP1 ISZERO PUSH2 0x250A JUMPI RETURNDATASIZE PUSH1 0x0 DUP1 RETURNDATACOPY RETURNDATASIZE PUSH1 0x0 REVERT JUMPDEST POP POP POP POP POP PUSH2 0x1665 PUSH1 0x1 PUSH1 0x0 SSTORE JUMP JUMPDEST PUSH2 0x2521 PUSH2 0x28A2 JUMP JUMPDEST PUSH1 0x85 SLOAD PUSH1 0x1 PUSH1 0x1 PUSH1 0xA0 SHL SUB AND CALLER EQ PUSH2 0x254C JUMPI PUSH1 0x40 MLOAD PUSH4 0x2D99BC83 PUSH1 0xE2 SHL DUP2 MSTORE PUSH1 0x4 ADD PUSH1 0x40 MLOAD DUP1 SWAP2 SUB SWAP1 REVERT JUMPDEST PUSH1 0x1 PUSH1 0x1 PUSH1 0xA0 SHL SUB DUP3 AND PUSH2 0x2573 JUMPI PUSH1 0x40 MLOAD PUSH4 0xE6C4247B PUSH1 0xE0 SHL DUP2 MSTORE PUSH1 0x4 ADD PUSH1 0x40 MLOAD DUP1 SWAP2 SUB SWAP1 REVERT JUMPDEST DUP1 PUSH2 0x2591 JUMPI PUSH1 0x40 MLOAD PUSH4 0x666B0C5D PUSH1 0xE0 SHL DUP2 MSTORE PUSH1 0x4 ADD PUSH1 0x40 MLOAD DUP1 SWAP2 SUB SWAP1 REVERT JUMPDEST PUSH1 0x40 MLOAD PUSH4 0xF4F1726B PUSH1 0xE0 SHL DUP2 MSTORE PUSH1 0x1 PUSH1 0x1 PUSH1 0xA0 SHL SUB DUP4 AND PUSH1 0x4 DUP3 ADD MSTORE PUSH1 0x24 DUP2 ADD DUP3 SWAP1 MSTORE PUSH20 0xD689D29F7EA0C511F4DDE84171B10D34078BB17C SWAP1 PUSH4 0xF4F1726B SWAP1 PUSH1 0x44 ADD PUSH1 0x0 PUSH1 0x40 MLOAD DUP1 DUP4 SUB DUP2 PUSH1 0x0 DUP8 DUP1 EXTCODESIZE ISZERO DUP1 ISZERO PUSH2 0x25ED JUMPI PUSH1 0x0 DUP1 REVERT JUMPDEST POP GAS CALL ISZERO DUP1 ISZERO PUSH2 0x2601 JUMPI RETURNDATASIZE PUSH1 0x0 DUP1 RETURNDATACOPY RETURNDATASIZE PUSH1 0x0 REVERT JUMPDEST POP POP POP POP PUSH2 0x1A38 PUSH1 0x1 PUSH1 0x0 SSTORE JUMP JUMPDEST PUSH1 0x86 SLOAD PUSH1 0x1 PUSH1 0x1 PUSH1 0xA0 SHL SUB AND CALLER EQ PUSH2 0x263A JUMPI PUSH1 0x40 MLOAD PUSH4 0x30CD7471 PUSH1 0xE0 SHL DUP2 MSTORE PUSH1 0x4 ADD PUSH1 0x40 MLOAD DUP1 SWAP2 SUB SWAP1 REVERT JUMPDEST DUP1 PUSH2 0x2658 JUMPI PUSH1 0x40 MLOAD PUSH4 0x666B0C5D PUSH1 0xE0 SHL DUP2 MSTORE PUSH1 0x4 ADD PUSH1 0x40 MLOAD DUP1 SWAP2 SUB SWAP1 REVERT JUMPDEST PUSH1 0x2 SSTORE JUMP JUMPDEST PUSH2 0x2665 PUSH2 0x28A2 JUMP JUMPDEST PUSH1 0x88 SLOAD PUSH1 0xFF AND ISZERO PUSH2 0x2689 JUMPI PUSH1 0x40 MLOAD PUSH4 0xA62BAEB7 PUSH1 0xE0 SHL DUP2 MSTORE PUSH1 0x4 ADD PUSH1 0x40 MLOAD DUP1 SWAP2 SUB SWAP1 REVERT JUMPDEST PUSH1 0x0 PUSH2 0xE10 PUSH2 0x269B PUSH3 0x15180 TIMESTAMP PUSH2 0x3A43 JUMP JUMPDEST PUSH2 0x26A5 SWAP2 SWAP1 PUSH2 0x3A57 JUMP JUMPDEST SWAP1 POP PUSH1 0xE DUP2 LT DUP1 PUSH2 0x26B7 JUMPI POP PUSH1 0x10 DUP2 LT ISZERO JUMPDEST ISZERO PUSH2 0x26D5 JUMPI PUSH1 0x40 MLOAD PUSH4 0xCC1DE8D9 PUSH1 0xE0 SHL DUP2 MSTORE PUSH1 0x4 ADD PUSH1 0x40 MLOAD DUP1 SWAP2 SUB SWAP1 REVERT JUMPDEST PUSH1 0x85 SLOAD PUSH1 0x1 PUSH1 0x1 PUSH1 0xA0 SHL SUB AND CALLER EQ PUSH2 0x2700 JUMPI PUSH1 0x40 MLOAD PUSH4 0x2D99BC83 PUSH1 0xE2 SHL DUP2 MSTORE PUSH1 0x4 ADD PUSH1 0x40 MLOAD DUP1 SWAP2 SUB SWAP1 REVERT JUMPDEST PUSH1 0x1 PUSH1 0x1 PUSH1 0xA0 SHL SUB DUP3 AND PUSH2 0x2727 JUMPI PUSH1 0x40 MLOAD PUSH4 0xE6C4247B PUSH1 0xE0 SHL DUP2 MSTORE PUSH1 0x4 ADD PUSH1 0x40 MLOAD DUP1 SWAP2 SUB SWAP1 REVERT JUMPDEST SELFBALANCE PUSH1 0x0 DUP2 SWAP1 SUB PUSH2 0x274A JUMPI PUSH1 0x40 MLOAD PUSH4 0x65E52D51 PUSH1 0xE1 SHL DUP2 MSTORE PUSH1 0x4 ADD PUSH1 0x40 MLOAD DUP1 SWAP2 SUB SWAP1 REVERT JUMPDEST PUSH1 0x0 DUP4 PUSH1 0x1 PUSH1 0x1 PUSH1 0xA0 SHL SUB AND DUP3 PUSH1 0x40 MLOAD PUSH1 0x0 PUSH1 0x40 MLOAD DUP1 DUP4 SUB DUP2 DUP6 DUP8 GAS CALL SWAP3 POP POP POP RETURNDATASIZE DUP1 PUSH1 0x0 DUP2 EQ PUSH2 0x2797 JUMPI PUSH1 0x40 MLOAD SWAP2 POP PUSH1 0x1F NOT PUSH1 0x3F RETURNDATASIZE ADD AND DUP3 ADD PUSH1 0x40 MSTORE RETURNDATASIZE DUP3 MSTORE RETURNDATASIZE PUSH1 0x0 PUSH1 0x20 DUP5 ADD RETURNDATACOPY PUSH2 0x279C JUMP JUMPDEST PUSH1 0x60 SWAP2 POP JUMPDEST POP POP SWAP1 POP DUP1 PUSH2 0x27BE JUMPI PUSH1 0x40 MLOAD PUSH4 0x12171D83 PUSH1 0xE3 SHL DUP2 MSTORE PUSH1 0x4 ADD PUSH1 0x40 MLOAD DUP1 SWAP2 SUB SWAP1 REVERT JUMPDEST POP POP POP PUSH2 0x127D PUSH1 0x1 PUSH1 0x0 SSTORE JUMP JUMPDEST PUSH1 0x0 DUP1 DUP5 DUP2 JUMPDEST DUP2 DUP2 LT ISZERO PUSH2 0x2895 JUMPI PUSH2 0x805 PUSH4 0xE3B598FA DUP10 DUP10 DUP5 DUP2 DUP2 LT PUSH2 0x27F3 JUMPI PUSH2 0x27F3 PUSH2 0x33C7 JUMP JUMPDEST SWAP1 POP PUSH1 0x20 MUL ADD CALLDATALOAD DUP9 DUP9 DUP6 DUP2 DUP2 LT PUSH2 0x280C JUMPI PUSH2 0x280C PUSH2 0x33C7 JUMP JUMPDEST PUSH1 0x40 MLOAD PUSH1 0x1 PUSH1 0x1 PUSH1 0xE0 SHL SUB NOT PUSH1 0xE0 DUP8 SWAP1 SHL AND DUP2 MSTORE PUSH1 0x4 DUP2 ADD SWAP5 SWAP1 SWAP5 MSTORE PUSH1 0x20 MUL SWAP2 SWAP1 SWAP2 ADD CALLDATALOAD PUSH1 0x24 DUP4 ADD MSTORE POP PUSH1 0x44 DUP2 ADD DUP13 SWAP1 MSTORE PUSH1 0x64 ADD PUSH1 0x20 PUSH1 0x40 MLOAD DUP1 DUP4 SUB DUP2 DUP7 GAS STATICCALL ISZERO DUP1 ISZERO PUSH2 0x285D JUMPI RETURNDATASIZE PUSH1 0x0 DUP1 RETURNDATACOPY RETURNDATASIZE PUSH1 0x0 REVERT JUMPDEST POP POP POP POP PUSH1 0x40 MLOAD RETURNDATASIZE PUSH1 0x1F NOT PUSH1 0x1F DUP3 ADD AND DUP3 ADD DUP1 PUSH1 0x40 MSTORE POP DUP2 ADD SWAP1 PUSH2 0x2881 SWAP2 SWAP1 PUSH2 0x33DD JUMP JUMPDEST PUSH2 0x288B SWAP1 DUP5 PUSH2 0x33F6 JUMP JUMPDEST SWAP3 POP PUSH1 0x1 ADD PUSH2 0x27D1 JUMP JUMPDEST POP SWAP1 SWAP8 SWAP7 POP POP POP POP POP POP POP JUMP JUMPDEST PUSH1 0x2 PUSH1 0x0 SLOAD SUB PUSH2 0x28F8 JUMPI PUSH1 0x40 MLOAD PUSH3 0x461BCD PUSH1 0xE5 SHL DUP2 MSTORE PUSH1 0x20 PUSH1 0x4 DUP3 ADD MSTORE PUSH1 0x1F PUSH1 0x24 DUP3 ADD MSTORE PUSH32 0x5265656E7472616E637947756172643A207265656E7472616E742063616C6C00 PUSH1 0x44 DUP3 ADD MSTORE PUSH1 0x64 ADD PUSH1 0x40 MLOAD DUP1 SWAP2 SUB SWAP1 REVERT JUMPDEST PUSH1 0x2 PUSH1 0x0 SSTORE JUMP JUMPDEST PUSH1 0x0 DUP4 DUP2 JUMPDEST DUP2 DUP2 LT ISZERO PUSH2 0x29CE JUMPI DUP8 PUSH2 0x805 PUSH4 0xE3B598FA DUP10 DUP10 DUP6 DUP2 DUP2 LT PUSH2 0x2927 JUMPI PUSH2 0x2927 PUSH2 0x33C7 JUMP JUMPDEST SWAP1 POP PUSH1 0x20 MUL ADD CALLDATALOAD DUP9 DUP9 DUP7 DUP2 DUP2 LT PUSH2 0x2940 JUMPI PUSH2 0x2940 PUSH2 0x33C7 JUMP JUMPDEST PUSH1 0x40 MLOAD PUSH1 0x1 PUSH1 0x1 PUSH1 0xE0 SHL SUB NOT PUSH1 0xE0 DUP8 SWAP1 SHL AND DUP2 MSTORE PUSH1 0x4 DUP2 ADD SWAP5 SWAP1 SWAP5 MSTORE PUSH1 0x20 MUL SWAP2 SWAP1 SWAP2 ADD CALLDATALOAD PUSH1 0x24 DUP4 ADD MSTORE POP PUSH1 0x44 DUP2 ADD DUP14 SWAP1 MSTORE PUSH1 0x64 ADD PUSH1 0x20 PUSH1 0x40 MLOAD DUP1 DUP4 SUB DUP2 DUP7 GAS STATICCALL ISZERO DUP1 ISZERO PUSH2 0x2991 JUMPI RETURNDATASIZE PUSH1 0x0 DUP1 RETURNDATACOPY RETURNDATASIZE PUSH1 0x0 REVERT JUMPDEST POP POP POP POP PUSH1 0x40 MLOAD RETURNDATASIZE PUSH1 0x1F NOT PUSH1 0x1F DUP3 ADD AND DUP3 ADD DUP1 PUSH1 0x40 MSTORE POP DUP2 ADD SWAP1 PUSH2 0x29B5 SWAP2 SWAP1 PUSH2 0x33DD JUMP JUMPDEST GT ISZERO PUSH2 0x29C6 JUMPI PUSH1 0x1 SWAP3 POP POP POP PUSH2 0x29D5 JUMP JUMPDEST PUSH1 0x1 ADD PUSH2 0x2904 JUMP JUMPDEST POP PUSH1 0x0 SWAP2 POP POP JUMPDEST SWAP7 SWAP6 POP POP POP POP POP POP JUMP JUMPDEST PUSH2 0x29E7 PUSH2 0x2D3B JUMP JUMPDEST PUSH1 0x0 JUMPDEST PUSH1 0x81 PUSH2 0xFFFF DUP3 AND LT ISZERO PUSH2 0x2A7F JUMPI PUSH1 0x40 MLOAD PUSH4 0x69E38BC3 PUSH1 0xE0 SHL DUP2 MSTORE PUSH2 0xFFFF DUP3 AND PUSH1 0x4 DUP3 ADD MSTORE PUSH2 0x808 SWAP1 PUSH4 0x69E38BC3 SWAP1 PUSH1 0x24 ADD PUSH1 0x20 PUSH1 0x40 MLOAD DUP1 DUP4 SUB DUP2 DUP7 GAS STATICCALL SWAP3 POP POP POP DUP1 ISZERO PUSH2 0x2A54 JUMPI POP PUSH1 0x40 DUP1 MLOAD PUSH1 0x1F RETURNDATASIZE SWAP1 DUP2 ADD PUSH1 0x1F NOT AND DUP3 ADD SWAP1 SWAP3 MSTORE PUSH2 0x2A51 SWAP2 DUP2 ADD SWAP1 PUSH2 0x33DD JUMP JUMPDEST PUSH1 0x1 JUMPDEST ISZERO PUSH2 0x2A77 JUMPI DUP1 DUP4 DUP4 PUSH2 0xFFFF AND PUSH1 0x81 DUP2 LT PUSH2 0x2A70 JUMPI PUSH2 0x2A70 PUSH2 0x33C7 JUMP JUMPDEST PUSH1 0x20 MUL ADD MSTORE POP JUMPDEST PUSH1 0x1 ADD PUSH2 0x29EA JUMP JUMPDEST POP SWAP1 JUMP JUMPDEST PUSH2 0x2A8B PUSH2 0x2D3B JUMP JUMPDEST PUSH1 0x0 JUMPDEST PUSH1 0x81 PUSH2 0xFFFF DUP3 AND LT ISZERO PUSH2 0x2A7F JUMPI PUSH1 0x40 MLOAD PUSH4 0x2D9BFC71 PUSH1 0xE0 SHL DUP2 MSTORE PUSH2 0xFFFF DUP3 AND PUSH1 0x4 DUP3 ADD MSTORE PUSH2 0x808 SWAP1 PUSH4 0x2D9BFC71 SWAP1 PUSH1 0x24 ADD PUSH1 0x20 PUSH1 0x40 MLOAD DUP1 DUP4 SUB DUP2 DUP7 GAS STATICCALL SWAP3 POP POP POP DUP1 ISZERO PUSH2 0x2AF8 JUMPI POP PUSH1 0x40 DUP1 MLOAD PUSH1 0x1F RETURNDATASIZE SWAP1 DUP2 ADD PUSH1 0x1F NOT AND DUP3 ADD SWAP1 SWAP3 MSTORE PUSH2 0x2AF5 SWAP2 DUP2 ADD SWAP1 PUSH2 0x3A6B JUMP JUMPDEST PUSH1 0x1 JUMPDEST ISZERO PUSH2 0x2B2A JUMPI DUP1 DUP4 DUP4 PUSH2 0xFFFF AND PUSH1 0x81 DUP2 LT PUSH2 0x2B14 JUMPI PUSH2 0x2B14 PUSH2 0x33C7 JUMP JUMPDEST PUSH8 0xFFFFFFFFFFFFFFFF SWAP1 SWAP3 AND PUSH1 0x20 SWAP3 SWAP1 SWAP3 MUL ADD MSTORE POP JUMPDEST PUSH1 0x1 ADD PUSH2 0x2A8E JUMP JUMPDEST PUSH2 0x2B3A PUSH2 0x2D3B JUMP JUMPDEST PUSH1 0x0 JUMPDEST PUSH1 0x81 PUSH2 0xFFFF DUP3 AND LT ISZERO PUSH2 0x2A7F JUMPI PUSH1 0x40 MLOAD PUSH4 0xC2BA9E87 PUSH1 0xE0 SHL DUP2 MSTORE PUSH2 0xFFFF DUP3 AND PUSH1 0x4 DUP3 ADD MSTORE PUSH2 0x808 SWAP1 PUSH4 0xC2BA9E87 SWAP1 PUSH1 0x24 ADD PUSH1 0x20 PUSH1 0x40 MLOAD DUP1 DUP4 SUB DUP2 DUP7 GAS STATICCALL SWAP3 POP POP POP DUP1 ISZERO PUSH2 0x2BA7 JUMPI POP PUSH1 0x40 DUP1 MLOAD PUSH1 0x1F RETURNDATASIZE SWAP1 DUP2 ADD PUSH1 0x1F NOT AND DUP3 ADD SWAP1 SWAP3 MSTORE PUSH2 0x2BA4 SWAP2 DUP2 ADD SWAP1 PUSH2 0x3A6B JUMP JUMPDEST PUSH1 0x1 JUMPDEST ISZERO PUSH2 0x2BD9 JUMPI DUP1 DUP4 DUP4 PUSH2 0xFFFF AND PUSH1 0x81 DUP2 LT PUSH2 0x2BC3 JUMPI PUSH2 0x2BC3 PUSH2 0x33C7 JUMP JUMPDEST PUSH8 0xFFFFFFFFFFFFFFFF SWAP1 SWAP3 AND PUSH1 0x20 SWAP3 SWAP1 SWAP3 MUL ADD MSTORE POP JUMPDEST PUSH1 0x1 ADD PUSH2 0x2B3D JUMP JUMPDEST PUSH2 0x2BE9 PUSH2 0x2D3B JUMP JUMPDEST PUSH1 0x1 JUMPDEST PUSH1 0x81 DUP2 LT ISZERO PUSH2 0x2C84 JUMPI PUSH1 0x40 MLOAD PUSH4 0x71DACC7D PUSH1 0xE1 SHL DUP2 MSTORE PUSH1 0x4 DUP2 ADD DUP6 SWAP1 MSTORE PUSH1 0x24 DUP2 ADD DUP5 SWAP1 MSTORE PUSH1 0x44 DUP2 ADD DUP3 SWAP1 MSTORE PUSH2 0x805 SWAP1 PUSH4 0xE3B598FA SWAP1 PUSH1 0x64 ADD PUSH1 0x20 PUSH1 0x40 MLOAD DUP1 DUP4 SUB DUP2 DUP7 GAS STATICCALL ISZERO DUP1 ISZERO PUSH2 0x2C41 JUMPI RETURNDATASIZE PUSH1 0x0 DUP1 RETURNDATACOPY RETURNDATASIZE PUSH1 0x0 REVERT JUMPDEST POP POP POP POP PUSH1 0x40 MLOAD RETURNDATASIZE PUSH1 0x1F NOT PUSH1 0x1F DUP3 ADD AND DUP3 ADD DUP1 PUSH1 0x40 MSTORE POP DUP2 ADD SWAP1 PUSH2 0x2C65 SWAP2 SWAP1 PUSH2 0x33DD JUMP JUMPDEST DUP3 DUP3 PUSH1 0x81 DUP2 LT PUSH2 0x2C77 JUMPI PUSH2 0x2C77 PUSH2 0x33C7 JUMP JUMPDEST PUSH1 0x20 MUL ADD MSTORE PUSH1 0x1 ADD PUSH2 0x2BEC JUMP JUMPDEST POP SWAP3 SWAP2 POP POP JUMP JUMPDEST PUSH1 0x1 DUP1 SLOAD PUSH1 0x60 SWAP2 SWAP1 DUP1 PUSH8 0xFFFFFFFFFFFFFFFF DUP2 GT ISZERO PUSH2 0x2CAC JUMPI PUSH2 0x2CAC PUSH2 0x33B1 JUMP JUMPDEST PUSH1 0x40 MLOAD SWAP1 DUP1 DUP3 MSTORE DUP1 PUSH1 0x20 MUL PUSH1 0x20 ADD DUP3 ADD PUSH1 0x40 MSTORE DUP1 ISZERO PUSH2 0x2CD5 JUMPI DUP2 PUSH1 0x20 ADD PUSH1 0x20 DUP3 MUL DUP1 CALLDATASIZE DUP4 CALLDATACOPY ADD SWAP1 POP JUMPDEST POP SWAP3 POP PUSH1 0x0 JUMPDEST DUP2 DUP2 LT ISZERO PUSH2 0x2D35 JUMPI DUP3 DUP2 DUP2 SLOAD DUP2 LT PUSH2 0x2CF5 JUMPI PUSH2 0x2CF5 PUSH2 0x33C7 JUMP JUMPDEST PUSH1 0x0 SWAP2 DUP3 MSTORE PUSH1 0x20 SWAP1 SWAP2 KECCAK256 ADD SLOAD DUP5 MLOAD PUSH1 0x1 PUSH1 0x1 PUSH1 0xA0 SHL SUB SWAP1 SWAP2 AND BALANCE SWAP1 DUP6 SWAP1 DUP4 SWAP1 DUP2 LT PUSH2 0x2D22 JUMPI PUSH2 0x2D22 PUSH2 0x33C7 JUMP JUMPDEST PUSH1 0x20 SWAP1 DUP2 MUL SWAP2 SWAP1 SWAP2 ADD ADD MSTORE PUSH1 0x1 ADD PUSH2 0x2CDB JUMP JUMPDEST POP POP POP SWAP1 JUMP JUMPDEST PUSH1 0x40 MLOAD DUP1 PUSH2 0x1020 ADD PUSH1 0x40 MSTORE DUP1 PUSH1 0x81 SWAP1 PUSH1 0x20 DUP3 MUL DUP1 CALLDATASIZE DUP4 CALLDATACOPY POP SWAP2 SWAP3 SWAP2 POP POP JUMP JUMPDEST DUP3 DUP1 SLOAD DUP3 DUP3 SSTORE SWAP1 PUSH1 0x0 MSTORE PUSH1 0x20 PUSH1 0x0 KECCAK256 SWAP1 DUP2 ADD SWAP3 DUP3 ISZERO PUSH2 0x2DAD JUMPI SWAP2 PUSH1 0x20 MUL DUP3 ADD JUMPDEST DUP3 DUP2 GT ISZERO PUSH2 0x2DAD JUMPI DUP2 SLOAD PUSH1 0x1 PUSH1 0x1 PUSH1 0xA0 SHL SUB NOT AND PUSH1 0x1 PUSH1 0x1 PUSH1 0xA0 SHL SUB DUP5 CALLDATALOAD AND OR DUP3 SSTORE PUSH1 0x20 SWAP1 SWAP3 ADD SWAP2 PUSH1 0x1 SWAP1 SWAP2 ADD SWAP1 PUSH2 0x2D7A JUMP JUMPDEST POP PUSH2 0x2A7F SWAP3 SWAP2 POP PUSH2 0x2E59 JUMP JUMPDEST DUP3 DUP1 SLOAD DUP3 DUP3 SSTORE SWAP1 PUSH1 0x0 MSTORE PUSH1 0x20 PUSH1 0x0 KECCAK256 SWAP1 PUSH1 0x1F ADD PUSH1 0x20 SWAP1 DIV DUP2 ADD SWAP3 DUP3 ISZERO PUSH2 0x2DAD JUMPI SWAP2 PUSH1 0x20 MUL DUP3 ADD PUSH1 0x0 JUMPDEST DUP4 DUP3 GT ISZERO PUSH2 0x2E23 JUMPI DUP4 CALLDATALOAD PUSH1 0xFF AND DUP4 DUP3 PUSH2 0x100 EXP DUP2 SLOAD DUP2 PUSH1 0xFF MUL NOT AND SWAP1 DUP4 PUSH1 0xFF AND MUL OR SWAP1 SSTORE POP SWAP3 PUSH1 0x20 ADD SWAP3 PUSH1 0x1 ADD PUSH1 0x20 DUP2 PUSH1 0x0 ADD DIV SWAP3 DUP4 ADD SWAP3 PUSH1 0x1 SUB MUL PUSH2 0x2DE2 JUMP JUMPDEST DUP1 ISZERO PUSH2 0x2E50 JUMPI DUP3 DUP2 PUSH2 0x100 EXP DUP2 SLOAD SWAP1 PUSH1 0xFF MUL NOT AND SWAP1 SSTORE PUSH1 0x1 ADD PUSH1 0x20 DUP2 PUSH1 0x0 ADD DIV SWAP3 DUP4 ADD SWAP3 PUSH1 0x1 SUB MUL PUSH2 0x2E23 JUMP JUMPDEST POP POP PUSH2 0x2A7F SWAP3 SWAP2 POP JUMPDEST JUMPDEST DUP1 DUP3 GT ISZERO PUSH2 0x2A7F JUMPI PUSH1 0x0 DUP2 SSTORE PUSH1 0x1 ADD PUSH2 0x2E5A JUMP JUMPDEST PUSH1 0x0 DUP1 DUP4 PUSH1 0x1F DUP5 ADD SLT PUSH2 0x2E80 JUMPI PUSH1 0x0 DUP1 REVERT JUMPDEST POP DUP2 CALLDATALOAD PUSH8 0xFFFFFFFFFFFFFFFF DUP2 GT ISZERO PUSH2 0x2E98 JUMPI PUSH1 0x0 DUP1 REVERT JUMPDEST PUSH1 0x20 DUP4 ADD SWAP2 POP DUP4 PUSH1 0x20 DUP3 PUSH1 0x5 SHL DUP6 ADD ADD GT ISZERO PUSH2 0x2EB3 JUMPI PUSH1 0x0 DUP1 REVERT JUMPDEST SWAP3 POP SWAP3 SWAP1 POP JUMP JUMPDEST PUSH1 0x0 DUP1 PUSH1 0x0 DUP1 PUSH1 0x0 DUP1 PUSH1 0x60 DUP8 DUP10 SUB SLT ISZERO PUSH2 0x2ED3 JUMPI PUSH1 0x0 DUP1 REVERT JUMPDEST DUP7 CALLDATALOAD PUSH8 0xFFFFFFFFFFFFFFFF DUP1 DUP3 GT ISZERO PUSH2 0x2EEB JUMPI PUSH1 0x0 DUP1 REVERT JUMPDEST PUSH2 0x2EF7 DUP11 DUP4 DUP12 ADD PUSH2 0x2E6E JUMP JUMPDEST SWAP1 SWAP9 POP SWAP7 POP PUSH1 0x20 DUP10 ADD CALLDATALOAD SWAP2 POP DUP1 DUP3 GT ISZERO PUSH2 0x2F10 JUMPI PUSH1 0x0 DUP1 REVERT JUMPDEST PUSH2 0x2F1C DUP11 DUP4 DUP12 ADD PUSH2 0x2E6E JUMP JUMPDEST SWAP1 SWAP7 POP SWAP5 POP PUSH1 0x40 DUP10 ADD CALLDATALOAD SWAP2 POP DUP1 DUP3 GT ISZERO PUSH2 0x2F35 JUMPI PUSH1 0x0 DUP1 REVERT JUMPDEST POP PUSH2 0x2F42 DUP10 DUP3 DUP11 ADD PUSH2 0x2E6E JUMP JUMPDEST SWAP8 SWAP11 SWAP7 SWAP10 POP SWAP5 SWAP8 POP SWAP3 SWAP6 SWAP4 SWAP5 SWAP3 POP POP POP JUMP JUMPDEST PUSH1 0x0 DUP2 MLOAD DUP1 DUP5 MSTORE PUSH1 0x20 DUP1 DUP6 ADD SWAP5 POP PUSH1 0x20 DUP5 ADD PUSH1 0x0 JUMPDEST DUP4 DUP2 LT ISZERO PUSH2 0x2F85 JUMPI DUP2 MLOAD DUP8 MSTORE SWAP6 DUP3 ADD SWAP6 SWAP1 DUP3 ADD SWAP1 PUSH1 0x1 ADD PUSH2 0x2F69 JUMP JUMPDEST POP SWAP5 SWAP6 SWAP5 POP POP POP POP POP JUMP JUMPDEST PUSH1 0x20 DUP2 MSTORE PUSH1 0x0 PUSH2 0x2FA3 PUSH1 0x20 DUP4 ADD DUP5 PUSH2 0x2F54 JUMP JUMPDEST SWAP4 SWAP3 POP POP POP JUMP JUMPDEST DUP1 CALLDATALOAD PUSH1 0x1 PUSH1 0x1 PUSH1 0xA0 SHL SUB DUP2 AND DUP2 EQ PUSH2 0x2FC1 JUMPI PUSH1 0x0 DUP1 REVERT JUMPDEST SWAP2 SWAP1 POP JUMP JUMPDEST PUSH1 0x0 PUSH1 0x20 DUP3 DUP5 SUB SLT ISZERO PUSH2 0x2FD8 JUMPI PUSH1 0x0 DUP1 REVERT JUMPDEST PUSH2 0x2FA3 DUP3 PUSH2 0x2FAA JUMP JUMPDEST PUSH1 0x0 DUP1 PUSH1 0x0 DUP1 PUSH1 0x40 DUP6 DUP8 SUB SLT ISZERO PUSH2 0x2FF7 JUMPI PUSH1 0x0 DUP1 REVERT JUMPDEST DUP5 CALLDATALOAD PUSH8 0xFFFFFFFFFFFFFFFF DUP1 DUP3 GT ISZERO PUSH2 0x300F JUMPI PUSH1 0x0 DUP1 REVERT JUMPDEST PUSH2 0x301B DUP9 DUP4 DUP10 ADD PUSH2 0x2E6E JUMP JUMPDEST SWAP1 SWAP7 POP SWAP5 POP PUSH1 0x20 DUP8 ADD CALLDATALOAD SWAP2 POP DUP1 DUP3 GT ISZERO PUSH2 0x3034 JUMPI PUSH1 0x0 DUP1 REVERT JUMPDEST POP PUSH2 0x3041 DUP8 DUP3 DUP9 ADD PUSH2 0x2E6E JUMP JUMPDEST SWAP6 SWAP9 SWAP5 SWAP8 POP SWAP6 POP POP POP POP JUMP JUMPDEST DUP1 CALLDATALOAD DUP1 ISZERO ISZERO DUP2 EQ PUSH2 0x2FC1 JUMPI PUSH1 0x0 DUP1 REVERT JUMPDEST PUSH1 0x0 DUP1 PUSH1 0x0 DUP1 PUSH1 0x0 DUP1 PUSH1 0x0 DUP1 PUSH1 0x0 DUP1 PUSH1 0x0 PUSH1 0xC0 DUP13 DUP15 SUB SLT ISZERO PUSH2 0x307E JUMPI PUSH1 0x0 DUP1 REVERT JUMPDEST PUSH8 0xFFFFFFFFFFFFFFFF DUP1 DUP14 CALLDATALOAD GT ISZERO PUSH2 0x3095 JUMPI PUSH1 0x0 DUP1 REVERT JUMPDEST PUSH2 0x30A2 DUP15 DUP15 CALLDATALOAD DUP16 ADD PUSH2 0x2E6E JUMP JUMPDEST SWAP1 SWAP13 POP SWAP11 POP PUSH1 0x20 DUP14 ADD CALLDATALOAD DUP2 LT ISZERO PUSH2 0x30B8 JUMPI PUSH1 0x0 DUP1 REVERT JUMPDEST PUSH2 0x30C8 DUP15 PUSH1 0x20 DUP16 ADD CALLDATALOAD DUP16 ADD PUSH2 0x2E6E JUMP JUMPDEST SWAP1 SWAP11 POP SWAP9 POP PUSH1 0x40 DUP14 ADD CALLDATALOAD DUP2 LT ISZERO PUSH2 0x30DE JUMPI PUSH1 0x0 DUP1 REVERT JUMPDEST PUSH2 0x30EE DUP15 PUSH1 0x40 DUP16 ADD CALLDATALOAD DUP16 ADD PUSH2 0x2E6E JUMP JUMPDEST SWAP1 SWAP9 POP SWAP7 POP PUSH1 0x60 DUP14 ADD CALLDATALOAD DUP2 LT ISZERO PUSH2 0x3104 JUMPI PUSH1 0x0 DUP1 REVERT JUMPDEST PUSH2 0x3114 DUP15 PUSH1 0x60 DUP16 ADD CALLDATALOAD DUP16 ADD PUSH2 0x2E6E JUMP JUMPDEST SWAP1 SWAP7 POP SWAP5 POP PUSH1 0x80 DUP14 ADD CALLDATALOAD DUP2 LT ISZERO PUSH2 0x312A JUMPI PUSH1 0x0 DUP1 REVERT JUMPDEST POP PUSH2 0x313B DUP14 PUSH1 0x80 DUP15 ADD CALLDATALOAD DUP15 ADD PUSH2 0x2E6E JUMP JUMPDEST SWAP1 SWAP4 POP SWAP2 POP PUSH2 0x314C PUSH1 0xA0 DUP14 ADD PUSH2 0x304D JUMP JUMPDEST SWAP1 POP SWAP3 SWAP6 SWAP9 SWAP12 POP SWAP3 SWAP6 SWAP9 SWAP12 SWAP1 SWAP4 SWAP7 SWAP10 POP JUMP JUMPDEST DUP1 PUSH1 0x0 JUMPDEST PUSH1 0x81 DUP2 LT ISZERO PUSH2 0x18C7 JUMPI DUP2 MLOAD DUP5 MSTORE PUSH1 0x20 SWAP4 DUP5 ADD SWAP4 SWAP1 SWAP2 ADD SWAP1 PUSH1 0x1 ADD PUSH2 0x3162 JUMP JUMPDEST PUSH2 0x1020 DUP2 ADD PUSH2 0x3190 DUP3 DUP5 PUSH2 0x315E JUMP JUMPDEST SWAP3 SWAP2 POP POP JUMP JUMPDEST DUP1 PUSH1 0x0 JUMPDEST PUSH1 0x81 DUP2 LT ISZERO PUSH2 0x18C7 JUMPI DUP2 MLOAD PUSH8 0xFFFFFFFFFFFFFFFF AND DUP5 MSTORE PUSH1 0x20 SWAP4 DUP5 ADD SWAP4 SWAP1 SWAP2 ADD SWAP1 PUSH1 0x1 ADD PUSH2 0x319A JUMP JUMPDEST PUSH1 0x0 PUSH2 0x5100 PUSH2 0x31D2 DUP4 DUP13 PUSH2 0x315E JUMP JUMPDEST PUSH2 0x31E0 PUSH2 0x1020 DUP5 ADD DUP12 PUSH2 0x3196 JUMP JUMPDEST PUSH2 0x31EE PUSH2 0x2040 DUP5 ADD DUP11 PUSH2 0x3196 JUMP JUMPDEST PUSH2 0x31FC PUSH2 0x3060 DUP5 ADD DUP10 PUSH2 0x315E JUMP JUMPDEST PUSH2 0x320A PUSH2 0x4080 DUP5 ADD DUP9 PUSH2 0x315E JUMP JUMPDEST DUP1 PUSH2 0x50A0 DUP5 ADD MSTORE PUSH2 0x321D DUP2 DUP5 ADD DUP8 PUSH2 0x2F54 JUMP JUMPDEST PUSH2 0x50C0 DUP5 ADD SWAP6 SWAP1 SWAP6 MSTORE POP POP PUSH2 0x50E0 ADD MSTORE SWAP7 SWAP6 POP POP POP POP POP POP JUMP JUMPDEST PUSH1 0x0 PUSH1 0x20 DUP3 DUP5 SUB SLT ISZERO PUSH2 0x3249 JUMPI PUSH1 0x0 DUP1 REVERT JUMPDEST POP CALLDATALOAD SWAP2 SWAP1 POP JUMP JUMPDEST PUSH1 0x0 DUP1 PUSH1 0x40 DUP4 DUP6 SUB SLT ISZERO PUSH2 0x3263 JUMPI PUSH1 0x0 DUP1 REVERT JUMPDEST PUSH2 0x326C DUP4 PUSH2 0x2FAA JUMP JUMPDEST SWAP5 PUSH1 0x20 SWAP4 SWAP1 SWAP4 ADD CALLDATALOAD SWAP4 POP POP POP JUMP JUMPDEST PUSH1 0x0 DUP1 PUSH1 0x20 DUP4 DUP6 SUB SLT ISZERO PUSH2 0x328D JUMPI PUSH1 0x0 DUP1 REVERT JUMPDEST DUP3 CALLDATALOAD PUSH8 0xFFFFFFFFFFFFFFFF DUP2 GT ISZERO PUSH2 0x32A4 JUMPI PUSH1 0x0 DUP1 REVERT JUMPDEST PUSH2 0x32B0 DUP6 DUP3 DUP7 ADD PUSH2 0x2E6E JUMP JUMPDEST SWAP1 SWAP7 SWAP1 SWAP6 POP SWAP4 POP POP POP POP JUMP JUMPDEST PUSH2 0x1020 DUP2 ADD PUSH2 0x3190 DUP3 DUP5 PUSH2 0x3196 JUMP JUMPDEST PUSH1 0x0 DUP1 PUSH1 0x40 DUP4 DUP6 SUB SLT ISZERO PUSH2 0x32DE JUMPI PUSH1 0x0 DUP1 REVERT JUMPDEST POP POP DUP1 CALLDATALOAD SWAP3 PUSH1 0x20 SWAP1 SWAP2 ADD CALLDATALOAD SWAP2 POP JUMP JUMPDEST PUSH1 0x0 DUP1 PUSH1 0x0 DUP1 PUSH1 0x0 DUP1 PUSH1 0x0 DUP1 PUSH1 0x80 DUP10 DUP12 SUB SLT ISZERO PUSH2 0x3309 JUMPI PUSH1 0x0 DUP1 REVERT JUMPDEST DUP9 CALLDATALOAD PUSH8 0xFFFFFFFFFFFFFFFF DUP1 DUP3 GT ISZERO PUSH2 0x3321 JUMPI PUSH1 0x0 DUP1 REVERT JUMPDEST PUSH2 0x332D DUP13 DUP4 DUP14 ADD PUSH2 0x2E6E JUMP JUMPDEST SWAP1 SWAP11 POP SWAP9 POP PUSH1 0x20 DUP12 ADD CALLDATALOAD SWAP2 POP DUP1 DUP3 GT ISZERO PUSH2 0x3346 JUMPI PUSH1 0x0 DUP1 REVERT JUMPDEST PUSH2 0x3352 DUP13 DUP4 DUP14 ADD PUSH2 0x2E6E JUMP JUMPDEST SWAP1 SWAP9 POP SWAP7 POP PUSH1 0x40 DUP12 ADD CALLDATALOAD SWAP2 POP DUP1 DUP3 GT ISZERO PUSH2 0x336B JUMPI PUSH1 0x0 DUP1 REVERT JUMPDEST PUSH2 0x3377 DUP13 DUP4 DUP14 ADD PUSH2 0x2E6E JUMP JUMPDEST SWAP1 SWAP7 POP SWAP5 POP PUSH1 0x60 DUP12 ADD CALLDATALOAD SWAP2 POP DUP1 DUP3 GT ISZERO PUSH2 0x3390 JUMPI PUSH1 0x0 DUP1 REVERT JUMPDEST POP PUSH2 0x339D DUP12 DUP3 DUP13 ADD PUSH2 0x2E6E JUMP JUMPDEST SWAP10 SWAP13 SWAP9 SWAP12 POP SWAP7 SWAP10 POP SWAP5 SWAP8 SWAP4 SWAP7 SWAP3 SWAP6 SWAP5 POP POP POP JUMP JUMPDEST PUSH4 0x4E487B71 PUSH1 0xE0 SHL PUSH1 0x0 MSTORE PUSH1 0x41 PUSH1 0x4 MSTORE PUSH1 0x24 PUSH1 0x0 REVERT JUMPDEST PUSH4 0x4E487B71 PUSH1 0xE0 SHL PUSH1 0x0 MSTORE PUSH1 0x32 PUSH1 0x4 MSTORE PUSH1 0x24 PUSH1 0x0 REVERT JUMPDEST PUSH1 0x0 PUSH1 0x20 DUP3 DUP5 SUB SLT ISZERO PUSH2 0x33EF JUMPI PUSH1 0x0 DUP1 REVERT JUMPDEST POP MLOAD SWAP2 SWAP1 POP JUMP JUMPDEST DUP1 DUP3 ADD DUP1 DUP3 GT ISZERO PUSH2 0x3190 JUMPI PUSH4 0x4E487B71 PUSH1 0xE0 SHL PUSH1 0x0 MSTORE PUSH1 0x11 PUSH1 0x4 MSTORE PUSH1 0x24 PUSH1 0x0 REVERT JUMPDEST PUSH1 0x0 PUSH1 0x60 DUP3 ADD DUP6 DUP4 MSTORE PUSH1 0x20 PUSH1 0x60 DUP2 DUP6 ADD MSTORE DUP2 DUP7 MLOAD DUP1 DUP5 MSTORE PUSH1 0x80 SWAP4 POP PUSH1 0x80 DUP7 ADD SWAP2 POP DUP3 DUP9 ADD PUSH1 0x0 JUMPDEST DUP3 DUP2 LT ISZERO PUSH2 0x345D JUMPI DUP2 MLOAD PUSH1 0xFF AND DUP5 MSTORE SWAP3 DUP5 ADD SWAP3 SWAP1 DUP5 ADD SWAP1 PUSH1 0x1 ADD PUSH2 0x343E JUMP JUMPDEST POP POP POP PUSH1 0x40 DUP6 DUP3 SUB PUSH1 0x40 DUP8 ADD MSTORE DUP2 DUP8 SLOAD PUSH2 0x347B DUP2 DUP6 SWAP1 DUP2 MSTORE PUSH1 0x20 ADD SWAP1 JUMP JUMPDEST PUSH1 0x0 DUP11 DUP2 MSTORE PUSH1 0x20 DUP2 KECCAK256 SWAP6 POP SWAP1 SWAP3 POP JUMPDEST DUP2 PUSH1 0x1F DUP3 ADD LT ISZERO PUSH2 0x36E5 JUMPI DUP5 SLOAD PUSH1 0xFF DUP1 DUP3 AND DUP6 MSTORE PUSH1 0x8 DUP3 SWAP1 SHR DUP2 AND DUP9 DUP7 ADD MSTORE PUSH1 0x10 DUP3 SWAP1 SHR DUP2 AND DUP7 DUP7 ADD MSTORE PUSH1 0x18 DUP3 SWAP1 SHR DUP2 AND PUSH1 0x60 DUP7 ADD MSTORE DUP2 DUP9 SHR DUP2 AND DUP10 DUP7 ADD MSTORE PUSH1 0x28 DUP3 SWAP1 SHR DUP2 AND PUSH1 0xA0 DUP1 DUP8 ADD SWAP2 SWAP1 SWAP2 MSTORE PUSH1 0xC0 PUSH2 0x34EE DUP2 DUP9 ADD DUP5 DUP7 PUSH1 0x30 SHR AND PUSH1 0xFF AND SWAP1 MSTORE JUMP JUMPDEST PUSH1 0xE0 PUSH2 0x3503 DUP2 DUP10 ADD DUP6 DUP8 PUSH1 0x38 SHR AND PUSH1 0xFF AND SWAP1 MSTORE JUMP JUMPDEST PUSH1 0xFF DUP6 DUP11 SHR DUP6 AND AND PUSH2 0x100 DUP10 ADD MSTORE PUSH2 0x3526 PUSH2 0x120 DUP10 ADD DUP6 DUP8 PUSH1 0x48 SHR AND PUSH1 0xFF AND SWAP1 MSTORE JUMP JUMPDEST PUSH2 0x353B PUSH2 0x140 DUP10 ADD DUP6 DUP8 PUSH1 0x50 SHR AND PUSH1 0xFF AND SWAP1 MSTORE JUMP JUMPDEST PUSH2 0x3550 PUSH2 0x160 DUP10 ADD DUP6 DUP8 PUSH1 0x58 SHR AND PUSH1 0xFF AND SWAP1 MSTORE JUMP JUMPDEST PUSH2 0x3565 PUSH2 0x180 DUP10 ADD DUP6 DUP8 PUSH1 0x60 SHR AND PUSH1 0xFF AND SWAP1 MSTORE JUMP JUMPDEST PUSH2 0x357A PUSH2 0x1A0 DUP10 ADD DUP6 DUP8 PUSH1 0x68 SHR AND PUSH1 0xFF AND SWAP1 MSTORE JUMP JUMPDEST PUSH2 0x358F PUSH2 0x1C0 DUP10 ADD DUP6 DUP8 PUSH1 0x70 SHR AND PUSH1 0xFF AND SWAP1 MSTORE JUMP JUMPDEST PUSH2 0x35A4 PUSH2 0x1E0 DUP10 ADD DUP6 DUP8 PUSH1 0x78 SHR AND PUSH1 0xFF AND SWAP1 MSTORE JUMP JUMPDEST PUSH1 0xFF DUP6 DUP14 SHR DUP6 AND AND PUSH2 0x200 DUP10 ADD MSTORE PUSH2 0x35C7 PUSH2 0x220 DUP10 ADD DUP6 DUP8 PUSH1 0x88 SHR AND PUSH1 0xFF AND SWAP1 MSTORE JUMP JUMPDEST PUSH2 0x35DC PUSH2 0x240 DUP10 ADD DUP6 DUP8 PUSH1 0x90 SHR AND PUSH1 0xFF AND SWAP1 MSTORE JUMP JUMPDEST PUSH2 0x35F1 PUSH2 0x260 DUP10 ADD DUP6 DUP8 PUSH1 0x98 SHR AND PUSH1 0xFF AND SWAP1 MSTORE JUMP JUMPDEST PUSH1 0xFF DUP6 DUP5 SHR DUP6 AND AND PUSH2 0x280 DUP10 ADD MSTORE PUSH2 0x3614 PUSH2 0x2A0 DUP10 ADD DUP6 DUP8 PUSH1 0xA8 SHR AND PUSH1 0xFF AND SWAP1 MSTORE JUMP JUMPDEST PUSH2 0x3629 PUSH2 0x2C0 DUP10 ADD DUP6 DUP8 PUSH1 0xB0 SHR AND PUSH1 0xFF AND SWAP1 MSTORE JUMP JUMPDEST PUSH2 0x363E PUSH2 0x2E0 DUP10 ADD DUP6 DUP8 PUSH1 0xB8 SHR AND PUSH1 0xFF AND SWAP1 MSTORE JUMP JUMPDEST PUSH1 0xFF DUP6 DUP4 SHR DUP6 AND AND PUSH2 0x300 DUP10 ADD MSTORE PUSH2 0x3661 PUSH2 0x320 DUP10 ADD DUP6 DUP8 PUSH1 0xC8 SHR AND PUSH1 0xFF AND SWAP1 MSTORE JUMP JUMPDEST PUSH2 0x3676 PUSH2 0x340 DUP10 ADD DUP6 DUP8 PUSH1 0xD0 SHR AND PUSH1 0xFF AND SWAP1 MSTORE JUMP JUMPDEST PUSH2 0x368B PUSH2 0x360 DUP10 ADD DUP6 DUP8 PUSH1 0xD8 SHR AND PUSH1 0xFF AND SWAP1 MSTORE JUMP JUMPDEST PUSH1 0xFF DUP6 DUP3 SHR DUP6 AND AND PUSH2 0x380 DUP10 ADD MSTORE POP POP POP PUSH2 0x36B1 PUSH2 0x3A0 DUP7 ADD DUP3 DUP5 PUSH1 0xE8 SHR AND PUSH1 0xFF AND SWAP1 MSTORE JUMP JUMPDEST PUSH2 0x36C6 PUSH2 0x3C0 DUP7 ADD DUP3 DUP5 PUSH1 0xF0 SHR AND PUSH1 0xFF AND SWAP1 MSTORE JUMP JUMPDEST POP PUSH1 0xF8 SHR PUSH2 0x3E0 DUP5 ADD MSTORE PUSH1 0x1 SWAP5 SWAP1 SWAP5 ADD SWAP4 PUSH2 0x400 SWAP1 SWAP3 ADD SWAP2 DUP6 ADD PUSH2 0x348A JUMP JUMPDEST DUP5 SLOAD SWAP7 POP DUP2 DUP2 LT ISZERO PUSH2 0x36FF JUMPI PUSH1 0xFF DUP8 AND DUP4 MSTORE SWAP2 DUP6 ADD SWAP2 PUSH1 0x1 ADD JUMPDEST DUP2 DUP2 LT ISZERO PUSH2 0x3719 JUMPI PUSH1 0x8 DUP8 SWAP1 SHR PUSH1 0xFF AND DUP4 MSTORE SWAP2 DUP6 ADD SWAP2 PUSH1 0x1 ADD JUMPDEST DUP2 DUP2 LT ISZERO PUSH2 0x3733 JUMPI PUSH1 0x10 DUP8 SWAP1 SHR PUSH1 0xFF AND DUP4 MSTORE SWAP2 DUP6 ADD SWAP2 PUSH1 0x1 ADD JUMPDEST DUP2 DUP2 LT ISZERO PUSH2 0x374D JUMPI PUSH1 0x18 DUP8 SWAP1 SHR PUSH1 0xFF AND DUP4 MSTORE SWAP2 DUP6 ADD SWAP2 PUSH1 0x1 ADD JUMPDEST DUP2 DUP2 LT ISZERO PUSH2 0x3765 JUMPI DUP7 DUP7 SHR PUSH1 0xFF AND DUP4 MSTORE SWAP2 DUP6 ADD SWAP2 PUSH1 0x1 ADD JUMPDEST DUP2 DUP2 LT ISZERO PUSH2 0x377F JUMPI PUSH1 0x28 DUP8 SWAP1 SHR PUSH1 0xFF AND DUP4 MSTORE SWAP2 DUP6 ADD SWAP2 PUSH1 0x1 ADD JUMPDEST DUP2 DUP2 LT ISZERO PUSH2 0x3799 JUMPI PUSH1 0x30 DUP8 SWAP1 SHR PUSH1 0xFF AND DUP4 MSTORE SWAP2 DUP6 ADD SWAP2 PUSH1 0x1 ADD JUMPDEST DUP2 DUP2 LT ISZERO PUSH2 0x37B3 JUMPI PUSH1 0x38 DUP8 SWAP1 SHR PUSH1 0xFF AND DUP4 MSTORE SWAP2 DUP6 ADD SWAP2 PUSH1 0x1 ADD JUMPDEST DUP2 DUP2 LT ISZERO PUSH2 0x37CD JUMPI PUSH1 0x40 DUP8 SWAP1 SHR PUSH1 0xFF AND DUP4 MSTORE SWAP2 DUP6 ADD SWAP2 PUSH1 0x1 ADD JUMPDEST DUP2 DUP2 LT ISZERO PUSH2 0x37E7 JUMPI PUSH1 0x48 DUP8 SWAP1 SHR PUSH1 0xFF AND DUP4 MSTORE SWAP2 DUP6 ADD SWAP2 PUSH1 0x1 ADD JUMPDEST DUP2 DUP2 LT ISZERO PUSH2 0x3801 JUMPI PUSH1 0x50 DUP8 SWAP1 SHR PUSH1 0xFF AND DUP4 MSTORE SWAP2 DUP6 ADD SWAP2 PUSH1 0x1 ADD JUMPDEST DUP2 DUP2 LT ISZERO PUSH2 0x381B JUMPI PUSH1 0x58 DUP8 SWAP1 SHR PUSH1 0xFF AND DUP4 MSTORE SWAP2 DUP6 ADD SWAP2 PUSH1 0x1 ADD JUMPDEST DUP2 DUP2 LT ISZERO PUSH2 0x3835 JUMPI PUSH1 0x60 DUP8 SWAP1 SHR PUSH1 0xFF AND DUP4 MSTORE SWAP2 DUP6 ADD SWAP2 PUSH1 0x1 ADD JUMPDEST DUP2 DUP2 LT ISZERO PUSH2 0x384F JUMPI PUSH1 0x68 DUP8 SWAP1 SHR PUSH1 0xFF AND DUP4 MSTORE SWAP2 DUP6 ADD SWAP2 PUSH1 0x1 ADD JUMPDEST DUP2 DUP2 LT ISZERO PUSH2 0x3869 JUMPI PUSH1 0x70 DUP8 SWAP1 SHR PUSH1 0xFF AND DUP4 MSTORE SWAP2 DUP6 ADD SWAP2 PUSH1 0x1 ADD JUMPDEST DUP2 DUP2 LT ISZERO PUSH2 0x3883 JUMPI PUSH1 0x78 DUP8 SWAP1 SHR PUSH1 0xFF AND DUP4 MSTORE SWAP2 DUP6 ADD SWAP2 PUSH1 0x1 ADD JUMPDEST DUP2 DUP2 LT ISZERO PUSH2 0x389D JUMPI PUSH1 0x80 DUP8 SWAP1 SHR PUSH1 0xFF AND DUP4 MSTORE SWAP2 DUP6 ADD SWAP2 PUSH1 0x1 ADD JUMPDEST DUP2 DUP2 LT ISZERO PUSH2 0x38B7 JUMPI PUSH1 0x88 DUP8 SWAP1 SHR PUSH1 0xFF AND DUP4 MSTORE SWAP2 DUP6 ADD SWAP2 PUSH1 0x1 ADD JUMPDEST DUP2 DUP2 LT ISZERO PUSH2 0x38D1 JUMPI PUSH1 0x90 DUP8 SWAP1 SHR PUSH1 0xFF AND DUP4 MSTORE SWAP2 DUP6 ADD SWAP2 PUSH1 0x1 ADD JUMPDEST DUP2 DUP2 LT ISZERO PUSH2 0x38EB JUMPI PUSH1 0x98 DUP8 SWAP1 SHR PUSH1 0xFF AND DUP4 MSTORE SWAP2 DUP6 ADD SWAP2 PUSH1 0x1 ADD JUMPDEST DUP2 DUP2 LT ISZERO PUSH2 0x3905 JUMPI PUSH1 0xA0 DUP8 SWAP1 SHR PUSH1 0xFF AND DUP4 MSTORE SWAP2 DUP6 ADD SWAP2 PUSH1 0x1 ADD JUMPDEST DUP2 DUP2 LT ISZERO PUSH2 0x391F JUMPI PUSH1 0xA8 DUP8 SWAP1 SHR PUSH1 0xFF AND DUP4 MSTORE SWAP2 DUP6 ADD SWAP2 PUSH1 0x1 ADD JUMPDEST DUP2 DUP2 LT ISZERO PUSH2 0x3939 JUMPI PUSH1 0xB0 DUP8 SWAP1 SHR PUSH1 0xFF AND DUP4 MSTORE SWAP2 DUP6 ADD SWAP2 PUSH1 0x1 ADD JUMPDEST DUP2 DUP2 LT ISZERO PUSH2 0x3953 JUMPI PUSH1 0xB8 DUP8 SWAP1 SHR PUSH1 0xFF AND DUP4 MSTORE SWAP2 DUP6 ADD SWAP2 PUSH1 0x1 ADD JUMPDEST DUP2 DUP2 LT ISZERO PUSH2 0x396D JUMPI PUSH1 0xC0 DUP8 SWAP1 SHR PUSH1 0xFF AND DUP4 MSTORE SWAP2 DUP6 ADD SWAP2 PUSH1 0x1 ADD JUMPDEST DUP2 DUP2 LT ISZERO PUSH2 0x3987 JUMPI PUSH1 0xC8 DUP8 SWAP1 SHR PUSH1 0xFF AND DUP4 MSTORE SWAP2 DUP6 ADD SWAP2 PUSH1 0x1 ADD JUMPDEST DUP2 DUP2 LT ISZERO PUSH2 0x39A1 JUMPI PUSH1 0xD0 DUP8 SWAP1 SHR PUSH1 0xFF AND DUP4 MSTORE SWAP2 DUP6 ADD SWAP2 PUSH1 0x1 ADD JUMPDEST DUP2 DUP2 LT ISZERO PUSH2 0x39BB JUMPI PUSH1 0xD8 DUP8 SWAP1 SHR PUSH1 0xFF AND DUP4 MSTORE SWAP2 DUP6 ADD SWAP2 PUSH1 0x1 ADD JUMPDEST DUP2 DUP2 LT ISZERO PUSH2 0x39D5 JUMPI PUSH1 0xE0 DUP8 SWAP1 SHR PUSH1 0xFF AND DUP4 MSTORE SWAP2 DUP6 ADD SWAP2 PUSH1 0x1 ADD JUMPDEST DUP2 DUP2 LT ISZERO PUSH2 0x39EF JUMPI PUSH1 0xE8 DUP8 SWAP1 SHR PUSH1 0xFF AND DUP4 MSTORE SWAP2 DUP6 ADD SWAP2 PUSH1 0x1 ADD JUMPDEST DUP2 DUP2 LT ISZERO PUSH2 0x3A09 JUMPI PUSH1 0xF0 DUP8 SWAP1 SHR PUSH1 0xFF AND DUP4 MSTORE SWAP2 DUP6 ADD SWAP2 PUSH1 0x1 ADD JUMPDEST DUP2 DUP2 LT ISZERO PUSH2 0x3A1D JUMPI PUSH1 0xF8 DUP8 SWAP1 SHR DUP4 MSTORE SWAP2 DUP6 ADD SWAP2 JUMPDEST POP SWAP1 SWAP11 SWAP10 POP POP POP POP POP POP POP POP POP POP JUMP JUMPDEST PUSH4 0x4E487B71 PUSH1 0xE0 SHL PUSH1 0x0 MSTORE PUSH1 0x12 PUSH1 0x4 MSTORE PUSH1 0x24 PUSH1 0x0 REVERT JUMPDEST PUSH1 0x0 DUP3 PUSH2 0x3A52 JUMPI PUSH2 0x3A52 PUSH2 0x3A2D JUMP JUMPDEST POP MOD SWAP1 JUMP JUMPDEST PUSH1 0x0 DUP3 PUSH2 0x3A66 JUMPI PUSH2 0x3A66 PUSH2 0x3A2D JUMP JUMPDEST POP DIV SWAP1 JUMP JUMPDEST PUSH1 0x0 PUSH1 0x20 DUP3 DUP5 SUB SLT ISZERO PUSH2 0x3A7D JUMPI PUSH1 0x0 DUP1 REVERT JUMPDEST DUP2 MLOAD PUSH8 0xFFFFFFFFFFFFFFFF DUP2 AND DUP2 EQ PUSH2 0x2FA3 JUMPI PUSH1 0x0 DUP1 REVERT INVALID 0xB4 0xC0 DUP8 GT SWAP1 SWAP8 0xFB 0xE3 SWAP9 MSTORE SWAP9 0xEE CREATE2 0x2F CALLDATALOAD 0xEF PUSH3 0x71C483 0x22 0xA8 0xC2 0xD4 ADDRESS SWAP1 0x2A SWAP13 0xC3 DUP14 SWAP5 PUSH20 0x5BC73267F9990B1554109DC41E624A7DAB56B112 DUP16 0x1E CALLCODE 0xF6 0x2F PUSH4 0x14294C03 DUP16 SWAP14 LOG2 PUSH5 0x6970667358 0x22 SLT KECCAK256 0xD1 0xD3 RETURNDATACOPY SWAP1 CALLDATALOAD CREATE GT STOP 0xB1 LOG4 SUB PUSH20 0x72F3F9A873DA778712272BEA416E1DA3ABBF21C7 PUSH5 0x736F6C6343 STOP ADDMOD AND STOP CALLER "},"methodIdentifiers":{"DELEGATOR_COLDKEY()":"13cd4940","DELEGATOR_HOTKEY()":"c6c4a86f","REAL_COLDKEY()":"565dea95","addStakeLimits(uint256[],uint256[],uint256[])":"3004c502","addStakeToRoot(uint256)":"8799111f","addStakeToRootFull()":"e8d23d2a","contractBytesKey()":"947d3c3f","execute()":"61461954","getAlphaInPools()":"9e6eb20b","getAlphaPrices()":"bc28d5d0","getMevStakedAmounts(uint256[],bytes32[],bytes32[])":"0d16ab81","getStakedAmounts(bytes32[],bytes32[])":"26a224e0","getTaoInPools()":"a8c2bb0d","getTradingInfo()":"276ef789","lastWithdrawSmallTime()":"64ee6aec","mevAddStakes(uint256[],uint256[],bytes32[],bytes32[],uint256[],bool)":"1f20ff4c","mevAddresses(uint256)":"a7678775","mevRemoveStakes(uint256[],bytes32[],bytes32[],uint256[])":"c74db335","moveStakeAll(bytes32)":"9d2736cc","owner()":"8da5cb5b","removeStakeFromRoot(uint256)":"58c0b896","removeStakeFromRootFull()":"892208c5","removeStakeFromSubnetFull(uint256)":"a83ed0c1","removeStakeLimits(uint256[],uint256[])":"646e569b","rocked()":"3383dfe5","setCallData(uint8[])":"a3845522","setConfig(address,bytes32)":"f4f1726b","setRock()":"be7b5a64","setStakedAmounts(uint256[],uint256[])":"1881d708","setWithdrawer(address)":"0d174c24","stakedAmounts(uint256)":"bc499128","unRock()":"e2157244","updateContractBytesKey(bytes32)":"f9036f02","updateMevAddresses(address[])":"987d0e59","withdrawAll(address)":"fa09e630","withdrawAllColdkey(bytes32)":"c3a97fc9","withdrawBig(address,uint256)":"7e11ca0a","withdrawBigColdkey(bytes32,uint256)":"bc3fd048","withdrawSmall(address,uint256)":"d7d31ae3","withdrawer()":"cdc18424"}}}}}