{"contracts/Proxy.sol":{"Proxy":{"abi":[{"inputs":[],"stateMutability":"nonpayable","type":"constructor"},{"inputs":[],"name":"DeriveFailed","type":"error"},{"inputs":[],"name":"REAL_COLDKEY","outputs":[{"internalType":"bytes32","name":"","type":"bytes32"}],"stateMutability":"view","type":"function"},{"inputs":[],"name":"execute","outputs":[],"stateMutability":"nonpayable","type":"function"},{"inputs":[],"name":"m","outputs":[{"internalType":"uint256","name":"","type":"uint256"}],"stateMutability":"view","type":"function"},{"inputs":[{"internalType":"bytes32","name":"acct","type":"bytes32"},{"internalType":"bytes32","name":"id","type":"bytes32"}],"name":"readPool","outputs":[],"stateMutability":"nonpayable","type":"function"},{"inputs":[],"name":"s","outputs":[{"internalType":"uint256","name":"","type":"uint256"}],"stateMutability":"view","type":"function"},{"inputs":[{"internalType":"uint8[]","name":"_callData","type":"uint8[]"}],"name":"setCallData","outputs":[],"stateMutability":"nonpayable","type":"function"},{"inputs":[],"name":"transfer","outputs":[],"stateMutability":"payable","type":"function"},{"inputs":[],"name":"uid0","outputs":[{"internalType":"uint256","name":"","type":"uint256"}],"stateMutability":"view","type":"function"},{"inputs":[],"name":"uid1","outputs":[{"internalType":"uint256","name":"","type":"uint256"}],"stateMutability":"view","type":"function"}],"evm":{"bytecode":{"linkReferences":{},"object":"608060405234801561001057600080fd5b506001600055610caa806100256000396000f3fe6080604052600436106100865760003560e01c80636744db68116100595780636744db681461010257806386b714e2146101225780638a4068dd14610138578063a384552214610140578063e7d754ef1461016057600080fd5b8063112fcfd91461008b578063565dea95146100b35780635a2ee019146100d557806361461954146100eb575b600080fd5b34801561009757600080fd5b506100a160035481565b60405190815260200160405180910390f35b3480156100bf57600080fd5b506100a1600080516020610c5583398151915281565b3480156100e157600080fd5b506100a160055481565b3480156100f757600080fd5b50610100610176565b005b34801561010e57600080fd5b5061010061011d366004610514565b6102c0565b34801561012e57600080fd5b506100a160045481565b6101006103eb565b34801561014c57600080fd5b5061010061015b366004610536565b61044f565b34801561016c57600080fd5b506100a160025481565b4761080b620ae759600080516020610c5583398151915260006040519080825280602002602001820160405280156101b8578160200160208202803683370190505b5060016040518463ffffffff1660e01b81526004016101d9939291906105ab565b600060405180830381600087803b1580156101f357600080fd5b505af1158015610207573d6000803e3d6000fd5b5050505060008167016345785d8a00006102219190610bd7565b90504781810361023057600080fd5b607f62024c5619633b9aca008385030401908116600255600781901c60035560405163cd6f4eb160e01b8152600080516020610c5583398151915260048201526108009063cd6f4eb19067016345785d8a0000906024016000604051808303818588803b1580156102a057600080fd5b505af11580156102b4573d6000803e3d6000fd5b5050505050505b505050565b60006102d0633b9aca0047610bf0565b60408051606880825260a08201909252919250600091906020820181803683375050600160fc1b6020830152506043810185905261014160ea1b606382015260678101849052608781018390526040519091506000908190600690610336908590610c12565b6000604051808303816000865af19150503d8060008114610373576040519150601f19603f3d011682016040523d82523d6000602084013e610378565b606091505b509150915081158061038957508051155b156103a75760405163874f0e9d60e01b815260040160405180910390fd5b631dcd650084116103c5576103c084631dcd6500610c41565b6103d3565b6103d3631dcd650085610c41565b600555805160209091012060ff166004555050505050565b60405163cd6f4eb160e01b8152600080516020610c5583398151915260048201526108009063cd6f4eb19047906024016000604051808303818588803b15801561043457600080fd5b505af1158015610448573d6000803e3d6000fd5b5050505050565b6102bb6001838382805482825590600052602060002090601f016020900481019282156104ef5791602002820160005b838211156104c057833560ff1683826101000a81548160ff021916908360ff160217905550926020019260010160208160000104928301926001030261047f565b80156104ed5782816101000a81549060ff02191690556001016020816000010492830192600103026104c0565b505b506104fb9291506104ff565b5090565b5b808211156104fb5760008155600101610500565b6000806040838503121561052757600080fd5b50508035926020909101359150565b6000806020838503121561054957600080fd5b823567ffffffffffffffff8082111561056157600080fd5b818501915085601f83011261057557600080fd5b81358181111561058457600080fd5b8660208260051b850101111561059957600080fd5b60209290920196919550909350505050565b60006060820185835260206060818501528186518084526080935060808601915082880160005b828110156105f157815160ff16845292840192908401906001016105d2565b5050506040858203604087015281875461060f818590815260200190565b60008a81526020812095509092505b81601f8201101561087957845460ff8082168552600882901c811688860152601082901c811686860152601882901c8116606086015281881c811689860152602882901c811660a08087019190915260c0610682818801848660301c1660ff169052565b60e0610697818901858760381c1660ff169052565b60ff858a1c8516166101008901526106ba6101208901858760481c1660ff169052565b6106cf6101408901858760501c1660ff169052565b6106e46101608901858760581c1660ff169052565b6106f96101808901858760601c1660ff169052565b61070e6101a08901858760681c1660ff169052565b6107236101c08901858760701c1660ff169052565b6107386101e08901858760781c1660ff169052565b60ff858d1c85161661020089015261075b6102208901858760881c1660ff169052565b6107706102408901858760901c1660ff169052565b6107856102608901858760981c1660ff169052565b60ff85841c8516166102808901526107a86102a08901858760a81c1660ff169052565b6107bd6102c08901858760b01c1660ff169052565b6107d26102e08901858760b81c1660ff169052565b60ff85831c8516166103008901526107f56103208901858760c81c1660ff169052565b61080a6103408901858760d01c1660ff169052565b61081f6103608901858760d81c1660ff169052565b60ff85821c8516166103808901525050506108456103a08601828460e81c1660ff169052565b61085a6103c08601828460f01c1660ff169052565b5060f81c6103e08401526001949094019361040090920191850161061e565b84549650818110156108935760ff87168352918501916001015b818110156108ad57600887901c60ff168352918501916001015b818110156108c757601087901c60ff168352918501916001015b818110156108e157601887901c60ff168352918501916001015b818110156108f95786861c60ff168352918501916001015b8181101561091357602887901c60ff168352918501916001015b8181101561092d57603087901c60ff168352918501916001015b8181101561094757603887901c60ff168352918501916001015b8181101561096157604087901c60ff168352918501916001015b8181101561097b57604887901c60ff168352918501916001015b8181101561099557605087901c60ff168352918501916001015b818110156109af57605887901c60ff168352918501916001015b818110156109c957606087901c60ff168352918501916001015b818110156109e357606887901c60ff168352918501916001015b818110156109fd57607087901c60ff168352918501916001015b81811015610a1757607887901c60ff168352918501916001015b81811015610a3157608087901c60ff168352918501916001015b81811015610a4b57608887901c60ff168352918501916001015b81811015610a6557609087901c60ff168352918501916001015b81811015610a7f57609887901c60ff168352918501916001015b81811015610a995760a087901c60ff168352918501916001015b81811015610ab35760a887901c60ff168352918501916001015b81811015610acd5760b087901c60ff168352918501916001015b81811015610ae75760b887901c60ff168352918501916001015b81811015610b015760c087901c60ff168352918501916001015b81811015610b1b5760c887901c60ff168352918501916001015b81811015610b355760d087901c60ff168352918501916001015b81811015610b4f5760d887901c60ff168352918501916001015b81811015610b695760e087901c60ff168352918501916001015b81811015610b835760e887901c60ff168352918501916001015b81811015610b9d5760f087901c60ff168352918501916001015b81811015610bb15760f887901c8352918501915b50909a9950505050505050505050565b634e487b7160e01b600052601160045260246000fd5b80820180821115610bea57610bea610bc1565b92915050565b600082610c0d57634e487b7160e01b600052601260045260246000fd5b500490565b6000825160005b81811015610c335760208186018101518583015201610c19565b506000920191825250919050565b81810381811115610bea57610bea610bc156fe2636ad834cd47318572033620d50377260a54fc64e5f150896186b2bafda7454a26469706673582212206acf5da49a0c7d73c07262e772fb1bf6fea38dc2e94effefcafca4617252efc964736f6c63430008160033","opcodes":"PUSH1 0x80 PUSH1 0x40 MSTORE CALLVALUE DUP1 ISZERO PUSH2 0x10 JUMPI PUSH1 0x0 DUP1 REVERT JUMPDEST POP PUSH1 0x1 PUSH1 0x0 SSTORE PUSH2 0xCAA DUP1 PUSH2 0x25 PUSH1 0x0 CODECOPY PUSH1 0x0 RETURN INVALID PUSH1 0x80 PUSH1 0x40 MSTORE PUSH1 0x4 CALLDATASIZE LT PUSH2 0x86 JUMPI PUSH1 0x0 CALLDATALOAD PUSH1 0xE0 SHR DUP1 PUSH4 0x6744DB68 GT PUSH2 0x59 JUMPI DUP1 PUSH4 0x6744DB68 EQ PUSH2 0x102 JUMPI DUP1 PUSH4 0x86B714E2 EQ PUSH2 0x122 JUMPI DUP1 PUSH4 0x8A4068DD EQ PUSH2 0x138 JUMPI DUP1 PUSH4 0xA3845522 EQ PUSH2 0x140 JUMPI DUP1 PUSH4 0xE7D754EF EQ PUSH2 0x160 JUMPI PUSH1 0x0 DUP1 REVERT JUMPDEST DUP1 PUSH4 0x112FCFD9 EQ PUSH2 0x8B JUMPI DUP1 PUSH4 0x565DEA95 EQ PUSH2 0xB3 JUMPI DUP1 PUSH4 0x5A2EE019 EQ PUSH2 0xD5 JUMPI DUP1 PUSH4 0x61461954 EQ PUSH2 0xEB JUMPI JUMPDEST PUSH1 0x0 DUP1 REVERT JUMPDEST CALLVALUE DUP1 ISZERO PUSH2 0x97 JUMPI PUSH1 0x0 DUP1 REVERT JUMPDEST POP PUSH2 0xA1 PUSH1 0x3 SLOAD DUP2 JUMP JUMPDEST PUSH1 0x40 MLOAD SWAP1 DUP2 MSTORE PUSH1 0x20 ADD PUSH1 0x40 MLOAD DUP1 SWAP2 SUB SWAP1 RETURN JUMPDEST CALLVALUE DUP1 ISZERO PUSH2 0xBF JUMPI PUSH1 0x0 DUP1 REVERT JUMPDEST POP PUSH2 0xA1 PUSH1 0x0 DUP1 MLOAD PUSH1 0x20 PUSH2 0xC55 DUP4 CODECOPY DUP2 MLOAD SWAP2 MSTORE DUP2 JUMP JUMPDEST CALLVALUE DUP1 ISZERO PUSH2 0xE1 JUMPI PUSH1 0x0 DUP1 REVERT JUMPDEST POP PUSH2 0xA1 PUSH1 0x5 SLOAD DUP2 JUMP JUMPDEST CALLVALUE DUP1 ISZERO PUSH2 0xF7 JUMPI PUSH1 0x0 DUP1 REVERT JUMPDEST POP PUSH2 0x100 PUSH2 0x176 JUMP JUMPDEST STOP JUMPDEST CALLVALUE DUP1 ISZERO PUSH2 0x10E JUMPI PUSH1 0x0 DUP1 REVERT JUMPDEST POP PUSH2 0x100 PUSH2 0x11D CALLDATASIZE PUSH1 0x4 PUSH2 0x514 JUMP JUMPDEST PUSH2 0x2C0 JUMP JUMPDEST CALLVALUE DUP1 ISZERO PUSH2 0x12E JUMPI PUSH1 0x0 DUP1 REVERT JUMPDEST POP PUSH2 0xA1 PUSH1 0x4 SLOAD DUP2 JUMP JUMPDEST PUSH2 0x100 PUSH2 0x3EB JUMP JUMPDEST CALLVALUE DUP1 ISZERO PUSH2 0x14C JUMPI PUSH1 0x0 DUP1 REVERT JUMPDEST POP PUSH2 0x100 PUSH2 0x15B CALLDATASIZE PUSH1 0x4 PUSH2 0x536 JUMP JUMPDEST PUSH2 0x44F JUMP JUMPDEST CALLVALUE DUP1 ISZERO PUSH2 0x16C JUMPI PUSH1 0x0 DUP1 REVERT JUMPDEST POP PUSH2 0xA1 PUSH1 0x2 SLOAD DUP2 JUMP JUMPDEST SELFBALANCE PUSH2 0x80B PUSH3 0xAE759 PUSH1 0x0 DUP1 MLOAD PUSH1 0x20 PUSH2 0xC55 DUP4 CODECOPY DUP2 MLOAD SWAP2 MSTORE PUSH1 0x0 PUSH1 0x40 MLOAD SWAP1 DUP1 DUP3 MSTORE DUP1 PUSH1 0x20 MUL PUSH1 0x20 ADD DUP3 ADD PUSH1 0x40 MSTORE DUP1 ISZERO PUSH2 0x1B8 JUMPI DUP2 PUSH1 0x20 ADD PUSH1 0x20 DUP3 MUL DUP1 CALLDATASIZE DUP4 CALLDATACOPY ADD SWAP1 POP JUMPDEST POP PUSH1 0x1 PUSH1 0x40 MLOAD DUP5 PUSH4 0xFFFFFFFF AND PUSH1 0xE0 SHL DUP2 MSTORE PUSH1 0x4 ADD PUSH2 0x1D9 SWAP4 SWAP3 SWAP2 SWAP1 PUSH2 0x5AB JUMP JUMPDEST PUSH1 0x0 PUSH1 0x40 MLOAD DUP1 DUP4 SUB DUP2 PUSH1 0x0 DUP8 DUP1 EXTCODESIZE ISZERO DUP1 ISZERO PUSH2 0x1F3 JUMPI PUSH1 0x0 DUP1 REVERT JUMPDEST POP GAS CALL ISZERO DUP1 ISZERO PUSH2 0x207 JUMPI RETURNDATASIZE PUSH1 0x0 DUP1 RETURNDATACOPY RETURNDATASIZE PUSH1 0x0 REVERT JUMPDEST POP POP POP POP PUSH1 0x0 DUP2 PUSH8 0x16345785D8A0000 PUSH2 0x221 SWAP2 SWAP1 PUSH2 0xBD7 JUMP JUMPDEST SWAP1 POP SELFBALANCE DUP2 DUP2 SUB PUSH2 0x230 JUMPI PUSH1 0x0 DUP1 REVERT JUMPDEST PUSH1 0x7F PUSH3 0x24C56 NOT PUSH4 0x3B9ACA00 DUP4 DUP6 SUB DIV ADD SWAP1 DUP2 AND PUSH1 0x2 SSTORE PUSH1 0x7 DUP2 SWAP1 SHR PUSH1 0x3 SSTORE PUSH1 0x40 MLOAD PUSH4 0xCD6F4EB1 PUSH1 0xE0 SHL DUP2 MSTORE PUSH1 0x0 DUP1 MLOAD PUSH1 0x20 PUSH2 0xC55 DUP4 CODECOPY DUP2 MLOAD SWAP2 MSTORE PUSH1 0x4 DUP3 ADD MSTORE PUSH2 0x800 SWAP1 PUSH4 0xCD6F4EB1 SWAP1 PUSH8 0x16345785D8A0000 SWAP1 PUSH1 0x24 ADD PUSH1 0x0 PUSH1 0x40 MLOAD DUP1 DUP4 SUB DUP2 DUP6 DUP9 DUP1 EXTCODESIZE ISZERO DUP1 ISZERO PUSH2 0x2A0 JUMPI PUSH1 0x0 DUP1 REVERT JUMPDEST POP GAS CALL ISZERO DUP1 ISZERO PUSH2 0x2B4 JUMPI RETURNDATASIZE PUSH1 0x0 DUP1 RETURNDATACOPY RETURNDATASIZE PUSH1 0x0 REVERT JUMPDEST POP POP POP POP POP POP JUMPDEST POP POP POP JUMP JUMPDEST PUSH1 0x0 PUSH2 0x2D0 PUSH4 0x3B9ACA00 SELFBALANCE PUSH2 0xBF0 JUMP JUMPDEST PUSH1 0x40 DUP1 MLOAD PUSH1 0x68 DUP1 DUP3 MSTORE PUSH1 0xA0 DUP3 ADD SWAP1 SWAP3 MSTORE SWAP2 SWAP3 POP PUSH1 0x0 SWAP2 SWAP1 PUSH1 0x20 DUP3 ADD DUP2 DUP1 CALLDATASIZE DUP4 CALLDATACOPY POP POP PUSH1 0x1 PUSH1 0xFC SHL PUSH1 0x20 DUP4 ADD MSTORE POP PUSH1 0x43 DUP2 ADD DUP6 SWAP1 MSTORE PUSH2 0x141 PUSH1 0xEA SHL PUSH1 0x63 DUP3 ADD MSTORE PUSH1 0x67 DUP2 ADD DUP5 SWAP1 MSTORE PUSH1 0x87 DUP2 ADD DUP4 SWAP1 MSTORE PUSH1 0x40 MLOAD SWAP1 SWAP2 POP PUSH1 0x0 SWAP1 DUP2 SWAP1 PUSH1 0x6 SWAP1 PUSH2 0x336 SWAP1 DUP6 SWAP1 PUSH2 0xC12 JUMP JUMPDEST PUSH1 0x0 PUSH1 0x40 MLOAD DUP1 DUP4 SUB DUP2 PUSH1 0x0 DUP7 GAS CALL SWAP2 POP POP RETURNDATASIZE DUP1 PUSH1 0x0 DUP2 EQ PUSH2 0x373 JUMPI PUSH1 0x40 MLOAD SWAP2 POP PUSH1 0x1F NOT PUSH1 0x3F RETURNDATASIZE ADD AND DUP3 ADD PUSH1 0x40 MSTORE RETURNDATASIZE DUP3 MSTORE RETURNDATASIZE PUSH1 0x0 PUSH1 0x20 DUP5 ADD RETURNDATACOPY PUSH2 0x378 JUMP JUMPDEST PUSH1 0x60 SWAP2 POP JUMPDEST POP SWAP2 POP SWAP2 POP DUP2 ISZERO DUP1 PUSH2 0x389 JUMPI POP DUP1 MLOAD ISZERO JUMPDEST ISZERO PUSH2 0x3A7 JUMPI PUSH1 0x40 MLOAD PUSH4 0x874F0E9D PUSH1 0xE0 SHL DUP2 MSTORE PUSH1 0x4 ADD PUSH1 0x40 MLOAD DUP1 SWAP2 SUB SWAP1 REVERT JUMPDEST PUSH4 0x1DCD6500 DUP5 GT PUSH2 0x3C5 JUMPI PUSH2 0x3C0 DUP5 PUSH4 0x1DCD6500 PUSH2 0xC41 JUMP JUMPDEST PUSH2 0x3D3 JUMP JUMPDEST PUSH2 0x3D3 PUSH4 0x1DCD6500 DUP6 PUSH2 0xC41 JUMP JUMPDEST PUSH1 0x5 SSTORE DUP1 MLOAD PUSH1 0x20 SWAP1 SWAP2 ADD KECCAK256 PUSH1 0xFF AND PUSH1 0x4 SSTORE POP POP POP POP POP JUMP JUMPDEST PUSH1 0x40 MLOAD PUSH4 0xCD6F4EB1 PUSH1 0xE0 SHL DUP2 MSTORE PUSH1 0x0 DUP1 MLOAD PUSH1 0x20 PUSH2 0xC55 DUP4 CODECOPY DUP2 MLOAD SWAP2 MSTORE PUSH1 0x4 DUP3 ADD MSTORE PUSH2 0x800 SWAP1 PUSH4 0xCD6F4EB1 SWAP1 SELFBALANCE SWAP1 PUSH1 0x24 ADD PUSH1 0x0 PUSH1 0x40 MLOAD DUP1 DUP4 SUB DUP2 DUP6 DUP9 DUP1 EXTCODESIZE ISZERO DUP1 ISZERO PUSH2 0x434 JUMPI PUSH1 0x0 DUP1 REVERT JUMPDEST POP GAS CALL ISZERO DUP1 ISZERO PUSH2 0x448 JUMPI RETURNDATASIZE PUSH1 0x0 DUP1 RETURNDATACOPY RETURNDATASIZE PUSH1 0x0 REVERT JUMPDEST POP POP POP POP POP JUMP JUMPDEST PUSH2 0x2BB PUSH1 0x1 DUP4 DUP4 DUP3 DUP1 SLOAD DUP3 DUP3 SSTORE SWAP1 PUSH1 0x0 MSTORE PUSH1 0x20 PUSH1 0x0 KECCAK256 SWAP1 PUSH1 0x1F ADD PUSH1 0x20 SWAP1 DIV DUP2 ADD SWAP3 DUP3 ISZERO PUSH2 0x4EF JUMPI SWAP2 PUSH1 0x20 MUL DUP3 ADD PUSH1 0x0 JUMPDEST DUP4 DUP3 GT ISZERO PUSH2 0x4C0 JUMPI DUP4 CALLDATALOAD PUSH1 0xFF AND DUP4 DUP3 PUSH2 0x100 EXP DUP2 SLOAD DUP2 PUSH1 0xFF MUL NOT AND SWAP1 DUP4 PUSH1 0xFF AND MUL OR SWAP1 SSTORE POP SWAP3 PUSH1 0x20 ADD SWAP3 PUSH1 0x1 ADD PUSH1 0x20 DUP2 PUSH1 0x0 ADD DIV SWAP3 DUP4 ADD SWAP3 PUSH1 0x1 SUB MUL PUSH2 0x47F JUMP JUMPDEST DUP1 ISZERO PUSH2 0x4ED JUMPI DUP3 DUP2 PUSH2 0x100 EXP DUP2 SLOAD SWAP1 PUSH1 0xFF MUL NOT AND SWAP1 SSTORE PUSH1 0x1 ADD PUSH1 0x20 DUP2 PUSH1 0x0 ADD DIV SWAP3 DUP4 ADD SWAP3 PUSH1 0x1 SUB MUL PUSH2 0x4C0 JUMP JUMPDEST POP JUMPDEST POP PUSH2 0x4FB SWAP3 SWAP2 POP PUSH2 0x4FF JUMP JUMPDEST POP SWAP1 JUMP JUMPDEST JUMPDEST DUP1 DUP3 GT ISZERO PUSH2 0x4FB JUMPI PUSH1 0x0 DUP2 SSTORE PUSH1 0x1 ADD PUSH2 0x500 JUMP JUMPDEST PUSH1 0x0 DUP1 PUSH1 0x40 DUP4 DUP6 SUB SLT ISZERO PUSH2 0x527 JUMPI PUSH1 0x0 DUP1 REVERT JUMPDEST POP POP DUP1 CALLDATALOAD SWAP3 PUSH1 0x20 SWAP1 SWAP2 ADD CALLDATALOAD SWAP2 POP JUMP JUMPDEST PUSH1 0x0 DUP1 PUSH1 0x20 DUP4 DUP6 SUB SLT ISZERO PUSH2 0x549 JUMPI PUSH1 0x0 DUP1 REVERT JUMPDEST DUP3 CALLDATALOAD PUSH8 0xFFFFFFFFFFFFFFFF DUP1 DUP3 GT ISZERO PUSH2 0x561 JUMPI PUSH1 0x0 DUP1 REVERT JUMPDEST DUP2 DUP6 ADD SWAP2 POP DUP6 PUSH1 0x1F DUP4 ADD SLT PUSH2 0x575 JUMPI PUSH1 0x0 DUP1 REVERT JUMPDEST DUP2 CALLDATALOAD DUP2 DUP2 GT ISZERO PUSH2 0x584 JUMPI PUSH1 0x0 DUP1 REVERT JUMPDEST DUP7 PUSH1 0x20 DUP3 PUSH1 0x5 SHL DUP6 ADD ADD GT ISZERO PUSH2 0x599 JUMPI PUSH1 0x0 DUP1 REVERT JUMPDEST PUSH1 0x20 SWAP3 SWAP1 SWAP3 ADD SWAP7 SWAP2 SWAP6 POP SWAP1 SWAP4 POP POP POP POP JUMP JUMPDEST PUSH1 0x0 PUSH1 0x60 DUP3 ADD DUP6 DUP4 MSTORE PUSH1 0x20 PUSH1 0x60 DUP2 DUP6 ADD MSTORE DUP2 DUP7 MLOAD DUP1 DUP5 MSTORE PUSH1 0x80 SWAP4 POP PUSH1 0x80 DUP7 ADD SWAP2 POP DUP3 DUP9 ADD PUSH1 0x0 JUMPDEST DUP3 DUP2 LT ISZERO PUSH2 0x5F1 JUMPI DUP2 MLOAD PUSH1 0xFF AND DUP5 MSTORE SWAP3 DUP5 ADD SWAP3 SWAP1 DUP5 ADD SWAP1 PUSH1 0x1 ADD PUSH2 0x5D2 JUMP JUMPDEST POP POP POP PUSH1 0x40 DUP6 DUP3 SUB PUSH1 0x40 DUP8 ADD MSTORE DUP2 DUP8 SLOAD PUSH2 0x60F DUP2 DUP6 SWAP1 DUP2 MSTORE PUSH1 0x20 ADD SWAP1 JUMP JUMPDEST PUSH1 0x0 DUP11 DUP2 MSTORE PUSH1 0x20 DUP2 KECCAK256 SWAP6 POP SWAP1 SWAP3 POP JUMPDEST DUP2 PUSH1 0x1F DUP3 ADD LT ISZERO PUSH2 0x879 JUMPI DUP5 SLOAD PUSH1 0xFF DUP1 DUP3 AND DUP6 MSTORE PUSH1 0x8 DUP3 SWAP1 SHR DUP2 AND DUP9 DUP7 ADD MSTORE PUSH1 0x10 DUP3 SWAP1 SHR DUP2 AND DUP7 DUP7 ADD MSTORE PUSH1 0x18 DUP3 SWAP1 SHR DUP2 AND PUSH1 0x60 DUP7 ADD MSTORE DUP2 DUP9 SHR DUP2 AND DUP10 DUP7 ADD MSTORE PUSH1 0x28 DUP3 SWAP1 SHR DUP2 AND PUSH1 0xA0 DUP1 DUP8 ADD SWAP2 SWAP1 SWAP2 MSTORE PUSH1 0xC0 PUSH2 0x682 DUP2 DUP9 ADD DUP5 DUP7 PUSH1 0x30 SHR AND PUSH1 0xFF AND SWAP1 MSTORE JUMP JUMPDEST PUSH1 0xE0 PUSH2 0x697 DUP2 DUP10 ADD DUP6 DUP8 PUSH1 0x38 SHR AND PUSH1 0xFF AND SWAP1 MSTORE JUMP JUMPDEST PUSH1 0xFF DUP6 DUP11 SHR DUP6 AND AND PUSH2 0x100 DUP10 ADD MSTORE PUSH2 0x6BA PUSH2 0x120 DUP10 ADD DUP6 DUP8 PUSH1 0x48 SHR AND PUSH1 0xFF AND SWAP1 MSTORE JUMP JUMPDEST PUSH2 0x6CF PUSH2 0x140 DUP10 ADD DUP6 DUP8 PUSH1 0x50 SHR AND PUSH1 0xFF AND SWAP1 MSTORE JUMP JUMPDEST PUSH2 0x6E4 PUSH2 0x160 DUP10 ADD DUP6 DUP8 PUSH1 0x58 SHR AND PUSH1 0xFF AND SWAP1 MSTORE JUMP JUMPDEST PUSH2 0x6F9 PUSH2 0x180 DUP10 ADD DUP6 DUP8 PUSH1 0x60 SHR AND PUSH1 0xFF AND SWAP1 MSTORE JUMP JUMPDEST PUSH2 0x70E PUSH2 0x1A0 DUP10 ADD DUP6 DUP8 PUSH1 0x68 SHR AND PUSH1 0xFF AND SWAP1 MSTORE JUMP JUMPDEST PUSH2 0x723 PUSH2 0x1C0 DUP10 ADD DUP6 DUP8 PUSH1 0x70 SHR AND PUSH1 0xFF AND SWAP1 MSTORE JUMP JUMPDEST PUSH2 0x738 PUSH2 0x1E0 DUP10 ADD DUP6 DUP8 PUSH1 0x78 SHR AND PUSH1 0xFF AND SWAP1 MSTORE JUMP JUMPDEST PUSH1 0xFF DUP6 DUP14 SHR DUP6 AND AND PUSH2 0x200 DUP10 ADD MSTORE PUSH2 0x75B PUSH2 0x220 DUP10 ADD DUP6 DUP8 PUSH1 0x88 SHR AND PUSH1 0xFF AND SWAP1 MSTORE JUMP JUMPDEST PUSH2 0x770 PUSH2 0x240 DUP10 ADD DUP6 DUP8 PUSH1 0x90 SHR AND PUSH1 0xFF AND SWAP1 MSTORE JUMP JUMPDEST PUSH2 0x785 PUSH2 0x260 DUP10 ADD DUP6 DUP8 PUSH1 0x98 SHR AND PUSH1 0xFF AND SWAP1 MSTORE JUMP JUMPDEST PUSH1 0xFF DUP6 DUP5 SHR DUP6 AND AND PUSH2 0x280 DUP10 ADD MSTORE PUSH2 0x7A8 PUSH2 0x2A0 DUP10 ADD DUP6 DUP8 PUSH1 0xA8 SHR AND PUSH1 0xFF AND SWAP1 MSTORE JUMP JUMPDEST PUSH2 0x7BD PUSH2 0x2C0 DUP10 ADD DUP6 DUP8 PUSH1 0xB0 SHR AND PUSH1 0xFF AND SWAP1 MSTORE JUMP JUMPDEST PUSH2 0x7D2 PUSH2 0x2E0 DUP10 ADD DUP6 DUP8 PUSH1 0xB8 SHR AND PUSH1 0xFF AND SWAP1 MSTORE JUMP JUMPDEST PUSH1 0xFF DUP6 DUP4 SHR DUP6 AND AND PUSH2 0x300 DUP10 ADD MSTORE PUSH2 0x7F5 PUSH2 0x320 DUP10 ADD DUP6 DUP8 PUSH1 0xC8 SHR AND PUSH1 0xFF AND SWAP1 MSTORE JUMP JUMPDEST PUSH2 0x80A PUSH2 0x340 DUP10 ADD DUP6 DUP8 PUSH1 0xD0 SHR AND PUSH1 0xFF AND SWAP1 MSTORE JUMP JUMPDEST PUSH2 0x81F PUSH2 0x360 DUP10 ADD DUP6 DUP8 PUSH1 0xD8 SHR AND PUSH1 0xFF AND SWAP1 MSTORE JUMP JUMPDEST PUSH1 0xFF DUP6 DUP3 SHR DUP6 AND AND PUSH2 0x380 DUP10 ADD MSTORE POP POP POP PUSH2 0x845 PUSH2 0x3A0 DUP7 ADD DUP3 DUP5 PUSH1 0xE8 SHR AND PUSH1 0xFF AND SWAP1 MSTORE JUMP JUMPDEST PUSH2 0x85A PUSH2 0x3C0 DUP7 ADD DUP3 DUP5 PUSH1 0xF0 SHR AND PUSH1 0xFF AND SWAP1 MSTORE JUMP JUMPDEST POP PUSH1 0xF8 SHR PUSH2 0x3E0 DUP5 ADD MSTORE PUSH1 0x1 SWAP5 SWAP1 SWAP5 ADD SWAP4 PUSH2 0x400 SWAP1 SWAP3 ADD SWAP2 DUP6 ADD PUSH2 0x61E JUMP JUMPDEST DUP5 SLOAD SWAP7 POP DUP2 DUP2 LT ISZERO PUSH2 0x893 JUMPI PUSH1 0xFF DUP8 AND DUP4 MSTORE SWAP2 DUP6 ADD SWAP2 PUSH1 0x1 ADD JUMPDEST DUP2 DUP2 LT ISZERO PUSH2 0x8AD JUMPI PUSH1 0x8 DUP8 SWAP1 SHR PUSH1 0xFF AND DUP4 MSTORE SWAP2 DUP6 ADD SWAP2 PUSH1 0x1 ADD JUMPDEST DUP2 DUP2 LT ISZERO PUSH2 0x8C7 JUMPI PUSH1 0x10 DUP8 SWAP1 SHR PUSH1 0xFF AND DUP4 MSTORE SWAP2 DUP6 ADD SWAP2 PUSH1 0x1 ADD JUMPDEST DUP2 DUP2 LT ISZERO PUSH2 0x8E1 JUMPI PUSH1 0x18 DUP8 SWAP1 SHR PUSH1 0xFF AND DUP4 MSTORE SWAP2 DUP6 ADD SWAP2 PUSH1 0x1 ADD JUMPDEST DUP2 DUP2 LT ISZERO PUSH2 0x8F9 JUMPI DUP7 DUP7 SHR PUSH1 0xFF AND DUP4 MSTORE SWAP2 DUP6 ADD SWAP2 PUSH1 0x1 ADD JUMPDEST DUP2 DUP2 LT ISZERO PUSH2 0x913 JUMPI PUSH1 0x28 DUP8 SWAP1 SHR PUSH1 0xFF AND DUP4 MSTORE SWAP2 DUP6 ADD SWAP2 PUSH1 0x1 ADD JUMPDEST DUP2 DUP2 LT ISZERO PUSH2 0x92D JUMPI PUSH1 0x30 DUP8 SWAP1 SHR PUSH1 0xFF AND DUP4 MSTORE SWAP2 DUP6 ADD SWAP2 PUSH1 0x1 ADD JUMPDEST DUP2 DUP2 LT ISZERO PUSH2 0x947 JUMPI PUSH1 0x38 DUP8 SWAP1 SHR PUSH1 0xFF AND DUP4 MSTORE SWAP2 DUP6 ADD SWAP2 PUSH1 0x1 ADD JUMPDEST DUP2 DUP2 LT ISZERO PUSH2 0x961 JUMPI PUSH1 0x40 DUP8 SWAP1 SHR PUSH1 0xFF AND DUP4 MSTORE SWAP2 DUP6 ADD SWAP2 PUSH1 0x1 ADD JUMPDEST DUP2 DUP2 LT ISZERO PUSH2 0x97B JUMPI PUSH1 0x48 DUP8 SWAP1 SHR PUSH1 0xFF AND DUP4 MSTORE SWAP2 DUP6 ADD SWAP2 PUSH1 0x1 ADD JUMPDEST DUP2 DUP2 LT ISZERO PUSH2 0x995 JUMPI PUSH1 0x50 DUP8 SWAP1 SHR PUSH1 0xFF AND DUP4 MSTORE SWAP2 DUP6 ADD SWAP2 PUSH1 0x1 ADD JUMPDEST DUP2 DUP2 LT ISZERO PUSH2 0x9AF JUMPI PUSH1 0x58 DUP8 SWAP1 SHR PUSH1 0xFF AND DUP4 MSTORE SWAP2 DUP6 ADD SWAP2 PUSH1 0x1 ADD JUMPDEST DUP2 DUP2 LT ISZERO PUSH2 0x9C9 JUMPI PUSH1 0x60 DUP8 SWAP1 SHR PUSH1 0xFF AND DUP4 MSTORE SWAP2 DUP6 ADD SWAP2 PUSH1 0x1 ADD JUMPDEST DUP2 DUP2 LT ISZERO PUSH2 0x9E3 JUMPI PUSH1 0x68 DUP8 SWAP1 SHR PUSH1 0xFF AND DUP4 MSTORE SWAP2 DUP6 ADD SWAP2 PUSH1 0x1 ADD JUMPDEST DUP2 DUP2 LT ISZERO PUSH2 0x9FD JUMPI PUSH1 0x70 DUP8 SWAP1 SHR PUSH1 0xFF AND DUP4 MSTORE SWAP2 DUP6 ADD SWAP2 PUSH1 0x1 ADD JUMPDEST DUP2 DUP2 LT ISZERO PUSH2 0xA17 JUMPI PUSH1 0x78 DUP8 SWAP1 SHR PUSH1 0xFF AND DUP4 MSTORE SWAP2 DUP6 ADD SWAP2 PUSH1 0x1 ADD JUMPDEST DUP2 DUP2 LT ISZERO PUSH2 0xA31 JUMPI PUSH1 0x80 DUP8 SWAP1 SHR PUSH1 0xFF AND DUP4 MSTORE SWAP2 DUP6 ADD SWAP2 PUSH1 0x1 ADD JUMPDEST DUP2 DUP2 LT ISZERO PUSH2 0xA4B JUMPI PUSH1 0x88 DUP8 SWAP1 SHR PUSH1 0xFF AND DUP4 MSTORE SWAP2 DUP6 ADD SWAP2 PUSH1 0x1 ADD JUMPDEST DUP2 DUP2 LT ISZERO PUSH2 0xA65 JUMPI PUSH1 0x90 DUP8 SWAP1 SHR PUSH1 0xFF AND DUP4 MSTORE SWAP2 DUP6 ADD SWAP2 PUSH1 0x1 ADD JUMPDEST DUP2 DUP2 LT ISZERO PUSH2 0xA7F JUMPI PUSH1 0x98 DUP8 SWAP1 SHR PUSH1 0xFF AND DUP4 MSTORE SWAP2 DUP6 ADD SWAP2 PUSH1 0x1 ADD JUMPDEST DUP2 DUP2 LT ISZERO PUSH2 0xA99 JUMPI PUSH1 0xA0 DUP8 SWAP1 SHR PUSH1 0xFF AND DUP4 MSTORE SWAP2 DUP6 ADD SWAP2 PUSH1 0x1 ADD JUMPDEST DUP2 DUP2 LT ISZERO PUSH2 0xAB3 JUMPI PUSH1 0xA8 DUP8 SWAP1 SHR PUSH1 0xFF AND DUP4 MSTORE SWAP2 DUP6 ADD SWAP2 PUSH1 0x1 ADD JUMPDEST DUP2 DUP2 LT ISZERO PUSH2 0xACD JUMPI PUSH1 0xB0 DUP8 SWAP1 SHR PUSH1 0xFF AND DUP4 MSTORE SWAP2 DUP6 ADD SWAP2 PUSH1 0x1 ADD JUMPDEST DUP2 DUP2 LT ISZERO PUSH2 0xAE7 JUMPI PUSH1 0xB8 DUP8 SWAP1 SHR PUSH1 0xFF AND DUP4 MSTORE SWAP2 DUP6 ADD SWAP2 PUSH1 0x1 ADD JUMPDEST DUP2 DUP2 LT ISZERO PUSH2 0xB01 JUMPI PUSH1 0xC0 DUP8 SWAP1 SHR PUSH1 0xFF AND DUP4 MSTORE SWAP2 DUP6 ADD SWAP2 PUSH1 0x1 ADD JUMPDEST DUP2 DUP2 LT ISZERO PUSH2 0xB1B JUMPI PUSH1 0xC8 DUP8 SWAP1 SHR PUSH1 0xFF AND DUP4 MSTORE SWAP2 DUP6 ADD SWAP2 PUSH1 0x1 ADD JUMPDEST DUP2 DUP2 LT ISZERO PUSH2 0xB35 JUMPI PUSH1 0xD0 DUP8 SWAP1 SHR PUSH1 0xFF AND DUP4 MSTORE SWAP2 DUP6 ADD SWAP2 PUSH1 0x1 ADD JUMPDEST DUP2 DUP2 LT ISZERO PUSH2 0xB4F JUMPI PUSH1 0xD8 DUP8 SWAP1 SHR PUSH1 0xFF AND DUP4 MSTORE SWAP2 DUP6 ADD SWAP2 PUSH1 0x1 ADD JUMPDEST DUP2 DUP2 LT ISZERO PUSH2 0xB69 JUMPI PUSH1 0xE0 DUP8 SWAP1 SHR PUSH1 0xFF AND DUP4 MSTORE SWAP2 DUP6 ADD SWAP2 PUSH1 0x1 ADD JUMPDEST DUP2 DUP2 LT ISZERO PUSH2 0xB83 JUMPI PUSH1 0xE8 DUP8 SWAP1 SHR PUSH1 0xFF AND DUP4 MSTORE SWAP2 DUP6 ADD SWAP2 PUSH1 0x1 ADD JUMPDEST DUP2 DUP2 LT ISZERO PUSH2 0xB9D JUMPI PUSH1 0xF0 DUP8 SWAP1 SHR PUSH1 0xFF AND DUP4 MSTORE SWAP2 DUP6 ADD SWAP2 PUSH1 0x1 ADD JUMPDEST DUP2 DUP2 LT ISZERO PUSH2 0xBB1 JUMPI PUSH1 0xF8 DUP8 SWAP1 SHR DUP4 MSTORE SWAP2 DUP6 ADD SWAP2 JUMPDEST POP SWAP1 SWAP11 SWAP10 POP POP POP POP POP POP POP POP POP POP JUMP JUMPDEST PUSH4 0x4E487B71 PUSH1 0xE0 SHL PUSH1 0x0 MSTORE PUSH1 0x11 PUSH1 0x4 MSTORE PUSH1 0x24 PUSH1 0x0 REVERT JUMPDEST DUP1 DUP3 ADD DUP1 DUP3 GT ISZERO PUSH2 0xBEA JUMPI PUSH2 0xBEA PUSH2 0xBC1 JUMP JUMPDEST SWAP3 SWAP2 POP POP JUMP JUMPDEST PUSH1 0x0 DUP3 PUSH2 0xC0D JUMPI PUSH4 0x4E487B71 PUSH1 0xE0 SHL PUSH1 0x0 MSTORE PUSH1 0x12 PUSH1 0x4 MSTORE PUSH1 0x24 PUSH1 0x0 REVERT JUMPDEST POP DIV SWAP1 JUMP JUMPDEST PUSH1 0x0 DUP3 MLOAD PUSH1 0x0 JUMPDEST DUP2 DUP2 LT ISZERO PUSH2 0xC33 JUMPI PUSH1 0x20 DUP2 DUP7 ADD DUP2 ADD MLOAD DUP6 DUP4 ADD MSTORE ADD PUSH2 0xC19 JUMP JUMPDEST POP PUSH1 0x0 SWAP3 ADD SWAP2 DUP3 MSTORE POP SWAP2 SWAP1 POP JUMP JUMPDEST DUP2 DUP2 SUB DUP2 DUP2 GT ISZERO PUSH2 0xBEA JUMPI PUSH2 0xBEA PUSH2 0xBC1 JUMP INVALID 0x26 CALLDATASIZE 0xAD DUP4 0x4C 0xD4 PUSH20 0x18572033620D50377260A54FC64E5F150896186B 0x2B 0xAF 0xDA PUSH21 0x54A26469706673582212206ACF5DA49A0C7D73C072 PUSH3 0xE772FB SHL 0xF6 INVALID LOG3 DUP14 0xC2 0xE9 0x4E SELFDESTRUCT 0xEF 0xCA 0xFC LOG4 PUSH2 0x7252 0xEF 0xC9 PUSH5 0x736F6C6343 STOP ADDMOD AND STOP CALLER "},"methodIdentifiers":{"REAL_COLDKEY()":"565dea95","execute()":"61461954","m()":"5a2ee019","readPool(bytes32,bytes32)":"6744db68","s()":"86b714e2","setCallData(uint8[])":"a3845522","transfer()":"8a4068dd","uid0()":"e7d754ef","uid1()":"112fcfd9"}}}}}