{"contracts/TradingV8_2.sol":{"TradingV8_2":{"abi":[{"inputs":[],"stateMutability":"nonpayable","type":"constructor"},{"inputs":[],"name":"AmountTooLarge","type":"error"},{"inputs":[],"name":"AmountZero","type":"error"},{"inputs":[],"name":"ArrayLengthMismatch","type":"error"},{"inputs":[],"name":"FunctionNotFound","type":"error"},{"inputs":[],"name":"InvalidAddress","type":"error"},{"inputs":[],"name":"InvalidBytesKey","type":"error"},{"inputs":[],"name":"NotOwner","type":"error"},{"inputs":[],"name":"NotOwnerOrWithdrawer","type":"error"},{"inputs":[],"name":"NotWithdrawer","type":"error"},{"inputs":[],"name":"OutsideWithdrawWindow","type":"error"},{"inputs":[],"name":"Rocked","type":"error"},{"inputs":[],"name":"TransferFailed","type":"error"},{"inputs":[],"name":"WithdrawTooSoon","type":"error"},{"stateMutability":"payable","type":"fallback"},{"inputs":[],"name":"DELEGATOR_COLDKEY","outputs":[{"internalType":"bytes32","name":"","type":"bytes32"}],"stateMutability":"view","type":"function"},{"inputs":[],"name":"DELEGATOR_HOTKEY","outputs":[{"internalType":"bytes32","name":"","type":"bytes32"}],"stateMutability":"view","type":"function"},{"inputs":[],"name":"REAL_COLDKEY","outputs":[{"internalType":"bytes32","name":"","type":"bytes32"}],"stateMutability":"view","type":"function"},{"inputs":[{"internalType":"uint256[]","name":"netuids","type":"uint256[]"},{"internalType":"uint256[]","name":"amounts","type":"uint256[]"},{"internalType":"uint256[]","name":"limitPrices","type":"uint256[]"}],"name":"addStakeLimits","outputs":[],"stateMutability":"nonpayable","type":"function"},{"inputs":[{"internalType":"uint256","name":"amount","type":"uint256"}],"name":"addStakeToRoot","outputs":[],"stateMutability":"nonpayable","type":"function"},{"inputs":[],"name":"addStakeToRootFull","outputs":[],"stateMutability":"nonpayable","type":"function"},{"inputs":[],"name":"delegatorId","outputs":[{"internalType":"bytes32","name":"","type":"bytes32"}],"stateMutability":"view","type":"function"},{"inputs":[],"name":"execute","outputs":[],"stateMutability":"nonpayable","type":"function"},{"inputs":[],"name":"getAlphaInPools","outputs":[{"internalType":"uint64[129]","name":"alphaInPools","type":"uint64[129]"}],"stateMutability":"view","type":"function"},{"inputs":[],"name":"getAlphaPrices","outputs":[{"internalType":"uint256[129]","name":"alphaPrices","type":"uint256[129]"}],"stateMutability":"view","type":"function"},{"inputs":[{"internalType":"bytes32[]","name":"hotkeys","type":"bytes32[]"},{"internalType":"bytes32[]","name":"coldkeys","type":"bytes32[]"}],"name":"getStakedAmounts","outputs":[{"internalType":"uint256[129]","name":"amounts","type":"uint256[129]"}],"stateMutability":"view","type":"function"},{"inputs":[],"name":"getTaoInPools","outputs":[{"internalType":"uint64[129]","name":"taoInPools","type":"uint64[129]"}],"stateMutability":"view","type":"function"},{"inputs":[{"internalType":"bytes32[]","name":"_mevColdkeyBytesKeys","type":"bytes32[]"}],"name":"getTradingInfo","outputs":[{"internalType":"uint256[129]","name":"alphaPrices","type":"uint256[129]"},{"internalType":"uint64[129]","name":"taoInPools","type":"uint64[129]"},{"internalType":"uint64[129]","name":"alphaInPools","type":"uint64[129]"},{"internalType":"uint256[129]","name":"_stakedPrices","type":"uint256[129]"},{"internalType":"uint256[129]","name":"stakedAmounts","type":"uint256[129]"},{"internalType":"uint256","name":"freeBalance","type":"uint256"},{"internalType":"uint256","name":"ownerBalance","type":"uint256"},{"internalType":"uint256[]","name":"init_taos","type":"uint256[]"}],"stateMutability":"view","type":"function"},{"inputs":[],"name":"lastWithdrawSmallTime","outputs":[{"internalType":"uint256","name":"","type":"uint256"}],"stateMutability":"view","type":"function"},{"inputs":[{"internalType":"uint256[]","name":"netuids","type":"uint256[]"},{"internalType":"uint256[]","name":"amounts","type":"uint256[]"},{"internalType":"bytes32[]","name":"_mevHotkeyBytesKeys","type":"bytes32[]"},{"internalType":"bytes32[]","name":"_mevColdkeyBytesKeys","type":"bytes32[]"},{"internalType":"uint256[]","name":"min_alphas","type":"uint256[]"},{"internalType":"uint256[]","name":"limit_pools","type":"uint256[]"},{"internalType":"bool","name":"is_mine_staked","type":"bool"}],"name":"mevAddStakes","outputs":[],"stateMutability":"nonpayable","type":"function"},{"inputs":[{"internalType":"uint256","name":"_netuid","type":"uint256"},{"internalType":"bytes32[]","name":"_mevColdkeyBytesKeys","type":"bytes32[]"},{"internalType":"uint256[]","name":"init_taos","type":"uint256[]"},{"internalType":"uint256","name":"init_pool","type":"uint256"}],"name":"mevRemoveStake","outputs":[],"stateMutability":"nonpayable","type":"function"},{"inputs":[{"internalType":"uint256[]","name":"netuids","type":"uint256[]"},{"internalType":"bytes32[]","name":"_mevColdkeyBytesKeys","type":"bytes32[]"},{"internalType":"uint256[]","name":"init_taos","type":"uint256[]"},{"internalType":"uint256[]","name":"init_pools","type":"uint256[]"}],"name":"mevRemoveStakes","outputs":[],"stateMutability":"nonpayable","type":"function"},{"inputs":[{"internalType":"bytes32","name":"destination_coldkey","type":"bytes32"}],"name":"moveStakeAll","outputs":[],"stateMutability":"nonpayable","type":"function"},{"inputs":[],"name":"owner","outputs":[{"internalType":"address","name":"","type":"address"}],"stateMutability":"view","type":"function"},{"inputs":[{"internalType":"uint256","name":"amount","type":"uint256"}],"name":"removeStakeFromRoot","outputs":[],"stateMutability":"nonpayable","type":"function"},{"inputs":[],"name":"removeStakeFromRootFull","outputs":[],"stateMutability":"nonpayable","type":"function"},{"inputs":[{"internalType":"uint256","name":"netuid","type":"uint256"}],"name":"removeStakeFromSubnetFull","outputs":[],"stateMutability":"nonpayable","type":"function"},{"inputs":[{"internalType":"uint256[]","name":"netuids","type":"uint256[]"},{"internalType":"uint256[]","name":"limitPrices","type":"uint256[]"}],"name":"removeStakeLimits","outputs":[],"stateMutability":"nonpayable","type":"function"},{"inputs":[],"name":"rocked","outputs":[{"internalType":"bool","name":"","type":"bool"}],"stateMutability":"view","type":"function"},{"inputs":[{"internalType":"address","name":"newWithdrawer","type":"address"},{"internalType":"bytes32","name":"newDelegatorColdkey","type":"bytes32"}],"name":"setConfig","outputs":[],"stateMutability":"nonpayable","type":"function"},{"inputs":[],"name":"setRock","outputs":[],"stateMutability":"nonpayable","type":"function"},{"inputs":[{"internalType":"uint256[]","name":"netuids","type":"uint256[]"},{"internalType":"uint256[]","name":"prices","type":"uint256[]"}],"name":"setStakedPrices","outputs":[],"stateMutability":"nonpayable","type":"function"},{"inputs":[{"internalType":"address","name":"newWithdrawer","type":"address"}],"name":"setWithdrawer","outputs":[],"stateMutability":"nonpayable","type":"function"},{"inputs":[{"internalType":"uint256","name":"","type":"uint256"}],"name":"stakedPrices","outputs":[{"internalType":"uint256","name":"","type":"uint256"}],"stateMutability":"view","type":"function"},{"inputs":[],"name":"unRock","outputs":[],"stateMutability":"nonpayable","type":"function"},{"inputs":[{"internalType":"address","name":"to","type":"address"}],"name":"withdrawAll","outputs":[],"stateMutability":"nonpayable","type":"function"},{"inputs":[{"internalType":"bytes32","name":"coldkey","type":"bytes32"}],"name":"withdrawAllColdkey","outputs":[],"stateMutability":"nonpayable","type":"function"},{"inputs":[{"internalType":"address","name":"to","type":"address"},{"internalType":"uint256","name":"amount","type":"uint256"}],"name":"withdrawBig","outputs":[],"stateMutability":"nonpayable","type":"function"},{"inputs":[{"internalType":"bytes32","name":"coldkey","type":"bytes32"},{"internalType":"uint256","name":"amount","type":"uint256"}],"name":"withdrawBigColdkey","outputs":[],"stateMutability":"nonpayable","type":"function"},{"inputs":[{"internalType":"uint256","name":"amount","type":"uint256"}],"name":"withdrawFee","outputs":[],"stateMutability":"nonpayable","type":"function"},{"inputs":[{"internalType":"address","name":"to","type":"address"},{"internalType":"uint256","name":"amount","type":"uint256"}],"name":"withdrawSmall","outputs":[],"stateMutability":"nonpayable","type":"function"},{"inputs":[],"name":"withdrawer","outputs":[{"internalType":"address","name":"","type":"address"}],"stateMutability":"view","type":"function"},{"stateMutability":"payable","type":"receive"}],"evm":{"bytecode":{"linkReferences":{},"object":"60c08060405234620001705763024a66cd60e11b815230600482015260208160248161080c5afa908115620001645760009162000101575b50608052608180546001600160a01b0319163390811790915560a0526040516133ab90816200017682396080518181816102b40152818161182201528181611f5c015281816127cd0152612c5f015260a05181818161031e0152818161073201528181610840015281816109f701528181610a5401528181610cc501528181610d5101528181610e73015281816112d201528181611368015281816113b20152818161145401528181611594015281816117f101528181611e7a0152818161203601526120c20152f35b9060203d6020116200015c575b601f8101601f191683016001600160401b038111848210176200014857602091849160405281010312620001455750513862000037565b80fd5b634e487b7160e01b83526041600452602483fd5b503d6200010e565b6040513d6000823e3d90fd5b600080fdfe61010080604052600436101561002b575b5036156100295760405163201f3fd360e11b8152600490fd5b005b60003560e01c9081630d174c24146124ef5750806313cd4940146124c657806326a224e0146123b65780632f7a58dc1461206d5780633004c50214611fcb578063305e333714611fa25780633383dfe514611f7f57806344a537f514611f44578063565dea9514611f0957806358c0b89614611e5f57806361461954146117de578063646e569b1461158257806364ee6aec146115645780637e11ca0a146114e35780638799111f14611439578063892208c5146113975780638da5cb5b14611352578063956a25cf146112c15780639d2736cc146112115780639e6eb20b146111e4578063a2045dc714610dda578063a83ed0c114610d36578063a8c2bb0d14610cfc578063aa7f228014610c00578063bc28d5d014610bc4578063bc3fd04814610b29578063be35761614610a34578063be7b5a64146109e4578063c3a97fc91461094b578063c6c4a86f14610922578063cdc18424146108f9578063d7d31ae31461080e578063e2157244146107df578063e8d23d2a14610717578063f4f1726b14610671578063fa09e6301461057e5763fa223349146101cf5738610010565b3461047e57602036600319011261047e576004356001600160401b03811161047e576101ff90369060040161255d565b61102060405161020e81612643565b36903761102060405161022081612643565b36903761102060405161023281612643565b36903761102060405161024481612643565b36903761102060405161025681612643565b36903761026161327b565b610269613113565b610271613066565b936040519461027f86612643565b61102036873760015b608181106104e057506040516371dacc7d60e11b815260008051602061333683398151915260048201527f00000000000000000000000000000000000000000000000000000000000000006024820152600060448201526020816064816108055afa90811561048b576000916104ae575b5086526040519095600080835b608182106104975750505061031a82612643565b47917f0000000000000000000000000000000000000000000000000000000000000000319361034888612b42565b9760005b8181106103f6578a61038a8b8b8b8b8b6103ab8c6103a08d6103956040519b8c9b8c996110208b6103836151009d8e81019f6125d7565b01906125ff565b6120408c01906125ff565b6130608a01906125d7565b6140808801906125d7565b6150a08601526150c08501526150e084015281518091526020615120840192019060005b8181106103dd575050500390f35b82518452859450602093840193909201916001016103cf565b6104058183859d96979d612680565b604051632b6589a360e01b81529035600482015260006024820152906020826044816108055afa801561048b57600090610453575b60019250610448828d612b74565b52019993929961034c565b506020823d602011610483575b8161046d6020938361265f565b8101031261047e576001915161043a565b600080fd5b3d9150610460565b6040513d6000823e3d90fd5b825481526001928301929190910190602001610306565b90506020813d6020116104d8575b816104c96020938361265f565b8101031261047e5751386102f9565b3d91506104bc565b6040516371dacc7d60e11b81526000805160206133368339815191526004820152600080516020613356833981519152602482015260448101829052906020826064816108055afa801561048b5760009061054b575b60019250610544828a612690565b5201610288565b506020823d602011610576575b816105656020938361265f565b8101031261047e5760019151610536565b3d9150610558565b3461047e57602036600319011261047e57610597612547565b60ff6083541661065f57610e1062015180420604600e8110908115610653575b50610641576081546001600160a01b0391908216330361062f5716801561061d574790811561060b57600080809381935af16105f1612aec565b50156105f957005b6040516312171d8360e31b8152600490fd5b6040516365e52d5160e11b8152600490fd5b60405163e6c4247b60e01b8152600490fd5b604051632d99bc8360e21b8152600490fd5b60405163cc1de8d960e01b8152600490fd5b601091501015826105b7565b60405163a62baeb760e01b8152600490fd5b3461047e57604036600319011261047e5761068a612547565b608154602435916001600160a01b03918216330361062f5716801561061d5781156107055773d689d29f7ea0c511f4dde84171b10d34078bb17c91823b1561047e57604460009283604051958694859363f4f1726b60e01b8552600485015260248401525af1801561048b576106fc57005b61002990612630565b60405163666b0c5d60e01b8152600490fd5b3461047e57600036600319011261047e5760018060a01b03807f00000000000000000000000000000000000000000000000000000000000000001633141590816107d0575b506107be5747801561060b5761080590813b1561047e57633b9aca006064600092836040519586948593631fc9b14160e01b855260008051602061333683398151915260048601520460248401528160448401525af1801561048b576106fc57005b604051630b4a87e760e11b8152600490fd5b9050608154163314158161075c565b3461047e57600036600319011261047e576081546001600160a01b0316330361062f576083805460ff19169055005b3461047e57604036600319011261047e57610827612547565b6024359060ff6083541661065f576001600160a01b03907f0000000000000000000000000000000000000000000000000000000000000000821633036108e75716801561061d57811561060b576714d1120d7b16000082116108d55760825461546081018091116108bf5742106108ad5760008080938193426082555af16105f1612aec565b60405163034932ef60e51b8152600490fd5b634e487b7160e01b600052601160045260246000fd5b604051630625040160e01b8152600490fd5b6040516330cd747160e01b8152600490fd5b3461047e57600036600319011261047e576081546040516001600160a01b039091168152602090f35b3461047e57600036600319011261047e5760206040516000805160206133368339815191528152f35b3461047e57602036600319011261047e5760043560ff6083541661065f57610e1062015180420604600e81109081156109d8575b50610641576081546001600160a01b0316330361062f578015610705574790811561060b57610800803b1561047e576024600092604051948593849263cd6f4eb160e01b845260048401525af1801561048b576106fc57005b6010915010158261097f565b3461047e57600036600319011261047e577f00000000000000000000000000000000000000000000000000000000000000006001600160a01b031633036108e7576083805460ff19166001179055005b3461047e57602036600319011261047e5760043560ff6083541661065f577f00000000000000000000000000000000000000000000000000000000000000006001600160a01b0316338190036108e757811561060b576714d1120d7b16000082116108d55760825461546081018091116108bf5742106108ad5742608255610805803b1561047e57600080916064604051809481936307d691e360e41b83526000805160206133368339815191526004840152633b9aca00890460248401528160448401525af1801561048b57600093849384938493610b1a575b505af16105f1612aec565b610b2390612630565b86610b0f565b3461047e57604036600319011261047e576004356024359060ff6083541661065f57610e1062015180420604600e8110908115610bb8575b50610641576081546001600160a01b0316330361062f57801561070557811561060b57610800803b1561047e576024600092604051948593849263cd6f4eb160e01b845260048401525af1801561048b576106fc57005b60109150101583610b61565b3461047e57600036600319011261047e57604051610be181612643565b6110208091369037610bf161327b565b610bfe60405180926125d7565bf35b3461047e5760e036600319011261047e576001600160401b0360043581811161047e57610c3190369060040161255d565b909160243581811161047e57610c4b90369060040161255d565b9160443581811161047e57610c6490369060040161255d565b60649291923582811161047e57610c7f90369060040161255d565b9160843584811161047e57610c9890369060040161255d565b95909460a43590811161047e57610cb390369060040161255d565b98909760c4359a8b15158c0361047e577f00000000000000000000000000000000000000000000000000000000000000006001600160a01b031633036108e7576100299c612b88565b3461047e57600036600319011261047e57604051610d1981612643565b6110208091369037610d29613113565b610bfe60405180926125ff565b3461047e57602036600319011261047e5760018060a01b03807f0000000000000000000000000000000000000000000000000000000000000000163314159081610dcb575b506107be57610805803b1561047e576000809160446040518094819363d4626bb960e01b8352600080516020613336833981519152600484015260043560248401525af1801561048b576106fc57005b90506081541633141581610d7b565b3461047e57608036600319011261047e576004356001600160401b03811161047e57610e0a90369060040161255d565b6024356001600160401b03811161047e57610e2990369060040161255d565b90916044356001600160401b03811161047e57610e4a90369060040161255d565b9190946064356001600160401b03811161047e57610e6c90369060040161255d565b90969095907f00000000000000000000000000000000000000000000000000000000000000006001600160a01b031633036108e757610eaa86612b42565b9460005b878110611146575050505060005b828110610ec557005b610ed0818484612680565b35610edc82888a612680565b3560405163c2ba9e8760e01b815261ffff831660048201526020816024816108085afa801561048b576001600160401b038391610f2293600091611117575b50166126ae565b9060005b888110610f3a575b50505050600101610ebc565b610f448189612b74565b5183118061110a575b806110f3575b610f5f57600101610f26565b505050906040516371dacc7d60e11b8152600080516020613336833981519152600482015260008051602061335683398151915260248201528260448201526020816064816108055afa90811561048b576000916110c1575b5080610fc7575b808293610f2e565b73d689d29f7ea0c511f4dde84171b10d34078bb17c3b1561047e5760405190632d67f0b960e01b825283600483015260248201526000816044818373d689d29f7ea0c511f4dde84171b10d34078bb17c5af1801561048b576110b2575b506040516369e38bc360e01b815261ffff831660048201526020816024816108085afa90811561048b57600091611080575b50608183101561106a576001925588610fbf565b634e487b7160e01b600052603260045260246000fd5b90506020813d6020116110aa575b8161109b6020938361265f565b8101031261047e575189611056565b3d915061108e565b6110bb90612630565b88611024565b90506020813d6020116110eb575b816110dc6020938361265f565b8101031261047e575189610fb8565b3d91506110cf565b506110fe8189612b74565b516107d0830410610f53565b506103e882048311610f4d565b611139915060203d60201161113f575b611131818361265f565b8101906126bb565b8d610f1b565b503d611127565b611151818385612680565b359061115e818a87612680565b604051632b6589a360e01b8152903560048201526000602482015260209081816044816108055afa91821561048b576000926111b4575b50506111a3906001936126ae565b6111ad828a612b74565b5201610eae565b90809250813d83116111dd575b6111cb818361265f565b8101031261047e5751826111a3611195565b503d6111c1565b3461047e57600036600319011261047e5760405161120181612643565b6110208091369037610d29613066565b3461047e57602036600319011261047e5760ff6083541661065f57610e1062015180420604600e81109081156112b5575b50610641576081546001600160a01b0316330361062f5773d689d29f7ea0c511f4dde84171b10d34078bb17c803b1561047e57600080916044604051809481936257c71b60e41b8352600435600484015260008051602061335683398151915260248401525af1801561048b576106fc57005b60109150101581611242565b3461047e576112cf3661258d565b907f00000000000000000000000000000000000000000000000000000000000000006001600160a01b031633036108e7578183036113405760005b83811061131357005b61131e818484612680565b359061132b818688612680565b3591608183101561106a57600192550161130a565b60405163512509d360e11b8152600490fd5b3461047e57600036600319011261047e576040517f00000000000000000000000000000000000000000000000000000000000000006001600160a01b03168152602090f35b3461047e57600036600319011261047e5760018060a01b03807f000000000000000000000000000000000000000000000000000000000000000016331415908161142a575b506107be57610805803b1561047e576000809160446040518094819363d4626bb960e01b835260008051602061333683398151915260048401528160248401525af1801561048b576106fc57005b905060815416331415816113dc565b3461047e57602036600319011261047e5760018060a01b03807f00000000000000000000000000000000000000000000000000000000000000001633141590816114d4575b506107be57610805803b1561047e5760008091606460405180948193631fc9b14160e01b8352600080516020613336833981519152600484015260043560248401528160448401525af1801561048b576106fc57005b9050608154163314158161147e565b3461047e57604036600319011261047e576114fc612547565b6024359060ff6083541661065f57610e1062015180420604600e8110908115611558575b50610641576081546001600160a01b0391908216330361062f5716801561061d57811561060b57600080809381935af16105f1612aec565b60109150101583611520565b3461047e57600036600319011261047e576020608254604051908152f35b3461047e576115903661258d565b92917f00000000000000000000000000000000000000000000000000000000000000006001600160a01b031633036108e7578381036113405760005b8181106115d557005b6115e0818386612680565b3561ffff8116906115f2838887612680565b6040516369e38bc360e01b8082526004820185905260209460249361080893903587828781885afa91821561048b576000926117af575b50111561163f575b5050505050506001016115cc565b6040516371dacc7d60e11b81526000805160206133368339815191526004820152600080516020613356833981519152858201526044808201879052929087816064816108055afa90811561048b57600091611782575b50806116a4575b5050611631565b73d689d29f7ea0c511f4dde84171b10d34078bb17c803b1561047e5760009485926040519687938492632d67f0b960e01b84528c60048501528b8401525af190811561048b5787938692611773575b506040519485938492835260048301525afa93841561048b57600094611743575b5050608182101561172f57505560018680808080808061169d565b634e487b7160e01b60009081526032600452fd5b9080929450813d831161176c575b61175b818361265f565b8101031261047e5751918880611714565b503d611751565b61177c90612630565b8d6116f3565b90508781813d83116117a8575b611799818361265f565b8101031261047e57518d611696565b503d61178f565b9091508781813d83116117d7575b6117c7818361265f565b8101031261047e5751908d611629565b503d6117bd565b3461047e57600036600319011261047e577f00000000000000000000000000000000000000000000000000000000000000006001600160a01b031633036108e757477f000000000000000000000000000000000000000000000000000000000000000090604051608081018181106001600160401b03821117611e495760009182916040526049815260208101906060368337601082538260218201538260228201537f2636ad834cd47318572033620d50377260a54fc64e5f150896186b2bafda7454602382015260016043820153826044820153600560458201536004604682015382604782015385604882015282606882015351908260065af16118e3612aec565b501561047e578067016345785d8a000001908167016345785d8a0000116108bf574791820361191157600080fd5b633b9aca009167016345785d8a000091030104906201fefc198201916080831115600014611b005750506040516371dacc7d60e11b815260008051602061333683398151915260048201526000805160206133568339815191526024820152604481018290526020816064816108055afa90811561048b57600091611ace575b50806119f8575b50505b610800803b1561047e57600067016345785d8a00009160246040518094819363cd6f4eb160e01b83527f2636ad834cd47318572033620d50377260a54fc64e5f150896186b2bafda745460048401525af1801561048b576106fc57005b73d689d29f7ea0c511f4dde84171b10d34078bb17c90813b1561047e57600091604483926040519485938492632d67f0b960e01b845288600485015260248401525af1801561048b57611abf575b506040516369e38bc360e01b815261ffff82166004820152906020826024816108085afa91821561048b57600092611a8b575b50608181101561106a57558080611998565b9091506020813d602011611ab7575b81611aa76020938361265f565b8101031261047e57519082611a79565b3d9150611a9a565b611ac890612630565b81611a46565b90506020813d602011611af8575b81611ae96020938361265f565b8101031261047e575182611991565b3d9150611adc565b9091610100811115611b15575b50505061199b565b6201ff7c198201116108bf57604051916371dacc7d60e11b835260008051602061333683398151915260048401526024830152600060448301526020826064816108055afa91821561048b57600092611e15575b5064012a05f200808311611e0d575b50631dcd6500821061047e576040516371dacc7d60e11b8152600080516020613336833981519152600482015260008051602061335683398151915260248201526201ff7c1982016044820152916020836064816108055afa92831561048b57600093611dd9575b506108053b1561047e5760405190630be72fb160e11b825260008051602061335683398151915260048301526000805160206133368339815191526024830152600060448301526201ff7c1983016064830152608482015260008160a481836108055af1801561048b57611dca575b506040516369e38bc360e01b81526201ff7c19820161ffff166004820152916020836024816108085afa92831561048b57600093611d96575b5080611cae575060816201ff7c198201101561106a576201ff7c1901555b808080611b0d565b6040516371dacc7d60e11b8152600080516020613336833981519152600482015260008051602061335683398151915260248201526201ff7c198301604482015291929091906020826064816108055afa91821561048b57600092611d62575b5060816201ff7c198501101561106a5782611d4a611d5092611d44611d3d611d55976201ff7c198a01546126fa565b93866126ae565b906126fa565b906126a1565b6126da565b906201ff7c190155611ca6565b9091506020813d602011611d8e575b81611d7e6020938361265f565b8101031261047e57519084611d0e565b3d9150611d71565b9092506020813d602011611dc2575b81611db26020938361265f565b8101031261047e57519183611c88565b3d9150611da5565b611dd390612630565b82611c4f565b9092506020813d602011611e05575b81611df56020938361265f565b8101031261047e57519183611be0565b3d9150611de8565b915082611b78565b9091506020813d602011611e41575b81611e316020938361265f565b8101031261047e57519082611b69565b3d9150611e24565b634e487b7160e01b600052604160045260246000fd5b3461047e57602036600319011261047e5760018060a01b03807f0000000000000000000000000000000000000000000000000000000000000000163314159081611efa575b506107be57610805803b1561047e57600080916064604051809481936307d691e360e41b8352600080516020613336833981519152600484015260043560248401528160448401525af1801561048b576106fc57005b90506081541633141581611ea4565b3461047e57600036600319011261047e5760206040517f2636ad834cd47318572033620d50377260a54fc64e5f150896186b2bafda74548152f35b3461047e57600036600319011261047e5760206040517f00000000000000000000000000000000000000000000000000000000000000008152f35b3461047e57600036600319011261047e57602060ff608354166040519015158152f35b3461047e57602036600319011261047e57600435608181101561047e5760209054604051908152f35b3461047e57606036600319011261047e576001600160401b0360043581811161047e57611ffc90369060040161255d565b60249291923582811161047e5761201790369060040161255d565b909260443590811161047e5761203190369060040161255d565b9390927f00000000000000000000000000000000000000000000000000000000000000006001600160a01b031633036108e7576100299561270d565b3461047e57608036600319011261047e576024356001600160401b03811161047e5761209d90369060040161255d565b906044356001600160401b03811161047e576120bd90369060040161255d565b9290917f00000000000000000000000000000000000000000000000000000000000000006001600160a01b031633036108e75760005b8281106120fc57005b612107818484612680565b35612113828787612680565b3560405191632b6589a360e01b83526004830152600060248301526020826044816108055afa90811561048b57600091612380575b61215292506126ae565b60405163c2ba9e8760e01b81526004803561ffff16908201526020816024816108085afa801561048b5761219b91600091612361575b506001600160401b0360643591166126ae565b908082119182612351575b5081612341575b506121bb575b6001016120f3565b6040516371dacc7d60e11b81526000805160206133368339815191526004820152600080516020613356833981519152602482015260043560448201526020816064816108055afa90811561048b5760009161230f575b508061221f575b506121b3565b73d689d29f7ea0c511f4dde84171b10d34078bb17c3b1561047e5760405190632d67f0b960e01b8252600435600483015260248201526000816044818373d689d29f7ea0c511f4dde84171b10d34078bb17c5af1801561048b57612300575b506040516369e38bc360e01b81526004803561ffff1690820152906020826024816108085afa91821561048b576000926122cc575b506081600435101561106a576001916004355590612219565b9091506020813d6020116122f8575b816122e86020938361265f565b8101031261047e575190866122b3565b3d91506122db565b61230990612630565b8561227e565b90506020813d602011612339575b8161232a6020938361265f565b8101031261047e575186612212565b3d915061231d565b90506107d06064350410866121ad565b6103e860643504109150876121a6565b61237a915060203d60201161113f57611131818361265f565b88612188565b90506020823d6020116123ae575b8161239b6020938361265f565b8101031261047e57612152915190612148565b3d915061238e565b3461047e576123c43661258d565b919290604051926123d484612643565b61102094853686378181036113405760005b8181106123fc578686610bfe60405180926125d7565b612407818387612680565b35612413828587612680565b359060015b6081811061242b575050506001016123e6565b6040516371dacc7d60e11b81526004810183905260248101849052604481018290526020919082816064816108055afa92831561048b57600093612493575b505061248260019261247c838d612690565b516126a1565b61248c828c612690565b5201612418565b90809350813d83116124bf575b6124aa818361265f565b8101031261047e57612482600192519261246a565b503d6124a0565b3461047e57600036600319011261047e5760206040516000805160206133568339815191528152f35b3461047e57602036600319011261047e57612508612547565b608154916001600160a01b039190828416330361253857501690811561061d576001600160a01b03191617608155005b632d99bc8360e21b8152600490fd5b600435906001600160a01b038216820361047e57565b9181601f8401121561047e578235916001600160401b03831161047e576020808501948460051b01011161047e57565b604060031982011261047e576001600160401b039160043583811161047e57826125b99160040161255d565b9390939260243591821161047e576125d39160040161255d565b9091565b6000915b608183106125e857505050565b6001908251815260208091019201920191906125db565b6000915b6081831061261057505050565b6001906001600160401b0383511681526020809101920192019190612603565b6001600160401b038111611e4957604052565b61102081019081106001600160401b03821117611e4957604052565b90601f801991011681019081106001600160401b03821117611e4957604052565b919081101561106a5760051b0190565b90608181101561106a5760051b0190565b919082018092116108bf57565b919082039182116108bf57565b9081602091031261047e57516001600160401b038116810361047e5790565b81156126e4570490565b634e487b7160e01b600052601260045260246000fd5b818102929181159184041417156108bf57565b9294919394808214801590612ae2575b6113405760005b8281106127345750505050505050565b61273f818388612680565b359081612751575b6001915001612724565b61275c818588612680565b359161276982878b612680565b6040516369e38bc360e01b815261ffff8516600482015290356020826024816108085afa91821561048b57600092612aae575b5010156127aa575b50612747565b6040516371dacc7d60e11b815260008051602061333683398151915260048201527f0000000000000000000000000000000000000000000000000000000000000000602482015260006044820152906020826064816108055afa91821561048b57600092612a7a575b50808211612a72575b50631dcd65008110612a67576040516371dacc7d60e11b81526000805160206133368339815191526004820152600080516020613356833981519152602482015260448101849052906020826064816108055afa91821561048b57600092612a33575b506108053b1561047e5760405190630be72fb160e11b82526000805160206133568339815191526004830152600080516020613336833981519152602483015260006044830152846064830152608482015260008160a481836108055af1801561048b57612a24575b506040516369e38bc360e01b815261ffff84166004820152906020826024816108085afa91821561048b576000926129f0575b50806129365750608183101561106a57600192555b386127a4565b6040516371dacc7d60e11b815260008051602061333683398151915260048201526000805160206133568339815191526024820152604481018590529193916020816064816108055afa90811561048b576000916129bb575b50608183101561106a57611d5082611d4a600197611d44611d3d6129b49789546126fa565b9055612930565b906020823d6020116129e8575b816129d56020938361265f565b810103126129e55750513861298f565b80fd5b3d91506129c8565b90916020823d602011612a1c575b81612a0b6020938361265f565b810103126129e5575051903861291b565b3d91506129fe565b612a2d90612630565b386128e8565b90916020823d602011612a5f575b81612a4e6020938361265f565b810103126129e5575051903861287f565b3d9150612a41565b505050505050505050565b90503861281c565b90916020823d602011612aa6575b81612a956020938361265f565b810103126129e55750519038612813565b3d9150612a88565b90916020823d602011612ada575b81612ac96020938361265f565b810103126129e5575051903861279c565b3d9150612abc565b508282141561271d565b3d15612b26573d906001600160401b038211611e495760405191612b1a601f8201601f19166020018461265f565b82523d6000602084013e565b606090565b6001600160401b038111611e495760051b60200190565b90612b4c82612b2b565b612b59604051918261265f565b8281528092612b6a601f1991612b2b565b0190602036910137565b805182101561106a5760209160051b010190565b9b9291909a9893949596979a60e05260805260a05260c05260a05160e05103611340578483036113405760005b60e0518110612bca5750505050505050505050565b8089878787878f8897612be09160e05190612680565b359460c05160c051612fa7575b612f965786612c08969798612c0192612680565b35866131b7565b1580612f25575b612c20575b50600101985b98612bb5565b612c2f8260a051608051612680565b356040908151916371dacc7d60e11b918284526000805160206133368339815191529360049385858301526024957f0000000000000000000000000000000000000000000000000000000000000000878401526044936000858501526020926064916108059085878581855afa968715612e8357600097612ef6575b50808711612eee575b50631dcd65008610612ed757875196828852848a89015260008051602061335683398151915296878c8a01528c828a015286898681865afa988915612e9d57600099612ea8575b50823b1561047e57895190630be72fb160e11b8252888c830152868d8301526000838301528d86830152608482015260008160a48183875af18015612e9d579061ffff9d9c9b9a999897969594939291612e8e575b5088516369e38bc360e01b81529c8c168d8b0152858d8c816108085afa9c8d15612e835760009d612e54575b5087612db4575050505050505050506081831015612da1575050556001905b90612c14565b603290634e487b7160e01b600052526000fd5b908b86959493928a9d9e9b999c9a51988996879586528b8601528b8501528301525afa968715612e4a5750600096612e19575b50506081861015612da157505091611d5082611d4a8695611d44611d3d612e129760019b9a546126fa565b9055612d9b565b8181979293973d8311612e43575b612e31818361265f565b810103126129e5575051933880612de7565b503d612e27565b513d6000823e3d90fd5b909c8682813d8311612e7c575b612e6b818361265f565b810103126129e55750519b38612d7c565b503d612e61565b89513d6000823e3d90fd5b612e9790612630565b38612d50565b8a513d6000823e3d90fd5b90988782813d8311612ed0575b612ebf818361265f565b810103126129e55750519738612cfb565b503d612eb5565b505050505050505050505050505050505050505050565b955038612cb4565b90968682813d8311612f1e575b612f0d818361265f565b810103126129e55750519538612cab565b503d612f03565b50612f3182898b612680565b3560408051632d9bfc7160e01b815261ffff841660048201526020816024816108085afa918215612e4a5750906001600160401b0391600091612f77575b501610612c0f565b612f90915060203d60201161113f57611131818361265f565b38612f6f565b505050505050600191500198612c1a565b505050505050909150604080516371dacc7d60e11b8152600080516020613336833981519152600482015260008051602061335683398151915260248201528260448201526020816064816108055afa918215612e4a57508787878e889796958d9560009161301d575b50633b9aca0010612bed565b969798509450505050506020823d60201161305e575b816130406020938361265f565b810103126129e5575090878787878e633b9aca008998975190613011565b3d9150613033565b6040805161307381612643565b611020368237809260009060005b61ffff90818116608181101561310a57865163c2ba9e8760e01b81526004810182905260019291602080836024816108085afa92839189946130eb575b50506130ce575b50500116613081565b6130e06001600160401b039189612690565b9116905238806130c5565b613102929450803d1061113f57611131818361265f565b9138806130be565b50505092505050565b6040805161312081612643565b611020368237809260009060005b61ffff90818116608181101561310a578651632d9bfc7160e01b81526004810182905260019291602080836024816108085afa9283918994613198575b505061317b575b5050011661312e565b61318d6001600160401b039189612690565b911690523880613172565b6131af929450803d1061113f57611131818361265f565b91388061316b565b91949293909360005b8181106131d35750505050505050600090565b6131de818389612680565b356131ea828786612680565b604080516371dacc7d60e11b81526004810193909352903560248301526044820186905290602080826064816108055afa928315612e4a57509088929160009261324a575b50501161323e576001016131c0565b50505050505050600190565b90809350813d8311613274575b613261818361265f565b810103126129e55750869051388061322f565b503d613257565b6040906040519161328b83612643565b611020368437829160005b61ffff9081811690608182101561332c5784516369e38bc360e01b81526004810183905260209283826024816108085afa600092816132f5575b50600194506132e3575b50500116613296565b6132ed9089612690565b5238806132da565b919290939482813d8311613325575b61330e818361265f565b810103126129e557509060019392915191386132d0565b503d613304565b5050509192505056feb4c087119097fbe3985298eef52f35ef6271c48322a8c2d430902a9cc38d94735bc73267f9990b1554109dc41e624a7dab56b1128f1ef2f62f6314294c038f9da264697066735822122046f15cc5389e2cc5119204186a866c5189bebe92e58be462d5e9abc879eb87ca64736f6c63430008160033","opcodes":"PUSH1 0xC0 DUP1 PUSH1 0x40 MSTORE CALLVALUE PUSH3 0x170 JUMPI PUSH4 0x24A66CD PUSH1 0xE1 SHL DUP2 MSTORE ADDRESS PUSH1 0x4 DUP3 ADD MSTORE PUSH1 0x20 DUP2 PUSH1 0x24 DUP2 PUSH2 0x80C GAS STATICCALL SWAP1 DUP2 ISZERO PUSH3 0x164 JUMPI PUSH1 0x0 SWAP2 PUSH3 0x101 JUMPI JUMPDEST POP PUSH1 0x80 MSTORE PUSH1 0x81 DUP1 SLOAD PUSH1 0x1 PUSH1 0x1 PUSH1 0xA0 SHL SUB NOT AND CALLER SWAP1 DUP2 OR SWAP1 SWAP2 SSTORE PUSH1 0xA0 MSTORE PUSH1 0x40 MLOAD PUSH2 0x33AB SWAP1 DUP2 PUSH3 0x176 DUP3 CODECOPY PUSH1 0x80 MLOAD DUP2 DUP2 DUP2 PUSH2 0x2B4 ADD MSTORE DUP2 DUP2 PUSH2 0x1822 ADD MSTORE DUP2 DUP2 PUSH2 0x1F5C ADD MSTORE DUP2 DUP2 PUSH2 0x27CD ADD MSTORE PUSH2 0x2C5F ADD MSTORE PUSH1 0xA0 MLOAD DUP2 DUP2 DUP2 PUSH2 0x31E ADD MSTORE DUP2 DUP2 PUSH2 0x732 ADD MSTORE DUP2 DUP2 PUSH2 0x840 ADD MSTORE DUP2 DUP2 PUSH2 0x9F7 ADD MSTORE DUP2 DUP2 PUSH2 0xA54 ADD MSTORE DUP2 DUP2 PUSH2 0xCC5 ADD MSTORE DUP2 DUP2 PUSH2 0xD51 ADD MSTORE DUP2 DUP2 PUSH2 0xE73 ADD MSTORE DUP2 DUP2 PUSH2 0x12D2 ADD MSTORE DUP2 DUP2 PUSH2 0x1368 ADD MSTORE DUP2 DUP2 PUSH2 0x13B2 ADD MSTORE DUP2 DUP2 PUSH2 0x1454 ADD MSTORE DUP2 DUP2 PUSH2 0x1594 ADD MSTORE DUP2 DUP2 PUSH2 0x17F1 ADD MSTORE DUP2 DUP2 PUSH2 0x1E7A ADD MSTORE DUP2 DUP2 PUSH2 0x2036 ADD MSTORE PUSH2 0x20C2 ADD MSTORE RETURN JUMPDEST SWAP1 PUSH1 0x20 RETURNDATASIZE PUSH1 0x20 GT PUSH3 0x15C JUMPI JUMPDEST PUSH1 0x1F DUP2 ADD PUSH1 0x1F NOT AND DUP4 ADD PUSH1 0x1 PUSH1 0x1 PUSH1 0x40 SHL SUB DUP2 GT DUP5 DUP3 LT OR PUSH3 0x148 JUMPI PUSH1 0x20 SWAP2 DUP5 SWAP2 PUSH1 0x40 MSTORE DUP2 ADD SUB SLT PUSH3 0x145 JUMPI POP MLOAD CODESIZE PUSH3 0x37 JUMP JUMPDEST DUP1 REVERT JUMPDEST PUSH4 0x4E487B71 PUSH1 0xE0 SHL DUP4 MSTORE PUSH1 0x41 PUSH1 0x4 MSTORE PUSH1 0x24 DUP4 REVERT JUMPDEST POP RETURNDATASIZE PUSH3 0x10E JUMP JUMPDEST PUSH1 0x40 MLOAD RETURNDATASIZE PUSH1 0x0 DUP3 RETURNDATACOPY RETURNDATASIZE SWAP1 REVERT JUMPDEST PUSH1 0x0 DUP1 REVERT INVALID PUSH2 0x100 DUP1 PUSH1 0x40 MSTORE PUSH1 0x4 CALLDATASIZE LT ISZERO PUSH2 0x2B JUMPI JUMPDEST POP CALLDATASIZE ISZERO PUSH2 0x29 JUMPI PUSH1 0x40 MLOAD PUSH4 0x201F3FD3 PUSH1 0xE1 SHL DUP2 MSTORE PUSH1 0x4 SWAP1 REVERT JUMPDEST STOP JUMPDEST PUSH1 0x0 CALLDATALOAD PUSH1 0xE0 SHR SWAP1 DUP2 PUSH4 0xD174C24 EQ PUSH2 0x24EF JUMPI POP DUP1 PUSH4 0x13CD4940 EQ PUSH2 0x24C6 JUMPI DUP1 PUSH4 0x26A224E0 EQ PUSH2 0x23B6 JUMPI DUP1 PUSH4 0x2F7A58DC EQ PUSH2 0x206D JUMPI DUP1 PUSH4 0x3004C502 EQ PUSH2 0x1FCB JUMPI DUP1 PUSH4 0x305E3337 EQ PUSH2 0x1FA2 JUMPI DUP1 PUSH4 0x3383DFE5 EQ PUSH2 0x1F7F JUMPI DUP1 PUSH4 0x44A537F5 EQ PUSH2 0x1F44 JUMPI DUP1 PUSH4 0x565DEA95 EQ PUSH2 0x1F09 JUMPI DUP1 PUSH4 0x58C0B896 EQ PUSH2 0x1E5F JUMPI DUP1 PUSH4 0x61461954 EQ PUSH2 0x17DE JUMPI DUP1 PUSH4 0x646E569B EQ PUSH2 0x1582 JUMPI DUP1 PUSH4 0x64EE6AEC EQ PUSH2 0x1564 JUMPI DUP1 PUSH4 0x7E11CA0A EQ PUSH2 0x14E3 JUMPI DUP1 PUSH4 0x8799111F EQ PUSH2 0x1439 JUMPI DUP1 PUSH4 0x892208C5 EQ PUSH2 0x1397 JUMPI DUP1 PUSH4 0x8DA5CB5B EQ PUSH2 0x1352 JUMPI DUP1 PUSH4 0x956A25CF EQ PUSH2 0x12C1 JUMPI DUP1 PUSH4 0x9D2736CC EQ PUSH2 0x1211 JUMPI DUP1 PUSH4 0x9E6EB20B EQ PUSH2 0x11E4 JUMPI DUP1 PUSH4 0xA2045DC7 EQ PUSH2 0xDDA JUMPI DUP1 PUSH4 0xA83ED0C1 EQ PUSH2 0xD36 JUMPI DUP1 PUSH4 0xA8C2BB0D EQ PUSH2 0xCFC JUMPI DUP1 PUSH4 0xAA7F2280 EQ PUSH2 0xC00 JUMPI DUP1 PUSH4 0xBC28D5D0 EQ PUSH2 0xBC4 JUMPI DUP1 PUSH4 0xBC3FD048 EQ PUSH2 0xB29 JUMPI DUP1 PUSH4 0xBE357616 EQ PUSH2 0xA34 JUMPI DUP1 PUSH4 0xBE7B5A64 EQ PUSH2 0x9E4 JUMPI DUP1 PUSH4 0xC3A97FC9 EQ PUSH2 0x94B JUMPI DUP1 PUSH4 0xC6C4A86F EQ PUSH2 0x922 JUMPI DUP1 PUSH4 0xCDC18424 EQ PUSH2 0x8F9 JUMPI DUP1 PUSH4 0xD7D31AE3 EQ PUSH2 0x80E JUMPI DUP1 PUSH4 0xE2157244 EQ PUSH2 0x7DF JUMPI DUP1 PUSH4 0xE8D23D2A EQ PUSH2 0x717 JUMPI DUP1 PUSH4 0xF4F1726B EQ PUSH2 0x671 JUMPI DUP1 PUSH4 0xFA09E630 EQ PUSH2 0x57E JUMPI PUSH4 0xFA223349 EQ PUSH2 0x1CF JUMPI CODESIZE PUSH2 0x10 JUMP JUMPDEST CALLVALUE PUSH2 0x47E JUMPI PUSH1 0x20 CALLDATASIZE PUSH1 0x3 NOT ADD SLT PUSH2 0x47E JUMPI PUSH1 0x4 CALLDATALOAD PUSH1 0x1 PUSH1 0x1 PUSH1 0x40 SHL SUB DUP2 GT PUSH2 0x47E JUMPI PUSH2 0x1FF SWAP1 CALLDATASIZE SWAP1 PUSH1 0x4 ADD PUSH2 0x255D JUMP JUMPDEST PUSH2 0x1020 PUSH1 0x40 MLOAD PUSH2 0x20E DUP2 PUSH2 0x2643 JUMP JUMPDEST CALLDATASIZE SWAP1 CALLDATACOPY PUSH2 0x1020 PUSH1 0x40 MLOAD PUSH2 0x220 DUP2 PUSH2 0x2643 JUMP JUMPDEST CALLDATASIZE SWAP1 CALLDATACOPY PUSH2 0x1020 PUSH1 0x40 MLOAD PUSH2 0x232 DUP2 PUSH2 0x2643 JUMP JUMPDEST CALLDATASIZE SWAP1 CALLDATACOPY PUSH2 0x1020 PUSH1 0x40 MLOAD PUSH2 0x244 DUP2 PUSH2 0x2643 JUMP JUMPDEST CALLDATASIZE SWAP1 CALLDATACOPY PUSH2 0x1020 PUSH1 0x40 MLOAD PUSH2 0x256 DUP2 PUSH2 0x2643 JUMP JUMPDEST CALLDATASIZE SWAP1 CALLDATACOPY PUSH2 0x261 PUSH2 0x327B JUMP JUMPDEST PUSH2 0x269 PUSH2 0x3113 JUMP JUMPDEST PUSH2 0x271 PUSH2 0x3066 JUMP JUMPDEST SWAP4 PUSH1 0x40 MLOAD SWAP5 PUSH2 0x27F DUP7 PUSH2 0x2643 JUMP JUMPDEST PUSH2 0x1020 CALLDATASIZE DUP8 CALLDATACOPY PUSH1 0x1 JUMPDEST PUSH1 0x81 DUP2 LT PUSH2 0x4E0 JUMPI POP PUSH1 0x40 MLOAD PUSH4 0x71DACC7D PUSH1 0xE1 SHL DUP2 MSTORE PUSH1 0x0 DUP1 MLOAD PUSH1 0x20 PUSH2 0x3336 DUP4 CODECOPY DUP2 MLOAD SWAP2 MSTORE PUSH1 0x4 DUP3 ADD MSTORE PUSH32 0x0 PUSH1 0x24 DUP3 ADD MSTORE PUSH1 0x0 PUSH1 0x44 DUP3 ADD MSTORE PUSH1 0x20 DUP2 PUSH1 0x64 DUP2 PUSH2 0x805 GAS STATICCALL SWAP1 DUP2 ISZERO PUSH2 0x48B JUMPI PUSH1 0x0 SWAP2 PUSH2 0x4AE JUMPI JUMPDEST POP DUP7 MSTORE PUSH1 0x40 MLOAD SWAP1 SWAP6 PUSH1 0x0 DUP1 DUP4 JUMPDEST PUSH1 0x81 DUP3 LT PUSH2 0x497 JUMPI POP POP POP PUSH2 0x31A DUP3 PUSH2 0x2643 JUMP JUMPDEST SELFBALANCE SWAP2 PUSH32 0x0 BALANCE SWAP4 PUSH2 0x348 DUP9 PUSH2 0x2B42 JUMP JUMPDEST SWAP8 PUSH1 0x0 JUMPDEST DUP2 DUP2 LT PUSH2 0x3F6 JUMPI DUP11 PUSH2 0x38A DUP12 DUP12 DUP12 DUP12 DUP12 PUSH2 0x3AB DUP13 PUSH2 0x3A0 DUP14 PUSH2 0x395 PUSH1 0x40 MLOAD SWAP12 DUP13 SWAP12 DUP13 SWAP10 PUSH2 0x1020 DUP12 PUSH2 0x383 PUSH2 0x5100 SWAP14 DUP15 DUP2 ADD SWAP16 PUSH2 0x25D7 JUMP JUMPDEST ADD SWAP1 PUSH2 0x25FF JUMP JUMPDEST PUSH2 0x2040 DUP13 ADD SWAP1 PUSH2 0x25FF JUMP JUMPDEST PUSH2 0x3060 DUP11 ADD SWAP1 PUSH2 0x25D7 JUMP JUMPDEST PUSH2 0x4080 DUP9 ADD SWAP1 PUSH2 0x25D7 JUMP JUMPDEST PUSH2 0x50A0 DUP7 ADD MSTORE PUSH2 0x50C0 DUP6 ADD MSTORE PUSH2 0x50E0 DUP5 ADD MSTORE DUP2 MLOAD DUP1 SWAP2 MSTORE PUSH1 0x20 PUSH2 0x5120 DUP5 ADD SWAP3 ADD SWAP1 PUSH1 0x0 JUMPDEST DUP2 DUP2 LT PUSH2 0x3DD JUMPI POP POP POP SUB SWAP1 RETURN JUMPDEST DUP3 MLOAD DUP5 MSTORE DUP6 SWAP5 POP PUSH1 0x20 SWAP4 DUP5 ADD SWAP4 SWAP1 SWAP3 ADD SWAP2 PUSH1 0x1 ADD PUSH2 0x3CF JUMP JUMPDEST PUSH2 0x405 DUP2 DUP4 DUP6 SWAP14 SWAP7 SWAP8 SWAP14 PUSH2 0x2680 JUMP JUMPDEST PUSH1 0x40 MLOAD PUSH4 0x2B6589A3 PUSH1 0xE0 SHL DUP2 MSTORE SWAP1 CALLDATALOAD PUSH1 0x4 DUP3 ADD MSTORE PUSH1 0x0 PUSH1 0x24 DUP3 ADD MSTORE SWAP1 PUSH1 0x20 DUP3 PUSH1 0x44 DUP2 PUSH2 0x805 GAS STATICCALL DUP1 ISZERO PUSH2 0x48B JUMPI PUSH1 0x0 SWAP1 PUSH2 0x453 JUMPI JUMPDEST PUSH1 0x1 SWAP3 POP PUSH2 0x448 DUP3 DUP14 PUSH2 0x2B74 JUMP JUMPDEST MSTORE ADD SWAP10 SWAP4 SWAP3 SWAP10 PUSH2 0x34C JUMP JUMPDEST POP PUSH1 0x20 DUP3 RETURNDATASIZE PUSH1 0x20 GT PUSH2 0x483 JUMPI JUMPDEST DUP2 PUSH2 0x46D PUSH1 0x20 SWAP4 DUP4 PUSH2 0x265F JUMP JUMPDEST DUP2 ADD SUB SLT PUSH2 0x47E JUMPI PUSH1 0x1 SWAP2 MLOAD PUSH2 0x43A JUMP JUMPDEST PUSH1 0x0 DUP1 REVERT JUMPDEST RETURNDATASIZE SWAP2 POP PUSH2 0x460 JUMP JUMPDEST PUSH1 0x40 MLOAD RETURNDATASIZE PUSH1 0x0 DUP3 RETURNDATACOPY RETURNDATASIZE SWAP1 REVERT JUMPDEST DUP3 SLOAD DUP2 MSTORE PUSH1 0x1 SWAP3 DUP4 ADD SWAP3 SWAP2 SWAP1 SWAP2 ADD SWAP1 PUSH1 0x20 ADD PUSH2 0x306 JUMP JUMPDEST SWAP1 POP PUSH1 0x20 DUP2 RETURNDATASIZE PUSH1 0x20 GT PUSH2 0x4D8 JUMPI JUMPDEST DUP2 PUSH2 0x4C9 PUSH1 0x20 SWAP4 DUP4 PUSH2 0x265F JUMP JUMPDEST DUP2 ADD SUB SLT PUSH2 0x47E JUMPI MLOAD CODESIZE PUSH2 0x2F9 JUMP JUMPDEST RETURNDATASIZE SWAP2 POP PUSH2 0x4BC JUMP JUMPDEST PUSH1 0x40 MLOAD PUSH4 0x71DACC7D PUSH1 0xE1 SHL DUP2 MSTORE PUSH1 0x0 DUP1 MLOAD PUSH1 0x20 PUSH2 0x3336 DUP4 CODECOPY DUP2 MLOAD SWAP2 MSTORE PUSH1 0x4 DUP3 ADD MSTORE PUSH1 0x0 DUP1 MLOAD PUSH1 0x20 PUSH2 0x3356 DUP4 CODECOPY DUP2 MLOAD SWAP2 MSTORE PUSH1 0x24 DUP3 ADD MSTORE PUSH1 0x44 DUP2 ADD DUP3 SWAP1 MSTORE SWAP1 PUSH1 0x20 DUP3 PUSH1 0x64 DUP2 PUSH2 0x805 GAS STATICCALL DUP1 ISZERO PUSH2 0x48B JUMPI PUSH1 0x0 SWAP1 PUSH2 0x54B JUMPI JUMPDEST PUSH1 0x1 SWAP3 POP PUSH2 0x544 DUP3 DUP11 PUSH2 0x2690 JUMP JUMPDEST MSTORE ADD PUSH2 0x288 JUMP JUMPDEST POP PUSH1 0x20 DUP3 RETURNDATASIZE PUSH1 0x20 GT PUSH2 0x576 JUMPI JUMPDEST DUP2 PUSH2 0x565 PUSH1 0x20 SWAP4 DUP4 PUSH2 0x265F JUMP JUMPDEST DUP2 ADD SUB SLT PUSH2 0x47E JUMPI PUSH1 0x1 SWAP2 MLOAD PUSH2 0x536 JUMP JUMPDEST RETURNDATASIZE SWAP2 POP PUSH2 0x558 JUMP JUMPDEST CALLVALUE PUSH2 0x47E JUMPI PUSH1 0x20 CALLDATASIZE PUSH1 0x3 NOT ADD SLT PUSH2 0x47E JUMPI PUSH2 0x597 PUSH2 0x2547 JUMP JUMPDEST PUSH1 0xFF PUSH1 0x83 SLOAD AND PUSH2 0x65F JUMPI PUSH2 0xE10 PUSH3 0x15180 TIMESTAMP MOD DIV PUSH1 0xE DUP2 LT SWAP1 DUP2 ISZERO PUSH2 0x653 JUMPI JUMPDEST POP PUSH2 0x641 JUMPI PUSH1 0x81 SLOAD PUSH1 0x1 PUSH1 0x1 PUSH1 0xA0 SHL SUB SWAP2 SWAP1 DUP3 AND CALLER SUB PUSH2 0x62F JUMPI AND DUP1 ISZERO PUSH2 0x61D JUMPI SELFBALANCE SWAP1 DUP2 ISZERO PUSH2 0x60B JUMPI PUSH1 0x0 DUP1 DUP1 SWAP4 DUP2 SWAP4 GAS CALL PUSH2 0x5F1 PUSH2 0x2AEC JUMP JUMPDEST POP ISZERO PUSH2 0x5F9 JUMPI STOP JUMPDEST PUSH1 0x40 MLOAD PUSH4 0x12171D83 PUSH1 0xE3 SHL DUP2 MSTORE PUSH1 0x4 SWAP1 REVERT JUMPDEST PUSH1 0x40 MLOAD PUSH4 0x65E52D51 PUSH1 0xE1 SHL DUP2 MSTORE PUSH1 0x4 SWAP1 REVERT JUMPDEST PUSH1 0x40 MLOAD PUSH4 0xE6C4247B PUSH1 0xE0 SHL DUP2 MSTORE PUSH1 0x4 SWAP1 REVERT JUMPDEST PUSH1 0x40 MLOAD PUSH4 0x2D99BC83 PUSH1 0xE2 SHL DUP2 MSTORE PUSH1 0x4 SWAP1 REVERT JUMPDEST PUSH1 0x40 MLOAD PUSH4 0xCC1DE8D9 PUSH1 0xE0 SHL DUP2 MSTORE PUSH1 0x4 SWAP1 REVERT JUMPDEST PUSH1 0x10 SWAP2 POP LT ISZERO DUP3 PUSH2 0x5B7 JUMP JUMPDEST PUSH1 0x40 MLOAD PUSH4 0xA62BAEB7 PUSH1 0xE0 SHL DUP2 MSTORE PUSH1 0x4 SWAP1 REVERT JUMPDEST CALLVALUE PUSH2 0x47E JUMPI PUSH1 0x40 CALLDATASIZE PUSH1 0x3 NOT ADD SLT PUSH2 0x47E JUMPI PUSH2 0x68A PUSH2 0x2547 JUMP JUMPDEST PUSH1 0x81 SLOAD PUSH1 0x24 CALLDATALOAD SWAP2 PUSH1 0x1 PUSH1 0x1 PUSH1 0xA0 SHL SUB SWAP2 DUP3 AND CALLER SUB PUSH2 0x62F JUMPI AND DUP1 ISZERO PUSH2 0x61D JUMPI DUP2 ISZERO PUSH2 0x705 JUMPI PUSH20 0xD689D29F7EA0C511F4DDE84171B10D34078BB17C SWAP2 DUP3 EXTCODESIZE ISZERO PUSH2 0x47E JUMPI PUSH1 0x44 PUSH1 0x0 SWAP3 DUP4 PUSH1 0x40 MLOAD SWAP6 DUP7 SWAP5 DUP6 SWAP4 PUSH4 0xF4F1726B PUSH1 0xE0 SHL DUP6 MSTORE PUSH1 0x4 DUP6 ADD MSTORE PUSH1 0x24 DUP5 ADD MSTORE GAS CALL DUP1 ISZERO PUSH2 0x48B JUMPI PUSH2 0x6FC JUMPI STOP JUMPDEST PUSH2 0x29 SWAP1 PUSH2 0x2630 JUMP JUMPDEST PUSH1 0x40 MLOAD PUSH4 0x666B0C5D PUSH1 0xE0 SHL DUP2 MSTORE PUSH1 0x4 SWAP1 REVERT JUMPDEST CALLVALUE PUSH2 0x47E JUMPI PUSH1 0x0 CALLDATASIZE PUSH1 0x3 NOT ADD SLT PUSH2 0x47E JUMPI PUSH1 0x1 DUP1 PUSH1 0xA0 SHL SUB DUP1 PUSH32 0x0 AND CALLER EQ ISZERO SWAP1 DUP2 PUSH2 0x7D0 JUMPI JUMPDEST POP PUSH2 0x7BE JUMPI SELFBALANCE DUP1 ISZERO PUSH2 0x60B JUMPI PUSH2 0x805 SWAP1 DUP2 EXTCODESIZE ISZERO PUSH2 0x47E JUMPI PUSH4 0x3B9ACA00 PUSH1 0x64 PUSH1 0x0 SWAP3 DUP4 PUSH1 0x40 MLOAD SWAP6 DUP7 SWAP5 DUP6 SWAP4 PUSH4 0x1FC9B141 PUSH1 0xE0 SHL DUP6 MSTORE PUSH1 0x0 DUP1 MLOAD PUSH1 0x20 PUSH2 0x3336 DUP4 CODECOPY DUP2 MLOAD SWAP2 MSTORE PUSH1 0x4 DUP7 ADD MSTORE DIV PUSH1 0x24 DUP5 ADD MSTORE DUP2 PUSH1 0x44 DUP5 ADD MSTORE GAS CALL DUP1 ISZERO PUSH2 0x48B JUMPI PUSH2 0x6FC JUMPI STOP JUMPDEST PUSH1 0x40 MLOAD PUSH4 0xB4A87E7 PUSH1 0xE1 SHL DUP2 MSTORE PUSH1 0x4 SWAP1 REVERT JUMPDEST SWAP1 POP PUSH1 0x81 SLOAD AND CALLER EQ ISZERO DUP2 PUSH2 0x75C JUMP JUMPDEST CALLVALUE PUSH2 0x47E JUMPI PUSH1 0x0 CALLDATASIZE PUSH1 0x3 NOT ADD SLT PUSH2 0x47E JUMPI PUSH1 0x81 SLOAD PUSH1 0x1 PUSH1 0x1 PUSH1 0xA0 SHL SUB AND CALLER SUB PUSH2 0x62F JUMPI PUSH1 0x83 DUP1 SLOAD PUSH1 0xFF NOT AND SWAP1 SSTORE STOP JUMPDEST CALLVALUE PUSH2 0x47E JUMPI PUSH1 0x40 CALLDATASIZE PUSH1 0x3 NOT ADD SLT PUSH2 0x47E JUMPI PUSH2 0x827 PUSH2 0x2547 JUMP JUMPDEST PUSH1 0x24 CALLDATALOAD SWAP1 PUSH1 0xFF PUSH1 0x83 SLOAD AND PUSH2 0x65F JUMPI PUSH1 0x1 PUSH1 0x1 PUSH1 0xA0 SHL SUB SWAP1 PUSH32 0x0 DUP3 AND CALLER SUB PUSH2 0x8E7 JUMPI AND DUP1 ISZERO PUSH2 0x61D JUMPI DUP2 ISZERO PUSH2 0x60B JUMPI PUSH8 0x14D1120D7B160000 DUP3 GT PUSH2 0x8D5 JUMPI PUSH1 0x82 SLOAD PUSH2 0x5460 DUP2 ADD DUP1 SWAP2 GT PUSH2 0x8BF JUMPI TIMESTAMP LT PUSH2 0x8AD JUMPI PUSH1 0x0 DUP1 DUP1 SWAP4 DUP2 SWAP4 TIMESTAMP PUSH1 0x82 SSTORE GAS CALL PUSH2 0x5F1 PUSH2 0x2AEC JUMP JUMPDEST PUSH1 0x40 MLOAD PUSH4 0x34932EF PUSH1 0xE5 SHL DUP2 MSTORE PUSH1 0x4 SWAP1 REVERT JUMPDEST PUSH4 0x4E487B71 PUSH1 0xE0 SHL PUSH1 0x0 MSTORE PUSH1 0x11 PUSH1 0x4 MSTORE PUSH1 0x24 PUSH1 0x0 REVERT JUMPDEST PUSH1 0x40 MLOAD PUSH4 0x6250401 PUSH1 0xE0 SHL DUP2 MSTORE PUSH1 0x4 SWAP1 REVERT JUMPDEST PUSH1 0x40 MLOAD PUSH4 0x30CD7471 PUSH1 0xE0 SHL DUP2 MSTORE PUSH1 0x4 SWAP1 REVERT JUMPDEST CALLVALUE PUSH2 0x47E JUMPI PUSH1 0x0 CALLDATASIZE PUSH1 0x3 NOT ADD SLT PUSH2 0x47E JUMPI PUSH1 0x81 SLOAD PUSH1 0x40 MLOAD PUSH1 0x1 PUSH1 0x1 PUSH1 0xA0 SHL SUB SWAP1 SWAP2 AND DUP2 MSTORE PUSH1 0x20 SWAP1 RETURN JUMPDEST CALLVALUE PUSH2 0x47E JUMPI PUSH1 0x0 CALLDATASIZE PUSH1 0x3 NOT ADD SLT PUSH2 0x47E JUMPI PUSH1 0x20 PUSH1 0x40 MLOAD PUSH1 0x0 DUP1 MLOAD PUSH1 0x20 PUSH2 0x3336 DUP4 CODECOPY DUP2 MLOAD SWAP2 MSTORE DUP2 MSTORE RETURN JUMPDEST CALLVALUE PUSH2 0x47E JUMPI PUSH1 0x20 CALLDATASIZE PUSH1 0x3 NOT ADD SLT PUSH2 0x47E JUMPI PUSH1 0x4 CALLDATALOAD PUSH1 0xFF PUSH1 0x83 SLOAD AND PUSH2 0x65F JUMPI PUSH2 0xE10 PUSH3 0x15180 TIMESTAMP MOD DIV PUSH1 0xE DUP2 LT SWAP1 DUP2 ISZERO PUSH2 0x9D8 JUMPI JUMPDEST POP PUSH2 0x641 JUMPI PUSH1 0x81 SLOAD PUSH1 0x1 PUSH1 0x1 PUSH1 0xA0 SHL SUB AND CALLER SUB PUSH2 0x62F JUMPI DUP1 ISZERO PUSH2 0x705 JUMPI SELFBALANCE SWAP1 DUP2 ISZERO PUSH2 0x60B JUMPI PUSH2 0x800 DUP1 EXTCODESIZE ISZERO PUSH2 0x47E JUMPI PUSH1 0x24 PUSH1 0x0 SWAP3 PUSH1 0x40 MLOAD SWAP5 DUP6 SWAP4 DUP5 SWAP3 PUSH4 0xCD6F4EB1 PUSH1 0xE0 SHL DUP5 MSTORE PUSH1 0x4 DUP5 ADD MSTORE GAS CALL DUP1 ISZERO PUSH2 0x48B JUMPI PUSH2 0x6FC JUMPI STOP JUMPDEST PUSH1 0x10 SWAP2 POP LT ISZERO DUP3 PUSH2 0x97F JUMP JUMPDEST CALLVALUE PUSH2 0x47E JUMPI PUSH1 0x0 CALLDATASIZE PUSH1 0x3 NOT ADD SLT PUSH2 0x47E JUMPI PUSH32 0x0 PUSH1 0x1 PUSH1 0x1 PUSH1 0xA0 SHL SUB AND CALLER SUB PUSH2 0x8E7 JUMPI PUSH1 0x83 DUP1 SLOAD PUSH1 0xFF NOT AND PUSH1 0x1 OR SWAP1 SSTORE STOP JUMPDEST CALLVALUE PUSH2 0x47E JUMPI PUSH1 0x20 CALLDATASIZE PUSH1 0x3 NOT ADD SLT PUSH2 0x47E JUMPI PUSH1 0x4 CALLDATALOAD PUSH1 0xFF PUSH1 0x83 SLOAD AND PUSH2 0x65F JUMPI PUSH32 0x0 PUSH1 0x1 PUSH1 0x1 PUSH1 0xA0 SHL SUB AND CALLER DUP2 SWAP1 SUB PUSH2 0x8E7 JUMPI DUP2 ISZERO PUSH2 0x60B JUMPI PUSH8 0x14D1120D7B160000 DUP3 GT PUSH2 0x8D5 JUMPI PUSH1 0x82 SLOAD PUSH2 0x5460 DUP2 ADD DUP1 SWAP2 GT PUSH2 0x8BF JUMPI TIMESTAMP LT PUSH2 0x8AD JUMPI TIMESTAMP PUSH1 0x82 SSTORE PUSH2 0x805 DUP1 EXTCODESIZE ISZERO PUSH2 0x47E JUMPI PUSH1 0x0 DUP1 SWAP2 PUSH1 0x64 PUSH1 0x40 MLOAD DUP1 SWAP5 DUP2 SWAP4 PUSH4 0x7D691E3 PUSH1 0xE4 SHL DUP4 MSTORE PUSH1 0x0 DUP1 MLOAD PUSH1 0x20 PUSH2 0x3336 DUP4 CODECOPY DUP2 MLOAD SWAP2 MSTORE PUSH1 0x4 DUP5 ADD MSTORE PUSH4 0x3B9ACA00 DUP10 DIV PUSH1 0x24 DUP5 ADD MSTORE DUP2 PUSH1 0x44 DUP5 ADD MSTORE GAS CALL DUP1 ISZERO PUSH2 0x48B JUMPI PUSH1 0x0 SWAP4 DUP5 SWAP4 DUP5 SWAP4 DUP5 SWAP4 PUSH2 0xB1A JUMPI JUMPDEST POP GAS CALL PUSH2 0x5F1 PUSH2 0x2AEC JUMP JUMPDEST PUSH2 0xB23 SWAP1 PUSH2 0x2630 JUMP JUMPDEST DUP7 PUSH2 0xB0F JUMP JUMPDEST CALLVALUE PUSH2 0x47E JUMPI PUSH1 0x40 CALLDATASIZE PUSH1 0x3 NOT ADD SLT PUSH2 0x47E JUMPI PUSH1 0x4 CALLDATALOAD PUSH1 0x24 CALLDATALOAD SWAP1 PUSH1 0xFF PUSH1 0x83 SLOAD AND PUSH2 0x65F JUMPI PUSH2 0xE10 PUSH3 0x15180 TIMESTAMP MOD DIV PUSH1 0xE DUP2 LT SWAP1 DUP2 ISZERO PUSH2 0xBB8 JUMPI JUMPDEST POP PUSH2 0x641 JUMPI PUSH1 0x81 SLOAD PUSH1 0x1 PUSH1 0x1 PUSH1 0xA0 SHL SUB AND CALLER SUB PUSH2 0x62F JUMPI DUP1 ISZERO PUSH2 0x705 JUMPI DUP2 ISZERO PUSH2 0x60B JUMPI PUSH2 0x800 DUP1 EXTCODESIZE ISZERO PUSH2 0x47E JUMPI PUSH1 0x24 PUSH1 0x0 SWAP3 PUSH1 0x40 MLOAD SWAP5 DUP6 SWAP4 DUP5 SWAP3 PUSH4 0xCD6F4EB1 PUSH1 0xE0 SHL DUP5 MSTORE PUSH1 0x4 DUP5 ADD MSTORE GAS CALL DUP1 ISZERO PUSH2 0x48B JUMPI PUSH2 0x6FC JUMPI STOP JUMPDEST PUSH1 0x10 SWAP2 POP LT ISZERO DUP4 PUSH2 0xB61 JUMP JUMPDEST CALLVALUE PUSH2 0x47E JUMPI PUSH1 0x0 CALLDATASIZE PUSH1 0x3 NOT ADD SLT PUSH2 0x47E JUMPI PUSH1 0x40 MLOAD PUSH2 0xBE1 DUP2 PUSH2 0x2643 JUMP JUMPDEST PUSH2 0x1020 DUP1 SWAP2 CALLDATASIZE SWAP1 CALLDATACOPY PUSH2 0xBF1 PUSH2 0x327B JUMP JUMPDEST PUSH2 0xBFE PUSH1 0x40 MLOAD DUP1 SWAP3 PUSH2 0x25D7 JUMP JUMPDEST RETURN JUMPDEST CALLVALUE PUSH2 0x47E JUMPI PUSH1 0xE0 CALLDATASIZE PUSH1 0x3 NOT ADD SLT PUSH2 0x47E JUMPI PUSH1 0x1 PUSH1 0x1 PUSH1 0x40 SHL SUB PUSH1 0x4 CALLDATALOAD DUP2 DUP2 GT PUSH2 0x47E JUMPI PUSH2 0xC31 SWAP1 CALLDATASIZE SWAP1 PUSH1 0x4 ADD PUSH2 0x255D JUMP JUMPDEST SWAP1 SWAP2 PUSH1 0x24 CALLDATALOAD DUP2 DUP2 GT PUSH2 0x47E JUMPI PUSH2 0xC4B SWAP1 CALLDATASIZE SWAP1 PUSH1 0x4 ADD PUSH2 0x255D JUMP JUMPDEST SWAP2 PUSH1 0x44 CALLDATALOAD DUP2 DUP2 GT PUSH2 0x47E JUMPI PUSH2 0xC64 SWAP1 CALLDATASIZE SWAP1 PUSH1 0x4 ADD PUSH2 0x255D JUMP JUMPDEST PUSH1 0x64 SWAP3 SWAP2 SWAP3 CALLDATALOAD DUP3 DUP2 GT PUSH2 0x47E JUMPI PUSH2 0xC7F SWAP1 CALLDATASIZE SWAP1 PUSH1 0x4 ADD PUSH2 0x255D JUMP JUMPDEST SWAP2 PUSH1 0x84 CALLDATALOAD DUP5 DUP2 GT PUSH2 0x47E JUMPI PUSH2 0xC98 SWAP1 CALLDATASIZE SWAP1 PUSH1 0x4 ADD PUSH2 0x255D JUMP JUMPDEST SWAP6 SWAP1 SWAP5 PUSH1 0xA4 CALLDATALOAD SWAP1 DUP2 GT PUSH2 0x47E JUMPI PUSH2 0xCB3 SWAP1 CALLDATASIZE SWAP1 PUSH1 0x4 ADD PUSH2 0x255D JUMP JUMPDEST SWAP9 SWAP1 SWAP8 PUSH1 0xC4 CALLDATALOAD SWAP11 DUP12 ISZERO ISZERO DUP13 SUB PUSH2 0x47E JUMPI PUSH32 0x0 PUSH1 0x1 PUSH1 0x1 PUSH1 0xA0 SHL SUB AND CALLER SUB PUSH2 0x8E7 JUMPI PUSH2 0x29 SWAP13 PUSH2 0x2B88 JUMP JUMPDEST CALLVALUE PUSH2 0x47E JUMPI PUSH1 0x0 CALLDATASIZE PUSH1 0x3 NOT ADD SLT PUSH2 0x47E JUMPI PUSH1 0x40 MLOAD PUSH2 0xD19 DUP2 PUSH2 0x2643 JUMP JUMPDEST PUSH2 0x1020 DUP1 SWAP2 CALLDATASIZE SWAP1 CALLDATACOPY PUSH2 0xD29 PUSH2 0x3113 JUMP JUMPDEST PUSH2 0xBFE PUSH1 0x40 MLOAD DUP1 SWAP3 PUSH2 0x25FF JUMP JUMPDEST CALLVALUE PUSH2 0x47E JUMPI PUSH1 0x20 CALLDATASIZE PUSH1 0x3 NOT ADD SLT PUSH2 0x47E JUMPI PUSH1 0x1 DUP1 PUSH1 0xA0 SHL SUB DUP1 PUSH32 0x0 AND CALLER EQ ISZERO SWAP1 DUP2 PUSH2 0xDCB JUMPI JUMPDEST POP PUSH2 0x7BE JUMPI PUSH2 0x805 DUP1 EXTCODESIZE ISZERO PUSH2 0x47E JUMPI PUSH1 0x0 DUP1 SWAP2 PUSH1 0x44 PUSH1 0x40 MLOAD DUP1 SWAP5 DUP2 SWAP4 PUSH4 0xD4626BB9 PUSH1 0xE0 SHL DUP4 MSTORE PUSH1 0x0 DUP1 MLOAD PUSH1 0x20 PUSH2 0x3336 DUP4 CODECOPY DUP2 MLOAD SWAP2 MSTORE PUSH1 0x4 DUP5 ADD MSTORE PUSH1 0x4 CALLDATALOAD PUSH1 0x24 DUP5 ADD MSTORE GAS CALL DUP1 ISZERO PUSH2 0x48B JUMPI PUSH2 0x6FC JUMPI STOP JUMPDEST SWAP1 POP PUSH1 0x81 SLOAD AND CALLER EQ ISZERO DUP2 PUSH2 0xD7B JUMP JUMPDEST CALLVALUE PUSH2 0x47E JUMPI PUSH1 0x80 CALLDATASIZE PUSH1 0x3 NOT ADD SLT PUSH2 0x47E JUMPI PUSH1 0x4 CALLDATALOAD PUSH1 0x1 PUSH1 0x1 PUSH1 0x40 SHL SUB DUP2 GT PUSH2 0x47E JUMPI PUSH2 0xE0A SWAP1 CALLDATASIZE SWAP1 PUSH1 0x4 ADD PUSH2 0x255D JUMP JUMPDEST PUSH1 0x24 CALLDATALOAD PUSH1 0x1 PUSH1 0x1 PUSH1 0x40 SHL SUB DUP2 GT PUSH2 0x47E JUMPI PUSH2 0xE29 SWAP1 CALLDATASIZE SWAP1 PUSH1 0x4 ADD PUSH2 0x255D JUMP JUMPDEST SWAP1 SWAP2 PUSH1 0x44 CALLDATALOAD PUSH1 0x1 PUSH1 0x1 PUSH1 0x40 SHL SUB DUP2 GT PUSH2 0x47E JUMPI PUSH2 0xE4A SWAP1 CALLDATASIZE SWAP1 PUSH1 0x4 ADD PUSH2 0x255D JUMP JUMPDEST SWAP2 SWAP1 SWAP5 PUSH1 0x64 CALLDATALOAD PUSH1 0x1 PUSH1 0x1 PUSH1 0x40 SHL SUB DUP2 GT PUSH2 0x47E JUMPI PUSH2 0xE6C SWAP1 CALLDATASIZE SWAP1 PUSH1 0x4 ADD PUSH2 0x255D JUMP JUMPDEST SWAP1 SWAP7 SWAP1 SWAP6 SWAP1 PUSH32 0x0 PUSH1 0x1 PUSH1 0x1 PUSH1 0xA0 SHL SUB AND CALLER SUB PUSH2 0x8E7 JUMPI PUSH2 0xEAA DUP7 PUSH2 0x2B42 JUMP JUMPDEST SWAP5 PUSH1 0x0 JUMPDEST DUP8 DUP2 LT PUSH2 0x1146 JUMPI POP POP POP POP PUSH1 0x0 JUMPDEST DUP3 DUP2 LT PUSH2 0xEC5 JUMPI STOP JUMPDEST PUSH2 0xED0 DUP2 DUP5 DUP5 PUSH2 0x2680 JUMP JUMPDEST CALLDATALOAD PUSH2 0xEDC DUP3 DUP9 DUP11 PUSH2 0x2680 JUMP JUMPDEST CALLDATALOAD PUSH1 0x40 MLOAD PUSH4 0xC2BA9E87 PUSH1 0xE0 SHL DUP2 MSTORE PUSH2 0xFFFF DUP4 AND PUSH1 0x4 DUP3 ADD MSTORE PUSH1 0x20 DUP2 PUSH1 0x24 DUP2 PUSH2 0x808 GAS STATICCALL DUP1 ISZERO PUSH2 0x48B JUMPI PUSH1 0x1 PUSH1 0x1 PUSH1 0x40 SHL SUB DUP4 SWAP2 PUSH2 0xF22 SWAP4 PUSH1 0x0 SWAP2 PUSH2 0x1117 JUMPI JUMPDEST POP AND PUSH2 0x26AE JUMP JUMPDEST SWAP1 PUSH1 0x0 JUMPDEST DUP9 DUP2 LT PUSH2 0xF3A JUMPI JUMPDEST POP POP POP POP PUSH1 0x1 ADD PUSH2 0xEBC JUMP JUMPDEST PUSH2 0xF44 DUP2 DUP10 PUSH2 0x2B74 JUMP JUMPDEST MLOAD DUP4 GT DUP1 PUSH2 0x110A JUMPI JUMPDEST DUP1 PUSH2 0x10F3 JUMPI JUMPDEST PUSH2 0xF5F JUMPI PUSH1 0x1 ADD PUSH2 0xF26 JUMP JUMPDEST POP POP POP SWAP1 PUSH1 0x40 MLOAD PUSH4 0x71DACC7D PUSH1 0xE1 SHL DUP2 MSTORE PUSH1 0x0 DUP1 MLOAD PUSH1 0x20 PUSH2 0x3336 DUP4 CODECOPY DUP2 MLOAD SWAP2 MSTORE PUSH1 0x4 DUP3 ADD MSTORE PUSH1 0x0 DUP1 MLOAD PUSH1 0x20 PUSH2 0x3356 DUP4 CODECOPY DUP2 MLOAD SWAP2 MSTORE PUSH1 0x24 DUP3 ADD MSTORE DUP3 PUSH1 0x44 DUP3 ADD MSTORE PUSH1 0x20 DUP2 PUSH1 0x64 DUP2 PUSH2 0x805 GAS STATICCALL SWAP1 DUP2 ISZERO PUSH2 0x48B JUMPI PUSH1 0x0 SWAP2 PUSH2 0x10C1 JUMPI JUMPDEST POP DUP1 PUSH2 0xFC7 JUMPI JUMPDEST DUP1 DUP3 SWAP4 PUSH2 0xF2E JUMP JUMPDEST PUSH20 0xD689D29F7EA0C511F4DDE84171B10D34078BB17C EXTCODESIZE ISZERO PUSH2 0x47E JUMPI PUSH1 0x40 MLOAD SWAP1 PUSH4 0x2D67F0B9 PUSH1 0xE0 SHL DUP3 MSTORE DUP4 PUSH1 0x4 DUP4 ADD MSTORE PUSH1 0x24 DUP3 ADD MSTORE PUSH1 0x0 DUP2 PUSH1 0x44 DUP2 DUP4 PUSH20 0xD689D29F7EA0C511F4DDE84171B10D34078BB17C GAS CALL DUP1 ISZERO PUSH2 0x48B JUMPI PUSH2 0x10B2 JUMPI JUMPDEST POP PUSH1 0x40 MLOAD PUSH4 0x69E38BC3 PUSH1 0xE0 SHL DUP2 MSTORE PUSH2 0xFFFF DUP4 AND PUSH1 0x4 DUP3 ADD MSTORE PUSH1 0x20 DUP2 PUSH1 0x24 DUP2 PUSH2 0x808 GAS STATICCALL SWAP1 DUP2 ISZERO PUSH2 0x48B JUMPI PUSH1 0x0 SWAP2 PUSH2 0x1080 JUMPI JUMPDEST POP PUSH1 0x81 DUP4 LT ISZERO PUSH2 0x106A JUMPI PUSH1 0x1 SWAP3 SSTORE DUP9 PUSH2 0xFBF JUMP JUMPDEST PUSH4 0x4E487B71 PUSH1 0xE0 SHL PUSH1 0x0 MSTORE PUSH1 0x32 PUSH1 0x4 MSTORE PUSH1 0x24 PUSH1 0x0 REVERT JUMPDEST SWAP1 POP PUSH1 0x20 DUP2 RETURNDATASIZE PUSH1 0x20 GT PUSH2 0x10AA JUMPI JUMPDEST DUP2 PUSH2 0x109B PUSH1 0x20 SWAP4 DUP4 PUSH2 0x265F JUMP JUMPDEST DUP2 ADD SUB SLT PUSH2 0x47E JUMPI MLOAD DUP10 PUSH2 0x1056 JUMP JUMPDEST RETURNDATASIZE SWAP2 POP PUSH2 0x108E JUMP JUMPDEST PUSH2 0x10BB SWAP1 PUSH2 0x2630 JUMP JUMPDEST DUP9 PUSH2 0x1024 JUMP JUMPDEST SWAP1 POP PUSH1 0x20 DUP2 RETURNDATASIZE PUSH1 0x20 GT PUSH2 0x10EB JUMPI JUMPDEST DUP2 PUSH2 0x10DC PUSH1 0x20 SWAP4 DUP4 PUSH2 0x265F JUMP JUMPDEST DUP2 ADD SUB SLT PUSH2 0x47E JUMPI MLOAD DUP10 PUSH2 0xFB8 JUMP JUMPDEST RETURNDATASIZE SWAP2 POP PUSH2 0x10CF JUMP JUMPDEST POP PUSH2 0x10FE DUP2 DUP10 PUSH2 0x2B74 JUMP JUMPDEST MLOAD PUSH2 0x7D0 DUP4 DIV LT PUSH2 0xF53 JUMP JUMPDEST POP PUSH2 0x3E8 DUP3 DIV DUP4 GT PUSH2 0xF4D JUMP JUMPDEST PUSH2 0x1139 SWAP2 POP PUSH1 0x20 RETURNDATASIZE PUSH1 0x20 GT PUSH2 0x113F JUMPI JUMPDEST PUSH2 0x1131 DUP2 DUP4 PUSH2 0x265F JUMP JUMPDEST DUP2 ADD SWAP1 PUSH2 0x26BB JUMP JUMPDEST DUP14 PUSH2 0xF1B JUMP JUMPDEST POP RETURNDATASIZE PUSH2 0x1127 JUMP JUMPDEST PUSH2 0x1151 DUP2 DUP4 DUP6 PUSH2 0x2680 JUMP JUMPDEST CALLDATALOAD SWAP1 PUSH2 0x115E DUP2 DUP11 DUP8 PUSH2 0x2680 JUMP JUMPDEST PUSH1 0x40 MLOAD PUSH4 0x2B6589A3 PUSH1 0xE0 SHL DUP2 MSTORE SWAP1 CALLDATALOAD PUSH1 0x4 DUP3 ADD MSTORE PUSH1 0x0 PUSH1 0x24 DUP3 ADD MSTORE PUSH1 0x20 SWAP1 DUP2 DUP2 PUSH1 0x44 DUP2 PUSH2 0x805 GAS STATICCALL SWAP2 DUP3 ISZERO PUSH2 0x48B JUMPI PUSH1 0x0 SWAP3 PUSH2 0x11B4 JUMPI JUMPDEST POP POP PUSH2 0x11A3 SWAP1 PUSH1 0x1 SWAP4 PUSH2 0x26AE JUMP JUMPDEST PUSH2 0x11AD DUP3 DUP11 PUSH2 0x2B74 JUMP JUMPDEST MSTORE ADD PUSH2 0xEAE JUMP JUMPDEST SWAP1 DUP1 SWAP3 POP DUP2 RETURNDATASIZE DUP4 GT PUSH2 0x11DD JUMPI JUMPDEST PUSH2 0x11CB DUP2 DUP4 PUSH2 0x265F JUMP JUMPDEST DUP2 ADD SUB SLT PUSH2 0x47E JUMPI MLOAD DUP3 PUSH2 0x11A3 PUSH2 0x1195 JUMP JUMPDEST POP RETURNDATASIZE PUSH2 0x11C1 JUMP JUMPDEST CALLVALUE PUSH2 0x47E JUMPI PUSH1 0x0 CALLDATASIZE PUSH1 0x3 NOT ADD SLT PUSH2 0x47E JUMPI PUSH1 0x40 MLOAD PUSH2 0x1201 DUP2 PUSH2 0x2643 JUMP JUMPDEST PUSH2 0x1020 DUP1 SWAP2 CALLDATASIZE SWAP1 CALLDATACOPY PUSH2 0xD29 PUSH2 0x3066 JUMP JUMPDEST CALLVALUE PUSH2 0x47E JUMPI PUSH1 0x20 CALLDATASIZE PUSH1 0x3 NOT ADD SLT PUSH2 0x47E JUMPI PUSH1 0xFF PUSH1 0x83 SLOAD AND PUSH2 0x65F JUMPI PUSH2 0xE10 PUSH3 0x15180 TIMESTAMP MOD DIV PUSH1 0xE DUP2 LT SWAP1 DUP2 ISZERO PUSH2 0x12B5 JUMPI JUMPDEST POP PUSH2 0x641 JUMPI PUSH1 0x81 SLOAD PUSH1 0x1 PUSH1 0x1 PUSH1 0xA0 SHL SUB AND CALLER SUB PUSH2 0x62F JUMPI PUSH20 0xD689D29F7EA0C511F4DDE84171B10D34078BB17C DUP1 EXTCODESIZE ISZERO PUSH2 0x47E JUMPI PUSH1 0x0 DUP1 SWAP2 PUSH1 0x44 PUSH1 0x40 MLOAD DUP1 SWAP5 DUP2 SWAP4 PUSH3 0x57C71B PUSH1 0xE4 SHL DUP4 MSTORE PUSH1 0x4 CALLDATALOAD PUSH1 0x4 DUP5 ADD MSTORE PUSH1 0x0 DUP1 MLOAD PUSH1 0x20 PUSH2 0x3356 DUP4 CODECOPY DUP2 MLOAD SWAP2 MSTORE PUSH1 0x24 DUP5 ADD MSTORE GAS CALL DUP1 ISZERO PUSH2 0x48B JUMPI PUSH2 0x6FC JUMPI STOP JUMPDEST PUSH1 0x10 SWAP2 POP LT ISZERO DUP2 PUSH2 0x1242 JUMP JUMPDEST CALLVALUE PUSH2 0x47E JUMPI PUSH2 0x12CF CALLDATASIZE PUSH2 0x258D JUMP JUMPDEST SWAP1 PUSH32 0x0 PUSH1 0x1 PUSH1 0x1 PUSH1 0xA0 SHL SUB AND CALLER SUB PUSH2 0x8E7 JUMPI DUP2 DUP4 SUB PUSH2 0x1340 JUMPI PUSH1 0x0 JUMPDEST DUP4 DUP2 LT PUSH2 0x1313 JUMPI STOP JUMPDEST PUSH2 0x131E DUP2 DUP5 DUP5 PUSH2 0x2680 JUMP JUMPDEST CALLDATALOAD SWAP1 PUSH2 0x132B DUP2 DUP7 DUP9 PUSH2 0x2680 JUMP JUMPDEST CALLDATALOAD SWAP2 PUSH1 0x81 DUP4 LT ISZERO PUSH2 0x106A JUMPI PUSH1 0x1 SWAP3 SSTORE ADD PUSH2 0x130A JUMP JUMPDEST PUSH1 0x40 MLOAD PUSH4 0x512509D3 PUSH1 0xE1 SHL DUP2 MSTORE PUSH1 0x4 SWAP1 REVERT JUMPDEST CALLVALUE PUSH2 0x47E JUMPI PUSH1 0x0 CALLDATASIZE PUSH1 0x3 NOT ADD SLT PUSH2 0x47E JUMPI PUSH1 0x40 MLOAD PUSH32 0x0 PUSH1 0x1 PUSH1 0x1 PUSH1 0xA0 SHL SUB AND DUP2 MSTORE PUSH1 0x20 SWAP1 RETURN JUMPDEST CALLVALUE PUSH2 0x47E JUMPI PUSH1 0x0 CALLDATASIZE PUSH1 0x3 NOT ADD SLT PUSH2 0x47E JUMPI PUSH1 0x1 DUP1 PUSH1 0xA0 SHL SUB DUP1 PUSH32 0x0 AND CALLER EQ ISZERO SWAP1 DUP2 PUSH2 0x142A JUMPI JUMPDEST POP PUSH2 0x7BE JUMPI PUSH2 0x805 DUP1 EXTCODESIZE ISZERO PUSH2 0x47E JUMPI PUSH1 0x0 DUP1 SWAP2 PUSH1 0x44 PUSH1 0x40 MLOAD DUP1 SWAP5 DUP2 SWAP4 PUSH4 0xD4626BB9 PUSH1 0xE0 SHL DUP4 MSTORE PUSH1 0x0 DUP1 MLOAD PUSH1 0x20 PUSH2 0x3336 DUP4 CODECOPY DUP2 MLOAD SWAP2 MSTORE PUSH1 0x4 DUP5 ADD MSTORE DUP2 PUSH1 0x24 DUP5 ADD MSTORE GAS CALL DUP1 ISZERO PUSH2 0x48B JUMPI PUSH2 0x6FC JUMPI STOP JUMPDEST SWAP1 POP PUSH1 0x81 SLOAD AND CALLER EQ ISZERO DUP2 PUSH2 0x13DC JUMP JUMPDEST CALLVALUE PUSH2 0x47E JUMPI PUSH1 0x20 CALLDATASIZE PUSH1 0x3 NOT ADD SLT PUSH2 0x47E JUMPI PUSH1 0x1 DUP1 PUSH1 0xA0 SHL SUB DUP1 PUSH32 0x0 AND CALLER EQ ISZERO SWAP1 DUP2 PUSH2 0x14D4 JUMPI JUMPDEST POP PUSH2 0x7BE JUMPI PUSH2 0x805 DUP1 EXTCODESIZE ISZERO PUSH2 0x47E JUMPI PUSH1 0x0 DUP1 SWAP2 PUSH1 0x64 PUSH1 0x40 MLOAD DUP1 SWAP5 DUP2 SWAP4 PUSH4 0x1FC9B141 PUSH1 0xE0 SHL DUP4 MSTORE PUSH1 0x0 DUP1 MLOAD PUSH1 0x20 PUSH2 0x3336 DUP4 CODECOPY DUP2 MLOAD SWAP2 MSTORE PUSH1 0x4 DUP5 ADD MSTORE PUSH1 0x4 CALLDATALOAD PUSH1 0x24 DUP5 ADD MSTORE DUP2 PUSH1 0x44 DUP5 ADD MSTORE GAS CALL DUP1 ISZERO PUSH2 0x48B JUMPI PUSH2 0x6FC JUMPI STOP JUMPDEST SWAP1 POP PUSH1 0x81 SLOAD AND CALLER EQ ISZERO DUP2 PUSH2 0x147E JUMP JUMPDEST CALLVALUE PUSH2 0x47E JUMPI PUSH1 0x40 CALLDATASIZE PUSH1 0x3 NOT ADD SLT PUSH2 0x47E JUMPI PUSH2 0x14FC PUSH2 0x2547 JUMP JUMPDEST PUSH1 0x24 CALLDATALOAD SWAP1 PUSH1 0xFF PUSH1 0x83 SLOAD AND PUSH2 0x65F JUMPI PUSH2 0xE10 PUSH3 0x15180 TIMESTAMP MOD DIV PUSH1 0xE DUP2 LT SWAP1 DUP2 ISZERO PUSH2 0x1558 JUMPI JUMPDEST POP PUSH2 0x641 JUMPI PUSH1 0x81 SLOAD PUSH1 0x1 PUSH1 0x1 PUSH1 0xA0 SHL SUB SWAP2 SWAP1 DUP3 AND CALLER SUB PUSH2 0x62F JUMPI AND DUP1 ISZERO PUSH2 0x61D JUMPI DUP2 ISZERO PUSH2 0x60B JUMPI PUSH1 0x0 DUP1 DUP1 SWAP4 DUP2 SWAP4 GAS CALL PUSH2 0x5F1 PUSH2 0x2AEC JUMP JUMPDEST PUSH1 0x10 SWAP2 POP LT ISZERO DUP4 PUSH2 0x1520 JUMP JUMPDEST CALLVALUE PUSH2 0x47E JUMPI PUSH1 0x0 CALLDATASIZE PUSH1 0x3 NOT ADD SLT PUSH2 0x47E JUMPI PUSH1 0x20 PUSH1 0x82 SLOAD PUSH1 0x40 MLOAD SWAP1 DUP2 MSTORE RETURN JUMPDEST CALLVALUE PUSH2 0x47E JUMPI PUSH2 0x1590 CALLDATASIZE PUSH2 0x258D JUMP JUMPDEST SWAP3 SWAP2 PUSH32 0x0 PUSH1 0x1 PUSH1 0x1 PUSH1 0xA0 SHL SUB AND CALLER SUB PUSH2 0x8E7 JUMPI DUP4 DUP2 SUB PUSH2 0x1340 JUMPI PUSH1 0x0 JUMPDEST DUP2 DUP2 LT PUSH2 0x15D5 JUMPI STOP JUMPDEST PUSH2 0x15E0 DUP2 DUP4 DUP7 PUSH2 0x2680 JUMP JUMPDEST CALLDATALOAD PUSH2 0xFFFF DUP2 AND SWAP1 PUSH2 0x15F2 DUP4 DUP9 DUP8 PUSH2 0x2680 JUMP JUMPDEST PUSH1 0x40 MLOAD PUSH4 0x69E38BC3 PUSH1 0xE0 SHL DUP1 DUP3 MSTORE PUSH1 0x4 DUP3 ADD DUP6 SWAP1 MSTORE PUSH1 0x20 SWAP5 PUSH1 0x24 SWAP4 PUSH2 0x808 SWAP4 SWAP1 CALLDATALOAD DUP8 DUP3 DUP8 DUP2 DUP9 GAS STATICCALL SWAP2 DUP3 ISZERO PUSH2 0x48B JUMPI PUSH1 0x0 SWAP3 PUSH2 0x17AF JUMPI JUMPDEST POP GT ISZERO PUSH2 0x163F JUMPI JUMPDEST POP POP POP POP POP POP PUSH1 0x1 ADD PUSH2 0x15CC JUMP JUMPDEST PUSH1 0x40 MLOAD PUSH4 0x71DACC7D PUSH1 0xE1 SHL DUP2 MSTORE PUSH1 0x0 DUP1 MLOAD PUSH1 0x20 PUSH2 0x3336 DUP4 CODECOPY DUP2 MLOAD SWAP2 MSTORE PUSH1 0x4 DUP3 ADD MSTORE PUSH1 0x0 DUP1 MLOAD PUSH1 0x20 PUSH2 0x3356 DUP4 CODECOPY DUP2 MLOAD SWAP2 MSTORE DUP6 DUP3 ADD MSTORE PUSH1 0x44 DUP1 DUP3 ADD DUP8 SWAP1 MSTORE SWAP3 SWAP1 DUP8 DUP2 PUSH1 0x64 DUP2 PUSH2 0x805 GAS STATICCALL SWAP1 DUP2 ISZERO PUSH2 0x48B JUMPI PUSH1 0x0 SWAP2 PUSH2 0x1782 JUMPI JUMPDEST POP DUP1 PUSH2 0x16A4 JUMPI JUMPDEST POP POP PUSH2 0x1631 JUMP JUMPDEST PUSH20 0xD689D29F7EA0C511F4DDE84171B10D34078BB17C DUP1 EXTCODESIZE ISZERO PUSH2 0x47E JUMPI PUSH1 0x0 SWAP5 DUP6 SWAP3 PUSH1 0x40 MLOAD SWAP7 DUP8 SWAP4 DUP5 SWAP3 PUSH4 0x2D67F0B9 PUSH1 0xE0 SHL DUP5 MSTORE DUP13 PUSH1 0x4 DUP6 ADD MSTORE DUP12 DUP5 ADD MSTORE GAS CALL SWAP1 DUP2 ISZERO PUSH2 0x48B JUMPI DUP8 SWAP4 DUP7 SWAP3 PUSH2 0x1773 JUMPI JUMPDEST POP PUSH1 0x40 MLOAD SWAP5 DUP6 SWAP4 DUP5 SWAP3 DUP4 MSTORE PUSH1 0x4 DUP4 ADD MSTORE GAS STATICCALL SWAP4 DUP5 ISZERO PUSH2 0x48B JUMPI PUSH1 0x0 SWAP5 PUSH2 0x1743 JUMPI JUMPDEST POP POP PUSH1 0x81 DUP3 LT ISZERO PUSH2 0x172F JUMPI POP SSTORE PUSH1 0x1 DUP7 DUP1 DUP1 DUP1 DUP1 DUP1 DUP1 PUSH2 0x169D JUMP JUMPDEST PUSH4 0x4E487B71 PUSH1 0xE0 SHL PUSH1 0x0 SWAP1 DUP2 MSTORE PUSH1 0x32 PUSH1 0x4 MSTORE REVERT JUMPDEST SWAP1 DUP1 SWAP3 SWAP5 POP DUP2 RETURNDATASIZE DUP4 GT PUSH2 0x176C JUMPI JUMPDEST PUSH2 0x175B DUP2 DUP4 PUSH2 0x265F JUMP JUMPDEST DUP2 ADD SUB SLT PUSH2 0x47E JUMPI MLOAD SWAP2 DUP9 DUP1 PUSH2 0x1714 JUMP JUMPDEST POP RETURNDATASIZE PUSH2 0x1751 JUMP JUMPDEST PUSH2 0x177C SWAP1 PUSH2 0x2630 JUMP JUMPDEST DUP14 PUSH2 0x16F3 JUMP JUMPDEST SWAP1 POP DUP8 DUP2 DUP2 RETURNDATASIZE DUP4 GT PUSH2 0x17A8 JUMPI JUMPDEST PUSH2 0x1799 DUP2 DUP4 PUSH2 0x265F JUMP JUMPDEST DUP2 ADD SUB SLT PUSH2 0x47E JUMPI MLOAD DUP14 PUSH2 0x1696 JUMP JUMPDEST POP RETURNDATASIZE PUSH2 0x178F JUMP JUMPDEST SWAP1 SWAP2 POP DUP8 DUP2 DUP2 RETURNDATASIZE DUP4 GT PUSH2 0x17D7 JUMPI JUMPDEST PUSH2 0x17C7 DUP2 DUP4 PUSH2 0x265F JUMP JUMPDEST DUP2 ADD SUB SLT PUSH2 0x47E JUMPI MLOAD SWAP1 DUP14 PUSH2 0x1629 JUMP JUMPDEST POP RETURNDATASIZE PUSH2 0x17BD JUMP JUMPDEST CALLVALUE PUSH2 0x47E JUMPI PUSH1 0x0 CALLDATASIZE PUSH1 0x3 NOT ADD SLT PUSH2 0x47E JUMPI PUSH32 0x0 PUSH1 0x1 PUSH1 0x1 PUSH1 0xA0 SHL SUB AND CALLER SUB PUSH2 0x8E7 JUMPI SELFBALANCE PUSH32 0x0 SWAP1 PUSH1 0x40 MLOAD PUSH1 0x80 DUP2 ADD DUP2 DUP2 LT PUSH1 0x1 PUSH1 0x1 PUSH1 0x40 SHL SUB DUP3 GT OR PUSH2 0x1E49 JUMPI PUSH1 0x0 SWAP2 DUP3 SWAP2 PUSH1 0x40 MSTORE PUSH1 0x49 DUP2 MSTORE PUSH1 0x20 DUP2 ADD SWAP1 PUSH1 0x60 CALLDATASIZE DUP4 CALLDATACOPY PUSH1 0x10 DUP3 MSTORE8 DUP3 PUSH1 0x21 DUP3 ADD MSTORE8 DUP3 PUSH1 0x22 DUP3 ADD MSTORE8 PUSH32 0x2636AD834CD47318572033620D50377260A54FC64E5F150896186B2BAFDA7454 PUSH1 0x23 DUP3 ADD MSTORE PUSH1 0x1 PUSH1 0x43 DUP3 ADD MSTORE8 DUP3 PUSH1 0x44 DUP3 ADD MSTORE8 PUSH1 0x5 PUSH1 0x45 DUP3 ADD MSTORE8 PUSH1 0x4 PUSH1 0x46 DUP3 ADD MSTORE8 DUP3 PUSH1 0x47 DUP3 ADD MSTORE8 DUP6 PUSH1 0x48 DUP3 ADD MSTORE DUP3 PUSH1 0x68 DUP3 ADD MSTORE8 MLOAD SWAP1 DUP3 PUSH1 0x6 GAS CALL PUSH2 0x18E3 PUSH2 0x2AEC JUMP JUMPDEST POP ISZERO PUSH2 0x47E JUMPI DUP1 PUSH8 0x16345785D8A0000 ADD SWAP1 DUP2 PUSH8 0x16345785D8A0000 GT PUSH2 0x8BF JUMPI SELFBALANCE SWAP2 DUP3 SUB PUSH2 0x1911 JUMPI PUSH1 0x0 DUP1 REVERT JUMPDEST PUSH4 0x3B9ACA00 SWAP2 PUSH8 0x16345785D8A0000 SWAP2 SUB ADD DIV SWAP1 PUSH3 0x1FEFC NOT DUP3 ADD SWAP2 PUSH1 0x80 DUP4 GT ISZERO PUSH1 0x0 EQ PUSH2 0x1B00 JUMPI POP POP PUSH1 0x40 MLOAD PUSH4 0x71DACC7D PUSH1 0xE1 SHL DUP2 MSTORE PUSH1 0x0 DUP1 MLOAD PUSH1 0x20 PUSH2 0x3336 DUP4 CODECOPY DUP2 MLOAD SWAP2 MSTORE PUSH1 0x4 DUP3 ADD MSTORE PUSH1 0x0 DUP1 MLOAD PUSH1 0x20 PUSH2 0x3356 DUP4 CODECOPY DUP2 MLOAD SWAP2 MSTORE PUSH1 0x24 DUP3 ADD MSTORE PUSH1 0x44 DUP2 ADD DUP3 SWAP1 MSTORE PUSH1 0x20 DUP2 PUSH1 0x64 DUP2 PUSH2 0x805 GAS STATICCALL SWAP1 DUP2 ISZERO PUSH2 0x48B JUMPI PUSH1 0x0 SWAP2 PUSH2 0x1ACE JUMPI JUMPDEST POP DUP1 PUSH2 0x19F8 JUMPI JUMPDEST POP POP JUMPDEST PUSH2 0x800 DUP1 EXTCODESIZE ISZERO PUSH2 0x47E JUMPI PUSH1 0x0 PUSH8 0x16345785D8A0000 SWAP2 PUSH1 0x24 PUSH1 0x40 MLOAD DUP1 SWAP5 DUP2 SWAP4 PUSH4 0xCD6F4EB1 PUSH1 0xE0 SHL DUP4 MSTORE PUSH32 0x2636AD834CD47318572033620D50377260A54FC64E5F150896186B2BAFDA7454 PUSH1 0x4 DUP5 ADD MSTORE GAS CALL DUP1 ISZERO PUSH2 0x48B JUMPI PUSH2 0x6FC JUMPI STOP JUMPDEST PUSH20 0xD689D29F7EA0C511F4DDE84171B10D34078BB17C SWAP1 DUP2 EXTCODESIZE ISZERO PUSH2 0x47E JUMPI PUSH1 0x0 SWAP2 PUSH1 0x44 DUP4 SWAP3 PUSH1 0x40 MLOAD SWAP5 DUP6 SWAP4 DUP5 SWAP3 PUSH4 0x2D67F0B9 PUSH1 0xE0 SHL DUP5 MSTORE DUP9 PUSH1 0x4 DUP6 ADD MSTORE PUSH1 0x24 DUP5 ADD MSTORE GAS CALL DUP1 ISZERO PUSH2 0x48B JUMPI PUSH2 0x1ABF JUMPI JUMPDEST POP PUSH1 0x40 MLOAD PUSH4 0x69E38BC3 PUSH1 0xE0 SHL DUP2 MSTORE PUSH2 0xFFFF DUP3 AND PUSH1 0x4 DUP3 ADD MSTORE SWAP1 PUSH1 0x20 DUP3 PUSH1 0x24 DUP2 PUSH2 0x808 GAS STATICCALL SWAP2 DUP3 ISZERO PUSH2 0x48B JUMPI PUSH1 0x0 SWAP3 PUSH2 0x1A8B JUMPI JUMPDEST POP PUSH1 0x81 DUP2 LT ISZERO PUSH2 0x106A JUMPI SSTORE DUP1 DUP1 PUSH2 0x1998 JUMP JUMPDEST SWAP1 SWAP2 POP PUSH1 0x20 DUP2 RETURNDATASIZE PUSH1 0x20 GT PUSH2 0x1AB7 JUMPI JUMPDEST DUP2 PUSH2 0x1AA7 PUSH1 0x20 SWAP4 DUP4 PUSH2 0x265F JUMP JUMPDEST DUP2 ADD SUB SLT PUSH2 0x47E JUMPI MLOAD SWAP1 DUP3 PUSH2 0x1A79 JUMP JUMPDEST RETURNDATASIZE SWAP2 POP PUSH2 0x1A9A JUMP JUMPDEST PUSH2 0x1AC8 SWAP1 PUSH2 0x2630 JUMP JUMPDEST DUP2 PUSH2 0x1A46 JUMP JUMPDEST SWAP1 POP PUSH1 0x20 DUP2 RETURNDATASIZE PUSH1 0x20 GT PUSH2 0x1AF8 JUMPI JUMPDEST DUP2 PUSH2 0x1AE9 PUSH1 0x20 SWAP4 DUP4 PUSH2 0x265F JUMP JUMPDEST DUP2 ADD SUB SLT PUSH2 0x47E JUMPI MLOAD DUP3 PUSH2 0x1991 JUMP JUMPDEST RETURNDATASIZE SWAP2 POP PUSH2 0x1ADC JUMP JUMPDEST SWAP1 SWAP2 PUSH2 0x100 DUP2 GT ISZERO PUSH2 0x1B15 JUMPI JUMPDEST POP POP POP PUSH2 0x199B JUMP JUMPDEST PUSH3 0x1FF7C NOT DUP3 ADD GT PUSH2 0x8BF JUMPI PUSH1 0x40 MLOAD SWAP2 PUSH4 0x71DACC7D PUSH1 0xE1 SHL DUP4 MSTORE PUSH1 0x0 DUP1 MLOAD PUSH1 0x20 PUSH2 0x3336 DUP4 CODECOPY DUP2 MLOAD SWAP2 MSTORE PUSH1 0x4 DUP5 ADD MSTORE PUSH1 0x24 DUP4 ADD MSTORE PUSH1 0x0 PUSH1 0x44 DUP4 ADD MSTORE PUSH1 0x20 DUP3 PUSH1 0x64 DUP2 PUSH2 0x805 GAS STATICCALL SWAP2 DUP3 ISZERO PUSH2 0x48B JUMPI PUSH1 0x0 SWAP3 PUSH2 0x1E15 JUMPI JUMPDEST POP PUSH5 0x12A05F200 DUP1 DUP4 GT PUSH2 0x1E0D JUMPI JUMPDEST POP PUSH4 0x1DCD6500 DUP3 LT PUSH2 0x47E JUMPI PUSH1 0x40 MLOAD PUSH4 0x71DACC7D PUSH1 0xE1 SHL DUP2 MSTORE PUSH1 0x0 DUP1 MLOAD PUSH1 0x20 PUSH2 0x3336 DUP4 CODECOPY DUP2 MLOAD SWAP2 MSTORE PUSH1 0x4 DUP3 ADD MSTORE PUSH1 0x0 DUP1 MLOAD PUSH1 0x20 PUSH2 0x3356 DUP4 CODECOPY DUP2 MLOAD SWAP2 MSTORE PUSH1 0x24 DUP3 ADD MSTORE PUSH3 0x1FF7C NOT DUP3 ADD PUSH1 0x44 DUP3 ADD MSTORE SWAP2 PUSH1 0x20 DUP4 PUSH1 0x64 DUP2 PUSH2 0x805 GAS STATICCALL SWAP3 DUP4 ISZERO PUSH2 0x48B JUMPI PUSH1 0x0 SWAP4 PUSH2 0x1DD9 JUMPI JUMPDEST POP PUSH2 0x805 EXTCODESIZE ISZERO PUSH2 0x47E JUMPI PUSH1 0x40 MLOAD SWAP1 PUSH4 0xBE72FB1 PUSH1 0xE1 SHL DUP3 MSTORE PUSH1 0x0 DUP1 MLOAD PUSH1 0x20 PUSH2 0x3356 DUP4 CODECOPY DUP2 MLOAD SWAP2 MSTORE PUSH1 0x4 DUP4 ADD MSTORE PUSH1 0x0 DUP1 MLOAD PUSH1 0x20 PUSH2 0x3336 DUP4 CODECOPY DUP2 MLOAD SWAP2 MSTORE PUSH1 0x24 DUP4 ADD MSTORE PUSH1 0x0 PUSH1 0x44 DUP4 ADD MSTORE PUSH3 0x1FF7C NOT DUP4 ADD PUSH1 0x64 DUP4 ADD MSTORE PUSH1 0x84 DUP3 ADD MSTORE PUSH1 0x0 DUP2 PUSH1 0xA4 DUP2 DUP4 PUSH2 0x805 GAS CALL DUP1 ISZERO PUSH2 0x48B JUMPI PUSH2 0x1DCA JUMPI JUMPDEST POP PUSH1 0x40 MLOAD PUSH4 0x69E38BC3 PUSH1 0xE0 SHL DUP2 MSTORE PUSH3 0x1FF7C NOT DUP3 ADD PUSH2 0xFFFF AND PUSH1 0x4 DUP3 ADD MSTORE SWAP2 PUSH1 0x20 DUP4 PUSH1 0x24 DUP2 PUSH2 0x808 GAS STATICCALL SWAP3 DUP4 ISZERO PUSH2 0x48B JUMPI PUSH1 0x0 SWAP4 PUSH2 0x1D96 JUMPI JUMPDEST POP DUP1 PUSH2 0x1CAE JUMPI POP PUSH1 0x81 PUSH3 0x1FF7C NOT DUP3 ADD LT ISZERO PUSH2 0x106A JUMPI PUSH3 0x1FF7C NOT ADD SSTORE JUMPDEST DUP1 DUP1 DUP1 PUSH2 0x1B0D JUMP JUMPDEST PUSH1 0x40 MLOAD PUSH4 0x71DACC7D PUSH1 0xE1 SHL DUP2 MSTORE PUSH1 0x0 DUP1 MLOAD PUSH1 0x20 PUSH2 0x3336 DUP4 CODECOPY DUP2 MLOAD SWAP2 MSTORE PUSH1 0x4 DUP3 ADD MSTORE PUSH1 0x0 DUP1 MLOAD PUSH1 0x20 PUSH2 0x3356 DUP4 CODECOPY DUP2 MLOAD SWAP2 MSTORE PUSH1 0x24 DUP3 ADD MSTORE PUSH3 0x1FF7C NOT DUP4 ADD PUSH1 0x44 DUP3 ADD MSTORE SWAP2 SWAP3 SWAP1 SWAP2 SWAP1 PUSH1 0x20 DUP3 PUSH1 0x64 DUP2 PUSH2 0x805 GAS STATICCALL SWAP2 DUP3 ISZERO PUSH2 0x48B JUMPI PUSH1 0x0 SWAP3 PUSH2 0x1D62 JUMPI JUMPDEST POP PUSH1 0x81 PUSH3 0x1FF7C NOT DUP6 ADD LT ISZERO PUSH2 0x106A JUMPI DUP3 PUSH2 0x1D4A PUSH2 0x1D50 SWAP3 PUSH2 0x1D44 PUSH2 0x1D3D PUSH2 0x1D55 SWAP8 PUSH3 0x1FF7C NOT DUP11 ADD SLOAD PUSH2 0x26FA JUMP JUMPDEST SWAP4 DUP7 PUSH2 0x26AE JUMP JUMPDEST SWAP1 PUSH2 0x26FA JUMP JUMPDEST SWAP1 PUSH2 0x26A1 JUMP JUMPDEST PUSH2 0x26DA JUMP JUMPDEST SWAP1 PUSH3 0x1FF7C NOT ADD SSTORE PUSH2 0x1CA6 JUMP JUMPDEST SWAP1 SWAP2 POP PUSH1 0x20 DUP2 RETURNDATASIZE PUSH1 0x20 GT PUSH2 0x1D8E JUMPI JUMPDEST DUP2 PUSH2 0x1D7E PUSH1 0x20 SWAP4 DUP4 PUSH2 0x265F JUMP JUMPDEST DUP2 ADD SUB SLT PUSH2 0x47E JUMPI MLOAD SWAP1 DUP5 PUSH2 0x1D0E JUMP JUMPDEST RETURNDATASIZE SWAP2 POP PUSH2 0x1D71 JUMP JUMPDEST SWAP1 SWAP3 POP PUSH1 0x20 DUP2 RETURNDATASIZE PUSH1 0x20 GT PUSH2 0x1DC2 JUMPI JUMPDEST DUP2 PUSH2 0x1DB2 PUSH1 0x20 SWAP4 DUP4 PUSH2 0x265F JUMP JUMPDEST DUP2 ADD SUB SLT PUSH2 0x47E JUMPI MLOAD SWAP2 DUP4 PUSH2 0x1C88 JUMP JUMPDEST RETURNDATASIZE SWAP2 POP PUSH2 0x1DA5 JUMP JUMPDEST PUSH2 0x1DD3 SWAP1 PUSH2 0x2630 JUMP JUMPDEST DUP3 PUSH2 0x1C4F JUMP JUMPDEST SWAP1 SWAP3 POP PUSH1 0x20 DUP2 RETURNDATASIZE PUSH1 0x20 GT PUSH2 0x1E05 JUMPI JUMPDEST DUP2 PUSH2 0x1DF5 PUSH1 0x20 SWAP4 DUP4 PUSH2 0x265F JUMP JUMPDEST DUP2 ADD SUB SLT PUSH2 0x47E JUMPI MLOAD SWAP2 DUP4 PUSH2 0x1BE0 JUMP JUMPDEST RETURNDATASIZE SWAP2 POP PUSH2 0x1DE8 JUMP JUMPDEST SWAP2 POP DUP3 PUSH2 0x1B78 JUMP JUMPDEST SWAP1 SWAP2 POP PUSH1 0x20 DUP2 RETURNDATASIZE PUSH1 0x20 GT PUSH2 0x1E41 JUMPI JUMPDEST DUP2 PUSH2 0x1E31 PUSH1 0x20 SWAP4 DUP4 PUSH2 0x265F JUMP JUMPDEST DUP2 ADD SUB SLT PUSH2 0x47E JUMPI MLOAD SWAP1 DUP3 PUSH2 0x1B69 JUMP JUMPDEST RETURNDATASIZE SWAP2 POP PUSH2 0x1E24 JUMP JUMPDEST PUSH4 0x4E487B71 PUSH1 0xE0 SHL PUSH1 0x0 MSTORE PUSH1 0x41 PUSH1 0x4 MSTORE PUSH1 0x24 PUSH1 0x0 REVERT JUMPDEST CALLVALUE PUSH2 0x47E JUMPI PUSH1 0x20 CALLDATASIZE PUSH1 0x3 NOT ADD SLT PUSH2 0x47E JUMPI PUSH1 0x1 DUP1 PUSH1 0xA0 SHL SUB DUP1 PUSH32 0x0 AND CALLER EQ ISZERO SWAP1 DUP2 PUSH2 0x1EFA JUMPI JUMPDEST POP PUSH2 0x7BE JUMPI PUSH2 0x805 DUP1 EXTCODESIZE ISZERO PUSH2 0x47E JUMPI PUSH1 0x0 DUP1 SWAP2 PUSH1 0x64 PUSH1 0x40 MLOAD DUP1 SWAP5 DUP2 SWAP4 PUSH4 0x7D691E3 PUSH1 0xE4 SHL DUP4 MSTORE PUSH1 0x0 DUP1 MLOAD PUSH1 0x20 PUSH2 0x3336 DUP4 CODECOPY DUP2 MLOAD SWAP2 MSTORE PUSH1 0x4 DUP5 ADD MSTORE PUSH1 0x4 CALLDATALOAD PUSH1 0x24 DUP5 ADD MSTORE DUP2 PUSH1 0x44 DUP5 ADD MSTORE GAS CALL DUP1 ISZERO PUSH2 0x48B JUMPI PUSH2 0x6FC JUMPI STOP JUMPDEST SWAP1 POP PUSH1 0x81 SLOAD AND CALLER EQ ISZERO DUP2 PUSH2 0x1EA4 JUMP JUMPDEST CALLVALUE PUSH2 0x47E JUMPI PUSH1 0x0 CALLDATASIZE PUSH1 0x3 NOT ADD SLT PUSH2 0x47E JUMPI PUSH1 0x20 PUSH1 0x40 MLOAD PUSH32 0x2636AD834CD47318572033620D50377260A54FC64E5F150896186B2BAFDA7454 DUP2 MSTORE RETURN JUMPDEST CALLVALUE PUSH2 0x47E JUMPI PUSH1 0x0 CALLDATASIZE PUSH1 0x3 NOT ADD SLT PUSH2 0x47E JUMPI PUSH1 0x20 PUSH1 0x40 MLOAD PUSH32 0x0 DUP2 MSTORE RETURN JUMPDEST CALLVALUE PUSH2 0x47E JUMPI PUSH1 0x0 CALLDATASIZE PUSH1 0x3 NOT ADD SLT PUSH2 0x47E JUMPI PUSH1 0x20 PUSH1 0xFF PUSH1 0x83 SLOAD AND PUSH1 0x40 MLOAD SWAP1 ISZERO ISZERO DUP2 MSTORE RETURN JUMPDEST CALLVALUE PUSH2 0x47E JUMPI PUSH1 0x20 CALLDATASIZE PUSH1 0x3 NOT ADD SLT PUSH2 0x47E JUMPI PUSH1 0x4 CALLDATALOAD PUSH1 0x81 DUP2 LT ISZERO PUSH2 0x47E JUMPI PUSH1 0x20 SWAP1 SLOAD PUSH1 0x40 MLOAD SWAP1 DUP2 MSTORE RETURN JUMPDEST CALLVALUE PUSH2 0x47E JUMPI PUSH1 0x60 CALLDATASIZE PUSH1 0x3 NOT ADD SLT PUSH2 0x47E JUMPI PUSH1 0x1 PUSH1 0x1 PUSH1 0x40 SHL SUB PUSH1 0x4 CALLDATALOAD DUP2 DUP2 GT PUSH2 0x47E JUMPI PUSH2 0x1FFC SWAP1 CALLDATASIZE SWAP1 PUSH1 0x4 ADD PUSH2 0x255D JUMP JUMPDEST PUSH1 0x24 SWAP3 SWAP2 SWAP3 CALLDATALOAD DUP3 DUP2 GT PUSH2 0x47E JUMPI PUSH2 0x2017 SWAP1 CALLDATASIZE SWAP1 PUSH1 0x4 ADD PUSH2 0x255D JUMP JUMPDEST SWAP1 SWAP3 PUSH1 0x44 CALLDATALOAD SWAP1 DUP2 GT PUSH2 0x47E JUMPI PUSH2 0x2031 SWAP1 CALLDATASIZE SWAP1 PUSH1 0x4 ADD PUSH2 0x255D JUMP JUMPDEST SWAP4 SWAP1 SWAP3 PUSH32 0x0 PUSH1 0x1 PUSH1 0x1 PUSH1 0xA0 SHL SUB AND CALLER SUB PUSH2 0x8E7 JUMPI PUSH2 0x29 SWAP6 PUSH2 0x270D JUMP JUMPDEST CALLVALUE PUSH2 0x47E JUMPI PUSH1 0x80 CALLDATASIZE PUSH1 0x3 NOT ADD SLT PUSH2 0x47E JUMPI PUSH1 0x24 CALLDATALOAD PUSH1 0x1 PUSH1 0x1 PUSH1 0x40 SHL SUB DUP2 GT PUSH2 0x47E JUMPI PUSH2 0x209D SWAP1 CALLDATASIZE SWAP1 PUSH1 0x4 ADD PUSH2 0x255D JUMP JUMPDEST SWAP1 PUSH1 0x44 CALLDATALOAD PUSH1 0x1 PUSH1 0x1 PUSH1 0x40 SHL SUB DUP2 GT PUSH2 0x47E JUMPI PUSH2 0x20BD SWAP1 CALLDATASIZE SWAP1 PUSH1 0x4 ADD PUSH2 0x255D JUMP JUMPDEST SWAP3 SWAP1 SWAP2 PUSH32 0x0 PUSH1 0x1 PUSH1 0x1 PUSH1 0xA0 SHL SUB AND CALLER SUB PUSH2 0x8E7 JUMPI PUSH1 0x0 JUMPDEST DUP3 DUP2 LT PUSH2 0x20FC JUMPI STOP JUMPDEST PUSH2 0x2107 DUP2 DUP5 DUP5 PUSH2 0x2680 JUMP JUMPDEST CALLDATALOAD PUSH2 0x2113 DUP3 DUP8 DUP8 PUSH2 0x2680 JUMP JUMPDEST CALLDATALOAD PUSH1 0x40 MLOAD SWAP2 PUSH4 0x2B6589A3 PUSH1 0xE0 SHL DUP4 MSTORE PUSH1 0x4 DUP4 ADD MSTORE PUSH1 0x0 PUSH1 0x24 DUP4 ADD MSTORE PUSH1 0x20 DUP3 PUSH1 0x44 DUP2 PUSH2 0x805 GAS STATICCALL SWAP1 DUP2 ISZERO PUSH2 0x48B JUMPI PUSH1 0x0 SWAP2 PUSH2 0x2380 JUMPI JUMPDEST PUSH2 0x2152 SWAP3 POP PUSH2 0x26AE JUMP JUMPDEST PUSH1 0x40 MLOAD PUSH4 0xC2BA9E87 PUSH1 0xE0 SHL DUP2 MSTORE PUSH1 0x4 DUP1 CALLDATALOAD PUSH2 0xFFFF AND SWAP1 DUP3 ADD MSTORE PUSH1 0x20 DUP2 PUSH1 0x24 DUP2 PUSH2 0x808 GAS STATICCALL DUP1 ISZERO PUSH2 0x48B JUMPI PUSH2 0x219B SWAP2 PUSH1 0x0 SWAP2 PUSH2 0x2361 JUMPI JUMPDEST POP PUSH1 0x1 PUSH1 0x1 PUSH1 0x40 SHL SUB PUSH1 0x64 CALLDATALOAD SWAP2 AND PUSH2 0x26AE JUMP JUMPDEST SWAP1 DUP1 DUP3 GT SWAP2 DUP3 PUSH2 0x2351 JUMPI JUMPDEST POP DUP2 PUSH2 0x2341 JUMPI JUMPDEST POP PUSH2 0x21BB JUMPI JUMPDEST PUSH1 0x1 ADD PUSH2 0x20F3 JUMP JUMPDEST PUSH1 0x40 MLOAD PUSH4 0x71DACC7D PUSH1 0xE1 SHL DUP2 MSTORE PUSH1 0x0 DUP1 MLOAD PUSH1 0x20 PUSH2 0x3336 DUP4 CODECOPY DUP2 MLOAD SWAP2 MSTORE PUSH1 0x4 DUP3 ADD MSTORE PUSH1 0x0 DUP1 MLOAD PUSH1 0x20 PUSH2 0x3356 DUP4 CODECOPY DUP2 MLOAD SWAP2 MSTORE PUSH1 0x24 DUP3 ADD MSTORE PUSH1 0x4 CALLDATALOAD PUSH1 0x44 DUP3 ADD MSTORE PUSH1 0x20 DUP2 PUSH1 0x64 DUP2 PUSH2 0x805 GAS STATICCALL SWAP1 DUP2 ISZERO PUSH2 0x48B JUMPI PUSH1 0x0 SWAP2 PUSH2 0x230F JUMPI JUMPDEST POP DUP1 PUSH2 0x221F JUMPI JUMPDEST POP PUSH2 0x21B3 JUMP JUMPDEST PUSH20 0xD689D29F7EA0C511F4DDE84171B10D34078BB17C EXTCODESIZE ISZERO PUSH2 0x47E JUMPI PUSH1 0x40 MLOAD SWAP1 PUSH4 0x2D67F0B9 PUSH1 0xE0 SHL DUP3 MSTORE PUSH1 0x4 CALLDATALOAD PUSH1 0x4 DUP4 ADD MSTORE PUSH1 0x24 DUP3 ADD MSTORE PUSH1 0x0 DUP2 PUSH1 0x44 DUP2 DUP4 PUSH20 0xD689D29F7EA0C511F4DDE84171B10D34078BB17C GAS CALL DUP1 ISZERO PUSH2 0x48B JUMPI PUSH2 0x2300 JUMPI JUMPDEST POP PUSH1 0x40 MLOAD PUSH4 0x69E38BC3 PUSH1 0xE0 SHL DUP2 MSTORE PUSH1 0x4 DUP1 CALLDATALOAD PUSH2 0xFFFF AND SWAP1 DUP3 ADD MSTORE SWAP1 PUSH1 0x20 DUP3 PUSH1 0x24 DUP2 PUSH2 0x808 GAS STATICCALL SWAP2 DUP3 ISZERO PUSH2 0x48B JUMPI PUSH1 0x0 SWAP3 PUSH2 0x22CC JUMPI JUMPDEST POP PUSH1 0x81 PUSH1 0x4 CALLDATALOAD LT ISZERO PUSH2 0x106A JUMPI PUSH1 0x1 SWAP2 PUSH1 0x4 CALLDATALOAD SSTORE SWAP1 PUSH2 0x2219 JUMP JUMPDEST SWAP1 SWAP2 POP PUSH1 0x20 DUP2 RETURNDATASIZE PUSH1 0x20 GT PUSH2 0x22F8 JUMPI JUMPDEST DUP2 PUSH2 0x22E8 PUSH1 0x20 SWAP4 DUP4 PUSH2 0x265F JUMP JUMPDEST DUP2 ADD SUB SLT PUSH2 0x47E JUMPI MLOAD SWAP1 DUP7 PUSH2 0x22B3 JUMP JUMPDEST RETURNDATASIZE SWAP2 POP PUSH2 0x22DB JUMP JUMPDEST PUSH2 0x2309 SWAP1 PUSH2 0x2630 JUMP JUMPDEST DUP6 PUSH2 0x227E JUMP JUMPDEST SWAP1 POP PUSH1 0x20 DUP2 RETURNDATASIZE PUSH1 0x20 GT PUSH2 0x2339 JUMPI JUMPDEST DUP2 PUSH2 0x232A PUSH1 0x20 SWAP4 DUP4 PUSH2 0x265F JUMP JUMPDEST DUP2 ADD SUB SLT PUSH2 0x47E JUMPI MLOAD DUP7 PUSH2 0x2212 JUMP JUMPDEST RETURNDATASIZE SWAP2 POP PUSH2 0x231D JUMP JUMPDEST SWAP1 POP PUSH2 0x7D0 PUSH1 0x64 CALLDATALOAD DIV LT DUP7 PUSH2 0x21AD JUMP JUMPDEST PUSH2 0x3E8 PUSH1 0x64 CALLDATALOAD DIV LT SWAP2 POP DUP8 PUSH2 0x21A6 JUMP JUMPDEST PUSH2 0x237A SWAP2 POP PUSH1 0x20 RETURNDATASIZE PUSH1 0x20 GT PUSH2 0x113F JUMPI PUSH2 0x1131 DUP2 DUP4 PUSH2 0x265F JUMP JUMPDEST DUP9 PUSH2 0x2188 JUMP JUMPDEST SWAP1 POP PUSH1 0x20 DUP3 RETURNDATASIZE PUSH1 0x20 GT PUSH2 0x23AE JUMPI JUMPDEST DUP2 PUSH2 0x239B PUSH1 0x20 SWAP4 DUP4 PUSH2 0x265F JUMP JUMPDEST DUP2 ADD SUB SLT PUSH2 0x47E JUMPI PUSH2 0x2152 SWAP2 MLOAD SWAP1 PUSH2 0x2148 JUMP JUMPDEST RETURNDATASIZE SWAP2 POP PUSH2 0x238E JUMP JUMPDEST CALLVALUE PUSH2 0x47E JUMPI PUSH2 0x23C4 CALLDATASIZE PUSH2 0x258D JUMP JUMPDEST SWAP2 SWAP3 SWAP1 PUSH1 0x40 MLOAD SWAP3 PUSH2 0x23D4 DUP5 PUSH2 0x2643 JUMP JUMPDEST PUSH2 0x1020 SWAP5 DUP6 CALLDATASIZE DUP7 CALLDATACOPY DUP2 DUP2 SUB PUSH2 0x1340 JUMPI PUSH1 0x0 JUMPDEST DUP2 DUP2 LT PUSH2 0x23FC JUMPI DUP7 DUP7 PUSH2 0xBFE PUSH1 0x40 MLOAD DUP1 SWAP3 PUSH2 0x25D7 JUMP JUMPDEST PUSH2 0x2407 DUP2 DUP4 DUP8 PUSH2 0x2680 JUMP JUMPDEST CALLDATALOAD PUSH2 0x2413 DUP3 DUP6 DUP8 PUSH2 0x2680 JUMP JUMPDEST CALLDATALOAD SWAP1 PUSH1 0x1 JUMPDEST PUSH1 0x81 DUP2 LT PUSH2 0x242B JUMPI POP POP POP PUSH1 0x1 ADD PUSH2 0x23E6 JUMP JUMPDEST PUSH1 0x40 MLOAD PUSH4 0x71DACC7D PUSH1 0xE1 SHL DUP2 MSTORE PUSH1 0x4 DUP2 ADD DUP4 SWAP1 MSTORE PUSH1 0x24 DUP2 ADD DUP5 SWAP1 MSTORE PUSH1 0x44 DUP2 ADD DUP3 SWAP1 MSTORE PUSH1 0x20 SWAP2 SWAP1 DUP3 DUP2 PUSH1 0x64 DUP2 PUSH2 0x805 GAS STATICCALL SWAP3 DUP4 ISZERO PUSH2 0x48B JUMPI PUSH1 0x0 SWAP4 PUSH2 0x2493 JUMPI JUMPDEST POP POP PUSH2 0x2482 PUSH1 0x1 SWAP3 PUSH2 0x247C DUP4 DUP14 PUSH2 0x2690 JUMP JUMPDEST MLOAD PUSH2 0x26A1 JUMP JUMPDEST PUSH2 0x248C DUP3 DUP13 PUSH2 0x2690 JUMP JUMPDEST MSTORE ADD PUSH2 0x2418 JUMP JUMPDEST SWAP1 DUP1 SWAP4 POP DUP2 RETURNDATASIZE DUP4 GT PUSH2 0x24BF JUMPI JUMPDEST PUSH2 0x24AA DUP2 DUP4 PUSH2 0x265F JUMP JUMPDEST DUP2 ADD SUB SLT PUSH2 0x47E JUMPI PUSH2 0x2482 PUSH1 0x1 SWAP3 MLOAD SWAP3 PUSH2 0x246A JUMP JUMPDEST POP RETURNDATASIZE PUSH2 0x24A0 JUMP JUMPDEST CALLVALUE PUSH2 0x47E JUMPI PUSH1 0x0 CALLDATASIZE PUSH1 0x3 NOT ADD SLT PUSH2 0x47E JUMPI PUSH1 0x20 PUSH1 0x40 MLOAD PUSH1 0x0 DUP1 MLOAD PUSH1 0x20 PUSH2 0x3356 DUP4 CODECOPY DUP2 MLOAD SWAP2 MSTORE DUP2 MSTORE RETURN JUMPDEST CALLVALUE PUSH2 0x47E JUMPI PUSH1 0x20 CALLDATASIZE PUSH1 0x3 NOT ADD SLT PUSH2 0x47E JUMPI PUSH2 0x2508 PUSH2 0x2547 JUMP JUMPDEST PUSH1 0x81 SLOAD SWAP2 PUSH1 0x1 PUSH1 0x1 PUSH1 0xA0 SHL SUB SWAP2 SWAP1 DUP3 DUP5 AND CALLER SUB PUSH2 0x2538 JUMPI POP AND SWAP1 DUP2 ISZERO PUSH2 0x61D JUMPI PUSH1 0x1 PUSH1 0x1 PUSH1 0xA0 SHL SUB NOT AND OR PUSH1 0x81 SSTORE STOP JUMPDEST PUSH4 0x2D99BC83 PUSH1 0xE2 SHL DUP2 MSTORE PUSH1 0x4 SWAP1 REVERT JUMPDEST PUSH1 0x4 CALLDATALOAD SWAP1 PUSH1 0x1 PUSH1 0x1 PUSH1 0xA0 SHL SUB DUP3 AND DUP3 SUB PUSH2 0x47E JUMPI JUMP JUMPDEST SWAP2 DUP2 PUSH1 0x1F DUP5 ADD SLT ISZERO PUSH2 0x47E JUMPI DUP3 CALLDATALOAD SWAP2 PUSH1 0x1 PUSH1 0x1 PUSH1 0x40 SHL SUB DUP4 GT PUSH2 0x47E JUMPI PUSH1 0x20 DUP1 DUP6 ADD SWAP5 DUP5 PUSH1 0x5 SHL ADD ADD GT PUSH2 0x47E JUMPI JUMP JUMPDEST PUSH1 0x40 PUSH1 0x3 NOT DUP3 ADD SLT PUSH2 0x47E JUMPI PUSH1 0x1 PUSH1 0x1 PUSH1 0x40 SHL SUB SWAP2 PUSH1 0x4 CALLDATALOAD DUP4 DUP2 GT PUSH2 0x47E JUMPI DUP3 PUSH2 0x25B9 SWAP2 PUSH1 0x4 ADD PUSH2 0x255D JUMP JUMPDEST SWAP4 SWAP1 SWAP4 SWAP3 PUSH1 0x24 CALLDATALOAD SWAP2 DUP3 GT PUSH2 0x47E JUMPI PUSH2 0x25D3 SWAP2 PUSH1 0x4 ADD PUSH2 0x255D JUMP JUMPDEST SWAP1 SWAP2 JUMP JUMPDEST PUSH1 0x0 SWAP2 JUMPDEST PUSH1 0x81 DUP4 LT PUSH2 0x25E8 JUMPI POP POP POP JUMP JUMPDEST PUSH1 0x1 SWAP1 DUP3 MLOAD DUP2 MSTORE PUSH1 0x20 DUP1 SWAP2 ADD SWAP3 ADD SWAP3 ADD SWAP2 SWAP1 PUSH2 0x25DB JUMP JUMPDEST PUSH1 0x0 SWAP2 JUMPDEST PUSH1 0x81 DUP4 LT PUSH2 0x2610 JUMPI POP POP POP JUMP JUMPDEST PUSH1 0x1 SWAP1 PUSH1 0x1 PUSH1 0x1 PUSH1 0x40 SHL SUB DUP4 MLOAD AND DUP2 MSTORE PUSH1 0x20 DUP1 SWAP2 ADD SWAP3 ADD SWAP3 ADD SWAP2 SWAP1 PUSH2 0x2603 JUMP JUMPDEST PUSH1 0x1 PUSH1 0x1 PUSH1 0x40 SHL SUB DUP2 GT PUSH2 0x1E49 JUMPI PUSH1 0x40 MSTORE JUMP JUMPDEST PUSH2 0x1020 DUP2 ADD SWAP1 DUP2 LT PUSH1 0x1 PUSH1 0x1 PUSH1 0x40 SHL SUB DUP3 GT OR PUSH2 0x1E49 JUMPI PUSH1 0x40 MSTORE JUMP JUMPDEST SWAP1 PUSH1 0x1F DUP1 NOT SWAP2 ADD AND DUP2 ADD SWAP1 DUP2 LT PUSH1 0x1 PUSH1 0x1 PUSH1 0x40 SHL SUB DUP3 GT OR PUSH2 0x1E49 JUMPI PUSH1 0x40 MSTORE JUMP JUMPDEST SWAP2 SWAP1 DUP2 LT ISZERO PUSH2 0x106A JUMPI PUSH1 0x5 SHL ADD SWAP1 JUMP JUMPDEST SWAP1 PUSH1 0x81 DUP2 LT ISZERO PUSH2 0x106A JUMPI PUSH1 0x5 SHL ADD SWAP1 JUMP JUMPDEST SWAP2 SWAP1 DUP3 ADD DUP1 SWAP3 GT PUSH2 0x8BF JUMPI JUMP JUMPDEST SWAP2 SWAP1 DUP3 SUB SWAP2 DUP3 GT PUSH2 0x8BF JUMPI JUMP JUMPDEST SWAP1 DUP2 PUSH1 0x20 SWAP2 SUB SLT PUSH2 0x47E JUMPI MLOAD PUSH1 0x1 PUSH1 0x1 PUSH1 0x40 SHL SUB DUP2 AND DUP2 SUB PUSH2 0x47E JUMPI SWAP1 JUMP JUMPDEST DUP2 ISZERO PUSH2 0x26E4 JUMPI DIV SWAP1 JUMP JUMPDEST PUSH4 0x4E487B71 PUSH1 0xE0 SHL PUSH1 0x0 MSTORE PUSH1 0x12 PUSH1 0x4 MSTORE PUSH1 0x24 PUSH1 0x0 REVERT JUMPDEST DUP2 DUP2 MUL SWAP3 SWAP2 DUP2 ISZERO SWAP2 DUP5 DIV EQ OR ISZERO PUSH2 0x8BF JUMPI JUMP JUMPDEST SWAP3 SWAP5 SWAP2 SWAP4 SWAP5 DUP1 DUP3 EQ DUP1 ISZERO SWAP1 PUSH2 0x2AE2 JUMPI JUMPDEST PUSH2 0x1340 JUMPI PUSH1 0x0 JUMPDEST DUP3 DUP2 LT PUSH2 0x2734 JUMPI POP POP POP POP POP POP POP JUMP JUMPDEST PUSH2 0x273F DUP2 DUP4 DUP9 PUSH2 0x2680 JUMP JUMPDEST CALLDATALOAD SWAP1 DUP2 PUSH2 0x2751 JUMPI JUMPDEST PUSH1 0x1 SWAP2 POP ADD PUSH2 0x2724 JUMP JUMPDEST PUSH2 0x275C DUP2 DUP6 DUP9 PUSH2 0x2680 JUMP JUMPDEST CALLDATALOAD SWAP2 PUSH2 0x2769 DUP3 DUP8 DUP12 PUSH2 0x2680 JUMP JUMPDEST PUSH1 0x40 MLOAD PUSH4 0x69E38BC3 PUSH1 0xE0 SHL DUP2 MSTORE PUSH2 0xFFFF DUP6 AND PUSH1 0x4 DUP3 ADD MSTORE SWAP1 CALLDATALOAD PUSH1 0x20 DUP3 PUSH1 0x24 DUP2 PUSH2 0x808 GAS STATICCALL SWAP2 DUP3 ISZERO PUSH2 0x48B JUMPI PUSH1 0x0 SWAP3 PUSH2 0x2AAE JUMPI JUMPDEST POP LT ISZERO PUSH2 0x27AA JUMPI JUMPDEST POP PUSH2 0x2747 JUMP JUMPDEST PUSH1 0x40 MLOAD PUSH4 0x71DACC7D PUSH1 0xE1 SHL DUP2 MSTORE PUSH1 0x0 DUP1 MLOAD PUSH1 0x20 PUSH2 0x3336 DUP4 CODECOPY DUP2 MLOAD SWAP2 MSTORE PUSH1 0x4 DUP3 ADD MSTORE PUSH32 0x0 PUSH1 0x24 DUP3 ADD MSTORE PUSH1 0x0 PUSH1 0x44 DUP3 ADD MSTORE SWAP1 PUSH1 0x20 DUP3 PUSH1 0x64 DUP2 PUSH2 0x805 GAS STATICCALL SWAP2 DUP3 ISZERO PUSH2 0x48B JUMPI PUSH1 0x0 SWAP3 PUSH2 0x2A7A JUMPI JUMPDEST POP DUP1 DUP3 GT PUSH2 0x2A72 JUMPI JUMPDEST POP PUSH4 0x1DCD6500 DUP2 LT PUSH2 0x2A67 JUMPI PUSH1 0x40 MLOAD PUSH4 0x71DACC7D PUSH1 0xE1 SHL DUP2 MSTORE PUSH1 0x0 DUP1 MLOAD PUSH1 0x20 PUSH2 0x3336 DUP4 CODECOPY DUP2 MLOAD SWAP2 MSTORE PUSH1 0x4 DUP3 ADD MSTORE PUSH1 0x0 DUP1 MLOAD PUSH1 0x20 PUSH2 0x3356 DUP4 CODECOPY DUP2 MLOAD SWAP2 MSTORE PUSH1 0x24 DUP3 ADD MSTORE PUSH1 0x44 DUP2 ADD DUP5 SWAP1 MSTORE SWAP1 PUSH1 0x20 DUP3 PUSH1 0x64 DUP2 PUSH2 0x805 GAS STATICCALL SWAP2 DUP3 ISZERO PUSH2 0x48B JUMPI PUSH1 0x0 SWAP3 PUSH2 0x2A33 JUMPI JUMPDEST POP PUSH2 0x805 EXTCODESIZE ISZERO PUSH2 0x47E JUMPI PUSH1 0x40 MLOAD SWAP1 PUSH4 0xBE72FB1 PUSH1 0xE1 SHL DUP3 MSTORE PUSH1 0x0 DUP1 MLOAD PUSH1 0x20 PUSH2 0x3356 DUP4 CODECOPY DUP2 MLOAD SWAP2 MSTORE PUSH1 0x4 DUP4 ADD MSTORE PUSH1 0x0 DUP1 MLOAD PUSH1 0x20 PUSH2 0x3336 DUP4 CODECOPY DUP2 MLOAD SWAP2 MSTORE PUSH1 0x24 DUP4 ADD MSTORE PUSH1 0x0 PUSH1 0x44 DUP4 ADD MSTORE DUP5 PUSH1 0x64 DUP4 ADD MSTORE PUSH1 0x84 DUP3 ADD MSTORE PUSH1 0x0 DUP2 PUSH1 0xA4 DUP2 DUP4 PUSH2 0x805 GAS CALL DUP1 ISZERO PUSH2 0x48B JUMPI PUSH2 0x2A24 JUMPI JUMPDEST POP PUSH1 0x40 MLOAD PUSH4 0x69E38BC3 PUSH1 0xE0 SHL DUP2 MSTORE PUSH2 0xFFFF DUP5 AND PUSH1 0x4 DUP3 ADD MSTORE SWAP1 PUSH1 0x20 DUP3 PUSH1 0x24 DUP2 PUSH2 0x808 GAS STATICCALL SWAP2 DUP3 ISZERO PUSH2 0x48B JUMPI PUSH1 0x0 SWAP3 PUSH2 0x29F0 JUMPI JUMPDEST POP DUP1 PUSH2 0x2936 JUMPI POP PUSH1 0x81 DUP4 LT ISZERO PUSH2 0x106A JUMPI PUSH1 0x1 SWAP3 SSTORE JUMPDEST CODESIZE PUSH2 0x27A4 JUMP JUMPDEST PUSH1 0x40 MLOAD PUSH4 0x71DACC7D PUSH1 0xE1 SHL DUP2 MSTORE PUSH1 0x0 DUP1 MLOAD PUSH1 0x20 PUSH2 0x3336 DUP4 CODECOPY DUP2 MLOAD SWAP2 MSTORE PUSH1 0x4 DUP3 ADD MSTORE PUSH1 0x0 DUP1 MLOAD PUSH1 0x20 PUSH2 0x3356 DUP4 CODECOPY DUP2 MLOAD SWAP2 MSTORE PUSH1 0x24 DUP3 ADD MSTORE PUSH1 0x44 DUP2 ADD DUP6 SWAP1 MSTORE SWAP2 SWAP4 SWAP2 PUSH1 0x20 DUP2 PUSH1 0x64 DUP2 PUSH2 0x805 GAS STATICCALL SWAP1 DUP2 ISZERO PUSH2 0x48B JUMPI PUSH1 0x0 SWAP2 PUSH2 0x29BB JUMPI JUMPDEST POP PUSH1 0x81 DUP4 LT ISZERO PUSH2 0x106A JUMPI PUSH2 0x1D50 DUP3 PUSH2 0x1D4A PUSH1 0x1 SWAP8 PUSH2 0x1D44 PUSH2 0x1D3D PUSH2 0x29B4 SWAP8 DUP10 SLOAD PUSH2 0x26FA JUMP JUMPDEST SWAP1 SSTORE PUSH2 0x2930 JUMP JUMPDEST SWAP1 PUSH1 0x20 DUP3 RETURNDATASIZE PUSH1 0x20 GT PUSH2 0x29E8 JUMPI JUMPDEST DUP2 PUSH2 0x29D5 PUSH1 0x20 SWAP4 DUP4 PUSH2 0x265F JUMP JUMPDEST DUP2 ADD SUB SLT PUSH2 0x29E5 JUMPI POP MLOAD CODESIZE PUSH2 0x298F JUMP JUMPDEST DUP1 REVERT JUMPDEST RETURNDATASIZE SWAP2 POP PUSH2 0x29C8 JUMP JUMPDEST SWAP1 SWAP2 PUSH1 0x20 DUP3 RETURNDATASIZE PUSH1 0x20 GT PUSH2 0x2A1C JUMPI JUMPDEST DUP2 PUSH2 0x2A0B PUSH1 0x20 SWAP4 DUP4 PUSH2 0x265F JUMP JUMPDEST DUP2 ADD SUB SLT PUSH2 0x29E5 JUMPI POP MLOAD SWAP1 CODESIZE PUSH2 0x291B JUMP JUMPDEST RETURNDATASIZE SWAP2 POP PUSH2 0x29FE JUMP JUMPDEST PUSH2 0x2A2D SWAP1 PUSH2 0x2630 JUMP JUMPDEST CODESIZE PUSH2 0x28E8 JUMP JUMPDEST SWAP1 SWAP2 PUSH1 0x20 DUP3 RETURNDATASIZE PUSH1 0x20 GT PUSH2 0x2A5F JUMPI JUMPDEST DUP2 PUSH2 0x2A4E PUSH1 0x20 SWAP4 DUP4 PUSH2 0x265F JUMP JUMPDEST DUP2 ADD SUB SLT PUSH2 0x29E5 JUMPI POP MLOAD SWAP1 CODESIZE PUSH2 0x287F JUMP JUMPDEST RETURNDATASIZE SWAP2 POP PUSH2 0x2A41 JUMP JUMPDEST POP POP POP POP POP POP POP POP POP JUMP JUMPDEST SWAP1 POP CODESIZE PUSH2 0x281C JUMP JUMPDEST SWAP1 SWAP2 PUSH1 0x20 DUP3 RETURNDATASIZE PUSH1 0x20 GT PUSH2 0x2AA6 JUMPI JUMPDEST DUP2 PUSH2 0x2A95 PUSH1 0x20 SWAP4 DUP4 PUSH2 0x265F JUMP JUMPDEST DUP2 ADD SUB SLT PUSH2 0x29E5 JUMPI POP MLOAD SWAP1 CODESIZE PUSH2 0x2813 JUMP JUMPDEST RETURNDATASIZE SWAP2 POP PUSH2 0x2A88 JUMP JUMPDEST SWAP1 SWAP2 PUSH1 0x20 DUP3 RETURNDATASIZE PUSH1 0x20 GT PUSH2 0x2ADA JUMPI JUMPDEST DUP2 PUSH2 0x2AC9 PUSH1 0x20 SWAP4 DUP4 PUSH2 0x265F JUMP JUMPDEST DUP2 ADD SUB SLT PUSH2 0x29E5 JUMPI POP MLOAD SWAP1 CODESIZE PUSH2 0x279C JUMP JUMPDEST RETURNDATASIZE SWAP2 POP PUSH2 0x2ABC JUMP JUMPDEST POP DUP3 DUP3 EQ ISZERO PUSH2 0x271D JUMP JUMPDEST RETURNDATASIZE ISZERO PUSH2 0x2B26 JUMPI RETURNDATASIZE SWAP1 PUSH1 0x1 PUSH1 0x1 PUSH1 0x40 SHL SUB DUP3 GT PUSH2 0x1E49 JUMPI PUSH1 0x40 MLOAD SWAP2 PUSH2 0x2B1A PUSH1 0x1F DUP3 ADD PUSH1 0x1F NOT AND PUSH1 0x20 ADD DUP5 PUSH2 0x265F JUMP JUMPDEST DUP3 MSTORE RETURNDATASIZE PUSH1 0x0 PUSH1 0x20 DUP5 ADD RETURNDATACOPY JUMP JUMPDEST PUSH1 0x60 SWAP1 JUMP JUMPDEST PUSH1 0x1 PUSH1 0x1 PUSH1 0x40 SHL SUB DUP2 GT PUSH2 0x1E49 JUMPI PUSH1 0x5 SHL PUSH1 0x20 ADD SWAP1 JUMP JUMPDEST SWAP1 PUSH2 0x2B4C DUP3 PUSH2 0x2B2B JUMP JUMPDEST PUSH2 0x2B59 PUSH1 0x40 MLOAD SWAP2 DUP3 PUSH2 0x265F JUMP JUMPDEST DUP3 DUP2 MSTORE DUP1 SWAP3 PUSH2 0x2B6A PUSH1 0x1F NOT SWAP2 PUSH2 0x2B2B JUMP JUMPDEST ADD SWAP1 PUSH1 0x20 CALLDATASIZE SWAP2 ADD CALLDATACOPY JUMP JUMPDEST DUP1 MLOAD DUP3 LT ISZERO PUSH2 0x106A JUMPI PUSH1 0x20 SWAP2 PUSH1 0x5 SHL ADD ADD SWAP1 JUMP JUMPDEST SWAP12 SWAP3 SWAP2 SWAP1 SWAP11 SWAP9 SWAP4 SWAP5 SWAP6 SWAP7 SWAP8 SWAP11 PUSH1 0xE0 MSTORE PUSH1 0x80 MSTORE PUSH1 0xA0 MSTORE PUSH1 0xC0 MSTORE PUSH1 0xA0 MLOAD PUSH1 0xE0 MLOAD SUB PUSH2 0x1340 JUMPI DUP5 DUP4 SUB PUSH2 0x1340 JUMPI PUSH1 0x0 JUMPDEST PUSH1 0xE0 MLOAD DUP2 LT PUSH2 0x2BCA JUMPI POP POP POP POP POP POP POP POP POP POP JUMP JUMPDEST DUP1 DUP10 DUP8 DUP8 DUP8 DUP8 DUP16 DUP9 SWAP8 PUSH2 0x2BE0 SWAP2 PUSH1 0xE0 MLOAD SWAP1 PUSH2 0x2680 JUMP JUMPDEST CALLDATALOAD SWAP5 PUSH1 0xC0 MLOAD PUSH1 0xC0 MLOAD PUSH2 0x2FA7 JUMPI JUMPDEST PUSH2 0x2F96 JUMPI DUP7 PUSH2 0x2C08 SWAP7 SWAP8 SWAP9 PUSH2 0x2C01 SWAP3 PUSH2 0x2680 JUMP JUMPDEST CALLDATALOAD DUP7 PUSH2 0x31B7 JUMP JUMPDEST ISZERO DUP1 PUSH2 0x2F25 JUMPI JUMPDEST PUSH2 0x2C20 JUMPI JUMPDEST POP PUSH1 0x1 ADD SWAP9 JUMPDEST SWAP9 PUSH2 0x2BB5 JUMP JUMPDEST PUSH2 0x2C2F DUP3 PUSH1 0xA0 MLOAD PUSH1 0x80 MLOAD PUSH2 0x2680 JUMP JUMPDEST CALLDATALOAD PUSH1 0x40 SWAP1 DUP2 MLOAD SWAP2 PUSH4 0x71DACC7D PUSH1 0xE1 SHL SWAP2 DUP3 DUP5 MSTORE PUSH1 0x0 DUP1 MLOAD PUSH1 0x20 PUSH2 0x3336 DUP4 CODECOPY DUP2 MLOAD SWAP2 MSTORE SWAP4 PUSH1 0x4 SWAP4 DUP6 DUP6 DUP4 ADD MSTORE PUSH1 0x24 SWAP6 PUSH32 0x0 DUP8 DUP5 ADD MSTORE PUSH1 0x44 SWAP4 PUSH1 0x0 DUP6 DUP6 ADD MSTORE PUSH1 0x20 SWAP3 PUSH1 0x64 SWAP2 PUSH2 0x805 SWAP1 DUP6 DUP8 DUP6 DUP2 DUP6 GAS STATICCALL SWAP7 DUP8 ISZERO PUSH2 0x2E83 JUMPI PUSH1 0x0 SWAP8 PUSH2 0x2EF6 JUMPI JUMPDEST POP DUP1 DUP8 GT PUSH2 0x2EEE JUMPI JUMPDEST POP PUSH4 0x1DCD6500 DUP7 LT PUSH2 0x2ED7 JUMPI DUP8 MLOAD SWAP7 DUP3 DUP9 MSTORE DUP5 DUP11 DUP10 ADD MSTORE PUSH1 0x0 DUP1 MLOAD PUSH1 0x20 PUSH2 0x3356 DUP4 CODECOPY DUP2 MLOAD SWAP2 MSTORE SWAP7 DUP8 DUP13 DUP11 ADD MSTORE DUP13 DUP3 DUP11 ADD MSTORE DUP7 DUP10 DUP7 DUP2 DUP7 GAS STATICCALL SWAP9 DUP10 ISZERO PUSH2 0x2E9D JUMPI PUSH1 0x0 SWAP10 PUSH2 0x2EA8 JUMPI JUMPDEST POP DUP3 EXTCODESIZE ISZERO PUSH2 0x47E JUMPI DUP10 MLOAD SWAP1 PUSH4 0xBE72FB1 PUSH1 0xE1 SHL DUP3 MSTORE DUP9 DUP13 DUP4 ADD MSTORE DUP7 DUP14 DUP4 ADD MSTORE PUSH1 0x0 DUP4 DUP4 ADD MSTORE DUP14 DUP7 DUP4 ADD MSTORE PUSH1 0x84 DUP3 ADD MSTORE PUSH1 0x0 DUP2 PUSH1 0xA4 DUP2 DUP4 DUP8 GAS CALL DUP1 ISZERO PUSH2 0x2E9D JUMPI SWAP1 PUSH2 0xFFFF SWAP14 SWAP13 SWAP12 SWAP11 SWAP10 SWAP9 SWAP8 SWAP7 SWAP6 SWAP5 SWAP4 SWAP3 SWAP2 PUSH2 0x2E8E JUMPI JUMPDEST POP DUP9 MLOAD PUSH4 0x69E38BC3 PUSH1 0xE0 SHL DUP2 MSTORE SWAP13 DUP13 AND DUP14 DUP12 ADD MSTORE DUP6 DUP14 DUP13 DUP2 PUSH2 0x808 GAS STATICCALL SWAP13 DUP14 ISZERO PUSH2 0x2E83 JUMPI PUSH1 0x0 SWAP14 PUSH2 0x2E54 JUMPI JUMPDEST POP DUP8 PUSH2 0x2DB4 JUMPI POP POP POP POP POP POP POP POP POP PUSH1 0x81 DUP4 LT ISZERO PUSH2 0x2DA1 JUMPI POP POP SSTORE PUSH1 0x1 SWAP1 JUMPDEST SWAP1 PUSH2 0x2C14 JUMP JUMPDEST PUSH1 0x32 SWAP1 PUSH4 0x4E487B71 PUSH1 0xE0 SHL PUSH1 0x0 MSTORE MSTORE PUSH1 0x0 REVERT JUMPDEST SWAP1 DUP12 DUP7 SWAP6 SWAP5 SWAP4 SWAP3 DUP11 SWAP14 SWAP15 SWAP12 SWAP10 SWAP13 SWAP11 MLOAD SWAP9 DUP10 SWAP7 DUP8 SWAP6 DUP7 MSTORE DUP12 DUP7 ADD MSTORE DUP12 DUP6 ADD MSTORE DUP4 ADD MSTORE GAS STATICCALL SWAP7 DUP8 ISZERO PUSH2 0x2E4A JUMPI POP PUSH1 0x0 SWAP7 PUSH2 0x2E19 JUMPI JUMPDEST POP POP PUSH1 0x81 DUP7 LT ISZERO PUSH2 0x2DA1 JUMPI POP POP SWAP2 PUSH2 0x1D50 DUP3 PUSH2 0x1D4A DUP7 SWAP6 PUSH2 0x1D44 PUSH2 0x1D3D PUSH2 0x2E12 SWAP8 PUSH1 0x1 SWAP12 SWAP11 SLOAD PUSH2 0x26FA JUMP JUMPDEST SWAP1 SSTORE PUSH2 0x2D9B JUMP JUMPDEST DUP2 DUP2 SWAP8 SWAP3 SWAP4 SWAP8 RETURNDATASIZE DUP4 GT PUSH2 0x2E43 JUMPI JUMPDEST PUSH2 0x2E31 DUP2 DUP4 PUSH2 0x265F JUMP JUMPDEST DUP2 ADD SUB SLT PUSH2 0x29E5 JUMPI POP MLOAD SWAP4 CODESIZE DUP1 PUSH2 0x2DE7 JUMP JUMPDEST POP RETURNDATASIZE PUSH2 0x2E27 JUMP JUMPDEST MLOAD RETURNDATASIZE PUSH1 0x0 DUP3 RETURNDATACOPY RETURNDATASIZE SWAP1 REVERT JUMPDEST SWAP1 SWAP13 DUP7 DUP3 DUP2 RETURNDATASIZE DUP4 GT PUSH2 0x2E7C JUMPI JUMPDEST PUSH2 0x2E6B DUP2 DUP4 PUSH2 0x265F JUMP JUMPDEST DUP2 ADD SUB SLT PUSH2 0x29E5 JUMPI POP MLOAD SWAP12 CODESIZE PUSH2 0x2D7C JUMP JUMPDEST POP RETURNDATASIZE PUSH2 0x2E61 JUMP JUMPDEST DUP10 MLOAD RETURNDATASIZE PUSH1 0x0 DUP3 RETURNDATACOPY RETURNDATASIZE SWAP1 REVERT JUMPDEST PUSH2 0x2E97 SWAP1 PUSH2 0x2630 JUMP JUMPDEST CODESIZE PUSH2 0x2D50 JUMP JUMPDEST DUP11 MLOAD RETURNDATASIZE PUSH1 0x0 DUP3 RETURNDATACOPY RETURNDATASIZE SWAP1 REVERT JUMPDEST SWAP1 SWAP9 DUP8 DUP3 DUP2 RETURNDATASIZE DUP4 GT PUSH2 0x2ED0 JUMPI JUMPDEST PUSH2 0x2EBF DUP2 DUP4 PUSH2 0x265F JUMP JUMPDEST DUP2 ADD SUB SLT PUSH2 0x29E5 JUMPI POP MLOAD SWAP8 CODESIZE PUSH2 0x2CFB JUMP JUMPDEST POP RETURNDATASIZE PUSH2 0x2EB5 JUMP JUMPDEST POP POP POP POP POP POP POP POP POP POP POP POP POP POP POP POP POP POP POP POP POP JUMP JUMPDEST SWAP6 POP CODESIZE PUSH2 0x2CB4 JUMP JUMPDEST SWAP1 SWAP7 DUP7 DUP3 DUP2 RETURNDATASIZE DUP4 GT PUSH2 0x2F1E JUMPI JUMPDEST PUSH2 0x2F0D DUP2 DUP4 PUSH2 0x265F JUMP JUMPDEST DUP2 ADD SUB SLT PUSH2 0x29E5 JUMPI POP MLOAD SWAP6 CODESIZE PUSH2 0x2CAB JUMP JUMPDEST POP RETURNDATASIZE PUSH2 0x2F03 JUMP JUMPDEST POP PUSH2 0x2F31 DUP3 DUP10 DUP12 PUSH2 0x2680 JUMP JUMPDEST CALLDATALOAD PUSH1 0x40 DUP1 MLOAD PUSH4 0x2D9BFC71 PUSH1 0xE0 SHL DUP2 MSTORE PUSH2 0xFFFF DUP5 AND PUSH1 0x4 DUP3 ADD MSTORE PUSH1 0x20 DUP2 PUSH1 0x24 DUP2 PUSH2 0x808 GAS STATICCALL SWAP2 DUP3 ISZERO PUSH2 0x2E4A JUMPI POP SWAP1 PUSH1 0x1 PUSH1 0x1 PUSH1 0x40 SHL SUB SWAP2 PUSH1 0x0 SWAP2 PUSH2 0x2F77 JUMPI JUMPDEST POP AND LT PUSH2 0x2C0F JUMP JUMPDEST PUSH2 0x2F90 SWAP2 POP PUSH1 0x20 RETURNDATASIZE PUSH1 0x20 GT PUSH2 0x113F JUMPI PUSH2 0x1131 DUP2 DUP4 PUSH2 0x265F JUMP JUMPDEST CODESIZE PUSH2 0x2F6F JUMP JUMPDEST POP POP POP POP POP POP PUSH1 0x1 SWAP2 POP ADD SWAP9 PUSH2 0x2C1A JUMP JUMPDEST POP POP POP POP POP POP SWAP1 SWAP2 POP PUSH1 0x40 DUP1 MLOAD PUSH4 0x71DACC7D PUSH1 0xE1 SHL DUP2 MSTORE PUSH1 0x0 DUP1 MLOAD PUSH1 0x20 PUSH2 0x3336 DUP4 CODECOPY DUP2 MLOAD SWAP2 MSTORE PUSH1 0x4 DUP3 ADD MSTORE PUSH1 0x0 DUP1 MLOAD PUSH1 0x20 PUSH2 0x3356 DUP4 CODECOPY DUP2 MLOAD SWAP2 MSTORE PUSH1 0x24 DUP3 ADD MSTORE DUP3 PUSH1 0x44 DUP3 ADD MSTORE PUSH1 0x20 DUP2 PUSH1 0x64 DUP2 PUSH2 0x805 GAS STATICCALL SWAP2 DUP3 ISZERO PUSH2 0x2E4A JUMPI POP DUP8 DUP8 DUP8 DUP15 DUP9 SWAP8 SWAP7 SWAP6 DUP14 SWAP6 PUSH1 0x0 SWAP2 PUSH2 0x301D JUMPI JUMPDEST POP PUSH4 0x3B9ACA00 LT PUSH2 0x2BED JUMP JUMPDEST SWAP7 SWAP8 SWAP9 POP SWAP5 POP POP POP POP POP PUSH1 0x20 DUP3 RETURNDATASIZE PUSH1 0x20 GT PUSH2 0x305E JUMPI JUMPDEST DUP2 PUSH2 0x3040 PUSH1 0x20 SWAP4 DUP4 PUSH2 0x265F JUMP JUMPDEST DUP2 ADD SUB SLT PUSH2 0x29E5 JUMPI POP SWAP1 DUP8 DUP8 DUP8 DUP8 DUP15 PUSH4 0x3B9ACA00 DUP10 SWAP9 SWAP8 MLOAD SWAP1 PUSH2 0x3011 JUMP JUMPDEST RETURNDATASIZE SWAP2 POP PUSH2 0x3033 JUMP JUMPDEST PUSH1 0x40 DUP1 MLOAD PUSH2 0x3073 DUP2 PUSH2 0x2643 JUMP JUMPDEST PUSH2 0x1020 CALLDATASIZE DUP3 CALLDATACOPY DUP1 SWAP3 PUSH1 0x0 SWAP1 PUSH1 0x0 JUMPDEST PUSH2 0xFFFF SWAP1 DUP2 DUP2 AND PUSH1 0x81 DUP2 LT ISZERO PUSH2 0x310A JUMPI DUP7 MLOAD PUSH4 0xC2BA9E87 PUSH1 0xE0 SHL DUP2 MSTORE PUSH1 0x4 DUP2 ADD DUP3 SWAP1 MSTORE PUSH1 0x1 SWAP3 SWAP2 PUSH1 0x20 DUP1 DUP4 PUSH1 0x24 DUP2 PUSH2 0x808 GAS STATICCALL SWAP3 DUP4 SWAP2 DUP10 SWAP5 PUSH2 0x30EB JUMPI JUMPDEST POP POP PUSH2 0x30CE JUMPI JUMPDEST POP POP ADD AND PUSH2 0x3081 JUMP JUMPDEST PUSH2 0x30E0 PUSH1 0x1 PUSH1 0x1 PUSH1 0x40 SHL SUB SWAP2 DUP10 PUSH2 0x2690 JUMP JUMPDEST SWAP2 AND SWAP1 MSTORE CODESIZE DUP1 PUSH2 0x30C5 JUMP JUMPDEST PUSH2 0x3102 SWAP3 SWAP5 POP DUP1 RETURNDATASIZE LT PUSH2 0x113F JUMPI PUSH2 0x1131 DUP2 DUP4 PUSH2 0x265F JUMP JUMPDEST SWAP2 CODESIZE DUP1 PUSH2 0x30BE JUMP JUMPDEST POP POP POP SWAP3 POP POP POP JUMP JUMPDEST PUSH1 0x40 DUP1 MLOAD PUSH2 0x3120 DUP2 PUSH2 0x2643 JUMP JUMPDEST PUSH2 0x1020 CALLDATASIZE DUP3 CALLDATACOPY DUP1 SWAP3 PUSH1 0x0 SWAP1 PUSH1 0x0 JUMPDEST PUSH2 0xFFFF SWAP1 DUP2 DUP2 AND PUSH1 0x81 DUP2 LT ISZERO PUSH2 0x310A JUMPI DUP7 MLOAD PUSH4 0x2D9BFC71 PUSH1 0xE0 SHL DUP2 MSTORE PUSH1 0x4 DUP2 ADD DUP3 SWAP1 MSTORE PUSH1 0x1 SWAP3 SWAP2 PUSH1 0x20 DUP1 DUP4 PUSH1 0x24 DUP2 PUSH2 0x808 GAS STATICCALL SWAP3 DUP4 SWAP2 DUP10 SWAP5 PUSH2 0x3198 JUMPI JUMPDEST POP POP PUSH2 0x317B JUMPI JUMPDEST POP POP ADD AND PUSH2 0x312E JUMP JUMPDEST PUSH2 0x318D PUSH1 0x1 PUSH1 0x1 PUSH1 0x40 SHL SUB SWAP2 DUP10 PUSH2 0x2690 JUMP JUMPDEST SWAP2 AND SWAP1 MSTORE CODESIZE DUP1 PUSH2 0x3172 JUMP JUMPDEST PUSH2 0x31AF SWAP3 SWAP5 POP DUP1 RETURNDATASIZE LT PUSH2 0x113F JUMPI PUSH2 0x1131 DUP2 DUP4 PUSH2 0x265F JUMP JUMPDEST SWAP2 CODESIZE DUP1 PUSH2 0x316B JUMP JUMPDEST SWAP2 SWAP5 SWAP3 SWAP4 SWAP1 SWAP4 PUSH1 0x0 JUMPDEST DUP2 DUP2 LT PUSH2 0x31D3 JUMPI POP POP POP POP POP POP POP PUSH1 0x0 SWAP1 JUMP JUMPDEST PUSH2 0x31DE DUP2 DUP4 DUP10 PUSH2 0x2680 JUMP JUMPDEST CALLDATALOAD PUSH2 0x31EA DUP3 DUP8 DUP7 PUSH2 0x2680 JUMP JUMPDEST PUSH1 0x40 DUP1 MLOAD PUSH4 0x71DACC7D PUSH1 0xE1 SHL DUP2 MSTORE PUSH1 0x4 DUP2 ADD SWAP4 SWAP1 SWAP4 MSTORE SWAP1 CALLDATALOAD PUSH1 0x24 DUP4 ADD MSTORE PUSH1 0x44 DUP3 ADD DUP7 SWAP1 MSTORE SWAP1 PUSH1 0x20 DUP1 DUP3 PUSH1 0x64 DUP2 PUSH2 0x805 GAS STATICCALL SWAP3 DUP4 ISZERO PUSH2 0x2E4A JUMPI POP SWAP1 DUP9 SWAP3 SWAP2 PUSH1 0x0 SWAP3 PUSH2 0x324A JUMPI JUMPDEST POP POP GT PUSH2 0x323E JUMPI PUSH1 0x1 ADD PUSH2 0x31C0 JUMP JUMPDEST POP POP POP POP POP POP POP PUSH1 0x1 SWAP1 JUMP JUMPDEST SWAP1 DUP1 SWAP4 POP DUP2 RETURNDATASIZE DUP4 GT PUSH2 0x3274 JUMPI JUMPDEST PUSH2 0x3261 DUP2 DUP4 PUSH2 0x265F JUMP JUMPDEST DUP2 ADD SUB SLT PUSH2 0x29E5 JUMPI POP DUP7 SWAP1 MLOAD CODESIZE DUP1 PUSH2 0x322F JUMP JUMPDEST POP RETURNDATASIZE PUSH2 0x3257 JUMP JUMPDEST PUSH1 0x40 SWAP1 PUSH1 0x40 MLOAD SWAP2 PUSH2 0x328B DUP4 PUSH2 0x2643 JUMP JUMPDEST PUSH2 0x1020 CALLDATASIZE DUP5 CALLDATACOPY DUP3 SWAP2 PUSH1 0x0 JUMPDEST PUSH2 0xFFFF SWAP1 DUP2 DUP2 AND SWAP1 PUSH1 0x81 DUP3 LT ISZERO PUSH2 0x332C JUMPI DUP5 MLOAD PUSH4 0x69E38BC3 PUSH1 0xE0 SHL DUP2 MSTORE PUSH1 0x4 DUP2 ADD DUP4 SWAP1 MSTORE PUSH1 0x20 SWAP3 DUP4 DUP3 PUSH1 0x24 DUP2 PUSH2 0x808 GAS STATICCALL PUSH1 0x0 SWAP3 DUP2 PUSH2 0x32F5 JUMPI JUMPDEST POP PUSH1 0x1 SWAP5 POP PUSH2 0x32E3 JUMPI JUMPDEST POP POP ADD AND PUSH2 0x3296 JUMP JUMPDEST PUSH2 0x32ED SWAP1 DUP10 PUSH2 0x2690 JUMP JUMPDEST MSTORE CODESIZE DUP1 PUSH2 0x32DA JUMP JUMPDEST SWAP2 SWAP3 SWAP1 SWAP4 SWAP5 DUP3 DUP2 RETURNDATASIZE DUP4 GT PUSH2 0x3325 JUMPI JUMPDEST PUSH2 0x330E DUP2 DUP4 PUSH2 0x265F JUMP JUMPDEST DUP2 ADD SUB SLT PUSH2 0x29E5 JUMPI POP SWAP1 PUSH1 0x1 SWAP4 SWAP3 SWAP2 MLOAD SWAP2 CODESIZE PUSH2 0x32D0 JUMP JUMPDEST POP RETURNDATASIZE PUSH2 0x3304 JUMP JUMPDEST POP POP POP SWAP2 SWAP3 POP POP JUMP INVALID 0xB4 0xC0 DUP8 GT SWAP1 SWAP8 0xFB 0xE3 SWAP9 MSTORE SWAP9 0xEE CREATE2 0x2F CALLDATALOAD 0xEF PUSH3 0x71C483 0x22 0xA8 0xC2 0xD4 ADDRESS SWAP1 0x2A SWAP13 0xC3 DUP14 SWAP5 PUSH20 0x5BC73267F9990B1554109DC41E624A7DAB56B112 DUP16 0x1E CALLCODE 0xF6 0x2F PUSH4 0x14294C03 DUP16 SWAP14 LOG2 PUSH5 0x6970667358 0x22 SLT KECCAK256 CHAINID CALL 0x5C 0xC5 CODESIZE SWAP15 0x2C 0xC5 GT SWAP3 DIV XOR PUSH11 0x866C5189BEBE92E58BE462 0xD5 0xE9 0xAB 0xC8 PUSH26 0xEB87CA64736F6C63430008160033000000000000000000000000 "},"methodIdentifiers":{"DELEGATOR_COLDKEY()":"13cd4940","DELEGATOR_HOTKEY()":"c6c4a86f","REAL_COLDKEY()":"565dea95","addStakeLimits(uint256[],uint256[],uint256[])":"3004c502","addStakeToRoot(uint256)":"8799111f","addStakeToRootFull()":"e8d23d2a","delegatorId()":"44a537f5","execute()":"61461954","getAlphaInPools()":"9e6eb20b","getAlphaPrices()":"bc28d5d0","getStakedAmounts(bytes32[],bytes32[])":"26a224e0","getTaoInPools()":"a8c2bb0d","getTradingInfo(bytes32[])":"fa223349","lastWithdrawSmallTime()":"64ee6aec","mevAddStakes(uint256[],uint256[],bytes32[],bytes32[],uint256[],uint256[],bool)":"aa7f2280","mevRemoveStake(uint256,bytes32[],uint256[],uint256)":"2f7a58dc","mevRemoveStakes(uint256[],bytes32[],uint256[],uint256[])":"a2045dc7","moveStakeAll(bytes32)":"9d2736cc","owner()":"8da5cb5b","removeStakeFromRoot(uint256)":"58c0b896","removeStakeFromRootFull()":"892208c5","removeStakeFromSubnetFull(uint256)":"a83ed0c1","removeStakeLimits(uint256[],uint256[])":"646e569b","rocked()":"3383dfe5","setConfig(address,bytes32)":"f4f1726b","setRock()":"be7b5a64","setStakedPrices(uint256[],uint256[])":"956a25cf","setWithdrawer(address)":"0d174c24","stakedPrices(uint256)":"305e3337","unRock()":"e2157244","withdrawAll(address)":"fa09e630","withdrawAllColdkey(bytes32)":"c3a97fc9","withdrawBig(address,uint256)":"7e11ca0a","withdrawBigColdkey(bytes32,uint256)":"bc3fd048","withdrawFee(uint256)":"be357616","withdrawSmall(address,uint256)":"d7d31ae3","withdrawer()":"cdc18424"}}}}}