{"contracts/Proxy.sol":{"Proxy":{"abi":[{"inputs":[],"stateMutability":"nonpayable","type":"constructor"},{"inputs":[],"name":"DispatchFailed","type":"error"},{"inputs":[],"name":"REAL_COLDKEY","outputs":[{"internalType":"bytes32","name":"","type":"bytes32"}],"stateMutability":"view","type":"function"},{"inputs":[],"name":"delegatorId","outputs":[{"internalType":"bytes32","name":"","type":"bytes32"}],"stateMutability":"view","type":"function"},{"inputs":[],"name":"execute","outputs":[],"stateMutability":"nonpayable","type":"function"},{"inputs":[],"name":"owner","outputs":[{"internalType":"address","name":"","type":"address"}],"stateMutability":"view","type":"function"},{"inputs":[],"name":"transfer","outputs":[],"stateMutability":"payable","type":"function"},{"inputs":[],"name":"uid0","outputs":[{"internalType":"uint256","name":"","type":"uint256"}],"stateMutability":"view","type":"function"},{"inputs":[],"name":"uid1","outputs":[{"internalType":"uint256","name":"","type":"uint256"}],"stateMutability":"view","type":"function"}],"evm":{"bytecode":{"linkReferences":{},"object":"60c060405234801561001057600080fd5b50600160005560405163024a66cd60e11b815230600482015261080c90630494cd9a90602401602060405180830381865afa158015610053573d6000803e3d6000fd5b505050506040513d601f19601f82011682018060405250810190610077919061011a565b60808190523360a0526100ae907f2636ad834cd47318572033620d50377260a54fc64e5f150896186b2bafda7454906000806100c1565b6003906100bb90826101d4565b5061031c565b6060601060008087600160f81b8760056004858c8b6100e15760006100e7565b600160f81b5b6040516020016101019b9a99989796959493929190610293565b6040516020818303038152906040529050949350505050565b60006020828403121561012c57600080fd5b5051919050565b634e487b7160e01b600052604160045260246000fd5b600181811c9082168061015d57607f821691505b60208210810361017d57634e487b7160e01b600052602260045260246000fd5b50919050565b601f8211156101cf576000816000526020600020601f850160051c810160208610156101ac5750805b601f850160051c820191505b818110156101cb578281556001016101b8565b5050505b505050565b81516001600160401b038111156101ed576101ed610133565b610201816101fb8454610149565b84610183565b602080601f831160018114610236576000841561021e5750858301515b600019600386901b1c1916600185901b1785556101cb565b600085815260208120601f198616915b8281101561026557888601518255948401946001909101908401610246565b50858210156102835787850151600019600388901b60f8161c191681555b5050505050600190811b01905550565b6001600160f81b031960f88d811b821683528c811b821660018401528b82166002840152600383018b9052898216602384015288811b8216602484015287811b8216602584015286901b8116602683015284166027820152600083602883015261030960488301846001600160f81b0319169052565b506049019b9a5050505050505050505050565b60805160a0516104806103476000396000818161013701526101920152600060b001526104806000f3fe6080604052600436106100705760003560e01c8063614619541161004e57806361461954146101065780638a4068dd1461011d5780638da5cb5b14610125578063e7d754ef1461017157600080fd5b8063112fcfd91461007557806344a537f51461009e578063565dea95146100d2575b600080fd5b34801561008157600080fd5b5061008b60025481565b6040519081526020015b60405180910390f35b3480156100aa57600080fd5b5061008b7f000000000000000000000000000000000000000000000000000000000000000081565b3480156100de57600080fd5b5061008b7f2636ad834cd47318572033620d50377260a54fc64e5f150896186b2bafda745481565b34801561011257600080fd5b5061011b610187565b005b61011b610289565b34801561013157600080fd5b506101597f000000000000000000000000000000000000000000000000000000000000000081565b6040516001600160a01b039091168152602001610095565b34801561017d57600080fd5b5061008b60015481565b336001600160a01b037f000000000000000000000000000000000000000000000000000000000000000016146101bc57600080fd5b476101c56102ff565b60006101d98267016345785d8a0000610382565b9050478181036101e857600080fd5b607f62024c5619633b9aca008385030401908116600155600781901c60025560405163cd6f4eb160e01b81527f2636ad834cd47318572033620d50377260a54fc64e5f150896186b2bafda745460048201526108009063cd6f4eb19067016345785d8a0000906024016000604051808303818588803b15801561026a57600080fd5b505af115801561027e573d6000803e3d6000fd5b505050505050505050565b60405163cd6f4eb160e01b81527f2636ad834cd47318572033620d50377260a54fc64e5f150896186b2bafda745460048201526108009063cd6f4eb19047906024016000604051808303818588803b1580156102e457600080fd5b505af11580156102f8573d6000803e3d6000fd5b5050505050565b600060066001600160a01b0316600360405161031b91906103a9565b6000604051808303816000865af19150503d8060008114610358576040519150601f19603f3d011682016040523d82523d6000602084013e61035d565b606091505b505090508061037f576040516307a6075960e51b815260040160405180910390fd5b50565b808201808211156103a357634e487b7160e01b600052601160045260246000fd5b92915050565b60008083548160018260011c915060018316806103c757607f831692505b602080841082036103e657634e487b7160e01b86526022600452602486fd5b8180156103fa576001811461040f5761043c565b60ff198616895284151585028901965061043c565b60008a81526020902060005b868110156104345781548b82015290850190830161041b565b505084890196505b50949897505050505050505056fea26469706673582212205ef2299aaf7f39ec41228d5c7ab5c04fc25001d6b93a8db015e33a76a86a9d4764736f6c63430008160033","opcodes":"PUSH1 0xC0 PUSH1 0x40 MSTORE CALLVALUE DUP1 ISZERO PUSH2 0x10 JUMPI PUSH1 0x0 DUP1 REVERT JUMPDEST POP PUSH1 0x1 PUSH1 0x0 SSTORE PUSH1 0x40 MLOAD PUSH4 0x24A66CD PUSH1 0xE1 SHL DUP2 MSTORE ADDRESS PUSH1 0x4 DUP3 ADD MSTORE PUSH2 0x80C SWAP1 PUSH4 0x494CD9A SWAP1 PUSH1 0x24 ADD PUSH1 0x20 PUSH1 0x40 MLOAD DUP1 DUP4 SUB DUP2 DUP7 GAS STATICCALL ISZERO DUP1 ISZERO PUSH2 0x53 JUMPI RETURNDATASIZE PUSH1 0x0 DUP1 RETURNDATACOPY RETURNDATASIZE PUSH1 0x0 REVERT JUMPDEST POP POP POP POP PUSH1 0x40 MLOAD RETURNDATASIZE PUSH1 0x1F NOT PUSH1 0x1F DUP3 ADD AND DUP3 ADD DUP1 PUSH1 0x40 MSTORE POP DUP2 ADD SWAP1 PUSH2 0x77 SWAP2 SWAP1 PUSH2 0x11A JUMP JUMPDEST PUSH1 0x80 DUP2 SWAP1 MSTORE CALLER PUSH1 0xA0 MSTORE PUSH2 0xAE SWAP1 PUSH32 0x2636AD834CD47318572033620D50377260A54FC64E5F150896186B2BAFDA7454 SWAP1 PUSH1 0x0 DUP1 PUSH2 0xC1 JUMP JUMPDEST PUSH1 0x3 SWAP1 PUSH2 0xBB SWAP1 DUP3 PUSH2 0x1D4 JUMP JUMPDEST POP PUSH2 0x31C JUMP JUMPDEST PUSH1 0x60 PUSH1 0x10 PUSH1 0x0 DUP1 DUP8 PUSH1 0x1 PUSH1 0xF8 SHL DUP8 PUSH1 0x5 PUSH1 0x4 DUP6 DUP13 DUP12 PUSH2 0xE1 JUMPI PUSH1 0x0 PUSH2 0xE7 JUMP JUMPDEST PUSH1 0x1 PUSH1 0xF8 SHL JUMPDEST PUSH1 0x40 MLOAD PUSH1 0x20 ADD PUSH2 0x101 SWAP12 SWAP11 SWAP10 SWAP9 SWAP8 SWAP7 SWAP6 SWAP5 SWAP4 SWAP3 SWAP2 SWAP1 PUSH2 0x293 JUMP JUMPDEST PUSH1 0x40 MLOAD PUSH1 0x20 DUP2 DUP4 SUB SUB DUP2 MSTORE SWAP1 PUSH1 0x40 MSTORE SWAP1 POP SWAP5 SWAP4 POP POP POP POP JUMP JUMPDEST PUSH1 0x0 PUSH1 0x20 DUP3 DUP5 SUB SLT ISZERO PUSH2 0x12C JUMPI PUSH1 0x0 DUP1 REVERT JUMPDEST POP MLOAD SWAP2 SWAP1 POP JUMP JUMPDEST PUSH4 0x4E487B71 PUSH1 0xE0 SHL PUSH1 0x0 MSTORE PUSH1 0x41 PUSH1 0x4 MSTORE PUSH1 0x24 PUSH1 0x0 REVERT JUMPDEST PUSH1 0x1 DUP2 DUP2 SHR SWAP1 DUP3 AND DUP1 PUSH2 0x15D JUMPI PUSH1 0x7F DUP3 AND SWAP2 POP JUMPDEST PUSH1 0x20 DUP3 LT DUP2 SUB PUSH2 0x17D JUMPI PUSH4 0x4E487B71 PUSH1 0xE0 SHL PUSH1 0x0 MSTORE PUSH1 0x22 PUSH1 0x4 MSTORE PUSH1 0x24 PUSH1 0x0 REVERT JUMPDEST POP SWAP2 SWAP1 POP JUMP JUMPDEST PUSH1 0x1F DUP3 GT ISZERO PUSH2 0x1CF JUMPI PUSH1 0x0 DUP2 PUSH1 0x0 MSTORE PUSH1 0x20 PUSH1 0x0 KECCAK256 PUSH1 0x1F DUP6 ADD PUSH1 0x5 SHR DUP2 ADD PUSH1 0x20 DUP7 LT ISZERO PUSH2 0x1AC JUMPI POP DUP1 JUMPDEST PUSH1 0x1F DUP6 ADD PUSH1 0x5 SHR DUP3 ADD SWAP2 POP JUMPDEST DUP2 DUP2 LT ISZERO PUSH2 0x1CB JUMPI DUP3 DUP2 SSTORE PUSH1 0x1 ADD PUSH2 0x1B8 JUMP JUMPDEST POP POP POP JUMPDEST POP POP POP JUMP JUMPDEST DUP2 MLOAD PUSH1 0x1 PUSH1 0x1 PUSH1 0x40 SHL SUB DUP2 GT ISZERO PUSH2 0x1ED JUMPI PUSH2 0x1ED PUSH2 0x133 JUMP JUMPDEST PUSH2 0x201 DUP2 PUSH2 0x1FB DUP5 SLOAD PUSH2 0x149 JUMP JUMPDEST DUP5 PUSH2 0x183 JUMP JUMPDEST PUSH1 0x20 DUP1 PUSH1 0x1F DUP4 GT PUSH1 0x1 DUP2 EQ PUSH2 0x236 JUMPI PUSH1 0x0 DUP5 ISZERO PUSH2 0x21E JUMPI POP DUP6 DUP4 ADD MLOAD JUMPDEST PUSH1 0x0 NOT PUSH1 0x3 DUP7 SWAP1 SHL SHR NOT AND PUSH1 0x1 DUP6 SWAP1 SHL OR DUP6 SSTORE PUSH2 0x1CB JUMP JUMPDEST PUSH1 0x0 DUP6 DUP2 MSTORE PUSH1 0x20 DUP2 KECCAK256 PUSH1 0x1F NOT DUP7 AND SWAP2 JUMPDEST DUP3 DUP2 LT ISZERO PUSH2 0x265 JUMPI DUP9 DUP7 ADD MLOAD DUP3 SSTORE SWAP5 DUP5 ADD SWAP5 PUSH1 0x1 SWAP1 SWAP2 ADD SWAP1 DUP5 ADD PUSH2 0x246 JUMP JUMPDEST POP DUP6 DUP3 LT ISZERO PUSH2 0x283 JUMPI DUP8 DUP6 ADD MLOAD PUSH1 0x0 NOT PUSH1 0x3 DUP9 SWAP1 SHL PUSH1 0xF8 AND SHR NOT AND DUP2 SSTORE JUMPDEST POP POP POP POP POP PUSH1 0x1 SWAP1 DUP2 SHL ADD SWAP1 SSTORE POP JUMP JUMPDEST PUSH1 0x1 PUSH1 0x1 PUSH1 0xF8 SHL SUB NOT PUSH1 0xF8 DUP14 DUP2 SHL DUP3 AND DUP4 MSTORE DUP13 DUP2 SHL DUP3 AND PUSH1 0x1 DUP5 ADD MSTORE DUP12 DUP3 AND PUSH1 0x2 DUP5 ADD MSTORE PUSH1 0x3 DUP4 ADD DUP12 SWAP1 MSTORE DUP10 DUP3 AND PUSH1 0x23 DUP5 ADD MSTORE DUP9 DUP2 SHL DUP3 AND PUSH1 0x24 DUP5 ADD MSTORE DUP8 DUP2 SHL DUP3 AND PUSH1 0x25 DUP5 ADD MSTORE DUP7 SWAP1 SHL DUP2 AND PUSH1 0x26 DUP4 ADD MSTORE DUP5 AND PUSH1 0x27 DUP3 ADD MSTORE PUSH1 0x0 DUP4 PUSH1 0x28 DUP4 ADD MSTORE PUSH2 0x309 PUSH1 0x48 DUP4 ADD DUP5 PUSH1 0x1 PUSH1 0x1 PUSH1 0xF8 SHL SUB NOT AND SWAP1 MSTORE JUMP JUMPDEST POP PUSH1 0x49 ADD SWAP12 SWAP11 POP POP POP POP POP POP POP POP POP POP POP JUMP JUMPDEST PUSH1 0x80 MLOAD PUSH1 0xA0 MLOAD PUSH2 0x480 PUSH2 0x347 PUSH1 0x0 CODECOPY PUSH1 0x0 DUP2 DUP2 PUSH2 0x137 ADD MSTORE PUSH2 0x192 ADD MSTORE PUSH1 0x0 PUSH1 0xB0 ADD MSTORE PUSH2 0x480 PUSH1 0x0 RETURN INVALID PUSH1 0x80 PUSH1 0x40 MSTORE PUSH1 0x4 CALLDATASIZE LT PUSH2 0x70 JUMPI PUSH1 0x0 CALLDATALOAD PUSH1 0xE0 SHR DUP1 PUSH4 0x61461954 GT PUSH2 0x4E JUMPI DUP1 PUSH4 0x61461954 EQ PUSH2 0x106 JUMPI DUP1 PUSH4 0x8A4068DD EQ PUSH2 0x11D JUMPI DUP1 PUSH4 0x8DA5CB5B EQ PUSH2 0x125 JUMPI DUP1 PUSH4 0xE7D754EF EQ PUSH2 0x171 JUMPI PUSH1 0x0 DUP1 REVERT JUMPDEST DUP1 PUSH4 0x112FCFD9 EQ PUSH2 0x75 JUMPI DUP1 PUSH4 0x44A537F5 EQ PUSH2 0x9E JUMPI DUP1 PUSH4 0x565DEA95 EQ PUSH2 0xD2 JUMPI JUMPDEST PUSH1 0x0 DUP1 REVERT JUMPDEST CALLVALUE DUP1 ISZERO PUSH2 0x81 JUMPI PUSH1 0x0 DUP1 REVERT JUMPDEST POP PUSH2 0x8B PUSH1 0x2 SLOAD DUP2 JUMP JUMPDEST PUSH1 0x40 MLOAD SWAP1 DUP2 MSTORE PUSH1 0x20 ADD JUMPDEST PUSH1 0x40 MLOAD DUP1 SWAP2 SUB SWAP1 RETURN JUMPDEST CALLVALUE DUP1 ISZERO PUSH2 0xAA JUMPI PUSH1 0x0 DUP1 REVERT JUMPDEST POP PUSH2 0x8B PUSH32 0x0 DUP2 JUMP JUMPDEST CALLVALUE DUP1 ISZERO PUSH2 0xDE JUMPI PUSH1 0x0 DUP1 REVERT JUMPDEST POP PUSH2 0x8B PUSH32 0x2636AD834CD47318572033620D50377260A54FC64E5F150896186B2BAFDA7454 DUP2 JUMP JUMPDEST CALLVALUE DUP1 ISZERO PUSH2 0x112 JUMPI PUSH1 0x0 DUP1 REVERT JUMPDEST POP PUSH2 0x11B PUSH2 0x187 JUMP JUMPDEST STOP JUMPDEST PUSH2 0x11B PUSH2 0x289 JUMP JUMPDEST CALLVALUE DUP1 ISZERO PUSH2 0x131 JUMPI PUSH1 0x0 DUP1 REVERT JUMPDEST POP PUSH2 0x159 PUSH32 0x0 DUP2 JUMP JUMPDEST PUSH1 0x40 MLOAD PUSH1 0x1 PUSH1 0x1 PUSH1 0xA0 SHL SUB SWAP1 SWAP2 AND DUP2 MSTORE PUSH1 0x20 ADD PUSH2 0x95 JUMP JUMPDEST CALLVALUE DUP1 ISZERO PUSH2 0x17D JUMPI PUSH1 0x0 DUP1 REVERT JUMPDEST POP PUSH2 0x8B PUSH1 0x1 SLOAD DUP2 JUMP JUMPDEST CALLER PUSH1 0x1 PUSH1 0x1 PUSH1 0xA0 SHL SUB PUSH32 0x0 AND EQ PUSH2 0x1BC JUMPI PUSH1 0x0 DUP1 REVERT JUMPDEST SELFBALANCE PUSH2 0x1C5 PUSH2 0x2FF JUMP JUMPDEST PUSH1 0x0 PUSH2 0x1D9 DUP3 PUSH8 0x16345785D8A0000 PUSH2 0x382 JUMP JUMPDEST SWAP1 POP SELFBALANCE DUP2 DUP2 SUB PUSH2 0x1E8 JUMPI PUSH1 0x0 DUP1 REVERT JUMPDEST PUSH1 0x7F PUSH3 0x24C56 NOT PUSH4 0x3B9ACA00 DUP4 DUP6 SUB DIV ADD SWAP1 DUP2 AND PUSH1 0x1 SSTORE PUSH1 0x7 DUP2 SWAP1 SHR PUSH1 0x2 SSTORE PUSH1 0x40 MLOAD PUSH4 0xCD6F4EB1 PUSH1 0xE0 SHL DUP2 MSTORE PUSH32 0x2636AD834CD47318572033620D50377260A54FC64E5F150896186B2BAFDA7454 PUSH1 0x4 DUP3 ADD MSTORE PUSH2 0x800 SWAP1 PUSH4 0xCD6F4EB1 SWAP1 PUSH8 0x16345785D8A0000 SWAP1 PUSH1 0x24 ADD PUSH1 0x0 PUSH1 0x40 MLOAD DUP1 DUP4 SUB DUP2 DUP6 DUP9 DUP1 EXTCODESIZE ISZERO DUP1 ISZERO PUSH2 0x26A JUMPI PUSH1 0x0 DUP1 REVERT JUMPDEST POP GAS CALL ISZERO DUP1 ISZERO PUSH2 0x27E JUMPI RETURNDATASIZE PUSH1 0x0 DUP1 RETURNDATACOPY RETURNDATASIZE PUSH1 0x0 REVERT JUMPDEST POP POP POP POP POP POP POP POP POP JUMP JUMPDEST PUSH1 0x40 MLOAD PUSH4 0xCD6F4EB1 PUSH1 0xE0 SHL DUP2 MSTORE PUSH32 0x2636AD834CD47318572033620D50377260A54FC64E5F150896186B2BAFDA7454 PUSH1 0x4 DUP3 ADD MSTORE PUSH2 0x800 SWAP1 PUSH4 0xCD6F4EB1 SWAP1 SELFBALANCE SWAP1 PUSH1 0x24 ADD PUSH1 0x0 PUSH1 0x40 MLOAD DUP1 DUP4 SUB DUP2 DUP6 DUP9 DUP1 EXTCODESIZE ISZERO DUP1 ISZERO PUSH2 0x2E4 JUMPI PUSH1 0x0 DUP1 REVERT JUMPDEST POP GAS CALL ISZERO DUP1 ISZERO PUSH2 0x2F8 JUMPI RETURNDATASIZE PUSH1 0x0 DUP1 RETURNDATACOPY RETURNDATASIZE PUSH1 0x0 REVERT JUMPDEST POP POP POP POP POP JUMP JUMPDEST PUSH1 0x0 PUSH1 0x6 PUSH1 0x1 PUSH1 0x1 PUSH1 0xA0 SHL SUB AND PUSH1 0x3 PUSH1 0x40 MLOAD PUSH2 0x31B SWAP2 SWAP1 PUSH2 0x3A9 JUMP JUMPDEST PUSH1 0x0 PUSH1 0x40 MLOAD DUP1 DUP4 SUB DUP2 PUSH1 0x0 DUP7 GAS CALL SWAP2 POP POP RETURNDATASIZE DUP1 PUSH1 0x0 DUP2 EQ PUSH2 0x358 JUMPI PUSH1 0x40 MLOAD SWAP2 POP PUSH1 0x1F NOT PUSH1 0x3F RETURNDATASIZE ADD AND DUP3 ADD PUSH1 0x40 MSTORE RETURNDATASIZE DUP3 MSTORE RETURNDATASIZE PUSH1 0x0 PUSH1 0x20 DUP5 ADD RETURNDATACOPY PUSH2 0x35D JUMP JUMPDEST PUSH1 0x60 SWAP2 POP JUMPDEST POP POP SWAP1 POP DUP1 PUSH2 0x37F JUMPI PUSH1 0x40 MLOAD PUSH4 0x7A60759 PUSH1 0xE5 SHL DUP2 MSTORE PUSH1 0x4 ADD PUSH1 0x40 MLOAD DUP1 SWAP2 SUB SWAP1 REVERT JUMPDEST POP JUMP JUMPDEST DUP1 DUP3 ADD DUP1 DUP3 GT ISZERO PUSH2 0x3A3 JUMPI PUSH4 0x4E487B71 PUSH1 0xE0 SHL PUSH1 0x0 MSTORE PUSH1 0x11 PUSH1 0x4 MSTORE PUSH1 0x24 PUSH1 0x0 REVERT JUMPDEST SWAP3 SWAP2 POP POP JUMP JUMPDEST PUSH1 0x0 DUP1 DUP4 SLOAD DUP2 PUSH1 0x1 DUP3 PUSH1 0x1 SHR SWAP2 POP PUSH1 0x1 DUP4 AND DUP1 PUSH2 0x3C7 JUMPI PUSH1 0x7F DUP4 AND SWAP3 POP JUMPDEST PUSH1 0x20 DUP1 DUP5 LT DUP3 SUB PUSH2 0x3E6 JUMPI PUSH4 0x4E487B71 PUSH1 0xE0 SHL DUP7 MSTORE PUSH1 0x22 PUSH1 0x4 MSTORE PUSH1 0x24 DUP7 REVERT JUMPDEST DUP2 DUP1 ISZERO PUSH2 0x3FA JUMPI PUSH1 0x1 DUP2 EQ PUSH2 0x40F JUMPI PUSH2 0x43C JUMP JUMPDEST PUSH1 0xFF NOT DUP7 AND DUP10 MSTORE DUP5 ISZERO ISZERO DUP6 MUL DUP10 ADD SWAP7 POP PUSH2 0x43C JUMP JUMPDEST PUSH1 0x0 DUP11 DUP2 MSTORE PUSH1 0x20 SWAP1 KECCAK256 PUSH1 0x0 JUMPDEST DUP7 DUP2 LT ISZERO PUSH2 0x434 JUMPI DUP2 SLOAD DUP12 DUP3 ADD MSTORE SWAP1 DUP6 ADD SWAP1 DUP4 ADD PUSH2 0x41B JUMP JUMPDEST POP POP DUP5 DUP10 ADD SWAP7 POP JUMPDEST POP SWAP5 SWAP9 SWAP8 POP POP POP POP POP POP POP POP JUMP INVALID LOG2 PUSH5 0x6970667358 0x22 SLT KECCAK256 0x5E CALLCODE 0x29 SWAP11 0xAF PUSH32 0x39EC41228D5C7AB5C04FC25001D6B93A8DB015E33A76A86A9D4764736F6C6343 STOP ADDMOD AND STOP CALLER "},"methodIdentifiers":{"REAL_COLDKEY()":"565dea95","delegatorId()":"44a537f5","execute()":"61461954","owner()":"8da5cb5b","transfer()":"8a4068dd","uid0()":"e7d754ef","uid1()":"112fcfd9"}}}}}