{"contracts/TradingV8_2.sol":{"TradingV8_2":{"abi":[{"inputs":[],"stateMutability":"nonpayable","type":"constructor"},{"inputs":[],"name":"AmountTooLarge","type":"error"},{"inputs":[],"name":"AmountZero","type":"error"},{"inputs":[],"name":"ArrayLengthMismatch","type":"error"},{"inputs":[],"name":"FunctionNotFound","type":"error"},{"inputs":[],"name":"InvalidAddress","type":"error"},{"inputs":[],"name":"InvalidBytesKey","type":"error"},{"inputs":[],"name":"NotOwner","type":"error"},{"inputs":[],"name":"NotOwnerOrWithdrawer","type":"error"},{"inputs":[],"name":"NotWithdrawer","type":"error"},{"inputs":[],"name":"OutsideWithdrawWindow","type":"error"},{"inputs":[],"name":"Rocked","type":"error"},{"inputs":[],"name":"TransferFailed","type":"error"},{"inputs":[],"name":"WithdrawTooSoon","type":"error"},{"stateMutability":"payable","type":"fallback"},{"inputs":[],"name":"DELEGATOR_COLDKEY","outputs":[{"internalType":"bytes32","name":"","type":"bytes32"}],"stateMutability":"view","type":"function"},{"inputs":[],"name":"DELEGATOR_HOTKEY","outputs":[{"internalType":"bytes32","name":"","type":"bytes32"}],"stateMutability":"view","type":"function"},{"inputs":[],"name":"REAL_COLDKEY","outputs":[{"internalType":"bytes32","name":"","type":"bytes32"}],"stateMutability":"view","type":"function"},{"inputs":[{"internalType":"uint256[]","name":"netuids","type":"uint256[]"},{"internalType":"uint256[]","name":"amounts","type":"uint256[]"},{"internalType":"uint256[]","name":"limitPrices","type":"uint256[]"}],"name":"addStakeLimits","outputs":[],"stateMutability":"nonpayable","type":"function"},{"inputs":[{"internalType":"uint256","name":"amount","type":"uint256"}],"name":"addStakeToRoot","outputs":[],"stateMutability":"nonpayable","type":"function"},{"inputs":[],"name":"addStakeToRootFull","outputs":[],"stateMutability":"nonpayable","type":"function"},{"inputs":[],"name":"delegatorId","outputs":[{"internalType":"bytes32","name":"","type":"bytes32"}],"stateMutability":"view","type":"function"},{"inputs":[],"name":"execute","outputs":[],"stateMutability":"nonpayable","type":"function"},{"inputs":[],"name":"getAlphaInPools","outputs":[{"internalType":"uint64[129]","name":"alphaInPools","type":"uint64[129]"}],"stateMutability":"view","type":"function"},{"inputs":[],"name":"getAlphaPrices","outputs":[{"internalType":"uint256[129]","name":"alphaPrices","type":"uint256[129]"}],"stateMutability":"view","type":"function"},{"inputs":[{"internalType":"uint256[]","name":"netuids","type":"uint256[]"},{"internalType":"bytes32[]","name":"_mevHotkeyBytesKeys","type":"bytes32[]"},{"internalType":"bytes32[]","name":"_mevColdkeyBytesKeys","type":"bytes32[]"}],"name":"getMevStakedAmounts","outputs":[{"internalType":"uint256[]","name":"amounts","type":"uint256[]"}],"stateMutability":"view","type":"function"},{"inputs":[{"internalType":"bytes32[]","name":"hotkeys","type":"bytes32[]"},{"internalType":"bytes32[]","name":"coldkeys","type":"bytes32[]"}],"name":"getStakedAmounts","outputs":[{"internalType":"uint256[129]","name":"amounts","type":"uint256[129]"}],"stateMutability":"view","type":"function"},{"inputs":[],"name":"getTaoInPools","outputs":[{"internalType":"uint64[129]","name":"taoInPools","type":"uint64[129]"}],"stateMutability":"view","type":"function"},{"inputs":[],"name":"getTradingInfo","outputs":[{"internalType":"uint256[129]","name":"alphaPrices","type":"uint256[129]"},{"internalType":"uint64[129]","name":"taoInPools","type":"uint64[129]"},{"internalType":"uint64[129]","name":"alphaInPools","type":"uint64[129]"},{"internalType":"uint256[129]","name":"_stakedPrices","type":"uint256[129]"},{"internalType":"uint256[129]","name":"stakedAmounts","type":"uint256[129]"},{"internalType":"uint256[]","name":"mevFreeBalances","type":"uint256[]"},{"internalType":"uint256","name":"freeBalance","type":"uint256"},{"internalType":"uint256","name":"ownerBalance","type":"uint256"}],"stateMutability":"view","type":"function"},{"inputs":[],"name":"lastWithdrawSmallTime","outputs":[{"internalType":"uint256","name":"","type":"uint256"}],"stateMutability":"view","type":"function"},{"inputs":[{"internalType":"uint256[]","name":"netuids","type":"uint256[]"},{"internalType":"uint256[]","name":"amounts","type":"uint256[]"},{"internalType":"bytes32[]","name":"_mevHotkeyBytesKeys","type":"bytes32[]"},{"internalType":"bytes32[]","name":"_mevColdkeyBytesKeys","type":"bytes32[]"},{"internalType":"uint256[]","name":"min_alphas","type":"uint256[]"},{"internalType":"bool","name":"is_mine_staked","type":"bool"}],"name":"mevAddStakes","outputs":[],"stateMutability":"nonpayable","type":"function"},{"inputs":[{"internalType":"uint256","name":"","type":"uint256"}],"name":"mevAddresses","outputs":[{"internalType":"address","name":"","type":"address"}],"stateMutability":"view","type":"function"},{"inputs":[{"internalType":"uint256[]","name":"netuids","type":"uint256[]"},{"internalType":"bytes32[]","name":"_mevHotkeyBytesKeys","type":"bytes32[]"},{"internalType":"bytes32[]","name":"_mevColdkeyBytesKeys","type":"bytes32[]"},{"internalType":"uint256[]","name":"min_alphas","type":"uint256[]"}],"name":"mevRemoveStakes","outputs":[],"stateMutability":"nonpayable","type":"function"},{"inputs":[{"internalType":"bytes32","name":"destination_coldkey","type":"bytes32"}],"name":"moveStakeAll","outputs":[],"stateMutability":"nonpayable","type":"function"},{"inputs":[],"name":"owner","outputs":[{"internalType":"address","name":"","type":"address"}],"stateMutability":"view","type":"function"},{"inputs":[{"internalType":"uint256","name":"amount","type":"uint256"}],"name":"removeStakeFromRoot","outputs":[],"stateMutability":"nonpayable","type":"function"},{"inputs":[],"name":"removeStakeFromRootFull","outputs":[],"stateMutability":"nonpayable","type":"function"},{"inputs":[{"internalType":"uint256","name":"netuid","type":"uint256"}],"name":"removeStakeFromSubnetFull","outputs":[],"stateMutability":"nonpayable","type":"function"},{"inputs":[{"internalType":"uint256[]","name":"netuids","type":"uint256[]"},{"internalType":"uint256[]","name":"limitPrices","type":"uint256[]"}],"name":"removeStakeLimits","outputs":[],"stateMutability":"nonpayable","type":"function"},{"inputs":[],"name":"rocked","outputs":[{"internalType":"bool","name":"","type":"bool"}],"stateMutability":"view","type":"function"},{"inputs":[{"internalType":"address","name":"newWithdrawer","type":"address"},{"internalType":"bytes32","name":"newDelegatorColdkey","type":"bytes32"}],"name":"setConfig","outputs":[],"stateMutability":"nonpayable","type":"function"},{"inputs":[],"name":"setRock","outputs":[],"stateMutability":"nonpayable","type":"function"},{"inputs":[{"internalType":"uint256[]","name":"netuids","type":"uint256[]"},{"internalType":"uint256[]","name":"prices","type":"uint256[]"}],"name":"setStakedPrices","outputs":[],"stateMutability":"nonpayable","type":"function"},{"inputs":[{"internalType":"address","name":"newWithdrawer","type":"address"}],"name":"setWithdrawer","outputs":[],"stateMutability":"nonpayable","type":"function"},{"inputs":[{"internalType":"uint256","name":"","type":"uint256"}],"name":"stakedPrices","outputs":[{"internalType":"uint256","name":"","type":"uint256"}],"stateMutability":"view","type":"function"},{"inputs":[],"name":"unRock","outputs":[],"stateMutability":"nonpayable","type":"function"},{"inputs":[{"internalType":"address[]","name":"newMevAddresses","type":"address[]"}],"name":"updateMevAddresses","outputs":[],"stateMutability":"nonpayable","type":"function"},{"inputs":[{"internalType":"address","name":"to","type":"address"}],"name":"withdrawAll","outputs":[],"stateMutability":"nonpayable","type":"function"},{"inputs":[{"internalType":"bytes32","name":"coldkey","type":"bytes32"}],"name":"withdrawAllColdkey","outputs":[],"stateMutability":"nonpayable","type":"function"},{"inputs":[{"internalType":"address","name":"to","type":"address"},{"internalType":"uint256","name":"amount","type":"uint256"}],"name":"withdrawBig","outputs":[],"stateMutability":"nonpayable","type":"function"},{"inputs":[{"internalType":"bytes32","name":"coldkey","type":"bytes32"},{"internalType":"uint256","name":"amount","type":"uint256"}],"name":"withdrawBigColdkey","outputs":[],"stateMutability":"nonpayable","type":"function"},{"inputs":[{"internalType":"address","name":"to","type":"address"},{"internalType":"uint256","name":"amount","type":"uint256"}],"name":"withdrawSmall","outputs":[],"stateMutability":"nonpayable","type":"function"},{"inputs":[],"name":"withdrawer","outputs":[{"internalType":"address","name":"","type":"address"}],"stateMutability":"view","type":"function"},{"stateMutability":"payable","type":"receive"}],"evm":{"bytecode":{"linkReferences":{},"object":"60c06040523480156200001157600080fd5b5060405163024a66cd60e11b815230600482015261080c90630494cd9a90602401602060405180830381865afa15801562000050573d6000803e3d6000fd5b505050506040513d601f19601f8201168201806040525081019062000076919062000097565b608052608280546001600160a01b0319163390811790915560a052620000b1565b600060208284031215620000aa57600080fd5b5051919050565b60805160a051613c7862000163600039600081816104eb0152818161089a0152818161103001528181611070015281816115590152818161162d01528181611ce1015281816120f5015281816121980152818161225d01528181612320015281816124530152818161263a0152818161279601528181612a0a0152612ba10152600081816103c301528181610a4a01528181610f72015281816111e30152818161169a015261191c0152613c786000f3fe6080604052600436106102295760003560e01c8063956a25cf11610123578063be7b5a64116100ab578063d7d31ae31161006f578063d7d31ae3146106c8578063e2157244146106e8578063e8d23d2a146106fd578063f4f1726b14610712578063fa09e6301461073257610230565b8063be7b5a6414610631578063c3a97fc914610646578063c6c4a86f14610666578063c74db33514610688578063cdc18424146106a857610230565b8063a7678775116100f2578063a7678775146105a7578063a83ed0c1146105c7578063a8c2bb0d146105e7578063bc28d5d0146105fc578063bc3fd0481461061157610230565b8063956a25cf14610525578063987d0e59146105455780639d2736cc146105655780639e6eb20b1461058557610230565b806344a537f5116101b157806364ee6aec1161017557806364ee6aec1461046e5780637e11ca0a146104845780638799111f146104a4578063892208c5146104c45780638da5cb5b146104d957610230565b806344a537f5146103b1578063565dea95146103e557806358c0b896146104195780636146195414610439578063646e569b1461044e57610230565b806326a224e0116101f857806326a224e0146102f1578063276ef7891461031e5780633004c50214610347578063305e3337146103675780633383dfe51461038757610230565b80630d16ab81146102495780630d174c241461027f57806313cd4940146102a15780631f20ff4c146102d157610230565b3661023057005b60405163201f3fd360e11b815260040160405180910390fd5b34801561025557600080fd5b50610269610264366004613557565b610752565b604051610276919061362d565b60405180910390f35b34801561028b57600080fd5b5061029f61029a366004613663565b61081b565b005b3480156102ad57600080fd5b506102c3600080516020613c2383398151915281565b604051908152602001610276565b3480156102dd57600080fd5b5061029f6102ec36600461368e565b61088f565b3480156102fd57600080fd5b5061031161030c36600461378f565b610daa565b604051610276919061381e565b34801561032a57600080fd5b50610333610ede565b60405161027698979695949392919061385a565b34801561035357600080fd5b5061029f610362366004613557565b611065565b34801561037357600080fd5b506102c36103823660046138ce565b611537565b34801561039357600080fd5b506084546103a19060ff1681565b6040519015158152602001610276565b3480156103bd57600080fd5b506102c37f000000000000000000000000000000000000000000000000000000000000000081565b3480156103f157600080fd5b506102c37f2636ad834cd47318572033620d50377260a54fc64e5f150896186b2bafda745481565b34801561042557600080fd5b5061029f6104343660046138ce565b61154e565b34801561044557600080fd5b5061029f611622565b34801561045a57600080fd5b5061029f61046936600461378f565b611cd6565b34801561047a57600080fd5b506102c360835481565b34801561049057600080fd5b5061029f61049f3660046138e7565b611f8c565b3480156104b057600080fd5b5061029f6104bf3660046138ce565b6120ea565b3480156104d057600080fd5b5061029f61218d565b3480156104e557600080fd5b5061050d7f000000000000000000000000000000000000000000000000000000000000000081565b6040516001600160a01b039091168152602001610276565b34801561053157600080fd5b5061029f61054036600461378f565b612252565b34801561055157600080fd5b5061029f610560366004613911565b612315565b34801561057157600080fd5b5061029f6105803660046138ce565b61236f565b34801561059157600080fd5b5061059a612409565b6040516102769190613953565b3480156105b357600080fd5b5061050d6105c23660046138ce565b61241e565b3480156105d357600080fd5b5061029f6105e23660046138ce565b612448565b3480156105f357600080fd5b5061059a6124e4565b34801561060857600080fd5b506103116124f4565b34801561061d57600080fd5b5061029f61062c366004613962565b612504565b34801561063d57600080fd5b5061029f61262f565b34801561065257600080fd5b5061029f6106613660046138ce565b612687565b34801561067257600080fd5b506102c3600080516020613c0383398151915281565b34801561069457600080fd5b5061029f6106a3366004613984565b61278b565b3480156106b457600080fd5b5060825461050d906001600160a01b031681565b3480156106d457600080fd5b5061029f6106e33660046138e7565b6129db565b3480156106f457600080fd5b5061029f612b5f565b34801561070957600080fd5b5061029f612b96565b34801561071e57600080fd5b5061029f61072d3660046138e7565b612c70565b34801561073e57600080fd5b5061029f61074d366004613663565b612d50565b6060858483146107755760405163512509d360e11b815260040160405180910390fd5b8067ffffffffffffffff81111561078e5761078e613a48565b6040519080825280602002602001820160405280156107b7578160200160208202803683370190505b50915060005b8181101561080f576107ea8989838181106107da576107da613a5e565b9050602002013588888888612e4a565b8382815181106107fc576107fc613a5e565b60209081029190910101526001016107bd565b50509695505050505050565b6082546001600160a01b0316331461084657604051632d99bc8360e21b815260040160405180910390fd5b6001600160a01b03811661086d5760405163e6c4247b60e01b815260040160405180910390fd5b608280546001600160a01b0319166001600160a01b0392909216919091179055565b336001600160a01b037f000000000000000000000000000000000000000000000000000000000000000016146108d8576040516330cd747160e01b815260040160405180910390fd5b898881146108f95760405163512509d360e11b815260040160405180910390fd5b8685146109195760405163512509d360e11b815260040160405180910390fd5b60005b81811015610d9a5760008d8d8381811061093857610938613a5e565b9050602002013590508380156109db57506040516371dacc7d60e11b8152600080516020613c038339815191526004820152600080516020613c23833981519152602482015260448101829052633b9aca00906108059063e3b598fa90606401602060405180830381865afa1580156109b5573d6000803e3d6000fd5b505050506040513d601f19601f820116820180604052508101906109d99190613a74565b115b156109e9575060010161091c565b610a0f818787858181106109ff576109ff613a5e565b905060200201358c8c8c8c612f21565b610d915760008c8c84818110610a2757610a27613a5e565b6040516371dacc7d60e11b8152600080516020613c0383398151915260048201527f000000000000000000000000000000000000000000000000000000000000000060248201526000604482018190526020929092029390930135935091610805915063e3b598fa90606401602060405180830381865afa158015610ab0573d6000803e3d6000fd5b505050506040513d601f19601f82011682018060405250810190610ad49190613a74565b905081811115610ae15750805b631dcd6500811015610af7575050505050610d9d565b6040516371dacc7d60e11b8152600080516020613c038339815191526004820152600080516020613c238339815191526024820152604481018490526000906108059063e3b598fa90606401602060405180830381865afa158015610b60573d6000803e3d6000fd5b505050506040513d601f19601f82011682018060405250810190610b849190613a74565b604051630be72fb160e11b8152600080516020613c238339815191526004820152600080516020613c038339815191526024820152600060448201526064810186905260848101849052909150610805906317ce5f629060a401600060405180830381600087803b158015610bf857600080fd5b505af1158015610c0c573d6000803e3d6000fd5b50506040516369e38bc360e01b815261ffff871660048201526000925061080891506369e38bc390602401602060405180830381865afa158015610c54573d6000803e3d6000fd5b505050506040513d601f19601f82011682018060405250810190610c789190613a74565b905081600003610c9d578060018660818110610c9657610c96613a5e565b0155610d8c565b6040516371dacc7d60e11b8152600080516020613c038339815191526004820152600080516020613c238339815191526024820152604481018690526000906108059063e3b598fa90606401602060405180830381865afa158015610d06573d6000803e3d6000fd5b505050506040513d601f19601f82011682018060405250810190610d2a9190613a74565b905080610d378482613aa3565b610d419084613ab6565b8460018960818110610d5557610d55613a5e565b0154610d619190613ab6565b610d6b9190613acd565b610d759190613af6565b60018760818110610d8857610d88613a5e565b0155505b505050505b5060010161091c565b50505b5050505050505050505050565b610db261347d565b83828114610dd35760405163512509d360e11b815260040160405180910390fd5b60005b81811015610ed4576000878783818110610df257610df2613a5e565b9050602002013590506000868684818110610e0f57610e0f613a5e565b9050602002013590506000600190505b6081811015610ec6576040516371dacc7d60e11b81526004810184905260248101839052604481018290526108059063e3b598fa90606401602060405180830381865afa158015610e74573d6000803e3d6000fd5b505050506040513d601f19601f82011682018060405250810190610e989190613a74565b868260818110610eaa57610eaa613a5e565b60200201818151610ebb9190613acd565b905250600101610e1f565b508260010192505050610dd6565b5050949350505050565b610ee661347d565b610eee61347d565b610ef661347d565b610efe61347d565b610f0661347d565b6060600080610f13613001565b9750610f1d6130a5565b9650610f27613154565b9550610f4f600080516020613c03833981519152600080516020613c23833981519152613203565b6040516371dacc7d60e11b8152600080516020613c0383398151915260048201527f00000000000000000000000000000000000000000000000000000000000000006024820152600060448201529094506108059063e3b598fa90606401602060405180830381865afa158015610fca573d6000803e3d6000fd5b505050506040513d601f19601f82011682018060405250810190610fee9190613a74565b8452610ff86132ad565b6040805161102081019182905291945060019060819082845b81548152602001906001019080831161101157505050505094504791507f00000000000000000000000000000000000000000000000000000000000000006001600160a01b03163190509091929394959697565b336001600160a01b037f000000000000000000000000000000000000000000000000000000000000000016146110ae576040516330cd747160e01b815260040160405180910390fd5b8483811415806110be5750808214155b156110dc5760405163512509d360e11b815260040160405180910390fd5b60005b8181101561152c5760008686838181106110fb576110fb613a5e565b9050602002013590508060001461152357600089898481811061112057611120613a5e565b9050602002013590506000819050600087878681811061114257611142613a5e565b6040516369e38bc360e01b815261ffff8616600482015260209091029290920135925060009161080891506369e38bc390602401602060405180830381865afa158015611193573d6000803e3d6000fd5b505050506040513d601f19601f820116820180604052508101906111b79190613a74565b905080821061151e576040516371dacc7d60e11b8152600080516020613c0383398151915260048201527f00000000000000000000000000000000000000000000000000000000000000006024820152600060448201819052906108059063e3b598fa90606401602060405180830381865afa15801561123b573d6000803e3d6000fd5b505050506040513d601f19601f8201168201806040525081019061125f9190613a74565b90508581111561126c5750845b631dcd650081101561128557505050505050505061152f565b6040516371dacc7d60e11b8152600080516020613c038339815191526004820152600080516020613c238339815191526024820152604481018690526000906108059063e3b598fa90606401602060405180830381865afa1580156112ee573d6000803e3d6000fd5b505050506040513d601f19601f820116820180604052508101906113129190613a74565b604051630be72fb160e11b8152600080516020613c238339815191526004820152600080516020613c038339815191526024820152600060448201526064810188905260848101849052909150610805906317ce5f629060a401600060405180830381600087803b15801561138657600080fd5b505af115801561139a573d6000803e3d6000fd5b50506040516369e38bc360e01b815261ffff891660048201526000925061080891506369e38bc390602401602060405180830381865afa1580156113e2573d6000803e3d6000fd5b505050506040513d601f19601f820116820180604052508101906114069190613a74565b90508160000361142b57806001886081811061142457611424613a5e565b015561151a565b6040516371dacc7d60e11b8152600080516020613c038339815191526004820152600080516020613c238339815191526024820152604481018890526000906108059063e3b598fa90606401602060405180830381865afa158015611494573d6000803e3d6000fd5b505050506040513d601f19601f820116820180604052508101906114b89190613a74565b9050806114c58482613aa3565b6114cf9084613ab6565b8460018b608181106114e3576114e3613a5e565b01546114ef9190613ab6565b6114f99190613acd565b6115039190613af6565b6001896081811061151657611516613a5e565b0155505b5050505b505050505b506001016110df565b50505b505050505050565b6001816081811061154757600080fd5b0154905081565b336001600160a01b037f0000000000000000000000000000000000000000000000000000000000000000161480159061159257506082546001600160a01b03163314155b156115b057604051630b4a87e760e11b815260040160405180910390fd5b6040516307d691e360e41b8152600080516020613c038339815191526004820152602481018290526000604482015261080590637d691e30906064015b600060405180830381600087803b15801561160757600080fd5b505af115801561161b573d6000803e3d6000fd5b5050505050565b336001600160a01b037f0000000000000000000000000000000000000000000000000000000000000000161461166b576040516330cd747160e01b815260040160405180910390fd5b4760006116c47f2636ad834cd47318572033620d50377260a54fc64e5f150896186b2bafda74546001836116bf7f00000000000000000000000000000000000000000000000000000000000000008261335d565b6133ca565b9050600060066001600160a01b0316826040516116e19190613b3a565b6000604051808303816000865af19150503d806000811461171e576040519150601f19603f3d011682016040523d82523d6000602084013e611723565b606091505b505090508061173157600080fd5b60006117458467016345785d8a0000613acd565b90504781810361175457600080fd5b6201fefc19633b9aca00828403040160808110156118ee576040516371dacc7d60e11b8152600080516020613c038339815191526004820152600080516020613c238339815191526024820152604481018290526000906108059063e3b598fa90606401602060405180830381865afa1580156117d5573d6000803e3d6000fd5b505050506040513d601f19601f820116820180604052508101906117f99190613a74565b905080156118e857604051632d67f0b960e01b8152600481018390526024810182905273d689d29f7ea0c511f4dde84171b10d34078bb17c90632d67f0b990604401600060405180830381600087803b15801561185557600080fd5b505af1158015611869573d6000803e3d6000fd5b50506040516369e38bc360e01b815261ffff8516600482015261080892506369e38bc39150602401602060405180830381865afa1580156118ae573d6000803e3d6000fd5b505050506040513d601f19601f820116820180604052508101906118d29190613a74565b600183608181106118e5576118e5613a5e565b01555b50611c5f565b6118f9608082613aa3565b6040516371dacc7d60e11b8152600080516020613c0383398151915260048201527f000000000000000000000000000000000000000000000000000000000000000060248201526000604482018190529192506108059063e3b598fa90606401602060405180830381865afa158015611976573d6000803e3d6000fd5b505050506040513d601f19601f8201168201806040525081019061199a9190613a74565b905064012a05f2008111156119b1575064012a05f2005b631dcd65008110156119c65750505050505050565b6040516371dacc7d60e11b8152600080516020613c038339815191526004820152600080516020613c238339815191526024820152604481018390526000906108059063e3b598fa90606401602060405180830381865afa158015611a2f573d6000803e3d6000fd5b505050506040513d601f19601f82011682018060405250810190611a539190613a74565b604051630be72fb160e11b8152600080516020613c238339815191526004820152600080516020613c038339815191526024820152600060448201526064810185905260848101849052909150610805906317ce5f629060a401600060405180830381600087803b158015611ac757600080fd5b505af1158015611adb573d6000803e3d6000fd5b50506040516369e38bc360e01b815261ffff861660048201526000925061080891506369e38bc390602401602060405180830381865afa158015611b23573d6000803e3d6000fd5b505050506040513d601f19601f82011682018060405250810190611b479190613a74565b905081600003611b6c578060018560818110611b6557611b65613a5e565b0155611c5b565b6040516371dacc7d60e11b8152600080516020613c038339815191526004820152600080516020613c238339815191526024820152604481018590526000906108059063e3b598fa90606401602060405180830381865afa158015611bd5573d6000803e3d6000fd5b505050506040513d601f19601f82011682018060405250810190611bf99190613a74565b905080611c068482613aa3565b611c109084613ab6565b8460018860818110611c2457611c24613a5e565b0154611c309190613ab6565b611c3a9190613acd565b611c449190613af6565b60018660818110611c5757611c57613a5e565b0155505b5050505b60405163cd6f4eb160e01b81527f2636ad834cd47318572033620d50377260a54fc64e5f150896186b2bafda745460048201526108009063cd6f4eb19067016345785d8a0000906024016000604051808303818588803b158015611cc257600080fd5b505af1158015610d9d573d6000803e3d6000fd5b336001600160a01b037f00000000000000000000000000000000000000000000000000000000000000001614611d1f576040516330cd747160e01b815260040160405180910390fd5b82818114611d405760405163512509d360e11b815260040160405180910390fd5b60005b8181101561152f576000868683818110611d5f57611d5f613a5e565b90506020020135905060008190506000868685818110611d8157611d81613a5e565b6040516369e38bc360e01b815261ffff8616600482015260209091029290920135925060009161080891506369e38bc390602401602060405180830381865afa158015611dd2573d6000803e3d6000fd5b505050506040513d601f19601f82011682018060405250810190611df69190613a74565b9050808211611f7d576040516371dacc7d60e11b8152600080516020613c038339815191526004820152600080516020613c238339815191526024820152604481018590526000906108059063e3b598fa90606401602060405180830381865afa158015611e68573d6000803e3d6000fd5b505050506040513d601f19601f82011682018060405250810190611e8c9190613a74565b90508015611f7b57604051632d67f0b960e01b8152600481018690526024810182905273d689d29f7ea0c511f4dde84171b10d34078bb17c90632d67f0b990604401600060405180830381600087803b158015611ee857600080fd5b505af1158015611efc573d6000803e3d6000fd5b50506040516369e38bc360e01b815261ffff8816600482015261080892506369e38bc39150602401602060405180830381865afa158015611f41573d6000803e3d6000fd5b505050506040513d601f19601f82011682018060405250810190611f659190613a74565b60018660818110611f7857611f78613a5e565b01555b505b84600101945050505050611d43565b60845460ff1615611fb05760405163a62baeb760e01b815260040160405180910390fd5b6000610e10611fc26201518042613b46565b611fcc9190613af6565b9050600e811080611fde575060108110155b15611ffc5760405163cc1de8d960e01b815260040160405180910390fd5b6082546001600160a01b0316331461202757604051632d99bc8360e21b815260040160405180910390fd5b6001600160a01b03831661204e5760405163e6c4247b60e01b815260040160405180910390fd5b8160000361206f576040516365e52d5160e11b815260040160405180910390fd5b6000836001600160a01b0316836040515b60006040518083038185875af1925050503d80600081146120bd576040519150601f19603f3d011682016040523d82523d6000602084013e6120c2565b606091505b50509050806120e4576040516312171d8360e31b815260040160405180910390fd5b50505050565b336001600160a01b037f0000000000000000000000000000000000000000000000000000000000000000161480159061212e57506082546001600160a01b03163314155b1561214c57604051630b4a87e760e11b815260040160405180910390fd5b604051631fc9b14160e01b8152600080516020613c038339815191526004820152602481018290526000604482015261080590631fc9b141906064016115ed565b336001600160a01b037f000000000000000000000000000000000000000000000000000000000000000016148015906121d157506082546001600160a01b03163314155b156121ef57604051630b4a87e760e11b815260040160405180910390fd5b60405163d4626bb960e01b8152600080516020613c038339815191526004820152600060248201526108059063d4626bb990604401600060405180830381600087803b15801561223e57600080fd5b505af11580156120e4573d6000803e3d6000fd5b336001600160a01b037f0000000000000000000000000000000000000000000000000000000000000000161461229b576040516330cd747160e01b815260040160405180910390fd5b828181146122bc5760405163512509d360e11b815260040160405180910390fd5b60005b8181101561152f578383828181106122d9576122d9613a5e565b9050602002013560018787848181106122f4576122f4613a5e565b905060200201356081811061230b5761230b613a5e565b01556001016122bf565b336001600160a01b037f0000000000000000000000000000000000000000000000000000000000000000161461235e576040516330cd747160e01b815260040160405180910390fd5b61236a6000838361349c565b505050565b60845460ff16156123935760405163a62baeb760e01b815260040160405180910390fd5b6082546001600160a01b031633146123be57604051632d99bc8360e21b815260040160405180910390fd5b6040516257c71b60e41b815260048101829052600080516020613c23833981519152602482015273d689d29f7ea0c511f4dde84171b10d34078bb17c9063057c71b0906044016115ed565b61241161347d565b612419613154565b905090565b6000818154811061242e57600080fd5b6000918252602090912001546001600160a01b0316905081565b336001600160a01b037f0000000000000000000000000000000000000000000000000000000000000000161480159061248c57506082546001600160a01b03163314155b156124aa57604051630b4a87e760e11b815260040160405180910390fd5b60405163d4626bb960e01b8152600080516020613c038339815191526004820152602481018290526108059063d4626bb9906044016115ed565b6124ec61347d565b6124196130a5565b6124fc61347d565b612419613001565b60845460ff16156125285760405163a62baeb760e01b815260040160405180910390fd5b6000610e1061253a6201518042613b46565b6125449190613af6565b9050600e811080612556575060108110155b156125745760405163cc1de8d960e01b815260040160405180910390fd5b6082546001600160a01b0316331461259f57604051632d99bc8360e21b815260040160405180910390fd5b826125bd5760405163666b0c5d60e01b815260040160405180910390fd5b816000036125de576040516365e52d5160e11b815260040160405180910390fd5b60405163cd6f4eb160e01b8152600481018490526108009063cd6f4eb19084906024015b6000604051808303818588803b15801561261b57600080fd5b505af115801561152c573d6000803e3d6000fd5b336001600160a01b037f00000000000000000000000000000000000000000000000000000000000000001614612678576040516330cd747160e01b815260040160405180910390fd5b6084805460ff19166001179055565b60845460ff16156126ab5760405163a62baeb760e01b815260040160405180910390fd5b6000610e106126bd6201518042613b46565b6126c79190613af6565b9050600e8110806126d9575060108110155b156126f75760405163cc1de8d960e01b815260040160405180910390fd5b6082546001600160a01b0316331461272257604051632d99bc8360e21b815260040160405180910390fd5b816127405760405163666b0c5d60e01b815260040160405180910390fd5b476000819003612763576040516365e52d5160e11b815260040160405180910390fd5b60405163cd6f4eb160e01b8152600481018490526108009063cd6f4eb1908390602401612602565b336001600160a01b037f000000000000000000000000000000000000000000000000000000000000000016146127d4576040516330cd747160e01b815260040160405180910390fd5b868584146127f55760405163512509d360e11b815260040160405180910390fd5b60005b818110156129cf5760008a8a8381811061281457612814613a5e565b9050602002013590506128438186868581811061283357612833613a5e565b905060200201358b8b8b8b612f21565b156129c6576040516371dacc7d60e11b8152600080516020613c038339815191526004820152600080516020613c238339815191526024820152604481018290526000906108059063e3b598fa90606401602060405180830381865afa1580156128b1573d6000803e3d6000fd5b505050506040513d601f19601f820116820180604052508101906128d59190613a74565b905080156129c457604051632d67f0b960e01b8152600481018390526024810182905273d689d29f7ea0c511f4dde84171b10d34078bb17c90632d67f0b990604401600060405180830381600087803b15801561293157600080fd5b505af1158015612945573d6000803e3d6000fd5b50506040516369e38bc360e01b815261ffff8516600482015261080892506369e38bc39150602401602060405180830381865afa15801561298a573d6000803e3d6000fd5b505050506040513d601f19601f820116820180604052508101906129ae9190613a74565b600183608181106129c1576129c1613a5e565b01555b505b506001016127f8565b50505050505050505050565b60845460ff16156129ff5760405163a62baeb760e01b815260040160405180910390fd5b336001600160a01b037f00000000000000000000000000000000000000000000000000000000000000001614612a48576040516330cd747160e01b815260040160405180910390fd5b6001600160a01b038216612a6f5760405163e6c4247b60e01b815260040160405180910390fd5b80600003612a90576040516365e52d5160e11b815260040160405180910390fd5b6714d1120d7b160000811115612ab957604051630625040160e01b815260040160405180910390fd5b615460608354612ac99190613acd565b421015612ae95760405163034932ef60e51b815260040160405180910390fd5b426083556040516000906001600160a01b0384169083908381818185875af1925050503d8060008114612b38576040519150601f19603f3d011682016040523d82523d6000602084013e612b3d565b606091505b505090508061236a576040516312171d8360e31b815260040160405180910390fd5b6082546001600160a01b03163314612b8a57604051632d99bc8360e21b815260040160405180910390fd5b6084805460ff19169055565b336001600160a01b037f00000000000000000000000000000000000000000000000000000000000000001614801590612bda57506082546001600160a01b03163314155b15612bf857604051630b4a87e760e11b815260040160405180910390fd5b476000819003612c1b576040516365e52d5160e11b815260040160405180910390fd5b610805631fc9b141600080516020613c03833981519152612c40633b9aca0085613af6565b6040516001600160e01b031960e085901b16815260048101929092526024820152600060448201526064016115ed565b6082546001600160a01b03163314612c9b57604051632d99bc8360e21b815260040160405180910390fd5b6001600160a01b038216612cc25760405163e6c4247b60e01b815260040160405180910390fd5b80612ce05760405163666b0c5d60e01b815260040160405180910390fd5b60405163f4f1726b60e01b81526001600160a01b03831660048201526024810182905273d689d29f7ea0c511f4dde84171b10d34078bb17c9063f4f1726b90604401600060405180830381600087803b158015612d3c57600080fd5b505af115801561152f573d6000803e3d6000fd5b60845460ff1615612d745760405163a62baeb760e01b815260040160405180910390fd5b6000610e10612d866201518042613b46565b612d909190613af6565b9050600e811080612da2575060108110155b15612dc05760405163cc1de8d960e01b815260040160405180910390fd5b6082546001600160a01b03163314612deb57604051632d99bc8360e21b815260040160405180910390fd5b6001600160a01b038216612e125760405163e6c4247b60e01b815260040160405180910390fd5b476000819003612e35576040516365e52d5160e11b815260040160405180910390fd5b6000836001600160a01b031682604051612080565b60008084815b81811015612f145761080563e3b598fa898984818110612e7257612e72613a5e565b90506020020135888885818110612e8b57612e8b613a5e565b6040516001600160e01b031960e087901b16815260048101949094526020029190910135602483015250604481018c9052606401602060405180830381865afa158015612edc573d6000803e3d6000fd5b505050506040513d601f19601f82011682018060405250810190612f009190613a74565b612f0a9084613acd565b9250600101612e50565b5090979650505050505050565b600083815b81811015612ff0578761080563e3b598fa898985818110612f4957612f49613a5e565b90506020020135888886818110612f6257612f62613a5e565b6040516001600160e01b031960e087901b16815260048101949094526020029190910135602483015250604481018d9052606401602060405180830381865afa158015612fb3573d6000803e3d6000fd5b505050506040513d601f19601f82011682018060405250810190612fd79190613a74565b1115612fe857600192505050612ff7565b600101612f26565b5060009150505b9695505050505050565b61300961347d565b60005b608161ffff821610156130a1576040516369e38bc360e01b815261ffff82166004820152610808906369e38bc390602401602060405180830381865afa925050508015613076575060408051601f3d908101601f1916820190925261307391810190613a74565b60015b156130995780838361ffff166081811061309257613092613a5e565b6020020152505b60010161300c565b5090565b6130ad61347d565b60005b608161ffff821610156130a157604051632d9bfc7160e01b815261ffff8216600482015261080890632d9bfc7190602401602060405180830381865afa92505050801561311a575060408051601f3d908101601f1916820190925261311791810190613b5a565b60015b1561314c5780838361ffff166081811061313657613136613a5e565b67ffffffffffffffff9092166020929092020152505b6001016130b0565b61315c61347d565b60005b608161ffff821610156130a15760405163c2ba9e8760e01b815261ffff821660048201526108089063c2ba9e8790602401602060405180830381865afa9250505080156131c9575060408051601f3d908101601f191682019092526131c691810190613b5a565b60015b156131fb5780838361ffff16608181106131e5576131e5613a5e565b67ffffffffffffffff9092166020929092020152505b60010161315f565b61320b61347d565b60015b60818110156132a6576040516371dacc7d60e11b81526004810185905260248101849052604481018290526108059063e3b598fa90606401602060405180830381865afa158015613263573d6000803e3d6000fd5b505050506040513d601f19601f820116820180604052508101906132879190613a74565b82826081811061329957613299613a5e565b602002015260010161320e565b5092915050565b60008054606091908067ffffffffffffffff8111156132ce576132ce613a48565b6040519080825280602002602001820160405280156132f7578160200160208202803683370190505b50925060005b818110156133575782818154811061331757613317613a5e565b60009182526020909120015484516001600160a01b03909116319085908390811061334457613344613a5e565b60209081029190910101526001016132fd565b50505090565b60606005600461338d85604080516000602082015260218082019390935281518082039093018352604101905290565b8461339957600061339f565b600160f81b5b6040516020016133b29493929190613b84565b60405160208183030381529060405290505b92915050565b6060601060006133fa87604080516000602082015260218082019390935281518082039093018352604101905290565b6134048787613432565b85604051602001613419959493929190613bbb565b6040516020818303038152906040529050949350505050565b60608261345457506040805180820190915260018152600060208201526133c4565b604051600160f81b602082015260f883901b6001600160f81b03191660218201526022016133b2565b6040518061102001604052806081906020820280368337509192915050565b8280548282559060005260206000209081019282156134ef579160200282015b828111156134ef5781546001600160a01b0319166001600160a01b038435161782556020909201916001909101906134bc565b506130a19291505b808211156130a157600081556001016134f7565b60008083601f84011261351d57600080fd5b50813567ffffffffffffffff81111561353557600080fd5b6020830191508360208260051b850101111561355057600080fd5b9250929050565b6000806000806000806060878903121561357057600080fd5b863567ffffffffffffffff8082111561358857600080fd5b6135948a838b0161350b565b909850965060208901359150808211156135ad57600080fd5b6135b98a838b0161350b565b909650945060408901359150808211156135d257600080fd5b506135df89828a0161350b565b979a9699509497509295939492505050565b60008151808452602080850194506020840160005b8381101561362257815187529582019590820190600101613606565b509495945050505050565b60208152600061364060208301846135f1565b9392505050565b80356001600160a01b038116811461365e57600080fd5b919050565b60006020828403121561367557600080fd5b61364082613647565b8035801515811461365e57600080fd5b600080600080600080600080600080600060c08c8e0312156136af57600080fd5b67ffffffffffffffff808d3511156136c657600080fd5b6136d38e8e358f0161350b565b909c509a5060208d01358110156136e957600080fd5b6136f98e60208f01358f0161350b565b909a50985060408d013581101561370f57600080fd5b61371f8e60408f01358f0161350b565b909850965060608d013581101561373557600080fd5b6137458e60608f01358f0161350b565b909650945060808d013581101561375b57600080fd5b5061376c8d60808e01358e0161350b565b909350915061377d60a08d0161367e565b90509295989b509295989b9093969950565b600080600080604085870312156137a557600080fd5b843567ffffffffffffffff808211156137bd57600080fd5b6137c98883890161350b565b909650945060208701359150808211156137e257600080fd5b506137ef8782880161350b565b95989497509550505050565b8060005b60818110156120e45781518452602093840193909101906001016137ff565b61102081016133c482846137fb565b8060005b60818110156120e457815167ffffffffffffffff16845260209384019390910190600101613831565b6000615100613869838c6137fb565b61387761102084018b61382d565b61388561204084018a61382d565b6138936130608401896137fb565b6138a16140808401886137fb565b806150a08401526138b4818401876135f1565b6150c084019590955250506150e001529695505050505050565b6000602082840312156138e057600080fd5b5035919050565b600080604083850312156138fa57600080fd5b61390383613647565b946020939093013593505050565b6000806020838503121561392457600080fd5b823567ffffffffffffffff81111561393b57600080fd5b6139478582860161350b565b90969095509350505050565b61102081016133c4828461382d565b6000806040838503121561397557600080fd5b50508035926020909101359150565b6000806000806000806000806080898b0312156139a057600080fd5b883567ffffffffffffffff808211156139b857600080fd5b6139c48c838d0161350b565b909a50985060208b01359150808211156139dd57600080fd5b6139e98c838d0161350b565b909850965060408b0135915080821115613a0257600080fd5b613a0e8c838d0161350b565b909650945060608b0135915080821115613a2757600080fd5b50613a348b828c0161350b565b999c989b5096995094979396929594505050565b634e487b7160e01b600052604160045260246000fd5b634e487b7160e01b600052603260045260246000fd5b600060208284031215613a8657600080fd5b5051919050565b634e487b7160e01b600052601160045260246000fd5b818103818111156133c4576133c4613a8d565b80820281158282048414176133c4576133c4613a8d565b808201808211156133c4576133c4613a8d565b634e487b7160e01b600052601260045260246000fd5b600082613b0557613b05613ae0565b500490565b6000815160005b81811015613b2b5760208185018101518683015201613b11565b50600093019283525090919050565b60006136408284613b0a565b600082613b5557613b55613ae0565b500690565b600060208284031215613b6c57600080fd5b815167ffffffffffffffff8116811461364057600080fd5b600060ff60f81b808760f81b168352808660f81b166001840152613bab6002840186613b0a565b9316835250506001019392505050565b6001600160f81b031960f887811b8216835286901b1660018201526000613bf7613bf1613beb6002850188613b0a565b86613b0a565b84613b0a565b97965050505050505056feb4c087119097fbe3985298eef52f35ef6271c48322a8c2d430902a9cc38d94735bc73267f9990b1554109dc41e624a7dab56b1128f1ef2f62f6314294c038f9da26469706673582212205b7820f64cde268a6884cad69d49b0020bff10fe058cd50b3c32136a86acec9464736f6c63430008160033","opcodes":"PUSH1 0xC0 PUSH1 0x40 MSTORE CALLVALUE DUP1 ISZERO PUSH3 0x11 JUMPI PUSH1 0x0 DUP1 REVERT JUMPDEST POP PUSH1 0x40 MLOAD PUSH4 0x24A66CD PUSH1 0xE1 SHL DUP2 MSTORE ADDRESS PUSH1 0x4 DUP3 ADD MSTORE PUSH2 0x80C SWAP1 PUSH4 0x494CD9A SWAP1 PUSH1 0x24 ADD PUSH1 0x20 PUSH1 0x40 MLOAD DUP1 DUP4 SUB DUP2 DUP7 GAS STATICCALL ISZERO DUP1 ISZERO PUSH3 0x50 JUMPI RETURNDATASIZE PUSH1 0x0 DUP1 RETURNDATACOPY RETURNDATASIZE PUSH1 0x0 REVERT JUMPDEST POP POP POP POP PUSH1 0x40 MLOAD RETURNDATASIZE PUSH1 0x1F NOT PUSH1 0x1F DUP3 ADD AND DUP3 ADD DUP1 PUSH1 0x40 MSTORE POP DUP2 ADD SWAP1 PUSH3 0x76 SWAP2 SWAP1 PUSH3 0x97 JUMP JUMPDEST PUSH1 0x80 MSTORE PUSH1 0x82 DUP1 SLOAD PUSH1 0x1 PUSH1 0x1 PUSH1 0xA0 SHL SUB NOT AND CALLER SWAP1 DUP2 OR SWAP1 SWAP2 SSTORE PUSH1 0xA0 MSTORE PUSH3 0xB1 JUMP JUMPDEST PUSH1 0x0 PUSH1 0x20 DUP3 DUP5 SUB SLT ISZERO PUSH3 0xAA JUMPI PUSH1 0x0 DUP1 REVERT JUMPDEST POP MLOAD SWAP2 SWAP1 POP JUMP JUMPDEST PUSH1 0x80 MLOAD PUSH1 0xA0 MLOAD PUSH2 0x3C78 PUSH3 0x163 PUSH1 0x0 CODECOPY PUSH1 0x0 DUP2 DUP2 PUSH2 0x4EB ADD MSTORE DUP2 DUP2 PUSH2 0x89A ADD MSTORE DUP2 DUP2 PUSH2 0x1030 ADD MSTORE DUP2 DUP2 PUSH2 0x1070 ADD MSTORE DUP2 DUP2 PUSH2 0x1559 ADD MSTORE DUP2 DUP2 PUSH2 0x162D ADD MSTORE DUP2 DUP2 PUSH2 0x1CE1 ADD MSTORE DUP2 DUP2 PUSH2 0x20F5 ADD MSTORE DUP2 DUP2 PUSH2 0x2198 ADD MSTORE DUP2 DUP2 PUSH2 0x225D ADD MSTORE DUP2 DUP2 PUSH2 0x2320 ADD MSTORE DUP2 DUP2 PUSH2 0x2453 ADD MSTORE DUP2 DUP2 PUSH2 0x263A ADD MSTORE DUP2 DUP2 PUSH2 0x2796 ADD MSTORE DUP2 DUP2 PUSH2 0x2A0A ADD MSTORE PUSH2 0x2BA1 ADD MSTORE PUSH1 0x0 DUP2 DUP2 PUSH2 0x3C3 ADD MSTORE DUP2 DUP2 PUSH2 0xA4A ADD MSTORE DUP2 DUP2 PUSH2 0xF72 ADD MSTORE DUP2 DUP2 PUSH2 0x11E3 ADD MSTORE DUP2 DUP2 PUSH2 0x169A ADD MSTORE PUSH2 0x191C ADD MSTORE PUSH2 0x3C78 PUSH1 0x0 RETURN INVALID PUSH1 0x80 PUSH1 0x40 MSTORE PUSH1 0x4 CALLDATASIZE LT PUSH2 0x229 JUMPI PUSH1 0x0 CALLDATALOAD PUSH1 0xE0 SHR DUP1 PUSH4 0x956A25CF GT PUSH2 0x123 JUMPI DUP1 PUSH4 0xBE7B5A64 GT PUSH2 0xAB JUMPI DUP1 PUSH4 0xD7D31AE3 GT PUSH2 0x6F JUMPI DUP1 PUSH4 0xD7D31AE3 EQ PUSH2 0x6C8 JUMPI DUP1 PUSH4 0xE2157244 EQ PUSH2 0x6E8 JUMPI DUP1 PUSH4 0xE8D23D2A EQ PUSH2 0x6FD JUMPI DUP1 PUSH4 0xF4F1726B EQ PUSH2 0x712 JUMPI DUP1 PUSH4 0xFA09E630 EQ PUSH2 0x732 JUMPI PUSH2 0x230 JUMP JUMPDEST DUP1 PUSH4 0xBE7B5A64 EQ PUSH2 0x631 JUMPI DUP1 PUSH4 0xC3A97FC9 EQ PUSH2 0x646 JUMPI DUP1 PUSH4 0xC6C4A86F EQ PUSH2 0x666 JUMPI DUP1 PUSH4 0xC74DB335 EQ PUSH2 0x688 JUMPI DUP1 PUSH4 0xCDC18424 EQ PUSH2 0x6A8 JUMPI PUSH2 0x230 JUMP JUMPDEST DUP1 PUSH4 0xA7678775 GT PUSH2 0xF2 JUMPI DUP1 PUSH4 0xA7678775 EQ PUSH2 0x5A7 JUMPI DUP1 PUSH4 0xA83ED0C1 EQ PUSH2 0x5C7 JUMPI DUP1 PUSH4 0xA8C2BB0D EQ PUSH2 0x5E7 JUMPI DUP1 PUSH4 0xBC28D5D0 EQ PUSH2 0x5FC JUMPI DUP1 PUSH4 0xBC3FD048 EQ PUSH2 0x611 JUMPI PUSH2 0x230 JUMP JUMPDEST DUP1 PUSH4 0x956A25CF EQ PUSH2 0x525 JUMPI DUP1 PUSH4 0x987D0E59 EQ PUSH2 0x545 JUMPI DUP1 PUSH4 0x9D2736CC EQ PUSH2 0x565 JUMPI DUP1 PUSH4 0x9E6EB20B EQ PUSH2 0x585 JUMPI PUSH2 0x230 JUMP JUMPDEST DUP1 PUSH4 0x44A537F5 GT PUSH2 0x1B1 JUMPI DUP1 PUSH4 0x64EE6AEC GT PUSH2 0x175 JUMPI DUP1 PUSH4 0x64EE6AEC EQ PUSH2 0x46E JUMPI DUP1 PUSH4 0x7E11CA0A EQ PUSH2 0x484 JUMPI DUP1 PUSH4 0x8799111F EQ PUSH2 0x4A4 JUMPI DUP1 PUSH4 0x892208C5 EQ PUSH2 0x4C4 JUMPI DUP1 PUSH4 0x8DA5CB5B EQ PUSH2 0x4D9 JUMPI PUSH2 0x230 JUMP JUMPDEST DUP1 PUSH4 0x44A537F5 EQ PUSH2 0x3B1 JUMPI DUP1 PUSH4 0x565DEA95 EQ PUSH2 0x3E5 JUMPI DUP1 PUSH4 0x58C0B896 EQ PUSH2 0x419 JUMPI DUP1 PUSH4 0x61461954 EQ PUSH2 0x439 JUMPI DUP1 PUSH4 0x646E569B EQ PUSH2 0x44E JUMPI PUSH2 0x230 JUMP JUMPDEST DUP1 PUSH4 0x26A224E0 GT PUSH2 0x1F8 JUMPI DUP1 PUSH4 0x26A224E0 EQ PUSH2 0x2F1 JUMPI DUP1 PUSH4 0x276EF789 EQ PUSH2 0x31E JUMPI DUP1 PUSH4 0x3004C502 EQ PUSH2 0x347 JUMPI DUP1 PUSH4 0x305E3337 EQ PUSH2 0x367 JUMPI DUP1 PUSH4 0x3383DFE5 EQ PUSH2 0x387 JUMPI PUSH2 0x230 JUMP JUMPDEST DUP1 PUSH4 0xD16AB81 EQ PUSH2 0x249 JUMPI DUP1 PUSH4 0xD174C24 EQ PUSH2 0x27F JUMPI DUP1 PUSH4 0x13CD4940 EQ PUSH2 0x2A1 JUMPI DUP1 PUSH4 0x1F20FF4C EQ PUSH2 0x2D1 JUMPI PUSH2 0x230 JUMP JUMPDEST CALLDATASIZE PUSH2 0x230 JUMPI STOP JUMPDEST PUSH1 0x40 MLOAD PUSH4 0x201F3FD3 PUSH1 0xE1 SHL DUP2 MSTORE PUSH1 0x4 ADD PUSH1 0x40 MLOAD DUP1 SWAP2 SUB SWAP1 REVERT JUMPDEST CALLVALUE DUP1 ISZERO PUSH2 0x255 JUMPI PUSH1 0x0 DUP1 REVERT JUMPDEST POP PUSH2 0x269 PUSH2 0x264 CALLDATASIZE PUSH1 0x4 PUSH2 0x3557 JUMP JUMPDEST PUSH2 0x752 JUMP JUMPDEST PUSH1 0x40 MLOAD PUSH2 0x276 SWAP2 SWAP1 PUSH2 0x362D JUMP JUMPDEST PUSH1 0x40 MLOAD DUP1 SWAP2 SUB SWAP1 RETURN JUMPDEST CALLVALUE DUP1 ISZERO PUSH2 0x28B JUMPI PUSH1 0x0 DUP1 REVERT JUMPDEST POP PUSH2 0x29F PUSH2 0x29A CALLDATASIZE PUSH1 0x4 PUSH2 0x3663 JUMP JUMPDEST PUSH2 0x81B JUMP JUMPDEST STOP JUMPDEST CALLVALUE DUP1 ISZERO PUSH2 0x2AD JUMPI PUSH1 0x0 DUP1 REVERT JUMPDEST POP PUSH2 0x2C3 PUSH1 0x0 DUP1 MLOAD PUSH1 0x20 PUSH2 0x3C23 DUP4 CODECOPY DUP2 MLOAD SWAP2 MSTORE DUP2 JUMP JUMPDEST PUSH1 0x40 MLOAD SWAP1 DUP2 MSTORE PUSH1 0x20 ADD PUSH2 0x276 JUMP JUMPDEST CALLVALUE DUP1 ISZERO PUSH2 0x2DD JUMPI PUSH1 0x0 DUP1 REVERT JUMPDEST POP PUSH2 0x29F PUSH2 0x2EC CALLDATASIZE PUSH1 0x4 PUSH2 0x368E JUMP JUMPDEST PUSH2 0x88F JUMP JUMPDEST CALLVALUE DUP1 ISZERO PUSH2 0x2FD JUMPI PUSH1 0x0 DUP1 REVERT JUMPDEST POP PUSH2 0x311 PUSH2 0x30C CALLDATASIZE PUSH1 0x4 PUSH2 0x378F JUMP JUMPDEST PUSH2 0xDAA JUMP JUMPDEST PUSH1 0x40 MLOAD PUSH2 0x276 SWAP2 SWAP1 PUSH2 0x381E JUMP JUMPDEST CALLVALUE DUP1 ISZERO PUSH2 0x32A JUMPI PUSH1 0x0 DUP1 REVERT JUMPDEST POP PUSH2 0x333 PUSH2 0xEDE JUMP JUMPDEST PUSH1 0x40 MLOAD PUSH2 0x276 SWAP9 SWAP8 SWAP7 SWAP6 SWAP5 SWAP4 SWAP3 SWAP2 SWAP1 PUSH2 0x385A JUMP JUMPDEST CALLVALUE DUP1 ISZERO PUSH2 0x353 JUMPI PUSH1 0x0 DUP1 REVERT JUMPDEST POP PUSH2 0x29F PUSH2 0x362 CALLDATASIZE PUSH1 0x4 PUSH2 0x3557 JUMP JUMPDEST PUSH2 0x1065 JUMP JUMPDEST CALLVALUE DUP1 ISZERO PUSH2 0x373 JUMPI PUSH1 0x0 DUP1 REVERT JUMPDEST POP PUSH2 0x2C3 PUSH2 0x382 CALLDATASIZE PUSH1 0x4 PUSH2 0x38CE JUMP JUMPDEST PUSH2 0x1537 JUMP JUMPDEST CALLVALUE DUP1 ISZERO PUSH2 0x393 JUMPI PUSH1 0x0 DUP1 REVERT JUMPDEST POP PUSH1 0x84 SLOAD PUSH2 0x3A1 SWAP1 PUSH1 0xFF AND DUP2 JUMP JUMPDEST PUSH1 0x40 MLOAD SWAP1 ISZERO ISZERO DUP2 MSTORE PUSH1 0x20 ADD PUSH2 0x276 JUMP JUMPDEST CALLVALUE DUP1 ISZERO PUSH2 0x3BD JUMPI PUSH1 0x0 DUP1 REVERT JUMPDEST POP PUSH2 0x2C3 PUSH32 0x0 DUP2 JUMP JUMPDEST CALLVALUE DUP1 ISZERO PUSH2 0x3F1 JUMPI PUSH1 0x0 DUP1 REVERT JUMPDEST POP PUSH2 0x2C3 PUSH32 0x2636AD834CD47318572033620D50377260A54FC64E5F150896186B2BAFDA7454 DUP2 JUMP JUMPDEST CALLVALUE DUP1 ISZERO PUSH2 0x425 JUMPI PUSH1 0x0 DUP1 REVERT JUMPDEST POP PUSH2 0x29F PUSH2 0x434 CALLDATASIZE PUSH1 0x4 PUSH2 0x38CE JUMP JUMPDEST PUSH2 0x154E JUMP JUMPDEST CALLVALUE DUP1 ISZERO PUSH2 0x445 JUMPI PUSH1 0x0 DUP1 REVERT JUMPDEST POP PUSH2 0x29F PUSH2 0x1622 JUMP JUMPDEST CALLVALUE DUP1 ISZERO PUSH2 0x45A JUMPI PUSH1 0x0 DUP1 REVERT JUMPDEST POP PUSH2 0x29F PUSH2 0x469 CALLDATASIZE PUSH1 0x4 PUSH2 0x378F JUMP JUMPDEST PUSH2 0x1CD6 JUMP JUMPDEST CALLVALUE DUP1 ISZERO PUSH2 0x47A JUMPI PUSH1 0x0 DUP1 REVERT JUMPDEST POP PUSH2 0x2C3 PUSH1 0x83 SLOAD DUP2 JUMP JUMPDEST CALLVALUE DUP1 ISZERO PUSH2 0x490 JUMPI PUSH1 0x0 DUP1 REVERT JUMPDEST POP PUSH2 0x29F PUSH2 0x49F CALLDATASIZE PUSH1 0x4 PUSH2 0x38E7 JUMP JUMPDEST PUSH2 0x1F8C JUMP JUMPDEST CALLVALUE DUP1 ISZERO PUSH2 0x4B0 JUMPI PUSH1 0x0 DUP1 REVERT JUMPDEST POP PUSH2 0x29F PUSH2 0x4BF CALLDATASIZE PUSH1 0x4 PUSH2 0x38CE JUMP JUMPDEST PUSH2 0x20EA JUMP JUMPDEST CALLVALUE DUP1 ISZERO PUSH2 0x4D0 JUMPI PUSH1 0x0 DUP1 REVERT JUMPDEST POP PUSH2 0x29F PUSH2 0x218D JUMP JUMPDEST CALLVALUE DUP1 ISZERO PUSH2 0x4E5 JUMPI PUSH1 0x0 DUP1 REVERT JUMPDEST POP PUSH2 0x50D PUSH32 0x0 DUP2 JUMP JUMPDEST PUSH1 0x40 MLOAD PUSH1 0x1 PUSH1 0x1 PUSH1 0xA0 SHL SUB SWAP1 SWAP2 AND DUP2 MSTORE PUSH1 0x20 ADD PUSH2 0x276 JUMP JUMPDEST CALLVALUE DUP1 ISZERO PUSH2 0x531 JUMPI PUSH1 0x0 DUP1 REVERT JUMPDEST POP PUSH2 0x29F PUSH2 0x540 CALLDATASIZE PUSH1 0x4 PUSH2 0x378F JUMP JUMPDEST PUSH2 0x2252 JUMP JUMPDEST CALLVALUE DUP1 ISZERO PUSH2 0x551 JUMPI PUSH1 0x0 DUP1 REVERT JUMPDEST POP PUSH2 0x29F PUSH2 0x560 CALLDATASIZE PUSH1 0x4 PUSH2 0x3911 JUMP JUMPDEST PUSH2 0x2315 JUMP JUMPDEST CALLVALUE DUP1 ISZERO PUSH2 0x571 JUMPI PUSH1 0x0 DUP1 REVERT JUMPDEST POP PUSH2 0x29F PUSH2 0x580 CALLDATASIZE PUSH1 0x4 PUSH2 0x38CE JUMP JUMPDEST PUSH2 0x236F JUMP JUMPDEST CALLVALUE DUP1 ISZERO PUSH2 0x591 JUMPI PUSH1 0x0 DUP1 REVERT JUMPDEST POP PUSH2 0x59A PUSH2 0x2409 JUMP JUMPDEST PUSH1 0x40 MLOAD PUSH2 0x276 SWAP2 SWAP1 PUSH2 0x3953 JUMP JUMPDEST CALLVALUE DUP1 ISZERO PUSH2 0x5B3 JUMPI PUSH1 0x0 DUP1 REVERT JUMPDEST POP PUSH2 0x50D PUSH2 0x5C2 CALLDATASIZE PUSH1 0x4 PUSH2 0x38CE JUMP JUMPDEST PUSH2 0x241E JUMP JUMPDEST CALLVALUE DUP1 ISZERO PUSH2 0x5D3 JUMPI PUSH1 0x0 DUP1 REVERT JUMPDEST POP PUSH2 0x29F PUSH2 0x5E2 CALLDATASIZE PUSH1 0x4 PUSH2 0x38CE JUMP JUMPDEST PUSH2 0x2448 JUMP JUMPDEST CALLVALUE DUP1 ISZERO PUSH2 0x5F3 JUMPI PUSH1 0x0 DUP1 REVERT JUMPDEST POP PUSH2 0x59A PUSH2 0x24E4 JUMP JUMPDEST CALLVALUE DUP1 ISZERO PUSH2 0x608 JUMPI PUSH1 0x0 DUP1 REVERT JUMPDEST POP PUSH2 0x311 PUSH2 0x24F4 JUMP JUMPDEST CALLVALUE DUP1 ISZERO PUSH2 0x61D JUMPI PUSH1 0x0 DUP1 REVERT JUMPDEST POP PUSH2 0x29F PUSH2 0x62C CALLDATASIZE PUSH1 0x4 PUSH2 0x3962 JUMP JUMPDEST PUSH2 0x2504 JUMP JUMPDEST CALLVALUE DUP1 ISZERO PUSH2 0x63D JUMPI PUSH1 0x0 DUP1 REVERT JUMPDEST POP PUSH2 0x29F PUSH2 0x262F JUMP JUMPDEST CALLVALUE DUP1 ISZERO PUSH2 0x652 JUMPI PUSH1 0x0 DUP1 REVERT JUMPDEST POP PUSH2 0x29F PUSH2 0x661 CALLDATASIZE PUSH1 0x4 PUSH2 0x38CE JUMP JUMPDEST PUSH2 0x2687 JUMP JUMPDEST CALLVALUE DUP1 ISZERO PUSH2 0x672 JUMPI PUSH1 0x0 DUP1 REVERT JUMPDEST POP PUSH2 0x2C3 PUSH1 0x0 DUP1 MLOAD PUSH1 0x20 PUSH2 0x3C03 DUP4 CODECOPY DUP2 MLOAD SWAP2 MSTORE DUP2 JUMP JUMPDEST CALLVALUE DUP1 ISZERO PUSH2 0x694 JUMPI PUSH1 0x0 DUP1 REVERT JUMPDEST POP PUSH2 0x29F PUSH2 0x6A3 CALLDATASIZE PUSH1 0x4 PUSH2 0x3984 JUMP JUMPDEST PUSH2 0x278B JUMP JUMPDEST CALLVALUE DUP1 ISZERO PUSH2 0x6B4 JUMPI PUSH1 0x0 DUP1 REVERT JUMPDEST POP PUSH1 0x82 SLOAD PUSH2 0x50D SWAP1 PUSH1 0x1 PUSH1 0x1 PUSH1 0xA0 SHL SUB AND DUP2 JUMP JUMPDEST CALLVALUE DUP1 ISZERO PUSH2 0x6D4 JUMPI PUSH1 0x0 DUP1 REVERT JUMPDEST POP PUSH2 0x29F PUSH2 0x6E3 CALLDATASIZE PUSH1 0x4 PUSH2 0x38E7 JUMP JUMPDEST PUSH2 0x29DB JUMP JUMPDEST CALLVALUE DUP1 ISZERO PUSH2 0x6F4 JUMPI PUSH1 0x0 DUP1 REVERT JUMPDEST POP PUSH2 0x29F PUSH2 0x2B5F JUMP JUMPDEST CALLVALUE DUP1 ISZERO PUSH2 0x709 JUMPI PUSH1 0x0 DUP1 REVERT JUMPDEST POP PUSH2 0x29F PUSH2 0x2B96 JUMP JUMPDEST CALLVALUE DUP1 ISZERO PUSH2 0x71E JUMPI PUSH1 0x0 DUP1 REVERT JUMPDEST POP PUSH2 0x29F PUSH2 0x72D CALLDATASIZE PUSH1 0x4 PUSH2 0x38E7 JUMP JUMPDEST PUSH2 0x2C70 JUMP JUMPDEST CALLVALUE DUP1 ISZERO PUSH2 0x73E JUMPI PUSH1 0x0 DUP1 REVERT JUMPDEST POP PUSH2 0x29F PUSH2 0x74D CALLDATASIZE PUSH1 0x4 PUSH2 0x3663 JUMP JUMPDEST PUSH2 0x2D50 JUMP JUMPDEST PUSH1 0x60 DUP6 DUP5 DUP4 EQ PUSH2 0x775 JUMPI PUSH1 0x40 MLOAD PUSH4 0x512509D3 PUSH1 0xE1 SHL DUP2 MSTORE PUSH1 0x4 ADD PUSH1 0x40 MLOAD DUP1 SWAP2 SUB SWAP1 REVERT JUMPDEST DUP1 PUSH8 0xFFFFFFFFFFFFFFFF DUP2 GT ISZERO PUSH2 0x78E JUMPI PUSH2 0x78E PUSH2 0x3A48 JUMP JUMPDEST PUSH1 0x40 MLOAD SWAP1 DUP1 DUP3 MSTORE DUP1 PUSH1 0x20 MUL PUSH1 0x20 ADD DUP3 ADD PUSH1 0x40 MSTORE DUP1 ISZERO PUSH2 0x7B7 JUMPI DUP2 PUSH1 0x20 ADD PUSH1 0x20 DUP3 MUL DUP1 CALLDATASIZE DUP4 CALLDATACOPY ADD SWAP1 POP JUMPDEST POP SWAP2 POP PUSH1 0x0 JUMPDEST DUP2 DUP2 LT ISZERO PUSH2 0x80F JUMPI PUSH2 0x7EA DUP10 DUP10 DUP4 DUP2 DUP2 LT PUSH2 0x7DA JUMPI PUSH2 0x7DA PUSH2 0x3A5E JUMP JUMPDEST SWAP1 POP PUSH1 0x20 MUL ADD CALLDATALOAD DUP9 DUP9 DUP9 DUP9 PUSH2 0x2E4A JUMP JUMPDEST DUP4 DUP3 DUP2 MLOAD DUP2 LT PUSH2 0x7FC JUMPI PUSH2 0x7FC PUSH2 0x3A5E JUMP JUMPDEST PUSH1 0x20 SWAP1 DUP2 MUL SWAP2 SWAP1 SWAP2 ADD ADD MSTORE PUSH1 0x1 ADD PUSH2 0x7BD JUMP JUMPDEST POP POP SWAP7 SWAP6 POP POP POP POP POP POP JUMP JUMPDEST PUSH1 0x82 SLOAD PUSH1 0x1 PUSH1 0x1 PUSH1 0xA0 SHL SUB AND CALLER EQ PUSH2 0x846 JUMPI PUSH1 0x40 MLOAD PUSH4 0x2D99BC83 PUSH1 0xE2 SHL DUP2 MSTORE PUSH1 0x4 ADD PUSH1 0x40 MLOAD DUP1 SWAP2 SUB SWAP1 REVERT JUMPDEST PUSH1 0x1 PUSH1 0x1 PUSH1 0xA0 SHL SUB DUP2 AND PUSH2 0x86D JUMPI PUSH1 0x40 MLOAD PUSH4 0xE6C4247B PUSH1 0xE0 SHL DUP2 MSTORE PUSH1 0x4 ADD PUSH1 0x40 MLOAD DUP1 SWAP2 SUB SWAP1 REVERT JUMPDEST PUSH1 0x82 DUP1 SLOAD PUSH1 0x1 PUSH1 0x1 PUSH1 0xA0 SHL SUB NOT AND PUSH1 0x1 PUSH1 0x1 PUSH1 0xA0 SHL SUB SWAP3 SWAP1 SWAP3 AND SWAP2 SWAP1 SWAP2 OR SWAP1 SSTORE JUMP JUMPDEST CALLER PUSH1 0x1 PUSH1 0x1 PUSH1 0xA0 SHL SUB PUSH32 0x0 AND EQ PUSH2 0x8D8 JUMPI PUSH1 0x40 MLOAD PUSH4 0x30CD7471 PUSH1 0xE0 SHL DUP2 MSTORE PUSH1 0x4 ADD PUSH1 0x40 MLOAD DUP1 SWAP2 SUB SWAP1 REVERT JUMPDEST DUP10 DUP9 DUP2 EQ PUSH2 0x8F9 JUMPI PUSH1 0x40 MLOAD PUSH4 0x512509D3 PUSH1 0xE1 SHL DUP2 MSTORE PUSH1 0x4 ADD PUSH1 0x40 MLOAD DUP1 SWAP2 SUB SWAP1 REVERT JUMPDEST DUP7 DUP6 EQ PUSH2 0x919 JUMPI PUSH1 0x40 MLOAD PUSH4 0x512509D3 PUSH1 0xE1 SHL DUP2 MSTORE PUSH1 0x4 ADD PUSH1 0x40 MLOAD DUP1 SWAP2 SUB SWAP1 REVERT JUMPDEST PUSH1 0x0 JUMPDEST DUP2 DUP2 LT ISZERO PUSH2 0xD9A JUMPI PUSH1 0x0 DUP14 DUP14 DUP4 DUP2 DUP2 LT PUSH2 0x938 JUMPI PUSH2 0x938 PUSH2 0x3A5E JUMP JUMPDEST SWAP1 POP PUSH1 0x20 MUL ADD CALLDATALOAD SWAP1 POP DUP4 DUP1 ISZERO PUSH2 0x9DB JUMPI POP PUSH1 0x40 MLOAD PUSH4 0x71DACC7D PUSH1 0xE1 SHL DUP2 MSTORE PUSH1 0x0 DUP1 MLOAD PUSH1 0x20 PUSH2 0x3C03 DUP4 CODECOPY DUP2 MLOAD SWAP2 MSTORE PUSH1 0x4 DUP3 ADD MSTORE PUSH1 0x0 DUP1 MLOAD PUSH1 0x20 PUSH2 0x3C23 DUP4 CODECOPY DUP2 MLOAD SWAP2 MSTORE PUSH1 0x24 DUP3 ADD MSTORE PUSH1 0x44 DUP2 ADD DUP3 SWAP1 MSTORE PUSH4 0x3B9ACA00 SWAP1 PUSH2 0x805 SWAP1 PUSH4 0xE3B598FA SWAP1 PUSH1 0x64 ADD PUSH1 0x20 PUSH1 0x40 MLOAD DUP1 DUP4 SUB DUP2 DUP7 GAS STATICCALL ISZERO DUP1 ISZERO PUSH2 0x9B5 JUMPI RETURNDATASIZE PUSH1 0x0 DUP1 RETURNDATACOPY RETURNDATASIZE PUSH1 0x0 REVERT JUMPDEST POP POP POP POP PUSH1 0x40 MLOAD RETURNDATASIZE PUSH1 0x1F NOT PUSH1 0x1F DUP3 ADD AND DUP3 ADD DUP1 PUSH1 0x40 MSTORE POP DUP2 ADD SWAP1 PUSH2 0x9D9 SWAP2 SWAP1 PUSH2 0x3A74 JUMP JUMPDEST GT JUMPDEST ISZERO PUSH2 0x9E9 JUMPI POP PUSH1 0x1 ADD PUSH2 0x91C JUMP JUMPDEST PUSH2 0xA0F DUP2 DUP8 DUP8 DUP6 DUP2 DUP2 LT PUSH2 0x9FF JUMPI PUSH2 0x9FF PUSH2 0x3A5E JUMP JUMPDEST SWAP1 POP PUSH1 0x20 MUL ADD CALLDATALOAD DUP13 DUP13 DUP13 DUP13 PUSH2 0x2F21 JUMP JUMPDEST PUSH2 0xD91 JUMPI PUSH1 0x0 DUP13 DUP13 DUP5 DUP2 DUP2 LT PUSH2 0xA27 JUMPI PUSH2 0xA27 PUSH2 0x3A5E JUMP JUMPDEST PUSH1 0x40 MLOAD PUSH4 0x71DACC7D PUSH1 0xE1 SHL DUP2 MSTORE PUSH1 0x0 DUP1 MLOAD PUSH1 0x20 PUSH2 0x3C03 DUP4 CODECOPY DUP2 MLOAD SWAP2 MSTORE PUSH1 0x4 DUP3 ADD MSTORE PUSH32 0x0 PUSH1 0x24 DUP3 ADD MSTORE PUSH1 0x0 PUSH1 0x44 DUP3 ADD DUP2 SWAP1 MSTORE PUSH1 0x20 SWAP3 SWAP1 SWAP3 MUL SWAP4 SWAP1 SWAP4 ADD CALLDATALOAD SWAP4 POP SWAP2 PUSH2 0x805 SWAP2 POP PUSH4 0xE3B598FA SWAP1 PUSH1 0x64 ADD PUSH1 0x20 PUSH1 0x40 MLOAD DUP1 DUP4 SUB DUP2 DUP7 GAS STATICCALL ISZERO DUP1 ISZERO PUSH2 0xAB0 JUMPI RETURNDATASIZE PUSH1 0x0 DUP1 RETURNDATACOPY RETURNDATASIZE PUSH1 0x0 REVERT JUMPDEST POP POP POP POP PUSH1 0x40 MLOAD RETURNDATASIZE PUSH1 0x1F NOT PUSH1 0x1F DUP3 ADD AND DUP3 ADD DUP1 PUSH1 0x40 MSTORE POP DUP2 ADD SWAP1 PUSH2 0xAD4 SWAP2 SWAP1 PUSH2 0x3A74 JUMP JUMPDEST SWAP1 POP DUP2 DUP2 GT ISZERO PUSH2 0xAE1 JUMPI POP DUP1 JUMPDEST PUSH4 0x1DCD6500 DUP2 LT ISZERO PUSH2 0xAF7 JUMPI POP POP POP POP POP PUSH2 0xD9D JUMP JUMPDEST PUSH1 0x40 MLOAD PUSH4 0x71DACC7D PUSH1 0xE1 SHL DUP2 MSTORE PUSH1 0x0 DUP1 MLOAD PUSH1 0x20 PUSH2 0x3C03 DUP4 CODECOPY DUP2 MLOAD SWAP2 MSTORE PUSH1 0x4 DUP3 ADD MSTORE PUSH1 0x0 DUP1 MLOAD PUSH1 0x20 PUSH2 0x3C23 DUP4 CODECOPY DUP2 MLOAD SWAP2 MSTORE PUSH1 0x24 DUP3 ADD MSTORE PUSH1 0x44 DUP2 ADD DUP5 SWAP1 MSTORE PUSH1 0x0 SWAP1 PUSH2 0x805 SWAP1 PUSH4 0xE3B598FA SWAP1 PUSH1 0x64 ADD PUSH1 0x20 PUSH1 0x40 MLOAD DUP1 DUP4 SUB DUP2 DUP7 GAS STATICCALL ISZERO DUP1 ISZERO PUSH2 0xB60 JUMPI RETURNDATASIZE PUSH1 0x0 DUP1 RETURNDATACOPY RETURNDATASIZE PUSH1 0x0 REVERT JUMPDEST POP POP POP POP PUSH1 0x40 MLOAD RETURNDATASIZE PUSH1 0x1F NOT PUSH1 0x1F DUP3 ADD AND DUP3 ADD DUP1 PUSH1 0x40 MSTORE POP DUP2 ADD SWAP1 PUSH2 0xB84 SWAP2 SWAP1 PUSH2 0x3A74 JUMP JUMPDEST PUSH1 0x40 MLOAD PUSH4 0xBE72FB1 PUSH1 0xE1 SHL DUP2 MSTORE PUSH1 0x0 DUP1 MLOAD PUSH1 0x20 PUSH2 0x3C23 DUP4 CODECOPY DUP2 MLOAD SWAP2 MSTORE PUSH1 0x4 DUP3 ADD MSTORE PUSH1 0x0 DUP1 MLOAD PUSH1 0x20 PUSH2 0x3C03 DUP4 CODECOPY DUP2 MLOAD SWAP2 MSTORE PUSH1 0x24 DUP3 ADD MSTORE PUSH1 0x0 PUSH1 0x44 DUP3 ADD MSTORE PUSH1 0x64 DUP2 ADD DUP7 SWAP1 MSTORE PUSH1 0x84 DUP2 ADD DUP5 SWAP1 MSTORE SWAP1 SWAP2 POP PUSH2 0x805 SWAP1 PUSH4 0x17CE5F62 SWAP1 PUSH1 0xA4 ADD PUSH1 0x0 PUSH1 0x40 MLOAD DUP1 DUP4 SUB DUP2 PUSH1 0x0 DUP8 DUP1 EXTCODESIZE ISZERO DUP1 ISZERO PUSH2 0xBF8 JUMPI PUSH1 0x0 DUP1 REVERT JUMPDEST POP GAS CALL ISZERO DUP1 ISZERO PUSH2 0xC0C JUMPI RETURNDATASIZE PUSH1 0x0 DUP1 RETURNDATACOPY RETURNDATASIZE PUSH1 0x0 REVERT JUMPDEST POP POP PUSH1 0x40 MLOAD PUSH4 0x69E38BC3 PUSH1 0xE0 SHL DUP2 MSTORE PUSH2 0xFFFF DUP8 AND PUSH1 0x4 DUP3 ADD MSTORE PUSH1 0x0 SWAP3 POP PUSH2 0x808 SWAP2 POP PUSH4 0x69E38BC3 SWAP1 PUSH1 0x24 ADD PUSH1 0x20 PUSH1 0x40 MLOAD DUP1 DUP4 SUB DUP2 DUP7 GAS STATICCALL ISZERO DUP1 ISZERO PUSH2 0xC54 JUMPI RETURNDATASIZE PUSH1 0x0 DUP1 RETURNDATACOPY RETURNDATASIZE PUSH1 0x0 REVERT JUMPDEST POP POP POP POP PUSH1 0x40 MLOAD RETURNDATASIZE PUSH1 0x1F NOT PUSH1 0x1F DUP3 ADD AND DUP3 ADD DUP1 PUSH1 0x40 MSTORE POP DUP2 ADD SWAP1 PUSH2 0xC78 SWAP2 SWAP1 PUSH2 0x3A74 JUMP JUMPDEST SWAP1 POP DUP2 PUSH1 0x0 SUB PUSH2 0xC9D JUMPI DUP1 PUSH1 0x1 DUP7 PUSH1 0x81 DUP2 LT PUSH2 0xC96 JUMPI PUSH2 0xC96 PUSH2 0x3A5E JUMP JUMPDEST ADD SSTORE PUSH2 0xD8C JUMP JUMPDEST PUSH1 0x40 MLOAD PUSH4 0x71DACC7D PUSH1 0xE1 SHL DUP2 MSTORE PUSH1 0x0 DUP1 MLOAD PUSH1 0x20 PUSH2 0x3C03 DUP4 CODECOPY DUP2 MLOAD SWAP2 MSTORE PUSH1 0x4 DUP3 ADD MSTORE PUSH1 0x0 DUP1 MLOAD PUSH1 0x20 PUSH2 0x3C23 DUP4 CODECOPY DUP2 MLOAD SWAP2 MSTORE PUSH1 0x24 DUP3 ADD MSTORE PUSH1 0x44 DUP2 ADD DUP7 SWAP1 MSTORE PUSH1 0x0 SWAP1 PUSH2 0x805 SWAP1 PUSH4 0xE3B598FA SWAP1 PUSH1 0x64 ADD PUSH1 0x20 PUSH1 0x40 MLOAD DUP1 DUP4 SUB DUP2 DUP7 GAS STATICCALL ISZERO DUP1 ISZERO PUSH2 0xD06 JUMPI RETURNDATASIZE PUSH1 0x0 DUP1 RETURNDATACOPY RETURNDATASIZE PUSH1 0x0 REVERT JUMPDEST POP POP POP POP PUSH1 0x40 MLOAD RETURNDATASIZE PUSH1 0x1F NOT PUSH1 0x1F DUP3 ADD AND DUP3 ADD DUP1 PUSH1 0x40 MSTORE POP DUP2 ADD SWAP1 PUSH2 0xD2A SWAP2 SWAP1 PUSH2 0x3A74 JUMP JUMPDEST SWAP1 POP DUP1 PUSH2 0xD37 DUP5 DUP3 PUSH2 0x3AA3 JUMP JUMPDEST PUSH2 0xD41 SWAP1 DUP5 PUSH2 0x3AB6 JUMP JUMPDEST DUP5 PUSH1 0x1 DUP10 PUSH1 0x81 DUP2 LT PUSH2 0xD55 JUMPI PUSH2 0xD55 PUSH2 0x3A5E JUMP JUMPDEST ADD SLOAD PUSH2 0xD61 SWAP2 SWAP1 PUSH2 0x3AB6 JUMP JUMPDEST PUSH2 0xD6B SWAP2 SWAP1 PUSH2 0x3ACD JUMP JUMPDEST PUSH2 0xD75 SWAP2 SWAP1 PUSH2 0x3AF6 JUMP JUMPDEST PUSH1 0x1 DUP8 PUSH1 0x81 DUP2 LT PUSH2 0xD88 JUMPI PUSH2 0xD88 PUSH2 0x3A5E JUMP JUMPDEST ADD SSTORE POP JUMPDEST POP POP POP POP JUMPDEST POP PUSH1 0x1 ADD PUSH2 0x91C JUMP JUMPDEST POP POP JUMPDEST POP POP POP POP POP POP POP POP POP POP POP JUMP JUMPDEST PUSH2 0xDB2 PUSH2 0x347D JUMP JUMPDEST DUP4 DUP3 DUP2 EQ PUSH2 0xDD3 JUMPI PUSH1 0x40 MLOAD PUSH4 0x512509D3 PUSH1 0xE1 SHL DUP2 MSTORE PUSH1 0x4 ADD PUSH1 0x40 MLOAD DUP1 SWAP2 SUB SWAP1 REVERT JUMPDEST PUSH1 0x0 JUMPDEST DUP2 DUP2 LT ISZERO PUSH2 0xED4 JUMPI PUSH1 0x0 DUP8 DUP8 DUP4 DUP2 DUP2 LT PUSH2 0xDF2 JUMPI PUSH2 0xDF2 PUSH2 0x3A5E JUMP JUMPDEST SWAP1 POP PUSH1 0x20 MUL ADD CALLDATALOAD SWAP1 POP PUSH1 0x0 DUP7 DUP7 DUP5 DUP2 DUP2 LT PUSH2 0xE0F JUMPI PUSH2 0xE0F PUSH2 0x3A5E JUMP JUMPDEST SWAP1 POP PUSH1 0x20 MUL ADD CALLDATALOAD SWAP1 POP PUSH1 0x0 PUSH1 0x1 SWAP1 POP JUMPDEST PUSH1 0x81 DUP2 LT ISZERO PUSH2 0xEC6 JUMPI PUSH1 0x40 MLOAD PUSH4 0x71DACC7D PUSH1 0xE1 SHL DUP2 MSTORE PUSH1 0x4 DUP2 ADD DUP5 SWAP1 MSTORE PUSH1 0x24 DUP2 ADD DUP4 SWAP1 MSTORE PUSH1 0x44 DUP2 ADD DUP3 SWAP1 MSTORE PUSH2 0x805 SWAP1 PUSH4 0xE3B598FA SWAP1 PUSH1 0x64 ADD PUSH1 0x20 PUSH1 0x40 MLOAD DUP1 DUP4 SUB DUP2 DUP7 GAS STATICCALL ISZERO DUP1 ISZERO PUSH2 0xE74 JUMPI RETURNDATASIZE PUSH1 0x0 DUP1 RETURNDATACOPY RETURNDATASIZE PUSH1 0x0 REVERT JUMPDEST POP POP POP POP PUSH1 0x40 MLOAD RETURNDATASIZE PUSH1 0x1F NOT PUSH1 0x1F DUP3 ADD AND DUP3 ADD DUP1 PUSH1 0x40 MSTORE POP DUP2 ADD SWAP1 PUSH2 0xE98 SWAP2 SWAP1 PUSH2 0x3A74 JUMP JUMPDEST DUP7 DUP3 PUSH1 0x81 DUP2 LT PUSH2 0xEAA JUMPI PUSH2 0xEAA PUSH2 0x3A5E JUMP JUMPDEST PUSH1 0x20 MUL ADD DUP2 DUP2 MLOAD PUSH2 0xEBB SWAP2 SWAP1 PUSH2 0x3ACD JUMP JUMPDEST SWAP1 MSTORE POP PUSH1 0x1 ADD PUSH2 0xE1F JUMP JUMPDEST POP DUP3 PUSH1 0x1 ADD SWAP3 POP POP POP PUSH2 0xDD6 JUMP JUMPDEST POP POP SWAP5 SWAP4 POP POP POP POP JUMP JUMPDEST PUSH2 0xEE6 PUSH2 0x347D JUMP JUMPDEST PUSH2 0xEEE PUSH2 0x347D JUMP JUMPDEST PUSH2 0xEF6 PUSH2 0x347D JUMP JUMPDEST PUSH2 0xEFE PUSH2 0x347D JUMP JUMPDEST PUSH2 0xF06 PUSH2 0x347D JUMP JUMPDEST PUSH1 0x60 PUSH1 0x0 DUP1 PUSH2 0xF13 PUSH2 0x3001 JUMP JUMPDEST SWAP8 POP PUSH2 0xF1D PUSH2 0x30A5 JUMP JUMPDEST SWAP7 POP PUSH2 0xF27 PUSH2 0x3154 JUMP JUMPDEST SWAP6 POP PUSH2 0xF4F PUSH1 0x0 DUP1 MLOAD PUSH1 0x20 PUSH2 0x3C03 DUP4 CODECOPY DUP2 MLOAD SWAP2 MSTORE PUSH1 0x0 DUP1 MLOAD PUSH1 0x20 PUSH2 0x3C23 DUP4 CODECOPY DUP2 MLOAD SWAP2 MSTORE PUSH2 0x3203 JUMP JUMPDEST PUSH1 0x40 MLOAD PUSH4 0x71DACC7D PUSH1 0xE1 SHL DUP2 MSTORE PUSH1 0x0 DUP1 MLOAD PUSH1 0x20 PUSH2 0x3C03 DUP4 CODECOPY DUP2 MLOAD SWAP2 MSTORE PUSH1 0x4 DUP3 ADD MSTORE PUSH32 0x0 PUSH1 0x24 DUP3 ADD MSTORE PUSH1 0x0 PUSH1 0x44 DUP3 ADD MSTORE SWAP1 SWAP5 POP PUSH2 0x805 SWAP1 PUSH4 0xE3B598FA SWAP1 PUSH1 0x64 ADD PUSH1 0x20 PUSH1 0x40 MLOAD DUP1 DUP4 SUB DUP2 DUP7 GAS STATICCALL ISZERO DUP1 ISZERO PUSH2 0xFCA JUMPI RETURNDATASIZE PUSH1 0x0 DUP1 RETURNDATACOPY RETURNDATASIZE PUSH1 0x0 REVERT JUMPDEST POP POP POP POP PUSH1 0x40 MLOAD RETURNDATASIZE PUSH1 0x1F NOT PUSH1 0x1F DUP3 ADD AND DUP3 ADD DUP1 PUSH1 0x40 MSTORE POP DUP2 ADD SWAP1 PUSH2 0xFEE SWAP2 SWAP1 PUSH2 0x3A74 JUMP JUMPDEST DUP5 MSTORE PUSH2 0xFF8 PUSH2 0x32AD JUMP JUMPDEST PUSH1 0x40 DUP1 MLOAD PUSH2 0x1020 DUP2 ADD SWAP2 DUP3 SWAP1 MSTORE SWAP2 SWAP5 POP PUSH1 0x1 SWAP1 PUSH1 0x81 SWAP1 DUP3 DUP5 JUMPDEST DUP2 SLOAD DUP2 MSTORE PUSH1 0x20 ADD SWAP1 PUSH1 0x1 ADD SWAP1 DUP1 DUP4 GT PUSH2 0x1011 JUMPI POP POP POP POP POP SWAP5 POP SELFBALANCE SWAP2 POP PUSH32 0x0 PUSH1 0x1 PUSH1 0x1 PUSH1 0xA0 SHL SUB AND BALANCE SWAP1 POP SWAP1 SWAP2 SWAP3 SWAP4 SWAP5 SWAP6 SWAP7 SWAP8 JUMP JUMPDEST CALLER PUSH1 0x1 PUSH1 0x1 PUSH1 0xA0 SHL SUB PUSH32 0x0 AND EQ PUSH2 0x10AE JUMPI PUSH1 0x40 MLOAD PUSH4 0x30CD7471 PUSH1 0xE0 SHL DUP2 MSTORE PUSH1 0x4 ADD PUSH1 0x40 MLOAD DUP1 SWAP2 SUB SWAP1 REVERT JUMPDEST DUP5 DUP4 DUP2 EQ ISZERO DUP1 PUSH2 0x10BE JUMPI POP DUP1 DUP3 EQ ISZERO JUMPDEST ISZERO PUSH2 0x10DC JUMPI PUSH1 0x40 MLOAD PUSH4 0x512509D3 PUSH1 0xE1 SHL DUP2 MSTORE PUSH1 0x4 ADD PUSH1 0x40 MLOAD DUP1 SWAP2 SUB SWAP1 REVERT JUMPDEST PUSH1 0x0 JUMPDEST DUP2 DUP2 LT ISZERO PUSH2 0x152C JUMPI PUSH1 0x0 DUP7 DUP7 DUP4 DUP2 DUP2 LT PUSH2 0x10FB JUMPI PUSH2 0x10FB PUSH2 0x3A5E JUMP JUMPDEST SWAP1 POP PUSH1 0x20 MUL ADD CALLDATALOAD SWAP1 POP DUP1 PUSH1 0x0 EQ PUSH2 0x1523 JUMPI PUSH1 0x0 DUP10 DUP10 DUP5 DUP2 DUP2 LT PUSH2 0x1120 JUMPI PUSH2 0x1120 PUSH2 0x3A5E JUMP JUMPDEST SWAP1 POP PUSH1 0x20 MUL ADD CALLDATALOAD SWAP1 POP PUSH1 0x0 DUP2 SWAP1 POP PUSH1 0x0 DUP8 DUP8 DUP7 DUP2 DUP2 LT PUSH2 0x1142 JUMPI PUSH2 0x1142 PUSH2 0x3A5E JUMP JUMPDEST PUSH1 0x40 MLOAD PUSH4 0x69E38BC3 PUSH1 0xE0 SHL DUP2 MSTORE PUSH2 0xFFFF DUP7 AND PUSH1 0x4 DUP3 ADD MSTORE PUSH1 0x20 SWAP1 SWAP2 MUL SWAP3 SWAP1 SWAP3 ADD CALLDATALOAD SWAP3 POP PUSH1 0x0 SWAP2 PUSH2 0x808 SWAP2 POP PUSH4 0x69E38BC3 SWAP1 PUSH1 0x24 ADD PUSH1 0x20 PUSH1 0x40 MLOAD DUP1 DUP4 SUB DUP2 DUP7 GAS STATICCALL ISZERO DUP1 ISZERO PUSH2 0x1193 JUMPI RETURNDATASIZE PUSH1 0x0 DUP1 RETURNDATACOPY RETURNDATASIZE PUSH1 0x0 REVERT JUMPDEST POP POP POP POP PUSH1 0x40 MLOAD RETURNDATASIZE PUSH1 0x1F NOT PUSH1 0x1F DUP3 ADD AND DUP3 ADD DUP1 PUSH1 0x40 MSTORE POP DUP2 ADD SWAP1 PUSH2 0x11B7 SWAP2 SWAP1 PUSH2 0x3A74 JUMP JUMPDEST SWAP1 POP DUP1 DUP3 LT PUSH2 0x151E JUMPI PUSH1 0x40 MLOAD PUSH4 0x71DACC7D PUSH1 0xE1 SHL DUP2 MSTORE PUSH1 0x0 DUP1 MLOAD PUSH1 0x20 PUSH2 0x3C03 DUP4 CODECOPY DUP2 MLOAD SWAP2 MSTORE PUSH1 0x4 DUP3 ADD MSTORE PUSH32 0x0 PUSH1 0x24 DUP3 ADD MSTORE PUSH1 0x0 PUSH1 0x44 DUP3 ADD DUP2 SWAP1 MSTORE SWAP1 PUSH2 0x805 SWAP1 PUSH4 0xE3B598FA SWAP1 PUSH1 0x64 ADD PUSH1 0x20 PUSH1 0x40 MLOAD DUP1 DUP4 SUB DUP2 DUP7 GAS STATICCALL ISZERO DUP1 ISZERO PUSH2 0x123B JUMPI RETURNDATASIZE PUSH1 0x0 DUP1 RETURNDATACOPY RETURNDATASIZE PUSH1 0x0 REVERT JUMPDEST POP POP POP POP PUSH1 0x40 MLOAD RETURNDATASIZE PUSH1 0x1F NOT PUSH1 0x1F DUP3 ADD AND DUP3 ADD DUP1 PUSH1 0x40 MSTORE POP DUP2 ADD SWAP1 PUSH2 0x125F SWAP2 SWAP1 PUSH2 0x3A74 JUMP JUMPDEST SWAP1 POP DUP6 DUP2 GT ISZERO PUSH2 0x126C JUMPI POP DUP5 JUMPDEST PUSH4 0x1DCD6500 DUP2 LT ISZERO PUSH2 0x1285 JUMPI POP POP POP POP POP POP POP POP PUSH2 0x152F JUMP JUMPDEST PUSH1 0x40 MLOAD PUSH4 0x71DACC7D PUSH1 0xE1 SHL DUP2 MSTORE PUSH1 0x0 DUP1 MLOAD PUSH1 0x20 PUSH2 0x3C03 DUP4 CODECOPY DUP2 MLOAD SWAP2 MSTORE PUSH1 0x4 DUP3 ADD MSTORE PUSH1 0x0 DUP1 MLOAD PUSH1 0x20 PUSH2 0x3C23 DUP4 CODECOPY DUP2 MLOAD SWAP2 MSTORE PUSH1 0x24 DUP3 ADD MSTORE PUSH1 0x44 DUP2 ADD DUP7 SWAP1 MSTORE PUSH1 0x0 SWAP1 PUSH2 0x805 SWAP1 PUSH4 0xE3B598FA SWAP1 PUSH1 0x64 ADD PUSH1 0x20 PUSH1 0x40 MLOAD DUP1 DUP4 SUB DUP2 DUP7 GAS STATICCALL ISZERO DUP1 ISZERO PUSH2 0x12EE JUMPI RETURNDATASIZE PUSH1 0x0 DUP1 RETURNDATACOPY RETURNDATASIZE PUSH1 0x0 REVERT JUMPDEST POP POP POP POP PUSH1 0x40 MLOAD RETURNDATASIZE PUSH1 0x1F NOT PUSH1 0x1F DUP3 ADD AND DUP3 ADD DUP1 PUSH1 0x40 MSTORE POP DUP2 ADD SWAP1 PUSH2 0x1312 SWAP2 SWAP1 PUSH2 0x3A74 JUMP JUMPDEST PUSH1 0x40 MLOAD PUSH4 0xBE72FB1 PUSH1 0xE1 SHL DUP2 MSTORE PUSH1 0x0 DUP1 MLOAD PUSH1 0x20 PUSH2 0x3C23 DUP4 CODECOPY DUP2 MLOAD SWAP2 MSTORE PUSH1 0x4 DUP3 ADD MSTORE PUSH1 0x0 DUP1 MLOAD PUSH1 0x20 PUSH2 0x3C03 DUP4 CODECOPY DUP2 MLOAD SWAP2 MSTORE PUSH1 0x24 DUP3 ADD MSTORE PUSH1 0x0 PUSH1 0x44 DUP3 ADD MSTORE PUSH1 0x64 DUP2 ADD DUP9 SWAP1 MSTORE PUSH1 0x84 DUP2 ADD DUP5 SWAP1 MSTORE SWAP1 SWAP2 POP PUSH2 0x805 SWAP1 PUSH4 0x17CE5F62 SWAP1 PUSH1 0xA4 ADD PUSH1 0x0 PUSH1 0x40 MLOAD DUP1 DUP4 SUB DUP2 PUSH1 0x0 DUP8 DUP1 EXTCODESIZE ISZERO DUP1 ISZERO PUSH2 0x1386 JUMPI PUSH1 0x0 DUP1 REVERT JUMPDEST POP GAS CALL ISZERO DUP1 ISZERO PUSH2 0x139A JUMPI RETURNDATASIZE PUSH1 0x0 DUP1 RETURNDATACOPY RETURNDATASIZE PUSH1 0x0 REVERT JUMPDEST POP POP PUSH1 0x40 MLOAD PUSH4 0x69E38BC3 PUSH1 0xE0 SHL DUP2 MSTORE PUSH2 0xFFFF DUP10 AND PUSH1 0x4 DUP3 ADD MSTORE PUSH1 0x0 SWAP3 POP PUSH2 0x808 SWAP2 POP PUSH4 0x69E38BC3 SWAP1 PUSH1 0x24 ADD PUSH1 0x20 PUSH1 0x40 MLOAD DUP1 DUP4 SUB DUP2 DUP7 GAS STATICCALL ISZERO DUP1 ISZERO PUSH2 0x13E2 JUMPI RETURNDATASIZE PUSH1 0x0 DUP1 RETURNDATACOPY RETURNDATASIZE PUSH1 0x0 REVERT JUMPDEST POP POP POP POP PUSH1 0x40 MLOAD RETURNDATASIZE PUSH1 0x1F NOT PUSH1 0x1F DUP3 ADD AND DUP3 ADD DUP1 PUSH1 0x40 MSTORE POP DUP2 ADD SWAP1 PUSH2 0x1406 SWAP2 SWAP1 PUSH2 0x3A74 JUMP JUMPDEST SWAP1 POP DUP2 PUSH1 0x0 SUB PUSH2 0x142B JUMPI DUP1 PUSH1 0x1 DUP9 PUSH1 0x81 DUP2 LT PUSH2 0x1424 JUMPI PUSH2 0x1424 PUSH2 0x3A5E JUMP JUMPDEST ADD SSTORE PUSH2 0x151A JUMP JUMPDEST PUSH1 0x40 MLOAD PUSH4 0x71DACC7D PUSH1 0xE1 SHL DUP2 MSTORE PUSH1 0x0 DUP1 MLOAD PUSH1 0x20 PUSH2 0x3C03 DUP4 CODECOPY DUP2 MLOAD SWAP2 MSTORE PUSH1 0x4 DUP3 ADD MSTORE PUSH1 0x0 DUP1 MLOAD PUSH1 0x20 PUSH2 0x3C23 DUP4 CODECOPY DUP2 MLOAD SWAP2 MSTORE PUSH1 0x24 DUP3 ADD MSTORE PUSH1 0x44 DUP2 ADD DUP9 SWAP1 MSTORE PUSH1 0x0 SWAP1 PUSH2 0x805 SWAP1 PUSH4 0xE3B598FA SWAP1 PUSH1 0x64 ADD PUSH1 0x20 PUSH1 0x40 MLOAD DUP1 DUP4 SUB DUP2 DUP7 GAS STATICCALL ISZERO DUP1 ISZERO PUSH2 0x1494 JUMPI RETURNDATASIZE PUSH1 0x0 DUP1 RETURNDATACOPY RETURNDATASIZE PUSH1 0x0 REVERT JUMPDEST POP POP POP POP PUSH1 0x40 MLOAD RETURNDATASIZE PUSH1 0x1F NOT PUSH1 0x1F DUP3 ADD AND DUP3 ADD DUP1 PUSH1 0x40 MSTORE POP DUP2 ADD SWAP1 PUSH2 0x14B8 SWAP2 SWAP1 PUSH2 0x3A74 JUMP JUMPDEST SWAP1 POP DUP1 PUSH2 0x14C5 DUP5 DUP3 PUSH2 0x3AA3 JUMP JUMPDEST PUSH2 0x14CF SWAP1 DUP5 PUSH2 0x3AB6 JUMP JUMPDEST DUP5 PUSH1 0x1 DUP12 PUSH1 0x81 DUP2 LT PUSH2 0x14E3 JUMPI PUSH2 0x14E3 PUSH2 0x3A5E JUMP JUMPDEST ADD SLOAD PUSH2 0x14EF SWAP2 SWAP1 PUSH2 0x3AB6 JUMP JUMPDEST PUSH2 0x14F9 SWAP2 SWAP1 PUSH2 0x3ACD JUMP JUMPDEST PUSH2 0x1503 SWAP2 SWAP1 PUSH2 0x3AF6 JUMP JUMPDEST PUSH1 0x1 DUP10 PUSH1 0x81 DUP2 LT PUSH2 0x1516 JUMPI PUSH2 0x1516 PUSH2 0x3A5E JUMP JUMPDEST ADD SSTORE POP JUMPDEST POP POP POP JUMPDEST POP POP POP POP JUMPDEST POP PUSH1 0x1 ADD PUSH2 0x10DF JUMP JUMPDEST POP POP JUMPDEST POP POP POP POP POP POP JUMP JUMPDEST PUSH1 0x1 DUP2 PUSH1 0x81 DUP2 LT PUSH2 0x1547 JUMPI PUSH1 0x0 DUP1 REVERT JUMPDEST ADD SLOAD SWAP1 POP DUP2 JUMP JUMPDEST CALLER PUSH1 0x1 PUSH1 0x1 PUSH1 0xA0 SHL SUB PUSH32 0x0 AND EQ DUP1 ISZERO SWAP1 PUSH2 0x1592 JUMPI POP PUSH1 0x82 SLOAD PUSH1 0x1 PUSH1 0x1 PUSH1 0xA0 SHL SUB AND CALLER EQ ISZERO JUMPDEST ISZERO PUSH2 0x15B0 JUMPI PUSH1 0x40 MLOAD PUSH4 0xB4A87E7 PUSH1 0xE1 SHL DUP2 MSTORE PUSH1 0x4 ADD PUSH1 0x40 MLOAD DUP1 SWAP2 SUB SWAP1 REVERT JUMPDEST PUSH1 0x40 MLOAD PUSH4 0x7D691E3 PUSH1 0xE4 SHL DUP2 MSTORE PUSH1 0x0 DUP1 MLOAD PUSH1 0x20 PUSH2 0x3C03 DUP4 CODECOPY DUP2 MLOAD SWAP2 MSTORE PUSH1 0x4 DUP3 ADD MSTORE PUSH1 0x24 DUP2 ADD DUP3 SWAP1 MSTORE PUSH1 0x0 PUSH1 0x44 DUP3 ADD MSTORE PUSH2 0x805 SWAP1 PUSH4 0x7D691E30 SWAP1 PUSH1 0x64 ADD JUMPDEST PUSH1 0x0 PUSH1 0x40 MLOAD DUP1 DUP4 SUB DUP2 PUSH1 0x0 DUP8 DUP1 EXTCODESIZE ISZERO DUP1 ISZERO PUSH2 0x1607 JUMPI PUSH1 0x0 DUP1 REVERT JUMPDEST POP GAS CALL ISZERO DUP1 ISZERO PUSH2 0x161B JUMPI RETURNDATASIZE PUSH1 0x0 DUP1 RETURNDATACOPY RETURNDATASIZE PUSH1 0x0 REVERT JUMPDEST POP POP POP POP POP JUMP JUMPDEST CALLER PUSH1 0x1 PUSH1 0x1 PUSH1 0xA0 SHL SUB PUSH32 0x0 AND EQ PUSH2 0x166B JUMPI PUSH1 0x40 MLOAD PUSH4 0x30CD7471 PUSH1 0xE0 SHL DUP2 MSTORE PUSH1 0x4 ADD PUSH1 0x40 MLOAD DUP1 SWAP2 SUB SWAP1 REVERT JUMPDEST SELFBALANCE PUSH1 0x0 PUSH2 0x16C4 PUSH32 0x2636AD834CD47318572033620D50377260A54FC64E5F150896186B2BAFDA7454 PUSH1 0x1 DUP4 PUSH2 0x16BF PUSH32 0x0 DUP3 PUSH2 0x335D JUMP JUMPDEST PUSH2 0x33CA JUMP JUMPDEST SWAP1 POP PUSH1 0x0 PUSH1 0x6 PUSH1 0x1 PUSH1 0x1 PUSH1 0xA0 SHL SUB AND DUP3 PUSH1 0x40 MLOAD PUSH2 0x16E1 SWAP2 SWAP1 PUSH2 0x3B3A JUMP JUMPDEST PUSH1 0x0 PUSH1 0x40 MLOAD DUP1 DUP4 SUB DUP2 PUSH1 0x0 DUP7 GAS CALL SWAP2 POP POP RETURNDATASIZE DUP1 PUSH1 0x0 DUP2 EQ PUSH2 0x171E JUMPI PUSH1 0x40 MLOAD SWAP2 POP PUSH1 0x1F NOT PUSH1 0x3F RETURNDATASIZE ADD AND DUP3 ADD PUSH1 0x40 MSTORE RETURNDATASIZE DUP3 MSTORE RETURNDATASIZE PUSH1 0x0 PUSH1 0x20 DUP5 ADD RETURNDATACOPY PUSH2 0x1723 JUMP JUMPDEST PUSH1 0x60 SWAP2 POP JUMPDEST POP POP SWAP1 POP DUP1 PUSH2 0x1731 JUMPI PUSH1 0x0 DUP1 REVERT JUMPDEST PUSH1 0x0 PUSH2 0x1745 DUP5 PUSH8 0x16345785D8A0000 PUSH2 0x3ACD JUMP JUMPDEST SWAP1 POP SELFBALANCE DUP2 DUP2 SUB PUSH2 0x1754 JUMPI PUSH1 0x0 DUP1 REVERT JUMPDEST PUSH3 0x1FEFC NOT PUSH4 0x3B9ACA00 DUP3 DUP5 SUB DIV ADD PUSH1 0x80 DUP2 LT ISZERO PUSH2 0x18EE JUMPI PUSH1 0x40 MLOAD PUSH4 0x71DACC7D PUSH1 0xE1 SHL DUP2 MSTORE PUSH1 0x0 DUP1 MLOAD PUSH1 0x20 PUSH2 0x3C03 DUP4 CODECOPY DUP2 MLOAD SWAP2 MSTORE PUSH1 0x4 DUP3 ADD MSTORE PUSH1 0x0 DUP1 MLOAD PUSH1 0x20 PUSH2 0x3C23 DUP4 CODECOPY DUP2 MLOAD SWAP2 MSTORE PUSH1 0x24 DUP3 ADD MSTORE PUSH1 0x44 DUP2 ADD DUP3 SWAP1 MSTORE PUSH1 0x0 SWAP1 PUSH2 0x805 SWAP1 PUSH4 0xE3B598FA SWAP1 PUSH1 0x64 ADD PUSH1 0x20 PUSH1 0x40 MLOAD DUP1 DUP4 SUB DUP2 DUP7 GAS STATICCALL ISZERO DUP1 ISZERO PUSH2 0x17D5 JUMPI RETURNDATASIZE PUSH1 0x0 DUP1 RETURNDATACOPY RETURNDATASIZE PUSH1 0x0 REVERT JUMPDEST POP POP POP POP PUSH1 0x40 MLOAD RETURNDATASIZE PUSH1 0x1F NOT PUSH1 0x1F DUP3 ADD AND DUP3 ADD DUP1 PUSH1 0x40 MSTORE POP DUP2 ADD SWAP1 PUSH2 0x17F9 SWAP2 SWAP1 PUSH2 0x3A74 JUMP JUMPDEST SWAP1 POP DUP1 ISZERO PUSH2 0x18E8 JUMPI PUSH1 0x40 MLOAD PUSH4 0x2D67F0B9 PUSH1 0xE0 SHL DUP2 MSTORE PUSH1 0x4 DUP2 ADD DUP4 SWAP1 MSTORE PUSH1 0x24 DUP2 ADD DUP3 SWAP1 MSTORE PUSH20 0xD689D29F7EA0C511F4DDE84171B10D34078BB17C SWAP1 PUSH4 0x2D67F0B9 SWAP1 PUSH1 0x44 ADD PUSH1 0x0 PUSH1 0x40 MLOAD DUP1 DUP4 SUB DUP2 PUSH1 0x0 DUP8 DUP1 EXTCODESIZE ISZERO DUP1 ISZERO PUSH2 0x1855 JUMPI PUSH1 0x0 DUP1 REVERT JUMPDEST POP GAS CALL ISZERO DUP1 ISZERO PUSH2 0x1869 JUMPI RETURNDATASIZE PUSH1 0x0 DUP1 RETURNDATACOPY RETURNDATASIZE PUSH1 0x0 REVERT JUMPDEST POP POP PUSH1 0x40 MLOAD PUSH4 0x69E38BC3 PUSH1 0xE0 SHL DUP2 MSTORE PUSH2 0xFFFF DUP6 AND PUSH1 0x4 DUP3 ADD MSTORE PUSH2 0x808 SWAP3 POP PUSH4 0x69E38BC3 SWAP2 POP PUSH1 0x24 ADD PUSH1 0x20 PUSH1 0x40 MLOAD DUP1 DUP4 SUB DUP2 DUP7 GAS STATICCALL ISZERO DUP1 ISZERO PUSH2 0x18AE JUMPI RETURNDATASIZE PUSH1 0x0 DUP1 RETURNDATACOPY RETURNDATASIZE PUSH1 0x0 REVERT JUMPDEST POP POP POP POP PUSH1 0x40 MLOAD RETURNDATASIZE PUSH1 0x1F NOT PUSH1 0x1F DUP3 ADD AND DUP3 ADD DUP1 PUSH1 0x40 MSTORE POP DUP2 ADD SWAP1 PUSH2 0x18D2 SWAP2 SWAP1 PUSH2 0x3A74 JUMP JUMPDEST PUSH1 0x1 DUP4 PUSH1 0x81 DUP2 LT PUSH2 0x18E5 JUMPI PUSH2 0x18E5 PUSH2 0x3A5E JUMP JUMPDEST ADD SSTORE JUMPDEST POP PUSH2 0x1C5F JUMP JUMPDEST PUSH2 0x18F9 PUSH1 0x80 DUP3 PUSH2 0x3AA3 JUMP JUMPDEST PUSH1 0x40 MLOAD PUSH4 0x71DACC7D PUSH1 0xE1 SHL DUP2 MSTORE PUSH1 0x0 DUP1 MLOAD PUSH1 0x20 PUSH2 0x3C03 DUP4 CODECOPY DUP2 MLOAD SWAP2 MSTORE PUSH1 0x4 DUP3 ADD MSTORE PUSH32 0x0 PUSH1 0x24 DUP3 ADD MSTORE PUSH1 0x0 PUSH1 0x44 DUP3 ADD DUP2 SWAP1 MSTORE SWAP2 SWAP3 POP PUSH2 0x805 SWAP1 PUSH4 0xE3B598FA SWAP1 PUSH1 0x64 ADD PUSH1 0x20 PUSH1 0x40 MLOAD DUP1 DUP4 SUB DUP2 DUP7 GAS STATICCALL ISZERO DUP1 ISZERO PUSH2 0x1976 JUMPI RETURNDATASIZE PUSH1 0x0 DUP1 RETURNDATACOPY RETURNDATASIZE PUSH1 0x0 REVERT JUMPDEST POP POP POP POP PUSH1 0x40 MLOAD RETURNDATASIZE PUSH1 0x1F NOT PUSH1 0x1F DUP3 ADD AND DUP3 ADD DUP1 PUSH1 0x40 MSTORE POP DUP2 ADD SWAP1 PUSH2 0x199A SWAP2 SWAP1 PUSH2 0x3A74 JUMP JUMPDEST SWAP1 POP PUSH5 0x12A05F200 DUP2 GT ISZERO PUSH2 0x19B1 JUMPI POP PUSH5 0x12A05F200 JUMPDEST PUSH4 0x1DCD6500 DUP2 LT ISZERO PUSH2 0x19C6 JUMPI POP POP POP POP POP POP POP JUMP JUMPDEST PUSH1 0x40 MLOAD PUSH4 0x71DACC7D PUSH1 0xE1 SHL DUP2 MSTORE PUSH1 0x0 DUP1 MLOAD PUSH1 0x20 PUSH2 0x3C03 DUP4 CODECOPY DUP2 MLOAD SWAP2 MSTORE PUSH1 0x4 DUP3 ADD MSTORE PUSH1 0x0 DUP1 MLOAD PUSH1 0x20 PUSH2 0x3C23 DUP4 CODECOPY DUP2 MLOAD SWAP2 MSTORE PUSH1 0x24 DUP3 ADD MSTORE PUSH1 0x44 DUP2 ADD DUP4 SWAP1 MSTORE PUSH1 0x0 SWAP1 PUSH2 0x805 SWAP1 PUSH4 0xE3B598FA SWAP1 PUSH1 0x64 ADD PUSH1 0x20 PUSH1 0x40 MLOAD DUP1 DUP4 SUB DUP2 DUP7 GAS STATICCALL ISZERO DUP1 ISZERO PUSH2 0x1A2F JUMPI RETURNDATASIZE PUSH1 0x0 DUP1 RETURNDATACOPY RETURNDATASIZE PUSH1 0x0 REVERT JUMPDEST POP POP POP POP PUSH1 0x40 MLOAD RETURNDATASIZE PUSH1 0x1F NOT PUSH1 0x1F DUP3 ADD AND DUP3 ADD DUP1 PUSH1 0x40 MSTORE POP DUP2 ADD SWAP1 PUSH2 0x1A53 SWAP2 SWAP1 PUSH2 0x3A74 JUMP JUMPDEST PUSH1 0x40 MLOAD PUSH4 0xBE72FB1 PUSH1 0xE1 SHL DUP2 MSTORE PUSH1 0x0 DUP1 MLOAD PUSH1 0x20 PUSH2 0x3C23 DUP4 CODECOPY DUP2 MLOAD SWAP2 MSTORE PUSH1 0x4 DUP3 ADD MSTORE PUSH1 0x0 DUP1 MLOAD PUSH1 0x20 PUSH2 0x3C03 DUP4 CODECOPY DUP2 MLOAD SWAP2 MSTORE PUSH1 0x24 DUP3 ADD MSTORE PUSH1 0x0 PUSH1 0x44 DUP3 ADD MSTORE PUSH1 0x64 DUP2 ADD DUP6 SWAP1 MSTORE PUSH1 0x84 DUP2 ADD DUP5 SWAP1 MSTORE SWAP1 SWAP2 POP PUSH2 0x805 SWAP1 PUSH4 0x17CE5F62 SWAP1 PUSH1 0xA4 ADD PUSH1 0x0 PUSH1 0x40 MLOAD DUP1 DUP4 SUB DUP2 PUSH1 0x0 DUP8 DUP1 EXTCODESIZE ISZERO DUP1 ISZERO PUSH2 0x1AC7 JUMPI PUSH1 0x0 DUP1 REVERT JUMPDEST POP GAS CALL ISZERO DUP1 ISZERO PUSH2 0x1ADB JUMPI RETURNDATASIZE PUSH1 0x0 DUP1 RETURNDATACOPY RETURNDATASIZE PUSH1 0x0 REVERT JUMPDEST POP POP PUSH1 0x40 MLOAD PUSH4 0x69E38BC3 PUSH1 0xE0 SHL DUP2 MSTORE PUSH2 0xFFFF DUP7 AND PUSH1 0x4 DUP3 ADD MSTORE PUSH1 0x0 SWAP3 POP PUSH2 0x808 SWAP2 POP PUSH4 0x69E38BC3 SWAP1 PUSH1 0x24 ADD PUSH1 0x20 PUSH1 0x40 MLOAD DUP1 DUP4 SUB DUP2 DUP7 GAS STATICCALL ISZERO DUP1 ISZERO PUSH2 0x1B23 JUMPI RETURNDATASIZE PUSH1 0x0 DUP1 RETURNDATACOPY RETURNDATASIZE PUSH1 0x0 REVERT JUMPDEST POP POP POP POP PUSH1 0x40 MLOAD RETURNDATASIZE PUSH1 0x1F NOT PUSH1 0x1F DUP3 ADD AND DUP3 ADD DUP1 PUSH1 0x40 MSTORE POP DUP2 ADD SWAP1 PUSH2 0x1B47 SWAP2 SWAP1 PUSH2 0x3A74 JUMP JUMPDEST SWAP1 POP DUP2 PUSH1 0x0 SUB PUSH2 0x1B6C JUMPI DUP1 PUSH1 0x1 DUP6 PUSH1 0x81 DUP2 LT PUSH2 0x1B65 JUMPI PUSH2 0x1B65 PUSH2 0x3A5E JUMP JUMPDEST ADD SSTORE PUSH2 0x1C5B JUMP JUMPDEST PUSH1 0x40 MLOAD PUSH4 0x71DACC7D PUSH1 0xE1 SHL DUP2 MSTORE PUSH1 0x0 DUP1 MLOAD PUSH1 0x20 PUSH2 0x3C03 DUP4 CODECOPY DUP2 MLOAD SWAP2 MSTORE PUSH1 0x4 DUP3 ADD MSTORE PUSH1 0x0 DUP1 MLOAD PUSH1 0x20 PUSH2 0x3C23 DUP4 CODECOPY DUP2 MLOAD SWAP2 MSTORE PUSH1 0x24 DUP3 ADD MSTORE PUSH1 0x44 DUP2 ADD DUP6 SWAP1 MSTORE PUSH1 0x0 SWAP1 PUSH2 0x805 SWAP1 PUSH4 0xE3B598FA SWAP1 PUSH1 0x64 ADD PUSH1 0x20 PUSH1 0x40 MLOAD DUP1 DUP4 SUB DUP2 DUP7 GAS STATICCALL ISZERO DUP1 ISZERO PUSH2 0x1BD5 JUMPI RETURNDATASIZE PUSH1 0x0 DUP1 RETURNDATACOPY RETURNDATASIZE PUSH1 0x0 REVERT JUMPDEST POP POP POP POP PUSH1 0x40 MLOAD RETURNDATASIZE PUSH1 0x1F NOT PUSH1 0x1F DUP3 ADD AND DUP3 ADD DUP1 PUSH1 0x40 MSTORE POP DUP2 ADD SWAP1 PUSH2 0x1BF9 SWAP2 SWAP1 PUSH2 0x3A74 JUMP JUMPDEST SWAP1 POP DUP1 PUSH2 0x1C06 DUP5 DUP3 PUSH2 0x3AA3 JUMP JUMPDEST PUSH2 0x1C10 SWAP1 DUP5 PUSH2 0x3AB6 JUMP JUMPDEST DUP5 PUSH1 0x1 DUP9 PUSH1 0x81 DUP2 LT PUSH2 0x1C24 JUMPI PUSH2 0x1C24 PUSH2 0x3A5E JUMP JUMPDEST ADD SLOAD PUSH2 0x1C30 SWAP2 SWAP1 PUSH2 0x3AB6 JUMP JUMPDEST PUSH2 0x1C3A SWAP2 SWAP1 PUSH2 0x3ACD JUMP JUMPDEST PUSH2 0x1C44 SWAP2 SWAP1 PUSH2 0x3AF6 JUMP JUMPDEST PUSH1 0x1 DUP7 PUSH1 0x81 DUP2 LT PUSH2 0x1C57 JUMPI PUSH2 0x1C57 PUSH2 0x3A5E JUMP JUMPDEST ADD SSTORE POP JUMPDEST POP POP POP JUMPDEST PUSH1 0x40 MLOAD PUSH4 0xCD6F4EB1 PUSH1 0xE0 SHL DUP2 MSTORE PUSH32 0x2636AD834CD47318572033620D50377260A54FC64E5F150896186B2BAFDA7454 PUSH1 0x4 DUP3 ADD MSTORE PUSH2 0x800 SWAP1 PUSH4 0xCD6F4EB1 SWAP1 PUSH8 0x16345785D8A0000 SWAP1 PUSH1 0x24 ADD PUSH1 0x0 PUSH1 0x40 MLOAD DUP1 DUP4 SUB DUP2 DUP6 DUP9 DUP1 EXTCODESIZE ISZERO DUP1 ISZERO PUSH2 0x1CC2 JUMPI PUSH1 0x0 DUP1 REVERT JUMPDEST POP GAS CALL ISZERO DUP1 ISZERO PUSH2 0xD9D JUMPI RETURNDATASIZE PUSH1 0x0 DUP1 RETURNDATACOPY RETURNDATASIZE PUSH1 0x0 REVERT JUMPDEST CALLER PUSH1 0x1 PUSH1 0x1 PUSH1 0xA0 SHL SUB PUSH32 0x0 AND EQ PUSH2 0x1D1F JUMPI PUSH1 0x40 MLOAD PUSH4 0x30CD7471 PUSH1 0xE0 SHL DUP2 MSTORE PUSH1 0x4 ADD PUSH1 0x40 MLOAD DUP1 SWAP2 SUB SWAP1 REVERT JUMPDEST DUP3 DUP2 DUP2 EQ PUSH2 0x1D40 JUMPI PUSH1 0x40 MLOAD PUSH4 0x512509D3 PUSH1 0xE1 SHL DUP2 MSTORE PUSH1 0x4 ADD PUSH1 0x40 MLOAD DUP1 SWAP2 SUB SWAP1 REVERT JUMPDEST PUSH1 0x0 JUMPDEST DUP2 DUP2 LT ISZERO PUSH2 0x152F JUMPI PUSH1 0x0 DUP7 DUP7 DUP4 DUP2 DUP2 LT PUSH2 0x1D5F JUMPI PUSH2 0x1D5F PUSH2 0x3A5E JUMP JUMPDEST SWAP1 POP PUSH1 0x20 MUL ADD CALLDATALOAD SWAP1 POP PUSH1 0x0 DUP2 SWAP1 POP PUSH1 0x0 DUP7 DUP7 DUP6 DUP2 DUP2 LT PUSH2 0x1D81 JUMPI PUSH2 0x1D81 PUSH2 0x3A5E JUMP JUMPDEST PUSH1 0x40 MLOAD PUSH4 0x69E38BC3 PUSH1 0xE0 SHL DUP2 MSTORE PUSH2 0xFFFF DUP7 AND PUSH1 0x4 DUP3 ADD MSTORE PUSH1 0x20 SWAP1 SWAP2 MUL SWAP3 SWAP1 SWAP3 ADD CALLDATALOAD SWAP3 POP PUSH1 0x0 SWAP2 PUSH2 0x808 SWAP2 POP PUSH4 0x69E38BC3 SWAP1 PUSH1 0x24 ADD PUSH1 0x20 PUSH1 0x40 MLOAD DUP1 DUP4 SUB DUP2 DUP7 GAS STATICCALL ISZERO DUP1 ISZERO PUSH2 0x1DD2 JUMPI RETURNDATASIZE PUSH1 0x0 DUP1 RETURNDATACOPY RETURNDATASIZE PUSH1 0x0 REVERT JUMPDEST POP POP POP POP PUSH1 0x40 MLOAD RETURNDATASIZE PUSH1 0x1F NOT PUSH1 0x1F DUP3 ADD AND DUP3 ADD DUP1 PUSH1 0x40 MSTORE POP DUP2 ADD SWAP1 PUSH2 0x1DF6 SWAP2 SWAP1 PUSH2 0x3A74 JUMP JUMPDEST SWAP1 POP DUP1 DUP3 GT PUSH2 0x1F7D JUMPI PUSH1 0x40 MLOAD PUSH4 0x71DACC7D PUSH1 0xE1 SHL DUP2 MSTORE PUSH1 0x0 DUP1 MLOAD PUSH1 0x20 PUSH2 0x3C03 DUP4 CODECOPY DUP2 MLOAD SWAP2 MSTORE PUSH1 0x4 DUP3 ADD MSTORE PUSH1 0x0 DUP1 MLOAD PUSH1 0x20 PUSH2 0x3C23 DUP4 CODECOPY DUP2 MLOAD SWAP2 MSTORE PUSH1 0x24 DUP3 ADD MSTORE PUSH1 0x44 DUP2 ADD DUP6 SWAP1 MSTORE PUSH1 0x0 SWAP1 PUSH2 0x805 SWAP1 PUSH4 0xE3B598FA SWAP1 PUSH1 0x64 ADD PUSH1 0x20 PUSH1 0x40 MLOAD DUP1 DUP4 SUB DUP2 DUP7 GAS STATICCALL ISZERO DUP1 ISZERO PUSH2 0x1E68 JUMPI RETURNDATASIZE PUSH1 0x0 DUP1 RETURNDATACOPY RETURNDATASIZE PUSH1 0x0 REVERT JUMPDEST POP POP POP POP PUSH1 0x40 MLOAD RETURNDATASIZE PUSH1 0x1F NOT PUSH1 0x1F DUP3 ADD AND DUP3 ADD DUP1 PUSH1 0x40 MSTORE POP DUP2 ADD SWAP1 PUSH2 0x1E8C SWAP2 SWAP1 PUSH2 0x3A74 JUMP JUMPDEST SWAP1 POP DUP1 ISZERO PUSH2 0x1F7B JUMPI PUSH1 0x40 MLOAD PUSH4 0x2D67F0B9 PUSH1 0xE0 SHL DUP2 MSTORE PUSH1 0x4 DUP2 ADD DUP7 SWAP1 MSTORE PUSH1 0x24 DUP2 ADD DUP3 SWAP1 MSTORE PUSH20 0xD689D29F7EA0C511F4DDE84171B10D34078BB17C SWAP1 PUSH4 0x2D67F0B9 SWAP1 PUSH1 0x44 ADD PUSH1 0x0 PUSH1 0x40 MLOAD DUP1 DUP4 SUB DUP2 PUSH1 0x0 DUP8 DUP1 EXTCODESIZE ISZERO DUP1 ISZERO PUSH2 0x1EE8 JUMPI PUSH1 0x0 DUP1 REVERT JUMPDEST POP GAS CALL ISZERO DUP1 ISZERO PUSH2 0x1EFC JUMPI RETURNDATASIZE PUSH1 0x0 DUP1 RETURNDATACOPY RETURNDATASIZE PUSH1 0x0 REVERT JUMPDEST POP POP PUSH1 0x40 MLOAD PUSH4 0x69E38BC3 PUSH1 0xE0 SHL DUP2 MSTORE PUSH2 0xFFFF DUP9 AND PUSH1 0x4 DUP3 ADD MSTORE PUSH2 0x808 SWAP3 POP PUSH4 0x69E38BC3 SWAP2 POP PUSH1 0x24 ADD PUSH1 0x20 PUSH1 0x40 MLOAD DUP1 DUP4 SUB DUP2 DUP7 GAS STATICCALL ISZERO DUP1 ISZERO PUSH2 0x1F41 JUMPI RETURNDATASIZE PUSH1 0x0 DUP1 RETURNDATACOPY RETURNDATASIZE PUSH1 0x0 REVERT JUMPDEST POP POP POP POP PUSH1 0x40 MLOAD RETURNDATASIZE PUSH1 0x1F NOT PUSH1 0x1F DUP3 ADD AND DUP3 ADD DUP1 PUSH1 0x40 MSTORE POP DUP2 ADD SWAP1 PUSH2 0x1F65 SWAP2 SWAP1 PUSH2 0x3A74 JUMP JUMPDEST PUSH1 0x1 DUP7 PUSH1 0x81 DUP2 LT PUSH2 0x1F78 JUMPI PUSH2 0x1F78 PUSH2 0x3A5E JUMP JUMPDEST ADD SSTORE JUMPDEST POP JUMPDEST DUP5 PUSH1 0x1 ADD SWAP5 POP POP POP POP POP PUSH2 0x1D43 JUMP JUMPDEST PUSH1 0x84 SLOAD PUSH1 0xFF AND ISZERO PUSH2 0x1FB0 JUMPI PUSH1 0x40 MLOAD PUSH4 0xA62BAEB7 PUSH1 0xE0 SHL DUP2 MSTORE PUSH1 0x4 ADD PUSH1 0x40 MLOAD DUP1 SWAP2 SUB SWAP1 REVERT JUMPDEST PUSH1 0x0 PUSH2 0xE10 PUSH2 0x1FC2 PUSH3 0x15180 TIMESTAMP PUSH2 0x3B46 JUMP JUMPDEST PUSH2 0x1FCC SWAP2 SWAP1 PUSH2 0x3AF6 JUMP JUMPDEST SWAP1 POP PUSH1 0xE DUP2 LT DUP1 PUSH2 0x1FDE JUMPI POP PUSH1 0x10 DUP2 LT ISZERO JUMPDEST ISZERO PUSH2 0x1FFC JUMPI PUSH1 0x40 MLOAD PUSH4 0xCC1DE8D9 PUSH1 0xE0 SHL DUP2 MSTORE PUSH1 0x4 ADD PUSH1 0x40 MLOAD DUP1 SWAP2 SUB SWAP1 REVERT JUMPDEST PUSH1 0x82 SLOAD PUSH1 0x1 PUSH1 0x1 PUSH1 0xA0 SHL SUB AND CALLER EQ PUSH2 0x2027 JUMPI PUSH1 0x40 MLOAD PUSH4 0x2D99BC83 PUSH1 0xE2 SHL DUP2 MSTORE PUSH1 0x4 ADD PUSH1 0x40 MLOAD DUP1 SWAP2 SUB SWAP1 REVERT JUMPDEST PUSH1 0x1 PUSH1 0x1 PUSH1 0xA0 SHL SUB DUP4 AND PUSH2 0x204E JUMPI PUSH1 0x40 MLOAD PUSH4 0xE6C4247B PUSH1 0xE0 SHL DUP2 MSTORE PUSH1 0x4 ADD PUSH1 0x40 MLOAD DUP1 SWAP2 SUB SWAP1 REVERT JUMPDEST DUP2 PUSH1 0x0 SUB PUSH2 0x206F JUMPI PUSH1 0x40 MLOAD PUSH4 0x65E52D51 PUSH1 0xE1 SHL DUP2 MSTORE PUSH1 0x4 ADD PUSH1 0x40 MLOAD DUP1 SWAP2 SUB SWAP1 REVERT JUMPDEST PUSH1 0x0 DUP4 PUSH1 0x1 PUSH1 0x1 PUSH1 0xA0 SHL SUB AND DUP4 PUSH1 0x40 MLOAD JUMPDEST PUSH1 0x0 PUSH1 0x40 MLOAD DUP1 DUP4 SUB DUP2 DUP6 DUP8 GAS CALL SWAP3 POP POP POP RETURNDATASIZE DUP1 PUSH1 0x0 DUP2 EQ PUSH2 0x20BD JUMPI PUSH1 0x40 MLOAD SWAP2 POP PUSH1 0x1F NOT PUSH1 0x3F RETURNDATASIZE ADD AND DUP3 ADD PUSH1 0x40 MSTORE RETURNDATASIZE DUP3 MSTORE RETURNDATASIZE PUSH1 0x0 PUSH1 0x20 DUP5 ADD RETURNDATACOPY PUSH2 0x20C2 JUMP JUMPDEST PUSH1 0x60 SWAP2 POP JUMPDEST POP POP SWAP1 POP DUP1 PUSH2 0x20E4 JUMPI PUSH1 0x40 MLOAD PUSH4 0x12171D83 PUSH1 0xE3 SHL DUP2 MSTORE PUSH1 0x4 ADD PUSH1 0x40 MLOAD DUP1 SWAP2 SUB SWAP1 REVERT JUMPDEST POP POP POP POP JUMP JUMPDEST CALLER PUSH1 0x1 PUSH1 0x1 PUSH1 0xA0 SHL SUB PUSH32 0x0 AND EQ DUP1 ISZERO SWAP1 PUSH2 0x212E JUMPI POP PUSH1 0x82 SLOAD PUSH1 0x1 PUSH1 0x1 PUSH1 0xA0 SHL SUB AND CALLER EQ ISZERO JUMPDEST ISZERO PUSH2 0x214C JUMPI PUSH1 0x40 MLOAD PUSH4 0xB4A87E7 PUSH1 0xE1 SHL DUP2 MSTORE PUSH1 0x4 ADD PUSH1 0x40 MLOAD DUP1 SWAP2 SUB SWAP1 REVERT JUMPDEST PUSH1 0x40 MLOAD PUSH4 0x1FC9B141 PUSH1 0xE0 SHL DUP2 MSTORE PUSH1 0x0 DUP1 MLOAD PUSH1 0x20 PUSH2 0x3C03 DUP4 CODECOPY DUP2 MLOAD SWAP2 MSTORE PUSH1 0x4 DUP3 ADD MSTORE PUSH1 0x24 DUP2 ADD DUP3 SWAP1 MSTORE PUSH1 0x0 PUSH1 0x44 DUP3 ADD MSTORE PUSH2 0x805 SWAP1 PUSH4 0x1FC9B141 SWAP1 PUSH1 0x64 ADD PUSH2 0x15ED JUMP JUMPDEST CALLER PUSH1 0x1 PUSH1 0x1 PUSH1 0xA0 SHL SUB PUSH32 0x0 AND EQ DUP1 ISZERO SWAP1 PUSH2 0x21D1 JUMPI POP PUSH1 0x82 SLOAD PUSH1 0x1 PUSH1 0x1 PUSH1 0xA0 SHL SUB AND CALLER EQ ISZERO JUMPDEST ISZERO PUSH2 0x21EF JUMPI PUSH1 0x40 MLOAD PUSH4 0xB4A87E7 PUSH1 0xE1 SHL DUP2 MSTORE PUSH1 0x4 ADD PUSH1 0x40 MLOAD DUP1 SWAP2 SUB SWAP1 REVERT JUMPDEST PUSH1 0x40 MLOAD PUSH4 0xD4626BB9 PUSH1 0xE0 SHL DUP2 MSTORE PUSH1 0x0 DUP1 MLOAD PUSH1 0x20 PUSH2 0x3C03 DUP4 CODECOPY DUP2 MLOAD SWAP2 MSTORE PUSH1 0x4 DUP3 ADD MSTORE PUSH1 0x0 PUSH1 0x24 DUP3 ADD MSTORE PUSH2 0x805 SWAP1 PUSH4 0xD4626BB9 SWAP1 PUSH1 0x44 ADD PUSH1 0x0 PUSH1 0x40 MLOAD DUP1 DUP4 SUB DUP2 PUSH1 0x0 DUP8 DUP1 EXTCODESIZE ISZERO DUP1 ISZERO PUSH2 0x223E JUMPI PUSH1 0x0 DUP1 REVERT JUMPDEST POP GAS CALL ISZERO DUP1 ISZERO PUSH2 0x20E4 JUMPI RETURNDATASIZE PUSH1 0x0 DUP1 RETURNDATACOPY RETURNDATASIZE PUSH1 0x0 REVERT JUMPDEST CALLER PUSH1 0x1 PUSH1 0x1 PUSH1 0xA0 SHL SUB PUSH32 0x0 AND EQ PUSH2 0x229B JUMPI PUSH1 0x40 MLOAD PUSH4 0x30CD7471 PUSH1 0xE0 SHL DUP2 MSTORE PUSH1 0x4 ADD PUSH1 0x40 MLOAD DUP1 SWAP2 SUB SWAP1 REVERT JUMPDEST DUP3 DUP2 DUP2 EQ PUSH2 0x22BC JUMPI PUSH1 0x40 MLOAD PUSH4 0x512509D3 PUSH1 0xE1 SHL DUP2 MSTORE PUSH1 0x4 ADD PUSH1 0x40 MLOAD DUP1 SWAP2 SUB SWAP1 REVERT JUMPDEST PUSH1 0x0 JUMPDEST DUP2 DUP2 LT ISZERO PUSH2 0x152F JUMPI DUP4 DUP4 DUP3 DUP2 DUP2 LT PUSH2 0x22D9 JUMPI PUSH2 0x22D9 PUSH2 0x3A5E JUMP JUMPDEST SWAP1 POP PUSH1 0x20 MUL ADD CALLDATALOAD PUSH1 0x1 DUP8 DUP8 DUP5 DUP2 DUP2 LT PUSH2 0x22F4 JUMPI PUSH2 0x22F4 PUSH2 0x3A5E JUMP JUMPDEST SWAP1 POP PUSH1 0x20 MUL ADD CALLDATALOAD PUSH1 0x81 DUP2 LT PUSH2 0x230B JUMPI PUSH2 0x230B PUSH2 0x3A5E JUMP JUMPDEST ADD SSTORE PUSH1 0x1 ADD PUSH2 0x22BF JUMP JUMPDEST CALLER PUSH1 0x1 PUSH1 0x1 PUSH1 0xA0 SHL SUB PUSH32 0x0 AND EQ PUSH2 0x235E JUMPI PUSH1 0x40 MLOAD PUSH4 0x30CD7471 PUSH1 0xE0 SHL DUP2 MSTORE PUSH1 0x4 ADD PUSH1 0x40 MLOAD DUP1 SWAP2 SUB SWAP1 REVERT JUMPDEST PUSH2 0x236A PUSH1 0x0 DUP4 DUP4 PUSH2 0x349C JUMP JUMPDEST POP POP POP JUMP JUMPDEST PUSH1 0x84 SLOAD PUSH1 0xFF AND ISZERO PUSH2 0x2393 JUMPI PUSH1 0x40 MLOAD PUSH4 0xA62BAEB7 PUSH1 0xE0 SHL DUP2 MSTORE PUSH1 0x4 ADD PUSH1 0x40 MLOAD DUP1 SWAP2 SUB SWAP1 REVERT JUMPDEST PUSH1 0x82 SLOAD PUSH1 0x1 PUSH1 0x1 PUSH1 0xA0 SHL SUB AND CALLER EQ PUSH2 0x23BE JUMPI PUSH1 0x40 MLOAD PUSH4 0x2D99BC83 PUSH1 0xE2 SHL DUP2 MSTORE PUSH1 0x4 ADD PUSH1 0x40 MLOAD DUP1 SWAP2 SUB SWAP1 REVERT JUMPDEST PUSH1 0x40 MLOAD PUSH3 0x57C71B PUSH1 0xE4 SHL DUP2 MSTORE PUSH1 0x4 DUP2 ADD DUP3 SWAP1 MSTORE PUSH1 0x0 DUP1 MLOAD PUSH1 0x20 PUSH2 0x3C23 DUP4 CODECOPY DUP2 MLOAD SWAP2 MSTORE PUSH1 0x24 DUP3 ADD MSTORE PUSH20 0xD689D29F7EA0C511F4DDE84171B10D34078BB17C SWAP1 PUSH4 0x57C71B0 SWAP1 PUSH1 0x44 ADD PUSH2 0x15ED JUMP JUMPDEST PUSH2 0x2411 PUSH2 0x347D JUMP JUMPDEST PUSH2 0x2419 PUSH2 0x3154 JUMP JUMPDEST SWAP1 POP SWAP1 JUMP JUMPDEST PUSH1 0x0 DUP2 DUP2 SLOAD DUP2 LT PUSH2 0x242E JUMPI PUSH1 0x0 DUP1 REVERT JUMPDEST PUSH1 0x0 SWAP2 DUP3 MSTORE PUSH1 0x20 SWAP1 SWAP2 KECCAK256 ADD SLOAD PUSH1 0x1 PUSH1 0x1 PUSH1 0xA0 SHL SUB AND SWAP1 POP DUP2 JUMP JUMPDEST CALLER PUSH1 0x1 PUSH1 0x1 PUSH1 0xA0 SHL SUB PUSH32 0x0 AND EQ DUP1 ISZERO SWAP1 PUSH2 0x248C JUMPI POP PUSH1 0x82 SLOAD PUSH1 0x1 PUSH1 0x1 PUSH1 0xA0 SHL SUB AND CALLER EQ ISZERO JUMPDEST ISZERO PUSH2 0x24AA JUMPI PUSH1 0x40 MLOAD PUSH4 0xB4A87E7 PUSH1 0xE1 SHL DUP2 MSTORE PUSH1 0x4 ADD PUSH1 0x40 MLOAD DUP1 SWAP2 SUB SWAP1 REVERT JUMPDEST PUSH1 0x40 MLOAD PUSH4 0xD4626BB9 PUSH1 0xE0 SHL DUP2 MSTORE PUSH1 0x0 DUP1 MLOAD PUSH1 0x20 PUSH2 0x3C03 DUP4 CODECOPY DUP2 MLOAD SWAP2 MSTORE PUSH1 0x4 DUP3 ADD MSTORE PUSH1 0x24 DUP2 ADD DUP3 SWAP1 MSTORE PUSH2 0x805 SWAP1 PUSH4 0xD4626BB9 SWAP1 PUSH1 0x44 ADD PUSH2 0x15ED JUMP JUMPDEST PUSH2 0x24EC PUSH2 0x347D JUMP JUMPDEST PUSH2 0x2419 PUSH2 0x30A5 JUMP JUMPDEST PUSH2 0x24FC PUSH2 0x347D JUMP JUMPDEST PUSH2 0x2419 PUSH2 0x3001 JUMP JUMPDEST PUSH1 0x84 SLOAD PUSH1 0xFF AND ISZERO PUSH2 0x2528 JUMPI PUSH1 0x40 MLOAD PUSH4 0xA62BAEB7 PUSH1 0xE0 SHL DUP2 MSTORE PUSH1 0x4 ADD PUSH1 0x40 MLOAD DUP1 SWAP2 SUB SWAP1 REVERT JUMPDEST PUSH1 0x0 PUSH2 0xE10 PUSH2 0x253A PUSH3 0x15180 TIMESTAMP PUSH2 0x3B46 JUMP JUMPDEST PUSH2 0x2544 SWAP2 SWAP1 PUSH2 0x3AF6 JUMP JUMPDEST SWAP1 POP PUSH1 0xE DUP2 LT DUP1 PUSH2 0x2556 JUMPI POP PUSH1 0x10 DUP2 LT ISZERO JUMPDEST ISZERO PUSH2 0x2574 JUMPI PUSH1 0x40 MLOAD PUSH4 0xCC1DE8D9 PUSH1 0xE0 SHL DUP2 MSTORE PUSH1 0x4 ADD PUSH1 0x40 MLOAD DUP1 SWAP2 SUB SWAP1 REVERT JUMPDEST PUSH1 0x82 SLOAD PUSH1 0x1 PUSH1 0x1 PUSH1 0xA0 SHL SUB AND CALLER EQ PUSH2 0x259F JUMPI PUSH1 0x40 MLOAD PUSH4 0x2D99BC83 PUSH1 0xE2 SHL DUP2 MSTORE PUSH1 0x4 ADD PUSH1 0x40 MLOAD DUP1 SWAP2 SUB SWAP1 REVERT JUMPDEST DUP3 PUSH2 0x25BD JUMPI PUSH1 0x40 MLOAD PUSH4 0x666B0C5D PUSH1 0xE0 SHL DUP2 MSTORE PUSH1 0x4 ADD PUSH1 0x40 MLOAD DUP1 SWAP2 SUB SWAP1 REVERT JUMPDEST DUP2 PUSH1 0x0 SUB PUSH2 0x25DE JUMPI PUSH1 0x40 MLOAD PUSH4 0x65E52D51 PUSH1 0xE1 SHL DUP2 MSTORE PUSH1 0x4 ADD PUSH1 0x40 MLOAD DUP1 SWAP2 SUB SWAP1 REVERT JUMPDEST PUSH1 0x40 MLOAD PUSH4 0xCD6F4EB1 PUSH1 0xE0 SHL DUP2 MSTORE PUSH1 0x4 DUP2 ADD DUP5 SWAP1 MSTORE PUSH2 0x800 SWAP1 PUSH4 0xCD6F4EB1 SWAP1 DUP5 SWAP1 PUSH1 0x24 ADD JUMPDEST PUSH1 0x0 PUSH1 0x40 MLOAD DUP1 DUP4 SUB DUP2 DUP6 DUP9 DUP1 EXTCODESIZE ISZERO DUP1 ISZERO PUSH2 0x261B JUMPI PUSH1 0x0 DUP1 REVERT JUMPDEST POP GAS CALL ISZERO DUP1 ISZERO PUSH2 0x152C JUMPI RETURNDATASIZE PUSH1 0x0 DUP1 RETURNDATACOPY RETURNDATASIZE PUSH1 0x0 REVERT JUMPDEST CALLER PUSH1 0x1 PUSH1 0x1 PUSH1 0xA0 SHL SUB PUSH32 0x0 AND EQ PUSH2 0x2678 JUMPI PUSH1 0x40 MLOAD PUSH4 0x30CD7471 PUSH1 0xE0 SHL DUP2 MSTORE PUSH1 0x4 ADD PUSH1 0x40 MLOAD DUP1 SWAP2 SUB SWAP1 REVERT JUMPDEST PUSH1 0x84 DUP1 SLOAD PUSH1 0xFF NOT AND PUSH1 0x1 OR SWAP1 SSTORE JUMP JUMPDEST PUSH1 0x84 SLOAD PUSH1 0xFF AND ISZERO PUSH2 0x26AB JUMPI PUSH1 0x40 MLOAD PUSH4 0xA62BAEB7 PUSH1 0xE0 SHL DUP2 MSTORE PUSH1 0x4 ADD PUSH1 0x40 MLOAD DUP1 SWAP2 SUB SWAP1 REVERT JUMPDEST PUSH1 0x0 PUSH2 0xE10 PUSH2 0x26BD PUSH3 0x15180 TIMESTAMP PUSH2 0x3B46 JUMP JUMPDEST PUSH2 0x26C7 SWAP2 SWAP1 PUSH2 0x3AF6 JUMP JUMPDEST SWAP1 POP PUSH1 0xE DUP2 LT DUP1 PUSH2 0x26D9 JUMPI POP PUSH1 0x10 DUP2 LT ISZERO JUMPDEST ISZERO PUSH2 0x26F7 JUMPI PUSH1 0x40 MLOAD PUSH4 0xCC1DE8D9 PUSH1 0xE0 SHL DUP2 MSTORE PUSH1 0x4 ADD PUSH1 0x40 MLOAD DUP1 SWAP2 SUB SWAP1 REVERT JUMPDEST PUSH1 0x82 SLOAD PUSH1 0x1 PUSH1 0x1 PUSH1 0xA0 SHL SUB AND CALLER EQ PUSH2 0x2722 JUMPI PUSH1 0x40 MLOAD PUSH4 0x2D99BC83 PUSH1 0xE2 SHL DUP2 MSTORE PUSH1 0x4 ADD PUSH1 0x40 MLOAD DUP1 SWAP2 SUB SWAP1 REVERT JUMPDEST DUP2 PUSH2 0x2740 JUMPI PUSH1 0x40 MLOAD PUSH4 0x666B0C5D PUSH1 0xE0 SHL DUP2 MSTORE PUSH1 0x4 ADD PUSH1 0x40 MLOAD DUP1 SWAP2 SUB SWAP1 REVERT JUMPDEST SELFBALANCE PUSH1 0x0 DUP2 SWAP1 SUB PUSH2 0x2763 JUMPI PUSH1 0x40 MLOAD PUSH4 0x65E52D51 PUSH1 0xE1 SHL DUP2 MSTORE PUSH1 0x4 ADD PUSH1 0x40 MLOAD DUP1 SWAP2 SUB SWAP1 REVERT JUMPDEST PUSH1 0x40 MLOAD PUSH4 0xCD6F4EB1 PUSH1 0xE0 SHL DUP2 MSTORE PUSH1 0x4 DUP2 ADD DUP5 SWAP1 MSTORE PUSH2 0x800 SWAP1 PUSH4 0xCD6F4EB1 SWAP1 DUP4 SWAP1 PUSH1 0x24 ADD PUSH2 0x2602 JUMP JUMPDEST CALLER PUSH1 0x1 PUSH1 0x1 PUSH1 0xA0 SHL SUB PUSH32 0x0 AND EQ PUSH2 0x27D4 JUMPI PUSH1 0x40 MLOAD PUSH4 0x30CD7471 PUSH1 0xE0 SHL DUP2 MSTORE PUSH1 0x4 ADD PUSH1 0x40 MLOAD DUP1 SWAP2 SUB SWAP1 REVERT JUMPDEST DUP7 DUP6 DUP5 EQ PUSH2 0x27F5 JUMPI PUSH1 0x40 MLOAD PUSH4 0x512509D3 PUSH1 0xE1 SHL DUP2 MSTORE PUSH1 0x4 ADD PUSH1 0x40 MLOAD DUP1 SWAP2 SUB SWAP1 REVERT JUMPDEST PUSH1 0x0 JUMPDEST DUP2 DUP2 LT ISZERO PUSH2 0x29CF JUMPI PUSH1 0x0 DUP11 DUP11 DUP4 DUP2 DUP2 LT PUSH2 0x2814 JUMPI PUSH2 0x2814 PUSH2 0x3A5E JUMP JUMPDEST SWAP1 POP PUSH1 0x20 MUL ADD CALLDATALOAD SWAP1 POP PUSH2 0x2843 DUP2 DUP7 DUP7 DUP6 DUP2 DUP2 LT PUSH2 0x2833 JUMPI PUSH2 0x2833 PUSH2 0x3A5E JUMP JUMPDEST SWAP1 POP PUSH1 0x20 MUL ADD CALLDATALOAD DUP12 DUP12 DUP12 DUP12 PUSH2 0x2F21 JUMP JUMPDEST ISZERO PUSH2 0x29C6 JUMPI PUSH1 0x40 MLOAD PUSH4 0x71DACC7D PUSH1 0xE1 SHL DUP2 MSTORE PUSH1 0x0 DUP1 MLOAD PUSH1 0x20 PUSH2 0x3C03 DUP4 CODECOPY DUP2 MLOAD SWAP2 MSTORE PUSH1 0x4 DUP3 ADD MSTORE PUSH1 0x0 DUP1 MLOAD PUSH1 0x20 PUSH2 0x3C23 DUP4 CODECOPY DUP2 MLOAD SWAP2 MSTORE PUSH1 0x24 DUP3 ADD MSTORE PUSH1 0x44 DUP2 ADD DUP3 SWAP1 MSTORE PUSH1 0x0 SWAP1 PUSH2 0x805 SWAP1 PUSH4 0xE3B598FA SWAP1 PUSH1 0x64 ADD PUSH1 0x20 PUSH1 0x40 MLOAD DUP1 DUP4 SUB DUP2 DUP7 GAS STATICCALL ISZERO DUP1 ISZERO PUSH2 0x28B1 JUMPI RETURNDATASIZE PUSH1 0x0 DUP1 RETURNDATACOPY RETURNDATASIZE PUSH1 0x0 REVERT JUMPDEST POP POP POP POP PUSH1 0x40 MLOAD RETURNDATASIZE PUSH1 0x1F NOT PUSH1 0x1F DUP3 ADD AND DUP3 ADD DUP1 PUSH1 0x40 MSTORE POP DUP2 ADD SWAP1 PUSH2 0x28D5 SWAP2 SWAP1 PUSH2 0x3A74 JUMP JUMPDEST SWAP1 POP DUP1 ISZERO PUSH2 0x29C4 JUMPI PUSH1 0x40 MLOAD PUSH4 0x2D67F0B9 PUSH1 0xE0 SHL DUP2 MSTORE PUSH1 0x4 DUP2 ADD DUP4 SWAP1 MSTORE PUSH1 0x24 DUP2 ADD DUP3 SWAP1 MSTORE PUSH20 0xD689D29F7EA0C511F4DDE84171B10D34078BB17C SWAP1 PUSH4 0x2D67F0B9 SWAP1 PUSH1 0x44 ADD PUSH1 0x0 PUSH1 0x40 MLOAD DUP1 DUP4 SUB DUP2 PUSH1 0x0 DUP8 DUP1 EXTCODESIZE ISZERO DUP1 ISZERO PUSH2 0x2931 JUMPI PUSH1 0x0 DUP1 REVERT JUMPDEST POP GAS CALL ISZERO DUP1 ISZERO PUSH2 0x2945 JUMPI RETURNDATASIZE PUSH1 0x0 DUP1 RETURNDATACOPY RETURNDATASIZE PUSH1 0x0 REVERT JUMPDEST POP POP PUSH1 0x40 MLOAD PUSH4 0x69E38BC3 PUSH1 0xE0 SHL DUP2 MSTORE PUSH2 0xFFFF DUP6 AND PUSH1 0x4 DUP3 ADD MSTORE PUSH2 0x808 SWAP3 POP PUSH4 0x69E38BC3 SWAP2 POP PUSH1 0x24 ADD PUSH1 0x20 PUSH1 0x40 MLOAD DUP1 DUP4 SUB DUP2 DUP7 GAS STATICCALL ISZERO DUP1 ISZERO PUSH2 0x298A JUMPI RETURNDATASIZE PUSH1 0x0 DUP1 RETURNDATACOPY RETURNDATASIZE PUSH1 0x0 REVERT JUMPDEST POP POP POP POP PUSH1 0x40 MLOAD RETURNDATASIZE PUSH1 0x1F NOT PUSH1 0x1F DUP3 ADD AND DUP3 ADD DUP1 PUSH1 0x40 MSTORE POP DUP2 ADD SWAP1 PUSH2 0x29AE SWAP2 SWAP1 PUSH2 0x3A74 JUMP JUMPDEST PUSH1 0x1 DUP4 PUSH1 0x81 DUP2 LT PUSH2 0x29C1 JUMPI PUSH2 0x29C1 PUSH2 0x3A5E JUMP JUMPDEST ADD SSTORE JUMPDEST POP JUMPDEST POP PUSH1 0x1 ADD PUSH2 0x27F8 JUMP JUMPDEST POP POP POP POP POP POP POP POP POP POP JUMP JUMPDEST PUSH1 0x84 SLOAD PUSH1 0xFF AND ISZERO PUSH2 0x29FF JUMPI PUSH1 0x40 MLOAD PUSH4 0xA62BAEB7 PUSH1 0xE0 SHL DUP2 MSTORE PUSH1 0x4 ADD PUSH1 0x40 MLOAD DUP1 SWAP2 SUB SWAP1 REVERT JUMPDEST CALLER PUSH1 0x1 PUSH1 0x1 PUSH1 0xA0 SHL SUB PUSH32 0x0 AND EQ PUSH2 0x2A48 JUMPI PUSH1 0x40 MLOAD PUSH4 0x30CD7471 PUSH1 0xE0 SHL DUP2 MSTORE PUSH1 0x4 ADD PUSH1 0x40 MLOAD DUP1 SWAP2 SUB SWAP1 REVERT JUMPDEST PUSH1 0x1 PUSH1 0x1 PUSH1 0xA0 SHL SUB DUP3 AND PUSH2 0x2A6F JUMPI PUSH1 0x40 MLOAD PUSH4 0xE6C4247B PUSH1 0xE0 SHL DUP2 MSTORE PUSH1 0x4 ADD PUSH1 0x40 MLOAD DUP1 SWAP2 SUB SWAP1 REVERT JUMPDEST DUP1 PUSH1 0x0 SUB PUSH2 0x2A90 JUMPI PUSH1 0x40 MLOAD PUSH4 0x65E52D51 PUSH1 0xE1 SHL DUP2 MSTORE PUSH1 0x4 ADD PUSH1 0x40 MLOAD DUP1 SWAP2 SUB SWAP1 REVERT JUMPDEST PUSH8 0x14D1120D7B160000 DUP2 GT ISZERO PUSH2 0x2AB9 JUMPI PUSH1 0x40 MLOAD PUSH4 0x6250401 PUSH1 0xE0 SHL DUP2 MSTORE PUSH1 0x4 ADD PUSH1 0x40 MLOAD DUP1 SWAP2 SUB SWAP1 REVERT JUMPDEST PUSH2 0x5460 PUSH1 0x83 SLOAD PUSH2 0x2AC9 SWAP2 SWAP1 PUSH2 0x3ACD JUMP JUMPDEST TIMESTAMP LT ISZERO PUSH2 0x2AE9 JUMPI PUSH1 0x40 MLOAD PUSH4 0x34932EF PUSH1 0xE5 SHL DUP2 MSTORE PUSH1 0x4 ADD PUSH1 0x40 MLOAD DUP1 SWAP2 SUB SWAP1 REVERT JUMPDEST TIMESTAMP PUSH1 0x83 SSTORE PUSH1 0x40 MLOAD PUSH1 0x0 SWAP1 PUSH1 0x1 PUSH1 0x1 PUSH1 0xA0 SHL SUB DUP5 AND SWAP1 DUP4 SWAP1 DUP4 DUP2 DUP2 DUP2 DUP6 DUP8 GAS CALL SWAP3 POP POP POP RETURNDATASIZE DUP1 PUSH1 0x0 DUP2 EQ PUSH2 0x2B38 JUMPI PUSH1 0x40 MLOAD SWAP2 POP PUSH1 0x1F NOT PUSH1 0x3F RETURNDATASIZE ADD AND DUP3 ADD PUSH1 0x40 MSTORE RETURNDATASIZE DUP3 MSTORE RETURNDATASIZE PUSH1 0x0 PUSH1 0x20 DUP5 ADD RETURNDATACOPY PUSH2 0x2B3D JUMP JUMPDEST PUSH1 0x60 SWAP2 POP JUMPDEST POP POP SWAP1 POP DUP1 PUSH2 0x236A JUMPI PUSH1 0x40 MLOAD PUSH4 0x12171D83 PUSH1 0xE3 SHL DUP2 MSTORE PUSH1 0x4 ADD PUSH1 0x40 MLOAD DUP1 SWAP2 SUB SWAP1 REVERT JUMPDEST PUSH1 0x82 SLOAD PUSH1 0x1 PUSH1 0x1 PUSH1 0xA0 SHL SUB AND CALLER EQ PUSH2 0x2B8A JUMPI PUSH1 0x40 MLOAD PUSH4 0x2D99BC83 PUSH1 0xE2 SHL DUP2 MSTORE PUSH1 0x4 ADD PUSH1 0x40 MLOAD DUP1 SWAP2 SUB SWAP1 REVERT JUMPDEST PUSH1 0x84 DUP1 SLOAD PUSH1 0xFF NOT AND SWAP1 SSTORE JUMP JUMPDEST CALLER PUSH1 0x1 PUSH1 0x1 PUSH1 0xA0 SHL SUB PUSH32 0x0 AND EQ DUP1 ISZERO SWAP1 PUSH2 0x2BDA JUMPI POP PUSH1 0x82 SLOAD PUSH1 0x1 PUSH1 0x1 PUSH1 0xA0 SHL SUB AND CALLER EQ ISZERO JUMPDEST ISZERO PUSH2 0x2BF8 JUMPI PUSH1 0x40 MLOAD PUSH4 0xB4A87E7 PUSH1 0xE1 SHL DUP2 MSTORE PUSH1 0x4 ADD PUSH1 0x40 MLOAD DUP1 SWAP2 SUB SWAP1 REVERT JUMPDEST SELFBALANCE PUSH1 0x0 DUP2 SWAP1 SUB PUSH2 0x2C1B JUMPI PUSH1 0x40 MLOAD PUSH4 0x65E52D51 PUSH1 0xE1 SHL DUP2 MSTORE PUSH1 0x4 ADD PUSH1 0x40 MLOAD DUP1 SWAP2 SUB SWAP1 REVERT JUMPDEST PUSH2 0x805 PUSH4 0x1FC9B141 PUSH1 0x0 DUP1 MLOAD PUSH1 0x20 PUSH2 0x3C03 DUP4 CODECOPY DUP2 MLOAD SWAP2 MSTORE PUSH2 0x2C40 PUSH4 0x3B9ACA00 DUP6 PUSH2 0x3AF6 JUMP JUMPDEST PUSH1 0x40 MLOAD PUSH1 0x1 PUSH1 0x1 PUSH1 0xE0 SHL SUB NOT PUSH1 0xE0 DUP6 SWAP1 SHL AND DUP2 MSTORE PUSH1 0x4 DUP2 ADD SWAP3 SWAP1 SWAP3 MSTORE PUSH1 0x24 DUP3 ADD MSTORE PUSH1 0x0 PUSH1 0x44 DUP3 ADD MSTORE PUSH1 0x64 ADD PUSH2 0x15ED JUMP JUMPDEST PUSH1 0x82 SLOAD PUSH1 0x1 PUSH1 0x1 PUSH1 0xA0 SHL SUB AND CALLER EQ PUSH2 0x2C9B JUMPI PUSH1 0x40 MLOAD PUSH4 0x2D99BC83 PUSH1 0xE2 SHL DUP2 MSTORE PUSH1 0x4 ADD PUSH1 0x40 MLOAD DUP1 SWAP2 SUB SWAP1 REVERT JUMPDEST PUSH1 0x1 PUSH1 0x1 PUSH1 0xA0 SHL SUB DUP3 AND PUSH2 0x2CC2 JUMPI PUSH1 0x40 MLOAD PUSH4 0xE6C4247B PUSH1 0xE0 SHL DUP2 MSTORE PUSH1 0x4 ADD PUSH1 0x40 MLOAD DUP1 SWAP2 SUB SWAP1 REVERT JUMPDEST DUP1 PUSH2 0x2CE0 JUMPI PUSH1 0x40 MLOAD PUSH4 0x666B0C5D PUSH1 0xE0 SHL DUP2 MSTORE PUSH1 0x4 ADD PUSH1 0x40 MLOAD DUP1 SWAP2 SUB SWAP1 REVERT JUMPDEST PUSH1 0x40 MLOAD PUSH4 0xF4F1726B PUSH1 0xE0 SHL DUP2 MSTORE PUSH1 0x1 PUSH1 0x1 PUSH1 0xA0 SHL SUB DUP4 AND PUSH1 0x4 DUP3 ADD MSTORE PUSH1 0x24 DUP2 ADD DUP3 SWAP1 MSTORE PUSH20 0xD689D29F7EA0C511F4DDE84171B10D34078BB17C SWAP1 PUSH4 0xF4F1726B SWAP1 PUSH1 0x44 ADD PUSH1 0x0 PUSH1 0x40 MLOAD DUP1 DUP4 SUB DUP2 PUSH1 0x0 DUP8 DUP1 EXTCODESIZE ISZERO DUP1 ISZERO PUSH2 0x2D3C JUMPI PUSH1 0x0 DUP1 REVERT JUMPDEST POP GAS CALL ISZERO DUP1 ISZERO PUSH2 0x152F JUMPI RETURNDATASIZE PUSH1 0x0 DUP1 RETURNDATACOPY RETURNDATASIZE PUSH1 0x0 REVERT JUMPDEST PUSH1 0x84 SLOAD PUSH1 0xFF AND ISZERO PUSH2 0x2D74 JUMPI PUSH1 0x40 MLOAD PUSH4 0xA62BAEB7 PUSH1 0xE0 SHL DUP2 MSTORE PUSH1 0x4 ADD PUSH1 0x40 MLOAD DUP1 SWAP2 SUB SWAP1 REVERT JUMPDEST PUSH1 0x0 PUSH2 0xE10 PUSH2 0x2D86 PUSH3 0x15180 TIMESTAMP PUSH2 0x3B46 JUMP JUMPDEST PUSH2 0x2D90 SWAP2 SWAP1 PUSH2 0x3AF6 JUMP JUMPDEST SWAP1 POP PUSH1 0xE DUP2 LT DUP1 PUSH2 0x2DA2 JUMPI POP PUSH1 0x10 DUP2 LT ISZERO JUMPDEST ISZERO PUSH2 0x2DC0 JUMPI PUSH1 0x40 MLOAD PUSH4 0xCC1DE8D9 PUSH1 0xE0 SHL DUP2 MSTORE PUSH1 0x4 ADD PUSH1 0x40 MLOAD DUP1 SWAP2 SUB SWAP1 REVERT JUMPDEST PUSH1 0x82 SLOAD PUSH1 0x1 PUSH1 0x1 PUSH1 0xA0 SHL SUB AND CALLER EQ PUSH2 0x2DEB JUMPI PUSH1 0x40 MLOAD PUSH4 0x2D99BC83 PUSH1 0xE2 SHL DUP2 MSTORE PUSH1 0x4 ADD PUSH1 0x40 MLOAD DUP1 SWAP2 SUB SWAP1 REVERT JUMPDEST PUSH1 0x1 PUSH1 0x1 PUSH1 0xA0 SHL SUB DUP3 AND PUSH2 0x2E12 JUMPI PUSH1 0x40 MLOAD PUSH4 0xE6C4247B PUSH1 0xE0 SHL DUP2 MSTORE PUSH1 0x4 ADD PUSH1 0x40 MLOAD DUP1 SWAP2 SUB SWAP1 REVERT JUMPDEST SELFBALANCE PUSH1 0x0 DUP2 SWAP1 SUB PUSH2 0x2E35 JUMPI PUSH1 0x40 MLOAD PUSH4 0x65E52D51 PUSH1 0xE1 SHL DUP2 MSTORE PUSH1 0x4 ADD PUSH1 0x40 MLOAD DUP1 SWAP2 SUB SWAP1 REVERT JUMPDEST PUSH1 0x0 DUP4 PUSH1 0x1 PUSH1 0x1 PUSH1 0xA0 SHL SUB AND DUP3 PUSH1 0x40 MLOAD PUSH2 0x2080 JUMP JUMPDEST PUSH1 0x0 DUP1 DUP5 DUP2 JUMPDEST DUP2 DUP2 LT ISZERO PUSH2 0x2F14 JUMPI PUSH2 0x805 PUSH4 0xE3B598FA DUP10 DUP10 DUP5 DUP2 DUP2 LT PUSH2 0x2E72 JUMPI PUSH2 0x2E72 PUSH2 0x3A5E JUMP JUMPDEST SWAP1 POP PUSH1 0x20 MUL ADD CALLDATALOAD DUP9 DUP9 DUP6 DUP2 DUP2 LT PUSH2 0x2E8B JUMPI PUSH2 0x2E8B PUSH2 0x3A5E JUMP JUMPDEST PUSH1 0x40 MLOAD PUSH1 0x1 PUSH1 0x1 PUSH1 0xE0 SHL SUB NOT PUSH1 0xE0 DUP8 SWAP1 SHL AND DUP2 MSTORE PUSH1 0x4 DUP2 ADD SWAP5 SWAP1 SWAP5 MSTORE PUSH1 0x20 MUL SWAP2 SWAP1 SWAP2 ADD CALLDATALOAD PUSH1 0x24 DUP4 ADD MSTORE POP PUSH1 0x44 DUP2 ADD DUP13 SWAP1 MSTORE PUSH1 0x64 ADD PUSH1 0x20 PUSH1 0x40 MLOAD DUP1 DUP4 SUB DUP2 DUP7 GAS STATICCALL ISZERO DUP1 ISZERO PUSH2 0x2EDC JUMPI RETURNDATASIZE PUSH1 0x0 DUP1 RETURNDATACOPY RETURNDATASIZE PUSH1 0x0 REVERT JUMPDEST POP POP POP POP PUSH1 0x40 MLOAD RETURNDATASIZE PUSH1 0x1F NOT PUSH1 0x1F DUP3 ADD AND DUP3 ADD DUP1 PUSH1 0x40 MSTORE POP DUP2 ADD SWAP1 PUSH2 0x2F00 SWAP2 SWAP1 PUSH2 0x3A74 JUMP JUMPDEST PUSH2 0x2F0A SWAP1 DUP5 PUSH2 0x3ACD JUMP JUMPDEST SWAP3 POP PUSH1 0x1 ADD PUSH2 0x2E50 JUMP JUMPDEST POP SWAP1 SWAP8 SWAP7 POP POP POP POP POP POP POP JUMP JUMPDEST PUSH1 0x0 DUP4 DUP2 JUMPDEST DUP2 DUP2 LT ISZERO PUSH2 0x2FF0 JUMPI DUP8 PUSH2 0x805 PUSH4 0xE3B598FA DUP10 DUP10 DUP6 DUP2 DUP2 LT PUSH2 0x2F49 JUMPI PUSH2 0x2F49 PUSH2 0x3A5E JUMP JUMPDEST SWAP1 POP PUSH1 0x20 MUL ADD CALLDATALOAD DUP9 DUP9 DUP7 DUP2 DUP2 LT PUSH2 0x2F62 JUMPI PUSH2 0x2F62 PUSH2 0x3A5E JUMP JUMPDEST PUSH1 0x40 MLOAD PUSH1 0x1 PUSH1 0x1 PUSH1 0xE0 SHL SUB NOT PUSH1 0xE0 DUP8 SWAP1 SHL AND DUP2 MSTORE PUSH1 0x4 DUP2 ADD SWAP5 SWAP1 SWAP5 MSTORE PUSH1 0x20 MUL SWAP2 SWAP1 SWAP2 ADD CALLDATALOAD PUSH1 0x24 DUP4 ADD MSTORE POP PUSH1 0x44 DUP2 ADD DUP14 SWAP1 MSTORE PUSH1 0x64 ADD PUSH1 0x20 PUSH1 0x40 MLOAD DUP1 DUP4 SUB DUP2 DUP7 GAS STATICCALL ISZERO DUP1 ISZERO PUSH2 0x2FB3 JUMPI RETURNDATASIZE PUSH1 0x0 DUP1 RETURNDATACOPY RETURNDATASIZE PUSH1 0x0 REVERT JUMPDEST POP POP POP POP PUSH1 0x40 MLOAD RETURNDATASIZE PUSH1 0x1F NOT PUSH1 0x1F DUP3 ADD AND DUP3 ADD DUP1 PUSH1 0x40 MSTORE POP DUP2 ADD SWAP1 PUSH2 0x2FD7 SWAP2 SWAP1 PUSH2 0x3A74 JUMP JUMPDEST GT ISZERO PUSH2 0x2FE8 JUMPI PUSH1 0x1 SWAP3 POP POP POP PUSH2 0x2FF7 JUMP JUMPDEST PUSH1 0x1 ADD PUSH2 0x2F26 JUMP JUMPDEST POP PUSH1 0x0 SWAP2 POP POP JUMPDEST SWAP7 SWAP6 POP POP POP POP POP POP JUMP JUMPDEST PUSH2 0x3009 PUSH2 0x347D JUMP JUMPDEST PUSH1 0x0 JUMPDEST PUSH1 0x81 PUSH2 0xFFFF DUP3 AND LT ISZERO PUSH2 0x30A1 JUMPI PUSH1 0x40 MLOAD PUSH4 0x69E38BC3 PUSH1 0xE0 SHL DUP2 MSTORE PUSH2 0xFFFF DUP3 AND PUSH1 0x4 DUP3 ADD MSTORE PUSH2 0x808 SWAP1 PUSH4 0x69E38BC3 SWAP1 PUSH1 0x24 ADD PUSH1 0x20 PUSH1 0x40 MLOAD DUP1 DUP4 SUB DUP2 DUP7 GAS STATICCALL SWAP3 POP POP POP DUP1 ISZERO PUSH2 0x3076 JUMPI POP PUSH1 0x40 DUP1 MLOAD PUSH1 0x1F RETURNDATASIZE SWAP1 DUP2 ADD PUSH1 0x1F NOT AND DUP3 ADD SWAP1 SWAP3 MSTORE PUSH2 0x3073 SWAP2 DUP2 ADD SWAP1 PUSH2 0x3A74 JUMP JUMPDEST PUSH1 0x1 JUMPDEST ISZERO PUSH2 0x3099 JUMPI DUP1 DUP4 DUP4 PUSH2 0xFFFF AND PUSH1 0x81 DUP2 LT PUSH2 0x3092 JUMPI PUSH2 0x3092 PUSH2 0x3A5E JUMP JUMPDEST PUSH1 0x20 MUL ADD MSTORE POP JUMPDEST PUSH1 0x1 ADD PUSH2 0x300C JUMP JUMPDEST POP SWAP1 JUMP JUMPDEST PUSH2 0x30AD PUSH2 0x347D JUMP JUMPDEST PUSH1 0x0 JUMPDEST PUSH1 0x81 PUSH2 0xFFFF DUP3 AND LT ISZERO PUSH2 0x30A1 JUMPI PUSH1 0x40 MLOAD PUSH4 0x2D9BFC71 PUSH1 0xE0 SHL DUP2 MSTORE PUSH2 0xFFFF DUP3 AND PUSH1 0x4 DUP3 ADD MSTORE PUSH2 0x808 SWAP1 PUSH4 0x2D9BFC71 SWAP1 PUSH1 0x24 ADD PUSH1 0x20 PUSH1 0x40 MLOAD DUP1 DUP4 SUB DUP2 DUP7 GAS STATICCALL SWAP3 POP POP POP DUP1 ISZERO PUSH2 0x311A JUMPI POP PUSH1 0x40 DUP1 MLOAD PUSH1 0x1F RETURNDATASIZE SWAP1 DUP2 ADD PUSH1 0x1F NOT AND DUP3 ADD SWAP1 SWAP3 MSTORE PUSH2 0x3117 SWAP2 DUP2 ADD SWAP1 PUSH2 0x3B5A JUMP JUMPDEST PUSH1 0x1 JUMPDEST ISZERO PUSH2 0x314C JUMPI DUP1 DUP4 DUP4 PUSH2 0xFFFF AND PUSH1 0x81 DUP2 LT PUSH2 0x3136 JUMPI PUSH2 0x3136 PUSH2 0x3A5E JUMP JUMPDEST PUSH8 0xFFFFFFFFFFFFFFFF SWAP1 SWAP3 AND PUSH1 0x20 SWAP3 SWAP1 SWAP3 MUL ADD MSTORE POP JUMPDEST PUSH1 0x1 ADD PUSH2 0x30B0 JUMP JUMPDEST PUSH2 0x315C PUSH2 0x347D JUMP JUMPDEST PUSH1 0x0 JUMPDEST PUSH1 0x81 PUSH2 0xFFFF DUP3 AND LT ISZERO PUSH2 0x30A1 JUMPI PUSH1 0x40 MLOAD PUSH4 0xC2BA9E87 PUSH1 0xE0 SHL DUP2 MSTORE PUSH2 0xFFFF DUP3 AND PUSH1 0x4 DUP3 ADD MSTORE PUSH2 0x808 SWAP1 PUSH4 0xC2BA9E87 SWAP1 PUSH1 0x24 ADD PUSH1 0x20 PUSH1 0x40 MLOAD DUP1 DUP4 SUB DUP2 DUP7 GAS STATICCALL SWAP3 POP POP POP DUP1 ISZERO PUSH2 0x31C9 JUMPI POP PUSH1 0x40 DUP1 MLOAD PUSH1 0x1F RETURNDATASIZE SWAP1 DUP2 ADD PUSH1 0x1F NOT AND DUP3 ADD SWAP1 SWAP3 MSTORE PUSH2 0x31C6 SWAP2 DUP2 ADD SWAP1 PUSH2 0x3B5A JUMP JUMPDEST PUSH1 0x1 JUMPDEST ISZERO PUSH2 0x31FB JUMPI DUP1 DUP4 DUP4 PUSH2 0xFFFF AND PUSH1 0x81 DUP2 LT PUSH2 0x31E5 JUMPI PUSH2 0x31E5 PUSH2 0x3A5E JUMP JUMPDEST PUSH8 0xFFFFFFFFFFFFFFFF SWAP1 SWAP3 AND PUSH1 0x20 SWAP3 SWAP1 SWAP3 MUL ADD MSTORE POP JUMPDEST PUSH1 0x1 ADD PUSH2 0x315F JUMP JUMPDEST PUSH2 0x320B PUSH2 0x347D JUMP JUMPDEST PUSH1 0x1 JUMPDEST PUSH1 0x81 DUP2 LT ISZERO PUSH2 0x32A6 JUMPI PUSH1 0x40 MLOAD PUSH4 0x71DACC7D PUSH1 0xE1 SHL DUP2 MSTORE PUSH1 0x4 DUP2 ADD DUP6 SWAP1 MSTORE PUSH1 0x24 DUP2 ADD DUP5 SWAP1 MSTORE PUSH1 0x44 DUP2 ADD DUP3 SWAP1 MSTORE PUSH2 0x805 SWAP1 PUSH4 0xE3B598FA SWAP1 PUSH1 0x64 ADD PUSH1 0x20 PUSH1 0x40 MLOAD DUP1 DUP4 SUB DUP2 DUP7 GAS STATICCALL ISZERO DUP1 ISZERO PUSH2 0x3263 JUMPI RETURNDATASIZE PUSH1 0x0 DUP1 RETURNDATACOPY RETURNDATASIZE PUSH1 0x0 REVERT JUMPDEST POP POP POP POP PUSH1 0x40 MLOAD RETURNDATASIZE PUSH1 0x1F NOT PUSH1 0x1F DUP3 ADD AND DUP3 ADD DUP1 PUSH1 0x40 MSTORE POP DUP2 ADD SWAP1 PUSH2 0x3287 SWAP2 SWAP1 PUSH2 0x3A74 JUMP JUMPDEST DUP3 DUP3 PUSH1 0x81 DUP2 LT PUSH2 0x3299 JUMPI PUSH2 0x3299 PUSH2 0x3A5E JUMP JUMPDEST PUSH1 0x20 MUL ADD MSTORE PUSH1 0x1 ADD PUSH2 0x320E JUMP JUMPDEST POP SWAP3 SWAP2 POP POP JUMP JUMPDEST PUSH1 0x0 DUP1 SLOAD PUSH1 0x60 SWAP2 SWAP1 DUP1 PUSH8 0xFFFFFFFFFFFFFFFF DUP2 GT ISZERO PUSH2 0x32CE JUMPI PUSH2 0x32CE PUSH2 0x3A48 JUMP JUMPDEST PUSH1 0x40 MLOAD SWAP1 DUP1 DUP3 MSTORE DUP1 PUSH1 0x20 MUL PUSH1 0x20 ADD DUP3 ADD PUSH1 0x40 MSTORE DUP1 ISZERO PUSH2 0x32F7 JUMPI DUP2 PUSH1 0x20 ADD PUSH1 0x20 DUP3 MUL DUP1 CALLDATASIZE DUP4 CALLDATACOPY ADD SWAP1 POP JUMPDEST POP SWAP3 POP PUSH1 0x0 JUMPDEST DUP2 DUP2 LT ISZERO PUSH2 0x3357 JUMPI DUP3 DUP2 DUP2 SLOAD DUP2 LT PUSH2 0x3317 JUMPI PUSH2 0x3317 PUSH2 0x3A5E JUMP JUMPDEST PUSH1 0x0 SWAP2 DUP3 MSTORE PUSH1 0x20 SWAP1 SWAP2 KECCAK256 ADD SLOAD DUP5 MLOAD PUSH1 0x1 PUSH1 0x1 PUSH1 0xA0 SHL SUB SWAP1 SWAP2 AND BALANCE SWAP1 DUP6 SWAP1 DUP4 SWAP1 DUP2 LT PUSH2 0x3344 JUMPI PUSH2 0x3344 PUSH2 0x3A5E JUMP JUMPDEST PUSH1 0x20 SWAP1 DUP2 MUL SWAP2 SWAP1 SWAP2 ADD ADD MSTORE PUSH1 0x1 ADD PUSH2 0x32FD JUMP JUMPDEST POP POP POP SWAP1 JUMP JUMPDEST PUSH1 0x60 PUSH1 0x5 PUSH1 0x4 PUSH2 0x338D DUP6 PUSH1 0x40 DUP1 MLOAD PUSH1 0x0 PUSH1 0x20 DUP3 ADD MSTORE PUSH1 0x21 DUP1 DUP3 ADD SWAP4 SWAP1 SWAP4 MSTORE DUP2 MLOAD DUP1 DUP3 SUB SWAP1 SWAP4 ADD DUP4 MSTORE PUSH1 0x41 ADD SWAP1 MSTORE SWAP1 JUMP JUMPDEST DUP5 PUSH2 0x3399 JUMPI PUSH1 0x0 PUSH2 0x339F JUMP JUMPDEST PUSH1 0x1 PUSH1 0xF8 SHL JUMPDEST PUSH1 0x40 MLOAD PUSH1 0x20 ADD PUSH2 0x33B2 SWAP5 SWAP4 SWAP3 SWAP2 SWAP1 PUSH2 0x3B84 JUMP JUMPDEST PUSH1 0x40 MLOAD PUSH1 0x20 DUP2 DUP4 SUB SUB DUP2 MSTORE SWAP1 PUSH1 0x40 MSTORE SWAP1 POP JUMPDEST SWAP3 SWAP2 POP POP JUMP JUMPDEST PUSH1 0x60 PUSH1 0x10 PUSH1 0x0 PUSH2 0x33FA DUP8 PUSH1 0x40 DUP1 MLOAD PUSH1 0x0 PUSH1 0x20 DUP3 ADD MSTORE PUSH1 0x21 DUP1 DUP3 ADD SWAP4 SWAP1 SWAP4 MSTORE DUP2 MLOAD DUP1 DUP3 SUB SWAP1 SWAP4 ADD DUP4 MSTORE PUSH1 0x41 ADD SWAP1 MSTORE SWAP1 JUMP JUMPDEST PUSH2 0x3404 DUP8 DUP8 PUSH2 0x3432 JUMP JUMPDEST DUP6 PUSH1 0x40 MLOAD PUSH1 0x20 ADD PUSH2 0x3419 SWAP6 SWAP5 SWAP4 SWAP3 SWAP2 SWAP1 PUSH2 0x3BBB JUMP JUMPDEST PUSH1 0x40 MLOAD PUSH1 0x20 DUP2 DUP4 SUB SUB DUP2 MSTORE SWAP1 PUSH1 0x40 MSTORE SWAP1 POP SWAP5 SWAP4 POP POP POP POP JUMP JUMPDEST PUSH1 0x60 DUP3 PUSH2 0x3454 JUMPI POP PUSH1 0x40 DUP1 MLOAD DUP1 DUP3 ADD SWAP1 SWAP2 MSTORE PUSH1 0x1 DUP2 MSTORE PUSH1 0x0 PUSH1 0x20 DUP3 ADD MSTORE PUSH2 0x33C4 JUMP JUMPDEST PUSH1 0x40 MLOAD PUSH1 0x1 PUSH1 0xF8 SHL PUSH1 0x20 DUP3 ADD MSTORE PUSH1 0xF8 DUP4 SWAP1 SHL PUSH1 0x1 PUSH1 0x1 PUSH1 0xF8 SHL SUB NOT AND PUSH1 0x21 DUP3 ADD MSTORE PUSH1 0x22 ADD PUSH2 0x33B2 JUMP JUMPDEST PUSH1 0x40 MLOAD DUP1 PUSH2 0x1020 ADD PUSH1 0x40 MSTORE DUP1 PUSH1 0x81 SWAP1 PUSH1 0x20 DUP3 MUL DUP1 CALLDATASIZE DUP4 CALLDATACOPY POP SWAP2 SWAP3 SWAP2 POP POP JUMP JUMPDEST DUP3 DUP1 SLOAD DUP3 DUP3 SSTORE SWAP1 PUSH1 0x0 MSTORE PUSH1 0x20 PUSH1 0x0 KECCAK256 SWAP1 DUP2 ADD SWAP3 DUP3 ISZERO PUSH2 0x34EF JUMPI SWAP2 PUSH1 0x20 MUL DUP3 ADD JUMPDEST DUP3 DUP2 GT ISZERO PUSH2 0x34EF JUMPI DUP2 SLOAD PUSH1 0x1 PUSH1 0x1 PUSH1 0xA0 SHL SUB NOT AND PUSH1 0x1 PUSH1 0x1 PUSH1 0xA0 SHL SUB DUP5 CALLDATALOAD AND OR DUP3 SSTORE PUSH1 0x20 SWAP1 SWAP3 ADD SWAP2 PUSH1 0x1 SWAP1 SWAP2 ADD SWAP1 PUSH2 0x34BC JUMP JUMPDEST POP PUSH2 0x30A1 SWAP3 SWAP2 POP JUMPDEST DUP1 DUP3 GT ISZERO PUSH2 0x30A1 JUMPI PUSH1 0x0 DUP2 SSTORE PUSH1 0x1 ADD PUSH2 0x34F7 JUMP JUMPDEST PUSH1 0x0 DUP1 DUP4 PUSH1 0x1F DUP5 ADD SLT PUSH2 0x351D JUMPI PUSH1 0x0 DUP1 REVERT JUMPDEST POP DUP2 CALLDATALOAD PUSH8 0xFFFFFFFFFFFFFFFF DUP2 GT ISZERO PUSH2 0x3535 JUMPI PUSH1 0x0 DUP1 REVERT JUMPDEST PUSH1 0x20 DUP4 ADD SWAP2 POP DUP4 PUSH1 0x20 DUP3 PUSH1 0x5 SHL DUP6 ADD ADD GT ISZERO PUSH2 0x3550 JUMPI PUSH1 0x0 DUP1 REVERT JUMPDEST SWAP3 POP SWAP3 SWAP1 POP JUMP JUMPDEST PUSH1 0x0 DUP1 PUSH1 0x0 DUP1 PUSH1 0x0 DUP1 PUSH1 0x60 DUP8 DUP10 SUB SLT ISZERO PUSH2 0x3570 JUMPI PUSH1 0x0 DUP1 REVERT JUMPDEST DUP7 CALLDATALOAD PUSH8 0xFFFFFFFFFFFFFFFF DUP1 DUP3 GT ISZERO PUSH2 0x3588 JUMPI PUSH1 0x0 DUP1 REVERT JUMPDEST PUSH2 0x3594 DUP11 DUP4 DUP12 ADD PUSH2 0x350B JUMP JUMPDEST SWAP1 SWAP9 POP SWAP7 POP PUSH1 0x20 DUP10 ADD CALLDATALOAD SWAP2 POP DUP1 DUP3 GT ISZERO PUSH2 0x35AD JUMPI PUSH1 0x0 DUP1 REVERT JUMPDEST PUSH2 0x35B9 DUP11 DUP4 DUP12 ADD PUSH2 0x350B JUMP JUMPDEST SWAP1 SWAP7 POP SWAP5 POP PUSH1 0x40 DUP10 ADD CALLDATALOAD SWAP2 POP DUP1 DUP3 GT ISZERO PUSH2 0x35D2 JUMPI PUSH1 0x0 DUP1 REVERT JUMPDEST POP PUSH2 0x35DF DUP10 DUP3 DUP11 ADD PUSH2 0x350B JUMP JUMPDEST SWAP8 SWAP11 SWAP7 SWAP10 POP SWAP5 SWAP8 POP SWAP3 SWAP6 SWAP4 SWAP5 SWAP3 POP POP POP JUMP JUMPDEST PUSH1 0x0 DUP2 MLOAD DUP1 DUP5 MSTORE PUSH1 0x20 DUP1 DUP6 ADD SWAP5 POP PUSH1 0x20 DUP5 ADD PUSH1 0x0 JUMPDEST DUP4 DUP2 LT ISZERO PUSH2 0x3622 JUMPI DUP2 MLOAD DUP8 MSTORE SWAP6 DUP3 ADD SWAP6 SWAP1 DUP3 ADD SWAP1 PUSH1 0x1 ADD PUSH2 0x3606 JUMP JUMPDEST POP SWAP5 SWAP6 SWAP5 POP POP POP POP POP JUMP JUMPDEST PUSH1 0x20 DUP2 MSTORE PUSH1 0x0 PUSH2 0x3640 PUSH1 0x20 DUP4 ADD DUP5 PUSH2 0x35F1 JUMP JUMPDEST SWAP4 SWAP3 POP POP POP JUMP JUMPDEST DUP1 CALLDATALOAD PUSH1 0x1 PUSH1 0x1 PUSH1 0xA0 SHL SUB DUP2 AND DUP2 EQ PUSH2 0x365E JUMPI PUSH1 0x0 DUP1 REVERT JUMPDEST SWAP2 SWAP1 POP JUMP JUMPDEST PUSH1 0x0 PUSH1 0x20 DUP3 DUP5 SUB SLT ISZERO PUSH2 0x3675 JUMPI PUSH1 0x0 DUP1 REVERT JUMPDEST PUSH2 0x3640 DUP3 PUSH2 0x3647 JUMP JUMPDEST DUP1 CALLDATALOAD DUP1 ISZERO ISZERO DUP2 EQ PUSH2 0x365E JUMPI PUSH1 0x0 DUP1 REVERT JUMPDEST PUSH1 0x0 DUP1 PUSH1 0x0 DUP1 PUSH1 0x0 DUP1 PUSH1 0x0 DUP1 PUSH1 0x0 DUP1 PUSH1 0x0 PUSH1 0xC0 DUP13 DUP15 SUB SLT ISZERO PUSH2 0x36AF JUMPI PUSH1 0x0 DUP1 REVERT JUMPDEST PUSH8 0xFFFFFFFFFFFFFFFF DUP1 DUP14 CALLDATALOAD GT ISZERO PUSH2 0x36C6 JUMPI PUSH1 0x0 DUP1 REVERT JUMPDEST PUSH2 0x36D3 DUP15 DUP15 CALLDATALOAD DUP16 ADD PUSH2 0x350B JUMP JUMPDEST SWAP1 SWAP13 POP SWAP11 POP PUSH1 0x20 DUP14 ADD CALLDATALOAD DUP2 LT ISZERO PUSH2 0x36E9 JUMPI PUSH1 0x0 DUP1 REVERT JUMPDEST PUSH2 0x36F9 DUP15 PUSH1 0x20 DUP16 ADD CALLDATALOAD DUP16 ADD PUSH2 0x350B JUMP JUMPDEST SWAP1 SWAP11 POP SWAP9 POP PUSH1 0x40 DUP14 ADD CALLDATALOAD DUP2 LT ISZERO PUSH2 0x370F JUMPI PUSH1 0x0 DUP1 REVERT JUMPDEST PUSH2 0x371F DUP15 PUSH1 0x40 DUP16 ADD CALLDATALOAD DUP16 ADD PUSH2 0x350B JUMP JUMPDEST SWAP1 SWAP9 POP SWAP7 POP PUSH1 0x60 DUP14 ADD CALLDATALOAD DUP2 LT ISZERO PUSH2 0x3735 JUMPI PUSH1 0x0 DUP1 REVERT JUMPDEST PUSH2 0x3745 DUP15 PUSH1 0x60 DUP16 ADD CALLDATALOAD DUP16 ADD PUSH2 0x350B JUMP JUMPDEST SWAP1 SWAP7 POP SWAP5 POP PUSH1 0x80 DUP14 ADD CALLDATALOAD DUP2 LT ISZERO PUSH2 0x375B JUMPI PUSH1 0x0 DUP1 REVERT JUMPDEST POP PUSH2 0x376C DUP14 PUSH1 0x80 DUP15 ADD CALLDATALOAD DUP15 ADD PUSH2 0x350B JUMP JUMPDEST SWAP1 SWAP4 POP SWAP2 POP PUSH2 0x377D PUSH1 0xA0 DUP14 ADD PUSH2 0x367E JUMP JUMPDEST SWAP1 POP SWAP3 SWAP6 SWAP9 SWAP12 POP SWAP3 SWAP6 SWAP9 SWAP12 SWAP1 SWAP4 SWAP7 SWAP10 POP JUMP JUMPDEST PUSH1 0x0 DUP1 PUSH1 0x0 DUP1 PUSH1 0x40 DUP6 DUP8 SUB SLT ISZERO PUSH2 0x37A5 JUMPI PUSH1 0x0 DUP1 REVERT JUMPDEST DUP5 CALLDATALOAD PUSH8 0xFFFFFFFFFFFFFFFF DUP1 DUP3 GT ISZERO PUSH2 0x37BD JUMPI PUSH1 0x0 DUP1 REVERT JUMPDEST PUSH2 0x37C9 DUP9 DUP4 DUP10 ADD PUSH2 0x350B JUMP JUMPDEST SWAP1 SWAP7 POP SWAP5 POP PUSH1 0x20 DUP8 ADD CALLDATALOAD SWAP2 POP DUP1 DUP3 GT ISZERO PUSH2 0x37E2 JUMPI PUSH1 0x0 DUP1 REVERT JUMPDEST POP PUSH2 0x37EF DUP8 DUP3 DUP9 ADD PUSH2 0x350B JUMP JUMPDEST SWAP6 SWAP9 SWAP5 SWAP8 POP SWAP6 POP POP POP POP JUMP JUMPDEST DUP1 PUSH1 0x0 JUMPDEST PUSH1 0x81 DUP2 LT ISZERO PUSH2 0x20E4 JUMPI DUP2 MLOAD DUP5 MSTORE PUSH1 0x20 SWAP4 DUP5 ADD SWAP4 SWAP1 SWAP2 ADD SWAP1 PUSH1 0x1 ADD PUSH2 0x37FF JUMP JUMPDEST PUSH2 0x1020 DUP2 ADD PUSH2 0x33C4 DUP3 DUP5 PUSH2 0x37FB JUMP JUMPDEST DUP1 PUSH1 0x0 JUMPDEST PUSH1 0x81 DUP2 LT ISZERO PUSH2 0x20E4 JUMPI DUP2 MLOAD PUSH8 0xFFFFFFFFFFFFFFFF AND DUP5 MSTORE PUSH1 0x20 SWAP4 DUP5 ADD SWAP4 SWAP1 SWAP2 ADD SWAP1 PUSH1 0x1 ADD PUSH2 0x3831 JUMP JUMPDEST PUSH1 0x0 PUSH2 0x5100 PUSH2 0x3869 DUP4 DUP13 PUSH2 0x37FB JUMP JUMPDEST PUSH2 0x3877 PUSH2 0x1020 DUP5 ADD DUP12 PUSH2 0x382D JUMP JUMPDEST PUSH2 0x3885 PUSH2 0x2040 DUP5 ADD DUP11 PUSH2 0x382D JUMP JUMPDEST PUSH2 0x3893 PUSH2 0x3060 DUP5 ADD DUP10 PUSH2 0x37FB JUMP JUMPDEST PUSH2 0x38A1 PUSH2 0x4080 DUP5 ADD DUP9 PUSH2 0x37FB JUMP JUMPDEST DUP1 PUSH2 0x50A0 DUP5 ADD MSTORE PUSH2 0x38B4 DUP2 DUP5 ADD DUP8 PUSH2 0x35F1 JUMP JUMPDEST PUSH2 0x50C0 DUP5 ADD SWAP6 SWAP1 SWAP6 MSTORE POP POP PUSH2 0x50E0 ADD MSTORE SWAP7 SWAP6 POP POP POP POP POP POP JUMP JUMPDEST PUSH1 0x0 PUSH1 0x20 DUP3 DUP5 SUB SLT ISZERO PUSH2 0x38E0 JUMPI PUSH1 0x0 DUP1 REVERT JUMPDEST POP CALLDATALOAD SWAP2 SWAP1 POP JUMP JUMPDEST PUSH1 0x0 DUP1 PUSH1 0x40 DUP4 DUP6 SUB SLT ISZERO PUSH2 0x38FA JUMPI PUSH1 0x0 DUP1 REVERT JUMPDEST PUSH2 0x3903 DUP4 PUSH2 0x3647 JUMP JUMPDEST SWAP5 PUSH1 0x20 SWAP4 SWAP1 SWAP4 ADD CALLDATALOAD SWAP4 POP POP POP JUMP JUMPDEST PUSH1 0x0 DUP1 PUSH1 0x20 DUP4 DUP6 SUB SLT ISZERO PUSH2 0x3924 JUMPI PUSH1 0x0 DUP1 REVERT JUMPDEST DUP3 CALLDATALOAD PUSH8 0xFFFFFFFFFFFFFFFF DUP2 GT ISZERO PUSH2 0x393B JUMPI PUSH1 0x0 DUP1 REVERT JUMPDEST PUSH2 0x3947 DUP6 DUP3 DUP7 ADD PUSH2 0x350B JUMP JUMPDEST SWAP1 SWAP7 SWAP1 SWAP6 POP SWAP4 POP POP POP POP JUMP JUMPDEST PUSH2 0x1020 DUP2 ADD PUSH2 0x33C4 DUP3 DUP5 PUSH2 0x382D JUMP JUMPDEST PUSH1 0x0 DUP1 PUSH1 0x40 DUP4 DUP6 SUB SLT ISZERO PUSH2 0x3975 JUMPI PUSH1 0x0 DUP1 REVERT JUMPDEST POP POP DUP1 CALLDATALOAD SWAP3 PUSH1 0x20 SWAP1 SWAP2 ADD CALLDATALOAD SWAP2 POP JUMP JUMPDEST PUSH1 0x0 DUP1 PUSH1 0x0 DUP1 PUSH1 0x0 DUP1 PUSH1 0x0 DUP1 PUSH1 0x80 DUP10 DUP12 SUB SLT ISZERO PUSH2 0x39A0 JUMPI PUSH1 0x0 DUP1 REVERT JUMPDEST DUP9 CALLDATALOAD PUSH8 0xFFFFFFFFFFFFFFFF DUP1 DUP3 GT ISZERO PUSH2 0x39B8 JUMPI PUSH1 0x0 DUP1 REVERT JUMPDEST PUSH2 0x39C4 DUP13 DUP4 DUP14 ADD PUSH2 0x350B JUMP JUMPDEST SWAP1 SWAP11 POP SWAP9 POP PUSH1 0x20 DUP12 ADD CALLDATALOAD SWAP2 POP DUP1 DUP3 GT ISZERO PUSH2 0x39DD JUMPI PUSH1 0x0 DUP1 REVERT JUMPDEST PUSH2 0x39E9 DUP13 DUP4 DUP14 ADD PUSH2 0x350B JUMP JUMPDEST SWAP1 SWAP9 POP SWAP7 POP PUSH1 0x40 DUP12 ADD CALLDATALOAD SWAP2 POP DUP1 DUP3 GT ISZERO PUSH2 0x3A02 JUMPI PUSH1 0x0 DUP1 REVERT JUMPDEST PUSH2 0x3A0E DUP13 DUP4 DUP14 ADD PUSH2 0x350B JUMP JUMPDEST SWAP1 SWAP7 POP SWAP5 POP PUSH1 0x60 DUP12 ADD CALLDATALOAD SWAP2 POP DUP1 DUP3 GT ISZERO PUSH2 0x3A27 JUMPI PUSH1 0x0 DUP1 REVERT JUMPDEST POP PUSH2 0x3A34 DUP12 DUP3 DUP13 ADD PUSH2 0x350B JUMP JUMPDEST SWAP10 SWAP13 SWAP9 SWAP12 POP SWAP7 SWAP10 POP SWAP5 SWAP8 SWAP4 SWAP7 SWAP3 SWAP6 SWAP5 POP POP POP JUMP JUMPDEST PUSH4 0x4E487B71 PUSH1 0xE0 SHL PUSH1 0x0 MSTORE PUSH1 0x41 PUSH1 0x4 MSTORE PUSH1 0x24 PUSH1 0x0 REVERT JUMPDEST PUSH4 0x4E487B71 PUSH1 0xE0 SHL PUSH1 0x0 MSTORE PUSH1 0x32 PUSH1 0x4 MSTORE PUSH1 0x24 PUSH1 0x0 REVERT JUMPDEST PUSH1 0x0 PUSH1 0x20 DUP3 DUP5 SUB SLT ISZERO PUSH2 0x3A86 JUMPI PUSH1 0x0 DUP1 REVERT JUMPDEST POP MLOAD SWAP2 SWAP1 POP JUMP JUMPDEST PUSH4 0x4E487B71 PUSH1 0xE0 SHL PUSH1 0x0 MSTORE PUSH1 0x11 PUSH1 0x4 MSTORE PUSH1 0x24 PUSH1 0x0 REVERT JUMPDEST DUP2 DUP2 SUB DUP2 DUP2 GT ISZERO PUSH2 0x33C4 JUMPI PUSH2 0x33C4 PUSH2 0x3A8D JUMP JUMPDEST DUP1 DUP3 MUL DUP2 ISZERO DUP3 DUP3 DIV DUP5 EQ OR PUSH2 0x33C4 JUMPI PUSH2 0x33C4 PUSH2 0x3A8D JUMP JUMPDEST DUP1 DUP3 ADD DUP1 DUP3 GT ISZERO PUSH2 0x33C4 JUMPI PUSH2 0x33C4 PUSH2 0x3A8D JUMP JUMPDEST PUSH4 0x4E487B71 PUSH1 0xE0 SHL PUSH1 0x0 MSTORE PUSH1 0x12 PUSH1 0x4 MSTORE PUSH1 0x24 PUSH1 0x0 REVERT JUMPDEST PUSH1 0x0 DUP3 PUSH2 0x3B05 JUMPI PUSH2 0x3B05 PUSH2 0x3AE0 JUMP JUMPDEST POP DIV SWAP1 JUMP JUMPDEST PUSH1 0x0 DUP2 MLOAD PUSH1 0x0 JUMPDEST DUP2 DUP2 LT ISZERO PUSH2 0x3B2B JUMPI PUSH1 0x20 DUP2 DUP6 ADD DUP2 ADD MLOAD DUP7 DUP4 ADD MSTORE ADD PUSH2 0x3B11 JUMP JUMPDEST POP PUSH1 0x0 SWAP4 ADD SWAP3 DUP4 MSTORE POP SWAP1 SWAP2 SWAP1 POP JUMP JUMPDEST PUSH1 0x0 PUSH2 0x3640 DUP3 DUP5 PUSH2 0x3B0A JUMP JUMPDEST PUSH1 0x0 DUP3 PUSH2 0x3B55 JUMPI PUSH2 0x3B55 PUSH2 0x3AE0 JUMP JUMPDEST POP MOD SWAP1 JUMP JUMPDEST PUSH1 0x0 PUSH1 0x20 DUP3 DUP5 SUB SLT ISZERO PUSH2 0x3B6C JUMPI PUSH1 0x0 DUP1 REVERT JUMPDEST DUP2 MLOAD PUSH8 0xFFFFFFFFFFFFFFFF DUP2 AND DUP2 EQ PUSH2 0x3640 JUMPI PUSH1 0x0 DUP1 REVERT JUMPDEST PUSH1 0x0 PUSH1 0xFF PUSH1 0xF8 SHL DUP1 DUP8 PUSH1 0xF8 SHL AND DUP4 MSTORE DUP1 DUP7 PUSH1 0xF8 SHL AND PUSH1 0x1 DUP5 ADD MSTORE PUSH2 0x3BAB PUSH1 0x2 DUP5 ADD DUP7 PUSH2 0x3B0A JUMP JUMPDEST SWAP4 AND DUP4 MSTORE POP POP PUSH1 0x1 ADD SWAP4 SWAP3 POP POP POP JUMP JUMPDEST PUSH1 0x1 PUSH1 0x1 PUSH1 0xF8 SHL SUB NOT PUSH1 0xF8 DUP8 DUP2 SHL DUP3 AND DUP4 MSTORE DUP7 SWAP1 SHL AND PUSH1 0x1 DUP3 ADD MSTORE PUSH1 0x0 PUSH2 0x3BF7 PUSH2 0x3BF1 PUSH2 0x3BEB PUSH1 0x2 DUP6 ADD DUP9 PUSH2 0x3B0A JUMP JUMPDEST DUP7 PUSH2 0x3B0A JUMP JUMPDEST DUP5 PUSH2 0x3B0A JUMP JUMPDEST SWAP8 SWAP7 POP POP POP POP POP POP POP JUMP INVALID 0xB4 0xC0 DUP8 GT SWAP1 SWAP8 0xFB 0xE3 SWAP9 MSTORE SWAP9 0xEE CREATE2 0x2F CALLDATALOAD 0xEF PUSH3 0x71C483 0x22 0xA8 0xC2 0xD4 ADDRESS SWAP1 0x2A SWAP13 0xC3 DUP14 SWAP5 PUSH20 0x5BC73267F9990B1554109DC41E624A7DAB56B112 DUP16 0x1E CALLCODE 0xF6 0x2F PUSH4 0x14294C03 DUP16 SWAP14 LOG2 PUSH5 0x6970667358 0x22 SLT KECCAK256 JUMPDEST PUSH25 0x20F64CDE268A6884CAD69D49B0020BFF10FE058CD50B3C3213 PUSH11 0x86ACEC9464736F6C634300 ADDMOD AND STOP CALLER "},"methodIdentifiers":{"DELEGATOR_COLDKEY()":"13cd4940","DELEGATOR_HOTKEY()":"c6c4a86f","REAL_COLDKEY()":"565dea95","addStakeLimits(uint256[],uint256[],uint256[])":"3004c502","addStakeToRoot(uint256)":"8799111f","addStakeToRootFull()":"e8d23d2a","delegatorId()":"44a537f5","execute()":"61461954","getAlphaInPools()":"9e6eb20b","getAlphaPrices()":"bc28d5d0","getMevStakedAmounts(uint256[],bytes32[],bytes32[])":"0d16ab81","getStakedAmounts(bytes32[],bytes32[])":"26a224e0","getTaoInPools()":"a8c2bb0d","getTradingInfo()":"276ef789","lastWithdrawSmallTime()":"64ee6aec","mevAddStakes(uint256[],uint256[],bytes32[],bytes32[],uint256[],bool)":"1f20ff4c","mevAddresses(uint256)":"a7678775","mevRemoveStakes(uint256[],bytes32[],bytes32[],uint256[])":"c74db335","moveStakeAll(bytes32)":"9d2736cc","owner()":"8da5cb5b","removeStakeFromRoot(uint256)":"58c0b896","removeStakeFromRootFull()":"892208c5","removeStakeFromSubnetFull(uint256)":"a83ed0c1","removeStakeLimits(uint256[],uint256[])":"646e569b","rocked()":"3383dfe5","setConfig(address,bytes32)":"f4f1726b","setRock()":"be7b5a64","setStakedPrices(uint256[],uint256[])":"956a25cf","setWithdrawer(address)":"0d174c24","stakedPrices(uint256)":"305e3337","unRock()":"e2157244","updateMevAddresses(address[])":"987d0e59","withdrawAll(address)":"fa09e630","withdrawAllColdkey(bytes32)":"c3a97fc9","withdrawBig(address,uint256)":"7e11ca0a","withdrawBigColdkey(bytes32,uint256)":"bc3fd048","withdrawSmall(address,uint256)":"d7d31ae3","withdrawer()":"cdc18424"}}}}}