{"contracts/Proxy.sol":{"Proxy":{"abi":[{"inputs":[],"stateMutability":"nonpayable","type":"constructor"},{"inputs":[],"name":"REAL_COLDKEY","outputs":[{"internalType":"bytes32","name":"","type":"bytes32"}],"stateMutability":"view","type":"function"},{"inputs":[],"name":"delegatorId","outputs":[{"internalType":"bytes32","name":"","type":"bytes32"}],"stateMutability":"view","type":"function"},{"inputs":[],"name":"execute","outputs":[],"stateMutability":"nonpayable","type":"function"},{"inputs":[],"name":"owner","outputs":[{"internalType":"address","name":"","type":"address"}],"stateMutability":"view","type":"function"},{"inputs":[],"name":"transfer","outputs":[],"stateMutability":"payable","type":"function"},{"inputs":[],"name":"uid0","outputs":[{"internalType":"uint256","name":"","type":"uint256"}],"stateMutability":"view","type":"function"},{"inputs":[],"name":"uid1","outputs":[{"internalType":"uint256","name":"","type":"uint256"}],"stateMutability":"view","type":"function"}],"evm":{"bytecode":{"linkReferences":{},"object":"60c080604052346100de576001600090815563024a66cd60e11b82523060048301529060208160248161080c5afa9182156100d2578092610071575b826080523360a05260405161046690816100e4823960805181818161022801526103c7015260a05181818160a901526101740152f35b90915060203d6020116100cb575b601f8101601f191683016001600160401b038111848210176100b7576020918491604052810103126100b4575051388061003b565b80fd5b634e487b7160e01b83526041600452602483fd5b503d61007f565b604051903d90823e3d90fd5b600080fdfe608060408181526004918236101561001657600080fd5b60008093813560e01c928363112fcfd9146103ea5750826344a537f5146103af578263565dea951461037457826361461954146101615782638a4068dd146100d857505080638da5cb5b146100955763e7d754ef1461007457600080fd5b346100915781600319360112610091576020906001549051908152f35b5080fd5b5034610091578160031936011261009157517f00000000000000000000000000000000000000000000000000000000000000006001600160a01b03168152602090f35b9150918260031936011261015d574761080092833b156101595760247f2636ad834cd47318572033620d50377260a54fc64e5f150896186b2bafda74549186938551968794859363cd6f4eb160e01b85528401525af1908115610150575061013d5750f35b61014690610406565b61014d5780f35b80fd5b513d84823e3d90fd5b8480fd5b5050fd5b83346103705782600319360112610370577f00000000000000000000000000000000000000000000000000000000000000006001600160a01b031633036103705780514767ffffffffffffffff608083018181118482101761035d578452604983528580602085016060368237601081538160218701538160228701537f2636ad834cd47318572033620d50377260a54fc64e5f150896186b2bafda74549586602382015260016043820153826044820153600560458201538860468201538260478201537f0000000000000000000000000000000000000000000000000000000000000000604882015282606882015351908260065af1903d15610357573d81811161034457855191601f8201601f19908116603f011683019081118382101761033157865281528660203d92013e5b156101595767016345785d8a00009080820180831161031e578693929190479081036102bc578480fd5b82633b9aca009162024c56199303010401607f811660015560071c60025561080094853b1561031a576024918551968794859363cd6f4eb160e01b85528401525af1908115610150575061030e575080f35b61031790610406565b80f35b8380fd5b634e487b7160e01b875260118652602487fd5b634e487b7160e01b895260418852602489fd5b634e487b7160e01b885260418752602488fd5b50610292565b634e487b7160e01b875260418652602487fd5b8280fd5b508234610091578160031936011261009157602090517f2636ad834cd47318572033620d50377260a54fc64e5f150896186b2bafda74548152f35b508234610091578160031936011261009157602090517f00000000000000000000000000000000000000000000000000000000000000008152f35b9050346100915781600319360112610091576020906002548152f35b67ffffffffffffffff811161041a57604052565b634e487b7160e01b600052604160045260246000fdfea2646970667358221220eab17199e9b2be82248b53b62d006cdd456962c7c9b06beef4ce124c133d724464736f6c63430008160033","opcodes":"PUSH1 0xC0 DUP1 PUSH1 0x40 MSTORE CALLVALUE PUSH2 0xDE JUMPI PUSH1 0x1 PUSH1 0x0 SWAP1 DUP2 SSTORE PUSH4 0x24A66CD PUSH1 0xE1 SHL DUP3 MSTORE ADDRESS PUSH1 0x4 DUP4 ADD MSTORE SWAP1 PUSH1 0x20 DUP2 PUSH1 0x24 DUP2 PUSH2 0x80C GAS STATICCALL SWAP2 DUP3 ISZERO PUSH2 0xD2 JUMPI DUP1 SWAP3 PUSH2 0x71 JUMPI JUMPDEST DUP3 PUSH1 0x80 MSTORE CALLER PUSH1 0xA0 MSTORE PUSH1 0x40 MLOAD PUSH2 0x466 SWAP1 DUP2 PUSH2 0xE4 DUP3 CODECOPY PUSH1 0x80 MLOAD DUP2 DUP2 DUP2 PUSH2 0x228 ADD MSTORE PUSH2 0x3C7 ADD MSTORE PUSH1 0xA0 MLOAD DUP2 DUP2 DUP2 PUSH1 0xA9 ADD MSTORE PUSH2 0x174 ADD MSTORE RETURN JUMPDEST SWAP1 SWAP2 POP PUSH1 0x20 RETURNDATASIZE PUSH1 0x20 GT PUSH2 0xCB JUMPI JUMPDEST PUSH1 0x1F DUP2 ADD PUSH1 0x1F NOT AND DUP4 ADD PUSH1 0x1 PUSH1 0x1 PUSH1 0x40 SHL SUB DUP2 GT DUP5 DUP3 LT OR PUSH2 0xB7 JUMPI PUSH1 0x20 SWAP2 DUP5 SWAP2 PUSH1 0x40 MSTORE DUP2 ADD SUB SLT PUSH2 0xB4 JUMPI POP MLOAD CODESIZE DUP1 PUSH2 0x3B JUMP JUMPDEST DUP1 REVERT JUMPDEST PUSH4 0x4E487B71 PUSH1 0xE0 SHL DUP4 MSTORE PUSH1 0x41 PUSH1 0x4 MSTORE PUSH1 0x24 DUP4 REVERT JUMPDEST POP RETURNDATASIZE PUSH2 0x7F JUMP JUMPDEST PUSH1 0x40 MLOAD SWAP1 RETURNDATASIZE SWAP1 DUP3 RETURNDATACOPY RETURNDATASIZE SWAP1 REVERT JUMPDEST PUSH1 0x0 DUP1 REVERT INVALID PUSH1 0x80 PUSH1 0x40 DUP2 DUP2 MSTORE PUSH1 0x4 SWAP2 DUP3 CALLDATASIZE LT ISZERO PUSH2 0x16 JUMPI PUSH1 0x0 DUP1 REVERT JUMPDEST PUSH1 0x0 DUP1 SWAP4 DUP2 CALLDATALOAD PUSH1 0xE0 SHR SWAP3 DUP4 PUSH4 0x112FCFD9 EQ PUSH2 0x3EA JUMPI POP DUP3 PUSH4 0x44A537F5 EQ PUSH2 0x3AF JUMPI DUP3 PUSH4 0x565DEA95 EQ PUSH2 0x374 JUMPI DUP3 PUSH4 0x61461954 EQ PUSH2 0x161 JUMPI DUP3 PUSH4 0x8A4068DD EQ PUSH2 0xD8 JUMPI POP POP DUP1 PUSH4 0x8DA5CB5B EQ PUSH2 0x95 JUMPI PUSH4 0xE7D754EF EQ PUSH2 0x74 JUMPI PUSH1 0x0 DUP1 REVERT JUMPDEST CALLVALUE PUSH2 0x91 JUMPI DUP2 PUSH1 0x3 NOT CALLDATASIZE ADD SLT PUSH2 0x91 JUMPI PUSH1 0x20 SWAP1 PUSH1 0x1 SLOAD SWAP1 MLOAD SWAP1 DUP2 MSTORE RETURN JUMPDEST POP DUP1 REVERT JUMPDEST POP CALLVALUE PUSH2 0x91 JUMPI DUP2 PUSH1 0x3 NOT CALLDATASIZE ADD SLT PUSH2 0x91 JUMPI MLOAD PUSH32 0x0 PUSH1 0x1 PUSH1 0x1 PUSH1 0xA0 SHL SUB AND DUP2 MSTORE PUSH1 0x20 SWAP1 RETURN JUMPDEST SWAP2 POP SWAP2 DUP3 PUSH1 0x3 NOT CALLDATASIZE ADD SLT PUSH2 0x15D JUMPI SELFBALANCE PUSH2 0x800 SWAP3 DUP4 EXTCODESIZE ISZERO PUSH2 0x159 JUMPI PUSH1 0x24 PUSH32 0x2636AD834CD47318572033620D50377260A54FC64E5F150896186B2BAFDA7454 SWAP2 DUP7 SWAP4 DUP6 MLOAD SWAP7 DUP8 SWAP5 DUP6 SWAP4 PUSH4 0xCD6F4EB1 PUSH1 0xE0 SHL DUP6 MSTORE DUP5 ADD MSTORE GAS CALL SWAP1 DUP2 ISZERO PUSH2 0x150 JUMPI POP PUSH2 0x13D JUMPI POP RETURN JUMPDEST PUSH2 0x146 SWAP1 PUSH2 0x406 JUMP JUMPDEST PUSH2 0x14D JUMPI DUP1 RETURN JUMPDEST DUP1 REVERT JUMPDEST MLOAD RETURNDATASIZE DUP5 DUP3 RETURNDATACOPY RETURNDATASIZE SWAP1 REVERT JUMPDEST DUP5 DUP1 REVERT JUMPDEST POP POP REVERT JUMPDEST DUP4 CALLVALUE PUSH2 0x370 JUMPI DUP3 PUSH1 0x3 NOT CALLDATASIZE ADD SLT PUSH2 0x370 JUMPI PUSH32 0x0 PUSH1 0x1 PUSH1 0x1 PUSH1 0xA0 SHL SUB AND CALLER SUB PUSH2 0x370 JUMPI DUP1 MLOAD SELFBALANCE PUSH8 0xFFFFFFFFFFFFFFFF PUSH1 0x80 DUP4 ADD DUP2 DUP2 GT DUP5 DUP3 LT OR PUSH2 0x35D JUMPI DUP5 MSTORE PUSH1 0x49 DUP4 MSTORE DUP6 DUP1 PUSH1 0x20 DUP6 ADD PUSH1 0x60 CALLDATASIZE DUP3 CALLDATACOPY PUSH1 0x10 DUP2 MSTORE8 DUP2 PUSH1 0x21 DUP8 ADD MSTORE8 DUP2 PUSH1 0x22 DUP8 ADD MSTORE8 PUSH32 0x2636AD834CD47318572033620D50377260A54FC64E5F150896186B2BAFDA7454 SWAP6 DUP7 PUSH1 0x23 DUP3 ADD MSTORE PUSH1 0x1 PUSH1 0x43 DUP3 ADD MSTORE8 DUP3 PUSH1 0x44 DUP3 ADD MSTORE8 PUSH1 0x5 PUSH1 0x45 DUP3 ADD MSTORE8 DUP9 PUSH1 0x46 DUP3 ADD MSTORE8 DUP3 PUSH1 0x47 DUP3 ADD MSTORE8 PUSH32 0x0 PUSH1 0x48 DUP3 ADD MSTORE DUP3 PUSH1 0x68 DUP3 ADD MSTORE8 MLOAD SWAP1 DUP3 PUSH1 0x6 GAS CALL SWAP1 RETURNDATASIZE ISZERO PUSH2 0x357 JUMPI RETURNDATASIZE DUP2 DUP2 GT PUSH2 0x344 JUMPI DUP6 MLOAD SWAP2 PUSH1 0x1F DUP3 ADD PUSH1 0x1F NOT SWAP1 DUP2 AND PUSH1 0x3F ADD AND DUP4 ADD SWAP1 DUP2 GT DUP4 DUP3 LT OR PUSH2 0x331 JUMPI DUP7 MSTORE DUP2 MSTORE DUP7 PUSH1 0x20 RETURNDATASIZE SWAP3 ADD RETURNDATACOPY JUMPDEST ISZERO PUSH2 0x159 JUMPI PUSH8 0x16345785D8A0000 SWAP1 DUP1 DUP3 ADD DUP1 DUP4 GT PUSH2 0x31E JUMPI DUP7 SWAP4 SWAP3 SWAP2 SWAP1 SELFBALANCE SWAP1 DUP2 SUB PUSH2 0x2BC JUMPI DUP5 DUP1 REVERT JUMPDEST DUP3 PUSH4 0x3B9ACA00 SWAP2 PUSH3 0x24C56 NOT SWAP4 SUB ADD DIV ADD PUSH1 0x7F DUP2 AND PUSH1 0x1 SSTORE PUSH1 0x7 SHR PUSH1 0x2 SSTORE PUSH2 0x800 SWAP5 DUP6 EXTCODESIZE ISZERO PUSH2 0x31A JUMPI PUSH1 0x24 SWAP2 DUP6 MLOAD SWAP7 DUP8 SWAP5 DUP6 SWAP4 PUSH4 0xCD6F4EB1 PUSH1 0xE0 SHL DUP6 MSTORE DUP5 ADD MSTORE GAS CALL SWAP1 DUP2 ISZERO PUSH2 0x150 JUMPI POP PUSH2 0x30E JUMPI POP DUP1 RETURN JUMPDEST PUSH2 0x317 SWAP1 PUSH2 0x406 JUMP JUMPDEST DUP1 RETURN JUMPDEST DUP4 DUP1 REVERT JUMPDEST PUSH4 0x4E487B71 PUSH1 0xE0 SHL DUP8 MSTORE PUSH1 0x11 DUP7 MSTORE PUSH1 0x24 DUP8 REVERT JUMPDEST PUSH4 0x4E487B71 PUSH1 0xE0 SHL DUP10 MSTORE PUSH1 0x41 DUP9 MSTORE PUSH1 0x24 DUP10 REVERT JUMPDEST PUSH4 0x4E487B71 PUSH1 0xE0 SHL DUP9 MSTORE PUSH1 0x41 DUP8 MSTORE PUSH1 0x24 DUP9 REVERT JUMPDEST POP PUSH2 0x292 JUMP JUMPDEST PUSH4 0x4E487B71 PUSH1 0xE0 SHL DUP8 MSTORE PUSH1 0x41 DUP7 MSTORE PUSH1 0x24 DUP8 REVERT JUMPDEST DUP3 DUP1 REVERT JUMPDEST POP DUP3 CALLVALUE PUSH2 0x91 JUMPI DUP2 PUSH1 0x3 NOT CALLDATASIZE ADD SLT PUSH2 0x91 JUMPI PUSH1 0x20 SWAP1 MLOAD PUSH32 0x2636AD834CD47318572033620D50377260A54FC64E5F150896186B2BAFDA7454 DUP2 MSTORE RETURN JUMPDEST POP DUP3 CALLVALUE PUSH2 0x91 JUMPI DUP2 PUSH1 0x3 NOT CALLDATASIZE ADD SLT PUSH2 0x91 JUMPI PUSH1 0x20 SWAP1 MLOAD PUSH32 0x0 DUP2 MSTORE RETURN JUMPDEST SWAP1 POP CALLVALUE PUSH2 0x91 JUMPI DUP2 PUSH1 0x3 NOT CALLDATASIZE ADD SLT PUSH2 0x91 JUMPI PUSH1 0x20 SWAP1 PUSH1 0x2 SLOAD DUP2 MSTORE RETURN JUMPDEST PUSH8 0xFFFFFFFFFFFFFFFF DUP2 GT PUSH2 0x41A JUMPI PUSH1 0x40 MSTORE JUMP JUMPDEST PUSH4 0x4E487B71 PUSH1 0xE0 SHL PUSH1 0x0 MSTORE PUSH1 0x41 PUSH1 0x4 MSTORE PUSH1 0x24 PUSH1 0x0 REVERT INVALID LOG2 PUSH5 0x6970667358 0x22 SLT KECCAK256 0xEA 0xB1 PUSH18 0x99E9B2BE82248B53B62D006CDD456962C7C9 0xB0 PUSH12 0xEEF4CE124C133D724464736F PUSH13 0x63430008160033000000000000 "},"methodIdentifiers":{"REAL_COLDKEY()":"565dea95","delegatorId()":"44a537f5","execute()":"61461954","owner()":"8da5cb5b","transfer()":"8a4068dd","uid0()":"e7d754ef","uid1()":"112fcfd9"}}}}}