{"contracts/TransferStake.sol":{"TransferStake":{"abi":[{"inputs":[],"stateMutability":"nonpayable","type":"constructor"},{"inputs":[],"name":"DELEGATOR_COLDKEY","outputs":[{"internalType":"bytes32","name":"","type":"bytes32"}],"stateMutability":"view","type":"function"},{"inputs":[],"name":"DELEGATOR_HOTKEY","outputs":[{"internalType":"bytes32","name":"","type":"bytes32"}],"stateMutability":"view","type":"function"},{"inputs":[],"name":"REAL_COLDKEY","outputs":[{"internalType":"bytes32","name":"","type":"bytes32"}],"stateMutability":"view","type":"function"},{"inputs":[],"name":"delegatorId","outputs":[{"internalType":"bytes32","name":"","type":"bytes32"}],"stateMutability":"view","type":"function"},{"inputs":[],"name":"execute","outputs":[],"stateMutability":"nonpayable","type":"function"},{"inputs":[],"name":"owner","outputs":[{"internalType":"address","name":"","type":"address"}],"stateMutability":"view","type":"function"},{"inputs":[],"name":"transfer","outputs":[],"stateMutability":"payable","type":"function"},{"inputs":[],"name":"transfer_asm","outputs":[],"stateMutability":"payable","type":"function"}],"evm":{"bytecode":{"linkReferences":{},"object":"60c080604052346100cd5763024a66cd60e11b815230600482015260208160248161080c5afa9081156100c157600091610063575b506080523360a0526040516103fd90816100d38239608051816102d8015260a05181818160d001526101120152f35b9060203d6020116100ba575b601f8101601f191683016001600160401b038111848210176100a6576020918491604052810103126100a357505138610034565b80fd5b634e487b7160e01b83526041600452602483fd5b503d61006f565b6040513d6000823e3d90fd5b600080fdfe60806040818152600436101561001457600080fd5b600091823560e01c90816313cd4940146102fb5750806344a537f5146102c1578063565dea951461028757806361461954146100ff5780638a4068dd146100b75780638da5cb5b146100bc5780639aa88b8b146100b75763c6c4a86f1461007a57600080fd5b346100b357816003193601126100b357602090517fb4c087119097fbe3985298eef52f35ef6271c48322a8c2d430902a9cc38d94738152f35b5080fd5b610335565b50346100b357816003193601126100b357517f00000000000000000000000000000000000000000000000000000000000000006001600160a01b03168152602090f35b50346100b357816003193601126100b3577f00000000000000000000000000000000000000000000000000000000000000006001600160a01b031633036100b357805167ffffffffffffffff9190608081018381118282101761026c57849182918452604e81526020810190606036833760078253605660218201537f5bc73267f9990b1554109dc41e624a7dab56b1128f1ef2f62f6314294c038f9d60228201527fb4c087119097fbe3985298eef52f35ef6271c48322a8c2d430902a9cc38d947360428201528260628201538260638201538460648201538260658201536305f5e10060668201536205f5e160678201536105f560688201536005606982015382606a82015382606b82015382606c82015382606d82015351908260065af1913d15610280573d9181831161026c57603f601f9182199283915195011601168201918210911117610258575b156102555780f35b80fd5b634e487b7160e01b82526041600452602482fd5b634e487b7160e01b85526041600452602485fd5b505061024d565b50346100b357816003193601126100b357602090517f2636ad834cd47318572033620d50377260a54fc64e5f150896186b2bafda74548152f35b50346100b357816003193601126100b357602090517f00000000000000000000000000000000000000000000000000000000000000008152f35b8390346100b357816003193601126100b357807f5bc73267f9990b1554109dc41e624a7dab56b1128f1ef2f62f6314294c038f9d60209252f35b600080600319360112610255574781610800803b156100b35760246040518094819363cd6f4eb160e01b83527f2636ad834cd47318572033620d50377260a54fc64e5f150896186b2bafda745460048401525af180156103bc57610397575080f35b67ffffffffffffffff106103a85780f35b634e487b7160e01b81526041600452602490fd5b6040513d84823e3d90fdfea264697066735822122099d675c6f67c258a01e6faa175119ac93f1a414ca39eb0b6dc5d181f7aa4971464736f6c63430008160033","opcodes":"PUSH1 0xC0 DUP1 PUSH1 0x40 MSTORE CALLVALUE PUSH2 0xCD JUMPI PUSH4 0x24A66CD PUSH1 0xE1 SHL DUP2 MSTORE ADDRESS PUSH1 0x4 DUP3 ADD MSTORE PUSH1 0x20 DUP2 PUSH1 0x24 DUP2 PUSH2 0x80C GAS STATICCALL SWAP1 DUP2 ISZERO PUSH2 0xC1 JUMPI PUSH1 0x0 SWAP2 PUSH2 0x63 JUMPI JUMPDEST POP PUSH1 0x80 MSTORE CALLER PUSH1 0xA0 MSTORE PUSH1 0x40 MLOAD PUSH2 0x3FD SWAP1 DUP2 PUSH2 0xD3 DUP3 CODECOPY PUSH1 0x80 MLOAD DUP2 PUSH2 0x2D8 ADD MSTORE PUSH1 0xA0 MLOAD DUP2 DUP2 DUP2 PUSH1 0xD0 ADD MSTORE PUSH2 0x112 ADD MSTORE RETURN JUMPDEST SWAP1 PUSH1 0x20 RETURNDATASIZE PUSH1 0x20 GT PUSH2 0xBA JUMPI JUMPDEST PUSH1 0x1F DUP2 ADD PUSH1 0x1F NOT AND DUP4 ADD PUSH1 0x1 PUSH1 0x1 PUSH1 0x40 SHL SUB DUP2 GT DUP5 DUP3 LT OR PUSH2 0xA6 JUMPI PUSH1 0x20 SWAP2 DUP5 SWAP2 PUSH1 0x40 MSTORE DUP2 ADD SUB SLT PUSH2 0xA3 JUMPI POP MLOAD CODESIZE PUSH2 0x34 JUMP JUMPDEST DUP1 REVERT JUMPDEST PUSH4 0x4E487B71 PUSH1 0xE0 SHL DUP4 MSTORE PUSH1 0x41 PUSH1 0x4 MSTORE PUSH1 0x24 DUP4 REVERT JUMPDEST POP RETURNDATASIZE PUSH2 0x6F JUMP JUMPDEST PUSH1 0x40 MLOAD RETURNDATASIZE PUSH1 0x0 DUP3 RETURNDATACOPY RETURNDATASIZE SWAP1 REVERT JUMPDEST PUSH1 0x0 DUP1 REVERT INVALID PUSH1 0x80 PUSH1 0x40 DUP2 DUP2 MSTORE PUSH1 0x4 CALLDATASIZE LT ISZERO PUSH2 0x14 JUMPI PUSH1 0x0 DUP1 REVERT JUMPDEST PUSH1 0x0 SWAP2 DUP3 CALLDATALOAD PUSH1 0xE0 SHR SWAP1 DUP2 PUSH4 0x13CD4940 EQ PUSH2 0x2FB JUMPI POP DUP1 PUSH4 0x44A537F5 EQ PUSH2 0x2C1 JUMPI DUP1 PUSH4 0x565DEA95 EQ PUSH2 0x287 JUMPI DUP1 PUSH4 0x61461954 EQ PUSH2 0xFF JUMPI DUP1 PUSH4 0x8A4068DD EQ PUSH2 0xB7 JUMPI DUP1 PUSH4 0x8DA5CB5B EQ PUSH2 0xBC JUMPI DUP1 PUSH4 0x9AA88B8B EQ PUSH2 0xB7 JUMPI PUSH4 0xC6C4A86F EQ PUSH2 0x7A JUMPI PUSH1 0x0 DUP1 REVERT JUMPDEST CALLVALUE PUSH2 0xB3 JUMPI DUP2 PUSH1 0x3 NOT CALLDATASIZE ADD SLT PUSH2 0xB3 JUMPI PUSH1 0x20 SWAP1 MLOAD PUSH32 0xB4C087119097FBE3985298EEF52F35EF6271C48322A8C2D430902A9CC38D9473 DUP2 MSTORE RETURN JUMPDEST POP DUP1 REVERT JUMPDEST PUSH2 0x335 JUMP JUMPDEST POP CALLVALUE PUSH2 0xB3 JUMPI DUP2 PUSH1 0x3 NOT CALLDATASIZE ADD SLT PUSH2 0xB3 JUMPI MLOAD PUSH32 0x0 PUSH1 0x1 PUSH1 0x1 PUSH1 0xA0 SHL SUB AND DUP2 MSTORE PUSH1 0x20 SWAP1 RETURN JUMPDEST POP CALLVALUE PUSH2 0xB3 JUMPI DUP2 PUSH1 0x3 NOT CALLDATASIZE ADD SLT PUSH2 0xB3 JUMPI PUSH32 0x0 PUSH1 0x1 PUSH1 0x1 PUSH1 0xA0 SHL SUB AND CALLER SUB PUSH2 0xB3 JUMPI DUP1 MLOAD PUSH8 0xFFFFFFFFFFFFFFFF SWAP2 SWAP1 PUSH1 0x80 DUP2 ADD DUP4 DUP2 GT DUP3 DUP3 LT OR PUSH2 0x26C JUMPI DUP5 SWAP2 DUP3 SWAP2 DUP5 MSTORE PUSH1 0x4E DUP2 MSTORE PUSH1 0x20 DUP2 ADD SWAP1 PUSH1 0x60 CALLDATASIZE DUP4 CALLDATACOPY PUSH1 0x7 DUP3 MSTORE8 PUSH1 0x56 PUSH1 0x21 DUP3 ADD MSTORE8 PUSH32 0x5BC73267F9990B1554109DC41E624A7DAB56B1128F1EF2F62F6314294C038F9D PUSH1 0x22 DUP3 ADD MSTORE PUSH32 0xB4C087119097FBE3985298EEF52F35EF6271C48322A8C2D430902A9CC38D9473 PUSH1 0x42 DUP3 ADD MSTORE DUP3 PUSH1 0x62 DUP3 ADD MSTORE8 DUP3 PUSH1 0x63 DUP3 ADD MSTORE8 DUP5 PUSH1 0x64 DUP3 ADD MSTORE8 DUP3 PUSH1 0x65 DUP3 ADD MSTORE8 PUSH4 0x5F5E100 PUSH1 0x66 DUP3 ADD MSTORE8 PUSH3 0x5F5E1 PUSH1 0x67 DUP3 ADD MSTORE8 PUSH2 0x5F5 PUSH1 0x68 DUP3 ADD MSTORE8 PUSH1 0x5 PUSH1 0x69 DUP3 ADD MSTORE8 DUP3 PUSH1 0x6A DUP3 ADD MSTORE8 DUP3 PUSH1 0x6B DUP3 ADD MSTORE8 DUP3 PUSH1 0x6C DUP3 ADD MSTORE8 DUP3 PUSH1 0x6D DUP3 ADD MSTORE8 MLOAD SWAP1 DUP3 PUSH1 0x6 GAS CALL SWAP2 RETURNDATASIZE ISZERO PUSH2 0x280 JUMPI RETURNDATASIZE SWAP2 DUP2 DUP4 GT PUSH2 0x26C JUMPI PUSH1 0x3F PUSH1 0x1F SWAP2 DUP3 NOT SWAP3 DUP4 SWAP2 MLOAD SWAP6 ADD AND ADD AND DUP3 ADD SWAP2 DUP3 LT SWAP2 GT OR PUSH2 0x258 JUMPI JUMPDEST ISZERO PUSH2 0x255 JUMPI DUP1 RETURN JUMPDEST DUP1 REVERT JUMPDEST PUSH4 0x4E487B71 PUSH1 0xE0 SHL DUP3 MSTORE PUSH1 0x41 PUSH1 0x4 MSTORE PUSH1 0x24 DUP3 REVERT JUMPDEST PUSH4 0x4E487B71 PUSH1 0xE0 SHL DUP6 MSTORE PUSH1 0x41 PUSH1 0x4 MSTORE PUSH1 0x24 DUP6 REVERT JUMPDEST POP POP PUSH2 0x24D JUMP JUMPDEST POP CALLVALUE PUSH2 0xB3 JUMPI DUP2 PUSH1 0x3 NOT CALLDATASIZE ADD SLT PUSH2 0xB3 JUMPI PUSH1 0x20 SWAP1 MLOAD PUSH32 0x2636AD834CD47318572033620D50377260A54FC64E5F150896186B2BAFDA7454 DUP2 MSTORE RETURN JUMPDEST POP CALLVALUE PUSH2 0xB3 JUMPI DUP2 PUSH1 0x3 NOT CALLDATASIZE ADD SLT PUSH2 0xB3 JUMPI PUSH1 0x20 SWAP1 MLOAD PUSH32 0x0 DUP2 MSTORE RETURN JUMPDEST DUP4 SWAP1 CALLVALUE PUSH2 0xB3 JUMPI DUP2 PUSH1 0x3 NOT CALLDATASIZE ADD SLT PUSH2 0xB3 JUMPI DUP1 PUSH32 0x5BC73267F9990B1554109DC41E624A7DAB56B1128F1EF2F62F6314294C038F9D PUSH1 0x20 SWAP3 MSTORE RETURN JUMPDEST PUSH1 0x0 DUP1 PUSH1 0x3 NOT CALLDATASIZE ADD SLT PUSH2 0x255 JUMPI SELFBALANCE DUP2 PUSH2 0x800 DUP1 EXTCODESIZE ISZERO PUSH2 0xB3 JUMPI PUSH1 0x24 PUSH1 0x40 MLOAD DUP1 SWAP5 DUP2 SWAP4 PUSH4 0xCD6F4EB1 PUSH1 0xE0 SHL DUP4 MSTORE PUSH32 0x2636AD834CD47318572033620D50377260A54FC64E5F150896186B2BAFDA7454 PUSH1 0x4 DUP5 ADD MSTORE GAS CALL DUP1 ISZERO PUSH2 0x3BC JUMPI PUSH2 0x397 JUMPI POP DUP1 RETURN JUMPDEST PUSH8 0xFFFFFFFFFFFFFFFF LT PUSH2 0x3A8 JUMPI DUP1 RETURN JUMPDEST PUSH4 0x4E487B71 PUSH1 0xE0 SHL DUP2 MSTORE PUSH1 0x41 PUSH1 0x4 MSTORE PUSH1 0x24 SWAP1 REVERT JUMPDEST PUSH1 0x40 MLOAD RETURNDATASIZE DUP5 DUP3 RETURNDATACOPY RETURNDATASIZE SWAP1 REVERT INVALID LOG2 PUSH5 0x6970667358 0x22 SLT KECCAK256 SWAP10 0xD6 PUSH22 0xC6F67C258A01E6FAA175119AC93F1A414CA39EB0B6DC 0x5D XOR 0x1F PUSH27 0xA4971464736F6C6343000816003300000000000000000000000000 "},"methodIdentifiers":{"DELEGATOR_COLDKEY()":"13cd4940","DELEGATOR_HOTKEY()":"c6c4a86f","REAL_COLDKEY()":"565dea95","delegatorId()":"44a537f5","execute()":"61461954","owner()":"8da5cb5b","transfer()":"8a4068dd","transfer_asm()":"9aa88b8b"}}}}}