{"contracts/BSCSender.sol":{"BSCSender":{"abi":[{"inputs":[{"internalType":"address","name":"_endpoint","type":"address"},{"internalType":"address","name":"_owner","type":"address"}],"stateMutability":"nonpayable","type":"constructor"},{"inputs":[],"name":"InvalidDelegate","type":"error"},{"inputs":[],"name":"InvalidEndpointCall","type":"error"},{"inputs":[],"name":"LzTokenUnavailable","type":"error"},{"inputs":[{"internalType":"uint32","name":"eid","type":"uint32"}],"name":"NoPeer","type":"error"},{"inputs":[{"internalType":"uint256","name":"msgValue","type":"uint256"}],"name":"NotEnoughNative","type":"error"},{"inputs":[{"internalType":"address","name":"addr","type":"address"}],"name":"OnlyEndpoint","type":"error"},{"inputs":[{"internalType":"uint32","name":"eid","type":"uint32"},{"internalType":"bytes32","name":"sender","type":"bytes32"}],"name":"OnlyPeer","type":"error"},{"anonymous":false,"inputs":[{"indexed":false,"internalType":"uint32","name":"dstEid","type":"uint32"},{"indexed":false,"internalType":"bytes","name":"payload","type":"bytes"},{"indexed":false,"internalType":"address","name":"sender","type":"address"}],"name":"MessageSent","type":"event"},{"anonymous":false,"inputs":[{"indexed":true,"internalType":"address","name":"previousOwner","type":"address"},{"indexed":true,"internalType":"address","name":"newOwner","type":"address"}],"name":"OwnershipTransferred","type":"event"},{"anonymous":false,"inputs":[{"indexed":false,"internalType":"uint32","name":"eid","type":"uint32"},{"indexed":false,"internalType":"bytes32","name":"peer","type":"bytes32"}],"name":"PeerSet","type":"event"},{"inputs":[{"components":[{"internalType":"uint32","name":"srcEid","type":"uint32"},{"internalType":"bytes32","name":"sender","type":"bytes32"},{"internalType":"uint64","name":"nonce","type":"uint64"}],"internalType":"struct Origin","name":"origin","type":"tuple"}],"name":"allowInitializePath","outputs":[{"internalType":"bool","name":"","type":"bool"}],"stateMutability":"view","type":"function"},{"inputs":[],"name":"endpoint","outputs":[{"internalType":"contract ILayerZeroEndpointV2","name":"","type":"address"}],"stateMutability":"view","type":"function"},{"inputs":[{"components":[{"internalType":"uint32","name":"srcEid","type":"uint32"},{"internalType":"bytes32","name":"sender","type":"bytes32"},{"internalType":"uint64","name":"nonce","type":"uint64"}],"internalType":"struct Origin","name":"","type":"tuple"},{"internalType":"bytes","name":"","type":"bytes"},{"internalType":"address","name":"_sender","type":"address"}],"name":"isComposeMsgSender","outputs":[{"internalType":"bool","name":"","type":"bool"}],"stateMutability":"view","type":"function"},{"inputs":[{"components":[{"internalType":"uint32","name":"srcEid","type":"uint32"},{"internalType":"bytes32","name":"sender","type":"bytes32"},{"internalType":"uint64","name":"nonce","type":"uint64"}],"internalType":"struct Origin","name":"_origin","type":"tuple"},{"internalType":"bytes32","name":"_guid","type":"bytes32"},{"internalType":"bytes","name":"_message","type":"bytes"},{"internalType":"address","name":"_executor","type":"address"},{"internalType":"bytes","name":"_extraData","type":"bytes"}],"name":"lzReceive","outputs":[],"stateMutability":"payable","type":"function"},{"inputs":[{"internalType":"uint32","name":"","type":"uint32"},{"internalType":"bytes32","name":"","type":"bytes32"}],"name":"nextNonce","outputs":[{"internalType":"uint64","name":"nonce","type":"uint64"}],"stateMutability":"view","type":"function"},{"inputs":[],"name":"oAppVersion","outputs":[{"internalType":"uint64","name":"senderVersion","type":"uint64"},{"internalType":"uint64","name":"receiverVersion","type":"uint64"}],"stateMutability":"pure","type":"function"},{"inputs":[],"name":"owner","outputs":[{"internalType":"address","name":"","type":"address"}],"stateMutability":"view","type":"function"},{"inputs":[{"internalType":"uint32","name":"eid","type":"uint32"}],"name":"peers","outputs":[{"internalType":"bytes32","name":"peer","type":"bytes32"}],"stateMutability":"view","type":"function"},{"inputs":[{"internalType":"uint32","name":"_dstEid","type":"uint32"},{"internalType":"bytes","name":"_payload","type":"bytes"},{"internalType":"bytes","name":"_options","type":"bytes"},{"internalType":"bool","name":"_payInLzToken","type":"bool"}],"name":"quoteSend","outputs":[{"components":[{"internalType":"uint256","name":"nativeFee","type":"uint256"},{"internalType":"uint256","name":"lzTokenFee","type":"uint256"}],"internalType":"struct MessagingFee","name":"fee","type":"tuple"}],"stateMutability":"view","type":"function"},{"inputs":[],"name":"renounceOwnership","outputs":[],"stateMutability":"nonpayable","type":"function"},{"inputs":[{"internalType":"uint32","name":"_dstEid","type":"uint32"},{"internalType":"bytes","name":"_payload","type":"bytes"},{"internalType":"bytes","name":"_options","type":"bytes"}],"name":"send","outputs":[],"stateMutability":"payable","type":"function"},{"inputs":[{"internalType":"address","name":"_delegate","type":"address"}],"name":"setDelegate","outputs":[],"stateMutability":"nonpayable","type":"function"},{"inputs":[{"internalType":"uint32","name":"_eid","type":"uint32"},{"internalType":"bytes32","name":"_peer","type":"bytes32"}],"name":"setPeer","outputs":[],"stateMutability":"nonpayable","type":"function"},{"inputs":[{"internalType":"address","name":"newOwner","type":"address"}],"name":"transferOwnership","outputs":[],"stateMutability":"nonpayable","type":"function"}],"evm":{"bytecode":{"linkReferences":{},"object":"60a034610164576110a0906001600160401b03601f38849003908101601f191683019082821184831017610169578084916040968794855283398101031261016457610056602061004f8461017f565b930161017f565b60008054336001600160a01b03198216811783558651929592936001600160a01b039384939192849283167f8be0079c531659141344cd1fd0a4f28419497f9722a3daafe3b4186f6b6457e08a80a3166080521691821561015557506080511690813b1561015157839291602484928751968793849263ca5eb5e160e01b845260048401525af1801561014757610122575b8351610f0c908161019482396080518181816101f9015281816103d901528181610582015281816106ae0152818161085e01526109950152f35b8211610133575081523880806100e8565b634e487b7160e01b81526041600452602490fd5b84513d84823e3d90fd5b8380fd5b632d618d8160e21b8152600490fd5b600080fd5b634e487b7160e01b600052604160045260246000fd5b51906001600160a01b03821682036101645756fe608060408181526004918236101561001657600080fd5b600092833560e01c9182630f62773d1461073e5750816313137d651461064457816317442b70146106225781632ed56ce9146104895781633400288b146104085781635e280f11146103c4578163715018a6146103675781637d25a05e1461034257816382413eac146102e05781638da5cb5b146102b8578163bb0b6a5314610284578163ca5eb5e1146101ca578163f2fde38b146100f9575063ff7bd03d146100bf57600080fd5b346100f55760603660031901126100f5578060209263ffffffff6100e1610cc4565b168152600184522054905190602435148152f35b5080fd5b9050346101c65760203660031901126101c657610114610bcf565b9061011d610de5565b6001600160a01b03918216928315610174575050600054826bffffffffffffffffffffffff60a01b821617600055167f8be0079c531659141344cd1fd0a4f28419497f9722a3daafe3b4186f6b6457e0600080a380f35b906020608492519162461bcd60e51b8352820152602660248201527f4f776e61626c653a206e6577206f776e657220697320746865207a65726f206160448201526564647265737360d01b6064820152fd5b8280fd5b919050346101c65760203660031901126101c6576101e6610bcf565b916101ef610de5565b6001600160a01b037f0000000000000000000000000000000000000000000000000000000000000000811693859190853b156101c657602490838651978894859363ca5eb5e160e01b855216878401525af1801561027a5761024f578380f35b67ffffffffffffffff83116102675750523880808380f35b634e487b7160e01b845260419052602483fd5b82513d86823e3d90fd5b5050346100f55760203660031901126100f5578060209263ffffffff6102a8610b89565b1681526001845220549051908152f35b5050346100f557816003193601126100f557905490516001600160a01b039091168152602090f35b9050346101c657366003190160a0811261033e576060136101c6576064359067ffffffffffffffff821161033e5761031a91369101610ba1565b50506084356001600160a01b03811691908290036101c65760209250519030148152f35b8380fd5b5050346100f557806003193601126100f55790602091610360610b89565b5051908152f35b83346103c157806003193601126103c157610380610de5565b80546001600160a01b03198116825581906001600160a01b03167f8be0079c531659141344cd1fd0a4f28419497f9722a3daafe3b4186f6b6457e08280a380f35b80fd5b5050346100f557816003193601126100f557517f00000000000000000000000000000000000000000000000000000000000000006001600160a01b03168152602090f35b5050346100f557806003193601126100f5577f238399d427b947898edb290f5ff0f9109849b1c3ba196a42e35f00c50a54b98b90610444610b89565b61048360243592610453610de5565b63ffffffff831686526001602052838187205551928392836020909392919363ffffffff60408201951681520152565b0390a180f35b839150346100f55760803660031901126100f5576104a5610b89565b67ffffffffffffffff60243581811161061e576104c59036908501610ba1565b9160443590811161061a576104dd9036908601610ba1565b916064359384151580950361061657879694926105188a9795936105209361057e9b60208b5161050c81610be5565b82815201523691610c8d565b923691610c8d565b90866020875161052f81610be5565b828152015261053d84610dad565b63ffffffff87519561054e87610c33565b168552602085015285840152606083015260808201528251631bb8518b60e31b8152948592839230918401610d3f565b03817f00000000000000000000000000000000000000000000000000000000000000006001600160a01b03165afa91821561060a5781926105ce575b505060208251918051835201516020820152f35b90928092503d8311610603575b6105e58183610c4f565b810190828183031261033e576105fc929350610cd7565b82806105ba565b503d6105db565b508251903d90823e3d90fd5b8780fd5b8580fd5b8480fd5b8284346103c157806003193601126103c1575080516001815260026020820152f35b9050366003190160e0811261033e576060136101c65767ffffffffffffffff60843581811161061e5761067a9036908401610ba1565b506001600160a01b0391905060a4358281160361061e5760c43590811161061e576106a89036908401610ba1565b505033907f00000000000000000000000000000000000000000000000000000000000000001603610728576106e36106de610cc4565b610dad565b6024358091036106f1578380f35b610724906106fd610cc4565b935163309afaf360e21b815263ffffffff9094169284019283526020830152829160400190565b0390fd5b60249151906391ac5e4f60e01b82523390820152fd5b9150606036600319011261033e57610754610b89565b906024359367ffffffffffffffff94858111610b85576107779036908401610ba1565b919095604435818111610b81576107919036908601610ba1565b909461079c88610be5565b3488526020976107c0898201978c89526107b88c893691610c8d565b943691610c8d565b908b8680516107ce81610c17565b828152828d8201528151926107e284610be5565b8084528d84015201525190813403610b6b5787518061097f575b509061085a9493929161080e8a610dad565b985115159363ffffffff88519b6108248d610c33565b16998a8c528c8c0152878b015260608a015260809889938482015286518096819482936302637a4560e41b845233918401610d3f565b03917f00000000000000000000000000000000000000000000000000000000000000006001600160a01b03165af18015610975576108eb575b5050817fe259e3963952c0f1e65c9c30d6f7a49654b93346cb11f21e2bd4e7c340fa0983966060835197889687528601528160608601528585013782820184018790523390830152601f01601f19168101030190a180f35b9096853d871161096e575b610900818a610c4f565b880191868984031261096a5783519061091882610c17565b89518252888a015190811681036109665761095d8694867fe259e3963952c0f1e65c9c30d6f7a49654b93346cb11f21e2bd4e7c340fa09839c81948d87015201610cd7565b91015296610893565b8a80fd5b8980fd5b503d6108f6565b83513d8b823e3d90fd5b865163393f876560e21b81526001600160a01b037f00000000000000000000000000000000000000000000000000000000000000008116918f908e818981875afa918215610b605791610b26575b5016908115610b16578e610a7493928a8f93838091835197878901916323b872dd60e01b83523360248b015260448a0152606489015260648852610a1088610c33565b835197610a1c89610be5565b8789527f5361666545524332303a206c6f772d6c6576656c2063616c6c206661696c6564888a0152519082865af1923d15610b0a573d610a67610a5e82610c71565b93519384610c4f565b825281943d92013e610e3d565b80518b8115918215610ae6575b5050905015610a9057386107fc565b855162461bcd60e51b81528084018b9052602a60248201527f5361666545524332303a204552433230206f7065726174696f6e20646964206e6044820152691bdd081cdd58d8d9595960b21b6064820152608490fd5b8380929350010312610b06578a01518015158103610b0657808b38610a81565b8c80fd5b50509150606091610e3d565b88516329b99a9560e11b81528690fd5b90508d81813d8311610b59575b610b3d8183610c4f565b81010312610b5557518181168103610b5557386109cd565b8f80fd5b503d610b33565b8b51903d90823e3d90fd5b85516304fb820960e51b81523481850152602490fd5b8880fd5b8680fd5b6004359063ffffffff82168203610b9c57565b600080fd5b9181601f84011215610b9c5782359167ffffffffffffffff8311610b9c5760208381860195010111610b9c57565b600435906001600160a01b0382168203610b9c57565b6040810190811067ffffffffffffffff821117610c0157604052565b634e487b7160e01b600052604160045260246000fd5b6060810190811067ffffffffffffffff821117610c0157604052565b60a0810190811067ffffffffffffffff821117610c0157604052565b90601f8019910116810190811067ffffffffffffffff821117610c0157604052565b67ffffffffffffffff8111610c0157601f01601f191660200190565b929192610c9982610c71565b91610ca76040519384610c4f565b829481845281830111610b9c578281602093846000960137010152565b60043563ffffffff81168103610b9c5790565b9190826040910312610b9c57604051610cef81610be5565b6020808294805184520151910152565b919082519283825260005b848110610d2b575050826000602080949584010152601f8019910116010190565b602081830181015184830182015201610d0a565b906020909392936040835263ffffffff81511660408401528181015160608401526080610d93610d7d604084015160a08488015260e0870190610cff565b6060840151868203603f190160a0880152610cff565b910151151560c08401526001600160a01b03909416910152565b63ffffffff16806000526001602052604060002054908115610dcd575090565b6024906040519063f6ff4fb760e01b82526004820152fd5b6000546001600160a01b03163303610df957565b606460405162461bcd60e51b815260206004820152602060248201527f4f776e61626c653a2063616c6c6572206973206e6f7420746865206f776e65726044820152fd5b91929015610e9f5750815115610e51575090565b3b15610e5a5790565b60405162461bcd60e51b815260206004820152601d60248201527f416464726573733a2063616c6c20746f206e6f6e2d636f6e74726163740000006044820152606490fd5b825190915015610eb25750805190602001fd5b60405162461bcd60e51b815260206004820152908190610724906024830190610cff56fea264697066735822122084bb8dd58132c943a2f5674ed2fd43e2b6fc41d4fca84ecc68339640559aa79e64736f6c63430008160033","opcodes":"PUSH1 0xA0 CALLVALUE PUSH2 0x164 JUMPI PUSH2 0x10A0 SWAP1 PUSH1 0x1 PUSH1 0x1 PUSH1 0x40 SHL SUB PUSH1 0x1F CODESIZE DUP5 SWAP1 SUB SWAP1 DUP2 ADD PUSH1 0x1F NOT AND DUP4 ADD SWAP1 DUP3 DUP3 GT DUP5 DUP4 LT OR PUSH2 0x169 JUMPI DUP1 DUP5 SWAP2 PUSH1 0x40 SWAP7 DUP8 SWAP5 DUP6 MSTORE DUP4 CODECOPY DUP2 ADD SUB SLT PUSH2 0x164 JUMPI PUSH2 0x56 PUSH1 0x20 PUSH2 0x4F DUP5 PUSH2 0x17F JUMP JUMPDEST SWAP4 ADD PUSH2 0x17F JUMP JUMPDEST PUSH1 0x0 DUP1 SLOAD CALLER PUSH1 0x1 PUSH1 0x1 PUSH1 0xA0 SHL SUB NOT DUP3 AND DUP2 OR DUP4 SSTORE DUP7 MLOAD SWAP3 SWAP6 SWAP3 SWAP4 PUSH1 0x1 PUSH1 0x1 PUSH1 0xA0 SHL SUB SWAP4 DUP5 SWAP4 SWAP2 SWAP3 DUP5 SWAP3 DUP4 AND PUSH32 0x8BE0079C531659141344CD1FD0A4F28419497F9722A3DAAFE3B4186F6B6457E0 DUP11 DUP1 LOG3 AND PUSH1 0x80 MSTORE AND SWAP2 DUP3 ISZERO PUSH2 0x155 JUMPI POP PUSH1 0x80 MLOAD AND SWAP1 DUP2 EXTCODESIZE ISZERO PUSH2 0x151 JUMPI DUP4 SWAP3 SWAP2 PUSH1 0x24 DUP5 SWAP3 DUP8 MLOAD SWAP7 DUP8 SWAP4 DUP5 SWAP3 PUSH4 0xCA5EB5E1 PUSH1 0xE0 SHL DUP5 MSTORE PUSH1 0x4 DUP5 ADD MSTORE GAS CALL DUP1 ISZERO PUSH2 0x147 JUMPI PUSH2 0x122 JUMPI JUMPDEST DUP4 MLOAD PUSH2 0xF0C SWAP1 DUP2 PUSH2 0x194 DUP3 CODECOPY PUSH1 0x80 MLOAD DUP2 DUP2 DUP2 PUSH2 0x1F9 ADD MSTORE DUP2 DUP2 PUSH2 0x3D9 ADD MSTORE DUP2 DUP2 PUSH2 0x582 ADD MSTORE DUP2 DUP2 PUSH2 0x6AE ADD MSTORE DUP2 DUP2 PUSH2 0x85E ADD MSTORE PUSH2 0x995 ADD MSTORE RETURN JUMPDEST DUP3 GT PUSH2 0x133 JUMPI POP DUP2 MSTORE CODESIZE DUP1 DUP1 PUSH2 0xE8 JUMP JUMPDEST PUSH4 0x4E487B71 PUSH1 0xE0 SHL DUP2 MSTORE PUSH1 0x41 PUSH1 0x4 MSTORE PUSH1 0x24 SWAP1 REVERT JUMPDEST DUP5 MLOAD RETURNDATASIZE DUP5 DUP3 RETURNDATACOPY RETURNDATASIZE SWAP1 REVERT JUMPDEST DUP4 DUP1 REVERT JUMPDEST PUSH4 0x2D618D81 PUSH1 0xE2 SHL DUP2 MSTORE PUSH1 0x4 SWAP1 REVERT JUMPDEST PUSH1 0x0 DUP1 REVERT JUMPDEST PUSH4 0x4E487B71 PUSH1 0xE0 SHL PUSH1 0x0 MSTORE PUSH1 0x41 PUSH1 0x4 MSTORE PUSH1 0x24 PUSH1 0x0 REVERT JUMPDEST MLOAD SWAP1 PUSH1 0x1 PUSH1 0x1 PUSH1 0xA0 SHL SUB DUP3 AND DUP3 SUB PUSH2 0x164 JUMPI JUMP INVALID PUSH1 0x80 PUSH1 0x40 DUP2 DUP2 MSTORE PUSH1 0x4 SWAP2 DUP3 CALLDATASIZE LT ISZERO PUSH2 0x16 JUMPI PUSH1 0x0 DUP1 REVERT JUMPDEST PUSH1 0x0 SWAP3 DUP4 CALLDATALOAD PUSH1 0xE0 SHR SWAP2 DUP3 PUSH4 0xF62773D EQ PUSH2 0x73E JUMPI POP DUP2 PUSH4 0x13137D65 EQ PUSH2 0x644 JUMPI DUP2 PUSH4 0x17442B70 EQ PUSH2 0x622 JUMPI DUP2 PUSH4 0x2ED56CE9 EQ PUSH2 0x489 JUMPI DUP2 PUSH4 0x3400288B EQ PUSH2 0x408 JUMPI DUP2 PUSH4 0x5E280F11 EQ PUSH2 0x3C4 JUMPI DUP2 PUSH4 0x715018A6 EQ PUSH2 0x367 JUMPI DUP2 PUSH4 0x7D25A05E EQ PUSH2 0x342 JUMPI DUP2 PUSH4 0x82413EAC EQ PUSH2 0x2E0 JUMPI DUP2 PUSH4 0x8DA5CB5B EQ PUSH2 0x2B8 JUMPI DUP2 PUSH4 0xBB0B6A53 EQ PUSH2 0x284 JUMPI DUP2 PUSH4 0xCA5EB5E1 EQ PUSH2 0x1CA JUMPI DUP2 PUSH4 0xF2FDE38B EQ PUSH2 0xF9 JUMPI POP PUSH4 0xFF7BD03D EQ PUSH2 0xBF JUMPI PUSH1 0x0 DUP1 REVERT JUMPDEST CALLVALUE PUSH2 0xF5 JUMPI PUSH1 0x60 CALLDATASIZE PUSH1 0x3 NOT ADD SLT PUSH2 0xF5 JUMPI DUP1 PUSH1 0x20 SWAP3 PUSH4 0xFFFFFFFF PUSH2 0xE1 PUSH2 0xCC4 JUMP JUMPDEST AND DUP2 MSTORE PUSH1 0x1 DUP5 MSTORE KECCAK256 SLOAD SWAP1 MLOAD SWAP1 PUSH1 0x24 CALLDATALOAD EQ DUP2 MSTORE RETURN JUMPDEST POP DUP1 REVERT JUMPDEST SWAP1 POP CALLVALUE PUSH2 0x1C6 JUMPI PUSH1 0x20 CALLDATASIZE PUSH1 0x3 NOT ADD SLT PUSH2 0x1C6 JUMPI PUSH2 0x114 PUSH2 0xBCF JUMP JUMPDEST SWAP1 PUSH2 0x11D PUSH2 0xDE5 JUMP JUMPDEST PUSH1 0x1 PUSH1 0x1 PUSH1 0xA0 SHL SUB SWAP2 DUP3 AND SWAP3 DUP4 ISZERO PUSH2 0x174 JUMPI POP POP PUSH1 0x0 SLOAD DUP3 PUSH12 0xFFFFFFFFFFFFFFFFFFFFFFFF PUSH1 0xA0 SHL DUP3 AND OR PUSH1 0x0 SSTORE AND PUSH32 0x8BE0079C531659141344CD1FD0A4F28419497F9722A3DAAFE3B4186F6B6457E0 PUSH1 0x0 DUP1 LOG3 DUP1 RETURN JUMPDEST SWAP1 PUSH1 0x20 PUSH1 0x84 SWAP3 MLOAD SWAP2 PUSH3 0x461BCD PUSH1 0xE5 SHL DUP4 MSTORE DUP3 ADD MSTORE PUSH1 0x26 PUSH1 0x24 DUP3 ADD MSTORE PUSH32 0x4F776E61626C653A206E6577206F776E657220697320746865207A65726F2061 PUSH1 0x44 DUP3 ADD MSTORE PUSH6 0x646472657373 PUSH1 0xD0 SHL PUSH1 0x64 DUP3 ADD MSTORE REVERT JUMPDEST DUP3 DUP1 REVERT JUMPDEST SWAP2 SWAP1 POP CALLVALUE PUSH2 0x1C6 JUMPI PUSH1 0x20 CALLDATASIZE PUSH1 0x3 NOT ADD SLT PUSH2 0x1C6 JUMPI PUSH2 0x1E6 PUSH2 0xBCF JUMP JUMPDEST SWAP2 PUSH2 0x1EF PUSH2 0xDE5 JUMP JUMPDEST PUSH1 0x1 PUSH1 0x1 PUSH1 0xA0 SHL SUB PUSH32 0x0 DUP2 AND SWAP4 DUP6 SWAP2 SWAP1 DUP6 EXTCODESIZE ISZERO PUSH2 0x1C6 JUMPI PUSH1 0x24 SWAP1 DUP4 DUP7 MLOAD SWAP8 DUP9 SWAP5 DUP6 SWAP4 PUSH4 0xCA5EB5E1 PUSH1 0xE0 SHL DUP6 MSTORE AND DUP8 DUP5 ADD MSTORE GAS CALL DUP1 ISZERO PUSH2 0x27A JUMPI PUSH2 0x24F JUMPI DUP4 DUP1 RETURN JUMPDEST PUSH8 0xFFFFFFFFFFFFFFFF DUP4 GT PUSH2 0x267 JUMPI POP MSTORE CODESIZE DUP1 DUP1 DUP4 DUP1 RETURN JUMPDEST PUSH4 0x4E487B71 PUSH1 0xE0 SHL DUP5 MSTORE PUSH1 0x41 SWAP1 MSTORE PUSH1 0x24 DUP4 REVERT JUMPDEST DUP3 MLOAD RETURNDATASIZE DUP7 DUP3 RETURNDATACOPY RETURNDATASIZE SWAP1 REVERT JUMPDEST POP POP CALLVALUE PUSH2 0xF5 JUMPI PUSH1 0x20 CALLDATASIZE PUSH1 0x3 NOT ADD SLT PUSH2 0xF5 JUMPI DUP1 PUSH1 0x20 SWAP3 PUSH4 0xFFFFFFFF PUSH2 0x2A8 PUSH2 0xB89 JUMP JUMPDEST AND DUP2 MSTORE PUSH1 0x1 DUP5 MSTORE KECCAK256 SLOAD SWAP1 MLOAD SWAP1 DUP2 MSTORE RETURN JUMPDEST POP POP CALLVALUE PUSH2 0xF5 JUMPI DUP2 PUSH1 0x3 NOT CALLDATASIZE ADD SLT PUSH2 0xF5 JUMPI SWAP1 SLOAD SWAP1 MLOAD PUSH1 0x1 PUSH1 0x1 PUSH1 0xA0 SHL SUB SWAP1 SWAP2 AND DUP2 MSTORE PUSH1 0x20 SWAP1 RETURN JUMPDEST SWAP1 POP CALLVALUE PUSH2 0x1C6 JUMPI CALLDATASIZE PUSH1 0x3 NOT ADD PUSH1 0xA0 DUP2 SLT PUSH2 0x33E JUMPI PUSH1 0x60 SGT PUSH2 0x1C6 JUMPI PUSH1 0x64 CALLDATALOAD SWAP1 PUSH8 0xFFFFFFFFFFFFFFFF DUP3 GT PUSH2 0x33E JUMPI PUSH2 0x31A SWAP2 CALLDATASIZE SWAP2 ADD PUSH2 0xBA1 JUMP JUMPDEST POP POP PUSH1 0x84 CALLDATALOAD PUSH1 0x1 PUSH1 0x1 PUSH1 0xA0 SHL SUB DUP2 AND SWAP2 SWAP1 DUP3 SWAP1 SUB PUSH2 0x1C6 JUMPI PUSH1 0x20 SWAP3 POP MLOAD SWAP1 ADDRESS EQ DUP2 MSTORE RETURN JUMPDEST DUP4 DUP1 REVERT JUMPDEST POP POP CALLVALUE PUSH2 0xF5 JUMPI DUP1 PUSH1 0x3 NOT CALLDATASIZE ADD SLT PUSH2 0xF5 JUMPI SWAP1 PUSH1 0x20 SWAP2 PUSH2 0x360 PUSH2 0xB89 JUMP JUMPDEST POP MLOAD SWAP1 DUP2 MSTORE RETURN JUMPDEST DUP4 CALLVALUE PUSH2 0x3C1 JUMPI DUP1 PUSH1 0x3 NOT CALLDATASIZE ADD SLT PUSH2 0x3C1 JUMPI PUSH2 0x380 PUSH2 0xDE5 JUMP JUMPDEST DUP1 SLOAD PUSH1 0x1 PUSH1 0x1 PUSH1 0xA0 SHL SUB NOT DUP2 AND DUP3 SSTORE DUP2 SWAP1 PUSH1 0x1 PUSH1 0x1 PUSH1 0xA0 SHL SUB AND PUSH32 0x8BE0079C531659141344CD1FD0A4F28419497F9722A3DAAFE3B4186F6B6457E0 DUP3 DUP1 LOG3 DUP1 RETURN JUMPDEST DUP1 REVERT JUMPDEST POP POP CALLVALUE PUSH2 0xF5 JUMPI DUP2 PUSH1 0x3 NOT CALLDATASIZE ADD SLT PUSH2 0xF5 JUMPI MLOAD PUSH32 0x0 PUSH1 0x1 PUSH1 0x1 PUSH1 0xA0 SHL SUB AND DUP2 MSTORE PUSH1 0x20 SWAP1 RETURN JUMPDEST POP POP CALLVALUE PUSH2 0xF5 JUMPI DUP1 PUSH1 0x3 NOT CALLDATASIZE ADD SLT PUSH2 0xF5 JUMPI PUSH32 0x238399D427B947898EDB290F5FF0F9109849B1C3BA196A42E35F00C50A54B98B SWAP1 PUSH2 0x444 PUSH2 0xB89 JUMP JUMPDEST PUSH2 0x483 PUSH1 0x24 CALLDATALOAD SWAP3 PUSH2 0x453 PUSH2 0xDE5 JUMP JUMPDEST PUSH4 0xFFFFFFFF DUP4 AND DUP7 MSTORE PUSH1 0x1 PUSH1 0x20 MSTORE DUP4 DUP2 DUP8 KECCAK256 SSTORE MLOAD SWAP3 DUP4 SWAP3 DUP4 PUSH1 0x20 SWAP1 SWAP4 SWAP3 SWAP2 SWAP4 PUSH4 0xFFFFFFFF PUSH1 0x40 DUP3 ADD SWAP6 AND DUP2 MSTORE ADD MSTORE JUMP JUMPDEST SUB SWAP1 LOG1 DUP1 RETURN JUMPDEST DUP4 SWAP2 POP CALLVALUE PUSH2 0xF5 JUMPI PUSH1 0x80 CALLDATASIZE PUSH1 0x3 NOT ADD SLT PUSH2 0xF5 JUMPI PUSH2 0x4A5 PUSH2 0xB89 JUMP JUMPDEST PUSH8 0xFFFFFFFFFFFFFFFF PUSH1 0x24 CALLDATALOAD DUP2 DUP2 GT PUSH2 0x61E JUMPI PUSH2 0x4C5 SWAP1 CALLDATASIZE SWAP1 DUP6 ADD PUSH2 0xBA1 JUMP JUMPDEST SWAP2 PUSH1 0x44 CALLDATALOAD SWAP1 DUP2 GT PUSH2 0x61A JUMPI PUSH2 0x4DD SWAP1 CALLDATASIZE SWAP1 DUP7 ADD PUSH2 0xBA1 JUMP JUMPDEST SWAP2 PUSH1 0x64 CALLDATALOAD SWAP4 DUP5 ISZERO ISZERO DUP1 SWAP6 SUB PUSH2 0x616 JUMPI DUP8 SWAP7 SWAP5 SWAP3 PUSH2 0x518 DUP11 SWAP8 SWAP6 SWAP4 PUSH2 0x520 SWAP4 PUSH2 0x57E SWAP12 PUSH1 0x20 DUP12 MLOAD PUSH2 0x50C DUP2 PUSH2 0xBE5 JUMP JUMPDEST DUP3 DUP2 MSTORE ADD MSTORE CALLDATASIZE SWAP2 PUSH2 0xC8D JUMP JUMPDEST SWAP3 CALLDATASIZE SWAP2 PUSH2 0xC8D JUMP JUMPDEST SWAP1 DUP7 PUSH1 0x20 DUP8 MLOAD PUSH2 0x52F DUP2 PUSH2 0xBE5 JUMP JUMPDEST DUP3 DUP2 MSTORE ADD MSTORE PUSH2 0x53D DUP5 PUSH2 0xDAD JUMP JUMPDEST PUSH4 0xFFFFFFFF DUP8 MLOAD SWAP6 PUSH2 0x54E DUP8 PUSH2 0xC33 JUMP JUMPDEST AND DUP6 MSTORE PUSH1 0x20 DUP6 ADD MSTORE DUP6 DUP5 ADD MSTORE PUSH1 0x60 DUP4 ADD MSTORE PUSH1 0x80 DUP3 ADD MSTORE DUP3 MLOAD PUSH4 0x1BB8518B PUSH1 0xE3 SHL DUP2 MSTORE SWAP5 DUP6 SWAP3 DUP4 SWAP3 ADDRESS SWAP2 DUP5 ADD PUSH2 0xD3F JUMP JUMPDEST SUB DUP2 PUSH32 0x0 PUSH1 0x1 PUSH1 0x1 PUSH1 0xA0 SHL SUB AND GAS STATICCALL SWAP2 DUP3 ISZERO PUSH2 0x60A JUMPI DUP2 SWAP3 PUSH2 0x5CE JUMPI JUMPDEST POP POP PUSH1 0x20 DUP3 MLOAD SWAP2 DUP1 MLOAD DUP4 MSTORE ADD MLOAD PUSH1 0x20 DUP3 ADD MSTORE RETURN JUMPDEST SWAP1 SWAP3 DUP1 SWAP3 POP RETURNDATASIZE DUP4 GT PUSH2 0x603 JUMPI JUMPDEST PUSH2 0x5E5 DUP2 DUP4 PUSH2 0xC4F JUMP JUMPDEST DUP2 ADD SWAP1 DUP3 DUP2 DUP4 SUB SLT PUSH2 0x33E JUMPI PUSH2 0x5FC SWAP3 SWAP4 POP PUSH2 0xCD7 JUMP JUMPDEST DUP3 DUP1 PUSH2 0x5BA JUMP JUMPDEST POP RETURNDATASIZE PUSH2 0x5DB JUMP JUMPDEST POP DUP3 MLOAD SWAP1 RETURNDATASIZE SWAP1 DUP3 RETURNDATACOPY RETURNDATASIZE SWAP1 REVERT JUMPDEST DUP8 DUP1 REVERT JUMPDEST DUP6 DUP1 REVERT JUMPDEST DUP5 DUP1 REVERT JUMPDEST DUP3 DUP5 CALLVALUE PUSH2 0x3C1 JUMPI DUP1 PUSH1 0x3 NOT CALLDATASIZE ADD SLT PUSH2 0x3C1 JUMPI POP DUP1 MLOAD PUSH1 0x1 DUP2 MSTORE PUSH1 0x2 PUSH1 0x20 DUP3 ADD MSTORE RETURN JUMPDEST SWAP1 POP CALLDATASIZE PUSH1 0x3 NOT ADD PUSH1 0xE0 DUP2 SLT PUSH2 0x33E JUMPI PUSH1 0x60 SGT PUSH2 0x1C6 JUMPI PUSH8 0xFFFFFFFFFFFFFFFF PUSH1 0x84 CALLDATALOAD DUP2 DUP2 GT PUSH2 0x61E JUMPI PUSH2 0x67A SWAP1 CALLDATASIZE SWAP1 DUP5 ADD PUSH2 0xBA1 JUMP JUMPDEST POP PUSH1 0x1 PUSH1 0x1 PUSH1 0xA0 SHL SUB SWAP2 SWAP1 POP PUSH1 0xA4 CALLDATALOAD DUP3 DUP2 AND SUB PUSH2 0x61E JUMPI PUSH1 0xC4 CALLDATALOAD SWAP1 DUP2 GT PUSH2 0x61E JUMPI PUSH2 0x6A8 SWAP1 CALLDATASIZE SWAP1 DUP5 ADD PUSH2 0xBA1 JUMP JUMPDEST POP POP CALLER SWAP1 PUSH32 0x0 AND SUB PUSH2 0x728 JUMPI PUSH2 0x6E3 PUSH2 0x6DE PUSH2 0xCC4 JUMP JUMPDEST PUSH2 0xDAD JUMP JUMPDEST PUSH1 0x24 CALLDATALOAD DUP1 SWAP2 SUB PUSH2 0x6F1 JUMPI DUP4 DUP1 RETURN JUMPDEST PUSH2 0x724 SWAP1 PUSH2 0x6FD PUSH2 0xCC4 JUMP JUMPDEST SWAP4 MLOAD PUSH4 0x309AFAF3 PUSH1 0xE2 SHL DUP2 MSTORE PUSH4 0xFFFFFFFF SWAP1 SWAP5 AND SWAP3 DUP5 ADD SWAP3 DUP4 MSTORE PUSH1 0x20 DUP4 ADD MSTORE DUP3 SWAP2 PUSH1 0x40 ADD SWAP1 JUMP JUMPDEST SUB SWAP1 REVERT JUMPDEST PUSH1 0x24 SWAP2 MLOAD SWAP1 PUSH4 0x91AC5E4F PUSH1 0xE0 SHL DUP3 MSTORE CALLER SWAP1 DUP3 ADD MSTORE REVERT JUMPDEST SWAP2 POP PUSH1 0x60 CALLDATASIZE PUSH1 0x3 NOT ADD SLT PUSH2 0x33E JUMPI PUSH2 0x754 PUSH2 0xB89 JUMP JUMPDEST SWAP1 PUSH1 0x24 CALLDATALOAD SWAP4 PUSH8 0xFFFFFFFFFFFFFFFF SWAP5 DUP6 DUP2 GT PUSH2 0xB85 JUMPI PUSH2 0x777 SWAP1 CALLDATASIZE SWAP1 DUP5 ADD PUSH2 0xBA1 JUMP JUMPDEST SWAP2 SWAP1 SWAP6 PUSH1 0x44 CALLDATALOAD DUP2 DUP2 GT PUSH2 0xB81 JUMPI PUSH2 0x791 SWAP1 CALLDATASIZE SWAP1 DUP7 ADD PUSH2 0xBA1 JUMP JUMPDEST SWAP1 SWAP5 PUSH2 0x79C DUP9 PUSH2 0xBE5 JUMP JUMPDEST CALLVALUE DUP9 MSTORE PUSH1 0x20 SWAP8 PUSH2 0x7C0 DUP10 DUP3 ADD SWAP8 DUP13 DUP10 MSTORE PUSH2 0x7B8 DUP13 DUP10 CALLDATASIZE SWAP2 PUSH2 0xC8D JUMP JUMPDEST SWAP5 CALLDATASIZE SWAP2 PUSH2 0xC8D JUMP JUMPDEST SWAP1 DUP12 DUP7 DUP1 MLOAD PUSH2 0x7CE DUP2 PUSH2 0xC17 JUMP JUMPDEST DUP3 DUP2 MSTORE DUP3 DUP14 DUP3 ADD MSTORE DUP2 MLOAD SWAP3 PUSH2 0x7E2 DUP5 PUSH2 0xBE5 JUMP JUMPDEST DUP1 DUP5 MSTORE DUP14 DUP5 ADD MSTORE ADD MSTORE MLOAD SWAP1 DUP2 CALLVALUE SUB PUSH2 0xB6B JUMPI DUP8 MLOAD DUP1 PUSH2 0x97F JUMPI JUMPDEST POP SWAP1 PUSH2 0x85A SWAP5 SWAP4 SWAP3 SWAP2 PUSH2 0x80E DUP11 PUSH2 0xDAD JUMP JUMPDEST SWAP9 MLOAD ISZERO ISZERO SWAP4 PUSH4 0xFFFFFFFF DUP9 MLOAD SWAP12 PUSH2 0x824 DUP14 PUSH2 0xC33 JUMP JUMPDEST AND SWAP10 DUP11 DUP13 MSTORE DUP13 DUP13 ADD MSTORE DUP8 DUP12 ADD MSTORE PUSH1 0x60 DUP11 ADD MSTORE PUSH1 0x80 SWAP9 DUP10 SWAP4 DUP5 DUP3 ADD MSTORE DUP7 MLOAD DUP1 SWAP7 DUP2 SWAP5 DUP3 SWAP4 PUSH4 0x2637A45 PUSH1 0xE4 SHL DUP5 MSTORE CALLER SWAP2 DUP5 ADD PUSH2 0xD3F JUMP JUMPDEST SUB SWAP2 PUSH32 0x0 PUSH1 0x1 PUSH1 0x1 PUSH1 0xA0 SHL SUB AND GAS CALL DUP1 ISZERO PUSH2 0x975 JUMPI PUSH2 0x8EB JUMPI JUMPDEST POP POP DUP2 PUSH32 0xE259E3963952C0F1E65C9C30D6F7A49654B93346CB11F21E2BD4E7C340FA0983 SWAP7 PUSH1 0x60 DUP4 MLOAD SWAP8 DUP9 SWAP7 DUP8 MSTORE DUP7 ADD MSTORE DUP2 PUSH1 0x60 DUP7 ADD MSTORE DUP6 DUP6 ADD CALLDATACOPY DUP3 DUP3 ADD DUP5 ADD DUP8 SWAP1 MSTORE CALLER SWAP1 DUP4 ADD MSTORE PUSH1 0x1F ADD PUSH1 0x1F NOT AND DUP2 ADD SUB ADD SWAP1 LOG1 DUP1 RETURN JUMPDEST SWAP1 SWAP7 DUP6 RETURNDATASIZE DUP8 GT PUSH2 0x96E JUMPI JUMPDEST PUSH2 0x900 DUP2 DUP11 PUSH2 0xC4F JUMP JUMPDEST DUP9 ADD SWAP2 DUP7 DUP10 DUP5 SUB SLT PUSH2 0x96A JUMPI DUP4 MLOAD SWAP1 PUSH2 0x918 DUP3 PUSH2 0xC17 JUMP JUMPDEST DUP10 MLOAD DUP3 MSTORE DUP9 DUP11 ADD MLOAD SWAP1 DUP2 AND DUP2 SUB PUSH2 0x966 JUMPI PUSH2 0x95D DUP7 SWAP5 DUP7 PUSH32 0xE259E3963952C0F1E65C9C30D6F7A49654B93346CB11F21E2BD4E7C340FA0983 SWAP13 DUP2 SWAP5 DUP14 DUP8 ADD MSTORE ADD PUSH2 0xCD7 JUMP JUMPDEST SWAP2 ADD MSTORE SWAP7 PUSH2 0x893 JUMP JUMPDEST DUP11 DUP1 REVERT JUMPDEST DUP10 DUP1 REVERT JUMPDEST POP RETURNDATASIZE PUSH2 0x8F6 JUMP JUMPDEST DUP4 MLOAD RETURNDATASIZE DUP12 DUP3 RETURNDATACOPY RETURNDATASIZE SWAP1 REVERT JUMPDEST DUP7 MLOAD PUSH4 0x393F8765 PUSH1 0xE2 SHL DUP2 MSTORE PUSH1 0x1 PUSH1 0x1 PUSH1 0xA0 SHL SUB PUSH32 0x0 DUP2 AND SWAP2 DUP16 SWAP1 DUP15 DUP2 DUP10 DUP2 DUP8 GAS STATICCALL SWAP2 DUP3 ISZERO PUSH2 0xB60 JUMPI SWAP2 PUSH2 0xB26 JUMPI JUMPDEST POP AND SWAP1 DUP2 ISZERO PUSH2 0xB16 JUMPI DUP15 PUSH2 0xA74 SWAP4 SWAP3 DUP11 DUP16 SWAP4 DUP4 DUP1 SWAP2 DUP4 MLOAD SWAP8 DUP8 DUP10 ADD SWAP2 PUSH4 0x23B872DD PUSH1 0xE0 SHL DUP4 MSTORE CALLER PUSH1 0x24 DUP12 ADD MSTORE PUSH1 0x44 DUP11 ADD MSTORE PUSH1 0x64 DUP10 ADD MSTORE PUSH1 0x64 DUP9 MSTORE PUSH2 0xA10 DUP9 PUSH2 0xC33 JUMP JUMPDEST DUP4 MLOAD SWAP8 PUSH2 0xA1C DUP10 PUSH2 0xBE5 JUMP JUMPDEST DUP8 DUP10 MSTORE PUSH32 0x5361666545524332303A206C6F772D6C6576656C2063616C6C206661696C6564 DUP9 DUP11 ADD MSTORE MLOAD SWAP1 DUP3 DUP7 GAS CALL SWAP3 RETURNDATASIZE ISZERO PUSH2 0xB0A JUMPI RETURNDATASIZE PUSH2 0xA67 PUSH2 0xA5E DUP3 PUSH2 0xC71 JUMP JUMPDEST SWAP4 MLOAD SWAP4 DUP5 PUSH2 0xC4F JUMP JUMPDEST DUP3 MSTORE DUP2 SWAP5 RETURNDATASIZE SWAP3 ADD RETURNDATACOPY PUSH2 0xE3D JUMP JUMPDEST DUP1 MLOAD DUP12 DUP2 ISZERO SWAP2 DUP3 ISZERO PUSH2 0xAE6 JUMPI JUMPDEST POP POP SWAP1 POP ISZERO PUSH2 0xA90 JUMPI CODESIZE PUSH2 0x7FC JUMP JUMPDEST DUP6 MLOAD PUSH3 0x461BCD PUSH1 0xE5 SHL DUP2 MSTORE DUP1 DUP5 ADD DUP12 SWAP1 MSTORE PUSH1 0x2A PUSH1 0x24 DUP3 ADD MSTORE PUSH32 0x5361666545524332303A204552433230206F7065726174696F6E20646964206E PUSH1 0x44 DUP3 ADD MSTORE PUSH10 0x1BDD081CDD58D8D95959 PUSH1 0xB2 SHL PUSH1 0x64 DUP3 ADD MSTORE PUSH1 0x84 SWAP1 REVERT JUMPDEST DUP4 DUP1 SWAP3 SWAP4 POP ADD SUB SLT PUSH2 0xB06 JUMPI DUP11 ADD MLOAD DUP1 ISZERO ISZERO DUP2 SUB PUSH2 0xB06 JUMPI DUP1 DUP12 CODESIZE PUSH2 0xA81 JUMP JUMPDEST DUP13 DUP1 REVERT JUMPDEST POP POP SWAP2 POP PUSH1 0x60 SWAP2 PUSH2 0xE3D JUMP JUMPDEST DUP9 MLOAD PUSH4 0x29B99A95 PUSH1 0xE1 SHL DUP2 MSTORE DUP7 SWAP1 REVERT JUMPDEST SWAP1 POP DUP14 DUP2 DUP2 RETURNDATASIZE DUP4 GT PUSH2 0xB59 JUMPI JUMPDEST PUSH2 0xB3D DUP2 DUP4 PUSH2 0xC4F JUMP JUMPDEST DUP2 ADD SUB SLT PUSH2 0xB55 JUMPI MLOAD DUP2 DUP2 AND DUP2 SUB PUSH2 0xB55 JUMPI CODESIZE PUSH2 0x9CD JUMP JUMPDEST DUP16 DUP1 REVERT JUMPDEST POP RETURNDATASIZE PUSH2 0xB33 JUMP JUMPDEST DUP12 MLOAD SWAP1 RETURNDATASIZE SWAP1 DUP3 RETURNDATACOPY RETURNDATASIZE SWAP1 REVERT JUMPDEST DUP6 MLOAD PUSH4 0x4FB8209 PUSH1 0xE5 SHL DUP2 MSTORE CALLVALUE DUP2 DUP6 ADD MSTORE PUSH1 0x24 SWAP1 REVERT JUMPDEST DUP9 DUP1 REVERT JUMPDEST DUP7 DUP1 REVERT JUMPDEST PUSH1 0x4 CALLDATALOAD SWAP1 PUSH4 0xFFFFFFFF DUP3 AND DUP3 SUB PUSH2 0xB9C JUMPI JUMP JUMPDEST PUSH1 0x0 DUP1 REVERT JUMPDEST SWAP2 DUP2 PUSH1 0x1F DUP5 ADD SLT ISZERO PUSH2 0xB9C JUMPI DUP3 CALLDATALOAD SWAP2 PUSH8 0xFFFFFFFFFFFFFFFF DUP4 GT PUSH2 0xB9C JUMPI PUSH1 0x20 DUP4 DUP2 DUP7 ADD SWAP6 ADD ADD GT PUSH2 0xB9C JUMPI JUMP JUMPDEST PUSH1 0x4 CALLDATALOAD SWAP1 PUSH1 0x1 PUSH1 0x1 PUSH1 0xA0 SHL SUB DUP3 AND DUP3 SUB PUSH2 0xB9C JUMPI JUMP JUMPDEST PUSH1 0x40 DUP2 ADD SWAP1 DUP2 LT PUSH8 0xFFFFFFFFFFFFFFFF DUP3 GT OR PUSH2 0xC01 JUMPI PUSH1 0x40 MSTORE JUMP JUMPDEST PUSH4 0x4E487B71 PUSH1 0xE0 SHL PUSH1 0x0 MSTORE PUSH1 0x41 PUSH1 0x4 MSTORE PUSH1 0x24 PUSH1 0x0 REVERT JUMPDEST PUSH1 0x60 DUP2 ADD SWAP1 DUP2 LT PUSH8 0xFFFFFFFFFFFFFFFF DUP3 GT OR PUSH2 0xC01 JUMPI PUSH1 0x40 MSTORE JUMP JUMPDEST PUSH1 0xA0 DUP2 ADD SWAP1 DUP2 LT PUSH8 0xFFFFFFFFFFFFFFFF DUP3 GT OR PUSH2 0xC01 JUMPI PUSH1 0x40 MSTORE JUMP JUMPDEST SWAP1 PUSH1 0x1F DUP1 NOT SWAP2 ADD AND DUP2 ADD SWAP1 DUP2 LT PUSH8 0xFFFFFFFFFFFFFFFF DUP3 GT OR PUSH2 0xC01 JUMPI PUSH1 0x40 MSTORE JUMP JUMPDEST PUSH8 0xFFFFFFFFFFFFFFFF DUP2 GT PUSH2 0xC01 JUMPI PUSH1 0x1F ADD PUSH1 0x1F NOT AND PUSH1 0x20 ADD SWAP1 JUMP JUMPDEST SWAP3 SWAP2 SWAP3 PUSH2 0xC99 DUP3 PUSH2 0xC71 JUMP JUMPDEST SWAP2 PUSH2 0xCA7 PUSH1 0x40 MLOAD SWAP4 DUP5 PUSH2 0xC4F JUMP JUMPDEST DUP3 SWAP5 DUP2 DUP5 MSTORE DUP2 DUP4 ADD GT PUSH2 0xB9C JUMPI DUP3 DUP2 PUSH1 0x20 SWAP4 DUP5 PUSH1 0x0 SWAP7 ADD CALLDATACOPY ADD ADD MSTORE JUMP JUMPDEST PUSH1 0x4 CALLDATALOAD PUSH4 0xFFFFFFFF DUP2 AND DUP2 SUB PUSH2 0xB9C JUMPI SWAP1 JUMP JUMPDEST SWAP2 SWAP1 DUP3 PUSH1 0x40 SWAP2 SUB SLT PUSH2 0xB9C JUMPI PUSH1 0x40 MLOAD PUSH2 0xCEF DUP2 PUSH2 0xBE5 JUMP JUMPDEST PUSH1 0x20 DUP1 DUP3 SWAP5 DUP1 MLOAD DUP5 MSTORE ADD MLOAD SWAP2 ADD MSTORE JUMP JUMPDEST SWAP2 SWAP1 DUP3 MLOAD SWAP3 DUP4 DUP3 MSTORE PUSH1 0x0 JUMPDEST DUP5 DUP2 LT PUSH2 0xD2B JUMPI POP POP DUP3 PUSH1 0x0 PUSH1 0x20 DUP1 SWAP5 SWAP6 DUP5 ADD ADD MSTORE PUSH1 0x1F DUP1 NOT SWAP2 ADD AND ADD ADD SWAP1 JUMP JUMPDEST PUSH1 0x20 DUP2 DUP4 ADD DUP2 ADD MLOAD DUP5 DUP4 ADD DUP3 ADD MSTORE ADD PUSH2 0xD0A JUMP JUMPDEST SWAP1 PUSH1 0x20 SWAP1 SWAP4 SWAP3 SWAP4 PUSH1 0x40 DUP4 MSTORE PUSH4 0xFFFFFFFF DUP2 MLOAD AND PUSH1 0x40 DUP5 ADD MSTORE DUP2 DUP2 ADD MLOAD PUSH1 0x60 DUP5 ADD MSTORE PUSH1 0x80 PUSH2 0xD93 PUSH2 0xD7D PUSH1 0x40 DUP5 ADD MLOAD PUSH1 0xA0 DUP5 DUP9 ADD MSTORE PUSH1 0xE0 DUP8 ADD SWAP1 PUSH2 0xCFF JUMP JUMPDEST PUSH1 0x60 DUP5 ADD MLOAD DUP7 DUP3 SUB PUSH1 0x3F NOT ADD PUSH1 0xA0 DUP9 ADD MSTORE PUSH2 0xCFF JUMP JUMPDEST SWAP2 ADD MLOAD ISZERO ISZERO PUSH1 0xC0 DUP5 ADD MSTORE PUSH1 0x1 PUSH1 0x1 PUSH1 0xA0 SHL SUB SWAP1 SWAP5 AND SWAP2 ADD MSTORE JUMP JUMPDEST PUSH4 0xFFFFFFFF AND DUP1 PUSH1 0x0 MSTORE PUSH1 0x1 PUSH1 0x20 MSTORE PUSH1 0x40 PUSH1 0x0 KECCAK256 SLOAD SWAP1 DUP2 ISZERO PUSH2 0xDCD JUMPI POP SWAP1 JUMP JUMPDEST PUSH1 0x24 SWAP1 PUSH1 0x40 MLOAD SWAP1 PUSH4 0xF6FF4FB7 PUSH1 0xE0 SHL DUP3 MSTORE PUSH1 0x4 DUP3 ADD MSTORE REVERT JUMPDEST PUSH1 0x0 SLOAD PUSH1 0x1 PUSH1 0x1 PUSH1 0xA0 SHL SUB AND CALLER SUB PUSH2 0xDF9 JUMPI JUMP JUMPDEST PUSH1 0x64 PUSH1 0x40 MLOAD PUSH3 0x461BCD PUSH1 0xE5 SHL DUP2 MSTORE PUSH1 0x20 PUSH1 0x4 DUP3 ADD MSTORE PUSH1 0x20 PUSH1 0x24 DUP3 ADD MSTORE PUSH32 0x4F776E61626C653A2063616C6C6572206973206E6F7420746865206F776E6572 PUSH1 0x44 DUP3 ADD MSTORE REVERT JUMPDEST SWAP2 SWAP3 SWAP1 ISZERO PUSH2 0xE9F JUMPI POP DUP2 MLOAD ISZERO PUSH2 0xE51 JUMPI POP SWAP1 JUMP JUMPDEST EXTCODESIZE ISZERO PUSH2 0xE5A JUMPI SWAP1 JUMP JUMPDEST PUSH1 0x40 MLOAD PUSH3 0x461BCD PUSH1 0xE5 SHL DUP2 MSTORE PUSH1 0x20 PUSH1 0x4 DUP3 ADD MSTORE PUSH1 0x1D PUSH1 0x24 DUP3 ADD MSTORE PUSH32 0x416464726573733A2063616C6C20746F206E6F6E2D636F6E7472616374000000 PUSH1 0x44 DUP3 ADD MSTORE PUSH1 0x64 SWAP1 REVERT JUMPDEST DUP3 MLOAD SWAP1 SWAP2 POP ISZERO PUSH2 0xEB2 JUMPI POP DUP1 MLOAD SWAP1 PUSH1 0x20 ADD REVERT JUMPDEST PUSH1 0x40 MLOAD PUSH3 0x461BCD PUSH1 0xE5 SHL DUP2 MSTORE PUSH1 0x20 PUSH1 0x4 DUP3 ADD MSTORE SWAP1 DUP2 SWAP1 PUSH2 0x724 SWAP1 PUSH1 0x24 DUP4 ADD SWAP1 PUSH2 0xCFF JUMP INVALID LOG2 PUSH5 0x6970667358 0x22 SLT KECCAK256 DUP5 0xBB DUP14 0xD5 DUP2 ORIGIN 0xC9 NUMBER LOG2 CREATE2 PUSH8 0x4ED2FD43E2B6FC41 0xD4 0xFC 0xA8 0x4E 0xCC PUSH9 0x339640559AA79E6473 PUSH16 0x6C634300081600330000000000000000 "},"methodIdentifiers":{"allowInitializePath((uint32,bytes32,uint64))":"ff7bd03d","endpoint()":"5e280f11","isComposeMsgSender((uint32,bytes32,uint64),bytes,address)":"82413eac","lzReceive((uint32,bytes32,uint64),bytes32,bytes,address,bytes)":"13137d65","nextNonce(uint32,bytes32)":"7d25a05e","oAppVersion()":"17442b70","owner()":"8da5cb5b","peers(uint32)":"bb0b6a53","quoteSend(uint32,bytes,bytes,bool)":"2ed56ce9","renounceOwnership()":"715018a6","send(uint32,bytes,bytes)":"0f62773d","setDelegate(address)":"ca5eb5e1","setPeer(uint32,bytes32)":"3400288b","transferOwnership(address)":"f2fde38b"}}}}}