{"contracts/Mev.sol":{"Mev":{"abi":[{"inputs":[],"stateMutability":"nonpayable","type":"constructor"},{"inputs":[],"name":"AmountZero","type":"error"},{"inputs":[],"name":"ArrayLengthMismatch","type":"error"},{"inputs":[],"name":"FunctionNotFound","type":"error"},{"inputs":[],"name":"InvalidAddress","type":"error"},{"inputs":[],"name":"InvalidLength","type":"error"},{"inputs":[],"name":"NotWithdrawer","type":"error"},{"inputs":[],"name":"TransferFailed","type":"error"},{"anonymous":false,"inputs":[{"indexed":true,"internalType":"address","name":"previousOwner","type":"address"},{"indexed":true,"internalType":"address","name":"newOwner","type":"address"}],"name":"OwnershipTransferred","type":"event"},{"stateMutability":"payable","type":"fallback"},{"inputs":[],"name":"NETUID_COUNT","outputs":[{"internalType":"uint256","name":"","type":"uint256"}],"stateMutability":"view","type":"function"},{"inputs":[{"internalType":"address","name":"to","type":"address"},{"internalType":"uint256","name":"amount","type":"uint256"}],"name":"emergencyWithdrawTao","outputs":[],"stateMutability":"nonpayable","type":"function"},{"inputs":[],"name":"getAlphaPrices","outputs":[{"internalType":"uint256[129]","name":"alphaPrices","type":"uint256[129]"}],"stateMutability":"view","type":"function"},{"inputs":[],"name":"getInfo","outputs":[{"internalType":"bool","name":"staked","type":"bool"},{"internalType":"uint256","name":"ownerBalance","type":"uint256"},{"internalType":"uint256","name":"contractBalance","type":"uint256"}],"stateMutability":"view","type":"function"},{"inputs":[{"internalType":"bytes32[]","name":"hotkeys","type":"bytes32[]"},{"internalType":"bytes32[]","name":"coldkeys","type":"bytes32[]"}],"name":"getStakedAmounts","outputs":[{"internalType":"uint256[129][]","name":"amounts","type":"uint256[129][]"}],"stateMutability":"view","type":"function"},{"inputs":[],"name":"getTaoInPools","outputs":[{"internalType":"uint64[129]","name":"taoInPools","type":"uint64[129]"}],"stateMutability":"view","type":"function"},{"inputs":[],"name":"lastStakeTimestamp","outputs":[{"internalType":"uint256","name":"","type":"uint256"}],"stateMutability":"view","type":"function"},{"inputs":[],"name":"owner","outputs":[{"internalType":"address","name":"","type":"address"}],"stateMutability":"view","type":"function"},{"inputs":[],"name":"removeStakeAlpha","outputs":[],"stateMutability":"nonpayable","type":"function"},{"inputs":[],"name":"renounceOwnership","outputs":[],"stateMutability":"nonpayable","type":"function"},{"inputs":[{"internalType":"address","name":"newWithdrawer","type":"address"}],"name":"setWithdrawer","outputs":[],"stateMutability":"nonpayable","type":"function"},{"inputs":[{"internalType":"uint256","name":"stakeAmount","type":"uint256"},{"internalType":"uint256","name":"alphaNetuid","type":"uint256"},{"internalType":"uint256","name":"alphaPrice","type":"uint256"},{"internalType":"bytes32","name":"_validatorHotkey","type":"bytes32"},{"internalType":"uint256","name":"stakedamount","type":"uint256"},{"internalType":"bytes32","name":"stakedhotkey","type":"bytes32"},{"internalType":"bytes32","name":"stakedcoldkey","type":"bytes32"},{"internalType":"bytes32[]","name":"mevHotkeyBytesKeys","type":"bytes32[]"},{"internalType":"bytes32[]","name":"mevColdkeyBytesKeys","type":"bytes32[]"}],"name":"stakeTaoForAlpha","outputs":[],"stateMutability":"payable","type":"function"},{"inputs":[{"internalType":"address","name":"newOwner","type":"address"}],"name":"transferOwnership","outputs":[],"stateMutability":"nonpayable","type":"function"},{"inputs":[{"internalType":"uint256[]","name":"newNetuids","type":"uint256[]"}],"name":"updateNetuids","outputs":[],"stateMutability":"nonpayable","type":"function"},{"inputs":[{"internalType":"address","name":"to","type":"address"}],"name":"withdrawAll","outputs":[],"stateMutability":"nonpayable","type":"function"},{"inputs":[],"name":"withdrawer","outputs":[{"internalType":"address","name":"","type":"address"}],"stateMutability":"view","type":"function"},{"stateMutability":"payable","type":"receive"}],"evm":{"bytecode":{"linkReferences":{},"object":"6080346104bd5760008054336001600160a01b03198083168217845593916001600160a01b03167f8be0079c531659141344cd1fd0a4f28419497f9722a3daafe3b4186f6b6457e08480a360018080559061102081016001600160401b038111828210176104a9576040526001815260209060376020820152606e6040820152604c606082015260516080820152600760a0820152607060c0820152601360e0820152836101008201526012610120820152602f6101408201526054610160820152607161018082015260246101a082015260336101c082015260626101e0820152603161020082015260756102208201526027610240820152605a610260820152603c61028082015260676102a082015260406102c0820152605f6102e0820152607c610300820152606c61032082015260186103408201526057610360820152606161038082015260536103a082015260436103c0820152603b6103e08201526025610400820152601e61042082015260026104408201526005610460820152600e61048082015260266104a0820152602c6104c082015260746104e0820152601b610500820152603f6105208201526010610540820152607a610560820152605661058082015260606105a082015260726105c082015260586105e0820152601d610600820152601161062082015260236106408201526063610660820152600861068082015260556106a082015260496106c082015260156106e08201526021610700820152602d610720820152600c6107408201526029610760820152607961078082015260226107a082015260366107c082015260806107e0820152604b610800820152600b610820820152600a610840820152602e610860820152606f610880820152606d6108a0820152602a6108c082015260396108e0820152602b610900820152604d61092082015260286109408201526068610960820152603a610980820152605e6109a0820152607f6109c082015260736109e08201526020610a00820152607b610a208201526069610a408201526016610a608201526044610a808201526017610aa0820152606a610ac08201526035610ae0820152601f610b008201526014610b208201526065610b408201526034610b60820152606b610b808201526042610ba08201526006906006610bc0820152603d610be08201526045610c008201526064610c208201526059610c408201526009610c608201526038610c808201526077610ca0820152604e610cc08201526019610ce08201526032610d00820152603e610d208201526003610d408201526048610d60820152604f610d80820152601a610da08201526076610dc0820152600d610de08201526078610e00820152600f610e20820152605c610e408201526052610e608201526004610e808201526030610ea0820152605d610ec08201526066610ee0820152601c610f008201526041610f208201526046610f40820152607d610f608201526050610f80820152605b610fa08201526047610fc0820152607e610fe0820152604a61100082015290845b608181106104955786866004553390600354161760035560405161100590816104c38239f35b825160ff168282015591830191840161046f565b634e487b7160e01b84526041600452602484fd5b600080fdfe6080604081815260049182361015610028575b503615610026575163201f3fd360e11b8152fd5b005b600090813560e01c9081630d174c24146109d05750806326a224e0146107ab5780633f3b78581461073157806350bf8649146107155780635a9b0b89146106d0578063715018a6146106765780638da5cb5b1461064e5780639be3ac01146105b3578063a504edf9146104da578063a8c2bb0d146103d5578063bc28d5d0146102d8578063cdc18424146102af578063f0f9e9751461028c578063f2fde38b146101bf578063f528c62e146101645763fa09e6300361001257919034610160576020366003190112610160576100fc610a3b565b6003546001600160a01b03908116330361015157479182156101415785809381938293165af161012a610f38565b5015610134578280f35b516312171d8360e31b8152fd5b505050516365e52d5160e11b8152fd5b505051632d99bc8360e21b8152fd5b8280fd5b5091903461016057806003193601126101605761017f610a3b565b600354602435916001600160a01b0391821633036101af5782156101415785809381938293165af161012a610f38565b50505051632d99bc8360e21b8152fd5b509134610160576020366003190112610160576101da610a3b565b906101e3610f77565b6001600160a01b0391821692831561023a575050600054826bffffffffffffffffffffffff60a01b821617600055167f8be0079c531659141344cd1fd0a4f28419497f9722a3daafe3b4186f6b6457e0600080a380f35b906020608492519162461bcd60e51b8352820152602660248201527f4f776e61626c653a206e6577206f776e657220697320746865207a65726f206160448201526564647265737360d01b6064820152fd5b5090346102ab57816003193601126102ab576020906002549051908152f35b5080fd5b5090346102ab57816003193601126102ab5760035490516001600160a01b039091168152602090f35b508290346103d257806003193601126103d2578251906102f782610aaa565b6110208092369037835161030a81610aaa565b82368237815b61ffff908181169060818210156103a45787516369e38bc360e01b81528781018390529160209081846024816108085afa87928161036e575b506001945061035c575b50500116610310565b6103669086610b24565b528880610353565b90925084813d831161039d575b6103858183610ac6565b810103126103985760019351918b610349565b600080fd5b503d61037b565b5050855192919050825b608183106103bb57505050f35b6001908251815260208091019201920191906103ae565b80fd5b5082346102ab57816003193601126102ab578251906103f382610aaa565b611020809236903783519161040783610aaa565b80368437835b61ffff9081811660818110156104a5578751632d9bfc7160e01b815285810182905260019291602080836024816108085afa9283918b94610476575b5050610459575b5050011661040d565b61046b6001600160401b039189610b24565b911690528880610450565b610496929450803d1061049e575b61048e8183610ac6565b810190610b58565b918b80610449565b503d610484565b875184908888825b608183106104ba57505050f35b6001906001600160401b03835116815260208091019201920191906104ad565b50826101203660031901126102ab576001600160401b039060e4358281116105af576105099036908301610a51565b9092610104359081116105ab576105239036908401610a51565b939092600260015414610568576105619596506002600155610543610f77565b60c4359060a435906084359060643590604435906024359035610b77565b6001805580f35b606490602088519162461bcd60e51b8352820152601f60248201527f5265656e7472616e637947756172643a207265656e7472616e742063616c6c006044820152fd5b8480fd5b8380fd5b5090346102ab57816003193601126102ab576105cd610f77565b82549081151580610642575b6105e1578280f35b6005549161080592833b156105ab579060448592838551968794859363d4626bb960e01b85528b85015260248401525af1908115610639575061062a575b508091558038808280f35b61063390610a81565b3861061f565b513d84823e3d90fd5b506002544214156105d9565b5090346102ab57816003193601126102ab57905490516001600160a01b039091168152602090f35b50346103d257806003193601126103d25761068f610f77565b80546001600160a01b03198116825581906001600160a01b03167f8be0079c531659141344cd1fd0a4f28419497f9722a3daafe3b4186f6b6457e08280a380f35b5090346102ab57816003193601126102ab579154606092901561070f576001915b54815192151583526001600160a01b03163160208301524790820152f35b816106f1565b5090346102ab57816003193601126102ab576020905160818152f35b5091346101605760203660031901126101605780356001600160401b0381116105af576107619036908301610a51565b9161076a610f77565b6081936081840361079e575050835b838110610784578480f35b806107926001928585610afe565b35816006015501610779565b5163251f56a160e21b8152fd5b509190346101605780600319360112610160576001600160401b039082358281116105ab576107dd9036908501610a51565b936024936024359081116109cc576107f89036908301610a51565b9490918587036109be5761080d879597610ae7565b9561081a88519788610ac6565b85875261082686610ae7565b60209690601f19018a5b81811061099a575050895b8181106108ab578a8a8a8a825192818085019181865284518093528501930191855b82811061086a5785850386f35b90919293828551829089915b608183106108955750505061102060019201950191019291909261085d565b8151815286936001909301929182019101610876565b6108b98183899c9a9c610afe565b356108c5828589610afe565b358c5b8d8d888d608185106108e6575050505050505060010198969861083b565b516371dacc7d60e11b815290810186815260208101869052604081018590529091908290819060600103816108055afa91821561098f579161095e575b508c5185101561094c57906001916109458f8f9084918960051b010151610b24565b52016108c8565b634e487b7160e01b8f5260328852888ffd5b90508d81813d8311610988575b6109758183610ac6565b81010312610984575138610923565b8e80fd5b503d61096b565b8d51903d90823e3d90fd5b978a98819b516109a981610aaa565b61102036823782828d01015201999799610830565b845163512509d360e11b8152fd5b8680fd5b91939050346105af5760203660031901126105af576109ed610a3b565b600354926001600160a01b0391908285163303610a2d575016928315610a205750506001600160a01b0319161760035580f35b5163e6c4247b60e01b8152fd5b632d99bc8360e21b81528390fd5b600435906001600160a01b038216820361039857565b9181601f84011215610398578235916001600160401b038311610398576020808501948460051b01011161039857565b6001600160401b038111610a9457604052565b634e487b7160e01b600052604160045260246000fd5b61102081019081106001600160401b03821117610a9457604052565b90601f801991011681019081106001600160401b03821117610a9457604052565b6001600160401b038111610a945760051b60200190565b9190811015610b0e5760051b0190565b634e487b7160e01b600052603260045260246000fd5b906081811015610b0e5760051b0190565b91908203918211610b4257565b634e487b7160e01b600052601160045260246000fd5b9081602091031261039857516001600160401b03811681036103985790565b9599919498929790969398610b9260009860ff8b1690610b35565b6081811015610f2457600601549a60049a8b5480151580610f18575b610eb1575b5088610bc9575b50505050505050505050505050565b8b8d82610db2575b5050505050865b818110610cf05750505050506040516369e38bc360e01b815261ffff8716868201526020816024816108085afa908115610ce5578491610cb3575b501115610c28575b8080808080808080610bba565b4790808211610cab575b5061080590813b1561016057633b9aca0060648492836040519586948593631fc9b14160e01b85528a8c8601520460248401528a60448401525af18015610ca057610c8c575b505060055555426002553880808080610c1b565b610c968291610a81565b6103d25780610c78565b6040513d84823e3d90fd5b905038610c32565b90506020813d602011610cdd575b81610cce60209383610ac6565b81010312610398575138610c13565b3d9150610cc1565b6040513d86823e3d90fd5b610d3f8b610cff838589610afe565b358c610d0c85888a610afe565b3592604093845195869283926371dacc7d60e11b8452602096879685016040919493926060820195825260208201520152565b03816108055afa918215610da957508a91610d77575b50633b9aca00915011610d6a57600101610bd8565b5050505050505050505050565b905081813d8311610da2575b610d8d8183610ac6565b8101031261039857633b9aca00905138610d55565b503d610d83565b513d8c823e3d90fd5b604080516371dacc7d60e11b8152928301958652602086810195909552850152919283908390819060600103816108055afa908115610e75578a91610e80575b610dfc9250610b35565b9060405163c2ba9e8760e01b815261ffff8d168c82015281816024816108085afa918215610e7557916001600160401b03916107d0938c92610e58575b5050160411610e4c573880808b8d610bd1565b50505050505050505050565b610e6e9250803d1061049e5761048e8183610ac6565b3880610e39565b6040513d8c823e3d90fd5b90508282813d8311610eaa575b610e978183610ac6565b8101031261039857610dfc915190610df2565b503d610e8d565b600554610805803b15610f14579060448f8e8094604051968795869463d4626bb960e01b865285015260248401525af18015610f0957610ef6575b50898c5538610bb3565b610f02909a919a610a81565b9838610eec565b6040513d8d823e3d90fd5b8c80fd5b50600254421415610bae565b634e487b7160e01b89526032600452602489fd5b3d15610f72573d906001600160401b038211610a945760405191610f66601f8201601f191660200184610ac6565b82523d6000602084013e565b606090565b6000546001600160a01b03163303610f8b57565b606460405162461bcd60e51b815260206004820152602060248201527f4f776e61626c653a2063616c6c6572206973206e6f7420746865206f776e65726044820152fdfea2646970667358221220f8594f01bb0eb7c32d36d40f819b1036b8ecb556e7c90efe0b99e2282202d86164736f6c63430008160033","opcodes":"PUSH1 0x80 CALLVALUE PUSH2 0x4BD JUMPI PUSH1 0x0 DUP1 SLOAD CALLER PUSH1 0x1 PUSH1 0x1 PUSH1 0xA0 SHL SUB NOT DUP1 DUP4 AND DUP3 OR DUP5 SSTORE SWAP4 SWAP2 PUSH1 0x1 PUSH1 0x1 PUSH1 0xA0 SHL SUB AND PUSH32 0x8BE0079C531659141344CD1FD0A4F28419497F9722A3DAAFE3B4186F6B6457E0 DUP5 DUP1 LOG3 PUSH1 0x1 DUP1 DUP1 SSTORE SWAP1 PUSH2 0x1020 DUP2 ADD PUSH1 0x1 PUSH1 0x1 PUSH1 0x40 SHL SUB DUP2 GT DUP3 DUP3 LT OR PUSH2 0x4A9 JUMPI PUSH1 0x40 MSTORE PUSH1 0x1 DUP2 MSTORE PUSH1 0x20 SWAP1 PUSH1 0x37 PUSH1 0x20 DUP3 ADD MSTORE PUSH1 0x6E PUSH1 0x40 DUP3 ADD MSTORE PUSH1 0x4C PUSH1 0x60 DUP3 ADD MSTORE PUSH1 0x51 PUSH1 0x80 DUP3 ADD MSTORE PUSH1 0x7 PUSH1 0xA0 DUP3 ADD MSTORE PUSH1 0x70 PUSH1 0xC0 DUP3 ADD MSTORE PUSH1 0x13 PUSH1 0xE0 DUP3 ADD MSTORE DUP4 PUSH2 0x100 DUP3 ADD MSTORE PUSH1 0x12 PUSH2 0x120 DUP3 ADD MSTORE PUSH1 0x2F PUSH2 0x140 DUP3 ADD MSTORE PUSH1 0x54 PUSH2 0x160 DUP3 ADD MSTORE PUSH1 0x71 PUSH2 0x180 DUP3 ADD MSTORE PUSH1 0x24 PUSH2 0x1A0 DUP3 ADD MSTORE PUSH1 0x33 PUSH2 0x1C0 DUP3 ADD MSTORE PUSH1 0x62 PUSH2 0x1E0 DUP3 ADD MSTORE PUSH1 0x31 PUSH2 0x200 DUP3 ADD MSTORE PUSH1 0x75 PUSH2 0x220 DUP3 ADD MSTORE PUSH1 0x27 PUSH2 0x240 DUP3 ADD MSTORE PUSH1 0x5A PUSH2 0x260 DUP3 ADD MSTORE PUSH1 0x3C PUSH2 0x280 DUP3 ADD MSTORE PUSH1 0x67 PUSH2 0x2A0 DUP3 ADD MSTORE PUSH1 0x40 PUSH2 0x2C0 DUP3 ADD MSTORE PUSH1 0x5F PUSH2 0x2E0 DUP3 ADD MSTORE PUSH1 0x7C PUSH2 0x300 DUP3 ADD MSTORE PUSH1 0x6C PUSH2 0x320 DUP3 ADD MSTORE PUSH1 0x18 PUSH2 0x340 DUP3 ADD MSTORE PUSH1 0x57 PUSH2 0x360 DUP3 ADD MSTORE PUSH1 0x61 PUSH2 0x380 DUP3 ADD MSTORE PUSH1 0x53 PUSH2 0x3A0 DUP3 ADD MSTORE PUSH1 0x43 PUSH2 0x3C0 DUP3 ADD MSTORE PUSH1 0x3B PUSH2 0x3E0 DUP3 ADD MSTORE PUSH1 0x25 PUSH2 0x400 DUP3 ADD MSTORE PUSH1 0x1E PUSH2 0x420 DUP3 ADD MSTORE PUSH1 0x2 PUSH2 0x440 DUP3 ADD MSTORE PUSH1 0x5 PUSH2 0x460 DUP3 ADD MSTORE PUSH1 0xE PUSH2 0x480 DUP3 ADD MSTORE PUSH1 0x26 PUSH2 0x4A0 DUP3 ADD MSTORE PUSH1 0x2C PUSH2 0x4C0 DUP3 ADD MSTORE PUSH1 0x74 PUSH2 0x4E0 DUP3 ADD MSTORE PUSH1 0x1B PUSH2 0x500 DUP3 ADD MSTORE PUSH1 0x3F PUSH2 0x520 DUP3 ADD MSTORE PUSH1 0x10 PUSH2 0x540 DUP3 ADD MSTORE PUSH1 0x7A PUSH2 0x560 DUP3 ADD MSTORE PUSH1 0x56 PUSH2 0x580 DUP3 ADD MSTORE PUSH1 0x60 PUSH2 0x5A0 DUP3 ADD MSTORE PUSH1 0x72 PUSH2 0x5C0 DUP3 ADD MSTORE PUSH1 0x58 PUSH2 0x5E0 DUP3 ADD MSTORE PUSH1 0x1D PUSH2 0x600 DUP3 ADD MSTORE PUSH1 0x11 PUSH2 0x620 DUP3 ADD MSTORE PUSH1 0x23 PUSH2 0x640 DUP3 ADD MSTORE PUSH1 0x63 PUSH2 0x660 DUP3 ADD MSTORE PUSH1 0x8 PUSH2 0x680 DUP3 ADD MSTORE PUSH1 0x55 PUSH2 0x6A0 DUP3 ADD MSTORE PUSH1 0x49 PUSH2 0x6C0 DUP3 ADD MSTORE PUSH1 0x15 PUSH2 0x6E0 DUP3 ADD MSTORE PUSH1 0x21 PUSH2 0x700 DUP3 ADD MSTORE PUSH1 0x2D PUSH2 0x720 DUP3 ADD MSTORE PUSH1 0xC PUSH2 0x740 DUP3 ADD MSTORE PUSH1 0x29 PUSH2 0x760 DUP3 ADD MSTORE PUSH1 0x79 PUSH2 0x780 DUP3 ADD MSTORE PUSH1 0x22 PUSH2 0x7A0 DUP3 ADD MSTORE PUSH1 0x36 PUSH2 0x7C0 DUP3 ADD MSTORE PUSH1 0x80 PUSH2 0x7E0 DUP3 ADD MSTORE PUSH1 0x4B PUSH2 0x800 DUP3 ADD MSTORE PUSH1 0xB PUSH2 0x820 DUP3 ADD MSTORE PUSH1 0xA PUSH2 0x840 DUP3 ADD MSTORE PUSH1 0x2E PUSH2 0x860 DUP3 ADD MSTORE PUSH1 0x6F PUSH2 0x880 DUP3 ADD MSTORE PUSH1 0x6D PUSH2 0x8A0 DUP3 ADD MSTORE PUSH1 0x2A PUSH2 0x8C0 DUP3 ADD MSTORE PUSH1 0x39 PUSH2 0x8E0 DUP3 ADD MSTORE PUSH1 0x2B PUSH2 0x900 DUP3 ADD MSTORE PUSH1 0x4D PUSH2 0x920 DUP3 ADD MSTORE PUSH1 0x28 PUSH2 0x940 DUP3 ADD MSTORE PUSH1 0x68 PUSH2 0x960 DUP3 ADD MSTORE PUSH1 0x3A PUSH2 0x980 DUP3 ADD MSTORE PUSH1 0x5E PUSH2 0x9A0 DUP3 ADD MSTORE PUSH1 0x7F PUSH2 0x9C0 DUP3 ADD MSTORE PUSH1 0x73 PUSH2 0x9E0 DUP3 ADD MSTORE PUSH1 0x20 PUSH2 0xA00 DUP3 ADD MSTORE PUSH1 0x7B PUSH2 0xA20 DUP3 ADD MSTORE PUSH1 0x69 PUSH2 0xA40 DUP3 ADD MSTORE PUSH1 0x16 PUSH2 0xA60 DUP3 ADD MSTORE PUSH1 0x44 PUSH2 0xA80 DUP3 ADD MSTORE PUSH1 0x17 PUSH2 0xAA0 DUP3 ADD MSTORE PUSH1 0x6A PUSH2 0xAC0 DUP3 ADD MSTORE PUSH1 0x35 PUSH2 0xAE0 DUP3 ADD MSTORE PUSH1 0x1F PUSH2 0xB00 DUP3 ADD MSTORE PUSH1 0x14 PUSH2 0xB20 DUP3 ADD MSTORE PUSH1 0x65 PUSH2 0xB40 DUP3 ADD MSTORE PUSH1 0x34 PUSH2 0xB60 DUP3 ADD MSTORE PUSH1 0x6B PUSH2 0xB80 DUP3 ADD MSTORE PUSH1 0x42 PUSH2 0xBA0 DUP3 ADD MSTORE PUSH1 0x6 SWAP1 PUSH1 0x6 PUSH2 0xBC0 DUP3 ADD MSTORE PUSH1 0x3D PUSH2 0xBE0 DUP3 ADD MSTORE PUSH1 0x45 PUSH2 0xC00 DUP3 ADD MSTORE PUSH1 0x64 PUSH2 0xC20 DUP3 ADD MSTORE PUSH1 0x59 PUSH2 0xC40 DUP3 ADD MSTORE PUSH1 0x9 PUSH2 0xC60 DUP3 ADD MSTORE PUSH1 0x38 PUSH2 0xC80 DUP3 ADD MSTORE PUSH1 0x77 PUSH2 0xCA0 DUP3 ADD MSTORE PUSH1 0x4E PUSH2 0xCC0 DUP3 ADD MSTORE PUSH1 0x19 PUSH2 0xCE0 DUP3 ADD MSTORE PUSH1 0x32 PUSH2 0xD00 DUP3 ADD MSTORE PUSH1 0x3E PUSH2 0xD20 DUP3 ADD MSTORE PUSH1 0x3 PUSH2 0xD40 DUP3 ADD MSTORE PUSH1 0x48 PUSH2 0xD60 DUP3 ADD MSTORE PUSH1 0x4F PUSH2 0xD80 DUP3 ADD MSTORE PUSH1 0x1A PUSH2 0xDA0 DUP3 ADD MSTORE PUSH1 0x76 PUSH2 0xDC0 DUP3 ADD MSTORE PUSH1 0xD PUSH2 0xDE0 DUP3 ADD MSTORE PUSH1 0x78 PUSH2 0xE00 DUP3 ADD MSTORE PUSH1 0xF PUSH2 0xE20 DUP3 ADD MSTORE PUSH1 0x5C PUSH2 0xE40 DUP3 ADD MSTORE PUSH1 0x52 PUSH2 0xE60 DUP3 ADD MSTORE PUSH1 0x4 PUSH2 0xE80 DUP3 ADD MSTORE PUSH1 0x30 PUSH2 0xEA0 DUP3 ADD MSTORE PUSH1 0x5D PUSH2 0xEC0 DUP3 ADD MSTORE PUSH1 0x66 PUSH2 0xEE0 DUP3 ADD MSTORE PUSH1 0x1C PUSH2 0xF00 DUP3 ADD MSTORE PUSH1 0x41 PUSH2 0xF20 DUP3 ADD MSTORE PUSH1 0x46 PUSH2 0xF40 DUP3 ADD MSTORE PUSH1 0x7D PUSH2 0xF60 DUP3 ADD MSTORE PUSH1 0x50 PUSH2 0xF80 DUP3 ADD MSTORE PUSH1 0x5B PUSH2 0xFA0 DUP3 ADD MSTORE PUSH1 0x47 PUSH2 0xFC0 DUP3 ADD MSTORE PUSH1 0x7E PUSH2 0xFE0 DUP3 ADD MSTORE PUSH1 0x4A PUSH2 0x1000 DUP3 ADD MSTORE SWAP1 DUP5 JUMPDEST PUSH1 0x81 DUP2 LT PUSH2 0x495 JUMPI DUP7 DUP7 PUSH1 0x4 SSTORE CALLER SWAP1 PUSH1 0x3 SLOAD AND OR PUSH1 0x3 SSTORE PUSH1 0x40 MLOAD PUSH2 0x1005 SWAP1 DUP2 PUSH2 0x4C3 DUP3 CODECOPY RETURN JUMPDEST DUP3 MLOAD PUSH1 0xFF AND DUP3 DUP3 ADD SSTORE SWAP2 DUP4 ADD SWAP2 DUP5 ADD PUSH2 0x46F JUMP JUMPDEST PUSH4 0x4E487B71 PUSH1 0xE0 SHL DUP5 MSTORE PUSH1 0x41 PUSH1 0x4 MSTORE PUSH1 0x24 DUP5 REVERT JUMPDEST PUSH1 0x0 DUP1 REVERT INVALID PUSH1 0x80 PUSH1 0x40 DUP2 DUP2 MSTORE PUSH1 0x4 SWAP2 DUP3 CALLDATASIZE LT ISZERO PUSH2 0x28 JUMPI JUMPDEST POP CALLDATASIZE ISZERO PUSH2 0x26 JUMPI MLOAD PUSH4 0x201F3FD3 PUSH1 0xE1 SHL DUP2 MSTORE REVERT JUMPDEST STOP JUMPDEST PUSH1 0x0 SWAP1 DUP2 CALLDATALOAD PUSH1 0xE0 SHR SWAP1 DUP2 PUSH4 0xD174C24 EQ PUSH2 0x9D0 JUMPI POP DUP1 PUSH4 0x26A224E0 EQ PUSH2 0x7AB JUMPI DUP1 PUSH4 0x3F3B7858 EQ PUSH2 0x731 JUMPI DUP1 PUSH4 0x50BF8649 EQ PUSH2 0x715 JUMPI DUP1 PUSH4 0x5A9B0B89 EQ PUSH2 0x6D0 JUMPI DUP1 PUSH4 0x715018A6 EQ PUSH2 0x676 JUMPI DUP1 PUSH4 0x8DA5CB5B EQ PUSH2 0x64E JUMPI DUP1 PUSH4 0x9BE3AC01 EQ PUSH2 0x5B3 JUMPI DUP1 PUSH4 0xA504EDF9 EQ PUSH2 0x4DA JUMPI DUP1 PUSH4 0xA8C2BB0D EQ PUSH2 0x3D5 JUMPI DUP1 PUSH4 0xBC28D5D0 EQ PUSH2 0x2D8 JUMPI DUP1 PUSH4 0xCDC18424 EQ PUSH2 0x2AF JUMPI DUP1 PUSH4 0xF0F9E975 EQ PUSH2 0x28C JUMPI DUP1 PUSH4 0xF2FDE38B EQ PUSH2 0x1BF JUMPI DUP1 PUSH4 0xF528C62E EQ PUSH2 0x164 JUMPI PUSH4 0xFA09E630 SUB PUSH2 0x12 JUMPI SWAP2 SWAP1 CALLVALUE PUSH2 0x160 JUMPI PUSH1 0x20 CALLDATASIZE PUSH1 0x3 NOT ADD SLT PUSH2 0x160 JUMPI PUSH2 0xFC PUSH2 0xA3B JUMP JUMPDEST PUSH1 0x3 SLOAD PUSH1 0x1 PUSH1 0x1 PUSH1 0xA0 SHL SUB SWAP1 DUP2 AND CALLER SUB PUSH2 0x151 JUMPI SELFBALANCE SWAP2 DUP3 ISZERO PUSH2 0x141 JUMPI DUP6 DUP1 SWAP4 DUP2 SWAP4 DUP3 SWAP4 AND GAS CALL PUSH2 0x12A PUSH2 0xF38 JUMP JUMPDEST POP ISZERO PUSH2 0x134 JUMPI DUP3 DUP1 RETURN JUMPDEST MLOAD PUSH4 0x12171D83 PUSH1 0xE3 SHL DUP2 MSTORE REVERT JUMPDEST POP POP POP MLOAD PUSH4 0x65E52D51 PUSH1 0xE1 SHL DUP2 MSTORE REVERT JUMPDEST POP POP MLOAD PUSH4 0x2D99BC83 PUSH1 0xE2 SHL DUP2 MSTORE REVERT JUMPDEST DUP3 DUP1 REVERT JUMPDEST POP SWAP2 SWAP1 CALLVALUE PUSH2 0x160 JUMPI DUP1 PUSH1 0x3 NOT CALLDATASIZE ADD SLT PUSH2 0x160 JUMPI PUSH2 0x17F PUSH2 0xA3B JUMP JUMPDEST PUSH1 0x3 SLOAD PUSH1 0x24 CALLDATALOAD SWAP2 PUSH1 0x1 PUSH1 0x1 PUSH1 0xA0 SHL SUB SWAP2 DUP3 AND CALLER SUB PUSH2 0x1AF JUMPI DUP3 ISZERO PUSH2 0x141 JUMPI DUP6 DUP1 SWAP4 DUP2 SWAP4 DUP3 SWAP4 AND GAS CALL PUSH2 0x12A PUSH2 0xF38 JUMP JUMPDEST POP POP POP MLOAD PUSH4 0x2D99BC83 PUSH1 0xE2 SHL DUP2 MSTORE REVERT JUMPDEST POP SWAP2 CALLVALUE PUSH2 0x160 JUMPI PUSH1 0x20 CALLDATASIZE PUSH1 0x3 NOT ADD SLT PUSH2 0x160 JUMPI PUSH2 0x1DA PUSH2 0xA3B JUMP JUMPDEST SWAP1 PUSH2 0x1E3 PUSH2 0xF77 JUMP JUMPDEST PUSH1 0x1 PUSH1 0x1 PUSH1 0xA0 SHL SUB SWAP2 DUP3 AND SWAP3 DUP4 ISZERO PUSH2 0x23A JUMPI POP POP PUSH1 0x0 SLOAD DUP3 PUSH12 0xFFFFFFFFFFFFFFFFFFFFFFFF PUSH1 0xA0 SHL DUP3 AND OR PUSH1 0x0 SSTORE AND PUSH32 0x8BE0079C531659141344CD1FD0A4F28419497F9722A3DAAFE3B4186F6B6457E0 PUSH1 0x0 DUP1 LOG3 DUP1 RETURN JUMPDEST SWAP1 PUSH1 0x20 PUSH1 0x84 SWAP3 MLOAD SWAP2 PUSH3 0x461BCD PUSH1 0xE5 SHL DUP4 MSTORE DUP3 ADD MSTORE PUSH1 0x26 PUSH1 0x24 DUP3 ADD MSTORE PUSH32 0x4F776E61626C653A206E6577206F776E657220697320746865207A65726F2061 PUSH1 0x44 DUP3 ADD MSTORE PUSH6 0x646472657373 PUSH1 0xD0 SHL PUSH1 0x64 DUP3 ADD MSTORE REVERT JUMPDEST POP SWAP1 CALLVALUE PUSH2 0x2AB JUMPI DUP2 PUSH1 0x3 NOT CALLDATASIZE ADD SLT PUSH2 0x2AB JUMPI PUSH1 0x20 SWAP1 PUSH1 0x2 SLOAD SWAP1 MLOAD SWAP1 DUP2 MSTORE RETURN JUMPDEST POP DUP1 REVERT JUMPDEST POP SWAP1 CALLVALUE PUSH2 0x2AB JUMPI DUP2 PUSH1 0x3 NOT CALLDATASIZE ADD SLT PUSH2 0x2AB JUMPI PUSH1 0x3 SLOAD SWAP1 MLOAD PUSH1 0x1 PUSH1 0x1 PUSH1 0xA0 SHL SUB SWAP1 SWAP2 AND DUP2 MSTORE PUSH1 0x20 SWAP1 RETURN JUMPDEST POP DUP3 SWAP1 CALLVALUE PUSH2 0x3D2 JUMPI DUP1 PUSH1 0x3 NOT CALLDATASIZE ADD SLT PUSH2 0x3D2 JUMPI DUP3 MLOAD SWAP1 PUSH2 0x2F7 DUP3 PUSH2 0xAAA JUMP JUMPDEST PUSH2 0x1020 DUP1 SWAP3 CALLDATASIZE SWAP1 CALLDATACOPY DUP4 MLOAD PUSH2 0x30A DUP2 PUSH2 0xAAA JUMP JUMPDEST DUP3 CALLDATASIZE DUP3 CALLDATACOPY DUP2 JUMPDEST PUSH2 0xFFFF SWAP1 DUP2 DUP2 AND SWAP1 PUSH1 0x81 DUP3 LT ISZERO PUSH2 0x3A4 JUMPI DUP8 MLOAD PUSH4 0x69E38BC3 PUSH1 0xE0 SHL DUP2 MSTORE DUP8 DUP2 ADD DUP4 SWAP1 MSTORE SWAP2 PUSH1 0x20 SWAP1 DUP2 DUP5 PUSH1 0x24 DUP2 PUSH2 0x808 GAS STATICCALL DUP8 SWAP3 DUP2 PUSH2 0x36E JUMPI JUMPDEST POP PUSH1 0x1 SWAP5 POP PUSH2 0x35C JUMPI JUMPDEST POP POP ADD AND PUSH2 0x310 JUMP JUMPDEST PUSH2 0x366 SWAP1 DUP7 PUSH2 0xB24 JUMP JUMPDEST MSTORE DUP9 DUP1 PUSH2 0x353 JUMP JUMPDEST SWAP1 SWAP3 POP DUP5 DUP2 RETURNDATASIZE DUP4 GT PUSH2 0x39D JUMPI JUMPDEST PUSH2 0x385 DUP2 DUP4 PUSH2 0xAC6 JUMP JUMPDEST DUP2 ADD SUB SLT PUSH2 0x398 JUMPI PUSH1 0x1 SWAP4 MLOAD SWAP2 DUP12 PUSH2 0x349 JUMP JUMPDEST PUSH1 0x0 DUP1 REVERT JUMPDEST POP RETURNDATASIZE PUSH2 0x37B JUMP JUMPDEST POP POP DUP6 MLOAD SWAP3 SWAP2 SWAP1 POP DUP3 JUMPDEST PUSH1 0x81 DUP4 LT PUSH2 0x3BB JUMPI POP POP POP RETURN JUMPDEST PUSH1 0x1 SWAP1 DUP3 MLOAD DUP2 MSTORE PUSH1 0x20 DUP1 SWAP2 ADD SWAP3 ADD SWAP3 ADD SWAP2 SWAP1 PUSH2 0x3AE JUMP JUMPDEST DUP1 REVERT JUMPDEST POP DUP3 CALLVALUE PUSH2 0x2AB JUMPI DUP2 PUSH1 0x3 NOT CALLDATASIZE ADD SLT PUSH2 0x2AB JUMPI DUP3 MLOAD SWAP1 PUSH2 0x3F3 DUP3 PUSH2 0xAAA JUMP JUMPDEST PUSH2 0x1020 DUP1 SWAP3 CALLDATASIZE SWAP1 CALLDATACOPY DUP4 MLOAD SWAP2 PUSH2 0x407 DUP4 PUSH2 0xAAA JUMP JUMPDEST DUP1 CALLDATASIZE DUP5 CALLDATACOPY DUP4 JUMPDEST PUSH2 0xFFFF SWAP1 DUP2 DUP2 AND PUSH1 0x81 DUP2 LT ISZERO PUSH2 0x4A5 JUMPI DUP8 MLOAD PUSH4 0x2D9BFC71 PUSH1 0xE0 SHL DUP2 MSTORE DUP6 DUP2 ADD DUP3 SWAP1 MSTORE PUSH1 0x1 SWAP3 SWAP2 PUSH1 0x20 DUP1 DUP4 PUSH1 0x24 DUP2 PUSH2 0x808 GAS STATICCALL SWAP3 DUP4 SWAP2 DUP12 SWAP5 PUSH2 0x476 JUMPI JUMPDEST POP POP PUSH2 0x459 JUMPI JUMPDEST POP POP ADD AND PUSH2 0x40D JUMP JUMPDEST PUSH2 0x46B PUSH1 0x1 PUSH1 0x1 PUSH1 0x40 SHL SUB SWAP2 DUP10 PUSH2 0xB24 JUMP JUMPDEST SWAP2 AND SWAP1 MSTORE DUP9 DUP1 PUSH2 0x450 JUMP JUMPDEST PUSH2 0x496 SWAP3 SWAP5 POP DUP1 RETURNDATASIZE LT PUSH2 0x49E JUMPI JUMPDEST PUSH2 0x48E DUP2 DUP4 PUSH2 0xAC6 JUMP JUMPDEST DUP2 ADD SWAP1 PUSH2 0xB58 JUMP JUMPDEST SWAP2 DUP12 DUP1 PUSH2 0x449 JUMP JUMPDEST POP RETURNDATASIZE PUSH2 0x484 JUMP JUMPDEST DUP8 MLOAD DUP5 SWAP1 DUP9 DUP9 DUP3 JUMPDEST PUSH1 0x81 DUP4 LT PUSH2 0x4BA JUMPI POP POP POP RETURN JUMPDEST PUSH1 0x1 SWAP1 PUSH1 0x1 PUSH1 0x1 PUSH1 0x40 SHL SUB DUP4 MLOAD AND DUP2 MSTORE PUSH1 0x20 DUP1 SWAP2 ADD SWAP3 ADD SWAP3 ADD SWAP2 SWAP1 PUSH2 0x4AD JUMP JUMPDEST POP DUP3 PUSH2 0x120 CALLDATASIZE PUSH1 0x3 NOT ADD SLT PUSH2 0x2AB JUMPI PUSH1 0x1 PUSH1 0x1 PUSH1 0x40 SHL SUB SWAP1 PUSH1 0xE4 CALLDATALOAD DUP3 DUP2 GT PUSH2 0x5AF JUMPI PUSH2 0x509 SWAP1 CALLDATASIZE SWAP1 DUP4 ADD PUSH2 0xA51 JUMP JUMPDEST SWAP1 SWAP3 PUSH2 0x104 CALLDATALOAD SWAP1 DUP2 GT PUSH2 0x5AB JUMPI PUSH2 0x523 SWAP1 CALLDATASIZE SWAP1 DUP5 ADD PUSH2 0xA51 JUMP JUMPDEST SWAP4 SWAP1 SWAP3 PUSH1 0x2 PUSH1 0x1 SLOAD EQ PUSH2 0x568 JUMPI PUSH2 0x561 SWAP6 SWAP7 POP PUSH1 0x2 PUSH1 0x1 SSTORE PUSH2 0x543 PUSH2 0xF77 JUMP JUMPDEST PUSH1 0xC4 CALLDATALOAD SWAP1 PUSH1 0xA4 CALLDATALOAD SWAP1 PUSH1 0x84 CALLDATALOAD SWAP1 PUSH1 0x64 CALLDATALOAD SWAP1 PUSH1 0x44 CALLDATALOAD SWAP1 PUSH1 0x24 CALLDATALOAD SWAP1 CALLDATALOAD PUSH2 0xB77 JUMP JUMPDEST PUSH1 0x1 DUP1 SSTORE DUP1 RETURN JUMPDEST PUSH1 0x64 SWAP1 PUSH1 0x20 DUP9 MLOAD SWAP2 PUSH3 0x461BCD PUSH1 0xE5 SHL DUP4 MSTORE DUP3 ADD MSTORE PUSH1 0x1F PUSH1 0x24 DUP3 ADD MSTORE PUSH32 0x5265656E7472616E637947756172643A207265656E7472616E742063616C6C00 PUSH1 0x44 DUP3 ADD MSTORE REVERT JUMPDEST DUP5 DUP1 REVERT JUMPDEST DUP4 DUP1 REVERT JUMPDEST POP SWAP1 CALLVALUE PUSH2 0x2AB JUMPI DUP2 PUSH1 0x3 NOT CALLDATASIZE ADD SLT PUSH2 0x2AB JUMPI PUSH2 0x5CD PUSH2 0xF77 JUMP JUMPDEST DUP3 SLOAD SWAP1 DUP2 ISZERO ISZERO DUP1 PUSH2 0x642 JUMPI JUMPDEST PUSH2 0x5E1 JUMPI DUP3 DUP1 RETURN JUMPDEST PUSH1 0x5 SLOAD SWAP2 PUSH2 0x805 SWAP3 DUP4 EXTCODESIZE ISZERO PUSH2 0x5AB JUMPI SWAP1 PUSH1 0x44 DUP6 SWAP3 DUP4 DUP6 MLOAD SWAP7 DUP8 SWAP5 DUP6 SWAP4 PUSH4 0xD4626BB9 PUSH1 0xE0 SHL DUP6 MSTORE DUP12 DUP6 ADD MSTORE PUSH1 0x24 DUP5 ADD MSTORE GAS CALL SWAP1 DUP2 ISZERO PUSH2 0x639 JUMPI POP PUSH2 0x62A JUMPI JUMPDEST POP DUP1 SWAP2 SSTORE DUP1 CODESIZE DUP1 DUP3 DUP1 RETURN JUMPDEST PUSH2 0x633 SWAP1 PUSH2 0xA81 JUMP JUMPDEST CODESIZE PUSH2 0x61F JUMP JUMPDEST MLOAD RETURNDATASIZE DUP5 DUP3 RETURNDATACOPY RETURNDATASIZE SWAP1 REVERT JUMPDEST POP PUSH1 0x2 SLOAD TIMESTAMP EQ ISZERO PUSH2 0x5D9 JUMP JUMPDEST POP SWAP1 CALLVALUE PUSH2 0x2AB JUMPI DUP2 PUSH1 0x3 NOT CALLDATASIZE ADD SLT PUSH2 0x2AB JUMPI SWAP1 SLOAD SWAP1 MLOAD PUSH1 0x1 PUSH1 0x1 PUSH1 0xA0 SHL SUB SWAP1 SWAP2 AND DUP2 MSTORE PUSH1 0x20 SWAP1 RETURN JUMPDEST POP CALLVALUE PUSH2 0x3D2 JUMPI DUP1 PUSH1 0x3 NOT CALLDATASIZE ADD SLT PUSH2 0x3D2 JUMPI PUSH2 0x68F PUSH2 0xF77 JUMP JUMPDEST DUP1 SLOAD PUSH1 0x1 PUSH1 0x1 PUSH1 0xA0 SHL SUB NOT DUP2 AND DUP3 SSTORE DUP2 SWAP1 PUSH1 0x1 PUSH1 0x1 PUSH1 0xA0 SHL SUB AND PUSH32 0x8BE0079C531659141344CD1FD0A4F28419497F9722A3DAAFE3B4186F6B6457E0 DUP3 DUP1 LOG3 DUP1 RETURN JUMPDEST POP SWAP1 CALLVALUE PUSH2 0x2AB JUMPI DUP2 PUSH1 0x3 NOT CALLDATASIZE ADD SLT PUSH2 0x2AB JUMPI SWAP2 SLOAD PUSH1 0x60 SWAP3 SWAP1 ISZERO PUSH2 0x70F JUMPI PUSH1 0x1 SWAP2 JUMPDEST SLOAD DUP2 MLOAD SWAP3 ISZERO ISZERO DUP4 MSTORE PUSH1 0x1 PUSH1 0x1 PUSH1 0xA0 SHL SUB AND BALANCE PUSH1 0x20 DUP4 ADD MSTORE SELFBALANCE SWAP1 DUP3 ADD MSTORE RETURN JUMPDEST DUP2 PUSH2 0x6F1 JUMP JUMPDEST POP SWAP1 CALLVALUE PUSH2 0x2AB JUMPI DUP2 PUSH1 0x3 NOT CALLDATASIZE ADD SLT PUSH2 0x2AB JUMPI PUSH1 0x20 SWAP1 MLOAD PUSH1 0x81 DUP2 MSTORE RETURN JUMPDEST POP SWAP2 CALLVALUE PUSH2 0x160 JUMPI PUSH1 0x20 CALLDATASIZE PUSH1 0x3 NOT ADD SLT PUSH2 0x160 JUMPI DUP1 CALLDATALOAD PUSH1 0x1 PUSH1 0x1 PUSH1 0x40 SHL SUB DUP2 GT PUSH2 0x5AF JUMPI PUSH2 0x761 SWAP1 CALLDATASIZE SWAP1 DUP4 ADD PUSH2 0xA51 JUMP JUMPDEST SWAP2 PUSH2 0x76A PUSH2 0xF77 JUMP JUMPDEST PUSH1 0x81 SWAP4 PUSH1 0x81 DUP5 SUB PUSH2 0x79E JUMPI POP POP DUP4 JUMPDEST DUP4 DUP2 LT PUSH2 0x784 JUMPI DUP5 DUP1 RETURN JUMPDEST DUP1 PUSH2 0x792 PUSH1 0x1 SWAP3 DUP6 DUP6 PUSH2 0xAFE JUMP JUMPDEST CALLDATALOAD DUP2 PUSH1 0x6 ADD SSTORE ADD PUSH2 0x779 JUMP JUMPDEST MLOAD PUSH4 0x251F56A1 PUSH1 0xE2 SHL DUP2 MSTORE REVERT JUMPDEST POP SWAP2 SWAP1 CALLVALUE PUSH2 0x160 JUMPI DUP1 PUSH1 0x3 NOT CALLDATASIZE ADD SLT PUSH2 0x160 JUMPI PUSH1 0x1 PUSH1 0x1 PUSH1 0x40 SHL SUB SWAP1 DUP3 CALLDATALOAD DUP3 DUP2 GT PUSH2 0x5AB JUMPI PUSH2 0x7DD SWAP1 CALLDATASIZE SWAP1 DUP6 ADD PUSH2 0xA51 JUMP JUMPDEST SWAP4 PUSH1 0x24 SWAP4 PUSH1 0x24 CALLDATALOAD SWAP1 DUP2 GT PUSH2 0x9CC JUMPI PUSH2 0x7F8 SWAP1 CALLDATASIZE SWAP1 DUP4 ADD PUSH2 0xA51 JUMP JUMPDEST SWAP5 SWAP1 SWAP2 DUP6 DUP8 SUB PUSH2 0x9BE JUMPI PUSH2 0x80D DUP8 SWAP6 SWAP8 PUSH2 0xAE7 JUMP JUMPDEST SWAP6 PUSH2 0x81A DUP9 MLOAD SWAP8 DUP9 PUSH2 0xAC6 JUMP JUMPDEST DUP6 DUP8 MSTORE PUSH2 0x826 DUP7 PUSH2 0xAE7 JUMP JUMPDEST PUSH1 0x20 SWAP7 SWAP1 PUSH1 0x1F NOT ADD DUP11 JUMPDEST DUP2 DUP2 LT PUSH2 0x99A JUMPI POP POP DUP10 JUMPDEST DUP2 DUP2 LT PUSH2 0x8AB JUMPI DUP11 DUP11 DUP11 DUP11 DUP3 MLOAD SWAP3 DUP2 DUP1 DUP6 ADD SWAP2 DUP2 DUP7 MSTORE DUP5 MLOAD DUP1 SWAP4 MSTORE DUP6 ADD SWAP4 ADD SWAP2 DUP6 JUMPDEST DUP3 DUP2 LT PUSH2 0x86A JUMPI DUP6 DUP6 SUB DUP7 RETURN JUMPDEST SWAP1 SWAP2 SWAP3 SWAP4 DUP3 DUP6 MLOAD DUP3 SWAP1 DUP10 SWAP2 JUMPDEST PUSH1 0x81 DUP4 LT PUSH2 0x895 JUMPI POP POP POP PUSH2 0x1020 PUSH1 0x1 SWAP3 ADD SWAP6 ADD SWAP2 ADD SWAP3 SWAP2 SWAP1 SWAP3 PUSH2 0x85D JUMP JUMPDEST DUP2 MLOAD DUP2 MSTORE DUP7 SWAP4 PUSH1 0x1 SWAP1 SWAP4 ADD SWAP3 SWAP2 DUP3 ADD SWAP2 ADD PUSH2 0x876 JUMP JUMPDEST PUSH2 0x8B9 DUP2 DUP4 DUP10 SWAP13 SWAP11 SWAP13 PUSH2 0xAFE JUMP JUMPDEST CALLDATALOAD PUSH2 0x8C5 DUP3 DUP6 DUP10 PUSH2 0xAFE JUMP JUMPDEST CALLDATALOAD DUP13 JUMPDEST DUP14 DUP14 DUP9 DUP14 PUSH1 0x81 DUP6 LT PUSH2 0x8E6 JUMPI POP POP POP POP POP POP POP PUSH1 0x1 ADD SWAP9 SWAP7 SWAP9 PUSH2 0x83B JUMP JUMPDEST MLOAD PUSH4 0x71DACC7D PUSH1 0xE1 SHL DUP2 MSTORE SWAP1 DUP2 ADD DUP7 DUP2 MSTORE PUSH1 0x20 DUP2 ADD DUP7 SWAP1 MSTORE PUSH1 0x40 DUP2 ADD DUP6 SWAP1 MSTORE SWAP1 SWAP2 SWAP1 DUP3 SWAP1 DUP2 SWAP1 PUSH1 0x60 ADD SUB DUP2 PUSH2 0x805 GAS STATICCALL SWAP2 DUP3 ISZERO PUSH2 0x98F JUMPI SWAP2 PUSH2 0x95E JUMPI JUMPDEST POP DUP13 MLOAD DUP6 LT ISZERO PUSH2 0x94C JUMPI SWAP1 PUSH1 0x1 SWAP2 PUSH2 0x945 DUP16 DUP16 SWAP1 DUP5 SWAP2 DUP10 PUSH1 0x5 SHL ADD ADD MLOAD PUSH2 0xB24 JUMP JUMPDEST MSTORE ADD PUSH2 0x8C8 JUMP JUMPDEST PUSH4 0x4E487B71 PUSH1 0xE0 SHL DUP16 MSTORE PUSH1 0x32 DUP9 MSTORE DUP9 DUP16 REVERT JUMPDEST SWAP1 POP DUP14 DUP2 DUP2 RETURNDATASIZE DUP4 GT PUSH2 0x988 JUMPI JUMPDEST PUSH2 0x975 DUP2 DUP4 PUSH2 0xAC6 JUMP JUMPDEST DUP2 ADD SUB SLT PUSH2 0x984 JUMPI MLOAD CODESIZE PUSH2 0x923 JUMP JUMPDEST DUP15 DUP1 REVERT JUMPDEST POP RETURNDATASIZE PUSH2 0x96B JUMP JUMPDEST DUP14 MLOAD SWAP1 RETURNDATASIZE SWAP1 DUP3 RETURNDATACOPY RETURNDATASIZE SWAP1 REVERT JUMPDEST SWAP8 DUP11 SWAP9 DUP2 SWAP12 MLOAD PUSH2 0x9A9 DUP2 PUSH2 0xAAA JUMP JUMPDEST PUSH2 0x1020 CALLDATASIZE DUP3 CALLDATACOPY DUP3 DUP3 DUP14 ADD ADD MSTORE ADD SWAP10 SWAP8 SWAP10 PUSH2 0x830 JUMP JUMPDEST DUP5 MLOAD PUSH4 0x512509D3 PUSH1 0xE1 SHL DUP2 MSTORE REVERT JUMPDEST DUP7 DUP1 REVERT JUMPDEST SWAP2 SWAP4 SWAP1 POP CALLVALUE PUSH2 0x5AF JUMPI PUSH1 0x20 CALLDATASIZE PUSH1 0x3 NOT ADD SLT PUSH2 0x5AF JUMPI PUSH2 0x9ED PUSH2 0xA3B JUMP JUMPDEST PUSH1 0x3 SLOAD SWAP3 PUSH1 0x1 PUSH1 0x1 PUSH1 0xA0 SHL SUB SWAP2 SWAP1 DUP3 DUP6 AND CALLER SUB PUSH2 0xA2D JUMPI POP AND SWAP3 DUP4 ISZERO PUSH2 0xA20 JUMPI POP POP PUSH1 0x1 PUSH1 0x1 PUSH1 0xA0 SHL SUB NOT AND OR PUSH1 0x3 SSTORE DUP1 RETURN JUMPDEST MLOAD PUSH4 0xE6C4247B PUSH1 0xE0 SHL DUP2 MSTORE REVERT JUMPDEST PUSH4 0x2D99BC83 PUSH1 0xE2 SHL DUP2 MSTORE DUP4 SWAP1 REVERT JUMPDEST PUSH1 0x4 CALLDATALOAD SWAP1 PUSH1 0x1 PUSH1 0x1 PUSH1 0xA0 SHL SUB DUP3 AND DUP3 SUB PUSH2 0x398 JUMPI JUMP JUMPDEST SWAP2 DUP2 PUSH1 0x1F DUP5 ADD SLT ISZERO PUSH2 0x398 JUMPI DUP3 CALLDATALOAD SWAP2 PUSH1 0x1 PUSH1 0x1 PUSH1 0x40 SHL SUB DUP4 GT PUSH2 0x398 JUMPI PUSH1 0x20 DUP1 DUP6 ADD SWAP5 DUP5 PUSH1 0x5 SHL ADD ADD GT PUSH2 0x398 JUMPI JUMP JUMPDEST PUSH1 0x1 PUSH1 0x1 PUSH1 0x40 SHL SUB DUP2 GT PUSH2 0xA94 JUMPI PUSH1 0x40 MSTORE JUMP JUMPDEST PUSH4 0x4E487B71 PUSH1 0xE0 SHL PUSH1 0x0 MSTORE PUSH1 0x41 PUSH1 0x4 MSTORE PUSH1 0x24 PUSH1 0x0 REVERT JUMPDEST PUSH2 0x1020 DUP2 ADD SWAP1 DUP2 LT PUSH1 0x1 PUSH1 0x1 PUSH1 0x40 SHL SUB DUP3 GT OR PUSH2 0xA94 JUMPI PUSH1 0x40 MSTORE JUMP JUMPDEST SWAP1 PUSH1 0x1F DUP1 NOT SWAP2 ADD AND DUP2 ADD SWAP1 DUP2 LT PUSH1 0x1 PUSH1 0x1 PUSH1 0x40 SHL SUB DUP3 GT OR PUSH2 0xA94 JUMPI PUSH1 0x40 MSTORE JUMP JUMPDEST PUSH1 0x1 PUSH1 0x1 PUSH1 0x40 SHL SUB DUP2 GT PUSH2 0xA94 JUMPI PUSH1 0x5 SHL PUSH1 0x20 ADD SWAP1 JUMP JUMPDEST SWAP2 SWAP1 DUP2 LT ISZERO PUSH2 0xB0E JUMPI PUSH1 0x5 SHL ADD SWAP1 JUMP JUMPDEST PUSH4 0x4E487B71 PUSH1 0xE0 SHL PUSH1 0x0 MSTORE PUSH1 0x32 PUSH1 0x4 MSTORE PUSH1 0x24 PUSH1 0x0 REVERT JUMPDEST SWAP1 PUSH1 0x81 DUP2 LT ISZERO PUSH2 0xB0E JUMPI PUSH1 0x5 SHL ADD SWAP1 JUMP JUMPDEST SWAP2 SWAP1 DUP3 SUB SWAP2 DUP3 GT PUSH2 0xB42 JUMPI JUMP JUMPDEST PUSH4 0x4E487B71 PUSH1 0xE0 SHL PUSH1 0x0 MSTORE PUSH1 0x11 PUSH1 0x4 MSTORE PUSH1 0x24 PUSH1 0x0 REVERT JUMPDEST SWAP1 DUP2 PUSH1 0x20 SWAP2 SUB SLT PUSH2 0x398 JUMPI MLOAD PUSH1 0x1 PUSH1 0x1 PUSH1 0x40 SHL SUB DUP2 AND DUP2 SUB PUSH2 0x398 JUMPI SWAP1 JUMP JUMPDEST SWAP6 SWAP10 SWAP2 SWAP5 SWAP9 SWAP3 SWAP8 SWAP1 SWAP7 SWAP4 SWAP9 PUSH2 0xB92 PUSH1 0x0 SWAP9 PUSH1 0xFF DUP12 AND SWAP1 PUSH2 0xB35 JUMP JUMPDEST PUSH1 0x81 DUP2 LT ISZERO PUSH2 0xF24 JUMPI PUSH1 0x6 ADD SLOAD SWAP11 PUSH1 0x4 SWAP11 DUP12 SLOAD DUP1 ISZERO ISZERO DUP1 PUSH2 0xF18 JUMPI JUMPDEST PUSH2 0xEB1 JUMPI JUMPDEST POP DUP9 PUSH2 0xBC9 JUMPI JUMPDEST POP POP POP POP POP POP POP POP POP POP POP POP POP JUMP JUMPDEST DUP12 DUP14 DUP3 PUSH2 0xDB2 JUMPI JUMPDEST POP POP POP POP POP DUP7 JUMPDEST DUP2 DUP2 LT PUSH2 0xCF0 JUMPI POP POP POP POP POP PUSH1 0x40 MLOAD PUSH4 0x69E38BC3 PUSH1 0xE0 SHL DUP2 MSTORE PUSH2 0xFFFF DUP8 AND DUP7 DUP3 ADD MSTORE PUSH1 0x20 DUP2 PUSH1 0x24 DUP2 PUSH2 0x808 GAS STATICCALL SWAP1 DUP2 ISZERO PUSH2 0xCE5 JUMPI DUP5 SWAP2 PUSH2 0xCB3 JUMPI JUMPDEST POP GT ISZERO PUSH2 0xC28 JUMPI JUMPDEST DUP1 DUP1 DUP1 DUP1 DUP1 DUP1 DUP1 DUP1 PUSH2 0xBBA JUMP JUMPDEST SELFBALANCE SWAP1 DUP1 DUP3 GT PUSH2 0xCAB JUMPI JUMPDEST POP PUSH2 0x805 SWAP1 DUP2 EXTCODESIZE ISZERO PUSH2 0x160 JUMPI PUSH4 0x3B9ACA00 PUSH1 0x64 DUP5 SWAP3 DUP4 PUSH1 0x40 MLOAD SWAP6 DUP7 SWAP5 DUP6 SWAP4 PUSH4 0x1FC9B141 PUSH1 0xE0 SHL DUP6 MSTORE DUP11 DUP13 DUP7 ADD MSTORE DIV PUSH1 0x24 DUP5 ADD MSTORE DUP11 PUSH1 0x44 DUP5 ADD MSTORE GAS CALL DUP1 ISZERO PUSH2 0xCA0 JUMPI PUSH2 0xC8C JUMPI JUMPDEST POP POP PUSH1 0x5 SSTORE SSTORE TIMESTAMP PUSH1 0x2 SSTORE CODESIZE DUP1 DUP1 DUP1 DUP1 PUSH2 0xC1B JUMP JUMPDEST PUSH2 0xC96 DUP3 SWAP2 PUSH2 0xA81 JUMP JUMPDEST PUSH2 0x3D2 JUMPI DUP1 PUSH2 0xC78 JUMP JUMPDEST PUSH1 0x40 MLOAD RETURNDATASIZE DUP5 DUP3 RETURNDATACOPY RETURNDATASIZE SWAP1 REVERT JUMPDEST SWAP1 POP CODESIZE PUSH2 0xC32 JUMP JUMPDEST SWAP1 POP PUSH1 0x20 DUP2 RETURNDATASIZE PUSH1 0x20 GT PUSH2 0xCDD JUMPI JUMPDEST DUP2 PUSH2 0xCCE PUSH1 0x20 SWAP4 DUP4 PUSH2 0xAC6 JUMP JUMPDEST DUP2 ADD SUB SLT PUSH2 0x398 JUMPI MLOAD CODESIZE PUSH2 0xC13 JUMP JUMPDEST RETURNDATASIZE SWAP2 POP PUSH2 0xCC1 JUMP JUMPDEST PUSH1 0x40 MLOAD RETURNDATASIZE DUP7 DUP3 RETURNDATACOPY RETURNDATASIZE SWAP1 REVERT JUMPDEST PUSH2 0xD3F DUP12 PUSH2 0xCFF DUP4 DUP6 DUP10 PUSH2 0xAFE JUMP JUMPDEST CALLDATALOAD DUP13 PUSH2 0xD0C DUP6 DUP9 DUP11 PUSH2 0xAFE JUMP JUMPDEST CALLDATALOAD SWAP3 PUSH1 0x40 SWAP4 DUP5 MLOAD SWAP6 DUP7 SWAP3 DUP4 SWAP3 PUSH4 0x71DACC7D PUSH1 0xE1 SHL DUP5 MSTORE PUSH1 0x20 SWAP7 DUP8 SWAP7 DUP6 ADD PUSH1 0x40 SWAP2 SWAP5 SWAP4 SWAP3 PUSH1 0x60 DUP3 ADD SWAP6 DUP3 MSTORE PUSH1 0x20 DUP3 ADD MSTORE ADD MSTORE JUMP JUMPDEST SUB DUP2 PUSH2 0x805 GAS STATICCALL SWAP2 DUP3 ISZERO PUSH2 0xDA9 JUMPI POP DUP11 SWAP2 PUSH2 0xD77 JUMPI JUMPDEST POP PUSH4 0x3B9ACA00 SWAP2 POP GT PUSH2 0xD6A JUMPI PUSH1 0x1 ADD PUSH2 0xBD8 JUMP JUMPDEST POP POP POP POP POP POP POP POP POP POP POP JUMP JUMPDEST SWAP1 POP DUP2 DUP2 RETURNDATASIZE DUP4 GT PUSH2 0xDA2 JUMPI JUMPDEST PUSH2 0xD8D DUP2 DUP4 PUSH2 0xAC6 JUMP JUMPDEST DUP2 ADD SUB SLT PUSH2 0x398 JUMPI PUSH4 0x3B9ACA00 SWAP1 MLOAD CODESIZE PUSH2 0xD55 JUMP JUMPDEST POP RETURNDATASIZE PUSH2 0xD83 JUMP JUMPDEST MLOAD RETURNDATASIZE DUP13 DUP3 RETURNDATACOPY RETURNDATASIZE SWAP1 REVERT JUMPDEST PUSH1 0x40 DUP1 MLOAD PUSH4 0x71DACC7D PUSH1 0xE1 SHL DUP2 MSTORE SWAP3 DUP4 ADD SWAP6 DUP7 MSTORE PUSH1 0x20 DUP7 DUP2 ADD SWAP6 SWAP1 SWAP6 MSTORE DUP6 ADD MSTORE SWAP2 SWAP3 DUP4 SWAP1 DUP4 SWAP1 DUP2 SWAP1 PUSH1 0x60 ADD SUB DUP2 PUSH2 0x805 GAS STATICCALL SWAP1 DUP2 ISZERO PUSH2 0xE75 JUMPI DUP11 SWAP2 PUSH2 0xE80 JUMPI JUMPDEST PUSH2 0xDFC SWAP3 POP PUSH2 0xB35 JUMP JUMPDEST SWAP1 PUSH1 0x40 MLOAD PUSH4 0xC2BA9E87 PUSH1 0xE0 SHL DUP2 MSTORE PUSH2 0xFFFF DUP14 AND DUP13 DUP3 ADD MSTORE DUP2 DUP2 PUSH1 0x24 DUP2 PUSH2 0x808 GAS STATICCALL SWAP2 DUP3 ISZERO PUSH2 0xE75 JUMPI SWAP2 PUSH1 0x1 PUSH1 0x1 PUSH1 0x40 SHL SUB SWAP2 PUSH2 0x7D0 SWAP4 DUP13 SWAP3 PUSH2 0xE58 JUMPI JUMPDEST POP POP AND DIV GT PUSH2 0xE4C JUMPI CODESIZE DUP1 DUP1 DUP12 DUP14 PUSH2 0xBD1 JUMP JUMPDEST POP POP POP POP POP POP POP POP POP POP JUMP JUMPDEST PUSH2 0xE6E SWAP3 POP DUP1 RETURNDATASIZE LT PUSH2 0x49E JUMPI PUSH2 0x48E DUP2 DUP4 PUSH2 0xAC6 JUMP JUMPDEST CODESIZE DUP1 PUSH2 0xE39 JUMP JUMPDEST PUSH1 0x40 MLOAD RETURNDATASIZE DUP13 DUP3 RETURNDATACOPY RETURNDATASIZE SWAP1 REVERT JUMPDEST SWAP1 POP DUP3 DUP3 DUP2 RETURNDATASIZE DUP4 GT PUSH2 0xEAA JUMPI JUMPDEST PUSH2 0xE97 DUP2 DUP4 PUSH2 0xAC6 JUMP JUMPDEST DUP2 ADD SUB SLT PUSH2 0x398 JUMPI PUSH2 0xDFC SWAP2 MLOAD SWAP1 PUSH2 0xDF2 JUMP JUMPDEST POP RETURNDATASIZE PUSH2 0xE8D JUMP JUMPDEST PUSH1 0x5 SLOAD PUSH2 0x805 DUP1 EXTCODESIZE ISZERO PUSH2 0xF14 JUMPI SWAP1 PUSH1 0x44 DUP16 DUP15 DUP1 SWAP5 PUSH1 0x40 MLOAD SWAP7 DUP8 SWAP6 DUP7 SWAP5 PUSH4 0xD4626BB9 PUSH1 0xE0 SHL DUP7 MSTORE DUP6 ADD MSTORE PUSH1 0x24 DUP5 ADD MSTORE GAS CALL DUP1 ISZERO PUSH2 0xF09 JUMPI PUSH2 0xEF6 JUMPI JUMPDEST POP DUP10 DUP13 SSTORE CODESIZE PUSH2 0xBB3 JUMP JUMPDEST PUSH2 0xF02 SWAP1 SWAP11 SWAP2 SWAP11 PUSH2 0xA81 JUMP JUMPDEST SWAP9 CODESIZE PUSH2 0xEEC JUMP JUMPDEST PUSH1 0x40 MLOAD RETURNDATASIZE DUP14 DUP3 RETURNDATACOPY RETURNDATASIZE SWAP1 REVERT JUMPDEST DUP13 DUP1 REVERT JUMPDEST POP PUSH1 0x2 SLOAD TIMESTAMP EQ ISZERO PUSH2 0xBAE JUMP JUMPDEST PUSH4 0x4E487B71 PUSH1 0xE0 SHL DUP10 MSTORE PUSH1 0x32 PUSH1 0x4 MSTORE PUSH1 0x24 DUP10 REVERT JUMPDEST RETURNDATASIZE ISZERO PUSH2 0xF72 JUMPI RETURNDATASIZE SWAP1 PUSH1 0x1 PUSH1 0x1 PUSH1 0x40 SHL SUB DUP3 GT PUSH2 0xA94 JUMPI PUSH1 0x40 MLOAD SWAP2 PUSH2 0xF66 PUSH1 0x1F DUP3 ADD PUSH1 0x1F NOT AND PUSH1 0x20 ADD DUP5 PUSH2 0xAC6 JUMP JUMPDEST DUP3 MSTORE RETURNDATASIZE PUSH1 0x0 PUSH1 0x20 DUP5 ADD RETURNDATACOPY JUMP JUMPDEST PUSH1 0x60 SWAP1 JUMP JUMPDEST PUSH1 0x0 SLOAD PUSH1 0x1 PUSH1 0x1 PUSH1 0xA0 SHL SUB AND CALLER SUB PUSH2 0xF8B JUMPI JUMP JUMPDEST PUSH1 0x64 PUSH1 0x40 MLOAD PUSH3 0x461BCD PUSH1 0xE5 SHL DUP2 MSTORE PUSH1 0x20 PUSH1 0x4 DUP3 ADD MSTORE PUSH1 0x20 PUSH1 0x24 DUP3 ADD MSTORE PUSH32 0x4F776E61626C653A2063616C6C6572206973206E6F7420746865206F776E6572 PUSH1 0x44 DUP3 ADD MSTORE REVERT INVALID LOG2 PUSH5 0x6970667358 0x22 SLT KECCAK256 0xF8 MSIZE 0x4F ADD 0xBB 0xE 0xB7 0xC3 0x2D CALLDATASIZE 0xD4 0xF DUP2 SWAP12 LT CALLDATASIZE 0xB8 0xEC 0xB5 JUMP 0xE7 0xC9 0xE INVALID SIGNEXTEND SWAP10 0xE2 0x28 0x22 MUL 0xD8 PUSH2 0x6473 PUSH16 0x6C634300081600330000000000000000 "},"methodIdentifiers":{"NETUID_COUNT()":"50bf8649","emergencyWithdrawTao(address,uint256)":"f528c62e","getAlphaPrices()":"bc28d5d0","getInfo()":"5a9b0b89","getStakedAmounts(bytes32[],bytes32[])":"26a224e0","getTaoInPools()":"a8c2bb0d","lastStakeTimestamp()":"f0f9e975","owner()":"8da5cb5b","removeStakeAlpha()":"9be3ac01","renounceOwnership()":"715018a6","setWithdrawer(address)":"0d174c24","stakeTaoForAlpha(uint256,uint256,uint256,bytes32,uint256,bytes32,bytes32,bytes32[],bytes32[])":"a504edf9","transferOwnership(address)":"f2fde38b","updateNetuids(uint256[])":"3f3b7858","withdrawAll(address)":"fa09e630","withdrawer()":"cdc18424"}}}}}