{"contracts/TradingV8_1.sol":{"TradingV8_1":{"abi":[{"inputs":[],"stateMutability":"nonpayable","type":"constructor"},{"inputs":[],"name":"AmountZero","type":"error"},{"inputs":[],"name":"InvalidAddress","type":"error"},{"inputs":[],"name":"NotOwner","type":"error"},{"inputs":[],"name":"NotWithdrawer","type":"error"},{"inputs":[],"name":"NotWithdrawerOrOwner","type":"error"},{"inputs":[],"name":"TransferFailed","type":"error"},{"inputs":[],"name":"DELEGATOR_BYTES_KEY","outputs":[{"internalType":"bytes32","name":"","type":"bytes32"}],"stateMutability":"view","type":"function"},{"inputs":[{"internalType":"bytes32","name":"destination_coldkey","type":"bytes32"},{"internalType":"bytes32","name":"origin_coldkey","type":"bytes32"}],"name":"moveStakeAll","outputs":[],"stateMutability":"nonpayable","type":"function"},{"inputs":[],"name":"owner","outputs":[{"internalType":"address","name":"","type":"address"}],"stateMutability":"view","type":"function"},{"inputs":[{"internalType":"uint256","name":"netuid","type":"uint256"},{"internalType":"uint256","name":"amount","type":"uint256"}],"name":"removeStake","outputs":[],"stateMutability":"nonpayable","type":"function"},{"inputs":[{"internalType":"address","name":"newWithdrawer","type":"address"},{"internalType":"bytes32","name":"newDelegatorColdkey","type":"bytes32"}],"name":"setConfig","outputs":[],"stateMutability":"nonpayable","type":"function"},{"inputs":[],"name":"withdrawAll","outputs":[],"stateMutability":"nonpayable","type":"function"},{"inputs":[],"name":"withdrawer","outputs":[{"internalType":"address","name":"","type":"address"}],"stateMutability":"view","type":"function"}],"evm":{"bytecode":{"linkReferences":{},"object":"6080806040523461003757600160005560018060a01b031933816001541617600155339060035416176003556105a0908161003d8239f35b600080fdfe6040608081526004908136101561001557600080fd5b600091823560e01c908163057c71b0146103315781632d67f0b91461024c578163853828b6146101835781638da5cb5b1461015a578163cdc1842414610131578163f4f1726b146100ad575063fcd1a8d61461007057600080fd5b346100a957816003193601126100a957602090517fb4c087119097fbe3985298eef52f35ef6271c48322a8c2d430902a9cc38d94738152f35b5080fd5b9190503461012d578060031936011261012d576001600160a01b03823581811693919290849003610129576100e0610514565b600154928316330361011c57831561010f5750506001600160a01b031916176001908155602435600255815580f35b5163e6c4247b60e01b8152fd5b51632d99bc8360e21b8152fd5b8480fd5b8280fd5b5050346100a957816003193601126100a95760015490516001600160a01b039091168152602090f35b5050346100a957816003193601126100a95760035490516001600160a01b039091168152602090f35b9190503461012d578260031936011261012d5761019e610514565b6003546001600160a01b03908116330361023e574790811561022f57848080938193600154165af13d1561022a573d67ffffffffffffffff8111610217578251906101f3601f8201601f1916602001836104f2565b81528460203d92013e5b1561020a57826001815580f35b516312171d8360e31b8152fd5b634e487b7160e01b855260418452602485fd5b6101fd565b5050516365e52d5160e11b8152fd5b50516330cd747160e01b8152fd5b9190503461012d578060031936011261012d57610267610514565b600154336001600160a01b0391821614159081610322575b5061031657826002549261080593843b1561012d5760a4908385519687948593630be72fb160e11b8552818501527fb4c087119097fbe3985298eef52f35ef6271c48322a8c2d430902a9cc38d9473602485015235604484015281606484015260243560848401525af190811561030d57506102fe575b506001815580f35b610307906104c8565b386102f6565b513d84823e3d90fd5b5162bd99e760e11b8152fd5b9050600354163314153861027f565b9190503461012d578060031936011261012d5760248035918335610353610514565b600180549095906001600160a01b031633036104ba5794939291906001955b6081871061038257876001815580f35b8251966371dacc7d60e11b88527fb4c087119097fbe3985298eef52f35ef6271c48322a8c2d430902a9cc38d947380838a015286868a015289604499838b82015260209a6064610805948d848381895afa9384156104b0578d9e869e999a9b9c9d9e95610479575b505083610406575b505050505050019493929190959495610372565b9091929394809697503b15610129578a958994888a948160a4978f968b97519c8d9b8c9a630be72fb160e11b8c528b015289015287015285015260848401525af1801561046f5790889291610460575b89818080806103f2565b610469906104c8565b38610456565b85513d8b823e3d90fd5b819950809295503d83116104a9575b61049281836104f2565b810103126104a5578c96519238806103ea565b8380fd5b503d610488565b8a513d87823e3d90fd5b8251632d99bc8360e21b8152fd5b67ffffffffffffffff81116104dc57604052565b634e487b7160e01b600052604160045260246000fd5b90601f8019910116810190811067ffffffffffffffff8211176104dc57604052565b600260005414610525576002600055565b60405162461bcd60e51b815260206004820152601f60248201527f5265656e7472616e637947756172643a207265656e7472616e742063616c6c006044820152606490fdfea2646970667358221220effc326ff33a8605351299be9e89fe5a3be6e50e19671e075b9d119222ff790c64736f6c63430008160033","opcodes":"PUSH1 0x80 DUP1 PUSH1 0x40 MSTORE CALLVALUE PUSH2 0x37 JUMPI PUSH1 0x1 PUSH1 0x0 SSTORE PUSH1 0x1 DUP1 PUSH1 0xA0 SHL SUB NOT CALLER DUP2 PUSH1 0x1 SLOAD AND OR PUSH1 0x1 SSTORE CALLER SWAP1 PUSH1 0x3 SLOAD AND OR PUSH1 0x3 SSTORE PUSH2 0x5A0 SWAP1 DUP2 PUSH2 0x3D DUP3 CODECOPY RETURN JUMPDEST PUSH1 0x0 DUP1 REVERT INVALID PUSH1 0x40 PUSH1 0x80 DUP2 MSTORE PUSH1 0x4 SWAP1 DUP2 CALLDATASIZE LT ISZERO PUSH2 0x15 JUMPI PUSH1 0x0 DUP1 REVERT JUMPDEST PUSH1 0x0 SWAP2 DUP3 CALLDATALOAD PUSH1 0xE0 SHR SWAP1 DUP2 PUSH4 0x57C71B0 EQ PUSH2 0x331 JUMPI DUP2 PUSH4 0x2D67F0B9 EQ PUSH2 0x24C JUMPI DUP2 PUSH4 0x853828B6 EQ PUSH2 0x183 JUMPI DUP2 PUSH4 0x8DA5CB5B EQ PUSH2 0x15A JUMPI DUP2 PUSH4 0xCDC18424 EQ PUSH2 0x131 JUMPI DUP2 PUSH4 0xF4F1726B EQ PUSH2 0xAD JUMPI POP PUSH4 0xFCD1A8D6 EQ PUSH2 0x70 JUMPI PUSH1 0x0 DUP1 REVERT JUMPDEST CALLVALUE PUSH2 0xA9 JUMPI DUP2 PUSH1 0x3 NOT CALLDATASIZE ADD SLT PUSH2 0xA9 JUMPI PUSH1 0x20 SWAP1 MLOAD PUSH32 0xB4C087119097FBE3985298EEF52F35EF6271C48322A8C2D430902A9CC38D9473 DUP2 MSTORE RETURN JUMPDEST POP DUP1 REVERT JUMPDEST SWAP2 SWAP1 POP CALLVALUE PUSH2 0x12D JUMPI DUP1 PUSH1 0x3 NOT CALLDATASIZE ADD SLT PUSH2 0x12D JUMPI PUSH1 0x1 PUSH1 0x1 PUSH1 0xA0 SHL SUB DUP3 CALLDATALOAD DUP2 DUP2 AND SWAP4 SWAP2 SWAP3 SWAP1 DUP5 SWAP1 SUB PUSH2 0x129 JUMPI PUSH2 0xE0 PUSH2 0x514 JUMP JUMPDEST PUSH1 0x1 SLOAD SWAP3 DUP4 AND CALLER SUB PUSH2 0x11C JUMPI DUP4 ISZERO PUSH2 0x10F JUMPI POP POP PUSH1 0x1 PUSH1 0x1 PUSH1 0xA0 SHL SUB NOT AND OR PUSH1 0x1 SWAP1 DUP2 SSTORE PUSH1 0x24 CALLDATALOAD PUSH1 0x2 SSTORE DUP2 SSTORE DUP1 RETURN JUMPDEST MLOAD PUSH4 0xE6C4247B PUSH1 0xE0 SHL DUP2 MSTORE REVERT JUMPDEST MLOAD PUSH4 0x2D99BC83 PUSH1 0xE2 SHL DUP2 MSTORE REVERT JUMPDEST DUP5 DUP1 REVERT JUMPDEST DUP3 DUP1 REVERT JUMPDEST POP POP CALLVALUE PUSH2 0xA9 JUMPI DUP2 PUSH1 0x3 NOT CALLDATASIZE ADD SLT PUSH2 0xA9 JUMPI PUSH1 0x1 SLOAD SWAP1 MLOAD PUSH1 0x1 PUSH1 0x1 PUSH1 0xA0 SHL SUB SWAP1 SWAP2 AND DUP2 MSTORE PUSH1 0x20 SWAP1 RETURN JUMPDEST POP POP CALLVALUE PUSH2 0xA9 JUMPI DUP2 PUSH1 0x3 NOT CALLDATASIZE ADD SLT PUSH2 0xA9 JUMPI PUSH1 0x3 SLOAD SWAP1 MLOAD PUSH1 0x1 PUSH1 0x1 PUSH1 0xA0 SHL SUB SWAP1 SWAP2 AND DUP2 MSTORE PUSH1 0x20 SWAP1 RETURN JUMPDEST SWAP2 SWAP1 POP CALLVALUE PUSH2 0x12D JUMPI DUP3 PUSH1 0x3 NOT CALLDATASIZE ADD SLT PUSH2 0x12D JUMPI PUSH2 0x19E PUSH2 0x514 JUMP JUMPDEST PUSH1 0x3 SLOAD PUSH1 0x1 PUSH1 0x1 PUSH1 0xA0 SHL SUB SWAP1 DUP2 AND CALLER SUB PUSH2 0x23E JUMPI SELFBALANCE SWAP1 DUP2 ISZERO PUSH2 0x22F JUMPI DUP5 DUP1 DUP1 SWAP4 DUP2 SWAP4 PUSH1 0x1 SLOAD AND GAS CALL RETURNDATASIZE ISZERO PUSH2 0x22A JUMPI RETURNDATASIZE PUSH8 0xFFFFFFFFFFFFFFFF DUP2 GT PUSH2 0x217 JUMPI DUP3 MLOAD SWAP1 PUSH2 0x1F3 PUSH1 0x1F DUP3 ADD PUSH1 0x1F NOT AND PUSH1 0x20 ADD DUP4 PUSH2 0x4F2 JUMP JUMPDEST DUP2 MSTORE DUP5 PUSH1 0x20 RETURNDATASIZE SWAP3 ADD RETURNDATACOPY JUMPDEST ISZERO PUSH2 0x20A JUMPI DUP3 PUSH1 0x1 DUP2 SSTORE DUP1 RETURN JUMPDEST MLOAD PUSH4 0x12171D83 PUSH1 0xE3 SHL DUP2 MSTORE REVERT JUMPDEST PUSH4 0x4E487B71 PUSH1 0xE0 SHL DUP6 MSTORE PUSH1 0x41 DUP5 MSTORE PUSH1 0x24 DUP6 REVERT JUMPDEST PUSH2 0x1FD JUMP JUMPDEST POP POP MLOAD PUSH4 0x65E52D51 PUSH1 0xE1 SHL DUP2 MSTORE REVERT JUMPDEST POP MLOAD PUSH4 0x30CD7471 PUSH1 0xE0 SHL DUP2 MSTORE REVERT JUMPDEST SWAP2 SWAP1 POP CALLVALUE PUSH2 0x12D JUMPI DUP1 PUSH1 0x3 NOT CALLDATASIZE ADD SLT PUSH2 0x12D JUMPI PUSH2 0x267 PUSH2 0x514 JUMP JUMPDEST PUSH1 0x1 SLOAD CALLER PUSH1 0x1 PUSH1 0x1 PUSH1 0xA0 SHL SUB SWAP2 DUP3 AND EQ ISZERO SWAP1 DUP2 PUSH2 0x322 JUMPI JUMPDEST POP PUSH2 0x316 JUMPI DUP3 PUSH1 0x2 SLOAD SWAP3 PUSH2 0x805 SWAP4 DUP5 EXTCODESIZE ISZERO PUSH2 0x12D JUMPI PUSH1 0xA4 SWAP1 DUP4 DUP6 MLOAD SWAP7 DUP8 SWAP5 DUP6 SWAP4 PUSH4 0xBE72FB1 PUSH1 0xE1 SHL DUP6 MSTORE DUP2 DUP6 ADD MSTORE PUSH32 0xB4C087119097FBE3985298EEF52F35EF6271C48322A8C2D430902A9CC38D9473 PUSH1 0x24 DUP6 ADD MSTORE CALLDATALOAD PUSH1 0x44 DUP5 ADD MSTORE DUP2 PUSH1 0x64 DUP5 ADD MSTORE PUSH1 0x24 CALLDATALOAD PUSH1 0x84 DUP5 ADD MSTORE GAS CALL SWAP1 DUP2 ISZERO PUSH2 0x30D JUMPI POP PUSH2 0x2FE JUMPI JUMPDEST POP PUSH1 0x1 DUP2 SSTORE DUP1 RETURN JUMPDEST PUSH2 0x307 SWAP1 PUSH2 0x4C8 JUMP JUMPDEST CODESIZE PUSH2 0x2F6 JUMP JUMPDEST MLOAD RETURNDATASIZE DUP5 DUP3 RETURNDATACOPY RETURNDATASIZE SWAP1 REVERT JUMPDEST MLOAD PUSH3 0xBD99E7 PUSH1 0xE1 SHL DUP2 MSTORE REVERT JUMPDEST SWAP1 POP PUSH1 0x3 SLOAD AND CALLER EQ ISZERO CODESIZE PUSH2 0x27F JUMP JUMPDEST SWAP2 SWAP1 POP CALLVALUE PUSH2 0x12D JUMPI DUP1 PUSH1 0x3 NOT CALLDATASIZE ADD SLT PUSH2 0x12D JUMPI PUSH1 0x24 DUP1 CALLDATALOAD SWAP2 DUP4 CALLDATALOAD PUSH2 0x353 PUSH2 0x514 JUMP JUMPDEST PUSH1 0x1 DUP1 SLOAD SWAP1 SWAP6 SWAP1 PUSH1 0x1 PUSH1 0x1 PUSH1 0xA0 SHL SUB AND CALLER SUB PUSH2 0x4BA JUMPI SWAP5 SWAP4 SWAP3 SWAP2 SWAP1 PUSH1 0x1 SWAP6 JUMPDEST PUSH1 0x81 DUP8 LT PUSH2 0x382 JUMPI DUP8 PUSH1 0x1 DUP2 SSTORE DUP1 RETURN JUMPDEST DUP3 MLOAD SWAP7 PUSH4 0x71DACC7D PUSH1 0xE1 SHL DUP9 MSTORE PUSH32 0xB4C087119097FBE3985298EEF52F35EF6271C48322A8C2D430902A9CC38D9473 DUP1 DUP4 DUP11 ADD MSTORE DUP7 DUP7 DUP11 ADD MSTORE DUP10 PUSH1 0x44 SWAP10 DUP4 DUP12 DUP3 ADD MSTORE PUSH1 0x20 SWAP11 PUSH1 0x64 PUSH2 0x805 SWAP5 DUP14 DUP5 DUP4 DUP2 DUP10 GAS STATICCALL SWAP4 DUP5 ISZERO PUSH2 0x4B0 JUMPI DUP14 SWAP15 DUP7 SWAP15 SWAP10 SWAP11 SWAP12 SWAP13 SWAP14 SWAP15 SWAP6 PUSH2 0x479 JUMPI JUMPDEST POP POP DUP4 PUSH2 0x406 JUMPI JUMPDEST POP POP POP POP POP POP ADD SWAP5 SWAP4 SWAP3 SWAP2 SWAP1 SWAP6 SWAP5 SWAP6 PUSH2 0x372 JUMP JUMPDEST SWAP1 SWAP2 SWAP3 SWAP4 SWAP5 DUP1 SWAP7 SWAP8 POP EXTCODESIZE ISZERO PUSH2 0x129 JUMPI DUP11 SWAP6 DUP10 SWAP5 DUP9 DUP11 SWAP5 DUP2 PUSH1 0xA4 SWAP8 DUP16 SWAP7 DUP12 SWAP8 MLOAD SWAP13 DUP14 SWAP12 DUP13 SWAP11 PUSH4 0xBE72FB1 PUSH1 0xE1 SHL DUP13 MSTORE DUP12 ADD MSTORE DUP10 ADD MSTORE DUP8 ADD MSTORE DUP6 ADD MSTORE PUSH1 0x84 DUP5 ADD MSTORE GAS CALL DUP1 ISZERO PUSH2 0x46F JUMPI SWAP1 DUP9 SWAP3 SWAP2 PUSH2 0x460 JUMPI JUMPDEST DUP10 DUP2 DUP1 DUP1 DUP1 PUSH2 0x3F2 JUMP JUMPDEST PUSH2 0x469 SWAP1 PUSH2 0x4C8 JUMP JUMPDEST CODESIZE PUSH2 0x456 JUMP JUMPDEST DUP6 MLOAD RETURNDATASIZE DUP12 DUP3 RETURNDATACOPY RETURNDATASIZE SWAP1 REVERT JUMPDEST DUP2 SWAP10 POP DUP1 SWAP3 SWAP6 POP RETURNDATASIZE DUP4 GT PUSH2 0x4A9 JUMPI JUMPDEST PUSH2 0x492 DUP2 DUP4 PUSH2 0x4F2 JUMP JUMPDEST DUP2 ADD SUB SLT PUSH2 0x4A5 JUMPI DUP13 SWAP7 MLOAD SWAP3 CODESIZE DUP1 PUSH2 0x3EA JUMP JUMPDEST DUP4 DUP1 REVERT JUMPDEST POP RETURNDATASIZE PUSH2 0x488 JUMP JUMPDEST DUP11 MLOAD RETURNDATASIZE DUP8 DUP3 RETURNDATACOPY RETURNDATASIZE SWAP1 REVERT JUMPDEST DUP3 MLOAD PUSH4 0x2D99BC83 PUSH1 0xE2 SHL DUP2 MSTORE REVERT JUMPDEST PUSH8 0xFFFFFFFFFFFFFFFF DUP2 GT PUSH2 0x4DC JUMPI PUSH1 0x40 MSTORE JUMP JUMPDEST PUSH4 0x4E487B71 PUSH1 0xE0 SHL PUSH1 0x0 MSTORE PUSH1 0x41 PUSH1 0x4 MSTORE PUSH1 0x24 PUSH1 0x0 REVERT JUMPDEST SWAP1 PUSH1 0x1F DUP1 NOT SWAP2 ADD AND DUP2 ADD SWAP1 DUP2 LT PUSH8 0xFFFFFFFFFFFFFFFF DUP3 GT OR PUSH2 0x4DC JUMPI PUSH1 0x40 MSTORE JUMP JUMPDEST PUSH1 0x2 PUSH1 0x0 SLOAD EQ PUSH2 0x525 JUMPI PUSH1 0x2 PUSH1 0x0 SSTORE JUMP JUMPDEST PUSH1 0x40 MLOAD PUSH3 0x461BCD PUSH1 0xE5 SHL DUP2 MSTORE PUSH1 0x20 PUSH1 0x4 DUP3 ADD MSTORE PUSH1 0x1F PUSH1 0x24 DUP3 ADD MSTORE PUSH32 0x5265656E7472616E637947756172643A207265656E7472616E742063616C6C00 PUSH1 0x44 DUP3 ADD MSTORE PUSH1 0x64 SWAP1 REVERT INVALID LOG2 PUSH5 0x6970667358 0x22 SLT KECCAK256 0xEF 0xFC ORIGIN PUSH16 0xF33A8605351299BE9E89FE5A3BE6E50E NOT PUSH8 0x1E075B9D119222FF PUSH26 0xC64736F6C634300081600330000000000000000000000000000 "},"methodIdentifiers":{"DELEGATOR_BYTES_KEY()":"fcd1a8d6","moveStakeAll(bytes32,bytes32)":"057c71b0","owner()":"8da5cb5b","removeStake(uint256,uint256)":"2d67f0b9","setConfig(address,bytes32)":"f4f1726b","withdrawAll()":"853828b6","withdrawer()":"cdc18424"}}}}}