{"contracts/Monitor.sol":{"Monitor":{"abi":[{"inputs":[],"name":"LengthMismatch","type":"error"},{"inputs":[{"internalType":"bytes32[]","name":"hotkeys","type":"bytes32[]"},{"internalType":"bytes32[]","name":"coldkeys","type":"bytes32[]"}],"name":"getStakedAmount","outputs":[{"internalType":"uint256[129]","name":"amount","type":"uint256[129]"}],"stateMutability":"view","type":"function"},{"inputs":[{"internalType":"uint256","name":"","type":"uint256"}],"name":"is_staked","outputs":[{"internalType":"bool","name":"","type":"bool"}],"stateMutability":"view","type":"function"}],"evm":{"bytecode":{"linkReferences":{},"object":"60808060405234610016576102e8908161001c8239f35b600080fdfe60806040908082526004908136101561001757600080fd5b600090813560e01c90816308b41c011461021d5750637cdfe4491461003b57600080fd5b3461021a578260031936011261021a5767ffffffffffffffff9180358381116102165761006b9036908301610256565b92602492602435868111610216576100869036908301610256565b9690885198611020808b018b81108582111761020357825280368c378989036101f05760015b61ffff811660818110156101c4578c8b8d928a938b925b8d8185106100e8575050505050600583901b621fffe016015260010161ffff166100ac565b6101059293955084809795926100fd9261028c565b35928a61028c565b358751916371dacc7d60e11b83528b8301528d82015282604482015260209081816064816108055afa9182156101ba578c92610168575b50508101809111610156579060018f929301908e8e6100c3565b634e487b7160e01b8a52601189528b8afd5b809192503d82116101b3575b601f8101601f191683018b8111848210176101a157895282018290031261019d5751388061013c565b8a80fd5b634e487b7160e01b8e5260418d528f8efd5b503d610174565b88513d8e823e3d90fd5b83518390898f825b608183106101d957505050f35b6001908251815260208091019201920191906101cc565b81516001621398b960e31b031981528590fd5b634e487b7160e01b875260418652602487fd5b8280fd5b80fd5b90508234610216576020366003190112610216573591608183101561021a575060ff8260f860209460051c549160031b161c1615158152f35b9181601f840112156102875782359167ffffffffffffffff8311610287576020808501948460051b01011161028757565b600080fd5b919081101561029c5760051b0190565b634e487b7160e01b600052603260045260246000fdfea2646970667358221220865f205f48a7ca23902c3d2f36741646829c322c3e09ffe9abf57a1e05e393dc64736f6c63430008160033","opcodes":"PUSH1 0x80 DUP1 PUSH1 0x40 MSTORE CALLVALUE PUSH2 0x16 JUMPI PUSH2 0x2E8 SWAP1 DUP2 PUSH2 0x1C DUP3 CODECOPY RETURN JUMPDEST PUSH1 0x0 DUP1 REVERT INVALID PUSH1 0x80 PUSH1 0x40 SWAP1 DUP1 DUP3 MSTORE PUSH1 0x4 SWAP1 DUP2 CALLDATASIZE LT ISZERO PUSH2 0x17 JUMPI PUSH1 0x0 DUP1 REVERT JUMPDEST PUSH1 0x0 SWAP1 DUP2 CALLDATALOAD PUSH1 0xE0 SHR SWAP1 DUP2 PUSH4 0x8B41C01 EQ PUSH2 0x21D JUMPI POP PUSH4 0x7CDFE449 EQ PUSH2 0x3B JUMPI PUSH1 0x0 DUP1 REVERT JUMPDEST CALLVALUE PUSH2 0x21A JUMPI DUP3 PUSH1 0x3 NOT CALLDATASIZE ADD SLT PUSH2 0x21A JUMPI PUSH8 0xFFFFFFFFFFFFFFFF SWAP2 DUP1 CALLDATALOAD DUP4 DUP2 GT PUSH2 0x216 JUMPI PUSH2 0x6B SWAP1 CALLDATASIZE SWAP1 DUP4 ADD PUSH2 0x256 JUMP JUMPDEST SWAP3 PUSH1 0x24 SWAP3 PUSH1 0x24 CALLDATALOAD DUP7 DUP2 GT PUSH2 0x216 JUMPI PUSH2 0x86 SWAP1 CALLDATASIZE SWAP1 DUP4 ADD PUSH2 0x256 JUMP JUMPDEST SWAP7 SWAP1 DUP9 MLOAD SWAP9 PUSH2 0x1020 DUP1 DUP12 ADD DUP12 DUP2 LT DUP6 DUP3 GT OR PUSH2 0x203 JUMPI DUP3 MSTORE DUP1 CALLDATASIZE DUP13 CALLDATACOPY DUP10 DUP10 SUB PUSH2 0x1F0 JUMPI PUSH1 0x1 JUMPDEST PUSH2 0xFFFF DUP2 AND PUSH1 0x81 DUP2 LT ISZERO PUSH2 0x1C4 JUMPI DUP13 DUP12 DUP14 SWAP3 DUP11 SWAP4 DUP12 SWAP3 JUMPDEST DUP14 DUP2 DUP6 LT PUSH2 0xE8 JUMPI POP POP POP POP POP PUSH1 0x5 DUP4 SWAP1 SHL PUSH3 0x1FFFE0 AND ADD MSTORE PUSH1 0x1 ADD PUSH2 0xFFFF AND PUSH2 0xAC JUMP JUMPDEST PUSH2 0x105 SWAP3 SWAP4 SWAP6 POP DUP5 DUP1 SWAP8 SWAP6 SWAP3 PUSH2 0xFD SWAP3 PUSH2 0x28C JUMP JUMPDEST CALLDATALOAD SWAP3 DUP11 PUSH2 0x28C JUMP JUMPDEST CALLDATALOAD DUP8 MLOAD SWAP2 PUSH4 0x71DACC7D PUSH1 0xE1 SHL DUP4 MSTORE DUP12 DUP4 ADD MSTORE DUP14 DUP3 ADD MSTORE DUP3 PUSH1 0x44 DUP3 ADD MSTORE PUSH1 0x20 SWAP1 DUP2 DUP2 PUSH1 0x64 DUP2 PUSH2 0x805 GAS STATICCALL SWAP2 DUP3 ISZERO PUSH2 0x1BA JUMPI DUP13 SWAP3 PUSH2 0x168 JUMPI JUMPDEST POP POP DUP2 ADD DUP1 SWAP2 GT PUSH2 0x156 JUMPI SWAP1 PUSH1 0x1 DUP16 SWAP3 SWAP4 ADD SWAP1 DUP15 DUP15 PUSH2 0xC3 JUMP JUMPDEST PUSH4 0x4E487B71 PUSH1 0xE0 SHL DUP11 MSTORE PUSH1 0x11 DUP10 MSTORE DUP12 DUP11 REVERT JUMPDEST DUP1 SWAP2 SWAP3 POP RETURNDATASIZE DUP3 GT PUSH2 0x1B3 JUMPI JUMPDEST PUSH1 0x1F DUP2 ADD PUSH1 0x1F NOT AND DUP4 ADD DUP12 DUP2 GT DUP5 DUP3 LT OR PUSH2 0x1A1 JUMPI DUP10 MSTORE DUP3 ADD DUP3 SWAP1 SUB SLT PUSH2 0x19D JUMPI MLOAD CODESIZE DUP1 PUSH2 0x13C JUMP JUMPDEST DUP11 DUP1 REVERT JUMPDEST PUSH4 0x4E487B71 PUSH1 0xE0 SHL DUP15 MSTORE PUSH1 0x41 DUP14 MSTORE DUP16 DUP15 REVERT JUMPDEST POP RETURNDATASIZE PUSH2 0x174 JUMP JUMPDEST DUP9 MLOAD RETURNDATASIZE DUP15 DUP3 RETURNDATACOPY RETURNDATASIZE SWAP1 REVERT JUMPDEST DUP4 MLOAD DUP4 SWAP1 DUP10 DUP16 DUP3 JUMPDEST PUSH1 0x81 DUP4 LT PUSH2 0x1D9 JUMPI POP POP POP RETURN JUMPDEST PUSH1 0x1 SWAP1 DUP3 MLOAD DUP2 MSTORE PUSH1 0x20 DUP1 SWAP2 ADD SWAP3 ADD SWAP3 ADD SWAP2 SWAP1 PUSH2 0x1CC JUMP JUMPDEST DUP2 MLOAD PUSH1 0x1 PUSH3 0x1398B9 PUSH1 0xE3 SHL SUB NOT DUP2 MSTORE DUP6 SWAP1 REVERT JUMPDEST PUSH4 0x4E487B71 PUSH1 0xE0 SHL DUP8 MSTORE PUSH1 0x41 DUP7 MSTORE PUSH1 0x24 DUP8 REVERT JUMPDEST DUP3 DUP1 REVERT JUMPDEST DUP1 REVERT JUMPDEST SWAP1 POP DUP3 CALLVALUE PUSH2 0x216 JUMPI PUSH1 0x20 CALLDATASIZE PUSH1 0x3 NOT ADD SLT PUSH2 0x216 JUMPI CALLDATALOAD SWAP2 PUSH1 0x81 DUP4 LT ISZERO PUSH2 0x21A JUMPI POP PUSH1 0xFF DUP3 PUSH1 0xF8 PUSH1 0x20 SWAP5 PUSH1 0x5 SHR SLOAD SWAP2 PUSH1 0x3 SHL AND SHR AND ISZERO ISZERO DUP2 MSTORE RETURN JUMPDEST SWAP2 DUP2 PUSH1 0x1F DUP5 ADD SLT ISZERO PUSH2 0x287 JUMPI DUP3 CALLDATALOAD SWAP2 PUSH8 0xFFFFFFFFFFFFFFFF DUP4 GT PUSH2 0x287 JUMPI PUSH1 0x20 DUP1 DUP6 ADD SWAP5 DUP5 PUSH1 0x5 SHL ADD ADD GT PUSH2 0x287 JUMPI JUMP JUMPDEST PUSH1 0x0 DUP1 REVERT JUMPDEST SWAP2 SWAP1 DUP2 LT ISZERO PUSH2 0x29C JUMPI PUSH1 0x5 SHL ADD SWAP1 JUMP JUMPDEST PUSH4 0x4E487B71 PUSH1 0xE0 SHL PUSH1 0x0 MSTORE PUSH1 0x32 PUSH1 0x4 MSTORE PUSH1 0x24 PUSH1 0x0 REVERT INVALID LOG2 PUSH5 0x6970667358 0x22 SLT KECCAK256 DUP7 PUSH0 KECCAK256 PUSH0 BASEFEE 0xA7 0xCA 0x23 SWAP1 0x2C RETURNDATASIZE 0x2F CALLDATASIZE PUSH21 0x1646829C322C3E09FFE9ABF57A1E05E393DC64736F PUSH13 0x63430008160033000000000000 "},"methodIdentifiers":{"getStakedAmount(bytes32[],bytes32[])":"7cdfe449","is_staked(uint256)":"08b41c01"}}}}}