{"contracts/FreeBalanceReader.sol":{"FreeBalanceReader":{"abi":[{"inputs":[{"internalType":"bytes","name":"keySuffix","type":"bytes"}],"name":"freeBalance","outputs":[{"internalType":"uint256","name":"free","type":"uint256"}],"stateMutability":"view","type":"function"},{"inputs":[{"internalType":"bytes","name":"keySuffix","type":"bytes"}],"name":"rawAccountInfo","outputs":[{"internalType":"bytes","name":"","type":"bytes"}],"stateMutability":"view","type":"function"}],"evm":{"bytecode":{"linkReferences":{},"object":"6080806040523461001657610411908161001c8239f35b600080fdfe6080604052600436101561001257600080fd5b6000803560e01c80630ba179ee146100af57631821cdc01461003357600080fd5b346100ac578061005f610045366100d1565b9061005260308314610143565b61005a6101c7565b610211565b6020815191016108075afa61007b61007561024f565b9161028f565b6040805180926020825261009e8151809281602086015260208686019101610120565b601f01601f19168101030190f35b80fd5b50346100ac5760206100c96100c3366100d1565b906102d4565b604051908152f35b90602060031983011261011b5760043567ffffffffffffffff9283821161011b578060238301121561011b57816004013593841161011b576024848301011161011b576024019190565b600080fd5b60005b8381106101335750506000910152565b8181015183820152602001610123565b1561014a57565b60405162461bcd60e51b815260206004820152601760248201527f737566666978206d7573742062652034382062797465730000000000000000006044820152606490fd5b90601f8019910116810190811067ffffffffffffffff8211176101b157604052565b634e487b7160e01b600052604160045260246000fd5b604051906040820182811067ffffffffffffffff8211176101b157604052602082527f26aa394eea5630e07c48ae0c9558cef7b99d880ec681799c0cf30e8886371da96020830152565b6020908361024d9395949560405196836102348995518092888089019101610120565b840191858301370160008382015203808552018361018f565b565b3d1561028a573d9067ffffffffffffffff82116101b1576040519161027e601f8201601f19166020018461018f565b82523d6000602084013e565b606090565b1561029657565b60405162461bcd60e51b81526020600482015260166024820152751cdd1bdc9859d9481c5d595c9e481c995d995c9d195960521b6044820152606490fd5b603092916102e791610052858314610143565b9160008084602082965191016108075afa9061030a61030461024f565b9261028f565b815180156103d657602011610391578391825b6010808510156103895784810180911161036157825111156103755781840183015160f81c6001600160fd1b038516850361036157600185019460031b1b1761031d565b634e487b7160e01b87526011600452602487fd5b634e487b7160e01b86526032600452602486fd5b509450505050565b60405162461bcd60e51b815260206004820152601d60248201527f756e6578706563746564204163636f756e74496e666f206c656e6774680000006044820152606490fd5b50505056fea26469706673582212205aecb692c4ffe202ed6ba3f801b0979bba9e406e1e7688c1ea8bcb13c4c9f6c264736f6c63430008160033","opcodes":"PUSH1 0x80 DUP1 PUSH1 0x40 MSTORE CALLVALUE PUSH2 0x16 JUMPI PUSH2 0x411 SWAP1 DUP2 PUSH2 0x1C DUP3 CODECOPY RETURN JUMPDEST PUSH1 0x0 DUP1 REVERT INVALID PUSH1 0x80 PUSH1 0x40 MSTORE PUSH1 0x4 CALLDATASIZE LT ISZERO PUSH2 0x12 JUMPI PUSH1 0x0 DUP1 REVERT JUMPDEST PUSH1 0x0 DUP1 CALLDATALOAD PUSH1 0xE0 SHR DUP1 PUSH4 0xBA179EE EQ PUSH2 0xAF JUMPI PUSH4 0x1821CDC0 EQ PUSH2 0x33 JUMPI PUSH1 0x0 DUP1 REVERT JUMPDEST CALLVALUE PUSH2 0xAC JUMPI DUP1 PUSH2 0x5F PUSH2 0x45 CALLDATASIZE PUSH2 0xD1 JUMP JUMPDEST SWAP1 PUSH2 0x52 PUSH1 0x30 DUP4 EQ PUSH2 0x143 JUMP JUMPDEST PUSH2 0x5A PUSH2 0x1C7 JUMP JUMPDEST PUSH2 0x211 JUMP JUMPDEST PUSH1 0x20 DUP2 MLOAD SWAP2 ADD PUSH2 0x807 GAS STATICCALL PUSH2 0x7B PUSH2 0x75 PUSH2 0x24F JUMP JUMPDEST SWAP2 PUSH2 0x28F JUMP JUMPDEST PUSH1 0x40 DUP1 MLOAD DUP1 SWAP3 PUSH1 0x20 DUP3 MSTORE PUSH2 0x9E DUP2 MLOAD DUP1 SWAP3 DUP2 PUSH1 0x20 DUP7 ADD MSTORE PUSH1 0x20 DUP7 DUP7 ADD SWAP2 ADD PUSH2 0x120 JUMP JUMPDEST PUSH1 0x1F ADD PUSH1 0x1F NOT AND DUP2 ADD SUB ADD SWAP1 RETURN JUMPDEST DUP1 REVERT JUMPDEST POP CALLVALUE PUSH2 0xAC JUMPI PUSH1 0x20 PUSH2 0xC9 PUSH2 0xC3 CALLDATASIZE PUSH2 0xD1 JUMP JUMPDEST SWAP1 PUSH2 0x2D4 JUMP JUMPDEST PUSH1 0x40 MLOAD SWAP1 DUP2 MSTORE RETURN JUMPDEST SWAP1 PUSH1 0x20 PUSH1 0x3 NOT DUP4 ADD SLT PUSH2 0x11B JUMPI PUSH1 0x4 CALLDATALOAD PUSH8 0xFFFFFFFFFFFFFFFF SWAP3 DUP4 DUP3 GT PUSH2 0x11B JUMPI DUP1 PUSH1 0x23 DUP4 ADD SLT ISZERO PUSH2 0x11B JUMPI DUP2 PUSH1 0x4 ADD CALLDATALOAD SWAP4 DUP5 GT PUSH2 0x11B JUMPI PUSH1 0x24 DUP5 DUP4 ADD ADD GT PUSH2 0x11B JUMPI PUSH1 0x24 ADD SWAP2 SWAP1 JUMP JUMPDEST PUSH1 0x0 DUP1 REVERT JUMPDEST PUSH1 0x0 JUMPDEST DUP4 DUP2 LT PUSH2 0x133 JUMPI POP POP PUSH1 0x0 SWAP2 ADD MSTORE JUMP JUMPDEST DUP2 DUP2 ADD MLOAD DUP4 DUP3 ADD MSTORE PUSH1 0x20 ADD PUSH2 0x123 JUMP JUMPDEST ISZERO PUSH2 0x14A JUMPI JUMP JUMPDEST PUSH1 0x40 MLOAD PUSH3 0x461BCD PUSH1 0xE5 SHL DUP2 MSTORE PUSH1 0x20 PUSH1 0x4 DUP3 ADD MSTORE PUSH1 0x17 PUSH1 0x24 DUP3 ADD MSTORE PUSH32 0x737566666978206D757374206265203438206279746573000000000000000000 PUSH1 0x44 DUP3 ADD MSTORE PUSH1 0x64 SWAP1 REVERT JUMPDEST SWAP1 PUSH1 0x1F DUP1 NOT SWAP2 ADD AND DUP2 ADD SWAP1 DUP2 LT PUSH8 0xFFFFFFFFFFFFFFFF DUP3 GT OR PUSH2 0x1B1 JUMPI PUSH1 0x40 MSTORE JUMP JUMPDEST PUSH4 0x4E487B71 PUSH1 0xE0 SHL PUSH1 0x0 MSTORE PUSH1 0x41 PUSH1 0x4 MSTORE PUSH1 0x24 PUSH1 0x0 REVERT JUMPDEST PUSH1 0x40 MLOAD SWAP1 PUSH1 0x40 DUP3 ADD DUP3 DUP2 LT PUSH8 0xFFFFFFFFFFFFFFFF DUP3 GT OR PUSH2 0x1B1 JUMPI PUSH1 0x40 MSTORE PUSH1 0x20 DUP3 MSTORE PUSH32 0x26AA394EEA5630E07C48AE0C9558CEF7B99D880EC681799C0CF30E8886371DA9 PUSH1 0x20 DUP4 ADD MSTORE JUMP JUMPDEST PUSH1 0x20 SWAP1 DUP4 PUSH2 0x24D SWAP4 SWAP6 SWAP5 SWAP6 PUSH1 0x40 MLOAD SWAP7 DUP4 PUSH2 0x234 DUP10 SWAP6 MLOAD DUP1 SWAP3 DUP9 DUP1 DUP10 ADD SWAP2 ADD PUSH2 0x120 JUMP JUMPDEST DUP5 ADD SWAP2 DUP6 DUP4 ADD CALLDATACOPY ADD PUSH1 0x0 DUP4 DUP3 ADD MSTORE SUB DUP1 DUP6 MSTORE ADD DUP4 PUSH2 0x18F JUMP JUMPDEST JUMP JUMPDEST RETURNDATASIZE ISZERO PUSH2 0x28A JUMPI RETURNDATASIZE SWAP1 PUSH8 0xFFFFFFFFFFFFFFFF DUP3 GT PUSH2 0x1B1 JUMPI PUSH1 0x40 MLOAD SWAP2 PUSH2 0x27E PUSH1 0x1F DUP3 ADD PUSH1 0x1F NOT AND PUSH1 0x20 ADD DUP5 PUSH2 0x18F JUMP JUMPDEST DUP3 MSTORE RETURNDATASIZE PUSH1 0x0 PUSH1 0x20 DUP5 ADD RETURNDATACOPY JUMP JUMPDEST PUSH1 0x60 SWAP1 JUMP JUMPDEST ISZERO PUSH2 0x296 JUMPI JUMP JUMPDEST PUSH1 0x40 MLOAD PUSH3 0x461BCD PUSH1 0xE5 SHL DUP2 MSTORE PUSH1 0x20 PUSH1 0x4 DUP3 ADD MSTORE PUSH1 0x16 PUSH1 0x24 DUP3 ADD MSTORE PUSH22 0x1CDD1BDC9859D9481C5D595C9E481C995D995C9D1959 PUSH1 0x52 SHL PUSH1 0x44 DUP3 ADD MSTORE PUSH1 0x64 SWAP1 REVERT JUMPDEST PUSH1 0x30 SWAP3 SWAP2 PUSH2 0x2E7 SWAP2 PUSH2 0x52 DUP6 DUP4 EQ PUSH2 0x143 JUMP JUMPDEST SWAP2 PUSH1 0x0 DUP1 DUP5 PUSH1 0x20 DUP3 SWAP7 MLOAD SWAP2 ADD PUSH2 0x807 GAS STATICCALL SWAP1 PUSH2 0x30A PUSH2 0x304 PUSH2 0x24F JUMP JUMPDEST SWAP3 PUSH2 0x28F JUMP JUMPDEST DUP2 MLOAD DUP1 ISZERO PUSH2 0x3D6 JUMPI PUSH1 0x20 GT PUSH2 0x391 JUMPI DUP4 SWAP2 DUP3 JUMPDEST PUSH1 0x10 DUP1 DUP6 LT ISZERO PUSH2 0x389 JUMPI DUP5 DUP2 ADD DUP1 SWAP2 GT PUSH2 0x361 JUMPI DUP3 MLOAD GT ISZERO PUSH2 0x375 JUMPI DUP2 DUP5 ADD DUP4 ADD MLOAD PUSH1 0xF8 SHR PUSH1 0x1 PUSH1 0x1 PUSH1 0xFD SHL SUB DUP6 AND DUP6 SUB PUSH2 0x361 JUMPI PUSH1 0x1 DUP6 ADD SWAP5 PUSH1 0x3 SHL SHL OR PUSH2 0x31D JUMP JUMPDEST PUSH4 0x4E487B71 PUSH1 0xE0 SHL DUP8 MSTORE PUSH1 0x11 PUSH1 0x4 MSTORE PUSH1 0x24 DUP8 REVERT JUMPDEST PUSH4 0x4E487B71 PUSH1 0xE0 SHL DUP7 MSTORE PUSH1 0x32 PUSH1 0x4 MSTORE PUSH1 0x24 DUP7 REVERT JUMPDEST POP SWAP5 POP POP POP POP JUMP JUMPDEST PUSH1 0x40 MLOAD PUSH3 0x461BCD PUSH1 0xE5 SHL DUP2 MSTORE PUSH1 0x20 PUSH1 0x4 DUP3 ADD MSTORE PUSH1 0x1D PUSH1 0x24 DUP3 ADD MSTORE PUSH32 0x756E6578706563746564204163636F756E74496E666F206C656E677468000000 PUSH1 0x44 DUP3 ADD MSTORE PUSH1 0x64 SWAP1 REVERT JUMPDEST POP POP POP JUMP INVALID LOG2 PUSH5 0x6970667358 0x22 SLT KECCAK256 GAS 0xEC 0xB6 SWAP3 0xC4 SELFDESTRUCT 0xE2 MUL 0xED PUSH12 0xA3F801B0979BBA9E406E1E76 DUP9 0xC1 0xEA DUP12 0xCB SGT 0xC4 0xC9 0xF6 0xC2 PUSH5 0x736F6C6343 STOP ADDMOD AND STOP CALLER "},"methodIdentifiers":{"freeBalance(bytes)":"0ba179ee","rawAccountInfo(bytes)":"1821cdc0"}}}}}