{"contracts/BittensorReceiver.sol":{"BittensorReceiver":{"abi":[{"inputs":[{"internalType":"address","name":"_endpoint","type":"address"},{"internalType":"address","name":"_owner","type":"address"}],"stateMutability":"nonpayable","type":"constructor"},{"inputs":[],"name":"InvalidDelegate","type":"error"},{"inputs":[],"name":"InvalidEndpointCall","type":"error"},{"inputs":[],"name":"LzTokenUnavailable","type":"error"},{"inputs":[{"internalType":"uint32","name":"eid","type":"uint32"}],"name":"NoPeer","type":"error"},{"inputs":[{"internalType":"uint256","name":"msgValue","type":"uint256"}],"name":"NotEnoughNative","type":"error"},{"inputs":[{"internalType":"address","name":"addr","type":"address"}],"name":"OnlyEndpoint","type":"error"},{"inputs":[{"internalType":"uint32","name":"eid","type":"uint32"},{"internalType":"bytes32","name":"sender","type":"bytes32"}],"name":"OnlyPeer","type":"error"},{"anonymous":false,"inputs":[{"indexed":true,"internalType":"uint256","name":"index","type":"uint256"},{"indexed":false,"internalType":"uint32","name":"srcEid","type":"uint32"},{"indexed":false,"internalType":"bytes32","name":"sender","type":"bytes32"},{"indexed":false,"internalType":"uint256","name":"blockNumber","type":"uint256"}],"name":"MessageReceived","type":"event"},{"anonymous":false,"inputs":[{"indexed":true,"internalType":"address","name":"previousOwner","type":"address"},{"indexed":true,"internalType":"address","name":"newOwner","type":"address"}],"name":"OwnershipTransferred","type":"event"},{"anonymous":false,"inputs":[{"indexed":false,"internalType":"uint32","name":"eid","type":"uint32"},{"indexed":false,"internalType":"bytes32","name":"peer","type":"bytes32"}],"name":"PeerSet","type":"event"},{"inputs":[{"components":[{"internalType":"uint32","name":"srcEid","type":"uint32"},{"internalType":"bytes32","name":"sender","type":"bytes32"},{"internalType":"uint64","name":"nonce","type":"uint64"}],"internalType":"struct Origin","name":"origin","type":"tuple"}],"name":"allowInitializePath","outputs":[{"internalType":"bool","name":"","type":"bool"}],"stateMutability":"view","type":"function"},{"inputs":[{"internalType":"uint32","name":"srcEid","type":"uint32"}],"name":"countBySourceEid","outputs":[{"internalType":"uint256","name":"","type":"uint256"}],"stateMutability":"view","type":"function"},{"inputs":[],"name":"endpoint","outputs":[{"internalType":"contract ILayerZeroEndpointV2","name":"","type":"address"}],"stateMutability":"view","type":"function"},{"inputs":[{"internalType":"uint256","name":"_index","type":"uint256"}],"name":"getMessage","outputs":[{"components":[{"internalType":"uint32","name":"srcEid","type":"uint32"},{"internalType":"bytes32","name":"sender","type":"bytes32"},{"internalType":"bytes","name":"payload","type":"bytes"},{"internalType":"uint256","name":"blockNumber","type":"uint256"},{"internalType":"uint256","name":"index","type":"uint256"}],"internalType":"struct BittensorReceiver.ReceivedMessage","name":"","type":"tuple"}],"stateMutability":"view","type":"function"},{"inputs":[{"components":[{"internalType":"uint32","name":"srcEid","type":"uint32"},{"internalType":"bytes32","name":"sender","type":"bytes32"},{"internalType":"uint64","name":"nonce","type":"uint64"}],"internalType":"struct Origin","name":"","type":"tuple"},{"internalType":"bytes","name":"","type":"bytes"},{"internalType":"address","name":"_sender","type":"address"}],"name":"isComposeMsgSender","outputs":[{"internalType":"bool","name":"","type":"bool"}],"stateMutability":"view","type":"function"},{"inputs":[{"components":[{"internalType":"uint32","name":"srcEid","type":"uint32"},{"internalType":"bytes32","name":"sender","type":"bytes32"},{"internalType":"uint64","name":"nonce","type":"uint64"}],"internalType":"struct Origin","name":"_origin","type":"tuple"},{"internalType":"bytes32","name":"_guid","type":"bytes32"},{"internalType":"bytes","name":"_message","type":"bytes"},{"internalType":"address","name":"_executor","type":"address"},{"internalType":"bytes","name":"_extraData","type":"bytes"}],"name":"lzReceive","outputs":[],"stateMutability":"payable","type":"function"},{"inputs":[],"name":"messageCount","outputs":[{"internalType":"uint256","name":"","type":"uint256"}],"stateMutability":"view","type":"function"},{"inputs":[{"internalType":"uint256","name":"","type":"uint256"}],"name":"messages","outputs":[{"internalType":"uint32","name":"srcEid","type":"uint32"},{"internalType":"bytes32","name":"sender","type":"bytes32"},{"internalType":"bytes","name":"payload","type":"bytes"},{"internalType":"uint256","name":"blockNumber","type":"uint256"},{"internalType":"uint256","name":"index","type":"uint256"}],"stateMutability":"view","type":"function"},{"inputs":[{"internalType":"uint32","name":"","type":"uint32"},{"internalType":"bytes32","name":"","type":"bytes32"}],"name":"nextNonce","outputs":[{"internalType":"uint64","name":"nonce","type":"uint64"}],"stateMutability":"view","type":"function"},{"inputs":[],"name":"oAppVersion","outputs":[{"internalType":"uint64","name":"senderVersion","type":"uint64"},{"internalType":"uint64","name":"receiverVersion","type":"uint64"}],"stateMutability":"pure","type":"function"},{"inputs":[],"name":"owner","outputs":[{"internalType":"address","name":"","type":"address"}],"stateMutability":"view","type":"function"},{"inputs":[{"internalType":"uint32","name":"eid","type":"uint32"}],"name":"peers","outputs":[{"internalType":"bytes32","name":"peer","type":"bytes32"}],"stateMutability":"view","type":"function"},{"inputs":[],"name":"renounceOwnership","outputs":[],"stateMutability":"nonpayable","type":"function"},{"inputs":[{"internalType":"address","name":"_delegate","type":"address"}],"name":"setDelegate","outputs":[],"stateMutability":"nonpayable","type":"function"},{"inputs":[{"internalType":"uint32","name":"_eid","type":"uint32"},{"internalType":"bytes32","name":"_peer","type":"bytes32"}],"name":"setPeer","outputs":[],"stateMutability":"nonpayable","type":"function"},{"inputs":[{"internalType":"address","name":"newOwner","type":"address"}],"name":"transferOwnership","outputs":[],"stateMutability":"nonpayable","type":"function"}],"evm":{"bytecode":{"linkReferences":{},"object":"60a03461014f57610eae906001600160401b03601f38849003908101601f191683019082821184831017610154578084916040968794855283398101031261014f57610056602061004f8461016a565b930161016a565b60008054336001600160a01b03198216811783558651929592936001600160a01b039384939192849283167f8be0079c531659141344cd1fd0a4f28419497f9722a3daafe3b4186f6b6457e08a80a3166080521691821561014057506080511690813b1561013c57839291602484928751968793849263ca5eb5e160e01b845260048401525af180156101325761010d575b8351610d2f908161017f82396080518181816101ff01528181610549015261068e0152f35b821161011e575081523880806100e8565b634e487b7160e01b81526041600452602490fd5b84513d84823e3d90fd5b8380fd5b632d618d8160e21b8152600490fd5b600080fd5b634e487b7160e01b600052604160045260246000fd5b51906001600160a01b038216820361014f5756fe6080604052600436101561001257600080fd5b6000803560e01c80630d80fefd146109f057806313137d651461062757806317442b70146106055780633400288b146105965780633dbcc8d1146105785780635e280f1114610533578063715018a6146104d95780637d25a05e146104b357806382413eac1461045157806385e94e091461041c57806386f79edb146102eb5780638da5cb5b146102c4578063bb0b6a531461028f578063ca5eb5e1146101d3578063f2fde38b146101085763ff7bd03d146100cd57600080fd5b3461010557606036600319011261010557604060209163ffffffff6100f0610c8e565b16815260018352205460405190602435148152f35b80fd5b503461010557602036600319011261010557610122610c65565b61012a610ca1565b6001600160a01b0390811690811561017f57600054826bffffffffffffffffffffffff60a01b821617600055167f8be0079c531659141344cd1fd0a4f28419497f9722a3daafe3b4186f6b6457e0600080a380f35b60405162461bcd60e51b815260206004820152602660248201527f4f776e61626c653a206e6577206f776e657220697320746865207a65726f206160448201526564647265737360d01b6064820152608490fd5b5034610105576020366003190112610105576101ed610c65565b6101f5610ca1565b6001600160a01b037f0000000000000000000000000000000000000000000000000000000000000000811691839190833b1561028b5760249083604051958694859363ca5eb5e160e01b85521660048401525af1801561028057610257575080f35b67ffffffffffffffff811161026c5760405280f35b634e487b7160e01b82526041600452602482fd5b6040513d84823e3d90fd5b8280fd5b503461010557602036600319011261010557604060209163ffffffff6102b3610c7b565b168152600183522054604051908152f35b5034610105578060031936011261010557546040516001600160a01b039091168152602090f35b503461010557602090816003193601126101055760043590608060405161031181610af9565b82815282858201526060604082015282606082015201526002548110156103c85761033b90610a6e565b506040519061034982610af9565b63ffffffff928382541683526103b7600183015482850190815261036f60028501610b4d565b9060408601918252600460038601549560608801968752015493608087019485526040519788978289525116908701525160408601525160a0606086015260c0850190610bf2565b915160808401525160a08301520390f35b60405162461bcd60e51b815260048101839052602660248201527f42697474656e736f7252656365697665723a20696e646578206f7574206f6620604482015265626f756e647360d01b6064820152608490fd5b503461010557602036600319011261010557604060209163ffffffff610440610c7b565b168152600383522054604051908152f35b503461010557366003190160a081126104af576060136101055760643567ffffffffffffffff81116104af5761048b903690600401610c32565b50506084356001600160a01b038116908190036104af576020906040519030148152f35b5080fd5b5034610105576040366003190112610105576020906104d0610c7b565b50604051908152f35b50346101055780600319360112610105576104f2610ca1565b80546001600160a01b03198116825581906001600160a01b03167f8be0079c531659141344cd1fd0a4f28419497f9722a3daafe3b4186f6b6457e08280a380f35b50346101055780600319360112610105576040517f00000000000000000000000000000000000000000000000000000000000000006001600160a01b03168152602090f35b50346101055780600319360112610105576020600254604051908152f35b5034610105576040366003190112610105577f238399d427b947898edb290f5ff0f9109849b1c3ba196a42e35f00c50a54b98b6105d1610c7b565b602435906105dd610ca1565b63ffffffff16808452600160209081526040808620849055805192835290820192909252a180f35b5034610105578060031936011261010557604080516001815260026020820152f35b50366003190160e081126104af576060136101055767ffffffffffffffff60843581811161028b5761065d903690600401610c32565b6001600160a01b0360a435818116036109ec5760c4358481116109e857610688903690600401610c32565b505033907f000000000000000000000000000000000000000000000000000000000000000016036109d05763ffffffff6106c0610c8e565b16808552600160205260408520549081156109b857506024350361097d57600254926106ea610c8e565b9163ffffffff604051936106fd85610af9565b168352602083019360243585528282116109695786906040519261072b6020601f19601f8401160185610b2b565b808452368183011161028b578060209283860137830101526040830190815243606084015284608084015268010000000000000000851015610941576001850160025561077785610a6e565b9490946109555763ffffffff84511663ffffffff19865416178555516001850155518051918211610941576107af6002850154610abf565b601f81116108fd575b50602090601f831160011461088e579180600494926080948992610883575b50508160011b916000199060031b1c19161760028501555b60608101516003850155015191015563ffffffff61080b610c8e565b1682526003602052604082208054906001820180921161086f57557f242f8e427411817769952b7358e982a8ad8a3e818eee20eeadea56b1e16090ca6060610851610c8e565b63ffffffff604051911681526024356020820152436040820152a280f35b634e487b7160e01b84526011600452602484fd5b0151905038806107d7565b600285018752602087209190601f198416885b8181106108e5575092600192859260809660049896106108cc575b505050811b0160028501556107ef565b015160001960f88460031b161c191690553880806108bc565b929360206001819287860151815501950193016108a1565b60028501875260208720601f840160051c81016020851061093a575b601f830160051c8201811061092f5750506107b8565b888155600101610919565b5080610919565b634e487b7160e01b86526041600452602486fd5b634e487b7160e01b87526004879052602487fd5b634e487b7160e01b87526041600452602487fd5b6109b4610988610c8e565b60405163309afaf360e21b815263ffffffff909116600482015260248035908201529081906044820190565b0390fd5b6024906040519063f6ff4fb760e01b82526004820152fd5b6040516391ac5e4f60e01b8152336004820152602490fd5b8580fd5b8480fd5b5034610105576020366003190112610105576004356002548110156104af57610a1890610a6e565b5063ffffffff815416600182015491610a3360028201610b4d565b610a5f60046003840154930154916040519586958652602086015260a0604086015260a0850190610bf2565b91606084015260808301520390f35b600254811015610aa9576005906002600052027f405787fa12a823e0f2b7631cc41b3ba8828b3321ca811111fa75cd3aa3bb5ace0190600090565b634e487b7160e01b600052603260045260246000fd5b90600182811c92168015610aef575b6020831014610ad957565b634e487b7160e01b600052602260045260246000fd5b91607f1691610ace565b60a0810190811067ffffffffffffffff821117610b1557604052565b634e487b7160e01b600052604160045260246000fd5b90601f8019910116810190811067ffffffffffffffff821117610b1557604052565b90604051918260008254610b6081610abf565b90818452602094600191600181169081600014610bd05750600114610b91575b505050610b8f92500383610b2b565b565b600090815285812095935091905b818310610bb8575050610b8f9350820101388080610b80565b85548884018501529485019487945091830191610b9f565b92505050610b8f94925060ff191682840152151560051b820101388080610b80565b919082519283825260005b848110610c1e575050826000602080949584010152601f8019910116010190565b602081830181015184830182015201610bfd565b9181601f84011215610c605782359167ffffffffffffffff8311610c605760208381860195010111610c6057565b600080fd5b600435906001600160a01b0382168203610c6057565b6004359063ffffffff82168203610c6057565b60043563ffffffff81168103610c605790565b6000546001600160a01b03163303610cb557565b606460405162461bcd60e51b815260206004820152602060248201527f4f776e61626c653a2063616c6c6572206973206e6f7420746865206f776e65726044820152fdfea2646970667358221220a305a688a4a80dee418f6d731d548b59d1d35dc86657441e194e8258f026738364736f6c63430008160033","opcodes":"PUSH1 0xA0 CALLVALUE PUSH2 0x14F JUMPI PUSH2 0xEAE SWAP1 PUSH1 0x1 PUSH1 0x1 PUSH1 0x40 SHL SUB PUSH1 0x1F CODESIZE DUP5 SWAP1 SUB SWAP1 DUP2 ADD PUSH1 0x1F NOT AND DUP4 ADD SWAP1 DUP3 DUP3 GT DUP5 DUP4 LT OR PUSH2 0x154 JUMPI DUP1 DUP5 SWAP2 PUSH1 0x40 SWAP7 DUP8 SWAP5 DUP6 MSTORE DUP4 CODECOPY DUP2 ADD SUB SLT PUSH2 0x14F JUMPI PUSH2 0x56 PUSH1 0x20 PUSH2 0x4F DUP5 PUSH2 0x16A JUMP JUMPDEST SWAP4 ADD PUSH2 0x16A JUMP JUMPDEST PUSH1 0x0 DUP1 SLOAD CALLER PUSH1 0x1 PUSH1 0x1 PUSH1 0xA0 SHL SUB NOT DUP3 AND DUP2 OR DUP4 SSTORE DUP7 MLOAD SWAP3 SWAP6 SWAP3 SWAP4 PUSH1 0x1 PUSH1 0x1 PUSH1 0xA0 SHL SUB SWAP4 DUP5 SWAP4 SWAP2 SWAP3 DUP5 SWAP3 DUP4 AND PUSH32 0x8BE0079C531659141344CD1FD0A4F28419497F9722A3DAAFE3B4186F6B6457E0 DUP11 DUP1 LOG3 AND PUSH1 0x80 MSTORE AND SWAP2 DUP3 ISZERO PUSH2 0x140 JUMPI POP PUSH1 0x80 MLOAD AND SWAP1 DUP2 EXTCODESIZE ISZERO PUSH2 0x13C JUMPI DUP4 SWAP3 SWAP2 PUSH1 0x24 DUP5 SWAP3 DUP8 MLOAD SWAP7 DUP8 SWAP4 DUP5 SWAP3 PUSH4 0xCA5EB5E1 PUSH1 0xE0 SHL DUP5 MSTORE PUSH1 0x4 DUP5 ADD MSTORE GAS CALL DUP1 ISZERO PUSH2 0x132 JUMPI PUSH2 0x10D JUMPI JUMPDEST DUP4 MLOAD PUSH2 0xD2F SWAP1 DUP2 PUSH2 0x17F DUP3 CODECOPY PUSH1 0x80 MLOAD DUP2 DUP2 DUP2 PUSH2 0x1FF ADD MSTORE DUP2 DUP2 PUSH2 0x549 ADD MSTORE PUSH2 0x68E ADD MSTORE RETURN JUMPDEST DUP3 GT PUSH2 0x11E JUMPI POP DUP2 MSTORE CODESIZE DUP1 DUP1 PUSH2 0xE8 JUMP JUMPDEST PUSH4 0x4E487B71 PUSH1 0xE0 SHL DUP2 MSTORE PUSH1 0x41 PUSH1 0x4 MSTORE PUSH1 0x24 SWAP1 REVERT JUMPDEST DUP5 MLOAD RETURNDATASIZE DUP5 DUP3 RETURNDATACOPY RETURNDATASIZE SWAP1 REVERT JUMPDEST DUP4 DUP1 REVERT JUMPDEST PUSH4 0x2D618D81 PUSH1 0xE2 SHL DUP2 MSTORE PUSH1 0x4 SWAP1 REVERT JUMPDEST PUSH1 0x0 DUP1 REVERT JUMPDEST PUSH4 0x4E487B71 PUSH1 0xE0 SHL PUSH1 0x0 MSTORE PUSH1 0x41 PUSH1 0x4 MSTORE PUSH1 0x24 PUSH1 0x0 REVERT JUMPDEST MLOAD SWAP1 PUSH1 0x1 PUSH1 0x1 PUSH1 0xA0 SHL SUB DUP3 AND DUP3 SUB PUSH2 0x14F JUMPI JUMP INVALID PUSH1 0x80 PUSH1 0x40 MSTORE PUSH1 0x4 CALLDATASIZE LT ISZERO PUSH2 0x12 JUMPI PUSH1 0x0 DUP1 REVERT JUMPDEST PUSH1 0x0 DUP1 CALLDATALOAD PUSH1 0xE0 SHR DUP1 PUSH4 0xD80FEFD EQ PUSH2 0x9F0 JUMPI DUP1 PUSH4 0x13137D65 EQ PUSH2 0x627 JUMPI DUP1 PUSH4 0x17442B70 EQ PUSH2 0x605 JUMPI DUP1 PUSH4 0x3400288B EQ PUSH2 0x596 JUMPI DUP1 PUSH4 0x3DBCC8D1 EQ PUSH2 0x578 JUMPI DUP1 PUSH4 0x5E280F11 EQ PUSH2 0x533 JUMPI DUP1 PUSH4 0x715018A6 EQ PUSH2 0x4D9 JUMPI DUP1 PUSH4 0x7D25A05E EQ PUSH2 0x4B3 JUMPI DUP1 PUSH4 0x82413EAC EQ PUSH2 0x451 JUMPI DUP1 PUSH4 0x85E94E09 EQ PUSH2 0x41C JUMPI DUP1 PUSH4 0x86F79EDB EQ PUSH2 0x2EB JUMPI DUP1 PUSH4 0x8DA5CB5B EQ PUSH2 0x2C4 JUMPI DUP1 PUSH4 0xBB0B6A53 EQ PUSH2 0x28F JUMPI DUP1 PUSH4 0xCA5EB5E1 EQ PUSH2 0x1D3 JUMPI DUP1 PUSH4 0xF2FDE38B EQ PUSH2 0x108 JUMPI PUSH4 0xFF7BD03D EQ PUSH2 0xCD JUMPI PUSH1 0x0 DUP1 REVERT JUMPDEST CALLVALUE PUSH2 0x105 JUMPI PUSH1 0x60 CALLDATASIZE PUSH1 0x3 NOT ADD SLT PUSH2 0x105 JUMPI PUSH1 0x40 PUSH1 0x20 SWAP2 PUSH4 0xFFFFFFFF PUSH2 0xF0 PUSH2 0xC8E JUMP JUMPDEST AND DUP2 MSTORE PUSH1 0x1 DUP4 MSTORE KECCAK256 SLOAD PUSH1 0x40 MLOAD SWAP1 PUSH1 0x24 CALLDATALOAD EQ DUP2 MSTORE RETURN JUMPDEST DUP1 REVERT JUMPDEST POP CALLVALUE PUSH2 0x105 JUMPI PUSH1 0x20 CALLDATASIZE PUSH1 0x3 NOT ADD SLT PUSH2 0x105 JUMPI PUSH2 0x122 PUSH2 0xC65 JUMP JUMPDEST PUSH2 0x12A PUSH2 0xCA1 JUMP JUMPDEST PUSH1 0x1 PUSH1 0x1 PUSH1 0xA0 SHL SUB SWAP1 DUP2 AND SWAP1 DUP2 ISZERO PUSH2 0x17F JUMPI PUSH1 0x0 SLOAD DUP3 PUSH12 0xFFFFFFFFFFFFFFFFFFFFFFFF PUSH1 0xA0 SHL DUP3 AND OR PUSH1 0x0 SSTORE AND PUSH32 0x8BE0079C531659141344CD1FD0A4F28419497F9722A3DAAFE3B4186F6B6457E0 PUSH1 0x0 DUP1 LOG3 DUP1 RETURN JUMPDEST PUSH1 0x40 MLOAD PUSH3 0x461BCD PUSH1 0xE5 SHL DUP2 MSTORE PUSH1 0x20 PUSH1 0x4 DUP3 ADD MSTORE PUSH1 0x26 PUSH1 0x24 DUP3 ADD MSTORE PUSH32 0x4F776E61626C653A206E6577206F776E657220697320746865207A65726F2061 PUSH1 0x44 DUP3 ADD MSTORE PUSH6 0x646472657373 PUSH1 0xD0 SHL PUSH1 0x64 DUP3 ADD MSTORE PUSH1 0x84 SWAP1 REVERT JUMPDEST POP CALLVALUE PUSH2 0x105 JUMPI PUSH1 0x20 CALLDATASIZE PUSH1 0x3 NOT ADD SLT PUSH2 0x105 JUMPI PUSH2 0x1ED PUSH2 0xC65 JUMP JUMPDEST PUSH2 0x1F5 PUSH2 0xCA1 JUMP JUMPDEST PUSH1 0x1 PUSH1 0x1 PUSH1 0xA0 SHL SUB PUSH32 0x0 DUP2 AND SWAP2 DUP4 SWAP2 SWAP1 DUP4 EXTCODESIZE ISZERO PUSH2 0x28B JUMPI PUSH1 0x24 SWAP1 DUP4 PUSH1 0x40 MLOAD SWAP6 DUP7 SWAP5 DUP6 SWAP4 PUSH4 0xCA5EB5E1 PUSH1 0xE0 SHL DUP6 MSTORE AND PUSH1 0x4 DUP5 ADD MSTORE GAS CALL DUP1 ISZERO PUSH2 0x280 JUMPI PUSH2 0x257 JUMPI POP DUP1 RETURN JUMPDEST PUSH8 0xFFFFFFFFFFFFFFFF DUP2 GT PUSH2 0x26C JUMPI PUSH1 0x40 MSTORE DUP1 RETURN JUMPDEST PUSH4 0x4E487B71 PUSH1 0xE0 SHL DUP3 MSTORE PUSH1 0x41 PUSH1 0x4 MSTORE PUSH1 0x24 DUP3 REVERT JUMPDEST PUSH1 0x40 MLOAD RETURNDATASIZE DUP5 DUP3 RETURNDATACOPY RETURNDATASIZE SWAP1 REVERT JUMPDEST DUP3 DUP1 REVERT JUMPDEST POP CALLVALUE PUSH2 0x105 JUMPI PUSH1 0x20 CALLDATASIZE PUSH1 0x3 NOT ADD SLT PUSH2 0x105 JUMPI PUSH1 0x40 PUSH1 0x20 SWAP2 PUSH4 0xFFFFFFFF PUSH2 0x2B3 PUSH2 0xC7B JUMP JUMPDEST AND DUP2 MSTORE PUSH1 0x1 DUP4 MSTORE KECCAK256 SLOAD PUSH1 0x40 MLOAD SWAP1 DUP2 MSTORE RETURN JUMPDEST POP CALLVALUE PUSH2 0x105 JUMPI DUP1 PUSH1 0x3 NOT CALLDATASIZE ADD SLT PUSH2 0x105 JUMPI SLOAD PUSH1 0x40 MLOAD PUSH1 0x1 PUSH1 0x1 PUSH1 0xA0 SHL SUB SWAP1 SWAP2 AND DUP2 MSTORE PUSH1 0x20 SWAP1 RETURN JUMPDEST POP CALLVALUE PUSH2 0x105 JUMPI PUSH1 0x20 SWAP1 DUP2 PUSH1 0x3 NOT CALLDATASIZE ADD SLT PUSH2 0x105 JUMPI PUSH1 0x4 CALLDATALOAD SWAP1 PUSH1 0x80 PUSH1 0x40 MLOAD PUSH2 0x311 DUP2 PUSH2 0xAF9 JUMP JUMPDEST DUP3 DUP2 MSTORE DUP3 DUP6 DUP3 ADD MSTORE PUSH1 0x60 PUSH1 0x40 DUP3 ADD MSTORE DUP3 PUSH1 0x60 DUP3 ADD MSTORE ADD MSTORE PUSH1 0x2 SLOAD DUP2 LT ISZERO PUSH2 0x3C8 JUMPI PUSH2 0x33B SWAP1 PUSH2 0xA6E JUMP JUMPDEST POP PUSH1 0x40 MLOAD SWAP1 PUSH2 0x349 DUP3 PUSH2 0xAF9 JUMP JUMPDEST PUSH4 0xFFFFFFFF SWAP3 DUP4 DUP3 SLOAD AND DUP4 MSTORE PUSH2 0x3B7 PUSH1 0x1 DUP4 ADD SLOAD DUP3 DUP6 ADD SWAP1 DUP2 MSTORE PUSH2 0x36F PUSH1 0x2 DUP6 ADD PUSH2 0xB4D JUMP JUMPDEST SWAP1 PUSH1 0x40 DUP7 ADD SWAP2 DUP3 MSTORE PUSH1 0x4 PUSH1 0x3 DUP7 ADD SLOAD SWAP6 PUSH1 0x60 DUP9 ADD SWAP7 DUP8 MSTORE ADD SLOAD SWAP4 PUSH1 0x80 DUP8 ADD SWAP5 DUP6 MSTORE PUSH1 0x40 MLOAD SWAP8 DUP9 SWAP8 DUP3 DUP10 MSTORE MLOAD AND SWAP1 DUP8 ADD MSTORE MLOAD PUSH1 0x40 DUP7 ADD MSTORE MLOAD PUSH1 0xA0 PUSH1 0x60 DUP7 ADD MSTORE PUSH1 0xC0 DUP6 ADD SWAP1 PUSH2 0xBF2 JUMP JUMPDEST SWAP2 MLOAD PUSH1 0x80 DUP5 ADD MSTORE MLOAD PUSH1 0xA0 DUP4 ADD MSTORE SUB SWAP1 RETURN JUMPDEST PUSH1 0x40 MLOAD PUSH3 0x461BCD PUSH1 0xE5 SHL DUP2 MSTORE PUSH1 0x4 DUP2 ADD DUP4 SWAP1 MSTORE PUSH1 0x26 PUSH1 0x24 DUP3 ADD MSTORE PUSH32 0x42697474656E736F7252656365697665723A20696E646578206F7574206F6620 PUSH1 0x44 DUP3 ADD MSTORE PUSH6 0x626F756E6473 PUSH1 0xD0 SHL PUSH1 0x64 DUP3 ADD MSTORE PUSH1 0x84 SWAP1 REVERT JUMPDEST POP CALLVALUE PUSH2 0x105 JUMPI PUSH1 0x20 CALLDATASIZE PUSH1 0x3 NOT ADD SLT PUSH2 0x105 JUMPI PUSH1 0x40 PUSH1 0x20 SWAP2 PUSH4 0xFFFFFFFF PUSH2 0x440 PUSH2 0xC7B JUMP JUMPDEST AND DUP2 MSTORE PUSH1 0x3 DUP4 MSTORE KECCAK256 SLOAD PUSH1 0x40 MLOAD SWAP1 DUP2 MSTORE RETURN JUMPDEST POP CALLVALUE PUSH2 0x105 JUMPI CALLDATASIZE PUSH1 0x3 NOT ADD PUSH1 0xA0 DUP2 SLT PUSH2 0x4AF JUMPI PUSH1 0x60 SGT PUSH2 0x105 JUMPI PUSH1 0x64 CALLDATALOAD PUSH8 0xFFFFFFFFFFFFFFFF DUP2 GT PUSH2 0x4AF JUMPI PUSH2 0x48B SWAP1 CALLDATASIZE SWAP1 PUSH1 0x4 ADD PUSH2 0xC32 JUMP JUMPDEST POP POP PUSH1 0x84 CALLDATALOAD PUSH1 0x1 PUSH1 0x1 PUSH1 0xA0 SHL SUB DUP2 AND SWAP1 DUP2 SWAP1 SUB PUSH2 0x4AF JUMPI PUSH1 0x20 SWAP1 PUSH1 0x40 MLOAD SWAP1 ADDRESS EQ DUP2 MSTORE RETURN JUMPDEST POP DUP1 REVERT JUMPDEST POP CALLVALUE PUSH2 0x105 JUMPI PUSH1 0x40 CALLDATASIZE PUSH1 0x3 NOT ADD SLT PUSH2 0x105 JUMPI PUSH1 0x20 SWAP1 PUSH2 0x4D0 PUSH2 0xC7B JUMP JUMPDEST POP PUSH1 0x40 MLOAD SWAP1 DUP2 MSTORE RETURN JUMPDEST POP CALLVALUE PUSH2 0x105 JUMPI DUP1 PUSH1 0x3 NOT CALLDATASIZE ADD SLT PUSH2 0x105 JUMPI PUSH2 0x4F2 PUSH2 0xCA1 JUMP JUMPDEST DUP1 SLOAD PUSH1 0x1 PUSH1 0x1 PUSH1 0xA0 SHL SUB NOT DUP2 AND DUP3 SSTORE DUP2 SWAP1 PUSH1 0x1 PUSH1 0x1 PUSH1 0xA0 SHL SUB AND PUSH32 0x8BE0079C531659141344CD1FD0A4F28419497F9722A3DAAFE3B4186F6B6457E0 DUP3 DUP1 LOG3 DUP1 RETURN JUMPDEST POP CALLVALUE PUSH2 0x105 JUMPI DUP1 PUSH1 0x3 NOT CALLDATASIZE ADD SLT PUSH2 0x105 JUMPI PUSH1 0x40 MLOAD PUSH32 0x0 PUSH1 0x1 PUSH1 0x1 PUSH1 0xA0 SHL SUB AND DUP2 MSTORE PUSH1 0x20 SWAP1 RETURN JUMPDEST POP CALLVALUE PUSH2 0x105 JUMPI DUP1 PUSH1 0x3 NOT CALLDATASIZE ADD SLT PUSH2 0x105 JUMPI PUSH1 0x20 PUSH1 0x2 SLOAD PUSH1 0x40 MLOAD SWAP1 DUP2 MSTORE RETURN JUMPDEST POP CALLVALUE PUSH2 0x105 JUMPI PUSH1 0x40 CALLDATASIZE PUSH1 0x3 NOT ADD SLT PUSH2 0x105 JUMPI PUSH32 0x238399D427B947898EDB290F5FF0F9109849B1C3BA196A42E35F00C50A54B98B PUSH2 0x5D1 PUSH2 0xC7B JUMP JUMPDEST PUSH1 0x24 CALLDATALOAD SWAP1 PUSH2 0x5DD PUSH2 0xCA1 JUMP JUMPDEST PUSH4 0xFFFFFFFF AND DUP1 DUP5 MSTORE PUSH1 0x1 PUSH1 0x20 SWAP1 DUP2 MSTORE PUSH1 0x40 DUP1 DUP7 KECCAK256 DUP5 SWAP1 SSTORE DUP1 MLOAD SWAP3 DUP4 MSTORE SWAP1 DUP3 ADD SWAP3 SWAP1 SWAP3 MSTORE LOG1 DUP1 RETURN JUMPDEST POP CALLVALUE PUSH2 0x105 JUMPI DUP1 PUSH1 0x3 NOT CALLDATASIZE ADD SLT PUSH2 0x105 JUMPI PUSH1 0x40 DUP1 MLOAD PUSH1 0x1 DUP2 MSTORE PUSH1 0x2 PUSH1 0x20 DUP3 ADD MSTORE RETURN JUMPDEST POP CALLDATASIZE PUSH1 0x3 NOT ADD PUSH1 0xE0 DUP2 SLT PUSH2 0x4AF JUMPI PUSH1 0x60 SGT PUSH2 0x105 JUMPI PUSH8 0xFFFFFFFFFFFFFFFF PUSH1 0x84 CALLDATALOAD DUP2 DUP2 GT PUSH2 0x28B JUMPI PUSH2 0x65D SWAP1 CALLDATASIZE SWAP1 PUSH1 0x4 ADD PUSH2 0xC32 JUMP JUMPDEST PUSH1 0x1 PUSH1 0x1 PUSH1 0xA0 SHL SUB PUSH1 0xA4 CALLDATALOAD DUP2 DUP2 AND SUB PUSH2 0x9EC JUMPI PUSH1 0xC4 CALLDATALOAD DUP5 DUP2 GT PUSH2 0x9E8 JUMPI PUSH2 0x688 SWAP1 CALLDATASIZE SWAP1 PUSH1 0x4 ADD PUSH2 0xC32 JUMP JUMPDEST POP POP CALLER SWAP1 PUSH32 0x0 AND SUB PUSH2 0x9D0 JUMPI PUSH4 0xFFFFFFFF PUSH2 0x6C0 PUSH2 0xC8E JUMP JUMPDEST AND DUP1 DUP6 MSTORE PUSH1 0x1 PUSH1 0x20 MSTORE PUSH1 0x40 DUP6 KECCAK256 SLOAD SWAP1 DUP2 ISZERO PUSH2 0x9B8 JUMPI POP PUSH1 0x24 CALLDATALOAD SUB PUSH2 0x97D JUMPI PUSH1 0x2 SLOAD SWAP3 PUSH2 0x6EA PUSH2 0xC8E JUMP JUMPDEST SWAP2 PUSH4 0xFFFFFFFF PUSH1 0x40 MLOAD SWAP4 PUSH2 0x6FD DUP6 PUSH2 0xAF9 JUMP JUMPDEST AND DUP4 MSTORE PUSH1 0x20 DUP4 ADD SWAP4 PUSH1 0x24 CALLDATALOAD DUP6 MSTORE DUP3 DUP3 GT PUSH2 0x969 JUMPI DUP7 SWAP1 PUSH1 0x40 MLOAD SWAP3 PUSH2 0x72B PUSH1 0x20 PUSH1 0x1F NOT PUSH1 0x1F DUP5 ADD AND ADD DUP6 PUSH2 0xB2B JUMP JUMPDEST DUP1 DUP5 MSTORE CALLDATASIZE DUP2 DUP4 ADD GT PUSH2 0x28B JUMPI DUP1 PUSH1 0x20 SWAP3 DUP4 DUP7 ADD CALLDATACOPY DUP4 ADD ADD MSTORE PUSH1 0x40 DUP4 ADD SWAP1 DUP2 MSTORE NUMBER PUSH1 0x60 DUP5 ADD MSTORE DUP5 PUSH1 0x80 DUP5 ADD MSTORE PUSH9 0x10000000000000000 DUP6 LT ISZERO PUSH2 0x941 JUMPI PUSH1 0x1 DUP6 ADD PUSH1 0x2 SSTORE PUSH2 0x777 DUP6 PUSH2 0xA6E JUMP JUMPDEST SWAP5 SWAP1 SWAP5 PUSH2 0x955 JUMPI PUSH4 0xFFFFFFFF DUP5 MLOAD AND PUSH4 0xFFFFFFFF NOT DUP7 SLOAD AND OR DUP6 SSTORE MLOAD PUSH1 0x1 DUP6 ADD SSTORE MLOAD DUP1 MLOAD SWAP2 DUP3 GT PUSH2 0x941 JUMPI PUSH2 0x7AF PUSH1 0x2 DUP6 ADD SLOAD PUSH2 0xABF JUMP JUMPDEST PUSH1 0x1F DUP2 GT PUSH2 0x8FD JUMPI JUMPDEST POP PUSH1 0x20 SWAP1 PUSH1 0x1F DUP4 GT PUSH1 0x1 EQ PUSH2 0x88E JUMPI SWAP2 DUP1 PUSH1 0x4 SWAP5 SWAP3 PUSH1 0x80 SWAP5 DUP10 SWAP3 PUSH2 0x883 JUMPI JUMPDEST POP POP DUP2 PUSH1 0x1 SHL SWAP2 PUSH1 0x0 NOT SWAP1 PUSH1 0x3 SHL SHR NOT AND OR PUSH1 0x2 DUP6 ADD SSTORE JUMPDEST PUSH1 0x60 DUP2 ADD MLOAD PUSH1 0x3 DUP6 ADD SSTORE ADD MLOAD SWAP2 ADD SSTORE PUSH4 0xFFFFFFFF PUSH2 0x80B PUSH2 0xC8E JUMP JUMPDEST AND DUP3 MSTORE PUSH1 0x3 PUSH1 0x20 MSTORE PUSH1 0x40 DUP3 KECCAK256 DUP1 SLOAD SWAP1 PUSH1 0x1 DUP3 ADD DUP1 SWAP3 GT PUSH2 0x86F JUMPI SSTORE PUSH32 0x242F8E427411817769952B7358E982A8AD8A3E818EEE20EEADEA56B1E16090CA PUSH1 0x60 PUSH2 0x851 PUSH2 0xC8E JUMP JUMPDEST PUSH4 0xFFFFFFFF PUSH1 0x40 MLOAD SWAP2 AND DUP2 MSTORE PUSH1 0x24 CALLDATALOAD PUSH1 0x20 DUP3 ADD MSTORE NUMBER PUSH1 0x40 DUP3 ADD MSTORE LOG2 DUP1 RETURN JUMPDEST PUSH4 0x4E487B71 PUSH1 0xE0 SHL DUP5 MSTORE PUSH1 0x11 PUSH1 0x4 MSTORE PUSH1 0x24 DUP5 REVERT JUMPDEST ADD MLOAD SWAP1 POP CODESIZE DUP1 PUSH2 0x7D7 JUMP JUMPDEST PUSH1 0x2 DUP6 ADD DUP8 MSTORE PUSH1 0x20 DUP8 KECCAK256 SWAP2 SWAP1 PUSH1 0x1F NOT DUP5 AND DUP9 JUMPDEST DUP2 DUP2 LT PUSH2 0x8E5 JUMPI POP SWAP3 PUSH1 0x1 SWAP3 DUP6 SWAP3 PUSH1 0x80 SWAP7 PUSH1 0x4 SWAP9 SWAP7 LT PUSH2 0x8CC JUMPI JUMPDEST POP POP POP DUP2 SHL ADD PUSH1 0x2 DUP6 ADD SSTORE PUSH2 0x7EF JUMP JUMPDEST ADD MLOAD PUSH1 0x0 NOT PUSH1 0xF8 DUP5 PUSH1 0x3 SHL AND SHR NOT AND SWAP1 SSTORE CODESIZE DUP1 DUP1 PUSH2 0x8BC JUMP JUMPDEST SWAP3 SWAP4 PUSH1 0x20 PUSH1 0x1 DUP2 SWAP3 DUP8 DUP7 ADD MLOAD DUP2 SSTORE ADD SWAP6 ADD SWAP4 ADD PUSH2 0x8A1 JUMP JUMPDEST PUSH1 0x2 DUP6 ADD DUP8 MSTORE PUSH1 0x20 DUP8 KECCAK256 PUSH1 0x1F DUP5 ADD PUSH1 0x5 SHR DUP2 ADD PUSH1 0x20 DUP6 LT PUSH2 0x93A JUMPI JUMPDEST PUSH1 0x1F DUP4 ADD PUSH1 0x5 SHR DUP3 ADD DUP2 LT PUSH2 0x92F JUMPI POP POP PUSH2 0x7B8 JUMP JUMPDEST DUP9 DUP2 SSTORE PUSH1 0x1 ADD PUSH2 0x919 JUMP JUMPDEST POP DUP1 PUSH2 0x919 JUMP JUMPDEST PUSH4 0x4E487B71 PUSH1 0xE0 SHL DUP7 MSTORE PUSH1 0x41 PUSH1 0x4 MSTORE PUSH1 0x24 DUP7 REVERT JUMPDEST PUSH4 0x4E487B71 PUSH1 0xE0 SHL DUP8 MSTORE PUSH1 0x4 DUP8 SWAP1 MSTORE PUSH1 0x24 DUP8 REVERT JUMPDEST PUSH4 0x4E487B71 PUSH1 0xE0 SHL DUP8 MSTORE PUSH1 0x41 PUSH1 0x4 MSTORE PUSH1 0x24 DUP8 REVERT JUMPDEST PUSH2 0x9B4 PUSH2 0x988 PUSH2 0xC8E JUMP JUMPDEST PUSH1 0x40 MLOAD PUSH4 0x309AFAF3 PUSH1 0xE2 SHL DUP2 MSTORE PUSH4 0xFFFFFFFF SWAP1 SWAP2 AND PUSH1 0x4 DUP3 ADD MSTORE PUSH1 0x24 DUP1 CALLDATALOAD SWAP1 DUP3 ADD MSTORE SWAP1 DUP2 SWAP1 PUSH1 0x44 DUP3 ADD SWAP1 JUMP JUMPDEST SUB SWAP1 REVERT JUMPDEST PUSH1 0x24 SWAP1 PUSH1 0x40 MLOAD SWAP1 PUSH4 0xF6FF4FB7 PUSH1 0xE0 SHL DUP3 MSTORE PUSH1 0x4 DUP3 ADD MSTORE REVERT JUMPDEST PUSH1 0x40 MLOAD PUSH4 0x91AC5E4F PUSH1 0xE0 SHL DUP2 MSTORE CALLER PUSH1 0x4 DUP3 ADD MSTORE PUSH1 0x24 SWAP1 REVERT JUMPDEST DUP6 DUP1 REVERT JUMPDEST DUP5 DUP1 REVERT JUMPDEST POP CALLVALUE PUSH2 0x105 JUMPI PUSH1 0x20 CALLDATASIZE PUSH1 0x3 NOT ADD SLT PUSH2 0x105 JUMPI PUSH1 0x4 CALLDATALOAD PUSH1 0x2 SLOAD DUP2 LT ISZERO PUSH2 0x4AF JUMPI PUSH2 0xA18 SWAP1 PUSH2 0xA6E JUMP JUMPDEST POP PUSH4 0xFFFFFFFF DUP2 SLOAD AND PUSH1 0x1 DUP3 ADD SLOAD SWAP2 PUSH2 0xA33 PUSH1 0x2 DUP3 ADD PUSH2 0xB4D JUMP JUMPDEST PUSH2 0xA5F PUSH1 0x4 PUSH1 0x3 DUP5 ADD SLOAD SWAP4 ADD SLOAD SWAP2 PUSH1 0x40 MLOAD SWAP6 DUP7 SWAP6 DUP7 MSTORE PUSH1 0x20 DUP7 ADD MSTORE PUSH1 0xA0 PUSH1 0x40 DUP7 ADD MSTORE PUSH1 0xA0 DUP6 ADD SWAP1 PUSH2 0xBF2 JUMP JUMPDEST SWAP2 PUSH1 0x60 DUP5 ADD MSTORE PUSH1 0x80 DUP4 ADD MSTORE SUB SWAP1 RETURN JUMPDEST PUSH1 0x2 SLOAD DUP2 LT ISZERO PUSH2 0xAA9 JUMPI PUSH1 0x5 SWAP1 PUSH1 0x2 PUSH1 0x0 MSTORE MUL PUSH32 0x405787FA12A823E0F2B7631CC41B3BA8828B3321CA811111FA75CD3AA3BB5ACE ADD SWAP1 PUSH1 0x0 SWAP1 JUMP JUMPDEST PUSH4 0x4E487B71 PUSH1 0xE0 SHL PUSH1 0x0 MSTORE PUSH1 0x32 PUSH1 0x4 MSTORE PUSH1 0x24 PUSH1 0x0 REVERT JUMPDEST SWAP1 PUSH1 0x1 DUP3 DUP2 SHR SWAP3 AND DUP1 ISZERO PUSH2 0xAEF JUMPI JUMPDEST PUSH1 0x20 DUP4 LT EQ PUSH2 0xAD9 JUMPI JUMP JUMPDEST PUSH4 0x4E487B71 PUSH1 0xE0 SHL PUSH1 0x0 MSTORE PUSH1 0x22 PUSH1 0x4 MSTORE PUSH1 0x24 PUSH1 0x0 REVERT JUMPDEST SWAP2 PUSH1 0x7F AND SWAP2 PUSH2 0xACE JUMP JUMPDEST PUSH1 0xA0 DUP2 ADD SWAP1 DUP2 LT PUSH8 0xFFFFFFFFFFFFFFFF DUP3 GT OR PUSH2 0xB15 JUMPI PUSH1 0x40 MSTORE JUMP JUMPDEST PUSH4 0x4E487B71 PUSH1 0xE0 SHL PUSH1 0x0 MSTORE PUSH1 0x41 PUSH1 0x4 MSTORE PUSH1 0x24 PUSH1 0x0 REVERT JUMPDEST SWAP1 PUSH1 0x1F DUP1 NOT SWAP2 ADD AND DUP2 ADD SWAP1 DUP2 LT PUSH8 0xFFFFFFFFFFFFFFFF DUP3 GT OR PUSH2 0xB15 JUMPI PUSH1 0x40 MSTORE JUMP JUMPDEST SWAP1 PUSH1 0x40 MLOAD SWAP2 DUP3 PUSH1 0x0 DUP3 SLOAD PUSH2 0xB60 DUP2 PUSH2 0xABF JUMP JUMPDEST SWAP1 DUP2 DUP5 MSTORE PUSH1 0x20 SWAP5 PUSH1 0x1 SWAP2 PUSH1 0x1 DUP2 AND SWAP1 DUP2 PUSH1 0x0 EQ PUSH2 0xBD0 JUMPI POP PUSH1 0x1 EQ PUSH2 0xB91 JUMPI JUMPDEST POP POP POP PUSH2 0xB8F SWAP3 POP SUB DUP4 PUSH2 0xB2B JUMP JUMPDEST JUMP JUMPDEST PUSH1 0x0 SWAP1 DUP2 MSTORE DUP6 DUP2 KECCAK256 SWAP6 SWAP4 POP SWAP2 SWAP1 JUMPDEST DUP2 DUP4 LT PUSH2 0xBB8 JUMPI POP POP PUSH2 0xB8F SWAP4 POP DUP3 ADD ADD CODESIZE DUP1 DUP1 PUSH2 0xB80 JUMP JUMPDEST DUP6 SLOAD DUP9 DUP5 ADD DUP6 ADD MSTORE SWAP5 DUP6 ADD SWAP5 DUP8 SWAP5 POP SWAP2 DUP4 ADD SWAP2 PUSH2 0xB9F JUMP JUMPDEST SWAP3 POP POP POP PUSH2 0xB8F SWAP5 SWAP3 POP PUSH1 0xFF NOT AND DUP3 DUP5 ADD MSTORE ISZERO ISZERO PUSH1 0x5 SHL DUP3 ADD ADD CODESIZE DUP1 DUP1 PUSH2 0xB80 JUMP JUMPDEST SWAP2 SWAP1 DUP3 MLOAD SWAP3 DUP4 DUP3 MSTORE PUSH1 0x0 JUMPDEST DUP5 DUP2 LT PUSH2 0xC1E JUMPI POP POP DUP3 PUSH1 0x0 PUSH1 0x20 DUP1 SWAP5 SWAP6 DUP5 ADD ADD MSTORE PUSH1 0x1F DUP1 NOT SWAP2 ADD AND ADD ADD SWAP1 JUMP JUMPDEST PUSH1 0x20 DUP2 DUP4 ADD DUP2 ADD MLOAD DUP5 DUP4 ADD DUP3 ADD MSTORE ADD PUSH2 0xBFD JUMP JUMPDEST SWAP2 DUP2 PUSH1 0x1F DUP5 ADD SLT ISZERO PUSH2 0xC60 JUMPI DUP3 CALLDATALOAD SWAP2 PUSH8 0xFFFFFFFFFFFFFFFF DUP4 GT PUSH2 0xC60 JUMPI PUSH1 0x20 DUP4 DUP2 DUP7 ADD SWAP6 ADD ADD GT PUSH2 0xC60 JUMPI JUMP JUMPDEST PUSH1 0x0 DUP1 REVERT JUMPDEST PUSH1 0x4 CALLDATALOAD SWAP1 PUSH1 0x1 PUSH1 0x1 PUSH1 0xA0 SHL SUB DUP3 AND DUP3 SUB PUSH2 0xC60 JUMPI JUMP JUMPDEST PUSH1 0x4 CALLDATALOAD SWAP1 PUSH4 0xFFFFFFFF DUP3 AND DUP3 SUB PUSH2 0xC60 JUMPI JUMP JUMPDEST PUSH1 0x4 CALLDATALOAD PUSH4 0xFFFFFFFF DUP2 AND DUP2 SUB PUSH2 0xC60 JUMPI SWAP1 JUMP JUMPDEST PUSH1 0x0 SLOAD PUSH1 0x1 PUSH1 0x1 PUSH1 0xA0 SHL SUB AND CALLER SUB PUSH2 0xCB5 JUMPI JUMP JUMPDEST PUSH1 0x64 PUSH1 0x40 MLOAD PUSH3 0x461BCD PUSH1 0xE5 SHL DUP2 MSTORE PUSH1 0x20 PUSH1 0x4 DUP3 ADD MSTORE PUSH1 0x20 PUSH1 0x24 DUP3 ADD MSTORE PUSH32 0x4F776E61626C653A2063616C6C6572206973206E6F7420746865206F776E6572 PUSH1 0x44 DUP3 ADD MSTORE REVERT INVALID LOG2 PUSH5 0x6970667358 0x22 SLT KECCAK256 LOG3 SDIV 0xA6 DUP9 LOG4 0xA8 0xD 0xEE COINBASE DUP16 PUSH14 0x731D548B59D1D35DC86657441E19 0x4E DUP3 PC CREATE 0x26 PUSH20 0x8364736F6C634300081600330000000000000000 "},"methodIdentifiers":{"allowInitializePath((uint32,bytes32,uint64))":"ff7bd03d","countBySourceEid(uint32)":"85e94e09","endpoint()":"5e280f11","getMessage(uint256)":"86f79edb","isComposeMsgSender((uint32,bytes32,uint64),bytes,address)":"82413eac","lzReceive((uint32,bytes32,uint64),bytes32,bytes,address,bytes)":"13137d65","messageCount()":"3dbcc8d1","messages(uint256)":"0d80fefd","nextNonce(uint32,bytes32)":"7d25a05e","oAppVersion()":"17442b70","owner()":"8da5cb5b","peers(uint32)":"bb0b6a53","renounceOwnership()":"715018a6","setDelegate(address)":"ca5eb5e1","setPeer(uint32,bytes32)":"3400288b","transferOwnership(address)":"f2fde38b"}}}}}