{"contracts/Mev_2.sol":{"Mev":{"abi":[{"inputs":[],"stateMutability":"nonpayable","type":"constructor"},{"inputs":[],"name":"AmountZero","type":"error"},{"inputs":[],"name":"ArrayLengthMismatch","type":"error"},{"inputs":[],"name":"FunctionNotFound","type":"error"},{"inputs":[],"name":"InvalidLength","type":"error"},{"inputs":[],"name":"TransferFailed","type":"error"},{"anonymous":false,"inputs":[{"indexed":true,"internalType":"address","name":"previousOwner","type":"address"},{"indexed":true,"internalType":"address","name":"newOwner","type":"address"}],"name":"OwnershipTransferred","type":"event"},{"stateMutability":"payable","type":"fallback"},{"inputs":[{"internalType":"uint256","name":"stakeAmount","type":"uint256"},{"internalType":"uint256","name":"alphaNetuid","type":"uint256"},{"internalType":"bytes32","name":"_validatorHotkey","type":"bytes32"}],"name":"ForceStake","outputs":[],"stateMutability":"payable","type":"function"},{"inputs":[],"name":"NETUID_COUNT","outputs":[{"internalType":"uint256","name":"","type":"uint256"}],"stateMutability":"view","type":"function"},{"inputs":[{"internalType":"address","name":"to","type":"address"},{"internalType":"uint256","name":"amount","type":"uint256"}],"name":"emergencyWithdrawTao","outputs":[],"stateMutability":"nonpayable","type":"function"},{"inputs":[],"name":"getAlphaPrices","outputs":[{"internalType":"uint256[129]","name":"alphaPrices","type":"uint256[129]"}],"stateMutability":"view","type":"function"},{"inputs":[],"name":"getInfo","outputs":[{"internalType":"bool","name":"staked","type":"bool"},{"internalType":"uint256","name":"ownerBalance","type":"uint256"},{"internalType":"uint256","name":"contractBalance","type":"uint256"}],"stateMutability":"view","type":"function"},{"inputs":[],"name":"getTaoInPools","outputs":[{"internalType":"uint64[129]","name":"taoInPools","type":"uint64[129]"}],"stateMutability":"view","type":"function"},{"inputs":[],"name":"is_staked","outputs":[{"internalType":"bool","name":"","type":"bool"}],"stateMutability":"view","type":"function"},{"inputs":[],"name":"lastStakeTimestamp","outputs":[{"internalType":"uint256","name":"","type":"uint256"}],"stateMutability":"view","type":"function"},{"inputs":[{"internalType":"uint256","name":"","type":"uint256"}],"name":"mevColdkeyBytesKeys","outputs":[{"internalType":"bytes32","name":"","type":"bytes32"}],"stateMutability":"view","type":"function"},{"inputs":[{"internalType":"uint256","name":"","type":"uint256"}],"name":"mevHotkeyBytesKeys","outputs":[{"internalType":"bytes32","name":"","type":"bytes32"}],"stateMutability":"view","type":"function"},{"inputs":[],"name":"owner","outputs":[{"internalType":"address","name":"","type":"address"}],"stateMutability":"view","type":"function"},{"inputs":[],"name":"renounceOwnership","outputs":[],"stateMutability":"nonpayable","type":"function"},{"inputs":[{"internalType":"address","name":"newWithdrawer","type":"address"}],"name":"setWithdrawer","outputs":[],"stateMutability":"nonpayable","type":"function"},{"inputs":[{"internalType":"uint256","name":"stakeAmount","type":"uint256"},{"internalType":"uint256","name":"alphaNetuid","type":"uint256"},{"internalType":"uint256","name":"alphaPrice","type":"uint256"},{"internalType":"bytes32","name":"_validatorHotkey","type":"bytes32"}],"name":"stakeTaoForAlpha","outputs":[],"stateMutability":"payable","type":"function"},{"inputs":[{"internalType":"address","name":"newOwner","type":"address"}],"name":"transferOwnership","outputs":[],"stateMutability":"nonpayable","type":"function"},{"inputs":[{"internalType":"bytes32[]","name":"newMevHotkeyBytesKeys","type":"bytes32[]"},{"internalType":"bytes32[]","name":"newMevColdkeyBytesKeys","type":"bytes32[]"}],"name":"updateMevKeys","outputs":[],"stateMutability":"nonpayable","type":"function"},{"inputs":[{"internalType":"uint256[]","name":"newNetuids","type":"uint256[]"}],"name":"updateNetuids","outputs":[],"stateMutability":"nonpayable","type":"function"},{"inputs":[{"internalType":"address","name":"to","type":"address"}],"name":"withdrawAll","outputs":[],"stateMutability":"nonpayable","type":"function"},{"inputs":[],"name":"withdrawer","outputs":[{"internalType":"address","name":"","type":"address"}],"stateMutability":"view","type":"function"},{"stateMutability":"payable","type":"receive"}],"evm":{"bytecode":{"linkReferences":{},"object":"6080346104cf5760008054336001600160a01b03198083168217845593916001600160a01b03167f8be0079c531659141344cd1fd0a4f28419497f9722a3daafe3b4186f6b6457e08480a3600180805560068054851690559061102081016001600160401b038111828210176104bb576040526001815260209060376020820152606e6040820152604c606082015260516080820152600760a0820152607060c0820152601360e0820152836101008201526012610120820152602f6101408201526054610160820152607161018082015260246101a082015260336101c082015260626101e0820152603161020082015260756102208201526027610240820152605a610260820152603c61028082015260676102a082015260406102c0820152605f6102e0820152607c610300820152606c61032082015260186103408201526057610360820152606161038082015260536103a082015260436103c0820152603b6103e08201526025610400820152601e61042082015260026104408201526005610460820152600e61048082015260266104a0820152602c6104c082015260746104e0820152601b610500820152603f6105208201526010610540820152607a610560820152605661058082015260606105a082015260726105c082015260586105e0820152601d610600820152601161062082015260236106408201526063610660820152600861068082015260556106a082015260496106c082015260156106e08201526021610700820152602d610720820152600c6107408201526029610760820152607961078082015260226107a082015260366107c082015260806107e0820152604b610800820152600b610820820152600a610840820152602e610860820152606f610880820152606d6108a0820152602a6108c082015260396108e0820152602b610900820152604d61092082015260286109408201526068610960820152603a610980820152605e6109a0820152607f6109c082015260736109e08201526020610a00820152607b610a208201526069610a408201526016610a608201526044610a808201526017610aa0820152606a610ac08201526035610ae0820152601f610b008201526014610b208201526065610b408201526034610b60820152606b610b808201526042610ba08201526006610bc0820152603d610be08201526045610c008201526064610c208201526059610c408201526009906009610c608201526038610c808201526077610ca0820152604e610cc08201526019610ce08201526032610d00820152603e610d208201526003610d408201526048610d60820152604f610d80820152601a610da08201526076610dc0820152600d610de08201526078610e00820152600f610e20820152605c610e408201526052610e608201526004610e808201526030610ea0820152605d610ec08201526066610ee0820152601c610f008201526041610f208201526046610f40820152607d610f608201526050610f80820152605b610fa08201526047610fc0820152607e610fe0820152604a61100082015290845b608181106104a757868660ff1960025416600255600755339060065416176006556040516111e090816104d58239f35b825160ff1682820155918301918401610477565b634e487b7160e01b84526041600452602484fd5b600080fdfe60406080815260049081361015610026575b3615610024575163201f3fd360e11b8152fd5b005b6000803560e01c80630d174c241461098c578063169374dc1461095c5780632f6fc02e146109385780633f3b7858146108a257806350bf86491461088657806351b2e72d1461085b5780635a9b0b8914610820578063715018a6146107c65780638da5cb5b1461079e5780639ebf137814610763578063a8c2bb0d14610633578063b6b2a68d146105fc578063bc28d5d0146104ed578063c82ad204146102db578063cdc18424146102b2578063f0f9e9751461028f578063f2fde38b146101cc578063f528c62e1461017c5763fa09e630146101035750610011565b9190346101785760203660031901126101785761011e610a12565b6006546001600160a01b03906101379082163314610ae2565b479182156101685785809381938293165af16101516110ab565b501561015b578280f35b516312171d8360e31b8152fd5b505050516365e52d5160e11b8152fd5b8280fd5b50919034610178578060031936011261017857610197610a12565b600654602435916001600160a01b03916101b49083163314610ae2565b82156101685785809381938293165af16101516110ab565b509134610178576020366003190112610178576101e7610a12565b906101f0611141565b6001600160a01b0391821692831561023d57505082546001600160a01b0319811683178455167f8be0079c531659141344cd1fd0a4f28419497f9722a3daafe3b4186f6b6457e08380a380f35b906020608492519162461bcd60e51b8352820152602660248201527f4f776e61626c653a206e6577206f776e657220697320746865207a65726f206160448201526564647265737360d01b6064820152fd5b5090346102ae57816003193601126102ae576020906003549051908152f35b5080fd5b5090346102ae57816003193601126102ae5760065490516001600160a01b039091168152602090f35b5091903461017857806003193601126101785767ffffffffffffffff9180358381116104e95761030e9036908301610a2d565b936024358181116104e5576103269036908501610a2d565b9590946103316110eb565b610339611141565b8682036104d657508181116104c35768010000000000000000928382116104b0578454828655808310610470575b50875b82811061043c5750505084116104295783116104165750600554826005558083106103d6575b50825b8281106103a257836001805580f35b60019060208335930192817f036b6384b5eca791c62761152d0c79bb0604c104a5fb6f4eb0703f3154bb3db0015501610393565b827f036b6384b5eca791c62761152d0c79bb0604c104a5fb6f4eb0703f3154bb3db091820191015b81811061040b5750610390565b8481556001016103fe565b634e487b7160e01b845260419052602483fd5b634e487b7160e01b855260418252602485fd5b60019060208335930192817f8a35acfbc15ff81a39ae7d344fd709f28e8600b4aa8c65c6b64bfe7fe36bd19b01550161036a565b827f8a35acfbc15ff81a39ae7d344fd709f28e8600b4aa8c65c6b64bfe7fe36bd19b91820191015b8181106104a55750610367565b898155600101610498565b634e487b7160e01b885260418552602488fd5b634e487b7160e01b875260418452602487fd5b5163512509d360e11b81528490fd5b8680fd5b8480fd5b50346105f957806003193601126105f95781519061050a82610b6c565b611020809236903782519061051e82610b6c565b82368337805b61ffff908181169060818210156105cc57838751926369e38bc360e01b8452808a850152602080856024816108085afa94839186610590575b50506001941560001461057e57506105759087611199565b525b0116610524565b915061058a9087611199565b52610577565b8193959694508092503d83116105c5575b6105ab8183610b89565b810103126105c15751909291859160013861055d565b8580fd5b503d6105a1565b50508451929050825b608183106105e257505050f35b6001908251815260208091019201920191906105d5565b80fd5b50346105f95760203660031901126105f957823592548310156105f95750610625602092610aab565b91905490519160031b1c8152f35b50346105f957806003193601126105f95781519061065082610b6c565b611020809236903782519161066483610b6c565b80368437815b61ffff9081811690608182101561072b5784875192632d9bfc7160e01b8452808a850152602080856024816108085afa948391866106e2575b5050600194156000146106c457506106bb9088611199565b525b011661066a565b91506106d967ffffffffffffffff9189611199565b911690526106bd565b8193959694508092503d8311610724575b6106fd8183610b89565b810103126104e5575167ffffffffffffffff811681036104e55790929186916001386106a3565b503d6106f3565b5050935190935091825b6081831061074257505050f35b60019067ffffffffffffffff83511681526020809101920192019190610735565b508260803660031901126102ae576107979061077d6110eb565b610785611141565b60643590604435906024359035610dfe565b6001805580f35b5090346102ae57816003193601126102ae57905490516001600160a01b039091168152602090f35b50346105f957806003193601126105f9576107df611141565b80546001600160a01b03198116825581906001600160a01b03167f8be0079c531659141344cd1fd0a4f28419497f9722a3daafe3b4186f6b6457e08280a380f35b5090346102ae57816003193601126102ae576002549154815160ff909316151583526001600160a01b03163160208301524790820152606090f35b5091346101785760203660031901126101785735916005548310156105f95750610625602092610a5e565b5090346102ae57816003193601126102ae576020905160818152f35b5091903461017857602036600319011261017857813567ffffffffffffffff8111610934576108d49036908401610a2d565b6108dc611141565b608192608182036109255750845b8381106108f5578580f35b81811015610912578060019160051b8401358160090155016108ea565b634e487b7160e01b865260328552602486fd5b5163251f56a160e21b81528490fd5b8380fd5b5090346102ae57816003193601126102ae5760209060ff6002541690519015158152f35b508260603660031901126102ae57610797906109766110eb565b61097e611141565b604435906024359035610bb8565b509134610178576020366003190112610178576109a7610a12565b60065491906001600160a01b03906109c23383861614610ae2565b169283156109dd5750506001600160a01b0319161760065580f35b906020606492519162461bcd60e51b8352820152600f60248201526e496e76616c6964206164647265737360881b6044820152fd5b600435906001600160a01b0382168203610a2857565b600080fd5b9181601f84011215610a285782359167ffffffffffffffff8311610a28576020808501948460051b010111610a2857565b600554811015610a955760056000527f036b6384b5eca791c62761152d0c79bb0604c104a5fb6f4eb0703f3154bb3db00190600090565b634e487b7160e01b600052603260045260246000fd5b600454811015610a955760046000527f8a35acfbc15ff81a39ae7d344fd709f28e8600b4aa8c65c6b64bfe7fe36bd19b0190600090565b15610ae957565b60405162461bcd60e51b815260206004820152600e60248201526d2737ba103bb4ba34323930bbb2b960911b6044820152606490fd5b91908203918211610b2c57565b634e487b7160e01b600052601160045260246000fd5b67ffffffffffffffff8111610b5657604052565b634e487b7160e01b600052604160045260246000fd5b611020810190811067ffffffffffffffff821117610b5657604052565b90601f8019910116810190811067ffffffffffffffff821117610b5657604052565b91908201809211610b2c57565b9190610bc89060ff831690610b1f565b906000916081811015610dea57600901549260ff6002541680610dde575b610d70575b80610bf7575b50505050565b6004805490849185915b818310610cb157505050610bf157816008554790808210600014610caa57505b61080590813b1561093457604051631fc9b14160e01b81526004810193909352633b9aca00900460248301526044820184905282908290606490829084905af18015610c9f57610c8b575b5050600160ff1960025416176002556007554260035538808080610bf1565b610c958291610b42565b6105f95780610c6c565b6040513d84823e3d90fd5b9050610c21565b90919287610cbe85610aab565b919054916003610ccd88610a5e565b905490821b1c604094610d0a865195869384936371dacc7d60e11b855260209788971b1c8b85016040919493926060820195825260208201520152565b03816108055afa928315610d6757508992610d37575b5050610d2e90600192610bab565b93019190610c01565b90809250813d8311610d60575b610d4e8183610b89565b81010312610a28575181610d2e610d20565b503d610d44565b513d8b823e3d90fd5b60085460075461080591823b156105c157906044869283604051958694859363d4626bb960e01b8552600485015260248401525af18015610dd357610dc0575b5060ff1960025416600255610beb565b610dcc90939193610b42565b9138610db0565b6040513d86823e3d90fd5b50600354421415610be6565b634e487b7160e01b83526032600452602483fd5b919290610e0f9060ff831690610b1f565b91600092608181101561109757600901549360ff600254168061108b575b611028575b81610e3f575b5050505050565b6004805490859186915b818310610f6957505050610e38576040516369e38bc360e01b815261ffff861660048201526020816024816108085afa908115610f5e578591610f2c575b501115610e95575b80610e38565b816008554790808210600014610f2557505b61080590813b1561093457604051631fc9b14160e01b81526004810193909352633b9aca00900460248301526044820184905282908290606490829084905af18015610c9f57610f11575b5050600160ff1960025416176002556007554260035538808080610e8f565b610f1b8291610b42565b6105f95780610ef2565b9050610ea7565b90506020813d602011610f56575b81610f4760209383610b89565b81010312610a28575138610e87565b3d9150610f3a565b6040513d87823e3d90fd5b90919288610f7685610aab565b919054916003610f8588610a5e565b905490821b1c604094610fc2865195869384936371dacc7d60e11b855260209788971b1c8b85016040919493926060820195825260208201520152565b03816108055afa92831561101f57508a92610fef575b5050610fe690600192610bab565b93019190610e49565b90809250813d8311611018575b6110068183610b89565b81010312610a28575181610fe6610fd8565b503d610ffc565b513d8c823e3d90fd5b60085460075461080591823b156104e557906044879283604051958694859363d4626bb960e01b8552600485015260248401525af18015610f5e57611078575b5060ff1960025416600255610e32565b61108490949194610b42565b9238611068565b50600354421415610e2d565b634e487b7160e01b84526032600452602484fd5b3d156110e6573d9067ffffffffffffffff8211610b5657604051916110da601f8201601f191660200184610b89565b82523d6000602084013e565b606090565b6002600154146110fc576002600155565b60405162461bcd60e51b815260206004820152601f60248201527f5265656e7472616e637947756172643a207265656e7472616e742063616c6c006044820152606490fd5b6000546001600160a01b0316330361115557565b606460405162461bcd60e51b815260206004820152602060248201527f4f776e61626c653a2063616c6c6572206973206e6f7420746865206f776e65726044820152fd5b906081811015610a955760051b019056fea2646970667358221220a820389920001cca74d2aecc2030ecaf7ad226b0d7008dc162dc51888480514064736f6c63430008160033","opcodes":"PUSH1 0x80 CALLVALUE PUSH2 0x4CF JUMPI PUSH1 0x0 DUP1 SLOAD CALLER PUSH1 0x1 PUSH1 0x1 PUSH1 0xA0 SHL SUB NOT DUP1 DUP4 AND DUP3 OR DUP5 SSTORE SWAP4 SWAP2 PUSH1 0x1 PUSH1 0x1 PUSH1 0xA0 SHL SUB AND PUSH32 0x8BE0079C531659141344CD1FD0A4F28419497F9722A3DAAFE3B4186F6B6457E0 DUP5 DUP1 LOG3 PUSH1 0x1 DUP1 DUP1 SSTORE PUSH1 0x6 DUP1 SLOAD DUP6 AND SWAP1 SSTORE SWAP1 PUSH2 0x1020 DUP2 ADD PUSH1 0x1 PUSH1 0x1 PUSH1 0x40 SHL SUB DUP2 GT DUP3 DUP3 LT OR PUSH2 0x4BB JUMPI PUSH1 0x40 MSTORE PUSH1 0x1 DUP2 MSTORE PUSH1 0x20 SWAP1 PUSH1 0x37 PUSH1 0x20 DUP3 ADD MSTORE PUSH1 0x6E PUSH1 0x40 DUP3 ADD MSTORE PUSH1 0x4C PUSH1 0x60 DUP3 ADD MSTORE PUSH1 0x51 PUSH1 0x80 DUP3 ADD MSTORE PUSH1 0x7 PUSH1 0xA0 DUP3 ADD MSTORE PUSH1 0x70 PUSH1 0xC0 DUP3 ADD MSTORE PUSH1 0x13 PUSH1 0xE0 DUP3 ADD MSTORE DUP4 PUSH2 0x100 DUP3 ADD MSTORE PUSH1 0x12 PUSH2 0x120 DUP3 ADD MSTORE PUSH1 0x2F PUSH2 0x140 DUP3 ADD MSTORE PUSH1 0x54 PUSH2 0x160 DUP3 ADD MSTORE PUSH1 0x71 PUSH2 0x180 DUP3 ADD MSTORE PUSH1 0x24 PUSH2 0x1A0 DUP3 ADD MSTORE PUSH1 0x33 PUSH2 0x1C0 DUP3 ADD MSTORE PUSH1 0x62 PUSH2 0x1E0 DUP3 ADD MSTORE PUSH1 0x31 PUSH2 0x200 DUP3 ADD MSTORE PUSH1 0x75 PUSH2 0x220 DUP3 ADD MSTORE PUSH1 0x27 PUSH2 0x240 DUP3 ADD MSTORE PUSH1 0x5A PUSH2 0x260 DUP3 ADD MSTORE PUSH1 0x3C PUSH2 0x280 DUP3 ADD MSTORE PUSH1 0x67 PUSH2 0x2A0 DUP3 ADD MSTORE PUSH1 0x40 PUSH2 0x2C0 DUP3 ADD MSTORE PUSH1 0x5F PUSH2 0x2E0 DUP3 ADD MSTORE PUSH1 0x7C PUSH2 0x300 DUP3 ADD MSTORE PUSH1 0x6C PUSH2 0x320 DUP3 ADD MSTORE PUSH1 0x18 PUSH2 0x340 DUP3 ADD MSTORE PUSH1 0x57 PUSH2 0x360 DUP3 ADD MSTORE PUSH1 0x61 PUSH2 0x380 DUP3 ADD MSTORE PUSH1 0x53 PUSH2 0x3A0 DUP3 ADD MSTORE PUSH1 0x43 PUSH2 0x3C0 DUP3 ADD MSTORE PUSH1 0x3B PUSH2 0x3E0 DUP3 ADD MSTORE PUSH1 0x25 PUSH2 0x400 DUP3 ADD MSTORE PUSH1 0x1E PUSH2 0x420 DUP3 ADD MSTORE PUSH1 0x2 PUSH2 0x440 DUP3 ADD MSTORE PUSH1 0x5 PUSH2 0x460 DUP3 ADD MSTORE PUSH1 0xE PUSH2 0x480 DUP3 ADD MSTORE PUSH1 0x26 PUSH2 0x4A0 DUP3 ADD MSTORE PUSH1 0x2C PUSH2 0x4C0 DUP3 ADD MSTORE PUSH1 0x74 PUSH2 0x4E0 DUP3 ADD MSTORE PUSH1 0x1B PUSH2 0x500 DUP3 ADD MSTORE PUSH1 0x3F PUSH2 0x520 DUP3 ADD MSTORE PUSH1 0x10 PUSH2 0x540 DUP3 ADD MSTORE PUSH1 0x7A PUSH2 0x560 DUP3 ADD MSTORE PUSH1 0x56 PUSH2 0x580 DUP3 ADD MSTORE PUSH1 0x60 PUSH2 0x5A0 DUP3 ADD MSTORE PUSH1 0x72 PUSH2 0x5C0 DUP3 ADD MSTORE PUSH1 0x58 PUSH2 0x5E0 DUP3 ADD MSTORE PUSH1 0x1D PUSH2 0x600 DUP3 ADD MSTORE PUSH1 0x11 PUSH2 0x620 DUP3 ADD MSTORE PUSH1 0x23 PUSH2 0x640 DUP3 ADD MSTORE PUSH1 0x63 PUSH2 0x660 DUP3 ADD MSTORE PUSH1 0x8 PUSH2 0x680 DUP3 ADD MSTORE PUSH1 0x55 PUSH2 0x6A0 DUP3 ADD MSTORE PUSH1 0x49 PUSH2 0x6C0 DUP3 ADD MSTORE PUSH1 0x15 PUSH2 0x6E0 DUP3 ADD MSTORE PUSH1 0x21 PUSH2 0x700 DUP3 ADD MSTORE PUSH1 0x2D PUSH2 0x720 DUP3 ADD MSTORE PUSH1 0xC PUSH2 0x740 DUP3 ADD MSTORE PUSH1 0x29 PUSH2 0x760 DUP3 ADD MSTORE PUSH1 0x79 PUSH2 0x780 DUP3 ADD MSTORE PUSH1 0x22 PUSH2 0x7A0 DUP3 ADD MSTORE PUSH1 0x36 PUSH2 0x7C0 DUP3 ADD MSTORE PUSH1 0x80 PUSH2 0x7E0 DUP3 ADD MSTORE PUSH1 0x4B PUSH2 0x800 DUP3 ADD MSTORE PUSH1 0xB PUSH2 0x820 DUP3 ADD MSTORE PUSH1 0xA PUSH2 0x840 DUP3 ADD MSTORE PUSH1 0x2E PUSH2 0x860 DUP3 ADD MSTORE PUSH1 0x6F PUSH2 0x880 DUP3 ADD MSTORE PUSH1 0x6D PUSH2 0x8A0 DUP3 ADD MSTORE PUSH1 0x2A PUSH2 0x8C0 DUP3 ADD MSTORE PUSH1 0x39 PUSH2 0x8E0 DUP3 ADD MSTORE PUSH1 0x2B PUSH2 0x900 DUP3 ADD MSTORE PUSH1 0x4D PUSH2 0x920 DUP3 ADD MSTORE PUSH1 0x28 PUSH2 0x940 DUP3 ADD MSTORE PUSH1 0x68 PUSH2 0x960 DUP3 ADD MSTORE PUSH1 0x3A PUSH2 0x980 DUP3 ADD MSTORE PUSH1 0x5E PUSH2 0x9A0 DUP3 ADD MSTORE PUSH1 0x7F PUSH2 0x9C0 DUP3 ADD MSTORE PUSH1 0x73 PUSH2 0x9E0 DUP3 ADD MSTORE PUSH1 0x20 PUSH2 0xA00 DUP3 ADD MSTORE PUSH1 0x7B PUSH2 0xA20 DUP3 ADD MSTORE PUSH1 0x69 PUSH2 0xA40 DUP3 ADD MSTORE PUSH1 0x16 PUSH2 0xA60 DUP3 ADD MSTORE PUSH1 0x44 PUSH2 0xA80 DUP3 ADD MSTORE PUSH1 0x17 PUSH2 0xAA0 DUP3 ADD MSTORE PUSH1 0x6A PUSH2 0xAC0 DUP3 ADD MSTORE PUSH1 0x35 PUSH2 0xAE0 DUP3 ADD MSTORE PUSH1 0x1F PUSH2 0xB00 DUP3 ADD MSTORE PUSH1 0x14 PUSH2 0xB20 DUP3 ADD MSTORE PUSH1 0x65 PUSH2 0xB40 DUP3 ADD MSTORE PUSH1 0x34 PUSH2 0xB60 DUP3 ADD MSTORE PUSH1 0x6B PUSH2 0xB80 DUP3 ADD MSTORE PUSH1 0x42 PUSH2 0xBA0 DUP3 ADD MSTORE PUSH1 0x6 PUSH2 0xBC0 DUP3 ADD MSTORE PUSH1 0x3D PUSH2 0xBE0 DUP3 ADD MSTORE PUSH1 0x45 PUSH2 0xC00 DUP3 ADD MSTORE PUSH1 0x64 PUSH2 0xC20 DUP3 ADD MSTORE PUSH1 0x59 PUSH2 0xC40 DUP3 ADD MSTORE PUSH1 0x9 SWAP1 PUSH1 0x9 PUSH2 0xC60 DUP3 ADD MSTORE PUSH1 0x38 PUSH2 0xC80 DUP3 ADD MSTORE PUSH1 0x77 PUSH2 0xCA0 DUP3 ADD MSTORE PUSH1 0x4E PUSH2 0xCC0 DUP3 ADD MSTORE PUSH1 0x19 PUSH2 0xCE0 DUP3 ADD MSTORE PUSH1 0x32 PUSH2 0xD00 DUP3 ADD MSTORE PUSH1 0x3E PUSH2 0xD20 DUP3 ADD MSTORE PUSH1 0x3 PUSH2 0xD40 DUP3 ADD MSTORE PUSH1 0x48 PUSH2 0xD60 DUP3 ADD MSTORE PUSH1 0x4F PUSH2 0xD80 DUP3 ADD MSTORE PUSH1 0x1A PUSH2 0xDA0 DUP3 ADD MSTORE PUSH1 0x76 PUSH2 0xDC0 DUP3 ADD MSTORE PUSH1 0xD PUSH2 0xDE0 DUP3 ADD MSTORE PUSH1 0x78 PUSH2 0xE00 DUP3 ADD MSTORE PUSH1 0xF PUSH2 0xE20 DUP3 ADD MSTORE PUSH1 0x5C PUSH2 0xE40 DUP3 ADD MSTORE PUSH1 0x52 PUSH2 0xE60 DUP3 ADD MSTORE PUSH1 0x4 PUSH2 0xE80 DUP3 ADD MSTORE PUSH1 0x30 PUSH2 0xEA0 DUP3 ADD MSTORE PUSH1 0x5D PUSH2 0xEC0 DUP3 ADD MSTORE PUSH1 0x66 PUSH2 0xEE0 DUP3 ADD MSTORE PUSH1 0x1C PUSH2 0xF00 DUP3 ADD MSTORE PUSH1 0x41 PUSH2 0xF20 DUP3 ADD MSTORE PUSH1 0x46 PUSH2 0xF40 DUP3 ADD MSTORE PUSH1 0x7D PUSH2 0xF60 DUP3 ADD MSTORE PUSH1 0x50 PUSH2 0xF80 DUP3 ADD MSTORE PUSH1 0x5B PUSH2 0xFA0 DUP3 ADD MSTORE PUSH1 0x47 PUSH2 0xFC0 DUP3 ADD MSTORE PUSH1 0x7E PUSH2 0xFE0 DUP3 ADD MSTORE PUSH1 0x4A PUSH2 0x1000 DUP3 ADD MSTORE SWAP1 DUP5 JUMPDEST PUSH1 0x81 DUP2 LT PUSH2 0x4A7 JUMPI DUP7 DUP7 PUSH1 0xFF NOT PUSH1 0x2 SLOAD AND PUSH1 0x2 SSTORE PUSH1 0x7 SSTORE CALLER SWAP1 PUSH1 0x6 SLOAD AND OR PUSH1 0x6 SSTORE PUSH1 0x40 MLOAD PUSH2 0x11E0 SWAP1 DUP2 PUSH2 0x4D5 DUP3 CODECOPY RETURN JUMPDEST DUP3 MLOAD PUSH1 0xFF AND DUP3 DUP3 ADD SSTORE SWAP2 DUP4 ADD SWAP2 DUP5 ADD PUSH2 0x477 JUMP JUMPDEST PUSH4 0x4E487B71 PUSH1 0xE0 SHL DUP5 MSTORE PUSH1 0x41 PUSH1 0x4 MSTORE PUSH1 0x24 DUP5 REVERT JUMPDEST PUSH1 0x0 DUP1 REVERT INVALID PUSH1 0x40 PUSH1 0x80 DUP2 MSTORE PUSH1 0x4 SWAP1 DUP2 CALLDATASIZE LT ISZERO PUSH2 0x26 JUMPI JUMPDEST CALLDATASIZE ISZERO PUSH2 0x24 JUMPI MLOAD PUSH4 0x201F3FD3 PUSH1 0xE1 SHL DUP2 MSTORE REVERT JUMPDEST STOP JUMPDEST PUSH1 0x0 DUP1 CALLDATALOAD PUSH1 0xE0 SHR DUP1 PUSH4 0xD174C24 EQ PUSH2 0x98C JUMPI DUP1 PUSH4 0x169374DC EQ PUSH2 0x95C JUMPI DUP1 PUSH4 0x2F6FC02E EQ PUSH2 0x938 JUMPI DUP1 PUSH4 0x3F3B7858 EQ PUSH2 0x8A2 JUMPI DUP1 PUSH4 0x50BF8649 EQ PUSH2 0x886 JUMPI DUP1 PUSH4 0x51B2E72D EQ PUSH2 0x85B JUMPI DUP1 PUSH4 0x5A9B0B89 EQ PUSH2 0x820 JUMPI DUP1 PUSH4 0x715018A6 EQ PUSH2 0x7C6 JUMPI DUP1 PUSH4 0x8DA5CB5B EQ PUSH2 0x79E JUMPI DUP1 PUSH4 0x9EBF1378 EQ PUSH2 0x763 JUMPI DUP1 PUSH4 0xA8C2BB0D EQ PUSH2 0x633 JUMPI DUP1 PUSH4 0xB6B2A68D EQ PUSH2 0x5FC JUMPI DUP1 PUSH4 0xBC28D5D0 EQ PUSH2 0x4ED JUMPI DUP1 PUSH4 0xC82AD204 EQ PUSH2 0x2DB JUMPI DUP1 PUSH4 0xCDC18424 EQ PUSH2 0x2B2 JUMPI DUP1 PUSH4 0xF0F9E975 EQ PUSH2 0x28F JUMPI DUP1 PUSH4 0xF2FDE38B EQ PUSH2 0x1CC JUMPI DUP1 PUSH4 0xF528C62E EQ PUSH2 0x17C JUMPI PUSH4 0xFA09E630 EQ PUSH2 0x103 JUMPI POP PUSH2 0x11 JUMP JUMPDEST SWAP2 SWAP1 CALLVALUE PUSH2 0x178 JUMPI PUSH1 0x20 CALLDATASIZE PUSH1 0x3 NOT ADD SLT PUSH2 0x178 JUMPI PUSH2 0x11E PUSH2 0xA12 JUMP JUMPDEST PUSH1 0x6 SLOAD PUSH1 0x1 PUSH1 0x1 PUSH1 0xA0 SHL SUB SWAP1 PUSH2 0x137 SWAP1 DUP3 AND CALLER EQ PUSH2 0xAE2 JUMP JUMPDEST SELFBALANCE SWAP2 DUP3 ISZERO PUSH2 0x168 JUMPI DUP6 DUP1 SWAP4 DUP2 SWAP4 DUP3 SWAP4 AND GAS CALL PUSH2 0x151 PUSH2 0x10AB JUMP JUMPDEST POP ISZERO PUSH2 0x15B JUMPI DUP3 DUP1 RETURN JUMPDEST MLOAD PUSH4 0x12171D83 PUSH1 0xE3 SHL DUP2 MSTORE REVERT JUMPDEST POP POP POP MLOAD PUSH4 0x65E52D51 PUSH1 0xE1 SHL DUP2 MSTORE REVERT JUMPDEST DUP3 DUP1 REVERT JUMPDEST POP SWAP2 SWAP1 CALLVALUE PUSH2 0x178 JUMPI DUP1 PUSH1 0x3 NOT CALLDATASIZE ADD SLT PUSH2 0x178 JUMPI PUSH2 0x197 PUSH2 0xA12 JUMP JUMPDEST PUSH1 0x6 SLOAD PUSH1 0x24 CALLDATALOAD SWAP2 PUSH1 0x1 PUSH1 0x1 PUSH1 0xA0 SHL SUB SWAP2 PUSH2 0x1B4 SWAP1 DUP4 AND CALLER EQ PUSH2 0xAE2 JUMP JUMPDEST DUP3 ISZERO PUSH2 0x168 JUMPI DUP6 DUP1 SWAP4 DUP2 SWAP4 DUP3 SWAP4 AND GAS CALL PUSH2 0x151 PUSH2 0x10AB JUMP JUMPDEST POP SWAP2 CALLVALUE PUSH2 0x178 JUMPI PUSH1 0x20 CALLDATASIZE PUSH1 0x3 NOT ADD SLT PUSH2 0x178 JUMPI PUSH2 0x1E7 PUSH2 0xA12 JUMP JUMPDEST SWAP1 PUSH2 0x1F0 PUSH2 0x1141 JUMP JUMPDEST PUSH1 0x1 PUSH1 0x1 PUSH1 0xA0 SHL SUB SWAP2 DUP3 AND SWAP3 DUP4 ISZERO PUSH2 0x23D JUMPI POP POP DUP3 SLOAD PUSH1 0x1 PUSH1 0x1 PUSH1 0xA0 SHL SUB NOT DUP2 AND DUP4 OR DUP5 SSTORE AND PUSH32 0x8BE0079C531659141344CD1FD0A4F28419497F9722A3DAAFE3B4186F6B6457E0 DUP4 DUP1 LOG3 DUP1 RETURN JUMPDEST SWAP1 PUSH1 0x20 PUSH1 0x84 SWAP3 MLOAD SWAP2 PUSH3 0x461BCD PUSH1 0xE5 SHL DUP4 MSTORE DUP3 ADD MSTORE PUSH1 0x26 PUSH1 0x24 DUP3 ADD MSTORE PUSH32 0x4F776E61626C653A206E6577206F776E657220697320746865207A65726F2061 PUSH1 0x44 DUP3 ADD MSTORE PUSH6 0x646472657373 PUSH1 0xD0 SHL PUSH1 0x64 DUP3 ADD MSTORE REVERT JUMPDEST POP SWAP1 CALLVALUE PUSH2 0x2AE JUMPI DUP2 PUSH1 0x3 NOT CALLDATASIZE ADD SLT PUSH2 0x2AE JUMPI PUSH1 0x20 SWAP1 PUSH1 0x3 SLOAD SWAP1 MLOAD SWAP1 DUP2 MSTORE RETURN JUMPDEST POP DUP1 REVERT JUMPDEST POP SWAP1 CALLVALUE PUSH2 0x2AE JUMPI DUP2 PUSH1 0x3 NOT CALLDATASIZE ADD SLT PUSH2 0x2AE JUMPI PUSH1 0x6 SLOAD SWAP1 MLOAD PUSH1 0x1 PUSH1 0x1 PUSH1 0xA0 SHL SUB SWAP1 SWAP2 AND DUP2 MSTORE PUSH1 0x20 SWAP1 RETURN JUMPDEST POP SWAP2 SWAP1 CALLVALUE PUSH2 0x178 JUMPI DUP1 PUSH1 0x3 NOT CALLDATASIZE ADD SLT PUSH2 0x178 JUMPI PUSH8 0xFFFFFFFFFFFFFFFF SWAP2 DUP1 CALLDATALOAD DUP4 DUP2 GT PUSH2 0x4E9 JUMPI PUSH2 0x30E SWAP1 CALLDATASIZE SWAP1 DUP4 ADD PUSH2 0xA2D JUMP JUMPDEST SWAP4 PUSH1 0x24 CALLDATALOAD DUP2 DUP2 GT PUSH2 0x4E5 JUMPI PUSH2 0x326 SWAP1 CALLDATASIZE SWAP1 DUP6 ADD PUSH2 0xA2D JUMP JUMPDEST SWAP6 SWAP1 SWAP5 PUSH2 0x331 PUSH2 0x10EB JUMP JUMPDEST PUSH2 0x339 PUSH2 0x1141 JUMP JUMPDEST DUP7 DUP3 SUB PUSH2 0x4D6 JUMPI POP DUP2 DUP2 GT PUSH2 0x4C3 JUMPI PUSH9 0x10000000000000000 SWAP3 DUP4 DUP3 GT PUSH2 0x4B0 JUMPI DUP5 SLOAD DUP3 DUP7 SSTORE DUP1 DUP4 LT PUSH2 0x470 JUMPI JUMPDEST POP DUP8 JUMPDEST DUP3 DUP2 LT PUSH2 0x43C JUMPI POP POP POP DUP5 GT PUSH2 0x429 JUMPI DUP4 GT PUSH2 0x416 JUMPI POP PUSH1 0x5 SLOAD DUP3 PUSH1 0x5 SSTORE DUP1 DUP4 LT PUSH2 0x3D6 JUMPI JUMPDEST POP DUP3 JUMPDEST DUP3 DUP2 LT PUSH2 0x3A2 JUMPI DUP4 PUSH1 0x1 DUP1 SSTORE DUP1 RETURN JUMPDEST PUSH1 0x1 SWAP1 PUSH1 0x20 DUP4 CALLDATALOAD SWAP4 ADD SWAP3 DUP2 PUSH32 0x36B6384B5ECA791C62761152D0C79BB0604C104A5FB6F4EB0703F3154BB3DB0 ADD SSTORE ADD PUSH2 0x393 JUMP JUMPDEST DUP3 PUSH32 0x36B6384B5ECA791C62761152D0C79BB0604C104A5FB6F4EB0703F3154BB3DB0 SWAP2 DUP3 ADD SWAP2 ADD JUMPDEST DUP2 DUP2 LT PUSH2 0x40B JUMPI POP PUSH2 0x390 JUMP JUMPDEST DUP5 DUP2 SSTORE PUSH1 0x1 ADD PUSH2 0x3FE JUMP JUMPDEST PUSH4 0x4E487B71 PUSH1 0xE0 SHL DUP5 MSTORE PUSH1 0x41 SWAP1 MSTORE PUSH1 0x24 DUP4 REVERT JUMPDEST PUSH4 0x4E487B71 PUSH1 0xE0 SHL DUP6 MSTORE PUSH1 0x41 DUP3 MSTORE PUSH1 0x24 DUP6 REVERT JUMPDEST PUSH1 0x1 SWAP1 PUSH1 0x20 DUP4 CALLDATALOAD SWAP4 ADD SWAP3 DUP2 PUSH32 0x8A35ACFBC15FF81A39AE7D344FD709F28E8600B4AA8C65C6B64BFE7FE36BD19B ADD SSTORE ADD PUSH2 0x36A JUMP JUMPDEST DUP3 PUSH32 0x8A35ACFBC15FF81A39AE7D344FD709F28E8600B4AA8C65C6B64BFE7FE36BD19B SWAP2 DUP3 ADD SWAP2 ADD JUMPDEST DUP2 DUP2 LT PUSH2 0x4A5 JUMPI POP PUSH2 0x367 JUMP JUMPDEST DUP10 DUP2 SSTORE PUSH1 0x1 ADD PUSH2 0x498 JUMP JUMPDEST PUSH4 0x4E487B71 PUSH1 0xE0 SHL DUP9 MSTORE PUSH1 0x41 DUP6 MSTORE PUSH1 0x24 DUP9 REVERT JUMPDEST PUSH4 0x4E487B71 PUSH1 0xE0 SHL DUP8 MSTORE PUSH1 0x41 DUP5 MSTORE PUSH1 0x24 DUP8 REVERT JUMPDEST MLOAD PUSH4 0x512509D3 PUSH1 0xE1 SHL DUP2 MSTORE DUP5 SWAP1 REVERT JUMPDEST DUP7 DUP1 REVERT JUMPDEST DUP5 DUP1 REVERT JUMPDEST POP CALLVALUE PUSH2 0x5F9 JUMPI DUP1 PUSH1 0x3 NOT CALLDATASIZE ADD SLT PUSH2 0x5F9 JUMPI DUP2 MLOAD SWAP1 PUSH2 0x50A DUP3 PUSH2 0xB6C JUMP JUMPDEST PUSH2 0x1020 DUP1 SWAP3 CALLDATASIZE SWAP1 CALLDATACOPY DUP3 MLOAD SWAP1 PUSH2 0x51E DUP3 PUSH2 0xB6C JUMP JUMPDEST DUP3 CALLDATASIZE DUP4 CALLDATACOPY DUP1 JUMPDEST PUSH2 0xFFFF SWAP1 DUP2 DUP2 AND SWAP1 PUSH1 0x81 DUP3 LT ISZERO PUSH2 0x5CC JUMPI DUP4 DUP8 MLOAD SWAP3 PUSH4 0x69E38BC3 PUSH1 0xE0 SHL DUP5 MSTORE DUP1 DUP11 DUP6 ADD MSTORE PUSH1 0x20 DUP1 DUP6 PUSH1 0x24 DUP2 PUSH2 0x808 GAS STATICCALL SWAP5 DUP4 SWAP2 DUP7 PUSH2 0x590 JUMPI JUMPDEST POP POP PUSH1 0x1 SWAP5 ISZERO PUSH1 0x0 EQ PUSH2 0x57E JUMPI POP PUSH2 0x575 SWAP1 DUP8 PUSH2 0x1199 JUMP JUMPDEST MSTORE JUMPDEST ADD AND PUSH2 0x524 JUMP JUMPDEST SWAP2 POP PUSH2 0x58A SWAP1 DUP8 PUSH2 0x1199 JUMP JUMPDEST MSTORE PUSH2 0x577 JUMP JUMPDEST DUP2 SWAP4 SWAP6 SWAP7 SWAP5 POP DUP1 SWAP3 POP RETURNDATASIZE DUP4 GT PUSH2 0x5C5 JUMPI JUMPDEST PUSH2 0x5AB DUP2 DUP4 PUSH2 0xB89 JUMP JUMPDEST DUP2 ADD SUB SLT PUSH2 0x5C1 JUMPI MLOAD SWAP1 SWAP3 SWAP2 DUP6 SWAP2 PUSH1 0x1 CODESIZE PUSH2 0x55D JUMP JUMPDEST DUP6 DUP1 REVERT JUMPDEST POP RETURNDATASIZE PUSH2 0x5A1 JUMP JUMPDEST POP POP DUP5 MLOAD SWAP3 SWAP1 POP DUP3 JUMPDEST PUSH1 0x81 DUP4 LT PUSH2 0x5E2 JUMPI POP POP POP RETURN JUMPDEST PUSH1 0x1 SWAP1 DUP3 MLOAD DUP2 MSTORE PUSH1 0x20 DUP1 SWAP2 ADD SWAP3 ADD SWAP3 ADD SWAP2 SWAP1 PUSH2 0x5D5 JUMP JUMPDEST DUP1 REVERT JUMPDEST POP CALLVALUE PUSH2 0x5F9 JUMPI PUSH1 0x20 CALLDATASIZE PUSH1 0x3 NOT ADD SLT PUSH2 0x5F9 JUMPI DUP3 CALLDATALOAD SWAP3 SLOAD DUP4 LT ISZERO PUSH2 0x5F9 JUMPI POP PUSH2 0x625 PUSH1 0x20 SWAP3 PUSH2 0xAAB JUMP JUMPDEST SWAP2 SWAP1 SLOAD SWAP1 MLOAD SWAP2 PUSH1 0x3 SHL SHR DUP2 MSTORE RETURN JUMPDEST POP CALLVALUE PUSH2 0x5F9 JUMPI DUP1 PUSH1 0x3 NOT CALLDATASIZE ADD SLT PUSH2 0x5F9 JUMPI DUP2 MLOAD SWAP1 PUSH2 0x650 DUP3 PUSH2 0xB6C JUMP JUMPDEST PUSH2 0x1020 DUP1 SWAP3 CALLDATASIZE SWAP1 CALLDATACOPY DUP3 MLOAD SWAP2 PUSH2 0x664 DUP4 PUSH2 0xB6C JUMP JUMPDEST DUP1 CALLDATASIZE DUP5 CALLDATACOPY DUP2 JUMPDEST PUSH2 0xFFFF SWAP1 DUP2 DUP2 AND SWAP1 PUSH1 0x81 DUP3 LT ISZERO PUSH2 0x72B JUMPI DUP5 DUP8 MLOAD SWAP3 PUSH4 0x2D9BFC71 PUSH1 0xE0 SHL DUP5 MSTORE DUP1 DUP11 DUP6 ADD MSTORE PUSH1 0x20 DUP1 DUP6 PUSH1 0x24 DUP2 PUSH2 0x808 GAS STATICCALL SWAP5 DUP4 SWAP2 DUP7 PUSH2 0x6E2 JUMPI JUMPDEST POP POP PUSH1 0x1 SWAP5 ISZERO PUSH1 0x0 EQ PUSH2 0x6C4 JUMPI POP PUSH2 0x6BB SWAP1 DUP9 PUSH2 0x1199 JUMP JUMPDEST MSTORE JUMPDEST ADD AND PUSH2 0x66A JUMP JUMPDEST SWAP2 POP PUSH2 0x6D9 PUSH8 0xFFFFFFFFFFFFFFFF SWAP2 DUP10 PUSH2 0x1199 JUMP JUMPDEST SWAP2 AND SWAP1 MSTORE PUSH2 0x6BD JUMP JUMPDEST DUP2 SWAP4 SWAP6 SWAP7 SWAP5 POP DUP1 SWAP3 POP RETURNDATASIZE DUP4 GT PUSH2 0x724 JUMPI JUMPDEST PUSH2 0x6FD DUP2 DUP4 PUSH2 0xB89 JUMP JUMPDEST DUP2 ADD SUB SLT PUSH2 0x4E5 JUMPI MLOAD PUSH8 0xFFFFFFFFFFFFFFFF DUP2 AND DUP2 SUB PUSH2 0x4E5 JUMPI SWAP1 SWAP3 SWAP2 DUP7 SWAP2 PUSH1 0x1 CODESIZE PUSH2 0x6A3 JUMP JUMPDEST POP RETURNDATASIZE PUSH2 0x6F3 JUMP JUMPDEST POP POP SWAP4 MLOAD SWAP1 SWAP4 POP SWAP2 DUP3 JUMPDEST PUSH1 0x81 DUP4 LT PUSH2 0x742 JUMPI POP POP POP RETURN JUMPDEST PUSH1 0x1 SWAP1 PUSH8 0xFFFFFFFFFFFFFFFF DUP4 MLOAD AND DUP2 MSTORE PUSH1 0x20 DUP1 SWAP2 ADD SWAP3 ADD SWAP3 ADD SWAP2 SWAP1 PUSH2 0x735 JUMP JUMPDEST POP DUP3 PUSH1 0x80 CALLDATASIZE PUSH1 0x3 NOT ADD SLT PUSH2 0x2AE JUMPI PUSH2 0x797 SWAP1 PUSH2 0x77D PUSH2 0x10EB JUMP JUMPDEST PUSH2 0x785 PUSH2 0x1141 JUMP JUMPDEST PUSH1 0x64 CALLDATALOAD SWAP1 PUSH1 0x44 CALLDATALOAD SWAP1 PUSH1 0x24 CALLDATALOAD SWAP1 CALLDATALOAD PUSH2 0xDFE JUMP JUMPDEST PUSH1 0x1 DUP1 SSTORE DUP1 RETURN JUMPDEST POP SWAP1 CALLVALUE PUSH2 0x2AE JUMPI DUP2 PUSH1 0x3 NOT CALLDATASIZE ADD SLT PUSH2 0x2AE JUMPI SWAP1 SLOAD SWAP1 MLOAD PUSH1 0x1 PUSH1 0x1 PUSH1 0xA0 SHL SUB SWAP1 SWAP2 AND DUP2 MSTORE PUSH1 0x20 SWAP1 RETURN JUMPDEST POP CALLVALUE PUSH2 0x5F9 JUMPI DUP1 PUSH1 0x3 NOT CALLDATASIZE ADD SLT PUSH2 0x5F9 JUMPI PUSH2 0x7DF PUSH2 0x1141 JUMP JUMPDEST DUP1 SLOAD PUSH1 0x1 PUSH1 0x1 PUSH1 0xA0 SHL SUB NOT DUP2 AND DUP3 SSTORE DUP2 SWAP1 PUSH1 0x1 PUSH1 0x1 PUSH1 0xA0 SHL SUB AND PUSH32 0x8BE0079C531659141344CD1FD0A4F28419497F9722A3DAAFE3B4186F6B6457E0 DUP3 DUP1 LOG3 DUP1 RETURN JUMPDEST POP SWAP1 CALLVALUE PUSH2 0x2AE JUMPI DUP2 PUSH1 0x3 NOT CALLDATASIZE ADD SLT PUSH2 0x2AE JUMPI PUSH1 0x2 SLOAD SWAP2 SLOAD DUP2 MLOAD PUSH1 0xFF SWAP1 SWAP4 AND ISZERO ISZERO DUP4 MSTORE PUSH1 0x1 PUSH1 0x1 PUSH1 0xA0 SHL SUB AND BALANCE PUSH1 0x20 DUP4 ADD MSTORE SELFBALANCE SWAP1 DUP3 ADD MSTORE PUSH1 0x60 SWAP1 RETURN JUMPDEST POP SWAP2 CALLVALUE PUSH2 0x178 JUMPI PUSH1 0x20 CALLDATASIZE PUSH1 0x3 NOT ADD SLT PUSH2 0x178 JUMPI CALLDATALOAD SWAP2 PUSH1 0x5 SLOAD DUP4 LT ISZERO PUSH2 0x5F9 JUMPI POP PUSH2 0x625 PUSH1 0x20 SWAP3 PUSH2 0xA5E JUMP JUMPDEST POP SWAP1 CALLVALUE PUSH2 0x2AE JUMPI DUP2 PUSH1 0x3 NOT CALLDATASIZE ADD SLT PUSH2 0x2AE JUMPI PUSH1 0x20 SWAP1 MLOAD PUSH1 0x81 DUP2 MSTORE RETURN JUMPDEST POP SWAP2 SWAP1 CALLVALUE PUSH2 0x178 JUMPI PUSH1 0x20 CALLDATASIZE PUSH1 0x3 NOT ADD SLT PUSH2 0x178 JUMPI DUP2 CALLDATALOAD PUSH8 0xFFFFFFFFFFFFFFFF DUP2 GT PUSH2 0x934 JUMPI PUSH2 0x8D4 SWAP1 CALLDATASIZE SWAP1 DUP5 ADD PUSH2 0xA2D JUMP JUMPDEST PUSH2 0x8DC PUSH2 0x1141 JUMP JUMPDEST PUSH1 0x81 SWAP3 PUSH1 0x81 DUP3 SUB PUSH2 0x925 JUMPI POP DUP5 JUMPDEST DUP4 DUP2 LT PUSH2 0x8F5 JUMPI DUP6 DUP1 RETURN JUMPDEST DUP2 DUP2 LT ISZERO PUSH2 0x912 JUMPI DUP1 PUSH1 0x1 SWAP2 PUSH1 0x5 SHL DUP5 ADD CALLDATALOAD DUP2 PUSH1 0x9 ADD SSTORE ADD PUSH2 0x8EA JUMP JUMPDEST PUSH4 0x4E487B71 PUSH1 0xE0 SHL DUP7 MSTORE PUSH1 0x32 DUP6 MSTORE PUSH1 0x24 DUP7 REVERT JUMPDEST MLOAD PUSH4 0x251F56A1 PUSH1 0xE2 SHL DUP2 MSTORE DUP5 SWAP1 REVERT JUMPDEST DUP4 DUP1 REVERT JUMPDEST POP SWAP1 CALLVALUE PUSH2 0x2AE JUMPI DUP2 PUSH1 0x3 NOT CALLDATASIZE ADD SLT PUSH2 0x2AE JUMPI PUSH1 0x20 SWAP1 PUSH1 0xFF PUSH1 0x2 SLOAD AND SWAP1 MLOAD SWAP1 ISZERO ISZERO DUP2 MSTORE RETURN JUMPDEST POP DUP3 PUSH1 0x60 CALLDATASIZE PUSH1 0x3 NOT ADD SLT PUSH2 0x2AE JUMPI PUSH2 0x797 SWAP1 PUSH2 0x976 PUSH2 0x10EB JUMP JUMPDEST PUSH2 0x97E PUSH2 0x1141 JUMP JUMPDEST PUSH1 0x44 CALLDATALOAD SWAP1 PUSH1 0x24 CALLDATALOAD SWAP1 CALLDATALOAD PUSH2 0xBB8 JUMP JUMPDEST POP SWAP2 CALLVALUE PUSH2 0x178 JUMPI PUSH1 0x20 CALLDATASIZE PUSH1 0x3 NOT ADD SLT PUSH2 0x178 JUMPI PUSH2 0x9A7 PUSH2 0xA12 JUMP JUMPDEST PUSH1 0x6 SLOAD SWAP2 SWAP1 PUSH1 0x1 PUSH1 0x1 PUSH1 0xA0 SHL SUB SWAP1 PUSH2 0x9C2 CALLER DUP4 DUP7 AND EQ PUSH2 0xAE2 JUMP JUMPDEST AND SWAP3 DUP4 ISZERO PUSH2 0x9DD JUMPI POP POP PUSH1 0x1 PUSH1 0x1 PUSH1 0xA0 SHL SUB NOT AND OR PUSH1 0x6 SSTORE DUP1 RETURN JUMPDEST SWAP1 PUSH1 0x20 PUSH1 0x64 SWAP3 MLOAD SWAP2 PUSH3 0x461BCD PUSH1 0xE5 SHL DUP4 MSTORE DUP3 ADD MSTORE PUSH1 0xF PUSH1 0x24 DUP3 ADD MSTORE PUSH15 0x496E76616C69642061646472657373 PUSH1 0x88 SHL PUSH1 0x44 DUP3 ADD MSTORE REVERT JUMPDEST PUSH1 0x4 CALLDATALOAD SWAP1 PUSH1 0x1 PUSH1 0x1 PUSH1 0xA0 SHL SUB DUP3 AND DUP3 SUB PUSH2 0xA28 JUMPI JUMP JUMPDEST PUSH1 0x0 DUP1 REVERT JUMPDEST SWAP2 DUP2 PUSH1 0x1F DUP5 ADD SLT ISZERO PUSH2 0xA28 JUMPI DUP3 CALLDATALOAD SWAP2 PUSH8 0xFFFFFFFFFFFFFFFF DUP4 GT PUSH2 0xA28 JUMPI PUSH1 0x20 DUP1 DUP6 ADD SWAP5 DUP5 PUSH1 0x5 SHL ADD ADD GT PUSH2 0xA28 JUMPI JUMP JUMPDEST PUSH1 0x5 SLOAD DUP2 LT ISZERO PUSH2 0xA95 JUMPI PUSH1 0x5 PUSH1 0x0 MSTORE PUSH32 0x36B6384B5ECA791C62761152D0C79BB0604C104A5FB6F4EB0703F3154BB3DB0 ADD SWAP1 PUSH1 0x0 SWAP1 JUMP JUMPDEST PUSH4 0x4E487B71 PUSH1 0xE0 SHL PUSH1 0x0 MSTORE PUSH1 0x32 PUSH1 0x4 MSTORE PUSH1 0x24 PUSH1 0x0 REVERT JUMPDEST PUSH1 0x4 SLOAD DUP2 LT ISZERO PUSH2 0xA95 JUMPI PUSH1 0x4 PUSH1 0x0 MSTORE PUSH32 0x8A35ACFBC15FF81A39AE7D344FD709F28E8600B4AA8C65C6B64BFE7FE36BD19B ADD SWAP1 PUSH1 0x0 SWAP1 JUMP JUMPDEST ISZERO PUSH2 0xAE9 JUMPI JUMP JUMPDEST PUSH1 0x40 MLOAD PUSH3 0x461BCD PUSH1 0xE5 SHL DUP2 MSTORE PUSH1 0x20 PUSH1 0x4 DUP3 ADD MSTORE PUSH1 0xE PUSH1 0x24 DUP3 ADD MSTORE PUSH14 0x2737BA103BB4BA34323930BBB2B9 PUSH1 0x91 SHL PUSH1 0x44 DUP3 ADD MSTORE PUSH1 0x64 SWAP1 REVERT JUMPDEST SWAP2 SWAP1 DUP3 SUB SWAP2 DUP3 GT PUSH2 0xB2C JUMPI JUMP JUMPDEST PUSH4 0x4E487B71 PUSH1 0xE0 SHL PUSH1 0x0 MSTORE PUSH1 0x11 PUSH1 0x4 MSTORE PUSH1 0x24 PUSH1 0x0 REVERT JUMPDEST PUSH8 0xFFFFFFFFFFFFFFFF DUP2 GT PUSH2 0xB56 JUMPI PUSH1 0x40 MSTORE JUMP JUMPDEST PUSH4 0x4E487B71 PUSH1 0xE0 SHL PUSH1 0x0 MSTORE PUSH1 0x41 PUSH1 0x4 MSTORE PUSH1 0x24 PUSH1 0x0 REVERT JUMPDEST PUSH2 0x1020 DUP2 ADD SWAP1 DUP2 LT PUSH8 0xFFFFFFFFFFFFFFFF DUP3 GT OR PUSH2 0xB56 JUMPI PUSH1 0x40 MSTORE JUMP JUMPDEST SWAP1 PUSH1 0x1F DUP1 NOT SWAP2 ADD AND DUP2 ADD SWAP1 DUP2 LT PUSH8 0xFFFFFFFFFFFFFFFF DUP3 GT OR PUSH2 0xB56 JUMPI PUSH1 0x40 MSTORE JUMP JUMPDEST SWAP2 SWAP1 DUP3 ADD DUP1 SWAP3 GT PUSH2 0xB2C JUMPI JUMP JUMPDEST SWAP2 SWAP1 PUSH2 0xBC8 SWAP1 PUSH1 0xFF DUP4 AND SWAP1 PUSH2 0xB1F JUMP JUMPDEST SWAP1 PUSH1 0x0 SWAP2 PUSH1 0x81 DUP2 LT ISZERO PUSH2 0xDEA JUMPI PUSH1 0x9 ADD SLOAD SWAP3 PUSH1 0xFF PUSH1 0x2 SLOAD AND DUP1 PUSH2 0xDDE JUMPI JUMPDEST PUSH2 0xD70 JUMPI JUMPDEST DUP1 PUSH2 0xBF7 JUMPI JUMPDEST POP POP POP POP JUMP JUMPDEST PUSH1 0x4 DUP1 SLOAD SWAP1 DUP5 SWAP2 DUP6 SWAP2 JUMPDEST DUP2 DUP4 LT PUSH2 0xCB1 JUMPI POP POP POP PUSH2 0xBF1 JUMPI DUP2 PUSH1 0x8 SSTORE SELFBALANCE SWAP1 DUP1 DUP3 LT PUSH1 0x0 EQ PUSH2 0xCAA JUMPI POP JUMPDEST PUSH2 0x805 SWAP1 DUP2 EXTCODESIZE ISZERO PUSH2 0x934 JUMPI PUSH1 0x40 MLOAD PUSH4 0x1FC9B141 PUSH1 0xE0 SHL DUP2 MSTORE PUSH1 0x4 DUP2 ADD SWAP4 SWAP1 SWAP4 MSTORE PUSH4 0x3B9ACA00 SWAP1 DIV PUSH1 0x24 DUP4 ADD MSTORE PUSH1 0x44 DUP3 ADD DUP5 SWAP1 MSTORE DUP3 SWAP1 DUP3 SWAP1 PUSH1 0x64 SWAP1 DUP3 SWAP1 DUP5 SWAP1 GAS CALL DUP1 ISZERO PUSH2 0xC9F JUMPI PUSH2 0xC8B JUMPI JUMPDEST POP POP PUSH1 0x1 PUSH1 0xFF NOT PUSH1 0x2 SLOAD AND OR PUSH1 0x2 SSTORE PUSH1 0x7 SSTORE TIMESTAMP PUSH1 0x3 SSTORE CODESIZE DUP1 DUP1 DUP1 PUSH2 0xBF1 JUMP JUMPDEST PUSH2 0xC95 DUP3 SWAP2 PUSH2 0xB42 JUMP JUMPDEST PUSH2 0x5F9 JUMPI DUP1 PUSH2 0xC6C JUMP JUMPDEST PUSH1 0x40 MLOAD RETURNDATASIZE DUP5 DUP3 RETURNDATACOPY RETURNDATASIZE SWAP1 REVERT JUMPDEST SWAP1 POP PUSH2 0xC21 JUMP JUMPDEST SWAP1 SWAP2 SWAP3 DUP8 PUSH2 0xCBE DUP6 PUSH2 0xAAB JUMP JUMPDEST SWAP2 SWAP1 SLOAD SWAP2 PUSH1 0x3 PUSH2 0xCCD DUP9 PUSH2 0xA5E JUMP JUMPDEST SWAP1 SLOAD SWAP1 DUP3 SHL SHR PUSH1 0x40 SWAP5 PUSH2 0xD0A DUP7 MLOAD SWAP6 DUP7 SWAP4 DUP5 SWAP4 PUSH4 0x71DACC7D PUSH1 0xE1 SHL DUP6 MSTORE PUSH1 0x20 SWAP8 DUP9 SWAP8 SHL SHR DUP12 DUP6 ADD PUSH1 0x40 SWAP2 SWAP5 SWAP4 SWAP3 PUSH1 0x60 DUP3 ADD SWAP6 DUP3 MSTORE PUSH1 0x20 DUP3 ADD MSTORE ADD MSTORE JUMP JUMPDEST SUB DUP2 PUSH2 0x805 GAS STATICCALL SWAP3 DUP4 ISZERO PUSH2 0xD67 JUMPI POP DUP10 SWAP3 PUSH2 0xD37 JUMPI JUMPDEST POP POP PUSH2 0xD2E SWAP1 PUSH1 0x1 SWAP3 PUSH2 0xBAB JUMP JUMPDEST SWAP4 ADD SWAP2 SWAP1 PUSH2 0xC01 JUMP JUMPDEST SWAP1 DUP1 SWAP3 POP DUP2 RETURNDATASIZE DUP4 GT PUSH2 0xD60 JUMPI JUMPDEST PUSH2 0xD4E DUP2 DUP4 PUSH2 0xB89 JUMP JUMPDEST DUP2 ADD SUB SLT PUSH2 0xA28 JUMPI MLOAD DUP2 PUSH2 0xD2E PUSH2 0xD20 JUMP JUMPDEST POP RETURNDATASIZE PUSH2 0xD44 JUMP JUMPDEST MLOAD RETURNDATASIZE DUP12 DUP3 RETURNDATACOPY RETURNDATASIZE SWAP1 REVERT JUMPDEST PUSH1 0x8 SLOAD PUSH1 0x7 SLOAD PUSH2 0x805 SWAP2 DUP3 EXTCODESIZE ISZERO PUSH2 0x5C1 JUMPI SWAP1 PUSH1 0x44 DUP7 SWAP3 DUP4 PUSH1 0x40 MLOAD SWAP6 DUP7 SWAP5 DUP6 SWAP4 PUSH4 0xD4626BB9 PUSH1 0xE0 SHL DUP6 MSTORE PUSH1 0x4 DUP6 ADD MSTORE PUSH1 0x24 DUP5 ADD MSTORE GAS CALL DUP1 ISZERO PUSH2 0xDD3 JUMPI PUSH2 0xDC0 JUMPI JUMPDEST POP PUSH1 0xFF NOT PUSH1 0x2 SLOAD AND PUSH1 0x2 SSTORE PUSH2 0xBEB JUMP JUMPDEST PUSH2 0xDCC SWAP1 SWAP4 SWAP2 SWAP4 PUSH2 0xB42 JUMP JUMPDEST SWAP2 CODESIZE PUSH2 0xDB0 JUMP JUMPDEST PUSH1 0x40 MLOAD RETURNDATASIZE DUP7 DUP3 RETURNDATACOPY RETURNDATASIZE SWAP1 REVERT JUMPDEST POP PUSH1 0x3 SLOAD TIMESTAMP EQ ISZERO PUSH2 0xBE6 JUMP JUMPDEST PUSH4 0x4E487B71 PUSH1 0xE0 SHL DUP4 MSTORE PUSH1 0x32 PUSH1 0x4 MSTORE PUSH1 0x24 DUP4 REVERT JUMPDEST SWAP2 SWAP3 SWAP1 PUSH2 0xE0F SWAP1 PUSH1 0xFF DUP4 AND SWAP1 PUSH2 0xB1F JUMP JUMPDEST SWAP2 PUSH1 0x0 SWAP3 PUSH1 0x81 DUP2 LT ISZERO PUSH2 0x1097 JUMPI PUSH1 0x9 ADD SLOAD SWAP4 PUSH1 0xFF PUSH1 0x2 SLOAD AND DUP1 PUSH2 0x108B JUMPI JUMPDEST PUSH2 0x1028 JUMPI JUMPDEST DUP2 PUSH2 0xE3F JUMPI JUMPDEST POP POP POP POP POP JUMP JUMPDEST PUSH1 0x4 DUP1 SLOAD SWAP1 DUP6 SWAP2 DUP7 SWAP2 JUMPDEST DUP2 DUP4 LT PUSH2 0xF69 JUMPI POP POP POP PUSH2 0xE38 JUMPI PUSH1 0x40 MLOAD PUSH4 0x69E38BC3 PUSH1 0xE0 SHL DUP2 MSTORE PUSH2 0xFFFF DUP7 AND PUSH1 0x4 DUP3 ADD MSTORE PUSH1 0x20 DUP2 PUSH1 0x24 DUP2 PUSH2 0x808 GAS STATICCALL SWAP1 DUP2 ISZERO PUSH2 0xF5E JUMPI DUP6 SWAP2 PUSH2 0xF2C JUMPI JUMPDEST POP GT ISZERO PUSH2 0xE95 JUMPI JUMPDEST DUP1 PUSH2 0xE38 JUMP JUMPDEST DUP2 PUSH1 0x8 SSTORE SELFBALANCE SWAP1 DUP1 DUP3 LT PUSH1 0x0 EQ PUSH2 0xF25 JUMPI POP JUMPDEST PUSH2 0x805 SWAP1 DUP2 EXTCODESIZE ISZERO PUSH2 0x934 JUMPI PUSH1 0x40 MLOAD PUSH4 0x1FC9B141 PUSH1 0xE0 SHL DUP2 MSTORE PUSH1 0x4 DUP2 ADD SWAP4 SWAP1 SWAP4 MSTORE PUSH4 0x3B9ACA00 SWAP1 DIV PUSH1 0x24 DUP4 ADD MSTORE PUSH1 0x44 DUP3 ADD DUP5 SWAP1 MSTORE DUP3 SWAP1 DUP3 SWAP1 PUSH1 0x64 SWAP1 DUP3 SWAP1 DUP5 SWAP1 GAS CALL DUP1 ISZERO PUSH2 0xC9F JUMPI PUSH2 0xF11 JUMPI JUMPDEST POP POP PUSH1 0x1 PUSH1 0xFF NOT PUSH1 0x2 SLOAD AND OR PUSH1 0x2 SSTORE PUSH1 0x7 SSTORE TIMESTAMP PUSH1 0x3 SSTORE CODESIZE DUP1 DUP1 DUP1 PUSH2 0xE8F JUMP JUMPDEST PUSH2 0xF1B DUP3 SWAP2 PUSH2 0xB42 JUMP JUMPDEST PUSH2 0x5F9 JUMPI DUP1 PUSH2 0xEF2 JUMP JUMPDEST SWAP1 POP PUSH2 0xEA7 JUMP JUMPDEST SWAP1 POP PUSH1 0x20 DUP2 RETURNDATASIZE PUSH1 0x20 GT PUSH2 0xF56 JUMPI JUMPDEST DUP2 PUSH2 0xF47 PUSH1 0x20 SWAP4 DUP4 PUSH2 0xB89 JUMP JUMPDEST DUP2 ADD SUB SLT PUSH2 0xA28 JUMPI MLOAD CODESIZE PUSH2 0xE87 JUMP JUMPDEST RETURNDATASIZE SWAP2 POP PUSH2 0xF3A JUMP JUMPDEST PUSH1 0x40 MLOAD RETURNDATASIZE DUP8 DUP3 RETURNDATACOPY RETURNDATASIZE SWAP1 REVERT JUMPDEST SWAP1 SWAP2 SWAP3 DUP9 PUSH2 0xF76 DUP6 PUSH2 0xAAB JUMP JUMPDEST SWAP2 SWAP1 SLOAD SWAP2 PUSH1 0x3 PUSH2 0xF85 DUP9 PUSH2 0xA5E JUMP JUMPDEST SWAP1 SLOAD SWAP1 DUP3 SHL SHR PUSH1 0x40 SWAP5 PUSH2 0xFC2 DUP7 MLOAD SWAP6 DUP7 SWAP4 DUP5 SWAP4 PUSH4 0x71DACC7D PUSH1 0xE1 SHL DUP6 MSTORE PUSH1 0x20 SWAP8 DUP9 SWAP8 SHL SHR DUP12 DUP6 ADD PUSH1 0x40 SWAP2 SWAP5 SWAP4 SWAP3 PUSH1 0x60 DUP3 ADD SWAP6 DUP3 MSTORE PUSH1 0x20 DUP3 ADD MSTORE ADD MSTORE JUMP JUMPDEST SUB DUP2 PUSH2 0x805 GAS STATICCALL SWAP3 DUP4 ISZERO PUSH2 0x101F JUMPI POP DUP11 SWAP3 PUSH2 0xFEF JUMPI JUMPDEST POP POP PUSH2 0xFE6 SWAP1 PUSH1 0x1 SWAP3 PUSH2 0xBAB JUMP JUMPDEST SWAP4 ADD SWAP2 SWAP1 PUSH2 0xE49 JUMP JUMPDEST SWAP1 DUP1 SWAP3 POP DUP2 RETURNDATASIZE DUP4 GT PUSH2 0x1018 JUMPI JUMPDEST PUSH2 0x1006 DUP2 DUP4 PUSH2 0xB89 JUMP JUMPDEST DUP2 ADD SUB SLT PUSH2 0xA28 JUMPI MLOAD DUP2 PUSH2 0xFE6 PUSH2 0xFD8 JUMP JUMPDEST POP RETURNDATASIZE PUSH2 0xFFC JUMP JUMPDEST MLOAD RETURNDATASIZE DUP13 DUP3 RETURNDATACOPY RETURNDATASIZE SWAP1 REVERT JUMPDEST PUSH1 0x8 SLOAD PUSH1 0x7 SLOAD PUSH2 0x805 SWAP2 DUP3 EXTCODESIZE ISZERO PUSH2 0x4E5 JUMPI SWAP1 PUSH1 0x44 DUP8 SWAP3 DUP4 PUSH1 0x40 MLOAD SWAP6 DUP7 SWAP5 DUP6 SWAP4 PUSH4 0xD4626BB9 PUSH1 0xE0 SHL DUP6 MSTORE PUSH1 0x4 DUP6 ADD MSTORE PUSH1 0x24 DUP5 ADD MSTORE GAS CALL DUP1 ISZERO PUSH2 0xF5E JUMPI PUSH2 0x1078 JUMPI JUMPDEST POP PUSH1 0xFF NOT PUSH1 0x2 SLOAD AND PUSH1 0x2 SSTORE PUSH2 0xE32 JUMP JUMPDEST PUSH2 0x1084 SWAP1 SWAP5 SWAP2 SWAP5 PUSH2 0xB42 JUMP JUMPDEST SWAP3 CODESIZE PUSH2 0x1068 JUMP JUMPDEST POP PUSH1 0x3 SLOAD TIMESTAMP EQ ISZERO PUSH2 0xE2D JUMP JUMPDEST PUSH4 0x4E487B71 PUSH1 0xE0 SHL DUP5 MSTORE PUSH1 0x32 PUSH1 0x4 MSTORE PUSH1 0x24 DUP5 REVERT JUMPDEST RETURNDATASIZE ISZERO PUSH2 0x10E6 JUMPI RETURNDATASIZE SWAP1 PUSH8 0xFFFFFFFFFFFFFFFF DUP3 GT PUSH2 0xB56 JUMPI PUSH1 0x40 MLOAD SWAP2 PUSH2 0x10DA PUSH1 0x1F DUP3 ADD PUSH1 0x1F NOT AND PUSH1 0x20 ADD DUP5 PUSH2 0xB89 JUMP JUMPDEST DUP3 MSTORE RETURNDATASIZE PUSH1 0x0 PUSH1 0x20 DUP5 ADD RETURNDATACOPY JUMP JUMPDEST PUSH1 0x60 SWAP1 JUMP JUMPDEST PUSH1 0x2 PUSH1 0x1 SLOAD EQ PUSH2 0x10FC JUMPI PUSH1 0x2 PUSH1 0x1 SSTORE JUMP JUMPDEST PUSH1 0x40 MLOAD PUSH3 0x461BCD PUSH1 0xE5 SHL DUP2 MSTORE PUSH1 0x20 PUSH1 0x4 DUP3 ADD MSTORE PUSH1 0x1F PUSH1 0x24 DUP3 ADD MSTORE PUSH32 0x5265656E7472616E637947756172643A207265656E7472616E742063616C6C00 PUSH1 0x44 DUP3 ADD MSTORE PUSH1 0x64 SWAP1 REVERT JUMPDEST PUSH1 0x0 SLOAD PUSH1 0x1 PUSH1 0x1 PUSH1 0xA0 SHL SUB AND CALLER SUB PUSH2 0x1155 JUMPI JUMP JUMPDEST PUSH1 0x64 PUSH1 0x40 MLOAD PUSH3 0x461BCD PUSH1 0xE5 SHL DUP2 MSTORE PUSH1 0x20 PUSH1 0x4 DUP3 ADD MSTORE PUSH1 0x20 PUSH1 0x24 DUP3 ADD MSTORE PUSH32 0x4F776E61626C653A2063616C6C6572206973206E6F7420746865206F776E6572 PUSH1 0x44 DUP3 ADD MSTORE REVERT JUMPDEST SWAP1 PUSH1 0x81 DUP2 LT ISZERO PUSH2 0xA95 JUMPI PUSH1 0x5 SHL ADD SWAP1 JUMP INVALID LOG2 PUSH5 0x6970667358 0x22 SLT KECCAK256 0xA8 KECCAK256 CODESIZE SWAP10 KECCAK256 STOP SHR 0xCA PUSH21 0xD2AECC2030ECAF7AD226B0D7008DC162DC51888480 MLOAD BLOCKHASH PUSH5 0x736F6C6343 STOP ADDMOD AND STOP CALLER "},"methodIdentifiers":{"ForceStake(uint256,uint256,bytes32)":"169374dc","NETUID_COUNT()":"50bf8649","emergencyWithdrawTao(address,uint256)":"f528c62e","getAlphaPrices()":"bc28d5d0","getInfo()":"5a9b0b89","getTaoInPools()":"a8c2bb0d","is_staked()":"2f6fc02e","lastStakeTimestamp()":"f0f9e975","mevColdkeyBytesKeys(uint256)":"51b2e72d","mevHotkeyBytesKeys(uint256)":"b6b2a68d","owner()":"8da5cb5b","renounceOwnership()":"715018a6","setWithdrawer(address)":"0d174c24","stakeTaoForAlpha(uint256,uint256,uint256,bytes32)":"9ebf1378","transferOwnership(address)":"f2fde38b","updateMevKeys(bytes32[],bytes32[])":"c82ad204","updateNetuids(uint256[])":"3f3b7858","withdrawAll(address)":"fa09e630","withdrawer()":"cdc18424"}}}}}