{"contracts/TradingV6.sol":{"TradingV6":{"abi":[{"inputs":[],"stateMutability":"nonpayable","type":"constructor"},{"inputs":[],"name":"AmountZero","type":"error"},{"inputs":[],"name":"ArrayLengthMismatch","type":"error"},{"inputs":[],"name":"FunctionNotFound","type":"error"},{"inputs":[],"name":"InvalidAddress","type":"error"},{"inputs":[],"name":"InvalidNetuid","type":"error"},{"inputs":[],"name":"NotWithdrawer","type":"error"},{"inputs":[],"name":"TransferFailed","type":"error"},{"anonymous":false,"inputs":[{"indexed":true,"internalType":"address","name":"previousOwner","type":"address"},{"indexed":true,"internalType":"address","name":"newOwner","type":"address"}],"name":"OwnershipTransferred","type":"event"},{"stateMutability":"payable","type":"fallback"},{"inputs":[{"internalType":"uint256","name":"stakeAmount","type":"uint256"},{"internalType":"uint256","name":"alphaNetuid","type":"uint256"}],"name":"add_stake","outputs":[],"stateMutability":"payable","type":"function"},{"inputs":[{"internalType":"uint256","name":"stakeAmount","type":"uint256"},{"internalType":"uint256[]","name":"alphaNetuids","type":"uint256[]"}],"name":"add_stakes","outputs":[],"stateMutability":"payable","type":"function"},{"inputs":[{"internalType":"address","name":"to","type":"address"},{"internalType":"uint256","name":"amount","type":"uint256"}],"name":"emergencyWithdrawTao","outputs":[],"stateMutability":"nonpayable","type":"function"},{"inputs":[{"internalType":"uint256","name":"alphaNetuid","type":"uint256"}],"name":"force_remove_stake","outputs":[],"stateMutability":"payable","type":"function"},{"inputs":[{"internalType":"uint256[]","name":"alphaNetuids","type":"uint256[]"}],"name":"force_remove_stakes","outputs":[],"stateMutability":"payable","type":"function"},{"inputs":[],"name":"getInfo","outputs":[{"internalType":"uint256[129]","name":"prices","type":"uint256[129]"},{"internalType":"uint64[129]","name":"taoInPool","type":"uint64[129]"},{"internalType":"bool[129]","name":"staked","type":"bool[129]"},{"internalType":"uint256[129]","name":"stakedPrices","type":"uint256[129]"}],"stateMutability":"view","type":"function"},{"inputs":[],"name":"getIsStaked","outputs":[{"internalType":"bool[129]","name":"","type":"bool[129]"}],"stateMutability":"view","type":"function"},{"inputs":[{"internalType":"bytes32","name":"validatorColdkey","type":"bytes32"}],"name":"getStakedAmount","outputs":[{"internalType":"uint256[129]","name":"amount","type":"uint256[129]"}],"stateMutability":"view","type":"function"},{"inputs":[{"internalType":"uint256","name":"netuid","type":"uint256"}],"name":"getStakedAmount","outputs":[{"internalType":"uint256","name":"amount","type":"uint256"}],"stateMutability":"view","type":"function"},{"inputs":[],"name":"getStakedPrices","outputs":[{"internalType":"uint256[129]","name":"","type":"uint256[129]"}],"stateMutability":"view","type":"function"},{"inputs":[],"name":"getTimestamps","outputs":[{"internalType":"uint256[129]","name":"","type":"uint256[129]"}],"stateMutability":"view","type":"function"},{"inputs":[{"internalType":"uint256","name":"stakeAmount","type":"uint256"},{"internalType":"uint256","name":"alphaNetuid","type":"uint256"}],"name":"increase_stake","outputs":[],"stateMutability":"payable","type":"function"},{"inputs":[{"internalType":"uint256","name":"stakeAmount","type":"uint256"},{"internalType":"uint256[]","name":"alphaNetuids","type":"uint256[]"}],"name":"increase_stakes","outputs":[],"stateMutability":"payable","type":"function"},{"inputs":[{"internalType":"uint256","name":"","type":"uint256"}],"name":"is_staked","outputs":[{"internalType":"bool","name":"","type":"bool"}],"stateMutability":"view","type":"function"},{"inputs":[{"internalType":"uint256","name":"","type":"uint256"}],"name":"lastStakeTimestamp","outputs":[{"internalType":"uint256","name":"","type":"uint256"}],"stateMutability":"view","type":"function"},{"inputs":[],"name":"owner","outputs":[{"internalType":"address","name":"","type":"address"}],"stateMutability":"view","type":"function"},{"inputs":[],"name":"renounceOwnership","outputs":[],"stateMutability":"nonpayable","type":"function"},{"inputs":[{"internalType":"address","name":"newWithdrawer","type":"address"}],"name":"setWithdrawer","outputs":[],"stateMutability":"nonpayable","type":"function"},{"inputs":[{"internalType":"uint256","name":"","type":"uint256"}],"name":"staked_prices","outputs":[{"internalType":"uint256","name":"","type":"uint256"}],"stateMutability":"view","type":"function"},{"inputs":[{"internalType":"address","name":"newOwner","type":"address"}],"name":"transferOwnership","outputs":[],"stateMutability":"nonpayable","type":"function"},{"inputs":[],"name":"validatorHotkey","outputs":[{"internalType":"bytes32","name":"","type":"bytes32"}],"stateMutability":"view","type":"function"},{"inputs":[{"internalType":"address","name":"to","type":"address"}],"name":"withdrawAll","outputs":[],"stateMutability":"nonpayable","type":"function"},{"inputs":[],"name":"withdrawer","outputs":[{"internalType":"address","name":"","type":"address"}],"stateMutability":"view","type":"function"},{"stateMutability":"payable","type":"receive"}],"evm":{"bytecode":{"linkReferences":{},"object":"608060405261010980546001600160a01b03191690553480156200002257600080fd5b506200002e33620000cd565b6001805560005b6081811015620000b3576000600282608181106200005757620000576200011d565b602091828204019190066101000a81548160ff0219169083151502179055506000600782608181106200008e576200008e6200011d565b0155600060888260818110620000a857620000a86200011d565b015560010162000035565b5061010980546001600160a01b0319163317905562000133565b600080546001600160a01b038381166001600160a01b0319831681178455604051919092169283917f8be0079c531659141344cd1fd0a4f28419497f9722a3daafe3b4186f6b6457e09190a35050565b634e487b7160e01b600052603260045260246000fd5b61188680620001436000396000f3fe6080604052600436106101445760003560e01c8063961216cb116100b6578063cdc184241161006f578063cdc184241461036d578063ddd8a4c81461038e578063ea07a542146103b0578063f2fde38b146103c3578063f528c62e146103e3578063fa09e630146104035761014b565b8063961216cb146102d25780639a900394146102e5578063a75d356414610305578063aa099a7b14610325578063ac0c34cc14610338578063c7687c221461034b5761014b565b80633d4ac3c2116101085780633d4ac3c21461020e57806359abbfe4146102235780635a5392be146102385780635a9b0b8914610266578063715018a61461028b5780638da5cb5b146102a05761014b565b806301fda3311461016457806308b41c01146101795780630d174c24146101ae57806310d67406146101ce578063337a1737146101e15761014b565b3661014b57005b60405163201f3fd360e11b815260040160405180910390fd5b6101776101723660046115b6565b610423565b005b34801561018557600080fd5b506101996101943660046115f8565b610565565b60405190151581526020015b60405180910390f35b3480156101ba57600080fd5b506101776101c936600461162d565b61058f565b6101776101dc366004611648565b610605565b3480156101ed57600080fd5b506102016101fc3660046115f8565b6107c6565b6040516101a59190611693565b34801561021a57600080fd5b50610201610887565b34801561022f57600080fd5b506102016108c3565b34801561024457600080fd5b506102586102533660046115f8565b6108fa565b6040519081526020016101a5565b34801561027257600080fd5b5061027b610987565b6040516101a594939291906116c7565b34801561029757600080fd5b50610177610bcf565b3480156102ac57600080fd5b506000546001600160a01b03165b6040516001600160a01b0390911681526020016101a5565b6101776102e0366004611730565b610be3565b3480156102f157600080fd5b506102586103003660046115f8565b610d9e565b34801561031157600080fd5b506102586103203660046115f8565b610db5565b610177610333366004611648565b610dc5565b610177610346366004611730565b610ed9565b34801561035757600080fd5b5061025860008051602061183183398151915281565b34801561037957600080fd5b50610109546102ba906001600160a01b031681565b34801561039a57600080fd5b506103a36110bc565b6040516101a5919061177c565b6101776103be3660046115f8565b611117565b3480156103cf57600080fd5b506101776103de36600461162d565b611226565b3480156103ef57600080fd5b506101776103fe36600461178b565b6112a1565b34801561040f57600080fd5b5061017761041e36600461162d565b611389565b61042b6113ff565b610433611458565b60005b81811015610557576000838383818110610452576104526117b5565b905060200201359050610464816114b2565b60028160818110610477576104776117b5565b602081049091015460ff601f9092166101000a90041680156104ad5750608881608181106104a7576104a76117b5565b01544214155b1561054e5760405163d4626bb960e01b81526000805160206118318339815191526004820152602481018290526108059063d4626bb990604401600060405180830381600087803b15801561050157600080fd5b505af1158015610515573d6000803e3d6000fd5b5050505060006002826081811061052e5761052e6117b5565b602091828204019190066101000a81548160ff0219169083151502179055505b50600101610436565b5061056160018055565b5050565b6002816081811061057557600080fd5b60209182820401919006915054906101000a900460ff1681565b610109546001600160a01b031633146105bb57604051632d99bc8360e21b815260040160405180910390fd5b6001600160a01b0381166105e25760405163e6c4247b60e01b815260040160405180910390fd5b61010980546001600160a01b0319166001600160a01b0392909216919091179055565b61060d6113ff565b610615611458565b61061e816114b2565b811580159061065357506002816081811061063b5761063b6117b5565b602081049091015460ff601f9092166101000a900416155b156107bd57600061066447846114d3565b90508060000361067457506107bd565b610805631fc9b141600080516020611831833981519152610694846114eb565b6040516001600160e01b031960e085901b1681526004810192909252602482015260448101859052606401600060405180830381600087803b1580156106d957600080fd5b505af11580156106ed573d6000803e3d6000fd5b50505050600160028360818110610706576107066117b5565b602081049091018054921515601f9092166101000a91820260ff909202199092161790556040516369e38bc360e01b815261ffff83166004820152610808906369e38bc3906024015b602060405180830381865afa15801561076c573d6000803e3d6000fd5b505050506040513d601f19601f8201168201806040525081019061079091906117cb565b600783608181106107a3576107a36117b5565b015542608883608181106107b9576107b96117b5565b0155505b61056160018055565b6107ce61154b565b60015b60818161ffff161015610881576040516371dacc7d60e11b815260008051602061183183398151915260048201526024810184905261ffff821660448201526108059063e3b598fa90606401602060405180830381865afa15801561083a573d6000803e3d6000fd5b505050506040513d601f19601f8201168201806040525081019061085e91906117cb565b828261ffff1660818110610874576108746117b5565b60200201526001016107d1565b50919050565b61088f61154b565b604080516110208101918290529060079060819082845b8154815260200190600101908083116108a6575050505050905090565b6108cb61154b565b6040805161102081019182905260888054825290916081906089602085018083116108a6575050505050905090565b6000610905826114b2565b6040516371dacc7d60e11b81526000805160206118318339815191526004820152306024820152604481018390526108059063e3b598fa90606401602060405180830381865afa15801561095d573d6000803e3d6000fd5b505050506040513d601f19601f8201168201806040525081019061098191906117cb565b92915050565b61098f61154b565b61099761154b565b61099f61154b565b6109a761154b565b670de0b6b3a7640000845260018084525b60818161ffff161015610a6e576040516369e38bc360e01b815261ffff82166004820152610808906369e38bc390602401602060405180830381865afa925050508015610a22575060408051601f3d908101601f19168201909252610a1f918101906117cb565b60015b610a48576000858261ffff1660818110610a3e57610a3e6117b5565b6020020152610a66565b80868361ffff1660818110610a5f57610a5f6117b5565b6020020152505b6001016109b8565b5060015b60818161ffff161015610b4657604051632d9bfc7160e01b815261ffff8216600482015261080890632d9bfc7190602401602060405180830381865afa925050508015610adc575060408051601f3d908101601f19168201909252610ad9918101906117e4565b60015b610b11576000848261ffff1660818110610af857610af86117b5565b67ffffffffffffffff9092166020929092020152610b3e565b80858361ffff1660818110610b2857610b286117b5565b67ffffffffffffffff9092166020929092020152505b600101610a72565b506040805161102081019182905290600290608190826000855b825461010083900a900460ff161515815260206001928301818104948501949093039092029101808411610b605750506040805161102081019182905295975060079450608193509150839050845b815481526020019060010190808311610baf575050505050905090919293565b610bd7611458565b610be160006114fb565b565b610beb6113ff565b610bf3611458565b8215610d905760005b81811015610d8e576000838383818110610c1857610c186117b5565b905060200201359050610c2a816114b2565b60028160818110610c3d57610c3d6117b5565b602081049091015460ff601f9092166101000a90041615610d85576000610c6447876114d3565b905080600003610c7657505050610d90565b610805631fc9b141600080516020611831833981519152610c96846114eb565b6040516001600160e01b031960e085901b1681526004810192909252602482015260448101859052606401600060405180830381600087803b158015610cdb57600080fd5b505af1158015610cef573d6000803e3d6000fd5b50506040516369e38bc360e01b815261ffff8516600482015261080892506369e38bc39150602401602060405180830381865afa158015610d34573d6000803e3d6000fd5b505050506040513d601f19601f82011682018060405250810190610d5891906117cb565b60078360818110610d6b57610d6b6117b5565b01554260888360818110610d8157610d816117b5565b0155505b50600101610bfc565b505b610d9960018055565b505050565b60888160818110610dae57600080fd5b0154905081565b60078160818110610dae57600080fd5b610dcd6113ff565b610dd5611458565b610dde816114b2565b8115801590610e12575060028160818110610dfb57610dfb6117b5565b602081049091015460ff601f9092166101000a9004165b156107bd576000610e2347846114d3565b905080600003610e3357506107bd565b610805631fc9b141600080516020611831833981519152610e53846114eb565b6040516001600160e01b031960e085901b1681526004810192909252602482015260448101859052606401600060405180830381600087803b158015610e9857600080fd5b505af1158015610eac573d6000803e3d6000fd5b50506040516369e38bc360e01b815261ffff8516600482015261080892506369e38bc3915060240161074f565b610ee16113ff565b610ee9611458565b8215610d905760005b81811015610d8e576000838383818110610f0e57610f0e6117b5565b905060200201359050610f20816114b2565b60028160818110610f3357610f336117b5565b602081049091015460ff601f9092166101000a9004166110b3576000610f5947876114d3565b905080600003610f6b57505050610d90565b610805631fc9b141600080516020611831833981519152610f8b846114eb565b6040516001600160e01b031960e085901b1681526004810192909252602482015260448101859052606401600060405180830381600087803b158015610fd057600080fd5b505af1158015610fe4573d6000803e3d6000fd5b50505050600160028360818110610ffd57610ffd6117b5565b602081049091018054921515601f9092166101000a91820260ff909202199092161790556040516369e38bc360e01b815261ffff83166004820152610808906369e38bc390602401602060405180830381865afa158015611062573d6000803e3d6000fd5b505050506040513d601f19601f8201168201806040525081019061108691906117cb565b60078360818110611099576110996117b5565b015542608883608181106110af576110af6117b5565b0155505b50600101610ef2565b6110c461154b565b6040805161102081019182905290600290608190826000855b825461010083900a900460ff1615158152602060019283018181049485019490930390920291018084116110dd5790505050505050905090565b61111f6113ff565b611127611458565b611130816114b2565b60028160818110611143576111436117b5565b602081049091015460ff601f9092166101000a9004168015611179575060888160818110611173576111736117b5565b01544214155b1561121a5760405163d4626bb960e01b81526000805160206118318339815191526004820152602481018290526108059063d4626bb990604401600060405180830381600087803b1580156111cd57600080fd5b505af11580156111e1573d6000803e3d6000fd5b505050506000600282608181106111fa576111fa6117b5565b602091828204019190066101000a81548160ff0219169083151502179055505b61122360018055565b50565b61122e611458565b6001600160a01b0381166112985760405162461bcd60e51b815260206004820152602660248201527f4f776e61626c653a206e6577206f776e657220697320746865207a65726f206160448201526564647265737360d01b60648201526084015b60405180910390fd5b611223816114fb565b610109546001600160a01b031633146112cd57604051632d99bc8360e21b815260040160405180910390fd5b6001600160a01b0382166112f45760405163e6c4247b60e01b815260040160405180910390fd5b80600003611315576040516365e52d5160e11b815260040160405180910390fd5b6000826001600160a01b03168260405160006040518083038185875af1925050503d8060008114611362576040519150601f19603f3d011682016040523d82523d6000602084013e611367565b606091505b5050905080610d99576040516312171d8360e31b815260040160405180910390fd5b610109546001600160a01b031633146113b557604051632d99bc8360e21b815260040160405180910390fd5b6001600160a01b0381166113dc5760405163e6c4247b60e01b815260040160405180910390fd5b476000819003611315576040516365e52d5160e11b815260040160405180910390fd5b6002600154036114515760405162461bcd60e51b815260206004820152601f60248201527f5265656e7472616e637947756172643a207265656e7472616e742063616c6c00604482015260640161128f565b6002600155565b6000546001600160a01b03163314610be15760405162461bcd60e51b815260206004820181905260248201527f4f776e61626c653a2063616c6c6572206973206e6f7420746865206f776e6572604482015260640161128f565b60818110611223576040516368a3a6c360e11b815260040160405180910390fd5b60008183106114e257816114e4565b825b9392505050565b6000610981633b9aca008361180e565b600080546001600160a01b038381166001600160a01b0319831681178455604051919092169283917f8be0079c531659141344cd1fd0a4f28419497f9722a3daafe3b4186f6b6457e09190a35050565b6040518061102001604052806081906020820280368337509192915050565b60008083601f84011261157c57600080fd5b50813567ffffffffffffffff81111561159457600080fd5b6020830191508360208260051b85010111156115af57600080fd5b9250929050565b600080602083850312156115c957600080fd5b823567ffffffffffffffff8111156115e057600080fd5b6115ec8582860161156a565b90969095509350505050565b60006020828403121561160a57600080fd5b5035919050565b80356001600160a01b038116811461162857600080fd5b919050565b60006020828403121561163f57600080fd5b6114e482611611565b6000806040838503121561165b57600080fd5b50508035926020909101359150565b8060005b608181101561168d57815184526020938401939091019060010161166e565b50505050565b6110208101610981828461166a565b8060005b608181101561168d57815115158452602093840193909101906001016116a6565b61408081016116d6828761166a565b61102082018560005b608181101561170857815167ffffffffffffffff168352602092830192909101906001016116df565b5050506117196120408301856116a2565b61172761306083018461166a565b95945050505050565b60008060006040848603121561174557600080fd5b83359250602084013567ffffffffffffffff81111561176357600080fd5b61176f8682870161156a565b9497909650939450505050565b611020810161098182846116a2565b6000806040838503121561179e57600080fd5b6117a783611611565b946020939093013593505050565b634e487b7160e01b600052603260045260246000fd5b6000602082840312156117dd57600080fd5b5051919050565b6000602082840312156117f657600080fd5b815167ffffffffffffffff811681146114e457600080fd5b60008261182b57634e487b7160e01b600052601260045260246000fd5b50049056feb4c087119097fbe3985298eef52f35ef6271c48322a8c2d430902a9cc38d9473a2646970667358221220f00a3e8d228523dd01b2bf1175725a492fe4bc04d245263ebc719f198fc9cf8664736f6c63430008160033","opcodes":"PUSH1 0x80 PUSH1 0x40 MSTORE PUSH2 0x109 DUP1 SLOAD PUSH1 0x1 PUSH1 0x1 PUSH1 0xA0 SHL SUB NOT AND SWAP1 SSTORE CALLVALUE DUP1 ISZERO PUSH3 0x22 JUMPI PUSH1 0x0 DUP1 REVERT JUMPDEST POP PUSH3 0x2E CALLER PUSH3 0xCD JUMP JUMPDEST PUSH1 0x1 DUP1 SSTORE PUSH1 0x0 JUMPDEST PUSH1 0x81 DUP2 LT ISZERO PUSH3 0xB3 JUMPI PUSH1 0x0 PUSH1 0x2 DUP3 PUSH1 0x81 DUP2 LT PUSH3 0x57 JUMPI PUSH3 0x57 PUSH3 0x11D JUMP JUMPDEST PUSH1 0x20 SWAP2 DUP3 DUP3 DIV ADD SWAP2 SWAP1 MOD PUSH2 0x100 EXP DUP2 SLOAD DUP2 PUSH1 0xFF MUL NOT AND SWAP1 DUP4 ISZERO ISZERO MUL OR SWAP1 SSTORE POP PUSH1 0x0 PUSH1 0x7 DUP3 PUSH1 0x81 DUP2 LT PUSH3 0x8E JUMPI PUSH3 0x8E PUSH3 0x11D JUMP JUMPDEST ADD SSTORE PUSH1 0x0 PUSH1 0x88 DUP3 PUSH1 0x81 DUP2 LT PUSH3 0xA8 JUMPI PUSH3 0xA8 PUSH3 0x11D JUMP JUMPDEST ADD SSTORE PUSH1 0x1 ADD PUSH3 0x35 JUMP JUMPDEST POP PUSH2 0x109 DUP1 SLOAD PUSH1 0x1 PUSH1 0x1 PUSH1 0xA0 SHL SUB NOT AND CALLER OR SWAP1 SSTORE PUSH3 0x133 JUMP JUMPDEST PUSH1 0x0 DUP1 SLOAD PUSH1 0x1 PUSH1 0x1 PUSH1 0xA0 SHL SUB DUP4 DUP2 AND PUSH1 0x1 PUSH1 0x1 PUSH1 0xA0 SHL SUB NOT DUP4 AND DUP2 OR DUP5 SSTORE PUSH1 0x40 MLOAD SWAP2 SWAP1 SWAP3 AND SWAP3 DUP4 SWAP2 PUSH32 0x8BE0079C531659141344CD1FD0A4F28419497F9722A3DAAFE3B4186F6B6457E0 SWAP2 SWAP1 LOG3 POP POP JUMP JUMPDEST PUSH4 0x4E487B71 PUSH1 0xE0 SHL PUSH1 0x0 MSTORE PUSH1 0x32 PUSH1 0x4 MSTORE PUSH1 0x24 PUSH1 0x0 REVERT JUMPDEST PUSH2 0x1886 DUP1 PUSH3 0x143 PUSH1 0x0 CODECOPY PUSH1 0x0 RETURN INVALID PUSH1 0x80 PUSH1 0x40 MSTORE PUSH1 0x4 CALLDATASIZE LT PUSH2 0x144 JUMPI PUSH1 0x0 CALLDATALOAD PUSH1 0xE0 SHR DUP1 PUSH4 0x961216CB GT PUSH2 0xB6 JUMPI DUP1 PUSH4 0xCDC18424 GT PUSH2 0x6F JUMPI DUP1 PUSH4 0xCDC18424 EQ PUSH2 0x36D JUMPI DUP1 PUSH4 0xDDD8A4C8 EQ PUSH2 0x38E JUMPI DUP1 PUSH4 0xEA07A542 EQ PUSH2 0x3B0 JUMPI DUP1 PUSH4 0xF2FDE38B EQ PUSH2 0x3C3 JUMPI DUP1 PUSH4 0xF528C62E EQ PUSH2 0x3E3 JUMPI DUP1 PUSH4 0xFA09E630 EQ PUSH2 0x403 JUMPI PUSH2 0x14B JUMP JUMPDEST DUP1 PUSH4 0x961216CB EQ PUSH2 0x2D2 JUMPI DUP1 PUSH4 0x9A900394 EQ PUSH2 0x2E5 JUMPI DUP1 PUSH4 0xA75D3564 EQ PUSH2 0x305 JUMPI DUP1 PUSH4 0xAA099A7B EQ PUSH2 0x325 JUMPI DUP1 PUSH4 0xAC0C34CC EQ PUSH2 0x338 JUMPI DUP1 PUSH4 0xC7687C22 EQ PUSH2 0x34B JUMPI PUSH2 0x14B JUMP JUMPDEST DUP1 PUSH4 0x3D4AC3C2 GT PUSH2 0x108 JUMPI DUP1 PUSH4 0x3D4AC3C2 EQ PUSH2 0x20E JUMPI DUP1 PUSH4 0x59ABBFE4 EQ PUSH2 0x223 JUMPI DUP1 PUSH4 0x5A5392BE EQ PUSH2 0x238 JUMPI DUP1 PUSH4 0x5A9B0B89 EQ PUSH2 0x266 JUMPI DUP1 PUSH4 0x715018A6 EQ PUSH2 0x28B JUMPI DUP1 PUSH4 0x8DA5CB5B EQ PUSH2 0x2A0 JUMPI PUSH2 0x14B JUMP JUMPDEST DUP1 PUSH4 0x1FDA331 EQ PUSH2 0x164 JUMPI DUP1 PUSH4 0x8B41C01 EQ PUSH2 0x179 JUMPI DUP1 PUSH4 0xD174C24 EQ PUSH2 0x1AE JUMPI DUP1 PUSH4 0x10D67406 EQ PUSH2 0x1CE JUMPI DUP1 PUSH4 0x337A1737 EQ PUSH2 0x1E1 JUMPI PUSH2 0x14B JUMP JUMPDEST CALLDATASIZE PUSH2 0x14B JUMPI STOP JUMPDEST PUSH1 0x40 MLOAD PUSH4 0x201F3FD3 PUSH1 0xE1 SHL DUP2 MSTORE PUSH1 0x4 ADD PUSH1 0x40 MLOAD DUP1 SWAP2 SUB SWAP1 REVERT JUMPDEST PUSH2 0x177 PUSH2 0x172 CALLDATASIZE PUSH1 0x4 PUSH2 0x15B6 JUMP JUMPDEST PUSH2 0x423 JUMP JUMPDEST STOP JUMPDEST CALLVALUE DUP1 ISZERO PUSH2 0x185 JUMPI PUSH1 0x0 DUP1 REVERT JUMPDEST POP PUSH2 0x199 PUSH2 0x194 CALLDATASIZE PUSH1 0x4 PUSH2 0x15F8 JUMP JUMPDEST PUSH2 0x565 JUMP JUMPDEST PUSH1 0x40 MLOAD SWAP1 ISZERO ISZERO DUP2 MSTORE PUSH1 0x20 ADD JUMPDEST PUSH1 0x40 MLOAD DUP1 SWAP2 SUB SWAP1 RETURN JUMPDEST CALLVALUE DUP1 ISZERO PUSH2 0x1BA JUMPI PUSH1 0x0 DUP1 REVERT JUMPDEST POP PUSH2 0x177 PUSH2 0x1C9 CALLDATASIZE PUSH1 0x4 PUSH2 0x162D JUMP JUMPDEST PUSH2 0x58F JUMP JUMPDEST PUSH2 0x177 PUSH2 0x1DC CALLDATASIZE PUSH1 0x4 PUSH2 0x1648 JUMP JUMPDEST PUSH2 0x605 JUMP JUMPDEST CALLVALUE DUP1 ISZERO PUSH2 0x1ED JUMPI PUSH1 0x0 DUP1 REVERT JUMPDEST POP PUSH2 0x201 PUSH2 0x1FC CALLDATASIZE PUSH1 0x4 PUSH2 0x15F8 JUMP JUMPDEST PUSH2 0x7C6 JUMP JUMPDEST PUSH1 0x40 MLOAD PUSH2 0x1A5 SWAP2 SWAP1 PUSH2 0x1693 JUMP JUMPDEST CALLVALUE DUP1 ISZERO PUSH2 0x21A JUMPI PUSH1 0x0 DUP1 REVERT JUMPDEST POP PUSH2 0x201 PUSH2 0x887 JUMP JUMPDEST CALLVALUE DUP1 ISZERO PUSH2 0x22F JUMPI PUSH1 0x0 DUP1 REVERT JUMPDEST POP PUSH2 0x201 PUSH2 0x8C3 JUMP JUMPDEST CALLVALUE DUP1 ISZERO PUSH2 0x244 JUMPI PUSH1 0x0 DUP1 REVERT JUMPDEST POP PUSH2 0x258 PUSH2 0x253 CALLDATASIZE PUSH1 0x4 PUSH2 0x15F8 JUMP JUMPDEST PUSH2 0x8FA JUMP JUMPDEST PUSH1 0x40 MLOAD SWAP1 DUP2 MSTORE PUSH1 0x20 ADD PUSH2 0x1A5 JUMP JUMPDEST CALLVALUE DUP1 ISZERO PUSH2 0x272 JUMPI PUSH1 0x0 DUP1 REVERT JUMPDEST POP PUSH2 0x27B PUSH2 0x987 JUMP JUMPDEST PUSH1 0x40 MLOAD PUSH2 0x1A5 SWAP5 SWAP4 SWAP3 SWAP2 SWAP1 PUSH2 0x16C7 JUMP JUMPDEST CALLVALUE DUP1 ISZERO PUSH2 0x297 JUMPI PUSH1 0x0 DUP1 REVERT JUMPDEST POP PUSH2 0x177 PUSH2 0xBCF JUMP JUMPDEST CALLVALUE DUP1 ISZERO PUSH2 0x2AC JUMPI PUSH1 0x0 DUP1 REVERT JUMPDEST POP PUSH1 0x0 SLOAD PUSH1 0x1 PUSH1 0x1 PUSH1 0xA0 SHL SUB AND JUMPDEST PUSH1 0x40 MLOAD PUSH1 0x1 PUSH1 0x1 PUSH1 0xA0 SHL SUB SWAP1 SWAP2 AND DUP2 MSTORE PUSH1 0x20 ADD PUSH2 0x1A5 JUMP JUMPDEST PUSH2 0x177 PUSH2 0x2E0 CALLDATASIZE PUSH1 0x4 PUSH2 0x1730 JUMP JUMPDEST PUSH2 0xBE3 JUMP JUMPDEST CALLVALUE DUP1 ISZERO PUSH2 0x2F1 JUMPI PUSH1 0x0 DUP1 REVERT JUMPDEST POP PUSH2 0x258 PUSH2 0x300 CALLDATASIZE PUSH1 0x4 PUSH2 0x15F8 JUMP JUMPDEST PUSH2 0xD9E JUMP JUMPDEST CALLVALUE DUP1 ISZERO PUSH2 0x311 JUMPI PUSH1 0x0 DUP1 REVERT JUMPDEST POP PUSH2 0x258 PUSH2 0x320 CALLDATASIZE PUSH1 0x4 PUSH2 0x15F8 JUMP JUMPDEST PUSH2 0xDB5 JUMP JUMPDEST PUSH2 0x177 PUSH2 0x333 CALLDATASIZE PUSH1 0x4 PUSH2 0x1648 JUMP JUMPDEST PUSH2 0xDC5 JUMP JUMPDEST PUSH2 0x177 PUSH2 0x346 CALLDATASIZE PUSH1 0x4 PUSH2 0x1730 JUMP JUMPDEST PUSH2 0xED9 JUMP JUMPDEST CALLVALUE DUP1 ISZERO PUSH2 0x357 JUMPI PUSH1 0x0 DUP1 REVERT JUMPDEST POP PUSH2 0x258 PUSH1 0x0 DUP1 MLOAD PUSH1 0x20 PUSH2 0x1831 DUP4 CODECOPY DUP2 MLOAD SWAP2 MSTORE DUP2 JUMP JUMPDEST CALLVALUE DUP1 ISZERO PUSH2 0x379 JUMPI PUSH1 0x0 DUP1 REVERT JUMPDEST POP PUSH2 0x109 SLOAD PUSH2 0x2BA SWAP1 PUSH1 0x1 PUSH1 0x1 PUSH1 0xA0 SHL SUB AND DUP2 JUMP JUMPDEST CALLVALUE DUP1 ISZERO PUSH2 0x39A JUMPI PUSH1 0x0 DUP1 REVERT JUMPDEST POP PUSH2 0x3A3 PUSH2 0x10BC JUMP JUMPDEST PUSH1 0x40 MLOAD PUSH2 0x1A5 SWAP2 SWAP1 PUSH2 0x177C JUMP JUMPDEST PUSH2 0x177 PUSH2 0x3BE CALLDATASIZE PUSH1 0x4 PUSH2 0x15F8 JUMP JUMPDEST PUSH2 0x1117 JUMP JUMPDEST CALLVALUE DUP1 ISZERO PUSH2 0x3CF JUMPI PUSH1 0x0 DUP1 REVERT JUMPDEST POP PUSH2 0x177 PUSH2 0x3DE CALLDATASIZE PUSH1 0x4 PUSH2 0x162D JUMP JUMPDEST PUSH2 0x1226 JUMP JUMPDEST CALLVALUE DUP1 ISZERO PUSH2 0x3EF JUMPI PUSH1 0x0 DUP1 REVERT JUMPDEST POP PUSH2 0x177 PUSH2 0x3FE CALLDATASIZE PUSH1 0x4 PUSH2 0x178B JUMP JUMPDEST PUSH2 0x12A1 JUMP JUMPDEST CALLVALUE DUP1 ISZERO PUSH2 0x40F JUMPI PUSH1 0x0 DUP1 REVERT JUMPDEST POP PUSH2 0x177 PUSH2 0x41E CALLDATASIZE PUSH1 0x4 PUSH2 0x162D JUMP JUMPDEST PUSH2 0x1389 JUMP JUMPDEST PUSH2 0x42B PUSH2 0x13FF JUMP JUMPDEST PUSH2 0x433 PUSH2 0x1458 JUMP JUMPDEST PUSH1 0x0 JUMPDEST DUP2 DUP2 LT ISZERO PUSH2 0x557 JUMPI PUSH1 0x0 DUP4 DUP4 DUP4 DUP2 DUP2 LT PUSH2 0x452 JUMPI PUSH2 0x452 PUSH2 0x17B5 JUMP JUMPDEST SWAP1 POP PUSH1 0x20 MUL ADD CALLDATALOAD SWAP1 POP PUSH2 0x464 DUP2 PUSH2 0x14B2 JUMP JUMPDEST PUSH1 0x2 DUP2 PUSH1 0x81 DUP2 LT PUSH2 0x477 JUMPI PUSH2 0x477 PUSH2 0x17B5 JUMP JUMPDEST PUSH1 0x20 DUP2 DIV SWAP1 SWAP2 ADD SLOAD PUSH1 0xFF PUSH1 0x1F SWAP1 SWAP3 AND PUSH2 0x100 EXP SWAP1 DIV AND DUP1 ISZERO PUSH2 0x4AD JUMPI POP PUSH1 0x88 DUP2 PUSH1 0x81 DUP2 LT PUSH2 0x4A7 JUMPI PUSH2 0x4A7 PUSH2 0x17B5 JUMP JUMPDEST ADD SLOAD TIMESTAMP EQ ISZERO JUMPDEST ISZERO PUSH2 0x54E JUMPI PUSH1 0x40 MLOAD PUSH4 0xD4626BB9 PUSH1 0xE0 SHL DUP2 MSTORE PUSH1 0x0 DUP1 MLOAD PUSH1 0x20 PUSH2 0x1831 DUP4 CODECOPY DUP2 MLOAD SWAP2 MSTORE PUSH1 0x4 DUP3 ADD MSTORE PUSH1 0x24 DUP2 ADD DUP3 SWAP1 MSTORE PUSH2 0x805 SWAP1 PUSH4 0xD4626BB9 SWAP1 PUSH1 0x44 ADD PUSH1 0x0 PUSH1 0x40 MLOAD DUP1 DUP4 SUB DUP2 PUSH1 0x0 DUP8 DUP1 EXTCODESIZE ISZERO DUP1 ISZERO PUSH2 0x501 JUMPI PUSH1 0x0 DUP1 REVERT JUMPDEST POP GAS CALL ISZERO DUP1 ISZERO PUSH2 0x515 JUMPI RETURNDATASIZE PUSH1 0x0 DUP1 RETURNDATACOPY RETURNDATASIZE PUSH1 0x0 REVERT JUMPDEST POP POP POP POP PUSH1 0x0 PUSH1 0x2 DUP3 PUSH1 0x81 DUP2 LT PUSH2 0x52E JUMPI PUSH2 0x52E PUSH2 0x17B5 JUMP JUMPDEST PUSH1 0x20 SWAP2 DUP3 DUP3 DIV ADD SWAP2 SWAP1 MOD PUSH2 0x100 EXP DUP2 SLOAD DUP2 PUSH1 0xFF MUL NOT AND SWAP1 DUP4 ISZERO ISZERO MUL OR SWAP1 SSTORE POP JUMPDEST POP PUSH1 0x1 ADD PUSH2 0x436 JUMP JUMPDEST POP PUSH2 0x561 PUSH1 0x1 DUP1 SSTORE JUMP JUMPDEST POP POP JUMP JUMPDEST PUSH1 0x2 DUP2 PUSH1 0x81 DUP2 LT PUSH2 0x575 JUMPI PUSH1 0x0 DUP1 REVERT JUMPDEST PUSH1 0x20 SWAP2 DUP3 DUP3 DIV ADD SWAP2 SWAP1 MOD SWAP2 POP SLOAD SWAP1 PUSH2 0x100 EXP SWAP1 DIV PUSH1 0xFF AND DUP2 JUMP JUMPDEST PUSH2 0x109 SLOAD PUSH1 0x1 PUSH1 0x1 PUSH1 0xA0 SHL SUB AND CALLER EQ PUSH2 0x5BB JUMPI PUSH1 0x40 MLOAD PUSH4 0x2D99BC83 PUSH1 0xE2 SHL DUP2 MSTORE PUSH1 0x4 ADD PUSH1 0x40 MLOAD DUP1 SWAP2 SUB SWAP1 REVERT JUMPDEST PUSH1 0x1 PUSH1 0x1 PUSH1 0xA0 SHL SUB DUP2 AND PUSH2 0x5E2 JUMPI PUSH1 0x40 MLOAD PUSH4 0xE6C4247B PUSH1 0xE0 SHL DUP2 MSTORE PUSH1 0x4 ADD PUSH1 0x40 MLOAD DUP1 SWAP2 SUB SWAP1 REVERT JUMPDEST PUSH2 0x109 DUP1 SLOAD PUSH1 0x1 PUSH1 0x1 PUSH1 0xA0 SHL SUB NOT AND PUSH1 0x1 PUSH1 0x1 PUSH1 0xA0 SHL SUB SWAP3 SWAP1 SWAP3 AND SWAP2 SWAP1 SWAP2 OR SWAP1 SSTORE JUMP JUMPDEST PUSH2 0x60D PUSH2 0x13FF JUMP JUMPDEST PUSH2 0x615 PUSH2 0x1458 JUMP JUMPDEST PUSH2 0x61E DUP2 PUSH2 0x14B2 JUMP JUMPDEST DUP2 ISZERO DUP1 ISZERO SWAP1 PUSH2 0x653 JUMPI POP PUSH1 0x2 DUP2 PUSH1 0x81 DUP2 LT PUSH2 0x63B JUMPI PUSH2 0x63B PUSH2 0x17B5 JUMP JUMPDEST PUSH1 0x20 DUP2 DIV SWAP1 SWAP2 ADD SLOAD PUSH1 0xFF PUSH1 0x1F SWAP1 SWAP3 AND PUSH2 0x100 EXP SWAP1 DIV AND ISZERO JUMPDEST ISZERO PUSH2 0x7BD JUMPI PUSH1 0x0 PUSH2 0x664 SELFBALANCE DUP5 PUSH2 0x14D3 JUMP JUMPDEST SWAP1 POP DUP1 PUSH1 0x0 SUB PUSH2 0x674 JUMPI POP PUSH2 0x7BD JUMP JUMPDEST PUSH2 0x805 PUSH4 0x1FC9B141 PUSH1 0x0 DUP1 MLOAD PUSH1 0x20 PUSH2 0x1831 DUP4 CODECOPY DUP2 MLOAD SWAP2 MSTORE PUSH2 0x694 DUP5 PUSH2 0x14EB JUMP JUMPDEST PUSH1 0x40 MLOAD PUSH1 0x1 PUSH1 0x1 PUSH1 0xE0 SHL SUB NOT PUSH1 0xE0 DUP6 SWAP1 SHL AND DUP2 MSTORE PUSH1 0x4 DUP2 ADD SWAP3 SWAP1 SWAP3 MSTORE PUSH1 0x24 DUP3 ADD MSTORE PUSH1 0x44 DUP2 ADD DUP6 SWAP1 MSTORE PUSH1 0x64 ADD PUSH1 0x0 PUSH1 0x40 MLOAD DUP1 DUP4 SUB DUP2 PUSH1 0x0 DUP8 DUP1 EXTCODESIZE ISZERO DUP1 ISZERO PUSH2 0x6D9 JUMPI PUSH1 0x0 DUP1 REVERT JUMPDEST POP GAS CALL ISZERO DUP1 ISZERO PUSH2 0x6ED JUMPI RETURNDATASIZE PUSH1 0x0 DUP1 RETURNDATACOPY RETURNDATASIZE PUSH1 0x0 REVERT JUMPDEST POP POP POP POP PUSH1 0x1 PUSH1 0x2 DUP4 PUSH1 0x81 DUP2 LT PUSH2 0x706 JUMPI PUSH2 0x706 PUSH2 0x17B5 JUMP JUMPDEST PUSH1 0x20 DUP2 DIV SWAP1 SWAP2 ADD DUP1 SLOAD SWAP3 ISZERO ISZERO PUSH1 0x1F SWAP1 SWAP3 AND PUSH2 0x100 EXP SWAP2 DUP3 MUL PUSH1 0xFF SWAP1 SWAP3 MUL NOT SWAP1 SWAP3 AND OR SWAP1 SSTORE PUSH1 0x40 MLOAD PUSH4 0x69E38BC3 PUSH1 0xE0 SHL DUP2 MSTORE PUSH2 0xFFFF DUP4 AND PUSH1 0x4 DUP3 ADD MSTORE PUSH2 0x808 SWAP1 PUSH4 0x69E38BC3 SWAP1 PUSH1 0x24 ADD JUMPDEST PUSH1 0x20 PUSH1 0x40 MLOAD DUP1 DUP4 SUB DUP2 DUP7 GAS STATICCALL ISZERO DUP1 ISZERO PUSH2 0x76C JUMPI RETURNDATASIZE PUSH1 0x0 DUP1 RETURNDATACOPY RETURNDATASIZE PUSH1 0x0 REVERT JUMPDEST POP POP POP POP PUSH1 0x40 MLOAD RETURNDATASIZE PUSH1 0x1F NOT PUSH1 0x1F DUP3 ADD AND DUP3 ADD DUP1 PUSH1 0x40 MSTORE POP DUP2 ADD SWAP1 PUSH2 0x790 SWAP2 SWAP1 PUSH2 0x17CB JUMP JUMPDEST PUSH1 0x7 DUP4 PUSH1 0x81 DUP2 LT PUSH2 0x7A3 JUMPI PUSH2 0x7A3 PUSH2 0x17B5 JUMP JUMPDEST ADD SSTORE TIMESTAMP PUSH1 0x88 DUP4 PUSH1 0x81 DUP2 LT PUSH2 0x7B9 JUMPI PUSH2 0x7B9 PUSH2 0x17B5 JUMP JUMPDEST ADD SSTORE POP JUMPDEST PUSH2 0x561 PUSH1 0x1 DUP1 SSTORE JUMP JUMPDEST PUSH2 0x7CE PUSH2 0x154B JUMP JUMPDEST PUSH1 0x1 JUMPDEST PUSH1 0x81 DUP2 PUSH2 0xFFFF AND LT ISZERO PUSH2 0x881 JUMPI PUSH1 0x40 MLOAD PUSH4 0x71DACC7D PUSH1 0xE1 SHL DUP2 MSTORE PUSH1 0x0 DUP1 MLOAD PUSH1 0x20 PUSH2 0x1831 DUP4 CODECOPY DUP2 MLOAD SWAP2 MSTORE PUSH1 0x4 DUP3 ADD MSTORE PUSH1 0x24 DUP2 ADD DUP5 SWAP1 MSTORE PUSH2 0xFFFF DUP3 AND PUSH1 0x44 DUP3 ADD MSTORE PUSH2 0x805 SWAP1 PUSH4 0xE3B598FA SWAP1 PUSH1 0x64 ADD PUSH1 0x20 PUSH1 0x40 MLOAD DUP1 DUP4 SUB DUP2 DUP7 GAS STATICCALL ISZERO DUP1 ISZERO PUSH2 0x83A JUMPI RETURNDATASIZE PUSH1 0x0 DUP1 RETURNDATACOPY RETURNDATASIZE PUSH1 0x0 REVERT JUMPDEST POP POP POP POP PUSH1 0x40 MLOAD RETURNDATASIZE PUSH1 0x1F NOT PUSH1 0x1F DUP3 ADD AND DUP3 ADD DUP1 PUSH1 0x40 MSTORE POP DUP2 ADD SWAP1 PUSH2 0x85E SWAP2 SWAP1 PUSH2 0x17CB JUMP JUMPDEST DUP3 DUP3 PUSH2 0xFFFF AND PUSH1 0x81 DUP2 LT PUSH2 0x874 JUMPI PUSH2 0x874 PUSH2 0x17B5 JUMP JUMPDEST PUSH1 0x20 MUL ADD MSTORE PUSH1 0x1 ADD PUSH2 0x7D1 JUMP JUMPDEST POP SWAP2 SWAP1 POP JUMP JUMPDEST PUSH2 0x88F PUSH2 0x154B JUMP JUMPDEST PUSH1 0x40 DUP1 MLOAD PUSH2 0x1020 DUP2 ADD SWAP2 DUP3 SWAP1 MSTORE SWAP1 PUSH1 0x7 SWAP1 PUSH1 0x81 SWAP1 DUP3 DUP5 JUMPDEST DUP2 SLOAD DUP2 MSTORE PUSH1 0x20 ADD SWAP1 PUSH1 0x1 ADD SWAP1 DUP1 DUP4 GT PUSH2 0x8A6 JUMPI POP POP POP POP POP SWAP1 POP SWAP1 JUMP JUMPDEST PUSH2 0x8CB PUSH2 0x154B JUMP JUMPDEST PUSH1 0x40 DUP1 MLOAD PUSH2 0x1020 DUP2 ADD SWAP2 DUP3 SWAP1 MSTORE PUSH1 0x88 DUP1 SLOAD DUP3 MSTORE SWAP1 SWAP2 PUSH1 0x81 SWAP1 PUSH1 0x89 PUSH1 0x20 DUP6 ADD DUP1 DUP4 GT PUSH2 0x8A6 JUMPI POP POP POP POP POP SWAP1 POP SWAP1 JUMP JUMPDEST PUSH1 0x0 PUSH2 0x905 DUP3 PUSH2 0x14B2 JUMP JUMPDEST PUSH1 0x40 MLOAD PUSH4 0x71DACC7D PUSH1 0xE1 SHL DUP2 MSTORE PUSH1 0x0 DUP1 MLOAD PUSH1 0x20 PUSH2 0x1831 DUP4 CODECOPY DUP2 MLOAD SWAP2 MSTORE PUSH1 0x4 DUP3 ADD MSTORE ADDRESS PUSH1 0x24 DUP3 ADD MSTORE PUSH1 0x44 DUP2 ADD DUP4 SWAP1 MSTORE PUSH2 0x805 SWAP1 PUSH4 0xE3B598FA SWAP1 PUSH1 0x64 ADD PUSH1 0x20 PUSH1 0x40 MLOAD DUP1 DUP4 SUB DUP2 DUP7 GAS STATICCALL ISZERO DUP1 ISZERO PUSH2 0x95D JUMPI RETURNDATASIZE PUSH1 0x0 DUP1 RETURNDATACOPY RETURNDATASIZE PUSH1 0x0 REVERT JUMPDEST POP POP POP POP PUSH1 0x40 MLOAD RETURNDATASIZE PUSH1 0x1F NOT PUSH1 0x1F DUP3 ADD AND DUP3 ADD DUP1 PUSH1 0x40 MSTORE POP DUP2 ADD SWAP1 PUSH2 0x981 SWAP2 SWAP1 PUSH2 0x17CB JUMP JUMPDEST SWAP3 SWAP2 POP POP JUMP JUMPDEST PUSH2 0x98F PUSH2 0x154B JUMP JUMPDEST PUSH2 0x997 PUSH2 0x154B JUMP JUMPDEST PUSH2 0x99F PUSH2 0x154B JUMP JUMPDEST PUSH2 0x9A7 PUSH2 0x154B JUMP JUMPDEST PUSH8 0xDE0B6B3A7640000 DUP5 MSTORE PUSH1 0x1 DUP1 DUP5 MSTORE JUMPDEST PUSH1 0x81 DUP2 PUSH2 0xFFFF AND LT ISZERO PUSH2 0xA6E JUMPI PUSH1 0x40 MLOAD PUSH4 0x69E38BC3 PUSH1 0xE0 SHL DUP2 MSTORE PUSH2 0xFFFF DUP3 AND PUSH1 0x4 DUP3 ADD MSTORE PUSH2 0x808 SWAP1 PUSH4 0x69E38BC3 SWAP1 PUSH1 0x24 ADD PUSH1 0x20 PUSH1 0x40 MLOAD DUP1 DUP4 SUB DUP2 DUP7 GAS STATICCALL SWAP3 POP POP POP DUP1 ISZERO PUSH2 0xA22 JUMPI POP PUSH1 0x40 DUP1 MLOAD PUSH1 0x1F RETURNDATASIZE SWAP1 DUP2 ADD PUSH1 0x1F NOT AND DUP3 ADD SWAP1 SWAP3 MSTORE PUSH2 0xA1F SWAP2 DUP2 ADD SWAP1 PUSH2 0x17CB JUMP JUMPDEST PUSH1 0x1 JUMPDEST PUSH2 0xA48 JUMPI PUSH1 0x0 DUP6 DUP3 PUSH2 0xFFFF AND PUSH1 0x81 DUP2 LT PUSH2 0xA3E JUMPI PUSH2 0xA3E PUSH2 0x17B5 JUMP JUMPDEST PUSH1 0x20 MUL ADD MSTORE PUSH2 0xA66 JUMP JUMPDEST DUP1 DUP7 DUP4 PUSH2 0xFFFF AND PUSH1 0x81 DUP2 LT PUSH2 0xA5F JUMPI PUSH2 0xA5F PUSH2 0x17B5 JUMP JUMPDEST PUSH1 0x20 MUL ADD MSTORE POP JUMPDEST PUSH1 0x1 ADD PUSH2 0x9B8 JUMP JUMPDEST POP PUSH1 0x1 JUMPDEST PUSH1 0x81 DUP2 PUSH2 0xFFFF AND LT ISZERO PUSH2 0xB46 JUMPI PUSH1 0x40 MLOAD PUSH4 0x2D9BFC71 PUSH1 0xE0 SHL DUP2 MSTORE PUSH2 0xFFFF DUP3 AND PUSH1 0x4 DUP3 ADD MSTORE PUSH2 0x808 SWAP1 PUSH4 0x2D9BFC71 SWAP1 PUSH1 0x24 ADD PUSH1 0x20 PUSH1 0x40 MLOAD DUP1 DUP4 SUB DUP2 DUP7 GAS STATICCALL SWAP3 POP POP POP DUP1 ISZERO PUSH2 0xADC JUMPI POP PUSH1 0x40 DUP1 MLOAD PUSH1 0x1F RETURNDATASIZE SWAP1 DUP2 ADD PUSH1 0x1F NOT AND DUP3 ADD SWAP1 SWAP3 MSTORE PUSH2 0xAD9 SWAP2 DUP2 ADD SWAP1 PUSH2 0x17E4 JUMP JUMPDEST PUSH1 0x1 JUMPDEST PUSH2 0xB11 JUMPI PUSH1 0x0 DUP5 DUP3 PUSH2 0xFFFF AND PUSH1 0x81 DUP2 LT PUSH2 0xAF8 JUMPI PUSH2 0xAF8 PUSH2 0x17B5 JUMP JUMPDEST PUSH8 0xFFFFFFFFFFFFFFFF SWAP1 SWAP3 AND PUSH1 0x20 SWAP3 SWAP1 SWAP3 MUL ADD MSTORE PUSH2 0xB3E JUMP JUMPDEST DUP1 DUP6 DUP4 PUSH2 0xFFFF AND PUSH1 0x81 DUP2 LT PUSH2 0xB28 JUMPI PUSH2 0xB28 PUSH2 0x17B5 JUMP JUMPDEST PUSH8 0xFFFFFFFFFFFFFFFF SWAP1 SWAP3 AND PUSH1 0x20 SWAP3 SWAP1 SWAP3 MUL ADD MSTORE POP JUMPDEST PUSH1 0x1 ADD PUSH2 0xA72 JUMP JUMPDEST POP PUSH1 0x40 DUP1 MLOAD PUSH2 0x1020 DUP2 ADD SWAP2 DUP3 SWAP1 MSTORE SWAP1 PUSH1 0x2 SWAP1 PUSH1 0x81 SWAP1 DUP3 PUSH1 0x0 DUP6 JUMPDEST DUP3 SLOAD PUSH2 0x100 DUP4 SWAP1 EXP SWAP1 DIV PUSH1 0xFF AND ISZERO ISZERO DUP2 MSTORE PUSH1 0x20 PUSH1 0x1 SWAP3 DUP4 ADD DUP2 DUP2 DIV SWAP5 DUP6 ADD SWAP5 SWAP1 SWAP4 SUB SWAP1 SWAP3 MUL SWAP2 ADD DUP1 DUP5 GT PUSH2 0xB60 JUMPI POP POP PUSH1 0x40 DUP1 MLOAD PUSH2 0x1020 DUP2 ADD SWAP2 DUP3 SWAP1 MSTORE SWAP6 SWAP8 POP PUSH1 0x7 SWAP5 POP PUSH1 0x81 SWAP4 POP SWAP2 POP DUP4 SWAP1 POP DUP5 JUMPDEST DUP2 SLOAD DUP2 MSTORE PUSH1 0x20 ADD SWAP1 PUSH1 0x1 ADD SWAP1 DUP1 DUP4 GT PUSH2 0xBAF JUMPI POP POP POP POP POP SWAP1 POP SWAP1 SWAP2 SWAP3 SWAP4 JUMP JUMPDEST PUSH2 0xBD7 PUSH2 0x1458 JUMP JUMPDEST PUSH2 0xBE1 PUSH1 0x0 PUSH2 0x14FB JUMP JUMPDEST JUMP JUMPDEST PUSH2 0xBEB PUSH2 0x13FF JUMP JUMPDEST PUSH2 0xBF3 PUSH2 0x1458 JUMP JUMPDEST DUP3 ISZERO PUSH2 0xD90 JUMPI PUSH1 0x0 JUMPDEST DUP2 DUP2 LT ISZERO PUSH2 0xD8E JUMPI PUSH1 0x0 DUP4 DUP4 DUP4 DUP2 DUP2 LT PUSH2 0xC18 JUMPI PUSH2 0xC18 PUSH2 0x17B5 JUMP JUMPDEST SWAP1 POP PUSH1 0x20 MUL ADD CALLDATALOAD SWAP1 POP PUSH2 0xC2A DUP2 PUSH2 0x14B2 JUMP JUMPDEST PUSH1 0x2 DUP2 PUSH1 0x81 DUP2 LT PUSH2 0xC3D JUMPI PUSH2 0xC3D PUSH2 0x17B5 JUMP JUMPDEST PUSH1 0x20 DUP2 DIV SWAP1 SWAP2 ADD SLOAD PUSH1 0xFF PUSH1 0x1F SWAP1 SWAP3 AND PUSH2 0x100 EXP SWAP1 DIV AND ISZERO PUSH2 0xD85 JUMPI PUSH1 0x0 PUSH2 0xC64 SELFBALANCE DUP8 PUSH2 0x14D3 JUMP JUMPDEST SWAP1 POP DUP1 PUSH1 0x0 SUB PUSH2 0xC76 JUMPI POP POP POP PUSH2 0xD90 JUMP JUMPDEST PUSH2 0x805 PUSH4 0x1FC9B141 PUSH1 0x0 DUP1 MLOAD PUSH1 0x20 PUSH2 0x1831 DUP4 CODECOPY DUP2 MLOAD SWAP2 MSTORE PUSH2 0xC96 DUP5 PUSH2 0x14EB JUMP JUMPDEST PUSH1 0x40 MLOAD PUSH1 0x1 PUSH1 0x1 PUSH1 0xE0 SHL SUB NOT PUSH1 0xE0 DUP6 SWAP1 SHL AND DUP2 MSTORE PUSH1 0x4 DUP2 ADD SWAP3 SWAP1 SWAP3 MSTORE PUSH1 0x24 DUP3 ADD MSTORE PUSH1 0x44 DUP2 ADD DUP6 SWAP1 MSTORE PUSH1 0x64 ADD PUSH1 0x0 PUSH1 0x40 MLOAD DUP1 DUP4 SUB DUP2 PUSH1 0x0 DUP8 DUP1 EXTCODESIZE ISZERO DUP1 ISZERO PUSH2 0xCDB JUMPI PUSH1 0x0 DUP1 REVERT JUMPDEST POP GAS CALL ISZERO DUP1 ISZERO PUSH2 0xCEF JUMPI RETURNDATASIZE PUSH1 0x0 DUP1 RETURNDATACOPY RETURNDATASIZE PUSH1 0x0 REVERT JUMPDEST POP POP PUSH1 0x40 MLOAD PUSH4 0x69E38BC3 PUSH1 0xE0 SHL DUP2 MSTORE PUSH2 0xFFFF DUP6 AND PUSH1 0x4 DUP3 ADD MSTORE PUSH2 0x808 SWAP3 POP PUSH4 0x69E38BC3 SWAP2 POP PUSH1 0x24 ADD PUSH1 0x20 PUSH1 0x40 MLOAD DUP1 DUP4 SUB DUP2 DUP7 GAS STATICCALL ISZERO DUP1 ISZERO PUSH2 0xD34 JUMPI RETURNDATASIZE PUSH1 0x0 DUP1 RETURNDATACOPY RETURNDATASIZE PUSH1 0x0 REVERT JUMPDEST POP POP POP POP PUSH1 0x40 MLOAD RETURNDATASIZE PUSH1 0x1F NOT PUSH1 0x1F DUP3 ADD AND DUP3 ADD DUP1 PUSH1 0x40 MSTORE POP DUP2 ADD SWAP1 PUSH2 0xD58 SWAP2 SWAP1 PUSH2 0x17CB JUMP JUMPDEST PUSH1 0x7 DUP4 PUSH1 0x81 DUP2 LT PUSH2 0xD6B JUMPI PUSH2 0xD6B PUSH2 0x17B5 JUMP JUMPDEST ADD SSTORE TIMESTAMP PUSH1 0x88 DUP4 PUSH1 0x81 DUP2 LT PUSH2 0xD81 JUMPI PUSH2 0xD81 PUSH2 0x17B5 JUMP JUMPDEST ADD SSTORE POP JUMPDEST POP PUSH1 0x1 ADD PUSH2 0xBFC JUMP JUMPDEST POP JUMPDEST PUSH2 0xD99 PUSH1 0x1 DUP1 SSTORE JUMP JUMPDEST POP POP POP JUMP JUMPDEST PUSH1 0x88 DUP2 PUSH1 0x81 DUP2 LT PUSH2 0xDAE JUMPI PUSH1 0x0 DUP1 REVERT JUMPDEST ADD SLOAD SWAP1 POP DUP2 JUMP JUMPDEST PUSH1 0x7 DUP2 PUSH1 0x81 DUP2 LT PUSH2 0xDAE JUMPI PUSH1 0x0 DUP1 REVERT JUMPDEST PUSH2 0xDCD PUSH2 0x13FF JUMP JUMPDEST PUSH2 0xDD5 PUSH2 0x1458 JUMP JUMPDEST PUSH2 0xDDE DUP2 PUSH2 0x14B2 JUMP JUMPDEST DUP2 ISZERO DUP1 ISZERO SWAP1 PUSH2 0xE12 JUMPI POP PUSH1 0x2 DUP2 PUSH1 0x81 DUP2 LT PUSH2 0xDFB JUMPI PUSH2 0xDFB PUSH2 0x17B5 JUMP JUMPDEST PUSH1 0x20 DUP2 DIV SWAP1 SWAP2 ADD SLOAD PUSH1 0xFF PUSH1 0x1F SWAP1 SWAP3 AND PUSH2 0x100 EXP SWAP1 DIV AND JUMPDEST ISZERO PUSH2 0x7BD JUMPI PUSH1 0x0 PUSH2 0xE23 SELFBALANCE DUP5 PUSH2 0x14D3 JUMP JUMPDEST SWAP1 POP DUP1 PUSH1 0x0 SUB PUSH2 0xE33 JUMPI POP PUSH2 0x7BD JUMP JUMPDEST PUSH2 0x805 PUSH4 0x1FC9B141 PUSH1 0x0 DUP1 MLOAD PUSH1 0x20 PUSH2 0x1831 DUP4 CODECOPY DUP2 MLOAD SWAP2 MSTORE PUSH2 0xE53 DUP5 PUSH2 0x14EB JUMP JUMPDEST PUSH1 0x40 MLOAD PUSH1 0x1 PUSH1 0x1 PUSH1 0xE0 SHL SUB NOT PUSH1 0xE0 DUP6 SWAP1 SHL AND DUP2 MSTORE PUSH1 0x4 DUP2 ADD SWAP3 SWAP1 SWAP3 MSTORE PUSH1 0x24 DUP3 ADD MSTORE PUSH1 0x44 DUP2 ADD DUP6 SWAP1 MSTORE PUSH1 0x64 ADD PUSH1 0x0 PUSH1 0x40 MLOAD DUP1 DUP4 SUB DUP2 PUSH1 0x0 DUP8 DUP1 EXTCODESIZE ISZERO DUP1 ISZERO PUSH2 0xE98 JUMPI PUSH1 0x0 DUP1 REVERT JUMPDEST POP GAS CALL ISZERO DUP1 ISZERO PUSH2 0xEAC JUMPI RETURNDATASIZE PUSH1 0x0 DUP1 RETURNDATACOPY RETURNDATASIZE PUSH1 0x0 REVERT JUMPDEST POP POP PUSH1 0x40 MLOAD PUSH4 0x69E38BC3 PUSH1 0xE0 SHL DUP2 MSTORE PUSH2 0xFFFF DUP6 AND PUSH1 0x4 DUP3 ADD MSTORE PUSH2 0x808 SWAP3 POP PUSH4 0x69E38BC3 SWAP2 POP PUSH1 0x24 ADD PUSH2 0x74F JUMP JUMPDEST PUSH2 0xEE1 PUSH2 0x13FF JUMP JUMPDEST PUSH2 0xEE9 PUSH2 0x1458 JUMP JUMPDEST DUP3 ISZERO PUSH2 0xD90 JUMPI PUSH1 0x0 JUMPDEST DUP2 DUP2 LT ISZERO PUSH2 0xD8E JUMPI PUSH1 0x0 DUP4 DUP4 DUP4 DUP2 DUP2 LT PUSH2 0xF0E JUMPI PUSH2 0xF0E PUSH2 0x17B5 JUMP JUMPDEST SWAP1 POP PUSH1 0x20 MUL ADD CALLDATALOAD SWAP1 POP PUSH2 0xF20 DUP2 PUSH2 0x14B2 JUMP JUMPDEST PUSH1 0x2 DUP2 PUSH1 0x81 DUP2 LT PUSH2 0xF33 JUMPI PUSH2 0xF33 PUSH2 0x17B5 JUMP JUMPDEST PUSH1 0x20 DUP2 DIV SWAP1 SWAP2 ADD SLOAD PUSH1 0xFF PUSH1 0x1F SWAP1 SWAP3 AND PUSH2 0x100 EXP SWAP1 DIV AND PUSH2 0x10B3 JUMPI PUSH1 0x0 PUSH2 0xF59 SELFBALANCE DUP8 PUSH2 0x14D3 JUMP JUMPDEST SWAP1 POP DUP1 PUSH1 0x0 SUB PUSH2 0xF6B JUMPI POP POP POP PUSH2 0xD90 JUMP JUMPDEST PUSH2 0x805 PUSH4 0x1FC9B141 PUSH1 0x0 DUP1 MLOAD PUSH1 0x20 PUSH2 0x1831 DUP4 CODECOPY DUP2 MLOAD SWAP2 MSTORE PUSH2 0xF8B DUP5 PUSH2 0x14EB JUMP JUMPDEST PUSH1 0x40 MLOAD PUSH1 0x1 PUSH1 0x1 PUSH1 0xE0 SHL SUB NOT PUSH1 0xE0 DUP6 SWAP1 SHL AND DUP2 MSTORE PUSH1 0x4 DUP2 ADD SWAP3 SWAP1 SWAP3 MSTORE PUSH1 0x24 DUP3 ADD MSTORE PUSH1 0x44 DUP2 ADD DUP6 SWAP1 MSTORE PUSH1 0x64 ADD PUSH1 0x0 PUSH1 0x40 MLOAD DUP1 DUP4 SUB DUP2 PUSH1 0x0 DUP8 DUP1 EXTCODESIZE ISZERO DUP1 ISZERO PUSH2 0xFD0 JUMPI PUSH1 0x0 DUP1 REVERT JUMPDEST POP GAS CALL ISZERO DUP1 ISZERO PUSH2 0xFE4 JUMPI RETURNDATASIZE PUSH1 0x0 DUP1 RETURNDATACOPY RETURNDATASIZE PUSH1 0x0 REVERT JUMPDEST POP POP POP POP PUSH1 0x1 PUSH1 0x2 DUP4 PUSH1 0x81 DUP2 LT PUSH2 0xFFD JUMPI PUSH2 0xFFD PUSH2 0x17B5 JUMP JUMPDEST PUSH1 0x20 DUP2 DIV SWAP1 SWAP2 ADD DUP1 SLOAD SWAP3 ISZERO ISZERO PUSH1 0x1F SWAP1 SWAP3 AND PUSH2 0x100 EXP SWAP2 DUP3 MUL PUSH1 0xFF SWAP1 SWAP3 MUL NOT SWAP1 SWAP3 AND OR SWAP1 SSTORE PUSH1 0x40 MLOAD PUSH4 0x69E38BC3 PUSH1 0xE0 SHL DUP2 MSTORE PUSH2 0xFFFF DUP4 AND PUSH1 0x4 DUP3 ADD MSTORE PUSH2 0x808 SWAP1 PUSH4 0x69E38BC3 SWAP1 PUSH1 0x24 ADD PUSH1 0x20 PUSH1 0x40 MLOAD DUP1 DUP4 SUB DUP2 DUP7 GAS STATICCALL ISZERO DUP1 ISZERO PUSH2 0x1062 JUMPI RETURNDATASIZE PUSH1 0x0 DUP1 RETURNDATACOPY RETURNDATASIZE PUSH1 0x0 REVERT JUMPDEST POP POP POP POP PUSH1 0x40 MLOAD RETURNDATASIZE PUSH1 0x1F NOT PUSH1 0x1F DUP3 ADD AND DUP3 ADD DUP1 PUSH1 0x40 MSTORE POP DUP2 ADD SWAP1 PUSH2 0x1086 SWAP2 SWAP1 PUSH2 0x17CB JUMP JUMPDEST PUSH1 0x7 DUP4 PUSH1 0x81 DUP2 LT PUSH2 0x1099 JUMPI PUSH2 0x1099 PUSH2 0x17B5 JUMP JUMPDEST ADD SSTORE TIMESTAMP PUSH1 0x88 DUP4 PUSH1 0x81 DUP2 LT PUSH2 0x10AF JUMPI PUSH2 0x10AF PUSH2 0x17B5 JUMP JUMPDEST ADD SSTORE POP JUMPDEST POP PUSH1 0x1 ADD PUSH2 0xEF2 JUMP JUMPDEST PUSH2 0x10C4 PUSH2 0x154B JUMP JUMPDEST PUSH1 0x40 DUP1 MLOAD PUSH2 0x1020 DUP2 ADD SWAP2 DUP3 SWAP1 MSTORE SWAP1 PUSH1 0x2 SWAP1 PUSH1 0x81 SWAP1 DUP3 PUSH1 0x0 DUP6 JUMPDEST DUP3 SLOAD PUSH2 0x100 DUP4 SWAP1 EXP SWAP1 DIV PUSH1 0xFF AND ISZERO ISZERO DUP2 MSTORE PUSH1 0x20 PUSH1 0x1 SWAP3 DUP4 ADD DUP2 DUP2 DIV SWAP5 DUP6 ADD SWAP5 SWAP1 SWAP4 SUB SWAP1 SWAP3 MUL SWAP2 ADD DUP1 DUP5 GT PUSH2 0x10DD JUMPI SWAP1 POP POP POP POP POP POP SWAP1 POP SWAP1 JUMP JUMPDEST PUSH2 0x111F PUSH2 0x13FF JUMP JUMPDEST PUSH2 0x1127 PUSH2 0x1458 JUMP JUMPDEST PUSH2 0x1130 DUP2 PUSH2 0x14B2 JUMP JUMPDEST PUSH1 0x2 DUP2 PUSH1 0x81 DUP2 LT PUSH2 0x1143 JUMPI PUSH2 0x1143 PUSH2 0x17B5 JUMP JUMPDEST PUSH1 0x20 DUP2 DIV SWAP1 SWAP2 ADD SLOAD PUSH1 0xFF PUSH1 0x1F SWAP1 SWAP3 AND PUSH2 0x100 EXP SWAP1 DIV AND DUP1 ISZERO PUSH2 0x1179 JUMPI POP PUSH1 0x88 DUP2 PUSH1 0x81 DUP2 LT PUSH2 0x1173 JUMPI PUSH2 0x1173 PUSH2 0x17B5 JUMP JUMPDEST ADD SLOAD TIMESTAMP EQ ISZERO JUMPDEST ISZERO PUSH2 0x121A JUMPI PUSH1 0x40 MLOAD PUSH4 0xD4626BB9 PUSH1 0xE0 SHL DUP2 MSTORE PUSH1 0x0 DUP1 MLOAD PUSH1 0x20 PUSH2 0x1831 DUP4 CODECOPY DUP2 MLOAD SWAP2 MSTORE PUSH1 0x4 DUP3 ADD MSTORE PUSH1 0x24 DUP2 ADD DUP3 SWAP1 MSTORE PUSH2 0x805 SWAP1 PUSH4 0xD4626BB9 SWAP1 PUSH1 0x44 ADD PUSH1 0x0 PUSH1 0x40 MLOAD DUP1 DUP4 SUB DUP2 PUSH1 0x0 DUP8 DUP1 EXTCODESIZE ISZERO DUP1 ISZERO PUSH2 0x11CD JUMPI PUSH1 0x0 DUP1 REVERT JUMPDEST POP GAS CALL ISZERO DUP1 ISZERO PUSH2 0x11E1 JUMPI RETURNDATASIZE PUSH1 0x0 DUP1 RETURNDATACOPY RETURNDATASIZE PUSH1 0x0 REVERT JUMPDEST POP POP POP POP PUSH1 0x0 PUSH1 0x2 DUP3 PUSH1 0x81 DUP2 LT PUSH2 0x11FA JUMPI PUSH2 0x11FA PUSH2 0x17B5 JUMP JUMPDEST PUSH1 0x20 SWAP2 DUP3 DUP3 DIV ADD SWAP2 SWAP1 MOD PUSH2 0x100 EXP DUP2 SLOAD DUP2 PUSH1 0xFF MUL NOT AND SWAP1 DUP4 ISZERO ISZERO MUL OR SWAP1 SSTORE POP JUMPDEST PUSH2 0x1223 PUSH1 0x1 DUP1 SSTORE JUMP JUMPDEST POP JUMP JUMPDEST PUSH2 0x122E PUSH2 0x1458 JUMP JUMPDEST PUSH1 0x1 PUSH1 0x1 PUSH1 0xA0 SHL SUB DUP2 AND PUSH2 0x1298 JUMPI PUSH1 0x40 MLOAD PUSH3 0x461BCD PUSH1 0xE5 SHL DUP2 MSTORE PUSH1 0x20 PUSH1 0x4 DUP3 ADD MSTORE PUSH1 0x26 PUSH1 0x24 DUP3 ADD MSTORE PUSH32 0x4F776E61626C653A206E6577206F776E657220697320746865207A65726F2061 PUSH1 0x44 DUP3 ADD MSTORE PUSH6 0x646472657373 PUSH1 0xD0 SHL PUSH1 0x64 DUP3 ADD MSTORE PUSH1 0x84 ADD JUMPDEST PUSH1 0x40 MLOAD DUP1 SWAP2 SUB SWAP1 REVERT JUMPDEST PUSH2 0x1223 DUP2 PUSH2 0x14FB JUMP JUMPDEST PUSH2 0x109 SLOAD PUSH1 0x1 PUSH1 0x1 PUSH1 0xA0 SHL SUB AND CALLER EQ PUSH2 0x12CD JUMPI PUSH1 0x40 MLOAD PUSH4 0x2D99BC83 PUSH1 0xE2 SHL DUP2 MSTORE PUSH1 0x4 ADD PUSH1 0x40 MLOAD DUP1 SWAP2 SUB SWAP1 REVERT JUMPDEST PUSH1 0x1 PUSH1 0x1 PUSH1 0xA0 SHL SUB DUP3 AND PUSH2 0x12F4 JUMPI PUSH1 0x40 MLOAD PUSH4 0xE6C4247B PUSH1 0xE0 SHL DUP2 MSTORE PUSH1 0x4 ADD PUSH1 0x40 MLOAD DUP1 SWAP2 SUB SWAP1 REVERT JUMPDEST DUP1 PUSH1 0x0 SUB PUSH2 0x1315 JUMPI PUSH1 0x40 MLOAD PUSH4 0x65E52D51 PUSH1 0xE1 SHL DUP2 MSTORE PUSH1 0x4 ADD PUSH1 0x40 MLOAD DUP1 SWAP2 SUB SWAP1 REVERT JUMPDEST PUSH1 0x0 DUP3 PUSH1 0x1 PUSH1 0x1 PUSH1 0xA0 SHL SUB AND DUP3 PUSH1 0x40 MLOAD PUSH1 0x0 PUSH1 0x40 MLOAD DUP1 DUP4 SUB DUP2 DUP6 DUP8 GAS CALL SWAP3 POP POP POP RETURNDATASIZE DUP1 PUSH1 0x0 DUP2 EQ PUSH2 0x1362 JUMPI PUSH1 0x40 MLOAD SWAP2 POP PUSH1 0x1F NOT PUSH1 0x3F RETURNDATASIZE ADD AND DUP3 ADD PUSH1 0x40 MSTORE RETURNDATASIZE DUP3 MSTORE RETURNDATASIZE PUSH1 0x0 PUSH1 0x20 DUP5 ADD RETURNDATACOPY PUSH2 0x1367 JUMP JUMPDEST PUSH1 0x60 SWAP2 POP JUMPDEST POP POP SWAP1 POP DUP1 PUSH2 0xD99 JUMPI PUSH1 0x40 MLOAD PUSH4 0x12171D83 PUSH1 0xE3 SHL DUP2 MSTORE PUSH1 0x4 ADD PUSH1 0x40 MLOAD DUP1 SWAP2 SUB SWAP1 REVERT JUMPDEST PUSH2 0x109 SLOAD PUSH1 0x1 PUSH1 0x1 PUSH1 0xA0 SHL SUB AND CALLER EQ PUSH2 0x13B5 JUMPI PUSH1 0x40 MLOAD PUSH4 0x2D99BC83 PUSH1 0xE2 SHL DUP2 MSTORE PUSH1 0x4 ADD PUSH1 0x40 MLOAD DUP1 SWAP2 SUB SWAP1 REVERT JUMPDEST PUSH1 0x1 PUSH1 0x1 PUSH1 0xA0 SHL SUB DUP2 AND PUSH2 0x13DC JUMPI PUSH1 0x40 MLOAD PUSH4 0xE6C4247B PUSH1 0xE0 SHL DUP2 MSTORE PUSH1 0x4 ADD PUSH1 0x40 MLOAD DUP1 SWAP2 SUB SWAP1 REVERT JUMPDEST SELFBALANCE PUSH1 0x0 DUP2 SWAP1 SUB PUSH2 0x1315 JUMPI PUSH1 0x40 MLOAD PUSH4 0x65E52D51 PUSH1 0xE1 SHL DUP2 MSTORE PUSH1 0x4 ADD PUSH1 0x40 MLOAD DUP1 SWAP2 SUB SWAP1 REVERT JUMPDEST PUSH1 0x2 PUSH1 0x1 SLOAD SUB PUSH2 0x1451 JUMPI PUSH1 0x40 MLOAD PUSH3 0x461BCD PUSH1 0xE5 SHL DUP2 MSTORE PUSH1 0x20 PUSH1 0x4 DUP3 ADD MSTORE PUSH1 0x1F PUSH1 0x24 DUP3 ADD MSTORE PUSH32 0x5265656E7472616E637947756172643A207265656E7472616E742063616C6C00 PUSH1 0x44 DUP3 ADD MSTORE PUSH1 0x64 ADD PUSH2 0x128F JUMP JUMPDEST PUSH1 0x2 PUSH1 0x1 SSTORE JUMP JUMPDEST PUSH1 0x0 SLOAD PUSH1 0x1 PUSH1 0x1 PUSH1 0xA0 SHL SUB AND CALLER EQ PUSH2 0xBE1 JUMPI PUSH1 0x40 MLOAD PUSH3 0x461BCD PUSH1 0xE5 SHL DUP2 MSTORE PUSH1 0x20 PUSH1 0x4 DUP3 ADD DUP2 SWAP1 MSTORE PUSH1 0x24 DUP3 ADD MSTORE PUSH32 0x4F776E61626C653A2063616C6C6572206973206E6F7420746865206F776E6572 PUSH1 0x44 DUP3 ADD MSTORE PUSH1 0x64 ADD PUSH2 0x128F JUMP JUMPDEST PUSH1 0x81 DUP2 LT PUSH2 0x1223 JUMPI PUSH1 0x40 MLOAD PUSH4 0x68A3A6C3 PUSH1 0xE1 SHL DUP2 MSTORE PUSH1 0x4 ADD PUSH1 0x40 MLOAD DUP1 SWAP2 SUB SWAP1 REVERT JUMPDEST PUSH1 0x0 DUP2 DUP4 LT PUSH2 0x14E2 JUMPI DUP2 PUSH2 0x14E4 JUMP JUMPDEST DUP3 JUMPDEST SWAP4 SWAP3 POP POP POP JUMP JUMPDEST PUSH1 0x0 PUSH2 0x981 PUSH4 0x3B9ACA00 DUP4 PUSH2 0x180E JUMP JUMPDEST PUSH1 0x0 DUP1 SLOAD PUSH1 0x1 PUSH1 0x1 PUSH1 0xA0 SHL SUB DUP4 DUP2 AND PUSH1 0x1 PUSH1 0x1 PUSH1 0xA0 SHL SUB NOT DUP4 AND DUP2 OR DUP5 SSTORE PUSH1 0x40 MLOAD SWAP2 SWAP1 SWAP3 AND SWAP3 DUP4 SWAP2 PUSH32 0x8BE0079C531659141344CD1FD0A4F28419497F9722A3DAAFE3B4186F6B6457E0 SWAP2 SWAP1 LOG3 POP POP JUMP JUMPDEST PUSH1 0x40 MLOAD DUP1 PUSH2 0x1020 ADD PUSH1 0x40 MSTORE DUP1 PUSH1 0x81 SWAP1 PUSH1 0x20 DUP3 MUL DUP1 CALLDATASIZE DUP4 CALLDATACOPY POP SWAP2 SWAP3 SWAP2 POP POP JUMP JUMPDEST PUSH1 0x0 DUP1 DUP4 PUSH1 0x1F DUP5 ADD SLT PUSH2 0x157C JUMPI PUSH1 0x0 DUP1 REVERT JUMPDEST POP DUP2 CALLDATALOAD PUSH8 0xFFFFFFFFFFFFFFFF DUP2 GT ISZERO PUSH2 0x1594 JUMPI PUSH1 0x0 DUP1 REVERT JUMPDEST PUSH1 0x20 DUP4 ADD SWAP2 POP DUP4 PUSH1 0x20 DUP3 PUSH1 0x5 SHL DUP6 ADD ADD GT ISZERO PUSH2 0x15AF JUMPI PUSH1 0x0 DUP1 REVERT JUMPDEST SWAP3 POP SWAP3 SWAP1 POP JUMP JUMPDEST PUSH1 0x0 DUP1 PUSH1 0x20 DUP4 DUP6 SUB SLT ISZERO PUSH2 0x15C9 JUMPI PUSH1 0x0 DUP1 REVERT JUMPDEST DUP3 CALLDATALOAD PUSH8 0xFFFFFFFFFFFFFFFF DUP2 GT ISZERO PUSH2 0x15E0 JUMPI PUSH1 0x0 DUP1 REVERT JUMPDEST PUSH2 0x15EC DUP6 DUP3 DUP7 ADD PUSH2 0x156A JUMP JUMPDEST SWAP1 SWAP7 SWAP1 SWAP6 POP SWAP4 POP POP POP POP JUMP JUMPDEST PUSH1 0x0 PUSH1 0x20 DUP3 DUP5 SUB SLT ISZERO PUSH2 0x160A JUMPI PUSH1 0x0 DUP1 REVERT JUMPDEST POP CALLDATALOAD SWAP2 SWAP1 POP JUMP JUMPDEST DUP1 CALLDATALOAD PUSH1 0x1 PUSH1 0x1 PUSH1 0xA0 SHL SUB DUP2 AND DUP2 EQ PUSH2 0x1628 JUMPI PUSH1 0x0 DUP1 REVERT JUMPDEST SWAP2 SWAP1 POP JUMP JUMPDEST PUSH1 0x0 PUSH1 0x20 DUP3 DUP5 SUB SLT ISZERO PUSH2 0x163F JUMPI PUSH1 0x0 DUP1 REVERT JUMPDEST PUSH2 0x14E4 DUP3 PUSH2 0x1611 JUMP JUMPDEST PUSH1 0x0 DUP1 PUSH1 0x40 DUP4 DUP6 SUB SLT ISZERO PUSH2 0x165B JUMPI PUSH1 0x0 DUP1 REVERT JUMPDEST POP POP DUP1 CALLDATALOAD SWAP3 PUSH1 0x20 SWAP1 SWAP2 ADD CALLDATALOAD SWAP2 POP JUMP JUMPDEST DUP1 PUSH1 0x0 JUMPDEST PUSH1 0x81 DUP2 LT ISZERO PUSH2 0x168D JUMPI DUP2 MLOAD DUP5 MSTORE PUSH1 0x20 SWAP4 DUP5 ADD SWAP4 SWAP1 SWAP2 ADD SWAP1 PUSH1 0x1 ADD PUSH2 0x166E JUMP JUMPDEST POP POP POP POP JUMP JUMPDEST PUSH2 0x1020 DUP2 ADD PUSH2 0x981 DUP3 DUP5 PUSH2 0x166A JUMP JUMPDEST DUP1 PUSH1 0x0 JUMPDEST PUSH1 0x81 DUP2 LT ISZERO PUSH2 0x168D JUMPI DUP2 MLOAD ISZERO ISZERO DUP5 MSTORE PUSH1 0x20 SWAP4 DUP5 ADD SWAP4 SWAP1 SWAP2 ADD SWAP1 PUSH1 0x1 ADD PUSH2 0x16A6 JUMP JUMPDEST PUSH2 0x4080 DUP2 ADD PUSH2 0x16D6 DUP3 DUP8 PUSH2 0x166A JUMP JUMPDEST PUSH2 0x1020 DUP3 ADD DUP6 PUSH1 0x0 JUMPDEST PUSH1 0x81 DUP2 LT ISZERO PUSH2 0x1708 JUMPI DUP2 MLOAD PUSH8 0xFFFFFFFFFFFFFFFF AND DUP4 MSTORE PUSH1 0x20 SWAP3 DUP4 ADD SWAP3 SWAP1 SWAP2 ADD SWAP1 PUSH1 0x1 ADD PUSH2 0x16DF JUMP JUMPDEST POP POP POP PUSH2 0x1719 PUSH2 0x2040 DUP4 ADD DUP6 PUSH2 0x16A2 JUMP JUMPDEST PUSH2 0x1727 PUSH2 0x3060 DUP4 ADD DUP5 PUSH2 0x166A JUMP JUMPDEST SWAP6 SWAP5 POP POP POP POP POP JUMP JUMPDEST PUSH1 0x0 DUP1 PUSH1 0x0 PUSH1 0x40 DUP5 DUP7 SUB SLT ISZERO PUSH2 0x1745 JUMPI PUSH1 0x0 DUP1 REVERT JUMPDEST DUP4 CALLDATALOAD SWAP3 POP PUSH1 0x20 DUP5 ADD CALLDATALOAD PUSH8 0xFFFFFFFFFFFFFFFF DUP2 GT ISZERO PUSH2 0x1763 JUMPI PUSH1 0x0 DUP1 REVERT JUMPDEST PUSH2 0x176F DUP7 DUP3 DUP8 ADD PUSH2 0x156A JUMP JUMPDEST SWAP5 SWAP8 SWAP1 SWAP7 POP SWAP4 SWAP5 POP POP POP POP JUMP JUMPDEST PUSH2 0x1020 DUP2 ADD PUSH2 0x981 DUP3 DUP5 PUSH2 0x16A2 JUMP JUMPDEST PUSH1 0x0 DUP1 PUSH1 0x40 DUP4 DUP6 SUB SLT ISZERO PUSH2 0x179E JUMPI PUSH1 0x0 DUP1 REVERT JUMPDEST PUSH2 0x17A7 DUP4 PUSH2 0x1611 JUMP JUMPDEST SWAP5 PUSH1 0x20 SWAP4 SWAP1 SWAP4 ADD CALLDATALOAD SWAP4 POP POP POP JUMP JUMPDEST PUSH4 0x4E487B71 PUSH1 0xE0 SHL PUSH1 0x0 MSTORE PUSH1 0x32 PUSH1 0x4 MSTORE PUSH1 0x24 PUSH1 0x0 REVERT JUMPDEST PUSH1 0x0 PUSH1 0x20 DUP3 DUP5 SUB SLT ISZERO PUSH2 0x17DD JUMPI PUSH1 0x0 DUP1 REVERT JUMPDEST POP MLOAD SWAP2 SWAP1 POP JUMP JUMPDEST PUSH1 0x0 PUSH1 0x20 DUP3 DUP5 SUB SLT ISZERO PUSH2 0x17F6 JUMPI PUSH1 0x0 DUP1 REVERT JUMPDEST DUP2 MLOAD PUSH8 0xFFFFFFFFFFFFFFFF DUP2 AND DUP2 EQ PUSH2 0x14E4 JUMPI PUSH1 0x0 DUP1 REVERT JUMPDEST PUSH1 0x0 DUP3 PUSH2 0x182B JUMPI PUSH4 0x4E487B71 PUSH1 0xE0 SHL PUSH1 0x0 MSTORE PUSH1 0x12 PUSH1 0x4 MSTORE PUSH1 0x24 PUSH1 0x0 REVERT JUMPDEST POP DIV SWAP1 JUMP INVALID 0xB4 0xC0 DUP8 GT SWAP1 SWAP8 0xFB 0xE3 SWAP9 MSTORE SWAP9 0xEE CREATE2 0x2F CALLDATALOAD 0xEF PUSH3 0x71C483 0x22 0xA8 0xC2 0xD4 ADDRESS SWAP1 0x2A SWAP13 0xC3 DUP14 SWAP5 PUSH20 0xA2646970667358221220F00A3E8D228523DD01B2 0xBF GT PUSH22 0x725A492FE4BC04D245263EBC719F198FC9CF8664736F PUSH13 0x63430008160033000000000000 "},"methodIdentifiers":{"add_stake(uint256,uint256)":"10d67406","add_stakes(uint256,uint256[])":"ac0c34cc","emergencyWithdrawTao(address,uint256)":"f528c62e","force_remove_stake(uint256)":"ea07a542","force_remove_stakes(uint256[])":"01fda331","getInfo()":"5a9b0b89","getIsStaked()":"ddd8a4c8","getStakedAmount(bytes32)":"337a1737","getStakedAmount(uint256)":"5a5392be","getStakedPrices()":"3d4ac3c2","getTimestamps()":"59abbfe4","increase_stake(uint256,uint256)":"aa099a7b","increase_stakes(uint256,uint256[])":"961216cb","is_staked(uint256)":"08b41c01","lastStakeTimestamp(uint256)":"9a900394","owner()":"8da5cb5b","renounceOwnership()":"715018a6","setWithdrawer(address)":"0d174c24","staked_prices(uint256)":"a75d3564","transferOwnership(address)":"f2fde38b","validatorHotkey()":"c7687c22","withdrawAll(address)":"fa09e630","withdrawer()":"cdc18424"}}}}}