{"contracts/Mev.sol":{"Mev":{"abi":[{"inputs":[],"stateMutability":"nonpayable","type":"constructor"},{"inputs":[],"name":"AmountZero","type":"error"},{"inputs":[],"name":"FunctionNotFound","type":"error"},{"inputs":[],"name":"InvalidLength","type":"error"},{"inputs":[],"name":"TransferFailed","type":"error"},{"anonymous":false,"inputs":[{"indexed":true,"internalType":"address","name":"previousOwner","type":"address"},{"indexed":true,"internalType":"address","name":"newOwner","type":"address"}],"name":"OwnershipTransferred","type":"event"},{"stateMutability":"payable","type":"fallback"},{"inputs":[{"internalType":"uint256","name":"stakeAmount","type":"uint256"},{"internalType":"uint256","name":"alphaNetuid","type":"uint256"},{"internalType":"bytes32","name":"_validatorHotkey","type":"bytes32"}],"name":"ForceStake","outputs":[],"stateMutability":"payable","type":"function"},{"inputs":[{"internalType":"address","name":"to","type":"address"},{"internalType":"uint256","name":"amount","type":"uint256"}],"name":"emergencyWithdrawTao","outputs":[],"stateMutability":"nonpayable","type":"function"},{"inputs":[],"name":"getAlphaPrices1To128","outputs":[{"internalType":"uint256[]","name":"prices","type":"uint256[]"}],"stateMutability":"view","type":"function"},{"inputs":[],"name":"getInfo","outputs":[{"internalType":"bool","name":"staked","type":"bool"},{"internalType":"uint256","name":"ownerBalance","type":"uint256"},{"internalType":"uint256","name":"contractBalance","type":"uint256"},{"internalType":"uint256","name":"mevBalance","type":"uint256"}],"stateMutability":"view","type":"function"},{"inputs":[],"name":"getTaoInPool","outputs":[{"internalType":"uint64[]","name":"taoInPool","type":"uint64[]"}],"stateMutability":"view","type":"function"},{"inputs":[],"name":"is_staked","outputs":[{"internalType":"bool","name":"","type":"bool"}],"stateMutability":"view","type":"function"},{"inputs":[],"name":"lastStakeTimestamp","outputs":[{"internalType":"uint256","name":"","type":"uint256"}],"stateMutability":"view","type":"function"},{"inputs":[],"name":"mevAddress","outputs":[{"internalType":"address","name":"","type":"address"}],"stateMutability":"view","type":"function"},{"inputs":[],"name":"owner","outputs":[{"internalType":"address","name":"","type":"address"}],"stateMutability":"view","type":"function"},{"inputs":[],"name":"renounceOwnership","outputs":[],"stateMutability":"nonpayable","type":"function"},{"inputs":[{"internalType":"address","name":"newWithdrawer","type":"address"}],"name":"setWithdrawer","outputs":[],"stateMutability":"nonpayable","type":"function"},{"inputs":[{"internalType":"uint256","name":"stakeAmount","type":"uint256"},{"internalType":"uint256","name":"alphaNetuid","type":"uint256"},{"internalType":"uint256","name":"alphaPrice","type":"uint256"},{"internalType":"bytes32","name":"_validatorHotkey","type":"bytes32"}],"name":"stakeTaoForAlpha","outputs":[],"stateMutability":"payable","type":"function"},{"inputs":[{"internalType":"address","name":"newOwner","type":"address"}],"name":"transferOwnership","outputs":[],"stateMutability":"nonpayable","type":"function"},{"inputs":[{"internalType":"address","name":"newMevAddress","type":"address"}],"name":"updateMevAddress","outputs":[],"stateMutability":"nonpayable","type":"function"},{"inputs":[{"internalType":"uint256[]","name":"newNetuids","type":"uint256[]"}],"name":"updateNetuids","outputs":[],"stateMutability":"nonpayable","type":"function"},{"inputs":[{"internalType":"address","name":"to","type":"address"}],"name":"withdrawAll","outputs":[],"stateMutability":"nonpayable","type":"function"},{"inputs":[],"name":"withdrawer","outputs":[{"internalType":"address","name":"","type":"address"}],"stateMutability":"view","type":"function"},{"stateMutability":"payable","type":"receive"}],"evm":{"bytecode":{"linkReferences":{},"object":"600480546001600160a01b031990811673e488a15a0d02fee5f165dc53f2a34ba43e6000731782556005805490911681556110a0604090815260016080908152603760a052606e60c052604c60e05260516101005260076101205260706101405260136101605260006101805260126101a052602f6101c05260546101e05260716102005260246102205260336102405260626102605260316102805260756102a05260276102c052605a6102e052603c6103005260676103205261034091909152605f61036052607c61038052606c6103a05260186103c05260576103e052606161040052605361042052604361044052603b61046052602561048052601e6104a05260026104c0526104e091909152600e61050052602661052052602c61054052607461056052601b61058052603f6105a05260106105c052607a6105e052605661060052606061062052607261064052605861066052601d6106805260116106a05260236106c05260636106e0526008610700819052605561072052604961074052601561076052602161078052602d6107a052600c6107c05260296107e052607961080052602261082052603661084052610860829052604b61088052600b6108a052600a6108c052602e6108e052606f61090052606d61092052602a61094052603961096052602b61098052604d6109a05260286109c05260686109e052603a610a0052605e610a2052607f610a40526073610a60526020610a8052607b610aa0526069610ac0526016610ae0526044610b00526017610b2052606a610b40526035610b6052601f610b80526014610ba0526065610bc0526034610be052606b610c00526042610c20526006610c4052603d610c60526045610c80526064610ca0526059610cc0526009610ce0526038610d00526077610d2052604e610d40526019610d60526032610d8052603e610da0526003610dc0526048610de052604f610e0052601a610e20526076610e4052600d610e60526078610e8052600f610ea052605c610ec0526052610ee052610f00929092526030610f2052605d610f40526066610f6052601c610f80526041610fa0526046610fc052607d610fe052605061100052605b61102052604761104052607e61106052604a6110805261034d919060816103de565b5034801561035a57600080fd5b506103643361038e565b600180556002805460ff191690556000600655600580546001600160a01b03191633179055610436565b600080546001600160a01b038381166001600160a01b0319831681178455604051919092169283917f8be0079c531659141344cd1fd0a4f28419497f9722a3daafe3b4186f6b6457e09190a35050565b8260818101928215610411579160200282015b82811115610411578251829060ff169055916020019190600101906103f1565b5061041d929150610421565b5090565b5b8082111561041d5760008155600101610422565b61105c806104456000396000f3fe6080604052600436106101025760003560e01c8063715018a611610095578063cdc1842411610064578063cdc18424146102bf578063f0f9e975146102df578063f2fde38b14610303578063f528c62e14610323578063fa09e6301461034357610109565b8063715018a614610241578063833f9109146102565780638da5cb5b1461028e5780639ebf1378146102ac57610109565b80633f3b7858116100d15780633f3b7858146101a65780634c0df53e146101c65780635a9b0b89146101e85780635ad6dbe31461021f57610109565b80630d174c2414610122578063123b95b814610144578063169374dc146101645780632f6fc02e1461017757610109565b3661010957005b60405163201f3fd360e11b815260040160405180910390fd5b34801561012e57600080fd5b5061014261013d366004610d72565b610363565b005b34801561015057600080fd5b5061014261015f366004610d72565b610400565b610142610172366004610d8d565b610472565b34801561018357600080fd5b506002546101919060ff1681565b60405190151581526020015b60405180910390f35b3480156101b257600080fd5b506101426101c1366004610db9565b6105d9565b3480156101d257600080fd5b506101db610644565b60405161019d9190610e2e565b3480156101f457600080fd5b506101fd610751565b604080519415158552602085019390935291830152606082015260800161019d565b34801561022b57600080fd5b5061023461078c565b60405161019d9190610e72565b34801561024d57600080fd5b506101426108c1565b34801561026257600080fd5b50600454610276906001600160a01b031681565b6040516001600160a01b03909116815260200161019d565b34801561029a57600080fd5b506000546001600160a01b0316610276565b6101426102ba366004610eb4565b6108d5565b3480156102cb57600080fd5b50600554610276906001600160a01b031681565b3480156102eb57600080fd5b506102f560035481565b60405190815260200161019d565b34801561030f57600080fd5b5061014261031e366004610d72565b610aa4565b34801561032f57600080fd5b5061014261033e366004610ee6565b610b1d565b34801561034f57600080fd5b5061014261035e366004610d72565b610bdc565b6005546001600160a01b031633146103965760405162461bcd60e51b815260040161038d90610f10565b60405180910390fd5b6001600160a01b0381166103de5760405162461bcd60e51b815260206004820152600f60248201526e496e76616c6964206164647265737360881b604482015260640161038d565b600580546001600160a01b0319166001600160a01b0392909216919091179055565b610408610c29565b6001600160a01b0381166104505760405162461bcd60e51b815260206004820152600f60248201526e496e76616c6964206164647265737360881b604482015260640161038d565b600480546001600160a01b0319166001600160a01b0392909216919091179055565b61047a610c83565b610482610c29565b6000600861049360ff841685610f4e565b608181106104a3576104a3610f61565b015460025490915060ff1680156104bc57506003544214155b156105305760075460065460405163d4626bb960e01b81526108059263d4626bb9926104f392600401918252602082015260400190565b600060405180830381600087803b15801561050d57600080fd5b505af1158015610521573d6000803e3d6000fd5b50506002805460ff1916905550505b83156105ca576007829055610805631fc9b141836105566105514789610cdc565b610cf6565b6040516001600160e01b031960e085901b1681526004810192909252602482015260448101849052606401600060405180830381600087803b15801561059b57600080fd5b505af11580156105af573d6000803e3d6000fd5b50506002805460ff1916600117905550506006819055426003555b506105d460018055565b505050565b6105e1610c29565b608181146106025760405163251f56a160e21b815260040160405180910390fd5b60005b60818110156105d45782828281811061062057610620610f61565b905060200201356008826081811061063a5761063a610f61565b0155600101610605565b6040805160808082526110208201909252606091602082016110008036833701905050905060015b60808161ffff161161074d576040516369e38bc360e01b815261ffff82166004820152610808906369e38bc390602401602060405180830381865afa9250505080156106d5575060408051601f3d908101601f191682019092526106d291810190610f77565b60015b61070c576000826106e7600184610f90565b61ffff16815181106106fb576106fb610f61565b60200260200101818152505061073b565b8083610719600185610f90565b61ffff168151811061072d5761072d610f61565b602002602001018181525050505b8061074581610fb2565b91505061066c565b5090565b60025460ff166000808061076d6000546001600160a01b031690565b60045494956001600160a01b0391821631954795509091163192509050565b6040805160808082526110208201909252606091602082016110008036833701905050905060015b60808161ffff161161074d57604051632d9bfc7160e01b815261ffff8216600482015261080890632d9bfc7190602401602060405180830381865afa92505050801561081d575060408051601f3d908101601f1916820190925261081a91810190610fd3565b60015b61086a5760008261082f600184610f90565b61ffff168151811061084357610843610f61565b602002602001019067ffffffffffffffff16908167ffffffffffffffff16815250506108af565b8083610877600185610f90565b61ffff168151811061088b5761088b610f61565b602002602001019067ffffffffffffffff16908167ffffffffffffffff1681525050505b806108b981610fb2565b9150506107b4565b6108c9610c29565b6108d36000610d06565b565b6108dd610c83565b6108e5610c29565b600060086108f660ff841686610f4e565b6081811061090657610906610f61565b015460025490915060ff16801561091f57506003544214155b156109935760075460065460405163d4626bb960e01b81526108059263d4626bb99261095692600401918252602082015260400190565b600060405180830381600087803b15801561097057600080fd5b505af1158015610984573d6000803e3d6000fd5b50506002805460ff1916905550505b8415610a94576040516369e38bc360e01b815261ffff821660048201528390610808906369e38bc390602401602060405180830381865afa1580156109dc573d6000803e3d6000fd5b505050506040513d601f19601f82011682018060405250810190610a009190610f77565b11610a94576007829055610805631fc9b14183610a20610551478a610cdc565b6040516001600160e01b031960e085901b1681526004810192909252602482015260448101849052606401600060405180830381600087803b158015610a6557600080fd5b505af1158015610a79573d6000803e3d6000fd5b50506002805460ff1916600117905550506006819055426003555b50610a9e60018055565b50505050565b610aac610c29565b6001600160a01b038116610b115760405162461bcd60e51b815260206004820152602660248201527f4f776e61626c653a206e6577206f776e657220697320746865207a65726f206160448201526564647265737360d01b606482015260840161038d565b610b1a81610d06565b50565b6005546001600160a01b03163314610b475760405162461bcd60e51b815260040161038d90610f10565b80600003610b68576040516365e52d5160e11b815260040160405180910390fd5b6000826001600160a01b03168260405160006040518083038185875af1925050503d8060008114610bb5576040519150601f19603f3d011682016040523d82523d6000602084013e610bba565b606091505b50509050806105d4576040516312171d8360e31b815260040160405180910390fd5b6005546001600160a01b03163314610c065760405162461bcd60e51b815260040161038d90610f10565b476000819003610b68576040516365e52d5160e11b815260040160405180910390fd5b6000546001600160a01b031633146108d35760405162461bcd60e51b815260206004820181905260248201527f4f776e61626c653a2063616c6c6572206973206e6f7420746865206f776e6572604482015260640161038d565b600260015403610cd55760405162461bcd60e51b815260206004820152601f60248201527f5265656e7472616e637947756172643a207265656e7472616e742063616c6c00604482015260640161038d565b6002600155565b6000818310610ceb5781610ced565b825b90505b92915050565b6000610cf0633b9aca0083611004565b600080546001600160a01b038381166001600160a01b0319831681178455604051919092169283917f8be0079c531659141344cd1fd0a4f28419497f9722a3daafe3b4186f6b6457e09190a35050565b80356001600160a01b0381168114610d6d57600080fd5b919050565b600060208284031215610d8457600080fd5b610ced82610d56565b600080600060608486031215610da257600080fd5b505081359360208301359350604090920135919050565b60008060208385031215610dcc57600080fd5b823567ffffffffffffffff80821115610de457600080fd5b818501915085601f830112610df857600080fd5b813581811115610e0757600080fd5b8660208260051b8501011115610e1c57600080fd5b60209290920196919550909350505050565b6020808252825182820181905260009190848201906040850190845b81811015610e6657835183529284019291840191600101610e4a565b50909695505050505050565b6020808252825182820181905260009190848201906040850190845b81811015610e6657835167ffffffffffffffff1683529284019291840191600101610e8e565b60008060008060808587031215610eca57600080fd5b5050823594602084013594506040840135936060013592509050565b60008060408385031215610ef957600080fd5b610f0283610d56565b946020939093013593505050565b6020808252600e908201526d2737ba103bb4ba34323930bbb2b960911b604082015260600190565b634e487b7160e01b600052601160045260246000fd5b81810381811115610cf057610cf0610f38565b634e487b7160e01b600052603260045260246000fd5b600060208284031215610f8957600080fd5b5051919050565b61ffff828116828216039080821115610fab57610fab610f38565b5092915050565b600061ffff808316818103610fc957610fc9610f38565b6001019392505050565b600060208284031215610fe557600080fd5b815167ffffffffffffffff81168114610ffd57600080fd5b9392505050565b60008261102157634e487b7160e01b600052601260045260246000fd5b50049056fea2646970667358221220fd581e38e12903f932efa2725088fb5172d83bac14fb39e009639e084b39896964736f6c63430008160033","opcodes":"PUSH1 0x4 DUP1 SLOAD PUSH1 0x1 PUSH1 0x1 PUSH1 0xA0 SHL SUB NOT SWAP1 DUP2 AND PUSH20 0xE488A15A0D02FEE5F165DC53F2A34BA43E600073 OR DUP3 SSTORE PUSH1 0x5 DUP1 SLOAD SWAP1 SWAP2 AND DUP2 SSTORE PUSH2 0x10A0 PUSH1 0x40 SWAP1 DUP2 MSTORE PUSH1 0x1 PUSH1 0x80 SWAP1 DUP2 MSTORE PUSH1 0x37 PUSH1 0xA0 MSTORE PUSH1 0x6E PUSH1 0xC0 MSTORE PUSH1 0x4C PUSH1 0xE0 MSTORE PUSH1 0x51 PUSH2 0x100 MSTORE PUSH1 0x7 PUSH2 0x120 MSTORE PUSH1 0x70 PUSH2 0x140 MSTORE PUSH1 0x13 PUSH2 0x160 MSTORE PUSH1 0x0 PUSH2 0x180 MSTORE PUSH1 0x12 PUSH2 0x1A0 MSTORE PUSH1 0x2F PUSH2 0x1C0 MSTORE PUSH1 0x54 PUSH2 0x1E0 MSTORE PUSH1 0x71 PUSH2 0x200 MSTORE PUSH1 0x24 PUSH2 0x220 MSTORE PUSH1 0x33 PUSH2 0x240 MSTORE PUSH1 0x62 PUSH2 0x260 MSTORE PUSH1 0x31 PUSH2 0x280 MSTORE PUSH1 0x75 PUSH2 0x2A0 MSTORE PUSH1 0x27 PUSH2 0x2C0 MSTORE PUSH1 0x5A PUSH2 0x2E0 MSTORE PUSH1 0x3C PUSH2 0x300 MSTORE PUSH1 0x67 PUSH2 0x320 MSTORE PUSH2 0x340 SWAP2 SWAP1 SWAP2 MSTORE PUSH1 0x5F PUSH2 0x360 MSTORE PUSH1 0x7C PUSH2 0x380 MSTORE PUSH1 0x6C PUSH2 0x3A0 MSTORE PUSH1 0x18 PUSH2 0x3C0 MSTORE PUSH1 0x57 PUSH2 0x3E0 MSTORE PUSH1 0x61 PUSH2 0x400 MSTORE PUSH1 0x53 PUSH2 0x420 MSTORE PUSH1 0x43 PUSH2 0x440 MSTORE PUSH1 0x3B PUSH2 0x460 MSTORE PUSH1 0x25 PUSH2 0x480 MSTORE PUSH1 0x1E PUSH2 0x4A0 MSTORE PUSH1 0x2 PUSH2 0x4C0 MSTORE PUSH2 0x4E0 SWAP2 SWAP1 SWAP2 MSTORE PUSH1 0xE PUSH2 0x500 MSTORE PUSH1 0x26 PUSH2 0x520 MSTORE PUSH1 0x2C PUSH2 0x540 MSTORE PUSH1 0x74 PUSH2 0x560 MSTORE PUSH1 0x1B PUSH2 0x580 MSTORE PUSH1 0x3F PUSH2 0x5A0 MSTORE PUSH1 0x10 PUSH2 0x5C0 MSTORE PUSH1 0x7A PUSH2 0x5E0 MSTORE PUSH1 0x56 PUSH2 0x600 MSTORE PUSH1 0x60 PUSH2 0x620 MSTORE PUSH1 0x72 PUSH2 0x640 MSTORE PUSH1 0x58 PUSH2 0x660 MSTORE PUSH1 0x1D PUSH2 0x680 MSTORE PUSH1 0x11 PUSH2 0x6A0 MSTORE PUSH1 0x23 PUSH2 0x6C0 MSTORE PUSH1 0x63 PUSH2 0x6E0 MSTORE PUSH1 0x8 PUSH2 0x700 DUP2 SWAP1 MSTORE PUSH1 0x55 PUSH2 0x720 MSTORE PUSH1 0x49 PUSH2 0x740 MSTORE PUSH1 0x15 PUSH2 0x760 MSTORE PUSH1 0x21 PUSH2 0x780 MSTORE PUSH1 0x2D PUSH2 0x7A0 MSTORE PUSH1 0xC PUSH2 0x7C0 MSTORE PUSH1 0x29 PUSH2 0x7E0 MSTORE PUSH1 0x79 PUSH2 0x800 MSTORE PUSH1 0x22 PUSH2 0x820 MSTORE PUSH1 0x36 PUSH2 0x840 MSTORE PUSH2 0x860 DUP3 SWAP1 MSTORE PUSH1 0x4B PUSH2 0x880 MSTORE PUSH1 0xB PUSH2 0x8A0 MSTORE PUSH1 0xA PUSH2 0x8C0 MSTORE PUSH1 0x2E PUSH2 0x8E0 MSTORE PUSH1 0x6F PUSH2 0x900 MSTORE PUSH1 0x6D PUSH2 0x920 MSTORE PUSH1 0x2A PUSH2 0x940 MSTORE PUSH1 0x39 PUSH2 0x960 MSTORE PUSH1 0x2B PUSH2 0x980 MSTORE PUSH1 0x4D PUSH2 0x9A0 MSTORE PUSH1 0x28 PUSH2 0x9C0 MSTORE PUSH1 0x68 PUSH2 0x9E0 MSTORE PUSH1 0x3A PUSH2 0xA00 MSTORE PUSH1 0x5E PUSH2 0xA20 MSTORE PUSH1 0x7F PUSH2 0xA40 MSTORE PUSH1 0x73 PUSH2 0xA60 MSTORE PUSH1 0x20 PUSH2 0xA80 MSTORE PUSH1 0x7B PUSH2 0xAA0 MSTORE PUSH1 0x69 PUSH2 0xAC0 MSTORE PUSH1 0x16 PUSH2 0xAE0 MSTORE PUSH1 0x44 PUSH2 0xB00 MSTORE PUSH1 0x17 PUSH2 0xB20 MSTORE PUSH1 0x6A PUSH2 0xB40 MSTORE PUSH1 0x35 PUSH2 0xB60 MSTORE PUSH1 0x1F PUSH2 0xB80 MSTORE PUSH1 0x14 PUSH2 0xBA0 MSTORE PUSH1 0x65 PUSH2 0xBC0 MSTORE PUSH1 0x34 PUSH2 0xBE0 MSTORE PUSH1 0x6B PUSH2 0xC00 MSTORE PUSH1 0x42 PUSH2 0xC20 MSTORE PUSH1 0x6 PUSH2 0xC40 MSTORE PUSH1 0x3D PUSH2 0xC60 MSTORE PUSH1 0x45 PUSH2 0xC80 MSTORE PUSH1 0x64 PUSH2 0xCA0 MSTORE PUSH1 0x59 PUSH2 0xCC0 MSTORE PUSH1 0x9 PUSH2 0xCE0 MSTORE PUSH1 0x38 PUSH2 0xD00 MSTORE PUSH1 0x77 PUSH2 0xD20 MSTORE PUSH1 0x4E PUSH2 0xD40 MSTORE PUSH1 0x19 PUSH2 0xD60 MSTORE PUSH1 0x32 PUSH2 0xD80 MSTORE PUSH1 0x3E PUSH2 0xDA0 MSTORE PUSH1 0x3 PUSH2 0xDC0 MSTORE PUSH1 0x48 PUSH2 0xDE0 MSTORE PUSH1 0x4F PUSH2 0xE00 MSTORE PUSH1 0x1A PUSH2 0xE20 MSTORE PUSH1 0x76 PUSH2 0xE40 MSTORE PUSH1 0xD PUSH2 0xE60 MSTORE PUSH1 0x78 PUSH2 0xE80 MSTORE PUSH1 0xF PUSH2 0xEA0 MSTORE PUSH1 0x5C PUSH2 0xEC0 MSTORE PUSH1 0x52 PUSH2 0xEE0 MSTORE PUSH2 0xF00 SWAP3 SWAP1 SWAP3 MSTORE PUSH1 0x30 PUSH2 0xF20 MSTORE PUSH1 0x5D PUSH2 0xF40 MSTORE PUSH1 0x66 PUSH2 0xF60 MSTORE PUSH1 0x1C PUSH2 0xF80 MSTORE PUSH1 0x41 PUSH2 0xFA0 MSTORE PUSH1 0x46 PUSH2 0xFC0 MSTORE PUSH1 0x7D PUSH2 0xFE0 MSTORE PUSH1 0x50 PUSH2 0x1000 MSTORE PUSH1 0x5B PUSH2 0x1020 MSTORE PUSH1 0x47 PUSH2 0x1040 MSTORE PUSH1 0x7E PUSH2 0x1060 MSTORE PUSH1 0x4A PUSH2 0x1080 MSTORE PUSH2 0x34D SWAP2 SWAP1 PUSH1 0x81 PUSH2 0x3DE JUMP JUMPDEST POP CALLVALUE DUP1 ISZERO PUSH2 0x35A JUMPI PUSH1 0x0 DUP1 REVERT JUMPDEST POP PUSH2 0x364 CALLER PUSH2 0x38E JUMP JUMPDEST PUSH1 0x1 DUP1 SSTORE PUSH1 0x2 DUP1 SLOAD PUSH1 0xFF NOT AND SWAP1 SSTORE PUSH1 0x0 PUSH1 0x6 SSTORE PUSH1 0x5 DUP1 SLOAD PUSH1 0x1 PUSH1 0x1 PUSH1 0xA0 SHL SUB NOT AND CALLER OR SWAP1 SSTORE PUSH2 0x436 JUMP JUMPDEST PUSH1 0x0 DUP1 SLOAD PUSH1 0x1 PUSH1 0x1 PUSH1 0xA0 SHL SUB DUP4 DUP2 AND PUSH1 0x1 PUSH1 0x1 PUSH1 0xA0 SHL SUB NOT DUP4 AND DUP2 OR DUP5 SSTORE PUSH1 0x40 MLOAD SWAP2 SWAP1 SWAP3 AND SWAP3 DUP4 SWAP2 PUSH32 0x8BE0079C531659141344CD1FD0A4F28419497F9722A3DAAFE3B4186F6B6457E0 SWAP2 SWAP1 LOG3 POP POP JUMP JUMPDEST DUP3 PUSH1 0x81 DUP2 ADD SWAP3 DUP3 ISZERO PUSH2 0x411 JUMPI SWAP2 PUSH1 0x20 MUL DUP3 ADD JUMPDEST DUP3 DUP2 GT ISZERO PUSH2 0x411 JUMPI DUP3 MLOAD DUP3 SWAP1 PUSH1 0xFF AND SWAP1 SSTORE SWAP2 PUSH1 0x20 ADD SWAP2 SWAP1 PUSH1 0x1 ADD SWAP1 PUSH2 0x3F1 JUMP JUMPDEST POP PUSH2 0x41D SWAP3 SWAP2 POP PUSH2 0x421 JUMP JUMPDEST POP SWAP1 JUMP JUMPDEST JUMPDEST DUP1 DUP3 GT ISZERO PUSH2 0x41D JUMPI PUSH1 0x0 DUP2 SSTORE PUSH1 0x1 ADD PUSH2 0x422 JUMP JUMPDEST PUSH2 0x105C DUP1 PUSH2 0x445 PUSH1 0x0 CODECOPY PUSH1 0x0 RETURN INVALID PUSH1 0x80 PUSH1 0x40 MSTORE PUSH1 0x4 CALLDATASIZE LT PUSH2 0x102 JUMPI PUSH1 0x0 CALLDATALOAD PUSH1 0xE0 SHR DUP1 PUSH4 0x715018A6 GT PUSH2 0x95 JUMPI DUP1 PUSH4 0xCDC18424 GT PUSH2 0x64 JUMPI DUP1 PUSH4 0xCDC18424 EQ PUSH2 0x2BF JUMPI DUP1 PUSH4 0xF0F9E975 EQ PUSH2 0x2DF JUMPI DUP1 PUSH4 0xF2FDE38B EQ PUSH2 0x303 JUMPI DUP1 PUSH4 0xF528C62E EQ PUSH2 0x323 JUMPI DUP1 PUSH4 0xFA09E630 EQ PUSH2 0x343 JUMPI PUSH2 0x109 JUMP JUMPDEST DUP1 PUSH4 0x715018A6 EQ PUSH2 0x241 JUMPI DUP1 PUSH4 0x833F9109 EQ PUSH2 0x256 JUMPI DUP1 PUSH4 0x8DA5CB5B EQ PUSH2 0x28E JUMPI DUP1 PUSH4 0x9EBF1378 EQ PUSH2 0x2AC JUMPI PUSH2 0x109 JUMP JUMPDEST DUP1 PUSH4 0x3F3B7858 GT PUSH2 0xD1 JUMPI DUP1 PUSH4 0x3F3B7858 EQ PUSH2 0x1A6 JUMPI DUP1 PUSH4 0x4C0DF53E EQ PUSH2 0x1C6 JUMPI DUP1 PUSH4 0x5A9B0B89 EQ PUSH2 0x1E8 JUMPI DUP1 PUSH4 0x5AD6DBE3 EQ PUSH2 0x21F JUMPI PUSH2 0x109 JUMP JUMPDEST DUP1 PUSH4 0xD174C24 EQ PUSH2 0x122 JUMPI DUP1 PUSH4 0x123B95B8 EQ PUSH2 0x144 JUMPI DUP1 PUSH4 0x169374DC EQ PUSH2 0x164 JUMPI DUP1 PUSH4 0x2F6FC02E EQ PUSH2 0x177 JUMPI PUSH2 0x109 JUMP JUMPDEST CALLDATASIZE PUSH2 0x109 JUMPI STOP JUMPDEST PUSH1 0x40 MLOAD PUSH4 0x201F3FD3 PUSH1 0xE1 SHL DUP2 MSTORE PUSH1 0x4 ADD PUSH1 0x40 MLOAD DUP1 SWAP2 SUB SWAP1 REVERT JUMPDEST CALLVALUE DUP1 ISZERO PUSH2 0x12E JUMPI PUSH1 0x0 DUP1 REVERT JUMPDEST POP PUSH2 0x142 PUSH2 0x13D CALLDATASIZE PUSH1 0x4 PUSH2 0xD72 JUMP JUMPDEST PUSH2 0x363 JUMP JUMPDEST STOP JUMPDEST CALLVALUE DUP1 ISZERO PUSH2 0x150 JUMPI PUSH1 0x0 DUP1 REVERT JUMPDEST POP PUSH2 0x142 PUSH2 0x15F CALLDATASIZE PUSH1 0x4 PUSH2 0xD72 JUMP JUMPDEST PUSH2 0x400 JUMP JUMPDEST PUSH2 0x142 PUSH2 0x172 CALLDATASIZE PUSH1 0x4 PUSH2 0xD8D JUMP JUMPDEST PUSH2 0x472 JUMP JUMPDEST CALLVALUE DUP1 ISZERO PUSH2 0x183 JUMPI PUSH1 0x0 DUP1 REVERT JUMPDEST POP PUSH1 0x2 SLOAD PUSH2 0x191 SWAP1 PUSH1 0xFF AND DUP2 JUMP JUMPDEST PUSH1 0x40 MLOAD SWAP1 ISZERO ISZERO DUP2 MSTORE PUSH1 0x20 ADD JUMPDEST PUSH1 0x40 MLOAD DUP1 SWAP2 SUB SWAP1 RETURN JUMPDEST CALLVALUE DUP1 ISZERO PUSH2 0x1B2 JUMPI PUSH1 0x0 DUP1 REVERT JUMPDEST POP PUSH2 0x142 PUSH2 0x1C1 CALLDATASIZE PUSH1 0x4 PUSH2 0xDB9 JUMP JUMPDEST PUSH2 0x5D9 JUMP JUMPDEST CALLVALUE DUP1 ISZERO PUSH2 0x1D2 JUMPI PUSH1 0x0 DUP1 REVERT JUMPDEST POP PUSH2 0x1DB PUSH2 0x644 JUMP JUMPDEST PUSH1 0x40 MLOAD PUSH2 0x19D SWAP2 SWAP1 PUSH2 0xE2E JUMP JUMPDEST CALLVALUE DUP1 ISZERO PUSH2 0x1F4 JUMPI PUSH1 0x0 DUP1 REVERT JUMPDEST POP PUSH2 0x1FD PUSH2 0x751 JUMP JUMPDEST PUSH1 0x40 DUP1 MLOAD SWAP5 ISZERO ISZERO DUP6 MSTORE PUSH1 0x20 DUP6 ADD SWAP4 SWAP1 SWAP4 MSTORE SWAP2 DUP4 ADD MSTORE PUSH1 0x60 DUP3 ADD MSTORE PUSH1 0x80 ADD PUSH2 0x19D JUMP JUMPDEST CALLVALUE DUP1 ISZERO PUSH2 0x22B JUMPI PUSH1 0x0 DUP1 REVERT JUMPDEST POP PUSH2 0x234 PUSH2 0x78C JUMP JUMPDEST PUSH1 0x40 MLOAD PUSH2 0x19D SWAP2 SWAP1 PUSH2 0xE72 JUMP JUMPDEST CALLVALUE DUP1 ISZERO PUSH2 0x24D JUMPI PUSH1 0x0 DUP1 REVERT JUMPDEST POP PUSH2 0x142 PUSH2 0x8C1 JUMP JUMPDEST CALLVALUE DUP1 ISZERO PUSH2 0x262 JUMPI PUSH1 0x0 DUP1 REVERT JUMPDEST POP PUSH1 0x4 SLOAD PUSH2 0x276 SWAP1 PUSH1 0x1 PUSH1 0x1 PUSH1 0xA0 SHL SUB AND DUP2 JUMP JUMPDEST PUSH1 0x40 MLOAD PUSH1 0x1 PUSH1 0x1 PUSH1 0xA0 SHL SUB SWAP1 SWAP2 AND DUP2 MSTORE PUSH1 0x20 ADD PUSH2 0x19D JUMP JUMPDEST CALLVALUE DUP1 ISZERO PUSH2 0x29A JUMPI PUSH1 0x0 DUP1 REVERT JUMPDEST POP PUSH1 0x0 SLOAD PUSH1 0x1 PUSH1 0x1 PUSH1 0xA0 SHL SUB AND PUSH2 0x276 JUMP JUMPDEST PUSH2 0x142 PUSH2 0x2BA CALLDATASIZE PUSH1 0x4 PUSH2 0xEB4 JUMP JUMPDEST PUSH2 0x8D5 JUMP JUMPDEST CALLVALUE DUP1 ISZERO PUSH2 0x2CB JUMPI PUSH1 0x0 DUP1 REVERT JUMPDEST POP PUSH1 0x5 SLOAD PUSH2 0x276 SWAP1 PUSH1 0x1 PUSH1 0x1 PUSH1 0xA0 SHL SUB AND DUP2 JUMP JUMPDEST CALLVALUE DUP1 ISZERO PUSH2 0x2EB JUMPI PUSH1 0x0 DUP1 REVERT JUMPDEST POP PUSH2 0x2F5 PUSH1 0x3 SLOAD DUP2 JUMP JUMPDEST PUSH1 0x40 MLOAD SWAP1 DUP2 MSTORE PUSH1 0x20 ADD PUSH2 0x19D JUMP JUMPDEST CALLVALUE DUP1 ISZERO PUSH2 0x30F JUMPI PUSH1 0x0 DUP1 REVERT JUMPDEST POP PUSH2 0x142 PUSH2 0x31E CALLDATASIZE PUSH1 0x4 PUSH2 0xD72 JUMP JUMPDEST PUSH2 0xAA4 JUMP JUMPDEST CALLVALUE DUP1 ISZERO PUSH2 0x32F JUMPI PUSH1 0x0 DUP1 REVERT JUMPDEST POP PUSH2 0x142 PUSH2 0x33E CALLDATASIZE PUSH1 0x4 PUSH2 0xEE6 JUMP JUMPDEST PUSH2 0xB1D JUMP JUMPDEST CALLVALUE DUP1 ISZERO PUSH2 0x34F JUMPI PUSH1 0x0 DUP1 REVERT JUMPDEST POP PUSH2 0x142 PUSH2 0x35E CALLDATASIZE PUSH1 0x4 PUSH2 0xD72 JUMP JUMPDEST PUSH2 0xBDC JUMP JUMPDEST PUSH1 0x5 SLOAD PUSH1 0x1 PUSH1 0x1 PUSH1 0xA0 SHL SUB AND CALLER EQ PUSH2 0x396 JUMPI PUSH1 0x40 MLOAD PUSH3 0x461BCD PUSH1 0xE5 SHL DUP2 MSTORE PUSH1 0x4 ADD PUSH2 0x38D SWAP1 PUSH2 0xF10 JUMP JUMPDEST PUSH1 0x40 MLOAD DUP1 SWAP2 SUB SWAP1 REVERT JUMPDEST PUSH1 0x1 PUSH1 0x1 PUSH1 0xA0 SHL SUB DUP2 AND PUSH2 0x3DE JUMPI PUSH1 0x40 MLOAD PUSH3 0x461BCD PUSH1 0xE5 SHL DUP2 MSTORE PUSH1 0x20 PUSH1 0x4 DUP3 ADD MSTORE PUSH1 0xF PUSH1 0x24 DUP3 ADD MSTORE PUSH15 0x496E76616C69642061646472657373 PUSH1 0x88 SHL PUSH1 0x44 DUP3 ADD MSTORE PUSH1 0x64 ADD PUSH2 0x38D JUMP JUMPDEST PUSH1 0x5 DUP1 SLOAD PUSH1 0x1 PUSH1 0x1 PUSH1 0xA0 SHL SUB NOT AND PUSH1 0x1 PUSH1 0x1 PUSH1 0xA0 SHL SUB SWAP3 SWAP1 SWAP3 AND SWAP2 SWAP1 SWAP2 OR SWAP1 SSTORE JUMP JUMPDEST PUSH2 0x408 PUSH2 0xC29 JUMP JUMPDEST PUSH1 0x1 PUSH1 0x1 PUSH1 0xA0 SHL SUB DUP2 AND PUSH2 0x450 JUMPI PUSH1 0x40 MLOAD PUSH3 0x461BCD PUSH1 0xE5 SHL DUP2 MSTORE PUSH1 0x20 PUSH1 0x4 DUP3 ADD MSTORE PUSH1 0xF PUSH1 0x24 DUP3 ADD MSTORE PUSH15 0x496E76616C69642061646472657373 PUSH1 0x88 SHL PUSH1 0x44 DUP3 ADD MSTORE PUSH1 0x64 ADD PUSH2 0x38D JUMP JUMPDEST PUSH1 0x4 DUP1 SLOAD PUSH1 0x1 PUSH1 0x1 PUSH1 0xA0 SHL SUB NOT AND PUSH1 0x1 PUSH1 0x1 PUSH1 0xA0 SHL SUB SWAP3 SWAP1 SWAP3 AND SWAP2 SWAP1 SWAP2 OR SWAP1 SSTORE JUMP JUMPDEST PUSH2 0x47A PUSH2 0xC83 JUMP JUMPDEST PUSH2 0x482 PUSH2 0xC29 JUMP JUMPDEST PUSH1 0x0 PUSH1 0x8 PUSH2 0x493 PUSH1 0xFF DUP5 AND DUP6 PUSH2 0xF4E JUMP JUMPDEST PUSH1 0x81 DUP2 LT PUSH2 0x4A3 JUMPI PUSH2 0x4A3 PUSH2 0xF61 JUMP JUMPDEST ADD SLOAD PUSH1 0x2 SLOAD SWAP1 SWAP2 POP PUSH1 0xFF AND DUP1 ISZERO PUSH2 0x4BC JUMPI POP PUSH1 0x3 SLOAD TIMESTAMP EQ ISZERO JUMPDEST ISZERO PUSH2 0x530 JUMPI PUSH1 0x7 SLOAD PUSH1 0x6 SLOAD PUSH1 0x40 MLOAD PUSH4 0xD4626BB9 PUSH1 0xE0 SHL DUP2 MSTORE PUSH2 0x805 SWAP3 PUSH4 0xD4626BB9 SWAP3 PUSH2 0x4F3 SWAP3 PUSH1 0x4 ADD SWAP2 DUP3 MSTORE PUSH1 0x20 DUP3 ADD MSTORE PUSH1 0x40 ADD SWAP1 JUMP JUMPDEST PUSH1 0x0 PUSH1 0x40 MLOAD DUP1 DUP4 SUB DUP2 PUSH1 0x0 DUP8 DUP1 EXTCODESIZE ISZERO DUP1 ISZERO PUSH2 0x50D JUMPI PUSH1 0x0 DUP1 REVERT JUMPDEST POP GAS CALL ISZERO DUP1 ISZERO PUSH2 0x521 JUMPI RETURNDATASIZE PUSH1 0x0 DUP1 RETURNDATACOPY RETURNDATASIZE PUSH1 0x0 REVERT JUMPDEST POP POP PUSH1 0x2 DUP1 SLOAD PUSH1 0xFF NOT AND SWAP1 SSTORE POP POP JUMPDEST DUP4 ISZERO PUSH2 0x5CA JUMPI PUSH1 0x7 DUP3 SWAP1 SSTORE PUSH2 0x805 PUSH4 0x1FC9B141 DUP4 PUSH2 0x556 PUSH2 0x551 SELFBALANCE DUP10 PUSH2 0xCDC JUMP JUMPDEST PUSH2 0xCF6 JUMP JUMPDEST PUSH1 0x40 MLOAD PUSH1 0x1 PUSH1 0x1 PUSH1 0xE0 SHL SUB NOT PUSH1 0xE0 DUP6 SWAP1 SHL AND DUP2 MSTORE PUSH1 0x4 DUP2 ADD SWAP3 SWAP1 SWAP3 MSTORE PUSH1 0x24 DUP3 ADD MSTORE PUSH1 0x44 DUP2 ADD DUP5 SWAP1 MSTORE PUSH1 0x64 ADD PUSH1 0x0 PUSH1 0x40 MLOAD DUP1 DUP4 SUB DUP2 PUSH1 0x0 DUP8 DUP1 EXTCODESIZE ISZERO DUP1 ISZERO PUSH2 0x59B JUMPI PUSH1 0x0 DUP1 REVERT JUMPDEST POP GAS CALL ISZERO DUP1 ISZERO PUSH2 0x5AF JUMPI RETURNDATASIZE PUSH1 0x0 DUP1 RETURNDATACOPY RETURNDATASIZE PUSH1 0x0 REVERT JUMPDEST POP POP PUSH1 0x2 DUP1 SLOAD PUSH1 0xFF NOT AND PUSH1 0x1 OR SWAP1 SSTORE POP POP PUSH1 0x6 DUP2 SWAP1 SSTORE TIMESTAMP PUSH1 0x3 SSTORE JUMPDEST POP PUSH2 0x5D4 PUSH1 0x1 DUP1 SSTORE JUMP JUMPDEST POP POP POP JUMP JUMPDEST PUSH2 0x5E1 PUSH2 0xC29 JUMP JUMPDEST PUSH1 0x81 DUP2 EQ PUSH2 0x602 JUMPI PUSH1 0x40 MLOAD PUSH4 0x251F56A1 PUSH1 0xE2 SHL DUP2 MSTORE PUSH1 0x4 ADD PUSH1 0x40 MLOAD DUP1 SWAP2 SUB SWAP1 REVERT JUMPDEST PUSH1 0x0 JUMPDEST PUSH1 0x81 DUP2 LT ISZERO PUSH2 0x5D4 JUMPI DUP3 DUP3 DUP3 DUP2 DUP2 LT PUSH2 0x620 JUMPI PUSH2 0x620 PUSH2 0xF61 JUMP JUMPDEST SWAP1 POP PUSH1 0x20 MUL ADD CALLDATALOAD PUSH1 0x8 DUP3 PUSH1 0x81 DUP2 LT PUSH2 0x63A JUMPI PUSH2 0x63A PUSH2 0xF61 JUMP JUMPDEST ADD SSTORE PUSH1 0x1 ADD PUSH2 0x605 JUMP JUMPDEST PUSH1 0x40 DUP1 MLOAD PUSH1 0x80 DUP1 DUP3 MSTORE PUSH2 0x1020 DUP3 ADD SWAP1 SWAP3 MSTORE PUSH1 0x60 SWAP2 PUSH1 0x20 DUP3 ADD PUSH2 0x1000 DUP1 CALLDATASIZE DUP4 CALLDATACOPY ADD SWAP1 POP POP SWAP1 POP PUSH1 0x1 JUMPDEST PUSH1 0x80 DUP2 PUSH2 0xFFFF AND GT PUSH2 0x74D JUMPI PUSH1 0x40 MLOAD PUSH4 0x69E38BC3 PUSH1 0xE0 SHL DUP2 MSTORE PUSH2 0xFFFF DUP3 AND PUSH1 0x4 DUP3 ADD MSTORE PUSH2 0x808 SWAP1 PUSH4 0x69E38BC3 SWAP1 PUSH1 0x24 ADD PUSH1 0x20 PUSH1 0x40 MLOAD DUP1 DUP4 SUB DUP2 DUP7 GAS STATICCALL SWAP3 POP POP POP DUP1 ISZERO PUSH2 0x6D5 JUMPI POP PUSH1 0x40 DUP1 MLOAD PUSH1 0x1F RETURNDATASIZE SWAP1 DUP2 ADD PUSH1 0x1F NOT AND DUP3 ADD SWAP1 SWAP3 MSTORE PUSH2 0x6D2 SWAP2 DUP2 ADD SWAP1 PUSH2 0xF77 JUMP JUMPDEST PUSH1 0x1 JUMPDEST PUSH2 0x70C JUMPI PUSH1 0x0 DUP3 PUSH2 0x6E7 PUSH1 0x1 DUP5 PUSH2 0xF90 JUMP JUMPDEST PUSH2 0xFFFF AND DUP2 MLOAD DUP2 LT PUSH2 0x6FB JUMPI PUSH2 0x6FB PUSH2 0xF61 JUMP JUMPDEST PUSH1 0x20 MUL PUSH1 0x20 ADD ADD DUP2 DUP2 MSTORE POP POP PUSH2 0x73B JUMP JUMPDEST DUP1 DUP4 PUSH2 0x719 PUSH1 0x1 DUP6 PUSH2 0xF90 JUMP JUMPDEST PUSH2 0xFFFF AND DUP2 MLOAD DUP2 LT PUSH2 0x72D JUMPI PUSH2 0x72D PUSH2 0xF61 JUMP JUMPDEST PUSH1 0x20 MUL PUSH1 0x20 ADD ADD DUP2 DUP2 MSTORE POP POP POP JUMPDEST DUP1 PUSH2 0x745 DUP2 PUSH2 0xFB2 JUMP JUMPDEST SWAP2 POP POP PUSH2 0x66C JUMP JUMPDEST POP SWAP1 JUMP JUMPDEST PUSH1 0x2 SLOAD PUSH1 0xFF AND PUSH1 0x0 DUP1 DUP1 PUSH2 0x76D PUSH1 0x0 SLOAD PUSH1 0x1 PUSH1 0x1 PUSH1 0xA0 SHL SUB AND SWAP1 JUMP JUMPDEST PUSH1 0x4 SLOAD SWAP5 SWAP6 PUSH1 0x1 PUSH1 0x1 PUSH1 0xA0 SHL SUB SWAP2 DUP3 AND BALANCE SWAP6 SELFBALANCE SWAP6 POP SWAP1 SWAP2 AND BALANCE SWAP3 POP SWAP1 POP JUMP JUMPDEST PUSH1 0x40 DUP1 MLOAD PUSH1 0x80 DUP1 DUP3 MSTORE PUSH2 0x1020 DUP3 ADD SWAP1 SWAP3 MSTORE PUSH1 0x60 SWAP2 PUSH1 0x20 DUP3 ADD PUSH2 0x1000 DUP1 CALLDATASIZE DUP4 CALLDATACOPY ADD SWAP1 POP POP SWAP1 POP PUSH1 0x1 JUMPDEST PUSH1 0x80 DUP2 PUSH2 0xFFFF AND GT PUSH2 0x74D JUMPI PUSH1 0x40 MLOAD PUSH4 0x2D9BFC71 PUSH1 0xE0 SHL DUP2 MSTORE PUSH2 0xFFFF DUP3 AND PUSH1 0x4 DUP3 ADD MSTORE PUSH2 0x808 SWAP1 PUSH4 0x2D9BFC71 SWAP1 PUSH1 0x24 ADD PUSH1 0x20 PUSH1 0x40 MLOAD DUP1 DUP4 SUB DUP2 DUP7 GAS STATICCALL SWAP3 POP POP POP DUP1 ISZERO PUSH2 0x81D JUMPI POP PUSH1 0x40 DUP1 MLOAD PUSH1 0x1F RETURNDATASIZE SWAP1 DUP2 ADD PUSH1 0x1F NOT AND DUP3 ADD SWAP1 SWAP3 MSTORE PUSH2 0x81A SWAP2 DUP2 ADD SWAP1 PUSH2 0xFD3 JUMP JUMPDEST PUSH1 0x1 JUMPDEST PUSH2 0x86A JUMPI PUSH1 0x0 DUP3 PUSH2 0x82F PUSH1 0x1 DUP5 PUSH2 0xF90 JUMP JUMPDEST PUSH2 0xFFFF AND DUP2 MLOAD DUP2 LT PUSH2 0x843 JUMPI PUSH2 0x843 PUSH2 0xF61 JUMP JUMPDEST PUSH1 0x20 MUL PUSH1 0x20 ADD ADD SWAP1 PUSH8 0xFFFFFFFFFFFFFFFF AND SWAP1 DUP2 PUSH8 0xFFFFFFFFFFFFFFFF AND DUP2 MSTORE POP POP PUSH2 0x8AF JUMP JUMPDEST DUP1 DUP4 PUSH2 0x877 PUSH1 0x1 DUP6 PUSH2 0xF90 JUMP JUMPDEST PUSH2 0xFFFF AND DUP2 MLOAD DUP2 LT PUSH2 0x88B JUMPI PUSH2 0x88B PUSH2 0xF61 JUMP JUMPDEST PUSH1 0x20 MUL PUSH1 0x20 ADD ADD SWAP1 PUSH8 0xFFFFFFFFFFFFFFFF AND SWAP1 DUP2 PUSH8 0xFFFFFFFFFFFFFFFF AND DUP2 MSTORE POP POP POP JUMPDEST DUP1 PUSH2 0x8B9 DUP2 PUSH2 0xFB2 JUMP JUMPDEST SWAP2 POP POP PUSH2 0x7B4 JUMP JUMPDEST PUSH2 0x8C9 PUSH2 0xC29 JUMP JUMPDEST PUSH2 0x8D3 PUSH1 0x0 PUSH2 0xD06 JUMP JUMPDEST JUMP JUMPDEST PUSH2 0x8DD PUSH2 0xC83 JUMP JUMPDEST PUSH2 0x8E5 PUSH2 0xC29 JUMP JUMPDEST PUSH1 0x0 PUSH1 0x8 PUSH2 0x8F6 PUSH1 0xFF DUP5 AND DUP7 PUSH2 0xF4E JUMP JUMPDEST PUSH1 0x81 DUP2 LT PUSH2 0x906 JUMPI PUSH2 0x906 PUSH2 0xF61 JUMP JUMPDEST ADD SLOAD PUSH1 0x2 SLOAD SWAP1 SWAP2 POP PUSH1 0xFF AND DUP1 ISZERO PUSH2 0x91F JUMPI POP PUSH1 0x3 SLOAD TIMESTAMP EQ ISZERO JUMPDEST ISZERO PUSH2 0x993 JUMPI PUSH1 0x7 SLOAD PUSH1 0x6 SLOAD PUSH1 0x40 MLOAD PUSH4 0xD4626BB9 PUSH1 0xE0 SHL DUP2 MSTORE PUSH2 0x805 SWAP3 PUSH4 0xD4626BB9 SWAP3 PUSH2 0x956 SWAP3 PUSH1 0x4 ADD SWAP2 DUP3 MSTORE PUSH1 0x20 DUP3 ADD MSTORE PUSH1 0x40 ADD SWAP1 JUMP JUMPDEST PUSH1 0x0 PUSH1 0x40 MLOAD DUP1 DUP4 SUB DUP2 PUSH1 0x0 DUP8 DUP1 EXTCODESIZE ISZERO DUP1 ISZERO PUSH2 0x970 JUMPI PUSH1 0x0 DUP1 REVERT JUMPDEST POP GAS CALL ISZERO DUP1 ISZERO PUSH2 0x984 JUMPI RETURNDATASIZE PUSH1 0x0 DUP1 RETURNDATACOPY RETURNDATASIZE PUSH1 0x0 REVERT JUMPDEST POP POP PUSH1 0x2 DUP1 SLOAD PUSH1 0xFF NOT AND SWAP1 SSTORE POP POP JUMPDEST DUP5 ISZERO PUSH2 0xA94 JUMPI PUSH1 0x40 MLOAD PUSH4 0x69E38BC3 PUSH1 0xE0 SHL DUP2 MSTORE PUSH2 0xFFFF DUP3 AND PUSH1 0x4 DUP3 ADD MSTORE DUP4 SWAP1 PUSH2 0x808 SWAP1 PUSH4 0x69E38BC3 SWAP1 PUSH1 0x24 ADD PUSH1 0x20 PUSH1 0x40 MLOAD DUP1 DUP4 SUB DUP2 DUP7 GAS STATICCALL ISZERO DUP1 ISZERO PUSH2 0x9DC JUMPI RETURNDATASIZE PUSH1 0x0 DUP1 RETURNDATACOPY RETURNDATASIZE PUSH1 0x0 REVERT JUMPDEST POP POP POP POP PUSH1 0x40 MLOAD RETURNDATASIZE PUSH1 0x1F NOT PUSH1 0x1F DUP3 ADD AND DUP3 ADD DUP1 PUSH1 0x40 MSTORE POP DUP2 ADD SWAP1 PUSH2 0xA00 SWAP2 SWAP1 PUSH2 0xF77 JUMP JUMPDEST GT PUSH2 0xA94 JUMPI PUSH1 0x7 DUP3 SWAP1 SSTORE PUSH2 0x805 PUSH4 0x1FC9B141 DUP4 PUSH2 0xA20 PUSH2 0x551 SELFBALANCE DUP11 PUSH2 0xCDC JUMP JUMPDEST PUSH1 0x40 MLOAD PUSH1 0x1 PUSH1 0x1 PUSH1 0xE0 SHL SUB NOT PUSH1 0xE0 DUP6 SWAP1 SHL AND DUP2 MSTORE PUSH1 0x4 DUP2 ADD SWAP3 SWAP1 SWAP3 MSTORE PUSH1 0x24 DUP3 ADD MSTORE PUSH1 0x44 DUP2 ADD DUP5 SWAP1 MSTORE PUSH1 0x64 ADD PUSH1 0x0 PUSH1 0x40 MLOAD DUP1 DUP4 SUB DUP2 PUSH1 0x0 DUP8 DUP1 EXTCODESIZE ISZERO DUP1 ISZERO PUSH2 0xA65 JUMPI PUSH1 0x0 DUP1 REVERT JUMPDEST POP GAS CALL ISZERO DUP1 ISZERO PUSH2 0xA79 JUMPI RETURNDATASIZE PUSH1 0x0 DUP1 RETURNDATACOPY RETURNDATASIZE PUSH1 0x0 REVERT JUMPDEST POP POP PUSH1 0x2 DUP1 SLOAD PUSH1 0xFF NOT AND PUSH1 0x1 OR SWAP1 SSTORE POP POP PUSH1 0x6 DUP2 SWAP1 SSTORE TIMESTAMP PUSH1 0x3 SSTORE JUMPDEST POP PUSH2 0xA9E PUSH1 0x1 DUP1 SSTORE JUMP JUMPDEST POP POP POP POP JUMP JUMPDEST PUSH2 0xAAC PUSH2 0xC29 JUMP JUMPDEST PUSH1 0x1 PUSH1 0x1 PUSH1 0xA0 SHL SUB DUP2 AND PUSH2 0xB11 JUMPI PUSH1 0x40 MLOAD PUSH3 0x461BCD PUSH1 0xE5 SHL DUP2 MSTORE PUSH1 0x20 PUSH1 0x4 DUP3 ADD MSTORE PUSH1 0x26 PUSH1 0x24 DUP3 ADD MSTORE PUSH32 0x4F776E61626C653A206E6577206F776E657220697320746865207A65726F2061 PUSH1 0x44 DUP3 ADD MSTORE PUSH6 0x646472657373 PUSH1 0xD0 SHL PUSH1 0x64 DUP3 ADD MSTORE PUSH1 0x84 ADD PUSH2 0x38D JUMP JUMPDEST PUSH2 0xB1A DUP2 PUSH2 0xD06 JUMP JUMPDEST POP JUMP JUMPDEST PUSH1 0x5 SLOAD PUSH1 0x1 PUSH1 0x1 PUSH1 0xA0 SHL SUB AND CALLER EQ PUSH2 0xB47 JUMPI PUSH1 0x40 MLOAD PUSH3 0x461BCD PUSH1 0xE5 SHL DUP2 MSTORE PUSH1 0x4 ADD PUSH2 0x38D SWAP1 PUSH2 0xF10 JUMP JUMPDEST DUP1 PUSH1 0x0 SUB PUSH2 0xB68 JUMPI PUSH1 0x40 MLOAD PUSH4 0x65E52D51 PUSH1 0xE1 SHL DUP2 MSTORE PUSH1 0x4 ADD PUSH1 0x40 MLOAD DUP1 SWAP2 SUB SWAP1 REVERT JUMPDEST PUSH1 0x0 DUP3 PUSH1 0x1 PUSH1 0x1 PUSH1 0xA0 SHL SUB AND DUP3 PUSH1 0x40 MLOAD PUSH1 0x0 PUSH1 0x40 MLOAD DUP1 DUP4 SUB DUP2 DUP6 DUP8 GAS CALL SWAP3 POP POP POP RETURNDATASIZE DUP1 PUSH1 0x0 DUP2 EQ PUSH2 0xBB5 JUMPI PUSH1 0x40 MLOAD SWAP2 POP PUSH1 0x1F NOT PUSH1 0x3F RETURNDATASIZE ADD AND DUP3 ADD PUSH1 0x40 MSTORE RETURNDATASIZE DUP3 MSTORE RETURNDATASIZE PUSH1 0x0 PUSH1 0x20 DUP5 ADD RETURNDATACOPY PUSH2 0xBBA JUMP JUMPDEST PUSH1 0x60 SWAP2 POP JUMPDEST POP POP SWAP1 POP DUP1 PUSH2 0x5D4 JUMPI PUSH1 0x40 MLOAD PUSH4 0x12171D83 PUSH1 0xE3 SHL DUP2 MSTORE PUSH1 0x4 ADD PUSH1 0x40 MLOAD DUP1 SWAP2 SUB SWAP1 REVERT JUMPDEST PUSH1 0x5 SLOAD PUSH1 0x1 PUSH1 0x1 PUSH1 0xA0 SHL SUB AND CALLER EQ PUSH2 0xC06 JUMPI PUSH1 0x40 MLOAD PUSH3 0x461BCD PUSH1 0xE5 SHL DUP2 MSTORE PUSH1 0x4 ADD PUSH2 0x38D SWAP1 PUSH2 0xF10 JUMP JUMPDEST SELFBALANCE PUSH1 0x0 DUP2 SWAP1 SUB PUSH2 0xB68 JUMPI PUSH1 0x40 MLOAD PUSH4 0x65E52D51 PUSH1 0xE1 SHL DUP2 MSTORE PUSH1 0x4 ADD PUSH1 0x40 MLOAD DUP1 SWAP2 SUB SWAP1 REVERT JUMPDEST PUSH1 0x0 SLOAD PUSH1 0x1 PUSH1 0x1 PUSH1 0xA0 SHL SUB AND CALLER EQ PUSH2 0x8D3 JUMPI PUSH1 0x40 MLOAD PUSH3 0x461BCD PUSH1 0xE5 SHL DUP2 MSTORE PUSH1 0x20 PUSH1 0x4 DUP3 ADD DUP2 SWAP1 MSTORE PUSH1 0x24 DUP3 ADD MSTORE PUSH32 0x4F776E61626C653A2063616C6C6572206973206E6F7420746865206F776E6572 PUSH1 0x44 DUP3 ADD MSTORE PUSH1 0x64 ADD PUSH2 0x38D JUMP JUMPDEST PUSH1 0x2 PUSH1 0x1 SLOAD SUB PUSH2 0xCD5 JUMPI PUSH1 0x40 MLOAD PUSH3 0x461BCD PUSH1 0xE5 SHL DUP2 MSTORE PUSH1 0x20 PUSH1 0x4 DUP3 ADD MSTORE PUSH1 0x1F PUSH1 0x24 DUP3 ADD MSTORE PUSH32 0x5265656E7472616E637947756172643A207265656E7472616E742063616C6C00 PUSH1 0x44 DUP3 ADD MSTORE PUSH1 0x64 ADD PUSH2 0x38D JUMP JUMPDEST PUSH1 0x2 PUSH1 0x1 SSTORE JUMP JUMPDEST PUSH1 0x0 DUP2 DUP4 LT PUSH2 0xCEB JUMPI DUP2 PUSH2 0xCED JUMP JUMPDEST DUP3 JUMPDEST SWAP1 POP JUMPDEST SWAP3 SWAP2 POP POP JUMP JUMPDEST PUSH1 0x0 PUSH2 0xCF0 PUSH4 0x3B9ACA00 DUP4 PUSH2 0x1004 JUMP JUMPDEST PUSH1 0x0 DUP1 SLOAD PUSH1 0x1 PUSH1 0x1 PUSH1 0xA0 SHL SUB DUP4 DUP2 AND PUSH1 0x1 PUSH1 0x1 PUSH1 0xA0 SHL SUB NOT DUP4 AND DUP2 OR DUP5 SSTORE PUSH1 0x40 MLOAD SWAP2 SWAP1 SWAP3 AND SWAP3 DUP4 SWAP2 PUSH32 0x8BE0079C531659141344CD1FD0A4F28419497F9722A3DAAFE3B4186F6B6457E0 SWAP2 SWAP1 LOG3 POP POP JUMP JUMPDEST DUP1 CALLDATALOAD PUSH1 0x1 PUSH1 0x1 PUSH1 0xA0 SHL SUB DUP2 AND DUP2 EQ PUSH2 0xD6D JUMPI PUSH1 0x0 DUP1 REVERT JUMPDEST SWAP2 SWAP1 POP JUMP JUMPDEST PUSH1 0x0 PUSH1 0x20 DUP3 DUP5 SUB SLT ISZERO PUSH2 0xD84 JUMPI PUSH1 0x0 DUP1 REVERT JUMPDEST PUSH2 0xCED DUP3 PUSH2 0xD56 JUMP JUMPDEST PUSH1 0x0 DUP1 PUSH1 0x0 PUSH1 0x60 DUP5 DUP7 SUB SLT ISZERO PUSH2 0xDA2 JUMPI PUSH1 0x0 DUP1 REVERT JUMPDEST POP POP DUP2 CALLDATALOAD SWAP4 PUSH1 0x20 DUP4 ADD CALLDATALOAD SWAP4 POP PUSH1 0x40 SWAP1 SWAP3 ADD CALLDATALOAD SWAP2 SWAP1 POP JUMP JUMPDEST PUSH1 0x0 DUP1 PUSH1 0x20 DUP4 DUP6 SUB SLT ISZERO PUSH2 0xDCC JUMPI PUSH1 0x0 DUP1 REVERT JUMPDEST DUP3 CALLDATALOAD PUSH8 0xFFFFFFFFFFFFFFFF DUP1 DUP3 GT ISZERO PUSH2 0xDE4 JUMPI PUSH1 0x0 DUP1 REVERT JUMPDEST DUP2 DUP6 ADD SWAP2 POP DUP6 PUSH1 0x1F DUP4 ADD SLT PUSH2 0xDF8 JUMPI PUSH1 0x0 DUP1 REVERT JUMPDEST DUP2 CALLDATALOAD DUP2 DUP2 GT ISZERO PUSH2 0xE07 JUMPI PUSH1 0x0 DUP1 REVERT JUMPDEST DUP7 PUSH1 0x20 DUP3 PUSH1 0x5 SHL DUP6 ADD ADD GT ISZERO PUSH2 0xE1C JUMPI PUSH1 0x0 DUP1 REVERT JUMPDEST PUSH1 0x20 SWAP3 SWAP1 SWAP3 ADD SWAP7 SWAP2 SWAP6 POP SWAP1 SWAP4 POP POP POP POP JUMP JUMPDEST PUSH1 0x20 DUP1 DUP3 MSTORE DUP3 MLOAD DUP3 DUP3 ADD DUP2 SWAP1 MSTORE PUSH1 0x0 SWAP2 SWAP1 DUP5 DUP3 ADD SWAP1 PUSH1 0x40 DUP6 ADD SWAP1 DUP5 JUMPDEST DUP2 DUP2 LT ISZERO PUSH2 0xE66 JUMPI DUP4 MLOAD DUP4 MSTORE SWAP3 DUP5 ADD SWAP3 SWAP2 DUP5 ADD SWAP2 PUSH1 0x1 ADD PUSH2 0xE4A JUMP JUMPDEST POP SWAP1 SWAP7 SWAP6 POP POP POP POP POP POP JUMP JUMPDEST PUSH1 0x20 DUP1 DUP3 MSTORE DUP3 MLOAD DUP3 DUP3 ADD DUP2 SWAP1 MSTORE PUSH1 0x0 SWAP2 SWAP1 DUP5 DUP3 ADD SWAP1 PUSH1 0x40 DUP6 ADD SWAP1 DUP5 JUMPDEST DUP2 DUP2 LT ISZERO PUSH2 0xE66 JUMPI DUP4 MLOAD PUSH8 0xFFFFFFFFFFFFFFFF AND DUP4 MSTORE SWAP3 DUP5 ADD SWAP3 SWAP2 DUP5 ADD SWAP2 PUSH1 0x1 ADD PUSH2 0xE8E JUMP JUMPDEST PUSH1 0x0 DUP1 PUSH1 0x0 DUP1 PUSH1 0x80 DUP6 DUP8 SUB SLT ISZERO PUSH2 0xECA JUMPI PUSH1 0x0 DUP1 REVERT JUMPDEST POP POP DUP3 CALLDATALOAD SWAP5 PUSH1 0x20 DUP5 ADD CALLDATALOAD SWAP5 POP PUSH1 0x40 DUP5 ADD CALLDATALOAD SWAP4 PUSH1 0x60 ADD CALLDATALOAD SWAP3 POP SWAP1 POP JUMP JUMPDEST PUSH1 0x0 DUP1 PUSH1 0x40 DUP4 DUP6 SUB SLT ISZERO PUSH2 0xEF9 JUMPI PUSH1 0x0 DUP1 REVERT JUMPDEST PUSH2 0xF02 DUP4 PUSH2 0xD56 JUMP JUMPDEST SWAP5 PUSH1 0x20 SWAP4 SWAP1 SWAP4 ADD CALLDATALOAD SWAP4 POP POP POP JUMP JUMPDEST PUSH1 0x20 DUP1 DUP3 MSTORE PUSH1 0xE SWAP1 DUP3 ADD MSTORE PUSH14 0x2737BA103BB4BA34323930BBB2B9 PUSH1 0x91 SHL PUSH1 0x40 DUP3 ADD MSTORE PUSH1 0x60 ADD SWAP1 JUMP JUMPDEST PUSH4 0x4E487B71 PUSH1 0xE0 SHL PUSH1 0x0 MSTORE PUSH1 0x11 PUSH1 0x4 MSTORE PUSH1 0x24 PUSH1 0x0 REVERT JUMPDEST DUP2 DUP2 SUB DUP2 DUP2 GT ISZERO PUSH2 0xCF0 JUMPI PUSH2 0xCF0 PUSH2 0xF38 JUMP JUMPDEST PUSH4 0x4E487B71 PUSH1 0xE0 SHL PUSH1 0x0 MSTORE PUSH1 0x32 PUSH1 0x4 MSTORE PUSH1 0x24 PUSH1 0x0 REVERT JUMPDEST PUSH1 0x0 PUSH1 0x20 DUP3 DUP5 SUB SLT ISZERO PUSH2 0xF89 JUMPI PUSH1 0x0 DUP1 REVERT JUMPDEST POP MLOAD SWAP2 SWAP1 POP JUMP JUMPDEST PUSH2 0xFFFF DUP3 DUP2 AND DUP3 DUP3 AND SUB SWAP1 DUP1 DUP3 GT ISZERO PUSH2 0xFAB JUMPI PUSH2 0xFAB PUSH2 0xF38 JUMP JUMPDEST POP SWAP3 SWAP2 POP POP JUMP JUMPDEST PUSH1 0x0 PUSH2 0xFFFF DUP1 DUP4 AND DUP2 DUP2 SUB PUSH2 0xFC9 JUMPI PUSH2 0xFC9 PUSH2 0xF38 JUMP JUMPDEST PUSH1 0x1 ADD SWAP4 SWAP3 POP POP POP JUMP JUMPDEST PUSH1 0x0 PUSH1 0x20 DUP3 DUP5 SUB SLT ISZERO PUSH2 0xFE5 JUMPI PUSH1 0x0 DUP1 REVERT JUMPDEST DUP2 MLOAD PUSH8 0xFFFFFFFFFFFFFFFF DUP2 AND DUP2 EQ PUSH2 0xFFD JUMPI PUSH1 0x0 DUP1 REVERT JUMPDEST SWAP4 SWAP3 POP POP POP JUMP JUMPDEST PUSH1 0x0 DUP3 PUSH2 0x1021 JUMPI PUSH4 0x4E487B71 PUSH1 0xE0 SHL PUSH1 0x0 MSTORE PUSH1 0x12 PUSH1 0x4 MSTORE PUSH1 0x24 PUSH1 0x0 REVERT JUMPDEST POP DIV SWAP1 JUMP INVALID LOG2 PUSH5 0x6970667358 0x22 SLT KECCAK256 REVERT PC 0x1E CODESIZE 0xE1 0x29 SUB 0xF9 ORIGIN 0xEF LOG2 PUSH19 0x5088FB5172D83BAC14FB39E009639E084B3989 PUSH10 0x64736F6C634300081600 CALLER "},"methodIdentifiers":{"ForceStake(uint256,uint256,bytes32)":"169374dc","emergencyWithdrawTao(address,uint256)":"f528c62e","getAlphaPrices1To128()":"4c0df53e","getInfo()":"5a9b0b89","getTaoInPool()":"5ad6dbe3","is_staked()":"2f6fc02e","lastStakeTimestamp()":"f0f9e975","mevAddress()":"833f9109","owner()":"8da5cb5b","renounceOwnership()":"715018a6","setWithdrawer(address)":"0d174c24","stakeTaoForAlpha(uint256,uint256,uint256,bytes32)":"9ebf1378","transferOwnership(address)":"f2fde38b","updateMevAddress(address)":"123b95b8","updateNetuids(uint256[])":"3f3b7858","withdrawAll(address)":"fa09e630","withdrawer()":"cdc18424"}}}}}