{"contracts/TradingV5.sol":{"TradingV5":{"abi":[{"inputs":[],"stateMutability":"nonpayable","type":"constructor"},{"inputs":[],"name":"AmountZero","type":"error"},{"inputs":[],"name":"ArrayLengthMismatch","type":"error"},{"inputs":[],"name":"FunctionNotFound","type":"error"},{"inputs":[],"name":"InvalidAddress","type":"error"},{"inputs":[],"name":"InvalidNetuid","type":"error"},{"inputs":[],"name":"NotWithdrawer","type":"error"},{"inputs":[],"name":"TransferFailed","type":"error"},{"anonymous":false,"inputs":[{"indexed":true,"internalType":"address","name":"previousOwner","type":"address"},{"indexed":true,"internalType":"address","name":"newOwner","type":"address"}],"name":"OwnershipTransferred","type":"event"},{"stateMutability":"payable","type":"fallback"},{"inputs":[{"internalType":"uint256","name":"stakeAmount","type":"uint256"},{"internalType":"uint256","name":"alphaNetuid","type":"uint256"}],"name":"add_stake","outputs":[],"stateMutability":"payable","type":"function"},{"inputs":[{"internalType":"uint256","name":"stakeAmount","type":"uint256"},{"internalType":"uint256[]","name":"alphaNetuids","type":"uint256[]"}],"name":"add_stakes","outputs":[],"stateMutability":"payable","type":"function"},{"inputs":[{"internalType":"address","name":"to","type":"address"},{"internalType":"uint256","name":"amount","type":"uint256"}],"name":"emergencyWithdrawTao","outputs":[],"stateMutability":"nonpayable","type":"function"},{"inputs":[{"internalType":"uint256[]","name":"alphaNetuids","type":"uint256[]"}],"name":"force_remove_stake","outputs":[],"stateMutability":"payable","type":"function"},{"inputs":[{"internalType":"uint256","name":"alphaNetuid","type":"uint256"}],"name":"force_remove_stake","outputs":[],"stateMutability":"payable","type":"function"},{"inputs":[],"name":"getInfo","outputs":[{"internalType":"uint256[129]","name":"prices","type":"uint256[129]"},{"internalType":"uint64[129]","name":"taoInPool","type":"uint64[129]"},{"internalType":"bool[129]","name":"staked","type":"bool[129]"},{"internalType":"uint256[129]","name":"stakedPrices","type":"uint256[129]"}],"stateMutability":"view","type":"function"},{"inputs":[],"name":"getInfo_Old","outputs":[{"internalType":"uint256[129]","name":"prices","type":"uint256[129]"},{"internalType":"uint64[129]","name":"taoInPool","type":"uint64[129]"},{"internalType":"bool[129]","name":"staked_old","type":"bool[129]"},{"internalType":"bool[129]","name":"staked","type":"bool[129]"},{"internalType":"uint256[129]","name":"stakedPrices_old","type":"uint256[129]"},{"internalType":"uint256[129]","name":"stakedPrices","type":"uint256[129]"}],"stateMutability":"view","type":"function"},{"inputs":[],"name":"getIsStaked","outputs":[{"internalType":"bool[129]","name":"","type":"bool[129]"}],"stateMutability":"view","type":"function"},{"inputs":[{"internalType":"bytes32","name":"validatorColdkey","type":"bytes32"}],"name":"getStakedAmount","outputs":[{"internalType":"uint256[129]","name":"amount","type":"uint256[129]"}],"stateMutability":"view","type":"function"},{"inputs":[],"name":"getStakedPrices","outputs":[{"internalType":"uint256[129]","name":"","type":"uint256[129]"}],"stateMutability":"view","type":"function"},{"inputs":[],"name":"getTimestamps","outputs":[{"internalType":"uint256[129]","name":"","type":"uint256[129]"}],"stateMutability":"view","type":"function"},{"inputs":[{"internalType":"uint256","name":"stakeAmount","type":"uint256"},{"internalType":"uint256","name":"alphaNetuid","type":"uint256"}],"name":"increase_stake","outputs":[],"stateMutability":"payable","type":"function"},{"inputs":[{"internalType":"uint256","name":"stakeAmount","type":"uint256"},{"internalType":"uint256[]","name":"alphaNetuids","type":"uint256[]"}],"name":"increase_stakes","outputs":[],"stateMutability":"payable","type":"function"},{"inputs":[{"internalType":"uint256","name":"","type":"uint256"}],"name":"is_staked","outputs":[{"internalType":"bool","name":"","type":"bool"}],"stateMutability":"view","type":"function"},{"inputs":[{"internalType":"uint256","name":"","type":"uint256"}],"name":"lastStakeTimestamp","outputs":[{"internalType":"uint256","name":"","type":"uint256"}],"stateMutability":"view","type":"function"},{"inputs":[],"name":"mev_coldkey","outputs":[{"internalType":"bytes32","name":"","type":"bytes32"}],"stateMutability":"view","type":"function"},{"inputs":[],"name":"owner","outputs":[{"internalType":"address","name":"","type":"address"}],"stateMutability":"view","type":"function"},{"inputs":[],"name":"priceUpdateThreshold","outputs":[{"internalType":"uint256","name":"","type":"uint256"}],"stateMutability":"view","type":"function"},{"inputs":[{"internalType":"uint256","name":"alphaNetuid","type":"uint256"},{"internalType":"bytes32[]","name":"hotkeys","type":"bytes32[]"},{"internalType":"bytes32[]","name":"coldkeys","type":"bytes32[]"}],"name":"remove_stake","outputs":[],"stateMutability":"payable","type":"function"},{"inputs":[{"internalType":"uint256","name":"alphaNetuid","type":"uint256"}],"name":"remove_stake","outputs":[],"stateMutability":"payable","type":"function"},{"inputs":[{"internalType":"uint256[]","name":"alphaNetuids","type":"uint256[]"}],"name":"remove_stakes","outputs":[],"stateMutability":"payable","type":"function"},{"inputs":[],"name":"renounceOwnership","outputs":[],"stateMutability":"nonpayable","type":"function"},{"inputs":[{"internalType":"uint256","name":"alphaNetuid","type":"uint256"}],"name":"reset","outputs":[],"stateMutability":"payable","type":"function"},{"inputs":[{"internalType":"address","name":"newWithdrawer","type":"address"}],"name":"setWithdrawer","outputs":[],"stateMutability":"nonpayable","type":"function"},{"inputs":[{"internalType":"uint256","name":"","type":"uint256"}],"name":"staked_prices","outputs":[{"internalType":"uint256","name":"","type":"uint256"}],"stateMutability":"view","type":"function"},{"inputs":[],"name":"taobot","outputs":[{"internalType":"bytes32","name":"","type":"bytes32"}],"stateMutability":"view","type":"function"},{"inputs":[{"internalType":"address","name":"newOwner","type":"address"}],"name":"transferOwnership","outputs":[],"stateMutability":"nonpayable","type":"function"},{"inputs":[{"internalType":"bytes32","name":"newMevColdkey","type":"bytes32"}],"name":"updateMevColdkey","outputs":[],"stateMutability":"nonpayable","type":"function"},{"inputs":[{"internalType":"uint256","name":"threshold","type":"uint256"}],"name":"updatePriceThreshold","outputs":[],"stateMutability":"nonpayable","type":"function"},{"inputs":[{"internalType":"bytes32","name":"newTaobot","type":"bytes32"}],"name":"updateTaobot","outputs":[],"stateMutability":"nonpayable","type":"function"},{"inputs":[],"name":"validatorHotkey","outputs":[{"internalType":"bytes32","name":"","type":"bytes32"}],"stateMutability":"view","type":"function"},{"inputs":[{"internalType":"address","name":"to","type":"address"}],"name":"withdrawAll","outputs":[],"stateMutability":"nonpayable","type":"function"},{"inputs":[],"name":"withdrawer","outputs":[{"internalType":"address","name":"","type":"address"}],"stateMutability":"view","type":"function"},{"stateMutability":"payable","type":"receive"}],"evm":{"bytecode":{"linkReferences":{},"object":"608060405261044c6101095561010a80546001600160a01b03191690557f56a9aee6291bd03ab6d36d4d13e2bebae7cd403518066c72fba1b417d6ddd74861010b557fdc33b0fd5d2ef4647db921764da8787a2b9f27efff6755b1007eb35e55eaf70961010c553480156200007357600080fd5b506200007f336200011e565b6001805560005b60818110156200010457600060028260818110620000a857620000a86200016e565b602091828204019190066101000a81548160ff021916908315150217905550600060078260818110620000df57620000df6200016e565b0155600060888260818110620000f957620000f96200016e565b015560010162000086565b5061010a80546001600160a01b0319163317905562000184565b600080546001600160a01b038381166001600160a01b0319831681178455604051919092169283917f8be0079c531659141344cd1fd0a4f28419497f9722a3daafe3b4186f6b6457e09190a35050565b634e487b7160e01b600052603260045260246000fd5b6126dc80620001946000396000f3fe6080604052600436106101f25760003560e01c80639a9003941161010d578063cdc18424116100a0578063ea07a5421161006f578063ea07a5421461053f578063f2fde38b14610552578063f528c62e14610572578063fa09e63014610592578063fdd4f21b146105b2576101f9565b8063cdc18424146104c9578063d908968c146104ea578063ddd8a4c8146104fd578063dee25cda1461051f576101f9565b8063c4441cce116100dc578063c4441cce1461045d578063c64625ea14610470578063c7687c2214610490578063c8c23393146104b2576101f9565b80639a900394146103f7578063a75d356414610417578063aa099a7b14610437578063ac0c34cc1461044a576101f9565b80633d4ac3c2116101855780635a9b0b89116101545780635a9b0b8914610378578063715018a61461039d5780638da5cb5b146103b2578063961216cb146103e4576101f9565b80633d4ac3c21461031b57806346f3ded4146103305780634c709cca1461034357806359abbfe414610363576101f9565b80631d090453116101c15780631d090453146102a3578063310bd74b146102b6578063337a1737146102c95780633a34c83f146102f6576101f9565b806308b41c01146102125780630d174c241461024757806310d67406146102695780631120e1341461027c576101f9565b366101f957005b60405163201f3fd360e11b815260040160405180910390fd5b34801561021e57600080fd5b5061023261022d366004612121565b6105c9565b60405190151581526020015b60405180910390f35b34801561025357600080fd5b50610267610262366004612156565b6105f3565b005b610267610277366004612171565b610669565b34801561028857600080fd5b506102916108a2565b60405161023e9695949392919061220e565b6102676102b13660046122ba565b6109dd565b6102676102c4366004612121565b610b1b565b3480156102d557600080fd5b506102e96102e4366004612121565b610bd0565b60405161023e91906122fc565b34801561030257600080fd5b5061030d6101095481565b60405190815260200161023e565b34801561032757600080fd5b506102e9610c91565b61026761033e36600461230b565b610ccd565b34801561034f57600080fd5b5061026761035e366004612121565b610f71565b34801561036f57600080fd5b506102e9610f7f565b34801561038457600080fd5b5061038d610fb6565b60405161023e9493929190612385565b3480156103a957600080fd5b506102676111fe565b3480156103be57600080fd5b506000546001600160a01b03165b6040516001600160a01b03909116815260200161023e565b6102676103f23660046123c7565b611212565b34801561040357600080fd5b5061030d610412366004612121565b6113cd565b34801561042357600080fd5b5061030d610432366004612121565b6113e4565b610267610445366004612171565b6113f4565b6102676104583660046123c7565b611560565b61026761046b366004612121565b6117d1565b34801561047c57600080fd5b5061026761048b366004612121565b611a01565b34801561049c57600080fd5b5061030d60008051602061268783398151915281565b3480156104be57600080fd5b5061030d61010c5481565b3480156104d557600080fd5b5061010a546103cc906001600160a01b031681565b6102676104f83660046122ba565b611a0f565b34801561050957600080fd5b50610512611c67565b60405161023e9190612413565b34801561052b57600080fd5b5061026761053a366004612121565b611cc2565b61026761054d366004612121565b611cd0565b34801561055e57600080fd5b5061026761056d366004612156565b611ddb565b34801561057e57600080fd5b5061026761058d366004612422565b611e56565b34801561059e57600080fd5b506102676105ad366004612156565b611f3e565b3480156105be57600080fd5b5061030d61010b5481565b600281608181106105d957600080fd5b60209182820401919006915054906101000a900460ff1681565b61010a546001600160a01b0316331461061f57604051632d99bc8360e21b815260040160405180910390fd5b6001600160a01b0381166106465760405163e6c4247b60e01b815260040160405180910390fd5b61010a80546001600160a01b0319166001600160a01b0392909216919091179055565b610671611fb4565b61067961200d565b61068281612067565b81158015906106b757506002816081811061069f5761069f61244c565b602081049091015460ff601f9092166101000a900416155b156108955761010b5461010c546040516371dacc7d60e11b815260048101929092526024820152604481018290526000906108059063e3b598fa90606401602060405180830381865afa158015610712573d6000803e3d6000fd5b505050506040513d601f19601f820116820180604052508101906107369190612462565b905080156107445750610895565b610805631fc9b14160008051602061268783398151915261076d6107684788612088565b6120a2565b6040516001600160e01b031960e085901b1681526004810192909252602482015260448101859052606401600060405180830381600087803b1580156107b257600080fd5b505af11580156107c6573d6000803e3d6000fd5b505050506001600283608181106107df576107df61244c565b602081049091018054921515601f9092166101000a91820260ff909202199092161790556040516369e38bc360e01b815261ffff83166004820152610808906369e38bc390602401602060405180830381865afa158015610844573d6000803e3d6000fd5b505050506040513d601f19601f820116820180604052508101906108689190612462565b6007836081811061087b5761087b61244c565b015542608883608181106108915761089161244c565b0155505b61089e60018055565b5050565b6108aa612102565b6108b2612102565b6108ba612102565b6108c2612102565b6108ca612102565b6108d2612102565b73a41677c076dabe0fcbbfca30a6c7b39d4b2acd026001600160a01b0316635a9b0b896040518163ffffffff1660e01b815260040161408060405180830381865afa158015610925573d6000803e3d6000fd5b505050506040513d601f19601f82011682018060405250810190610949919061251c565b60408051611020810191829052949a509298509096509350600290608190826000855b825461010083900a900460ff16151581526020600192830181810494850194909303909202910180841161096c5750506040805161102081019182905295985060079450608193509150839050845b8154815260200190600101908083116109bb5750505050509050909192939495565b6109e5611fb4565b6109ed61200d565b60005b81811015610b11576000838383818110610a0c57610a0c61244c565b905060200201359050610a1e81612067565b60028160818110610a3157610a3161244c565b602081049091015460ff601f9092166101000a9004168015610a67575060888160818110610a6157610a6161244c565b01544214155b15610b085760405163d4626bb960e01b81526000805160206126878339815191526004820152602481018290526108059063d4626bb990604401600060405180830381600087803b158015610abb57600080fd5b505af1158015610acf573d6000803e3d6000fd5b50505050600060028260818110610ae857610ae861244c565b602091828204019190066101000a81548160ff0219169083151502179055505b506001016109f0565b5061089e60018055565b610b23611fb4565b610b2b61200d565b610b3481612067565b6040516369e38bc360e01b815261ffff82166004820152610808906369e38bc390602401602060405180830381865afa158015610b75573d6000803e3d6000fd5b505050506040513d601f19601f82011682018060405250810190610b999190612462565b60078260818110610bac57610bac61244c565b01554260888260818110610bc257610bc261244c565b0155610bcd60018055565b50565b610bd8612102565b60015b60818161ffff161015610c8b576040516371dacc7d60e11b815260008051602061268783398151915260048201526024810184905261ffff821660448201526108059063e3b598fa90606401602060405180830381865afa158015610c44573d6000803e3d6000fd5b505050506040513d601f19601f82011682018060405250810190610c689190612462565b828261ffff1660818110610c7e57610c7e61244c565b6020020152600101610bdb565b50919050565b610c99612102565b604080516110208101918290529060079060819082845b815481526020019060010190808311610cb0575050505050905090565b610cd5611fb4565b610cdd61200d565b610ce685612067565b828114610d065760405163512509d360e11b815260040160405180910390fd5b60028560818110610d1957610d1961244c565b602081049091015460ff601f9092166101000a9004168015610d4f575060888560818110610d4957610d4961244c565b01544214155b15610f61576000805b84811015610e1c5761080563e3b598fa878784818110610d7a57610d7a61244c565b90506020020135868685818110610d9357610d9361244c565b6040516001600160e01b031960e087901b16815260048101949094526020029190910135602483015250604481018a9052606401602060405180830381865afa158015610de4573d6000803e3d6000fd5b505050506040513d601f19601f82011682018060405250810190610e089190612462565b610e12908361261f565b9150600101610d58565b506000811180610ebe57506103e86101095460078860818110610e4157610e4161244c565b0154610e4d9190612632565b610e579190612649565b6040516369e38bc360e01b815261ffff88166004820152610808906369e38bc390602401602060405180830381865afa158015610e98573d6000803e3d6000fd5b505050506040513d601f19601f82011682018060405250810190610ebc9190612462565b115b15610f5f5760405163d4626bb960e01b81526000805160206126878339815191526004820152602481018790526108059063d4626bb990604401600060405180830381600087803b158015610f1257600080fd5b505af1158015610f26573d6000803e3d6000fd5b50505050600060028760818110610f3f57610f3f61244c565b602091828204019190066101000a81548160ff0219169083151502179055505b505b610f6a60018055565b5050505050565b610f7961200d565b61010955565b610f87612102565b604080516110208101918290526088805482529091608190608960208501808311610cb0575050505050905090565b610fbe612102565b610fc6612102565b610fce612102565b610fd6612102565b670de0b6b3a7640000845260018084525b60818161ffff16101561109d576040516369e38bc360e01b815261ffff82166004820152610808906369e38bc390602401602060405180830381865afa925050508015611051575060408051601f3d908101601f1916820190925261104e91810190612462565b60015b611077576000858261ffff166081811061106d5761106d61244c565b6020020152611095565b80868361ffff166081811061108e5761108e61244c565b6020020152505b600101610fe7565b5060015b60818161ffff16101561117557604051632d9bfc7160e01b815261ffff8216600482015261080890632d9bfc7190602401602060405180830381865afa92505050801561110b575060408051601f3d908101601f191682019092526111089181019061266b565b60015b611140576000848261ffff16608181106111275761112761244c565b67ffffffffffffffff909216602092909202015261116d565b80858361ffff16608181106111575761115761244c565b67ffffffffffffffff9092166020929092020152505b6001016110a1565b506040805161102081019182905290600290608190826000855b825461010083900a900460ff16151581526020600192830181810494850194909303909202910180841161118f5750506040805161102081019182905295975060079450608193509150839050845b8154815260200190600101908083116111de575050505050905090919293565b61120661200d565b61121060006120b2565b565b61121a611fb4565b61122261200d565b82156113bf5760005b818110156113bd5760008383838181106112475761124761244c565b90506020020135905061125981612067565b6002816081811061126c5761126c61244c565b602081049091015460ff601f9092166101000a900416156113b45760006112934787612088565b9050806000036112a5575050506113bf565b610805631fc9b1416000805160206126878339815191526112c5846120a2565b6040516001600160e01b031960e085901b1681526004810192909252602482015260448101859052606401600060405180830381600087803b15801561130a57600080fd5b505af115801561131e573d6000803e3d6000fd5b50506040516369e38bc360e01b815261ffff8516600482015261080892506369e38bc39150602401602060405180830381865afa158015611363573d6000803e3d6000fd5b505050506040513d601f19601f820116820180604052508101906113879190612462565b6007836081811061139a5761139a61244c565b015542608883608181106113b0576113b061244c565b0155505b5060010161122b565b505b6113c860018055565b505050565b608881608181106113dd57600080fd5b0154905081565b600781608181106113dd57600080fd5b6113fc611fb4565b61140461200d565b61140d81612067565b811580159061144157506002816081811061142a5761142a61244c565b602081049091015460ff601f9092166101000a9004165b1561089557610805631fc9b14160008051602061268783398151915261146a6107684787612088565b6040516001600160e01b031960e085901b1681526004810192909252602482015260448101849052606401600060405180830381600087803b1580156114af57600080fd5b505af11580156114c3573d6000803e3d6000fd5b50506040516369e38bc360e01b815261ffff8416600482015261080892506369e38bc39150602401602060405180830381865afa158015611508573d6000803e3d6000fd5b505050506040513d601f19601f8201168201806040525081019061152c9190612462565b6007826081811061153f5761153f61244c565b015542608882608181106115555761155561244c565b015561089e60018055565b611568611fb4565b61157061200d565b82156113bf5760005b818110156113bd5760008383838181106115955761159561244c565b9050602002013590506115a781612067565b600281608181106115ba576115ba61244c565b602081049091015460ff601f9092166101000a9004166117c75760006115e04787612088565b61010b5461010c546040516371dacc7d60e11b815260048101929092526024820152604481018490529091506000906108059063e3b598fa90606401602060405180830381865afa158015611639573d6000803e3d6000fd5b505050506040513d601f19601f8201168201806040525081019061165d9190612462565b9050801561166d575050506117c9565b8160000361167e57505050506113bf565b610805631fc9b14160008051602061268783398151915261169e856120a2565b6040516001600160e01b031960e085901b1681526004810192909252602482015260448101869052606401600060405180830381600087803b1580156116e357600080fd5b505af11580156116f7573d6000803e3d6000fd5b505050506001600284608181106117105761171061244c565b602081049091018054921515601f9092166101000a91820260ff909202199092161790556040516369e38bc360e01b815261ffff84166004820152610808906369e38bc390602401602060405180830381865afa158015611775573d6000803e3d6000fd5b505050506040513d601f19601f820116820180604052508101906117999190612462565b600784608181106117ac576117ac61244c565b015542608884608181106117c2576117c261244c565b015550505b505b600101611579565b6117d9611fb4565b6117e161200d565b6117ea81612067565b600281608181106117fd576117fd61244c565b602081049091015460ff601f9092166101000a900416801561183357506088816081811061182d5761182d61244c565b01544214155b156119f85761010b5461010c546040516371dacc7d60e11b815260048101929092526024820152604481018290526000906108059063e3b598fa90606401602060405180830381865afa15801561188e573d6000803e3d6000fd5b505050506040513d601f19601f820116820180604052508101906118b29190612462565b9050600081118061195557506103e861010954600784608181106118d8576118d861244c565b01546118e49190612632565b6118ee9190612649565b6040516369e38bc360e01b815261ffff84166004820152610808906369e38bc390602401602060405180830381865afa15801561192f573d6000803e3d6000fd5b505050506040513d601f19601f820116820180604052508101906119539190612462565b115b156119f65760405163d4626bb960e01b81526000805160206126878339815191526004820152602481018390526108059063d4626bb990604401600060405180830381600087803b1580156119a957600080fd5b505af11580156119bd573d6000803e3d6000fd5b505050506000600283608181106119d6576119d661244c565b602091828204019190066101000a81548160ff0219169083151502179055505b505b610bcd60018055565b611a0961200d565b61010c55565b611a17611fb4565b611a1f61200d565b60005b81811015610b11576000838383818110611a3e57611a3e61244c565b905060200201359050611a5081612067565b60028160818110611a6357611a6361244c565b602081049091015460ff601f9092166101000a9004168015611a99575060888160818110611a9357611a9361244c565b01544214155b15611c5e5761010b5461010c546040516371dacc7d60e11b815260048101929092526024820152604481018290526000906108059063e3b598fa90606401602060405180830381865afa158015611af4573d6000803e3d6000fd5b505050506040513d601f19601f82011682018060405250810190611b189190612462565b90506000811180611bbb57506103e86101095460078460818110611b3e57611b3e61244c565b0154611b4a9190612632565b611b549190612649565b6040516369e38bc360e01b815261ffff84166004820152610808906369e38bc390602401602060405180830381865afa158015611b95573d6000803e3d6000fd5b505050506040513d601f19601f82011682018060405250810190611bb99190612462565b115b15611c5c5760405163d4626bb960e01b81526000805160206126878339815191526004820152602481018390526108059063d4626bb990604401600060405180830381600087803b158015611c0f57600080fd5b505af1158015611c23573d6000803e3d6000fd5b50505050600060028360818110611c3c57611c3c61244c565b602091828204019190066101000a81548160ff0219169083151502179055505b505b50600101611a22565b611c6f612102565b6040805161102081019182905290600290608190826000855b825461010083900a900460ff161515815260206001928301818104948501949093039092029101808411611c885790505050505050905090565b611cca61200d565b61010b55565b611cd8611fb4565b611ce061200d565b611ce981612067565b60028160818110611cfc57611cfc61244c565b602081049091015460ff601f9092166101000a9004168015611d32575060888160818110611d2c57611d2c61244c565b01544214155b156119f85760405163d4626bb960e01b81526000805160206126878339815191526004820152602481018290526108059063d4626bb990604401600060405180830381600087803b158015611d8657600080fd5b505af1158015611d9a573d6000803e3d6000fd5b50505050600060028260818110611db357611db361244c565b602091828204019190066101000a81548160ff021916908315150217905550610bcd60018055565b611de361200d565b6001600160a01b038116611e4d5760405162461bcd60e51b815260206004820152602660248201527f4f776e61626c653a206e6577206f776e657220697320746865207a65726f206160448201526564647265737360d01b60648201526084015b60405180910390fd5b610bcd816120b2565b61010a546001600160a01b03163314611e8257604051632d99bc8360e21b815260040160405180910390fd5b6001600160a01b038216611ea95760405163e6c4247b60e01b815260040160405180910390fd5b80600003611eca576040516365e52d5160e11b815260040160405180910390fd5b6000826001600160a01b03168260405160006040518083038185875af1925050503d8060008114611f17576040519150601f19603f3d011682016040523d82523d6000602084013e611f1c565b606091505b50509050806113c8576040516312171d8360e31b815260040160405180910390fd5b61010a546001600160a01b03163314611f6a57604051632d99bc8360e21b815260040160405180910390fd5b6001600160a01b038116611f915760405163e6c4247b60e01b815260040160405180910390fd5b476000819003611eca576040516365e52d5160e11b815260040160405180910390fd5b6002600154036120065760405162461bcd60e51b815260206004820152601f60248201527f5265656e7472616e637947756172643a207265656e7472616e742063616c6c006044820152606401611e44565b6002600155565b6000546001600160a01b031633146112105760405162461bcd60e51b815260206004820181905260248201527f4f776e61626c653a2063616c6c6572206973206e6f7420746865206f776e65726044820152606401611e44565b60818110610bcd576040516368a3a6c360e11b815260040160405180910390fd5b60008183106120975781612099565b825b90505b92915050565b600061209c633b9aca0083612649565b600080546001600160a01b038381166001600160a01b0319831681178455604051919092169283917f8be0079c531659141344cd1fd0a4f28419497f9722a3daafe3b4186f6b6457e09190a35050565b6040518061102001604052806081906020820280368337509192915050565b60006020828403121561213357600080fd5b5035919050565b80356001600160a01b038116811461215157600080fd5b919050565b60006020828403121561216857600080fd5b6120998261213a565b6000806040838503121561218457600080fd5b50508035926020909101359150565b8060005b60818110156121b6578151845260209384019390910190600101612197565b50505050565b8060005b60818110156121b657815167ffffffffffffffff168452602093840193909101906001016121c0565b8060005b60818110156121b657815115158452602093840193909101906001016121ed565b6160c0810161221d8289612193565b61222b6110208301886121bc565b6122396120408301876121e9565b6122476130608301866121e9565b612255614080830185612193565b6122636150a0830184612193565b979650505050505050565b60008083601f84011261228057600080fd5b50813567ffffffffffffffff81111561229857600080fd5b6020830191508360208260051b85010111156122b357600080fd5b9250929050565b600080602083850312156122cd57600080fd5b823567ffffffffffffffff8111156122e457600080fd5b6122f08582860161226e565b90969095509350505050565b611020810161209c8284612193565b60008060008060006060868803121561232357600080fd5b85359450602086013567ffffffffffffffff8082111561234257600080fd5b61234e89838a0161226e565b9096509450604088013591508082111561236757600080fd5b506123748882890161226e565b969995985093965092949392505050565b61408081016123948287612193565b6123a26110208301866121bc565b6123b06120408301856121e9565b6123be613060830184612193565b95945050505050565b6000806000604084860312156123dc57600080fd5b83359250602084013567ffffffffffffffff8111156123fa57600080fd5b6124068682870161226e565b9497909650939450505050565b611020810161209c82846121e9565b6000806040838503121561243557600080fd5b61243e8361213a565b946020939093013593505050565b634e487b7160e01b600052603260045260246000fd5b60006020828403121561247457600080fd5b5051919050565b604051611020810167ffffffffffffffff811182821017156124ad57634e487b7160e01b600052604160045260246000fd5b60405290565b600082601f8301126124c457600080fd5b6124cc61247b565b806110208401858111156124df57600080fd5b845b818110156124f95780518452602093840193016124e1565b509095945050505050565b805167ffffffffffffffff8116811461215157600080fd5b600080600080614080858703121561253357600080fd5b61253d86866124b3565b93508561103f86011261254f57600080fd5b61255761247b565b8061204087018881111561256a57600080fd5b61102088015b8181101561258f5761258181612504565b845260209384019301612570565b508195508861205f8901126125a357600080fd5b6125ab61247b565b92508291506130608801898111156125c257600080fd5b808210156125ed57815180151581146125db5760008081fd5b845260209384019391909101906125c2565b8295506125fa8a826124b3565b94505050505092959194509250565b634e487b7160e01b600052601160045260246000fd5b8082018082111561209c5761209c612609565b808202811582820484141761209c5761209c612609565b60008261266657634e487b7160e01b600052601260045260246000fd5b500490565b60006020828403121561267d57600080fd5b6120998261250456feb4c087119097fbe3985298eef52f35ef6271c48322a8c2d430902a9cc38d9473a264697066735822122056d6b897d1c1c8ea303891744eec5364f171e5275f3fdf0e53c7ddf819160f1064736f6c63430008160033","opcodes":"PUSH1 0x80 PUSH1 0x40 MSTORE PUSH2 0x44C PUSH2 0x109 SSTORE PUSH2 0x10A DUP1 SLOAD PUSH1 0x1 PUSH1 0x1 PUSH1 0xA0 SHL SUB NOT AND SWAP1 SSTORE PUSH32 0x56A9AEE6291BD03AB6D36D4D13E2BEBAE7CD403518066C72FBA1B417D6DDD748 PUSH2 0x10B SSTORE PUSH32 0xDC33B0FD5D2EF4647DB921764DA8787A2B9F27EFFF6755B1007EB35E55EAF709 PUSH2 0x10C SSTORE CALLVALUE DUP1 ISZERO PUSH3 0x73 JUMPI PUSH1 0x0 DUP1 REVERT JUMPDEST POP PUSH3 0x7F CALLER PUSH3 0x11E JUMP JUMPDEST PUSH1 0x1 DUP1 SSTORE PUSH1 0x0 JUMPDEST PUSH1 0x81 DUP2 LT ISZERO PUSH3 0x104 JUMPI PUSH1 0x0 PUSH1 0x2 DUP3 PUSH1 0x81 DUP2 LT PUSH3 0xA8 JUMPI PUSH3 0xA8 PUSH3 0x16E JUMP JUMPDEST PUSH1 0x20 SWAP2 DUP3 DUP3 DIV ADD SWAP2 SWAP1 MOD PUSH2 0x100 EXP DUP2 SLOAD DUP2 PUSH1 0xFF MUL NOT AND SWAP1 DUP4 ISZERO ISZERO MUL OR SWAP1 SSTORE POP PUSH1 0x0 PUSH1 0x7 DUP3 PUSH1 0x81 DUP2 LT PUSH3 0xDF JUMPI PUSH3 0xDF PUSH3 0x16E JUMP JUMPDEST ADD SSTORE PUSH1 0x0 PUSH1 0x88 DUP3 PUSH1 0x81 DUP2 LT PUSH3 0xF9 JUMPI PUSH3 0xF9 PUSH3 0x16E JUMP JUMPDEST ADD SSTORE PUSH1 0x1 ADD PUSH3 0x86 JUMP JUMPDEST POP PUSH2 0x10A DUP1 SLOAD PUSH1 0x1 PUSH1 0x1 PUSH1 0xA0 SHL SUB NOT AND CALLER OR SWAP1 SSTORE PUSH3 0x184 JUMP JUMPDEST PUSH1 0x0 DUP1 SLOAD PUSH1 0x1 PUSH1 0x1 PUSH1 0xA0 SHL SUB DUP4 DUP2 AND PUSH1 0x1 PUSH1 0x1 PUSH1 0xA0 SHL SUB NOT DUP4 AND DUP2 OR DUP5 SSTORE PUSH1 0x40 MLOAD SWAP2 SWAP1 SWAP3 AND SWAP3 DUP4 SWAP2 PUSH32 0x8BE0079C531659141344CD1FD0A4F28419497F9722A3DAAFE3B4186F6B6457E0 SWAP2 SWAP1 LOG3 POP POP JUMP JUMPDEST PUSH4 0x4E487B71 PUSH1 0xE0 SHL PUSH1 0x0 MSTORE PUSH1 0x32 PUSH1 0x4 MSTORE PUSH1 0x24 PUSH1 0x0 REVERT JUMPDEST PUSH2 0x26DC DUP1 PUSH3 0x194 PUSH1 0x0 CODECOPY PUSH1 0x0 RETURN INVALID PUSH1 0x80 PUSH1 0x40 MSTORE PUSH1 0x4 CALLDATASIZE LT PUSH2 0x1F2 JUMPI PUSH1 0x0 CALLDATALOAD PUSH1 0xE0 SHR DUP1 PUSH4 0x9A900394 GT PUSH2 0x10D JUMPI DUP1 PUSH4 0xCDC18424 GT PUSH2 0xA0 JUMPI DUP1 PUSH4 0xEA07A542 GT PUSH2 0x6F JUMPI DUP1 PUSH4 0xEA07A542 EQ PUSH2 0x53F JUMPI DUP1 PUSH4 0xF2FDE38B EQ PUSH2 0x552 JUMPI DUP1 PUSH4 0xF528C62E EQ PUSH2 0x572 JUMPI DUP1 PUSH4 0xFA09E630 EQ PUSH2 0x592 JUMPI DUP1 PUSH4 0xFDD4F21B EQ PUSH2 0x5B2 JUMPI PUSH2 0x1F9 JUMP JUMPDEST DUP1 PUSH4 0xCDC18424 EQ PUSH2 0x4C9 JUMPI DUP1 PUSH4 0xD908968C EQ PUSH2 0x4EA JUMPI DUP1 PUSH4 0xDDD8A4C8 EQ PUSH2 0x4FD JUMPI DUP1 PUSH4 0xDEE25CDA EQ PUSH2 0x51F JUMPI PUSH2 0x1F9 JUMP JUMPDEST DUP1 PUSH4 0xC4441CCE GT PUSH2 0xDC JUMPI DUP1 PUSH4 0xC4441CCE EQ PUSH2 0x45D JUMPI DUP1 PUSH4 0xC64625EA EQ PUSH2 0x470 JUMPI DUP1 PUSH4 0xC7687C22 EQ PUSH2 0x490 JUMPI DUP1 PUSH4 0xC8C23393 EQ PUSH2 0x4B2 JUMPI PUSH2 0x1F9 JUMP JUMPDEST DUP1 PUSH4 0x9A900394 EQ PUSH2 0x3F7 JUMPI DUP1 PUSH4 0xA75D3564 EQ PUSH2 0x417 JUMPI DUP1 PUSH4 0xAA099A7B EQ PUSH2 0x437 JUMPI DUP1 PUSH4 0xAC0C34CC EQ PUSH2 0x44A JUMPI PUSH2 0x1F9 JUMP JUMPDEST DUP1 PUSH4 0x3D4AC3C2 GT PUSH2 0x185 JUMPI DUP1 PUSH4 0x5A9B0B89 GT PUSH2 0x154 JUMPI DUP1 PUSH4 0x5A9B0B89 EQ PUSH2 0x378 JUMPI DUP1 PUSH4 0x715018A6 EQ PUSH2 0x39D JUMPI DUP1 PUSH4 0x8DA5CB5B EQ PUSH2 0x3B2 JUMPI DUP1 PUSH4 0x961216CB EQ PUSH2 0x3E4 JUMPI PUSH2 0x1F9 JUMP JUMPDEST DUP1 PUSH4 0x3D4AC3C2 EQ PUSH2 0x31B JUMPI DUP1 PUSH4 0x46F3DED4 EQ PUSH2 0x330 JUMPI DUP1 PUSH4 0x4C709CCA EQ PUSH2 0x343 JUMPI DUP1 PUSH4 0x59ABBFE4 EQ PUSH2 0x363 JUMPI PUSH2 0x1F9 JUMP JUMPDEST DUP1 PUSH4 0x1D090453 GT PUSH2 0x1C1 JUMPI DUP1 PUSH4 0x1D090453 EQ PUSH2 0x2A3 JUMPI DUP1 PUSH4 0x310BD74B EQ PUSH2 0x2B6 JUMPI DUP1 PUSH4 0x337A1737 EQ PUSH2 0x2C9 JUMPI DUP1 PUSH4 0x3A34C83F EQ PUSH2 0x2F6 JUMPI PUSH2 0x1F9 JUMP JUMPDEST DUP1 PUSH4 0x8B41C01 EQ PUSH2 0x212 JUMPI DUP1 PUSH4 0xD174C24 EQ PUSH2 0x247 JUMPI DUP1 PUSH4 0x10D67406 EQ PUSH2 0x269 JUMPI DUP1 PUSH4 0x1120E134 EQ PUSH2 0x27C JUMPI PUSH2 0x1F9 JUMP JUMPDEST CALLDATASIZE PUSH2 0x1F9 JUMPI STOP JUMPDEST PUSH1 0x40 MLOAD PUSH4 0x201F3FD3 PUSH1 0xE1 SHL DUP2 MSTORE PUSH1 0x4 ADD PUSH1 0x40 MLOAD DUP1 SWAP2 SUB SWAP1 REVERT JUMPDEST CALLVALUE DUP1 ISZERO PUSH2 0x21E JUMPI PUSH1 0x0 DUP1 REVERT JUMPDEST POP PUSH2 0x232 PUSH2 0x22D CALLDATASIZE PUSH1 0x4 PUSH2 0x2121 JUMP JUMPDEST PUSH2 0x5C9 JUMP JUMPDEST PUSH1 0x40 MLOAD SWAP1 ISZERO ISZERO DUP2 MSTORE PUSH1 0x20 ADD JUMPDEST PUSH1 0x40 MLOAD DUP1 SWAP2 SUB SWAP1 RETURN JUMPDEST CALLVALUE DUP1 ISZERO PUSH2 0x253 JUMPI PUSH1 0x0 DUP1 REVERT JUMPDEST POP PUSH2 0x267 PUSH2 0x262 CALLDATASIZE PUSH1 0x4 PUSH2 0x2156 JUMP JUMPDEST PUSH2 0x5F3 JUMP JUMPDEST STOP JUMPDEST PUSH2 0x267 PUSH2 0x277 CALLDATASIZE PUSH1 0x4 PUSH2 0x2171 JUMP JUMPDEST PUSH2 0x669 JUMP JUMPDEST CALLVALUE DUP1 ISZERO PUSH2 0x288 JUMPI PUSH1 0x0 DUP1 REVERT JUMPDEST POP PUSH2 0x291 PUSH2 0x8A2 JUMP JUMPDEST PUSH1 0x40 MLOAD PUSH2 0x23E SWAP7 SWAP6 SWAP5 SWAP4 SWAP3 SWAP2 SWAP1 PUSH2 0x220E JUMP JUMPDEST PUSH2 0x267 PUSH2 0x2B1 CALLDATASIZE PUSH1 0x4 PUSH2 0x22BA JUMP JUMPDEST PUSH2 0x9DD JUMP JUMPDEST PUSH2 0x267 PUSH2 0x2C4 CALLDATASIZE PUSH1 0x4 PUSH2 0x2121 JUMP JUMPDEST PUSH2 0xB1B JUMP JUMPDEST CALLVALUE DUP1 ISZERO PUSH2 0x2D5 JUMPI PUSH1 0x0 DUP1 REVERT JUMPDEST POP PUSH2 0x2E9 PUSH2 0x2E4 CALLDATASIZE PUSH1 0x4 PUSH2 0x2121 JUMP JUMPDEST PUSH2 0xBD0 JUMP JUMPDEST PUSH1 0x40 MLOAD PUSH2 0x23E SWAP2 SWAP1 PUSH2 0x22FC JUMP JUMPDEST CALLVALUE DUP1 ISZERO PUSH2 0x302 JUMPI PUSH1 0x0 DUP1 REVERT JUMPDEST POP PUSH2 0x30D PUSH2 0x109 SLOAD DUP2 JUMP JUMPDEST PUSH1 0x40 MLOAD SWAP1 DUP2 MSTORE PUSH1 0x20 ADD PUSH2 0x23E JUMP JUMPDEST CALLVALUE DUP1 ISZERO PUSH2 0x327 JUMPI PUSH1 0x0 DUP1 REVERT JUMPDEST POP PUSH2 0x2E9 PUSH2 0xC91 JUMP JUMPDEST PUSH2 0x267 PUSH2 0x33E CALLDATASIZE PUSH1 0x4 PUSH2 0x230B JUMP JUMPDEST PUSH2 0xCCD JUMP JUMPDEST CALLVALUE DUP1 ISZERO PUSH2 0x34F JUMPI PUSH1 0x0 DUP1 REVERT JUMPDEST POP PUSH2 0x267 PUSH2 0x35E CALLDATASIZE PUSH1 0x4 PUSH2 0x2121 JUMP JUMPDEST PUSH2 0xF71 JUMP JUMPDEST CALLVALUE DUP1 ISZERO PUSH2 0x36F JUMPI PUSH1 0x0 DUP1 REVERT JUMPDEST POP PUSH2 0x2E9 PUSH2 0xF7F JUMP JUMPDEST CALLVALUE DUP1 ISZERO PUSH2 0x384 JUMPI PUSH1 0x0 DUP1 REVERT JUMPDEST POP PUSH2 0x38D PUSH2 0xFB6 JUMP JUMPDEST PUSH1 0x40 MLOAD PUSH2 0x23E SWAP5 SWAP4 SWAP3 SWAP2 SWAP1 PUSH2 0x2385 JUMP JUMPDEST CALLVALUE DUP1 ISZERO PUSH2 0x3A9 JUMPI PUSH1 0x0 DUP1 REVERT JUMPDEST POP PUSH2 0x267 PUSH2 0x11FE JUMP JUMPDEST CALLVALUE DUP1 ISZERO PUSH2 0x3BE JUMPI PUSH1 0x0 DUP1 REVERT JUMPDEST POP PUSH1 0x0 SLOAD PUSH1 0x1 PUSH1 0x1 PUSH1 0xA0 SHL SUB AND JUMPDEST PUSH1 0x40 MLOAD PUSH1 0x1 PUSH1 0x1 PUSH1 0xA0 SHL SUB SWAP1 SWAP2 AND DUP2 MSTORE PUSH1 0x20 ADD PUSH2 0x23E JUMP JUMPDEST PUSH2 0x267 PUSH2 0x3F2 CALLDATASIZE PUSH1 0x4 PUSH2 0x23C7 JUMP JUMPDEST PUSH2 0x1212 JUMP JUMPDEST CALLVALUE DUP1 ISZERO PUSH2 0x403 JUMPI PUSH1 0x0 DUP1 REVERT JUMPDEST POP PUSH2 0x30D PUSH2 0x412 CALLDATASIZE PUSH1 0x4 PUSH2 0x2121 JUMP JUMPDEST PUSH2 0x13CD JUMP JUMPDEST CALLVALUE DUP1 ISZERO PUSH2 0x423 JUMPI PUSH1 0x0 DUP1 REVERT JUMPDEST POP PUSH2 0x30D PUSH2 0x432 CALLDATASIZE PUSH1 0x4 PUSH2 0x2121 JUMP JUMPDEST PUSH2 0x13E4 JUMP JUMPDEST PUSH2 0x267 PUSH2 0x445 CALLDATASIZE PUSH1 0x4 PUSH2 0x2171 JUMP JUMPDEST PUSH2 0x13F4 JUMP JUMPDEST PUSH2 0x267 PUSH2 0x458 CALLDATASIZE PUSH1 0x4 PUSH2 0x23C7 JUMP JUMPDEST PUSH2 0x1560 JUMP JUMPDEST PUSH2 0x267 PUSH2 0x46B CALLDATASIZE PUSH1 0x4 PUSH2 0x2121 JUMP JUMPDEST PUSH2 0x17D1 JUMP JUMPDEST CALLVALUE DUP1 ISZERO PUSH2 0x47C JUMPI PUSH1 0x0 DUP1 REVERT JUMPDEST POP PUSH2 0x267 PUSH2 0x48B CALLDATASIZE PUSH1 0x4 PUSH2 0x2121 JUMP JUMPDEST PUSH2 0x1A01 JUMP JUMPDEST CALLVALUE DUP1 ISZERO PUSH2 0x49C JUMPI PUSH1 0x0 DUP1 REVERT JUMPDEST POP PUSH2 0x30D PUSH1 0x0 DUP1 MLOAD PUSH1 0x20 PUSH2 0x2687 DUP4 CODECOPY DUP2 MLOAD SWAP2 MSTORE DUP2 JUMP JUMPDEST CALLVALUE DUP1 ISZERO PUSH2 0x4BE JUMPI PUSH1 0x0 DUP1 REVERT JUMPDEST POP PUSH2 0x30D PUSH2 0x10C SLOAD DUP2 JUMP JUMPDEST CALLVALUE DUP1 ISZERO PUSH2 0x4D5 JUMPI PUSH1 0x0 DUP1 REVERT JUMPDEST POP PUSH2 0x10A SLOAD PUSH2 0x3CC SWAP1 PUSH1 0x1 PUSH1 0x1 PUSH1 0xA0 SHL SUB AND DUP2 JUMP JUMPDEST PUSH2 0x267 PUSH2 0x4F8 CALLDATASIZE PUSH1 0x4 PUSH2 0x22BA JUMP JUMPDEST PUSH2 0x1A0F JUMP JUMPDEST CALLVALUE DUP1 ISZERO PUSH2 0x509 JUMPI PUSH1 0x0 DUP1 REVERT JUMPDEST POP PUSH2 0x512 PUSH2 0x1C67 JUMP JUMPDEST PUSH1 0x40 MLOAD PUSH2 0x23E SWAP2 SWAP1 PUSH2 0x2413 JUMP JUMPDEST CALLVALUE DUP1 ISZERO PUSH2 0x52B JUMPI PUSH1 0x0 DUP1 REVERT JUMPDEST POP PUSH2 0x267 PUSH2 0x53A CALLDATASIZE PUSH1 0x4 PUSH2 0x2121 JUMP JUMPDEST PUSH2 0x1CC2 JUMP JUMPDEST PUSH2 0x267 PUSH2 0x54D CALLDATASIZE PUSH1 0x4 PUSH2 0x2121 JUMP JUMPDEST PUSH2 0x1CD0 JUMP JUMPDEST CALLVALUE DUP1 ISZERO PUSH2 0x55E JUMPI PUSH1 0x0 DUP1 REVERT JUMPDEST POP PUSH2 0x267 PUSH2 0x56D CALLDATASIZE PUSH1 0x4 PUSH2 0x2156 JUMP JUMPDEST PUSH2 0x1DDB JUMP JUMPDEST CALLVALUE DUP1 ISZERO PUSH2 0x57E JUMPI PUSH1 0x0 DUP1 REVERT JUMPDEST POP PUSH2 0x267 PUSH2 0x58D CALLDATASIZE PUSH1 0x4 PUSH2 0x2422 JUMP JUMPDEST PUSH2 0x1E56 JUMP JUMPDEST CALLVALUE DUP1 ISZERO PUSH2 0x59E JUMPI PUSH1 0x0 DUP1 REVERT JUMPDEST POP PUSH2 0x267 PUSH2 0x5AD CALLDATASIZE PUSH1 0x4 PUSH2 0x2156 JUMP JUMPDEST PUSH2 0x1F3E JUMP JUMPDEST CALLVALUE DUP1 ISZERO PUSH2 0x5BE JUMPI PUSH1 0x0 DUP1 REVERT JUMPDEST POP PUSH2 0x30D PUSH2 0x10B SLOAD DUP2 JUMP JUMPDEST PUSH1 0x2 DUP2 PUSH1 0x81 DUP2 LT PUSH2 0x5D9 JUMPI PUSH1 0x0 DUP1 REVERT JUMPDEST PUSH1 0x20 SWAP2 DUP3 DUP3 DIV ADD SWAP2 SWAP1 MOD SWAP2 POP SLOAD SWAP1 PUSH2 0x100 EXP SWAP1 DIV PUSH1 0xFF AND DUP2 JUMP JUMPDEST PUSH2 0x10A SLOAD PUSH1 0x1 PUSH1 0x1 PUSH1 0xA0 SHL SUB AND CALLER EQ PUSH2 0x61F JUMPI PUSH1 0x40 MLOAD PUSH4 0x2D99BC83 PUSH1 0xE2 SHL DUP2 MSTORE PUSH1 0x4 ADD PUSH1 0x40 MLOAD DUP1 SWAP2 SUB SWAP1 REVERT JUMPDEST PUSH1 0x1 PUSH1 0x1 PUSH1 0xA0 SHL SUB DUP2 AND PUSH2 0x646 JUMPI PUSH1 0x40 MLOAD PUSH4 0xE6C4247B PUSH1 0xE0 SHL DUP2 MSTORE PUSH1 0x4 ADD PUSH1 0x40 MLOAD DUP1 SWAP2 SUB SWAP1 REVERT JUMPDEST PUSH2 0x10A DUP1 SLOAD PUSH1 0x1 PUSH1 0x1 PUSH1 0xA0 SHL SUB NOT AND PUSH1 0x1 PUSH1 0x1 PUSH1 0xA0 SHL SUB SWAP3 SWAP1 SWAP3 AND SWAP2 SWAP1 SWAP2 OR SWAP1 SSTORE JUMP JUMPDEST PUSH2 0x671 PUSH2 0x1FB4 JUMP JUMPDEST PUSH2 0x679 PUSH2 0x200D JUMP JUMPDEST PUSH2 0x682 DUP2 PUSH2 0x2067 JUMP JUMPDEST DUP2 ISZERO DUP1 ISZERO SWAP1 PUSH2 0x6B7 JUMPI POP PUSH1 0x2 DUP2 PUSH1 0x81 DUP2 LT PUSH2 0x69F JUMPI PUSH2 0x69F PUSH2 0x244C JUMP JUMPDEST PUSH1 0x20 DUP2 DIV SWAP1 SWAP2 ADD SLOAD PUSH1 0xFF PUSH1 0x1F SWAP1 SWAP3 AND PUSH2 0x100 EXP SWAP1 DIV AND ISZERO JUMPDEST ISZERO PUSH2 0x895 JUMPI PUSH2 0x10B SLOAD PUSH2 0x10C SLOAD PUSH1 0x40 MLOAD PUSH4 0x71DACC7D PUSH1 0xE1 SHL DUP2 MSTORE PUSH1 0x4 DUP2 ADD SWAP3 SWAP1 SWAP3 MSTORE PUSH1 0x24 DUP3 ADD MSTORE PUSH1 0x44 DUP2 ADD DUP3 SWAP1 MSTORE PUSH1 0x0 SWAP1 PUSH2 0x805 SWAP1 PUSH4 0xE3B598FA SWAP1 PUSH1 0x64 ADD PUSH1 0x20 PUSH1 0x40 MLOAD DUP1 DUP4 SUB DUP2 DUP7 GAS STATICCALL ISZERO DUP1 ISZERO PUSH2 0x712 JUMPI RETURNDATASIZE PUSH1 0x0 DUP1 RETURNDATACOPY RETURNDATASIZE PUSH1 0x0 REVERT JUMPDEST POP POP POP POP PUSH1 0x40 MLOAD RETURNDATASIZE PUSH1 0x1F NOT PUSH1 0x1F DUP3 ADD AND DUP3 ADD DUP1 PUSH1 0x40 MSTORE POP DUP2 ADD SWAP1 PUSH2 0x736 SWAP2 SWAP1 PUSH2 0x2462 JUMP JUMPDEST SWAP1 POP DUP1 ISZERO PUSH2 0x744 JUMPI POP PUSH2 0x895 JUMP JUMPDEST PUSH2 0x805 PUSH4 0x1FC9B141 PUSH1 0x0 DUP1 MLOAD PUSH1 0x20 PUSH2 0x2687 DUP4 CODECOPY DUP2 MLOAD SWAP2 MSTORE PUSH2 0x76D PUSH2 0x768 SELFBALANCE DUP9 PUSH2 0x2088 JUMP JUMPDEST PUSH2 0x20A2 JUMP JUMPDEST PUSH1 0x40 MLOAD PUSH1 0x1 PUSH1 0x1 PUSH1 0xE0 SHL SUB NOT PUSH1 0xE0 DUP6 SWAP1 SHL AND DUP2 MSTORE PUSH1 0x4 DUP2 ADD SWAP3 SWAP1 SWAP3 MSTORE PUSH1 0x24 DUP3 ADD MSTORE PUSH1 0x44 DUP2 ADD DUP6 SWAP1 MSTORE PUSH1 0x64 ADD PUSH1 0x0 PUSH1 0x40 MLOAD DUP1 DUP4 SUB DUP2 PUSH1 0x0 DUP8 DUP1 EXTCODESIZE ISZERO DUP1 ISZERO PUSH2 0x7B2 JUMPI PUSH1 0x0 DUP1 REVERT JUMPDEST POP GAS CALL ISZERO DUP1 ISZERO PUSH2 0x7C6 JUMPI RETURNDATASIZE PUSH1 0x0 DUP1 RETURNDATACOPY RETURNDATASIZE PUSH1 0x0 REVERT JUMPDEST POP POP POP POP PUSH1 0x1 PUSH1 0x2 DUP4 PUSH1 0x81 DUP2 LT PUSH2 0x7DF JUMPI PUSH2 0x7DF PUSH2 0x244C JUMP JUMPDEST PUSH1 0x20 DUP2 DIV SWAP1 SWAP2 ADD DUP1 SLOAD SWAP3 ISZERO ISZERO PUSH1 0x1F SWAP1 SWAP3 AND PUSH2 0x100 EXP SWAP2 DUP3 MUL PUSH1 0xFF SWAP1 SWAP3 MUL NOT SWAP1 SWAP3 AND OR SWAP1 SSTORE PUSH1 0x40 MLOAD PUSH4 0x69E38BC3 PUSH1 0xE0 SHL DUP2 MSTORE PUSH2 0xFFFF DUP4 AND PUSH1 0x4 DUP3 ADD MSTORE PUSH2 0x808 SWAP1 PUSH4 0x69E38BC3 SWAP1 PUSH1 0x24 ADD PUSH1 0x20 PUSH1 0x40 MLOAD DUP1 DUP4 SUB DUP2 DUP7 GAS STATICCALL ISZERO DUP1 ISZERO PUSH2 0x844 JUMPI RETURNDATASIZE PUSH1 0x0 DUP1 RETURNDATACOPY RETURNDATASIZE PUSH1 0x0 REVERT JUMPDEST POP POP POP POP PUSH1 0x40 MLOAD RETURNDATASIZE PUSH1 0x1F NOT PUSH1 0x1F DUP3 ADD AND DUP3 ADD DUP1 PUSH1 0x40 MSTORE POP DUP2 ADD SWAP1 PUSH2 0x868 SWAP2 SWAP1 PUSH2 0x2462 JUMP JUMPDEST PUSH1 0x7 DUP4 PUSH1 0x81 DUP2 LT PUSH2 0x87B JUMPI PUSH2 0x87B PUSH2 0x244C JUMP JUMPDEST ADD SSTORE TIMESTAMP PUSH1 0x88 DUP4 PUSH1 0x81 DUP2 LT PUSH2 0x891 JUMPI PUSH2 0x891 PUSH2 0x244C JUMP JUMPDEST ADD SSTORE POP JUMPDEST PUSH2 0x89E PUSH1 0x1 DUP1 SSTORE JUMP JUMPDEST POP POP JUMP JUMPDEST PUSH2 0x8AA PUSH2 0x2102 JUMP JUMPDEST PUSH2 0x8B2 PUSH2 0x2102 JUMP JUMPDEST PUSH2 0x8BA PUSH2 0x2102 JUMP JUMPDEST PUSH2 0x8C2 PUSH2 0x2102 JUMP JUMPDEST PUSH2 0x8CA PUSH2 0x2102 JUMP JUMPDEST PUSH2 0x8D2 PUSH2 0x2102 JUMP JUMPDEST PUSH20 0xA41677C076DABE0FCBBFCA30A6C7B39D4B2ACD02 PUSH1 0x1 PUSH1 0x1 PUSH1 0xA0 SHL SUB AND PUSH4 0x5A9B0B89 PUSH1 0x40 MLOAD DUP2 PUSH4 0xFFFFFFFF AND PUSH1 0xE0 SHL DUP2 MSTORE PUSH1 0x4 ADD PUSH2 0x4080 PUSH1 0x40 MLOAD DUP1 DUP4 SUB DUP2 DUP7 GAS STATICCALL ISZERO DUP1 ISZERO PUSH2 0x925 JUMPI RETURNDATASIZE PUSH1 0x0 DUP1 RETURNDATACOPY RETURNDATASIZE PUSH1 0x0 REVERT JUMPDEST POP POP POP POP PUSH1 0x40 MLOAD RETURNDATASIZE PUSH1 0x1F NOT PUSH1 0x1F DUP3 ADD AND DUP3 ADD DUP1 PUSH1 0x40 MSTORE POP DUP2 ADD SWAP1 PUSH2 0x949 SWAP2 SWAP1 PUSH2 0x251C JUMP JUMPDEST PUSH1 0x40 DUP1 MLOAD PUSH2 0x1020 DUP2 ADD SWAP2 DUP3 SWAP1 MSTORE SWAP5 SWAP11 POP SWAP3 SWAP9 POP SWAP1 SWAP7 POP SWAP4 POP PUSH1 0x2 SWAP1 PUSH1 0x81 SWAP1 DUP3 PUSH1 0x0 DUP6 JUMPDEST DUP3 SLOAD PUSH2 0x100 DUP4 SWAP1 EXP SWAP1 DIV PUSH1 0xFF AND ISZERO ISZERO DUP2 MSTORE PUSH1 0x20 PUSH1 0x1 SWAP3 DUP4 ADD DUP2 DUP2 DIV SWAP5 DUP6 ADD SWAP5 SWAP1 SWAP4 SUB SWAP1 SWAP3 MUL SWAP2 ADD DUP1 DUP5 GT PUSH2 0x96C JUMPI POP POP PUSH1 0x40 DUP1 MLOAD PUSH2 0x1020 DUP2 ADD SWAP2 DUP3 SWAP1 MSTORE SWAP6 SWAP9 POP PUSH1 0x7 SWAP5 POP PUSH1 0x81 SWAP4 POP SWAP2 POP DUP4 SWAP1 POP DUP5 JUMPDEST DUP2 SLOAD DUP2 MSTORE PUSH1 0x20 ADD SWAP1 PUSH1 0x1 ADD SWAP1 DUP1 DUP4 GT PUSH2 0x9BB JUMPI POP POP POP POP POP SWAP1 POP SWAP1 SWAP2 SWAP3 SWAP4 SWAP5 SWAP6 JUMP JUMPDEST PUSH2 0x9E5 PUSH2 0x1FB4 JUMP JUMPDEST PUSH2 0x9ED PUSH2 0x200D JUMP JUMPDEST PUSH1 0x0 JUMPDEST DUP2 DUP2 LT ISZERO PUSH2 0xB11 JUMPI PUSH1 0x0 DUP4 DUP4 DUP4 DUP2 DUP2 LT PUSH2 0xA0C JUMPI PUSH2 0xA0C PUSH2 0x244C JUMP JUMPDEST SWAP1 POP PUSH1 0x20 MUL ADD CALLDATALOAD SWAP1 POP PUSH2 0xA1E DUP2 PUSH2 0x2067 JUMP JUMPDEST PUSH1 0x2 DUP2 PUSH1 0x81 DUP2 LT PUSH2 0xA31 JUMPI PUSH2 0xA31 PUSH2 0x244C JUMP JUMPDEST PUSH1 0x20 DUP2 DIV SWAP1 SWAP2 ADD SLOAD PUSH1 0xFF PUSH1 0x1F SWAP1 SWAP3 AND PUSH2 0x100 EXP SWAP1 DIV AND DUP1 ISZERO PUSH2 0xA67 JUMPI POP PUSH1 0x88 DUP2 PUSH1 0x81 DUP2 LT PUSH2 0xA61 JUMPI PUSH2 0xA61 PUSH2 0x244C JUMP JUMPDEST ADD SLOAD TIMESTAMP EQ ISZERO JUMPDEST ISZERO PUSH2 0xB08 JUMPI PUSH1 0x40 MLOAD PUSH4 0xD4626BB9 PUSH1 0xE0 SHL DUP2 MSTORE PUSH1 0x0 DUP1 MLOAD PUSH1 0x20 PUSH2 0x2687 DUP4 CODECOPY DUP2 MLOAD SWAP2 MSTORE PUSH1 0x4 DUP3 ADD MSTORE PUSH1 0x24 DUP2 ADD DUP3 SWAP1 MSTORE PUSH2 0x805 SWAP1 PUSH4 0xD4626BB9 SWAP1 PUSH1 0x44 ADD PUSH1 0x0 PUSH1 0x40 MLOAD DUP1 DUP4 SUB DUP2 PUSH1 0x0 DUP8 DUP1 EXTCODESIZE ISZERO DUP1 ISZERO PUSH2 0xABB JUMPI PUSH1 0x0 DUP1 REVERT JUMPDEST POP GAS CALL ISZERO DUP1 ISZERO PUSH2 0xACF JUMPI RETURNDATASIZE PUSH1 0x0 DUP1 RETURNDATACOPY RETURNDATASIZE PUSH1 0x0 REVERT JUMPDEST POP POP POP POP PUSH1 0x0 PUSH1 0x2 DUP3 PUSH1 0x81 DUP2 LT PUSH2 0xAE8 JUMPI PUSH2 0xAE8 PUSH2 0x244C JUMP JUMPDEST PUSH1 0x20 SWAP2 DUP3 DUP3 DIV ADD SWAP2 SWAP1 MOD PUSH2 0x100 EXP DUP2 SLOAD DUP2 PUSH1 0xFF MUL NOT AND SWAP1 DUP4 ISZERO ISZERO MUL OR SWAP1 SSTORE POP JUMPDEST POP PUSH1 0x1 ADD PUSH2 0x9F0 JUMP JUMPDEST POP PUSH2 0x89E PUSH1 0x1 DUP1 SSTORE JUMP JUMPDEST PUSH2 0xB23 PUSH2 0x1FB4 JUMP JUMPDEST PUSH2 0xB2B PUSH2 0x200D JUMP JUMPDEST PUSH2 0xB34 DUP2 PUSH2 0x2067 JUMP JUMPDEST PUSH1 0x40 MLOAD PUSH4 0x69E38BC3 PUSH1 0xE0 SHL DUP2 MSTORE PUSH2 0xFFFF DUP3 AND PUSH1 0x4 DUP3 ADD MSTORE PUSH2 0x808 SWAP1 PUSH4 0x69E38BC3 SWAP1 PUSH1 0x24 ADD PUSH1 0x20 PUSH1 0x40 MLOAD DUP1 DUP4 SUB DUP2 DUP7 GAS STATICCALL ISZERO DUP1 ISZERO PUSH2 0xB75 JUMPI RETURNDATASIZE PUSH1 0x0 DUP1 RETURNDATACOPY RETURNDATASIZE PUSH1 0x0 REVERT JUMPDEST POP POP POP POP PUSH1 0x40 MLOAD RETURNDATASIZE PUSH1 0x1F NOT PUSH1 0x1F DUP3 ADD AND DUP3 ADD DUP1 PUSH1 0x40 MSTORE POP DUP2 ADD SWAP1 PUSH2 0xB99 SWAP2 SWAP1 PUSH2 0x2462 JUMP JUMPDEST PUSH1 0x7 DUP3 PUSH1 0x81 DUP2 LT PUSH2 0xBAC JUMPI PUSH2 0xBAC PUSH2 0x244C JUMP JUMPDEST ADD SSTORE TIMESTAMP PUSH1 0x88 DUP3 PUSH1 0x81 DUP2 LT PUSH2 0xBC2 JUMPI PUSH2 0xBC2 PUSH2 0x244C JUMP JUMPDEST ADD SSTORE PUSH2 0xBCD PUSH1 0x1 DUP1 SSTORE JUMP JUMPDEST POP JUMP JUMPDEST PUSH2 0xBD8 PUSH2 0x2102 JUMP JUMPDEST PUSH1 0x1 JUMPDEST PUSH1 0x81 DUP2 PUSH2 0xFFFF AND LT ISZERO PUSH2 0xC8B JUMPI PUSH1 0x40 MLOAD PUSH4 0x71DACC7D PUSH1 0xE1 SHL DUP2 MSTORE PUSH1 0x0 DUP1 MLOAD PUSH1 0x20 PUSH2 0x2687 DUP4 CODECOPY DUP2 MLOAD SWAP2 MSTORE PUSH1 0x4 DUP3 ADD MSTORE PUSH1 0x24 DUP2 ADD DUP5 SWAP1 MSTORE PUSH2 0xFFFF DUP3 AND PUSH1 0x44 DUP3 ADD MSTORE PUSH2 0x805 SWAP1 PUSH4 0xE3B598FA SWAP1 PUSH1 0x64 ADD PUSH1 0x20 PUSH1 0x40 MLOAD DUP1 DUP4 SUB DUP2 DUP7 GAS STATICCALL ISZERO DUP1 ISZERO PUSH2 0xC44 JUMPI RETURNDATASIZE PUSH1 0x0 DUP1 RETURNDATACOPY RETURNDATASIZE PUSH1 0x0 REVERT JUMPDEST POP POP POP POP PUSH1 0x40 MLOAD RETURNDATASIZE PUSH1 0x1F NOT PUSH1 0x1F DUP3 ADD AND DUP3 ADD DUP1 PUSH1 0x40 MSTORE POP DUP2 ADD SWAP1 PUSH2 0xC68 SWAP2 SWAP1 PUSH2 0x2462 JUMP JUMPDEST DUP3 DUP3 PUSH2 0xFFFF AND PUSH1 0x81 DUP2 LT PUSH2 0xC7E JUMPI PUSH2 0xC7E PUSH2 0x244C JUMP JUMPDEST PUSH1 0x20 MUL ADD MSTORE PUSH1 0x1 ADD PUSH2 0xBDB JUMP JUMPDEST POP SWAP2 SWAP1 POP JUMP JUMPDEST PUSH2 0xC99 PUSH2 0x2102 JUMP JUMPDEST PUSH1 0x40 DUP1 MLOAD PUSH2 0x1020 DUP2 ADD SWAP2 DUP3 SWAP1 MSTORE SWAP1 PUSH1 0x7 SWAP1 PUSH1 0x81 SWAP1 DUP3 DUP5 JUMPDEST DUP2 SLOAD DUP2 MSTORE PUSH1 0x20 ADD SWAP1 PUSH1 0x1 ADD SWAP1 DUP1 DUP4 GT PUSH2 0xCB0 JUMPI POP POP POP POP POP SWAP1 POP SWAP1 JUMP JUMPDEST PUSH2 0xCD5 PUSH2 0x1FB4 JUMP JUMPDEST PUSH2 0xCDD PUSH2 0x200D JUMP JUMPDEST PUSH2 0xCE6 DUP6 PUSH2 0x2067 JUMP JUMPDEST DUP3 DUP2 EQ PUSH2 0xD06 JUMPI PUSH1 0x40 MLOAD PUSH4 0x512509D3 PUSH1 0xE1 SHL DUP2 MSTORE PUSH1 0x4 ADD PUSH1 0x40 MLOAD DUP1 SWAP2 SUB SWAP1 REVERT JUMPDEST PUSH1 0x2 DUP6 PUSH1 0x81 DUP2 LT PUSH2 0xD19 JUMPI PUSH2 0xD19 PUSH2 0x244C JUMP JUMPDEST PUSH1 0x20 DUP2 DIV SWAP1 SWAP2 ADD SLOAD PUSH1 0xFF PUSH1 0x1F SWAP1 SWAP3 AND PUSH2 0x100 EXP SWAP1 DIV AND DUP1 ISZERO PUSH2 0xD4F JUMPI POP PUSH1 0x88 DUP6 PUSH1 0x81 DUP2 LT PUSH2 0xD49 JUMPI PUSH2 0xD49 PUSH2 0x244C JUMP JUMPDEST ADD SLOAD TIMESTAMP EQ ISZERO JUMPDEST ISZERO PUSH2 0xF61 JUMPI PUSH1 0x0 DUP1 JUMPDEST DUP5 DUP2 LT ISZERO PUSH2 0xE1C JUMPI PUSH2 0x805 PUSH4 0xE3B598FA DUP8 DUP8 DUP5 DUP2 DUP2 LT PUSH2 0xD7A JUMPI PUSH2 0xD7A PUSH2 0x244C JUMP JUMPDEST SWAP1 POP PUSH1 0x20 MUL ADD CALLDATALOAD DUP7 DUP7 DUP6 DUP2 DUP2 LT PUSH2 0xD93 JUMPI PUSH2 0xD93 PUSH2 0x244C JUMP JUMPDEST PUSH1 0x40 MLOAD PUSH1 0x1 PUSH1 0x1 PUSH1 0xE0 SHL SUB NOT PUSH1 0xE0 DUP8 SWAP1 SHL AND DUP2 MSTORE PUSH1 0x4 DUP2 ADD SWAP5 SWAP1 SWAP5 MSTORE PUSH1 0x20 MUL SWAP2 SWAP1 SWAP2 ADD CALLDATALOAD PUSH1 0x24 DUP4 ADD MSTORE POP PUSH1 0x44 DUP2 ADD DUP11 SWAP1 MSTORE PUSH1 0x64 ADD PUSH1 0x20 PUSH1 0x40 MLOAD DUP1 DUP4 SUB DUP2 DUP7 GAS STATICCALL ISZERO DUP1 ISZERO PUSH2 0xDE4 JUMPI RETURNDATASIZE PUSH1 0x0 DUP1 RETURNDATACOPY RETURNDATASIZE PUSH1 0x0 REVERT JUMPDEST POP POP POP POP PUSH1 0x40 MLOAD RETURNDATASIZE PUSH1 0x1F NOT PUSH1 0x1F DUP3 ADD AND DUP3 ADD DUP1 PUSH1 0x40 MSTORE POP DUP2 ADD SWAP1 PUSH2 0xE08 SWAP2 SWAP1 PUSH2 0x2462 JUMP JUMPDEST PUSH2 0xE12 SWAP1 DUP4 PUSH2 0x261F JUMP JUMPDEST SWAP2 POP PUSH1 0x1 ADD PUSH2 0xD58 JUMP JUMPDEST POP PUSH1 0x0 DUP2 GT DUP1 PUSH2 0xEBE JUMPI POP PUSH2 0x3E8 PUSH2 0x109 SLOAD PUSH1 0x7 DUP9 PUSH1 0x81 DUP2 LT PUSH2 0xE41 JUMPI PUSH2 0xE41 PUSH2 0x244C JUMP JUMPDEST ADD SLOAD PUSH2 0xE4D SWAP2 SWAP1 PUSH2 0x2632 JUMP JUMPDEST PUSH2 0xE57 SWAP2 SWAP1 PUSH2 0x2649 JUMP JUMPDEST PUSH1 0x40 MLOAD PUSH4 0x69E38BC3 PUSH1 0xE0 SHL DUP2 MSTORE PUSH2 0xFFFF DUP9 AND PUSH1 0x4 DUP3 ADD MSTORE PUSH2 0x808 SWAP1 PUSH4 0x69E38BC3 SWAP1 PUSH1 0x24 ADD PUSH1 0x20 PUSH1 0x40 MLOAD DUP1 DUP4 SUB DUP2 DUP7 GAS STATICCALL ISZERO DUP1 ISZERO PUSH2 0xE98 JUMPI RETURNDATASIZE PUSH1 0x0 DUP1 RETURNDATACOPY RETURNDATASIZE PUSH1 0x0 REVERT JUMPDEST POP POP POP POP PUSH1 0x40 MLOAD RETURNDATASIZE PUSH1 0x1F NOT PUSH1 0x1F DUP3 ADD AND DUP3 ADD DUP1 PUSH1 0x40 MSTORE POP DUP2 ADD SWAP1 PUSH2 0xEBC SWAP2 SWAP1 PUSH2 0x2462 JUMP JUMPDEST GT JUMPDEST ISZERO PUSH2 0xF5F JUMPI PUSH1 0x40 MLOAD PUSH4 0xD4626BB9 PUSH1 0xE0 SHL DUP2 MSTORE PUSH1 0x0 DUP1 MLOAD PUSH1 0x20 PUSH2 0x2687 DUP4 CODECOPY DUP2 MLOAD SWAP2 MSTORE PUSH1 0x4 DUP3 ADD MSTORE PUSH1 0x24 DUP2 ADD DUP8 SWAP1 MSTORE PUSH2 0x805 SWAP1 PUSH4 0xD4626BB9 SWAP1 PUSH1 0x44 ADD PUSH1 0x0 PUSH1 0x40 MLOAD DUP1 DUP4 SUB DUP2 PUSH1 0x0 DUP8 DUP1 EXTCODESIZE ISZERO DUP1 ISZERO PUSH2 0xF12 JUMPI PUSH1 0x0 DUP1 REVERT JUMPDEST POP GAS CALL ISZERO DUP1 ISZERO PUSH2 0xF26 JUMPI RETURNDATASIZE PUSH1 0x0 DUP1 RETURNDATACOPY RETURNDATASIZE PUSH1 0x0 REVERT JUMPDEST POP POP POP POP PUSH1 0x0 PUSH1 0x2 DUP8 PUSH1 0x81 DUP2 LT PUSH2 0xF3F JUMPI PUSH2 0xF3F PUSH2 0x244C JUMP JUMPDEST PUSH1 0x20 SWAP2 DUP3 DUP3 DIV ADD SWAP2 SWAP1 MOD PUSH2 0x100 EXP DUP2 SLOAD DUP2 PUSH1 0xFF MUL NOT AND SWAP1 DUP4 ISZERO ISZERO MUL OR SWAP1 SSTORE POP JUMPDEST POP JUMPDEST PUSH2 0xF6A PUSH1 0x1 DUP1 SSTORE JUMP JUMPDEST POP POP POP POP POP JUMP JUMPDEST PUSH2 0xF79 PUSH2 0x200D JUMP JUMPDEST PUSH2 0x109 SSTORE JUMP JUMPDEST PUSH2 0xF87 PUSH2 0x2102 JUMP JUMPDEST PUSH1 0x40 DUP1 MLOAD PUSH2 0x1020 DUP2 ADD SWAP2 DUP3 SWAP1 MSTORE PUSH1 0x88 DUP1 SLOAD DUP3 MSTORE SWAP1 SWAP2 PUSH1 0x81 SWAP1 PUSH1 0x89 PUSH1 0x20 DUP6 ADD DUP1 DUP4 GT PUSH2 0xCB0 JUMPI POP POP POP POP POP SWAP1 POP SWAP1 JUMP JUMPDEST PUSH2 0xFBE PUSH2 0x2102 JUMP JUMPDEST PUSH2 0xFC6 PUSH2 0x2102 JUMP JUMPDEST PUSH2 0xFCE PUSH2 0x2102 JUMP JUMPDEST PUSH2 0xFD6 PUSH2 0x2102 JUMP JUMPDEST PUSH8 0xDE0B6B3A7640000 DUP5 MSTORE PUSH1 0x1 DUP1 DUP5 MSTORE JUMPDEST PUSH1 0x81 DUP2 PUSH2 0xFFFF AND LT ISZERO PUSH2 0x109D JUMPI PUSH1 0x40 MLOAD PUSH4 0x69E38BC3 PUSH1 0xE0 SHL DUP2 MSTORE PUSH2 0xFFFF DUP3 AND PUSH1 0x4 DUP3 ADD MSTORE PUSH2 0x808 SWAP1 PUSH4 0x69E38BC3 SWAP1 PUSH1 0x24 ADD PUSH1 0x20 PUSH1 0x40 MLOAD DUP1 DUP4 SUB DUP2 DUP7 GAS STATICCALL SWAP3 POP POP POP DUP1 ISZERO PUSH2 0x1051 JUMPI POP PUSH1 0x40 DUP1 MLOAD PUSH1 0x1F RETURNDATASIZE SWAP1 DUP2 ADD PUSH1 0x1F NOT AND DUP3 ADD SWAP1 SWAP3 MSTORE PUSH2 0x104E SWAP2 DUP2 ADD SWAP1 PUSH2 0x2462 JUMP JUMPDEST PUSH1 0x1 JUMPDEST PUSH2 0x1077 JUMPI PUSH1 0x0 DUP6 DUP3 PUSH2 0xFFFF AND PUSH1 0x81 DUP2 LT PUSH2 0x106D JUMPI PUSH2 0x106D PUSH2 0x244C JUMP JUMPDEST PUSH1 0x20 MUL ADD MSTORE PUSH2 0x1095 JUMP JUMPDEST DUP1 DUP7 DUP4 PUSH2 0xFFFF AND PUSH1 0x81 DUP2 LT PUSH2 0x108E JUMPI PUSH2 0x108E PUSH2 0x244C JUMP JUMPDEST PUSH1 0x20 MUL ADD MSTORE POP JUMPDEST PUSH1 0x1 ADD PUSH2 0xFE7 JUMP JUMPDEST POP PUSH1 0x1 JUMPDEST PUSH1 0x81 DUP2 PUSH2 0xFFFF AND LT ISZERO PUSH2 0x1175 JUMPI PUSH1 0x40 MLOAD PUSH4 0x2D9BFC71 PUSH1 0xE0 SHL DUP2 MSTORE PUSH2 0xFFFF DUP3 AND PUSH1 0x4 DUP3 ADD MSTORE PUSH2 0x808 SWAP1 PUSH4 0x2D9BFC71 SWAP1 PUSH1 0x24 ADD PUSH1 0x20 PUSH1 0x40 MLOAD DUP1 DUP4 SUB DUP2 DUP7 GAS STATICCALL SWAP3 POP POP POP DUP1 ISZERO PUSH2 0x110B JUMPI POP PUSH1 0x40 DUP1 MLOAD PUSH1 0x1F RETURNDATASIZE SWAP1 DUP2 ADD PUSH1 0x1F NOT AND DUP3 ADD SWAP1 SWAP3 MSTORE PUSH2 0x1108 SWAP2 DUP2 ADD SWAP1 PUSH2 0x266B JUMP JUMPDEST PUSH1 0x1 JUMPDEST PUSH2 0x1140 JUMPI PUSH1 0x0 DUP5 DUP3 PUSH2 0xFFFF AND PUSH1 0x81 DUP2 LT PUSH2 0x1127 JUMPI PUSH2 0x1127 PUSH2 0x244C JUMP JUMPDEST PUSH8 0xFFFFFFFFFFFFFFFF SWAP1 SWAP3 AND PUSH1 0x20 SWAP3 SWAP1 SWAP3 MUL ADD MSTORE PUSH2 0x116D JUMP JUMPDEST DUP1 DUP6 DUP4 PUSH2 0xFFFF AND PUSH1 0x81 DUP2 LT PUSH2 0x1157 JUMPI PUSH2 0x1157 PUSH2 0x244C JUMP JUMPDEST PUSH8 0xFFFFFFFFFFFFFFFF SWAP1 SWAP3 AND PUSH1 0x20 SWAP3 SWAP1 SWAP3 MUL ADD MSTORE POP JUMPDEST PUSH1 0x1 ADD PUSH2 0x10A1 JUMP JUMPDEST POP PUSH1 0x40 DUP1 MLOAD PUSH2 0x1020 DUP2 ADD SWAP2 DUP3 SWAP1 MSTORE SWAP1 PUSH1 0x2 SWAP1 PUSH1 0x81 SWAP1 DUP3 PUSH1 0x0 DUP6 JUMPDEST DUP3 SLOAD PUSH2 0x100 DUP4 SWAP1 EXP SWAP1 DIV PUSH1 0xFF AND ISZERO ISZERO DUP2 MSTORE PUSH1 0x20 PUSH1 0x1 SWAP3 DUP4 ADD DUP2 DUP2 DIV SWAP5 DUP6 ADD SWAP5 SWAP1 SWAP4 SUB SWAP1 SWAP3 MUL SWAP2 ADD DUP1 DUP5 GT PUSH2 0x118F JUMPI POP POP PUSH1 0x40 DUP1 MLOAD PUSH2 0x1020 DUP2 ADD SWAP2 DUP3 SWAP1 MSTORE SWAP6 SWAP8 POP PUSH1 0x7 SWAP5 POP PUSH1 0x81 SWAP4 POP SWAP2 POP DUP4 SWAP1 POP DUP5 JUMPDEST DUP2 SLOAD DUP2 MSTORE PUSH1 0x20 ADD SWAP1 PUSH1 0x1 ADD SWAP1 DUP1 DUP4 GT PUSH2 0x11DE JUMPI POP POP POP POP POP SWAP1 POP SWAP1 SWAP2 SWAP3 SWAP4 JUMP JUMPDEST PUSH2 0x1206 PUSH2 0x200D JUMP JUMPDEST PUSH2 0x1210 PUSH1 0x0 PUSH2 0x20B2 JUMP JUMPDEST JUMP JUMPDEST PUSH2 0x121A PUSH2 0x1FB4 JUMP JUMPDEST PUSH2 0x1222 PUSH2 0x200D JUMP JUMPDEST DUP3 ISZERO PUSH2 0x13BF JUMPI PUSH1 0x0 JUMPDEST DUP2 DUP2 LT ISZERO PUSH2 0x13BD JUMPI PUSH1 0x0 DUP4 DUP4 DUP4 DUP2 DUP2 LT PUSH2 0x1247 JUMPI PUSH2 0x1247 PUSH2 0x244C JUMP JUMPDEST SWAP1 POP PUSH1 0x20 MUL ADD CALLDATALOAD SWAP1 POP PUSH2 0x1259 DUP2 PUSH2 0x2067 JUMP JUMPDEST PUSH1 0x2 DUP2 PUSH1 0x81 DUP2 LT PUSH2 0x126C JUMPI PUSH2 0x126C PUSH2 0x244C JUMP JUMPDEST PUSH1 0x20 DUP2 DIV SWAP1 SWAP2 ADD SLOAD PUSH1 0xFF PUSH1 0x1F SWAP1 SWAP3 AND PUSH2 0x100 EXP SWAP1 DIV AND ISZERO PUSH2 0x13B4 JUMPI PUSH1 0x0 PUSH2 0x1293 SELFBALANCE DUP8 PUSH2 0x2088 JUMP JUMPDEST SWAP1 POP DUP1 PUSH1 0x0 SUB PUSH2 0x12A5 JUMPI POP POP POP PUSH2 0x13BF JUMP JUMPDEST PUSH2 0x805 PUSH4 0x1FC9B141 PUSH1 0x0 DUP1 MLOAD PUSH1 0x20 PUSH2 0x2687 DUP4 CODECOPY DUP2 MLOAD SWAP2 MSTORE PUSH2 0x12C5 DUP5 PUSH2 0x20A2 JUMP JUMPDEST PUSH1 0x40 MLOAD PUSH1 0x1 PUSH1 0x1 PUSH1 0xE0 SHL SUB NOT PUSH1 0xE0 DUP6 SWAP1 SHL AND DUP2 MSTORE PUSH1 0x4 DUP2 ADD SWAP3 SWAP1 SWAP3 MSTORE PUSH1 0x24 DUP3 ADD MSTORE PUSH1 0x44 DUP2 ADD DUP6 SWAP1 MSTORE PUSH1 0x64 ADD PUSH1 0x0 PUSH1 0x40 MLOAD DUP1 DUP4 SUB DUP2 PUSH1 0x0 DUP8 DUP1 EXTCODESIZE ISZERO DUP1 ISZERO PUSH2 0x130A JUMPI PUSH1 0x0 DUP1 REVERT JUMPDEST POP GAS CALL ISZERO DUP1 ISZERO PUSH2 0x131E JUMPI RETURNDATASIZE PUSH1 0x0 DUP1 RETURNDATACOPY RETURNDATASIZE PUSH1 0x0 REVERT JUMPDEST POP POP PUSH1 0x40 MLOAD PUSH4 0x69E38BC3 PUSH1 0xE0 SHL DUP2 MSTORE PUSH2 0xFFFF DUP6 AND PUSH1 0x4 DUP3 ADD MSTORE PUSH2 0x808 SWAP3 POP PUSH4 0x69E38BC3 SWAP2 POP PUSH1 0x24 ADD PUSH1 0x20 PUSH1 0x40 MLOAD DUP1 DUP4 SUB DUP2 DUP7 GAS STATICCALL ISZERO DUP1 ISZERO PUSH2 0x1363 JUMPI RETURNDATASIZE PUSH1 0x0 DUP1 RETURNDATACOPY RETURNDATASIZE PUSH1 0x0 REVERT JUMPDEST POP POP POP POP PUSH1 0x40 MLOAD RETURNDATASIZE PUSH1 0x1F NOT PUSH1 0x1F DUP3 ADD AND DUP3 ADD DUP1 PUSH1 0x40 MSTORE POP DUP2 ADD SWAP1 PUSH2 0x1387 SWAP2 SWAP1 PUSH2 0x2462 JUMP JUMPDEST PUSH1 0x7 DUP4 PUSH1 0x81 DUP2 LT PUSH2 0x139A JUMPI PUSH2 0x139A PUSH2 0x244C JUMP JUMPDEST ADD SSTORE TIMESTAMP PUSH1 0x88 DUP4 PUSH1 0x81 DUP2 LT PUSH2 0x13B0 JUMPI PUSH2 0x13B0 PUSH2 0x244C JUMP JUMPDEST ADD SSTORE POP JUMPDEST POP PUSH1 0x1 ADD PUSH2 0x122B JUMP JUMPDEST POP JUMPDEST PUSH2 0x13C8 PUSH1 0x1 DUP1 SSTORE JUMP JUMPDEST POP POP POP JUMP JUMPDEST PUSH1 0x88 DUP2 PUSH1 0x81 DUP2 LT PUSH2 0x13DD JUMPI PUSH1 0x0 DUP1 REVERT JUMPDEST ADD SLOAD SWAP1 POP DUP2 JUMP JUMPDEST PUSH1 0x7 DUP2 PUSH1 0x81 DUP2 LT PUSH2 0x13DD JUMPI PUSH1 0x0 DUP1 REVERT JUMPDEST PUSH2 0x13FC PUSH2 0x1FB4 JUMP JUMPDEST PUSH2 0x1404 PUSH2 0x200D JUMP JUMPDEST PUSH2 0x140D DUP2 PUSH2 0x2067 JUMP JUMPDEST DUP2 ISZERO DUP1 ISZERO SWAP1 PUSH2 0x1441 JUMPI POP PUSH1 0x2 DUP2 PUSH1 0x81 DUP2 LT PUSH2 0x142A JUMPI PUSH2 0x142A PUSH2 0x244C JUMP JUMPDEST PUSH1 0x20 DUP2 DIV SWAP1 SWAP2 ADD SLOAD PUSH1 0xFF PUSH1 0x1F SWAP1 SWAP3 AND PUSH2 0x100 EXP SWAP1 DIV AND JUMPDEST ISZERO PUSH2 0x895 JUMPI PUSH2 0x805 PUSH4 0x1FC9B141 PUSH1 0x0 DUP1 MLOAD PUSH1 0x20 PUSH2 0x2687 DUP4 CODECOPY DUP2 MLOAD SWAP2 MSTORE PUSH2 0x146A PUSH2 0x768 SELFBALANCE DUP8 PUSH2 0x2088 JUMP JUMPDEST PUSH1 0x40 MLOAD PUSH1 0x1 PUSH1 0x1 PUSH1 0xE0 SHL SUB NOT PUSH1 0xE0 DUP6 SWAP1 SHL AND DUP2 MSTORE PUSH1 0x4 DUP2 ADD SWAP3 SWAP1 SWAP3 MSTORE PUSH1 0x24 DUP3 ADD MSTORE PUSH1 0x44 DUP2 ADD DUP5 SWAP1 MSTORE PUSH1 0x64 ADD PUSH1 0x0 PUSH1 0x40 MLOAD DUP1 DUP4 SUB DUP2 PUSH1 0x0 DUP8 DUP1 EXTCODESIZE ISZERO DUP1 ISZERO PUSH2 0x14AF JUMPI PUSH1 0x0 DUP1 REVERT JUMPDEST POP GAS CALL ISZERO DUP1 ISZERO PUSH2 0x14C3 JUMPI RETURNDATASIZE PUSH1 0x0 DUP1 RETURNDATACOPY RETURNDATASIZE PUSH1 0x0 REVERT JUMPDEST POP POP PUSH1 0x40 MLOAD PUSH4 0x69E38BC3 PUSH1 0xE0 SHL DUP2 MSTORE PUSH2 0xFFFF DUP5 AND PUSH1 0x4 DUP3 ADD MSTORE PUSH2 0x808 SWAP3 POP PUSH4 0x69E38BC3 SWAP2 POP PUSH1 0x24 ADD PUSH1 0x20 PUSH1 0x40 MLOAD DUP1 DUP4 SUB DUP2 DUP7 GAS STATICCALL ISZERO DUP1 ISZERO PUSH2 0x1508 JUMPI RETURNDATASIZE PUSH1 0x0 DUP1 RETURNDATACOPY RETURNDATASIZE PUSH1 0x0 REVERT JUMPDEST POP POP POP POP PUSH1 0x40 MLOAD RETURNDATASIZE PUSH1 0x1F NOT PUSH1 0x1F DUP3 ADD AND DUP3 ADD DUP1 PUSH1 0x40 MSTORE POP DUP2 ADD SWAP1 PUSH2 0x152C SWAP2 SWAP1 PUSH2 0x2462 JUMP JUMPDEST PUSH1 0x7 DUP3 PUSH1 0x81 DUP2 LT PUSH2 0x153F JUMPI PUSH2 0x153F PUSH2 0x244C JUMP JUMPDEST ADD SSTORE TIMESTAMP PUSH1 0x88 DUP3 PUSH1 0x81 DUP2 LT PUSH2 0x1555 JUMPI PUSH2 0x1555 PUSH2 0x244C JUMP JUMPDEST ADD SSTORE PUSH2 0x89E PUSH1 0x1 DUP1 SSTORE JUMP JUMPDEST PUSH2 0x1568 PUSH2 0x1FB4 JUMP JUMPDEST PUSH2 0x1570 PUSH2 0x200D JUMP JUMPDEST DUP3 ISZERO PUSH2 0x13BF JUMPI PUSH1 0x0 JUMPDEST DUP2 DUP2 LT ISZERO PUSH2 0x13BD JUMPI PUSH1 0x0 DUP4 DUP4 DUP4 DUP2 DUP2 LT PUSH2 0x1595 JUMPI PUSH2 0x1595 PUSH2 0x244C JUMP JUMPDEST SWAP1 POP PUSH1 0x20 MUL ADD CALLDATALOAD SWAP1 POP PUSH2 0x15A7 DUP2 PUSH2 0x2067 JUMP JUMPDEST PUSH1 0x2 DUP2 PUSH1 0x81 DUP2 LT PUSH2 0x15BA JUMPI PUSH2 0x15BA PUSH2 0x244C JUMP JUMPDEST PUSH1 0x20 DUP2 DIV SWAP1 SWAP2 ADD SLOAD PUSH1 0xFF PUSH1 0x1F SWAP1 SWAP3 AND PUSH2 0x100 EXP SWAP1 DIV AND PUSH2 0x17C7 JUMPI PUSH1 0x0 PUSH2 0x15E0 SELFBALANCE DUP8 PUSH2 0x2088 JUMP JUMPDEST PUSH2 0x10B SLOAD PUSH2 0x10C SLOAD PUSH1 0x40 MLOAD PUSH4 0x71DACC7D PUSH1 0xE1 SHL DUP2 MSTORE PUSH1 0x4 DUP2 ADD SWAP3 SWAP1 SWAP3 MSTORE PUSH1 0x24 DUP3 ADD MSTORE PUSH1 0x44 DUP2 ADD DUP5 SWAP1 MSTORE SWAP1 SWAP2 POP PUSH1 0x0 SWAP1 PUSH2 0x805 SWAP1 PUSH4 0xE3B598FA SWAP1 PUSH1 0x64 ADD PUSH1 0x20 PUSH1 0x40 MLOAD DUP1 DUP4 SUB DUP2 DUP7 GAS STATICCALL ISZERO DUP1 ISZERO PUSH2 0x1639 JUMPI RETURNDATASIZE PUSH1 0x0 DUP1 RETURNDATACOPY RETURNDATASIZE PUSH1 0x0 REVERT JUMPDEST POP POP POP POP PUSH1 0x40 MLOAD RETURNDATASIZE PUSH1 0x1F NOT PUSH1 0x1F DUP3 ADD AND DUP3 ADD DUP1 PUSH1 0x40 MSTORE POP DUP2 ADD SWAP1 PUSH2 0x165D SWAP2 SWAP1 PUSH2 0x2462 JUMP JUMPDEST SWAP1 POP DUP1 ISZERO PUSH2 0x166D JUMPI POP POP POP PUSH2 0x17C9 JUMP JUMPDEST DUP2 PUSH1 0x0 SUB PUSH2 0x167E JUMPI POP POP POP POP PUSH2 0x13BF JUMP JUMPDEST PUSH2 0x805 PUSH4 0x1FC9B141 PUSH1 0x0 DUP1 MLOAD PUSH1 0x20 PUSH2 0x2687 DUP4 CODECOPY DUP2 MLOAD SWAP2 MSTORE PUSH2 0x169E DUP6 PUSH2 0x20A2 JUMP JUMPDEST PUSH1 0x40 MLOAD PUSH1 0x1 PUSH1 0x1 PUSH1 0xE0 SHL SUB NOT PUSH1 0xE0 DUP6 SWAP1 SHL AND DUP2 MSTORE PUSH1 0x4 DUP2 ADD SWAP3 SWAP1 SWAP3 MSTORE PUSH1 0x24 DUP3 ADD MSTORE PUSH1 0x44 DUP2 ADD DUP7 SWAP1 MSTORE PUSH1 0x64 ADD PUSH1 0x0 PUSH1 0x40 MLOAD DUP1 DUP4 SUB DUP2 PUSH1 0x0 DUP8 DUP1 EXTCODESIZE ISZERO DUP1 ISZERO PUSH2 0x16E3 JUMPI PUSH1 0x0 DUP1 REVERT JUMPDEST POP GAS CALL ISZERO DUP1 ISZERO PUSH2 0x16F7 JUMPI RETURNDATASIZE PUSH1 0x0 DUP1 RETURNDATACOPY RETURNDATASIZE PUSH1 0x0 REVERT JUMPDEST POP POP POP POP PUSH1 0x1 PUSH1 0x2 DUP5 PUSH1 0x81 DUP2 LT PUSH2 0x1710 JUMPI PUSH2 0x1710 PUSH2 0x244C JUMP JUMPDEST PUSH1 0x20 DUP2 DIV SWAP1 SWAP2 ADD DUP1 SLOAD SWAP3 ISZERO ISZERO PUSH1 0x1F SWAP1 SWAP3 AND PUSH2 0x100 EXP SWAP2 DUP3 MUL PUSH1 0xFF SWAP1 SWAP3 MUL NOT SWAP1 SWAP3 AND OR SWAP1 SSTORE PUSH1 0x40 MLOAD PUSH4 0x69E38BC3 PUSH1 0xE0 SHL DUP2 MSTORE PUSH2 0xFFFF DUP5 AND PUSH1 0x4 DUP3 ADD MSTORE PUSH2 0x808 SWAP1 PUSH4 0x69E38BC3 SWAP1 PUSH1 0x24 ADD PUSH1 0x20 PUSH1 0x40 MLOAD DUP1 DUP4 SUB DUP2 DUP7 GAS STATICCALL ISZERO DUP1 ISZERO PUSH2 0x1775 JUMPI RETURNDATASIZE PUSH1 0x0 DUP1 RETURNDATACOPY RETURNDATASIZE PUSH1 0x0 REVERT JUMPDEST POP POP POP POP PUSH1 0x40 MLOAD RETURNDATASIZE PUSH1 0x1F NOT PUSH1 0x1F DUP3 ADD AND DUP3 ADD DUP1 PUSH1 0x40 MSTORE POP DUP2 ADD SWAP1 PUSH2 0x1799 SWAP2 SWAP1 PUSH2 0x2462 JUMP JUMPDEST PUSH1 0x7 DUP5 PUSH1 0x81 DUP2 LT PUSH2 0x17AC JUMPI PUSH2 0x17AC PUSH2 0x244C JUMP JUMPDEST ADD SSTORE TIMESTAMP PUSH1 0x88 DUP5 PUSH1 0x81 DUP2 LT PUSH2 0x17C2 JUMPI PUSH2 0x17C2 PUSH2 0x244C JUMP JUMPDEST ADD SSTORE POP POP JUMPDEST POP JUMPDEST PUSH1 0x1 ADD PUSH2 0x1579 JUMP JUMPDEST PUSH2 0x17D9 PUSH2 0x1FB4 JUMP JUMPDEST PUSH2 0x17E1 PUSH2 0x200D JUMP JUMPDEST PUSH2 0x17EA DUP2 PUSH2 0x2067 JUMP JUMPDEST PUSH1 0x2 DUP2 PUSH1 0x81 DUP2 LT PUSH2 0x17FD JUMPI PUSH2 0x17FD PUSH2 0x244C JUMP JUMPDEST PUSH1 0x20 DUP2 DIV SWAP1 SWAP2 ADD SLOAD PUSH1 0xFF PUSH1 0x1F SWAP1 SWAP3 AND PUSH2 0x100 EXP SWAP1 DIV AND DUP1 ISZERO PUSH2 0x1833 JUMPI POP PUSH1 0x88 DUP2 PUSH1 0x81 DUP2 LT PUSH2 0x182D JUMPI PUSH2 0x182D PUSH2 0x244C JUMP JUMPDEST ADD SLOAD TIMESTAMP EQ ISZERO JUMPDEST ISZERO PUSH2 0x19F8 JUMPI PUSH2 0x10B SLOAD PUSH2 0x10C SLOAD PUSH1 0x40 MLOAD PUSH4 0x71DACC7D PUSH1 0xE1 SHL DUP2 MSTORE PUSH1 0x4 DUP2 ADD SWAP3 SWAP1 SWAP3 MSTORE PUSH1 0x24 DUP3 ADD MSTORE PUSH1 0x44 DUP2 ADD DUP3 SWAP1 MSTORE PUSH1 0x0 SWAP1 PUSH2 0x805 SWAP1 PUSH4 0xE3B598FA SWAP1 PUSH1 0x64 ADD PUSH1 0x20 PUSH1 0x40 MLOAD DUP1 DUP4 SUB DUP2 DUP7 GAS STATICCALL ISZERO DUP1 ISZERO PUSH2 0x188E JUMPI RETURNDATASIZE PUSH1 0x0 DUP1 RETURNDATACOPY RETURNDATASIZE PUSH1 0x0 REVERT JUMPDEST POP POP POP POP PUSH1 0x40 MLOAD RETURNDATASIZE PUSH1 0x1F NOT PUSH1 0x1F DUP3 ADD AND DUP3 ADD DUP1 PUSH1 0x40 MSTORE POP DUP2 ADD SWAP1 PUSH2 0x18B2 SWAP2 SWAP1 PUSH2 0x2462 JUMP JUMPDEST SWAP1 POP PUSH1 0x0 DUP2 GT DUP1 PUSH2 0x1955 JUMPI POP PUSH2 0x3E8 PUSH2 0x109 SLOAD PUSH1 0x7 DUP5 PUSH1 0x81 DUP2 LT PUSH2 0x18D8 JUMPI PUSH2 0x18D8 PUSH2 0x244C JUMP JUMPDEST ADD SLOAD PUSH2 0x18E4 SWAP2 SWAP1 PUSH2 0x2632 JUMP JUMPDEST PUSH2 0x18EE SWAP2 SWAP1 PUSH2 0x2649 JUMP JUMPDEST PUSH1 0x40 MLOAD PUSH4 0x69E38BC3 PUSH1 0xE0 SHL DUP2 MSTORE PUSH2 0xFFFF DUP5 AND PUSH1 0x4 DUP3 ADD MSTORE PUSH2 0x808 SWAP1 PUSH4 0x69E38BC3 SWAP1 PUSH1 0x24 ADD PUSH1 0x20 PUSH1 0x40 MLOAD DUP1 DUP4 SUB DUP2 DUP7 GAS STATICCALL ISZERO DUP1 ISZERO PUSH2 0x192F JUMPI RETURNDATASIZE PUSH1 0x0 DUP1 RETURNDATACOPY RETURNDATASIZE PUSH1 0x0 REVERT JUMPDEST POP POP POP POP PUSH1 0x40 MLOAD RETURNDATASIZE PUSH1 0x1F NOT PUSH1 0x1F DUP3 ADD AND DUP3 ADD DUP1 PUSH1 0x40 MSTORE POP DUP2 ADD SWAP1 PUSH2 0x1953 SWAP2 SWAP1 PUSH2 0x2462 JUMP JUMPDEST GT JUMPDEST ISZERO PUSH2 0x19F6 JUMPI PUSH1 0x40 MLOAD PUSH4 0xD4626BB9 PUSH1 0xE0 SHL DUP2 MSTORE PUSH1 0x0 DUP1 MLOAD PUSH1 0x20 PUSH2 0x2687 DUP4 CODECOPY DUP2 MLOAD SWAP2 MSTORE PUSH1 0x4 DUP3 ADD MSTORE PUSH1 0x24 DUP2 ADD DUP4 SWAP1 MSTORE PUSH2 0x805 SWAP1 PUSH4 0xD4626BB9 SWAP1 PUSH1 0x44 ADD PUSH1 0x0 PUSH1 0x40 MLOAD DUP1 DUP4 SUB DUP2 PUSH1 0x0 DUP8 DUP1 EXTCODESIZE ISZERO DUP1 ISZERO PUSH2 0x19A9 JUMPI PUSH1 0x0 DUP1 REVERT JUMPDEST POP GAS CALL ISZERO DUP1 ISZERO PUSH2 0x19BD JUMPI RETURNDATASIZE PUSH1 0x0 DUP1 RETURNDATACOPY RETURNDATASIZE PUSH1 0x0 REVERT JUMPDEST POP POP POP POP PUSH1 0x0 PUSH1 0x2 DUP4 PUSH1 0x81 DUP2 LT PUSH2 0x19D6 JUMPI PUSH2 0x19D6 PUSH2 0x244C JUMP JUMPDEST PUSH1 0x20 SWAP2 DUP3 DUP3 DIV ADD SWAP2 SWAP1 MOD PUSH2 0x100 EXP DUP2 SLOAD DUP2 PUSH1 0xFF MUL NOT AND SWAP1 DUP4 ISZERO ISZERO MUL OR SWAP1 SSTORE POP JUMPDEST POP JUMPDEST PUSH2 0xBCD PUSH1 0x1 DUP1 SSTORE JUMP JUMPDEST PUSH2 0x1A09 PUSH2 0x200D JUMP JUMPDEST PUSH2 0x10C SSTORE JUMP JUMPDEST PUSH2 0x1A17 PUSH2 0x1FB4 JUMP JUMPDEST PUSH2 0x1A1F PUSH2 0x200D JUMP JUMPDEST PUSH1 0x0 JUMPDEST DUP2 DUP2 LT ISZERO PUSH2 0xB11 JUMPI PUSH1 0x0 DUP4 DUP4 DUP4 DUP2 DUP2 LT PUSH2 0x1A3E JUMPI PUSH2 0x1A3E PUSH2 0x244C JUMP JUMPDEST SWAP1 POP PUSH1 0x20 MUL ADD CALLDATALOAD SWAP1 POP PUSH2 0x1A50 DUP2 PUSH2 0x2067 JUMP JUMPDEST PUSH1 0x2 DUP2 PUSH1 0x81 DUP2 LT PUSH2 0x1A63 JUMPI PUSH2 0x1A63 PUSH2 0x244C JUMP JUMPDEST PUSH1 0x20 DUP2 DIV SWAP1 SWAP2 ADD SLOAD PUSH1 0xFF PUSH1 0x1F SWAP1 SWAP3 AND PUSH2 0x100 EXP SWAP1 DIV AND DUP1 ISZERO PUSH2 0x1A99 JUMPI POP PUSH1 0x88 DUP2 PUSH1 0x81 DUP2 LT PUSH2 0x1A93 JUMPI PUSH2 0x1A93 PUSH2 0x244C JUMP JUMPDEST ADD SLOAD TIMESTAMP EQ ISZERO JUMPDEST ISZERO PUSH2 0x1C5E JUMPI PUSH2 0x10B SLOAD PUSH2 0x10C SLOAD PUSH1 0x40 MLOAD PUSH4 0x71DACC7D PUSH1 0xE1 SHL DUP2 MSTORE PUSH1 0x4 DUP2 ADD SWAP3 SWAP1 SWAP3 MSTORE PUSH1 0x24 DUP3 ADD MSTORE PUSH1 0x44 DUP2 ADD DUP3 SWAP1 MSTORE PUSH1 0x0 SWAP1 PUSH2 0x805 SWAP1 PUSH4 0xE3B598FA SWAP1 PUSH1 0x64 ADD PUSH1 0x20 PUSH1 0x40 MLOAD DUP1 DUP4 SUB DUP2 DUP7 GAS STATICCALL ISZERO DUP1 ISZERO PUSH2 0x1AF4 JUMPI RETURNDATASIZE PUSH1 0x0 DUP1 RETURNDATACOPY RETURNDATASIZE PUSH1 0x0 REVERT JUMPDEST POP POP POP POP PUSH1 0x40 MLOAD RETURNDATASIZE PUSH1 0x1F NOT PUSH1 0x1F DUP3 ADD AND DUP3 ADD DUP1 PUSH1 0x40 MSTORE POP DUP2 ADD SWAP1 PUSH2 0x1B18 SWAP2 SWAP1 PUSH2 0x2462 JUMP JUMPDEST SWAP1 POP PUSH1 0x0 DUP2 GT DUP1 PUSH2 0x1BBB JUMPI POP PUSH2 0x3E8 PUSH2 0x109 SLOAD PUSH1 0x7 DUP5 PUSH1 0x81 DUP2 LT PUSH2 0x1B3E JUMPI PUSH2 0x1B3E PUSH2 0x244C JUMP JUMPDEST ADD SLOAD PUSH2 0x1B4A SWAP2 SWAP1 PUSH2 0x2632 JUMP JUMPDEST PUSH2 0x1B54 SWAP2 SWAP1 PUSH2 0x2649 JUMP JUMPDEST PUSH1 0x40 MLOAD PUSH4 0x69E38BC3 PUSH1 0xE0 SHL DUP2 MSTORE PUSH2 0xFFFF DUP5 AND PUSH1 0x4 DUP3 ADD MSTORE PUSH2 0x808 SWAP1 PUSH4 0x69E38BC3 SWAP1 PUSH1 0x24 ADD PUSH1 0x20 PUSH1 0x40 MLOAD DUP1 DUP4 SUB DUP2 DUP7 GAS STATICCALL ISZERO DUP1 ISZERO PUSH2 0x1B95 JUMPI RETURNDATASIZE PUSH1 0x0 DUP1 RETURNDATACOPY RETURNDATASIZE PUSH1 0x0 REVERT JUMPDEST POP POP POP POP PUSH1 0x40 MLOAD RETURNDATASIZE PUSH1 0x1F NOT PUSH1 0x1F DUP3 ADD AND DUP3 ADD DUP1 PUSH1 0x40 MSTORE POP DUP2 ADD SWAP1 PUSH2 0x1BB9 SWAP2 SWAP1 PUSH2 0x2462 JUMP JUMPDEST GT JUMPDEST ISZERO PUSH2 0x1C5C JUMPI PUSH1 0x40 MLOAD PUSH4 0xD4626BB9 PUSH1 0xE0 SHL DUP2 MSTORE PUSH1 0x0 DUP1 MLOAD PUSH1 0x20 PUSH2 0x2687 DUP4 CODECOPY DUP2 MLOAD SWAP2 MSTORE PUSH1 0x4 DUP3 ADD MSTORE PUSH1 0x24 DUP2 ADD DUP4 SWAP1 MSTORE PUSH2 0x805 SWAP1 PUSH4 0xD4626BB9 SWAP1 PUSH1 0x44 ADD PUSH1 0x0 PUSH1 0x40 MLOAD DUP1 DUP4 SUB DUP2 PUSH1 0x0 DUP8 DUP1 EXTCODESIZE ISZERO DUP1 ISZERO PUSH2 0x1C0F JUMPI PUSH1 0x0 DUP1 REVERT JUMPDEST POP GAS CALL ISZERO DUP1 ISZERO PUSH2 0x1C23 JUMPI RETURNDATASIZE PUSH1 0x0 DUP1 RETURNDATACOPY RETURNDATASIZE PUSH1 0x0 REVERT JUMPDEST POP POP POP POP PUSH1 0x0 PUSH1 0x2 DUP4 PUSH1 0x81 DUP2 LT PUSH2 0x1C3C JUMPI PUSH2 0x1C3C PUSH2 0x244C JUMP JUMPDEST PUSH1 0x20 SWAP2 DUP3 DUP3 DIV ADD SWAP2 SWAP1 MOD PUSH2 0x100 EXP DUP2 SLOAD DUP2 PUSH1 0xFF MUL NOT AND SWAP1 DUP4 ISZERO ISZERO MUL OR SWAP1 SSTORE POP JUMPDEST POP JUMPDEST POP PUSH1 0x1 ADD PUSH2 0x1A22 JUMP JUMPDEST PUSH2 0x1C6F PUSH2 0x2102 JUMP JUMPDEST PUSH1 0x40 DUP1 MLOAD PUSH2 0x1020 DUP2 ADD SWAP2 DUP3 SWAP1 MSTORE SWAP1 PUSH1 0x2 SWAP1 PUSH1 0x81 SWAP1 DUP3 PUSH1 0x0 DUP6 JUMPDEST DUP3 SLOAD PUSH2 0x100 DUP4 SWAP1 EXP SWAP1 DIV PUSH1 0xFF AND ISZERO ISZERO DUP2 MSTORE PUSH1 0x20 PUSH1 0x1 SWAP3 DUP4 ADD DUP2 DUP2 DIV SWAP5 DUP6 ADD SWAP5 SWAP1 SWAP4 SUB SWAP1 SWAP3 MUL SWAP2 ADD DUP1 DUP5 GT PUSH2 0x1C88 JUMPI SWAP1 POP POP POP POP POP POP SWAP1 POP SWAP1 JUMP JUMPDEST PUSH2 0x1CCA PUSH2 0x200D JUMP JUMPDEST PUSH2 0x10B SSTORE JUMP JUMPDEST PUSH2 0x1CD8 PUSH2 0x1FB4 JUMP JUMPDEST PUSH2 0x1CE0 PUSH2 0x200D JUMP JUMPDEST PUSH2 0x1CE9 DUP2 PUSH2 0x2067 JUMP JUMPDEST PUSH1 0x2 DUP2 PUSH1 0x81 DUP2 LT PUSH2 0x1CFC JUMPI PUSH2 0x1CFC PUSH2 0x244C JUMP JUMPDEST PUSH1 0x20 DUP2 DIV SWAP1 SWAP2 ADD SLOAD PUSH1 0xFF PUSH1 0x1F SWAP1 SWAP3 AND PUSH2 0x100 EXP SWAP1 DIV AND DUP1 ISZERO PUSH2 0x1D32 JUMPI POP PUSH1 0x88 DUP2 PUSH1 0x81 DUP2 LT PUSH2 0x1D2C JUMPI PUSH2 0x1D2C PUSH2 0x244C JUMP JUMPDEST ADD SLOAD TIMESTAMP EQ ISZERO JUMPDEST ISZERO PUSH2 0x19F8 JUMPI PUSH1 0x40 MLOAD PUSH4 0xD4626BB9 PUSH1 0xE0 SHL DUP2 MSTORE PUSH1 0x0 DUP1 MLOAD PUSH1 0x20 PUSH2 0x2687 DUP4 CODECOPY DUP2 MLOAD SWAP2 MSTORE PUSH1 0x4 DUP3 ADD MSTORE PUSH1 0x24 DUP2 ADD DUP3 SWAP1 MSTORE PUSH2 0x805 SWAP1 PUSH4 0xD4626BB9 SWAP1 PUSH1 0x44 ADD PUSH1 0x0 PUSH1 0x40 MLOAD DUP1 DUP4 SUB DUP2 PUSH1 0x0 DUP8 DUP1 EXTCODESIZE ISZERO DUP1 ISZERO PUSH2 0x1D86 JUMPI PUSH1 0x0 DUP1 REVERT JUMPDEST POP GAS CALL ISZERO DUP1 ISZERO PUSH2 0x1D9A JUMPI RETURNDATASIZE PUSH1 0x0 DUP1 RETURNDATACOPY RETURNDATASIZE PUSH1 0x0 REVERT JUMPDEST POP POP POP POP PUSH1 0x0 PUSH1 0x2 DUP3 PUSH1 0x81 DUP2 LT PUSH2 0x1DB3 JUMPI PUSH2 0x1DB3 PUSH2 0x244C JUMP JUMPDEST PUSH1 0x20 SWAP2 DUP3 DUP3 DIV ADD SWAP2 SWAP1 MOD PUSH2 0x100 EXP DUP2 SLOAD DUP2 PUSH1 0xFF MUL NOT AND SWAP1 DUP4 ISZERO ISZERO MUL OR SWAP1 SSTORE POP PUSH2 0xBCD PUSH1 0x1 DUP1 SSTORE JUMP JUMPDEST PUSH2 0x1DE3 PUSH2 0x200D JUMP JUMPDEST PUSH1 0x1 PUSH1 0x1 PUSH1 0xA0 SHL SUB DUP2 AND PUSH2 0x1E4D JUMPI PUSH1 0x40 MLOAD PUSH3 0x461BCD PUSH1 0xE5 SHL DUP2 MSTORE PUSH1 0x20 PUSH1 0x4 DUP3 ADD MSTORE PUSH1 0x26 PUSH1 0x24 DUP3 ADD MSTORE PUSH32 0x4F776E61626C653A206E6577206F776E657220697320746865207A65726F2061 PUSH1 0x44 DUP3 ADD MSTORE PUSH6 0x646472657373 PUSH1 0xD0 SHL PUSH1 0x64 DUP3 ADD MSTORE PUSH1 0x84 ADD JUMPDEST PUSH1 0x40 MLOAD DUP1 SWAP2 SUB SWAP1 REVERT JUMPDEST PUSH2 0xBCD DUP2 PUSH2 0x20B2 JUMP JUMPDEST PUSH2 0x10A SLOAD PUSH1 0x1 PUSH1 0x1 PUSH1 0xA0 SHL SUB AND CALLER EQ PUSH2 0x1E82 JUMPI PUSH1 0x40 MLOAD PUSH4 0x2D99BC83 PUSH1 0xE2 SHL DUP2 MSTORE PUSH1 0x4 ADD PUSH1 0x40 MLOAD DUP1 SWAP2 SUB SWAP1 REVERT JUMPDEST PUSH1 0x1 PUSH1 0x1 PUSH1 0xA0 SHL SUB DUP3 AND PUSH2 0x1EA9 JUMPI PUSH1 0x40 MLOAD PUSH4 0xE6C4247B PUSH1 0xE0 SHL DUP2 MSTORE PUSH1 0x4 ADD PUSH1 0x40 MLOAD DUP1 SWAP2 SUB SWAP1 REVERT JUMPDEST DUP1 PUSH1 0x0 SUB PUSH2 0x1ECA JUMPI PUSH1 0x40 MLOAD PUSH4 0x65E52D51 PUSH1 0xE1 SHL DUP2 MSTORE PUSH1 0x4 ADD PUSH1 0x40 MLOAD DUP1 SWAP2 SUB SWAP1 REVERT JUMPDEST PUSH1 0x0 DUP3 PUSH1 0x1 PUSH1 0x1 PUSH1 0xA0 SHL SUB AND DUP3 PUSH1 0x40 MLOAD PUSH1 0x0 PUSH1 0x40 MLOAD DUP1 DUP4 SUB DUP2 DUP6 DUP8 GAS CALL SWAP3 POP POP POP RETURNDATASIZE DUP1 PUSH1 0x0 DUP2 EQ PUSH2 0x1F17 JUMPI PUSH1 0x40 MLOAD SWAP2 POP PUSH1 0x1F NOT PUSH1 0x3F RETURNDATASIZE ADD AND DUP3 ADD PUSH1 0x40 MSTORE RETURNDATASIZE DUP3 MSTORE RETURNDATASIZE PUSH1 0x0 PUSH1 0x20 DUP5 ADD RETURNDATACOPY PUSH2 0x1F1C JUMP JUMPDEST PUSH1 0x60 SWAP2 POP JUMPDEST POP POP SWAP1 POP DUP1 PUSH2 0x13C8 JUMPI PUSH1 0x40 MLOAD PUSH4 0x12171D83 PUSH1 0xE3 SHL DUP2 MSTORE PUSH1 0x4 ADD PUSH1 0x40 MLOAD DUP1 SWAP2 SUB SWAP1 REVERT JUMPDEST PUSH2 0x10A SLOAD PUSH1 0x1 PUSH1 0x1 PUSH1 0xA0 SHL SUB AND CALLER EQ PUSH2 0x1F6A JUMPI PUSH1 0x40 MLOAD PUSH4 0x2D99BC83 PUSH1 0xE2 SHL DUP2 MSTORE PUSH1 0x4 ADD PUSH1 0x40 MLOAD DUP1 SWAP2 SUB SWAP1 REVERT JUMPDEST PUSH1 0x1 PUSH1 0x1 PUSH1 0xA0 SHL SUB DUP2 AND PUSH2 0x1F91 JUMPI PUSH1 0x40 MLOAD PUSH4 0xE6C4247B PUSH1 0xE0 SHL DUP2 MSTORE PUSH1 0x4 ADD PUSH1 0x40 MLOAD DUP1 SWAP2 SUB SWAP1 REVERT JUMPDEST SELFBALANCE PUSH1 0x0 DUP2 SWAP1 SUB PUSH2 0x1ECA JUMPI PUSH1 0x40 MLOAD PUSH4 0x65E52D51 PUSH1 0xE1 SHL DUP2 MSTORE PUSH1 0x4 ADD PUSH1 0x40 MLOAD DUP1 SWAP2 SUB SWAP1 REVERT JUMPDEST PUSH1 0x2 PUSH1 0x1 SLOAD SUB PUSH2 0x2006 JUMPI PUSH1 0x40 MLOAD PUSH3 0x461BCD PUSH1 0xE5 SHL DUP2 MSTORE PUSH1 0x20 PUSH1 0x4 DUP3 ADD MSTORE PUSH1 0x1F PUSH1 0x24 DUP3 ADD MSTORE PUSH32 0x5265656E7472616E637947756172643A207265656E7472616E742063616C6C00 PUSH1 0x44 DUP3 ADD MSTORE PUSH1 0x64 ADD PUSH2 0x1E44 JUMP JUMPDEST PUSH1 0x2 PUSH1 0x1 SSTORE JUMP JUMPDEST PUSH1 0x0 SLOAD PUSH1 0x1 PUSH1 0x1 PUSH1 0xA0 SHL SUB AND CALLER EQ PUSH2 0x1210 JUMPI PUSH1 0x40 MLOAD PUSH3 0x461BCD PUSH1 0xE5 SHL DUP2 MSTORE PUSH1 0x20 PUSH1 0x4 DUP3 ADD DUP2 SWAP1 MSTORE PUSH1 0x24 DUP3 ADD MSTORE PUSH32 0x4F776E61626C653A2063616C6C6572206973206E6F7420746865206F776E6572 PUSH1 0x44 DUP3 ADD MSTORE PUSH1 0x64 ADD PUSH2 0x1E44 JUMP JUMPDEST PUSH1 0x81 DUP2 LT PUSH2 0xBCD JUMPI PUSH1 0x40 MLOAD PUSH4 0x68A3A6C3 PUSH1 0xE1 SHL DUP2 MSTORE PUSH1 0x4 ADD PUSH1 0x40 MLOAD DUP1 SWAP2 SUB SWAP1 REVERT JUMPDEST PUSH1 0x0 DUP2 DUP4 LT PUSH2 0x2097 JUMPI DUP2 PUSH2 0x2099 JUMP JUMPDEST DUP3 JUMPDEST SWAP1 POP JUMPDEST SWAP3 SWAP2 POP POP JUMP JUMPDEST PUSH1 0x0 PUSH2 0x209C PUSH4 0x3B9ACA00 DUP4 PUSH2 0x2649 JUMP JUMPDEST PUSH1 0x0 DUP1 SLOAD PUSH1 0x1 PUSH1 0x1 PUSH1 0xA0 SHL SUB DUP4 DUP2 AND PUSH1 0x1 PUSH1 0x1 PUSH1 0xA0 SHL SUB NOT DUP4 AND DUP2 OR DUP5 SSTORE PUSH1 0x40 MLOAD SWAP2 SWAP1 SWAP3 AND SWAP3 DUP4 SWAP2 PUSH32 0x8BE0079C531659141344CD1FD0A4F28419497F9722A3DAAFE3B4186F6B6457E0 SWAP2 SWAP1 LOG3 POP POP JUMP JUMPDEST PUSH1 0x40 MLOAD DUP1 PUSH2 0x1020 ADD PUSH1 0x40 MSTORE DUP1 PUSH1 0x81 SWAP1 PUSH1 0x20 DUP3 MUL DUP1 CALLDATASIZE DUP4 CALLDATACOPY POP SWAP2 SWAP3 SWAP2 POP POP JUMP JUMPDEST PUSH1 0x0 PUSH1 0x20 DUP3 DUP5 SUB SLT ISZERO PUSH2 0x2133 JUMPI PUSH1 0x0 DUP1 REVERT JUMPDEST POP CALLDATALOAD SWAP2 SWAP1 POP JUMP JUMPDEST DUP1 CALLDATALOAD PUSH1 0x1 PUSH1 0x1 PUSH1 0xA0 SHL SUB DUP2 AND DUP2 EQ PUSH2 0x2151 JUMPI PUSH1 0x0 DUP1 REVERT JUMPDEST SWAP2 SWAP1 POP JUMP JUMPDEST PUSH1 0x0 PUSH1 0x20 DUP3 DUP5 SUB SLT ISZERO PUSH2 0x2168 JUMPI PUSH1 0x0 DUP1 REVERT JUMPDEST PUSH2 0x2099 DUP3 PUSH2 0x213A JUMP JUMPDEST PUSH1 0x0 DUP1 PUSH1 0x40 DUP4 DUP6 SUB SLT ISZERO PUSH2 0x2184 JUMPI PUSH1 0x0 DUP1 REVERT JUMPDEST POP POP DUP1 CALLDATALOAD SWAP3 PUSH1 0x20 SWAP1 SWAP2 ADD CALLDATALOAD SWAP2 POP JUMP JUMPDEST DUP1 PUSH1 0x0 JUMPDEST PUSH1 0x81 DUP2 LT ISZERO PUSH2 0x21B6 JUMPI DUP2 MLOAD DUP5 MSTORE PUSH1 0x20 SWAP4 DUP5 ADD SWAP4 SWAP1 SWAP2 ADD SWAP1 PUSH1 0x1 ADD PUSH2 0x2197 JUMP JUMPDEST POP POP POP POP JUMP JUMPDEST DUP1 PUSH1 0x0 JUMPDEST PUSH1 0x81 DUP2 LT ISZERO PUSH2 0x21B6 JUMPI DUP2 MLOAD PUSH8 0xFFFFFFFFFFFFFFFF AND DUP5 MSTORE PUSH1 0x20 SWAP4 DUP5 ADD SWAP4 SWAP1 SWAP2 ADD SWAP1 PUSH1 0x1 ADD PUSH2 0x21C0 JUMP JUMPDEST DUP1 PUSH1 0x0 JUMPDEST PUSH1 0x81 DUP2 LT ISZERO PUSH2 0x21B6 JUMPI DUP2 MLOAD ISZERO ISZERO DUP5 MSTORE PUSH1 0x20 SWAP4 DUP5 ADD SWAP4 SWAP1 SWAP2 ADD SWAP1 PUSH1 0x1 ADD PUSH2 0x21ED JUMP JUMPDEST PUSH2 0x60C0 DUP2 ADD PUSH2 0x221D DUP3 DUP10 PUSH2 0x2193 JUMP JUMPDEST PUSH2 0x222B PUSH2 0x1020 DUP4 ADD DUP9 PUSH2 0x21BC JUMP JUMPDEST PUSH2 0x2239 PUSH2 0x2040 DUP4 ADD DUP8 PUSH2 0x21E9 JUMP JUMPDEST PUSH2 0x2247 PUSH2 0x3060 DUP4 ADD DUP7 PUSH2 0x21E9 JUMP JUMPDEST PUSH2 0x2255 PUSH2 0x4080 DUP4 ADD DUP6 PUSH2 0x2193 JUMP JUMPDEST PUSH2 0x2263 PUSH2 0x50A0 DUP4 ADD DUP5 PUSH2 0x2193 JUMP JUMPDEST SWAP8 SWAP7 POP POP POP POP POP POP POP JUMP JUMPDEST PUSH1 0x0 DUP1 DUP4 PUSH1 0x1F DUP5 ADD SLT PUSH2 0x2280 JUMPI PUSH1 0x0 DUP1 REVERT JUMPDEST POP DUP2 CALLDATALOAD PUSH8 0xFFFFFFFFFFFFFFFF DUP2 GT ISZERO PUSH2 0x2298 JUMPI PUSH1 0x0 DUP1 REVERT JUMPDEST PUSH1 0x20 DUP4 ADD SWAP2 POP DUP4 PUSH1 0x20 DUP3 PUSH1 0x5 SHL DUP6 ADD ADD GT ISZERO PUSH2 0x22B3 JUMPI PUSH1 0x0 DUP1 REVERT JUMPDEST SWAP3 POP SWAP3 SWAP1 POP JUMP JUMPDEST PUSH1 0x0 DUP1 PUSH1 0x20 DUP4 DUP6 SUB SLT ISZERO PUSH2 0x22CD JUMPI PUSH1 0x0 DUP1 REVERT JUMPDEST DUP3 CALLDATALOAD PUSH8 0xFFFFFFFFFFFFFFFF DUP2 GT ISZERO PUSH2 0x22E4 JUMPI PUSH1 0x0 DUP1 REVERT JUMPDEST PUSH2 0x22F0 DUP6 DUP3 DUP7 ADD PUSH2 0x226E JUMP JUMPDEST SWAP1 SWAP7 SWAP1 SWAP6 POP SWAP4 POP POP POP POP JUMP JUMPDEST PUSH2 0x1020 DUP2 ADD PUSH2 0x209C DUP3 DUP5 PUSH2 0x2193 JUMP JUMPDEST PUSH1 0x0 DUP1 PUSH1 0x0 DUP1 PUSH1 0x0 PUSH1 0x60 DUP7 DUP9 SUB SLT ISZERO PUSH2 0x2323 JUMPI PUSH1 0x0 DUP1 REVERT JUMPDEST DUP6 CALLDATALOAD SWAP5 POP PUSH1 0x20 DUP7 ADD CALLDATALOAD PUSH8 0xFFFFFFFFFFFFFFFF DUP1 DUP3 GT ISZERO PUSH2 0x2342 JUMPI PUSH1 0x0 DUP1 REVERT JUMPDEST PUSH2 0x234E DUP10 DUP4 DUP11 ADD PUSH2 0x226E JUMP JUMPDEST SWAP1 SWAP7 POP SWAP5 POP PUSH1 0x40 DUP9 ADD CALLDATALOAD SWAP2 POP DUP1 DUP3 GT ISZERO PUSH2 0x2367 JUMPI PUSH1 0x0 DUP1 REVERT JUMPDEST POP PUSH2 0x2374 DUP9 DUP3 DUP10 ADD PUSH2 0x226E JUMP JUMPDEST SWAP7 SWAP10 SWAP6 SWAP9 POP SWAP4 SWAP7 POP SWAP3 SWAP5 SWAP4 SWAP3 POP POP POP JUMP JUMPDEST PUSH2 0x4080 DUP2 ADD PUSH2 0x2394 DUP3 DUP8 PUSH2 0x2193 JUMP JUMPDEST PUSH2 0x23A2 PUSH2 0x1020 DUP4 ADD DUP7 PUSH2 0x21BC JUMP JUMPDEST PUSH2 0x23B0 PUSH2 0x2040 DUP4 ADD DUP6 PUSH2 0x21E9 JUMP JUMPDEST PUSH2 0x23BE PUSH2 0x3060 DUP4 ADD DUP5 PUSH2 0x2193 JUMP JUMPDEST SWAP6 SWAP5 POP POP POP POP POP JUMP JUMPDEST PUSH1 0x0 DUP1 PUSH1 0x0 PUSH1 0x40 DUP5 DUP7 SUB SLT ISZERO PUSH2 0x23DC JUMPI PUSH1 0x0 DUP1 REVERT JUMPDEST DUP4 CALLDATALOAD SWAP3 POP PUSH1 0x20 DUP5 ADD CALLDATALOAD PUSH8 0xFFFFFFFFFFFFFFFF DUP2 GT ISZERO PUSH2 0x23FA JUMPI PUSH1 0x0 DUP1 REVERT JUMPDEST PUSH2 0x2406 DUP7 DUP3 DUP8 ADD PUSH2 0x226E JUMP JUMPDEST SWAP5 SWAP8 SWAP1 SWAP7 POP SWAP4 SWAP5 POP POP POP POP JUMP JUMPDEST PUSH2 0x1020 DUP2 ADD PUSH2 0x209C DUP3 DUP5 PUSH2 0x21E9 JUMP JUMPDEST PUSH1 0x0 DUP1 PUSH1 0x40 DUP4 DUP6 SUB SLT ISZERO PUSH2 0x2435 JUMPI PUSH1 0x0 DUP1 REVERT JUMPDEST PUSH2 0x243E DUP4 PUSH2 0x213A JUMP JUMPDEST SWAP5 PUSH1 0x20 SWAP4 SWAP1 SWAP4 ADD CALLDATALOAD SWAP4 POP POP POP JUMP JUMPDEST PUSH4 0x4E487B71 PUSH1 0xE0 SHL PUSH1 0x0 MSTORE PUSH1 0x32 PUSH1 0x4 MSTORE PUSH1 0x24 PUSH1 0x0 REVERT JUMPDEST PUSH1 0x0 PUSH1 0x20 DUP3 DUP5 SUB SLT ISZERO PUSH2 0x2474 JUMPI PUSH1 0x0 DUP1 REVERT JUMPDEST POP MLOAD SWAP2 SWAP1 POP JUMP JUMPDEST PUSH1 0x40 MLOAD PUSH2 0x1020 DUP2 ADD PUSH8 0xFFFFFFFFFFFFFFFF DUP2 GT DUP3 DUP3 LT OR ISZERO PUSH2 0x24AD JUMPI PUSH4 0x4E487B71 PUSH1 0xE0 SHL PUSH1 0x0 MSTORE PUSH1 0x41 PUSH1 0x4 MSTORE PUSH1 0x24 PUSH1 0x0 REVERT JUMPDEST PUSH1 0x40 MSTORE SWAP1 JUMP JUMPDEST PUSH1 0x0 DUP3 PUSH1 0x1F DUP4 ADD SLT PUSH2 0x24C4 JUMPI PUSH1 0x0 DUP1 REVERT JUMPDEST PUSH2 0x24CC PUSH2 0x247B JUMP JUMPDEST DUP1 PUSH2 0x1020 DUP5 ADD DUP6 DUP2 GT ISZERO PUSH2 0x24DF JUMPI PUSH1 0x0 DUP1 REVERT JUMPDEST DUP5 JUMPDEST DUP2 DUP2 LT ISZERO PUSH2 0x24F9 JUMPI DUP1 MLOAD DUP5 MSTORE PUSH1 0x20 SWAP4 DUP5 ADD SWAP4 ADD PUSH2 0x24E1 JUMP JUMPDEST POP SWAP1 SWAP6 SWAP5 POP POP POP POP POP JUMP JUMPDEST DUP1 MLOAD PUSH8 0xFFFFFFFFFFFFFFFF DUP2 AND DUP2 EQ PUSH2 0x2151 JUMPI PUSH1 0x0 DUP1 REVERT JUMPDEST PUSH1 0x0 DUP1 PUSH1 0x0 DUP1 PUSH2 0x4080 DUP6 DUP8 SUB SLT ISZERO PUSH2 0x2533 JUMPI PUSH1 0x0 DUP1 REVERT JUMPDEST PUSH2 0x253D DUP7 DUP7 PUSH2 0x24B3 JUMP JUMPDEST SWAP4 POP DUP6 PUSH2 0x103F DUP7 ADD SLT PUSH2 0x254F JUMPI PUSH1 0x0 DUP1 REVERT JUMPDEST PUSH2 0x2557 PUSH2 0x247B JUMP JUMPDEST DUP1 PUSH2 0x2040 DUP8 ADD DUP9 DUP2 GT ISZERO PUSH2 0x256A JUMPI PUSH1 0x0 DUP1 REVERT JUMPDEST PUSH2 0x1020 DUP9 ADD JUMPDEST DUP2 DUP2 LT ISZERO PUSH2 0x258F JUMPI PUSH2 0x2581 DUP2 PUSH2 0x2504 JUMP JUMPDEST DUP5 MSTORE PUSH1 0x20 SWAP4 DUP5 ADD SWAP4 ADD PUSH2 0x2570 JUMP JUMPDEST POP DUP2 SWAP6 POP DUP9 PUSH2 0x205F DUP10 ADD SLT PUSH2 0x25A3 JUMPI PUSH1 0x0 DUP1 REVERT JUMPDEST PUSH2 0x25AB PUSH2 0x247B JUMP JUMPDEST SWAP3 POP DUP3 SWAP2 POP PUSH2 0x3060 DUP9 ADD DUP10 DUP2 GT ISZERO PUSH2 0x25C2 JUMPI PUSH1 0x0 DUP1 REVERT JUMPDEST DUP1 DUP3 LT ISZERO PUSH2 0x25ED JUMPI DUP2 MLOAD DUP1 ISZERO ISZERO DUP2 EQ PUSH2 0x25DB JUMPI PUSH1 0x0 DUP1 DUP2 REVERT JUMPDEST DUP5 MSTORE PUSH1 0x20 SWAP4 DUP5 ADD SWAP4 SWAP2 SWAP1 SWAP2 ADD SWAP1 PUSH2 0x25C2 JUMP JUMPDEST DUP3 SWAP6 POP PUSH2 0x25FA DUP11 DUP3 PUSH2 0x24B3 JUMP JUMPDEST SWAP5 POP POP POP POP POP SWAP3 SWAP6 SWAP2 SWAP5 POP SWAP3 POP JUMP JUMPDEST PUSH4 0x4E487B71 PUSH1 0xE0 SHL PUSH1 0x0 MSTORE PUSH1 0x11 PUSH1 0x4 MSTORE PUSH1 0x24 PUSH1 0x0 REVERT JUMPDEST DUP1 DUP3 ADD DUP1 DUP3 GT ISZERO PUSH2 0x209C JUMPI PUSH2 0x209C PUSH2 0x2609 JUMP JUMPDEST DUP1 DUP3 MUL DUP2 ISZERO DUP3 DUP3 DIV DUP5 EQ OR PUSH2 0x209C JUMPI PUSH2 0x209C PUSH2 0x2609 JUMP JUMPDEST PUSH1 0x0 DUP3 PUSH2 0x2666 JUMPI PUSH4 0x4E487B71 PUSH1 0xE0 SHL PUSH1 0x0 MSTORE PUSH1 0x12 PUSH1 0x4 MSTORE PUSH1 0x24 PUSH1 0x0 REVERT JUMPDEST POP DIV SWAP1 JUMP JUMPDEST PUSH1 0x0 PUSH1 0x20 DUP3 DUP5 SUB SLT ISZERO PUSH2 0x267D JUMPI PUSH1 0x0 DUP1 REVERT JUMPDEST PUSH2 0x2099 DUP3 PUSH2 0x2504 JUMP INVALID 0xB4 0xC0 DUP8 GT SWAP1 SWAP8 0xFB 0xE3 SWAP9 MSTORE SWAP9 0xEE CREATE2 0x2F CALLDATALOAD 0xEF PUSH3 0x71C483 0x22 0xA8 0xC2 0xD4 ADDRESS SWAP1 0x2A SWAP13 0xC3 DUP14 SWAP5 PUSH20 0xA264697066735822122056D6B897D1C1C8EA3038 SWAP2 PUSH21 0x4EEC5364F171E5275F3FDF0E53C7DDF819160F1064 PUSH20 0x6F6C634300081600330000000000000000000000 "},"methodIdentifiers":{"add_stake(uint256,uint256)":"10d67406","add_stakes(uint256,uint256[])":"ac0c34cc","emergencyWithdrawTao(address,uint256)":"f528c62e","force_remove_stake(uint256)":"ea07a542","force_remove_stake(uint256[])":"1d090453","getInfo()":"5a9b0b89","getInfo_Old()":"1120e134","getIsStaked()":"ddd8a4c8","getStakedAmount(bytes32)":"337a1737","getStakedPrices()":"3d4ac3c2","getTimestamps()":"59abbfe4","increase_stake(uint256,uint256)":"aa099a7b","increase_stakes(uint256,uint256[])":"961216cb","is_staked(uint256)":"08b41c01","lastStakeTimestamp(uint256)":"9a900394","mev_coldkey()":"c8c23393","owner()":"8da5cb5b","priceUpdateThreshold()":"3a34c83f","remove_stake(uint256)":"c4441cce","remove_stake(uint256,bytes32[],bytes32[])":"46f3ded4","remove_stakes(uint256[])":"d908968c","renounceOwnership()":"715018a6","reset(uint256)":"310bd74b","setWithdrawer(address)":"0d174c24","staked_prices(uint256)":"a75d3564","taobot()":"fdd4f21b","transferOwnership(address)":"f2fde38b","updateMevColdkey(bytes32)":"c64625ea","updatePriceThreshold(uint256)":"4c709cca","updateTaobot(bytes32)":"dee25cda","validatorHotkey()":"c7687c22","withdrawAll(address)":"fa09e630","withdrawer()":"cdc18424"}}}}}