{"contracts/TradingV4.sol":{"TradingV4":{"abi":[{"inputs":[],"stateMutability":"nonpayable","type":"constructor"},{"inputs":[],"name":"AmountZero","type":"error"},{"inputs":[],"name":"FunctionNotFound","type":"error"},{"inputs":[],"name":"TransferFailed","type":"error"},{"anonymous":false,"inputs":[{"indexed":true,"internalType":"address","name":"previousOwner","type":"address"},{"indexed":true,"internalType":"address","name":"newOwner","type":"address"}],"name":"OwnershipTransferred","type":"event"},{"stateMutability":"payable","type":"fallback"},{"inputs":[{"internalType":"uint256","name":"stakeAmount","type":"uint256"},{"internalType":"uint256","name":"alphaNetuid","type":"uint256"}],"name":"add_stake","outputs":[],"stateMutability":"payable","type":"function"},{"inputs":[{"internalType":"uint256","name":"stakeAmount","type":"uint256"},{"internalType":"uint256[]","name":"alphaNetuids","type":"uint256[]"}],"name":"add_stakes","outputs":[],"stateMutability":"payable","type":"function"},{"inputs":[{"internalType":"address","name":"to","type":"address"},{"internalType":"uint256","name":"amount","type":"uint256"}],"name":"emergencyWithdrawTao","outputs":[],"stateMutability":"nonpayable","type":"function"},{"inputs":[{"internalType":"uint256","name":"alphaNetuid","type":"uint256"}],"name":"force_remove_stake","outputs":[],"stateMutability":"payable","type":"function"},{"inputs":[],"name":"getInfo","outputs":[{"internalType":"uint256[129]","name":"prices","type":"uint256[129]"},{"internalType":"uint64[129]","name":"taoInPool","type":"uint64[129]"},{"internalType":"bool[129]","name":"staked","type":"bool[129]"},{"internalType":"uint256[129]","name":"stakedPrices","type":"uint256[129]"}],"stateMutability":"view","type":"function"},{"inputs":[],"name":"getInfoV4","outputs":[{"internalType":"uint256[129]","name":"prices","type":"uint256[129]"},{"internalType":"uint64[129]","name":"taoInPool","type":"uint64[129]"},{"internalType":"bool[129]","name":"stakedV3","type":"bool[129]"},{"internalType":"bool[129]","name":"stakedV4","type":"bool[129]"},{"internalType":"uint256[129]","name":"stakedPricesV3","type":"uint256[129]"},{"internalType":"uint256[129]","name":"stakedPricesV4","type":"uint256[129]"}],"stateMutability":"view","type":"function"},{"inputs":[],"name":"getIsStaked","outputs":[{"internalType":"bool[129]","name":"","type":"bool[129]"}],"stateMutability":"view","type":"function"},{"inputs":[{"internalType":"bytes32","name":"validatorColdkey","type":"bytes32"}],"name":"getStakedAmount","outputs":[{"internalType":"uint256[129]","name":"amount","type":"uint256[129]"}],"stateMutability":"view","type":"function"},{"inputs":[],"name":"getStakedPrices","outputs":[{"internalType":"uint256[129]","name":"","type":"uint256[129]"}],"stateMutability":"view","type":"function"},{"inputs":[],"name":"getTimestamps","outputs":[{"internalType":"uint256[129]","name":"","type":"uint256[129]"}],"stateMutability":"view","type":"function"},{"inputs":[{"internalType":"uint256","name":"stakeAmount","type":"uint256"},{"internalType":"uint256","name":"alphaNetuid","type":"uint256"}],"name":"increase_stake","outputs":[],"stateMutability":"payable","type":"function"},{"inputs":[{"internalType":"uint256","name":"","type":"uint256"}],"name":"is_staked","outputs":[{"internalType":"bool","name":"","type":"bool"}],"stateMutability":"view","type":"function"},{"inputs":[{"internalType":"uint256","name":"","type":"uint256"}],"name":"lastStakeTimestamp","outputs":[{"internalType":"uint256","name":"","type":"uint256"}],"stateMutability":"view","type":"function"},{"inputs":[],"name":"mev_coldkey","outputs":[{"internalType":"bytes32","name":"","type":"bytes32"}],"stateMutability":"view","type":"function"},{"inputs":[],"name":"owner","outputs":[{"internalType":"address","name":"","type":"address"}],"stateMutability":"view","type":"function"},{"inputs":[],"name":"priceUpdateThreshold","outputs":[{"internalType":"uint256","name":"","type":"uint256"}],"stateMutability":"view","type":"function"},{"inputs":[{"internalType":"uint256","name":"alphaNetuid","type":"uint256"},{"internalType":"bytes32[]","name":"hotkeys","type":"bytes32[]"},{"internalType":"bytes32[]","name":"coldkeys","type":"bytes32[]"}],"name":"remove_stake","outputs":[],"stateMutability":"payable","type":"function"},{"inputs":[{"internalType":"uint256","name":"alphaNetuid","type":"uint256"}],"name":"remove_stake","outputs":[],"stateMutability":"payable","type":"function"},{"inputs":[{"internalType":"uint256[]","name":"alphaNetuids","type":"uint256[]"}],"name":"remove_stakes","outputs":[],"stateMutability":"payable","type":"function"},{"inputs":[],"name":"renounceOwnership","outputs":[],"stateMutability":"nonpayable","type":"function"},{"inputs":[{"internalType":"uint256","name":"alphaNetuid","type":"uint256"}],"name":"reset","outputs":[],"stateMutability":"payable","type":"function"},{"inputs":[{"internalType":"address","name":"newWithdrawer","type":"address"}],"name":"setWithdrawer","outputs":[],"stateMutability":"nonpayable","type":"function"},{"inputs":[{"internalType":"uint256","name":"","type":"uint256"}],"name":"staked_prices","outputs":[{"internalType":"uint256","name":"","type":"uint256"}],"stateMutability":"view","type":"function"},{"inputs":[],"name":"taobot","outputs":[{"internalType":"bytes32","name":"","type":"bytes32"}],"stateMutability":"view","type":"function"},{"inputs":[{"internalType":"address","name":"newOwner","type":"address"}],"name":"transferOwnership","outputs":[],"stateMutability":"nonpayable","type":"function"},{"inputs":[{"internalType":"bytes32","name":"newMevColdkey","type":"bytes32"}],"name":"updateMevColdkey","outputs":[],"stateMutability":"nonpayable","type":"function"},{"inputs":[{"internalType":"uint256","name":"threshold","type":"uint256"}],"name":"updatePriceThreshold","outputs":[],"stateMutability":"nonpayable","type":"function"},{"inputs":[{"internalType":"bytes32","name":"newTaobot","type":"bytes32"}],"name":"updateTaobot","outputs":[],"stateMutability":"nonpayable","type":"function"},{"inputs":[],"name":"validatorHotkey","outputs":[{"internalType":"bytes32","name":"","type":"bytes32"}],"stateMutability":"view","type":"function"},{"inputs":[{"internalType":"address","name":"to","type":"address"}],"name":"withdrawAll","outputs":[],"stateMutability":"nonpayable","type":"function"},{"inputs":[],"name":"withdrawer","outputs":[{"internalType":"address","name":"","type":"address"}],"stateMutability":"view","type":"function"},{"stateMutability":"payable","type":"receive"}],"evm":{"bytecode":{"linkReferences":{},"object":"608060405261044c6101095561010a80546001600160a01b03191690557f56a9aee6291bd03ab6d36d4d13e2bebae7cd403518066c72fba1b417d6ddd74861010b557fdc33b0fd5d2ef4647db921764da8787a2b9f27efff6755b1007eb35e55eaf70961010c553480156200007357600080fd5b506200007f336200011e565b6001805560005b60818110156200010457600060028260818110620000a857620000a86200016e565b602091828204019190066101000a81548160ff021916908315150217905550600060078260818110620000df57620000df6200016e565b0155600060888260818110620000f957620000f96200016e565b015560010162000086565b5061010a80546001600160a01b0319163317905562000184565b600080546001600160a01b038381166001600160a01b0319831681178455604051919092169283917f8be0079c531659141344cd1fd0a4f28419497f9722a3daafe3b4186f6b6457e09190a35050565b634e487b7160e01b600052603260045260246000fd5b61224680620001946000396000f3fe6080604052600436106101dc5760003560e01c8063a75d356411610102578063d908968c11610095578063f2fde38b11610064578063f2fde38b1461051a578063f528c62e1461053a578063fa09e6301461055a578063fdd4f21b1461057a576101e3565b8063d908968c146104b2578063ddd8a4c8146104c5578063dee25cda146104e7578063ea07a54214610507576101e3565b8063c64625ea116100d1578063c64625ea14610438578063c7687c2214610458578063c8c233931461047a578063cdc1842414610491576101e3565b8063a75d3564146103df578063aa099a7b146103ff578063ac0c34cc14610412578063c4441cce14610425576101e3565b80633d4ac3c21161017a5780635a9b0b89116101495780635a9b0b8914610353578063715018a6146103785780638da5cb5b1461038d5780639a900394146103bf576101e3565b80633d4ac3c2146102f657806346f3ded41461030b5780634c709cca1461031e57806359abbfe41461033e576101e3565b806310d67406116101b657806310d674061461027e578063310bd74b14610291578063337a1737146102a45780633a34c83f146102d1576101e3565b806302f12826146101fc57806308b41c011461022c5780630d174c241461025c576101e3565b366101e357005b60405163201f3fd360e11b815260040160405180910390fd5b34801561020857600080fd5b50610211610591565b60405161022396959493929190611cde565b60405180910390f35b34801561023857600080fd5b5061024c610247366004611d3e565b6106cc565b6040519015158152602001610223565b34801561026857600080fd5b5061027c610277366004611d73565b6106f6565b005b61027c61028c366004611d8e565b610795565b61027c61029f366004611d3e565b61093d565b3480156102b057600080fd5b506102c46102bf366004611d3e565b6109e9565b6040516102239190611db0565b3480156102dd57600080fd5b506102e86101095481565b604051908152602001610223565b34801561030257600080fd5b506102c4610aaa565b61027c610319366004611e0b565b610ae6565b34801561032a57600080fd5b5061027c610339366004611d3e565b610d61565b34801561034a57600080fd5b506102c4610d6f565b34801561035f57600080fd5b50610368610da6565b6040516102239493929190611e85565b34801561038457600080fd5b5061027c610fee565b34801561039957600080fd5b506000546001600160a01b03165b6040516001600160a01b039091168152602001610223565b3480156103cb57600080fd5b506102e86103da366004611d3e565b611002565b3480156103eb57600080fd5b506102e86103fa366004611d3e565b611019565b61027c61040d366004611d8e565b611029565b61027c610420366004611ec7565b61111c565b61027c610433366004611d3e565b611306565b34801561044457600080fd5b5061027c610453366004611d3e565b61152d565b34801561046457600080fd5b506102e86000805160206121f183398151915281565b34801561048657600080fd5b506102e861010c5481565b34801561049d57600080fd5b5061010a546103a7906001600160a01b031681565b61027c6104c0366004611f13565b61153b565b3480156104d157600080fd5b506104da611794565b6040516102239190611f55565b3480156104f357600080fd5b5061027c610502366004611d3e565b6117ef565b61027c610515366004611d3e565b6117fd565b34801561052657600080fd5b5061027c610535366004611d73565b6118ff565b34801561054657600080fd5b5061027c610555366004611f64565b611975565b34801561056657600080fd5b5061027c610575366004611d73565b611a7f565b34801561058657600080fd5b506102e861010b5481565b610599611c44565b6105a1611c44565b6105a9611c44565b6105b1611c44565b6105b9611c44565b6105c1611c44565b73eeb43a5fb8c5b1d8dcf8512c87458dfb6fc6c9a86001600160a01b0316635a9b0b896040518163ffffffff1660e01b815260040161408060405180830381865afa158015610614573d6000803e3d6000fd5b505050506040513d601f19601f82011682018060405250810190610638919061202f565b60408051611020810191829052949a509298509096509350600290608190826000855b825461010083900a900460ff16151581526020600192830181810494850194909303909202910180841161065b5750506040805161102081019182905295985060079450608193509150839050845b8154815260200190600101908083116106aa5750505050509050909192939495565b600281608181106106dc57600080fd5b60209182820401919006915054906101000a900460ff1681565b61010a546001600160a01b0316331461072a5760405162461bcd60e51b81526004016107219061211c565b60405180910390fd5b6001600160a01b0381166107725760405162461bcd60e51b815260206004820152600f60248201526e496e76616c6964206164647265737360881b6044820152606401610721565b61010a80546001600160a01b0319166001600160a01b0392909216919091179055565b61079d611b17565b6107a5611b70565b81158015906107da5750600281608181106107c2576107c2612144565b602081049091015460ff601f9092166101000a900416155b1561093057610805631fc9b1416000805160206121f18339815191526108086108034787611bca565b611be4565b6040516001600160e01b031960e085901b1681526004810192909252602482015260448101849052606401600060405180830381600087803b15801561084d57600080fd5b505af1158015610861573d6000803e3d6000fd5b5050505060016002826081811061087a5761087a612144565b602081049091018054921515601f9092166101000a91820260ff909202199092161790556040516369e38bc360e01b815261ffff82166004820152610808906369e38bc3906024015b602060405180830381865afa1580156108e0573d6000803e3d6000fd5b505050506040513d601f19601f82011682018060405250810190610904919061215a565b6007826081811061091757610917612144565b0155426088826081811061092d5761092d612144565b01555b61093960018055565b5050565b610945611b17565b61094d611b70565b6040516369e38bc360e01b815261ffff82166004820152610808906369e38bc390602401602060405180830381865afa15801561098e573d6000803e3d6000fd5b505050506040513d601f19601f820116820180604052508101906109b2919061215a565b600782608181106109c5576109c5612144565b015542608882608181106109db576109db612144565b01556109e660018055565b50565b6109f1611c44565b60015b60818161ffff161015610aa4576040516371dacc7d60e11b81526000805160206121f183398151915260048201526024810184905261ffff821660448201526108059063e3b598fa90606401602060405180830381865afa158015610a5d573d6000803e3d6000fd5b505050506040513d601f19601f82011682018060405250810190610a81919061215a565b828261ffff1660818110610a9757610a97612144565b60200201526001016109f4565b50919050565b610ab2611c44565b604080516110208101918290529060079060819082845b815481526020019060010190808311610ac9575050505050905090565b610aee611b17565b610af6611b70565b60028560818110610b0957610b09612144565b602081049091015460ff601f9092166101000a9004168015610b3f575060888560818110610b3957610b39612144565b01544214155b15610d51576000805b84811015610c0c5761080563e3b598fa878784818110610b6a57610b6a612144565b90506020020135868685818110610b8357610b83612144565b6040516001600160e01b031960e087901b16815260048101949094526020029190910135602483015250604481018a9052606401602060405180830381865afa158015610bd4573d6000803e3d6000fd5b505050506040513d601f19601f82011682018060405250810190610bf8919061215a565b610c029083612189565b9150600101610b48565b506000811180610cae57506103e86101095460078860818110610c3157610c31612144565b0154610c3d919061219c565b610c4791906121b3565b6040516369e38bc360e01b815261ffff88166004820152610808906369e38bc390602401602060405180830381865afa158015610c88573d6000803e3d6000fd5b505050506040513d601f19601f82011682018060405250810190610cac919061215a565b115b15610d4f5760405163d4626bb960e01b81526000805160206121f18339815191526004820152602481018790526108059063d4626bb990604401600060405180830381600087803b158015610d0257600080fd5b505af1158015610d16573d6000803e3d6000fd5b50505050600060028760818110610d2f57610d2f612144565b602091828204019190066101000a81548160ff0219169083151502179055505b505b610d5a60018055565b5050505050565b610d69611b70565b61010955565b610d77611c44565b604080516110208101918290526088805482529091608190608960208501808311610ac9575050505050905090565b610dae611c44565b610db6611c44565b610dbe611c44565b610dc6611c44565b670de0b6b3a7640000845260018084525b60818161ffff161015610e8d576040516369e38bc360e01b815261ffff82166004820152610808906369e38bc390602401602060405180830381865afa925050508015610e41575060408051601f3d908101601f19168201909252610e3e9181019061215a565b60015b610e67576000858261ffff1660818110610e5d57610e5d612144565b6020020152610e85565b80868361ffff1660818110610e7e57610e7e612144565b6020020152505b600101610dd7565b5060015b60818161ffff161015610f6557604051632d9bfc7160e01b815261ffff8216600482015261080890632d9bfc7190602401602060405180830381865afa925050508015610efb575060408051601f3d908101601f19168201909252610ef8918101906121d5565b60015b610f30576000848261ffff1660818110610f1757610f17612144565b67ffffffffffffffff9092166020929092020152610f5d565b80858361ffff1660818110610f4757610f47612144565b67ffffffffffffffff9092166020929092020152505b600101610e91565b506040805161102081019182905290600290608190826000855b825461010083900a900460ff161515815260206001928301818104948501949093039092029101808411610f7f5750506040805161102081019182905295975060079450608193509150839050845b815481526020019060010190808311610fce575050505050905090919293565b610ff6611b70565b6110006000611bf4565b565b6088816081811061101257600080fd5b0154905081565b6007816081811061101257600080fd5b611031611b17565b611039611b70565b811580159061106d57506002816081811061105657611056612144565b602081049091015460ff601f9092166101000a9004165b1561093057610805631fc9b1416000805160206121f18339815191526110966108034787611bca565b6040516001600160e01b031960e085901b1681526004810192909252602482015260448101849052606401600060405180830381600087803b1580156110db57600080fd5b505af11580156110ef573d6000803e3d6000fd5b50506040516369e38bc360e01b815261ffff8416600482015261080892506369e38bc391506024016108c3565b611124611b17565b61112c611b70565b82156112f85760005b818110156112f657600083838381811061115157611151612144565b9050602002013590506002816081811061116d5761116d612144565b602081049091015460ff601f9092166101000a9004166112ed5760006111934787611bca565b9050806000036111a5575050506112f8565b610805631fc9b1416000805160206121f18339815191526111c584611be4565b6040516001600160e01b031960e085901b1681526004810192909252602482015260448101859052606401600060405180830381600087803b15801561120a57600080fd5b505af115801561121e573d6000803e3d6000fd5b5050505060016002836081811061123757611237612144565b602081049091018054921515601f9092166101000a91820260ff909202199092161790556040516369e38bc360e01b815261ffff83166004820152610808906369e38bc390602401602060405180830381865afa15801561129c573d6000803e3d6000fd5b505050506040513d601f19601f820116820180604052508101906112c0919061215a565b600783608181106112d3576112d3612144565b015542608883608181106112e9576112e9612144565b0155505b50600101611135565b505b61130160018055565b505050565b61130e611b17565b611316611b70565b6002816081811061132957611329612144565b602081049091015460ff601f9092166101000a900416801561135f57506088816081811061135957611359612144565b01544214155b156115245761010b5461010c546040516371dacc7d60e11b815260048101929092526024820152604481018290526000906108059063e3b598fa90606401602060405180830381865afa1580156113ba573d6000803e3d6000fd5b505050506040513d601f19601f820116820180604052508101906113de919061215a565b9050600081118061148157506103e8610109546007846081811061140457611404612144565b0154611410919061219c565b61141a91906121b3565b6040516369e38bc360e01b815261ffff84166004820152610808906369e38bc390602401602060405180830381865afa15801561145b573d6000803e3d6000fd5b505050506040513d601f19601f8201168201806040525081019061147f919061215a565b115b156115225760405163d4626bb960e01b81526000805160206121f18339815191526004820152602481018390526108059063d4626bb990604401600060405180830381600087803b1580156114d557600080fd5b505af11580156114e9573d6000803e3d6000fd5b5050505060006002836081811061150257611502612144565b602091828204019190066101000a81548160ff0219169083151502179055505b505b6109e660018055565b611535611b70565b61010c55565b611543611b17565b61154b611b70565b60005b8181101561178a57600083838381811061156a5761156a612144565b9050602002013590506002816081811061158657611586612144565b602081049091015460ff601f9092166101000a90041680156115bc5750608881608181106115b6576115b6612144565b01544214155b156117815761010b5461010c546040516371dacc7d60e11b815260048101929092526024820152604481018290526000906108059063e3b598fa90606401602060405180830381865afa158015611617573d6000803e3d6000fd5b505050506040513d601f19601f8201168201806040525081019061163b919061215a565b905060008111806116de57506103e8610109546007846081811061166157611661612144565b015461166d919061219c565b61167791906121b3565b6040516369e38bc360e01b815261ffff84166004820152610808906369e38bc390602401602060405180830381865afa1580156116b8573d6000803e3d6000fd5b505050506040513d601f19601f820116820180604052508101906116dc919061215a565b115b1561177f5760405163d4626bb960e01b81526000805160206121f18339815191526004820152602481018390526108059063d4626bb990604401600060405180830381600087803b15801561173257600080fd5b505af1158015611746573d6000803e3d6000fd5b5050505060006002836081811061175f5761175f612144565b602091828204019190066101000a81548160ff0219169083151502179055505b505b5060010161154e565b5061093960018055565b61179c611c44565b6040805161102081019182905290600290608190826000855b825461010083900a900460ff1615158152602060019283018181049485019490930390920291018084116117b55790505050505050905090565b6117f7611b70565b61010b55565b611805611b17565b61180d611b70565b6002816081811061182057611820612144565b602081049091015460ff601f9092166101000a900416801561185657506088816081811061185057611850612144565b01544214155b156115245760405163d4626bb960e01b81526000805160206121f18339815191526004820152602481018290526108059063d4626bb990604401600060405180830381600087803b1580156118aa57600080fd5b505af11580156118be573d6000803e3d6000fd5b505050506000600282608181106118d7576118d7612144565b602091828204019190066101000a81548160ff0219169083151502179055506109e660018055565b611907611b70565b6001600160a01b03811661196c5760405162461bcd60e51b815260206004820152602660248201527f4f776e61626c653a206e6577206f776e657220697320746865207a65726f206160448201526564647265737360d01b6064820152608401610721565b6109e681611bf4565b61010a546001600160a01b031633146119a05760405162461bcd60e51b81526004016107219061211c565b6001600160a01b0382166119ea5760405162461bcd60e51b8152602060048201526011602482015270125b9d985b1a59081c9958da5c1a595b9d607a1b6044820152606401610721565b80600003611a0b576040516365e52d5160e11b815260040160405180910390fd5b6000826001600160a01b03168260405160006040518083038185875af1925050503d8060008114611a58576040519150601f19603f3d011682016040523d82523d6000602084013e611a5d565b606091505b5050905080611301576040516312171d8360e31b815260040160405180910390fd5b61010a546001600160a01b03163314611aaa5760405162461bcd60e51b81526004016107219061211c565b6001600160a01b038116611af45760405162461bcd60e51b8152602060048201526011602482015270125b9d985b1a59081c9958da5c1a595b9d607a1b6044820152606401610721565b476000819003611a0b576040516365e52d5160e11b815260040160405180910390fd5b600260015403611b695760405162461bcd60e51b815260206004820152601f60248201527f5265656e7472616e637947756172643a207265656e7472616e742063616c6c006044820152606401610721565b6002600155565b6000546001600160a01b031633146110005760405162461bcd60e51b815260206004820181905260248201527f4f776e61626c653a2063616c6c6572206973206e6f7420746865206f776e65726044820152606401610721565b6000818310611bd95781611bdb565b825b90505b92915050565b6000611bde633b9aca00836121b3565b600080546001600160a01b038381166001600160a01b0319831681178455604051919092169283917f8be0079c531659141344cd1fd0a4f28419497f9722a3daafe3b4186f6b6457e09190a35050565b6040518061102001604052806081906020820280368337509192915050565b8060005b6081811015611c86578151845260209384019390910190600101611c67565b50505050565b8060005b6081811015611c8657815167ffffffffffffffff16845260209384019390910190600101611c90565b8060005b6081811015611c865781511515845260209384019390910190600101611cbd565b6160c08101611ced8289611c63565b611cfb611020830188611c8c565b611d09612040830187611cb9565b611d17613060830186611cb9565b611d25614080830185611c63565b611d336150a0830184611c63565b979650505050505050565b600060208284031215611d5057600080fd5b5035919050565b80356001600160a01b0381168114611d6e57600080fd5b919050565b600060208284031215611d8557600080fd5b611bdb82611d57565b60008060408385031215611da157600080fd5b50508035926020909101359150565b6110208101611bde8284611c63565b60008083601f840112611dd157600080fd5b50813567ffffffffffffffff811115611de957600080fd5b6020830191508360208260051b8501011115611e0457600080fd5b9250929050565b600080600080600060608688031215611e2357600080fd5b85359450602086013567ffffffffffffffff80821115611e4257600080fd5b611e4e89838a01611dbf565b90965094506040880135915080821115611e6757600080fd5b50611e7488828901611dbf565b969995985093965092949392505050565b6140808101611e948287611c63565b611ea2611020830186611c8c565b611eb0612040830185611cb9565b611ebe613060830184611c63565b95945050505050565b600080600060408486031215611edc57600080fd5b83359250602084013567ffffffffffffffff811115611efa57600080fd5b611f0686828701611dbf565b9497909650939450505050565b60008060208385031215611f2657600080fd5b823567ffffffffffffffff811115611f3d57600080fd5b611f4985828601611dbf565b90969095509350505050565b6110208101611bde8284611cb9565b60008060408385031215611f7757600080fd5b611f8083611d57565b946020939093013593505050565b604051611020810167ffffffffffffffff81118282101715611fc057634e487b7160e01b600052604160045260246000fd5b60405290565b600082601f830112611fd757600080fd5b611fdf611f8e565b80611020840185811115611ff257600080fd5b845b8181101561200c578051845260209384019301611ff4565b509095945050505050565b805167ffffffffffffffff81168114611d6e57600080fd5b600080600080614080858703121561204657600080fd5b6120508686611fc6565b93508561103f86011261206257600080fd5b61206a611f8e565b8061204087018881111561207d57600080fd5b61102088015b818110156120a25761209481612017565b845260209384019301612083565b508195508861205f8901126120b657600080fd5b6120be611f8e565b92508291506130608801898111156120d557600080fd5b8082101561210057815180151581146120ee5760008081fd5b845260209384019391909101906120d5565b82955061210d8a82611fc6565b94505050505092959194509250565b6020808252600e908201526d2737ba103bb4ba34323930bbb2b960911b604082015260600190565b634e487b7160e01b600052603260045260246000fd5b60006020828403121561216c57600080fd5b5051919050565b634e487b7160e01b600052601160045260246000fd5b80820180821115611bde57611bde612173565b8082028115828204841417611bde57611bde612173565b6000826121d057634e487b7160e01b600052601260045260246000fd5b500490565b6000602082840312156121e757600080fd5b611bdb8261201756feb4c087119097fbe3985298eef52f35ef6271c48322a8c2d430902a9cc38d9473a26469706673582212205e9bdbb5d6f7768d1be25bc765df8c5319f82cf5ea7383ea109508751b8cc73e64736f6c63430008160033","opcodes":"PUSH1 0x80 PUSH1 0x40 MSTORE PUSH2 0x44C PUSH2 0x109 SSTORE PUSH2 0x10A DUP1 SLOAD PUSH1 0x1 PUSH1 0x1 PUSH1 0xA0 SHL SUB NOT AND SWAP1 SSTORE PUSH32 0x56A9AEE6291BD03AB6D36D4D13E2BEBAE7CD403518066C72FBA1B417D6DDD748 PUSH2 0x10B SSTORE PUSH32 0xDC33B0FD5D2EF4647DB921764DA8787A2B9F27EFFF6755B1007EB35E55EAF709 PUSH2 0x10C SSTORE CALLVALUE DUP1 ISZERO PUSH3 0x73 JUMPI PUSH1 0x0 DUP1 REVERT JUMPDEST POP PUSH3 0x7F CALLER PUSH3 0x11E JUMP JUMPDEST PUSH1 0x1 DUP1 SSTORE PUSH1 0x0 JUMPDEST PUSH1 0x81 DUP2 LT ISZERO PUSH3 0x104 JUMPI PUSH1 0x0 PUSH1 0x2 DUP3 PUSH1 0x81 DUP2 LT PUSH3 0xA8 JUMPI PUSH3 0xA8 PUSH3 0x16E JUMP JUMPDEST PUSH1 0x20 SWAP2 DUP3 DUP3 DIV ADD SWAP2 SWAP1 MOD PUSH2 0x100 EXP DUP2 SLOAD DUP2 PUSH1 0xFF MUL NOT AND SWAP1 DUP4 ISZERO ISZERO MUL OR SWAP1 SSTORE POP PUSH1 0x0 PUSH1 0x7 DUP3 PUSH1 0x81 DUP2 LT PUSH3 0xDF JUMPI PUSH3 0xDF PUSH3 0x16E JUMP JUMPDEST ADD SSTORE PUSH1 0x0 PUSH1 0x88 DUP3 PUSH1 0x81 DUP2 LT PUSH3 0xF9 JUMPI PUSH3 0xF9 PUSH3 0x16E JUMP JUMPDEST ADD SSTORE PUSH1 0x1 ADD PUSH3 0x86 JUMP JUMPDEST POP PUSH2 0x10A DUP1 SLOAD PUSH1 0x1 PUSH1 0x1 PUSH1 0xA0 SHL SUB NOT AND CALLER OR SWAP1 SSTORE PUSH3 0x184 JUMP JUMPDEST PUSH1 0x0 DUP1 SLOAD PUSH1 0x1 PUSH1 0x1 PUSH1 0xA0 SHL SUB DUP4 DUP2 AND PUSH1 0x1 PUSH1 0x1 PUSH1 0xA0 SHL SUB NOT DUP4 AND DUP2 OR DUP5 SSTORE PUSH1 0x40 MLOAD SWAP2 SWAP1 SWAP3 AND SWAP3 DUP4 SWAP2 PUSH32 0x8BE0079C531659141344CD1FD0A4F28419497F9722A3DAAFE3B4186F6B6457E0 SWAP2 SWAP1 LOG3 POP POP JUMP JUMPDEST PUSH4 0x4E487B71 PUSH1 0xE0 SHL PUSH1 0x0 MSTORE PUSH1 0x32 PUSH1 0x4 MSTORE PUSH1 0x24 PUSH1 0x0 REVERT JUMPDEST PUSH2 0x2246 DUP1 PUSH3 0x194 PUSH1 0x0 CODECOPY PUSH1 0x0 RETURN INVALID PUSH1 0x80 PUSH1 0x40 MSTORE PUSH1 0x4 CALLDATASIZE LT PUSH2 0x1DC JUMPI PUSH1 0x0 CALLDATALOAD PUSH1 0xE0 SHR DUP1 PUSH4 0xA75D3564 GT PUSH2 0x102 JUMPI DUP1 PUSH4 0xD908968C GT PUSH2 0x95 JUMPI DUP1 PUSH4 0xF2FDE38B GT PUSH2 0x64 JUMPI DUP1 PUSH4 0xF2FDE38B EQ PUSH2 0x51A JUMPI DUP1 PUSH4 0xF528C62E EQ PUSH2 0x53A JUMPI DUP1 PUSH4 0xFA09E630 EQ PUSH2 0x55A JUMPI DUP1 PUSH4 0xFDD4F21B EQ PUSH2 0x57A JUMPI PUSH2 0x1E3 JUMP JUMPDEST DUP1 PUSH4 0xD908968C EQ PUSH2 0x4B2 JUMPI DUP1 PUSH4 0xDDD8A4C8 EQ PUSH2 0x4C5 JUMPI DUP1 PUSH4 0xDEE25CDA EQ PUSH2 0x4E7 JUMPI DUP1 PUSH4 0xEA07A542 EQ PUSH2 0x507 JUMPI PUSH2 0x1E3 JUMP JUMPDEST DUP1 PUSH4 0xC64625EA GT PUSH2 0xD1 JUMPI DUP1 PUSH4 0xC64625EA EQ PUSH2 0x438 JUMPI DUP1 PUSH4 0xC7687C22 EQ PUSH2 0x458 JUMPI DUP1 PUSH4 0xC8C23393 EQ PUSH2 0x47A JUMPI DUP1 PUSH4 0xCDC18424 EQ PUSH2 0x491 JUMPI PUSH2 0x1E3 JUMP JUMPDEST DUP1 PUSH4 0xA75D3564 EQ PUSH2 0x3DF JUMPI DUP1 PUSH4 0xAA099A7B EQ PUSH2 0x3FF JUMPI DUP1 PUSH4 0xAC0C34CC EQ PUSH2 0x412 JUMPI DUP1 PUSH4 0xC4441CCE EQ PUSH2 0x425 JUMPI PUSH2 0x1E3 JUMP JUMPDEST DUP1 PUSH4 0x3D4AC3C2 GT PUSH2 0x17A JUMPI DUP1 PUSH4 0x5A9B0B89 GT PUSH2 0x149 JUMPI DUP1 PUSH4 0x5A9B0B89 EQ PUSH2 0x353 JUMPI DUP1 PUSH4 0x715018A6 EQ PUSH2 0x378 JUMPI DUP1 PUSH4 0x8DA5CB5B EQ PUSH2 0x38D JUMPI DUP1 PUSH4 0x9A900394 EQ PUSH2 0x3BF JUMPI PUSH2 0x1E3 JUMP JUMPDEST DUP1 PUSH4 0x3D4AC3C2 EQ PUSH2 0x2F6 JUMPI DUP1 PUSH4 0x46F3DED4 EQ PUSH2 0x30B JUMPI DUP1 PUSH4 0x4C709CCA EQ PUSH2 0x31E JUMPI DUP1 PUSH4 0x59ABBFE4 EQ PUSH2 0x33E JUMPI PUSH2 0x1E3 JUMP JUMPDEST DUP1 PUSH4 0x10D67406 GT PUSH2 0x1B6 JUMPI DUP1 PUSH4 0x10D67406 EQ PUSH2 0x27E JUMPI DUP1 PUSH4 0x310BD74B EQ PUSH2 0x291 JUMPI DUP1 PUSH4 0x337A1737 EQ PUSH2 0x2A4 JUMPI DUP1 PUSH4 0x3A34C83F EQ PUSH2 0x2D1 JUMPI PUSH2 0x1E3 JUMP JUMPDEST DUP1 PUSH4 0x2F12826 EQ PUSH2 0x1FC JUMPI DUP1 PUSH4 0x8B41C01 EQ PUSH2 0x22C JUMPI DUP1 PUSH4 0xD174C24 EQ PUSH2 0x25C JUMPI PUSH2 0x1E3 JUMP JUMPDEST CALLDATASIZE PUSH2 0x1E3 JUMPI STOP JUMPDEST PUSH1 0x40 MLOAD PUSH4 0x201F3FD3 PUSH1 0xE1 SHL DUP2 MSTORE PUSH1 0x4 ADD PUSH1 0x40 MLOAD DUP1 SWAP2 SUB SWAP1 REVERT JUMPDEST CALLVALUE DUP1 ISZERO PUSH2 0x208 JUMPI PUSH1 0x0 DUP1 REVERT JUMPDEST POP PUSH2 0x211 PUSH2 0x591 JUMP JUMPDEST PUSH1 0x40 MLOAD PUSH2 0x223 SWAP7 SWAP6 SWAP5 SWAP4 SWAP3 SWAP2 SWAP1 PUSH2 0x1CDE JUMP JUMPDEST PUSH1 0x40 MLOAD DUP1 SWAP2 SUB SWAP1 RETURN JUMPDEST CALLVALUE DUP1 ISZERO PUSH2 0x238 JUMPI PUSH1 0x0 DUP1 REVERT JUMPDEST POP PUSH2 0x24C PUSH2 0x247 CALLDATASIZE PUSH1 0x4 PUSH2 0x1D3E JUMP JUMPDEST PUSH2 0x6CC JUMP JUMPDEST PUSH1 0x40 MLOAD SWAP1 ISZERO ISZERO DUP2 MSTORE PUSH1 0x20 ADD PUSH2 0x223 JUMP JUMPDEST CALLVALUE DUP1 ISZERO PUSH2 0x268 JUMPI PUSH1 0x0 DUP1 REVERT JUMPDEST POP PUSH2 0x27C PUSH2 0x277 CALLDATASIZE PUSH1 0x4 PUSH2 0x1D73 JUMP JUMPDEST PUSH2 0x6F6 JUMP JUMPDEST STOP JUMPDEST PUSH2 0x27C PUSH2 0x28C CALLDATASIZE PUSH1 0x4 PUSH2 0x1D8E JUMP JUMPDEST PUSH2 0x795 JUMP JUMPDEST PUSH2 0x27C PUSH2 0x29F CALLDATASIZE PUSH1 0x4 PUSH2 0x1D3E JUMP JUMPDEST PUSH2 0x93D JUMP JUMPDEST CALLVALUE DUP1 ISZERO PUSH2 0x2B0 JUMPI PUSH1 0x0 DUP1 REVERT JUMPDEST POP PUSH2 0x2C4 PUSH2 0x2BF CALLDATASIZE PUSH1 0x4 PUSH2 0x1D3E JUMP JUMPDEST PUSH2 0x9E9 JUMP JUMPDEST PUSH1 0x40 MLOAD PUSH2 0x223 SWAP2 SWAP1 PUSH2 0x1DB0 JUMP JUMPDEST CALLVALUE DUP1 ISZERO PUSH2 0x2DD JUMPI PUSH1 0x0 DUP1 REVERT JUMPDEST POP PUSH2 0x2E8 PUSH2 0x109 SLOAD DUP2 JUMP JUMPDEST PUSH1 0x40 MLOAD SWAP1 DUP2 MSTORE PUSH1 0x20 ADD PUSH2 0x223 JUMP JUMPDEST CALLVALUE DUP1 ISZERO PUSH2 0x302 JUMPI PUSH1 0x0 DUP1 REVERT JUMPDEST POP PUSH2 0x2C4 PUSH2 0xAAA JUMP JUMPDEST PUSH2 0x27C PUSH2 0x319 CALLDATASIZE PUSH1 0x4 PUSH2 0x1E0B JUMP JUMPDEST PUSH2 0xAE6 JUMP JUMPDEST CALLVALUE DUP1 ISZERO PUSH2 0x32A JUMPI PUSH1 0x0 DUP1 REVERT JUMPDEST POP PUSH2 0x27C PUSH2 0x339 CALLDATASIZE PUSH1 0x4 PUSH2 0x1D3E JUMP JUMPDEST PUSH2 0xD61 JUMP JUMPDEST CALLVALUE DUP1 ISZERO PUSH2 0x34A JUMPI PUSH1 0x0 DUP1 REVERT JUMPDEST POP PUSH2 0x2C4 PUSH2 0xD6F JUMP JUMPDEST CALLVALUE DUP1 ISZERO PUSH2 0x35F JUMPI PUSH1 0x0 DUP1 REVERT JUMPDEST POP PUSH2 0x368 PUSH2 0xDA6 JUMP JUMPDEST PUSH1 0x40 MLOAD PUSH2 0x223 SWAP5 SWAP4 SWAP3 SWAP2 SWAP1 PUSH2 0x1E85 JUMP JUMPDEST CALLVALUE DUP1 ISZERO PUSH2 0x384 JUMPI PUSH1 0x0 DUP1 REVERT JUMPDEST POP PUSH2 0x27C PUSH2 0xFEE JUMP JUMPDEST CALLVALUE DUP1 ISZERO PUSH2 0x399 JUMPI PUSH1 0x0 DUP1 REVERT JUMPDEST POP PUSH1 0x0 SLOAD PUSH1 0x1 PUSH1 0x1 PUSH1 0xA0 SHL SUB AND JUMPDEST PUSH1 0x40 MLOAD PUSH1 0x1 PUSH1 0x1 PUSH1 0xA0 SHL SUB SWAP1 SWAP2 AND DUP2 MSTORE PUSH1 0x20 ADD PUSH2 0x223 JUMP JUMPDEST CALLVALUE DUP1 ISZERO PUSH2 0x3CB JUMPI PUSH1 0x0 DUP1 REVERT JUMPDEST POP PUSH2 0x2E8 PUSH2 0x3DA CALLDATASIZE PUSH1 0x4 PUSH2 0x1D3E JUMP JUMPDEST PUSH2 0x1002 JUMP JUMPDEST CALLVALUE DUP1 ISZERO PUSH2 0x3EB JUMPI PUSH1 0x0 DUP1 REVERT JUMPDEST POP PUSH2 0x2E8 PUSH2 0x3FA CALLDATASIZE PUSH1 0x4 PUSH2 0x1D3E JUMP JUMPDEST PUSH2 0x1019 JUMP JUMPDEST PUSH2 0x27C PUSH2 0x40D CALLDATASIZE PUSH1 0x4 PUSH2 0x1D8E JUMP JUMPDEST PUSH2 0x1029 JUMP JUMPDEST PUSH2 0x27C PUSH2 0x420 CALLDATASIZE PUSH1 0x4 PUSH2 0x1EC7 JUMP JUMPDEST PUSH2 0x111C JUMP JUMPDEST PUSH2 0x27C PUSH2 0x433 CALLDATASIZE PUSH1 0x4 PUSH2 0x1D3E JUMP JUMPDEST PUSH2 0x1306 JUMP JUMPDEST CALLVALUE DUP1 ISZERO PUSH2 0x444 JUMPI PUSH1 0x0 DUP1 REVERT JUMPDEST POP PUSH2 0x27C PUSH2 0x453 CALLDATASIZE PUSH1 0x4 PUSH2 0x1D3E JUMP JUMPDEST PUSH2 0x152D JUMP JUMPDEST CALLVALUE DUP1 ISZERO PUSH2 0x464 JUMPI PUSH1 0x0 DUP1 REVERT JUMPDEST POP PUSH2 0x2E8 PUSH1 0x0 DUP1 MLOAD PUSH1 0x20 PUSH2 0x21F1 DUP4 CODECOPY DUP2 MLOAD SWAP2 MSTORE DUP2 JUMP JUMPDEST CALLVALUE DUP1 ISZERO PUSH2 0x486 JUMPI PUSH1 0x0 DUP1 REVERT JUMPDEST POP PUSH2 0x2E8 PUSH2 0x10C SLOAD DUP2 JUMP JUMPDEST CALLVALUE DUP1 ISZERO PUSH2 0x49D JUMPI PUSH1 0x0 DUP1 REVERT JUMPDEST POP PUSH2 0x10A SLOAD PUSH2 0x3A7 SWAP1 PUSH1 0x1 PUSH1 0x1 PUSH1 0xA0 SHL SUB AND DUP2 JUMP JUMPDEST PUSH2 0x27C PUSH2 0x4C0 CALLDATASIZE PUSH1 0x4 PUSH2 0x1F13 JUMP JUMPDEST PUSH2 0x153B JUMP JUMPDEST CALLVALUE DUP1 ISZERO PUSH2 0x4D1 JUMPI PUSH1 0x0 DUP1 REVERT JUMPDEST POP PUSH2 0x4DA PUSH2 0x1794 JUMP JUMPDEST PUSH1 0x40 MLOAD PUSH2 0x223 SWAP2 SWAP1 PUSH2 0x1F55 JUMP JUMPDEST CALLVALUE DUP1 ISZERO PUSH2 0x4F3 JUMPI PUSH1 0x0 DUP1 REVERT JUMPDEST POP PUSH2 0x27C PUSH2 0x502 CALLDATASIZE PUSH1 0x4 PUSH2 0x1D3E JUMP JUMPDEST PUSH2 0x17EF JUMP JUMPDEST PUSH2 0x27C PUSH2 0x515 CALLDATASIZE PUSH1 0x4 PUSH2 0x1D3E JUMP JUMPDEST PUSH2 0x17FD JUMP JUMPDEST CALLVALUE DUP1 ISZERO PUSH2 0x526 JUMPI PUSH1 0x0 DUP1 REVERT JUMPDEST POP PUSH2 0x27C PUSH2 0x535 CALLDATASIZE PUSH1 0x4 PUSH2 0x1D73 JUMP JUMPDEST PUSH2 0x18FF JUMP JUMPDEST CALLVALUE DUP1 ISZERO PUSH2 0x546 JUMPI PUSH1 0x0 DUP1 REVERT JUMPDEST POP PUSH2 0x27C PUSH2 0x555 CALLDATASIZE PUSH1 0x4 PUSH2 0x1F64 JUMP JUMPDEST PUSH2 0x1975 JUMP JUMPDEST CALLVALUE DUP1 ISZERO PUSH2 0x566 JUMPI PUSH1 0x0 DUP1 REVERT JUMPDEST POP PUSH2 0x27C PUSH2 0x575 CALLDATASIZE PUSH1 0x4 PUSH2 0x1D73 JUMP JUMPDEST PUSH2 0x1A7F JUMP JUMPDEST CALLVALUE DUP1 ISZERO PUSH2 0x586 JUMPI PUSH1 0x0 DUP1 REVERT JUMPDEST POP PUSH2 0x2E8 PUSH2 0x10B SLOAD DUP2 JUMP JUMPDEST PUSH2 0x599 PUSH2 0x1C44 JUMP JUMPDEST PUSH2 0x5A1 PUSH2 0x1C44 JUMP JUMPDEST PUSH2 0x5A9 PUSH2 0x1C44 JUMP JUMPDEST PUSH2 0x5B1 PUSH2 0x1C44 JUMP JUMPDEST PUSH2 0x5B9 PUSH2 0x1C44 JUMP JUMPDEST PUSH2 0x5C1 PUSH2 0x1C44 JUMP JUMPDEST PUSH20 0xEEB43A5FB8C5B1D8DCF8512C87458DFB6FC6C9A8 PUSH1 0x1 PUSH1 0x1 PUSH1 0xA0 SHL SUB AND PUSH4 0x5A9B0B89 PUSH1 0x40 MLOAD DUP2 PUSH4 0xFFFFFFFF AND PUSH1 0xE0 SHL DUP2 MSTORE PUSH1 0x4 ADD PUSH2 0x4080 PUSH1 0x40 MLOAD DUP1 DUP4 SUB DUP2 DUP7 GAS STATICCALL ISZERO DUP1 ISZERO PUSH2 0x614 JUMPI RETURNDATASIZE PUSH1 0x0 DUP1 RETURNDATACOPY RETURNDATASIZE PUSH1 0x0 REVERT JUMPDEST POP POP POP POP PUSH1 0x40 MLOAD RETURNDATASIZE PUSH1 0x1F NOT PUSH1 0x1F DUP3 ADD AND DUP3 ADD DUP1 PUSH1 0x40 MSTORE POP DUP2 ADD SWAP1 PUSH2 0x638 SWAP2 SWAP1 PUSH2 0x202F JUMP JUMPDEST PUSH1 0x40 DUP1 MLOAD PUSH2 0x1020 DUP2 ADD SWAP2 DUP3 SWAP1 MSTORE SWAP5 SWAP11 POP SWAP3 SWAP9 POP SWAP1 SWAP7 POP SWAP4 POP PUSH1 0x2 SWAP1 PUSH1 0x81 SWAP1 DUP3 PUSH1 0x0 DUP6 JUMPDEST DUP3 SLOAD PUSH2 0x100 DUP4 SWAP1 EXP SWAP1 DIV PUSH1 0xFF AND ISZERO ISZERO DUP2 MSTORE PUSH1 0x20 PUSH1 0x1 SWAP3 DUP4 ADD DUP2 DUP2 DIV SWAP5 DUP6 ADD SWAP5 SWAP1 SWAP4 SUB SWAP1 SWAP3 MUL SWAP2 ADD DUP1 DUP5 GT PUSH2 0x65B JUMPI POP POP PUSH1 0x40 DUP1 MLOAD PUSH2 0x1020 DUP2 ADD SWAP2 DUP3 SWAP1 MSTORE SWAP6 SWAP9 POP PUSH1 0x7 SWAP5 POP PUSH1 0x81 SWAP4 POP SWAP2 POP DUP4 SWAP1 POP DUP5 JUMPDEST DUP2 SLOAD DUP2 MSTORE PUSH1 0x20 ADD SWAP1 PUSH1 0x1 ADD SWAP1 DUP1 DUP4 GT PUSH2 0x6AA JUMPI POP POP POP POP POP SWAP1 POP SWAP1 SWAP2 SWAP3 SWAP4 SWAP5 SWAP6 JUMP JUMPDEST PUSH1 0x2 DUP2 PUSH1 0x81 DUP2 LT PUSH2 0x6DC JUMPI PUSH1 0x0 DUP1 REVERT JUMPDEST PUSH1 0x20 SWAP2 DUP3 DUP3 DIV ADD SWAP2 SWAP1 MOD SWAP2 POP SLOAD SWAP1 PUSH2 0x100 EXP SWAP1 DIV PUSH1 0xFF AND DUP2 JUMP JUMPDEST PUSH2 0x10A SLOAD PUSH1 0x1 PUSH1 0x1 PUSH1 0xA0 SHL SUB AND CALLER EQ PUSH2 0x72A JUMPI PUSH1 0x40 MLOAD PUSH3 0x461BCD PUSH1 0xE5 SHL DUP2 MSTORE PUSH1 0x4 ADD PUSH2 0x721 SWAP1 PUSH2 0x211C JUMP JUMPDEST PUSH1 0x40 MLOAD DUP1 SWAP2 SUB SWAP1 REVERT JUMPDEST PUSH1 0x1 PUSH1 0x1 PUSH1 0xA0 SHL SUB DUP2 AND PUSH2 0x772 JUMPI PUSH1 0x40 MLOAD PUSH3 0x461BCD PUSH1 0xE5 SHL DUP2 MSTORE PUSH1 0x20 PUSH1 0x4 DUP3 ADD MSTORE PUSH1 0xF PUSH1 0x24 DUP3 ADD MSTORE PUSH15 0x496E76616C69642061646472657373 PUSH1 0x88 SHL PUSH1 0x44 DUP3 ADD MSTORE PUSH1 0x64 ADD PUSH2 0x721 JUMP JUMPDEST PUSH2 0x10A DUP1 SLOAD PUSH1 0x1 PUSH1 0x1 PUSH1 0xA0 SHL SUB NOT AND PUSH1 0x1 PUSH1 0x1 PUSH1 0xA0 SHL SUB SWAP3 SWAP1 SWAP3 AND SWAP2 SWAP1 SWAP2 OR SWAP1 SSTORE JUMP JUMPDEST PUSH2 0x79D PUSH2 0x1B17 JUMP JUMPDEST PUSH2 0x7A5 PUSH2 0x1B70 JUMP JUMPDEST DUP2 ISZERO DUP1 ISZERO SWAP1 PUSH2 0x7DA JUMPI POP PUSH1 0x2 DUP2 PUSH1 0x81 DUP2 LT PUSH2 0x7C2 JUMPI PUSH2 0x7C2 PUSH2 0x2144 JUMP JUMPDEST PUSH1 0x20 DUP2 DIV SWAP1 SWAP2 ADD SLOAD PUSH1 0xFF PUSH1 0x1F SWAP1 SWAP3 AND PUSH2 0x100 EXP SWAP1 DIV AND ISZERO JUMPDEST ISZERO PUSH2 0x930 JUMPI PUSH2 0x805 PUSH4 0x1FC9B141 PUSH1 0x0 DUP1 MLOAD PUSH1 0x20 PUSH2 0x21F1 DUP4 CODECOPY DUP2 MLOAD SWAP2 MSTORE PUSH2 0x808 PUSH2 0x803 SELFBALANCE DUP8 PUSH2 0x1BCA JUMP JUMPDEST PUSH2 0x1BE4 JUMP JUMPDEST PUSH1 0x40 MLOAD PUSH1 0x1 PUSH1 0x1 PUSH1 0xE0 SHL SUB NOT PUSH1 0xE0 DUP6 SWAP1 SHL AND DUP2 MSTORE PUSH1 0x4 DUP2 ADD SWAP3 SWAP1 SWAP3 MSTORE PUSH1 0x24 DUP3 ADD MSTORE PUSH1 0x44 DUP2 ADD DUP5 SWAP1 MSTORE PUSH1 0x64 ADD PUSH1 0x0 PUSH1 0x40 MLOAD DUP1 DUP4 SUB DUP2 PUSH1 0x0 DUP8 DUP1 EXTCODESIZE ISZERO DUP1 ISZERO PUSH2 0x84D JUMPI PUSH1 0x0 DUP1 REVERT JUMPDEST POP GAS CALL ISZERO DUP1 ISZERO PUSH2 0x861 JUMPI RETURNDATASIZE PUSH1 0x0 DUP1 RETURNDATACOPY RETURNDATASIZE PUSH1 0x0 REVERT JUMPDEST POP POP POP POP PUSH1 0x1 PUSH1 0x2 DUP3 PUSH1 0x81 DUP2 LT PUSH2 0x87A JUMPI PUSH2 0x87A PUSH2 0x2144 JUMP JUMPDEST PUSH1 0x20 DUP2 DIV SWAP1 SWAP2 ADD DUP1 SLOAD SWAP3 ISZERO ISZERO PUSH1 0x1F SWAP1 SWAP3 AND PUSH2 0x100 EXP SWAP2 DUP3 MUL PUSH1 0xFF SWAP1 SWAP3 MUL NOT SWAP1 SWAP3 AND OR SWAP1 SSTORE PUSH1 0x40 MLOAD PUSH4 0x69E38BC3 PUSH1 0xE0 SHL DUP2 MSTORE PUSH2 0xFFFF DUP3 AND PUSH1 0x4 DUP3 ADD MSTORE PUSH2 0x808 SWAP1 PUSH4 0x69E38BC3 SWAP1 PUSH1 0x24 ADD JUMPDEST PUSH1 0x20 PUSH1 0x40 MLOAD DUP1 DUP4 SUB DUP2 DUP7 GAS STATICCALL ISZERO DUP1 ISZERO PUSH2 0x8E0 JUMPI RETURNDATASIZE PUSH1 0x0 DUP1 RETURNDATACOPY RETURNDATASIZE PUSH1 0x0 REVERT JUMPDEST POP POP POP POP PUSH1 0x40 MLOAD RETURNDATASIZE PUSH1 0x1F NOT PUSH1 0x1F DUP3 ADD AND DUP3 ADD DUP1 PUSH1 0x40 MSTORE POP DUP2 ADD SWAP1 PUSH2 0x904 SWAP2 SWAP1 PUSH2 0x215A JUMP JUMPDEST PUSH1 0x7 DUP3 PUSH1 0x81 DUP2 LT PUSH2 0x917 JUMPI PUSH2 0x917 PUSH2 0x2144 JUMP JUMPDEST ADD SSTORE TIMESTAMP PUSH1 0x88 DUP3 PUSH1 0x81 DUP2 LT PUSH2 0x92D JUMPI PUSH2 0x92D PUSH2 0x2144 JUMP JUMPDEST ADD SSTORE JUMPDEST PUSH2 0x939 PUSH1 0x1 DUP1 SSTORE JUMP JUMPDEST POP POP JUMP JUMPDEST PUSH2 0x945 PUSH2 0x1B17 JUMP JUMPDEST PUSH2 0x94D PUSH2 0x1B70 JUMP JUMPDEST PUSH1 0x40 MLOAD PUSH4 0x69E38BC3 PUSH1 0xE0 SHL DUP2 MSTORE PUSH2 0xFFFF DUP3 AND PUSH1 0x4 DUP3 ADD MSTORE PUSH2 0x808 SWAP1 PUSH4 0x69E38BC3 SWAP1 PUSH1 0x24 ADD PUSH1 0x20 PUSH1 0x40 MLOAD DUP1 DUP4 SUB DUP2 DUP7 GAS STATICCALL ISZERO DUP1 ISZERO PUSH2 0x98E JUMPI RETURNDATASIZE PUSH1 0x0 DUP1 RETURNDATACOPY RETURNDATASIZE PUSH1 0x0 REVERT JUMPDEST POP POP POP POP PUSH1 0x40 MLOAD RETURNDATASIZE PUSH1 0x1F NOT PUSH1 0x1F DUP3 ADD AND DUP3 ADD DUP1 PUSH1 0x40 MSTORE POP DUP2 ADD SWAP1 PUSH2 0x9B2 SWAP2 SWAP1 PUSH2 0x215A JUMP JUMPDEST PUSH1 0x7 DUP3 PUSH1 0x81 DUP2 LT PUSH2 0x9C5 JUMPI PUSH2 0x9C5 PUSH2 0x2144 JUMP JUMPDEST ADD SSTORE TIMESTAMP PUSH1 0x88 DUP3 PUSH1 0x81 DUP2 LT PUSH2 0x9DB JUMPI PUSH2 0x9DB PUSH2 0x2144 JUMP JUMPDEST ADD SSTORE PUSH2 0x9E6 PUSH1 0x1 DUP1 SSTORE JUMP JUMPDEST POP JUMP JUMPDEST PUSH2 0x9F1 PUSH2 0x1C44 JUMP JUMPDEST PUSH1 0x1 JUMPDEST PUSH1 0x81 DUP2 PUSH2 0xFFFF AND LT ISZERO PUSH2 0xAA4 JUMPI PUSH1 0x40 MLOAD PUSH4 0x71DACC7D PUSH1 0xE1 SHL DUP2 MSTORE PUSH1 0x0 DUP1 MLOAD PUSH1 0x20 PUSH2 0x21F1 DUP4 CODECOPY DUP2 MLOAD SWAP2 MSTORE PUSH1 0x4 DUP3 ADD MSTORE PUSH1 0x24 DUP2 ADD DUP5 SWAP1 MSTORE PUSH2 0xFFFF DUP3 AND PUSH1 0x44 DUP3 ADD MSTORE PUSH2 0x805 SWAP1 PUSH4 0xE3B598FA SWAP1 PUSH1 0x64 ADD PUSH1 0x20 PUSH1 0x40 MLOAD DUP1 DUP4 SUB DUP2 DUP7 GAS STATICCALL ISZERO DUP1 ISZERO PUSH2 0xA5D JUMPI RETURNDATASIZE PUSH1 0x0 DUP1 RETURNDATACOPY RETURNDATASIZE PUSH1 0x0 REVERT JUMPDEST POP POP POP POP PUSH1 0x40 MLOAD RETURNDATASIZE PUSH1 0x1F NOT PUSH1 0x1F DUP3 ADD AND DUP3 ADD DUP1 PUSH1 0x40 MSTORE POP DUP2 ADD SWAP1 PUSH2 0xA81 SWAP2 SWAP1 PUSH2 0x215A JUMP JUMPDEST DUP3 DUP3 PUSH2 0xFFFF AND PUSH1 0x81 DUP2 LT PUSH2 0xA97 JUMPI PUSH2 0xA97 PUSH2 0x2144 JUMP JUMPDEST PUSH1 0x20 MUL ADD MSTORE PUSH1 0x1 ADD PUSH2 0x9F4 JUMP JUMPDEST POP SWAP2 SWAP1 POP JUMP JUMPDEST PUSH2 0xAB2 PUSH2 0x1C44 JUMP JUMPDEST PUSH1 0x40 DUP1 MLOAD PUSH2 0x1020 DUP2 ADD SWAP2 DUP3 SWAP1 MSTORE SWAP1 PUSH1 0x7 SWAP1 PUSH1 0x81 SWAP1 DUP3 DUP5 JUMPDEST DUP2 SLOAD DUP2 MSTORE PUSH1 0x20 ADD SWAP1 PUSH1 0x1 ADD SWAP1 DUP1 DUP4 GT PUSH2 0xAC9 JUMPI POP POP POP POP POP SWAP1 POP SWAP1 JUMP JUMPDEST PUSH2 0xAEE PUSH2 0x1B17 JUMP JUMPDEST PUSH2 0xAF6 PUSH2 0x1B70 JUMP JUMPDEST PUSH1 0x2 DUP6 PUSH1 0x81 DUP2 LT PUSH2 0xB09 JUMPI PUSH2 0xB09 PUSH2 0x2144 JUMP JUMPDEST PUSH1 0x20 DUP2 DIV SWAP1 SWAP2 ADD SLOAD PUSH1 0xFF PUSH1 0x1F SWAP1 SWAP3 AND PUSH2 0x100 EXP SWAP1 DIV AND DUP1 ISZERO PUSH2 0xB3F JUMPI POP PUSH1 0x88 DUP6 PUSH1 0x81 DUP2 LT PUSH2 0xB39 JUMPI PUSH2 0xB39 PUSH2 0x2144 JUMP JUMPDEST ADD SLOAD TIMESTAMP EQ ISZERO JUMPDEST ISZERO PUSH2 0xD51 JUMPI PUSH1 0x0 DUP1 JUMPDEST DUP5 DUP2 LT ISZERO PUSH2 0xC0C JUMPI PUSH2 0x805 PUSH4 0xE3B598FA DUP8 DUP8 DUP5 DUP2 DUP2 LT PUSH2 0xB6A JUMPI PUSH2 0xB6A PUSH2 0x2144 JUMP JUMPDEST SWAP1 POP PUSH1 0x20 MUL ADD CALLDATALOAD DUP7 DUP7 DUP6 DUP2 DUP2 LT PUSH2 0xB83 JUMPI PUSH2 0xB83 PUSH2 0x2144 JUMP JUMPDEST PUSH1 0x40 MLOAD PUSH1 0x1 PUSH1 0x1 PUSH1 0xE0 SHL SUB NOT PUSH1 0xE0 DUP8 SWAP1 SHL AND DUP2 MSTORE PUSH1 0x4 DUP2 ADD SWAP5 SWAP1 SWAP5 MSTORE PUSH1 0x20 MUL SWAP2 SWAP1 SWAP2 ADD CALLDATALOAD PUSH1 0x24 DUP4 ADD MSTORE POP PUSH1 0x44 DUP2 ADD DUP11 SWAP1 MSTORE PUSH1 0x64 ADD PUSH1 0x20 PUSH1 0x40 MLOAD DUP1 DUP4 SUB DUP2 DUP7 GAS STATICCALL ISZERO DUP1 ISZERO PUSH2 0xBD4 JUMPI RETURNDATASIZE PUSH1 0x0 DUP1 RETURNDATACOPY RETURNDATASIZE PUSH1 0x0 REVERT JUMPDEST POP POP POP POP PUSH1 0x40 MLOAD RETURNDATASIZE PUSH1 0x1F NOT PUSH1 0x1F DUP3 ADD AND DUP3 ADD DUP1 PUSH1 0x40 MSTORE POP DUP2 ADD SWAP1 PUSH2 0xBF8 SWAP2 SWAP1 PUSH2 0x215A JUMP JUMPDEST PUSH2 0xC02 SWAP1 DUP4 PUSH2 0x2189 JUMP JUMPDEST SWAP2 POP PUSH1 0x1 ADD PUSH2 0xB48 JUMP JUMPDEST POP PUSH1 0x0 DUP2 GT DUP1 PUSH2 0xCAE JUMPI POP PUSH2 0x3E8 PUSH2 0x109 SLOAD PUSH1 0x7 DUP9 PUSH1 0x81 DUP2 LT PUSH2 0xC31 JUMPI PUSH2 0xC31 PUSH2 0x2144 JUMP JUMPDEST ADD SLOAD PUSH2 0xC3D SWAP2 SWAP1 PUSH2 0x219C JUMP JUMPDEST PUSH2 0xC47 SWAP2 SWAP1 PUSH2 0x21B3 JUMP JUMPDEST PUSH1 0x40 MLOAD PUSH4 0x69E38BC3 PUSH1 0xE0 SHL DUP2 MSTORE PUSH2 0xFFFF DUP9 AND PUSH1 0x4 DUP3 ADD MSTORE PUSH2 0x808 SWAP1 PUSH4 0x69E38BC3 SWAP1 PUSH1 0x24 ADD PUSH1 0x20 PUSH1 0x40 MLOAD DUP1 DUP4 SUB DUP2 DUP7 GAS STATICCALL ISZERO DUP1 ISZERO PUSH2 0xC88 JUMPI RETURNDATASIZE PUSH1 0x0 DUP1 RETURNDATACOPY RETURNDATASIZE PUSH1 0x0 REVERT JUMPDEST POP POP POP POP PUSH1 0x40 MLOAD RETURNDATASIZE PUSH1 0x1F NOT PUSH1 0x1F DUP3 ADD AND DUP3 ADD DUP1 PUSH1 0x40 MSTORE POP DUP2 ADD SWAP1 PUSH2 0xCAC SWAP2 SWAP1 PUSH2 0x215A JUMP JUMPDEST GT JUMPDEST ISZERO PUSH2 0xD4F JUMPI PUSH1 0x40 MLOAD PUSH4 0xD4626BB9 PUSH1 0xE0 SHL DUP2 MSTORE PUSH1 0x0 DUP1 MLOAD PUSH1 0x20 PUSH2 0x21F1 DUP4 CODECOPY DUP2 MLOAD SWAP2 MSTORE PUSH1 0x4 DUP3 ADD MSTORE PUSH1 0x24 DUP2 ADD DUP8 SWAP1 MSTORE PUSH2 0x805 SWAP1 PUSH4 0xD4626BB9 SWAP1 PUSH1 0x44 ADD PUSH1 0x0 PUSH1 0x40 MLOAD DUP1 DUP4 SUB DUP2 PUSH1 0x0 DUP8 DUP1 EXTCODESIZE ISZERO DUP1 ISZERO PUSH2 0xD02 JUMPI PUSH1 0x0 DUP1 REVERT JUMPDEST POP GAS CALL ISZERO DUP1 ISZERO PUSH2 0xD16 JUMPI RETURNDATASIZE PUSH1 0x0 DUP1 RETURNDATACOPY RETURNDATASIZE PUSH1 0x0 REVERT JUMPDEST POP POP POP POP PUSH1 0x0 PUSH1 0x2 DUP8 PUSH1 0x81 DUP2 LT PUSH2 0xD2F JUMPI PUSH2 0xD2F PUSH2 0x2144 JUMP JUMPDEST PUSH1 0x20 SWAP2 DUP3 DUP3 DIV ADD SWAP2 SWAP1 MOD PUSH2 0x100 EXP DUP2 SLOAD DUP2 PUSH1 0xFF MUL NOT AND SWAP1 DUP4 ISZERO ISZERO MUL OR SWAP1 SSTORE POP JUMPDEST POP JUMPDEST PUSH2 0xD5A PUSH1 0x1 DUP1 SSTORE JUMP JUMPDEST POP POP POP POP POP JUMP JUMPDEST PUSH2 0xD69 PUSH2 0x1B70 JUMP JUMPDEST PUSH2 0x109 SSTORE JUMP JUMPDEST PUSH2 0xD77 PUSH2 0x1C44 JUMP JUMPDEST PUSH1 0x40 DUP1 MLOAD PUSH2 0x1020 DUP2 ADD SWAP2 DUP3 SWAP1 MSTORE PUSH1 0x88 DUP1 SLOAD DUP3 MSTORE SWAP1 SWAP2 PUSH1 0x81 SWAP1 PUSH1 0x89 PUSH1 0x20 DUP6 ADD DUP1 DUP4 GT PUSH2 0xAC9 JUMPI POP POP POP POP POP SWAP1 POP SWAP1 JUMP JUMPDEST PUSH2 0xDAE PUSH2 0x1C44 JUMP JUMPDEST PUSH2 0xDB6 PUSH2 0x1C44 JUMP JUMPDEST PUSH2 0xDBE PUSH2 0x1C44 JUMP JUMPDEST PUSH2 0xDC6 PUSH2 0x1C44 JUMP JUMPDEST PUSH8 0xDE0B6B3A7640000 DUP5 MSTORE PUSH1 0x1 DUP1 DUP5 MSTORE JUMPDEST PUSH1 0x81 DUP2 PUSH2 0xFFFF AND LT ISZERO PUSH2 0xE8D JUMPI PUSH1 0x40 MLOAD PUSH4 0x69E38BC3 PUSH1 0xE0 SHL DUP2 MSTORE PUSH2 0xFFFF DUP3 AND PUSH1 0x4 DUP3 ADD MSTORE PUSH2 0x808 SWAP1 PUSH4 0x69E38BC3 SWAP1 PUSH1 0x24 ADD PUSH1 0x20 PUSH1 0x40 MLOAD DUP1 DUP4 SUB DUP2 DUP7 GAS STATICCALL SWAP3 POP POP POP DUP1 ISZERO PUSH2 0xE41 JUMPI POP PUSH1 0x40 DUP1 MLOAD PUSH1 0x1F RETURNDATASIZE SWAP1 DUP2 ADD PUSH1 0x1F NOT AND DUP3 ADD SWAP1 SWAP3 MSTORE PUSH2 0xE3E SWAP2 DUP2 ADD SWAP1 PUSH2 0x215A JUMP JUMPDEST PUSH1 0x1 JUMPDEST PUSH2 0xE67 JUMPI PUSH1 0x0 DUP6 DUP3 PUSH2 0xFFFF AND PUSH1 0x81 DUP2 LT PUSH2 0xE5D JUMPI PUSH2 0xE5D PUSH2 0x2144 JUMP JUMPDEST PUSH1 0x20 MUL ADD MSTORE PUSH2 0xE85 JUMP JUMPDEST DUP1 DUP7 DUP4 PUSH2 0xFFFF AND PUSH1 0x81 DUP2 LT PUSH2 0xE7E JUMPI PUSH2 0xE7E PUSH2 0x2144 JUMP JUMPDEST PUSH1 0x20 MUL ADD MSTORE POP JUMPDEST PUSH1 0x1 ADD PUSH2 0xDD7 JUMP JUMPDEST POP PUSH1 0x1 JUMPDEST PUSH1 0x81 DUP2 PUSH2 0xFFFF AND LT ISZERO PUSH2 0xF65 JUMPI PUSH1 0x40 MLOAD PUSH4 0x2D9BFC71 PUSH1 0xE0 SHL DUP2 MSTORE PUSH2 0xFFFF DUP3 AND PUSH1 0x4 DUP3 ADD MSTORE PUSH2 0x808 SWAP1 PUSH4 0x2D9BFC71 SWAP1 PUSH1 0x24 ADD PUSH1 0x20 PUSH1 0x40 MLOAD DUP1 DUP4 SUB DUP2 DUP7 GAS STATICCALL SWAP3 POP POP POP DUP1 ISZERO PUSH2 0xEFB JUMPI POP PUSH1 0x40 DUP1 MLOAD PUSH1 0x1F RETURNDATASIZE SWAP1 DUP2 ADD PUSH1 0x1F NOT AND DUP3 ADD SWAP1 SWAP3 MSTORE PUSH2 0xEF8 SWAP2 DUP2 ADD SWAP1 PUSH2 0x21D5 JUMP JUMPDEST PUSH1 0x1 JUMPDEST PUSH2 0xF30 JUMPI PUSH1 0x0 DUP5 DUP3 PUSH2 0xFFFF AND PUSH1 0x81 DUP2 LT PUSH2 0xF17 JUMPI PUSH2 0xF17 PUSH2 0x2144 JUMP JUMPDEST PUSH8 0xFFFFFFFFFFFFFFFF SWAP1 SWAP3 AND PUSH1 0x20 SWAP3 SWAP1 SWAP3 MUL ADD MSTORE PUSH2 0xF5D JUMP JUMPDEST DUP1 DUP6 DUP4 PUSH2 0xFFFF AND PUSH1 0x81 DUP2 LT PUSH2 0xF47 JUMPI PUSH2 0xF47 PUSH2 0x2144 JUMP JUMPDEST PUSH8 0xFFFFFFFFFFFFFFFF SWAP1 SWAP3 AND PUSH1 0x20 SWAP3 SWAP1 SWAP3 MUL ADD MSTORE POP JUMPDEST PUSH1 0x1 ADD PUSH2 0xE91 JUMP JUMPDEST POP PUSH1 0x40 DUP1 MLOAD PUSH2 0x1020 DUP2 ADD SWAP2 DUP3 SWAP1 MSTORE SWAP1 PUSH1 0x2 SWAP1 PUSH1 0x81 SWAP1 DUP3 PUSH1 0x0 DUP6 JUMPDEST DUP3 SLOAD PUSH2 0x100 DUP4 SWAP1 EXP SWAP1 DIV PUSH1 0xFF AND ISZERO ISZERO DUP2 MSTORE PUSH1 0x20 PUSH1 0x1 SWAP3 DUP4 ADD DUP2 DUP2 DIV SWAP5 DUP6 ADD SWAP5 SWAP1 SWAP4 SUB SWAP1 SWAP3 MUL SWAP2 ADD DUP1 DUP5 GT PUSH2 0xF7F JUMPI POP POP PUSH1 0x40 DUP1 MLOAD PUSH2 0x1020 DUP2 ADD SWAP2 DUP3 SWAP1 MSTORE SWAP6 SWAP8 POP PUSH1 0x7 SWAP5 POP PUSH1 0x81 SWAP4 POP SWAP2 POP DUP4 SWAP1 POP DUP5 JUMPDEST DUP2 SLOAD DUP2 MSTORE PUSH1 0x20 ADD SWAP1 PUSH1 0x1 ADD SWAP1 DUP1 DUP4 GT PUSH2 0xFCE JUMPI POP POP POP POP POP SWAP1 POP SWAP1 SWAP2 SWAP3 SWAP4 JUMP JUMPDEST PUSH2 0xFF6 PUSH2 0x1B70 JUMP JUMPDEST PUSH2 0x1000 PUSH1 0x0 PUSH2 0x1BF4 JUMP JUMPDEST JUMP JUMPDEST PUSH1 0x88 DUP2 PUSH1 0x81 DUP2 LT PUSH2 0x1012 JUMPI PUSH1 0x0 DUP1 REVERT JUMPDEST ADD SLOAD SWAP1 POP DUP2 JUMP JUMPDEST PUSH1 0x7 DUP2 PUSH1 0x81 DUP2 LT PUSH2 0x1012 JUMPI PUSH1 0x0 DUP1 REVERT JUMPDEST PUSH2 0x1031 PUSH2 0x1B17 JUMP JUMPDEST PUSH2 0x1039 PUSH2 0x1B70 JUMP JUMPDEST DUP2 ISZERO DUP1 ISZERO SWAP1 PUSH2 0x106D JUMPI POP PUSH1 0x2 DUP2 PUSH1 0x81 DUP2 LT PUSH2 0x1056 JUMPI PUSH2 0x1056 PUSH2 0x2144 JUMP JUMPDEST PUSH1 0x20 DUP2 DIV SWAP1 SWAP2 ADD SLOAD PUSH1 0xFF PUSH1 0x1F SWAP1 SWAP3 AND PUSH2 0x100 EXP SWAP1 DIV AND JUMPDEST ISZERO PUSH2 0x930 JUMPI PUSH2 0x805 PUSH4 0x1FC9B141 PUSH1 0x0 DUP1 MLOAD PUSH1 0x20 PUSH2 0x21F1 DUP4 CODECOPY DUP2 MLOAD SWAP2 MSTORE PUSH2 0x1096 PUSH2 0x803 SELFBALANCE DUP8 PUSH2 0x1BCA JUMP JUMPDEST PUSH1 0x40 MLOAD PUSH1 0x1 PUSH1 0x1 PUSH1 0xE0 SHL SUB NOT PUSH1 0xE0 DUP6 SWAP1 SHL AND DUP2 MSTORE PUSH1 0x4 DUP2 ADD SWAP3 SWAP1 SWAP3 MSTORE PUSH1 0x24 DUP3 ADD MSTORE PUSH1 0x44 DUP2 ADD DUP5 SWAP1 MSTORE PUSH1 0x64 ADD PUSH1 0x0 PUSH1 0x40 MLOAD DUP1 DUP4 SUB DUP2 PUSH1 0x0 DUP8 DUP1 EXTCODESIZE ISZERO DUP1 ISZERO PUSH2 0x10DB JUMPI PUSH1 0x0 DUP1 REVERT JUMPDEST POP GAS CALL ISZERO DUP1 ISZERO PUSH2 0x10EF JUMPI RETURNDATASIZE PUSH1 0x0 DUP1 RETURNDATACOPY RETURNDATASIZE PUSH1 0x0 REVERT JUMPDEST POP POP PUSH1 0x40 MLOAD PUSH4 0x69E38BC3 PUSH1 0xE0 SHL DUP2 MSTORE PUSH2 0xFFFF DUP5 AND PUSH1 0x4 DUP3 ADD MSTORE PUSH2 0x808 SWAP3 POP PUSH4 0x69E38BC3 SWAP2 POP PUSH1 0x24 ADD PUSH2 0x8C3 JUMP JUMPDEST PUSH2 0x1124 PUSH2 0x1B17 JUMP JUMPDEST PUSH2 0x112C PUSH2 0x1B70 JUMP JUMPDEST DUP3 ISZERO PUSH2 0x12F8 JUMPI PUSH1 0x0 JUMPDEST DUP2 DUP2 LT ISZERO PUSH2 0x12F6 JUMPI PUSH1 0x0 DUP4 DUP4 DUP4 DUP2 DUP2 LT PUSH2 0x1151 JUMPI PUSH2 0x1151 PUSH2 0x2144 JUMP JUMPDEST SWAP1 POP PUSH1 0x20 MUL ADD CALLDATALOAD SWAP1 POP PUSH1 0x2 DUP2 PUSH1 0x81 DUP2 LT PUSH2 0x116D JUMPI PUSH2 0x116D PUSH2 0x2144 JUMP JUMPDEST PUSH1 0x20 DUP2 DIV SWAP1 SWAP2 ADD SLOAD PUSH1 0xFF PUSH1 0x1F SWAP1 SWAP3 AND PUSH2 0x100 EXP SWAP1 DIV AND PUSH2 0x12ED JUMPI PUSH1 0x0 PUSH2 0x1193 SELFBALANCE DUP8 PUSH2 0x1BCA JUMP JUMPDEST SWAP1 POP DUP1 PUSH1 0x0 SUB PUSH2 0x11A5 JUMPI POP POP POP PUSH2 0x12F8 JUMP JUMPDEST PUSH2 0x805 PUSH4 0x1FC9B141 PUSH1 0x0 DUP1 MLOAD PUSH1 0x20 PUSH2 0x21F1 DUP4 CODECOPY DUP2 MLOAD SWAP2 MSTORE PUSH2 0x11C5 DUP5 PUSH2 0x1BE4 JUMP JUMPDEST PUSH1 0x40 MLOAD PUSH1 0x1 PUSH1 0x1 PUSH1 0xE0 SHL SUB NOT PUSH1 0xE0 DUP6 SWAP1 SHL AND DUP2 MSTORE PUSH1 0x4 DUP2 ADD SWAP3 SWAP1 SWAP3 MSTORE PUSH1 0x24 DUP3 ADD MSTORE PUSH1 0x44 DUP2 ADD DUP6 SWAP1 MSTORE PUSH1 0x64 ADD PUSH1 0x0 PUSH1 0x40 MLOAD DUP1 DUP4 SUB DUP2 PUSH1 0x0 DUP8 DUP1 EXTCODESIZE ISZERO DUP1 ISZERO PUSH2 0x120A JUMPI PUSH1 0x0 DUP1 REVERT JUMPDEST POP GAS CALL ISZERO DUP1 ISZERO PUSH2 0x121E JUMPI RETURNDATASIZE PUSH1 0x0 DUP1 RETURNDATACOPY RETURNDATASIZE PUSH1 0x0 REVERT JUMPDEST POP POP POP POP PUSH1 0x1 PUSH1 0x2 DUP4 PUSH1 0x81 DUP2 LT PUSH2 0x1237 JUMPI PUSH2 0x1237 PUSH2 0x2144 JUMP JUMPDEST PUSH1 0x20 DUP2 DIV SWAP1 SWAP2 ADD DUP1 SLOAD SWAP3 ISZERO ISZERO PUSH1 0x1F SWAP1 SWAP3 AND PUSH2 0x100 EXP SWAP2 DUP3 MUL PUSH1 0xFF SWAP1 SWAP3 MUL NOT SWAP1 SWAP3 AND OR SWAP1 SSTORE PUSH1 0x40 MLOAD PUSH4 0x69E38BC3 PUSH1 0xE0 SHL DUP2 MSTORE PUSH2 0xFFFF DUP4 AND PUSH1 0x4 DUP3 ADD MSTORE PUSH2 0x808 SWAP1 PUSH4 0x69E38BC3 SWAP1 PUSH1 0x24 ADD PUSH1 0x20 PUSH1 0x40 MLOAD DUP1 DUP4 SUB DUP2 DUP7 GAS STATICCALL ISZERO DUP1 ISZERO PUSH2 0x129C JUMPI RETURNDATASIZE PUSH1 0x0 DUP1 RETURNDATACOPY RETURNDATASIZE PUSH1 0x0 REVERT JUMPDEST POP POP POP POP PUSH1 0x40 MLOAD RETURNDATASIZE PUSH1 0x1F NOT PUSH1 0x1F DUP3 ADD AND DUP3 ADD DUP1 PUSH1 0x40 MSTORE POP DUP2 ADD SWAP1 PUSH2 0x12C0 SWAP2 SWAP1 PUSH2 0x215A JUMP JUMPDEST PUSH1 0x7 DUP4 PUSH1 0x81 DUP2 LT PUSH2 0x12D3 JUMPI PUSH2 0x12D3 PUSH2 0x2144 JUMP JUMPDEST ADD SSTORE TIMESTAMP PUSH1 0x88 DUP4 PUSH1 0x81 DUP2 LT PUSH2 0x12E9 JUMPI PUSH2 0x12E9 PUSH2 0x2144 JUMP JUMPDEST ADD SSTORE POP JUMPDEST POP PUSH1 0x1 ADD PUSH2 0x1135 JUMP JUMPDEST POP JUMPDEST PUSH2 0x1301 PUSH1 0x1 DUP1 SSTORE JUMP JUMPDEST POP POP POP JUMP JUMPDEST PUSH2 0x130E PUSH2 0x1B17 JUMP JUMPDEST PUSH2 0x1316 PUSH2 0x1B70 JUMP JUMPDEST PUSH1 0x2 DUP2 PUSH1 0x81 DUP2 LT PUSH2 0x1329 JUMPI PUSH2 0x1329 PUSH2 0x2144 JUMP JUMPDEST PUSH1 0x20 DUP2 DIV SWAP1 SWAP2 ADD SLOAD PUSH1 0xFF PUSH1 0x1F SWAP1 SWAP3 AND PUSH2 0x100 EXP SWAP1 DIV AND DUP1 ISZERO PUSH2 0x135F JUMPI POP PUSH1 0x88 DUP2 PUSH1 0x81 DUP2 LT PUSH2 0x1359 JUMPI PUSH2 0x1359 PUSH2 0x2144 JUMP JUMPDEST ADD SLOAD TIMESTAMP EQ ISZERO JUMPDEST ISZERO PUSH2 0x1524 JUMPI PUSH2 0x10B SLOAD PUSH2 0x10C SLOAD PUSH1 0x40 MLOAD PUSH4 0x71DACC7D PUSH1 0xE1 SHL DUP2 MSTORE PUSH1 0x4 DUP2 ADD SWAP3 SWAP1 SWAP3 MSTORE PUSH1 0x24 DUP3 ADD MSTORE PUSH1 0x44 DUP2 ADD DUP3 SWAP1 MSTORE PUSH1 0x0 SWAP1 PUSH2 0x805 SWAP1 PUSH4 0xE3B598FA SWAP1 PUSH1 0x64 ADD PUSH1 0x20 PUSH1 0x40 MLOAD DUP1 DUP4 SUB DUP2 DUP7 GAS STATICCALL ISZERO DUP1 ISZERO PUSH2 0x13BA JUMPI RETURNDATASIZE PUSH1 0x0 DUP1 RETURNDATACOPY RETURNDATASIZE PUSH1 0x0 REVERT JUMPDEST POP POP POP POP PUSH1 0x40 MLOAD RETURNDATASIZE PUSH1 0x1F NOT PUSH1 0x1F DUP3 ADD AND DUP3 ADD DUP1 PUSH1 0x40 MSTORE POP DUP2 ADD SWAP1 PUSH2 0x13DE SWAP2 SWAP1 PUSH2 0x215A JUMP JUMPDEST SWAP1 POP PUSH1 0x0 DUP2 GT DUP1 PUSH2 0x1481 JUMPI POP PUSH2 0x3E8 PUSH2 0x109 SLOAD PUSH1 0x7 DUP5 PUSH1 0x81 DUP2 LT PUSH2 0x1404 JUMPI PUSH2 0x1404 PUSH2 0x2144 JUMP JUMPDEST ADD SLOAD PUSH2 0x1410 SWAP2 SWAP1 PUSH2 0x219C JUMP JUMPDEST PUSH2 0x141A SWAP2 SWAP1 PUSH2 0x21B3 JUMP JUMPDEST PUSH1 0x40 MLOAD PUSH4 0x69E38BC3 PUSH1 0xE0 SHL DUP2 MSTORE PUSH2 0xFFFF DUP5 AND PUSH1 0x4 DUP3 ADD MSTORE PUSH2 0x808 SWAP1 PUSH4 0x69E38BC3 SWAP1 PUSH1 0x24 ADD PUSH1 0x20 PUSH1 0x40 MLOAD DUP1 DUP4 SUB DUP2 DUP7 GAS STATICCALL ISZERO DUP1 ISZERO PUSH2 0x145B JUMPI RETURNDATASIZE PUSH1 0x0 DUP1 RETURNDATACOPY RETURNDATASIZE PUSH1 0x0 REVERT JUMPDEST POP POP POP POP PUSH1 0x40 MLOAD RETURNDATASIZE PUSH1 0x1F NOT PUSH1 0x1F DUP3 ADD AND DUP3 ADD DUP1 PUSH1 0x40 MSTORE POP DUP2 ADD SWAP1 PUSH2 0x147F SWAP2 SWAP1 PUSH2 0x215A JUMP JUMPDEST GT JUMPDEST ISZERO PUSH2 0x1522 JUMPI PUSH1 0x40 MLOAD PUSH4 0xD4626BB9 PUSH1 0xE0 SHL DUP2 MSTORE PUSH1 0x0 DUP1 MLOAD PUSH1 0x20 PUSH2 0x21F1 DUP4 CODECOPY DUP2 MLOAD SWAP2 MSTORE PUSH1 0x4 DUP3 ADD MSTORE PUSH1 0x24 DUP2 ADD DUP4 SWAP1 MSTORE PUSH2 0x805 SWAP1 PUSH4 0xD4626BB9 SWAP1 PUSH1 0x44 ADD PUSH1 0x0 PUSH1 0x40 MLOAD DUP1 DUP4 SUB DUP2 PUSH1 0x0 DUP8 DUP1 EXTCODESIZE ISZERO DUP1 ISZERO PUSH2 0x14D5 JUMPI PUSH1 0x0 DUP1 REVERT JUMPDEST POP GAS CALL ISZERO DUP1 ISZERO PUSH2 0x14E9 JUMPI RETURNDATASIZE PUSH1 0x0 DUP1 RETURNDATACOPY RETURNDATASIZE PUSH1 0x0 REVERT JUMPDEST POP POP POP POP PUSH1 0x0 PUSH1 0x2 DUP4 PUSH1 0x81 DUP2 LT PUSH2 0x1502 JUMPI PUSH2 0x1502 PUSH2 0x2144 JUMP JUMPDEST PUSH1 0x20 SWAP2 DUP3 DUP3 DIV ADD SWAP2 SWAP1 MOD PUSH2 0x100 EXP DUP2 SLOAD DUP2 PUSH1 0xFF MUL NOT AND SWAP1 DUP4 ISZERO ISZERO MUL OR SWAP1 SSTORE POP JUMPDEST POP JUMPDEST PUSH2 0x9E6 PUSH1 0x1 DUP1 SSTORE JUMP JUMPDEST PUSH2 0x1535 PUSH2 0x1B70 JUMP JUMPDEST PUSH2 0x10C SSTORE JUMP JUMPDEST PUSH2 0x1543 PUSH2 0x1B17 JUMP JUMPDEST PUSH2 0x154B PUSH2 0x1B70 JUMP JUMPDEST PUSH1 0x0 JUMPDEST DUP2 DUP2 LT ISZERO PUSH2 0x178A JUMPI PUSH1 0x0 DUP4 DUP4 DUP4 DUP2 DUP2 LT PUSH2 0x156A JUMPI PUSH2 0x156A PUSH2 0x2144 JUMP JUMPDEST SWAP1 POP PUSH1 0x20 MUL ADD CALLDATALOAD SWAP1 POP PUSH1 0x2 DUP2 PUSH1 0x81 DUP2 LT PUSH2 0x1586 JUMPI PUSH2 0x1586 PUSH2 0x2144 JUMP JUMPDEST PUSH1 0x20 DUP2 DIV SWAP1 SWAP2 ADD SLOAD PUSH1 0xFF PUSH1 0x1F SWAP1 SWAP3 AND PUSH2 0x100 EXP SWAP1 DIV AND DUP1 ISZERO PUSH2 0x15BC JUMPI POP PUSH1 0x88 DUP2 PUSH1 0x81 DUP2 LT PUSH2 0x15B6 JUMPI PUSH2 0x15B6 PUSH2 0x2144 JUMP JUMPDEST ADD SLOAD TIMESTAMP EQ ISZERO JUMPDEST ISZERO PUSH2 0x1781 JUMPI PUSH2 0x10B SLOAD PUSH2 0x10C SLOAD PUSH1 0x40 MLOAD PUSH4 0x71DACC7D PUSH1 0xE1 SHL DUP2 MSTORE PUSH1 0x4 DUP2 ADD SWAP3 SWAP1 SWAP3 MSTORE PUSH1 0x24 DUP3 ADD MSTORE PUSH1 0x44 DUP2 ADD DUP3 SWAP1 MSTORE PUSH1 0x0 SWAP1 PUSH2 0x805 SWAP1 PUSH4 0xE3B598FA SWAP1 PUSH1 0x64 ADD PUSH1 0x20 PUSH1 0x40 MLOAD DUP1 DUP4 SUB DUP2 DUP7 GAS STATICCALL ISZERO DUP1 ISZERO PUSH2 0x1617 JUMPI RETURNDATASIZE PUSH1 0x0 DUP1 RETURNDATACOPY RETURNDATASIZE PUSH1 0x0 REVERT JUMPDEST POP POP POP POP PUSH1 0x40 MLOAD RETURNDATASIZE PUSH1 0x1F NOT PUSH1 0x1F DUP3 ADD AND DUP3 ADD DUP1 PUSH1 0x40 MSTORE POP DUP2 ADD SWAP1 PUSH2 0x163B SWAP2 SWAP1 PUSH2 0x215A JUMP JUMPDEST SWAP1 POP PUSH1 0x0 DUP2 GT DUP1 PUSH2 0x16DE JUMPI POP PUSH2 0x3E8 PUSH2 0x109 SLOAD PUSH1 0x7 DUP5 PUSH1 0x81 DUP2 LT PUSH2 0x1661 JUMPI PUSH2 0x1661 PUSH2 0x2144 JUMP JUMPDEST ADD SLOAD PUSH2 0x166D SWAP2 SWAP1 PUSH2 0x219C JUMP JUMPDEST PUSH2 0x1677 SWAP2 SWAP1 PUSH2 0x21B3 JUMP JUMPDEST PUSH1 0x40 MLOAD PUSH4 0x69E38BC3 PUSH1 0xE0 SHL DUP2 MSTORE PUSH2 0xFFFF DUP5 AND PUSH1 0x4 DUP3 ADD MSTORE PUSH2 0x808 SWAP1 PUSH4 0x69E38BC3 SWAP1 PUSH1 0x24 ADD PUSH1 0x20 PUSH1 0x40 MLOAD DUP1 DUP4 SUB DUP2 DUP7 GAS STATICCALL ISZERO DUP1 ISZERO PUSH2 0x16B8 JUMPI RETURNDATASIZE PUSH1 0x0 DUP1 RETURNDATACOPY RETURNDATASIZE PUSH1 0x0 REVERT JUMPDEST POP POP POP POP PUSH1 0x40 MLOAD RETURNDATASIZE PUSH1 0x1F NOT PUSH1 0x1F DUP3 ADD AND DUP3 ADD DUP1 PUSH1 0x40 MSTORE POP DUP2 ADD SWAP1 PUSH2 0x16DC SWAP2 SWAP1 PUSH2 0x215A JUMP JUMPDEST GT JUMPDEST ISZERO PUSH2 0x177F JUMPI PUSH1 0x40 MLOAD PUSH4 0xD4626BB9 PUSH1 0xE0 SHL DUP2 MSTORE PUSH1 0x0 DUP1 MLOAD PUSH1 0x20 PUSH2 0x21F1 DUP4 CODECOPY DUP2 MLOAD SWAP2 MSTORE PUSH1 0x4 DUP3 ADD MSTORE PUSH1 0x24 DUP2 ADD DUP4 SWAP1 MSTORE PUSH2 0x805 SWAP1 PUSH4 0xD4626BB9 SWAP1 PUSH1 0x44 ADD PUSH1 0x0 PUSH1 0x40 MLOAD DUP1 DUP4 SUB DUP2 PUSH1 0x0 DUP8 DUP1 EXTCODESIZE ISZERO DUP1 ISZERO PUSH2 0x1732 JUMPI PUSH1 0x0 DUP1 REVERT JUMPDEST POP GAS CALL ISZERO DUP1 ISZERO PUSH2 0x1746 JUMPI RETURNDATASIZE PUSH1 0x0 DUP1 RETURNDATACOPY RETURNDATASIZE PUSH1 0x0 REVERT JUMPDEST POP POP POP POP PUSH1 0x0 PUSH1 0x2 DUP4 PUSH1 0x81 DUP2 LT PUSH2 0x175F JUMPI PUSH2 0x175F PUSH2 0x2144 JUMP JUMPDEST PUSH1 0x20 SWAP2 DUP3 DUP3 DIV ADD SWAP2 SWAP1 MOD PUSH2 0x100 EXP DUP2 SLOAD DUP2 PUSH1 0xFF MUL NOT AND SWAP1 DUP4 ISZERO ISZERO MUL OR SWAP1 SSTORE POP JUMPDEST POP JUMPDEST POP PUSH1 0x1 ADD PUSH2 0x154E JUMP JUMPDEST POP PUSH2 0x939 PUSH1 0x1 DUP1 SSTORE JUMP JUMPDEST PUSH2 0x179C PUSH2 0x1C44 JUMP JUMPDEST PUSH1 0x40 DUP1 MLOAD PUSH2 0x1020 DUP2 ADD SWAP2 DUP3 SWAP1 MSTORE SWAP1 PUSH1 0x2 SWAP1 PUSH1 0x81 SWAP1 DUP3 PUSH1 0x0 DUP6 JUMPDEST DUP3 SLOAD PUSH2 0x100 DUP4 SWAP1 EXP SWAP1 DIV PUSH1 0xFF AND ISZERO ISZERO DUP2 MSTORE PUSH1 0x20 PUSH1 0x1 SWAP3 DUP4 ADD DUP2 DUP2 DIV SWAP5 DUP6 ADD SWAP5 SWAP1 SWAP4 SUB SWAP1 SWAP3 MUL SWAP2 ADD DUP1 DUP5 GT PUSH2 0x17B5 JUMPI SWAP1 POP POP POP POP POP POP SWAP1 POP SWAP1 JUMP JUMPDEST PUSH2 0x17F7 PUSH2 0x1B70 JUMP JUMPDEST PUSH2 0x10B SSTORE JUMP JUMPDEST PUSH2 0x1805 PUSH2 0x1B17 JUMP JUMPDEST PUSH2 0x180D PUSH2 0x1B70 JUMP JUMPDEST PUSH1 0x2 DUP2 PUSH1 0x81 DUP2 LT PUSH2 0x1820 JUMPI PUSH2 0x1820 PUSH2 0x2144 JUMP JUMPDEST PUSH1 0x20 DUP2 DIV SWAP1 SWAP2 ADD SLOAD PUSH1 0xFF PUSH1 0x1F SWAP1 SWAP3 AND PUSH2 0x100 EXP SWAP1 DIV AND DUP1 ISZERO PUSH2 0x1856 JUMPI POP PUSH1 0x88 DUP2 PUSH1 0x81 DUP2 LT PUSH2 0x1850 JUMPI PUSH2 0x1850 PUSH2 0x2144 JUMP JUMPDEST ADD SLOAD TIMESTAMP EQ ISZERO JUMPDEST ISZERO PUSH2 0x1524 JUMPI PUSH1 0x40 MLOAD PUSH4 0xD4626BB9 PUSH1 0xE0 SHL DUP2 MSTORE PUSH1 0x0 DUP1 MLOAD PUSH1 0x20 PUSH2 0x21F1 DUP4 CODECOPY DUP2 MLOAD SWAP2 MSTORE PUSH1 0x4 DUP3 ADD MSTORE PUSH1 0x24 DUP2 ADD DUP3 SWAP1 MSTORE PUSH2 0x805 SWAP1 PUSH4 0xD4626BB9 SWAP1 PUSH1 0x44 ADD PUSH1 0x0 PUSH1 0x40 MLOAD DUP1 DUP4 SUB DUP2 PUSH1 0x0 DUP8 DUP1 EXTCODESIZE ISZERO DUP1 ISZERO PUSH2 0x18AA JUMPI PUSH1 0x0 DUP1 REVERT JUMPDEST POP GAS CALL ISZERO DUP1 ISZERO PUSH2 0x18BE JUMPI RETURNDATASIZE PUSH1 0x0 DUP1 RETURNDATACOPY RETURNDATASIZE PUSH1 0x0 REVERT JUMPDEST POP POP POP POP PUSH1 0x0 PUSH1 0x2 DUP3 PUSH1 0x81 DUP2 LT PUSH2 0x18D7 JUMPI PUSH2 0x18D7 PUSH2 0x2144 JUMP JUMPDEST PUSH1 0x20 SWAP2 DUP3 DUP3 DIV ADD SWAP2 SWAP1 MOD PUSH2 0x100 EXP DUP2 SLOAD DUP2 PUSH1 0xFF MUL NOT AND SWAP1 DUP4 ISZERO ISZERO MUL OR SWAP1 SSTORE POP PUSH2 0x9E6 PUSH1 0x1 DUP1 SSTORE JUMP JUMPDEST PUSH2 0x1907 PUSH2 0x1B70 JUMP JUMPDEST PUSH1 0x1 PUSH1 0x1 PUSH1 0xA0 SHL SUB DUP2 AND PUSH2 0x196C JUMPI PUSH1 0x40 MLOAD PUSH3 0x461BCD PUSH1 0xE5 SHL DUP2 MSTORE PUSH1 0x20 PUSH1 0x4 DUP3 ADD MSTORE PUSH1 0x26 PUSH1 0x24 DUP3 ADD MSTORE PUSH32 0x4F776E61626C653A206E6577206F776E657220697320746865207A65726F2061 PUSH1 0x44 DUP3 ADD MSTORE PUSH6 0x646472657373 PUSH1 0xD0 SHL PUSH1 0x64 DUP3 ADD MSTORE PUSH1 0x84 ADD PUSH2 0x721 JUMP JUMPDEST PUSH2 0x9E6 DUP2 PUSH2 0x1BF4 JUMP JUMPDEST PUSH2 0x10A SLOAD PUSH1 0x1 PUSH1 0x1 PUSH1 0xA0 SHL SUB AND CALLER EQ PUSH2 0x19A0 JUMPI PUSH1 0x40 MLOAD PUSH3 0x461BCD PUSH1 0xE5 SHL DUP2 MSTORE PUSH1 0x4 ADD PUSH2 0x721 SWAP1 PUSH2 0x211C JUMP JUMPDEST PUSH1 0x1 PUSH1 0x1 PUSH1 0xA0 SHL SUB DUP3 AND PUSH2 0x19EA JUMPI PUSH1 0x40 MLOAD PUSH3 0x461BCD PUSH1 0xE5 SHL DUP2 MSTORE PUSH1 0x20 PUSH1 0x4 DUP3 ADD MSTORE PUSH1 0x11 PUSH1 0x24 DUP3 ADD MSTORE PUSH17 0x125B9D985B1A59081C9958DA5C1A595B9D PUSH1 0x7A SHL PUSH1 0x44 DUP3 ADD MSTORE PUSH1 0x64 ADD PUSH2 0x721 JUMP JUMPDEST DUP1 PUSH1 0x0 SUB PUSH2 0x1A0B JUMPI PUSH1 0x40 MLOAD PUSH4 0x65E52D51 PUSH1 0xE1 SHL DUP2 MSTORE PUSH1 0x4 ADD PUSH1 0x40 MLOAD DUP1 SWAP2 SUB SWAP1 REVERT JUMPDEST PUSH1 0x0 DUP3 PUSH1 0x1 PUSH1 0x1 PUSH1 0xA0 SHL SUB AND DUP3 PUSH1 0x40 MLOAD PUSH1 0x0 PUSH1 0x40 MLOAD DUP1 DUP4 SUB DUP2 DUP6 DUP8 GAS CALL SWAP3 POP POP POP RETURNDATASIZE DUP1 PUSH1 0x0 DUP2 EQ PUSH2 0x1A58 JUMPI PUSH1 0x40 MLOAD SWAP2 POP PUSH1 0x1F NOT PUSH1 0x3F RETURNDATASIZE ADD AND DUP3 ADD PUSH1 0x40 MSTORE RETURNDATASIZE DUP3 MSTORE RETURNDATASIZE PUSH1 0x0 PUSH1 0x20 DUP5 ADD RETURNDATACOPY PUSH2 0x1A5D JUMP JUMPDEST PUSH1 0x60 SWAP2 POP JUMPDEST POP POP SWAP1 POP DUP1 PUSH2 0x1301 JUMPI PUSH1 0x40 MLOAD PUSH4 0x12171D83 PUSH1 0xE3 SHL DUP2 MSTORE PUSH1 0x4 ADD PUSH1 0x40 MLOAD DUP1 SWAP2 SUB SWAP1 REVERT JUMPDEST PUSH2 0x10A SLOAD PUSH1 0x1 PUSH1 0x1 PUSH1 0xA0 SHL SUB AND CALLER EQ PUSH2 0x1AAA JUMPI PUSH1 0x40 MLOAD PUSH3 0x461BCD PUSH1 0xE5 SHL DUP2 MSTORE PUSH1 0x4 ADD PUSH2 0x721 SWAP1 PUSH2 0x211C JUMP JUMPDEST PUSH1 0x1 PUSH1 0x1 PUSH1 0xA0 SHL SUB DUP2 AND PUSH2 0x1AF4 JUMPI PUSH1 0x40 MLOAD PUSH3 0x461BCD PUSH1 0xE5 SHL DUP2 MSTORE PUSH1 0x20 PUSH1 0x4 DUP3 ADD MSTORE PUSH1 0x11 PUSH1 0x24 DUP3 ADD MSTORE PUSH17 0x125B9D985B1A59081C9958DA5C1A595B9D PUSH1 0x7A SHL PUSH1 0x44 DUP3 ADD MSTORE PUSH1 0x64 ADD PUSH2 0x721 JUMP JUMPDEST SELFBALANCE PUSH1 0x0 DUP2 SWAP1 SUB PUSH2 0x1A0B JUMPI PUSH1 0x40 MLOAD PUSH4 0x65E52D51 PUSH1 0xE1 SHL DUP2 MSTORE PUSH1 0x4 ADD PUSH1 0x40 MLOAD DUP1 SWAP2 SUB SWAP1 REVERT JUMPDEST PUSH1 0x2 PUSH1 0x1 SLOAD SUB PUSH2 0x1B69 JUMPI PUSH1 0x40 MLOAD PUSH3 0x461BCD PUSH1 0xE5 SHL DUP2 MSTORE PUSH1 0x20 PUSH1 0x4 DUP3 ADD MSTORE PUSH1 0x1F PUSH1 0x24 DUP3 ADD MSTORE PUSH32 0x5265656E7472616E637947756172643A207265656E7472616E742063616C6C00 PUSH1 0x44 DUP3 ADD MSTORE PUSH1 0x64 ADD PUSH2 0x721 JUMP JUMPDEST PUSH1 0x2 PUSH1 0x1 SSTORE JUMP JUMPDEST PUSH1 0x0 SLOAD PUSH1 0x1 PUSH1 0x1 PUSH1 0xA0 SHL SUB AND CALLER EQ PUSH2 0x1000 JUMPI PUSH1 0x40 MLOAD PUSH3 0x461BCD PUSH1 0xE5 SHL DUP2 MSTORE PUSH1 0x20 PUSH1 0x4 DUP3 ADD DUP2 SWAP1 MSTORE PUSH1 0x24 DUP3 ADD MSTORE PUSH32 0x4F776E61626C653A2063616C6C6572206973206E6F7420746865206F776E6572 PUSH1 0x44 DUP3 ADD MSTORE PUSH1 0x64 ADD PUSH2 0x721 JUMP JUMPDEST PUSH1 0x0 DUP2 DUP4 LT PUSH2 0x1BD9 JUMPI DUP2 PUSH2 0x1BDB JUMP JUMPDEST DUP3 JUMPDEST SWAP1 POP JUMPDEST SWAP3 SWAP2 POP POP JUMP JUMPDEST PUSH1 0x0 PUSH2 0x1BDE PUSH4 0x3B9ACA00 DUP4 PUSH2 0x21B3 JUMP JUMPDEST PUSH1 0x0 DUP1 SLOAD PUSH1 0x1 PUSH1 0x1 PUSH1 0xA0 SHL SUB DUP4 DUP2 AND PUSH1 0x1 PUSH1 0x1 PUSH1 0xA0 SHL SUB NOT DUP4 AND DUP2 OR DUP5 SSTORE PUSH1 0x40 MLOAD SWAP2 SWAP1 SWAP3 AND SWAP3 DUP4 SWAP2 PUSH32 0x8BE0079C531659141344CD1FD0A4F28419497F9722A3DAAFE3B4186F6B6457E0 SWAP2 SWAP1 LOG3 POP POP JUMP JUMPDEST PUSH1 0x40 MLOAD DUP1 PUSH2 0x1020 ADD PUSH1 0x40 MSTORE DUP1 PUSH1 0x81 SWAP1 PUSH1 0x20 DUP3 MUL DUP1 CALLDATASIZE DUP4 CALLDATACOPY POP SWAP2 SWAP3 SWAP2 POP POP JUMP JUMPDEST DUP1 PUSH1 0x0 JUMPDEST PUSH1 0x81 DUP2 LT ISZERO PUSH2 0x1C86 JUMPI DUP2 MLOAD DUP5 MSTORE PUSH1 0x20 SWAP4 DUP5 ADD SWAP4 SWAP1 SWAP2 ADD SWAP1 PUSH1 0x1 ADD PUSH2 0x1C67 JUMP JUMPDEST POP POP POP POP JUMP JUMPDEST DUP1 PUSH1 0x0 JUMPDEST PUSH1 0x81 DUP2 LT ISZERO PUSH2 0x1C86 JUMPI DUP2 MLOAD PUSH8 0xFFFFFFFFFFFFFFFF AND DUP5 MSTORE PUSH1 0x20 SWAP4 DUP5 ADD SWAP4 SWAP1 SWAP2 ADD SWAP1 PUSH1 0x1 ADD PUSH2 0x1C90 JUMP JUMPDEST DUP1 PUSH1 0x0 JUMPDEST PUSH1 0x81 DUP2 LT ISZERO PUSH2 0x1C86 JUMPI DUP2 MLOAD ISZERO ISZERO DUP5 MSTORE PUSH1 0x20 SWAP4 DUP5 ADD SWAP4 SWAP1 SWAP2 ADD SWAP1 PUSH1 0x1 ADD PUSH2 0x1CBD JUMP JUMPDEST PUSH2 0x60C0 DUP2 ADD PUSH2 0x1CED DUP3 DUP10 PUSH2 0x1C63 JUMP JUMPDEST PUSH2 0x1CFB PUSH2 0x1020 DUP4 ADD DUP9 PUSH2 0x1C8C JUMP JUMPDEST PUSH2 0x1D09 PUSH2 0x2040 DUP4 ADD DUP8 PUSH2 0x1CB9 JUMP JUMPDEST PUSH2 0x1D17 PUSH2 0x3060 DUP4 ADD DUP7 PUSH2 0x1CB9 JUMP JUMPDEST PUSH2 0x1D25 PUSH2 0x4080 DUP4 ADD DUP6 PUSH2 0x1C63 JUMP JUMPDEST PUSH2 0x1D33 PUSH2 0x50A0 DUP4 ADD DUP5 PUSH2 0x1C63 JUMP JUMPDEST SWAP8 SWAP7 POP POP POP POP POP POP POP JUMP JUMPDEST PUSH1 0x0 PUSH1 0x20 DUP3 DUP5 SUB SLT ISZERO PUSH2 0x1D50 JUMPI PUSH1 0x0 DUP1 REVERT JUMPDEST POP CALLDATALOAD SWAP2 SWAP1 POP JUMP JUMPDEST DUP1 CALLDATALOAD PUSH1 0x1 PUSH1 0x1 PUSH1 0xA0 SHL SUB DUP2 AND DUP2 EQ PUSH2 0x1D6E JUMPI PUSH1 0x0 DUP1 REVERT JUMPDEST SWAP2 SWAP1 POP JUMP JUMPDEST PUSH1 0x0 PUSH1 0x20 DUP3 DUP5 SUB SLT ISZERO PUSH2 0x1D85 JUMPI PUSH1 0x0 DUP1 REVERT JUMPDEST PUSH2 0x1BDB DUP3 PUSH2 0x1D57 JUMP JUMPDEST PUSH1 0x0 DUP1 PUSH1 0x40 DUP4 DUP6 SUB SLT ISZERO PUSH2 0x1DA1 JUMPI PUSH1 0x0 DUP1 REVERT JUMPDEST POP POP DUP1 CALLDATALOAD SWAP3 PUSH1 0x20 SWAP1 SWAP2 ADD CALLDATALOAD SWAP2 POP JUMP JUMPDEST PUSH2 0x1020 DUP2 ADD PUSH2 0x1BDE DUP3 DUP5 PUSH2 0x1C63 JUMP JUMPDEST PUSH1 0x0 DUP1 DUP4 PUSH1 0x1F DUP5 ADD SLT PUSH2 0x1DD1 JUMPI PUSH1 0x0 DUP1 REVERT JUMPDEST POP DUP2 CALLDATALOAD PUSH8 0xFFFFFFFFFFFFFFFF DUP2 GT ISZERO PUSH2 0x1DE9 JUMPI PUSH1 0x0 DUP1 REVERT JUMPDEST PUSH1 0x20 DUP4 ADD SWAP2 POP DUP4 PUSH1 0x20 DUP3 PUSH1 0x5 SHL DUP6 ADD ADD GT ISZERO PUSH2 0x1E04 JUMPI PUSH1 0x0 DUP1 REVERT JUMPDEST SWAP3 POP SWAP3 SWAP1 POP JUMP JUMPDEST PUSH1 0x0 DUP1 PUSH1 0x0 DUP1 PUSH1 0x0 PUSH1 0x60 DUP7 DUP9 SUB SLT ISZERO PUSH2 0x1E23 JUMPI PUSH1 0x0 DUP1 REVERT JUMPDEST DUP6 CALLDATALOAD SWAP5 POP PUSH1 0x20 DUP7 ADD CALLDATALOAD PUSH8 0xFFFFFFFFFFFFFFFF DUP1 DUP3 GT ISZERO PUSH2 0x1E42 JUMPI PUSH1 0x0 DUP1 REVERT JUMPDEST PUSH2 0x1E4E DUP10 DUP4 DUP11 ADD PUSH2 0x1DBF JUMP JUMPDEST SWAP1 SWAP7 POP SWAP5 POP PUSH1 0x40 DUP9 ADD CALLDATALOAD SWAP2 POP DUP1 DUP3 GT ISZERO PUSH2 0x1E67 JUMPI PUSH1 0x0 DUP1 REVERT JUMPDEST POP PUSH2 0x1E74 DUP9 DUP3 DUP10 ADD PUSH2 0x1DBF JUMP JUMPDEST SWAP7 SWAP10 SWAP6 SWAP9 POP SWAP4 SWAP7 POP SWAP3 SWAP5 SWAP4 SWAP3 POP POP POP JUMP JUMPDEST PUSH2 0x4080 DUP2 ADD PUSH2 0x1E94 DUP3 DUP8 PUSH2 0x1C63 JUMP JUMPDEST PUSH2 0x1EA2 PUSH2 0x1020 DUP4 ADD DUP7 PUSH2 0x1C8C JUMP JUMPDEST PUSH2 0x1EB0 PUSH2 0x2040 DUP4 ADD DUP6 PUSH2 0x1CB9 JUMP JUMPDEST PUSH2 0x1EBE PUSH2 0x3060 DUP4 ADD DUP5 PUSH2 0x1C63 JUMP JUMPDEST SWAP6 SWAP5 POP POP POP POP POP JUMP JUMPDEST PUSH1 0x0 DUP1 PUSH1 0x0 PUSH1 0x40 DUP5 DUP7 SUB SLT ISZERO PUSH2 0x1EDC JUMPI PUSH1 0x0 DUP1 REVERT JUMPDEST DUP4 CALLDATALOAD SWAP3 POP PUSH1 0x20 DUP5 ADD CALLDATALOAD PUSH8 0xFFFFFFFFFFFFFFFF DUP2 GT ISZERO PUSH2 0x1EFA JUMPI PUSH1 0x0 DUP1 REVERT JUMPDEST PUSH2 0x1F06 DUP7 DUP3 DUP8 ADD PUSH2 0x1DBF JUMP JUMPDEST SWAP5 SWAP8 SWAP1 SWAP7 POP SWAP4 SWAP5 POP POP POP POP JUMP JUMPDEST PUSH1 0x0 DUP1 PUSH1 0x20 DUP4 DUP6 SUB SLT ISZERO PUSH2 0x1F26 JUMPI PUSH1 0x0 DUP1 REVERT JUMPDEST DUP3 CALLDATALOAD PUSH8 0xFFFFFFFFFFFFFFFF DUP2 GT ISZERO PUSH2 0x1F3D JUMPI PUSH1 0x0 DUP1 REVERT JUMPDEST PUSH2 0x1F49 DUP6 DUP3 DUP7 ADD PUSH2 0x1DBF JUMP JUMPDEST SWAP1 SWAP7 SWAP1 SWAP6 POP SWAP4 POP POP POP POP JUMP JUMPDEST PUSH2 0x1020 DUP2 ADD PUSH2 0x1BDE DUP3 DUP5 PUSH2 0x1CB9 JUMP JUMPDEST PUSH1 0x0 DUP1 PUSH1 0x40 DUP4 DUP6 SUB SLT ISZERO PUSH2 0x1F77 JUMPI PUSH1 0x0 DUP1 REVERT JUMPDEST PUSH2 0x1F80 DUP4 PUSH2 0x1D57 JUMP JUMPDEST SWAP5 PUSH1 0x20 SWAP4 SWAP1 SWAP4 ADD CALLDATALOAD SWAP4 POP POP POP JUMP JUMPDEST PUSH1 0x40 MLOAD PUSH2 0x1020 DUP2 ADD PUSH8 0xFFFFFFFFFFFFFFFF DUP2 GT DUP3 DUP3 LT OR ISZERO PUSH2 0x1FC0 JUMPI PUSH4 0x4E487B71 PUSH1 0xE0 SHL PUSH1 0x0 MSTORE PUSH1 0x41 PUSH1 0x4 MSTORE PUSH1 0x24 PUSH1 0x0 REVERT JUMPDEST PUSH1 0x40 MSTORE SWAP1 JUMP JUMPDEST PUSH1 0x0 DUP3 PUSH1 0x1F DUP4 ADD SLT PUSH2 0x1FD7 JUMPI PUSH1 0x0 DUP1 REVERT JUMPDEST PUSH2 0x1FDF PUSH2 0x1F8E JUMP JUMPDEST DUP1 PUSH2 0x1020 DUP5 ADD DUP6 DUP2 GT ISZERO PUSH2 0x1FF2 JUMPI PUSH1 0x0 DUP1 REVERT JUMPDEST DUP5 JUMPDEST DUP2 DUP2 LT ISZERO PUSH2 0x200C JUMPI DUP1 MLOAD DUP5 MSTORE PUSH1 0x20 SWAP4 DUP5 ADD SWAP4 ADD PUSH2 0x1FF4 JUMP JUMPDEST POP SWAP1 SWAP6 SWAP5 POP POP POP POP POP JUMP JUMPDEST DUP1 MLOAD PUSH8 0xFFFFFFFFFFFFFFFF DUP2 AND DUP2 EQ PUSH2 0x1D6E JUMPI PUSH1 0x0 DUP1 REVERT JUMPDEST PUSH1 0x0 DUP1 PUSH1 0x0 DUP1 PUSH2 0x4080 DUP6 DUP8 SUB SLT ISZERO PUSH2 0x2046 JUMPI PUSH1 0x0 DUP1 REVERT JUMPDEST PUSH2 0x2050 DUP7 DUP7 PUSH2 0x1FC6 JUMP JUMPDEST SWAP4 POP DUP6 PUSH2 0x103F DUP7 ADD SLT PUSH2 0x2062 JUMPI PUSH1 0x0 DUP1 REVERT JUMPDEST PUSH2 0x206A PUSH2 0x1F8E JUMP JUMPDEST DUP1 PUSH2 0x2040 DUP8 ADD DUP9 DUP2 GT ISZERO PUSH2 0x207D JUMPI PUSH1 0x0 DUP1 REVERT JUMPDEST PUSH2 0x1020 DUP9 ADD JUMPDEST DUP2 DUP2 LT ISZERO PUSH2 0x20A2 JUMPI PUSH2 0x2094 DUP2 PUSH2 0x2017 JUMP JUMPDEST DUP5 MSTORE PUSH1 0x20 SWAP4 DUP5 ADD SWAP4 ADD PUSH2 0x2083 JUMP JUMPDEST POP DUP2 SWAP6 POP DUP9 PUSH2 0x205F DUP10 ADD SLT PUSH2 0x20B6 JUMPI PUSH1 0x0 DUP1 REVERT JUMPDEST PUSH2 0x20BE PUSH2 0x1F8E JUMP JUMPDEST SWAP3 POP DUP3 SWAP2 POP PUSH2 0x3060 DUP9 ADD DUP10 DUP2 GT ISZERO PUSH2 0x20D5 JUMPI PUSH1 0x0 DUP1 REVERT JUMPDEST DUP1 DUP3 LT ISZERO PUSH2 0x2100 JUMPI DUP2 MLOAD DUP1 ISZERO ISZERO DUP2 EQ PUSH2 0x20EE JUMPI PUSH1 0x0 DUP1 DUP2 REVERT JUMPDEST DUP5 MSTORE PUSH1 0x20 SWAP4 DUP5 ADD SWAP4 SWAP2 SWAP1 SWAP2 ADD SWAP1 PUSH2 0x20D5 JUMP JUMPDEST DUP3 SWAP6 POP PUSH2 0x210D DUP11 DUP3 PUSH2 0x1FC6 JUMP JUMPDEST SWAP5 POP POP POP POP POP SWAP3 SWAP6 SWAP2 SWAP5 POP SWAP3 POP JUMP JUMPDEST PUSH1 0x20 DUP1 DUP3 MSTORE PUSH1 0xE SWAP1 DUP3 ADD MSTORE PUSH14 0x2737BA103BB4BA34323930BBB2B9 PUSH1 0x91 SHL PUSH1 0x40 DUP3 ADD MSTORE PUSH1 0x60 ADD SWAP1 JUMP JUMPDEST PUSH4 0x4E487B71 PUSH1 0xE0 SHL PUSH1 0x0 MSTORE PUSH1 0x32 PUSH1 0x4 MSTORE PUSH1 0x24 PUSH1 0x0 REVERT JUMPDEST PUSH1 0x0 PUSH1 0x20 DUP3 DUP5 SUB SLT ISZERO PUSH2 0x216C JUMPI PUSH1 0x0 DUP1 REVERT JUMPDEST POP MLOAD SWAP2 SWAP1 POP JUMP JUMPDEST PUSH4 0x4E487B71 PUSH1 0xE0 SHL PUSH1 0x0 MSTORE PUSH1 0x11 PUSH1 0x4 MSTORE PUSH1 0x24 PUSH1 0x0 REVERT JUMPDEST DUP1 DUP3 ADD DUP1 DUP3 GT ISZERO PUSH2 0x1BDE JUMPI PUSH2 0x1BDE PUSH2 0x2173 JUMP JUMPDEST DUP1 DUP3 MUL DUP2 ISZERO DUP3 DUP3 DIV DUP5 EQ OR PUSH2 0x1BDE JUMPI PUSH2 0x1BDE PUSH2 0x2173 JUMP JUMPDEST PUSH1 0x0 DUP3 PUSH2 0x21D0 JUMPI PUSH4 0x4E487B71 PUSH1 0xE0 SHL PUSH1 0x0 MSTORE PUSH1 0x12 PUSH1 0x4 MSTORE PUSH1 0x24 PUSH1 0x0 REVERT JUMPDEST POP DIV SWAP1 JUMP JUMPDEST PUSH1 0x0 PUSH1 0x20 DUP3 DUP5 SUB SLT ISZERO PUSH2 0x21E7 JUMPI PUSH1 0x0 DUP1 REVERT JUMPDEST PUSH2 0x1BDB DUP3 PUSH2 0x2017 JUMP INVALID 0xB4 0xC0 DUP8 GT SWAP1 SWAP8 0xFB 0xE3 SWAP9 MSTORE SWAP9 0xEE CREATE2 0x2F CALLDATALOAD 0xEF PUSH3 0x71C483 0x22 0xA8 0xC2 0xD4 ADDRESS SWAP1 0x2A SWAP13 0xC3 DUP14 SWAP5 PUSH20 0xA26469706673582212205E9BDBB5D6F7768D1BE2 JUMPDEST 0xC7 PUSH6 0xDF8C5319F82C CREATE2 0xEA PUSH20 0x83EA109508751B8CC73E64736F6C634300081600 CALLER "},"methodIdentifiers":{"add_stake(uint256,uint256)":"10d67406","add_stakes(uint256,uint256[])":"ac0c34cc","emergencyWithdrawTao(address,uint256)":"f528c62e","force_remove_stake(uint256)":"ea07a542","getInfo()":"5a9b0b89","getInfoV4()":"02f12826","getIsStaked()":"ddd8a4c8","getStakedAmount(bytes32)":"337a1737","getStakedPrices()":"3d4ac3c2","getTimestamps()":"59abbfe4","increase_stake(uint256,uint256)":"aa099a7b","is_staked(uint256)":"08b41c01","lastStakeTimestamp(uint256)":"9a900394","mev_coldkey()":"c8c23393","owner()":"8da5cb5b","priceUpdateThreshold()":"3a34c83f","remove_stake(uint256)":"c4441cce","remove_stake(uint256,bytes32[],bytes32[])":"46f3ded4","remove_stakes(uint256[])":"d908968c","renounceOwnership()":"715018a6","reset(uint256)":"310bd74b","setWithdrawer(address)":"0d174c24","staked_prices(uint256)":"a75d3564","taobot()":"fdd4f21b","transferOwnership(address)":"f2fde38b","updateMevColdkey(bytes32)":"c64625ea","updatePriceThreshold(uint256)":"4c709cca","updateTaobot(bytes32)":"dee25cda","validatorHotkey()":"c7687c22","withdrawAll(address)":"fa09e630","withdrawer()":"cdc18424"}}}}}