{"contracts/Proxy.sol":{"Proxy":{"abi":[{"inputs":[],"stateMutability":"nonpayable","type":"constructor"},{"inputs":[],"name":"REAL_COLDKEY","outputs":[{"internalType":"bytes32","name":"","type":"bytes32"}],"stateMutability":"view","type":"function"},{"inputs":[],"name":"callData","outputs":[{"internalType":"bytes","name":"","type":"bytes"}],"stateMutability":"view","type":"function"},{"inputs":[],"name":"delegatorId","outputs":[{"internalType":"bytes32","name":"","type":"bytes32"}],"stateMutability":"view","type":"function"},{"inputs":[],"name":"execute","outputs":[],"stateMutability":"nonpayable","type":"function"},{"inputs":[],"name":"owner","outputs":[{"internalType":"address","name":"","type":"address"}],"stateMutability":"view","type":"function"},{"inputs":[],"name":"transfer","outputs":[],"stateMutability":"payable","type":"function"},{"inputs":[],"name":"uid0","outputs":[{"internalType":"uint256","name":"","type":"uint256"}],"stateMutability":"view","type":"function"},{"inputs":[],"name":"uid1","outputs":[{"internalType":"uint256","name":"","type":"uint256"}],"stateMutability":"view","type":"function"}],"evm":{"bytecode":{"linkReferences":{},"object":"60c060405234801561001057600080fd5b50600160005560405163024a66cd60e11b815230600482015261080c90630494cd9a90602401602060405180830381865afa158015610053573d6000803e3d6000fd5b505050506040513d601f19601f820116820180604052508101906100779190610133565b60808190523360a0526100ab907f2636ad834cd47318572033620d50377260a54fc64e5f150896186b2bafda7454906100be565b6003906100b890826101ed565b506102ac565b60408051604980825260808201909252606091602082018180368337019050509050602081016010815360006001820153600060028201538360038201526001602382015360006024820153600560258201536004602682015360006027820153826028820152600060488201535092915050565b60006020828403121561014557600080fd5b5051919050565b634e487b7160e01b600052604160045260246000fd5b600181811c9082168061017657607f821691505b60208210810361019657634e487b7160e01b600052602260045260246000fd5b50919050565b601f8211156101e8576000816000526020600020601f850160051c810160208610156101c55750805b601f850160051c820191505b818110156101e4578281556001016101d1565b5050505b505050565b81516001600160401b038111156102065761020661014c565b61021a816102148454610162565b8461019c565b602080601f83116001811461024f57600084156102375750858301515b600019600386901b1c1916600185901b1785556101e4565b600085815260208120601f198616915b8281101561027e5788860151825594840194600190910190840161025f565b508582101561029c5787850151600019600388901b60f8161c191681555b5050505050600190811b01905550565b60805160a0516105b56102de60003960008181610152015261023b01526000818160bb015261027e01526105b56000f3fe60806040526004361061007b5760003560e01c8063614619541161004e57806361461954146101215780638a4068dd146101385780638da5cb5b14610140578063e7d754ef1461018c57600080fd5b8063112fcfd91461008057806344a537f5146100a95780634e417a98146100dd578063565dea95146100ff575b600080fd5b34801561008c57600080fd5b5061009660025481565b6040519081526020015b60405180910390f35b3480156100b557600080fd5b506100967f000000000000000000000000000000000000000000000000000000000000000081565b3480156100e957600080fd5b506100f26101a2565b6040516100a091906104af565b34801561010b57600080fd5b5061009660008051602061056083398151915281565b34801561012d57600080fd5b50610136610230565b005b6101366103b2565b34801561014c57600080fd5b506101747f000000000000000000000000000000000000000000000000000000000000000081565b6040516001600160a01b0390911681526020016100a0565b34801561019857600080fd5b5061009660015481565b600380546101af906104e2565b80601f01602080910402602001604051908101604052809291908181526020018280546101db906104e2565b80156102285780601f106101fd57610100808354040283529160200191610228565b820191906000526020600020905b81548152906001019060200180831161020b57829003601f168201915b505050505081565b336001600160a01b037f0000000000000000000000000000000000000000000000000000000000000000161461026557600080fd5b47600060066102a26000805160206105608339815191527f0000000000000000000000000000000000000000000000000000000000000000610416565b6040516102af919061051c565b6000604051808303816000865af19150503d80600081146102ec576040519150601f19603f3d011682016040523d82523d6000602084013e6102f1565b606091505b50509050806102ff57600080fd5b60006103138367016345785d8a0000610538565b90504781810361032257600080fd5b607f62024c5619633b9aca008385030401908116600155600781901c60025560405163cd6f4eb160e01b815260008051602061056083398151915260048201526108009063cd6f4eb19067016345785d8a0000906024016000604051808303818588803b15801561039257600080fd5b505af11580156103a6573d6000803e3d6000fd5b50505050505050505050565b60405163cd6f4eb160e01b815260008051602061056083398151915260048201526108009063cd6f4eb19047906024016000604051808303818588803b1580156103fb57600080fd5b505af115801561040f573d6000803e3d6000fd5b5050505050565b60408051604980825260808201909252606091602082018180368337019050509050602081016010815360006001820153600060028201538360038201526001602382015360006024820153600560258201536004602682015360006027820153826028820152600060488201535092915050565b60005b838110156104a657818101518382015260200161048e565b50506000910152565b60208152600082518060208401526104ce81604085016020870161048b565b601f01601f19169190910160400192915050565b600181811c908216806104f657607f821691505b60208210810361051657634e487b7160e01b600052602260045260246000fd5b50919050565b6000825161052e81846020870161048b565b9190910192915050565b8082018082111561055957634e487b7160e01b600052601160045260246000fd5b9291505056fe2636ad834cd47318572033620d50377260a54fc64e5f150896186b2bafda7454a264697066735822122098a975e6226db14ba0f0aa5a008134b35db54f8e0f5c2b48e97a17259dfa0c5a64736f6c63430008160033","opcodes":"PUSH1 0xC0 PUSH1 0x40 MSTORE CALLVALUE DUP1 ISZERO PUSH2 0x10 JUMPI PUSH1 0x0 DUP1 REVERT JUMPDEST POP PUSH1 0x1 PUSH1 0x0 SSTORE PUSH1 0x40 MLOAD PUSH4 0x24A66CD PUSH1 0xE1 SHL DUP2 MSTORE ADDRESS PUSH1 0x4 DUP3 ADD MSTORE PUSH2 0x80C SWAP1 PUSH4 0x494CD9A SWAP1 PUSH1 0x24 ADD PUSH1 0x20 PUSH1 0x40 MLOAD DUP1 DUP4 SUB DUP2 DUP7 GAS STATICCALL ISZERO DUP1 ISZERO PUSH2 0x53 JUMPI RETURNDATASIZE PUSH1 0x0 DUP1 RETURNDATACOPY RETURNDATASIZE PUSH1 0x0 REVERT JUMPDEST POP POP POP POP PUSH1 0x40 MLOAD RETURNDATASIZE PUSH1 0x1F NOT PUSH1 0x1F DUP3 ADD AND DUP3 ADD DUP1 PUSH1 0x40 MSTORE POP DUP2 ADD SWAP1 PUSH2 0x77 SWAP2 SWAP1 PUSH2 0x133 JUMP JUMPDEST PUSH1 0x80 DUP2 SWAP1 MSTORE CALLER PUSH1 0xA0 MSTORE PUSH2 0xAB SWAP1 PUSH32 0x2636AD834CD47318572033620D50377260A54FC64E5F150896186B2BAFDA7454 SWAP1 PUSH2 0xBE JUMP JUMPDEST PUSH1 0x3 SWAP1 PUSH2 0xB8 SWAP1 DUP3 PUSH2 0x1ED JUMP JUMPDEST POP PUSH2 0x2AC JUMP JUMPDEST PUSH1 0x40 DUP1 MLOAD PUSH1 0x49 DUP1 DUP3 MSTORE PUSH1 0x80 DUP3 ADD SWAP1 SWAP3 MSTORE PUSH1 0x60 SWAP2 PUSH1 0x20 DUP3 ADD DUP2 DUP1 CALLDATASIZE DUP4 CALLDATACOPY ADD SWAP1 POP POP SWAP1 POP PUSH1 0x20 DUP2 ADD PUSH1 0x10 DUP2 MSTORE8 PUSH1 0x0 PUSH1 0x1 DUP3 ADD MSTORE8 PUSH1 0x0 PUSH1 0x2 DUP3 ADD MSTORE8 DUP4 PUSH1 0x3 DUP3 ADD MSTORE PUSH1 0x1 PUSH1 0x23 DUP3 ADD MSTORE8 PUSH1 0x0 PUSH1 0x24 DUP3 ADD MSTORE8 PUSH1 0x5 PUSH1 0x25 DUP3 ADD MSTORE8 PUSH1 0x4 PUSH1 0x26 DUP3 ADD MSTORE8 PUSH1 0x0 PUSH1 0x27 DUP3 ADD MSTORE8 DUP3 PUSH1 0x28 DUP3 ADD MSTORE PUSH1 0x0 PUSH1 0x48 DUP3 ADD MSTORE8 POP SWAP3 SWAP2 POP POP JUMP JUMPDEST PUSH1 0x0 PUSH1 0x20 DUP3 DUP5 SUB SLT ISZERO PUSH2 0x145 JUMPI PUSH1 0x0 DUP1 REVERT JUMPDEST POP MLOAD SWAP2 SWAP1 POP JUMP JUMPDEST PUSH4 0x4E487B71 PUSH1 0xE0 SHL PUSH1 0x0 MSTORE PUSH1 0x41 PUSH1 0x4 MSTORE PUSH1 0x24 PUSH1 0x0 REVERT JUMPDEST PUSH1 0x1 DUP2 DUP2 SHR SWAP1 DUP3 AND DUP1 PUSH2 0x176 JUMPI PUSH1 0x7F DUP3 AND SWAP2 POP JUMPDEST PUSH1 0x20 DUP3 LT DUP2 SUB PUSH2 0x196 JUMPI PUSH4 0x4E487B71 PUSH1 0xE0 SHL PUSH1 0x0 MSTORE PUSH1 0x22 PUSH1 0x4 MSTORE PUSH1 0x24 PUSH1 0x0 REVERT JUMPDEST POP SWAP2 SWAP1 POP JUMP JUMPDEST PUSH1 0x1F DUP3 GT ISZERO PUSH2 0x1E8 JUMPI PUSH1 0x0 DUP2 PUSH1 0x0 MSTORE PUSH1 0x20 PUSH1 0x0 KECCAK256 PUSH1 0x1F DUP6 ADD PUSH1 0x5 SHR DUP2 ADD PUSH1 0x20 DUP7 LT ISZERO PUSH2 0x1C5 JUMPI POP DUP1 JUMPDEST PUSH1 0x1F DUP6 ADD PUSH1 0x5 SHR DUP3 ADD SWAP2 POP JUMPDEST DUP2 DUP2 LT ISZERO PUSH2 0x1E4 JUMPI DUP3 DUP2 SSTORE PUSH1 0x1 ADD PUSH2 0x1D1 JUMP JUMPDEST POP POP POP JUMPDEST POP POP POP JUMP JUMPDEST DUP2 MLOAD PUSH1 0x1 PUSH1 0x1 PUSH1 0x40 SHL SUB DUP2 GT ISZERO PUSH2 0x206 JUMPI PUSH2 0x206 PUSH2 0x14C JUMP JUMPDEST PUSH2 0x21A DUP2 PUSH2 0x214 DUP5 SLOAD PUSH2 0x162 JUMP JUMPDEST DUP5 PUSH2 0x19C JUMP JUMPDEST PUSH1 0x20 DUP1 PUSH1 0x1F DUP4 GT PUSH1 0x1 DUP2 EQ PUSH2 0x24F JUMPI PUSH1 0x0 DUP5 ISZERO PUSH2 0x237 JUMPI POP DUP6 DUP4 ADD MLOAD JUMPDEST PUSH1 0x0 NOT PUSH1 0x3 DUP7 SWAP1 SHL SHR NOT AND PUSH1 0x1 DUP6 SWAP1 SHL OR DUP6 SSTORE PUSH2 0x1E4 JUMP JUMPDEST PUSH1 0x0 DUP6 DUP2 MSTORE PUSH1 0x20 DUP2 KECCAK256 PUSH1 0x1F NOT DUP7 AND SWAP2 JUMPDEST DUP3 DUP2 LT ISZERO PUSH2 0x27E JUMPI DUP9 DUP7 ADD MLOAD DUP3 SSTORE SWAP5 DUP5 ADD SWAP5 PUSH1 0x1 SWAP1 SWAP2 ADD SWAP1 DUP5 ADD PUSH2 0x25F JUMP JUMPDEST POP DUP6 DUP3 LT ISZERO PUSH2 0x29C JUMPI DUP8 DUP6 ADD MLOAD PUSH1 0x0 NOT PUSH1 0x3 DUP9 SWAP1 SHL PUSH1 0xF8 AND SHR NOT AND DUP2 SSTORE JUMPDEST POP POP POP POP POP PUSH1 0x1 SWAP1 DUP2 SHL ADD SWAP1 SSTORE POP JUMP JUMPDEST PUSH1 0x80 MLOAD PUSH1 0xA0 MLOAD PUSH2 0x5B5 PUSH2 0x2DE PUSH1 0x0 CODECOPY PUSH1 0x0 DUP2 DUP2 PUSH2 0x152 ADD MSTORE PUSH2 0x23B ADD MSTORE PUSH1 0x0 DUP2 DUP2 PUSH1 0xBB ADD MSTORE PUSH2 0x27E ADD MSTORE PUSH2 0x5B5 PUSH1 0x0 RETURN INVALID PUSH1 0x80 PUSH1 0x40 MSTORE PUSH1 0x4 CALLDATASIZE LT PUSH2 0x7B JUMPI PUSH1 0x0 CALLDATALOAD PUSH1 0xE0 SHR DUP1 PUSH4 0x61461954 GT PUSH2 0x4E JUMPI DUP1 PUSH4 0x61461954 EQ PUSH2 0x121 JUMPI DUP1 PUSH4 0x8A4068DD EQ PUSH2 0x138 JUMPI DUP1 PUSH4 0x8DA5CB5B EQ PUSH2 0x140 JUMPI DUP1 PUSH4 0xE7D754EF EQ PUSH2 0x18C JUMPI PUSH1 0x0 DUP1 REVERT JUMPDEST DUP1 PUSH4 0x112FCFD9 EQ PUSH2 0x80 JUMPI DUP1 PUSH4 0x44A537F5 EQ PUSH2 0xA9 JUMPI DUP1 PUSH4 0x4E417A98 EQ PUSH2 0xDD JUMPI DUP1 PUSH4 0x565DEA95 EQ PUSH2 0xFF JUMPI JUMPDEST PUSH1 0x0 DUP1 REVERT JUMPDEST CALLVALUE DUP1 ISZERO PUSH2 0x8C JUMPI PUSH1 0x0 DUP1 REVERT JUMPDEST POP PUSH2 0x96 PUSH1 0x2 SLOAD DUP2 JUMP JUMPDEST PUSH1 0x40 MLOAD SWAP1 DUP2 MSTORE PUSH1 0x20 ADD JUMPDEST PUSH1 0x40 MLOAD DUP1 SWAP2 SUB SWAP1 RETURN JUMPDEST CALLVALUE DUP1 ISZERO PUSH2 0xB5 JUMPI PUSH1 0x0 DUP1 REVERT JUMPDEST POP PUSH2 0x96 PUSH32 0x0 DUP2 JUMP JUMPDEST CALLVALUE DUP1 ISZERO PUSH2 0xE9 JUMPI PUSH1 0x0 DUP1 REVERT JUMPDEST POP PUSH2 0xF2 PUSH2 0x1A2 JUMP JUMPDEST PUSH1 0x40 MLOAD PUSH2 0xA0 SWAP2 SWAP1 PUSH2 0x4AF JUMP JUMPDEST CALLVALUE DUP1 ISZERO PUSH2 0x10B JUMPI PUSH1 0x0 DUP1 REVERT JUMPDEST POP PUSH2 0x96 PUSH1 0x0 DUP1 MLOAD PUSH1 0x20 PUSH2 0x560 DUP4 CODECOPY DUP2 MLOAD SWAP2 MSTORE DUP2 JUMP JUMPDEST CALLVALUE DUP1 ISZERO PUSH2 0x12D JUMPI PUSH1 0x0 DUP1 REVERT JUMPDEST POP PUSH2 0x136 PUSH2 0x230 JUMP JUMPDEST STOP JUMPDEST PUSH2 0x136 PUSH2 0x3B2 JUMP JUMPDEST CALLVALUE DUP1 ISZERO PUSH2 0x14C JUMPI PUSH1 0x0 DUP1 REVERT JUMPDEST POP PUSH2 0x174 PUSH32 0x0 DUP2 JUMP JUMPDEST PUSH1 0x40 MLOAD PUSH1 0x1 PUSH1 0x1 PUSH1 0xA0 SHL SUB SWAP1 SWAP2 AND DUP2 MSTORE PUSH1 0x20 ADD PUSH2 0xA0 JUMP JUMPDEST CALLVALUE DUP1 ISZERO PUSH2 0x198 JUMPI PUSH1 0x0 DUP1 REVERT JUMPDEST POP PUSH2 0x96 PUSH1 0x1 SLOAD DUP2 JUMP JUMPDEST PUSH1 0x3 DUP1 SLOAD PUSH2 0x1AF SWAP1 PUSH2 0x4E2 JUMP JUMPDEST DUP1 PUSH1 0x1F ADD PUSH1 0x20 DUP1 SWAP2 DIV MUL PUSH1 0x20 ADD PUSH1 0x40 MLOAD SWAP1 DUP2 ADD PUSH1 0x40 MSTORE DUP1 SWAP3 SWAP2 SWAP1 DUP2 DUP2 MSTORE PUSH1 0x20 ADD DUP3 DUP1 SLOAD PUSH2 0x1DB SWAP1 PUSH2 0x4E2 JUMP JUMPDEST DUP1 ISZERO PUSH2 0x228 JUMPI DUP1 PUSH1 0x1F LT PUSH2 0x1FD JUMPI PUSH2 0x100 DUP1 DUP4 SLOAD DIV MUL DUP4 MSTORE SWAP2 PUSH1 0x20 ADD SWAP2 PUSH2 0x228 JUMP JUMPDEST DUP3 ADD SWAP2 SWAP1 PUSH1 0x0 MSTORE PUSH1 0x20 PUSH1 0x0 KECCAK256 SWAP1 JUMPDEST DUP2 SLOAD DUP2 MSTORE SWAP1 PUSH1 0x1 ADD SWAP1 PUSH1 0x20 ADD DUP1 DUP4 GT PUSH2 0x20B JUMPI DUP3 SWAP1 SUB PUSH1 0x1F AND DUP3 ADD SWAP2 JUMPDEST POP POP POP POP POP DUP2 JUMP JUMPDEST CALLER PUSH1 0x1 PUSH1 0x1 PUSH1 0xA0 SHL SUB PUSH32 0x0 AND EQ PUSH2 0x265 JUMPI PUSH1 0x0 DUP1 REVERT JUMPDEST SELFBALANCE PUSH1 0x0 PUSH1 0x6 PUSH2 0x2A2 PUSH1 0x0 DUP1 MLOAD PUSH1 0x20 PUSH2 0x560 DUP4 CODECOPY DUP2 MLOAD SWAP2 MSTORE PUSH32 0x0 PUSH2 0x416 JUMP JUMPDEST PUSH1 0x40 MLOAD PUSH2 0x2AF SWAP2 SWAP1 PUSH2 0x51C JUMP JUMPDEST PUSH1 0x0 PUSH1 0x40 MLOAD DUP1 DUP4 SUB DUP2 PUSH1 0x0 DUP7 GAS CALL SWAP2 POP POP RETURNDATASIZE DUP1 PUSH1 0x0 DUP2 EQ PUSH2 0x2EC JUMPI PUSH1 0x40 MLOAD SWAP2 POP PUSH1 0x1F NOT PUSH1 0x3F RETURNDATASIZE ADD AND DUP3 ADD PUSH1 0x40 MSTORE RETURNDATASIZE DUP3 MSTORE RETURNDATASIZE PUSH1 0x0 PUSH1 0x20 DUP5 ADD RETURNDATACOPY PUSH2 0x2F1 JUMP JUMPDEST PUSH1 0x60 SWAP2 POP JUMPDEST POP POP SWAP1 POP DUP1 PUSH2 0x2FF JUMPI PUSH1 0x0 DUP1 REVERT JUMPDEST PUSH1 0x0 PUSH2 0x313 DUP4 PUSH8 0x16345785D8A0000 PUSH2 0x538 JUMP JUMPDEST SWAP1 POP SELFBALANCE DUP2 DUP2 SUB PUSH2 0x322 JUMPI PUSH1 0x0 DUP1 REVERT JUMPDEST PUSH1 0x7F PUSH3 0x24C56 NOT PUSH4 0x3B9ACA00 DUP4 DUP6 SUB DIV ADD SWAP1 DUP2 AND PUSH1 0x1 SSTORE PUSH1 0x7 DUP2 SWAP1 SHR PUSH1 0x2 SSTORE PUSH1 0x40 MLOAD PUSH4 0xCD6F4EB1 PUSH1 0xE0 SHL DUP2 MSTORE PUSH1 0x0 DUP1 MLOAD PUSH1 0x20 PUSH2 0x560 DUP4 CODECOPY DUP2 MLOAD SWAP2 MSTORE PUSH1 0x4 DUP3 ADD MSTORE PUSH2 0x800 SWAP1 PUSH4 0xCD6F4EB1 SWAP1 PUSH8 0x16345785D8A0000 SWAP1 PUSH1 0x24 ADD PUSH1 0x0 PUSH1 0x40 MLOAD DUP1 DUP4 SUB DUP2 DUP6 DUP9 DUP1 EXTCODESIZE ISZERO DUP1 ISZERO PUSH2 0x392 JUMPI PUSH1 0x0 DUP1 REVERT JUMPDEST POP GAS CALL ISZERO DUP1 ISZERO PUSH2 0x3A6 JUMPI RETURNDATASIZE PUSH1 0x0 DUP1 RETURNDATACOPY RETURNDATASIZE PUSH1 0x0 REVERT JUMPDEST POP POP POP POP POP POP POP POP POP POP JUMP JUMPDEST PUSH1 0x40 MLOAD PUSH4 0xCD6F4EB1 PUSH1 0xE0 SHL DUP2 MSTORE PUSH1 0x0 DUP1 MLOAD PUSH1 0x20 PUSH2 0x560 DUP4 CODECOPY DUP2 MLOAD SWAP2 MSTORE PUSH1 0x4 DUP3 ADD MSTORE PUSH2 0x800 SWAP1 PUSH4 0xCD6F4EB1 SWAP1 SELFBALANCE SWAP1 PUSH1 0x24 ADD PUSH1 0x0 PUSH1 0x40 MLOAD DUP1 DUP4 SUB DUP2 DUP6 DUP9 DUP1 EXTCODESIZE ISZERO DUP1 ISZERO PUSH2 0x3FB JUMPI PUSH1 0x0 DUP1 REVERT JUMPDEST POP GAS CALL ISZERO DUP1 ISZERO PUSH2 0x40F JUMPI RETURNDATASIZE PUSH1 0x0 DUP1 RETURNDATACOPY RETURNDATASIZE PUSH1 0x0 REVERT JUMPDEST POP POP POP POP POP JUMP JUMPDEST PUSH1 0x40 DUP1 MLOAD PUSH1 0x49 DUP1 DUP3 MSTORE PUSH1 0x80 DUP3 ADD SWAP1 SWAP3 MSTORE PUSH1 0x60 SWAP2 PUSH1 0x20 DUP3 ADD DUP2 DUP1 CALLDATASIZE DUP4 CALLDATACOPY ADD SWAP1 POP POP SWAP1 POP PUSH1 0x20 DUP2 ADD PUSH1 0x10 DUP2 MSTORE8 PUSH1 0x0 PUSH1 0x1 DUP3 ADD MSTORE8 PUSH1 0x0 PUSH1 0x2 DUP3 ADD MSTORE8 DUP4 PUSH1 0x3 DUP3 ADD MSTORE PUSH1 0x1 PUSH1 0x23 DUP3 ADD MSTORE8 PUSH1 0x0 PUSH1 0x24 DUP3 ADD MSTORE8 PUSH1 0x5 PUSH1 0x25 DUP3 ADD MSTORE8 PUSH1 0x4 PUSH1 0x26 DUP3 ADD MSTORE8 PUSH1 0x0 PUSH1 0x27 DUP3 ADD MSTORE8 DUP3 PUSH1 0x28 DUP3 ADD MSTORE PUSH1 0x0 PUSH1 0x48 DUP3 ADD MSTORE8 POP SWAP3 SWAP2 POP POP JUMP JUMPDEST PUSH1 0x0 JUMPDEST DUP4 DUP2 LT ISZERO PUSH2 0x4A6 JUMPI DUP2 DUP2 ADD MLOAD DUP4 DUP3 ADD MSTORE PUSH1 0x20 ADD PUSH2 0x48E JUMP JUMPDEST POP POP PUSH1 0x0 SWAP2 ADD MSTORE JUMP JUMPDEST PUSH1 0x20 DUP2 MSTORE PUSH1 0x0 DUP3 MLOAD DUP1 PUSH1 0x20 DUP5 ADD MSTORE PUSH2 0x4CE DUP2 PUSH1 0x40 DUP6 ADD PUSH1 0x20 DUP8 ADD PUSH2 0x48B JUMP JUMPDEST PUSH1 0x1F ADD PUSH1 0x1F NOT AND SWAP2 SWAP1 SWAP2 ADD PUSH1 0x40 ADD SWAP3 SWAP2 POP POP JUMP JUMPDEST PUSH1 0x1 DUP2 DUP2 SHR SWAP1 DUP3 AND DUP1 PUSH2 0x4F6 JUMPI PUSH1 0x7F DUP3 AND SWAP2 POP JUMPDEST PUSH1 0x20 DUP3 LT DUP2 SUB PUSH2 0x516 JUMPI PUSH4 0x4E487B71 PUSH1 0xE0 SHL PUSH1 0x0 MSTORE PUSH1 0x22 PUSH1 0x4 MSTORE PUSH1 0x24 PUSH1 0x0 REVERT JUMPDEST POP SWAP2 SWAP1 POP JUMP JUMPDEST PUSH1 0x0 DUP3 MLOAD PUSH2 0x52E DUP2 DUP5 PUSH1 0x20 DUP8 ADD PUSH2 0x48B JUMP JUMPDEST SWAP2 SWAP1 SWAP2 ADD SWAP3 SWAP2 POP POP JUMP JUMPDEST DUP1 DUP3 ADD DUP1 DUP3 GT ISZERO PUSH2 0x559 JUMPI PUSH4 0x4E487B71 PUSH1 0xE0 SHL PUSH1 0x0 MSTORE PUSH1 0x11 PUSH1 0x4 MSTORE PUSH1 0x24 PUSH1 0x0 REVERT JUMPDEST SWAP3 SWAP2 POP POP JUMP INVALID 0x26 CALLDATASIZE 0xAD DUP4 0x4C 0xD4 PUSH20 0x18572033620D50377260A54FC64E5F150896186B 0x2B 0xAF 0xDA PUSH21 0x54A264697066735822122098A975E6226DB14BA0F0 0xAA GAS STOP DUP2 CALLVALUE 0xB3 0x5D 0xB5 0x4F DUP15 0xF 0x5C 0x2B BASEFEE 0xE9 PUSH27 0x17259DFA0C5A64736F6C6343000816003300000000000000000000 "},"methodIdentifiers":{"REAL_COLDKEY()":"565dea95","callData()":"4e417a98","delegatorId()":"44a537f5","execute()":"61461954","owner()":"8da5cb5b","transfer()":"8a4068dd","uid0()":"e7d754ef","uid1()":"112fcfd9"}}}}}