{"contracts/TradingV7_3.sol":{"TradingV6":{"abi":[{"inputs":[],"stateMutability":"nonpayable","type":"constructor"},{"inputs":[],"name":"AmountZero","type":"error"},{"inputs":[],"name":"ArrayLengthMismatch","type":"error"},{"inputs":[],"name":"FunctionNotFound","type":"error"},{"inputs":[],"name":"InvalidAddress","type":"error"},{"inputs":[],"name":"InvalidBytesKey","type":"error"},{"inputs":[],"name":"InvalidNetuid","type":"error"},{"inputs":[],"name":"NotWithdrawer","type":"error"},{"inputs":[],"name":"TransferFailed","type":"error"},{"anonymous":false,"inputs":[{"indexed":true,"internalType":"address","name":"previousOwner","type":"address"},{"indexed":true,"internalType":"address","name":"newOwner","type":"address"}],"name":"OwnershipTransferred","type":"event"},{"stateMutability":"payable","type":"fallback"},{"inputs":[],"name":"DELEGATOR_BYTES_KEY","outputs":[{"internalType":"bytes32","name":"","type":"bytes32"}],"stateMutability":"view","type":"function"},{"inputs":[{"internalType":"uint256[]","name":"_netuids","type":"uint256[]"},{"internalType":"uint256[]","name":"amounts","type":"uint256[]"},{"internalType":"uint256[]","name":"limitPrices","type":"uint256[]"},{"internalType":"bytes32","name":"validatorHotkey","type":"bytes32"}],"name":"addStakeLimits","outputs":[],"stateMutability":"payable","type":"function"},{"inputs":[],"name":"contractBytesKey","outputs":[{"internalType":"bytes32","name":"","type":"bytes32"}],"stateMutability":"view","type":"function"},{"inputs":[{"internalType":"address","name":"to","type":"address"},{"internalType":"uint256","name":"amount","type":"uint256"}],"name":"emergencyWithdrawTao","outputs":[],"stateMutability":"nonpayable","type":"function"},{"inputs":[],"name":"getAlphaPrices","outputs":[{"internalType":"uint256[129]","name":"alphaPrices","type":"uint256[129]"}],"stateMutability":"view","type":"function"},{"inputs":[{"internalType":"uint256[]","name":"_netuids","type":"uint256[]"}],"name":"getMevStakedAmounts","outputs":[{"internalType":"uint256[]","name":"amounts","type":"uint256[]"}],"stateMutability":"view","type":"function"},{"inputs":[{"internalType":"bytes32[]","name":"hotkeys","type":"bytes32[]"},{"internalType":"bytes32[]","name":"coldkeys","type":"bytes32[]"}],"name":"getStakedAmounts","outputs":[{"internalType":"uint256[129]","name":"amounts","type":"uint256[129]"}],"stateMutability":"view","type":"function"},{"inputs":[],"name":"getTaoInPools","outputs":[{"internalType":"uint64[129]","name":"taoInPools","type":"uint64[129]"}],"stateMutability":"view","type":"function"},{"inputs":[],"name":"getTradingInfo","outputs":[{"internalType":"uint256[129]","name":"alphaPrices","type":"uint256[129]"},{"internalType":"uint64[129]","name":"taoInPools","type":"uint64[129]"},{"internalType":"bool[129]","name":"staked","type":"bool[129]"},{"internalType":"uint256[129]","name":"limitPrices","type":"uint256[129]"},{"internalType":"uint256[129]","name":"stakedAmounts","type":"uint256[129]"},{"internalType":"uint256[]","name":"mevFreeBalances","type":"uint256[]"},{"internalType":"uint256","name":"freeBalance","type":"uint256"},{"internalType":"uint256","name":"ownerBalance","type":"uint256"}],"stateMutability":"view","type":"function"},{"inputs":[{"internalType":"uint256","name":"","type":"uint256"}],"name":"isStaked","outputs":[{"internalType":"bool","name":"","type":"bool"}],"stateMutability":"view","type":"function"},{"inputs":[{"internalType":"uint256","name":"","type":"uint256"}],"name":"lastLimitPrices","outputs":[{"internalType":"uint256","name":"","type":"uint256"}],"stateMutability":"view","type":"function"},{"inputs":[{"internalType":"uint256","name":"","type":"uint256"}],"name":"lastStakeTimestamps","outputs":[{"internalType":"uint256","name":"","type":"uint256"}],"stateMutability":"view","type":"function"},{"inputs":[{"internalType":"uint256[]","name":"_netuids","type":"uint256[]"},{"internalType":"uint256[]","name":"amounts","type":"uint256[]"},{"internalType":"bytes32","name":"validatorHotkey","type":"bytes32"}],"name":"mevAddStakes","outputs":[],"stateMutability":"payable","type":"function"},{"inputs":[{"internalType":"uint256","name":"","type":"uint256"}],"name":"mevAddresses","outputs":[{"internalType":"address","name":"","type":"address"}],"stateMutability":"view","type":"function"},{"inputs":[{"internalType":"uint256","name":"","type":"uint256"}],"name":"mevColdkeyBytesKeys","outputs":[{"internalType":"bytes32","name":"","type":"bytes32"}],"stateMutability":"view","type":"function"},{"inputs":[{"internalType":"uint256","name":"","type":"uint256"}],"name":"mevHotkeyBytesKeys","outputs":[{"internalType":"bytes32","name":"","type":"bytes32"}],"stateMutability":"view","type":"function"},{"inputs":[{"internalType":"uint256[]","name":"_netuids","type":"uint256[]"},{"internalType":"bytes32","name":"validatorHotkey","type":"bytes32"}],"name":"mevRemoveStakes","outputs":[],"stateMutability":"payable","type":"function"},{"inputs":[{"internalType":"uint256","name":"","type":"uint256"}],"name":"netuids","outputs":[{"internalType":"uint256","name":"","type":"uint256"}],"stateMutability":"view","type":"function"},{"inputs":[],"name":"owner","outputs":[{"internalType":"address","name":"","type":"address"}],"stateMutability":"view","type":"function"},{"inputs":[{"internalType":"uint256[]","name":"_netuids","type":"uint256[]"}],"name":"removeDeregisteredStakes","outputs":[],"stateMutability":"nonpayable","type":"function"},{"inputs":[{"internalType":"uint256[]","name":"_netuids","type":"uint256[]"},{"internalType":"uint256[]","name":"limitPrices","type":"uint256[]"},{"internalType":"bytes32","name":"validatorHotkey","type":"bytes32"}],"name":"removeStakeLimits","outputs":[],"stateMutability":"payable","type":"function"},{"inputs":[],"name":"renounceOwnership","outputs":[],"stateMutability":"nonpayable","type":"function"},{"inputs":[{"internalType":"uint256[]","name":"_netuids","type":"uint256[]"}],"name":"resetLimitPrices","outputs":[],"stateMutability":"nonpayable","type":"function"},{"inputs":[{"internalType":"address","name":"newWithdrawer","type":"address"}],"name":"setWithdrawer","outputs":[],"stateMutability":"nonpayable","type":"function"},{"inputs":[{"internalType":"address","name":"newOwner","type":"address"}],"name":"transferOwnership","outputs":[],"stateMutability":"nonpayable","type":"function"},{"inputs":[{"internalType":"bytes32","name":"newContractBytesKey","type":"bytes32"}],"name":"updateContractBytesKey","outputs":[],"stateMutability":"nonpayable","type":"function"},{"inputs":[{"internalType":"address[]","name":"newMevAddresses","type":"address[]"},{"internalType":"bytes32[]","name":"newMevHotkeyBytesKeys","type":"bytes32[]"},{"internalType":"bytes32[]","name":"newMevColdkeyBytesKeys","type":"bytes32[]"}],"name":"updateMevKeys","outputs":[],"stateMutability":"nonpayable","type":"function"},{"inputs":[{"internalType":"address","name":"to","type":"address"}],"name":"withdrawAll","outputs":[],"stateMutability":"nonpayable","type":"function"},{"inputs":[],"name":"withdrawer","outputs":[{"internalType":"address","name":"","type":"address"}],"stateMutability":"view","type":"function"},{"stateMutability":"payable","type":"receive"}],"evm":{"bytecode":{"linkReferences":{},"object":"6110a0604090815260016080908152603760a052606e60c052604c60e05260516101005260076101205260706101405260136101605260006101805260126101a052602f6101c05260546101e05260716102005260246102205260336102405260626102605260316102805260756102a05260276102c052605a6102e052603c6103005260676103205261034091909152605f61036052607c61038052606c6103a05260186103c05260576103e052606161040052605361042052604361044052603b61046052602561048052601e6104a05260026104c05260056104e052600e61050052602661052052602c61054052607461056052601b61058052603f6105a05260106105c052607a6105e052605661060052606061062052607261064052605861066052601d6106805260116106a05260236106c05260636106e052600861070052605561072052604961074052601561076052602161078052602d6107a052600c6107c05260296107e052607961080052602261082052603661084052610860819052604b61088052600b6108a052600a6108c052602e6108e052606f61090052606d61092052602a61094052603961096052602b61098052604d6109a05260286109c05260686109e052603a610a0052605e610a2052607f610a40526073610a60526020610a8052607b610aa0526069610ac0526016610ae0526044610b00526017610b2052606a610b40526035610b6052601f610b80526014610ba0526065610bc0526034610be052606b610c00526042610c20526006610c4052603d610c60526045610c80526064610ca0526059610cc0526009610ce0526038610d00526077610d2052604e610d40526019610d60526032610d8052603e610da0526003610dc0526048610de052604f610e0052601a610e20526076610e4052600d610e60526078610e8052600f610ea052605c610ec0526052610ee0526004610f00526030610f2052605d610f40526066610f6052601c610f80526041610fa0526046610fc052607d610fe052605061100052605b61102052604761104052607e61106052604a611080526200031d9061010e906081620003a4565b503480156200032b57600080fd5b50620003373362000354565b6001805561010d80546001600160a01b0319163317905562000403565b600080546001600160a01b038381166001600160a01b0319831681178455604051919092169283917f8be0079c531659141344cd1fd0a4f28419497f9722a3daafe3b4186f6b6457e09190a35050565b8260818101928215620003da579160200282015b82811115620003da578251829060ff16905591602001919060010190620003b8565b50620003e8929150620003ec565b5090565b5b80821115620003e85760008155600101620003ed565b61244e80620004136000396000f3fe6080604052600436106101c65760003560e01c8063ae257e60116100f7578063cdc1842411610095578063f528c62e11610064578063f528c62e14610513578063f9036f0214610533578063fa09e63014610553578063fcd1a8d614610573576101cd565b8063cdc1842414610492578063e2edac25146104b3578063e4240e7f146104d3578063f2fde38b146104f3576101cd565b8063baa51f86116100d1578063baa51f861461040d578063bc28d5d01461043d578063bf6d738914610452578063c6df7daf14610472576101cd565b8063ae257e60146103a0578063af31a15d146103cd578063b6b2a68d146103ed576101cd565b806351b2e72d116101645780638da5cb5b1161013e5780638da5cb5b14610316578063947d3c3f14610348578063a76787751461035e578063a8c2bb0d1461037e576101cd565b806351b2e72d146102c0578063715018a6146102ee5780637d002cc014610303576101cd565b8063276ef789116101a0578063276ef78914610251578063386190401461027a5780633de1ffe81461028d5780633eb5152d146102a0576101cd565b80630d174c24146101e657806311ef42c91461020857806326a224e01461021b576101cd565b366101cd57005b60405163201f3fd360e11b815260040160405180910390fd5b3480156101f257600080fd5b50610206610201366004611e82565b610595565b005b610206610216366004611ee8565b610616565b34801561022757600080fd5b5061023b610236366004611f33565b6107d6565b6040516102489190611fc7565b60405180910390f35b34801561025d57600080fd5b506102666108ff565b60405161024898979695949392919061203e565b6102066102883660046120d1565b610a15565b61020661029b366004612144565b610c5d565b3480156102ac57600080fd5b506102066102bb3660046121e6565b610f2f565b3480156102cc57600080fd5b506102e06102db36600461227f565b610f97565b604051908152602001610248565b3480156102fa57600080fd5b50610206610fb8565b6102066103113660046120d1565b610fcc565b34801561032257600080fd5b506000546001600160a01b03165b6040516001600160a01b039091168152602001610248565b34801561035457600080fd5b506102e060055481565b34801561036a57600080fd5b5061033061037936600461227f565b611215565b34801561038a57600080fd5b5061039361123f565b6040516102489190612298565b3480156103ac57600080fd5b506103c06103bb3660046122a7565b611254565b60405161024891906122e8565b3480156103d957600080fd5b506102e06103e836600461227f565b6112f4565b3480156103f957600080fd5b506102e061040836600461227f565b61130b565b34801561041957600080fd5b5061042d61042836600461227f565b61131b565b6040519015158152602001610248565b34801561044957600080fd5b5061023b611345565b34801561045e57600080fd5b506102e061046d36600461227f565b611355565b34801561047e57600080fd5b5061020661048d3660046122a7565b611366565b34801561049e57600080fd5b5061010d54610330906001600160a01b031681565b3480156104bf57600080fd5b506102e06104ce36600461227f565b611450565b3480156104df57600080fd5b506102066104ee3660046122a7565b611460565b3480156104ff57600080fd5b5061020661050e366004611e82565b611568565b34801561051f57600080fd5b5061020661052e3660046122fb565b6115e3565b34801561053f57600080fd5b5061020661054e36600461227f565b6116dd565b34801561055f57600080fd5b5061020661056e366004611e82565b611719565b34801561057f57600080fd5b506102e06000805160206123f983398151915281565b61059d611816565b61010d546001600160a01b031633146105c957604051632d99bc8360e21b815260040160405180910390fd5b6001600160a01b0381166105f05760405163e6c4247b60e01b815260040160405180910390fd5b61010d80546001600160a01b0319166001600160a01b0383161790556001805550565b50565b61061e611816565b61062661186f565b8160005b818110156107c657600061010e60ff851687878581811061064d5761064d612325565b9050602002013561065e9190612351565b6081811061066e5761066e612325565b0154905061067b816118c9565b608c816081811061068e5761068e612325565b015442146107bd5760006106a1826118ea565b11156107bd5760405163d4626bb960e01b81526000805160206123f98339815191526004820152602481018290526108059063d4626bb990604401600060405180830381600087803b1580156106f657600080fd5b505af115801561070a573d6000803e3d6000fd5b50506040516369e38bc360e01b815261ffff8416600482015261080892506369e38bc39150602401602060405180830381865afa15801561074f573d6000803e3d6000fd5b505050506040513d601f19601f820116820180604052508101906107739190612364565b600b826081811061078657610786612325565b015560006006826081811061079d5761079d612325565b602091828204019190066101000a81548160ff0219169083151502179055505b5060010161062a565b50506107d160018055565b505050565b6107de611d98565b838281146107ff5760405163512509d360e11b815260040160405180910390fd5b60005b818110156108f55760015b60818110156108ec5761080563e3b598fa89898581811061083057610830612325565b9050602002013588888681811061084957610849612325565b6040516001600160e01b031960e087901b1681526004810194909452602002919091013560248301525060448101849052606401602060405180830381865afa15801561089a573d6000803e3d6000fd5b505050506040513d601f19601f820116820180604052508101906108be9190612364565b8482608181106108d0576108d0612325565b602002018181516108e1919061237d565b90525060010161080d565b50600101610802565b5050949350505050565b610907611d98565b61090f611d98565b610917611d98565b61091f611d98565b610927611d98565b60606000806109346119d8565b975061093e611a9d565b60408051611020810191829052919850600690608190826000855b825461010083900a900460ff161515815260206001928301818104948501949093039092029101808411610959579050505050505095506109ad6000805160206123f983398151915260001b600554611b7a565b93506109b7611c71565b60408051611020810191829052919450600b9060819082845b8154815260200190600101908083116109d057505050505094504791506109ff6000546001600160a01b031690565b6001600160a01b03163190509091929394959697565b610a1d611816565b610a2561186f565b83828114610a465760405163512509d360e11b815260040160405180910390fd5b60005b81811015610c4b57600061010e60ff8516898985818110610a6c57610a6c612325565b90506020020135610a7d9190612351565b60818110610a8d57610a8d612325565b01549050610a9a816118c9565b6000868684818110610aae57610aae612325565b9050602002013590506000610ac34783611d1e565b905080600003610ae6576040516365e52d5160e11b815260040160405180910390fd5b610aef836118ea565b600003610c3d57610805631fc9b1416000805160206123f9833981519152610b1684611d38565b6040516001600160e01b031960e085901b1681526004810192909252602482015260448101869052606401600060405180830381600087803b158015610b5b57600080fd5b505af1158015610b6f573d6000803e3d6000fd5b50505050600160068460818110610b8857610b88612325565b602081049091018054921515601f9092166101000a91820260ff909202199092161790556040516369e38bc360e01b815261ffff84166004820152610808906369e38bc390602401602060405180830381865afa158015610bed573d6000803e3d6000fd5b505050506040513d601f19601f82011682018060405250810190610c119190612364565b600b8460818110610c2457610c24612325565b015542608c8460818110610c3a57610c3a612325565b01555b836001019350505050610a49565b5050610c5660018055565b5050505050565b610c65611816565b610c6d61186f565b858481141580610c7d5750808314155b15610c9b5760405163512509d360e11b815260040160405180910390fd5b60005b81811015610f1b576000878783818110610cba57610cba612325565b90506020020135905080600014610f1257600061010e60ff86168c8c86818110610ce657610ce6612325565b90506020020135610cf79190612351565b60818110610d0757610d07612325565b01549050610d14816118c9565b6040516369e38bc360e01b815261ffff82166004820152600090610808906369e38bc390602401602060405180830381865afa158015610d58573d6000803e3d6000fd5b505050506040513d601f19601f82011682018060405250810190610d7c9190612364565b905080888886818110610d9157610d91612325565b9050602002013510610f0f576000610da94785611d1e565b905080600003610dcc576040516365e52d5160e11b815260040160405180910390fd5b610805631fc9b1416000805160206123f9833981519152610dec84611d38565b6040516001600160e01b031960e085901b1681526004810192909252602482015260448101869052606401600060405180830381600087803b158015610e3157600080fd5b505af1158015610e45573d6000803e3d6000fd5b50506040516369e38bc360e01b815261ffff8616600482015261080892506369e38bc39150602401602060405180830381865afa158015610e8a573d6000803e3d6000fd5b505050506040513d601f19601f82011682018060405250810190610eae9190612364565b600b8460818110610ec157610ec1612325565b0155600160068460818110610ed857610ed8612325565b602091828204019190066101000a81548160ff02191690831515021790555042608c8460818110610f0b57610f0b612325565b0155505b50505b50600101610c9e565b5050610f2660018055565b50505050505050565b610f37611816565b610f3f61186f565b828114610f5f5760405163512509d360e11b815260040160405180910390fd5b610f6b60048787611db7565b50610f7860028585611e16565b50610f8560038383611e16565b50610f8f60018055565b505050505050565b60038181548110610fa757600080fd5b600091825260209091200154905081565b610fc061186f565b610fca6000611d48565b565b610fd4611816565b610fdc61186f565b83828114610ffd5760405163512509d360e11b815260040160405180910390fd5b60005b81811015610c4b57600061010e60ff851689898581811061102357611023612325565b905060200201356110349190612351565b6081811061104457611044612325565b01549050611051816118c9565b6040516369e38bc360e01b815261ffff82166004820152600090610808906369e38bc390602401602060405180830381865afa158015611095573d6000803e3d6000fd5b505050506040513d601f19601f820116820180604052508101906110b99190612364565b9050808787858181106110ce576110ce612325565b905060200201351161120b57608c82608181106110ed576110ed612325565b0154421461120b5760405163d4626bb960e01b81526000805160206123f98339815191526004820152602481018390526108059063d4626bb990604401600060405180830381600087803b15801561114457600080fd5b505af1158015611158573d6000803e3d6000fd5b50506040516369e38bc360e01b815261ffff8516600482015261080892506369e38bc39150602401602060405180830381865afa15801561119d573d6000803e3d6000fd5b505050506040513d601f19601f820116820180604052508101906111c19190612364565b600b83608181106111d4576111d4612325565b01556000600683608181106111eb576111eb612325565b602091828204019190066101000a81548160ff0219169083151502179055505b5050600101611000565b6004818154811061122557600080fd5b6000918252602090912001546001600160a01b0316905081565b611247611d98565b61124f611a9d565b905090565b606081806001600160401b0381111561126f5761126f612390565b604051908082528060200260200182016040528015611298578160200160208202803683370190505b50915060005b818110156112ec576112c78585838181106112bb576112bb612325565b905060200201356118ea565b8382815181106112d9576112d9612325565b602090810291909101015260010161129e565b505092915050565b608c816081811061130457600080fd5b0154905081565b60028181548110610fa757600080fd5b6006816081811061132b57600080fd5b60209182820401919006915054906101000a900460ff1681565b61134d611d98565b61124f6119d8565b61010e816081811061130457600080fd5b61136e611816565b61137661186f565b8060005b8181101561144157600084848381811061139657611396612325565b9050602002013590506113a8816118c9565b6040516369e38bc360e01b815261ffff82166004820152610808906369e38bc390602401602060405180830381865afa1580156113e9573d6000803e3d6000fd5b505050506040513d601f19601f8201168201806040525081019061140d9190612364565b600b826081811061142057611420612325565b015542608c826081811061143657611436612325565b01555060010161137a565b505061144c60018055565b5050565b600b816081811061130457600080fd5b611468611816565b61147061186f565b8060005b8181101561144157600084848381811061149057611490612325565b9050602002013590506114a2816118c9565b6005546040516371dacc7d60e11b81526000805160206123f983398151915260048201526024810191909152604481018290526108059063e3b598fa90606401602060405180830381865afa1580156114ff573d6000803e3d6000fd5b505050506040513d601f19601f820116820180604052508101906115239190612364565b60000361155f5760006006826081811061153f5761153f612325565b602091828204019190066101000a81548160ff0219169083151502179055505b50600101611474565b61157061186f565b6001600160a01b0381166115da5760405162461bcd60e51b815260206004820152602660248201527f4f776e61626c653a206e6577206f776e657220697320746865207a65726f206160448201526564647265737360d01b60648201526084015b60405180910390fd5b61061381611d48565b6115eb611816565b61010d546001600160a01b0316331461161757604051632d99bc8360e21b815260040160405180910390fd5b6001600160a01b03821661163e5760405163e6c4247b60e01b815260040160405180910390fd5b8060000361165f576040516365e52d5160e11b815260040160405180910390fd5b6000826001600160a01b03168260405160006040518083038185875af1925050503d80600081146116ac576040519150601f19603f3d011682016040523d82523d6000602084013e6116b1565b606091505b50509050806116d3576040516312171d8360e31b815260040160405180910390fd5b5061144c60018055565b6116e5611816565b6116ed61186f565b8061170b5760405163666b0c5d60e01b815260040160405180910390fd5b600581905561061360018055565b611721611816565b61010d546001600160a01b0316331461174d57604051632d99bc8360e21b815260040160405180910390fd5b6001600160a01b0381166117745760405163e6c4247b60e01b815260040160405180910390fd5b476000819003611797576040516365e52d5160e11b815260040160405180910390fd5b6000826001600160a01b03168260405160006040518083038185875af1925050503d80600081146117e4576040519150601f19603f3d011682016040523d82523d6000602084013e6117e9565b606091505b505090508061180b576040516312171d8360e31b815260040160405180910390fd5b505061061360018055565b6002600154036118685760405162461bcd60e51b815260206004820152601f60248201527f5265656e7472616e637947756172643a207265656e7472616e742063616c6c0060448201526064016115d1565b6002600155565b6000546001600160a01b03163314610fca5760405162461bcd60e51b815260206004820181905260248201527f4f776e61626c653a2063616c6c6572206973206e6f7420746865206f776e657260448201526064016115d1565b60818110610613576040516368a3a6c360e11b815260040160405180910390fd5b6002546000908190815b818110156119cf5760006108056001600160a01b031663e3b598fa6002848154811061192257611922612325565b90600052602060002001546003858154811061194057611940612325565b6000918252602090912001546040516001600160e01b031960e085901b1681526004810192909252602482015260448101899052606401602060405180830381865afa158015611994573d6000803e3d6000fd5b505050506040513d601f19601f820116820180604052508101906119b89190612364565b90506119c4818561237d565b9350506001016118f4565b50909392505050565b6119e0611d98565b60005b608161ffff82161015611a99576040516369e38bc360e01b815261ffff82166004820152610808906369e38bc390602401602060405180830381865afa925050508015611a4d575060408051601f3d908101601f19168201909252611a4a91810190612364565b60015b611a73576000828261ffff1660818110611a6957611a69612325565b6020020152611a91565b80838361ffff1660818110611a8a57611a8a612325565b6020020152505b6001016119e3565b5090565b611aa5611d98565b60005b608161ffff82161015611a9957604051632d9bfc7160e01b815261ffff8216600482015261080890632d9bfc7190602401602060405180830381865afa925050508015611b12575060408051601f3d908101601f19168201909252611b0f918101906123a6565b60015b611b46576000828261ffff1660818110611b2e57611b2e612325565b6001600160401b039092166020929092020152611b72565b80838361ffff1660818110611b5d57611b5d612325565b6001600160401b039092166020929092020152505b600101611aa8565b611b82611d98565b60015b6081811015611c6a5760068160818110611ba157611ba1612325565b602081049091015460ff601f9092166101000a90041615611c48576040516371dacc7d60e11b81526004810185905260248101849052604481018290526108059063e3b598fa90606401602060405180830381865afa158015611c08573d6000803e3d6000fd5b505050506040513d601f19601f82011682018060405250810190611c2c9190612364565b828260818110611c3e57611c3e612325565b6020020152611c62565b6000828260818110611c5c57611c5c612325565b60200201525b600101611b85565b5092915050565b600454606090806001600160401b03811115611c8f57611c8f612390565b604051908082528060200260200182016040528015611cb8578160200160208202803683370190505b50915060005b81811015611d195760048181548110611cd957611cd9612325565b60009182526020909120015483516001600160a01b039091163190849083908110611d0657611d06612325565b6020908102919091010152600101611cbe565b505090565b6000818310611d2d5781611d2f565b825b90505b92915050565b6000611d32633b9aca00836123d6565b600080546001600160a01b038381166001600160a01b0319831681178455604051919092169283917f8be0079c531659141344cd1fd0a4f28419497f9722a3daafe3b4186f6b6457e09190a35050565b6040518061102001604052806081906020820280368337509192915050565b828054828255906000526020600020908101928215611e0a579160200282015b82811115611e0a5781546001600160a01b0319166001600160a01b03843516178255602090920191600190910190611dd7565b50611a99929150611e51565b828054828255906000526020600020908101928215611e0a579160200282015b82811115611e0a578235825591602001919060010190611e36565b5b80821115611a995760008155600101611e52565b80356001600160a01b0381168114611e7d57600080fd5b919050565b600060208284031215611e9457600080fd5b611d2f82611e66565b60008083601f840112611eaf57600080fd5b5081356001600160401b03811115611ec657600080fd5b6020830191508360208260051b8501011115611ee157600080fd5b9250929050565b600080600060408486031215611efd57600080fd5b83356001600160401b03811115611f1357600080fd5b611f1f86828701611e9d565b909790965060209590950135949350505050565b60008060008060408587031215611f4957600080fd5b84356001600160401b0380821115611f6057600080fd5b611f6c88838901611e9d565b90965094506020870135915080821115611f8557600080fd5b50611f9287828801611e9d565b95989497509550505050565b8060005b6081811015611fc1578151845260209384019390910190600101611fa2565b50505050565b6110208101611d328284611f9e565b8060005b6081811015611fc15781516001600160401b0316845260209384019390910190600101611fda565b60008151808452602080850194506020840160005b8381101561203357815187529582019590820190600101612017565b509495945050505050565b600061510061204d838c611f9e565b61205b61102084018b611fd6565b61204083018960005b60818110156120855781511515835260209283019290910190600101612064565b505050612096613060840189611f9e565b6120a4614080840188611f9e565b806150a08401526120b781840187612002565b6150c084019590955250506150e001529695505050505050565b6000806000806000606086880312156120e957600080fd5b85356001600160401b038082111561210057600080fd5b61210c89838a01611e9d565b9097509550602088013591508082111561212557600080fd5b5061213288828901611e9d565b96999598509660400135949350505050565b60008060008060008060006080888a03121561215f57600080fd5b87356001600160401b038082111561217657600080fd5b6121828b838c01611e9d565b909950975060208a013591508082111561219b57600080fd5b6121a78b838c01611e9d565b909750955060408a01359150808211156121c057600080fd5b506121cd8a828b01611e9d565b989b979a50959894979596606090950135949350505050565b600080600080600080606087890312156121ff57600080fd5b86356001600160401b038082111561221657600080fd5b6122228a838b01611e9d565b9098509650602089013591508082111561223b57600080fd5b6122478a838b01611e9d565b9096509450604089013591508082111561226057600080fd5b5061226d89828a01611e9d565b979a9699509497509295939492505050565b60006020828403121561229157600080fd5b5035919050565b6110208101611d328284611fd6565b600080602083850312156122ba57600080fd5b82356001600160401b038111156122d057600080fd5b6122dc85828601611e9d565b90969095509350505050565b602081526000611d2f6020830184612002565b6000806040838503121561230e57600080fd5b61231783611e66565b946020939093013593505050565b634e487b7160e01b600052603260045260246000fd5b634e487b7160e01b600052601160045260246000fd5b81810381811115611d3257611d3261233b565b60006020828403121561237657600080fd5b5051919050565b80820180821115611d3257611d3261233b565b634e487b7160e01b600052604160045260246000fd5b6000602082840312156123b857600080fd5b81516001600160401b03811681146123cf57600080fd5b9392505050565b6000826123f357634e487b7160e01b600052601260045260246000fd5b50049056feb4c087119097fbe3985298eef52f35ef6271c48322a8c2d430902a9cc38d9473a26469706673582212206f9514ddd3c8c543ec35f07f84ab6cdd2726189b83735caecd26cf73546e453e64736f6c63430008160033","opcodes":"PUSH2 0x10A0 PUSH1 0x40 SWAP1 DUP2 MSTORE PUSH1 0x1 PUSH1 0x80 SWAP1 DUP2 MSTORE PUSH1 0x37 PUSH1 0xA0 MSTORE PUSH1 0x6E PUSH1 0xC0 MSTORE PUSH1 0x4C PUSH1 0xE0 MSTORE PUSH1 0x51 PUSH2 0x100 MSTORE PUSH1 0x7 PUSH2 0x120 MSTORE PUSH1 0x70 PUSH2 0x140 MSTORE PUSH1 0x13 PUSH2 0x160 MSTORE PUSH1 0x0 PUSH2 0x180 MSTORE PUSH1 0x12 PUSH2 0x1A0 MSTORE PUSH1 0x2F PUSH2 0x1C0 MSTORE PUSH1 0x54 PUSH2 0x1E0 MSTORE PUSH1 0x71 PUSH2 0x200 MSTORE PUSH1 0x24 PUSH2 0x220 MSTORE PUSH1 0x33 PUSH2 0x240 MSTORE PUSH1 0x62 PUSH2 0x260 MSTORE PUSH1 0x31 PUSH2 0x280 MSTORE PUSH1 0x75 PUSH2 0x2A0 MSTORE PUSH1 0x27 PUSH2 0x2C0 MSTORE PUSH1 0x5A PUSH2 0x2E0 MSTORE PUSH1 0x3C PUSH2 0x300 MSTORE PUSH1 0x67 PUSH2 0x320 MSTORE PUSH2 0x340 SWAP2 SWAP1 SWAP2 MSTORE PUSH1 0x5F PUSH2 0x360 MSTORE PUSH1 0x7C PUSH2 0x380 MSTORE PUSH1 0x6C PUSH2 0x3A0 MSTORE PUSH1 0x18 PUSH2 0x3C0 MSTORE PUSH1 0x57 PUSH2 0x3E0 MSTORE PUSH1 0x61 PUSH2 0x400 MSTORE PUSH1 0x53 PUSH2 0x420 MSTORE PUSH1 0x43 PUSH2 0x440 MSTORE PUSH1 0x3B PUSH2 0x460 MSTORE PUSH1 0x25 PUSH2 0x480 MSTORE PUSH1 0x1E PUSH2 0x4A0 MSTORE PUSH1 0x2 PUSH2 0x4C0 MSTORE PUSH1 0x5 PUSH2 0x4E0 MSTORE PUSH1 0xE PUSH2 0x500 MSTORE PUSH1 0x26 PUSH2 0x520 MSTORE PUSH1 0x2C PUSH2 0x540 MSTORE PUSH1 0x74 PUSH2 0x560 MSTORE PUSH1 0x1B PUSH2 0x580 MSTORE PUSH1 0x3F PUSH2 0x5A0 MSTORE PUSH1 0x10 PUSH2 0x5C0 MSTORE PUSH1 0x7A PUSH2 0x5E0 MSTORE PUSH1 0x56 PUSH2 0x600 MSTORE PUSH1 0x60 PUSH2 0x620 MSTORE PUSH1 0x72 PUSH2 0x640 MSTORE PUSH1 0x58 PUSH2 0x660 MSTORE PUSH1 0x1D PUSH2 0x680 MSTORE PUSH1 0x11 PUSH2 0x6A0 MSTORE PUSH1 0x23 PUSH2 0x6C0 MSTORE PUSH1 0x63 PUSH2 0x6E0 MSTORE PUSH1 0x8 PUSH2 0x700 MSTORE PUSH1 0x55 PUSH2 0x720 MSTORE PUSH1 0x49 PUSH2 0x740 MSTORE PUSH1 0x15 PUSH2 0x760 MSTORE PUSH1 0x21 PUSH2 0x780 MSTORE PUSH1 0x2D PUSH2 0x7A0 MSTORE PUSH1 0xC PUSH2 0x7C0 MSTORE PUSH1 0x29 PUSH2 0x7E0 MSTORE PUSH1 0x79 PUSH2 0x800 MSTORE PUSH1 0x22 PUSH2 0x820 MSTORE PUSH1 0x36 PUSH2 0x840 MSTORE PUSH2 0x860 DUP2 SWAP1 MSTORE PUSH1 0x4B PUSH2 0x880 MSTORE PUSH1 0xB PUSH2 0x8A0 MSTORE PUSH1 0xA PUSH2 0x8C0 MSTORE PUSH1 0x2E PUSH2 0x8E0 MSTORE PUSH1 0x6F PUSH2 0x900 MSTORE PUSH1 0x6D PUSH2 0x920 MSTORE PUSH1 0x2A PUSH2 0x940 MSTORE PUSH1 0x39 PUSH2 0x960 MSTORE PUSH1 0x2B PUSH2 0x980 MSTORE PUSH1 0x4D PUSH2 0x9A0 MSTORE PUSH1 0x28 PUSH2 0x9C0 MSTORE PUSH1 0x68 PUSH2 0x9E0 MSTORE PUSH1 0x3A PUSH2 0xA00 MSTORE PUSH1 0x5E PUSH2 0xA20 MSTORE PUSH1 0x7F PUSH2 0xA40 MSTORE PUSH1 0x73 PUSH2 0xA60 MSTORE PUSH1 0x20 PUSH2 0xA80 MSTORE PUSH1 0x7B PUSH2 0xAA0 MSTORE PUSH1 0x69 PUSH2 0xAC0 MSTORE PUSH1 0x16 PUSH2 0xAE0 MSTORE PUSH1 0x44 PUSH2 0xB00 MSTORE PUSH1 0x17 PUSH2 0xB20 MSTORE PUSH1 0x6A PUSH2 0xB40 MSTORE PUSH1 0x35 PUSH2 0xB60 MSTORE PUSH1 0x1F PUSH2 0xB80 MSTORE PUSH1 0x14 PUSH2 0xBA0 MSTORE PUSH1 0x65 PUSH2 0xBC0 MSTORE PUSH1 0x34 PUSH2 0xBE0 MSTORE PUSH1 0x6B PUSH2 0xC00 MSTORE PUSH1 0x42 PUSH2 0xC20 MSTORE PUSH1 0x6 PUSH2 0xC40 MSTORE PUSH1 0x3D PUSH2 0xC60 MSTORE PUSH1 0x45 PUSH2 0xC80 MSTORE PUSH1 0x64 PUSH2 0xCA0 MSTORE PUSH1 0x59 PUSH2 0xCC0 MSTORE PUSH1 0x9 PUSH2 0xCE0 MSTORE PUSH1 0x38 PUSH2 0xD00 MSTORE PUSH1 0x77 PUSH2 0xD20 MSTORE PUSH1 0x4E PUSH2 0xD40 MSTORE PUSH1 0x19 PUSH2 0xD60 MSTORE PUSH1 0x32 PUSH2 0xD80 MSTORE PUSH1 0x3E PUSH2 0xDA0 MSTORE PUSH1 0x3 PUSH2 0xDC0 MSTORE PUSH1 0x48 PUSH2 0xDE0 MSTORE PUSH1 0x4F PUSH2 0xE00 MSTORE PUSH1 0x1A PUSH2 0xE20 MSTORE PUSH1 0x76 PUSH2 0xE40 MSTORE PUSH1 0xD PUSH2 0xE60 MSTORE PUSH1 0x78 PUSH2 0xE80 MSTORE PUSH1 0xF PUSH2 0xEA0 MSTORE PUSH1 0x5C PUSH2 0xEC0 MSTORE PUSH1 0x52 PUSH2 0xEE0 MSTORE PUSH1 0x4 PUSH2 0xF00 MSTORE PUSH1 0x30 PUSH2 0xF20 MSTORE PUSH1 0x5D PUSH2 0xF40 MSTORE PUSH1 0x66 PUSH2 0xF60 MSTORE PUSH1 0x1C PUSH2 0xF80 MSTORE PUSH1 0x41 PUSH2 0xFA0 MSTORE PUSH1 0x46 PUSH2 0xFC0 MSTORE PUSH1 0x7D PUSH2 0xFE0 MSTORE PUSH1 0x50 PUSH2 0x1000 MSTORE PUSH1 0x5B PUSH2 0x1020 MSTORE PUSH1 0x47 PUSH2 0x1040 MSTORE PUSH1 0x7E PUSH2 0x1060 MSTORE PUSH1 0x4A PUSH2 0x1080 MSTORE PUSH3 0x31D SWAP1 PUSH2 0x10E SWAP1 PUSH1 0x81 PUSH3 0x3A4 JUMP JUMPDEST POP CALLVALUE DUP1 ISZERO PUSH3 0x32B JUMPI PUSH1 0x0 DUP1 REVERT JUMPDEST POP PUSH3 0x337 CALLER PUSH3 0x354 JUMP JUMPDEST PUSH1 0x1 DUP1 SSTORE PUSH2 0x10D DUP1 SLOAD PUSH1 0x1 PUSH1 0x1 PUSH1 0xA0 SHL SUB NOT AND CALLER OR SWAP1 SSTORE PUSH3 0x403 JUMP JUMPDEST PUSH1 0x0 DUP1 SLOAD PUSH1 0x1 PUSH1 0x1 PUSH1 0xA0 SHL SUB DUP4 DUP2 AND PUSH1 0x1 PUSH1 0x1 PUSH1 0xA0 SHL SUB NOT DUP4 AND DUP2 OR DUP5 SSTORE PUSH1 0x40 MLOAD SWAP2 SWAP1 SWAP3 AND SWAP3 DUP4 SWAP2 PUSH32 0x8BE0079C531659141344CD1FD0A4F28419497F9722A3DAAFE3B4186F6B6457E0 SWAP2 SWAP1 LOG3 POP POP JUMP JUMPDEST DUP3 PUSH1 0x81 DUP2 ADD SWAP3 DUP3 ISZERO PUSH3 0x3DA JUMPI SWAP2 PUSH1 0x20 MUL DUP3 ADD JUMPDEST DUP3 DUP2 GT ISZERO PUSH3 0x3DA JUMPI DUP3 MLOAD DUP3 SWAP1 PUSH1 0xFF AND SWAP1 SSTORE SWAP2 PUSH1 0x20 ADD SWAP2 SWAP1 PUSH1 0x1 ADD SWAP1 PUSH3 0x3B8 JUMP JUMPDEST POP PUSH3 0x3E8 SWAP3 SWAP2 POP PUSH3 0x3EC JUMP JUMPDEST POP SWAP1 JUMP JUMPDEST JUMPDEST DUP1 DUP3 GT ISZERO PUSH3 0x3E8 JUMPI PUSH1 0x0 DUP2 SSTORE PUSH1 0x1 ADD PUSH3 0x3ED JUMP JUMPDEST PUSH2 0x244E DUP1 PUSH3 0x413 PUSH1 0x0 CODECOPY PUSH1 0x0 RETURN INVALID PUSH1 0x80 PUSH1 0x40 MSTORE PUSH1 0x4 CALLDATASIZE LT PUSH2 0x1C6 JUMPI PUSH1 0x0 CALLDATALOAD PUSH1 0xE0 SHR DUP1 PUSH4 0xAE257E60 GT PUSH2 0xF7 JUMPI DUP1 PUSH4 0xCDC18424 GT PUSH2 0x95 JUMPI DUP1 PUSH4 0xF528C62E GT PUSH2 0x64 JUMPI DUP1 PUSH4 0xF528C62E EQ PUSH2 0x513 JUMPI DUP1 PUSH4 0xF9036F02 EQ PUSH2 0x533 JUMPI DUP1 PUSH4 0xFA09E630 EQ PUSH2 0x553 JUMPI DUP1 PUSH4 0xFCD1A8D6 EQ PUSH2 0x573 JUMPI PUSH2 0x1CD JUMP JUMPDEST DUP1 PUSH4 0xCDC18424 EQ PUSH2 0x492 JUMPI DUP1 PUSH4 0xE2EDAC25 EQ PUSH2 0x4B3 JUMPI DUP1 PUSH4 0xE4240E7F EQ PUSH2 0x4D3 JUMPI DUP1 PUSH4 0xF2FDE38B EQ PUSH2 0x4F3 JUMPI PUSH2 0x1CD JUMP JUMPDEST DUP1 PUSH4 0xBAA51F86 GT PUSH2 0xD1 JUMPI DUP1 PUSH4 0xBAA51F86 EQ PUSH2 0x40D JUMPI DUP1 PUSH4 0xBC28D5D0 EQ PUSH2 0x43D JUMPI DUP1 PUSH4 0xBF6D7389 EQ PUSH2 0x452 JUMPI DUP1 PUSH4 0xC6DF7DAF EQ PUSH2 0x472 JUMPI PUSH2 0x1CD JUMP JUMPDEST DUP1 PUSH4 0xAE257E60 EQ PUSH2 0x3A0 JUMPI DUP1 PUSH4 0xAF31A15D EQ PUSH2 0x3CD JUMPI DUP1 PUSH4 0xB6B2A68D EQ PUSH2 0x3ED JUMPI PUSH2 0x1CD JUMP JUMPDEST DUP1 PUSH4 0x51B2E72D GT PUSH2 0x164 JUMPI DUP1 PUSH4 0x8DA5CB5B GT PUSH2 0x13E JUMPI DUP1 PUSH4 0x8DA5CB5B EQ PUSH2 0x316 JUMPI DUP1 PUSH4 0x947D3C3F EQ PUSH2 0x348 JUMPI DUP1 PUSH4 0xA7678775 EQ PUSH2 0x35E JUMPI DUP1 PUSH4 0xA8C2BB0D EQ PUSH2 0x37E JUMPI PUSH2 0x1CD JUMP JUMPDEST DUP1 PUSH4 0x51B2E72D EQ PUSH2 0x2C0 JUMPI DUP1 PUSH4 0x715018A6 EQ PUSH2 0x2EE JUMPI DUP1 PUSH4 0x7D002CC0 EQ PUSH2 0x303 JUMPI PUSH2 0x1CD JUMP JUMPDEST DUP1 PUSH4 0x276EF789 GT PUSH2 0x1A0 JUMPI DUP1 PUSH4 0x276EF789 EQ PUSH2 0x251 JUMPI DUP1 PUSH4 0x38619040 EQ PUSH2 0x27A JUMPI DUP1 PUSH4 0x3DE1FFE8 EQ PUSH2 0x28D JUMPI DUP1 PUSH4 0x3EB5152D EQ PUSH2 0x2A0 JUMPI PUSH2 0x1CD JUMP JUMPDEST DUP1 PUSH4 0xD174C24 EQ PUSH2 0x1E6 JUMPI DUP1 PUSH4 0x11EF42C9 EQ PUSH2 0x208 JUMPI DUP1 PUSH4 0x26A224E0 EQ PUSH2 0x21B JUMPI PUSH2 0x1CD JUMP JUMPDEST CALLDATASIZE PUSH2 0x1CD JUMPI STOP JUMPDEST PUSH1 0x40 MLOAD PUSH4 0x201F3FD3 PUSH1 0xE1 SHL DUP2 MSTORE PUSH1 0x4 ADD PUSH1 0x40 MLOAD DUP1 SWAP2 SUB SWAP1 REVERT JUMPDEST CALLVALUE DUP1 ISZERO PUSH2 0x1F2 JUMPI PUSH1 0x0 DUP1 REVERT JUMPDEST POP PUSH2 0x206 PUSH2 0x201 CALLDATASIZE PUSH1 0x4 PUSH2 0x1E82 JUMP JUMPDEST PUSH2 0x595 JUMP JUMPDEST STOP JUMPDEST PUSH2 0x206 PUSH2 0x216 CALLDATASIZE PUSH1 0x4 PUSH2 0x1EE8 JUMP JUMPDEST PUSH2 0x616 JUMP JUMPDEST CALLVALUE DUP1 ISZERO PUSH2 0x227 JUMPI PUSH1 0x0 DUP1 REVERT JUMPDEST POP PUSH2 0x23B PUSH2 0x236 CALLDATASIZE PUSH1 0x4 PUSH2 0x1F33 JUMP JUMPDEST PUSH2 0x7D6 JUMP JUMPDEST PUSH1 0x40 MLOAD PUSH2 0x248 SWAP2 SWAP1 PUSH2 0x1FC7 JUMP JUMPDEST PUSH1 0x40 MLOAD DUP1 SWAP2 SUB SWAP1 RETURN JUMPDEST CALLVALUE DUP1 ISZERO PUSH2 0x25D JUMPI PUSH1 0x0 DUP1 REVERT JUMPDEST POP PUSH2 0x266 PUSH2 0x8FF JUMP JUMPDEST PUSH1 0x40 MLOAD PUSH2 0x248 SWAP9 SWAP8 SWAP7 SWAP6 SWAP5 SWAP4 SWAP3 SWAP2 SWAP1 PUSH2 0x203E JUMP JUMPDEST PUSH2 0x206 PUSH2 0x288 CALLDATASIZE PUSH1 0x4 PUSH2 0x20D1 JUMP JUMPDEST PUSH2 0xA15 JUMP JUMPDEST PUSH2 0x206 PUSH2 0x29B CALLDATASIZE PUSH1 0x4 PUSH2 0x2144 JUMP JUMPDEST PUSH2 0xC5D JUMP JUMPDEST CALLVALUE DUP1 ISZERO PUSH2 0x2AC JUMPI PUSH1 0x0 DUP1 REVERT JUMPDEST POP PUSH2 0x206 PUSH2 0x2BB CALLDATASIZE PUSH1 0x4 PUSH2 0x21E6 JUMP JUMPDEST PUSH2 0xF2F JUMP JUMPDEST CALLVALUE DUP1 ISZERO PUSH2 0x2CC JUMPI PUSH1 0x0 DUP1 REVERT JUMPDEST POP PUSH2 0x2E0 PUSH2 0x2DB CALLDATASIZE PUSH1 0x4 PUSH2 0x227F JUMP JUMPDEST PUSH2 0xF97 JUMP JUMPDEST PUSH1 0x40 MLOAD SWAP1 DUP2 MSTORE PUSH1 0x20 ADD PUSH2 0x248 JUMP JUMPDEST CALLVALUE DUP1 ISZERO PUSH2 0x2FA JUMPI PUSH1 0x0 DUP1 REVERT JUMPDEST POP PUSH2 0x206 PUSH2 0xFB8 JUMP JUMPDEST PUSH2 0x206 PUSH2 0x311 CALLDATASIZE PUSH1 0x4 PUSH2 0x20D1 JUMP JUMPDEST PUSH2 0xFCC JUMP JUMPDEST CALLVALUE DUP1 ISZERO PUSH2 0x322 JUMPI PUSH1 0x0 DUP1 REVERT JUMPDEST POP PUSH1 0x0 SLOAD PUSH1 0x1 PUSH1 0x1 PUSH1 0xA0 SHL SUB AND JUMPDEST PUSH1 0x40 MLOAD PUSH1 0x1 PUSH1 0x1 PUSH1 0xA0 SHL SUB SWAP1 SWAP2 AND DUP2 MSTORE PUSH1 0x20 ADD PUSH2 0x248 JUMP JUMPDEST CALLVALUE DUP1 ISZERO PUSH2 0x354 JUMPI PUSH1 0x0 DUP1 REVERT JUMPDEST POP PUSH2 0x2E0 PUSH1 0x5 SLOAD DUP2 JUMP JUMPDEST CALLVALUE DUP1 ISZERO PUSH2 0x36A JUMPI PUSH1 0x0 DUP1 REVERT JUMPDEST POP PUSH2 0x330 PUSH2 0x379 CALLDATASIZE PUSH1 0x4 PUSH2 0x227F JUMP JUMPDEST PUSH2 0x1215 JUMP JUMPDEST CALLVALUE DUP1 ISZERO PUSH2 0x38A JUMPI PUSH1 0x0 DUP1 REVERT JUMPDEST POP PUSH2 0x393 PUSH2 0x123F JUMP JUMPDEST PUSH1 0x40 MLOAD PUSH2 0x248 SWAP2 SWAP1 PUSH2 0x2298 JUMP JUMPDEST CALLVALUE DUP1 ISZERO PUSH2 0x3AC JUMPI PUSH1 0x0 DUP1 REVERT JUMPDEST POP PUSH2 0x3C0 PUSH2 0x3BB CALLDATASIZE PUSH1 0x4 PUSH2 0x22A7 JUMP JUMPDEST PUSH2 0x1254 JUMP JUMPDEST PUSH1 0x40 MLOAD PUSH2 0x248 SWAP2 SWAP1 PUSH2 0x22E8 JUMP JUMPDEST CALLVALUE DUP1 ISZERO PUSH2 0x3D9 JUMPI PUSH1 0x0 DUP1 REVERT JUMPDEST POP PUSH2 0x2E0 PUSH2 0x3E8 CALLDATASIZE PUSH1 0x4 PUSH2 0x227F JUMP JUMPDEST PUSH2 0x12F4 JUMP JUMPDEST CALLVALUE DUP1 ISZERO PUSH2 0x3F9 JUMPI PUSH1 0x0 DUP1 REVERT JUMPDEST POP PUSH2 0x2E0 PUSH2 0x408 CALLDATASIZE PUSH1 0x4 PUSH2 0x227F JUMP JUMPDEST PUSH2 0x130B JUMP JUMPDEST CALLVALUE DUP1 ISZERO PUSH2 0x419 JUMPI PUSH1 0x0 DUP1 REVERT JUMPDEST POP PUSH2 0x42D PUSH2 0x428 CALLDATASIZE PUSH1 0x4 PUSH2 0x227F JUMP JUMPDEST PUSH2 0x131B JUMP JUMPDEST PUSH1 0x40 MLOAD SWAP1 ISZERO ISZERO DUP2 MSTORE PUSH1 0x20 ADD PUSH2 0x248 JUMP JUMPDEST CALLVALUE DUP1 ISZERO PUSH2 0x449 JUMPI PUSH1 0x0 DUP1 REVERT JUMPDEST POP PUSH2 0x23B PUSH2 0x1345 JUMP JUMPDEST CALLVALUE DUP1 ISZERO PUSH2 0x45E JUMPI PUSH1 0x0 DUP1 REVERT JUMPDEST POP PUSH2 0x2E0 PUSH2 0x46D CALLDATASIZE PUSH1 0x4 PUSH2 0x227F JUMP JUMPDEST PUSH2 0x1355 JUMP JUMPDEST CALLVALUE DUP1 ISZERO PUSH2 0x47E JUMPI PUSH1 0x0 DUP1 REVERT JUMPDEST POP PUSH2 0x206 PUSH2 0x48D CALLDATASIZE PUSH1 0x4 PUSH2 0x22A7 JUMP JUMPDEST PUSH2 0x1366 JUMP JUMPDEST CALLVALUE DUP1 ISZERO PUSH2 0x49E JUMPI PUSH1 0x0 DUP1 REVERT JUMPDEST POP PUSH2 0x10D SLOAD PUSH2 0x330 SWAP1 PUSH1 0x1 PUSH1 0x1 PUSH1 0xA0 SHL SUB AND DUP2 JUMP JUMPDEST CALLVALUE DUP1 ISZERO PUSH2 0x4BF JUMPI PUSH1 0x0 DUP1 REVERT JUMPDEST POP PUSH2 0x2E0 PUSH2 0x4CE CALLDATASIZE PUSH1 0x4 PUSH2 0x227F JUMP JUMPDEST PUSH2 0x1450 JUMP JUMPDEST CALLVALUE DUP1 ISZERO PUSH2 0x4DF JUMPI PUSH1 0x0 DUP1 REVERT JUMPDEST POP PUSH2 0x206 PUSH2 0x4EE CALLDATASIZE PUSH1 0x4 PUSH2 0x22A7 JUMP JUMPDEST PUSH2 0x1460 JUMP JUMPDEST CALLVALUE DUP1 ISZERO PUSH2 0x4FF JUMPI PUSH1 0x0 DUP1 REVERT JUMPDEST POP PUSH2 0x206 PUSH2 0x50E CALLDATASIZE PUSH1 0x4 PUSH2 0x1E82 JUMP JUMPDEST PUSH2 0x1568 JUMP JUMPDEST CALLVALUE DUP1 ISZERO PUSH2 0x51F JUMPI PUSH1 0x0 DUP1 REVERT JUMPDEST POP PUSH2 0x206 PUSH2 0x52E CALLDATASIZE PUSH1 0x4 PUSH2 0x22FB JUMP JUMPDEST PUSH2 0x15E3 JUMP JUMPDEST CALLVALUE DUP1 ISZERO PUSH2 0x53F JUMPI PUSH1 0x0 DUP1 REVERT JUMPDEST POP PUSH2 0x206 PUSH2 0x54E CALLDATASIZE PUSH1 0x4 PUSH2 0x227F JUMP JUMPDEST PUSH2 0x16DD JUMP JUMPDEST CALLVALUE DUP1 ISZERO PUSH2 0x55F JUMPI PUSH1 0x0 DUP1 REVERT JUMPDEST POP PUSH2 0x206 PUSH2 0x56E CALLDATASIZE PUSH1 0x4 PUSH2 0x1E82 JUMP JUMPDEST PUSH2 0x1719 JUMP JUMPDEST CALLVALUE DUP1 ISZERO PUSH2 0x57F JUMPI PUSH1 0x0 DUP1 REVERT JUMPDEST POP PUSH2 0x2E0 PUSH1 0x0 DUP1 MLOAD PUSH1 0x20 PUSH2 0x23F9 DUP4 CODECOPY DUP2 MLOAD SWAP2 MSTORE DUP2 JUMP JUMPDEST PUSH2 0x59D PUSH2 0x1816 JUMP JUMPDEST PUSH2 0x10D SLOAD PUSH1 0x1 PUSH1 0x1 PUSH1 0xA0 SHL SUB AND CALLER EQ PUSH2 0x5C9 JUMPI PUSH1 0x40 MLOAD PUSH4 0x2D99BC83 PUSH1 0xE2 SHL DUP2 MSTORE PUSH1 0x4 ADD PUSH1 0x40 MLOAD DUP1 SWAP2 SUB SWAP1 REVERT JUMPDEST PUSH1 0x1 PUSH1 0x1 PUSH1 0xA0 SHL SUB DUP2 AND PUSH2 0x5F0 JUMPI PUSH1 0x40 MLOAD PUSH4 0xE6C4247B PUSH1 0xE0 SHL DUP2 MSTORE PUSH1 0x4 ADD PUSH1 0x40 MLOAD DUP1 SWAP2 SUB SWAP1 REVERT JUMPDEST PUSH2 0x10D DUP1 SLOAD PUSH1 0x1 PUSH1 0x1 PUSH1 0xA0 SHL SUB NOT AND PUSH1 0x1 PUSH1 0x1 PUSH1 0xA0 SHL SUB DUP4 AND OR SWAP1 SSTORE PUSH1 0x1 DUP1 SSTORE POP JUMP JUMPDEST POP JUMP JUMPDEST PUSH2 0x61E PUSH2 0x1816 JUMP JUMPDEST PUSH2 0x626 PUSH2 0x186F JUMP JUMPDEST DUP2 PUSH1 0x0 JUMPDEST DUP2 DUP2 LT ISZERO PUSH2 0x7C6 JUMPI PUSH1 0x0 PUSH2 0x10E PUSH1 0xFF DUP6 AND DUP8 DUP8 DUP6 DUP2 DUP2 LT PUSH2 0x64D JUMPI PUSH2 0x64D PUSH2 0x2325 JUMP JUMPDEST SWAP1 POP PUSH1 0x20 MUL ADD CALLDATALOAD PUSH2 0x65E SWAP2 SWAP1 PUSH2 0x2351 JUMP JUMPDEST PUSH1 0x81 DUP2 LT PUSH2 0x66E JUMPI PUSH2 0x66E PUSH2 0x2325 JUMP JUMPDEST ADD SLOAD SWAP1 POP PUSH2 0x67B DUP2 PUSH2 0x18C9 JUMP JUMPDEST PUSH1 0x8C DUP2 PUSH1 0x81 DUP2 LT PUSH2 0x68E JUMPI PUSH2 0x68E PUSH2 0x2325 JUMP JUMPDEST ADD SLOAD TIMESTAMP EQ PUSH2 0x7BD JUMPI PUSH1 0x0 PUSH2 0x6A1 DUP3 PUSH2 0x18EA JUMP JUMPDEST GT ISZERO PUSH2 0x7BD JUMPI PUSH1 0x40 MLOAD PUSH4 0xD4626BB9 PUSH1 0xE0 SHL DUP2 MSTORE PUSH1 0x0 DUP1 MLOAD PUSH1 0x20 PUSH2 0x23F9 DUP4 CODECOPY DUP2 MLOAD SWAP2 MSTORE PUSH1 0x4 DUP3 ADD MSTORE PUSH1 0x24 DUP2 ADD DUP3 SWAP1 MSTORE PUSH2 0x805 SWAP1 PUSH4 0xD4626BB9 SWAP1 PUSH1 0x44 ADD PUSH1 0x0 PUSH1 0x40 MLOAD DUP1 DUP4 SUB DUP2 PUSH1 0x0 DUP8 DUP1 EXTCODESIZE ISZERO DUP1 ISZERO PUSH2 0x6F6 JUMPI PUSH1 0x0 DUP1 REVERT JUMPDEST POP GAS CALL ISZERO DUP1 ISZERO PUSH2 0x70A JUMPI RETURNDATASIZE PUSH1 0x0 DUP1 RETURNDATACOPY RETURNDATASIZE PUSH1 0x0 REVERT JUMPDEST POP POP PUSH1 0x40 MLOAD PUSH4 0x69E38BC3 PUSH1 0xE0 SHL DUP2 MSTORE PUSH2 0xFFFF DUP5 AND PUSH1 0x4 DUP3 ADD MSTORE PUSH2 0x808 SWAP3 POP PUSH4 0x69E38BC3 SWAP2 POP PUSH1 0x24 ADD PUSH1 0x20 PUSH1 0x40 MLOAD DUP1 DUP4 SUB DUP2 DUP7 GAS STATICCALL ISZERO DUP1 ISZERO PUSH2 0x74F JUMPI RETURNDATASIZE PUSH1 0x0 DUP1 RETURNDATACOPY RETURNDATASIZE PUSH1 0x0 REVERT JUMPDEST POP POP POP POP PUSH1 0x40 MLOAD RETURNDATASIZE PUSH1 0x1F NOT PUSH1 0x1F DUP3 ADD AND DUP3 ADD DUP1 PUSH1 0x40 MSTORE POP DUP2 ADD SWAP1 PUSH2 0x773 SWAP2 SWAP1 PUSH2 0x2364 JUMP JUMPDEST PUSH1 0xB DUP3 PUSH1 0x81 DUP2 LT PUSH2 0x786 JUMPI PUSH2 0x786 PUSH2 0x2325 JUMP JUMPDEST ADD SSTORE PUSH1 0x0 PUSH1 0x6 DUP3 PUSH1 0x81 DUP2 LT PUSH2 0x79D JUMPI PUSH2 0x79D PUSH2 0x2325 JUMP JUMPDEST PUSH1 0x20 SWAP2 DUP3 DUP3 DIV ADD SWAP2 SWAP1 MOD PUSH2 0x100 EXP DUP2 SLOAD DUP2 PUSH1 0xFF MUL NOT AND SWAP1 DUP4 ISZERO ISZERO MUL OR SWAP1 SSTORE POP JUMPDEST POP PUSH1 0x1 ADD PUSH2 0x62A JUMP JUMPDEST POP POP PUSH2 0x7D1 PUSH1 0x1 DUP1 SSTORE JUMP JUMPDEST POP POP POP JUMP JUMPDEST PUSH2 0x7DE PUSH2 0x1D98 JUMP JUMPDEST DUP4 DUP3 DUP2 EQ PUSH2 0x7FF JUMPI PUSH1 0x40 MLOAD PUSH4 0x512509D3 PUSH1 0xE1 SHL DUP2 MSTORE PUSH1 0x4 ADD PUSH1 0x40 MLOAD DUP1 SWAP2 SUB SWAP1 REVERT JUMPDEST PUSH1 0x0 JUMPDEST DUP2 DUP2 LT ISZERO PUSH2 0x8F5 JUMPI PUSH1 0x1 JUMPDEST PUSH1 0x81 DUP2 LT ISZERO PUSH2 0x8EC JUMPI PUSH2 0x805 PUSH4 0xE3B598FA DUP10 DUP10 DUP6 DUP2 DUP2 LT PUSH2 0x830 JUMPI PUSH2 0x830 PUSH2 0x2325 JUMP JUMPDEST SWAP1 POP PUSH1 0x20 MUL ADD CALLDATALOAD DUP9 DUP9 DUP7 DUP2 DUP2 LT PUSH2 0x849 JUMPI PUSH2 0x849 PUSH2 0x2325 JUMP JUMPDEST PUSH1 0x40 MLOAD PUSH1 0x1 PUSH1 0x1 PUSH1 0xE0 SHL SUB NOT PUSH1 0xE0 DUP8 SWAP1 SHL AND DUP2 MSTORE PUSH1 0x4 DUP2 ADD SWAP5 SWAP1 SWAP5 MSTORE PUSH1 0x20 MUL SWAP2 SWAP1 SWAP2 ADD CALLDATALOAD PUSH1 0x24 DUP4 ADD MSTORE POP PUSH1 0x44 DUP2 ADD DUP5 SWAP1 MSTORE PUSH1 0x64 ADD PUSH1 0x20 PUSH1 0x40 MLOAD DUP1 DUP4 SUB DUP2 DUP7 GAS STATICCALL ISZERO DUP1 ISZERO PUSH2 0x89A JUMPI RETURNDATASIZE PUSH1 0x0 DUP1 RETURNDATACOPY RETURNDATASIZE PUSH1 0x0 REVERT JUMPDEST POP POP POP POP PUSH1 0x40 MLOAD RETURNDATASIZE PUSH1 0x1F NOT PUSH1 0x1F DUP3 ADD AND DUP3 ADD DUP1 PUSH1 0x40 MSTORE POP DUP2 ADD SWAP1 PUSH2 0x8BE SWAP2 SWAP1 PUSH2 0x2364 JUMP JUMPDEST DUP5 DUP3 PUSH1 0x81 DUP2 LT PUSH2 0x8D0 JUMPI PUSH2 0x8D0 PUSH2 0x2325 JUMP JUMPDEST PUSH1 0x20 MUL ADD DUP2 DUP2 MLOAD PUSH2 0x8E1 SWAP2 SWAP1 PUSH2 0x237D JUMP JUMPDEST SWAP1 MSTORE POP PUSH1 0x1 ADD PUSH2 0x80D JUMP JUMPDEST POP PUSH1 0x1 ADD PUSH2 0x802 JUMP JUMPDEST POP POP SWAP5 SWAP4 POP POP POP POP JUMP JUMPDEST PUSH2 0x907 PUSH2 0x1D98 JUMP JUMPDEST PUSH2 0x90F PUSH2 0x1D98 JUMP JUMPDEST PUSH2 0x917 PUSH2 0x1D98 JUMP JUMPDEST PUSH2 0x91F PUSH2 0x1D98 JUMP JUMPDEST PUSH2 0x927 PUSH2 0x1D98 JUMP JUMPDEST PUSH1 0x60 PUSH1 0x0 DUP1 PUSH2 0x934 PUSH2 0x19D8 JUMP JUMPDEST SWAP8 POP PUSH2 0x93E PUSH2 0x1A9D JUMP JUMPDEST PUSH1 0x40 DUP1 MLOAD PUSH2 0x1020 DUP2 ADD SWAP2 DUP3 SWAP1 MSTORE SWAP2 SWAP9 POP PUSH1 0x6 SWAP1 PUSH1 0x81 SWAP1 DUP3 PUSH1 0x0 DUP6 JUMPDEST DUP3 SLOAD PUSH2 0x100 DUP4 SWAP1 EXP SWAP1 DIV PUSH1 0xFF AND ISZERO ISZERO DUP2 MSTORE PUSH1 0x20 PUSH1 0x1 SWAP3 DUP4 ADD DUP2 DUP2 DIV SWAP5 DUP6 ADD SWAP5 SWAP1 SWAP4 SUB SWAP1 SWAP3 MUL SWAP2 ADD DUP1 DUP5 GT PUSH2 0x959 JUMPI SWAP1 POP POP POP POP POP POP SWAP6 POP PUSH2 0x9AD PUSH1 0x0 DUP1 MLOAD PUSH1 0x20 PUSH2 0x23F9 DUP4 CODECOPY DUP2 MLOAD SWAP2 MSTORE PUSH1 0x0 SHL PUSH1 0x5 SLOAD PUSH2 0x1B7A JUMP JUMPDEST SWAP4 POP PUSH2 0x9B7 PUSH2 0x1C71 JUMP JUMPDEST PUSH1 0x40 DUP1 MLOAD PUSH2 0x1020 DUP2 ADD SWAP2 DUP3 SWAP1 MSTORE SWAP2 SWAP5 POP PUSH1 0xB SWAP1 PUSH1 0x81 SWAP1 DUP3 DUP5 JUMPDEST DUP2 SLOAD DUP2 MSTORE PUSH1 0x20 ADD SWAP1 PUSH1 0x1 ADD SWAP1 DUP1 DUP4 GT PUSH2 0x9D0 JUMPI POP POP POP POP POP SWAP5 POP SELFBALANCE SWAP2 POP PUSH2 0x9FF PUSH1 0x0 SLOAD PUSH1 0x1 PUSH1 0x1 PUSH1 0xA0 SHL SUB AND SWAP1 JUMP JUMPDEST PUSH1 0x1 PUSH1 0x1 PUSH1 0xA0 SHL SUB AND BALANCE SWAP1 POP SWAP1 SWAP2 SWAP3 SWAP4 SWAP5 SWAP6 SWAP7 SWAP8 JUMP JUMPDEST PUSH2 0xA1D PUSH2 0x1816 JUMP JUMPDEST PUSH2 0xA25 PUSH2 0x186F JUMP JUMPDEST DUP4 DUP3 DUP2 EQ PUSH2 0xA46 JUMPI PUSH1 0x40 MLOAD PUSH4 0x512509D3 PUSH1 0xE1 SHL DUP2 MSTORE PUSH1 0x4 ADD PUSH1 0x40 MLOAD DUP1 SWAP2 SUB SWAP1 REVERT JUMPDEST PUSH1 0x0 JUMPDEST DUP2 DUP2 LT ISZERO PUSH2 0xC4B JUMPI PUSH1 0x0 PUSH2 0x10E PUSH1 0xFF DUP6 AND DUP10 DUP10 DUP6 DUP2 DUP2 LT PUSH2 0xA6C JUMPI PUSH2 0xA6C PUSH2 0x2325 JUMP JUMPDEST SWAP1 POP PUSH1 0x20 MUL ADD CALLDATALOAD PUSH2 0xA7D SWAP2 SWAP1 PUSH2 0x2351 JUMP JUMPDEST PUSH1 0x81 DUP2 LT PUSH2 0xA8D JUMPI PUSH2 0xA8D PUSH2 0x2325 JUMP JUMPDEST ADD SLOAD SWAP1 POP PUSH2 0xA9A DUP2 PUSH2 0x18C9 JUMP JUMPDEST PUSH1 0x0 DUP7 DUP7 DUP5 DUP2 DUP2 LT PUSH2 0xAAE JUMPI PUSH2 0xAAE PUSH2 0x2325 JUMP JUMPDEST SWAP1 POP PUSH1 0x20 MUL ADD CALLDATALOAD SWAP1 POP PUSH1 0x0 PUSH2 0xAC3 SELFBALANCE DUP4 PUSH2 0x1D1E JUMP JUMPDEST SWAP1 POP DUP1 PUSH1 0x0 SUB PUSH2 0xAE6 JUMPI PUSH1 0x40 MLOAD PUSH4 0x65E52D51 PUSH1 0xE1 SHL DUP2 MSTORE PUSH1 0x4 ADD PUSH1 0x40 MLOAD DUP1 SWAP2 SUB SWAP1 REVERT JUMPDEST PUSH2 0xAEF DUP4 PUSH2 0x18EA JUMP JUMPDEST PUSH1 0x0 SUB PUSH2 0xC3D JUMPI PUSH2 0x805 PUSH4 0x1FC9B141 PUSH1 0x0 DUP1 MLOAD PUSH1 0x20 PUSH2 0x23F9 DUP4 CODECOPY DUP2 MLOAD SWAP2 MSTORE PUSH2 0xB16 DUP5 PUSH2 0x1D38 JUMP JUMPDEST PUSH1 0x40 MLOAD PUSH1 0x1 PUSH1 0x1 PUSH1 0xE0 SHL SUB NOT PUSH1 0xE0 DUP6 SWAP1 SHL AND DUP2 MSTORE PUSH1 0x4 DUP2 ADD SWAP3 SWAP1 SWAP3 MSTORE PUSH1 0x24 DUP3 ADD MSTORE PUSH1 0x44 DUP2 ADD DUP7 SWAP1 MSTORE PUSH1 0x64 ADD PUSH1 0x0 PUSH1 0x40 MLOAD DUP1 DUP4 SUB DUP2 PUSH1 0x0 DUP8 DUP1 EXTCODESIZE ISZERO DUP1 ISZERO PUSH2 0xB5B JUMPI PUSH1 0x0 DUP1 REVERT JUMPDEST POP GAS CALL ISZERO DUP1 ISZERO PUSH2 0xB6F JUMPI RETURNDATASIZE PUSH1 0x0 DUP1 RETURNDATACOPY RETURNDATASIZE PUSH1 0x0 REVERT JUMPDEST POP POP POP POP PUSH1 0x1 PUSH1 0x6 DUP5 PUSH1 0x81 DUP2 LT PUSH2 0xB88 JUMPI PUSH2 0xB88 PUSH2 0x2325 JUMP JUMPDEST PUSH1 0x20 DUP2 DIV SWAP1 SWAP2 ADD DUP1 SLOAD SWAP3 ISZERO ISZERO PUSH1 0x1F SWAP1 SWAP3 AND PUSH2 0x100 EXP SWAP2 DUP3 MUL PUSH1 0xFF SWAP1 SWAP3 MUL NOT SWAP1 SWAP3 AND OR SWAP1 SSTORE PUSH1 0x40 MLOAD PUSH4 0x69E38BC3 PUSH1 0xE0 SHL DUP2 MSTORE PUSH2 0xFFFF DUP5 AND PUSH1 0x4 DUP3 ADD MSTORE PUSH2 0x808 SWAP1 PUSH4 0x69E38BC3 SWAP1 PUSH1 0x24 ADD PUSH1 0x20 PUSH1 0x40 MLOAD DUP1 DUP4 SUB DUP2 DUP7 GAS STATICCALL ISZERO DUP1 ISZERO PUSH2 0xBED JUMPI RETURNDATASIZE PUSH1 0x0 DUP1 RETURNDATACOPY RETURNDATASIZE PUSH1 0x0 REVERT JUMPDEST POP POP POP POP PUSH1 0x40 MLOAD RETURNDATASIZE PUSH1 0x1F NOT PUSH1 0x1F DUP3 ADD AND DUP3 ADD DUP1 PUSH1 0x40 MSTORE POP DUP2 ADD SWAP1 PUSH2 0xC11 SWAP2 SWAP1 PUSH2 0x2364 JUMP JUMPDEST PUSH1 0xB DUP5 PUSH1 0x81 DUP2 LT PUSH2 0xC24 JUMPI PUSH2 0xC24 PUSH2 0x2325 JUMP JUMPDEST ADD SSTORE TIMESTAMP PUSH1 0x8C DUP5 PUSH1 0x81 DUP2 LT PUSH2 0xC3A JUMPI PUSH2 0xC3A PUSH2 0x2325 JUMP JUMPDEST ADD SSTORE JUMPDEST DUP4 PUSH1 0x1 ADD SWAP4 POP POP POP POP PUSH2 0xA49 JUMP JUMPDEST POP POP PUSH2 0xC56 PUSH1 0x1 DUP1 SSTORE JUMP JUMPDEST POP POP POP POP POP JUMP JUMPDEST PUSH2 0xC65 PUSH2 0x1816 JUMP JUMPDEST PUSH2 0xC6D PUSH2 0x186F JUMP JUMPDEST DUP6 DUP5 DUP2 EQ ISZERO DUP1 PUSH2 0xC7D JUMPI POP DUP1 DUP4 EQ ISZERO JUMPDEST ISZERO PUSH2 0xC9B JUMPI PUSH1 0x40 MLOAD PUSH4 0x512509D3 PUSH1 0xE1 SHL DUP2 MSTORE PUSH1 0x4 ADD PUSH1 0x40 MLOAD DUP1 SWAP2 SUB SWAP1 REVERT JUMPDEST PUSH1 0x0 JUMPDEST DUP2 DUP2 LT ISZERO PUSH2 0xF1B JUMPI PUSH1 0x0 DUP8 DUP8 DUP4 DUP2 DUP2 LT PUSH2 0xCBA JUMPI PUSH2 0xCBA PUSH2 0x2325 JUMP JUMPDEST SWAP1 POP PUSH1 0x20 MUL ADD CALLDATALOAD SWAP1 POP DUP1 PUSH1 0x0 EQ PUSH2 0xF12 JUMPI PUSH1 0x0 PUSH2 0x10E PUSH1 0xFF DUP7 AND DUP13 DUP13 DUP7 DUP2 DUP2 LT PUSH2 0xCE6 JUMPI PUSH2 0xCE6 PUSH2 0x2325 JUMP JUMPDEST SWAP1 POP PUSH1 0x20 MUL ADD CALLDATALOAD PUSH2 0xCF7 SWAP2 SWAP1 PUSH2 0x2351 JUMP JUMPDEST PUSH1 0x81 DUP2 LT PUSH2 0xD07 JUMPI PUSH2 0xD07 PUSH2 0x2325 JUMP JUMPDEST ADD SLOAD SWAP1 POP PUSH2 0xD14 DUP2 PUSH2 0x18C9 JUMP JUMPDEST PUSH1 0x40 MLOAD PUSH4 0x69E38BC3 PUSH1 0xE0 SHL DUP2 MSTORE PUSH2 0xFFFF DUP3 AND PUSH1 0x4 DUP3 ADD MSTORE PUSH1 0x0 SWAP1 PUSH2 0x808 SWAP1 PUSH4 0x69E38BC3 SWAP1 PUSH1 0x24 ADD PUSH1 0x20 PUSH1 0x40 MLOAD DUP1 DUP4 SUB DUP2 DUP7 GAS STATICCALL ISZERO DUP1 ISZERO PUSH2 0xD58 JUMPI RETURNDATASIZE PUSH1 0x0 DUP1 RETURNDATACOPY RETURNDATASIZE PUSH1 0x0 REVERT JUMPDEST POP POP POP POP PUSH1 0x40 MLOAD RETURNDATASIZE PUSH1 0x1F NOT PUSH1 0x1F DUP3 ADD AND DUP3 ADD DUP1 PUSH1 0x40 MSTORE POP DUP2 ADD SWAP1 PUSH2 0xD7C SWAP2 SWAP1 PUSH2 0x2364 JUMP JUMPDEST SWAP1 POP DUP1 DUP9 DUP9 DUP7 DUP2 DUP2 LT PUSH2 0xD91 JUMPI PUSH2 0xD91 PUSH2 0x2325 JUMP JUMPDEST SWAP1 POP PUSH1 0x20 MUL ADD CALLDATALOAD LT PUSH2 0xF0F JUMPI PUSH1 0x0 PUSH2 0xDA9 SELFBALANCE DUP6 PUSH2 0x1D1E JUMP JUMPDEST SWAP1 POP DUP1 PUSH1 0x0 SUB PUSH2 0xDCC JUMPI PUSH1 0x40 MLOAD PUSH4 0x65E52D51 PUSH1 0xE1 SHL DUP2 MSTORE PUSH1 0x4 ADD PUSH1 0x40 MLOAD DUP1 SWAP2 SUB SWAP1 REVERT JUMPDEST PUSH2 0x805 PUSH4 0x1FC9B141 PUSH1 0x0 DUP1 MLOAD PUSH1 0x20 PUSH2 0x23F9 DUP4 CODECOPY DUP2 MLOAD SWAP2 MSTORE PUSH2 0xDEC DUP5 PUSH2 0x1D38 JUMP JUMPDEST PUSH1 0x40 MLOAD PUSH1 0x1 PUSH1 0x1 PUSH1 0xE0 SHL SUB NOT PUSH1 0xE0 DUP6 SWAP1 SHL AND DUP2 MSTORE PUSH1 0x4 DUP2 ADD SWAP3 SWAP1 SWAP3 MSTORE PUSH1 0x24 DUP3 ADD MSTORE PUSH1 0x44 DUP2 ADD DUP7 SWAP1 MSTORE PUSH1 0x64 ADD PUSH1 0x0 PUSH1 0x40 MLOAD DUP1 DUP4 SUB DUP2 PUSH1 0x0 DUP8 DUP1 EXTCODESIZE ISZERO DUP1 ISZERO PUSH2 0xE31 JUMPI PUSH1 0x0 DUP1 REVERT JUMPDEST POP GAS CALL ISZERO DUP1 ISZERO PUSH2 0xE45 JUMPI RETURNDATASIZE PUSH1 0x0 DUP1 RETURNDATACOPY RETURNDATASIZE PUSH1 0x0 REVERT JUMPDEST POP POP PUSH1 0x40 MLOAD PUSH4 0x69E38BC3 PUSH1 0xE0 SHL DUP2 MSTORE PUSH2 0xFFFF DUP7 AND PUSH1 0x4 DUP3 ADD MSTORE PUSH2 0x808 SWAP3 POP PUSH4 0x69E38BC3 SWAP2 POP PUSH1 0x24 ADD PUSH1 0x20 PUSH1 0x40 MLOAD DUP1 DUP4 SUB DUP2 DUP7 GAS STATICCALL ISZERO DUP1 ISZERO PUSH2 0xE8A JUMPI RETURNDATASIZE PUSH1 0x0 DUP1 RETURNDATACOPY RETURNDATASIZE PUSH1 0x0 REVERT JUMPDEST POP POP POP POP PUSH1 0x40 MLOAD RETURNDATASIZE PUSH1 0x1F NOT PUSH1 0x1F DUP3 ADD AND DUP3 ADD DUP1 PUSH1 0x40 MSTORE POP DUP2 ADD SWAP1 PUSH2 0xEAE SWAP2 SWAP1 PUSH2 0x2364 JUMP JUMPDEST PUSH1 0xB DUP5 PUSH1 0x81 DUP2 LT PUSH2 0xEC1 JUMPI PUSH2 0xEC1 PUSH2 0x2325 JUMP JUMPDEST ADD SSTORE PUSH1 0x1 PUSH1 0x6 DUP5 PUSH1 0x81 DUP2 LT PUSH2 0xED8 JUMPI PUSH2 0xED8 PUSH2 0x2325 JUMP JUMPDEST PUSH1 0x20 SWAP2 DUP3 DUP3 DIV ADD SWAP2 SWAP1 MOD PUSH2 0x100 EXP DUP2 SLOAD DUP2 PUSH1 0xFF MUL NOT AND SWAP1 DUP4 ISZERO ISZERO MUL OR SWAP1 SSTORE POP TIMESTAMP PUSH1 0x8C DUP5 PUSH1 0x81 DUP2 LT PUSH2 0xF0B JUMPI PUSH2 0xF0B PUSH2 0x2325 JUMP JUMPDEST ADD SSTORE POP JUMPDEST POP POP JUMPDEST POP PUSH1 0x1 ADD PUSH2 0xC9E JUMP JUMPDEST POP POP PUSH2 0xF26 PUSH1 0x1 DUP1 SSTORE JUMP JUMPDEST POP POP POP POP POP POP POP JUMP JUMPDEST PUSH2 0xF37 PUSH2 0x1816 JUMP JUMPDEST PUSH2 0xF3F PUSH2 0x186F JUMP JUMPDEST DUP3 DUP2 EQ PUSH2 0xF5F JUMPI PUSH1 0x40 MLOAD PUSH4 0x512509D3 PUSH1 0xE1 SHL DUP2 MSTORE PUSH1 0x4 ADD PUSH1 0x40 MLOAD DUP1 SWAP2 SUB SWAP1 REVERT JUMPDEST PUSH2 0xF6B PUSH1 0x4 DUP8 DUP8 PUSH2 0x1DB7 JUMP JUMPDEST POP PUSH2 0xF78 PUSH1 0x2 DUP6 DUP6 PUSH2 0x1E16 JUMP JUMPDEST POP PUSH2 0xF85 PUSH1 0x3 DUP4 DUP4 PUSH2 0x1E16 JUMP JUMPDEST POP PUSH2 0xF8F PUSH1 0x1 DUP1 SSTORE JUMP JUMPDEST POP POP POP POP POP POP JUMP JUMPDEST PUSH1 0x3 DUP2 DUP2 SLOAD DUP2 LT PUSH2 0xFA7 JUMPI PUSH1 0x0 DUP1 REVERT JUMPDEST PUSH1 0x0 SWAP2 DUP3 MSTORE PUSH1 0x20 SWAP1 SWAP2 KECCAK256 ADD SLOAD SWAP1 POP DUP2 JUMP JUMPDEST PUSH2 0xFC0 PUSH2 0x186F JUMP JUMPDEST PUSH2 0xFCA PUSH1 0x0 PUSH2 0x1D48 JUMP JUMPDEST JUMP JUMPDEST PUSH2 0xFD4 PUSH2 0x1816 JUMP JUMPDEST PUSH2 0xFDC PUSH2 0x186F JUMP JUMPDEST DUP4 DUP3 DUP2 EQ PUSH2 0xFFD JUMPI PUSH1 0x40 MLOAD PUSH4 0x512509D3 PUSH1 0xE1 SHL DUP2 MSTORE PUSH1 0x4 ADD PUSH1 0x40 MLOAD DUP1 SWAP2 SUB SWAP1 REVERT JUMPDEST PUSH1 0x0 JUMPDEST DUP2 DUP2 LT ISZERO PUSH2 0xC4B JUMPI PUSH1 0x0 PUSH2 0x10E PUSH1 0xFF DUP6 AND DUP10 DUP10 DUP6 DUP2 DUP2 LT PUSH2 0x1023 JUMPI PUSH2 0x1023 PUSH2 0x2325 JUMP JUMPDEST SWAP1 POP PUSH1 0x20 MUL ADD CALLDATALOAD PUSH2 0x1034 SWAP2 SWAP1 PUSH2 0x2351 JUMP JUMPDEST PUSH1 0x81 DUP2 LT PUSH2 0x1044 JUMPI PUSH2 0x1044 PUSH2 0x2325 JUMP JUMPDEST ADD SLOAD SWAP1 POP PUSH2 0x1051 DUP2 PUSH2 0x18C9 JUMP JUMPDEST PUSH1 0x40 MLOAD PUSH4 0x69E38BC3 PUSH1 0xE0 SHL DUP2 MSTORE PUSH2 0xFFFF DUP3 AND PUSH1 0x4 DUP3 ADD MSTORE PUSH1 0x0 SWAP1 PUSH2 0x808 SWAP1 PUSH4 0x69E38BC3 SWAP1 PUSH1 0x24 ADD PUSH1 0x20 PUSH1 0x40 MLOAD DUP1 DUP4 SUB DUP2 DUP7 GAS STATICCALL ISZERO DUP1 ISZERO PUSH2 0x1095 JUMPI RETURNDATASIZE PUSH1 0x0 DUP1 RETURNDATACOPY RETURNDATASIZE PUSH1 0x0 REVERT JUMPDEST POP POP POP POP PUSH1 0x40 MLOAD RETURNDATASIZE PUSH1 0x1F NOT PUSH1 0x1F DUP3 ADD AND DUP3 ADD DUP1 PUSH1 0x40 MSTORE POP DUP2 ADD SWAP1 PUSH2 0x10B9 SWAP2 SWAP1 PUSH2 0x2364 JUMP JUMPDEST SWAP1 POP DUP1 DUP8 DUP8 DUP6 DUP2 DUP2 LT PUSH2 0x10CE JUMPI PUSH2 0x10CE PUSH2 0x2325 JUMP JUMPDEST SWAP1 POP PUSH1 0x20 MUL ADD CALLDATALOAD GT PUSH2 0x120B JUMPI PUSH1 0x8C DUP3 PUSH1 0x81 DUP2 LT PUSH2 0x10ED JUMPI PUSH2 0x10ED PUSH2 0x2325 JUMP JUMPDEST ADD SLOAD TIMESTAMP EQ PUSH2 0x120B JUMPI PUSH1 0x40 MLOAD PUSH4 0xD4626BB9 PUSH1 0xE0 SHL DUP2 MSTORE PUSH1 0x0 DUP1 MLOAD PUSH1 0x20 PUSH2 0x23F9 DUP4 CODECOPY DUP2 MLOAD SWAP2 MSTORE PUSH1 0x4 DUP3 ADD MSTORE PUSH1 0x24 DUP2 ADD DUP4 SWAP1 MSTORE PUSH2 0x805 SWAP1 PUSH4 0xD4626BB9 SWAP1 PUSH1 0x44 ADD PUSH1 0x0 PUSH1 0x40 MLOAD DUP1 DUP4 SUB DUP2 PUSH1 0x0 DUP8 DUP1 EXTCODESIZE ISZERO DUP1 ISZERO PUSH2 0x1144 JUMPI PUSH1 0x0 DUP1 REVERT JUMPDEST POP GAS CALL ISZERO DUP1 ISZERO PUSH2 0x1158 JUMPI RETURNDATASIZE PUSH1 0x0 DUP1 RETURNDATACOPY RETURNDATASIZE PUSH1 0x0 REVERT JUMPDEST POP POP PUSH1 0x40 MLOAD PUSH4 0x69E38BC3 PUSH1 0xE0 SHL DUP2 MSTORE PUSH2 0xFFFF DUP6 AND PUSH1 0x4 DUP3 ADD MSTORE PUSH2 0x808 SWAP3 POP PUSH4 0x69E38BC3 SWAP2 POP PUSH1 0x24 ADD PUSH1 0x20 PUSH1 0x40 MLOAD DUP1 DUP4 SUB DUP2 DUP7 GAS STATICCALL ISZERO DUP1 ISZERO PUSH2 0x119D JUMPI RETURNDATASIZE PUSH1 0x0 DUP1 RETURNDATACOPY RETURNDATASIZE PUSH1 0x0 REVERT JUMPDEST POP POP POP POP PUSH1 0x40 MLOAD RETURNDATASIZE PUSH1 0x1F NOT PUSH1 0x1F DUP3 ADD AND DUP3 ADD DUP1 PUSH1 0x40 MSTORE POP DUP2 ADD SWAP1 PUSH2 0x11C1 SWAP2 SWAP1 PUSH2 0x2364 JUMP JUMPDEST PUSH1 0xB DUP4 PUSH1 0x81 DUP2 LT PUSH2 0x11D4 JUMPI PUSH2 0x11D4 PUSH2 0x2325 JUMP JUMPDEST ADD SSTORE PUSH1 0x0 PUSH1 0x6 DUP4 PUSH1 0x81 DUP2 LT PUSH2 0x11EB JUMPI PUSH2 0x11EB PUSH2 0x2325 JUMP JUMPDEST PUSH1 0x20 SWAP2 DUP3 DUP3 DIV ADD SWAP2 SWAP1 MOD PUSH2 0x100 EXP DUP2 SLOAD DUP2 PUSH1 0xFF MUL NOT AND SWAP1 DUP4 ISZERO ISZERO MUL OR SWAP1 SSTORE POP JUMPDEST POP POP PUSH1 0x1 ADD PUSH2 0x1000 JUMP JUMPDEST PUSH1 0x4 DUP2 DUP2 SLOAD DUP2 LT PUSH2 0x1225 JUMPI PUSH1 0x0 DUP1 REVERT JUMPDEST PUSH1 0x0 SWAP2 DUP3 MSTORE PUSH1 0x20 SWAP1 SWAP2 KECCAK256 ADD SLOAD PUSH1 0x1 PUSH1 0x1 PUSH1 0xA0 SHL SUB AND SWAP1 POP DUP2 JUMP JUMPDEST PUSH2 0x1247 PUSH2 0x1D98 JUMP JUMPDEST PUSH2 0x124F PUSH2 0x1A9D JUMP JUMPDEST SWAP1 POP SWAP1 JUMP JUMPDEST PUSH1 0x60 DUP2 DUP1 PUSH1 0x1 PUSH1 0x1 PUSH1 0x40 SHL SUB DUP2 GT ISZERO PUSH2 0x126F JUMPI PUSH2 0x126F PUSH2 0x2390 JUMP JUMPDEST PUSH1 0x40 MLOAD SWAP1 DUP1 DUP3 MSTORE DUP1 PUSH1 0x20 MUL PUSH1 0x20 ADD DUP3 ADD PUSH1 0x40 MSTORE DUP1 ISZERO PUSH2 0x1298 JUMPI DUP2 PUSH1 0x20 ADD PUSH1 0x20 DUP3 MUL DUP1 CALLDATASIZE DUP4 CALLDATACOPY ADD SWAP1 POP JUMPDEST POP SWAP2 POP PUSH1 0x0 JUMPDEST DUP2 DUP2 LT ISZERO PUSH2 0x12EC JUMPI PUSH2 0x12C7 DUP6 DUP6 DUP4 DUP2 DUP2 LT PUSH2 0x12BB JUMPI PUSH2 0x12BB PUSH2 0x2325 JUMP JUMPDEST SWAP1 POP PUSH1 0x20 MUL ADD CALLDATALOAD PUSH2 0x18EA JUMP JUMPDEST DUP4 DUP3 DUP2 MLOAD DUP2 LT PUSH2 0x12D9 JUMPI PUSH2 0x12D9 PUSH2 0x2325 JUMP JUMPDEST PUSH1 0x20 SWAP1 DUP2 MUL SWAP2 SWAP1 SWAP2 ADD ADD MSTORE PUSH1 0x1 ADD PUSH2 0x129E JUMP JUMPDEST POP POP SWAP3 SWAP2 POP POP JUMP JUMPDEST PUSH1 0x8C DUP2 PUSH1 0x81 DUP2 LT PUSH2 0x1304 JUMPI PUSH1 0x0 DUP1 REVERT JUMPDEST ADD SLOAD SWAP1 POP DUP2 JUMP JUMPDEST PUSH1 0x2 DUP2 DUP2 SLOAD DUP2 LT PUSH2 0xFA7 JUMPI PUSH1 0x0 DUP1 REVERT JUMPDEST PUSH1 0x6 DUP2 PUSH1 0x81 DUP2 LT PUSH2 0x132B JUMPI PUSH1 0x0 DUP1 REVERT JUMPDEST PUSH1 0x20 SWAP2 DUP3 DUP3 DIV ADD SWAP2 SWAP1 MOD SWAP2 POP SLOAD SWAP1 PUSH2 0x100 EXP SWAP1 DIV PUSH1 0xFF AND DUP2 JUMP JUMPDEST PUSH2 0x134D PUSH2 0x1D98 JUMP JUMPDEST PUSH2 0x124F PUSH2 0x19D8 JUMP JUMPDEST PUSH2 0x10E DUP2 PUSH1 0x81 DUP2 LT PUSH2 0x1304 JUMPI PUSH1 0x0 DUP1 REVERT JUMPDEST PUSH2 0x136E PUSH2 0x1816 JUMP JUMPDEST PUSH2 0x1376 PUSH2 0x186F JUMP JUMPDEST DUP1 PUSH1 0x0 JUMPDEST DUP2 DUP2 LT ISZERO PUSH2 0x1441 JUMPI PUSH1 0x0 DUP5 DUP5 DUP4 DUP2 DUP2 LT PUSH2 0x1396 JUMPI PUSH2 0x1396 PUSH2 0x2325 JUMP JUMPDEST SWAP1 POP PUSH1 0x20 MUL ADD CALLDATALOAD SWAP1 POP PUSH2 0x13A8 DUP2 PUSH2 0x18C9 JUMP JUMPDEST PUSH1 0x40 MLOAD PUSH4 0x69E38BC3 PUSH1 0xE0 SHL DUP2 MSTORE PUSH2 0xFFFF DUP3 AND PUSH1 0x4 DUP3 ADD MSTORE PUSH2 0x808 SWAP1 PUSH4 0x69E38BC3 SWAP1 PUSH1 0x24 ADD PUSH1 0x20 PUSH1 0x40 MLOAD DUP1 DUP4 SUB DUP2 DUP7 GAS STATICCALL ISZERO DUP1 ISZERO PUSH2 0x13E9 JUMPI RETURNDATASIZE PUSH1 0x0 DUP1 RETURNDATACOPY RETURNDATASIZE PUSH1 0x0 REVERT JUMPDEST POP POP POP POP PUSH1 0x40 MLOAD RETURNDATASIZE PUSH1 0x1F NOT PUSH1 0x1F DUP3 ADD AND DUP3 ADD DUP1 PUSH1 0x40 MSTORE POP DUP2 ADD SWAP1 PUSH2 0x140D SWAP2 SWAP1 PUSH2 0x2364 JUMP JUMPDEST PUSH1 0xB DUP3 PUSH1 0x81 DUP2 LT PUSH2 0x1420 JUMPI PUSH2 0x1420 PUSH2 0x2325 JUMP JUMPDEST ADD SSTORE TIMESTAMP PUSH1 0x8C DUP3 PUSH1 0x81 DUP2 LT PUSH2 0x1436 JUMPI PUSH2 0x1436 PUSH2 0x2325 JUMP JUMPDEST ADD SSTORE POP PUSH1 0x1 ADD PUSH2 0x137A JUMP JUMPDEST POP POP PUSH2 0x144C PUSH1 0x1 DUP1 SSTORE JUMP JUMPDEST POP POP JUMP JUMPDEST PUSH1 0xB DUP2 PUSH1 0x81 DUP2 LT PUSH2 0x1304 JUMPI PUSH1 0x0 DUP1 REVERT JUMPDEST PUSH2 0x1468 PUSH2 0x1816 JUMP JUMPDEST PUSH2 0x1470 PUSH2 0x186F JUMP JUMPDEST DUP1 PUSH1 0x0 JUMPDEST DUP2 DUP2 LT ISZERO PUSH2 0x1441 JUMPI PUSH1 0x0 DUP5 DUP5 DUP4 DUP2 DUP2 LT PUSH2 0x1490 JUMPI PUSH2 0x1490 PUSH2 0x2325 JUMP JUMPDEST SWAP1 POP PUSH1 0x20 MUL ADD CALLDATALOAD SWAP1 POP PUSH2 0x14A2 DUP2 PUSH2 0x18C9 JUMP JUMPDEST PUSH1 0x5 SLOAD PUSH1 0x40 MLOAD PUSH4 0x71DACC7D PUSH1 0xE1 SHL DUP2 MSTORE PUSH1 0x0 DUP1 MLOAD PUSH1 0x20 PUSH2 0x23F9 DUP4 CODECOPY DUP2 MLOAD SWAP2 MSTORE PUSH1 0x4 DUP3 ADD MSTORE PUSH1 0x24 DUP2 ADD SWAP2 SWAP1 SWAP2 MSTORE PUSH1 0x44 DUP2 ADD DUP3 SWAP1 MSTORE PUSH2 0x805 SWAP1 PUSH4 0xE3B598FA SWAP1 PUSH1 0x64 ADD PUSH1 0x20 PUSH1 0x40 MLOAD DUP1 DUP4 SUB DUP2 DUP7 GAS STATICCALL ISZERO DUP1 ISZERO PUSH2 0x14FF JUMPI RETURNDATASIZE PUSH1 0x0 DUP1 RETURNDATACOPY RETURNDATASIZE PUSH1 0x0 REVERT JUMPDEST POP POP POP POP PUSH1 0x40 MLOAD RETURNDATASIZE PUSH1 0x1F NOT PUSH1 0x1F DUP3 ADD AND DUP3 ADD DUP1 PUSH1 0x40 MSTORE POP DUP2 ADD SWAP1 PUSH2 0x1523 SWAP2 SWAP1 PUSH2 0x2364 JUMP JUMPDEST PUSH1 0x0 SUB PUSH2 0x155F JUMPI PUSH1 0x0 PUSH1 0x6 DUP3 PUSH1 0x81 DUP2 LT PUSH2 0x153F JUMPI PUSH2 0x153F PUSH2 0x2325 JUMP JUMPDEST PUSH1 0x20 SWAP2 DUP3 DUP3 DIV ADD SWAP2 SWAP1 MOD PUSH2 0x100 EXP DUP2 SLOAD DUP2 PUSH1 0xFF MUL NOT AND SWAP1 DUP4 ISZERO ISZERO MUL OR SWAP1 SSTORE POP JUMPDEST POP PUSH1 0x1 ADD PUSH2 0x1474 JUMP JUMPDEST PUSH2 0x1570 PUSH2 0x186F JUMP JUMPDEST PUSH1 0x1 PUSH1 0x1 PUSH1 0xA0 SHL SUB DUP2 AND PUSH2 0x15DA JUMPI PUSH1 0x40 MLOAD PUSH3 0x461BCD PUSH1 0xE5 SHL DUP2 MSTORE PUSH1 0x20 PUSH1 0x4 DUP3 ADD MSTORE PUSH1 0x26 PUSH1 0x24 DUP3 ADD MSTORE PUSH32 0x4F776E61626C653A206E6577206F776E657220697320746865207A65726F2061 PUSH1 0x44 DUP3 ADD MSTORE PUSH6 0x646472657373 PUSH1 0xD0 SHL PUSH1 0x64 DUP3 ADD MSTORE PUSH1 0x84 ADD JUMPDEST PUSH1 0x40 MLOAD DUP1 SWAP2 SUB SWAP1 REVERT JUMPDEST PUSH2 0x613 DUP2 PUSH2 0x1D48 JUMP JUMPDEST PUSH2 0x15EB PUSH2 0x1816 JUMP JUMPDEST PUSH2 0x10D SLOAD PUSH1 0x1 PUSH1 0x1 PUSH1 0xA0 SHL SUB AND CALLER EQ PUSH2 0x1617 JUMPI PUSH1 0x40 MLOAD PUSH4 0x2D99BC83 PUSH1 0xE2 SHL DUP2 MSTORE PUSH1 0x4 ADD PUSH1 0x40 MLOAD DUP1 SWAP2 SUB SWAP1 REVERT JUMPDEST PUSH1 0x1 PUSH1 0x1 PUSH1 0xA0 SHL SUB DUP3 AND PUSH2 0x163E JUMPI PUSH1 0x40 MLOAD PUSH4 0xE6C4247B PUSH1 0xE0 SHL DUP2 MSTORE PUSH1 0x4 ADD PUSH1 0x40 MLOAD DUP1 SWAP2 SUB SWAP1 REVERT JUMPDEST DUP1 PUSH1 0x0 SUB PUSH2 0x165F JUMPI PUSH1 0x40 MLOAD PUSH4 0x65E52D51 PUSH1 0xE1 SHL DUP2 MSTORE PUSH1 0x4 ADD PUSH1 0x40 MLOAD DUP1 SWAP2 SUB SWAP1 REVERT JUMPDEST PUSH1 0x0 DUP3 PUSH1 0x1 PUSH1 0x1 PUSH1 0xA0 SHL SUB AND DUP3 PUSH1 0x40 MLOAD PUSH1 0x0 PUSH1 0x40 MLOAD DUP1 DUP4 SUB DUP2 DUP6 DUP8 GAS CALL SWAP3 POP POP POP RETURNDATASIZE DUP1 PUSH1 0x0 DUP2 EQ PUSH2 0x16AC JUMPI PUSH1 0x40 MLOAD SWAP2 POP PUSH1 0x1F NOT PUSH1 0x3F RETURNDATASIZE ADD AND DUP3 ADD PUSH1 0x40 MSTORE RETURNDATASIZE DUP3 MSTORE RETURNDATASIZE PUSH1 0x0 PUSH1 0x20 DUP5 ADD RETURNDATACOPY PUSH2 0x16B1 JUMP JUMPDEST PUSH1 0x60 SWAP2 POP JUMPDEST POP POP SWAP1 POP DUP1 PUSH2 0x16D3 JUMPI PUSH1 0x40 MLOAD PUSH4 0x12171D83 PUSH1 0xE3 SHL DUP2 MSTORE PUSH1 0x4 ADD PUSH1 0x40 MLOAD DUP1 SWAP2 SUB SWAP1 REVERT JUMPDEST POP PUSH2 0x144C PUSH1 0x1 DUP1 SSTORE JUMP JUMPDEST PUSH2 0x16E5 PUSH2 0x1816 JUMP JUMPDEST PUSH2 0x16ED PUSH2 0x186F JUMP JUMPDEST DUP1 PUSH2 0x170B JUMPI PUSH1 0x40 MLOAD PUSH4 0x666B0C5D PUSH1 0xE0 SHL DUP2 MSTORE PUSH1 0x4 ADD PUSH1 0x40 MLOAD DUP1 SWAP2 SUB SWAP1 REVERT JUMPDEST PUSH1 0x5 DUP2 SWAP1 SSTORE PUSH2 0x613 PUSH1 0x1 DUP1 SSTORE JUMP JUMPDEST PUSH2 0x1721 PUSH2 0x1816 JUMP JUMPDEST PUSH2 0x10D SLOAD PUSH1 0x1 PUSH1 0x1 PUSH1 0xA0 SHL SUB AND CALLER EQ PUSH2 0x174D JUMPI PUSH1 0x40 MLOAD PUSH4 0x2D99BC83 PUSH1 0xE2 SHL DUP2 MSTORE PUSH1 0x4 ADD PUSH1 0x40 MLOAD DUP1 SWAP2 SUB SWAP1 REVERT JUMPDEST PUSH1 0x1 PUSH1 0x1 PUSH1 0xA0 SHL SUB DUP2 AND PUSH2 0x1774 JUMPI PUSH1 0x40 MLOAD PUSH4 0xE6C4247B PUSH1 0xE0 SHL DUP2 MSTORE PUSH1 0x4 ADD PUSH1 0x40 MLOAD DUP1 SWAP2 SUB SWAP1 REVERT JUMPDEST SELFBALANCE PUSH1 0x0 DUP2 SWAP1 SUB PUSH2 0x1797 JUMPI PUSH1 0x40 MLOAD PUSH4 0x65E52D51 PUSH1 0xE1 SHL DUP2 MSTORE PUSH1 0x4 ADD PUSH1 0x40 MLOAD DUP1 SWAP2 SUB SWAP1 REVERT JUMPDEST PUSH1 0x0 DUP3 PUSH1 0x1 PUSH1 0x1 PUSH1 0xA0 SHL SUB AND DUP3 PUSH1 0x40 MLOAD PUSH1 0x0 PUSH1 0x40 MLOAD DUP1 DUP4 SUB DUP2 DUP6 DUP8 GAS CALL SWAP3 POP POP POP RETURNDATASIZE DUP1 PUSH1 0x0 DUP2 EQ PUSH2 0x17E4 JUMPI PUSH1 0x40 MLOAD SWAP2 POP PUSH1 0x1F NOT PUSH1 0x3F RETURNDATASIZE ADD AND DUP3 ADD PUSH1 0x40 MSTORE RETURNDATASIZE DUP3 MSTORE RETURNDATASIZE PUSH1 0x0 PUSH1 0x20 DUP5 ADD RETURNDATACOPY PUSH2 0x17E9 JUMP JUMPDEST PUSH1 0x60 SWAP2 POP JUMPDEST POP POP SWAP1 POP DUP1 PUSH2 0x180B JUMPI PUSH1 0x40 MLOAD PUSH4 0x12171D83 PUSH1 0xE3 SHL DUP2 MSTORE PUSH1 0x4 ADD PUSH1 0x40 MLOAD DUP1 SWAP2 SUB SWAP1 REVERT JUMPDEST POP POP PUSH2 0x613 PUSH1 0x1 DUP1 SSTORE JUMP JUMPDEST PUSH1 0x2 PUSH1 0x1 SLOAD SUB PUSH2 0x1868 JUMPI PUSH1 0x40 MLOAD PUSH3 0x461BCD PUSH1 0xE5 SHL DUP2 MSTORE PUSH1 0x20 PUSH1 0x4 DUP3 ADD MSTORE PUSH1 0x1F PUSH1 0x24 DUP3 ADD MSTORE PUSH32 0x5265656E7472616E637947756172643A207265656E7472616E742063616C6C00 PUSH1 0x44 DUP3 ADD MSTORE PUSH1 0x64 ADD PUSH2 0x15D1 JUMP JUMPDEST PUSH1 0x2 PUSH1 0x1 SSTORE JUMP JUMPDEST PUSH1 0x0 SLOAD PUSH1 0x1 PUSH1 0x1 PUSH1 0xA0 SHL SUB AND CALLER EQ PUSH2 0xFCA JUMPI PUSH1 0x40 MLOAD PUSH3 0x461BCD PUSH1 0xE5 SHL DUP2 MSTORE PUSH1 0x20 PUSH1 0x4 DUP3 ADD DUP2 SWAP1 MSTORE PUSH1 0x24 DUP3 ADD MSTORE PUSH32 0x4F776E61626C653A2063616C6C6572206973206E6F7420746865206F776E6572 PUSH1 0x44 DUP3 ADD MSTORE PUSH1 0x64 ADD PUSH2 0x15D1 JUMP JUMPDEST PUSH1 0x81 DUP2 LT PUSH2 0x613 JUMPI PUSH1 0x40 MLOAD PUSH4 0x68A3A6C3 PUSH1 0xE1 SHL DUP2 MSTORE PUSH1 0x4 ADD PUSH1 0x40 MLOAD DUP1 SWAP2 SUB SWAP1 REVERT JUMPDEST PUSH1 0x2 SLOAD PUSH1 0x0 SWAP1 DUP2 SWAP1 DUP2 JUMPDEST DUP2 DUP2 LT ISZERO PUSH2 0x19CF JUMPI PUSH1 0x0 PUSH2 0x805 PUSH1 0x1 PUSH1 0x1 PUSH1 0xA0 SHL SUB AND PUSH4 0xE3B598FA PUSH1 0x2 DUP5 DUP2 SLOAD DUP2 LT PUSH2 0x1922 JUMPI PUSH2 0x1922 PUSH2 0x2325 JUMP JUMPDEST SWAP1 PUSH1 0x0 MSTORE PUSH1 0x20 PUSH1 0x0 KECCAK256 ADD SLOAD PUSH1 0x3 DUP6 DUP2 SLOAD DUP2 LT PUSH2 0x1940 JUMPI PUSH2 0x1940 PUSH2 0x2325 JUMP JUMPDEST PUSH1 0x0 SWAP2 DUP3 MSTORE PUSH1 0x20 SWAP1 SWAP2 KECCAK256 ADD SLOAD PUSH1 0x40 MLOAD PUSH1 0x1 PUSH1 0x1 PUSH1 0xE0 SHL SUB NOT PUSH1 0xE0 DUP6 SWAP1 SHL AND DUP2 MSTORE PUSH1 0x4 DUP2 ADD SWAP3 SWAP1 SWAP3 MSTORE PUSH1 0x24 DUP3 ADD MSTORE PUSH1 0x44 DUP2 ADD DUP10 SWAP1 MSTORE PUSH1 0x64 ADD PUSH1 0x20 PUSH1 0x40 MLOAD DUP1 DUP4 SUB DUP2 DUP7 GAS STATICCALL ISZERO DUP1 ISZERO PUSH2 0x1994 JUMPI RETURNDATASIZE PUSH1 0x0 DUP1 RETURNDATACOPY RETURNDATASIZE PUSH1 0x0 REVERT JUMPDEST POP POP POP POP PUSH1 0x40 MLOAD RETURNDATASIZE PUSH1 0x1F NOT PUSH1 0x1F DUP3 ADD AND DUP3 ADD DUP1 PUSH1 0x40 MSTORE POP DUP2 ADD SWAP1 PUSH2 0x19B8 SWAP2 SWAP1 PUSH2 0x2364 JUMP JUMPDEST SWAP1 POP PUSH2 0x19C4 DUP2 DUP6 PUSH2 0x237D JUMP JUMPDEST SWAP4 POP POP PUSH1 0x1 ADD PUSH2 0x18F4 JUMP JUMPDEST POP SWAP1 SWAP4 SWAP3 POP POP POP JUMP JUMPDEST PUSH2 0x19E0 PUSH2 0x1D98 JUMP JUMPDEST PUSH1 0x0 JUMPDEST PUSH1 0x81 PUSH2 0xFFFF DUP3 AND LT ISZERO PUSH2 0x1A99 JUMPI PUSH1 0x40 MLOAD PUSH4 0x69E38BC3 PUSH1 0xE0 SHL DUP2 MSTORE PUSH2 0xFFFF DUP3 AND PUSH1 0x4 DUP3 ADD MSTORE PUSH2 0x808 SWAP1 PUSH4 0x69E38BC3 SWAP1 PUSH1 0x24 ADD PUSH1 0x20 PUSH1 0x40 MLOAD DUP1 DUP4 SUB DUP2 DUP7 GAS STATICCALL SWAP3 POP POP POP DUP1 ISZERO PUSH2 0x1A4D JUMPI POP PUSH1 0x40 DUP1 MLOAD PUSH1 0x1F RETURNDATASIZE SWAP1 DUP2 ADD PUSH1 0x1F NOT AND DUP3 ADD SWAP1 SWAP3 MSTORE PUSH2 0x1A4A SWAP2 DUP2 ADD SWAP1 PUSH2 0x2364 JUMP JUMPDEST PUSH1 0x1 JUMPDEST PUSH2 0x1A73 JUMPI PUSH1 0x0 DUP3 DUP3 PUSH2 0xFFFF AND PUSH1 0x81 DUP2 LT PUSH2 0x1A69 JUMPI PUSH2 0x1A69 PUSH2 0x2325 JUMP JUMPDEST PUSH1 0x20 MUL ADD MSTORE PUSH2 0x1A91 JUMP JUMPDEST DUP1 DUP4 DUP4 PUSH2 0xFFFF AND PUSH1 0x81 DUP2 LT PUSH2 0x1A8A JUMPI PUSH2 0x1A8A PUSH2 0x2325 JUMP JUMPDEST PUSH1 0x20 MUL ADD MSTORE POP JUMPDEST PUSH1 0x1 ADD PUSH2 0x19E3 JUMP JUMPDEST POP SWAP1 JUMP JUMPDEST PUSH2 0x1AA5 PUSH2 0x1D98 JUMP JUMPDEST PUSH1 0x0 JUMPDEST PUSH1 0x81 PUSH2 0xFFFF DUP3 AND LT ISZERO PUSH2 0x1A99 JUMPI PUSH1 0x40 MLOAD PUSH4 0x2D9BFC71 PUSH1 0xE0 SHL DUP2 MSTORE PUSH2 0xFFFF DUP3 AND PUSH1 0x4 DUP3 ADD MSTORE PUSH2 0x808 SWAP1 PUSH4 0x2D9BFC71 SWAP1 PUSH1 0x24 ADD PUSH1 0x20 PUSH1 0x40 MLOAD DUP1 DUP4 SUB DUP2 DUP7 GAS STATICCALL SWAP3 POP POP POP DUP1 ISZERO PUSH2 0x1B12 JUMPI POP PUSH1 0x40 DUP1 MLOAD PUSH1 0x1F RETURNDATASIZE SWAP1 DUP2 ADD PUSH1 0x1F NOT AND DUP3 ADD SWAP1 SWAP3 MSTORE PUSH2 0x1B0F SWAP2 DUP2 ADD SWAP1 PUSH2 0x23A6 JUMP JUMPDEST PUSH1 0x1 JUMPDEST PUSH2 0x1B46 JUMPI PUSH1 0x0 DUP3 DUP3 PUSH2 0xFFFF AND PUSH1 0x81 DUP2 LT PUSH2 0x1B2E JUMPI PUSH2 0x1B2E PUSH2 0x2325 JUMP JUMPDEST PUSH1 0x1 PUSH1 0x1 PUSH1 0x40 SHL SUB SWAP1 SWAP3 AND PUSH1 0x20 SWAP3 SWAP1 SWAP3 MUL ADD MSTORE PUSH2 0x1B72 JUMP JUMPDEST DUP1 DUP4 DUP4 PUSH2 0xFFFF AND PUSH1 0x81 DUP2 LT PUSH2 0x1B5D JUMPI PUSH2 0x1B5D PUSH2 0x2325 JUMP JUMPDEST PUSH1 0x1 PUSH1 0x1 PUSH1 0x40 SHL SUB SWAP1 SWAP3 AND PUSH1 0x20 SWAP3 SWAP1 SWAP3 MUL ADD MSTORE POP JUMPDEST PUSH1 0x1 ADD PUSH2 0x1AA8 JUMP JUMPDEST PUSH2 0x1B82 PUSH2 0x1D98 JUMP JUMPDEST PUSH1 0x1 JUMPDEST PUSH1 0x81 DUP2 LT ISZERO PUSH2 0x1C6A JUMPI PUSH1 0x6 DUP2 PUSH1 0x81 DUP2 LT PUSH2 0x1BA1 JUMPI PUSH2 0x1BA1 PUSH2 0x2325 JUMP JUMPDEST PUSH1 0x20 DUP2 DIV SWAP1 SWAP2 ADD SLOAD PUSH1 0xFF PUSH1 0x1F SWAP1 SWAP3 AND PUSH2 0x100 EXP SWAP1 DIV AND ISZERO PUSH2 0x1C48 JUMPI PUSH1 0x40 MLOAD PUSH4 0x71DACC7D PUSH1 0xE1 SHL DUP2 MSTORE PUSH1 0x4 DUP2 ADD DUP6 SWAP1 MSTORE PUSH1 0x24 DUP2 ADD DUP5 SWAP1 MSTORE PUSH1 0x44 DUP2 ADD DUP3 SWAP1 MSTORE PUSH2 0x805 SWAP1 PUSH4 0xE3B598FA SWAP1 PUSH1 0x64 ADD PUSH1 0x20 PUSH1 0x40 MLOAD DUP1 DUP4 SUB DUP2 DUP7 GAS STATICCALL ISZERO DUP1 ISZERO PUSH2 0x1C08 JUMPI RETURNDATASIZE PUSH1 0x0 DUP1 RETURNDATACOPY RETURNDATASIZE PUSH1 0x0 REVERT JUMPDEST POP POP POP POP PUSH1 0x40 MLOAD RETURNDATASIZE PUSH1 0x1F NOT PUSH1 0x1F DUP3 ADD AND DUP3 ADD DUP1 PUSH1 0x40 MSTORE POP DUP2 ADD SWAP1 PUSH2 0x1C2C SWAP2 SWAP1 PUSH2 0x2364 JUMP JUMPDEST DUP3 DUP3 PUSH1 0x81 DUP2 LT PUSH2 0x1C3E JUMPI PUSH2 0x1C3E PUSH2 0x2325 JUMP JUMPDEST PUSH1 0x20 MUL ADD MSTORE PUSH2 0x1C62 JUMP JUMPDEST PUSH1 0x0 DUP3 DUP3 PUSH1 0x81 DUP2 LT PUSH2 0x1C5C JUMPI PUSH2 0x1C5C PUSH2 0x2325 JUMP JUMPDEST PUSH1 0x20 MUL ADD MSTORE JUMPDEST PUSH1 0x1 ADD PUSH2 0x1B85 JUMP JUMPDEST POP SWAP3 SWAP2 POP POP JUMP JUMPDEST PUSH1 0x4 SLOAD PUSH1 0x60 SWAP1 DUP1 PUSH1 0x1 PUSH1 0x1 PUSH1 0x40 SHL SUB DUP2 GT ISZERO PUSH2 0x1C8F JUMPI PUSH2 0x1C8F PUSH2 0x2390 JUMP JUMPDEST PUSH1 0x40 MLOAD SWAP1 DUP1 DUP3 MSTORE DUP1 PUSH1 0x20 MUL PUSH1 0x20 ADD DUP3 ADD PUSH1 0x40 MSTORE DUP1 ISZERO PUSH2 0x1CB8 JUMPI DUP2 PUSH1 0x20 ADD PUSH1 0x20 DUP3 MUL DUP1 CALLDATASIZE DUP4 CALLDATACOPY ADD SWAP1 POP JUMPDEST POP SWAP2 POP PUSH1 0x0 JUMPDEST DUP2 DUP2 LT ISZERO PUSH2 0x1D19 JUMPI PUSH1 0x4 DUP2 DUP2 SLOAD DUP2 LT PUSH2 0x1CD9 JUMPI PUSH2 0x1CD9 PUSH2 0x2325 JUMP JUMPDEST PUSH1 0x0 SWAP2 DUP3 MSTORE PUSH1 0x20 SWAP1 SWAP2 KECCAK256 ADD SLOAD DUP4 MLOAD PUSH1 0x1 PUSH1 0x1 PUSH1 0xA0 SHL SUB SWAP1 SWAP2 AND BALANCE SWAP1 DUP5 SWAP1 DUP4 SWAP1 DUP2 LT PUSH2 0x1D06 JUMPI PUSH2 0x1D06 PUSH2 0x2325 JUMP JUMPDEST PUSH1 0x20 SWAP1 DUP2 MUL SWAP2 SWAP1 SWAP2 ADD ADD MSTORE PUSH1 0x1 ADD PUSH2 0x1CBE JUMP JUMPDEST POP POP SWAP1 JUMP JUMPDEST PUSH1 0x0 DUP2 DUP4 LT PUSH2 0x1D2D JUMPI DUP2 PUSH2 0x1D2F JUMP JUMPDEST DUP3 JUMPDEST SWAP1 POP JUMPDEST SWAP3 SWAP2 POP POP JUMP JUMPDEST PUSH1 0x0 PUSH2 0x1D32 PUSH4 0x3B9ACA00 DUP4 PUSH2 0x23D6 JUMP JUMPDEST PUSH1 0x0 DUP1 SLOAD PUSH1 0x1 PUSH1 0x1 PUSH1 0xA0 SHL SUB DUP4 DUP2 AND PUSH1 0x1 PUSH1 0x1 PUSH1 0xA0 SHL SUB NOT DUP4 AND DUP2 OR DUP5 SSTORE PUSH1 0x40 MLOAD SWAP2 SWAP1 SWAP3 AND SWAP3 DUP4 SWAP2 PUSH32 0x8BE0079C531659141344CD1FD0A4F28419497F9722A3DAAFE3B4186F6B6457E0 SWAP2 SWAP1 LOG3 POP POP JUMP JUMPDEST PUSH1 0x40 MLOAD DUP1 PUSH2 0x1020 ADD PUSH1 0x40 MSTORE DUP1 PUSH1 0x81 SWAP1 PUSH1 0x20 DUP3 MUL DUP1 CALLDATASIZE DUP4 CALLDATACOPY POP SWAP2 SWAP3 SWAP2 POP POP JUMP JUMPDEST DUP3 DUP1 SLOAD DUP3 DUP3 SSTORE SWAP1 PUSH1 0x0 MSTORE PUSH1 0x20 PUSH1 0x0 KECCAK256 SWAP1 DUP2 ADD SWAP3 DUP3 ISZERO PUSH2 0x1E0A JUMPI SWAP2 PUSH1 0x20 MUL DUP3 ADD JUMPDEST DUP3 DUP2 GT ISZERO PUSH2 0x1E0A JUMPI DUP2 SLOAD PUSH1 0x1 PUSH1 0x1 PUSH1 0xA0 SHL SUB NOT AND PUSH1 0x1 PUSH1 0x1 PUSH1 0xA0 SHL SUB DUP5 CALLDATALOAD AND OR DUP3 SSTORE PUSH1 0x20 SWAP1 SWAP3 ADD SWAP2 PUSH1 0x1 SWAP1 SWAP2 ADD SWAP1 PUSH2 0x1DD7 JUMP JUMPDEST POP PUSH2 0x1A99 SWAP3 SWAP2 POP PUSH2 0x1E51 JUMP JUMPDEST DUP3 DUP1 SLOAD DUP3 DUP3 SSTORE SWAP1 PUSH1 0x0 MSTORE PUSH1 0x20 PUSH1 0x0 KECCAK256 SWAP1 DUP2 ADD SWAP3 DUP3 ISZERO PUSH2 0x1E0A JUMPI SWAP2 PUSH1 0x20 MUL DUP3 ADD JUMPDEST DUP3 DUP2 GT ISZERO PUSH2 0x1E0A JUMPI DUP3 CALLDATALOAD DUP3 SSTORE SWAP2 PUSH1 0x20 ADD SWAP2 SWAP1 PUSH1 0x1 ADD SWAP1 PUSH2 0x1E36 JUMP JUMPDEST JUMPDEST DUP1 DUP3 GT ISZERO PUSH2 0x1A99 JUMPI PUSH1 0x0 DUP2 SSTORE PUSH1 0x1 ADD PUSH2 0x1E52 JUMP JUMPDEST DUP1 CALLDATALOAD PUSH1 0x1 PUSH1 0x1 PUSH1 0xA0 SHL SUB DUP2 AND DUP2 EQ PUSH2 0x1E7D JUMPI PUSH1 0x0 DUP1 REVERT JUMPDEST SWAP2 SWAP1 POP JUMP JUMPDEST PUSH1 0x0 PUSH1 0x20 DUP3 DUP5 SUB SLT ISZERO PUSH2 0x1E94 JUMPI PUSH1 0x0 DUP1 REVERT JUMPDEST PUSH2 0x1D2F DUP3 PUSH2 0x1E66 JUMP JUMPDEST PUSH1 0x0 DUP1 DUP4 PUSH1 0x1F DUP5 ADD SLT PUSH2 0x1EAF JUMPI PUSH1 0x0 DUP1 REVERT JUMPDEST POP DUP2 CALLDATALOAD PUSH1 0x1 PUSH1 0x1 PUSH1 0x40 SHL SUB DUP2 GT ISZERO PUSH2 0x1EC6 JUMPI PUSH1 0x0 DUP1 REVERT JUMPDEST PUSH1 0x20 DUP4 ADD SWAP2 POP DUP4 PUSH1 0x20 DUP3 PUSH1 0x5 SHL DUP6 ADD ADD GT ISZERO PUSH2 0x1EE1 JUMPI PUSH1 0x0 DUP1 REVERT JUMPDEST SWAP3 POP SWAP3 SWAP1 POP JUMP JUMPDEST PUSH1 0x0 DUP1 PUSH1 0x0 PUSH1 0x40 DUP5 DUP7 SUB SLT ISZERO PUSH2 0x1EFD JUMPI PUSH1 0x0 DUP1 REVERT JUMPDEST DUP4 CALLDATALOAD PUSH1 0x1 PUSH1 0x1 PUSH1 0x40 SHL SUB DUP2 GT ISZERO PUSH2 0x1F13 JUMPI PUSH1 0x0 DUP1 REVERT JUMPDEST PUSH2 0x1F1F DUP7 DUP3 DUP8 ADD PUSH2 0x1E9D JUMP JUMPDEST SWAP1 SWAP8 SWAP1 SWAP7 POP PUSH1 0x20 SWAP6 SWAP1 SWAP6 ADD CALLDATALOAD SWAP5 SWAP4 POP POP POP POP JUMP JUMPDEST PUSH1 0x0 DUP1 PUSH1 0x0 DUP1 PUSH1 0x40 DUP6 DUP8 SUB SLT ISZERO PUSH2 0x1F49 JUMPI PUSH1 0x0 DUP1 REVERT JUMPDEST DUP5 CALLDATALOAD PUSH1 0x1 PUSH1 0x1 PUSH1 0x40 SHL SUB DUP1 DUP3 GT ISZERO PUSH2 0x1F60 JUMPI PUSH1 0x0 DUP1 REVERT JUMPDEST PUSH2 0x1F6C DUP9 DUP4 DUP10 ADD PUSH2 0x1E9D JUMP JUMPDEST SWAP1 SWAP7 POP SWAP5 POP PUSH1 0x20 DUP8 ADD CALLDATALOAD SWAP2 POP DUP1 DUP3 GT ISZERO PUSH2 0x1F85 JUMPI PUSH1 0x0 DUP1 REVERT JUMPDEST POP PUSH2 0x1F92 DUP8 DUP3 DUP9 ADD PUSH2 0x1E9D JUMP JUMPDEST SWAP6 SWAP9 SWAP5 SWAP8 POP SWAP6 POP POP POP POP JUMP JUMPDEST DUP1 PUSH1 0x0 JUMPDEST PUSH1 0x81 DUP2 LT ISZERO PUSH2 0x1FC1 JUMPI DUP2 MLOAD DUP5 MSTORE PUSH1 0x20 SWAP4 DUP5 ADD SWAP4 SWAP1 SWAP2 ADD SWAP1 PUSH1 0x1 ADD PUSH2 0x1FA2 JUMP JUMPDEST POP POP POP POP JUMP JUMPDEST PUSH2 0x1020 DUP2 ADD PUSH2 0x1D32 DUP3 DUP5 PUSH2 0x1F9E JUMP JUMPDEST DUP1 PUSH1 0x0 JUMPDEST PUSH1 0x81 DUP2 LT ISZERO PUSH2 0x1FC1 JUMPI DUP2 MLOAD PUSH1 0x1 PUSH1 0x1 PUSH1 0x40 SHL SUB AND DUP5 MSTORE PUSH1 0x20 SWAP4 DUP5 ADD SWAP4 SWAP1 SWAP2 ADD SWAP1 PUSH1 0x1 ADD PUSH2 0x1FDA JUMP JUMPDEST PUSH1 0x0 DUP2 MLOAD DUP1 DUP5 MSTORE PUSH1 0x20 DUP1 DUP6 ADD SWAP5 POP PUSH1 0x20 DUP5 ADD PUSH1 0x0 JUMPDEST DUP4 DUP2 LT ISZERO PUSH2 0x2033 JUMPI DUP2 MLOAD DUP8 MSTORE SWAP6 DUP3 ADD SWAP6 SWAP1 DUP3 ADD SWAP1 PUSH1 0x1 ADD PUSH2 0x2017 JUMP JUMPDEST POP SWAP5 SWAP6 SWAP5 POP POP POP POP POP JUMP JUMPDEST PUSH1 0x0 PUSH2 0x5100 PUSH2 0x204D DUP4 DUP13 PUSH2 0x1F9E JUMP JUMPDEST PUSH2 0x205B PUSH2 0x1020 DUP5 ADD DUP12 PUSH2 0x1FD6 JUMP JUMPDEST PUSH2 0x2040 DUP4 ADD DUP10 PUSH1 0x0 JUMPDEST PUSH1 0x81 DUP2 LT ISZERO PUSH2 0x2085 JUMPI DUP2 MLOAD ISZERO ISZERO DUP4 MSTORE PUSH1 0x20 SWAP3 DUP4 ADD SWAP3 SWAP1 SWAP2 ADD SWAP1 PUSH1 0x1 ADD PUSH2 0x2064 JUMP JUMPDEST POP POP POP PUSH2 0x2096 PUSH2 0x3060 DUP5 ADD DUP10 PUSH2 0x1F9E JUMP JUMPDEST PUSH2 0x20A4 PUSH2 0x4080 DUP5 ADD DUP9 PUSH2 0x1F9E JUMP JUMPDEST DUP1 PUSH2 0x50A0 DUP5 ADD MSTORE PUSH2 0x20B7 DUP2 DUP5 ADD DUP8 PUSH2 0x2002 JUMP JUMPDEST PUSH2 0x50C0 DUP5 ADD SWAP6 SWAP1 SWAP6 MSTORE POP POP PUSH2 0x50E0 ADD MSTORE SWAP7 SWAP6 POP POP POP POP POP POP JUMP JUMPDEST PUSH1 0x0 DUP1 PUSH1 0x0 DUP1 PUSH1 0x0 PUSH1 0x60 DUP7 DUP9 SUB SLT ISZERO PUSH2 0x20E9 JUMPI PUSH1 0x0 DUP1 REVERT JUMPDEST DUP6 CALLDATALOAD PUSH1 0x1 PUSH1 0x1 PUSH1 0x40 SHL SUB DUP1 DUP3 GT ISZERO PUSH2 0x2100 JUMPI PUSH1 0x0 DUP1 REVERT JUMPDEST PUSH2 0x210C DUP10 DUP4 DUP11 ADD PUSH2 0x1E9D JUMP JUMPDEST SWAP1 SWAP8 POP SWAP6 POP PUSH1 0x20 DUP9 ADD CALLDATALOAD SWAP2 POP DUP1 DUP3 GT ISZERO PUSH2 0x2125 JUMPI PUSH1 0x0 DUP1 REVERT JUMPDEST POP PUSH2 0x2132 DUP9 DUP3 DUP10 ADD PUSH2 0x1E9D JUMP JUMPDEST SWAP7 SWAP10 SWAP6 SWAP9 POP SWAP7 PUSH1 0x40 ADD CALLDATALOAD SWAP5 SWAP4 POP POP POP POP JUMP JUMPDEST PUSH1 0x0 DUP1 PUSH1 0x0 DUP1 PUSH1 0x0 DUP1 PUSH1 0x0 PUSH1 0x80 DUP9 DUP11 SUB SLT ISZERO PUSH2 0x215F JUMPI PUSH1 0x0 DUP1 REVERT JUMPDEST DUP8 CALLDATALOAD PUSH1 0x1 PUSH1 0x1 PUSH1 0x40 SHL SUB DUP1 DUP3 GT ISZERO PUSH2 0x2176 JUMPI PUSH1 0x0 DUP1 REVERT JUMPDEST PUSH2 0x2182 DUP12 DUP4 DUP13 ADD PUSH2 0x1E9D JUMP JUMPDEST SWAP1 SWAP10 POP SWAP8 POP PUSH1 0x20 DUP11 ADD CALLDATALOAD SWAP2 POP DUP1 DUP3 GT ISZERO PUSH2 0x219B JUMPI PUSH1 0x0 DUP1 REVERT JUMPDEST PUSH2 0x21A7 DUP12 DUP4 DUP13 ADD PUSH2 0x1E9D JUMP JUMPDEST SWAP1 SWAP8 POP SWAP6 POP PUSH1 0x40 DUP11 ADD CALLDATALOAD SWAP2 POP DUP1 DUP3 GT ISZERO PUSH2 0x21C0 JUMPI PUSH1 0x0 DUP1 REVERT JUMPDEST POP PUSH2 0x21CD DUP11 DUP3 DUP12 ADD PUSH2 0x1E9D JUMP JUMPDEST SWAP9 SWAP12 SWAP8 SWAP11 POP SWAP6 SWAP9 SWAP5 SWAP8 SWAP6 SWAP7 PUSH1 0x60 SWAP1 SWAP6 ADD CALLDATALOAD SWAP5 SWAP4 POP POP POP POP JUMP JUMPDEST PUSH1 0x0 DUP1 PUSH1 0x0 DUP1 PUSH1 0x0 DUP1 PUSH1 0x60 DUP8 DUP10 SUB SLT ISZERO PUSH2 0x21FF JUMPI PUSH1 0x0 DUP1 REVERT JUMPDEST DUP7 CALLDATALOAD PUSH1 0x1 PUSH1 0x1 PUSH1 0x40 SHL SUB DUP1 DUP3 GT ISZERO PUSH2 0x2216 JUMPI PUSH1 0x0 DUP1 REVERT JUMPDEST PUSH2 0x2222 DUP11 DUP4 DUP12 ADD PUSH2 0x1E9D JUMP JUMPDEST SWAP1 SWAP9 POP SWAP7 POP PUSH1 0x20 DUP10 ADD CALLDATALOAD SWAP2 POP DUP1 DUP3 GT ISZERO PUSH2 0x223B JUMPI PUSH1 0x0 DUP1 REVERT JUMPDEST PUSH2 0x2247 DUP11 DUP4 DUP12 ADD PUSH2 0x1E9D JUMP JUMPDEST SWAP1 SWAP7 POP SWAP5 POP PUSH1 0x40 DUP10 ADD CALLDATALOAD SWAP2 POP DUP1 DUP3 GT ISZERO PUSH2 0x2260 JUMPI PUSH1 0x0 DUP1 REVERT JUMPDEST POP PUSH2 0x226D DUP10 DUP3 DUP11 ADD PUSH2 0x1E9D JUMP JUMPDEST SWAP8 SWAP11 SWAP7 SWAP10 POP SWAP5 SWAP8 POP SWAP3 SWAP6 SWAP4 SWAP5 SWAP3 POP POP POP JUMP JUMPDEST PUSH1 0x0 PUSH1 0x20 DUP3 DUP5 SUB SLT ISZERO PUSH2 0x2291 JUMPI PUSH1 0x0 DUP1 REVERT JUMPDEST POP CALLDATALOAD SWAP2 SWAP1 POP JUMP JUMPDEST PUSH2 0x1020 DUP2 ADD PUSH2 0x1D32 DUP3 DUP5 PUSH2 0x1FD6 JUMP JUMPDEST PUSH1 0x0 DUP1 PUSH1 0x20 DUP4 DUP6 SUB SLT ISZERO PUSH2 0x22BA JUMPI PUSH1 0x0 DUP1 REVERT JUMPDEST DUP3 CALLDATALOAD PUSH1 0x1 PUSH1 0x1 PUSH1 0x40 SHL SUB DUP2 GT ISZERO PUSH2 0x22D0 JUMPI PUSH1 0x0 DUP1 REVERT JUMPDEST PUSH2 0x22DC DUP6 DUP3 DUP7 ADD PUSH2 0x1E9D JUMP JUMPDEST SWAP1 SWAP7 SWAP1 SWAP6 POP SWAP4 POP POP POP POP JUMP JUMPDEST PUSH1 0x20 DUP2 MSTORE PUSH1 0x0 PUSH2 0x1D2F PUSH1 0x20 DUP4 ADD DUP5 PUSH2 0x2002 JUMP JUMPDEST PUSH1 0x0 DUP1 PUSH1 0x40 DUP4 DUP6 SUB SLT ISZERO PUSH2 0x230E JUMPI PUSH1 0x0 DUP1 REVERT JUMPDEST PUSH2 0x2317 DUP4 PUSH2 0x1E66 JUMP JUMPDEST SWAP5 PUSH1 0x20 SWAP4 SWAP1 SWAP4 ADD CALLDATALOAD SWAP4 POP POP POP JUMP JUMPDEST PUSH4 0x4E487B71 PUSH1 0xE0 SHL PUSH1 0x0 MSTORE PUSH1 0x32 PUSH1 0x4 MSTORE PUSH1 0x24 PUSH1 0x0 REVERT JUMPDEST PUSH4 0x4E487B71 PUSH1 0xE0 SHL PUSH1 0x0 MSTORE PUSH1 0x11 PUSH1 0x4 MSTORE PUSH1 0x24 PUSH1 0x0 REVERT JUMPDEST DUP2 DUP2 SUB DUP2 DUP2 GT ISZERO PUSH2 0x1D32 JUMPI PUSH2 0x1D32 PUSH2 0x233B JUMP JUMPDEST PUSH1 0x0 PUSH1 0x20 DUP3 DUP5 SUB SLT ISZERO PUSH2 0x2376 JUMPI PUSH1 0x0 DUP1 REVERT JUMPDEST POP MLOAD SWAP2 SWAP1 POP JUMP JUMPDEST DUP1 DUP3 ADD DUP1 DUP3 GT ISZERO PUSH2 0x1D32 JUMPI PUSH2 0x1D32 PUSH2 0x233B JUMP JUMPDEST PUSH4 0x4E487B71 PUSH1 0xE0 SHL PUSH1 0x0 MSTORE PUSH1 0x41 PUSH1 0x4 MSTORE PUSH1 0x24 PUSH1 0x0 REVERT JUMPDEST PUSH1 0x0 PUSH1 0x20 DUP3 DUP5 SUB SLT ISZERO PUSH2 0x23B8 JUMPI PUSH1 0x0 DUP1 REVERT JUMPDEST DUP2 MLOAD PUSH1 0x1 PUSH1 0x1 PUSH1 0x40 SHL SUB DUP2 AND DUP2 EQ PUSH2 0x23CF JUMPI PUSH1 0x0 DUP1 REVERT JUMPDEST SWAP4 SWAP3 POP POP POP JUMP JUMPDEST PUSH1 0x0 DUP3 PUSH2 0x23F3 JUMPI PUSH4 0x4E487B71 PUSH1 0xE0 SHL PUSH1 0x0 MSTORE PUSH1 0x12 PUSH1 0x4 MSTORE PUSH1 0x24 PUSH1 0x0 REVERT JUMPDEST POP DIV SWAP1 JUMP INVALID 0xB4 0xC0 DUP8 GT SWAP1 SWAP8 0xFB 0xE3 SWAP9 MSTORE SWAP9 0xEE CREATE2 0x2F CALLDATALOAD 0xEF PUSH3 0x71C483 0x22 0xA8 0xC2 0xD4 ADDRESS SWAP1 0x2A SWAP13 0xC3 DUP14 SWAP5 PUSH20 0xA26469706673582212206F9514DDD3C8C543EC35 CREATE PUSH32 0x84AB6CDD2726189B83735CAECD26CF73546E453E64736F6C6343000816003300 "},"methodIdentifiers":{"DELEGATOR_BYTES_KEY()":"fcd1a8d6","addStakeLimits(uint256[],uint256[],uint256[],bytes32)":"3de1ffe8","contractBytesKey()":"947d3c3f","emergencyWithdrawTao(address,uint256)":"f528c62e","getAlphaPrices()":"bc28d5d0","getMevStakedAmounts(uint256[])":"ae257e60","getStakedAmounts(bytes32[],bytes32[])":"26a224e0","getTaoInPools()":"a8c2bb0d","getTradingInfo()":"276ef789","isStaked(uint256)":"baa51f86","lastLimitPrices(uint256)":"e2edac25","lastStakeTimestamps(uint256)":"af31a15d","mevAddStakes(uint256[],uint256[],bytes32)":"38619040","mevAddresses(uint256)":"a7678775","mevColdkeyBytesKeys(uint256)":"51b2e72d","mevHotkeyBytesKeys(uint256)":"b6b2a68d","mevRemoveStakes(uint256[],bytes32)":"11ef42c9","netuids(uint256)":"bf6d7389","owner()":"8da5cb5b","removeDeregisteredStakes(uint256[])":"e4240e7f","removeStakeLimits(uint256[],uint256[],bytes32)":"7d002cc0","renounceOwnership()":"715018a6","resetLimitPrices(uint256[])":"c6df7daf","setWithdrawer(address)":"0d174c24","transferOwnership(address)":"f2fde38b","updateContractBytesKey(bytes32)":"f9036f02","updateMevKeys(address[],bytes32[],bytes32[])":"3eb5152d","withdrawAll(address)":"fa09e630","withdrawer()":"cdc18424"}}}}}