{"contracts/TradingV7.sol":{"TradingV7":{"abi":[{"inputs":[],"stateMutability":"nonpayable","type":"constructor"},{"inputs":[],"name":"AmountZero","type":"error"},{"inputs":[],"name":"ArrayLengthMismatch","type":"error"},{"inputs":[],"name":"FunctionNotFound","type":"error"},{"inputs":[],"name":"InvalidAddress","type":"error"},{"inputs":[],"name":"InvalidBytesKey","type":"error"},{"inputs":[],"name":"InvalidNetuid","type":"error"},{"inputs":[],"name":"NotWithdrawer","type":"error"},{"inputs":[],"name":"TransferFailed","type":"error"},{"anonymous":false,"inputs":[{"indexed":true,"internalType":"address","name":"previousOwner","type":"address"},{"indexed":true,"internalType":"address","name":"newOwner","type":"address"}],"name":"OwnershipTransferred","type":"event"},{"stateMutability":"payable","type":"fallback"},{"inputs":[],"name":"DELEGATOR_BYTES_KEY","outputs":[{"internalType":"bytes32","name":"","type":"bytes32"}],"stateMutability":"view","type":"function"},{"inputs":[{"internalType":"uint256[]","name":"netuids","type":"uint256[]"},{"internalType":"uint256[]","name":"amounts","type":"uint256[]"},{"internalType":"uint256[]","name":"limitPrices","type":"uint256[]"}],"name":"addStakeLimits","outputs":[],"stateMutability":"payable","type":"function"},{"inputs":[],"name":"contractBytesKey","outputs":[{"internalType":"bytes32","name":"","type":"bytes32"}],"stateMutability":"view","type":"function"},{"inputs":[{"internalType":"address","name":"to","type":"address"},{"internalType":"uint256","name":"amount","type":"uint256"}],"name":"emergencyWithdrawTao","outputs":[],"stateMutability":"nonpayable","type":"function"},{"inputs":[],"name":"getAlphaPrices","outputs":[{"internalType":"uint256[129]","name":"alphaPrices","type":"uint256[129]"}],"stateMutability":"view","type":"function"},{"inputs":[{"internalType":"uint256[]","name":"netuids","type":"uint256[]"},{"internalType":"bytes32[]","name":"_mevHotkeyBytesKeys","type":"bytes32[]"},{"internalType":"bytes32[]","name":"_mevColdkeyBytesKeys","type":"bytes32[]"}],"name":"getMevStakedAmounts","outputs":[{"internalType":"uint256[]","name":"amounts","type":"uint256[]"}],"stateMutability":"view","type":"function"},{"inputs":[{"internalType":"bytes32[]","name":"hotkeys","type":"bytes32[]"},{"internalType":"bytes32[]","name":"coldkeys","type":"bytes32[]"}],"name":"getStakedAmounts","outputs":[{"internalType":"uint256[129]","name":"amounts","type":"uint256[129]"}],"stateMutability":"view","type":"function"},{"inputs":[],"name":"getTaoInPools","outputs":[{"internalType":"uint64[129]","name":"taoInPools","type":"uint64[129]"}],"stateMutability":"view","type":"function"},{"inputs":[],"name":"getTradingInfo","outputs":[{"internalType":"uint256[129]","name":"alphaPrices","type":"uint256[129]"},{"internalType":"uint64[129]","name":"taoInPools","type":"uint64[129]"},{"internalType":"bool[129]","name":"staked","type":"bool[129]"},{"internalType":"uint256[129]","name":"limitPrices","type":"uint256[129]"},{"internalType":"uint256[129]","name":"stakedAmounts","type":"uint256[129]"},{"internalType":"uint256[]","name":"mevFreeBalances","type":"uint256[]"},{"internalType":"uint256","name":"freeBalance","type":"uint256"},{"internalType":"uint256","name":"ownerBalance","type":"uint256"}],"stateMutability":"view","type":"function"},{"inputs":[{"internalType":"uint256","name":"","type":"uint256"}],"name":"isStaked","outputs":[{"internalType":"bool","name":"","type":"bool"}],"stateMutability":"view","type":"function"},{"inputs":[{"internalType":"uint256","name":"","type":"uint256"}],"name":"lastLimitPrices","outputs":[{"internalType":"uint256","name":"","type":"uint256"}],"stateMutability":"view","type":"function"},{"inputs":[{"internalType":"uint256","name":"","type":"uint256"}],"name":"lastStakeTimestamps","outputs":[{"internalType":"uint256","name":"","type":"uint256"}],"stateMutability":"view","type":"function"},{"inputs":[{"internalType":"uint256[]","name":"netuids","type":"uint256[]"},{"internalType":"uint256[]","name":"amounts","type":"uint256[]"},{"internalType":"bytes32[]","name":"_mevHotkeyBytesKeys","type":"bytes32[]"},{"internalType":"bytes32[]","name":"_mevColdkeyBytesKeys","type":"bytes32[]"}],"name":"mevAddStakes","outputs":[],"stateMutability":"payable","type":"function"},{"inputs":[{"internalType":"uint256","name":"","type":"uint256"}],"name":"mevAddresses","outputs":[{"internalType":"address","name":"","type":"address"}],"stateMutability":"view","type":"function"},{"inputs":[{"internalType":"uint256[]","name":"netuids","type":"uint256[]"},{"internalType":"bytes32[]","name":"_mevHotkeyBytesKeys","type":"bytes32[]"},{"internalType":"bytes32[]","name":"_mevColdkeyBytesKeys","type":"bytes32[]"}],"name":"mevRemoveStakes","outputs":[],"stateMutability":"payable","type":"function"},{"inputs":[],"name":"owner","outputs":[{"internalType":"address","name":"","type":"address"}],"stateMutability":"view","type":"function"},{"inputs":[{"internalType":"uint256[]","name":"netuids","type":"uint256[]"}],"name":"removeDeregisteredStakes","outputs":[],"stateMutability":"nonpayable","type":"function"},{"inputs":[{"internalType":"uint256[]","name":"netuids","type":"uint256[]"},{"internalType":"uint256[]","name":"limitPrices","type":"uint256[]"}],"name":"removeStakeLimits","outputs":[],"stateMutability":"payable","type":"function"},{"inputs":[],"name":"renounceOwnership","outputs":[],"stateMutability":"nonpayable","type":"function"},{"inputs":[{"internalType":"uint256[]","name":"netuids","type":"uint256[]"}],"name":"resetLimitPrices","outputs":[],"stateMutability":"nonpayable","type":"function"},{"inputs":[{"internalType":"address","name":"newWithdrawer","type":"address"}],"name":"setWithdrawer","outputs":[],"stateMutability":"nonpayable","type":"function"},{"inputs":[{"internalType":"address","name":"newOwner","type":"address"}],"name":"transferOwnership","outputs":[],"stateMutability":"nonpayable","type":"function"},{"inputs":[{"internalType":"bytes32","name":"newContractBytesKey","type":"bytes32"}],"name":"updateContractBytesKey","outputs":[],"stateMutability":"nonpayable","type":"function"},{"inputs":[{"internalType":"address[]","name":"newMevAddresses","type":"address[]"}],"name":"updateMevAddresses","outputs":[],"stateMutability":"nonpayable","type":"function"},{"inputs":[{"internalType":"address","name":"to","type":"address"}],"name":"withdrawAll","outputs":[],"stateMutability":"nonpayable","type":"function"},{"inputs":[],"name":"withdrawer","outputs":[{"internalType":"address","name":"","type":"address"}],"stateMutability":"view","type":"function"},{"stateMutability":"payable","type":"receive"}],"evm":{"bytecode":{"linkReferences":{},"object":"608060405234801561001057600080fd5b5061001a33610036565b6001805561010b80546001600160a01b03191633179055610086565b600080546001600160a01b038381166001600160a01b0319831681178455604051919092169283917f8be0079c531659141344cd1fd0a4f28419497f9722a3daafe3b4186f6b6457e09190a35050565b612387806100956000396000f3fe6080604052600436106101855760003560e01c8063a8c2bb0d116100d1578063e2edac251161008a578063f528c62e11610064578063f528c62e14610472578063f9036f0214610492578063fa09e630146104b2578063fcd1a8d6146104d25761018c565b8063e2edac2514610412578063e4240e7f14610432578063f2fde38b146104525761018c565b8063a8c2bb0d1461034a578063af31a15d1461036c578063baa51f861461038c578063bc28d5d0146103bc578063c6df7daf146103d1578063cdc18424146103f15761018c565b8063646e569b1161013e5780638da5cb5b116101185780638da5cb5b146102b4578063947d3c3f146102e6578063987d0e591461030a578063a76787751461032a5761018c565b8063646e569b14610279578063696862751461028c578063715018a61461029f5761018c565b80630d16ab81146101a55780630d174c24146101db57806326a224e0146101fd578063276ef7891461022a5780633004c502146102535780635c45f3ef146102665761018c565b3661018c57005b60405163201f3fd360e11b815260040160405180910390fd5b3480156101b157600080fd5b506101c56101c0366004611ea2565b6104f4565b6040516101d29190611f78565b60405180910390f35b3480156101e757600080fd5b506101fb6101f6366004611fa7565b6105bd565b005b34801561020957600080fd5b5061021d610218366004611fc2565b61063e565b6040516101d29190612051565b34801561023657600080fd5b5061023f610767565b6040516101d298979695949392919061208d565b6101fb610261366004611ea2565b61087d565b6101fb610274366004611ea2565b610b2b565b6101fb610287366004611fc2565b610da0565b6101fb61029a366004612120565b610fd7565b3480156102ab57600080fd5b506101fb6112e5565b3480156102c057600080fd5b506000546001600160a01b03165b6040516001600160a01b0390911681526020016101d2565b3480156102f257600080fd5b506102fc60035481565b6040519081526020016101d2565b34801561031657600080fd5b506101fb6103253660046121e4565b6112f9565b34801561033657600080fd5b506102ce610345366004612226565b611323565b34801561035657600080fd5b5061035f61134d565b6040516101d2919061223f565b34801561037857600080fd5b506102fc610387366004612226565b611362565b34801561039857600080fd5b506103ac6103a7366004612226565b611379565b60405190151581526020016101d2565b3480156103c857600080fd5b5061021d6113a3565b3480156103dd57600080fd5b506101fb6103ec3660046121e4565b6113b3565b3480156103fd57600080fd5b5061010b546102ce906001600160a01b031681565b34801561041e57600080fd5b506102fc61042d366004612226565b611499565b34801561043e57600080fd5b506101fb61044d3660046121e4565b6114a9565b34801561045e57600080fd5b506101fb61046d366004611fa7565b6115b1565b34801561047e57600080fd5b506101fb61048d36600461224e565b61162c565b34801561049e57600080fd5b506101fb6104ad366004612226565b61171c565b3480156104be57600080fd5b506101fb6104cd366004611fa7565b611758565b3480156104de57600080fd5b506102fc60008051602061233283398151915281565b6060858483146105175760405163512509d360e11b815260040160405180910390fd5b8067ffffffffffffffff81111561053057610530612278565b604051908082528060200260200182016040528015610559578160200160208202803683370190505b50915060005b818110156105b15761058c89898381811061057c5761057c61228e565b9050602002013588888888611855565b83828151811061059e5761059e61228e565b602090810291909101015260010161055f565b50509695505050505050565b6105c5611931565b61010b546001600160a01b031633146105f157604051632d99bc8360e21b815260040160405180910390fd5b6001600160a01b0381166106185760405163e6c4247b60e01b815260040160405180910390fd5b61010b80546001600160a01b0319166001600160a01b0383161790556001805550565b50565b610646611dc8565b838281146106675760405163512509d360e11b815260040160405180910390fd5b60005b8181101561075d5760015b60818110156107545761080563e3b598fa8989858181106106985761069861228e565b905060200201358888868181106106b1576106b161228e565b6040516001600160e01b031960e087901b1681526004810194909452602002919091013560248301525060448101849052606401602060405180830381865afa158015610702573d6000803e3d6000fd5b505050506040513d601f19601f8201168201806040525081019061072691906122a4565b8482608181106107385761073861228e565b6020020181815161074991906122bd565b905250600101610675565b5060010161066a565b5050949350505050565b61076f611dc8565b610777611dc8565b61077f611dc8565b610787611dc8565b61078f611dc8565b606060008061079c61198a565b97506107a6611a4f565b60408051611020810191829052919850600490608190826000855b825461010083900a900460ff1615158152602060019283018181049485019490930390920291018084116107c15790505050505050955061081560008051602061233283398151915260001b600354611b2e565b935061081f611c25565b6040805161102081019182905291945060099060819082845b81548152602001906001019080831161083857505050505094504791506108676000546001600160a01b031690565b6001600160a01b03163190509091929394959697565b610885611931565b61088d611cd3565b84838114158061089d5750808214155b156108bb5760405163512509d360e11b815260040160405180910390fd5b60005b81811015610b185760008686838181106108da576108da61228e565b90506020020135905080600014610b0f5760008989848181106108ff576108ff61228e565b90506020020135905061091181611d2d565b6040516369e38bc360e01b815261ffff82166004820152600090610808906369e38bc390602401602060405180830381865afa158015610955573d6000803e3d6000fd5b505050506040513d601f19601f8201168201806040525081019061097991906122a4565b90508087878681811061098e5761098e61228e565b9050602002013510610b0c5760006109a64785611d4e565b9050806000036109c9576040516365e52d5160e11b815260040160405180910390fd5b610805631fc9b1416000805160206123328339815191526109e984611d68565b6040516001600160e01b031960e085901b1681526004810192909252602482015260448101869052606401600060405180830381600087803b158015610a2e57600080fd5b505af1158015610a42573d6000803e3d6000fd5b50506040516369e38bc360e01b815261ffff8616600482015261080892506369e38bc39150602401602060405180830381865afa158015610a87573d6000803e3d6000fd5b505050506040513d601f19601f82011682018060405250810190610aab91906122a4565b60098460818110610abe57610abe61228e565b0155600160048460818110610ad557610ad561228e565b602091828204019190066101000a81548160ff02191690831515021790555042608a8460818110610b0857610b0861228e565b0155505b50505b506001016108be565b5050610b2360018055565b505050505050565b610b33611931565b610b3b611cd3565b84838214610b5c5760405163512509d360e11b815260040160405180910390fd5b8360005b82811015610d94576000898983818110610b7c57610b7c61228e565b905060200201359050610b8e81611d2d565b608a8160818110610ba157610ba161228e565b01544214610d8b5760005b83811015610d8957633b9aca0061080563e3b598fa8b8b85818110610bd357610bd361228e565b905060200201358a8a86818110610bec57610bec61228e565b6040516001600160e01b031960e087901b1681526004810194909452602002919091013560248301525060448101869052606401602060405180830381865afa158015610c3d573d6000803e3d6000fd5b505050506040513d601f19601f82011682018060405250810190610c6191906122a4565b1115610d815760405163d4626bb960e01b81526000805160206123328339815191526004820152602481018390526108059063d4626bb990604401600060405180830381600087803b158015610cb657600080fd5b505af1158015610cca573d6000803e3d6000fd5b50506040516369e38bc360e01b815261ffff8516600482015261080892506369e38bc39150602401602060405180830381865afa158015610d0f573d6000803e3d6000fd5b505050506040513d601f19601f82011682018060405250810190610d3391906122a4565b60098360818110610d4657610d4661228e565b0155600060048360818110610d5d57610d5d61228e565b602091828204019190066101000a81548160ff021916908315150217905550610d89565b600101610bac565b505b50600101610b60565b505050610b2360018055565b610da8611931565b610db0611cd3565b82818114610dd15760405163512509d360e11b815260040160405180910390fd5b60005b81811015610fc6576000868683818110610df057610df061228e565b905060200201359050610e0281611d2d565b6040516369e38bc360e01b815261ffff82166004820152600090610808906369e38bc390602401602060405180830381865afa158015610e46573d6000803e3d6000fd5b505050506040513d601f19601f82011682018060405250810190610e6a91906122a4565b905080868685818110610e7f57610e7f61228e565b9050602002013511610fbc57608a8260818110610e9e57610e9e61228e565b01544214610fbc5760405163d4626bb960e01b81526000805160206123328339815191526004820152602481018390526108059063d4626bb990604401600060405180830381600087803b158015610ef557600080fd5b505af1158015610f09573d6000803e3d6000fd5b50506040516369e38bc360e01b815261ffff8516600482015261080892506369e38bc39150602401602060405180830381865afa158015610f4e573d6000803e3d6000fd5b505050506040513d601f19601f82011682018060405250810190610f7291906122a4565b60098360818110610f8557610f8561228e565b0155600060048360818110610f9c57610f9c61228e565b602091828204019190066101000a81548160ff0219169083151502179055505b5050600101610dd4565b5050610fd160018055565b50505050565b610fdf611931565b610fe7611cd3565b868581146110085760405163512509d360e11b815260040160405180910390fd5b8382146110285760405163512509d360e11b815260040160405180910390fd5b8360005b828110156112cf5760008b8b838181106110485761104861228e565b90506020020135905061105a81611d2d565b6000805b8481101561112a57633b9aca0061080563e3b598fa8c8c858181106110855761108561228e565b905060200201358b8b8681811061109e5761109e61228e565b6040516001600160e01b031960e087901b1681526004810194909452602002919091013560248301525060448101879052606401602060405180830381865afa1580156110ef573d6000803e3d6000fd5b505050506040513d601f19601f8201168201806040525081019061111391906122a4565b1115611122576001915061112a565b60010161105e565b50806112c55760008b8b858181106111445761114461228e565b90506020020135905060006111594783611d4e565b90508060000361117c576040516365e52d5160e11b815260040160405180910390fd5b610805631fc9b14160008051602061233283398151915261119c84611d68565b6040516001600160e01b031960e085901b1681526004810192909252602482015260448101879052606401600060405180830381600087803b1580156111e157600080fd5b505af11580156111f5573d6000803e3d6000fd5b5050505060016004856081811061120e5761120e61228e565b602081049091018054921515601f9092166101000a91820260ff909202199092161790556040516369e38bc360e01b815261ffff85166004820152610808906369e38bc390602401602060405180830381865afa158015611273573d6000803e3d6000fd5b505050506040513d601f19601f8201168201806040525081019061129791906122a4565b600985608181106112aa576112aa61228e565b015542608a85608181106112c0576112c061228e565b015550505b505060010161102c565b5050506112db60018055565b5050505050505050565b6112ed611cd3565b6112f76000611d78565b565b611301611931565b611309611cd3565b61131560028383611de7565b5061131f60018055565b5050565b6002818154811061133357600080fd5b6000918252602090912001546001600160a01b0316905081565b611355611dc8565b61135d611a4f565b905090565b608a816081811061137257600080fd5b0154905081565b6004816081811061138957600080fd5b60209182820401919006915054906101000a900460ff1681565b6113ab611dc8565b61135d61198a565b6113bb611931565b6113c3611cd3565b8060005b8181101561148e5760008484838181106113e3576113e361228e565b9050602002013590506113f581611d2d565b6040516369e38bc360e01b815261ffff82166004820152610808906369e38bc390602401602060405180830381865afa158015611436573d6000803e3d6000fd5b505050506040513d601f19601f8201168201806040525081019061145a91906122a4565b6009826081811061146d5761146d61228e565b015542608a82608181106114835761148361228e565b0155506001016113c7565b505061131f60018055565b6009816081811061137257600080fd5b6114b1611931565b6114b9611cd3565b8060005b8181101561148e5760008484838181106114d9576114d961228e565b9050602002013590506114eb81611d2d565b6003546040516371dacc7d60e11b815260008051602061233283398151915260048201526024810191909152604481018290526108059063e3b598fa90606401602060405180830381865afa158015611548573d6000803e3d6000fd5b505050506040513d601f19601f8201168201806040525081019061156c91906122a4565b6000036115a8576000600482608181106115885761158861228e565b602091828204019190066101000a81548160ff0219169083151502179055505b506001016114bd565b6115b9611cd3565b6001600160a01b0381166116235760405162461bcd60e51b815260206004820152602660248201527f4f776e61626c653a206e6577206f776e657220697320746865207a65726f206160448201526564647265737360d01b60648201526084015b60405180910390fd5b61063b81611d78565b611634611931565b61010b546001600160a01b0316331461166057604051632d99bc8360e21b815260040160405180910390fd5b6001600160a01b0382166116875760405163e6c4247b60e01b815260040160405180910390fd5b806000036116a8576040516365e52d5160e11b815260040160405180910390fd5b6000826001600160a01b03168260405160006040518083038185875af1925050503d80600081146116f5576040519150601f19603f3d011682016040523d82523d6000602084013e6116fa565b606091505b5050905080611315576040516312171d8360e31b815260040160405180910390fd5b611724611931565b61172c611cd3565b8061174a5760405163666b0c5d60e01b815260040160405180910390fd5b600381905561063b60018055565b611760611931565b61010b546001600160a01b0316331461178c57604051632d99bc8360e21b815260040160405180910390fd5b6001600160a01b0381166117b35760405163e6c4247b60e01b815260040160405180910390fd5b4760008190036117d6576040516365e52d5160e11b815260040160405180910390fd5b6000826001600160a01b03168260405160006040518083038185875af1925050503d8060008114611823576040519150601f19603f3d011682016040523d82523d6000602084013e611828565b606091505b505090508061184a576040516312171d8360e31b815260040160405180910390fd5b505061063b60018055565b60008084815b8181101561192457600061080563e3b598fa8a8a8581811061187f5761187f61228e565b905060200201358989868181106118985761189861228e565b6040516001600160e01b031960e087901b16815260048101949094526020029190910135602483015250604481018d9052606401602060405180830381865afa1580156118e9573d6000803e3d6000fd5b505050506040513d601f19601f8201168201806040525081019061190d91906122a4565b905061191981856122bd565b93505060010161185b565b5090979650505050505050565b6002600154036119835760405162461bcd60e51b815260206004820152601f60248201527f5265656e7472616e637947756172643a207265656e7472616e742063616c6c00604482015260640161161a565b6002600155565b611992611dc8565b60005b608161ffff82161015611a4b576040516369e38bc360e01b815261ffff82166004820152610808906369e38bc390602401602060405180830381865afa9250505080156119ff575060408051601f3d908101601f191682019092526119fc918101906122a4565b60015b611a25576000828261ffff1660818110611a1b57611a1b61228e565b6020020152611a43565b80838361ffff1660818110611a3c57611a3c61228e565b6020020152505b600101611995565b5090565b611a57611dc8565b60005b608161ffff82161015611a4b57604051632d9bfc7160e01b815261ffff8216600482015261080890632d9bfc7190602401602060405180830381865afa925050508015611ac4575060408051601f3d908101601f19168201909252611ac1918101906122de565b60015b611af9576000828261ffff1660818110611ae057611ae061228e565b67ffffffffffffffff9092166020929092020152611b26565b80838361ffff1660818110611b1057611b1061228e565b67ffffffffffffffff9092166020929092020152505b600101611a5a565b611b36611dc8565b60015b6081811015611c1e5760048160818110611b5557611b5561228e565b602081049091015460ff601f9092166101000a90041615611bfc576040516371dacc7d60e11b81526004810185905260248101849052604481018290526108059063e3b598fa90606401602060405180830381865afa158015611bbc573d6000803e3d6000fd5b505050506040513d601f19601f82011682018060405250810190611be091906122a4565b828260818110611bf257611bf261228e565b6020020152611c16565b6000828260818110611c1057611c1061228e565b60200201525b600101611b39565b5092915050565b6002546060908067ffffffffffffffff811115611c4457611c44612278565b604051908082528060200260200182016040528015611c6d578160200160208202803683370190505b50915060005b81811015611cce5760028181548110611c8e57611c8e61228e565b60009182526020909120015483516001600160a01b039091163190849083908110611cbb57611cbb61228e565b6020908102919091010152600101611c73565b505090565b6000546001600160a01b031633146112f75760405162461bcd60e51b815260206004820181905260248201527f4f776e61626c653a2063616c6c6572206973206e6f7420746865206f776e6572604482015260640161161a565b6081811061063b576040516368a3a6c360e11b815260040160405180910390fd5b6000818310611d5d5781611d5f565b825b90505b92915050565b6000611d62633b9aca008361230f565b600080546001600160a01b038381166001600160a01b0319831681178455604051919092169283917f8be0079c531659141344cd1fd0a4f28419497f9722a3daafe3b4186f6b6457e09190a35050565b6040518061102001604052806081906020820280368337509192915050565b828054828255906000526020600020908101928215611e3a579160200282015b82811115611e3a5781546001600160a01b0319166001600160a01b03843516178255602090920191600190910190611e07565b50611a4b9291505b80821115611a4b5760008155600101611e42565b60008083601f840112611e6857600080fd5b50813567ffffffffffffffff811115611e8057600080fd5b6020830191508360208260051b8501011115611e9b57600080fd5b9250929050565b60008060008060008060608789031215611ebb57600080fd5b863567ffffffffffffffff80821115611ed357600080fd5b611edf8a838b01611e56565b90985096506020890135915080821115611ef857600080fd5b611f048a838b01611e56565b90965094506040890135915080821115611f1d57600080fd5b50611f2a89828a01611e56565b979a9699509497509295939492505050565b60008151808452602080850194506020840160005b83811015611f6d57815187529582019590820190600101611f51565b509495945050505050565b602081526000611d5f6020830184611f3c565b80356001600160a01b0381168114611fa257600080fd5b919050565b600060208284031215611fb957600080fd5b611d5f82611f8b565b60008060008060408587031215611fd857600080fd5b843567ffffffffffffffff80821115611ff057600080fd5b611ffc88838901611e56565b9096509450602087013591508082111561201557600080fd5b5061202287828801611e56565b95989497509550505050565b8060005b6081811015610fd1578151845260209384019390910190600101612032565b6110208101611d62828461202e565b8060005b6081811015610fd157815167ffffffffffffffff16845260209384019390910190600101612064565b600061510061209c838c61202e565b6120aa61102084018b612060565b61204083018960005b60818110156120d457815115158352602092830192909101906001016120b3565b5050506120e561306084018961202e565b6120f361408084018861202e565b806150a084015261210681840187611f3c565b6150c084019590955250506150e001529695505050505050565b6000806000806000806000806080898b03121561213c57600080fd5b883567ffffffffffffffff8082111561215457600080fd5b6121608c838d01611e56565b909a50985060208b013591508082111561217957600080fd5b6121858c838d01611e56565b909850965060408b013591508082111561219e57600080fd5b6121aa8c838d01611e56565b909650945060608b01359150808211156121c357600080fd5b506121d08b828c01611e56565b999c989b5096995094979396929594505050565b600080602083850312156121f757600080fd5b823567ffffffffffffffff81111561220e57600080fd5b61221a85828601611e56565b90969095509350505050565b60006020828403121561223857600080fd5b5035919050565b6110208101611d628284612060565b6000806040838503121561226157600080fd5b61226a83611f8b565b946020939093013593505050565b634e487b7160e01b600052604160045260246000fd5b634e487b7160e01b600052603260045260246000fd5b6000602082840312156122b657600080fd5b5051919050565b80820180821115611d6257634e487b7160e01b600052601160045260246000fd5b6000602082840312156122f057600080fd5b815167ffffffffffffffff8116811461230857600080fd5b9392505050565b60008261232c57634e487b7160e01b600052601260045260246000fd5b50049056feb4c087119097fbe3985298eef52f35ef6271c48322a8c2d430902a9cc38d9473a26469706673582212209a45782b7f72f29d15222e787630fbfea3e84f256e67d0ce0ec9af568408082164736f6c63430008160033","opcodes":"PUSH1 0x80 PUSH1 0x40 MSTORE CALLVALUE DUP1 ISZERO PUSH2 0x10 JUMPI PUSH1 0x0 DUP1 REVERT JUMPDEST POP PUSH2 0x1A CALLER PUSH2 0x36 JUMP JUMPDEST PUSH1 0x1 DUP1 SSTORE PUSH2 0x10B DUP1 SLOAD PUSH1 0x1 PUSH1 0x1 PUSH1 0xA0 SHL SUB NOT AND CALLER OR SWAP1 SSTORE PUSH2 0x86 JUMP JUMPDEST PUSH1 0x0 DUP1 SLOAD PUSH1 0x1 PUSH1 0x1 PUSH1 0xA0 SHL SUB DUP4 DUP2 AND PUSH1 0x1 PUSH1 0x1 PUSH1 0xA0 SHL SUB NOT DUP4 AND DUP2 OR DUP5 SSTORE PUSH1 0x40 MLOAD SWAP2 SWAP1 SWAP3 AND SWAP3 DUP4 SWAP2 PUSH32 0x8BE0079C531659141344CD1FD0A4F28419497F9722A3DAAFE3B4186F6B6457E0 SWAP2 SWAP1 LOG3 POP POP JUMP JUMPDEST PUSH2 0x2387 DUP1 PUSH2 0x95 PUSH1 0x0 CODECOPY PUSH1 0x0 RETURN INVALID PUSH1 0x80 PUSH1 0x40 MSTORE PUSH1 0x4 CALLDATASIZE LT PUSH2 0x185 JUMPI PUSH1 0x0 CALLDATALOAD PUSH1 0xE0 SHR DUP1 PUSH4 0xA8C2BB0D GT PUSH2 0xD1 JUMPI DUP1 PUSH4 0xE2EDAC25 GT PUSH2 0x8A JUMPI DUP1 PUSH4 0xF528C62E GT PUSH2 0x64 JUMPI DUP1 PUSH4 0xF528C62E EQ PUSH2 0x472 JUMPI DUP1 PUSH4 0xF9036F02 EQ PUSH2 0x492 JUMPI DUP1 PUSH4 0xFA09E630 EQ PUSH2 0x4B2 JUMPI DUP1 PUSH4 0xFCD1A8D6 EQ PUSH2 0x4D2 JUMPI PUSH2 0x18C JUMP JUMPDEST DUP1 PUSH4 0xE2EDAC25 EQ PUSH2 0x412 JUMPI DUP1 PUSH4 0xE4240E7F EQ PUSH2 0x432 JUMPI DUP1 PUSH4 0xF2FDE38B EQ PUSH2 0x452 JUMPI PUSH2 0x18C JUMP JUMPDEST DUP1 PUSH4 0xA8C2BB0D EQ PUSH2 0x34A JUMPI DUP1 PUSH4 0xAF31A15D EQ PUSH2 0x36C JUMPI DUP1 PUSH4 0xBAA51F86 EQ PUSH2 0x38C JUMPI DUP1 PUSH4 0xBC28D5D0 EQ PUSH2 0x3BC JUMPI DUP1 PUSH4 0xC6DF7DAF EQ PUSH2 0x3D1 JUMPI DUP1 PUSH4 0xCDC18424 EQ PUSH2 0x3F1 JUMPI PUSH2 0x18C JUMP JUMPDEST DUP1 PUSH4 0x646E569B GT PUSH2 0x13E JUMPI DUP1 PUSH4 0x8DA5CB5B GT PUSH2 0x118 JUMPI DUP1 PUSH4 0x8DA5CB5B EQ PUSH2 0x2B4 JUMPI DUP1 PUSH4 0x947D3C3F EQ PUSH2 0x2E6 JUMPI DUP1 PUSH4 0x987D0E59 EQ PUSH2 0x30A JUMPI DUP1 PUSH4 0xA7678775 EQ PUSH2 0x32A JUMPI PUSH2 0x18C JUMP JUMPDEST DUP1 PUSH4 0x646E569B EQ PUSH2 0x279 JUMPI DUP1 PUSH4 0x69686275 EQ PUSH2 0x28C JUMPI DUP1 PUSH4 0x715018A6 EQ PUSH2 0x29F JUMPI PUSH2 0x18C JUMP JUMPDEST DUP1 PUSH4 0xD16AB81 EQ PUSH2 0x1A5 JUMPI DUP1 PUSH4 0xD174C24 EQ PUSH2 0x1DB JUMPI DUP1 PUSH4 0x26A224E0 EQ PUSH2 0x1FD JUMPI DUP1 PUSH4 0x276EF789 EQ PUSH2 0x22A JUMPI DUP1 PUSH4 0x3004C502 EQ PUSH2 0x253 JUMPI DUP1 PUSH4 0x5C45F3EF EQ PUSH2 0x266 JUMPI PUSH2 0x18C JUMP JUMPDEST CALLDATASIZE PUSH2 0x18C JUMPI STOP JUMPDEST PUSH1 0x40 MLOAD PUSH4 0x201F3FD3 PUSH1 0xE1 SHL DUP2 MSTORE PUSH1 0x4 ADD PUSH1 0x40 MLOAD DUP1 SWAP2 SUB SWAP1 REVERT JUMPDEST CALLVALUE DUP1 ISZERO PUSH2 0x1B1 JUMPI PUSH1 0x0 DUP1 REVERT JUMPDEST POP PUSH2 0x1C5 PUSH2 0x1C0 CALLDATASIZE PUSH1 0x4 PUSH2 0x1EA2 JUMP JUMPDEST PUSH2 0x4F4 JUMP JUMPDEST PUSH1 0x40 MLOAD PUSH2 0x1D2 SWAP2 SWAP1 PUSH2 0x1F78 JUMP JUMPDEST PUSH1 0x40 MLOAD DUP1 SWAP2 SUB SWAP1 RETURN JUMPDEST CALLVALUE DUP1 ISZERO PUSH2 0x1E7 JUMPI PUSH1 0x0 DUP1 REVERT JUMPDEST POP PUSH2 0x1FB PUSH2 0x1F6 CALLDATASIZE PUSH1 0x4 PUSH2 0x1FA7 JUMP JUMPDEST PUSH2 0x5BD JUMP JUMPDEST STOP JUMPDEST CALLVALUE DUP1 ISZERO PUSH2 0x209 JUMPI PUSH1 0x0 DUP1 REVERT JUMPDEST POP PUSH2 0x21D PUSH2 0x218 CALLDATASIZE PUSH1 0x4 PUSH2 0x1FC2 JUMP JUMPDEST PUSH2 0x63E JUMP JUMPDEST PUSH1 0x40 MLOAD PUSH2 0x1D2 SWAP2 SWAP1 PUSH2 0x2051 JUMP JUMPDEST CALLVALUE DUP1 ISZERO PUSH2 0x236 JUMPI PUSH1 0x0 DUP1 REVERT JUMPDEST POP PUSH2 0x23F PUSH2 0x767 JUMP JUMPDEST PUSH1 0x40 MLOAD PUSH2 0x1D2 SWAP9 SWAP8 SWAP7 SWAP6 SWAP5 SWAP4 SWAP3 SWAP2 SWAP1 PUSH2 0x208D JUMP JUMPDEST PUSH2 0x1FB PUSH2 0x261 CALLDATASIZE PUSH1 0x4 PUSH2 0x1EA2 JUMP JUMPDEST PUSH2 0x87D JUMP JUMPDEST PUSH2 0x1FB PUSH2 0x274 CALLDATASIZE PUSH1 0x4 PUSH2 0x1EA2 JUMP JUMPDEST PUSH2 0xB2B JUMP JUMPDEST PUSH2 0x1FB PUSH2 0x287 CALLDATASIZE PUSH1 0x4 PUSH2 0x1FC2 JUMP JUMPDEST PUSH2 0xDA0 JUMP JUMPDEST PUSH2 0x1FB PUSH2 0x29A CALLDATASIZE PUSH1 0x4 PUSH2 0x2120 JUMP JUMPDEST PUSH2 0xFD7 JUMP JUMPDEST CALLVALUE DUP1 ISZERO PUSH2 0x2AB JUMPI PUSH1 0x0 DUP1 REVERT JUMPDEST POP PUSH2 0x1FB PUSH2 0x12E5 JUMP JUMPDEST CALLVALUE DUP1 ISZERO PUSH2 0x2C0 JUMPI PUSH1 0x0 DUP1 REVERT JUMPDEST POP PUSH1 0x0 SLOAD PUSH1 0x1 PUSH1 0x1 PUSH1 0xA0 SHL SUB AND JUMPDEST PUSH1 0x40 MLOAD PUSH1 0x1 PUSH1 0x1 PUSH1 0xA0 SHL SUB SWAP1 SWAP2 AND DUP2 MSTORE PUSH1 0x20 ADD PUSH2 0x1D2 JUMP JUMPDEST CALLVALUE DUP1 ISZERO PUSH2 0x2F2 JUMPI PUSH1 0x0 DUP1 REVERT JUMPDEST POP PUSH2 0x2FC PUSH1 0x3 SLOAD DUP2 JUMP JUMPDEST PUSH1 0x40 MLOAD SWAP1 DUP2 MSTORE PUSH1 0x20 ADD PUSH2 0x1D2 JUMP JUMPDEST CALLVALUE DUP1 ISZERO PUSH2 0x316 JUMPI PUSH1 0x0 DUP1 REVERT JUMPDEST POP PUSH2 0x1FB PUSH2 0x325 CALLDATASIZE PUSH1 0x4 PUSH2 0x21E4 JUMP JUMPDEST PUSH2 0x12F9 JUMP JUMPDEST CALLVALUE DUP1 ISZERO PUSH2 0x336 JUMPI PUSH1 0x0 DUP1 REVERT JUMPDEST POP PUSH2 0x2CE PUSH2 0x345 CALLDATASIZE PUSH1 0x4 PUSH2 0x2226 JUMP JUMPDEST PUSH2 0x1323 JUMP JUMPDEST CALLVALUE DUP1 ISZERO PUSH2 0x356 JUMPI PUSH1 0x0 DUP1 REVERT JUMPDEST POP PUSH2 0x35F PUSH2 0x134D JUMP JUMPDEST PUSH1 0x40 MLOAD PUSH2 0x1D2 SWAP2 SWAP1 PUSH2 0x223F JUMP JUMPDEST CALLVALUE DUP1 ISZERO PUSH2 0x378 JUMPI PUSH1 0x0 DUP1 REVERT JUMPDEST POP PUSH2 0x2FC PUSH2 0x387 CALLDATASIZE PUSH1 0x4 PUSH2 0x2226 JUMP JUMPDEST PUSH2 0x1362 JUMP JUMPDEST CALLVALUE DUP1 ISZERO PUSH2 0x398 JUMPI PUSH1 0x0 DUP1 REVERT JUMPDEST POP PUSH2 0x3AC PUSH2 0x3A7 CALLDATASIZE PUSH1 0x4 PUSH2 0x2226 JUMP JUMPDEST PUSH2 0x1379 JUMP JUMPDEST PUSH1 0x40 MLOAD SWAP1 ISZERO ISZERO DUP2 MSTORE PUSH1 0x20 ADD PUSH2 0x1D2 JUMP JUMPDEST CALLVALUE DUP1 ISZERO PUSH2 0x3C8 JUMPI PUSH1 0x0 DUP1 REVERT JUMPDEST POP PUSH2 0x21D PUSH2 0x13A3 JUMP JUMPDEST CALLVALUE DUP1 ISZERO PUSH2 0x3DD JUMPI PUSH1 0x0 DUP1 REVERT JUMPDEST POP PUSH2 0x1FB PUSH2 0x3EC CALLDATASIZE PUSH1 0x4 PUSH2 0x21E4 JUMP JUMPDEST PUSH2 0x13B3 JUMP JUMPDEST CALLVALUE DUP1 ISZERO PUSH2 0x3FD JUMPI PUSH1 0x0 DUP1 REVERT JUMPDEST POP PUSH2 0x10B SLOAD PUSH2 0x2CE SWAP1 PUSH1 0x1 PUSH1 0x1 PUSH1 0xA0 SHL SUB AND DUP2 JUMP JUMPDEST CALLVALUE DUP1 ISZERO PUSH2 0x41E JUMPI PUSH1 0x0 DUP1 REVERT JUMPDEST POP PUSH2 0x2FC PUSH2 0x42D CALLDATASIZE PUSH1 0x4 PUSH2 0x2226 JUMP JUMPDEST PUSH2 0x1499 JUMP JUMPDEST CALLVALUE DUP1 ISZERO PUSH2 0x43E JUMPI PUSH1 0x0 DUP1 REVERT JUMPDEST POP PUSH2 0x1FB PUSH2 0x44D CALLDATASIZE PUSH1 0x4 PUSH2 0x21E4 JUMP JUMPDEST PUSH2 0x14A9 JUMP JUMPDEST CALLVALUE DUP1 ISZERO PUSH2 0x45E JUMPI PUSH1 0x0 DUP1 REVERT JUMPDEST POP PUSH2 0x1FB PUSH2 0x46D CALLDATASIZE PUSH1 0x4 PUSH2 0x1FA7 JUMP JUMPDEST PUSH2 0x15B1 JUMP JUMPDEST CALLVALUE DUP1 ISZERO PUSH2 0x47E JUMPI PUSH1 0x0 DUP1 REVERT JUMPDEST POP PUSH2 0x1FB PUSH2 0x48D CALLDATASIZE PUSH1 0x4 PUSH2 0x224E JUMP JUMPDEST PUSH2 0x162C JUMP JUMPDEST CALLVALUE DUP1 ISZERO PUSH2 0x49E JUMPI PUSH1 0x0 DUP1 REVERT JUMPDEST POP PUSH2 0x1FB PUSH2 0x4AD CALLDATASIZE PUSH1 0x4 PUSH2 0x2226 JUMP JUMPDEST PUSH2 0x171C JUMP JUMPDEST CALLVALUE DUP1 ISZERO PUSH2 0x4BE JUMPI PUSH1 0x0 DUP1 REVERT JUMPDEST POP PUSH2 0x1FB PUSH2 0x4CD CALLDATASIZE PUSH1 0x4 PUSH2 0x1FA7 JUMP JUMPDEST PUSH2 0x1758 JUMP JUMPDEST CALLVALUE DUP1 ISZERO PUSH2 0x4DE JUMPI PUSH1 0x0 DUP1 REVERT JUMPDEST POP PUSH2 0x2FC PUSH1 0x0 DUP1 MLOAD PUSH1 0x20 PUSH2 0x2332 DUP4 CODECOPY DUP2 MLOAD SWAP2 MSTORE DUP2 JUMP JUMPDEST PUSH1 0x60 DUP6 DUP5 DUP4 EQ PUSH2 0x517 JUMPI PUSH1 0x40 MLOAD PUSH4 0x512509D3 PUSH1 0xE1 SHL DUP2 MSTORE PUSH1 0x4 ADD PUSH1 0x40 MLOAD DUP1 SWAP2 SUB SWAP1 REVERT JUMPDEST DUP1 PUSH8 0xFFFFFFFFFFFFFFFF DUP2 GT ISZERO PUSH2 0x530 JUMPI PUSH2 0x530 PUSH2 0x2278 JUMP JUMPDEST PUSH1 0x40 MLOAD SWAP1 DUP1 DUP3 MSTORE DUP1 PUSH1 0x20 MUL PUSH1 0x20 ADD DUP3 ADD PUSH1 0x40 MSTORE DUP1 ISZERO PUSH2 0x559 JUMPI DUP2 PUSH1 0x20 ADD PUSH1 0x20 DUP3 MUL DUP1 CALLDATASIZE DUP4 CALLDATACOPY ADD SWAP1 POP JUMPDEST POP SWAP2 POP PUSH1 0x0 JUMPDEST DUP2 DUP2 LT ISZERO PUSH2 0x5B1 JUMPI PUSH2 0x58C DUP10 DUP10 DUP4 DUP2 DUP2 LT PUSH2 0x57C JUMPI PUSH2 0x57C PUSH2 0x228E JUMP JUMPDEST SWAP1 POP PUSH1 0x20 MUL ADD CALLDATALOAD DUP9 DUP9 DUP9 DUP9 PUSH2 0x1855 JUMP JUMPDEST DUP4 DUP3 DUP2 MLOAD DUP2 LT PUSH2 0x59E JUMPI PUSH2 0x59E PUSH2 0x228E JUMP JUMPDEST PUSH1 0x20 SWAP1 DUP2 MUL SWAP2 SWAP1 SWAP2 ADD ADD MSTORE PUSH1 0x1 ADD PUSH2 0x55F JUMP JUMPDEST POP POP SWAP7 SWAP6 POP POP POP POP POP POP JUMP JUMPDEST PUSH2 0x5C5 PUSH2 0x1931 JUMP JUMPDEST PUSH2 0x10B SLOAD PUSH1 0x1 PUSH1 0x1 PUSH1 0xA0 SHL SUB AND CALLER EQ PUSH2 0x5F1 JUMPI PUSH1 0x40 MLOAD PUSH4 0x2D99BC83 PUSH1 0xE2 SHL DUP2 MSTORE PUSH1 0x4 ADD PUSH1 0x40 MLOAD DUP1 SWAP2 SUB SWAP1 REVERT JUMPDEST PUSH1 0x1 PUSH1 0x1 PUSH1 0xA0 SHL SUB DUP2 AND PUSH2 0x618 JUMPI PUSH1 0x40 MLOAD PUSH4 0xE6C4247B PUSH1 0xE0 SHL DUP2 MSTORE PUSH1 0x4 ADD PUSH1 0x40 MLOAD DUP1 SWAP2 SUB SWAP1 REVERT JUMPDEST PUSH2 0x10B DUP1 SLOAD PUSH1 0x1 PUSH1 0x1 PUSH1 0xA0 SHL SUB NOT AND PUSH1 0x1 PUSH1 0x1 PUSH1 0xA0 SHL SUB DUP4 AND OR SWAP1 SSTORE PUSH1 0x1 DUP1 SSTORE POP JUMP JUMPDEST POP JUMP JUMPDEST PUSH2 0x646 PUSH2 0x1DC8 JUMP JUMPDEST DUP4 DUP3 DUP2 EQ PUSH2 0x667 JUMPI PUSH1 0x40 MLOAD PUSH4 0x512509D3 PUSH1 0xE1 SHL DUP2 MSTORE PUSH1 0x4 ADD PUSH1 0x40 MLOAD DUP1 SWAP2 SUB SWAP1 REVERT JUMPDEST PUSH1 0x0 JUMPDEST DUP2 DUP2 LT ISZERO PUSH2 0x75D JUMPI PUSH1 0x1 JUMPDEST PUSH1 0x81 DUP2 LT ISZERO PUSH2 0x754 JUMPI PUSH2 0x805 PUSH4 0xE3B598FA DUP10 DUP10 DUP6 DUP2 DUP2 LT PUSH2 0x698 JUMPI PUSH2 0x698 PUSH2 0x228E JUMP JUMPDEST SWAP1 POP PUSH1 0x20 MUL ADD CALLDATALOAD DUP9 DUP9 DUP7 DUP2 DUP2 LT PUSH2 0x6B1 JUMPI PUSH2 0x6B1 PUSH2 0x228E JUMP JUMPDEST PUSH1 0x40 MLOAD PUSH1 0x1 PUSH1 0x1 PUSH1 0xE0 SHL SUB NOT PUSH1 0xE0 DUP8 SWAP1 SHL AND DUP2 MSTORE PUSH1 0x4 DUP2 ADD SWAP5 SWAP1 SWAP5 MSTORE PUSH1 0x20 MUL SWAP2 SWAP1 SWAP2 ADD CALLDATALOAD PUSH1 0x24 DUP4 ADD MSTORE POP PUSH1 0x44 DUP2 ADD DUP5 SWAP1 MSTORE PUSH1 0x64 ADD PUSH1 0x20 PUSH1 0x40 MLOAD DUP1 DUP4 SUB DUP2 DUP7 GAS STATICCALL ISZERO DUP1 ISZERO PUSH2 0x702 JUMPI RETURNDATASIZE PUSH1 0x0 DUP1 RETURNDATACOPY RETURNDATASIZE PUSH1 0x0 REVERT JUMPDEST POP POP POP POP PUSH1 0x40 MLOAD RETURNDATASIZE PUSH1 0x1F NOT PUSH1 0x1F DUP3 ADD AND DUP3 ADD DUP1 PUSH1 0x40 MSTORE POP DUP2 ADD SWAP1 PUSH2 0x726 SWAP2 SWAP1 PUSH2 0x22A4 JUMP JUMPDEST DUP5 DUP3 PUSH1 0x81 DUP2 LT PUSH2 0x738 JUMPI PUSH2 0x738 PUSH2 0x228E JUMP JUMPDEST PUSH1 0x20 MUL ADD DUP2 DUP2 MLOAD PUSH2 0x749 SWAP2 SWAP1 PUSH2 0x22BD JUMP JUMPDEST SWAP1 MSTORE POP PUSH1 0x1 ADD PUSH2 0x675 JUMP JUMPDEST POP PUSH1 0x1 ADD PUSH2 0x66A JUMP JUMPDEST POP POP SWAP5 SWAP4 POP POP POP POP JUMP JUMPDEST PUSH2 0x76F PUSH2 0x1DC8 JUMP JUMPDEST PUSH2 0x777 PUSH2 0x1DC8 JUMP JUMPDEST PUSH2 0x77F PUSH2 0x1DC8 JUMP JUMPDEST PUSH2 0x787 PUSH2 0x1DC8 JUMP JUMPDEST PUSH2 0x78F PUSH2 0x1DC8 JUMP JUMPDEST PUSH1 0x60 PUSH1 0x0 DUP1 PUSH2 0x79C PUSH2 0x198A JUMP JUMPDEST SWAP8 POP PUSH2 0x7A6 PUSH2 0x1A4F JUMP JUMPDEST PUSH1 0x40 DUP1 MLOAD PUSH2 0x1020 DUP2 ADD SWAP2 DUP3 SWAP1 MSTORE SWAP2 SWAP9 POP PUSH1 0x4 SWAP1 PUSH1 0x81 SWAP1 DUP3 PUSH1 0x0 DUP6 JUMPDEST DUP3 SLOAD PUSH2 0x100 DUP4 SWAP1 EXP SWAP1 DIV PUSH1 0xFF AND ISZERO ISZERO DUP2 MSTORE PUSH1 0x20 PUSH1 0x1 SWAP3 DUP4 ADD DUP2 DUP2 DIV SWAP5 DUP6 ADD SWAP5 SWAP1 SWAP4 SUB SWAP1 SWAP3 MUL SWAP2 ADD DUP1 DUP5 GT PUSH2 0x7C1 JUMPI SWAP1 POP POP POP POP POP POP SWAP6 POP PUSH2 0x815 PUSH1 0x0 DUP1 MLOAD PUSH1 0x20 PUSH2 0x2332 DUP4 CODECOPY DUP2 MLOAD SWAP2 MSTORE PUSH1 0x0 SHL PUSH1 0x3 SLOAD PUSH2 0x1B2E JUMP JUMPDEST SWAP4 POP PUSH2 0x81F PUSH2 0x1C25 JUMP JUMPDEST PUSH1 0x40 DUP1 MLOAD PUSH2 0x1020 DUP2 ADD SWAP2 DUP3 SWAP1 MSTORE SWAP2 SWAP5 POP PUSH1 0x9 SWAP1 PUSH1 0x81 SWAP1 DUP3 DUP5 JUMPDEST DUP2 SLOAD DUP2 MSTORE PUSH1 0x20 ADD SWAP1 PUSH1 0x1 ADD SWAP1 DUP1 DUP4 GT PUSH2 0x838 JUMPI POP POP POP POP POP SWAP5 POP SELFBALANCE SWAP2 POP PUSH2 0x867 PUSH1 0x0 SLOAD PUSH1 0x1 PUSH1 0x1 PUSH1 0xA0 SHL SUB AND SWAP1 JUMP JUMPDEST PUSH1 0x1 PUSH1 0x1 PUSH1 0xA0 SHL SUB AND BALANCE SWAP1 POP SWAP1 SWAP2 SWAP3 SWAP4 SWAP5 SWAP6 SWAP7 SWAP8 JUMP JUMPDEST PUSH2 0x885 PUSH2 0x1931 JUMP JUMPDEST PUSH2 0x88D PUSH2 0x1CD3 JUMP JUMPDEST DUP5 DUP4 DUP2 EQ ISZERO DUP1 PUSH2 0x89D JUMPI POP DUP1 DUP3 EQ ISZERO JUMPDEST ISZERO PUSH2 0x8BB JUMPI PUSH1 0x40 MLOAD PUSH4 0x512509D3 PUSH1 0xE1 SHL DUP2 MSTORE PUSH1 0x4 ADD PUSH1 0x40 MLOAD DUP1 SWAP2 SUB SWAP1 REVERT JUMPDEST PUSH1 0x0 JUMPDEST DUP2 DUP2 LT ISZERO PUSH2 0xB18 JUMPI PUSH1 0x0 DUP7 DUP7 DUP4 DUP2 DUP2 LT PUSH2 0x8DA JUMPI PUSH2 0x8DA PUSH2 0x228E JUMP JUMPDEST SWAP1 POP PUSH1 0x20 MUL ADD CALLDATALOAD SWAP1 POP DUP1 PUSH1 0x0 EQ PUSH2 0xB0F JUMPI PUSH1 0x0 DUP10 DUP10 DUP5 DUP2 DUP2 LT PUSH2 0x8FF JUMPI PUSH2 0x8FF PUSH2 0x228E JUMP JUMPDEST SWAP1 POP PUSH1 0x20 MUL ADD CALLDATALOAD SWAP1 POP PUSH2 0x911 DUP2 PUSH2 0x1D2D JUMP JUMPDEST PUSH1 0x40 MLOAD PUSH4 0x69E38BC3 PUSH1 0xE0 SHL DUP2 MSTORE PUSH2 0xFFFF DUP3 AND PUSH1 0x4 DUP3 ADD MSTORE PUSH1 0x0 SWAP1 PUSH2 0x808 SWAP1 PUSH4 0x69E38BC3 SWAP1 PUSH1 0x24 ADD PUSH1 0x20 PUSH1 0x40 MLOAD DUP1 DUP4 SUB DUP2 DUP7 GAS STATICCALL ISZERO DUP1 ISZERO PUSH2 0x955 JUMPI RETURNDATASIZE PUSH1 0x0 DUP1 RETURNDATACOPY RETURNDATASIZE PUSH1 0x0 REVERT JUMPDEST POP POP POP POP PUSH1 0x40 MLOAD RETURNDATASIZE PUSH1 0x1F NOT PUSH1 0x1F DUP3 ADD AND DUP3 ADD DUP1 PUSH1 0x40 MSTORE POP DUP2 ADD SWAP1 PUSH2 0x979 SWAP2 SWAP1 PUSH2 0x22A4 JUMP JUMPDEST SWAP1 POP DUP1 DUP8 DUP8 DUP7 DUP2 DUP2 LT PUSH2 0x98E JUMPI PUSH2 0x98E PUSH2 0x228E JUMP JUMPDEST SWAP1 POP PUSH1 0x20 MUL ADD CALLDATALOAD LT PUSH2 0xB0C JUMPI PUSH1 0x0 PUSH2 0x9A6 SELFBALANCE DUP6 PUSH2 0x1D4E JUMP JUMPDEST SWAP1 POP DUP1 PUSH1 0x0 SUB PUSH2 0x9C9 JUMPI PUSH1 0x40 MLOAD PUSH4 0x65E52D51 PUSH1 0xE1 SHL DUP2 MSTORE PUSH1 0x4 ADD PUSH1 0x40 MLOAD DUP1 SWAP2 SUB SWAP1 REVERT JUMPDEST PUSH2 0x805 PUSH4 0x1FC9B141 PUSH1 0x0 DUP1 MLOAD PUSH1 0x20 PUSH2 0x2332 DUP4 CODECOPY DUP2 MLOAD SWAP2 MSTORE PUSH2 0x9E9 DUP5 PUSH2 0x1D68 JUMP JUMPDEST PUSH1 0x40 MLOAD PUSH1 0x1 PUSH1 0x1 PUSH1 0xE0 SHL SUB NOT PUSH1 0xE0 DUP6 SWAP1 SHL AND DUP2 MSTORE PUSH1 0x4 DUP2 ADD SWAP3 SWAP1 SWAP3 MSTORE PUSH1 0x24 DUP3 ADD MSTORE PUSH1 0x44 DUP2 ADD DUP7 SWAP1 MSTORE PUSH1 0x64 ADD PUSH1 0x0 PUSH1 0x40 MLOAD DUP1 DUP4 SUB DUP2 PUSH1 0x0 DUP8 DUP1 EXTCODESIZE ISZERO DUP1 ISZERO PUSH2 0xA2E JUMPI PUSH1 0x0 DUP1 REVERT JUMPDEST POP GAS CALL ISZERO DUP1 ISZERO PUSH2 0xA42 JUMPI RETURNDATASIZE PUSH1 0x0 DUP1 RETURNDATACOPY RETURNDATASIZE PUSH1 0x0 REVERT JUMPDEST POP POP PUSH1 0x40 MLOAD PUSH4 0x69E38BC3 PUSH1 0xE0 SHL DUP2 MSTORE PUSH2 0xFFFF DUP7 AND PUSH1 0x4 DUP3 ADD MSTORE PUSH2 0x808 SWAP3 POP PUSH4 0x69E38BC3 SWAP2 POP PUSH1 0x24 ADD PUSH1 0x20 PUSH1 0x40 MLOAD DUP1 DUP4 SUB DUP2 DUP7 GAS STATICCALL ISZERO DUP1 ISZERO PUSH2 0xA87 JUMPI RETURNDATASIZE PUSH1 0x0 DUP1 RETURNDATACOPY RETURNDATASIZE PUSH1 0x0 REVERT JUMPDEST POP POP POP POP PUSH1 0x40 MLOAD RETURNDATASIZE PUSH1 0x1F NOT PUSH1 0x1F DUP3 ADD AND DUP3 ADD DUP1 PUSH1 0x40 MSTORE POP DUP2 ADD SWAP1 PUSH2 0xAAB SWAP2 SWAP1 PUSH2 0x22A4 JUMP JUMPDEST PUSH1 0x9 DUP5 PUSH1 0x81 DUP2 LT PUSH2 0xABE JUMPI PUSH2 0xABE PUSH2 0x228E JUMP JUMPDEST ADD SSTORE PUSH1 0x1 PUSH1 0x4 DUP5 PUSH1 0x81 DUP2 LT PUSH2 0xAD5 JUMPI PUSH2 0xAD5 PUSH2 0x228E JUMP JUMPDEST PUSH1 0x20 SWAP2 DUP3 DUP3 DIV ADD SWAP2 SWAP1 MOD PUSH2 0x100 EXP DUP2 SLOAD DUP2 PUSH1 0xFF MUL NOT AND SWAP1 DUP4 ISZERO ISZERO MUL OR SWAP1 SSTORE POP TIMESTAMP PUSH1 0x8A DUP5 PUSH1 0x81 DUP2 LT PUSH2 0xB08 JUMPI PUSH2 0xB08 PUSH2 0x228E JUMP JUMPDEST ADD SSTORE POP JUMPDEST POP POP JUMPDEST POP PUSH1 0x1 ADD PUSH2 0x8BE JUMP JUMPDEST POP POP PUSH2 0xB23 PUSH1 0x1 DUP1 SSTORE JUMP JUMPDEST POP POP POP POP POP POP JUMP JUMPDEST PUSH2 0xB33 PUSH2 0x1931 JUMP JUMPDEST PUSH2 0xB3B PUSH2 0x1CD3 JUMP JUMPDEST DUP5 DUP4 DUP3 EQ PUSH2 0xB5C JUMPI PUSH1 0x40 MLOAD PUSH4 0x512509D3 PUSH1 0xE1 SHL DUP2 MSTORE PUSH1 0x4 ADD PUSH1 0x40 MLOAD DUP1 SWAP2 SUB SWAP1 REVERT JUMPDEST DUP4 PUSH1 0x0 JUMPDEST DUP3 DUP2 LT ISZERO PUSH2 0xD94 JUMPI PUSH1 0x0 DUP10 DUP10 DUP4 DUP2 DUP2 LT PUSH2 0xB7C JUMPI PUSH2 0xB7C PUSH2 0x228E JUMP JUMPDEST SWAP1 POP PUSH1 0x20 MUL ADD CALLDATALOAD SWAP1 POP PUSH2 0xB8E DUP2 PUSH2 0x1D2D JUMP JUMPDEST PUSH1 0x8A DUP2 PUSH1 0x81 DUP2 LT PUSH2 0xBA1 JUMPI PUSH2 0xBA1 PUSH2 0x228E JUMP JUMPDEST ADD SLOAD TIMESTAMP EQ PUSH2 0xD8B JUMPI PUSH1 0x0 JUMPDEST DUP4 DUP2 LT ISZERO PUSH2 0xD89 JUMPI PUSH4 0x3B9ACA00 PUSH2 0x805 PUSH4 0xE3B598FA DUP12 DUP12 DUP6 DUP2 DUP2 LT PUSH2 0xBD3 JUMPI PUSH2 0xBD3 PUSH2 0x228E JUMP JUMPDEST SWAP1 POP PUSH1 0x20 MUL ADD CALLDATALOAD DUP11 DUP11 DUP7 DUP2 DUP2 LT PUSH2 0xBEC JUMPI PUSH2 0xBEC PUSH2 0x228E JUMP JUMPDEST PUSH1 0x40 MLOAD PUSH1 0x1 PUSH1 0x1 PUSH1 0xE0 SHL SUB NOT PUSH1 0xE0 DUP8 SWAP1 SHL AND DUP2 MSTORE PUSH1 0x4 DUP2 ADD SWAP5 SWAP1 SWAP5 MSTORE PUSH1 0x20 MUL SWAP2 SWAP1 SWAP2 ADD CALLDATALOAD PUSH1 0x24 DUP4 ADD MSTORE POP PUSH1 0x44 DUP2 ADD DUP7 SWAP1 MSTORE PUSH1 0x64 ADD PUSH1 0x20 PUSH1 0x40 MLOAD DUP1 DUP4 SUB DUP2 DUP7 GAS STATICCALL ISZERO DUP1 ISZERO PUSH2 0xC3D JUMPI RETURNDATASIZE PUSH1 0x0 DUP1 RETURNDATACOPY RETURNDATASIZE PUSH1 0x0 REVERT JUMPDEST POP POP POP POP PUSH1 0x40 MLOAD RETURNDATASIZE PUSH1 0x1F NOT PUSH1 0x1F DUP3 ADD AND DUP3 ADD DUP1 PUSH1 0x40 MSTORE POP DUP2 ADD SWAP1 PUSH2 0xC61 SWAP2 SWAP1 PUSH2 0x22A4 JUMP JUMPDEST GT ISZERO PUSH2 0xD81 JUMPI PUSH1 0x40 MLOAD PUSH4 0xD4626BB9 PUSH1 0xE0 SHL DUP2 MSTORE PUSH1 0x0 DUP1 MLOAD PUSH1 0x20 PUSH2 0x2332 DUP4 CODECOPY DUP2 MLOAD SWAP2 MSTORE PUSH1 0x4 DUP3 ADD MSTORE PUSH1 0x24 DUP2 ADD DUP4 SWAP1 MSTORE PUSH2 0x805 SWAP1 PUSH4 0xD4626BB9 SWAP1 PUSH1 0x44 ADD PUSH1 0x0 PUSH1 0x40 MLOAD DUP1 DUP4 SUB DUP2 PUSH1 0x0 DUP8 DUP1 EXTCODESIZE ISZERO DUP1 ISZERO PUSH2 0xCB6 JUMPI PUSH1 0x0 DUP1 REVERT JUMPDEST POP GAS CALL ISZERO DUP1 ISZERO PUSH2 0xCCA JUMPI RETURNDATASIZE PUSH1 0x0 DUP1 RETURNDATACOPY RETURNDATASIZE PUSH1 0x0 REVERT JUMPDEST POP POP PUSH1 0x40 MLOAD PUSH4 0x69E38BC3 PUSH1 0xE0 SHL DUP2 MSTORE PUSH2 0xFFFF DUP6 AND PUSH1 0x4 DUP3 ADD MSTORE PUSH2 0x808 SWAP3 POP PUSH4 0x69E38BC3 SWAP2 POP PUSH1 0x24 ADD PUSH1 0x20 PUSH1 0x40 MLOAD DUP1 DUP4 SUB DUP2 DUP7 GAS STATICCALL ISZERO DUP1 ISZERO PUSH2 0xD0F JUMPI RETURNDATASIZE PUSH1 0x0 DUP1 RETURNDATACOPY RETURNDATASIZE PUSH1 0x0 REVERT JUMPDEST POP POP POP POP PUSH1 0x40 MLOAD RETURNDATASIZE PUSH1 0x1F NOT PUSH1 0x1F DUP3 ADD AND DUP3 ADD DUP1 PUSH1 0x40 MSTORE POP DUP2 ADD SWAP1 PUSH2 0xD33 SWAP2 SWAP1 PUSH2 0x22A4 JUMP JUMPDEST PUSH1 0x9 DUP4 PUSH1 0x81 DUP2 LT PUSH2 0xD46 JUMPI PUSH2 0xD46 PUSH2 0x228E JUMP JUMPDEST ADD SSTORE PUSH1 0x0 PUSH1 0x4 DUP4 PUSH1 0x81 DUP2 LT PUSH2 0xD5D JUMPI PUSH2 0xD5D PUSH2 0x228E JUMP JUMPDEST PUSH1 0x20 SWAP2 DUP3 DUP3 DIV ADD SWAP2 SWAP1 MOD PUSH2 0x100 EXP DUP2 SLOAD DUP2 PUSH1 0xFF MUL NOT AND SWAP1 DUP4 ISZERO ISZERO MUL OR SWAP1 SSTORE POP PUSH2 0xD89 JUMP JUMPDEST PUSH1 0x1 ADD PUSH2 0xBAC JUMP JUMPDEST POP JUMPDEST POP PUSH1 0x1 ADD PUSH2 0xB60 JUMP JUMPDEST POP POP POP PUSH2 0xB23 PUSH1 0x1 DUP1 SSTORE JUMP JUMPDEST PUSH2 0xDA8 PUSH2 0x1931 JUMP JUMPDEST PUSH2 0xDB0 PUSH2 0x1CD3 JUMP JUMPDEST DUP3 DUP2 DUP2 EQ PUSH2 0xDD1 JUMPI PUSH1 0x40 MLOAD PUSH4 0x512509D3 PUSH1 0xE1 SHL DUP2 MSTORE PUSH1 0x4 ADD PUSH1 0x40 MLOAD DUP1 SWAP2 SUB SWAP1 REVERT JUMPDEST PUSH1 0x0 JUMPDEST DUP2 DUP2 LT ISZERO PUSH2 0xFC6 JUMPI PUSH1 0x0 DUP7 DUP7 DUP4 DUP2 DUP2 LT PUSH2 0xDF0 JUMPI PUSH2 0xDF0 PUSH2 0x228E JUMP JUMPDEST SWAP1 POP PUSH1 0x20 MUL ADD CALLDATALOAD SWAP1 POP PUSH2 0xE02 DUP2 PUSH2 0x1D2D JUMP JUMPDEST PUSH1 0x40 MLOAD PUSH4 0x69E38BC3 PUSH1 0xE0 SHL DUP2 MSTORE PUSH2 0xFFFF DUP3 AND PUSH1 0x4 DUP3 ADD MSTORE PUSH1 0x0 SWAP1 PUSH2 0x808 SWAP1 PUSH4 0x69E38BC3 SWAP1 PUSH1 0x24 ADD PUSH1 0x20 PUSH1 0x40 MLOAD DUP1 DUP4 SUB DUP2 DUP7 GAS STATICCALL ISZERO DUP1 ISZERO PUSH2 0xE46 JUMPI RETURNDATASIZE PUSH1 0x0 DUP1 RETURNDATACOPY RETURNDATASIZE PUSH1 0x0 REVERT JUMPDEST POP POP POP POP PUSH1 0x40 MLOAD RETURNDATASIZE PUSH1 0x1F NOT PUSH1 0x1F DUP3 ADD AND DUP3 ADD DUP1 PUSH1 0x40 MSTORE POP DUP2 ADD SWAP1 PUSH2 0xE6A SWAP2 SWAP1 PUSH2 0x22A4 JUMP JUMPDEST SWAP1 POP DUP1 DUP7 DUP7 DUP6 DUP2 DUP2 LT PUSH2 0xE7F JUMPI PUSH2 0xE7F PUSH2 0x228E JUMP JUMPDEST SWAP1 POP PUSH1 0x20 MUL ADD CALLDATALOAD GT PUSH2 0xFBC JUMPI PUSH1 0x8A DUP3 PUSH1 0x81 DUP2 LT PUSH2 0xE9E JUMPI PUSH2 0xE9E PUSH2 0x228E JUMP JUMPDEST ADD SLOAD TIMESTAMP EQ PUSH2 0xFBC JUMPI PUSH1 0x40 MLOAD PUSH4 0xD4626BB9 PUSH1 0xE0 SHL DUP2 MSTORE PUSH1 0x0 DUP1 MLOAD PUSH1 0x20 PUSH2 0x2332 DUP4 CODECOPY DUP2 MLOAD SWAP2 MSTORE PUSH1 0x4 DUP3 ADD MSTORE PUSH1 0x24 DUP2 ADD DUP4 SWAP1 MSTORE PUSH2 0x805 SWAP1 PUSH4 0xD4626BB9 SWAP1 PUSH1 0x44 ADD PUSH1 0x0 PUSH1 0x40 MLOAD DUP1 DUP4 SUB DUP2 PUSH1 0x0 DUP8 DUP1 EXTCODESIZE ISZERO DUP1 ISZERO PUSH2 0xEF5 JUMPI PUSH1 0x0 DUP1 REVERT JUMPDEST POP GAS CALL ISZERO DUP1 ISZERO PUSH2 0xF09 JUMPI RETURNDATASIZE PUSH1 0x0 DUP1 RETURNDATACOPY RETURNDATASIZE PUSH1 0x0 REVERT JUMPDEST POP POP PUSH1 0x40 MLOAD PUSH4 0x69E38BC3 PUSH1 0xE0 SHL DUP2 MSTORE PUSH2 0xFFFF DUP6 AND PUSH1 0x4 DUP3 ADD MSTORE PUSH2 0x808 SWAP3 POP PUSH4 0x69E38BC3 SWAP2 POP PUSH1 0x24 ADD PUSH1 0x20 PUSH1 0x40 MLOAD DUP1 DUP4 SUB DUP2 DUP7 GAS STATICCALL ISZERO DUP1 ISZERO PUSH2 0xF4E JUMPI RETURNDATASIZE PUSH1 0x0 DUP1 RETURNDATACOPY RETURNDATASIZE PUSH1 0x0 REVERT JUMPDEST POP POP POP POP PUSH1 0x40 MLOAD RETURNDATASIZE PUSH1 0x1F NOT PUSH1 0x1F DUP3 ADD AND DUP3 ADD DUP1 PUSH1 0x40 MSTORE POP DUP2 ADD SWAP1 PUSH2 0xF72 SWAP2 SWAP1 PUSH2 0x22A4 JUMP JUMPDEST PUSH1 0x9 DUP4 PUSH1 0x81 DUP2 LT PUSH2 0xF85 JUMPI PUSH2 0xF85 PUSH2 0x228E JUMP JUMPDEST ADD SSTORE PUSH1 0x0 PUSH1 0x4 DUP4 PUSH1 0x81 DUP2 LT PUSH2 0xF9C JUMPI PUSH2 0xF9C PUSH2 0x228E JUMP JUMPDEST PUSH1 0x20 SWAP2 DUP3 DUP3 DIV ADD SWAP2 SWAP1 MOD PUSH2 0x100 EXP DUP2 SLOAD DUP2 PUSH1 0xFF MUL NOT AND SWAP1 DUP4 ISZERO ISZERO MUL OR SWAP1 SSTORE POP JUMPDEST POP POP PUSH1 0x1 ADD PUSH2 0xDD4 JUMP JUMPDEST POP POP PUSH2 0xFD1 PUSH1 0x1 DUP1 SSTORE JUMP JUMPDEST POP POP POP POP JUMP JUMPDEST PUSH2 0xFDF PUSH2 0x1931 JUMP JUMPDEST PUSH2 0xFE7 PUSH2 0x1CD3 JUMP JUMPDEST DUP7 DUP6 DUP2 EQ PUSH2 0x1008 JUMPI PUSH1 0x40 MLOAD PUSH4 0x512509D3 PUSH1 0xE1 SHL DUP2 MSTORE PUSH1 0x4 ADD PUSH1 0x40 MLOAD DUP1 SWAP2 SUB SWAP1 REVERT JUMPDEST DUP4 DUP3 EQ PUSH2 0x1028 JUMPI PUSH1 0x40 MLOAD PUSH4 0x512509D3 PUSH1 0xE1 SHL DUP2 MSTORE PUSH1 0x4 ADD PUSH1 0x40 MLOAD DUP1 SWAP2 SUB SWAP1 REVERT JUMPDEST DUP4 PUSH1 0x0 JUMPDEST DUP3 DUP2 LT ISZERO PUSH2 0x12CF JUMPI PUSH1 0x0 DUP12 DUP12 DUP4 DUP2 DUP2 LT PUSH2 0x1048 JUMPI PUSH2 0x1048 PUSH2 0x228E JUMP JUMPDEST SWAP1 POP PUSH1 0x20 MUL ADD CALLDATALOAD SWAP1 POP PUSH2 0x105A DUP2 PUSH2 0x1D2D JUMP JUMPDEST PUSH1 0x0 DUP1 JUMPDEST DUP5 DUP2 LT ISZERO PUSH2 0x112A JUMPI PUSH4 0x3B9ACA00 PUSH2 0x805 PUSH4 0xE3B598FA DUP13 DUP13 DUP6 DUP2 DUP2 LT PUSH2 0x1085 JUMPI PUSH2 0x1085 PUSH2 0x228E JUMP JUMPDEST SWAP1 POP PUSH1 0x20 MUL ADD CALLDATALOAD DUP12 DUP12 DUP7 DUP2 DUP2 LT PUSH2 0x109E JUMPI PUSH2 0x109E PUSH2 0x228E JUMP JUMPDEST PUSH1 0x40 MLOAD PUSH1 0x1 PUSH1 0x1 PUSH1 0xE0 SHL SUB NOT PUSH1 0xE0 DUP8 SWAP1 SHL AND DUP2 MSTORE PUSH1 0x4 DUP2 ADD SWAP5 SWAP1 SWAP5 MSTORE PUSH1 0x20 MUL SWAP2 SWAP1 SWAP2 ADD CALLDATALOAD PUSH1 0x24 DUP4 ADD MSTORE POP PUSH1 0x44 DUP2 ADD DUP8 SWAP1 MSTORE PUSH1 0x64 ADD PUSH1 0x20 PUSH1 0x40 MLOAD DUP1 DUP4 SUB DUP2 DUP7 GAS STATICCALL ISZERO DUP1 ISZERO PUSH2 0x10EF JUMPI RETURNDATASIZE PUSH1 0x0 DUP1 RETURNDATACOPY RETURNDATASIZE PUSH1 0x0 REVERT JUMPDEST POP POP POP POP PUSH1 0x40 MLOAD RETURNDATASIZE PUSH1 0x1F NOT PUSH1 0x1F DUP3 ADD AND DUP3 ADD DUP1 PUSH1 0x40 MSTORE POP DUP2 ADD SWAP1 PUSH2 0x1113 SWAP2 SWAP1 PUSH2 0x22A4 JUMP JUMPDEST GT ISZERO PUSH2 0x1122 JUMPI PUSH1 0x1 SWAP2 POP PUSH2 0x112A JUMP JUMPDEST PUSH1 0x1 ADD PUSH2 0x105E JUMP JUMPDEST POP DUP1 PUSH2 0x12C5 JUMPI PUSH1 0x0 DUP12 DUP12 DUP6 DUP2 DUP2 LT PUSH2 0x1144 JUMPI PUSH2 0x1144 PUSH2 0x228E JUMP JUMPDEST SWAP1 POP PUSH1 0x20 MUL ADD CALLDATALOAD SWAP1 POP PUSH1 0x0 PUSH2 0x1159 SELFBALANCE DUP4 PUSH2 0x1D4E JUMP JUMPDEST SWAP1 POP DUP1 PUSH1 0x0 SUB PUSH2 0x117C JUMPI PUSH1 0x40 MLOAD PUSH4 0x65E52D51 PUSH1 0xE1 SHL DUP2 MSTORE PUSH1 0x4 ADD PUSH1 0x40 MLOAD DUP1 SWAP2 SUB SWAP1 REVERT JUMPDEST PUSH2 0x805 PUSH4 0x1FC9B141 PUSH1 0x0 DUP1 MLOAD PUSH1 0x20 PUSH2 0x2332 DUP4 CODECOPY DUP2 MLOAD SWAP2 MSTORE PUSH2 0x119C DUP5 PUSH2 0x1D68 JUMP JUMPDEST PUSH1 0x40 MLOAD PUSH1 0x1 PUSH1 0x1 PUSH1 0xE0 SHL SUB NOT PUSH1 0xE0 DUP6 SWAP1 SHL AND DUP2 MSTORE PUSH1 0x4 DUP2 ADD SWAP3 SWAP1 SWAP3 MSTORE PUSH1 0x24 DUP3 ADD MSTORE PUSH1 0x44 DUP2 ADD DUP8 SWAP1 MSTORE PUSH1 0x64 ADD PUSH1 0x0 PUSH1 0x40 MLOAD DUP1 DUP4 SUB DUP2 PUSH1 0x0 DUP8 DUP1 EXTCODESIZE ISZERO DUP1 ISZERO PUSH2 0x11E1 JUMPI PUSH1 0x0 DUP1 REVERT JUMPDEST POP GAS CALL ISZERO DUP1 ISZERO PUSH2 0x11F5 JUMPI RETURNDATASIZE PUSH1 0x0 DUP1 RETURNDATACOPY RETURNDATASIZE PUSH1 0x0 REVERT JUMPDEST POP POP POP POP PUSH1 0x1 PUSH1 0x4 DUP6 PUSH1 0x81 DUP2 LT PUSH2 0x120E JUMPI PUSH2 0x120E PUSH2 0x228E JUMP JUMPDEST PUSH1 0x20 DUP2 DIV SWAP1 SWAP2 ADD DUP1 SLOAD SWAP3 ISZERO ISZERO PUSH1 0x1F SWAP1 SWAP3 AND PUSH2 0x100 EXP SWAP2 DUP3 MUL PUSH1 0xFF SWAP1 SWAP3 MUL NOT SWAP1 SWAP3 AND OR SWAP1 SSTORE PUSH1 0x40 MLOAD PUSH4 0x69E38BC3 PUSH1 0xE0 SHL DUP2 MSTORE PUSH2 0xFFFF DUP6 AND PUSH1 0x4 DUP3 ADD MSTORE PUSH2 0x808 SWAP1 PUSH4 0x69E38BC3 SWAP1 PUSH1 0x24 ADD PUSH1 0x20 PUSH1 0x40 MLOAD DUP1 DUP4 SUB DUP2 DUP7 GAS STATICCALL ISZERO DUP1 ISZERO PUSH2 0x1273 JUMPI RETURNDATASIZE PUSH1 0x0 DUP1 RETURNDATACOPY RETURNDATASIZE PUSH1 0x0 REVERT JUMPDEST POP POP POP POP PUSH1 0x40 MLOAD RETURNDATASIZE PUSH1 0x1F NOT PUSH1 0x1F DUP3 ADD AND DUP3 ADD DUP1 PUSH1 0x40 MSTORE POP DUP2 ADD SWAP1 PUSH2 0x1297 SWAP2 SWAP1 PUSH2 0x22A4 JUMP JUMPDEST PUSH1 0x9 DUP6 PUSH1 0x81 DUP2 LT PUSH2 0x12AA JUMPI PUSH2 0x12AA PUSH2 0x228E JUMP JUMPDEST ADD SSTORE TIMESTAMP PUSH1 0x8A DUP6 PUSH1 0x81 DUP2 LT PUSH2 0x12C0 JUMPI PUSH2 0x12C0 PUSH2 0x228E JUMP JUMPDEST ADD SSTORE POP POP JUMPDEST POP POP PUSH1 0x1 ADD PUSH2 0x102C JUMP JUMPDEST POP POP POP PUSH2 0x12DB PUSH1 0x1 DUP1 SSTORE JUMP JUMPDEST POP POP POP POP POP POP POP POP JUMP JUMPDEST PUSH2 0x12ED PUSH2 0x1CD3 JUMP JUMPDEST PUSH2 0x12F7 PUSH1 0x0 PUSH2 0x1D78 JUMP JUMPDEST JUMP JUMPDEST PUSH2 0x1301 PUSH2 0x1931 JUMP JUMPDEST PUSH2 0x1309 PUSH2 0x1CD3 JUMP JUMPDEST PUSH2 0x1315 PUSH1 0x2 DUP4 DUP4 PUSH2 0x1DE7 JUMP JUMPDEST POP PUSH2 0x131F PUSH1 0x1 DUP1 SSTORE JUMP JUMPDEST POP POP JUMP JUMPDEST PUSH1 0x2 DUP2 DUP2 SLOAD DUP2 LT PUSH2 0x1333 JUMPI PUSH1 0x0 DUP1 REVERT JUMPDEST PUSH1 0x0 SWAP2 DUP3 MSTORE PUSH1 0x20 SWAP1 SWAP2 KECCAK256 ADD SLOAD PUSH1 0x1 PUSH1 0x1 PUSH1 0xA0 SHL SUB AND SWAP1 POP DUP2 JUMP JUMPDEST PUSH2 0x1355 PUSH2 0x1DC8 JUMP JUMPDEST PUSH2 0x135D PUSH2 0x1A4F JUMP JUMPDEST SWAP1 POP SWAP1 JUMP JUMPDEST PUSH1 0x8A DUP2 PUSH1 0x81 DUP2 LT PUSH2 0x1372 JUMPI PUSH1 0x0 DUP1 REVERT JUMPDEST ADD SLOAD SWAP1 POP DUP2 JUMP JUMPDEST PUSH1 0x4 DUP2 PUSH1 0x81 DUP2 LT PUSH2 0x1389 JUMPI PUSH1 0x0 DUP1 REVERT JUMPDEST PUSH1 0x20 SWAP2 DUP3 DUP3 DIV ADD SWAP2 SWAP1 MOD SWAP2 POP SLOAD SWAP1 PUSH2 0x100 EXP SWAP1 DIV PUSH1 0xFF AND DUP2 JUMP JUMPDEST PUSH2 0x13AB PUSH2 0x1DC8 JUMP JUMPDEST PUSH2 0x135D PUSH2 0x198A JUMP JUMPDEST PUSH2 0x13BB PUSH2 0x1931 JUMP JUMPDEST PUSH2 0x13C3 PUSH2 0x1CD3 JUMP JUMPDEST DUP1 PUSH1 0x0 JUMPDEST DUP2 DUP2 LT ISZERO PUSH2 0x148E JUMPI PUSH1 0x0 DUP5 DUP5 DUP4 DUP2 DUP2 LT PUSH2 0x13E3 JUMPI PUSH2 0x13E3 PUSH2 0x228E JUMP JUMPDEST SWAP1 POP PUSH1 0x20 MUL ADD CALLDATALOAD SWAP1 POP PUSH2 0x13F5 DUP2 PUSH2 0x1D2D JUMP JUMPDEST PUSH1 0x40 MLOAD PUSH4 0x69E38BC3 PUSH1 0xE0 SHL DUP2 MSTORE PUSH2 0xFFFF DUP3 AND PUSH1 0x4 DUP3 ADD MSTORE PUSH2 0x808 SWAP1 PUSH4 0x69E38BC3 SWAP1 PUSH1 0x24 ADD PUSH1 0x20 PUSH1 0x40 MLOAD DUP1 DUP4 SUB DUP2 DUP7 GAS STATICCALL ISZERO DUP1 ISZERO PUSH2 0x1436 JUMPI RETURNDATASIZE PUSH1 0x0 DUP1 RETURNDATACOPY RETURNDATASIZE PUSH1 0x0 REVERT JUMPDEST POP POP POP POP PUSH1 0x40 MLOAD RETURNDATASIZE PUSH1 0x1F NOT PUSH1 0x1F DUP3 ADD AND DUP3 ADD DUP1 PUSH1 0x40 MSTORE POP DUP2 ADD SWAP1 PUSH2 0x145A SWAP2 SWAP1 PUSH2 0x22A4 JUMP JUMPDEST PUSH1 0x9 DUP3 PUSH1 0x81 DUP2 LT PUSH2 0x146D JUMPI PUSH2 0x146D PUSH2 0x228E JUMP JUMPDEST ADD SSTORE TIMESTAMP PUSH1 0x8A DUP3 PUSH1 0x81 DUP2 LT PUSH2 0x1483 JUMPI PUSH2 0x1483 PUSH2 0x228E JUMP JUMPDEST ADD SSTORE POP PUSH1 0x1 ADD PUSH2 0x13C7 JUMP JUMPDEST POP POP PUSH2 0x131F PUSH1 0x1 DUP1 SSTORE JUMP JUMPDEST PUSH1 0x9 DUP2 PUSH1 0x81 DUP2 LT PUSH2 0x1372 JUMPI PUSH1 0x0 DUP1 REVERT JUMPDEST PUSH2 0x14B1 PUSH2 0x1931 JUMP JUMPDEST PUSH2 0x14B9 PUSH2 0x1CD3 JUMP JUMPDEST DUP1 PUSH1 0x0 JUMPDEST DUP2 DUP2 LT ISZERO PUSH2 0x148E JUMPI PUSH1 0x0 DUP5 DUP5 DUP4 DUP2 DUP2 LT PUSH2 0x14D9 JUMPI PUSH2 0x14D9 PUSH2 0x228E JUMP JUMPDEST SWAP1 POP PUSH1 0x20 MUL ADD CALLDATALOAD SWAP1 POP PUSH2 0x14EB DUP2 PUSH2 0x1D2D JUMP JUMPDEST PUSH1 0x3 SLOAD PUSH1 0x40 MLOAD PUSH4 0x71DACC7D PUSH1 0xE1 SHL DUP2 MSTORE PUSH1 0x0 DUP1 MLOAD PUSH1 0x20 PUSH2 0x2332 DUP4 CODECOPY DUP2 MLOAD SWAP2 MSTORE PUSH1 0x4 DUP3 ADD MSTORE PUSH1 0x24 DUP2 ADD SWAP2 SWAP1 SWAP2 MSTORE PUSH1 0x44 DUP2 ADD DUP3 SWAP1 MSTORE PUSH2 0x805 SWAP1 PUSH4 0xE3B598FA SWAP1 PUSH1 0x64 ADD PUSH1 0x20 PUSH1 0x40 MLOAD DUP1 DUP4 SUB DUP2 DUP7 GAS STATICCALL ISZERO DUP1 ISZERO PUSH2 0x1548 JUMPI RETURNDATASIZE PUSH1 0x0 DUP1 RETURNDATACOPY RETURNDATASIZE PUSH1 0x0 REVERT JUMPDEST POP POP POP POP PUSH1 0x40 MLOAD RETURNDATASIZE PUSH1 0x1F NOT PUSH1 0x1F DUP3 ADD AND DUP3 ADD DUP1 PUSH1 0x40 MSTORE POP DUP2 ADD SWAP1 PUSH2 0x156C SWAP2 SWAP1 PUSH2 0x22A4 JUMP JUMPDEST PUSH1 0x0 SUB PUSH2 0x15A8 JUMPI PUSH1 0x0 PUSH1 0x4 DUP3 PUSH1 0x81 DUP2 LT PUSH2 0x1588 JUMPI PUSH2 0x1588 PUSH2 0x228E JUMP JUMPDEST PUSH1 0x20 SWAP2 DUP3 DUP3 DIV ADD SWAP2 SWAP1 MOD PUSH2 0x100 EXP DUP2 SLOAD DUP2 PUSH1 0xFF MUL NOT AND SWAP1 DUP4 ISZERO ISZERO MUL OR SWAP1 SSTORE POP JUMPDEST POP PUSH1 0x1 ADD PUSH2 0x14BD JUMP JUMPDEST PUSH2 0x15B9 PUSH2 0x1CD3 JUMP JUMPDEST PUSH1 0x1 PUSH1 0x1 PUSH1 0xA0 SHL SUB DUP2 AND PUSH2 0x1623 JUMPI PUSH1 0x40 MLOAD PUSH3 0x461BCD PUSH1 0xE5 SHL DUP2 MSTORE PUSH1 0x20 PUSH1 0x4 DUP3 ADD MSTORE PUSH1 0x26 PUSH1 0x24 DUP3 ADD MSTORE PUSH32 0x4F776E61626C653A206E6577206F776E657220697320746865207A65726F2061 PUSH1 0x44 DUP3 ADD MSTORE PUSH6 0x646472657373 PUSH1 0xD0 SHL PUSH1 0x64 DUP3 ADD MSTORE PUSH1 0x84 ADD JUMPDEST PUSH1 0x40 MLOAD DUP1 SWAP2 SUB SWAP1 REVERT JUMPDEST PUSH2 0x63B DUP2 PUSH2 0x1D78 JUMP JUMPDEST PUSH2 0x1634 PUSH2 0x1931 JUMP JUMPDEST PUSH2 0x10B SLOAD PUSH1 0x1 PUSH1 0x1 PUSH1 0xA0 SHL SUB AND CALLER EQ PUSH2 0x1660 JUMPI PUSH1 0x40 MLOAD PUSH4 0x2D99BC83 PUSH1 0xE2 SHL DUP2 MSTORE PUSH1 0x4 ADD PUSH1 0x40 MLOAD DUP1 SWAP2 SUB SWAP1 REVERT JUMPDEST PUSH1 0x1 PUSH1 0x1 PUSH1 0xA0 SHL SUB DUP3 AND PUSH2 0x1687 JUMPI PUSH1 0x40 MLOAD PUSH4 0xE6C4247B PUSH1 0xE0 SHL DUP2 MSTORE PUSH1 0x4 ADD PUSH1 0x40 MLOAD DUP1 SWAP2 SUB SWAP1 REVERT JUMPDEST DUP1 PUSH1 0x0 SUB PUSH2 0x16A8 JUMPI PUSH1 0x40 MLOAD PUSH4 0x65E52D51 PUSH1 0xE1 SHL DUP2 MSTORE PUSH1 0x4 ADD PUSH1 0x40 MLOAD DUP1 SWAP2 SUB SWAP1 REVERT JUMPDEST PUSH1 0x0 DUP3 PUSH1 0x1 PUSH1 0x1 PUSH1 0xA0 SHL SUB AND DUP3 PUSH1 0x40 MLOAD PUSH1 0x0 PUSH1 0x40 MLOAD DUP1 DUP4 SUB DUP2 DUP6 DUP8 GAS CALL SWAP3 POP POP POP RETURNDATASIZE DUP1 PUSH1 0x0 DUP2 EQ PUSH2 0x16F5 JUMPI PUSH1 0x40 MLOAD SWAP2 POP PUSH1 0x1F NOT PUSH1 0x3F RETURNDATASIZE ADD AND DUP3 ADD PUSH1 0x40 MSTORE RETURNDATASIZE DUP3 MSTORE RETURNDATASIZE PUSH1 0x0 PUSH1 0x20 DUP5 ADD RETURNDATACOPY PUSH2 0x16FA JUMP JUMPDEST PUSH1 0x60 SWAP2 POP JUMPDEST POP POP SWAP1 POP DUP1 PUSH2 0x1315 JUMPI PUSH1 0x40 MLOAD PUSH4 0x12171D83 PUSH1 0xE3 SHL DUP2 MSTORE PUSH1 0x4 ADD PUSH1 0x40 MLOAD DUP1 SWAP2 SUB SWAP1 REVERT JUMPDEST PUSH2 0x1724 PUSH2 0x1931 JUMP JUMPDEST PUSH2 0x172C PUSH2 0x1CD3 JUMP JUMPDEST DUP1 PUSH2 0x174A JUMPI PUSH1 0x40 MLOAD PUSH4 0x666B0C5D PUSH1 0xE0 SHL DUP2 MSTORE PUSH1 0x4 ADD PUSH1 0x40 MLOAD DUP1 SWAP2 SUB SWAP1 REVERT JUMPDEST PUSH1 0x3 DUP2 SWAP1 SSTORE PUSH2 0x63B PUSH1 0x1 DUP1 SSTORE JUMP JUMPDEST PUSH2 0x1760 PUSH2 0x1931 JUMP JUMPDEST PUSH2 0x10B SLOAD PUSH1 0x1 PUSH1 0x1 PUSH1 0xA0 SHL SUB AND CALLER EQ PUSH2 0x178C JUMPI PUSH1 0x40 MLOAD PUSH4 0x2D99BC83 PUSH1 0xE2 SHL DUP2 MSTORE PUSH1 0x4 ADD PUSH1 0x40 MLOAD DUP1 SWAP2 SUB SWAP1 REVERT JUMPDEST PUSH1 0x1 PUSH1 0x1 PUSH1 0xA0 SHL SUB DUP2 AND PUSH2 0x17B3 JUMPI PUSH1 0x40 MLOAD PUSH4 0xE6C4247B PUSH1 0xE0 SHL DUP2 MSTORE PUSH1 0x4 ADD PUSH1 0x40 MLOAD DUP1 SWAP2 SUB SWAP1 REVERT JUMPDEST SELFBALANCE PUSH1 0x0 DUP2 SWAP1 SUB PUSH2 0x17D6 JUMPI PUSH1 0x40 MLOAD PUSH4 0x65E52D51 PUSH1 0xE1 SHL DUP2 MSTORE PUSH1 0x4 ADD PUSH1 0x40 MLOAD DUP1 SWAP2 SUB SWAP1 REVERT JUMPDEST PUSH1 0x0 DUP3 PUSH1 0x1 PUSH1 0x1 PUSH1 0xA0 SHL SUB AND DUP3 PUSH1 0x40 MLOAD PUSH1 0x0 PUSH1 0x40 MLOAD DUP1 DUP4 SUB DUP2 DUP6 DUP8 GAS CALL SWAP3 POP POP POP RETURNDATASIZE DUP1 PUSH1 0x0 DUP2 EQ PUSH2 0x1823 JUMPI PUSH1 0x40 MLOAD SWAP2 POP PUSH1 0x1F NOT PUSH1 0x3F RETURNDATASIZE ADD AND DUP3 ADD PUSH1 0x40 MSTORE RETURNDATASIZE DUP3 MSTORE RETURNDATASIZE PUSH1 0x0 PUSH1 0x20 DUP5 ADD RETURNDATACOPY PUSH2 0x1828 JUMP JUMPDEST PUSH1 0x60 SWAP2 POP JUMPDEST POP POP SWAP1 POP DUP1 PUSH2 0x184A JUMPI PUSH1 0x40 MLOAD PUSH4 0x12171D83 PUSH1 0xE3 SHL DUP2 MSTORE PUSH1 0x4 ADD PUSH1 0x40 MLOAD DUP1 SWAP2 SUB SWAP1 REVERT JUMPDEST POP POP PUSH2 0x63B PUSH1 0x1 DUP1 SSTORE JUMP JUMPDEST PUSH1 0x0 DUP1 DUP5 DUP2 JUMPDEST DUP2 DUP2 LT ISZERO PUSH2 0x1924 JUMPI PUSH1 0x0 PUSH2 0x805 PUSH4 0xE3B598FA DUP11 DUP11 DUP6 DUP2 DUP2 LT PUSH2 0x187F JUMPI PUSH2 0x187F PUSH2 0x228E JUMP JUMPDEST SWAP1 POP PUSH1 0x20 MUL ADD CALLDATALOAD DUP10 DUP10 DUP7 DUP2 DUP2 LT PUSH2 0x1898 JUMPI PUSH2 0x1898 PUSH2 0x228E JUMP JUMPDEST PUSH1 0x40 MLOAD PUSH1 0x1 PUSH1 0x1 PUSH1 0xE0 SHL SUB NOT PUSH1 0xE0 DUP8 SWAP1 SHL AND DUP2 MSTORE PUSH1 0x4 DUP2 ADD SWAP5 SWAP1 SWAP5 MSTORE PUSH1 0x20 MUL SWAP2 SWAP1 SWAP2 ADD CALLDATALOAD PUSH1 0x24 DUP4 ADD MSTORE POP PUSH1 0x44 DUP2 ADD DUP14 SWAP1 MSTORE PUSH1 0x64 ADD PUSH1 0x20 PUSH1 0x40 MLOAD DUP1 DUP4 SUB DUP2 DUP7 GAS STATICCALL ISZERO DUP1 ISZERO PUSH2 0x18E9 JUMPI RETURNDATASIZE PUSH1 0x0 DUP1 RETURNDATACOPY RETURNDATASIZE PUSH1 0x0 REVERT JUMPDEST POP POP POP POP PUSH1 0x40 MLOAD RETURNDATASIZE PUSH1 0x1F NOT PUSH1 0x1F DUP3 ADD AND DUP3 ADD DUP1 PUSH1 0x40 MSTORE POP DUP2 ADD SWAP1 PUSH2 0x190D SWAP2 SWAP1 PUSH2 0x22A4 JUMP JUMPDEST SWAP1 POP PUSH2 0x1919 DUP2 DUP6 PUSH2 0x22BD JUMP JUMPDEST SWAP4 POP POP PUSH1 0x1 ADD PUSH2 0x185B JUMP JUMPDEST POP SWAP1 SWAP8 SWAP7 POP POP POP POP POP POP POP JUMP JUMPDEST PUSH1 0x2 PUSH1 0x1 SLOAD SUB PUSH2 0x1983 JUMPI PUSH1 0x40 MLOAD PUSH3 0x461BCD PUSH1 0xE5 SHL DUP2 MSTORE PUSH1 0x20 PUSH1 0x4 DUP3 ADD MSTORE PUSH1 0x1F PUSH1 0x24 DUP3 ADD MSTORE PUSH32 0x5265656E7472616E637947756172643A207265656E7472616E742063616C6C00 PUSH1 0x44 DUP3 ADD MSTORE PUSH1 0x64 ADD PUSH2 0x161A JUMP JUMPDEST PUSH1 0x2 PUSH1 0x1 SSTORE JUMP JUMPDEST PUSH2 0x1992 PUSH2 0x1DC8 JUMP JUMPDEST PUSH1 0x0 JUMPDEST PUSH1 0x81 PUSH2 0xFFFF DUP3 AND LT ISZERO PUSH2 0x1A4B JUMPI PUSH1 0x40 MLOAD PUSH4 0x69E38BC3 PUSH1 0xE0 SHL DUP2 MSTORE PUSH2 0xFFFF DUP3 AND PUSH1 0x4 DUP3 ADD MSTORE PUSH2 0x808 SWAP1 PUSH4 0x69E38BC3 SWAP1 PUSH1 0x24 ADD PUSH1 0x20 PUSH1 0x40 MLOAD DUP1 DUP4 SUB DUP2 DUP7 GAS STATICCALL SWAP3 POP POP POP DUP1 ISZERO PUSH2 0x19FF JUMPI POP PUSH1 0x40 DUP1 MLOAD PUSH1 0x1F RETURNDATASIZE SWAP1 DUP2 ADD PUSH1 0x1F NOT AND DUP3 ADD SWAP1 SWAP3 MSTORE PUSH2 0x19FC SWAP2 DUP2 ADD SWAP1 PUSH2 0x22A4 JUMP JUMPDEST PUSH1 0x1 JUMPDEST PUSH2 0x1A25 JUMPI PUSH1 0x0 DUP3 DUP3 PUSH2 0xFFFF AND PUSH1 0x81 DUP2 LT PUSH2 0x1A1B JUMPI PUSH2 0x1A1B PUSH2 0x228E JUMP JUMPDEST PUSH1 0x20 MUL ADD MSTORE PUSH2 0x1A43 JUMP JUMPDEST DUP1 DUP4 DUP4 PUSH2 0xFFFF AND PUSH1 0x81 DUP2 LT PUSH2 0x1A3C JUMPI PUSH2 0x1A3C PUSH2 0x228E JUMP JUMPDEST PUSH1 0x20 MUL ADD MSTORE POP JUMPDEST PUSH1 0x1 ADD PUSH2 0x1995 JUMP JUMPDEST POP SWAP1 JUMP JUMPDEST PUSH2 0x1A57 PUSH2 0x1DC8 JUMP JUMPDEST PUSH1 0x0 JUMPDEST PUSH1 0x81 PUSH2 0xFFFF DUP3 AND LT ISZERO PUSH2 0x1A4B JUMPI PUSH1 0x40 MLOAD PUSH4 0x2D9BFC71 PUSH1 0xE0 SHL DUP2 MSTORE PUSH2 0xFFFF DUP3 AND PUSH1 0x4 DUP3 ADD MSTORE PUSH2 0x808 SWAP1 PUSH4 0x2D9BFC71 SWAP1 PUSH1 0x24 ADD PUSH1 0x20 PUSH1 0x40 MLOAD DUP1 DUP4 SUB DUP2 DUP7 GAS STATICCALL SWAP3 POP POP POP DUP1 ISZERO PUSH2 0x1AC4 JUMPI POP PUSH1 0x40 DUP1 MLOAD PUSH1 0x1F RETURNDATASIZE SWAP1 DUP2 ADD PUSH1 0x1F NOT AND DUP3 ADD SWAP1 SWAP3 MSTORE PUSH2 0x1AC1 SWAP2 DUP2 ADD SWAP1 PUSH2 0x22DE JUMP JUMPDEST PUSH1 0x1 JUMPDEST PUSH2 0x1AF9 JUMPI PUSH1 0x0 DUP3 DUP3 PUSH2 0xFFFF AND PUSH1 0x81 DUP2 LT PUSH2 0x1AE0 JUMPI PUSH2 0x1AE0 PUSH2 0x228E JUMP JUMPDEST PUSH8 0xFFFFFFFFFFFFFFFF SWAP1 SWAP3 AND PUSH1 0x20 SWAP3 SWAP1 SWAP3 MUL ADD MSTORE PUSH2 0x1B26 JUMP JUMPDEST DUP1 DUP4 DUP4 PUSH2 0xFFFF AND PUSH1 0x81 DUP2 LT PUSH2 0x1B10 JUMPI PUSH2 0x1B10 PUSH2 0x228E JUMP JUMPDEST PUSH8 0xFFFFFFFFFFFFFFFF SWAP1 SWAP3 AND PUSH1 0x20 SWAP3 SWAP1 SWAP3 MUL ADD MSTORE POP JUMPDEST PUSH1 0x1 ADD PUSH2 0x1A5A JUMP JUMPDEST PUSH2 0x1B36 PUSH2 0x1DC8 JUMP JUMPDEST PUSH1 0x1 JUMPDEST PUSH1 0x81 DUP2 LT ISZERO PUSH2 0x1C1E JUMPI PUSH1 0x4 DUP2 PUSH1 0x81 DUP2 LT PUSH2 0x1B55 JUMPI PUSH2 0x1B55 PUSH2 0x228E JUMP JUMPDEST PUSH1 0x20 DUP2 DIV SWAP1 SWAP2 ADD SLOAD PUSH1 0xFF PUSH1 0x1F SWAP1 SWAP3 AND PUSH2 0x100 EXP SWAP1 DIV AND ISZERO PUSH2 0x1BFC JUMPI PUSH1 0x40 MLOAD PUSH4 0x71DACC7D PUSH1 0xE1 SHL DUP2 MSTORE PUSH1 0x4 DUP2 ADD DUP6 SWAP1 MSTORE PUSH1 0x24 DUP2 ADD DUP5 SWAP1 MSTORE PUSH1 0x44 DUP2 ADD DUP3 SWAP1 MSTORE PUSH2 0x805 SWAP1 PUSH4 0xE3B598FA SWAP1 PUSH1 0x64 ADD PUSH1 0x20 PUSH1 0x40 MLOAD DUP1 DUP4 SUB DUP2 DUP7 GAS STATICCALL ISZERO DUP1 ISZERO PUSH2 0x1BBC JUMPI RETURNDATASIZE PUSH1 0x0 DUP1 RETURNDATACOPY RETURNDATASIZE PUSH1 0x0 REVERT JUMPDEST POP POP POP POP PUSH1 0x40 MLOAD RETURNDATASIZE PUSH1 0x1F NOT PUSH1 0x1F DUP3 ADD AND DUP3 ADD DUP1 PUSH1 0x40 MSTORE POP DUP2 ADD SWAP1 PUSH2 0x1BE0 SWAP2 SWAP1 PUSH2 0x22A4 JUMP JUMPDEST DUP3 DUP3 PUSH1 0x81 DUP2 LT PUSH2 0x1BF2 JUMPI PUSH2 0x1BF2 PUSH2 0x228E JUMP JUMPDEST PUSH1 0x20 MUL ADD MSTORE PUSH2 0x1C16 JUMP JUMPDEST PUSH1 0x0 DUP3 DUP3 PUSH1 0x81 DUP2 LT PUSH2 0x1C10 JUMPI PUSH2 0x1C10 PUSH2 0x228E JUMP JUMPDEST PUSH1 0x20 MUL ADD MSTORE JUMPDEST PUSH1 0x1 ADD PUSH2 0x1B39 JUMP JUMPDEST POP SWAP3 SWAP2 POP POP JUMP JUMPDEST PUSH1 0x2 SLOAD PUSH1 0x60 SWAP1 DUP1 PUSH8 0xFFFFFFFFFFFFFFFF DUP2 GT ISZERO PUSH2 0x1C44 JUMPI PUSH2 0x1C44 PUSH2 0x2278 JUMP JUMPDEST PUSH1 0x40 MLOAD SWAP1 DUP1 DUP3 MSTORE DUP1 PUSH1 0x20 MUL PUSH1 0x20 ADD DUP3 ADD PUSH1 0x40 MSTORE DUP1 ISZERO PUSH2 0x1C6D JUMPI DUP2 PUSH1 0x20 ADD PUSH1 0x20 DUP3 MUL DUP1 CALLDATASIZE DUP4 CALLDATACOPY ADD SWAP1 POP JUMPDEST POP SWAP2 POP PUSH1 0x0 JUMPDEST DUP2 DUP2 LT ISZERO PUSH2 0x1CCE JUMPI PUSH1 0x2 DUP2 DUP2 SLOAD DUP2 LT PUSH2 0x1C8E JUMPI PUSH2 0x1C8E PUSH2 0x228E JUMP JUMPDEST PUSH1 0x0 SWAP2 DUP3 MSTORE PUSH1 0x20 SWAP1 SWAP2 KECCAK256 ADD SLOAD DUP4 MLOAD PUSH1 0x1 PUSH1 0x1 PUSH1 0xA0 SHL SUB SWAP1 SWAP2 AND BALANCE SWAP1 DUP5 SWAP1 DUP4 SWAP1 DUP2 LT PUSH2 0x1CBB JUMPI PUSH2 0x1CBB PUSH2 0x228E JUMP JUMPDEST PUSH1 0x20 SWAP1 DUP2 MUL SWAP2 SWAP1 SWAP2 ADD ADD MSTORE PUSH1 0x1 ADD PUSH2 0x1C73 JUMP JUMPDEST POP POP SWAP1 JUMP JUMPDEST PUSH1 0x0 SLOAD PUSH1 0x1 PUSH1 0x1 PUSH1 0xA0 SHL SUB AND CALLER EQ PUSH2 0x12F7 JUMPI PUSH1 0x40 MLOAD PUSH3 0x461BCD PUSH1 0xE5 SHL DUP2 MSTORE PUSH1 0x20 PUSH1 0x4 DUP3 ADD DUP2 SWAP1 MSTORE PUSH1 0x24 DUP3 ADD MSTORE PUSH32 0x4F776E61626C653A2063616C6C6572206973206E6F7420746865206F776E6572 PUSH1 0x44 DUP3 ADD MSTORE PUSH1 0x64 ADD PUSH2 0x161A JUMP JUMPDEST PUSH1 0x81 DUP2 LT PUSH2 0x63B JUMPI PUSH1 0x40 MLOAD PUSH4 0x68A3A6C3 PUSH1 0xE1 SHL DUP2 MSTORE PUSH1 0x4 ADD PUSH1 0x40 MLOAD DUP1 SWAP2 SUB SWAP1 REVERT JUMPDEST PUSH1 0x0 DUP2 DUP4 LT PUSH2 0x1D5D JUMPI DUP2 PUSH2 0x1D5F JUMP JUMPDEST DUP3 JUMPDEST SWAP1 POP JUMPDEST SWAP3 SWAP2 POP POP JUMP JUMPDEST PUSH1 0x0 PUSH2 0x1D62 PUSH4 0x3B9ACA00 DUP4 PUSH2 0x230F JUMP JUMPDEST PUSH1 0x0 DUP1 SLOAD PUSH1 0x1 PUSH1 0x1 PUSH1 0xA0 SHL SUB DUP4 DUP2 AND PUSH1 0x1 PUSH1 0x1 PUSH1 0xA0 SHL SUB NOT DUP4 AND DUP2 OR DUP5 SSTORE PUSH1 0x40 MLOAD SWAP2 SWAP1 SWAP3 AND SWAP3 DUP4 SWAP2 PUSH32 0x8BE0079C531659141344CD1FD0A4F28419497F9722A3DAAFE3B4186F6B6457E0 SWAP2 SWAP1 LOG3 POP POP JUMP JUMPDEST PUSH1 0x40 MLOAD DUP1 PUSH2 0x1020 ADD PUSH1 0x40 MSTORE DUP1 PUSH1 0x81 SWAP1 PUSH1 0x20 DUP3 MUL DUP1 CALLDATASIZE DUP4 CALLDATACOPY POP SWAP2 SWAP3 SWAP2 POP POP JUMP JUMPDEST DUP3 DUP1 SLOAD DUP3 DUP3 SSTORE SWAP1 PUSH1 0x0 MSTORE PUSH1 0x20 PUSH1 0x0 KECCAK256 SWAP1 DUP2 ADD SWAP3 DUP3 ISZERO PUSH2 0x1E3A JUMPI SWAP2 PUSH1 0x20 MUL DUP3 ADD JUMPDEST DUP3 DUP2 GT ISZERO PUSH2 0x1E3A JUMPI DUP2 SLOAD PUSH1 0x1 PUSH1 0x1 PUSH1 0xA0 SHL SUB NOT AND PUSH1 0x1 PUSH1 0x1 PUSH1 0xA0 SHL SUB DUP5 CALLDATALOAD AND OR DUP3 SSTORE PUSH1 0x20 SWAP1 SWAP3 ADD SWAP2 PUSH1 0x1 SWAP1 SWAP2 ADD SWAP1 PUSH2 0x1E07 JUMP JUMPDEST POP PUSH2 0x1A4B SWAP3 SWAP2 POP JUMPDEST DUP1 DUP3 GT ISZERO PUSH2 0x1A4B JUMPI PUSH1 0x0 DUP2 SSTORE PUSH1 0x1 ADD PUSH2 0x1E42 JUMP JUMPDEST PUSH1 0x0 DUP1 DUP4 PUSH1 0x1F DUP5 ADD SLT PUSH2 0x1E68 JUMPI PUSH1 0x0 DUP1 REVERT JUMPDEST POP DUP2 CALLDATALOAD PUSH8 0xFFFFFFFFFFFFFFFF DUP2 GT ISZERO PUSH2 0x1E80 JUMPI PUSH1 0x0 DUP1 REVERT JUMPDEST PUSH1 0x20 DUP4 ADD SWAP2 POP DUP4 PUSH1 0x20 DUP3 PUSH1 0x5 SHL DUP6 ADD ADD GT ISZERO PUSH2 0x1E9B JUMPI PUSH1 0x0 DUP1 REVERT JUMPDEST SWAP3 POP SWAP3 SWAP1 POP JUMP JUMPDEST PUSH1 0x0 DUP1 PUSH1 0x0 DUP1 PUSH1 0x0 DUP1 PUSH1 0x60 DUP8 DUP10 SUB SLT ISZERO PUSH2 0x1EBB JUMPI PUSH1 0x0 DUP1 REVERT JUMPDEST DUP7 CALLDATALOAD PUSH8 0xFFFFFFFFFFFFFFFF DUP1 DUP3 GT ISZERO PUSH2 0x1ED3 JUMPI PUSH1 0x0 DUP1 REVERT JUMPDEST PUSH2 0x1EDF DUP11 DUP4 DUP12 ADD PUSH2 0x1E56 JUMP JUMPDEST SWAP1 SWAP9 POP SWAP7 POP PUSH1 0x20 DUP10 ADD CALLDATALOAD SWAP2 POP DUP1 DUP3 GT ISZERO PUSH2 0x1EF8 JUMPI PUSH1 0x0 DUP1 REVERT JUMPDEST PUSH2 0x1F04 DUP11 DUP4 DUP12 ADD PUSH2 0x1E56 JUMP JUMPDEST SWAP1 SWAP7 POP SWAP5 POP PUSH1 0x40 DUP10 ADD CALLDATALOAD SWAP2 POP DUP1 DUP3 GT ISZERO PUSH2 0x1F1D JUMPI PUSH1 0x0 DUP1 REVERT JUMPDEST POP PUSH2 0x1F2A DUP10 DUP3 DUP11 ADD PUSH2 0x1E56 JUMP JUMPDEST SWAP8 SWAP11 SWAP7 SWAP10 POP SWAP5 SWAP8 POP SWAP3 SWAP6 SWAP4 SWAP5 SWAP3 POP POP POP JUMP JUMPDEST PUSH1 0x0 DUP2 MLOAD DUP1 DUP5 MSTORE PUSH1 0x20 DUP1 DUP6 ADD SWAP5 POP PUSH1 0x20 DUP5 ADD PUSH1 0x0 JUMPDEST DUP4 DUP2 LT ISZERO PUSH2 0x1F6D JUMPI DUP2 MLOAD DUP8 MSTORE SWAP6 DUP3 ADD SWAP6 SWAP1 DUP3 ADD SWAP1 PUSH1 0x1 ADD PUSH2 0x1F51 JUMP JUMPDEST POP SWAP5 SWAP6 SWAP5 POP POP POP POP POP JUMP JUMPDEST PUSH1 0x20 DUP2 MSTORE PUSH1 0x0 PUSH2 0x1D5F PUSH1 0x20 DUP4 ADD DUP5 PUSH2 0x1F3C JUMP JUMPDEST DUP1 CALLDATALOAD PUSH1 0x1 PUSH1 0x1 PUSH1 0xA0 SHL SUB DUP2 AND DUP2 EQ PUSH2 0x1FA2 JUMPI PUSH1 0x0 DUP1 REVERT JUMPDEST SWAP2 SWAP1 POP JUMP JUMPDEST PUSH1 0x0 PUSH1 0x20 DUP3 DUP5 SUB SLT ISZERO PUSH2 0x1FB9 JUMPI PUSH1 0x0 DUP1 REVERT JUMPDEST PUSH2 0x1D5F DUP3 PUSH2 0x1F8B JUMP JUMPDEST PUSH1 0x0 DUP1 PUSH1 0x0 DUP1 PUSH1 0x40 DUP6 DUP8 SUB SLT ISZERO PUSH2 0x1FD8 JUMPI PUSH1 0x0 DUP1 REVERT JUMPDEST DUP5 CALLDATALOAD PUSH8 0xFFFFFFFFFFFFFFFF DUP1 DUP3 GT ISZERO PUSH2 0x1FF0 JUMPI PUSH1 0x0 DUP1 REVERT JUMPDEST PUSH2 0x1FFC DUP9 DUP4 DUP10 ADD PUSH2 0x1E56 JUMP JUMPDEST SWAP1 SWAP7 POP SWAP5 POP PUSH1 0x20 DUP8 ADD CALLDATALOAD SWAP2 POP DUP1 DUP3 GT ISZERO PUSH2 0x2015 JUMPI PUSH1 0x0 DUP1 REVERT JUMPDEST POP PUSH2 0x2022 DUP8 DUP3 DUP9 ADD PUSH2 0x1E56 JUMP JUMPDEST SWAP6 SWAP9 SWAP5 SWAP8 POP SWAP6 POP POP POP POP JUMP JUMPDEST DUP1 PUSH1 0x0 JUMPDEST PUSH1 0x81 DUP2 LT ISZERO PUSH2 0xFD1 JUMPI DUP2 MLOAD DUP5 MSTORE PUSH1 0x20 SWAP4 DUP5 ADD SWAP4 SWAP1 SWAP2 ADD SWAP1 PUSH1 0x1 ADD PUSH2 0x2032 JUMP JUMPDEST PUSH2 0x1020 DUP2 ADD PUSH2 0x1D62 DUP3 DUP5 PUSH2 0x202E JUMP JUMPDEST DUP1 PUSH1 0x0 JUMPDEST PUSH1 0x81 DUP2 LT ISZERO PUSH2 0xFD1 JUMPI DUP2 MLOAD PUSH8 0xFFFFFFFFFFFFFFFF AND DUP5 MSTORE PUSH1 0x20 SWAP4 DUP5 ADD SWAP4 SWAP1 SWAP2 ADD SWAP1 PUSH1 0x1 ADD PUSH2 0x2064 JUMP JUMPDEST PUSH1 0x0 PUSH2 0x5100 PUSH2 0x209C DUP4 DUP13 PUSH2 0x202E JUMP JUMPDEST PUSH2 0x20AA PUSH2 0x1020 DUP5 ADD DUP12 PUSH2 0x2060 JUMP JUMPDEST PUSH2 0x2040 DUP4 ADD DUP10 PUSH1 0x0 JUMPDEST PUSH1 0x81 DUP2 LT ISZERO PUSH2 0x20D4 JUMPI DUP2 MLOAD ISZERO ISZERO DUP4 MSTORE PUSH1 0x20 SWAP3 DUP4 ADD SWAP3 SWAP1 SWAP2 ADD SWAP1 PUSH1 0x1 ADD PUSH2 0x20B3 JUMP JUMPDEST POP POP POP PUSH2 0x20E5 PUSH2 0x3060 DUP5 ADD DUP10 PUSH2 0x202E JUMP JUMPDEST PUSH2 0x20F3 PUSH2 0x4080 DUP5 ADD DUP9 PUSH2 0x202E JUMP JUMPDEST DUP1 PUSH2 0x50A0 DUP5 ADD MSTORE PUSH2 0x2106 DUP2 DUP5 ADD DUP8 PUSH2 0x1F3C JUMP JUMPDEST PUSH2 0x50C0 DUP5 ADD SWAP6 SWAP1 SWAP6 MSTORE POP POP PUSH2 0x50E0 ADD MSTORE SWAP7 SWAP6 POP POP POP POP POP POP JUMP JUMPDEST PUSH1 0x0 DUP1 PUSH1 0x0 DUP1 PUSH1 0x0 DUP1 PUSH1 0x0 DUP1 PUSH1 0x80 DUP10 DUP12 SUB SLT ISZERO PUSH2 0x213C JUMPI PUSH1 0x0 DUP1 REVERT JUMPDEST DUP9 CALLDATALOAD PUSH8 0xFFFFFFFFFFFFFFFF DUP1 DUP3 GT ISZERO PUSH2 0x2154 JUMPI PUSH1 0x0 DUP1 REVERT JUMPDEST PUSH2 0x2160 DUP13 DUP4 DUP14 ADD PUSH2 0x1E56 JUMP JUMPDEST SWAP1 SWAP11 POP SWAP9 POP PUSH1 0x20 DUP12 ADD CALLDATALOAD SWAP2 POP DUP1 DUP3 GT ISZERO PUSH2 0x2179 JUMPI PUSH1 0x0 DUP1 REVERT JUMPDEST PUSH2 0x2185 DUP13 DUP4 DUP14 ADD PUSH2 0x1E56 JUMP JUMPDEST SWAP1 SWAP9 POP SWAP7 POP PUSH1 0x40 DUP12 ADD CALLDATALOAD SWAP2 POP DUP1 DUP3 GT ISZERO PUSH2 0x219E JUMPI PUSH1 0x0 DUP1 REVERT JUMPDEST PUSH2 0x21AA DUP13 DUP4 DUP14 ADD PUSH2 0x1E56 JUMP JUMPDEST SWAP1 SWAP7 POP SWAP5 POP PUSH1 0x60 DUP12 ADD CALLDATALOAD SWAP2 POP DUP1 DUP3 GT ISZERO PUSH2 0x21C3 JUMPI PUSH1 0x0 DUP1 REVERT JUMPDEST POP PUSH2 0x21D0 DUP12 DUP3 DUP13 ADD PUSH2 0x1E56 JUMP JUMPDEST SWAP10 SWAP13 SWAP9 SWAP12 POP SWAP7 SWAP10 POP SWAP5 SWAP8 SWAP4 SWAP7 SWAP3 SWAP6 SWAP5 POP POP POP JUMP JUMPDEST PUSH1 0x0 DUP1 PUSH1 0x20 DUP4 DUP6 SUB SLT ISZERO PUSH2 0x21F7 JUMPI PUSH1 0x0 DUP1 REVERT JUMPDEST DUP3 CALLDATALOAD PUSH8 0xFFFFFFFFFFFFFFFF DUP2 GT ISZERO PUSH2 0x220E JUMPI PUSH1 0x0 DUP1 REVERT JUMPDEST PUSH2 0x221A DUP6 DUP3 DUP7 ADD PUSH2 0x1E56 JUMP JUMPDEST SWAP1 SWAP7 SWAP1 SWAP6 POP SWAP4 POP POP POP POP JUMP JUMPDEST PUSH1 0x0 PUSH1 0x20 DUP3 DUP5 SUB SLT ISZERO PUSH2 0x2238 JUMPI PUSH1 0x0 DUP1 REVERT JUMPDEST POP CALLDATALOAD SWAP2 SWAP1 POP JUMP JUMPDEST PUSH2 0x1020 DUP2 ADD PUSH2 0x1D62 DUP3 DUP5 PUSH2 0x2060 JUMP JUMPDEST PUSH1 0x0 DUP1 PUSH1 0x40 DUP4 DUP6 SUB SLT ISZERO PUSH2 0x2261 JUMPI PUSH1 0x0 DUP1 REVERT JUMPDEST PUSH2 0x226A DUP4 PUSH2 0x1F8B JUMP JUMPDEST SWAP5 PUSH1 0x20 SWAP4 SWAP1 SWAP4 ADD CALLDATALOAD SWAP4 POP POP POP JUMP JUMPDEST PUSH4 0x4E487B71 PUSH1 0xE0 SHL PUSH1 0x0 MSTORE PUSH1 0x41 PUSH1 0x4 MSTORE PUSH1 0x24 PUSH1 0x0 REVERT JUMPDEST PUSH4 0x4E487B71 PUSH1 0xE0 SHL PUSH1 0x0 MSTORE PUSH1 0x32 PUSH1 0x4 MSTORE PUSH1 0x24 PUSH1 0x0 REVERT JUMPDEST PUSH1 0x0 PUSH1 0x20 DUP3 DUP5 SUB SLT ISZERO PUSH2 0x22B6 JUMPI PUSH1 0x0 DUP1 REVERT JUMPDEST POP MLOAD SWAP2 SWAP1 POP JUMP JUMPDEST DUP1 DUP3 ADD DUP1 DUP3 GT ISZERO PUSH2 0x1D62 JUMPI PUSH4 0x4E487B71 PUSH1 0xE0 SHL PUSH1 0x0 MSTORE PUSH1 0x11 PUSH1 0x4 MSTORE PUSH1 0x24 PUSH1 0x0 REVERT JUMPDEST PUSH1 0x0 PUSH1 0x20 DUP3 DUP5 SUB SLT ISZERO PUSH2 0x22F0 JUMPI PUSH1 0x0 DUP1 REVERT JUMPDEST DUP2 MLOAD PUSH8 0xFFFFFFFFFFFFFFFF DUP2 AND DUP2 EQ PUSH2 0x2308 JUMPI PUSH1 0x0 DUP1 REVERT JUMPDEST SWAP4 SWAP3 POP POP POP JUMP JUMPDEST PUSH1 0x0 DUP3 PUSH2 0x232C JUMPI PUSH4 0x4E487B71 PUSH1 0xE0 SHL PUSH1 0x0 MSTORE PUSH1 0x12 PUSH1 0x4 MSTORE PUSH1 0x24 PUSH1 0x0 REVERT JUMPDEST POP DIV SWAP1 JUMP INVALID 0xB4 0xC0 DUP8 GT SWAP1 SWAP8 0xFB 0xE3 SWAP9 MSTORE SWAP9 0xEE CREATE2 0x2F CALLDATALOAD 0xEF PUSH3 0x71C483 0x22 0xA8 0xC2 0xD4 ADDRESS SWAP1 0x2A SWAP13 0xC3 DUP14 SWAP5 PUSH20 0xA26469706673582212209A45782B7F72F29D1522 0x2E PUSH25 0x7630FBFEA3E84F256E67D0CE0EC9AF568408082164736F6C63 NUMBER STOP ADDMOD AND STOP CALLER "},"methodIdentifiers":{"DELEGATOR_BYTES_KEY()":"fcd1a8d6","addStakeLimits(uint256[],uint256[],uint256[])":"3004c502","contractBytesKey()":"947d3c3f","emergencyWithdrawTao(address,uint256)":"f528c62e","getAlphaPrices()":"bc28d5d0","getMevStakedAmounts(uint256[],bytes32[],bytes32[])":"0d16ab81","getStakedAmounts(bytes32[],bytes32[])":"26a224e0","getTaoInPools()":"a8c2bb0d","getTradingInfo()":"276ef789","isStaked(uint256)":"baa51f86","lastLimitPrices(uint256)":"e2edac25","lastStakeTimestamps(uint256)":"af31a15d","mevAddStakes(uint256[],uint256[],bytes32[],bytes32[])":"69686275","mevAddresses(uint256)":"a7678775","mevRemoveStakes(uint256[],bytes32[],bytes32[])":"5c45f3ef","owner()":"8da5cb5b","removeDeregisteredStakes(uint256[])":"e4240e7f","removeStakeLimits(uint256[],uint256[])":"646e569b","renounceOwnership()":"715018a6","resetLimitPrices(uint256[])":"c6df7daf","setWithdrawer(address)":"0d174c24","transferOwnership(address)":"f2fde38b","updateContractBytesKey(bytes32)":"f9036f02","updateMevAddresses(address[])":"987d0e59","withdrawAll(address)":"fa09e630","withdrawer()":"cdc18424"}}}}}