{"contracts/TradingV8_1.sol":{"TradingV8_1":{"abi":[{"inputs":[],"stateMutability":"nonpayable","type":"constructor"},{"inputs":[],"name":"AmountZero","type":"error"},{"inputs":[],"name":"InvalidAddress","type":"error"},{"inputs":[],"name":"NotOwner","type":"error"},{"inputs":[],"name":"NotWithdrawer","type":"error"},{"inputs":[],"name":"NotWithdrawerOrOwner","type":"error"},{"inputs":[],"name":"TransferFailed","type":"error"},{"inputs":[],"name":"DELEGATOR_BYTES_KEY","outputs":[{"internalType":"bytes32","name":"","type":"bytes32"}],"stateMutability":"view","type":"function"},{"inputs":[{"internalType":"bytes32","name":"destination_coldkey","type":"bytes32"},{"internalType":"bytes32","name":"origin_coldkey","type":"bytes32"}],"name":"moveStakeAll","outputs":[],"stateMutability":"nonpayable","type":"function"},{"inputs":[],"name":"owner","outputs":[{"internalType":"address","name":"","type":"address"}],"stateMutability":"view","type":"function"},{"inputs":[{"internalType":"uint256","name":"netuid","type":"uint256"},{"internalType":"uint256","name":"amount","type":"uint256"}],"name":"removeStake","outputs":[],"stateMutability":"nonpayable","type":"function"},{"inputs":[{"internalType":"address","name":"newWithdrawer","type":"address"},{"internalType":"bytes32","name":"newDelegatorColdkey","type":"bytes32"}],"name":"setConfig","outputs":[],"stateMutability":"nonpayable","type":"function"},{"inputs":[],"name":"withdrawAll","outputs":[],"stateMutability":"nonpayable","type":"function"},{"inputs":[],"name":"withdrawer","outputs":[{"internalType":"address","name":"","type":"address"}],"stateMutability":"view","type":"function"}],"evm":{"bytecode":{"linkReferences":{},"object":"608060405234801561001057600080fd5b506001600081905580546001600160a01b0319908116339081179092556003805490911690911790556105db806100486000396000f3fe608060405234801561001057600080fd5b506004361061007d5760003560e01c80638da5cb5b1161005b5780638da5cb5b146100b2578063cdc18424146100e2578063f4f1726b146100f5578063fcd1a8d61461010857600080fd5b8063057c71b0146100825780632d67f0b914610097578063853828b6146100aa575b600080fd5b610095610090366004610512565b61012b565b005b6100956100a5366004610512565b610287565b61009561035c565b6003546100c5906001600160a01b031681565b6040516001600160a01b0390911681526020015b60405180910390f35b6001546100c5906001600160a01b031681565b610095610103366004610534565b610434565b61011d60008051602061058683398151915281565b6040519081526020016100d9565b6101336104b5565b6001546001600160a01b0316331461015e57604051632d99bc8360e21b815260040160405180910390fd5b60015b6081811015610278576040516371dacc7d60e11b8152600080516020610586833981519152600482015260248101839052604481018290526000906108059063e3b598fa90606401602060405180830381865afa1580156101c6573d6000803e3d6000fd5b505050506040513d601f19601f820116820180604052508101906101ea919061056c565b9050801561026f57604051630be72fb160e11b8152600481018590526000805160206105868339815191526024820152604481018390526064810183905260848101829052610805906317ce5f629060a401600060405180830381600087803b15801561025657600080fd5b505af115801561026a573d6000803e3d6000fd5b505050505b50600101610161565b506102836001600055565b5050565b61028f6104b5565b6001546001600160a01b031633148015906102b557506003546001600160a01b03163314155b156102d25760405162bd99e760e11b815260040160405180910390fd5b600254604051630be72fb160e11b815260048101919091526000805160206105868339815191526024820152604481018390526000606482015260848101829052610805906317ce5f629060a401600060405180830381600087803b15801561033a57600080fd5b505af115801561034e573d6000803e3d6000fd5b505050506102836001600055565b6103646104b5565b6003546001600160a01b0316331461038f576040516330cd747160e01b815260040160405180910390fd5b4760008190036103b2576040516365e52d5160e11b815260040160405180910390fd5b6001546040516000916001600160a01b03169083908381818185875af1925050503d80600081146103ff576040519150601f19603f3d011682016040523d82523d6000602084013e610404565b606091505b5050905080610426576040516312171d8360e31b815260040160405180910390fd5b50506104326001600055565b565b61043c6104b5565b6001546001600160a01b0316331461046757604051632d99bc8360e21b815260040160405180910390fd5b6001600160a01b03821661048e5760405163e6c4247b60e01b815260040160405180910390fd5b600180546001600160a01b0319166001600160a01b03841617815560028290556000555050565b60026000540361050b5760405162461bcd60e51b815260206004820152601f60248201527f5265656e7472616e637947756172643a207265656e7472616e742063616c6c00604482015260640160405180910390fd5b6002600055565b6000806040838503121561052557600080fd5b50508035926020909101359150565b6000806040838503121561054757600080fd5b82356001600160a01b038116811461055e57600080fd5b946020939093013593505050565b60006020828403121561057e57600080fd5b505191905056feb4c087119097fbe3985298eef52f35ef6271c48322a8c2d430902a9cc38d9473a26469706673582212203ec122898466017cec4095f615b5cdbaf77fd3d575af3074b610b06b152e09a564736f6c63430008160033","opcodes":"PUSH1 0x80 PUSH1 0x40 MSTORE CALLVALUE DUP1 ISZERO PUSH2 0x10 JUMPI PUSH1 0x0 DUP1 REVERT JUMPDEST POP PUSH1 0x1 PUSH1 0x0 DUP2 SWAP1 SSTORE DUP1 SLOAD PUSH1 0x1 PUSH1 0x1 PUSH1 0xA0 SHL SUB NOT SWAP1 DUP2 AND CALLER SWAP1 DUP2 OR SWAP1 SWAP3 SSTORE PUSH1 0x3 DUP1 SLOAD SWAP1 SWAP2 AND SWAP1 SWAP2 OR SWAP1 SSTORE PUSH2 0x5DB DUP1 PUSH2 0x48 PUSH1 0x0 CODECOPY PUSH1 0x0 RETURN INVALID PUSH1 0x80 PUSH1 0x40 MSTORE CALLVALUE DUP1 ISZERO PUSH2 0x10 JUMPI PUSH1 0x0 DUP1 REVERT JUMPDEST POP PUSH1 0x4 CALLDATASIZE LT PUSH2 0x7D JUMPI PUSH1 0x0 CALLDATALOAD PUSH1 0xE0 SHR DUP1 PUSH4 0x8DA5CB5B GT PUSH2 0x5B JUMPI DUP1 PUSH4 0x8DA5CB5B EQ PUSH2 0xB2 JUMPI DUP1 PUSH4 0xCDC18424 EQ PUSH2 0xE2 JUMPI DUP1 PUSH4 0xF4F1726B EQ PUSH2 0xF5 JUMPI DUP1 PUSH4 0xFCD1A8D6 EQ PUSH2 0x108 JUMPI PUSH1 0x0 DUP1 REVERT JUMPDEST DUP1 PUSH4 0x57C71B0 EQ PUSH2 0x82 JUMPI DUP1 PUSH4 0x2D67F0B9 EQ PUSH2 0x97 JUMPI DUP1 PUSH4 0x853828B6 EQ PUSH2 0xAA JUMPI JUMPDEST PUSH1 0x0 DUP1 REVERT JUMPDEST PUSH2 0x95 PUSH2 0x90 CALLDATASIZE PUSH1 0x4 PUSH2 0x512 JUMP JUMPDEST PUSH2 0x12B JUMP JUMPDEST STOP JUMPDEST PUSH2 0x95 PUSH2 0xA5 CALLDATASIZE PUSH1 0x4 PUSH2 0x512 JUMP JUMPDEST PUSH2 0x287 JUMP JUMPDEST PUSH2 0x95 PUSH2 0x35C JUMP JUMPDEST PUSH1 0x3 SLOAD PUSH2 0xC5 SWAP1 PUSH1 0x1 PUSH1 0x1 PUSH1 0xA0 SHL SUB AND DUP2 JUMP JUMPDEST PUSH1 0x40 MLOAD PUSH1 0x1 PUSH1 0x1 PUSH1 0xA0 SHL SUB SWAP1 SWAP2 AND DUP2 MSTORE PUSH1 0x20 ADD JUMPDEST PUSH1 0x40 MLOAD DUP1 SWAP2 SUB SWAP1 RETURN JUMPDEST PUSH1 0x1 SLOAD PUSH2 0xC5 SWAP1 PUSH1 0x1 PUSH1 0x1 PUSH1 0xA0 SHL SUB AND DUP2 JUMP JUMPDEST PUSH2 0x95 PUSH2 0x103 CALLDATASIZE PUSH1 0x4 PUSH2 0x534 JUMP JUMPDEST PUSH2 0x434 JUMP JUMPDEST PUSH2 0x11D PUSH1 0x0 DUP1 MLOAD PUSH1 0x20 PUSH2 0x586 DUP4 CODECOPY DUP2 MLOAD SWAP2 MSTORE DUP2 JUMP JUMPDEST PUSH1 0x40 MLOAD SWAP1 DUP2 MSTORE PUSH1 0x20 ADD PUSH2 0xD9 JUMP JUMPDEST PUSH2 0x133 PUSH2 0x4B5 JUMP JUMPDEST PUSH1 0x1 SLOAD PUSH1 0x1 PUSH1 0x1 PUSH1 0xA0 SHL SUB AND CALLER EQ PUSH2 0x15E JUMPI PUSH1 0x40 MLOAD PUSH4 0x2D99BC83 PUSH1 0xE2 SHL DUP2 MSTORE PUSH1 0x4 ADD PUSH1 0x40 MLOAD DUP1 SWAP2 SUB SWAP1 REVERT JUMPDEST PUSH1 0x1 JUMPDEST PUSH1 0x81 DUP2 LT ISZERO PUSH2 0x278 JUMPI PUSH1 0x40 MLOAD PUSH4 0x71DACC7D PUSH1 0xE1 SHL DUP2 MSTORE PUSH1 0x0 DUP1 MLOAD PUSH1 0x20 PUSH2 0x586 DUP4 CODECOPY DUP2 MLOAD SWAP2 MSTORE PUSH1 0x4 DUP3 ADD MSTORE PUSH1 0x24 DUP2 ADD DUP4 SWAP1 MSTORE PUSH1 0x44 DUP2 ADD DUP3 SWAP1 MSTORE PUSH1 0x0 SWAP1 PUSH2 0x805 SWAP1 PUSH4 0xE3B598FA SWAP1 PUSH1 0x64 ADD PUSH1 0x20 PUSH1 0x40 MLOAD DUP1 DUP4 SUB DUP2 DUP7 GAS STATICCALL ISZERO DUP1 ISZERO PUSH2 0x1C6 JUMPI RETURNDATASIZE PUSH1 0x0 DUP1 RETURNDATACOPY RETURNDATASIZE PUSH1 0x0 REVERT JUMPDEST POP POP POP POP PUSH1 0x40 MLOAD RETURNDATASIZE PUSH1 0x1F NOT PUSH1 0x1F DUP3 ADD AND DUP3 ADD DUP1 PUSH1 0x40 MSTORE POP DUP2 ADD SWAP1 PUSH2 0x1EA SWAP2 SWAP1 PUSH2 0x56C JUMP JUMPDEST SWAP1 POP DUP1 ISZERO PUSH2 0x26F JUMPI PUSH1 0x40 MLOAD PUSH4 0xBE72FB1 PUSH1 0xE1 SHL DUP2 MSTORE PUSH1 0x4 DUP2 ADD DUP6 SWAP1 MSTORE PUSH1 0x0 DUP1 MLOAD PUSH1 0x20 PUSH2 0x586 DUP4 CODECOPY DUP2 MLOAD SWAP2 MSTORE PUSH1 0x24 DUP3 ADD MSTORE PUSH1 0x44 DUP2 ADD DUP4 SWAP1 MSTORE PUSH1 0x64 DUP2 ADD DUP4 SWAP1 MSTORE PUSH1 0x84 DUP2 ADD DUP3 SWAP1 MSTORE PUSH2 0x805 SWAP1 PUSH4 0x17CE5F62 SWAP1 PUSH1 0xA4 ADD PUSH1 0x0 PUSH1 0x40 MLOAD DUP1 DUP4 SUB DUP2 PUSH1 0x0 DUP8 DUP1 EXTCODESIZE ISZERO DUP1 ISZERO PUSH2 0x256 JUMPI PUSH1 0x0 DUP1 REVERT JUMPDEST POP GAS CALL ISZERO DUP1 ISZERO PUSH2 0x26A JUMPI RETURNDATASIZE PUSH1 0x0 DUP1 RETURNDATACOPY RETURNDATASIZE PUSH1 0x0 REVERT JUMPDEST POP POP POP POP JUMPDEST POP PUSH1 0x1 ADD PUSH2 0x161 JUMP JUMPDEST POP PUSH2 0x283 PUSH1 0x1 PUSH1 0x0 SSTORE JUMP JUMPDEST POP POP JUMP JUMPDEST PUSH2 0x28F PUSH2 0x4B5 JUMP JUMPDEST PUSH1 0x1 SLOAD PUSH1 0x1 PUSH1 0x1 PUSH1 0xA0 SHL SUB AND CALLER EQ DUP1 ISZERO SWAP1 PUSH2 0x2B5 JUMPI POP PUSH1 0x3 SLOAD PUSH1 0x1 PUSH1 0x1 PUSH1 0xA0 SHL SUB AND CALLER EQ ISZERO JUMPDEST ISZERO PUSH2 0x2D2 JUMPI PUSH1 0x40 MLOAD PUSH3 0xBD99E7 PUSH1 0xE1 SHL DUP2 MSTORE PUSH1 0x4 ADD PUSH1 0x40 MLOAD DUP1 SWAP2 SUB SWAP1 REVERT JUMPDEST PUSH1 0x2 SLOAD PUSH1 0x40 MLOAD PUSH4 0xBE72FB1 PUSH1 0xE1 SHL DUP2 MSTORE PUSH1 0x4 DUP2 ADD SWAP2 SWAP1 SWAP2 MSTORE PUSH1 0x0 DUP1 MLOAD PUSH1 0x20 PUSH2 0x586 DUP4 CODECOPY DUP2 MLOAD SWAP2 MSTORE PUSH1 0x24 DUP3 ADD MSTORE PUSH1 0x44 DUP2 ADD DUP4 SWAP1 MSTORE PUSH1 0x0 PUSH1 0x64 DUP3 ADD MSTORE PUSH1 0x84 DUP2 ADD DUP3 SWAP1 MSTORE PUSH2 0x805 SWAP1 PUSH4 0x17CE5F62 SWAP1 PUSH1 0xA4 ADD PUSH1 0x0 PUSH1 0x40 MLOAD DUP1 DUP4 SUB DUP2 PUSH1 0x0 DUP8 DUP1 EXTCODESIZE ISZERO DUP1 ISZERO PUSH2 0x33A JUMPI PUSH1 0x0 DUP1 REVERT JUMPDEST POP GAS CALL ISZERO DUP1 ISZERO PUSH2 0x34E JUMPI RETURNDATASIZE PUSH1 0x0 DUP1 RETURNDATACOPY RETURNDATASIZE PUSH1 0x0 REVERT JUMPDEST POP POP POP POP PUSH2 0x283 PUSH1 0x1 PUSH1 0x0 SSTORE JUMP JUMPDEST PUSH2 0x364 PUSH2 0x4B5 JUMP JUMPDEST PUSH1 0x3 SLOAD PUSH1 0x1 PUSH1 0x1 PUSH1 0xA0 SHL SUB AND CALLER EQ PUSH2 0x38F JUMPI PUSH1 0x40 MLOAD PUSH4 0x30CD7471 PUSH1 0xE0 SHL DUP2 MSTORE PUSH1 0x4 ADD PUSH1 0x40 MLOAD DUP1 SWAP2 SUB SWAP1 REVERT JUMPDEST SELFBALANCE PUSH1 0x0 DUP2 SWAP1 SUB PUSH2 0x3B2 JUMPI PUSH1 0x40 MLOAD PUSH4 0x65E52D51 PUSH1 0xE1 SHL DUP2 MSTORE PUSH1 0x4 ADD PUSH1 0x40 MLOAD DUP1 SWAP2 SUB SWAP1 REVERT JUMPDEST PUSH1 0x1 SLOAD PUSH1 0x40 MLOAD PUSH1 0x0 SWAP2 PUSH1 0x1 PUSH1 0x1 PUSH1 0xA0 SHL SUB AND SWAP1 DUP4 SWAP1 DUP4 DUP2 DUP2 DUP2 DUP6 DUP8 GAS CALL SWAP3 POP POP POP RETURNDATASIZE DUP1 PUSH1 0x0 DUP2 EQ PUSH2 0x3FF JUMPI PUSH1 0x40 MLOAD SWAP2 POP PUSH1 0x1F NOT PUSH1 0x3F RETURNDATASIZE ADD AND DUP3 ADD PUSH1 0x40 MSTORE RETURNDATASIZE DUP3 MSTORE RETURNDATASIZE PUSH1 0x0 PUSH1 0x20 DUP5 ADD RETURNDATACOPY PUSH2 0x404 JUMP JUMPDEST PUSH1 0x60 SWAP2 POP JUMPDEST POP POP SWAP1 POP DUP1 PUSH2 0x426 JUMPI PUSH1 0x40 MLOAD PUSH4 0x12171D83 PUSH1 0xE3 SHL DUP2 MSTORE PUSH1 0x4 ADD PUSH1 0x40 MLOAD DUP1 SWAP2 SUB SWAP1 REVERT JUMPDEST POP POP PUSH2 0x432 PUSH1 0x1 PUSH1 0x0 SSTORE JUMP JUMPDEST JUMP JUMPDEST PUSH2 0x43C PUSH2 0x4B5 JUMP JUMPDEST PUSH1 0x1 SLOAD PUSH1 0x1 PUSH1 0x1 PUSH1 0xA0 SHL SUB AND CALLER EQ PUSH2 0x467 JUMPI PUSH1 0x40 MLOAD PUSH4 0x2D99BC83 PUSH1 0xE2 SHL DUP2 MSTORE PUSH1 0x4 ADD PUSH1 0x40 MLOAD DUP1 SWAP2 SUB SWAP1 REVERT JUMPDEST PUSH1 0x1 PUSH1 0x1 PUSH1 0xA0 SHL SUB DUP3 AND PUSH2 0x48E JUMPI PUSH1 0x40 MLOAD PUSH4 0xE6C4247B PUSH1 0xE0 SHL DUP2 MSTORE PUSH1 0x4 ADD PUSH1 0x40 MLOAD DUP1 SWAP2 SUB SWAP1 REVERT JUMPDEST PUSH1 0x1 DUP1 SLOAD PUSH1 0x1 PUSH1 0x1 PUSH1 0xA0 SHL SUB NOT AND PUSH1 0x1 PUSH1 0x1 PUSH1 0xA0 SHL SUB DUP5 AND OR DUP2 SSTORE PUSH1 0x2 DUP3 SWAP1 SSTORE PUSH1 0x0 SSTORE POP POP JUMP JUMPDEST PUSH1 0x2 PUSH1 0x0 SLOAD SUB PUSH2 0x50B JUMPI PUSH1 0x40 MLOAD PUSH3 0x461BCD PUSH1 0xE5 SHL DUP2 MSTORE PUSH1 0x20 PUSH1 0x4 DUP3 ADD MSTORE PUSH1 0x1F PUSH1 0x24 DUP3 ADD MSTORE PUSH32 0x5265656E7472616E637947756172643A207265656E7472616E742063616C6C00 PUSH1 0x44 DUP3 ADD MSTORE PUSH1 0x64 ADD PUSH1 0x40 MLOAD DUP1 SWAP2 SUB SWAP1 REVERT JUMPDEST PUSH1 0x2 PUSH1 0x0 SSTORE JUMP JUMPDEST PUSH1 0x0 DUP1 PUSH1 0x40 DUP4 DUP6 SUB SLT ISZERO PUSH2 0x525 JUMPI PUSH1 0x0 DUP1 REVERT JUMPDEST POP POP DUP1 CALLDATALOAD SWAP3 PUSH1 0x20 SWAP1 SWAP2 ADD CALLDATALOAD SWAP2 POP JUMP JUMPDEST PUSH1 0x0 DUP1 PUSH1 0x40 DUP4 DUP6 SUB SLT ISZERO PUSH2 0x547 JUMPI PUSH1 0x0 DUP1 REVERT JUMPDEST DUP3 CALLDATALOAD PUSH1 0x1 PUSH1 0x1 PUSH1 0xA0 SHL SUB DUP2 AND DUP2 EQ PUSH2 0x55E JUMPI PUSH1 0x0 DUP1 REVERT JUMPDEST SWAP5 PUSH1 0x20 SWAP4 SWAP1 SWAP4 ADD CALLDATALOAD SWAP4 POP POP POP JUMP JUMPDEST PUSH1 0x0 PUSH1 0x20 DUP3 DUP5 SUB SLT ISZERO PUSH2 0x57E JUMPI PUSH1 0x0 DUP1 REVERT JUMPDEST POP MLOAD SWAP2 SWAP1 POP JUMP INVALID 0xB4 0xC0 DUP8 GT SWAP1 SWAP8 0xFB 0xE3 SWAP9 MSTORE SWAP9 0xEE CREATE2 0x2F CALLDATALOAD 0xEF PUSH3 0x71C483 0x22 0xA8 0xC2 0xD4 ADDRESS SWAP1 0x2A SWAP13 0xC3 DUP14 SWAP5 PUSH20 0xA26469706673582212203EC122898466017CEC40 SWAP6 0xF6 ISZERO 0xB5 0xCD 0xBA 0xF7 PUSH32 0xD3D575AF3074B610B06B152E09A564736F6C6343000816003300000000000000 "},"methodIdentifiers":{"DELEGATOR_BYTES_KEY()":"fcd1a8d6","moveStakeAll(bytes32,bytes32)":"057c71b0","owner()":"8da5cb5b","removeStake(uint256,uint256)":"2d67f0b9","setConfig(address,bytes32)":"f4f1726b","withdrawAll()":"853828b6","withdrawer()":"cdc18424"}}}}}