{
  "_format": "hh-sol-artifact-1",
  "contractName": "BSCSender",
  "sourceName": "contracts/BSCSender.sol",
  "abi": [
    {
      "inputs": [
        {
          "internalType": "address",
          "name": "_endpoint",
          "type": "address"
        },
        {
          "internalType": "address",
          "name": "_owner",
          "type": "address"
        }
      ],
      "stateMutability": "nonpayable",
      "type": "constructor"
    },
    {
      "inputs": [],
      "name": "InvalidDelegate",
      "type": "error"
    },
    {
      "inputs": [],
      "name": "InvalidEndpointCall",
      "type": "error"
    },
    {
      "inputs": [],
      "name": "LzTokenUnavailable",
      "type": "error"
    },
    {
      "inputs": [
        {
          "internalType": "uint32",
          "name": "eid",
          "type": "uint32"
        }
      ],
      "name": "NoPeer",
      "type": "error"
    },
    {
      "inputs": [
        {
          "internalType": "uint256",
          "name": "msgValue",
          "type": "uint256"
        }
      ],
      "name": "NotEnoughNative",
      "type": "error"
    },
    {
      "inputs": [
        {
          "internalType": "address",
          "name": "addr",
          "type": "address"
        }
      ],
      "name": "OnlyEndpoint",
      "type": "error"
    },
    {
      "inputs": [
        {
          "internalType": "uint32",
          "name": "eid",
          "type": "uint32"
        },
        {
          "internalType": "bytes32",
          "name": "sender",
          "type": "bytes32"
        }
      ],
      "name": "OnlyPeer",
      "type": "error"
    },
    {
      "anonymous": false,
      "inputs": [
        {
          "indexed": false,
          "internalType": "uint32",
          "name": "dstEid",
          "type": "uint32"
        },
        {
          "indexed": false,
          "internalType": "bytes",
          "name": "payload",
          "type": "bytes"
        },
        {
          "indexed": false,
          "internalType": "address",
          "name": "sender",
          "type": "address"
        }
      ],
      "name": "MessageSent",
      "type": "event"
    },
    {
      "anonymous": false,
      "inputs": [
        {
          "indexed": true,
          "internalType": "address",
          "name": "previousOwner",
          "type": "address"
        },
        {
          "indexed": true,
          "internalType": "address",
          "name": "newOwner",
          "type": "address"
        }
      ],
      "name": "OwnershipTransferred",
      "type": "event"
    },
    {
      "anonymous": false,
      "inputs": [
        {
          "indexed": false,
          "internalType": "uint32",
          "name": "eid",
          "type": "uint32"
        },
        {
          "indexed": false,
          "internalType": "bytes32",
          "name": "peer",
          "type": "bytes32"
        }
      ],
      "name": "PeerSet",
      "type": "event"
    },
    {
      "inputs": [
        {
          "components": [
            {
              "internalType": "uint32",
              "name": "srcEid",
              "type": "uint32"
            },
            {
              "internalType": "bytes32",
              "name": "sender",
              "type": "bytes32"
            },
            {
              "internalType": "uint64",
              "name": "nonce",
              "type": "uint64"
            }
          ],
          "internalType": "struct Origin",
          "name": "origin",
          "type": "tuple"
        }
      ],
      "name": "allowInitializePath",
      "outputs": [
        {
          "internalType": "bool",
          "name": "",
          "type": "bool"
        }
      ],
      "stateMutability": "view",
      "type": "function"
    },
    {
      "inputs": [],
      "name": "endpoint",
      "outputs": [
        {
          "internalType": "contract ILayerZeroEndpointV2",
          "name": "",
          "type": "address"
        }
      ],
      "stateMutability": "view",
      "type": "function"
    },
    {
      "inputs": [
        {
          "components": [
            {
              "internalType": "uint32",
              "name": "srcEid",
              "type": "uint32"
            },
            {
              "internalType": "bytes32",
              "name": "sender",
              "type": "bytes32"
            },
            {
              "internalType": "uint64",
              "name": "nonce",
              "type": "uint64"
            }
          ],
          "internalType": "struct Origin",
          "name": "",
          "type": "tuple"
        },
        {
          "internalType": "bytes",
          "name": "",
          "type": "bytes"
        },
        {
          "internalType": "address",
          "name": "_sender",
          "type": "address"
        }
      ],
      "name": "isComposeMsgSender",
      "outputs": [
        {
          "internalType": "bool",
          "name": "",
          "type": "bool"
        }
      ],
      "stateMutability": "view",
      "type": "function"
    },
    {
      "inputs": [
        {
          "components": [
            {
              "internalType": "uint32",
              "name": "srcEid",
              "type": "uint32"
            },
            {
              "internalType": "bytes32",
              "name": "sender",
              "type": "bytes32"
            },
            {
              "internalType": "uint64",
              "name": "nonce",
              "type": "uint64"
            }
          ],
          "internalType": "struct Origin",
          "name": "_origin",
          "type": "tuple"
        },
        {
          "internalType": "bytes32",
          "name": "_guid",
          "type": "bytes32"
        },
        {
          "internalType": "bytes",
          "name": "_message",
          "type": "bytes"
        },
        {
          "internalType": "address",
          "name": "_executor",
          "type": "address"
        },
        {
          "internalType": "bytes",
          "name": "_extraData",
          "type": "bytes"
        }
      ],
      "name": "lzReceive",
      "outputs": [],
      "stateMutability": "payable",
      "type": "function"
    },
    {
      "inputs": [
        {
          "internalType": "uint32",
          "name": "",
          "type": "uint32"
        },
        {
          "internalType": "bytes32",
          "name": "",
          "type": "bytes32"
        }
      ],
      "name": "nextNonce",
      "outputs": [
        {
          "internalType": "uint64",
          "name": "nonce",
          "type": "uint64"
        }
      ],
      "stateMutability": "view",
      "type": "function"
    },
    {
      "inputs": [],
      "name": "oAppVersion",
      "outputs": [
        {
          "internalType": "uint64",
          "name": "senderVersion",
          "type": "uint64"
        },
        {
          "internalType": "uint64",
          "name": "receiverVersion",
          "type": "uint64"
        }
      ],
      "stateMutability": "pure",
      "type": "function"
    },
    {
      "inputs": [],
      "name": "owner",
      "outputs": [
        {
          "internalType": "address",
          "name": "",
          "type": "address"
        }
      ],
      "stateMutability": "view",
      "type": "function"
    },
    {
      "inputs": [
        {
          "internalType": "uint32",
          "name": "eid",
          "type": "uint32"
        }
      ],
      "name": "peers",
      "outputs": [
        {
          "internalType": "bytes32",
          "name": "peer",
          "type": "bytes32"
        }
      ],
      "stateMutability": "view",
      "type": "function"
    },
    {
      "inputs": [
        {
          "internalType": "uint32",
          "name": "_dstEid",
          "type": "uint32"
        },
        {
          "internalType": "bytes",
          "name": "_payload",
          "type": "bytes"
        },
        {
          "internalType": "bytes",
          "name": "_options",
          "type": "bytes"
        },
        {
          "internalType": "bool",
          "name": "_payInLzToken",
          "type": "bool"
        }
      ],
      "name": "quoteSend",
      "outputs": [
        {
          "components": [
            {
              "internalType": "uint256",
              "name": "nativeFee",
              "type": "uint256"
            },
            {
              "internalType": "uint256",
              "name": "lzTokenFee",
              "type": "uint256"
            }
          ],
          "internalType": "struct MessagingFee",
          "name": "fee",
          "type": "tuple"
        }
      ],
      "stateMutability": "view",
      "type": "function"
    },
    {
      "inputs": [],
      "name": "renounceOwnership",
      "outputs": [],
      "stateMutability": "nonpayable",
      "type": "function"
    },
    {
      "inputs": [
        {
          "internalType": "uint32",
          "name": "_dstEid",
          "type": "uint32"
        },
        {
          "internalType": "bytes",
          "name": "_payload",
          "type": "bytes"
        },
        {
          "internalType": "bytes",
          "name": "_options",
          "type": "bytes"
        }
      ],
      "name": "send",
      "outputs": [],
      "stateMutability": "payable",
      "type": "function"
    },
    {
      "inputs": [
        {
          "internalType": "address",
          "name": "_delegate",
          "type": "address"
        }
      ],
      "name": "setDelegate",
      "outputs": [],
      "stateMutability": "nonpayable",
      "type": "function"
    },
    {
      "inputs": [
        {
          "internalType": "uint32",
          "name": "_eid",
          "type": "uint32"
        },
        {
          "internalType": "bytes32",
          "name": "_peer",
          "type": "bytes32"
        }
      ],
      "name": "setPeer",
      "outputs": [],
      "stateMutability": "nonpayable",
      "type": "function"
    },
    {
      "inputs": [
        {
          "internalType": "address",
          "name": "newOwner",
          "type": "address"
        }
      ],
      "name": "transferOwnership",
      "outputs": [],
      "stateMutability": "nonpayable",
      "type": "function"
    }
  ],
  "bytecode": "0x60a034610164576110a0906001600160401b03601f38849003908101601f191683019082821184831017610169578084916040968794855283398101031261016457610056602061004f8461017f565b930161017f565b60008054336001600160a01b03198216811783558651929592936001600160a01b039384939192849283167f8be0079c531659141344cd1fd0a4f28419497f9722a3daafe3b4186f6b6457e08a80a3166080521691821561015557506080511690813b1561015157839291602484928751968793849263ca5eb5e160e01b845260048401525af1801561014757610122575b8351610f0c908161019482396080518181816101f9015281816103d901528181610582015281816106ae0152818161085e01526109950152f35b8211610133575081523880806100e8565b634e487b7160e01b81526041600452602490fd5b84513d84823e3d90fd5b8380fd5b632d618d8160e21b8152600490fd5b600080fd5b634e487b7160e01b600052604160045260246000fd5b51906001600160a01b03821682036101645756fe608060408181526004918236101561001657600080fd5b600092833560e01c9182630f62773d1461073e5750816313137d651461064457816317442b70146106225781632ed56ce9146104895781633400288b146104085781635e280f11146103c4578163715018a6146103675781637d25a05e1461034257816382413eac146102e05781638da5cb5b146102b8578163bb0b6a5314610284578163ca5eb5e1146101ca578163f2fde38b146100f9575063ff7bd03d146100bf57600080fd5b346100f55760603660031901126100f5578060209263ffffffff6100e1610cc4565b168152600184522054905190602435148152f35b5080fd5b9050346101c65760203660031901126101c657610114610bcf565b9061011d610de5565b6001600160a01b03918216928315610174575050600054826bffffffffffffffffffffffff60a01b821617600055167f8be0079c531659141344cd1fd0a4f28419497f9722a3daafe3b4186f6b6457e0600080a380f35b906020608492519162461bcd60e51b8352820152602660248201527f4f776e61626c653a206e6577206f776e657220697320746865207a65726f206160448201526564647265737360d01b6064820152fd5b8280fd5b919050346101c65760203660031901126101c6576101e6610bcf565b916101ef610de5565b6001600160a01b037f0000000000000000000000000000000000000000000000000000000000000000811693859190853b156101c657602490838651978894859363ca5eb5e160e01b855216878401525af1801561027a5761024f578380f35b67ffffffffffffffff83116102675750523880808380f35b634e487b7160e01b845260419052602483fd5b82513d86823e3d90fd5b5050346100f55760203660031901126100f5578060209263ffffffff6102a8610b89565b1681526001845220549051908152f35b5050346100f557816003193601126100f557905490516001600160a01b039091168152602090f35b9050346101c657366003190160a0811261033e576060136101c6576064359067ffffffffffffffff821161033e5761031a91369101610ba1565b50506084356001600160a01b03811691908290036101c65760209250519030148152f35b8380fd5b5050346100f557806003193601126100f55790602091610360610b89565b5051908152f35b83346103c157806003193601126103c157610380610de5565b80546001600160a01b03198116825581906001600160a01b03167f8be0079c531659141344cd1fd0a4f28419497f9722a3daafe3b4186f6b6457e08280a380f35b80fd5b5050346100f557816003193601126100f557517f00000000000000000000000000000000000000000000000000000000000000006001600160a01b03168152602090f35b5050346100f557806003193601126100f5577f238399d427b947898edb290f5ff0f9109849b1c3ba196a42e35f00c50a54b98b90610444610b89565b61048360243592610453610de5565b63ffffffff831686526001602052838187205551928392836020909392919363ffffffff60408201951681520152565b0390a180f35b839150346100f55760803660031901126100f5576104a5610b89565b67ffffffffffffffff60243581811161061e576104c59036908501610ba1565b9160443590811161061a576104dd9036908601610ba1565b916064359384151580950361061657879694926105188a9795936105209361057e9b60208b5161050c81610be5565b82815201523691610c8d565b923691610c8d565b90866020875161052f81610be5565b828152015261053d84610dad565b63ffffffff87519561054e87610c33565b168552602085015285840152606083015260808201528251631bb8518b60e31b8152948592839230918401610d3f565b03817f00000000000000000000000000000000000000000000000000000000000000006001600160a01b03165afa91821561060a5781926105ce575b505060208251918051835201516020820152f35b90928092503d8311610603575b6105e58183610c4f565b810190828183031261033e576105fc929350610cd7565b82806105ba565b503d6105db565b508251903d90823e3d90fd5b8780fd5b8580fd5b8480fd5b8284346103c157806003193601126103c1575080516001815260026020820152f35b9050366003190160e0811261033e576060136101c65767ffffffffffffffff60843581811161061e5761067a9036908401610ba1565b506001600160a01b0391905060a4358281160361061e5760c43590811161061e576106a89036908401610ba1565b505033907f00000000000000000000000000000000000000000000000000000000000000001603610728576106e36106de610cc4565b610dad565b6024358091036106f1578380f35b610724906106fd610cc4565b935163309afaf360e21b815263ffffffff9094169284019283526020830152829160400190565b0390fd5b60249151906391ac5e4f60e01b82523390820152fd5b9150606036600319011261033e57610754610b89565b906024359367ffffffffffffffff94858111610b85576107779036908401610ba1565b919095604435818111610b81576107919036908601610ba1565b909461079c88610be5565b3488526020976107c0898201978c89526107b88c893691610c8d565b943691610c8d565b908b8680516107ce81610c17565b828152828d8201528151926107e284610be5565b8084528d84015201525190813403610b6b5787518061097f575b509061085a9493929161080e8a610dad565b985115159363ffffffff88519b6108248d610c33565b16998a8c528c8c0152878b015260608a015260809889938482015286518096819482936302637a4560e41b845233918401610d3f565b03917f00000000000000000000000000000000000000000000000000000000000000006001600160a01b03165af18015610975576108eb575b5050817fe259e3963952c0f1e65c9c30d6f7a49654b93346cb11f21e2bd4e7c340fa0983966060835197889687528601528160608601528585013782820184018790523390830152601f01601f19168101030190a180f35b9096853d871161096e575b610900818a610c4f565b880191868984031261096a5783519061091882610c17565b89518252888a015190811681036109665761095d8694867fe259e3963952c0f1e65c9c30d6f7a49654b93346cb11f21e2bd4e7c340fa09839c81948d87015201610cd7565b91015296610893565b8a80fd5b8980fd5b503d6108f6565b83513d8b823e3d90fd5b865163393f876560e21b81526001600160a01b037f00000000000000000000000000000000000000000000000000000000000000008116918f908e818981875afa918215610b605791610b26575b5016908115610b16578e610a7493928a8f93838091835197878901916323b872dd60e01b83523360248b015260448a0152606489015260648852610a1088610c33565b835197610a1c89610be5565b8789527f5361666545524332303a206c6f772d6c6576656c2063616c6c206661696c6564888a0152519082865af1923d15610b0a573d610a67610a5e82610c71565b93519384610c4f565b825281943d92013e610e3d565b80518b8115918215610ae6575b5050905015610a9057386107fc565b855162461bcd60e51b81528084018b9052602a60248201527f5361666545524332303a204552433230206f7065726174696f6e20646964206e6044820152691bdd081cdd58d8d9595960b21b6064820152608490fd5b8380929350010312610b06578a01518015158103610b0657808b38610a81565b8c80fd5b50509150606091610e3d565b88516329b99a9560e11b81528690fd5b90508d81813d8311610b59575b610b3d8183610c4f565b81010312610b5557518181168103610b5557386109cd565b8f80fd5b503d610b33565b8b51903d90823e3d90fd5b85516304fb820960e51b81523481850152602490fd5b8880fd5b8680fd5b6004359063ffffffff82168203610b9c57565b600080fd5b9181601f84011215610b9c5782359167ffffffffffffffff8311610b9c5760208381860195010111610b9c57565b600435906001600160a01b0382168203610b9c57565b6040810190811067ffffffffffffffff821117610c0157604052565b634e487b7160e01b600052604160045260246000fd5b6060810190811067ffffffffffffffff821117610c0157604052565b60a0810190811067ffffffffffffffff821117610c0157604052565b90601f8019910116810190811067ffffffffffffffff821117610c0157604052565b67ffffffffffffffff8111610c0157601f01601f191660200190565b929192610c9982610c71565b91610ca76040519384610c4f565b829481845281830111610b9c578281602093846000960137010152565b60043563ffffffff81168103610b9c5790565b9190826040910312610b9c57604051610cef81610be5565b6020808294805184520151910152565b919082519283825260005b848110610d2b575050826000602080949584010152601f8019910116010190565b602081830181015184830182015201610d0a565b906020909392936040835263ffffffff81511660408401528181015160608401526080610d93610d7d604084015160a08488015260e0870190610cff565b6060840151868203603f190160a0880152610cff565b910151151560c08401526001600160a01b03909416910152565b63ffffffff16806000526001602052604060002054908115610dcd575090565b6024906040519063f6ff4fb760e01b82526004820152fd5b6000546001600160a01b03163303610df957565b606460405162461bcd60e51b815260206004820152602060248201527f4f776e61626c653a2063616c6c6572206973206e6f7420746865206f776e65726044820152fd5b91929015610e9f5750815115610e51575090565b3b15610e5a5790565b60405162461bcd60e51b815260206004820152601d60248201527f416464726573733a2063616c6c20746f206e6f6e2d636f6e74726163740000006044820152606490fd5b825190915015610eb25750805190602001fd5b60405162461bcd60e51b815260206004820152908190610724906024830190610cff56fea264697066735822122084bb8dd58132c943a2f5674ed2fd43e2b6fc41d4fca84ecc68339640559aa79e64736f6c63430008160033",
  "linkReferences": {},
  "deployedLinkReferences": {}
}