{
  "_format": "hh-sol-artifact-1",
  "contractName": "BSCSender",
  "sourceName": "contracts/BSCSender.sol",
  "abi": [
    {
      "inputs": [
        {
          "internalType": "address",
          "name": "_endpoint",
          "type": "address"
        },
        {
          "internalType": "address",
          "name": "_owner",
          "type": "address"
        }
      ],
      "stateMutability": "nonpayable",
      "type": "constructor"
    },
    {
      "inputs": [],
      "name": "InvalidDelegate",
      "type": "error"
    },
    {
      "inputs": [],
      "name": "InvalidEndpointCall",
      "type": "error"
    },
    {
      "inputs": [],
      "name": "LzTokenUnavailable",
      "type": "error"
    },
    {
      "inputs": [
        {
          "internalType": "uint32",
          "name": "eid",
          "type": "uint32"
        }
      ],
      "name": "NoPeer",
      "type": "error"
    },
    {
      "inputs": [
        {
          "internalType": "uint256",
          "name": "msgValue",
          "type": "uint256"
        }
      ],
      "name": "NotEnoughNative",
      "type": "error"
    },
    {
      "inputs": [
        {
          "internalType": "address",
          "name": "addr",
          "type": "address"
        }
      ],
      "name": "OnlyEndpoint",
      "type": "error"
    },
    {
      "inputs": [
        {
          "internalType": "uint32",
          "name": "eid",
          "type": "uint32"
        },
        {
          "internalType": "bytes32",
          "name": "sender",
          "type": "bytes32"
        }
      ],
      "name": "OnlyPeer",
      "type": "error"
    },
    {
      "anonymous": false,
      "inputs": [
        {
          "indexed": false,
          "internalType": "uint32",
          "name": "dstEid",
          "type": "uint32"
        },
        {
          "indexed": false,
          "internalType": "bytes",
          "name": "payload",
          "type": "bytes"
        },
        {
          "indexed": false,
          "internalType": "address",
          "name": "sender",
          "type": "address"
        }
      ],
      "name": "MessageSent",
      "type": "event"
    },
    {
      "anonymous": false,
      "inputs": [
        {
          "indexed": true,
          "internalType": "address",
          "name": "previousOwner",
          "type": "address"
        },
        {
          "indexed": true,
          "internalType": "address",
          "name": "newOwner",
          "type": "address"
        }
      ],
      "name": "OwnershipTransferred",
      "type": "event"
    },
    {
      "anonymous": false,
      "inputs": [
        {
          "indexed": false,
          "internalType": "uint32",
          "name": "eid",
          "type": "uint32"
        },
        {
          "indexed": false,
          "internalType": "bytes32",
          "name": "peer",
          "type": "bytes32"
        }
      ],
      "name": "PeerSet",
      "type": "event"
    },
    {
      "inputs": [
        {
          "components": [
            {
              "internalType": "uint32",
              "name": "srcEid",
              "type": "uint32"
            },
            {
              "internalType": "bytes32",
              "name": "sender",
              "type": "bytes32"
            },
            {
              "internalType": "uint64",
              "name": "nonce",
              "type": "uint64"
            }
          ],
          "internalType": "struct Origin",
          "name": "origin",
          "type": "tuple"
        }
      ],
      "name": "allowInitializePath",
      "outputs": [
        {
          "internalType": "bool",
          "name": "",
          "type": "bool"
        }
      ],
      "stateMutability": "view",
      "type": "function"
    },
    {
      "inputs": [],
      "name": "endpoint",
      "outputs": [
        {
          "internalType": "contract ILayerZeroEndpointV2",
          "name": "",
          "type": "address"
        }
      ],
      "stateMutability": "view",
      "type": "function"
    },
    {
      "inputs": [
        {
          "components": [
            {
              "internalType": "uint32",
              "name": "srcEid",
              "type": "uint32"
            },
            {
              "internalType": "bytes32",
              "name": "sender",
              "type": "bytes32"
            },
            {
              "internalType": "uint64",
              "name": "nonce",
              "type": "uint64"
            }
          ],
          "internalType": "struct Origin",
          "name": "",
          "type": "tuple"
        },
        {
          "internalType": "bytes",
          "name": "",
          "type": "bytes"
        },
        {
          "internalType": "address",
          "name": "_sender",
          "type": "address"
        }
      ],
      "name": "isComposeMsgSender",
      "outputs": [
        {
          "internalType": "bool",
          "name": "",
          "type": "bool"
        }
      ],
      "stateMutability": "view",
      "type": "function"
    },
    {
      "inputs": [
        {
          "components": [
            {
              "internalType": "uint32",
              "name": "srcEid",
              "type": "uint32"
            },
            {
              "internalType": "bytes32",
              "name": "sender",
              "type": "bytes32"
            },
            {
              "internalType": "uint64",
              "name": "nonce",
              "type": "uint64"
            }
          ],
          "internalType": "struct Origin",
          "name": "_origin",
          "type": "tuple"
        },
        {
          "internalType": "bytes32",
          "name": "_guid",
          "type": "bytes32"
        },
        {
          "internalType": "bytes",
          "name": "_message",
          "type": "bytes"
        },
        {
          "internalType": "address",
          "name": "_executor",
          "type": "address"
        },
        {
          "internalType": "bytes",
          "name": "_extraData",
          "type": "bytes"
        }
      ],
      "name": "lzReceive",
      "outputs": [],
      "stateMutability": "payable",
      "type": "function"
    },
    {
      "inputs": [
        {
          "internalType": "uint32",
          "name": "",
          "type": "uint32"
        },
        {
          "internalType": "bytes32",
          "name": "",
          "type": "bytes32"
        }
      ],
      "name": "nextNonce",
      "outputs": [
        {
          "internalType": "uint64",
          "name": "nonce",
          "type": "uint64"
        }
      ],
      "stateMutability": "view",
      "type": "function"
    },
    {
      "inputs": [],
      "name": "oAppVersion",
      "outputs": [
        {
          "internalType": "uint64",
          "name": "senderVersion",
          "type": "uint64"
        },
        {
          "internalType": "uint64",
          "name": "receiverVersion",
          "type": "uint64"
        }
      ],
      "stateMutability": "pure",
      "type": "function"
    },
    {
      "inputs": [],
      "name": "owner",
      "outputs": [
        {
          "internalType": "address",
          "name": "",
          "type": "address"
        }
      ],
      "stateMutability": "view",
      "type": "function"
    },
    {
      "inputs": [
        {
          "internalType": "uint32",
          "name": "eid",
          "type": "uint32"
        }
      ],
      "name": "peers",
      "outputs": [
        {
          "internalType": "bytes32",
          "name": "peer",
          "type": "bytes32"
        }
      ],
      "stateMutability": "view",
      "type": "function"
    },
    {
      "inputs": [
        {
          "internalType": "uint32",
          "name": "_dstEid",
          "type": "uint32"
        },
        {
          "internalType": "bytes",
          "name": "_payload",
          "type": "bytes"
        },
        {
          "internalType": "bytes",
          "name": "_options",
          "type": "bytes"
        },
        {
          "internalType": "bool",
          "name": "_payInLzToken",
          "type": "bool"
        }
      ],
      "name": "quoteSend",
      "outputs": [
        {
          "components": [
            {
              "internalType": "uint256",
              "name": "nativeFee",
              "type": "uint256"
            },
            {
              "internalType": "uint256",
              "name": "lzTokenFee",
              "type": "uint256"
            }
          ],
          "internalType": "struct MessagingFee",
          "name": "fee",
          "type": "tuple"
        }
      ],
      "stateMutability": "view",
      "type": "function"
    },
    {
      "inputs": [],
      "name": "renounceOwnership",
      "outputs": [],
      "stateMutability": "nonpayable",
      "type": "function"
    },
    {
      "inputs": [
        {
          "internalType": "uint32",
          "name": "_dstEid",
          "type": "uint32"
        },
        {
          "internalType": "bytes",
          "name": "_payload",
          "type": "bytes"
        },
        {
          "internalType": "bytes",
          "name": "_options",
          "type": "bytes"
        }
      ],
      "name": "send",
      "outputs": [],
      "stateMutability": "payable",
      "type": "function"
    },
    {
      "inputs": [
        {
          "internalType": "address",
          "name": "_delegate",
          "type": "address"
        }
      ],
      "name": "setDelegate",
      "outputs": [],
      "stateMutability": "nonpayable",
      "type": "function"
    },
    {
      "inputs": [
        {
          "internalType": "uint32",
          "name": "_eid",
          "type": "uint32"
        },
        {
          "internalType": "bytes32",
          "name": "_peer",
          "type": "bytes32"
        }
      ],
      "name": "setPeer",
      "outputs": [],
      "stateMutability": "nonpayable",
      "type": "function"
    },
    {
      "inputs": [
        {
          "internalType": "address",
          "name": "newOwner",
          "type": "address"
        }
      ],
      "name": "transferOwnership",
      "outputs": [],
      "stateMutability": "nonpayable",
      "type": "function"
    }
  ],
  "bytecode": "0x60a06040523480156200001157600080fd5b50604051620015093803806200150983398101604081905262000034916200014b565b818181816200004333620000de565b6001600160a01b0380831660805281166200007157604051632d618d8160e21b815260040160405180910390fd5b60805160405163ca5eb5e160e01b81526001600160a01b0383811660048301529091169063ca5eb5e190602401600060405180830381600087803b158015620000b957600080fd5b505af1158015620000ce573d6000803e3d6000fd5b5050505050505050505062000183565b600080546001600160a01b038381166001600160a01b0319831681178455604051919092169283917f8be0079c531659141344cd1fd0a4f28419497f9722a3daafe3b4186f6b6457e09190a35050565b80516001600160a01b03811681146200014657600080fd5b919050565b600080604083850312156200015f57600080fd5b6200016a836200012e565b91506200017a602084016200012e565b90509250929050565b608051611340620001c96000396000818161019e015281816103e40152818161058e015281816106cf015281816107f4015281816109ea0152610aa101526113406000f3fe6080604052600436106100dd5760003560e01c80637d25a05e1161007f578063bb0b6a5311610059578063bb0b6a5314610277578063ca5eb5e1146102b2578063f2fde38b146102d2578063ff7bd03d146102f257600080fd5b80637d25a05e146101ed57806382413eac146102295780638da5cb5b1461025957600080fd5b80632ed56ce9116100bb5780632ed56ce9146101315780633400288b1461016c5780635e280f111461018c578063715018a6146101d857600080fd5b80630f62773d146100e257806313137d65146100f757806317442b701461010a575b600080fd5b6100f56100f0366004610db5565b610312565b005b6100f5610105366004610e63565b6103e2565b34801561011657600080fd5b50604080516001815260026020820152015b60405180910390f35b34801561013d57600080fd5b5061015161014c366004610f11565b610493565b60408051825181526020928301519281019290925201610128565b34801561017857600080fd5b506100f5610187366004610fa4565b610528565b34801561019857600080fd5b506101c07f000000000000000000000000000000000000000000000000000000000000000081565b6040516001600160a01b039091168152602001610128565b3480156101e457600080fd5b506100f561053e565b3480156101f957600080fd5b50610210610208366004610fa4565b600092915050565b60405167ffffffffffffffff9091168152602001610128565b34801561023557600080fd5b50610249610244366004610fce565b610552565b6040519015158152602001610128565b34801561026557600080fd5b506000546001600160a01b03166101c0565b34801561028357600080fd5b506102a4610292366004611035565b60016020526000908152604090205481565b604051908152602001610128565b3480156102be57600080fd5b506100f56102cd366004611057565b610567565b3480156102de57600080fd5b506100f56102ed366004611057565b6105ed565b3480156102fe57600080fd5b5061024961030d366004611074565b610666565b61039d8585858080601f01602080910402602001604051908101604052809392919081815260200183838082843760009201919091525050604080516020601f890181900481028201810190925287815292508791508690819084018382808284376000920182905250604080518082019091523481526020810191909152925033915061069c9050565b507fe259e3963952c0f1e65c9c30d6f7a49654b93346cb11f21e2bd4e7c340fa0983858585336040516103d39493929190611090565b60405180910390a15050505050565b7f00000000000000000000000000000000000000000000000000000000000000006001600160a01b03163314610432576040516391ac5e4f60e01b81523360048201526024015b60405180910390fd5b6020870180359061044c90610447908a611035565b61079c565b1461048a5761045e6020880188611035565b60405163309afaf360e21b815263ffffffff909116600482015260208801356024820152604401610429565b50505050505050565b604080518082019091526000808252602082015261051d8787878080601f01602080910402602001604051908101604052809392919081815260200183838082843760009201919091525050604080516020601f8b0181900481028201810190925289815292508991508890819084018382808284376000920191909152508892506107de915050565b979650505050505050565b6105306108bf565b61053a8282610919565b5050565b6105466108bf565b610550600061096e565b565b6001600160a01b03811630145b949350505050565b61056f6108bf565b60405163ca5eb5e160e01b81526001600160a01b0382811660048301527f0000000000000000000000000000000000000000000000000000000000000000169063ca5eb5e190602401600060405180830381600087803b1580156105d257600080fd5b505af11580156105e6573d6000803e3d6000fd5b5050505050565b6105f56108bf565b6001600160a01b03811661065a5760405162461bcd60e51b815260206004820152602660248201527f4f776e61626c653a206e6577206f776e657220697320746865207a65726f206160448201526564647265737360d01b6064820152608401610429565b6106638161096e565b50565b600060208201803590600190839061067e9086611035565b63ffffffff1681526020810191909152604001600020541492915050565b6106a4610d0b565b60006106b384600001516109be565b6020850151909150156106cd576106cd84602001516109e6565b7f00000000000000000000000000000000000000000000000000000000000000006001600160a01b0316632637a450826040518060a001604052808b63ffffffff16815260200161071d8c61079c565b81526020018a815260200189815260200160008960200151111515815250866040518463ffffffff1660e01b815260040161075992919061112f565b60806040518083038185885af1158015610777573d6000803e3d6000fd5b50505050506040513d601f19601f8201168201806040525081019061051d9190611205565b63ffffffff8116600090815260016020526040812054806107d85760405163f6ff4fb760e01b815263ffffffff84166004820152602401610429565b92915050565b60408051808201909152600080825260208201527f00000000000000000000000000000000000000000000000000000000000000006001600160a01b031663ddc28c586040518060a001604052808863ffffffff1681526020016108418961079c565b8152602001878152602001868152602001851515815250306040518363ffffffff1660e01b815260040161087692919061112f565b6040805180830381865afa158015610892573d6000803e3d6000fd5b505050506040513d601f19601f820116820180604052508101906108b69190611285565b95945050505050565b6000546001600160a01b031633146105505760405162461bcd60e51b815260206004820181905260248201527f4f776e61626c653a2063616c6c6572206973206e6f7420746865206f776e65726044820152606401610429565b63ffffffff8216600081815260016020908152604091829020849055815192835282018390527f238399d427b947898edb290f5ff0f9109849b1c3ba196a42e35f00c50a54b98b910160405180910390a15050565b600080546001600160a01b038381166001600160a01b0319831681178455604051919092169283917f8be0079c531659141344cd1fd0a4f28419497f9722a3daafe3b4186f6b6457e09190a35050565b60008134146109e2576040516304fb820960e51b8152346004820152602401610429565b5090565b60007f00000000000000000000000000000000000000000000000000000000000000006001600160a01b031663e4fe1d946040518163ffffffff1660e01b8152600401602060405180830381865afa158015610a46573d6000803e3d6000fd5b505050506040513d601f19601f82011682018060405250810190610a6a91906112a1565b90506001600160a01b038116610a93576040516329b99a9560e11b815260040160405180910390fd5b6040805133602482018190527f00000000000000000000000000000000000000000000000000000000000000006001600160a01b03818116604485015260648085018890528551808603909101815260849094019094526020830180516001600160e01b03166323b872dd60e01b17905261053a938516928690610b18908590610b1e565b50505050565b6000610b73826040518060400160405280602081526020017f5361666545524332303a206c6f772d6c6576656c2063616c6c206661696c6564815250856001600160a01b0316610bf89092919063ffffffff16565b9050805160001480610b94575080806020019051810190610b9491906112be565b610bf35760405162461bcd60e51b815260206004820152602a60248201527f5361666545524332303a204552433230206f7065726174696f6e20646964206e6044820152691bdd081cdd58d8d9595960b21b6064820152608401610429565b505050565b606061055f848460008585600080866001600160a01b03168587604051610c1f91906112db565b60006040518083038185875af1925050503d8060008114610c5c576040519150601f19603f3d011682016040523d82523d6000602084013e610c61565b606091505b509150915061051d8783838760608315610cdc578251600003610cd5576001600160a01b0385163b610cd55760405162461bcd60e51b815260206004820152601d60248201527f416464726573733a2063616c6c20746f206e6f6e2d636f6e74726163740000006044820152606401610429565b508161055f565b61055f8383815115610cf15781518083602001fd5b8060405162461bcd60e51b815260040161042991906112f7565b604051806060016040528060008019168152602001600067ffffffffffffffff168152602001610d4e604051806040016040528060008152602001600081525090565b905290565b803563ffffffff81168114610d6757600080fd5b919050565b60008083601f840112610d7e57600080fd5b50813567ffffffffffffffff811115610d9657600080fd5b602083019150836020828501011115610dae57600080fd5b9250929050565b600080600080600060608688031215610dcd57600080fd5b610dd686610d53565b9450602086013567ffffffffffffffff80821115610df357600080fd5b610dff89838a01610d6c565b90965094506040880135915080821115610e1857600080fd5b50610e2588828901610d6c565b969995985093965092949392505050565b600060608284031215610e4857600080fd5b50919050565b6001600160a01b038116811461066357600080fd5b600080600080600080600060e0888a031215610e7e57600080fd5b610e888989610e36565b965060608801359550608088013567ffffffffffffffff80821115610eac57600080fd5b610eb88b838c01610d6c565b909750955060a08a01359150610ecd82610e4e565b90935060c08901359080821115610ee357600080fd5b50610ef08a828b01610d6c565b989b979a50959850939692959293505050565b801515811461066357600080fd5b60008060008060008060808789031215610f2a57600080fd5b610f3387610d53565b9550602087013567ffffffffffffffff80821115610f5057600080fd5b610f5c8a838b01610d6c565b90975095506040890135915080821115610f7557600080fd5b50610f8289828a01610d6c565b9094509250506060870135610f9681610f03565b809150509295509295509295565b60008060408385031215610fb757600080fd5b610fc083610d53565b946020939093013593505050565b60008060008060a08587031215610fe457600080fd5b610fee8686610e36565b9350606085013567ffffffffffffffff81111561100a57600080fd5b61101687828801610d6c565b909450925050608085013561102a81610e4e565b939692955090935050565b60006020828403121561104757600080fd5b61105082610d53565b9392505050565b60006020828403121561106957600080fd5b813561105081610e4e565b60006060828403121561108657600080fd5b6110508383610e36565b63ffffffff85168152606060208201528260608201528284608083013760008184016080908101919091526001600160a01b03929092166040820152601f909201601f19169091010192915050565b60005b838110156110fa5781810151838201526020016110e2565b50506000910152565b6000815180845261111b8160208601602086016110df565b601f01601f19169290920160200192915050565b6040815263ffffffff8351166040820152602083015160608201526000604084015160a0608084015261116560e0840182611103565b90506060850151603f198483030160a08501526111828282611103565b60809690960151151560c08501525050506001600160a01b039190911660209091015290565b6000604082840312156111ba57600080fd5b6040516040810181811067ffffffffffffffff821117156111eb57634e487b7160e01b600052604160045260246000fd5b604052825181526020928301519281019290925250919050565b60006080828403121561121757600080fd5b6040516060810167ffffffffffffffff828210818311171561124957634e487b7160e01b600052604160045260246000fd5b816040528451835260208501519150808216821461126657600080fd5b50602082015261127984604085016111a8565b60408201529392505050565b60006040828403121561129757600080fd5b61105083836111a8565b6000602082840312156112b357600080fd5b815161105081610e4e565b6000602082840312156112d057600080fd5b815161105081610f03565b600082516112ed8184602087016110df565b9190910192915050565b602081526000611050602083018461110356fea26469706673582212208e0d553175eaf3c9e57382e5650677b40b221f34661dbcf466bcb58d10a39d2664736f6c63430008160033",
  "linkReferences": {},
  "deployedLinkReferences": {}
}