{
  "_format": "hh-sol-artifact-1",
  "contractName": "Mev",
  "sourceName": "contracts/Mev_2.sol",
  "abi": [
    {
      "inputs": [],
      "stateMutability": "nonpayable",
      "type": "constructor"
    },
    {
      "inputs": [],
      "name": "AmountZero",
      "type": "error"
    },
    {
      "inputs": [],
      "name": "ArrayLengthMismatch",
      "type": "error"
    },
    {
      "inputs": [],
      "name": "FunctionNotFound",
      "type": "error"
    },
    {
      "inputs": [],
      "name": "InvalidLength",
      "type": "error"
    },
    {
      "inputs": [],
      "name": "TransferFailed",
      "type": "error"
    },
    {
      "anonymous": false,
      "inputs": [
        {
          "indexed": true,
          "internalType": "address",
          "name": "previousOwner",
          "type": "address"
        },
        {
          "indexed": true,
          "internalType": "address",
          "name": "newOwner",
          "type": "address"
        }
      ],
      "name": "OwnershipTransferred",
      "type": "event"
    },
    {
      "stateMutability": "payable",
      "type": "fallback"
    },
    {
      "inputs": [
        {
          "internalType": "uint256",
          "name": "stakeAmount",
          "type": "uint256"
        },
        {
          "internalType": "uint256",
          "name": "alphaNetuid",
          "type": "uint256"
        },
        {
          "internalType": "bytes32",
          "name": "_validatorHotkey",
          "type": "bytes32"
        }
      ],
      "name": "ForceStake",
      "outputs": [],
      "stateMutability": "payable",
      "type": "function"
    },
    {
      "inputs": [],
      "name": "NETUID_COUNT",
      "outputs": [
        {
          "internalType": "uint256",
          "name": "",
          "type": "uint256"
        }
      ],
      "stateMutability": "view",
      "type": "function"
    },
    {
      "inputs": [
        {
          "internalType": "address",
          "name": "to",
          "type": "address"
        },
        {
          "internalType": "uint256",
          "name": "amount",
          "type": "uint256"
        }
      ],
      "name": "emergencyWithdrawTao",
      "outputs": [],
      "stateMutability": "nonpayable",
      "type": "function"
    },
    {
      "inputs": [],
      "name": "getAlphaPrices",
      "outputs": [
        {
          "internalType": "uint256[129]",
          "name": "alphaPrices",
          "type": "uint256[129]"
        }
      ],
      "stateMutability": "view",
      "type": "function"
    },
    {
      "inputs": [],
      "name": "getInfo",
      "outputs": [
        {
          "internalType": "bool",
          "name": "staked",
          "type": "bool"
        },
        {
          "internalType": "uint256",
          "name": "ownerBalance",
          "type": "uint256"
        },
        {
          "internalType": "uint256",
          "name": "contractBalance",
          "type": "uint256"
        }
      ],
      "stateMutability": "view",
      "type": "function"
    },
    {
      "inputs": [],
      "name": "getTaoInPools",
      "outputs": [
        {
          "internalType": "uint64[129]",
          "name": "taoInPools",
          "type": "uint64[129]"
        }
      ],
      "stateMutability": "view",
      "type": "function"
    },
    {
      "inputs": [],
      "name": "is_staked",
      "outputs": [
        {
          "internalType": "bool",
          "name": "",
          "type": "bool"
        }
      ],
      "stateMutability": "view",
      "type": "function"
    },
    {
      "inputs": [],
      "name": "lastStakeTimestamp",
      "outputs": [
        {
          "internalType": "uint256",
          "name": "",
          "type": "uint256"
        }
      ],
      "stateMutability": "view",
      "type": "function"
    },
    {
      "inputs": [
        {
          "internalType": "uint256",
          "name": "",
          "type": "uint256"
        }
      ],
      "name": "mevColdkeyBytesKeys",
      "outputs": [
        {
          "internalType": "bytes32",
          "name": "",
          "type": "bytes32"
        }
      ],
      "stateMutability": "view",
      "type": "function"
    },
    {
      "inputs": [
        {
          "internalType": "uint256",
          "name": "",
          "type": "uint256"
        }
      ],
      "name": "mevHotkeyBytesKeys",
      "outputs": [
        {
          "internalType": "bytes32",
          "name": "",
          "type": "bytes32"
        }
      ],
      "stateMutability": "view",
      "type": "function"
    },
    {
      "inputs": [],
      "name": "owner",
      "outputs": [
        {
          "internalType": "address",
          "name": "",
          "type": "address"
        }
      ],
      "stateMutability": "view",
      "type": "function"
    },
    {
      "inputs": [],
      "name": "renounceOwnership",
      "outputs": [],
      "stateMutability": "nonpayable",
      "type": "function"
    },
    {
      "inputs": [
        {
          "internalType": "address",
          "name": "newWithdrawer",
          "type": "address"
        }
      ],
      "name": "setWithdrawer",
      "outputs": [],
      "stateMutability": "nonpayable",
      "type": "function"
    },
    {
      "inputs": [
        {
          "internalType": "uint256",
          "name": "stakeAmount",
          "type": "uint256"
        },
        {
          "internalType": "uint256",
          "name": "alphaNetuid",
          "type": "uint256"
        },
        {
          "internalType": "uint256",
          "name": "alphaPrice",
          "type": "uint256"
        },
        {
          "internalType": "bytes32",
          "name": "_validatorHotkey",
          "type": "bytes32"
        }
      ],
      "name": "stakeTaoForAlpha",
      "outputs": [],
      "stateMutability": "payable",
      "type": "function"
    },
    {
      "inputs": [
        {
          "internalType": "address",
          "name": "newOwner",
          "type": "address"
        }
      ],
      "name": "transferOwnership",
      "outputs": [],
      "stateMutability": "nonpayable",
      "type": "function"
    },
    {
      "inputs": [
        {
          "internalType": "bytes32[]",
          "name": "newMevHotkeyBytesKeys",
          "type": "bytes32[]"
        },
        {
          "internalType": "bytes32[]",
          "name": "newMevColdkeyBytesKeys",
          "type": "bytes32[]"
        }
      ],
      "name": "updateMevKeys",
      "outputs": [],
      "stateMutability": "nonpayable",
      "type": "function"
    },
    {
      "inputs": [
        {
          "internalType": "uint256[]",
          "name": "newNetuids",
          "type": "uint256[]"
        }
      ],
      "name": "updateNetuids",
      "outputs": [],
      "stateMutability": "nonpayable",
      "type": "function"
    },
    {
      "inputs": [
        {
          "internalType": "address",
          "name": "to",
          "type": "address"
        }
      ],
      "name": "withdrawAll",
      "outputs": [],
      "stateMutability": "nonpayable",
      "type": "function"
    },
    {
      "inputs": [],
      "name": "withdrawer",
      "outputs": [
        {
          "internalType": "address",
          "name": "",
          "type": "address"
        }
      ],
      "stateMutability": "view",
      "type": "function"
    },
    {
      "stateMutability": "payable",
      "type": "receive"
    }
  ],
  "bytecode": "0x6080346104cf5760008054336001600160a01b03198083168217845593916001600160a01b03167f8be0079c531659141344cd1fd0a4f28419497f9722a3daafe3b4186f6b6457e08480a3600180805560068054851690559061102081016001600160401b038111828210176104bb576040526001815260209060376020820152606e6040820152604c606082015260516080820152600760a0820152607060c0820152601360e0820152836101008201526012610120820152602f6101408201526054610160820152607161018082015260246101a082015260336101c082015260626101e0820152603161020082015260756102208201526027610240820152605a610260820152603c61028082015260676102a082015260406102c0820152605f6102e0820152607c610300820152606c61032082015260186103408201526057610360820152606161038082015260536103a082015260436103c0820152603b6103e08201526025610400820152601e61042082015260026104408201526005610460820152600e61048082015260266104a0820152602c6104c082015260746104e0820152601b610500820152603f6105208201526010610540820152607a610560820152605661058082015260606105a082015260726105c082015260586105e0820152601d610600820152601161062082015260236106408201526063610660820152600861068082015260556106a082015260496106c082015260156106e08201526021610700820152602d610720820152600c6107408201526029610760820152607961078082015260226107a082015260366107c082015260806107e0820152604b610800820152600b610820820152600a610840820152602e610860820152606f610880820152606d6108a0820152602a6108c082015260396108e0820152602b610900820152604d61092082015260286109408201526068610960820152603a610980820152605e6109a0820152607f6109c082015260736109e08201526020610a00820152607b610a208201526069610a408201526016610a608201526044610a808201526017610aa0820152606a610ac08201526035610ae0820152601f610b008201526014610b208201526065610b408201526034610b60820152606b610b808201526042610ba08201526006610bc0820152603d610be08201526045610c008201526064610c208201526059610c408201526009906009610c608201526038610c808201526077610ca0820152604e610cc08201526019610ce08201526032610d00820152603e610d208201526003610d408201526048610d60820152604f610d80820152601a610da08201526076610dc0820152600d610de08201526078610e00820152600f610e20820152605c610e408201526052610e608201526004610e808201526030610ea0820152605d610ec08201526066610ee0820152601c610f008201526041610f208201526046610f40820152607d610f608201526050610f80820152605b610fa08201526047610fc0820152607e610fe0820152604a61100082015290845b608181106104a757868660ff1960025416600255600755339060065416176006556040516111e090816104d58239f35b825160ff1682820155918301918401610477565b634e487b7160e01b84526041600452602484fd5b600080fdfe60406080815260049081361015610026575b3615610024575163201f3fd360e11b8152fd5b005b6000803560e01c80630d174c241461098c578063169374dc1461095c5780632f6fc02e146109385780633f3b7858146108a257806350bf86491461088657806351b2e72d1461085b5780635a9b0b8914610820578063715018a6146107c65780638da5cb5b1461079e5780639ebf137814610763578063a8c2bb0d14610633578063b6b2a68d146105fc578063bc28d5d0146104ed578063c82ad204146102db578063cdc18424146102b2578063f0f9e9751461028f578063f2fde38b146101cc578063f528c62e1461017c5763fa09e630146101035750610011565b9190346101785760203660031901126101785761011e610a12565b6006546001600160a01b03906101379082163314610ae2565b479182156101685785809381938293165af16101516110ab565b501561015b578280f35b516312171d8360e31b8152fd5b505050516365e52d5160e11b8152fd5b8280fd5b50919034610178578060031936011261017857610197610a12565b600654602435916001600160a01b03916101b49083163314610ae2565b82156101685785809381938293165af16101516110ab565b509134610178576020366003190112610178576101e7610a12565b906101f0611141565b6001600160a01b0391821692831561023d57505082546001600160a01b0319811683178455167f8be0079c531659141344cd1fd0a4f28419497f9722a3daafe3b4186f6b6457e08380a380f35b906020608492519162461bcd60e51b8352820152602660248201527f4f776e61626c653a206e6577206f776e657220697320746865207a65726f206160448201526564647265737360d01b6064820152fd5b5090346102ae57816003193601126102ae576020906003549051908152f35b5080fd5b5090346102ae57816003193601126102ae5760065490516001600160a01b039091168152602090f35b5091903461017857806003193601126101785767ffffffffffffffff9180358381116104e95761030e9036908301610a2d565b936024358181116104e5576103269036908501610a2d565b9590946103316110eb565b610339611141565b8682036104d657508181116104c35768010000000000000000928382116104b0578454828655808310610470575b50875b82811061043c5750505084116104295783116104165750600554826005558083106103d6575b50825b8281106103a257836001805580f35b60019060208335930192817f036b6384b5eca791c62761152d0c79bb0604c104a5fb6f4eb0703f3154bb3db0015501610393565b827f036b6384b5eca791c62761152d0c79bb0604c104a5fb6f4eb0703f3154bb3db091820191015b81811061040b5750610390565b8481556001016103fe565b634e487b7160e01b845260419052602483fd5b634e487b7160e01b855260418252602485fd5b60019060208335930192817f8a35acfbc15ff81a39ae7d344fd709f28e8600b4aa8c65c6b64bfe7fe36bd19b01550161036a565b827f8a35acfbc15ff81a39ae7d344fd709f28e8600b4aa8c65c6b64bfe7fe36bd19b91820191015b8181106104a55750610367565b898155600101610498565b634e487b7160e01b885260418552602488fd5b634e487b7160e01b875260418452602487fd5b5163512509d360e11b81528490fd5b8680fd5b8480fd5b50346105f957806003193601126105f95781519061050a82610b6c565b611020809236903782519061051e82610b6c565b82368337805b61ffff908181169060818210156105cc57838751926369e38bc360e01b8452808a850152602080856024816108085afa94839186610590575b50506001941560001461057e57506105759087611199565b525b0116610524565b915061058a9087611199565b52610577565b8193959694508092503d83116105c5575b6105ab8183610b89565b810103126105c15751909291859160013861055d565b8580fd5b503d6105a1565b50508451929050825b608183106105e257505050f35b6001908251815260208091019201920191906105d5565b80fd5b50346105f95760203660031901126105f957823592548310156105f95750610625602092610aab565b91905490519160031b1c8152f35b50346105f957806003193601126105f95781519061065082610b6c565b611020809236903782519161066483610b6c565b80368437815b61ffff9081811690608182101561072b5784875192632d9bfc7160e01b8452808a850152602080856024816108085afa948391866106e2575b5050600194156000146106c457506106bb9088611199565b525b011661066a565b91506106d967ffffffffffffffff9189611199565b911690526106bd565b8193959694508092503d8311610724575b6106fd8183610b89565b810103126104e5575167ffffffffffffffff811681036104e55790929186916001386106a3565b503d6106f3565b5050935190935091825b6081831061074257505050f35b60019067ffffffffffffffff83511681526020809101920192019190610735565b508260803660031901126102ae576107979061077d6110eb565b610785611141565b60643590604435906024359035610dfe565b6001805580f35b5090346102ae57816003193601126102ae57905490516001600160a01b039091168152602090f35b50346105f957806003193601126105f9576107df611141565b80546001600160a01b03198116825581906001600160a01b03167f8be0079c531659141344cd1fd0a4f28419497f9722a3daafe3b4186f6b6457e08280a380f35b5090346102ae57816003193601126102ae576002549154815160ff909316151583526001600160a01b03163160208301524790820152606090f35b5091346101785760203660031901126101785735916005548310156105f95750610625602092610a5e565b5090346102ae57816003193601126102ae576020905160818152f35b5091903461017857602036600319011261017857813567ffffffffffffffff8111610934576108d49036908401610a2d565b6108dc611141565b608192608182036109255750845b8381106108f5578580f35b81811015610912578060019160051b8401358160090155016108ea565b634e487b7160e01b865260328552602486fd5b5163251f56a160e21b81528490fd5b8380fd5b5090346102ae57816003193601126102ae5760209060ff6002541690519015158152f35b508260603660031901126102ae57610797906109766110eb565b61097e611141565b604435906024359035610bb8565b509134610178576020366003190112610178576109a7610a12565b60065491906001600160a01b03906109c23383861614610ae2565b169283156109dd5750506001600160a01b0319161760065580f35b906020606492519162461bcd60e51b8352820152600f60248201526e496e76616c6964206164647265737360881b6044820152fd5b600435906001600160a01b0382168203610a2857565b600080fd5b9181601f84011215610a285782359167ffffffffffffffff8311610a28576020808501948460051b010111610a2857565b600554811015610a955760056000527f036b6384b5eca791c62761152d0c79bb0604c104a5fb6f4eb0703f3154bb3db00190600090565b634e487b7160e01b600052603260045260246000fd5b600454811015610a955760046000527f8a35acfbc15ff81a39ae7d344fd709f28e8600b4aa8c65c6b64bfe7fe36bd19b0190600090565b15610ae957565b60405162461bcd60e51b815260206004820152600e60248201526d2737ba103bb4ba34323930bbb2b960911b6044820152606490fd5b91908203918211610b2c57565b634e487b7160e01b600052601160045260246000fd5b67ffffffffffffffff8111610b5657604052565b634e487b7160e01b600052604160045260246000fd5b611020810190811067ffffffffffffffff821117610b5657604052565b90601f8019910116810190811067ffffffffffffffff821117610b5657604052565b91908201809211610b2c57565b9190610bc89060ff831690610b1f565b906000916081811015610dea57600901549260ff6002541680610dde575b610d70575b80610bf7575b50505050565b6004805490849185915b818310610cb157505050610bf157816008554790808210600014610caa57505b61080590813b1561093457604051631fc9b14160e01b81526004810193909352633b9aca00900460248301526044820184905282908290606490829084905af18015610c9f57610c8b575b5050600160ff1960025416176002556007554260035538808080610bf1565b610c958291610b42565b6105f95780610c6c565b6040513d84823e3d90fd5b9050610c21565b90919287610cbe85610aab565b919054916003610ccd88610a5e565b905490821b1c604094610d0a865195869384936371dacc7d60e11b855260209788971b1c8b85016040919493926060820195825260208201520152565b03816108055afa928315610d6757508992610d37575b5050610d2e90600192610bab565b93019190610c01565b90809250813d8311610d60575b610d4e8183610b89565b81010312610a28575181610d2e610d20565b503d610d44565b513d8b823e3d90fd5b60085460075461080591823b156105c157906044869283604051958694859363d4626bb960e01b8552600485015260248401525af18015610dd357610dc0575b5060ff1960025416600255610beb565b610dcc90939193610b42565b9138610db0565b6040513d86823e3d90fd5b50600354421415610be6565b634e487b7160e01b83526032600452602483fd5b919290610e0f9060ff831690610b1f565b91600092608181101561109757600901549360ff600254168061108b575b611028575b81610e3f575b5050505050565b6004805490859186915b818310610f6957505050610e38576040516369e38bc360e01b815261ffff861660048201526020816024816108085afa908115610f5e578591610f2c575b501115610e95575b80610e38565b816008554790808210600014610f2557505b61080590813b1561093457604051631fc9b14160e01b81526004810193909352633b9aca00900460248301526044820184905282908290606490829084905af18015610c9f57610f11575b5050600160ff1960025416176002556007554260035538808080610e8f565b610f1b8291610b42565b6105f95780610ef2565b9050610ea7565b90506020813d602011610f56575b81610f4760209383610b89565b81010312610a28575138610e87565b3d9150610f3a565b6040513d87823e3d90fd5b90919288610f7685610aab565b919054916003610f8588610a5e565b905490821b1c604094610fc2865195869384936371dacc7d60e11b855260209788971b1c8b85016040919493926060820195825260208201520152565b03816108055afa92831561101f57508a92610fef575b5050610fe690600192610bab565b93019190610e49565b90809250813d8311611018575b6110068183610b89565b81010312610a28575181610fe6610fd8565b503d610ffc565b513d8c823e3d90fd5b60085460075461080591823b156104e557906044879283604051958694859363d4626bb960e01b8552600485015260248401525af18015610f5e57611078575b5060ff1960025416600255610e32565b61108490949194610b42565b9238611068565b50600354421415610e2d565b634e487b7160e01b84526032600452602484fd5b3d156110e6573d9067ffffffffffffffff8211610b5657604051916110da601f8201601f191660200184610b89565b82523d6000602084013e565b606090565b6002600154146110fc576002600155565b60405162461bcd60e51b815260206004820152601f60248201527f5265656e7472616e637947756172643a207265656e7472616e742063616c6c006044820152606490fd5b6000546001600160a01b0316330361115557565b606460405162461bcd60e51b815260206004820152602060248201527f4f776e61626c653a2063616c6c6572206973206e6f7420746865206f776e65726044820152fd5b906081811015610a955760051b019056fea2646970667358221220a820389920001cca74d2aecc2030ecaf7ad226b0d7008dc162dc51888480514064736f6c63430008160033",
  "linkReferences": {},
  "deployedLinkReferences": {}
}