{
  "_format": "hh-sol-artifact-1",
  "contractName": "TradingV8_1",
  "sourceName": "contracts/TradingV8_1.sol",
  "abi": [
    {
      "inputs": [],
      "stateMutability": "nonpayable",
      "type": "constructor"
    },
    {
      "inputs": [],
      "name": "AmountZero",
      "type": "error"
    },
    {
      "inputs": [],
      "name": "InvalidAddress",
      "type": "error"
    },
    {
      "inputs": [],
      "name": "NotOwner",
      "type": "error"
    },
    {
      "inputs": [],
      "name": "NotWithdrawer",
      "type": "error"
    },
    {
      "inputs": [],
      "name": "NotWithdrawerOrOwner",
      "type": "error"
    },
    {
      "inputs": [],
      "name": "TransferFailed",
      "type": "error"
    },
    {
      "inputs": [],
      "name": "DELEGATOR_BYTES_KEY",
      "outputs": [
        {
          "internalType": "bytes32",
          "name": "",
          "type": "bytes32"
        }
      ],
      "stateMutability": "view",
      "type": "function"
    },
    {
      "inputs": [
        {
          "internalType": "bytes32",
          "name": "destination_coldkey",
          "type": "bytes32"
        },
        {
          "internalType": "bytes32",
          "name": "origin_coldkey",
          "type": "bytes32"
        }
      ],
      "name": "moveStakeAll",
      "outputs": [],
      "stateMutability": "nonpayable",
      "type": "function"
    },
    {
      "inputs": [],
      "name": "owner",
      "outputs": [
        {
          "internalType": "address",
          "name": "",
          "type": "address"
        }
      ],
      "stateMutability": "view",
      "type": "function"
    },
    {
      "inputs": [
        {
          "internalType": "uint256",
          "name": "netuid",
          "type": "uint256"
        },
        {
          "internalType": "uint256",
          "name": "amount",
          "type": "uint256"
        }
      ],
      "name": "removeStake",
      "outputs": [],
      "stateMutability": "nonpayable",
      "type": "function"
    },
    {
      "inputs": [
        {
          "internalType": "address",
          "name": "newWithdrawer",
          "type": "address"
        },
        {
          "internalType": "bytes32",
          "name": "newDelegatorColdkey",
          "type": "bytes32"
        }
      ],
      "name": "setConfig",
      "outputs": [],
      "stateMutability": "nonpayable",
      "type": "function"
    },
    {
      "inputs": [],
      "name": "withdrawAll",
      "outputs": [],
      "stateMutability": "nonpayable",
      "type": "function"
    },
    {
      "inputs": [],
      "name": "withdrawer",
      "outputs": [
        {
          "internalType": "address",
          "name": "",
          "type": "address"
        }
      ],
      "stateMutability": "view",
      "type": "function"
    }
  ],
  "bytecode": "0x608060405234801561001057600080fd5b506001600081905580546001600160a01b0319908116339081179092556003805490911690911790556105db806100486000396000f3fe608060405234801561001057600080fd5b506004361061007d5760003560e01c80638da5cb5b1161005b5780638da5cb5b146100b2578063cdc18424146100e2578063f4f1726b146100f5578063fcd1a8d61461010857600080fd5b8063057c71b0146100825780632d67f0b914610097578063853828b6146100aa575b600080fd5b610095610090366004610512565b61012b565b005b6100956100a5366004610512565b610287565b61009561035c565b6003546100c5906001600160a01b031681565b6040516001600160a01b0390911681526020015b60405180910390f35b6001546100c5906001600160a01b031681565b610095610103366004610534565b610434565b61011d60008051602061058683398151915281565b6040519081526020016100d9565b6101336104b5565b6001546001600160a01b0316331461015e57604051632d99bc8360e21b815260040160405180910390fd5b60015b6081811015610278576040516371dacc7d60e11b8152600080516020610586833981519152600482015260248101839052604481018290526000906108059063e3b598fa90606401602060405180830381865afa1580156101c6573d6000803e3d6000fd5b505050506040513d601f19601f820116820180604052508101906101ea919061056c565b9050801561026f57604051630be72fb160e11b8152600481018590526000805160206105868339815191526024820152604481018390526064810183905260848101829052610805906317ce5f629060a401600060405180830381600087803b15801561025657600080fd5b505af115801561026a573d6000803e3d6000fd5b505050505b50600101610161565b506102836001600055565b5050565b61028f6104b5565b6001546001600160a01b031633148015906102b557506003546001600160a01b03163314155b156102d25760405162bd99e760e11b815260040160405180910390fd5b600254604051630be72fb160e11b815260048101919091526000805160206105868339815191526024820152604481018390526000606482015260848101829052610805906317ce5f629060a401600060405180830381600087803b15801561033a57600080fd5b505af115801561034e573d6000803e3d6000fd5b505050506102836001600055565b6103646104b5565b6003546001600160a01b0316331461038f576040516330cd747160e01b815260040160405180910390fd5b4760008190036103b2576040516365e52d5160e11b815260040160405180910390fd5b6001546040516000916001600160a01b03169083908381818185875af1925050503d80600081146103ff576040519150601f19603f3d011682016040523d82523d6000602084013e610404565b606091505b5050905080610426576040516312171d8360e31b815260040160405180910390fd5b50506104326001600055565b565b61043c6104b5565b6001546001600160a01b0316331461046757604051632d99bc8360e21b815260040160405180910390fd5b6001600160a01b03821661048e5760405163e6c4247b60e01b815260040160405180910390fd5b600180546001600160a01b0319166001600160a01b03841617815560028290556000555050565b60026000540361050b5760405162461bcd60e51b815260206004820152601f60248201527f5265656e7472616e637947756172643a207265656e7472616e742063616c6c00604482015260640160405180910390fd5b6002600055565b6000806040838503121561052557600080fd5b50508035926020909101359150565b6000806040838503121561054757600080fd5b82356001600160a01b038116811461055e57600080fd5b946020939093013593505050565b60006020828403121561057e57600080fd5b505191905056feb4c087119097fbe3985298eef52f35ef6271c48322a8c2d430902a9cc38d9473a26469706673582212203ec122898466017cec4095f615b5cdbaf77fd3d575af3074b610b06b152e09a564736f6c63430008160033",
  "linkReferences": {},
  "deployedLinkReferences": {}
}