{
  "_format": "hh-sol-artifact-1",
  "contractName": "TradingV8_1",
  "sourceName": "contracts/TradingV8_1.sol",
  "abi": [
    {
      "inputs": [],
      "stateMutability": "nonpayable",
      "type": "constructor"
    },
    {
      "inputs": [],
      "name": "AmountZero",
      "type": "error"
    },
    {
      "inputs": [],
      "name": "InvalidAddress",
      "type": "error"
    },
    {
      "inputs": [],
      "name": "NotOwner",
      "type": "error"
    },
    {
      "inputs": [],
      "name": "NotWithdrawer",
      "type": "error"
    },
    {
      "inputs": [],
      "name": "NotWithdrawerOrOwner",
      "type": "error"
    },
    {
      "inputs": [],
      "name": "TransferFailed",
      "type": "error"
    },
    {
      "inputs": [],
      "name": "DELEGATOR_BYTES_KEY",
      "outputs": [
        {
          "internalType": "bytes32",
          "name": "",
          "type": "bytes32"
        }
      ],
      "stateMutability": "view",
      "type": "function"
    },
    {
      "inputs": [
        {
          "internalType": "bytes32",
          "name": "destination_coldkey",
          "type": "bytes32"
        },
        {
          "internalType": "bytes32",
          "name": "origin_coldkey",
          "type": "bytes32"
        }
      ],
      "name": "moveStakeAll",
      "outputs": [],
      "stateMutability": "nonpayable",
      "type": "function"
    },
    {
      "inputs": [],
      "name": "owner",
      "outputs": [
        {
          "internalType": "address",
          "name": "",
          "type": "address"
        }
      ],
      "stateMutability": "view",
      "type": "function"
    },
    {
      "inputs": [
        {
          "internalType": "uint256",
          "name": "netuid",
          "type": "uint256"
        },
        {
          "internalType": "uint256",
          "name": "amount",
          "type": "uint256"
        }
      ],
      "name": "removeStake",
      "outputs": [],
      "stateMutability": "nonpayable",
      "type": "function"
    },
    {
      "inputs": [
        {
          "internalType": "address",
          "name": "newWithdrawer",
          "type": "address"
        },
        {
          "internalType": "bytes32",
          "name": "newDelegatorColdkey",
          "type": "bytes32"
        }
      ],
      "name": "setConfig",
      "outputs": [],
      "stateMutability": "nonpayable",
      "type": "function"
    },
    {
      "inputs": [],
      "name": "withdrawAll",
      "outputs": [],
      "stateMutability": "nonpayable",
      "type": "function"
    },
    {
      "inputs": [],
      "name": "withdrawer",
      "outputs": [
        {
          "internalType": "address",
          "name": "",
          "type": "address"
        }
      ],
      "stateMutability": "view",
      "type": "function"
    }
  ],
  "bytecode": "0x6080806040523461003757600160005560018060a01b031933816001541617600155339060035416176003556105a0908161003d8239f35b600080fdfe6040608081526004908136101561001557600080fd5b600091823560e01c908163057c71b0146103315781632d67f0b91461024c578163853828b6146101835781638da5cb5b1461015a578163cdc1842414610131578163f4f1726b146100ad575063fcd1a8d61461007057600080fd5b346100a957816003193601126100a957602090517fb4c087119097fbe3985298eef52f35ef6271c48322a8c2d430902a9cc38d94738152f35b5080fd5b9190503461012d578060031936011261012d576001600160a01b03823581811693919290849003610129576100e0610514565b600154928316330361011c57831561010f5750506001600160a01b031916176001908155602435600255815580f35b5163e6c4247b60e01b8152fd5b51632d99bc8360e21b8152fd5b8480fd5b8280fd5b5050346100a957816003193601126100a95760015490516001600160a01b039091168152602090f35b5050346100a957816003193601126100a95760035490516001600160a01b039091168152602090f35b9190503461012d578260031936011261012d5761019e610514565b6003546001600160a01b03908116330361023e574790811561022f57848080938193600154165af13d1561022a573d67ffffffffffffffff8111610217578251906101f3601f8201601f1916602001836104f2565b81528460203d92013e5b1561020a57826001815580f35b516312171d8360e31b8152fd5b634e487b7160e01b855260418452602485fd5b6101fd565b5050516365e52d5160e11b8152fd5b50516330cd747160e01b8152fd5b9190503461012d578060031936011261012d57610267610514565b600154336001600160a01b0391821614159081610322575b5061031657826002549261080593843b1561012d5760a4908385519687948593630be72fb160e11b8552818501527fb4c087119097fbe3985298eef52f35ef6271c48322a8c2d430902a9cc38d9473602485015235604484015281606484015260243560848401525af190811561030d57506102fe575b506001815580f35b610307906104c8565b386102f6565b513d84823e3d90fd5b5162bd99e760e11b8152fd5b9050600354163314153861027f565b9190503461012d578060031936011261012d5760248035918335610353610514565b600180549095906001600160a01b031633036104ba5794939291906001955b6081871061038257876001815580f35b8251966371dacc7d60e11b88527fb4c087119097fbe3985298eef52f35ef6271c48322a8c2d430902a9cc38d947380838a015286868a015289604499838b82015260209a6064610805948d848381895afa9384156104b0578d9e869e999a9b9c9d9e95610479575b505083610406575b505050505050019493929190959495610372565b9091929394809697503b15610129578a958994888a948160a4978f968b97519c8d9b8c9a630be72fb160e11b8c528b015289015287015285015260848401525af1801561046f5790889291610460575b89818080806103f2565b610469906104c8565b38610456565b85513d8b823e3d90fd5b819950809295503d83116104a9575b61049281836104f2565b810103126104a5578c96519238806103ea565b8380fd5b503d610488565b8a513d87823e3d90fd5b8251632d99bc8360e21b8152fd5b67ffffffffffffffff81116104dc57604052565b634e487b7160e01b600052604160045260246000fd5b90601f8019910116810190811067ffffffffffffffff8211176104dc57604052565b600260005414610525576002600055565b60405162461bcd60e51b815260206004820152601f60248201527f5265656e7472616e637947756172643a207265656e7472616e742063616c6c006044820152606490fdfea2646970667358221220effc326ff33a8605351299be9e89fe5a3be6e50e19671e075b9d119222ff790c64736f6c63430008160033",
  "linkReferences": {},
  "deployedLinkReferences": {}
}