{
  "_format": "hh-sol-artifact-1",
  "contractName": "Proxy",
  "sourceName": "contracts/Proxy.sol",
  "abi": [
    {
      "inputs": [],
      "stateMutability": "nonpayable",
      "type": "constructor"
    },
    {
      "inputs": [],
      "name": "REAL_COLDKEY",
      "outputs": [
        {
          "internalType": "bytes32",
          "name": "",
          "type": "bytes32"
        }
      ],
      "stateMutability": "view",
      "type": "function"
    },
    {
      "inputs": [],
      "name": "callData",
      "outputs": [
        {
          "internalType": "bytes",
          "name": "",
          "type": "bytes"
        }
      ],
      "stateMutability": "view",
      "type": "function"
    },
    {
      "inputs": [],
      "name": "delegatorId",
      "outputs": [
        {
          "internalType": "bytes32",
          "name": "",
          "type": "bytes32"
        }
      ],
      "stateMutability": "view",
      "type": "function"
    },
    {
      "inputs": [],
      "name": "execute",
      "outputs": [],
      "stateMutability": "nonpayable",
      "type": "function"
    },
    {
      "inputs": [],
      "name": "owner",
      "outputs": [
        {
          "internalType": "address",
          "name": "",
          "type": "address"
        }
      ],
      "stateMutability": "view",
      "type": "function"
    },
    {
      "inputs": [],
      "name": "transfer",
      "outputs": [],
      "stateMutability": "payable",
      "type": "function"
    },
    {
      "inputs": [],
      "name": "uid0",
      "outputs": [
        {
          "internalType": "uint256",
          "name": "",
          "type": "uint256"
        }
      ],
      "stateMutability": "view",
      "type": "function"
    },
    {
      "inputs": [],
      "name": "uid1",
      "outputs": [
        {
          "internalType": "uint256",
          "name": "",
          "type": "uint256"
        }
      ],
      "stateMutability": "view",
      "type": "function"
    }
  ],
  "bytecode": "0x60c060405234801561001057600080fd5b50600160005560405163024a66cd60e11b815230600482015261080c90630494cd9a90602401602060405180830381865afa158015610053573d6000803e3d6000fd5b505050506040513d601f19601f820116820180604052508101906100779190610133565b60808190523360a0526100ab907f2636ad834cd47318572033620d50377260a54fc64e5f150896186b2bafda7454906100be565b6003906100b890826101ed565b506102ac565b60408051604980825260808201909252606091602082018180368337019050509050602081016010815360006001820153600060028201538360038201526001602382015360006024820153600560258201536004602682015360006027820153826028820152600060488201535092915050565b60006020828403121561014557600080fd5b5051919050565b634e487b7160e01b600052604160045260246000fd5b600181811c9082168061017657607f821691505b60208210810361019657634e487b7160e01b600052602260045260246000fd5b50919050565b601f8211156101e8576000816000526020600020601f850160051c810160208610156101c55750805b601f850160051c820191505b818110156101e4578281556001016101d1565b5050505b505050565b81516001600160401b038111156102065761020661014c565b61021a816102148454610162565b8461019c565b602080601f83116001811461024f57600084156102375750858301515b600019600386901b1c1916600185901b1785556101e4565b600085815260208120601f198616915b8281101561027e5788860151825594840194600190910190840161025f565b508582101561029c5787850151600019600388901b60f8161c191681555b5050505050600190811b01905550565b60805160a0516105b56102de60003960008181610152015261023b01526000818160bb015261027e01526105b56000f3fe60806040526004361061007b5760003560e01c8063614619541161004e57806361461954146101215780638a4068dd146101385780638da5cb5b14610140578063e7d754ef1461018c57600080fd5b8063112fcfd91461008057806344a537f5146100a95780634e417a98146100dd578063565dea95146100ff575b600080fd5b34801561008c57600080fd5b5061009660025481565b6040519081526020015b60405180910390f35b3480156100b557600080fd5b506100967f000000000000000000000000000000000000000000000000000000000000000081565b3480156100e957600080fd5b506100f26101a2565b6040516100a091906104af565b34801561010b57600080fd5b5061009660008051602061056083398151915281565b34801561012d57600080fd5b50610136610230565b005b6101366103b2565b34801561014c57600080fd5b506101747f000000000000000000000000000000000000000000000000000000000000000081565b6040516001600160a01b0390911681526020016100a0565b34801561019857600080fd5b5061009660015481565b600380546101af906104e2565b80601f01602080910402602001604051908101604052809291908181526020018280546101db906104e2565b80156102285780601f106101fd57610100808354040283529160200191610228565b820191906000526020600020905b81548152906001019060200180831161020b57829003601f168201915b505050505081565b336001600160a01b037f0000000000000000000000000000000000000000000000000000000000000000161461026557600080fd5b47600060066102a26000805160206105608339815191527f0000000000000000000000000000000000000000000000000000000000000000610416565b6040516102af919061051c565b6000604051808303816000865af19150503d80600081146102ec576040519150601f19603f3d011682016040523d82523d6000602084013e6102f1565b606091505b50509050806102ff57600080fd5b60006103138367016345785d8a0000610538565b90504781810361032257600080fd5b607f62024c5619633b9aca008385030401908116600155600781901c60025560405163cd6f4eb160e01b815260008051602061056083398151915260048201526108009063cd6f4eb19067016345785d8a0000906024016000604051808303818588803b15801561039257600080fd5b505af11580156103a6573d6000803e3d6000fd5b50505050505050505050565b60405163cd6f4eb160e01b815260008051602061056083398151915260048201526108009063cd6f4eb19047906024016000604051808303818588803b1580156103fb57600080fd5b505af115801561040f573d6000803e3d6000fd5b5050505050565b60408051604980825260808201909252606091602082018180368337019050509050602081016010815360006001820153600060028201538360038201526001602382015360006024820153600560258201536004602682015360006027820153826028820152600060488201535092915050565b60005b838110156104a657818101518382015260200161048e565b50506000910152565b60208152600082518060208401526104ce81604085016020870161048b565b601f01601f19169190910160400192915050565b600181811c908216806104f657607f821691505b60208210810361051657634e487b7160e01b600052602260045260246000fd5b50919050565b6000825161052e81846020870161048b565b9190910192915050565b8082018082111561055957634e487b7160e01b600052601160045260246000fd5b9291505056fe2636ad834cd47318572033620d50377260a54fc64e5f150896186b2bafda7454a264697066735822122098a975e6226db14ba0f0aa5a008134b35db54f8e0f5c2b48e97a17259dfa0c5a64736f6c63430008160033",
  "linkReferences": {},
  "deployedLinkReferences": {}
}