{
  "_format": "hh-sol-artifact-1",
  "contractName": "Proxy",
  "sourceName": "contracts/Proxy.sol",
  "abi": [
    {
      "inputs": [],
      "stateMutability": "nonpayable",
      "type": "constructor"
    },
    {
      "inputs": [],
      "name": "REAL_COLDKEY",
      "outputs": [
        {
          "internalType": "bytes32",
          "name": "",
          "type": "bytes32"
        }
      ],
      "stateMutability": "view",
      "type": "function"
    },
    {
      "inputs": [],
      "name": "delegatorId",
      "outputs": [
        {
          "internalType": "bytes32",
          "name": "",
          "type": "bytes32"
        }
      ],
      "stateMutability": "view",
      "type": "function"
    },
    {
      "inputs": [],
      "name": "execute",
      "outputs": [],
      "stateMutability": "nonpayable",
      "type": "function"
    },
    {
      "inputs": [],
      "name": "owner",
      "outputs": [
        {
          "internalType": "address",
          "name": "",
          "type": "address"
        }
      ],
      "stateMutability": "view",
      "type": "function"
    },
    {
      "inputs": [],
      "name": "transfer",
      "outputs": [],
      "stateMutability": "payable",
      "type": "function"
    },
    {
      "inputs": [],
      "name": "uid0",
      "outputs": [
        {
          "internalType": "uint256",
          "name": "",
          "type": "uint256"
        }
      ],
      "stateMutability": "view",
      "type": "function"
    },
    {
      "inputs": [],
      "name": "uid1",
      "outputs": [
        {
          "internalType": "uint256",
          "name": "",
          "type": "uint256"
        }
      ],
      "stateMutability": "view",
      "type": "function"
    }
  ],
  "bytecode": "0x60c080604052346100de576001600090815563024a66cd60e11b82523060048301529060208160248161080c5afa9182156100d2578092610071575b826080523360a05260405161046690816100e4823960805181818161022801526103c7015260a05181818160a901526101740152f35b90915060203d6020116100cb575b601f8101601f191683016001600160401b038111848210176100b7576020918491604052810103126100b4575051388061003b565b80fd5b634e487b7160e01b83526041600452602483fd5b503d61007f565b604051903d90823e3d90fd5b600080fdfe608060408181526004918236101561001657600080fd5b60008093813560e01c928363112fcfd9146103ea5750826344a537f5146103af578263565dea951461037457826361461954146101615782638a4068dd146100d857505080638da5cb5b146100955763e7d754ef1461007457600080fd5b346100915781600319360112610091576020906001549051908152f35b5080fd5b5034610091578160031936011261009157517f00000000000000000000000000000000000000000000000000000000000000006001600160a01b03168152602090f35b9150918260031936011261015d574761080092833b156101595760247f2636ad834cd47318572033620d50377260a54fc64e5f150896186b2bafda74549186938551968794859363cd6f4eb160e01b85528401525af1908115610150575061013d5750f35b61014690610406565b61014d5780f35b80fd5b513d84823e3d90fd5b8480fd5b5050fd5b83346103705782600319360112610370577f00000000000000000000000000000000000000000000000000000000000000006001600160a01b031633036103705780514767ffffffffffffffff608083018181118482101761035d578452604983528580602085016060368237601081538160218701538160228701537f2636ad834cd47318572033620d50377260a54fc64e5f150896186b2bafda74549586602382015260016043820153826044820153600560458201538860468201538260478201537f0000000000000000000000000000000000000000000000000000000000000000604882015282606882015351908260065af1903d15610357573d81811161034457855191601f8201601f19908116603f011683019081118382101761033157865281528660203d92013e5b156101595767016345785d8a00009080820180831161031e578693929190479081036102bc578480fd5b82633b9aca009162024c56199303010401607f811660015560071c60025561080094853b1561031a576024918551968794859363cd6f4eb160e01b85528401525af1908115610150575061030e575080f35b61031790610406565b80f35b8380fd5b634e487b7160e01b875260118652602487fd5b634e487b7160e01b895260418852602489fd5b634e487b7160e01b885260418752602488fd5b50610292565b634e487b7160e01b875260418652602487fd5b8280fd5b508234610091578160031936011261009157602090517f2636ad834cd47318572033620d50377260a54fc64e5f150896186b2bafda74548152f35b508234610091578160031936011261009157602090517f00000000000000000000000000000000000000000000000000000000000000008152f35b9050346100915781600319360112610091576020906002548152f35b67ffffffffffffffff811161041a57604052565b634e487b7160e01b600052604160045260246000fdfea2646970667358221220eab17199e9b2be82248b53b62d006cdd456962c7c9b06beef4ce124c133d724464736f6c63430008160033",
  "linkReferences": {},
  "deployedLinkReferences": {}
}