{
  "_format": "hh-sol-artifact-1",
  "contractName": "FreeBalanceReader",
  "sourceName": "contracts/FreeBalanceReader.sol",
  "abi": [
    {
      "inputs": [
        {
          "internalType": "bytes",
          "name": "keySuffix",
          "type": "bytes"
        }
      ],
      "name": "freeBalance",
      "outputs": [
        {
          "internalType": "uint256",
          "name": "free",
          "type": "uint256"
        }
      ],
      "stateMutability": "view",
      "type": "function"
    },
    {
      "inputs": [
        {
          "internalType": "bytes",
          "name": "keySuffix",
          "type": "bytes"
        }
      ],
      "name": "rawAccountInfo",
      "outputs": [
        {
          "internalType": "bytes",
          "name": "",
          "type": "bytes"
        }
      ],
      "stateMutability": "view",
      "type": "function"
    }
  ],
  "bytecode": "0x6080806040523461001657610411908161001c8239f35b600080fdfe6080604052600436101561001257600080fd5b6000803560e01c80630ba179ee146100af57631821cdc01461003357600080fd5b346100ac578061005f610045366100d1565b9061005260308314610143565b61005a6101c7565b610211565b6020815191016108075afa61007b61007561024f565b9161028f565b6040805180926020825261009e8151809281602086015260208686019101610120565b601f01601f19168101030190f35b80fd5b50346100ac5760206100c96100c3366100d1565b906102d4565b604051908152f35b90602060031983011261011b5760043567ffffffffffffffff9283821161011b578060238301121561011b57816004013593841161011b576024848301011161011b576024019190565b600080fd5b60005b8381106101335750506000910152565b8181015183820152602001610123565b1561014a57565b60405162461bcd60e51b815260206004820152601760248201527f737566666978206d7573742062652034382062797465730000000000000000006044820152606490fd5b90601f8019910116810190811067ffffffffffffffff8211176101b157604052565b634e487b7160e01b600052604160045260246000fd5b604051906040820182811067ffffffffffffffff8211176101b157604052602082527f26aa394eea5630e07c48ae0c9558cef7b99d880ec681799c0cf30e8886371da96020830152565b6020908361024d9395949560405196836102348995518092888089019101610120565b840191858301370160008382015203808552018361018f565b565b3d1561028a573d9067ffffffffffffffff82116101b1576040519161027e601f8201601f19166020018461018f565b82523d6000602084013e565b606090565b1561029657565b60405162461bcd60e51b81526020600482015260166024820152751cdd1bdc9859d9481c5d595c9e481c995d995c9d195960521b6044820152606490fd5b603092916102e791610052858314610143565b9160008084602082965191016108075afa9061030a61030461024f565b9261028f565b815180156103d657602011610391578391825b6010808510156103895784810180911161036157825111156103755781840183015160f81c6001600160fd1b038516850361036157600185019460031b1b1761031d565b634e487b7160e01b87526011600452602487fd5b634e487b7160e01b86526032600452602486fd5b509450505050565b60405162461bcd60e51b815260206004820152601d60248201527f756e6578706563746564204163636f756e74496e666f206c656e6774680000006044820152606490fd5b50505056fea26469706673582212205aecb692c4ffe202ed6ba3f801b0979bba9e406e1e7688c1ea8bcb13c4c9f6c264736f6c63430008160033",
  "linkReferences": {},
  "deployedLinkReferences": {}
}