{
  "_format": "hh-sol-artifact-1",
  "contractName": "FreeBalanceReader",
  "sourceName": "contracts/FreeBalanceReader.sol",
  "abi": [
    {
      "inputs": [
        {
          "internalType": "bytes",
          "name": "keySuffix",
          "type": "bytes"
        }
      ],
      "name": "freeBalance",
      "outputs": [
        {
          "internalType": "uint256",
          "name": "free",
          "type": "uint256"
        }
      ],
      "stateMutability": "view",
      "type": "function"
    },
    {
      "inputs": [
        {
          "internalType": "bytes",
          "name": "keySuffix",
          "type": "bytes"
        }
      ],
      "name": "rawAccountInfo",
      "outputs": [
        {
          "internalType": "bytes",
          "name": "",
          "type": "bytes"
        }
      ],
      "stateMutability": "view",
      "type": "function"
    }
  ],
  "bytecode": "0x608060405234801561001057600080fd5b50610599806100206000396000f3fe608060405234801561001057600080fd5b50600436106100365760003560e01c80630ba179ee1461003b5780631821cdc014610061575b600080fd5b61004e610049366004610400565b610081565b6040519081526020015b60405180910390f35b61007461006f366004610400565b610255565b6040516100589190610496565b6000603082146100d25760405162461bcd60e51b8152602060048201526017602482015276737566666978206d75737420626520343820627974657360481b60448201526064015b60405180910390fd5b60006040518060400160405280602081526020017f26aa394eea5630e07c48ae0c9558cef7b99d880ec681799c0cf30e8886371da9815250848460405160200161011e939291906104c9565b60405160208183030381529060405290506000806108076001600160a01b03168360405161014c91906104f1565b600060405180830381855afa9150503d8060008114610187576040519150601f19603f3d011682016040523d82523d6000602084013e61018c565b606091505b5091509150816101d75760405162461bcd60e51b81526020600482015260166024820152751cdd1bdc9859d9481c5d595c9e481c995d995c9d195960521b60448201526064016100c9565b80516000036101ec576000935050505061024f565b60208151101561023e5760405162461bcd60e51b815260206004820152601d60248201527f756e6578706563746564204163636f756e74496e666f206c656e67746800000060448201526064016100c9565b6102498160106103af565b93505050505b92915050565b6060603082146102a15760405162461bcd60e51b8152602060048201526017602482015276737566666978206d75737420626520343820627974657360481b60448201526064016100c9565b60006040518060400160405280602081526020017f26aa394eea5630e07c48ae0c9558cef7b99d880ec681799c0cf30e8886371da981525084846040516020016102ed939291906104c9565b60405160208183030381529060405290506000806108076001600160a01b03168360405161031b91906104f1565b600060405180830381855afa9150503d8060008114610356576040519150601f19603f3d011682016040523d82523d6000602084013e61035b565b606091505b5091509150816103a65760405162461bcd60e51b81526020600482015260166024820152751cdd1bdc9859d9481c5d595c9e481c995d995c9d195960521b60448201526064016100c9565b95945050505050565b6000805b60108110156103f9576103c7816008610523565b846103d2838661053a565b815181106103e2576103e261054d565b016020015160f81c901b91909117906001016103b3565b5092915050565b6000806020838503121561041357600080fd5b823567ffffffffffffffff8082111561042b57600080fd5b818501915085601f83011261043f57600080fd5b81358181111561044e57600080fd5b86602082850101111561046057600080fd5b60209290920196919550909350505050565b60005b8381101561048d578181015183820152602001610475565b50506000910152565b60208152600082518060208401526104b5816040850160208701610472565b601f01601f19169190910160400192915050565b600084516104db818460208901610472565b8201838582376000930192835250909392505050565b60008251610503818460208701610472565b9190910192915050565b634e487b7160e01b600052601160045260246000fd5b808202811582820484141761024f5761024f61050d565b8082018082111561024f5761024f61050d565b634e487b7160e01b600052603260045260246000fdfea2646970667358221220a2b4f8aea57965ec9bd8e6fe04a408b2cabbd32ef46eca2fac58c73f0651c07c64736f6c63430008160033",
  "linkReferences": {},
  "deployedLinkReferences": {}
}