{
  "_format": "hh-sol-artifact-1",
  "contractName": "TradingV6",
  "sourceName": "contracts/TradingV7_3.sol",
  "abi": [
    {
      "inputs": [],
      "stateMutability": "nonpayable",
      "type": "constructor"
    },
    {
      "inputs": [],
      "name": "AmountZero",
      "type": "error"
    },
    {
      "inputs": [],
      "name": "ArrayLengthMismatch",
      "type": "error"
    },
    {
      "inputs": [],
      "name": "FunctionNotFound",
      "type": "error"
    },
    {
      "inputs": [],
      "name": "InvalidAddress",
      "type": "error"
    },
    {
      "inputs": [],
      "name": "InvalidBytesKey",
      "type": "error"
    },
    {
      "inputs": [],
      "name": "InvalidNetuid",
      "type": "error"
    },
    {
      "inputs": [],
      "name": "NotWithdrawer",
      "type": "error"
    },
    {
      "inputs": [],
      "name": "TransferFailed",
      "type": "error"
    },
    {
      "anonymous": false,
      "inputs": [
        {
          "indexed": true,
          "internalType": "address",
          "name": "previousOwner",
          "type": "address"
        },
        {
          "indexed": true,
          "internalType": "address",
          "name": "newOwner",
          "type": "address"
        }
      ],
      "name": "OwnershipTransferred",
      "type": "event"
    },
    {
      "stateMutability": "payable",
      "type": "fallback"
    },
    {
      "inputs": [],
      "name": "DELEGATOR_BYTES_KEY",
      "outputs": [
        {
          "internalType": "bytes32",
          "name": "",
          "type": "bytes32"
        }
      ],
      "stateMutability": "view",
      "type": "function"
    },
    {
      "inputs": [
        {
          "internalType": "uint256[]",
          "name": "_netuids",
          "type": "uint256[]"
        },
        {
          "internalType": "uint256[]",
          "name": "amounts",
          "type": "uint256[]"
        },
        {
          "internalType": "uint256[]",
          "name": "limitPrices",
          "type": "uint256[]"
        },
        {
          "internalType": "bytes32",
          "name": "validatorHotkey",
          "type": "bytes32"
        }
      ],
      "name": "addStakeLimits",
      "outputs": [],
      "stateMutability": "payable",
      "type": "function"
    },
    {
      "inputs": [],
      "name": "contractBytesKey",
      "outputs": [
        {
          "internalType": "bytes32",
          "name": "",
          "type": "bytes32"
        }
      ],
      "stateMutability": "view",
      "type": "function"
    },
    {
      "inputs": [
        {
          "internalType": "address",
          "name": "to",
          "type": "address"
        },
        {
          "internalType": "uint256",
          "name": "amount",
          "type": "uint256"
        }
      ],
      "name": "emergencyWithdrawTao",
      "outputs": [],
      "stateMutability": "nonpayable",
      "type": "function"
    },
    {
      "inputs": [],
      "name": "getAlphaPrices",
      "outputs": [
        {
          "internalType": "uint256[129]",
          "name": "alphaPrices",
          "type": "uint256[129]"
        }
      ],
      "stateMutability": "view",
      "type": "function"
    },
    {
      "inputs": [
        {
          "internalType": "uint256[]",
          "name": "_netuids",
          "type": "uint256[]"
        }
      ],
      "name": "getMevStakedAmounts",
      "outputs": [
        {
          "internalType": "uint256[]",
          "name": "amounts",
          "type": "uint256[]"
        }
      ],
      "stateMutability": "view",
      "type": "function"
    },
    {
      "inputs": [
        {
          "internalType": "bytes32[]",
          "name": "hotkeys",
          "type": "bytes32[]"
        },
        {
          "internalType": "bytes32[]",
          "name": "coldkeys",
          "type": "bytes32[]"
        }
      ],
      "name": "getStakedAmounts",
      "outputs": [
        {
          "internalType": "uint256[129]",
          "name": "amounts",
          "type": "uint256[129]"
        }
      ],
      "stateMutability": "view",
      "type": "function"
    },
    {
      "inputs": [],
      "name": "getTaoInPools",
      "outputs": [
        {
          "internalType": "uint64[129]",
          "name": "taoInPools",
          "type": "uint64[129]"
        }
      ],
      "stateMutability": "view",
      "type": "function"
    },
    {
      "inputs": [],
      "name": "getTradingInfo",
      "outputs": [
        {
          "internalType": "uint256[129]",
          "name": "alphaPrices",
          "type": "uint256[129]"
        },
        {
          "internalType": "uint64[129]",
          "name": "taoInPools",
          "type": "uint64[129]"
        },
        {
          "internalType": "bool[129]",
          "name": "staked",
          "type": "bool[129]"
        },
        {
          "internalType": "uint256[129]",
          "name": "limitPrices",
          "type": "uint256[129]"
        },
        {
          "internalType": "uint256[129]",
          "name": "stakedAmounts",
          "type": "uint256[129]"
        },
        {
          "internalType": "uint256[]",
          "name": "mevFreeBalances",
          "type": "uint256[]"
        },
        {
          "internalType": "uint256",
          "name": "freeBalance",
          "type": "uint256"
        },
        {
          "internalType": "uint256",
          "name": "ownerBalance",
          "type": "uint256"
        }
      ],
      "stateMutability": "view",
      "type": "function"
    },
    {
      "inputs": [
        {
          "internalType": "uint256",
          "name": "",
          "type": "uint256"
        }
      ],
      "name": "isStaked",
      "outputs": [
        {
          "internalType": "bool",
          "name": "",
          "type": "bool"
        }
      ],
      "stateMutability": "view",
      "type": "function"
    },
    {
      "inputs": [
        {
          "internalType": "uint256",
          "name": "",
          "type": "uint256"
        }
      ],
      "name": "lastLimitPrices",
      "outputs": [
        {
          "internalType": "uint256",
          "name": "",
          "type": "uint256"
        }
      ],
      "stateMutability": "view",
      "type": "function"
    },
    {
      "inputs": [
        {
          "internalType": "uint256",
          "name": "",
          "type": "uint256"
        }
      ],
      "name": "lastStakeTimestamps",
      "outputs": [
        {
          "internalType": "uint256",
          "name": "",
          "type": "uint256"
        }
      ],
      "stateMutability": "view",
      "type": "function"
    },
    {
      "inputs": [
        {
          "internalType": "uint256[]",
          "name": "_netuids",
          "type": "uint256[]"
        },
        {
          "internalType": "uint256[]",
          "name": "amounts",
          "type": "uint256[]"
        },
        {
          "internalType": "bytes32",
          "name": "validatorHotkey",
          "type": "bytes32"
        }
      ],
      "name": "mevAddStakes",
      "outputs": [],
      "stateMutability": "payable",
      "type": "function"
    },
    {
      "inputs": [
        {
          "internalType": "uint256",
          "name": "",
          "type": "uint256"
        }
      ],
      "name": "mevAddresses",
      "outputs": [
        {
          "internalType": "address",
          "name": "",
          "type": "address"
        }
      ],
      "stateMutability": "view",
      "type": "function"
    },
    {
      "inputs": [
        {
          "internalType": "uint256",
          "name": "",
          "type": "uint256"
        }
      ],
      "name": "mevColdkeyBytesKeys",
      "outputs": [
        {
          "internalType": "bytes32",
          "name": "",
          "type": "bytes32"
        }
      ],
      "stateMutability": "view",
      "type": "function"
    },
    {
      "inputs": [
        {
          "internalType": "uint256",
          "name": "",
          "type": "uint256"
        }
      ],
      "name": "mevHotkeyBytesKeys",
      "outputs": [
        {
          "internalType": "bytes32",
          "name": "",
          "type": "bytes32"
        }
      ],
      "stateMutability": "view",
      "type": "function"
    },
    {
      "inputs": [
        {
          "internalType": "uint256[]",
          "name": "_netuids",
          "type": "uint256[]"
        },
        {
          "internalType": "bytes32",
          "name": "validatorHotkey",
          "type": "bytes32"
        }
      ],
      "name": "mevRemoveStakes",
      "outputs": [],
      "stateMutability": "payable",
      "type": "function"
    },
    {
      "inputs": [
        {
          "internalType": "uint256",
          "name": "",
          "type": "uint256"
        }
      ],
      "name": "netuids",
      "outputs": [
        {
          "internalType": "uint256",
          "name": "",
          "type": "uint256"
        }
      ],
      "stateMutability": "view",
      "type": "function"
    },
    {
      "inputs": [],
      "name": "owner",
      "outputs": [
        {
          "internalType": "address",
          "name": "",
          "type": "address"
        }
      ],
      "stateMutability": "view",
      "type": "function"
    },
    {
      "inputs": [
        {
          "internalType": "uint256[]",
          "name": "_netuids",
          "type": "uint256[]"
        }
      ],
      "name": "removeDeregisteredStakes",
      "outputs": [],
      "stateMutability": "nonpayable",
      "type": "function"
    },
    {
      "inputs": [
        {
          "internalType": "uint256[]",
          "name": "_netuids",
          "type": "uint256[]"
        },
        {
          "internalType": "uint256[]",
          "name": "limitPrices",
          "type": "uint256[]"
        },
        {
          "internalType": "bytes32",
          "name": "validatorHotkey",
          "type": "bytes32"
        }
      ],
      "name": "removeStakeLimits",
      "outputs": [],
      "stateMutability": "payable",
      "type": "function"
    },
    {
      "inputs": [],
      "name": "renounceOwnership",
      "outputs": [],
      "stateMutability": "nonpayable",
      "type": "function"
    },
    {
      "inputs": [
        {
          "internalType": "uint256[]",
          "name": "_netuids",
          "type": "uint256[]"
        }
      ],
      "name": "resetLimitPrices",
      "outputs": [],
      "stateMutability": "nonpayable",
      "type": "function"
    },
    {
      "inputs": [
        {
          "internalType": "address",
          "name": "newWithdrawer",
          "type": "address"
        }
      ],
      "name": "setWithdrawer",
      "outputs": [],
      "stateMutability": "nonpayable",
      "type": "function"
    },
    {
      "inputs": [
        {
          "internalType": "address",
          "name": "newOwner",
          "type": "address"
        }
      ],
      "name": "transferOwnership",
      "outputs": [],
      "stateMutability": "nonpayable",
      "type": "function"
    },
    {
      "inputs": [
        {
          "internalType": "bytes32",
          "name": "newContractBytesKey",
          "type": "bytes32"
        }
      ],
      "name": "updateContractBytesKey",
      "outputs": [],
      "stateMutability": "nonpayable",
      "type": "function"
    },
    {
      "inputs": [
        {
          "internalType": "address[]",
          "name": "newMevAddresses",
          "type": "address[]"
        },
        {
          "internalType": "bytes32[]",
          "name": "newMevHotkeyBytesKeys",
          "type": "bytes32[]"
        },
        {
          "internalType": "bytes32[]",
          "name": "newMevColdkeyBytesKeys",
          "type": "bytes32[]"
        }
      ],
      "name": "updateMevKeys",
      "outputs": [],
      "stateMutability": "nonpayable",
      "type": "function"
    },
    {
      "inputs": [
        {
          "internalType": "address",
          "name": "to",
          "type": "address"
        }
      ],
      "name": "withdrawAll",
      "outputs": [],
      "stateMutability": "nonpayable",
      "type": "function"
    },
    {
      "inputs": [],
      "name": "withdrawer",
      "outputs": [
        {
          "internalType": "address",
          "name": "",
          "type": "address"
        }
      ],
      "stateMutability": "view",
      "type": "function"
    },
    {
      "stateMutability": "payable",
      "type": "receive"
    }
  ],
  "bytecode": "0x6110a0604090815260016080908152603760a052606e60c052604c60e05260516101005260076101205260706101405260136101605260006101805260126101a052602f6101c05260546101e05260716102005260246102205260336102405260626102605260316102805260756102a05260276102c052605a6102e052603c6103005260676103205261034091909152605f61036052607c61038052606c6103a05260186103c05260576103e052606161040052605361042052604361044052603b61046052602561048052601e6104a05260026104c05260056104e052600e61050052602661052052602c61054052607461056052601b61058052603f6105a05260106105c052607a6105e052605661060052606061062052607261064052605861066052601d6106805260116106a05260236106c05260636106e052600861070052605561072052604961074052601561076052602161078052602d6107a052600c6107c05260296107e052607961080052602261082052603661084052610860819052604b61088052600b6108a052600a6108c052602e6108e052606f61090052606d61092052602a61094052603961096052602b61098052604d6109a05260286109c05260686109e052603a610a0052605e610a2052607f610a40526073610a60526020610a8052607b610aa0526069610ac0526016610ae0526044610b00526017610b2052606a610b40526035610b6052601f610b80526014610ba0526065610bc0526034610be052606b610c00526042610c20526006610c4052603d610c60526045610c80526064610ca0526059610cc0526009610ce0526038610d00526077610d2052604e610d40526019610d60526032610d8052603e610da0526003610dc0526048610de052604f610e0052601a610e20526076610e4052600d610e60526078610e8052600f610ea052605c610ec0526052610ee0526004610f00526030610f2052605d610f40526066610f6052601c610f80526041610fa0526046610fc052607d610fe052605061100052605b61102052604761104052607e61106052604a611080526200031d9061010e906081620003a4565b503480156200032b57600080fd5b50620003373362000354565b6001805561010d80546001600160a01b0319163317905562000403565b600080546001600160a01b038381166001600160a01b0319831681178455604051919092169283917f8be0079c531659141344cd1fd0a4f28419497f9722a3daafe3b4186f6b6457e09190a35050565b8260818101928215620003da579160200282015b82811115620003da578251829060ff16905591602001919060010190620003b8565b50620003e8929150620003ec565b5090565b5b80821115620003e85760008155600101620003ed565b61244e80620004136000396000f3fe6080604052600436106101c65760003560e01c8063ae257e60116100f7578063cdc1842411610095578063f528c62e11610064578063f528c62e14610513578063f9036f0214610533578063fa09e63014610553578063fcd1a8d614610573576101cd565b8063cdc1842414610492578063e2edac25146104b3578063e4240e7f146104d3578063f2fde38b146104f3576101cd565b8063baa51f86116100d1578063baa51f861461040d578063bc28d5d01461043d578063bf6d738914610452578063c6df7daf14610472576101cd565b8063ae257e60146103a0578063af31a15d146103cd578063b6b2a68d146103ed576101cd565b806351b2e72d116101645780638da5cb5b1161013e5780638da5cb5b14610316578063947d3c3f14610348578063a76787751461035e578063a8c2bb0d1461037e576101cd565b806351b2e72d146102c0578063715018a6146102ee5780637d002cc014610303576101cd565b8063276ef789116101a0578063276ef78914610251578063386190401461027a5780633de1ffe81461028d5780633eb5152d146102a0576101cd565b80630d174c24146101e657806311ef42c91461020857806326a224e01461021b576101cd565b366101cd57005b60405163201f3fd360e11b815260040160405180910390fd5b3480156101f257600080fd5b50610206610201366004611e82565b610595565b005b610206610216366004611ee8565b610616565b34801561022757600080fd5b5061023b610236366004611f33565b6107d6565b6040516102489190611fc7565b60405180910390f35b34801561025d57600080fd5b506102666108ff565b60405161024898979695949392919061203e565b6102066102883660046120d1565b610a15565b61020661029b366004612144565b610c5d565b3480156102ac57600080fd5b506102066102bb3660046121e6565b610f2f565b3480156102cc57600080fd5b506102e06102db36600461227f565b610f97565b604051908152602001610248565b3480156102fa57600080fd5b50610206610fb8565b6102066103113660046120d1565b610fcc565b34801561032257600080fd5b506000546001600160a01b03165b6040516001600160a01b039091168152602001610248565b34801561035457600080fd5b506102e060055481565b34801561036a57600080fd5b5061033061037936600461227f565b611215565b34801561038a57600080fd5b5061039361123f565b6040516102489190612298565b3480156103ac57600080fd5b506103c06103bb3660046122a7565b611254565b60405161024891906122e8565b3480156103d957600080fd5b506102e06103e836600461227f565b6112f4565b3480156103f957600080fd5b506102e061040836600461227f565b61130b565b34801561041957600080fd5b5061042d61042836600461227f565b61131b565b6040519015158152602001610248565b34801561044957600080fd5b5061023b611345565b34801561045e57600080fd5b506102e061046d36600461227f565b611355565b34801561047e57600080fd5b5061020661048d3660046122a7565b611366565b34801561049e57600080fd5b5061010d54610330906001600160a01b031681565b3480156104bf57600080fd5b506102e06104ce36600461227f565b611450565b3480156104df57600080fd5b506102066104ee3660046122a7565b611460565b3480156104ff57600080fd5b5061020661050e366004611e82565b611568565b34801561051f57600080fd5b5061020661052e3660046122fb565b6115e3565b34801561053f57600080fd5b5061020661054e36600461227f565b6116dd565b34801561055f57600080fd5b5061020661056e366004611e82565b611719565b34801561057f57600080fd5b506102e06000805160206123f983398151915281565b61059d611816565b61010d546001600160a01b031633146105c957604051632d99bc8360e21b815260040160405180910390fd5b6001600160a01b0381166105f05760405163e6c4247b60e01b815260040160405180910390fd5b61010d80546001600160a01b0319166001600160a01b0383161790556001805550565b50565b61061e611816565b61062661186f565b8160005b818110156107c657600061010e60ff851687878581811061064d5761064d612325565b9050602002013561065e9190612351565b6081811061066e5761066e612325565b0154905061067b816118c9565b608c816081811061068e5761068e612325565b015442146107bd5760006106a1826118ea565b11156107bd5760405163d4626bb960e01b81526000805160206123f98339815191526004820152602481018290526108059063d4626bb990604401600060405180830381600087803b1580156106f657600080fd5b505af115801561070a573d6000803e3d6000fd5b50506040516369e38bc360e01b815261ffff8416600482015261080892506369e38bc39150602401602060405180830381865afa15801561074f573d6000803e3d6000fd5b505050506040513d601f19601f820116820180604052508101906107739190612364565b600b826081811061078657610786612325565b015560006006826081811061079d5761079d612325565b602091828204019190066101000a81548160ff0219169083151502179055505b5060010161062a565b50506107d160018055565b505050565b6107de611d98565b838281146107ff5760405163512509d360e11b815260040160405180910390fd5b60005b818110156108f55760015b60818110156108ec5761080563e3b598fa89898581811061083057610830612325565b9050602002013588888681811061084957610849612325565b6040516001600160e01b031960e087901b1681526004810194909452602002919091013560248301525060448101849052606401602060405180830381865afa15801561089a573d6000803e3d6000fd5b505050506040513d601f19601f820116820180604052508101906108be9190612364565b8482608181106108d0576108d0612325565b602002018181516108e1919061237d565b90525060010161080d565b50600101610802565b5050949350505050565b610907611d98565b61090f611d98565b610917611d98565b61091f611d98565b610927611d98565b60606000806109346119d8565b975061093e611a9d565b60408051611020810191829052919850600690608190826000855b825461010083900a900460ff161515815260206001928301818104948501949093039092029101808411610959579050505050505095506109ad6000805160206123f983398151915260001b600554611b7a565b93506109b7611c71565b60408051611020810191829052919450600b9060819082845b8154815260200190600101908083116109d057505050505094504791506109ff6000546001600160a01b031690565b6001600160a01b03163190509091929394959697565b610a1d611816565b610a2561186f565b83828114610a465760405163512509d360e11b815260040160405180910390fd5b60005b81811015610c4b57600061010e60ff8516898985818110610a6c57610a6c612325565b90506020020135610a7d9190612351565b60818110610a8d57610a8d612325565b01549050610a9a816118c9565b6000868684818110610aae57610aae612325565b9050602002013590506000610ac34783611d1e565b905080600003610ae6576040516365e52d5160e11b815260040160405180910390fd5b610aef836118ea565b600003610c3d57610805631fc9b1416000805160206123f9833981519152610b1684611d38565b6040516001600160e01b031960e085901b1681526004810192909252602482015260448101869052606401600060405180830381600087803b158015610b5b57600080fd5b505af1158015610b6f573d6000803e3d6000fd5b50505050600160068460818110610b8857610b88612325565b602081049091018054921515601f9092166101000a91820260ff909202199092161790556040516369e38bc360e01b815261ffff84166004820152610808906369e38bc390602401602060405180830381865afa158015610bed573d6000803e3d6000fd5b505050506040513d601f19601f82011682018060405250810190610c119190612364565b600b8460818110610c2457610c24612325565b015542608c8460818110610c3a57610c3a612325565b01555b836001019350505050610a49565b5050610c5660018055565b5050505050565b610c65611816565b610c6d61186f565b858481141580610c7d5750808314155b15610c9b5760405163512509d360e11b815260040160405180910390fd5b60005b81811015610f1b576000878783818110610cba57610cba612325565b90506020020135905080600014610f1257600061010e60ff86168c8c86818110610ce657610ce6612325565b90506020020135610cf79190612351565b60818110610d0757610d07612325565b01549050610d14816118c9565b6040516369e38bc360e01b815261ffff82166004820152600090610808906369e38bc390602401602060405180830381865afa158015610d58573d6000803e3d6000fd5b505050506040513d601f19601f82011682018060405250810190610d7c9190612364565b905080888886818110610d9157610d91612325565b9050602002013510610f0f576000610da94785611d1e565b905080600003610dcc576040516365e52d5160e11b815260040160405180910390fd5b610805631fc9b1416000805160206123f9833981519152610dec84611d38565b6040516001600160e01b031960e085901b1681526004810192909252602482015260448101869052606401600060405180830381600087803b158015610e3157600080fd5b505af1158015610e45573d6000803e3d6000fd5b50506040516369e38bc360e01b815261ffff8616600482015261080892506369e38bc39150602401602060405180830381865afa158015610e8a573d6000803e3d6000fd5b505050506040513d601f19601f82011682018060405250810190610eae9190612364565b600b8460818110610ec157610ec1612325565b0155600160068460818110610ed857610ed8612325565b602091828204019190066101000a81548160ff02191690831515021790555042608c8460818110610f0b57610f0b612325565b0155505b50505b50600101610c9e565b5050610f2660018055565b50505050505050565b610f37611816565b610f3f61186f565b828114610f5f5760405163512509d360e11b815260040160405180910390fd5b610f6b60048787611db7565b50610f7860028585611e16565b50610f8560038383611e16565b50610f8f60018055565b505050505050565b60038181548110610fa757600080fd5b600091825260209091200154905081565b610fc061186f565b610fca6000611d48565b565b610fd4611816565b610fdc61186f565b83828114610ffd5760405163512509d360e11b815260040160405180910390fd5b60005b81811015610c4b57600061010e60ff851689898581811061102357611023612325565b905060200201356110349190612351565b6081811061104457611044612325565b01549050611051816118c9565b6040516369e38bc360e01b815261ffff82166004820152600090610808906369e38bc390602401602060405180830381865afa158015611095573d6000803e3d6000fd5b505050506040513d601f19601f820116820180604052508101906110b99190612364565b9050808787858181106110ce576110ce612325565b905060200201351161120b57608c82608181106110ed576110ed612325565b0154421461120b5760405163d4626bb960e01b81526000805160206123f98339815191526004820152602481018390526108059063d4626bb990604401600060405180830381600087803b15801561114457600080fd5b505af1158015611158573d6000803e3d6000fd5b50506040516369e38bc360e01b815261ffff8516600482015261080892506369e38bc39150602401602060405180830381865afa15801561119d573d6000803e3d6000fd5b505050506040513d601f19601f820116820180604052508101906111c19190612364565b600b83608181106111d4576111d4612325565b01556000600683608181106111eb576111eb612325565b602091828204019190066101000a81548160ff0219169083151502179055505b5050600101611000565b6004818154811061122557600080fd5b6000918252602090912001546001600160a01b0316905081565b611247611d98565b61124f611a9d565b905090565b606081806001600160401b0381111561126f5761126f612390565b604051908082528060200260200182016040528015611298578160200160208202803683370190505b50915060005b818110156112ec576112c78585838181106112bb576112bb612325565b905060200201356118ea565b8382815181106112d9576112d9612325565b602090810291909101015260010161129e565b505092915050565b608c816081811061130457600080fd5b0154905081565b60028181548110610fa757600080fd5b6006816081811061132b57600080fd5b60209182820401919006915054906101000a900460ff1681565b61134d611d98565b61124f6119d8565b61010e816081811061130457600080fd5b61136e611816565b61137661186f565b8060005b8181101561144157600084848381811061139657611396612325565b9050602002013590506113a8816118c9565b6040516369e38bc360e01b815261ffff82166004820152610808906369e38bc390602401602060405180830381865afa1580156113e9573d6000803e3d6000fd5b505050506040513d601f19601f8201168201806040525081019061140d9190612364565b600b826081811061142057611420612325565b015542608c826081811061143657611436612325565b01555060010161137a565b505061144c60018055565b5050565b600b816081811061130457600080fd5b611468611816565b61147061186f565b8060005b8181101561144157600084848381811061149057611490612325565b9050602002013590506114a2816118c9565b6005546040516371dacc7d60e11b81526000805160206123f983398151915260048201526024810191909152604481018290526108059063e3b598fa90606401602060405180830381865afa1580156114ff573d6000803e3d6000fd5b505050506040513d601f19601f820116820180604052508101906115239190612364565b60000361155f5760006006826081811061153f5761153f612325565b602091828204019190066101000a81548160ff0219169083151502179055505b50600101611474565b61157061186f565b6001600160a01b0381166115da5760405162461bcd60e51b815260206004820152602660248201527f4f776e61626c653a206e6577206f776e657220697320746865207a65726f206160448201526564647265737360d01b60648201526084015b60405180910390fd5b61061381611d48565b6115eb611816565b61010d546001600160a01b0316331461161757604051632d99bc8360e21b815260040160405180910390fd5b6001600160a01b03821661163e5760405163e6c4247b60e01b815260040160405180910390fd5b8060000361165f576040516365e52d5160e11b815260040160405180910390fd5b6000826001600160a01b03168260405160006040518083038185875af1925050503d80600081146116ac576040519150601f19603f3d011682016040523d82523d6000602084013e6116b1565b606091505b50509050806116d3576040516312171d8360e31b815260040160405180910390fd5b5061144c60018055565b6116e5611816565b6116ed61186f565b8061170b5760405163666b0c5d60e01b815260040160405180910390fd5b600581905561061360018055565b611721611816565b61010d546001600160a01b0316331461174d57604051632d99bc8360e21b815260040160405180910390fd5b6001600160a01b0381166117745760405163e6c4247b60e01b815260040160405180910390fd5b476000819003611797576040516365e52d5160e11b815260040160405180910390fd5b6000826001600160a01b03168260405160006040518083038185875af1925050503d80600081146117e4576040519150601f19603f3d011682016040523d82523d6000602084013e6117e9565b606091505b505090508061180b576040516312171d8360e31b815260040160405180910390fd5b505061061360018055565b6002600154036118685760405162461bcd60e51b815260206004820152601f60248201527f5265656e7472616e637947756172643a207265656e7472616e742063616c6c0060448201526064016115d1565b6002600155565b6000546001600160a01b03163314610fca5760405162461bcd60e51b815260206004820181905260248201527f4f776e61626c653a2063616c6c6572206973206e6f7420746865206f776e657260448201526064016115d1565b60818110610613576040516368a3a6c360e11b815260040160405180910390fd5b6002546000908190815b818110156119cf5760006108056001600160a01b031663e3b598fa6002848154811061192257611922612325565b90600052602060002001546003858154811061194057611940612325565b6000918252602090912001546040516001600160e01b031960e085901b1681526004810192909252602482015260448101899052606401602060405180830381865afa158015611994573d6000803e3d6000fd5b505050506040513d601f19601f820116820180604052508101906119b89190612364565b90506119c4818561237d565b9350506001016118f4565b50909392505050565b6119e0611d98565b60005b608161ffff82161015611a99576040516369e38bc360e01b815261ffff82166004820152610808906369e38bc390602401602060405180830381865afa925050508015611a4d575060408051601f3d908101601f19168201909252611a4a91810190612364565b60015b611a73576000828261ffff1660818110611a6957611a69612325565b6020020152611a91565b80838361ffff1660818110611a8a57611a8a612325565b6020020152505b6001016119e3565b5090565b611aa5611d98565b60005b608161ffff82161015611a9957604051632d9bfc7160e01b815261ffff8216600482015261080890632d9bfc7190602401602060405180830381865afa925050508015611b12575060408051601f3d908101601f19168201909252611b0f918101906123a6565b60015b611b46576000828261ffff1660818110611b2e57611b2e612325565b6001600160401b039092166020929092020152611b72565b80838361ffff1660818110611b5d57611b5d612325565b6001600160401b039092166020929092020152505b600101611aa8565b611b82611d98565b60015b6081811015611c6a5760068160818110611ba157611ba1612325565b602081049091015460ff601f9092166101000a90041615611c48576040516371dacc7d60e11b81526004810185905260248101849052604481018290526108059063e3b598fa90606401602060405180830381865afa158015611c08573d6000803e3d6000fd5b505050506040513d601f19601f82011682018060405250810190611c2c9190612364565b828260818110611c3e57611c3e612325565b6020020152611c62565b6000828260818110611c5c57611c5c612325565b60200201525b600101611b85565b5092915050565b600454606090806001600160401b03811115611c8f57611c8f612390565b604051908082528060200260200182016040528015611cb8578160200160208202803683370190505b50915060005b81811015611d195760048181548110611cd957611cd9612325565b60009182526020909120015483516001600160a01b039091163190849083908110611d0657611d06612325565b6020908102919091010152600101611cbe565b505090565b6000818310611d2d5781611d2f565b825b90505b92915050565b6000611d32633b9aca00836123d6565b600080546001600160a01b038381166001600160a01b0319831681178455604051919092169283917f8be0079c531659141344cd1fd0a4f28419497f9722a3daafe3b4186f6b6457e09190a35050565b6040518061102001604052806081906020820280368337509192915050565b828054828255906000526020600020908101928215611e0a579160200282015b82811115611e0a5781546001600160a01b0319166001600160a01b03843516178255602090920191600190910190611dd7565b50611a99929150611e51565b828054828255906000526020600020908101928215611e0a579160200282015b82811115611e0a578235825591602001919060010190611e36565b5b80821115611a995760008155600101611e52565b80356001600160a01b0381168114611e7d57600080fd5b919050565b600060208284031215611e9457600080fd5b611d2f82611e66565b60008083601f840112611eaf57600080fd5b5081356001600160401b03811115611ec657600080fd5b6020830191508360208260051b8501011115611ee157600080fd5b9250929050565b600080600060408486031215611efd57600080fd5b83356001600160401b03811115611f1357600080fd5b611f1f86828701611e9d565b909790965060209590950135949350505050565b60008060008060408587031215611f4957600080fd5b84356001600160401b0380821115611f6057600080fd5b611f6c88838901611e9d565b90965094506020870135915080821115611f8557600080fd5b50611f9287828801611e9d565b95989497509550505050565b8060005b6081811015611fc1578151845260209384019390910190600101611fa2565b50505050565b6110208101611d328284611f9e565b8060005b6081811015611fc15781516001600160401b0316845260209384019390910190600101611fda565b60008151808452602080850194506020840160005b8381101561203357815187529582019590820190600101612017565b509495945050505050565b600061510061204d838c611f9e565b61205b61102084018b611fd6565b61204083018960005b60818110156120855781511515835260209283019290910190600101612064565b505050612096613060840189611f9e565b6120a4614080840188611f9e565b806150a08401526120b781840187612002565b6150c084019590955250506150e001529695505050505050565b6000806000806000606086880312156120e957600080fd5b85356001600160401b038082111561210057600080fd5b61210c89838a01611e9d565b9097509550602088013591508082111561212557600080fd5b5061213288828901611e9d565b96999598509660400135949350505050565b60008060008060008060006080888a03121561215f57600080fd5b87356001600160401b038082111561217657600080fd5b6121828b838c01611e9d565b909950975060208a013591508082111561219b57600080fd5b6121a78b838c01611e9d565b909750955060408a01359150808211156121c057600080fd5b506121cd8a828b01611e9d565b989b979a50959894979596606090950135949350505050565b600080600080600080606087890312156121ff57600080fd5b86356001600160401b038082111561221657600080fd5b6122228a838b01611e9d565b9098509650602089013591508082111561223b57600080fd5b6122478a838b01611e9d565b9096509450604089013591508082111561226057600080fd5b5061226d89828a01611e9d565b979a9699509497509295939492505050565b60006020828403121561229157600080fd5b5035919050565b6110208101611d328284611fd6565b600080602083850312156122ba57600080fd5b82356001600160401b038111156122d057600080fd5b6122dc85828601611e9d565b90969095509350505050565b602081526000611d2f6020830184612002565b6000806040838503121561230e57600080fd5b61231783611e66565b946020939093013593505050565b634e487b7160e01b600052603260045260246000fd5b634e487b7160e01b600052601160045260246000fd5b81810381811115611d3257611d3261233b565b60006020828403121561237657600080fd5b5051919050565b80820180821115611d3257611d3261233b565b634e487b7160e01b600052604160045260246000fd5b6000602082840312156123b857600080fd5b81516001600160401b03811681146123cf57600080fd5b9392505050565b6000826123f357634e487b7160e01b600052601260045260246000fd5b50049056feb4c087119097fbe3985298eef52f35ef6271c48322a8c2d430902a9cc38d9473a26469706673582212206f9514ddd3c8c543ec35f07f84ab6cdd2726189b83735caecd26cf73546e453e64736f6c63430008160033",
  "linkReferences": {},
  "deployedLinkReferences": {}
}