{
  "_format": "hh-sol-artifact-1",
  "contractName": "TradingV8_2",
  "sourceName": "contracts/TradingV8_2.sol",
  "abi": [
    {
      "inputs": [],
      "stateMutability": "nonpayable",
      "type": "constructor"
    },
    {
      "inputs": [],
      "name": "AmountTooLarge",
      "type": "error"
    },
    {
      "inputs": [],
      "name": "AmountZero",
      "type": "error"
    },
    {
      "inputs": [],
      "name": "ArrayLengthMismatch",
      "type": "error"
    },
    {
      "inputs": [],
      "name": "FunctionNotFound",
      "type": "error"
    },
    {
      "inputs": [],
      "name": "InvalidAddress",
      "type": "error"
    },
    {
      "inputs": [],
      "name": "InvalidBytesKey",
      "type": "error"
    },
    {
      "inputs": [],
      "name": "NotOwner",
      "type": "error"
    },
    {
      "inputs": [],
      "name": "NotOwnerOrWithdrawer",
      "type": "error"
    },
    {
      "inputs": [],
      "name": "NotWithdrawer",
      "type": "error"
    },
    {
      "inputs": [],
      "name": "OutsideWithdrawWindow",
      "type": "error"
    },
    {
      "inputs": [],
      "name": "Rocked",
      "type": "error"
    },
    {
      "inputs": [],
      "name": "TransferFailed",
      "type": "error"
    },
    {
      "inputs": [],
      "name": "WithdrawTooSoon",
      "type": "error"
    },
    {
      "stateMutability": "payable",
      "type": "fallback"
    },
    {
      "inputs": [],
      "name": "DELEGATOR_COLDKEY",
      "outputs": [
        {
          "internalType": "bytes32",
          "name": "",
          "type": "bytes32"
        }
      ],
      "stateMutability": "view",
      "type": "function"
    },
    {
      "inputs": [],
      "name": "DELEGATOR_HOTKEY",
      "outputs": [
        {
          "internalType": "bytes32",
          "name": "",
          "type": "bytes32"
        }
      ],
      "stateMutability": "view",
      "type": "function"
    },
    {
      "inputs": [],
      "name": "REAL_COLDKEY",
      "outputs": [
        {
          "internalType": "bytes32",
          "name": "",
          "type": "bytes32"
        }
      ],
      "stateMutability": "view",
      "type": "function"
    },
    {
      "inputs": [
        {
          "internalType": "uint256[]",
          "name": "netuids",
          "type": "uint256[]"
        },
        {
          "internalType": "uint256[]",
          "name": "amounts",
          "type": "uint256[]"
        },
        {
          "internalType": "uint256[]",
          "name": "limitPrices",
          "type": "uint256[]"
        }
      ],
      "name": "addStakeLimits",
      "outputs": [],
      "stateMutability": "nonpayable",
      "type": "function"
    },
    {
      "inputs": [
        {
          "internalType": "uint256",
          "name": "amount",
          "type": "uint256"
        }
      ],
      "name": "addStakeToRoot",
      "outputs": [],
      "stateMutability": "nonpayable",
      "type": "function"
    },
    {
      "inputs": [],
      "name": "addStakeToRootFull",
      "outputs": [],
      "stateMutability": "nonpayable",
      "type": "function"
    },
    {
      "inputs": [],
      "name": "delegatorId",
      "outputs": [
        {
          "internalType": "bytes32",
          "name": "",
          "type": "bytes32"
        }
      ],
      "stateMutability": "view",
      "type": "function"
    },
    {
      "inputs": [],
      "name": "execute",
      "outputs": [],
      "stateMutability": "nonpayable",
      "type": "function"
    },
    {
      "inputs": [],
      "name": "getAlphaInPools",
      "outputs": [
        {
          "internalType": "uint64[129]",
          "name": "alphaInPools",
          "type": "uint64[129]"
        }
      ],
      "stateMutability": "view",
      "type": "function"
    },
    {
      "inputs": [],
      "name": "getAlphaPrices",
      "outputs": [
        {
          "internalType": "uint256[129]",
          "name": "alphaPrices",
          "type": "uint256[129]"
        }
      ],
      "stateMutability": "view",
      "type": "function"
    },
    {
      "inputs": [
        {
          "internalType": "bytes32[]",
          "name": "hotkeys",
          "type": "bytes32[]"
        },
        {
          "internalType": "bytes32[]",
          "name": "coldkeys",
          "type": "bytes32[]"
        }
      ],
      "name": "getStakedAmounts",
      "outputs": [
        {
          "internalType": "uint256[129]",
          "name": "amounts",
          "type": "uint256[129]"
        }
      ],
      "stateMutability": "view",
      "type": "function"
    },
    {
      "inputs": [],
      "name": "getTaoInPools",
      "outputs": [
        {
          "internalType": "uint64[129]",
          "name": "taoInPools",
          "type": "uint64[129]"
        }
      ],
      "stateMutability": "view",
      "type": "function"
    },
    {
      "inputs": [
        {
          "internalType": "bytes32[]",
          "name": "_mevColdkeyBytesKeys",
          "type": "bytes32[]"
        }
      ],
      "name": "getTradingInfo",
      "outputs": [
        {
          "internalType": "uint256[129]",
          "name": "alphaPrices",
          "type": "uint256[129]"
        },
        {
          "internalType": "uint64[129]",
          "name": "taoInPools",
          "type": "uint64[129]"
        },
        {
          "internalType": "uint64[129]",
          "name": "alphaInPools",
          "type": "uint64[129]"
        },
        {
          "internalType": "uint256[129]",
          "name": "_stakedPrices",
          "type": "uint256[129]"
        },
        {
          "internalType": "uint256[129]",
          "name": "stakedAmounts",
          "type": "uint256[129]"
        },
        {
          "internalType": "uint256",
          "name": "freeBalance",
          "type": "uint256"
        },
        {
          "internalType": "uint256",
          "name": "ownerBalance",
          "type": "uint256"
        },
        {
          "internalType": "uint256[]",
          "name": "init_taos",
          "type": "uint256[]"
        }
      ],
      "stateMutability": "view",
      "type": "function"
    },
    {
      "inputs": [],
      "name": "lastWithdrawSmallTime",
      "outputs": [
        {
          "internalType": "uint256",
          "name": "",
          "type": "uint256"
        }
      ],
      "stateMutability": "view",
      "type": "function"
    },
    {
      "inputs": [
        {
          "internalType": "uint256[]",
          "name": "netuids",
          "type": "uint256[]"
        },
        {
          "internalType": "uint256[]",
          "name": "amounts",
          "type": "uint256[]"
        },
        {
          "internalType": "bytes32[]",
          "name": "_mevHotkeyBytesKeys",
          "type": "bytes32[]"
        },
        {
          "internalType": "bytes32[]",
          "name": "_mevColdkeyBytesKeys",
          "type": "bytes32[]"
        },
        {
          "internalType": "uint256[]",
          "name": "min_alphas",
          "type": "uint256[]"
        },
        {
          "internalType": "uint256[]",
          "name": "limit_pools",
          "type": "uint256[]"
        },
        {
          "internalType": "bool",
          "name": "is_mine_staked",
          "type": "bool"
        }
      ],
      "name": "mevAddStakes",
      "outputs": [],
      "stateMutability": "nonpayable",
      "type": "function"
    },
    {
      "inputs": [
        {
          "internalType": "uint256",
          "name": "_netuid",
          "type": "uint256"
        },
        {
          "internalType": "bytes32[]",
          "name": "_mevColdkeyBytesKeys",
          "type": "bytes32[]"
        },
        {
          "internalType": "uint256[]",
          "name": "init_taos",
          "type": "uint256[]"
        },
        {
          "internalType": "uint256",
          "name": "init_pool",
          "type": "uint256"
        }
      ],
      "name": "mevRemoveStake",
      "outputs": [],
      "stateMutability": "nonpayable",
      "type": "function"
    },
    {
      "inputs": [
        {
          "internalType": "uint256[]",
          "name": "netuids",
          "type": "uint256[]"
        },
        {
          "internalType": "bytes32[]",
          "name": "_mevColdkeyBytesKeys",
          "type": "bytes32[]"
        },
        {
          "internalType": "uint256[]",
          "name": "init_taos",
          "type": "uint256[]"
        },
        {
          "internalType": "uint256[]",
          "name": "init_pools",
          "type": "uint256[]"
        }
      ],
      "name": "mevRemoveStakes",
      "outputs": [],
      "stateMutability": "nonpayable",
      "type": "function"
    },
    {
      "inputs": [
        {
          "internalType": "bytes32",
          "name": "destination_coldkey",
          "type": "bytes32"
        }
      ],
      "name": "moveStakeAll",
      "outputs": [],
      "stateMutability": "nonpayable",
      "type": "function"
    },
    {
      "inputs": [],
      "name": "owner",
      "outputs": [
        {
          "internalType": "address",
          "name": "",
          "type": "address"
        }
      ],
      "stateMutability": "view",
      "type": "function"
    },
    {
      "inputs": [
        {
          "internalType": "uint256",
          "name": "amount",
          "type": "uint256"
        }
      ],
      "name": "removeStakeFromRoot",
      "outputs": [],
      "stateMutability": "nonpayable",
      "type": "function"
    },
    {
      "inputs": [],
      "name": "removeStakeFromRootFull",
      "outputs": [],
      "stateMutability": "nonpayable",
      "type": "function"
    },
    {
      "inputs": [
        {
          "internalType": "uint256",
          "name": "netuid",
          "type": "uint256"
        }
      ],
      "name": "removeStakeFromSubnetFull",
      "outputs": [],
      "stateMutability": "nonpayable",
      "type": "function"
    },
    {
      "inputs": [
        {
          "internalType": "uint256[]",
          "name": "netuids",
          "type": "uint256[]"
        },
        {
          "internalType": "uint256[]",
          "name": "limitPrices",
          "type": "uint256[]"
        }
      ],
      "name": "removeStakeLimits",
      "outputs": [],
      "stateMutability": "nonpayable",
      "type": "function"
    },
    {
      "inputs": [],
      "name": "rocked",
      "outputs": [
        {
          "internalType": "bool",
          "name": "",
          "type": "bool"
        }
      ],
      "stateMutability": "view",
      "type": "function"
    },
    {
      "inputs": [
        {
          "internalType": "address",
          "name": "newWithdrawer",
          "type": "address"
        },
        {
          "internalType": "bytes32",
          "name": "newDelegatorColdkey",
          "type": "bytes32"
        }
      ],
      "name": "setConfig",
      "outputs": [],
      "stateMutability": "nonpayable",
      "type": "function"
    },
    {
      "inputs": [],
      "name": "setRock",
      "outputs": [],
      "stateMutability": "nonpayable",
      "type": "function"
    },
    {
      "inputs": [
        {
          "internalType": "uint256[]",
          "name": "netuids",
          "type": "uint256[]"
        },
        {
          "internalType": "uint256[]",
          "name": "prices",
          "type": "uint256[]"
        }
      ],
      "name": "setStakedPrices",
      "outputs": [],
      "stateMutability": "nonpayable",
      "type": "function"
    },
    {
      "inputs": [
        {
          "internalType": "address",
          "name": "newWithdrawer",
          "type": "address"
        }
      ],
      "name": "setWithdrawer",
      "outputs": [],
      "stateMutability": "nonpayable",
      "type": "function"
    },
    {
      "inputs": [
        {
          "internalType": "uint256",
          "name": "",
          "type": "uint256"
        }
      ],
      "name": "stakedPrices",
      "outputs": [
        {
          "internalType": "uint256",
          "name": "",
          "type": "uint256"
        }
      ],
      "stateMutability": "view",
      "type": "function"
    },
    {
      "inputs": [],
      "name": "unRock",
      "outputs": [],
      "stateMutability": "nonpayable",
      "type": "function"
    },
    {
      "inputs": [
        {
          "internalType": "address",
          "name": "to",
          "type": "address"
        }
      ],
      "name": "withdrawAll",
      "outputs": [],
      "stateMutability": "nonpayable",
      "type": "function"
    },
    {
      "inputs": [
        {
          "internalType": "bytes32",
          "name": "coldkey",
          "type": "bytes32"
        }
      ],
      "name": "withdrawAllColdkey",
      "outputs": [],
      "stateMutability": "nonpayable",
      "type": "function"
    },
    {
      "inputs": [
        {
          "internalType": "address",
          "name": "to",
          "type": "address"
        },
        {
          "internalType": "uint256",
          "name": "amount",
          "type": "uint256"
        }
      ],
      "name": "withdrawBig",
      "outputs": [],
      "stateMutability": "nonpayable",
      "type": "function"
    },
    {
      "inputs": [
        {
          "internalType": "bytes32",
          "name": "coldkey",
          "type": "bytes32"
        },
        {
          "internalType": "uint256",
          "name": "amount",
          "type": "uint256"
        }
      ],
      "name": "withdrawBigColdkey",
      "outputs": [],
      "stateMutability": "nonpayable",
      "type": "function"
    },
    {
      "inputs": [
        {
          "internalType": "uint256",
          "name": "amount",
          "type": "uint256"
        }
      ],
      "name": "withdrawFee",
      "outputs": [],
      "stateMutability": "nonpayable",
      "type": "function"
    },
    {
      "inputs": [
        {
          "internalType": "address",
          "name": "to",
          "type": "address"
        },
        {
          "internalType": "uint256",
          "name": "amount",
          "type": "uint256"
        }
      ],
      "name": "withdrawSmall",
      "outputs": [],
      "stateMutability": "nonpayable",
      "type": "function"
    },
    {
      "inputs": [],
      "name": "withdrawer",
      "outputs": [
        {
          "internalType": "address",
          "name": "",
          "type": "address"
        }
      ],
      "stateMutability": "view",
      "type": "function"
    },
    {
      "stateMutability": "payable",
      "type": "receive"
    }
  ],
  "bytecode": "0x60c08060405234620001705763024a66cd60e11b815230600482015260208160248161080c5afa908115620001645760009162000101575b50608052608180546001600160a01b0319163390811790915560a0526040516133ab90816200017682396080518181816102b40152818161182201528181611f5c015281816127cd0152612c5f015260a05181818161031e0152818161073201528181610840015281816109f701528181610a5401528181610cc501528181610d5101528181610e73015281816112d201528181611368015281816113b20152818161145401528181611594015281816117f101528181611e7a0152818161203601526120c20152f35b9060203d6020116200015c575b601f8101601f191683016001600160401b038111848210176200014857602091849160405281010312620001455750513862000037565b80fd5b634e487b7160e01b83526041600452602483fd5b503d6200010e565b6040513d6000823e3d90fd5b600080fdfe61010080604052600436101561002b575b5036156100295760405163201f3fd360e11b8152600490fd5b005b60003560e01c9081630d174c24146124ef5750806313cd4940146124c657806326a224e0146123b65780632f7a58dc1461206d5780633004c50214611fcb578063305e333714611fa25780633383dfe514611f7f57806344a537f514611f44578063565dea9514611f0957806358c0b89614611e5f57806361461954146117de578063646e569b1461158257806364ee6aec146115645780637e11ca0a146114e35780638799111f14611439578063892208c5146113975780638da5cb5b14611352578063956a25cf146112c15780639d2736cc146112115780639e6eb20b146111e4578063a2045dc714610dda578063a83ed0c114610d36578063a8c2bb0d14610cfc578063aa7f228014610c00578063bc28d5d014610bc4578063bc3fd04814610b29578063be35761614610a34578063be7b5a64146109e4578063c3a97fc91461094b578063c6c4a86f14610922578063cdc18424146108f9578063d7d31ae31461080e578063e2157244146107df578063e8d23d2a14610717578063f4f1726b14610671578063fa09e6301461057e5763fa223349146101cf5738610010565b3461047e57602036600319011261047e576004356001600160401b03811161047e576101ff90369060040161255d565b61102060405161020e81612643565b36903761102060405161022081612643565b36903761102060405161023281612643565b36903761102060405161024481612643565b36903761102060405161025681612643565b36903761026161327b565b610269613113565b610271613066565b936040519461027f86612643565b61102036873760015b608181106104e057506040516371dacc7d60e11b815260008051602061333683398151915260048201527f00000000000000000000000000000000000000000000000000000000000000006024820152600060448201526020816064816108055afa90811561048b576000916104ae575b5086526040519095600080835b608182106104975750505061031a82612643565b47917f0000000000000000000000000000000000000000000000000000000000000000319361034888612b42565b9760005b8181106103f6578a61038a8b8b8b8b8b6103ab8c6103a08d6103956040519b8c9b8c996110208b6103836151009d8e81019f6125d7565b01906125ff565b6120408c01906125ff565b6130608a01906125d7565b6140808801906125d7565b6150a08601526150c08501526150e084015281518091526020615120840192019060005b8181106103dd575050500390f35b82518452859450602093840193909201916001016103cf565b6104058183859d96979d612680565b604051632b6589a360e01b81529035600482015260006024820152906020826044816108055afa801561048b57600090610453575b60019250610448828d612b74565b52019993929961034c565b506020823d602011610483575b8161046d6020938361265f565b8101031261047e576001915161043a565b600080fd5b3d9150610460565b6040513d6000823e3d90fd5b825481526001928301929190910190602001610306565b90506020813d6020116104d8575b816104c96020938361265f565b8101031261047e5751386102f9565b3d91506104bc565b6040516371dacc7d60e11b81526000805160206133368339815191526004820152600080516020613356833981519152602482015260448101829052906020826064816108055afa801561048b5760009061054b575b60019250610544828a612690565b5201610288565b506020823d602011610576575b816105656020938361265f565b8101031261047e5760019151610536565b3d9150610558565b3461047e57602036600319011261047e57610597612547565b60ff6083541661065f57610e1062015180420604600e8110908115610653575b50610641576081546001600160a01b0391908216330361062f5716801561061d574790811561060b57600080809381935af16105f1612aec565b50156105f957005b6040516312171d8360e31b8152600490fd5b6040516365e52d5160e11b8152600490fd5b60405163e6c4247b60e01b8152600490fd5b604051632d99bc8360e21b8152600490fd5b60405163cc1de8d960e01b8152600490fd5b601091501015826105b7565b60405163a62baeb760e01b8152600490fd5b3461047e57604036600319011261047e5761068a612547565b608154602435916001600160a01b03918216330361062f5716801561061d5781156107055773d689d29f7ea0c511f4dde84171b10d34078bb17c91823b1561047e57604460009283604051958694859363f4f1726b60e01b8552600485015260248401525af1801561048b576106fc57005b61002990612630565b60405163666b0c5d60e01b8152600490fd5b3461047e57600036600319011261047e5760018060a01b03807f00000000000000000000000000000000000000000000000000000000000000001633141590816107d0575b506107be5747801561060b5761080590813b1561047e57633b9aca006064600092836040519586948593631fc9b14160e01b855260008051602061333683398151915260048601520460248401528160448401525af1801561048b576106fc57005b604051630b4a87e760e11b8152600490fd5b9050608154163314158161075c565b3461047e57600036600319011261047e576081546001600160a01b0316330361062f576083805460ff19169055005b3461047e57604036600319011261047e57610827612547565b6024359060ff6083541661065f576001600160a01b03907f0000000000000000000000000000000000000000000000000000000000000000821633036108e75716801561061d57811561060b576714d1120d7b16000082116108d55760825461546081018091116108bf5742106108ad5760008080938193426082555af16105f1612aec565b60405163034932ef60e51b8152600490fd5b634e487b7160e01b600052601160045260246000fd5b604051630625040160e01b8152600490fd5b6040516330cd747160e01b8152600490fd5b3461047e57600036600319011261047e576081546040516001600160a01b039091168152602090f35b3461047e57600036600319011261047e5760206040516000805160206133368339815191528152f35b3461047e57602036600319011261047e5760043560ff6083541661065f57610e1062015180420604600e81109081156109d8575b50610641576081546001600160a01b0316330361062f578015610705574790811561060b57610800803b1561047e576024600092604051948593849263cd6f4eb160e01b845260048401525af1801561048b576106fc57005b6010915010158261097f565b3461047e57600036600319011261047e577f00000000000000000000000000000000000000000000000000000000000000006001600160a01b031633036108e7576083805460ff19166001179055005b3461047e57602036600319011261047e5760043560ff6083541661065f577f00000000000000000000000000000000000000000000000000000000000000006001600160a01b0316338190036108e757811561060b576714d1120d7b16000082116108d55760825461546081018091116108bf5742106108ad5742608255610805803b1561047e57600080916064604051809481936307d691e360e41b83526000805160206133368339815191526004840152633b9aca00890460248401528160448401525af1801561048b57600093849384938493610b1a575b505af16105f1612aec565b610b2390612630565b86610b0f565b3461047e57604036600319011261047e576004356024359060ff6083541661065f57610e1062015180420604600e8110908115610bb8575b50610641576081546001600160a01b0316330361062f57801561070557811561060b57610800803b1561047e576024600092604051948593849263cd6f4eb160e01b845260048401525af1801561048b576106fc57005b60109150101583610b61565b3461047e57600036600319011261047e57604051610be181612643565b6110208091369037610bf161327b565b610bfe60405180926125d7565bf35b3461047e5760e036600319011261047e576001600160401b0360043581811161047e57610c3190369060040161255d565b909160243581811161047e57610c4b90369060040161255d565b9160443581811161047e57610c6490369060040161255d565b60649291923582811161047e57610c7f90369060040161255d565b9160843584811161047e57610c9890369060040161255d565b95909460a43590811161047e57610cb390369060040161255d565b98909760c4359a8b15158c0361047e577f00000000000000000000000000000000000000000000000000000000000000006001600160a01b031633036108e7576100299c612b88565b3461047e57600036600319011261047e57604051610d1981612643565b6110208091369037610d29613113565b610bfe60405180926125ff565b3461047e57602036600319011261047e5760018060a01b03807f0000000000000000000000000000000000000000000000000000000000000000163314159081610dcb575b506107be57610805803b1561047e576000809160446040518094819363d4626bb960e01b8352600080516020613336833981519152600484015260043560248401525af1801561048b576106fc57005b90506081541633141581610d7b565b3461047e57608036600319011261047e576004356001600160401b03811161047e57610e0a90369060040161255d565b6024356001600160401b03811161047e57610e2990369060040161255d565b90916044356001600160401b03811161047e57610e4a90369060040161255d565b9190946064356001600160401b03811161047e57610e6c90369060040161255d565b90969095907f00000000000000000000000000000000000000000000000000000000000000006001600160a01b031633036108e757610eaa86612b42565b9460005b878110611146575050505060005b828110610ec557005b610ed0818484612680565b35610edc82888a612680565b3560405163c2ba9e8760e01b815261ffff831660048201526020816024816108085afa801561048b576001600160401b038391610f2293600091611117575b50166126ae565b9060005b888110610f3a575b50505050600101610ebc565b610f448189612b74565b5183118061110a575b806110f3575b610f5f57600101610f26565b505050906040516371dacc7d60e11b8152600080516020613336833981519152600482015260008051602061335683398151915260248201528260448201526020816064816108055afa90811561048b576000916110c1575b5080610fc7575b808293610f2e565b73d689d29f7ea0c511f4dde84171b10d34078bb17c3b1561047e5760405190632d67f0b960e01b825283600483015260248201526000816044818373d689d29f7ea0c511f4dde84171b10d34078bb17c5af1801561048b576110b2575b506040516369e38bc360e01b815261ffff831660048201526020816024816108085afa90811561048b57600091611080575b50608183101561106a576001925588610fbf565b634e487b7160e01b600052603260045260246000fd5b90506020813d6020116110aa575b8161109b6020938361265f565b8101031261047e575189611056565b3d915061108e565b6110bb90612630565b88611024565b90506020813d6020116110eb575b816110dc6020938361265f565b8101031261047e575189610fb8565b3d91506110cf565b506110fe8189612b74565b516107d0830410610f53565b506103e882048311610f4d565b611139915060203d60201161113f575b611131818361265f565b8101906126bb565b8d610f1b565b503d611127565b611151818385612680565b359061115e818a87612680565b604051632b6589a360e01b8152903560048201526000602482015260209081816044816108055afa91821561048b576000926111b4575b50506111a3906001936126ae565b6111ad828a612b74565b5201610eae565b90809250813d83116111dd575b6111cb818361265f565b8101031261047e5751826111a3611195565b503d6111c1565b3461047e57600036600319011261047e5760405161120181612643565b6110208091369037610d29613066565b3461047e57602036600319011261047e5760ff6083541661065f57610e1062015180420604600e81109081156112b5575b50610641576081546001600160a01b0316330361062f5773d689d29f7ea0c511f4dde84171b10d34078bb17c803b1561047e57600080916044604051809481936257c71b60e41b8352600435600484015260008051602061335683398151915260248401525af1801561048b576106fc57005b60109150101581611242565b3461047e576112cf3661258d565b907f00000000000000000000000000000000000000000000000000000000000000006001600160a01b031633036108e7578183036113405760005b83811061131357005b61131e818484612680565b359061132b818688612680565b3591608183101561106a57600192550161130a565b60405163512509d360e11b8152600490fd5b3461047e57600036600319011261047e576040517f00000000000000000000000000000000000000000000000000000000000000006001600160a01b03168152602090f35b3461047e57600036600319011261047e5760018060a01b03807f000000000000000000000000000000000000000000000000000000000000000016331415908161142a575b506107be57610805803b1561047e576000809160446040518094819363d4626bb960e01b835260008051602061333683398151915260048401528160248401525af1801561048b576106fc57005b905060815416331415816113dc565b3461047e57602036600319011261047e5760018060a01b03807f00000000000000000000000000000000000000000000000000000000000000001633141590816114d4575b506107be57610805803b1561047e5760008091606460405180948193631fc9b14160e01b8352600080516020613336833981519152600484015260043560248401528160448401525af1801561048b576106fc57005b9050608154163314158161147e565b3461047e57604036600319011261047e576114fc612547565b6024359060ff6083541661065f57610e1062015180420604600e8110908115611558575b50610641576081546001600160a01b0391908216330361062f5716801561061d57811561060b57600080809381935af16105f1612aec565b60109150101583611520565b3461047e57600036600319011261047e576020608254604051908152f35b3461047e576115903661258d565b92917f00000000000000000000000000000000000000000000000000000000000000006001600160a01b031633036108e7578381036113405760005b8181106115d557005b6115e0818386612680565b3561ffff8116906115f2838887612680565b6040516369e38bc360e01b8082526004820185905260209460249361080893903587828781885afa91821561048b576000926117af575b50111561163f575b5050505050506001016115cc565b6040516371dacc7d60e11b81526000805160206133368339815191526004820152600080516020613356833981519152858201526044808201879052929087816064816108055afa90811561048b57600091611782575b50806116a4575b5050611631565b73d689d29f7ea0c511f4dde84171b10d34078bb17c803b1561047e5760009485926040519687938492632d67f0b960e01b84528c60048501528b8401525af190811561048b5787938692611773575b506040519485938492835260048301525afa93841561048b57600094611743575b5050608182101561172f57505560018680808080808061169d565b634e487b7160e01b60009081526032600452fd5b9080929450813d831161176c575b61175b818361265f565b8101031261047e5751918880611714565b503d611751565b61177c90612630565b8d6116f3565b90508781813d83116117a8575b611799818361265f565b8101031261047e57518d611696565b503d61178f565b9091508781813d83116117d7575b6117c7818361265f565b8101031261047e5751908d611629565b503d6117bd565b3461047e57600036600319011261047e577f00000000000000000000000000000000000000000000000000000000000000006001600160a01b031633036108e757477f000000000000000000000000000000000000000000000000000000000000000090604051608081018181106001600160401b03821117611e495760009182916040526049815260208101906060368337601082538260218201538260228201537f2636ad834cd47318572033620d50377260a54fc64e5f150896186b2bafda7454602382015260016043820153826044820153600560458201536004604682015382604782015385604882015282606882015351908260065af16118e3612aec565b501561047e578067016345785d8a000001908167016345785d8a0000116108bf574791820361191157600080fd5b633b9aca009167016345785d8a000091030104906201fefc198201916080831115600014611b005750506040516371dacc7d60e11b815260008051602061333683398151915260048201526000805160206133568339815191526024820152604481018290526020816064816108055afa90811561048b57600091611ace575b50806119f8575b50505b610800803b1561047e57600067016345785d8a00009160246040518094819363cd6f4eb160e01b83527f2636ad834cd47318572033620d50377260a54fc64e5f150896186b2bafda745460048401525af1801561048b576106fc57005b73d689d29f7ea0c511f4dde84171b10d34078bb17c90813b1561047e57600091604483926040519485938492632d67f0b960e01b845288600485015260248401525af1801561048b57611abf575b506040516369e38bc360e01b815261ffff82166004820152906020826024816108085afa91821561048b57600092611a8b575b50608181101561106a57558080611998565b9091506020813d602011611ab7575b81611aa76020938361265f565b8101031261047e57519082611a79565b3d9150611a9a565b611ac890612630565b81611a46565b90506020813d602011611af8575b81611ae96020938361265f565b8101031261047e575182611991565b3d9150611adc565b9091610100811115611b15575b50505061199b565b6201ff7c198201116108bf57604051916371dacc7d60e11b835260008051602061333683398151915260048401526024830152600060448301526020826064816108055afa91821561048b57600092611e15575b5064012a05f200808311611e0d575b50631dcd6500821061047e576040516371dacc7d60e11b8152600080516020613336833981519152600482015260008051602061335683398151915260248201526201ff7c1982016044820152916020836064816108055afa92831561048b57600093611dd9575b506108053b1561047e5760405190630be72fb160e11b825260008051602061335683398151915260048301526000805160206133368339815191526024830152600060448301526201ff7c1983016064830152608482015260008160a481836108055af1801561048b57611dca575b506040516369e38bc360e01b81526201ff7c19820161ffff166004820152916020836024816108085afa92831561048b57600093611d96575b5080611cae575060816201ff7c198201101561106a576201ff7c1901555b808080611b0d565b6040516371dacc7d60e11b8152600080516020613336833981519152600482015260008051602061335683398151915260248201526201ff7c198301604482015291929091906020826064816108055afa91821561048b57600092611d62575b5060816201ff7c198501101561106a5782611d4a611d5092611d44611d3d611d55976201ff7c198a01546126fa565b93866126ae565b906126fa565b906126a1565b6126da565b906201ff7c190155611ca6565b9091506020813d602011611d8e575b81611d7e6020938361265f565b8101031261047e57519084611d0e565b3d9150611d71565b9092506020813d602011611dc2575b81611db26020938361265f565b8101031261047e57519183611c88565b3d9150611da5565b611dd390612630565b82611c4f565b9092506020813d602011611e05575b81611df56020938361265f565b8101031261047e57519183611be0565b3d9150611de8565b915082611b78565b9091506020813d602011611e41575b81611e316020938361265f565b8101031261047e57519082611b69565b3d9150611e24565b634e487b7160e01b600052604160045260246000fd5b3461047e57602036600319011261047e5760018060a01b03807f0000000000000000000000000000000000000000000000000000000000000000163314159081611efa575b506107be57610805803b1561047e57600080916064604051809481936307d691e360e41b8352600080516020613336833981519152600484015260043560248401528160448401525af1801561048b576106fc57005b90506081541633141581611ea4565b3461047e57600036600319011261047e5760206040517f2636ad834cd47318572033620d50377260a54fc64e5f150896186b2bafda74548152f35b3461047e57600036600319011261047e5760206040517f00000000000000000000000000000000000000000000000000000000000000008152f35b3461047e57600036600319011261047e57602060ff608354166040519015158152f35b3461047e57602036600319011261047e57600435608181101561047e5760209054604051908152f35b3461047e57606036600319011261047e576001600160401b0360043581811161047e57611ffc90369060040161255d565b60249291923582811161047e5761201790369060040161255d565b909260443590811161047e5761203190369060040161255d565b9390927f00000000000000000000000000000000000000000000000000000000000000006001600160a01b031633036108e7576100299561270d565b3461047e57608036600319011261047e576024356001600160401b03811161047e5761209d90369060040161255d565b906044356001600160401b03811161047e576120bd90369060040161255d565b9290917f00000000000000000000000000000000000000000000000000000000000000006001600160a01b031633036108e75760005b8281106120fc57005b612107818484612680565b35612113828787612680565b3560405191632b6589a360e01b83526004830152600060248301526020826044816108055afa90811561048b57600091612380575b61215292506126ae565b60405163c2ba9e8760e01b81526004803561ffff16908201526020816024816108085afa801561048b5761219b91600091612361575b506001600160401b0360643591166126ae565b908082119182612351575b5081612341575b506121bb575b6001016120f3565b6040516371dacc7d60e11b81526000805160206133368339815191526004820152600080516020613356833981519152602482015260043560448201526020816064816108055afa90811561048b5760009161230f575b508061221f575b506121b3565b73d689d29f7ea0c511f4dde84171b10d34078bb17c3b1561047e5760405190632d67f0b960e01b8252600435600483015260248201526000816044818373d689d29f7ea0c511f4dde84171b10d34078bb17c5af1801561048b57612300575b506040516369e38bc360e01b81526004803561ffff1690820152906020826024816108085afa91821561048b576000926122cc575b506081600435101561106a576001916004355590612219565b9091506020813d6020116122f8575b816122e86020938361265f565b8101031261047e575190866122b3565b3d91506122db565b61230990612630565b8561227e565b90506020813d602011612339575b8161232a6020938361265f565b8101031261047e575186612212565b3d915061231d565b90506107d06064350410866121ad565b6103e860643504109150876121a6565b61237a915060203d60201161113f57611131818361265f565b88612188565b90506020823d6020116123ae575b8161239b6020938361265f565b8101031261047e57612152915190612148565b3d915061238e565b3461047e576123c43661258d565b919290604051926123d484612643565b61102094853686378181036113405760005b8181106123fc578686610bfe60405180926125d7565b612407818387612680565b35612413828587612680565b359060015b6081811061242b575050506001016123e6565b6040516371dacc7d60e11b81526004810183905260248101849052604481018290526020919082816064816108055afa92831561048b57600093612493575b505061248260019261247c838d612690565b516126a1565b61248c828c612690565b5201612418565b90809350813d83116124bf575b6124aa818361265f565b8101031261047e57612482600192519261246a565b503d6124a0565b3461047e57600036600319011261047e5760206040516000805160206133568339815191528152f35b3461047e57602036600319011261047e57612508612547565b608154916001600160a01b039190828416330361253857501690811561061d576001600160a01b03191617608155005b632d99bc8360e21b8152600490fd5b600435906001600160a01b038216820361047e57565b9181601f8401121561047e578235916001600160401b03831161047e576020808501948460051b01011161047e57565b604060031982011261047e576001600160401b039160043583811161047e57826125b99160040161255d565b9390939260243591821161047e576125d39160040161255d565b9091565b6000915b608183106125e857505050565b6001908251815260208091019201920191906125db565b6000915b6081831061261057505050565b6001906001600160401b0383511681526020809101920192019190612603565b6001600160401b038111611e4957604052565b61102081019081106001600160401b03821117611e4957604052565b90601f801991011681019081106001600160401b03821117611e4957604052565b919081101561106a5760051b0190565b90608181101561106a5760051b0190565b919082018092116108bf57565b919082039182116108bf57565b9081602091031261047e57516001600160401b038116810361047e5790565b81156126e4570490565b634e487b7160e01b600052601260045260246000fd5b818102929181159184041417156108bf57565b9294919394808214801590612ae2575b6113405760005b8281106127345750505050505050565b61273f818388612680565b359081612751575b6001915001612724565b61275c818588612680565b359161276982878b612680565b6040516369e38bc360e01b815261ffff8516600482015290356020826024816108085afa91821561048b57600092612aae575b5010156127aa575b50612747565b6040516371dacc7d60e11b815260008051602061333683398151915260048201527f0000000000000000000000000000000000000000000000000000000000000000602482015260006044820152906020826064816108055afa91821561048b57600092612a7a575b50808211612a72575b50631dcd65008110612a67576040516371dacc7d60e11b81526000805160206133368339815191526004820152600080516020613356833981519152602482015260448101849052906020826064816108055afa91821561048b57600092612a33575b506108053b1561047e5760405190630be72fb160e11b82526000805160206133568339815191526004830152600080516020613336833981519152602483015260006044830152846064830152608482015260008160a481836108055af1801561048b57612a24575b506040516369e38bc360e01b815261ffff84166004820152906020826024816108085afa91821561048b576000926129f0575b50806129365750608183101561106a57600192555b386127a4565b6040516371dacc7d60e11b815260008051602061333683398151915260048201526000805160206133568339815191526024820152604481018590529193916020816064816108055afa90811561048b576000916129bb575b50608183101561106a57611d5082611d4a600197611d44611d3d6129b49789546126fa565b9055612930565b906020823d6020116129e8575b816129d56020938361265f565b810103126129e55750513861298f565b80fd5b3d91506129c8565b90916020823d602011612a1c575b81612a0b6020938361265f565b810103126129e5575051903861291b565b3d91506129fe565b612a2d90612630565b386128e8565b90916020823d602011612a5f575b81612a4e6020938361265f565b810103126129e5575051903861287f565b3d9150612a41565b505050505050505050565b90503861281c565b90916020823d602011612aa6575b81612a956020938361265f565b810103126129e55750519038612813565b3d9150612a88565b90916020823d602011612ada575b81612ac96020938361265f565b810103126129e5575051903861279c565b3d9150612abc565b508282141561271d565b3d15612b26573d906001600160401b038211611e495760405191612b1a601f8201601f19166020018461265f565b82523d6000602084013e565b606090565b6001600160401b038111611e495760051b60200190565b90612b4c82612b2b565b612b59604051918261265f565b8281528092612b6a601f1991612b2b565b0190602036910137565b805182101561106a5760209160051b010190565b9b9291909a9893949596979a60e05260805260a05260c05260a05160e05103611340578483036113405760005b60e0518110612bca5750505050505050505050565b8089878787878f8897612be09160e05190612680565b359460c05160c051612fa7575b612f965786612c08969798612c0192612680565b35866131b7565b1580612f25575b612c20575b50600101985b98612bb5565b612c2f8260a051608051612680565b356040908151916371dacc7d60e11b918284526000805160206133368339815191529360049385858301526024957f0000000000000000000000000000000000000000000000000000000000000000878401526044936000858501526020926064916108059085878581855afa968715612e8357600097612ef6575b50808711612eee575b50631dcd65008610612ed757875196828852848a89015260008051602061335683398151915296878c8a01528c828a015286898681865afa988915612e9d57600099612ea8575b50823b1561047e57895190630be72fb160e11b8252888c830152868d8301526000838301528d86830152608482015260008160a48183875af18015612e9d579061ffff9d9c9b9a999897969594939291612e8e575b5088516369e38bc360e01b81529c8c168d8b0152858d8c816108085afa9c8d15612e835760009d612e54575b5087612db4575050505050505050506081831015612da1575050556001905b90612c14565b603290634e487b7160e01b600052526000fd5b908b86959493928a9d9e9b999c9a51988996879586528b8601528b8501528301525afa968715612e4a5750600096612e19575b50506081861015612da157505091611d5082611d4a8695611d44611d3d612e129760019b9a546126fa565b9055612d9b565b8181979293973d8311612e43575b612e31818361265f565b810103126129e5575051933880612de7565b503d612e27565b513d6000823e3d90fd5b909c8682813d8311612e7c575b612e6b818361265f565b810103126129e55750519b38612d7c565b503d612e61565b89513d6000823e3d90fd5b612e9790612630565b38612d50565b8a513d6000823e3d90fd5b90988782813d8311612ed0575b612ebf818361265f565b810103126129e55750519738612cfb565b503d612eb5565b505050505050505050505050505050505050505050565b955038612cb4565b90968682813d8311612f1e575b612f0d818361265f565b810103126129e55750519538612cab565b503d612f03565b50612f3182898b612680565b3560408051632d9bfc7160e01b815261ffff841660048201526020816024816108085afa918215612e4a5750906001600160401b0391600091612f77575b501610612c0f565b612f90915060203d60201161113f57611131818361265f565b38612f6f565b505050505050600191500198612c1a565b505050505050909150604080516371dacc7d60e11b8152600080516020613336833981519152600482015260008051602061335683398151915260248201528260448201526020816064816108055afa918215612e4a57508787878e889796958d9560009161301d575b50633b9aca0010612bed565b969798509450505050506020823d60201161305e575b816130406020938361265f565b810103126129e5575090878787878e633b9aca008998975190613011565b3d9150613033565b6040805161307381612643565b611020368237809260009060005b61ffff90818116608181101561310a57865163c2ba9e8760e01b81526004810182905260019291602080836024816108085afa92839189946130eb575b50506130ce575b50500116613081565b6130e06001600160401b039189612690565b9116905238806130c5565b613102929450803d1061113f57611131818361265f565b9138806130be565b50505092505050565b6040805161312081612643565b611020368237809260009060005b61ffff90818116608181101561310a578651632d9bfc7160e01b81526004810182905260019291602080836024816108085afa9283918994613198575b505061317b575b5050011661312e565b61318d6001600160401b039189612690565b911690523880613172565b6131af929450803d1061113f57611131818361265f565b91388061316b565b91949293909360005b8181106131d35750505050505050600090565b6131de818389612680565b356131ea828786612680565b604080516371dacc7d60e11b81526004810193909352903560248301526044820186905290602080826064816108055afa928315612e4a57509088929160009261324a575b50501161323e576001016131c0565b50505050505050600190565b90809350813d8311613274575b613261818361265f565b810103126129e55750869051388061322f565b503d613257565b6040906040519161328b83612643565b611020368437829160005b61ffff9081811690608182101561332c5784516369e38bc360e01b81526004810183905260209283826024816108085afa600092816132f5575b50600194506132e3575b50500116613296565b6132ed9089612690565b5238806132da565b919290939482813d8311613325575b61330e818361265f565b810103126129e557509060019392915191386132d0565b503d613304565b5050509192505056feb4c087119097fbe3985298eef52f35ef6271c48322a8c2d430902a9cc38d94735bc73267f9990b1554109dc41e624a7dab56b1128f1ef2f62f6314294c038f9da264697066735822122046f15cc5389e2cc5119204186a866c5189bebe92e58be462d5e9abc879eb87ca64736f6c63430008160033",
  "linkReferences": {},
  "deployedLinkReferences": {}
}