{
  "_format": "hh-sol-artifact-1",
  "contractName": "TradingV8_2",
  "sourceName": "contracts/TradingV8_2.sol",
  "abi": [
    {
      "inputs": [],
      "stateMutability": "nonpayable",
      "type": "constructor"
    },
    {
      "inputs": [],
      "name": "AmountTooLarge",
      "type": "error"
    },
    {
      "inputs": [],
      "name": "AmountZero",
      "type": "error"
    },
    {
      "inputs": [],
      "name": "ArrayLengthMismatch",
      "type": "error"
    },
    {
      "inputs": [],
      "name": "FunctionNotFound",
      "type": "error"
    },
    {
      "inputs": [],
      "name": "InvalidAddress",
      "type": "error"
    },
    {
      "inputs": [],
      "name": "InvalidBytesKey",
      "type": "error"
    },
    {
      "inputs": [],
      "name": "NotOwner",
      "type": "error"
    },
    {
      "inputs": [],
      "name": "NotOwnerOrWithdrawer",
      "type": "error"
    },
    {
      "inputs": [],
      "name": "NotWithdrawer",
      "type": "error"
    },
    {
      "inputs": [],
      "name": "OutsideWithdrawWindow",
      "type": "error"
    },
    {
      "inputs": [],
      "name": "Rocked",
      "type": "error"
    },
    {
      "inputs": [],
      "name": "TransferFailed",
      "type": "error"
    },
    {
      "inputs": [],
      "name": "WithdrawTooSoon",
      "type": "error"
    },
    {
      "stateMutability": "payable",
      "type": "fallback"
    },
    {
      "inputs": [],
      "name": "DELEGATOR_COLDKEY",
      "outputs": [
        {
          "internalType": "bytes32",
          "name": "",
          "type": "bytes32"
        }
      ],
      "stateMutability": "view",
      "type": "function"
    },
    {
      "inputs": [],
      "name": "DELEGATOR_HOTKEY",
      "outputs": [
        {
          "internalType": "bytes32",
          "name": "",
          "type": "bytes32"
        }
      ],
      "stateMutability": "view",
      "type": "function"
    },
    {
      "inputs": [
        {
          "internalType": "uint256[]",
          "name": "netuids",
          "type": "uint256[]"
        },
        {
          "internalType": "uint256[]",
          "name": "amounts",
          "type": "uint256[]"
        },
        {
          "internalType": "uint256[]",
          "name": "limitPrices",
          "type": "uint256[]"
        }
      ],
      "name": "addStakeLimits",
      "outputs": [],
      "stateMutability": "nonpayable",
      "type": "function"
    },
    {
      "inputs": [
        {
          "internalType": "uint256",
          "name": "amount",
          "type": "uint256"
        }
      ],
      "name": "addStakeToRoot",
      "outputs": [],
      "stateMutability": "nonpayable",
      "type": "function"
    },
    {
      "inputs": [],
      "name": "addStakeToRootFull",
      "outputs": [],
      "stateMutability": "nonpayable",
      "type": "function"
    },
    {
      "inputs": [],
      "name": "contractBytesKey",
      "outputs": [
        {
          "internalType": "bytes32",
          "name": "",
          "type": "bytes32"
        }
      ],
      "stateMutability": "view",
      "type": "function"
    },
    {
      "inputs": [],
      "name": "getAlphaInPools",
      "outputs": [
        {
          "internalType": "uint64[129]",
          "name": "alphaInPools",
          "type": "uint64[129]"
        }
      ],
      "stateMutability": "view",
      "type": "function"
    },
    {
      "inputs": [],
      "name": "getAlphaPrices",
      "outputs": [
        {
          "internalType": "uint256[129]",
          "name": "alphaPrices",
          "type": "uint256[129]"
        }
      ],
      "stateMutability": "view",
      "type": "function"
    },
    {
      "inputs": [
        {
          "internalType": "uint256[]",
          "name": "netuids",
          "type": "uint256[]"
        },
        {
          "internalType": "bytes32[]",
          "name": "_mevHotkeyBytesKeys",
          "type": "bytes32[]"
        },
        {
          "internalType": "bytes32[]",
          "name": "_mevColdkeyBytesKeys",
          "type": "bytes32[]"
        }
      ],
      "name": "getMevStakedAmounts",
      "outputs": [
        {
          "internalType": "uint256[]",
          "name": "amounts",
          "type": "uint256[]"
        }
      ],
      "stateMutability": "view",
      "type": "function"
    },
    {
      "inputs": [
        {
          "internalType": "bytes32[]",
          "name": "hotkeys",
          "type": "bytes32[]"
        },
        {
          "internalType": "bytes32[]",
          "name": "coldkeys",
          "type": "bytes32[]"
        }
      ],
      "name": "getStakedAmounts",
      "outputs": [
        {
          "internalType": "uint256[129]",
          "name": "amounts",
          "type": "uint256[129]"
        }
      ],
      "stateMutability": "view",
      "type": "function"
    },
    {
      "inputs": [],
      "name": "getTaoInPools",
      "outputs": [
        {
          "internalType": "uint64[129]",
          "name": "taoInPools",
          "type": "uint64[129]"
        }
      ],
      "stateMutability": "view",
      "type": "function"
    },
    {
      "inputs": [],
      "name": "getTradingInfo",
      "outputs": [
        {
          "internalType": "uint256[129]",
          "name": "alphaPrices",
          "type": "uint256[129]"
        },
        {
          "internalType": "uint64[129]",
          "name": "taoInPools",
          "type": "uint64[129]"
        },
        {
          "internalType": "uint64[129]",
          "name": "alphaInPools",
          "type": "uint64[129]"
        },
        {
          "internalType": "uint256[129]",
          "name": "limitPrices",
          "type": "uint256[129]"
        },
        {
          "internalType": "uint256[129]",
          "name": "stakedAmounts",
          "type": "uint256[129]"
        },
        {
          "internalType": "uint256[]",
          "name": "mevFreeBalances",
          "type": "uint256[]"
        },
        {
          "internalType": "uint256",
          "name": "freeBalance",
          "type": "uint256"
        },
        {
          "internalType": "uint256",
          "name": "ownerBalance",
          "type": "uint256"
        }
      ],
      "stateMutability": "view",
      "type": "function"
    },
    {
      "inputs": [
        {
          "internalType": "uint256",
          "name": "",
          "type": "uint256"
        }
      ],
      "name": "lastLimitPrices",
      "outputs": [
        {
          "internalType": "uint256",
          "name": "",
          "type": "uint256"
        }
      ],
      "stateMutability": "view",
      "type": "function"
    },
    {
      "inputs": [],
      "name": "lastWithdrawSmallTime",
      "outputs": [
        {
          "internalType": "uint256",
          "name": "",
          "type": "uint256"
        }
      ],
      "stateMutability": "view",
      "type": "function"
    },
    {
      "inputs": [
        {
          "internalType": "uint256[]",
          "name": "netuids",
          "type": "uint256[]"
        },
        {
          "internalType": "uint256[]",
          "name": "amounts",
          "type": "uint256[]"
        },
        {
          "internalType": "bytes32[]",
          "name": "_mevHotkeyBytesKeys",
          "type": "bytes32[]"
        },
        {
          "internalType": "bytes32[]",
          "name": "_mevColdkeyBytesKeys",
          "type": "bytes32[]"
        },
        {
          "internalType": "uint256[]",
          "name": "min_alphas",
          "type": "uint256[]"
        },
        {
          "internalType": "bool",
          "name": "is_mine_staked",
          "type": "bool"
        }
      ],
      "name": "mevAddStakes",
      "outputs": [],
      "stateMutability": "nonpayable",
      "type": "function"
    },
    {
      "inputs": [
        {
          "internalType": "uint256",
          "name": "",
          "type": "uint256"
        }
      ],
      "name": "mevAddresses",
      "outputs": [
        {
          "internalType": "address",
          "name": "",
          "type": "address"
        }
      ],
      "stateMutability": "view",
      "type": "function"
    },
    {
      "inputs": [
        {
          "internalType": "uint256[]",
          "name": "netuids",
          "type": "uint256[]"
        },
        {
          "internalType": "bytes32[]",
          "name": "_mevHotkeyBytesKeys",
          "type": "bytes32[]"
        },
        {
          "internalType": "bytes32[]",
          "name": "_mevColdkeyBytesKeys",
          "type": "bytes32[]"
        },
        {
          "internalType": "uint256[]",
          "name": "min_alphas",
          "type": "uint256[]"
        }
      ],
      "name": "mevRemoveStakes",
      "outputs": [],
      "stateMutability": "nonpayable",
      "type": "function"
    },
    {
      "inputs": [
        {
          "internalType": "bytes32",
          "name": "destination_coldkey",
          "type": "bytes32"
        }
      ],
      "name": "moveStakeAll",
      "outputs": [],
      "stateMutability": "nonpayable",
      "type": "function"
    },
    {
      "inputs": [],
      "name": "owner",
      "outputs": [
        {
          "internalType": "address",
          "name": "",
          "type": "address"
        }
      ],
      "stateMutability": "view",
      "type": "function"
    },
    {
      "inputs": [
        {
          "internalType": "uint256",
          "name": "amount",
          "type": "uint256"
        }
      ],
      "name": "removeStakeFromRoot",
      "outputs": [],
      "stateMutability": "nonpayable",
      "type": "function"
    },
    {
      "inputs": [],
      "name": "removeStakeFromRootFull",
      "outputs": [],
      "stateMutability": "nonpayable",
      "type": "function"
    },
    {
      "inputs": [
        {
          "internalType": "uint256",
          "name": "netuid",
          "type": "uint256"
        }
      ],
      "name": "removeStakeFromSubnetFull",
      "outputs": [],
      "stateMutability": "nonpayable",
      "type": "function"
    },
    {
      "inputs": [
        {
          "internalType": "uint256[]",
          "name": "netuids",
          "type": "uint256[]"
        },
        {
          "internalType": "uint256[]",
          "name": "limitPrices",
          "type": "uint256[]"
        }
      ],
      "name": "removeStakeLimits",
      "outputs": [],
      "stateMutability": "nonpayable",
      "type": "function"
    },
    {
      "inputs": [],
      "name": "rocked",
      "outputs": [
        {
          "internalType": "bool",
          "name": "",
          "type": "bool"
        }
      ],
      "stateMutability": "view",
      "type": "function"
    },
    {
      "inputs": [
        {
          "internalType": "address",
          "name": "newWithdrawer",
          "type": "address"
        },
        {
          "internalType": "bytes32",
          "name": "newDelegatorColdkey",
          "type": "bytes32"
        }
      ],
      "name": "setConfig",
      "outputs": [],
      "stateMutability": "nonpayable",
      "type": "function"
    },
    {
      "inputs": [
        {
          "internalType": "uint256[]",
          "name": "netuids",
          "type": "uint256[]"
        },
        {
          "internalType": "uint256[]",
          "name": "limitPrices",
          "type": "uint256[]"
        }
      ],
      "name": "setLimitPrices",
      "outputs": [],
      "stateMutability": "nonpayable",
      "type": "function"
    },
    {
      "inputs": [],
      "name": "setRock",
      "outputs": [],
      "stateMutability": "nonpayable",
      "type": "function"
    },
    {
      "inputs": [
        {
          "internalType": "address",
          "name": "newWithdrawer",
          "type": "address"
        }
      ],
      "name": "setWithdrawer",
      "outputs": [],
      "stateMutability": "nonpayable",
      "type": "function"
    },
    {
      "inputs": [],
      "name": "unRock",
      "outputs": [],
      "stateMutability": "nonpayable",
      "type": "function"
    },
    {
      "inputs": [
        {
          "internalType": "bytes32",
          "name": "newContractBytesKey",
          "type": "bytes32"
        }
      ],
      "name": "updateContractBytesKey",
      "outputs": [],
      "stateMutability": "nonpayable",
      "type": "function"
    },
    {
      "inputs": [
        {
          "internalType": "address[]",
          "name": "newMevAddresses",
          "type": "address[]"
        }
      ],
      "name": "updateMevAddresses",
      "outputs": [],
      "stateMutability": "nonpayable",
      "type": "function"
    },
    {
      "inputs": [
        {
          "internalType": "address",
          "name": "to",
          "type": "address"
        }
      ],
      "name": "withdrawAll",
      "outputs": [],
      "stateMutability": "nonpayable",
      "type": "function"
    },
    {
      "inputs": [
        {
          "internalType": "address",
          "name": "to",
          "type": "address"
        },
        {
          "internalType": "uint256",
          "name": "amount",
          "type": "uint256"
        }
      ],
      "name": "withdrawBig",
      "outputs": [],
      "stateMutability": "nonpayable",
      "type": "function"
    },
    {
      "inputs": [
        {
          "internalType": "address",
          "name": "to",
          "type": "address"
        },
        {
          "internalType": "uint256",
          "name": "amount",
          "type": "uint256"
        }
      ],
      "name": "withdrawSmall",
      "outputs": [],
      "stateMutability": "nonpayable",
      "type": "function"
    },
    {
      "inputs": [],
      "name": "withdrawer",
      "outputs": [
        {
          "internalType": "address",
          "name": "",
          "type": "address"
        }
      ],
      "stateMutability": "view",
      "type": "function"
    },
    {
      "stateMutability": "payable",
      "type": "receive"
    }
  ],
  "bytecode": "0x608060405234801561001057600080fd5b506001600055608480546001600160a01b03199081163390811790925560858054909116909117905561311a806100486000396000f3fe6080604052600436106102085760003560e01c80639d2736cc11610118578063c74db335116100a0578063e2edac251161006f578063e2edac2514610601578063e8d23d2a14610621578063f4f1726b14610636578063f9036f0214610656578063fa09e630146106765761020f565b8063c74db3351461058c578063cdc18424146105ac578063d7d31ae3146105cc578063e2157244146105ec5761020f565b8063a8c2bb0d116100e7578063a8c2bb0d1461050b578063bb817a1a14610520578063bc28d5d014610540578063be7b5a6414610555578063c6c4a86f1461056a5761020f565b80639d2736cc146104895780639e6eb20b146104a9578063a7678775146104cb578063a83ed0c1146104eb5761020f565b806358c0b8961161019b5780638799111f1161016a5780638799111f146103e6578063892208c5146104065780638da5cb5b1461041b578063947d3c3f14610453578063987d0e59146104695761020f565b806358c0b89614610370578063646e569b1461039057806364ee6aec146103b05780637e11ca0a146103c65761020f565b806326a224e0116101d757806326a224e0146102d0578063276ef789146102fd5780633004c502146103265780633383dfe5146103465761020f565b80630d16ab81146102285780630d174c241461025e57806313cd4940146102805780631f20ff4c146102b05761020f565b3661020f57005b60405163201f3fd360e11b815260040160405180910390fd5b34801561023457600080fd5b50610248610243366004612acf565b610696565b6040516102559190612ba5565b60405180910390f35b34801561026a57600080fd5b5061027e610279366004612bdb565b61075f565b005b34801561028c57600080fd5b506102a26000805160206130c583398151915281565b604051908152602001610255565b3480156102bc57600080fd5b5061027e6102cb366004612c06565b6107d3565b3480156102dc57600080fd5b506102f06102eb366004612d07565b610cc5565b6040516102559190612d96565b34801561030957600080fd5b50610312610df9565b604051610255989796959493929190612dd8565b34801561033257600080fd5b5061027e610341366004612acf565b610f4c565b34801561035257600080fd5b506087546103609060ff1681565b6040519015158152602001610255565b34801561037c57600080fd5b5061027e61038b366004612e4c565b6113f5565b34801561039c57600080fd5b5061027e6103ab366004612d07565b6114bd565b3480156103bc57600080fd5b506102a260865481565b3480156103d257600080fd5b5061027e6103e1366004612e65565b61176f565b3480156103f257600080fd5b5061027e610401366004612e4c565b6118de565b34801561041257600080fd5b5061027e61196b565b34801561042757600080fd5b5060855461043b906001600160a01b031681565b6040516001600160a01b039091168152602001610255565b34801561045f57600080fd5b506102a260025481565b34801561047557600080fd5b5061027e610484366004612e8f565b611a2a565b34801561049557600080fd5b5061027e6104a4366004612e4c565b611a66565b3480156104b557600080fd5b506104be611b08565b6040516102559190612ed1565b3480156104d757600080fd5b5061043b6104e6366004612e4c565b611b1d565b3480156104f757600080fd5b5061027e610506366004612e4c565b611b47565b34801561051757600080fd5b506104be611bcd565b34801561052c57600080fd5b5061027e61053b366004612d07565b611bdd565b34801561054c57600080fd5b506102f0611c82565b34801561056157600080fd5b5061027e611c92565b34801561057657600080fd5b506102a26000805160206130a583398151915281565b34801561059857600080fd5b5061027e6105a7366004612ee0565b611ccc565b3480156105b857600080fd5b5060845461043b906001600160a01b031681565b3480156105d857600080fd5b5061027e6105e7366004612e65565b611f10565b3480156105f857600080fd5b5061027e612089565b34801561060d57600080fd5b506102a261061c366004612e4c565b6120c0565b34801561062d57600080fd5b5061027e6120d7565b34801561064257600080fd5b5061027e610651366004612e65565b6121d3565b34801561066257600080fd5b5061027e610671366004612e4c565b6122c9565b34801561068257600080fd5b5061027e610691366004612bdb565b612317565b6060858483146106b95760405163512509d360e11b815260040160405180910390fd5b8067ffffffffffffffff8111156106d2576106d2612fa4565b6040519080825280602002602001820160405280156106fb578160200160208202803683370190505b50915060005b818110156107535761072e89898381811061071e5761071e612fba565b9050602002013588888888612485565b83828151811061074057610740612fba565b6020908102919091010152600101610701565b50509695505050505050565b6084546001600160a01b0316331461078a57604051632d99bc8360e21b815260040160405180910390fd5b6001600160a01b0381166107b15760405163e6c4247b60e01b815260040160405180910390fd5b608480546001600160a01b0319166001600160a01b0392909216919091179055565b6107db61255c565b6085546001600160a01b03163314610806576040516330cd747160e01b815260040160405180910390fd5b6002548a9089821461082b5760405163512509d360e11b815260040160405180910390fd5b87861461084b5760405163512509d360e11b815260040160405180910390fd5b60005b82811015610caa5760008e8e8381811061086a5761086a612fba565b90506020020135905084801561090d57506040516371dacc7d60e11b81526000805160206130a583398151915260048201526000805160206130c5833981519152602482015260448101829052633b9aca00906108059063e3b598fa90606401602060405180830381865afa1580156108e7573d6000803e3d6000fd5b505050506040513d601f19601f8201168201806040525081019061090b9190612fd0565b115b1561091b575060010161084e565b6109418188888581811061093157610931612fba565b905060200201358d8d8d8d6125b9565b610ca15760008d8d8481811061095957610959612fba565b6040516371dacc7d60e11b81526000805160206130a58339815191526004820152602481018890526000604482018190526020929092029390930135935091610805915063e3b598fa90606401602060405180830381865afa1580156109c3573d6000803e3d6000fd5b505050506040513d601f19601f820116820180604052508101906109e79190612fd0565b9050818111156109f45750805b80600003610a0757505050505050610cae565b6040516371dacc7d60e11b81526000805160206130a583398151915260048201526000805160206130c58339815191526024820152604481018490526000906108059063e3b598fa90606401602060405180830381865afa158015610a70573d6000803e3d6000fd5b505050506040513d601f19601f82011682018060405250810190610a949190612fd0565b604051630be72fb160e11b81526000805160206130c583398151915260048201526000805160206130a58339815191526024820152600060448201526064810186905260848101849052909150610805906317ce5f629060a401600060405180830381600087803b158015610b0857600080fd5b505af1158015610b1c573d6000803e3d6000fd5b50506040516369e38bc360e01b815261ffff871660048201526000925061080891506369e38bc390602401602060405180830381865afa158015610b64573d6000803e3d6000fd5b505050506040513d601f19601f82011682018060405250810190610b889190612fd0565b905081600003610bad578060038660818110610ba657610ba6612fba565b0155610c9c565b6040516371dacc7d60e11b81526000805160206130a583398151915260048201526000805160206130c58339815191526024820152604481018690526000906108059063e3b598fa90606401602060405180830381865afa158015610c16573d6000803e3d6000fd5b505050506040513d601f19601f82011682018060405250810190610c3a9190612fd0565b905080610c478482612fff565b610c519084613012565b8460038960818110610c6557610c65612fba565b0154610c719190613012565b610c7b9190613029565b610c859190613052565b60038760818110610c9857610c98612fba565b0155505b505050505b5060010161084e565b5050505b610cb86001600055565b5050505050505050505050565b610ccd6129f5565b83828114610cee5760405163512509d360e11b815260040160405180910390fd5b60005b81811015610def576000878783818110610d0d57610d0d612fba565b9050602002013590506000868684818110610d2a57610d2a612fba565b9050602002013590506000600190505b6081811015610de1576040516371dacc7d60e11b81526004810184905260248101839052604481018290526108059063e3b598fa90606401602060405180830381865afa158015610d8f573d6000803e3d6000fd5b505050506040513d601f19601f82011682018060405250810190610db39190612fd0565b868260818110610dc557610dc5612fba565b60200201818151610dd69190613029565b905250600101610d3a565b508260010192505050610cf1565b5050949350505050565b610e016129f5565b610e096129f5565b610e116129f5565b610e196129f5565b610e216129f5565b6060600080610e2e612699565b9750610e3861273d565b9650610e426127ec565b9550610e6a6000805160206130a58339815191526000805160206130c583398151915261289b565b6002546040516371dacc7d60e11b81526000805160206130a583398151915260048201526024810191909152600060448201529094506108059063e3b598fa90606401602060405180830381865afa158015610eca573d6000803e3d6000fd5b505050506040513d601f19601f82011682018060405250810190610eee9190612fd0565b8452610ef8612945565b6040805161102081019182905291945060039060819082845b815481526020019060010190808311610f115750506085549b9c9a9b999a939997985095964796506001600160a01b03163194509192505050565b610f5461255c565b6085546001600160a01b03163314610f7f576040516330cd747160e01b815260040160405180910390fd5b60025485908482141580610f935750818314155b15610fb15760405163512509d360e11b815260040160405180910390fd5b60005b828110156113df576000878783818110610fd057610fd0612fba565b905060200201359050806000146113d65760008a8a84818110610ff557610ff5612fba565b9050602002013590506000819050600088888681811061101757611017612fba565b6040516369e38bc360e01b815261ffff8616600482015260209091029290920135925060009161080891506369e38bc390602401602060405180830381865afa158015611068573d6000803e3d6000fd5b505050506040513d601f19601f8201168201806040525081019061108c9190612fd0565b90508082106113d1576040516371dacc7d60e11b81526000805160206130a5833981519152600482015260248101889052600060448201819052906108059063e3b598fa90606401602060405180830381865afa1580156110f1573d6000803e3d6000fd5b505050506040513d601f19601f820116820180604052508101906111159190612fd0565b9050858111156111225750845b80600003611138575050505050505050506113e3565b6040516371dacc7d60e11b81526000805160206130a583398151915260048201526000805160206130c58339815191526024820152604481018690526000906108059063e3b598fa90606401602060405180830381865afa1580156111a1573d6000803e3d6000fd5b505050506040513d601f19601f820116820180604052508101906111c59190612fd0565b604051630be72fb160e11b81526000805160206130c583398151915260048201526000805160206130a58339815191526024820152600060448201526064810188905260848101849052909150610805906317ce5f629060a401600060405180830381600087803b15801561123957600080fd5b505af115801561124d573d6000803e3d6000fd5b50506040516369e38bc360e01b815261ffff891660048201526000925061080891506369e38bc390602401602060405180830381865afa158015611295573d6000803e3d6000fd5b505050506040513d601f19601f820116820180604052508101906112b99190612fd0565b9050816000036112de5780600388608181106112d7576112d7612fba565b01556113cd565b6040516371dacc7d60e11b81526000805160206130a583398151915260048201526000805160206130c58339815191526024820152604481018890526000906108059063e3b598fa90606401602060405180830381865afa158015611347573d6000803e3d6000fd5b505050506040513d601f19601f8201168201806040525081019061136b9190612fd0565b9050806113788482612fff565b6113829084613012565b8460038b6081811061139657611396612fba565b01546113a29190613012565b6113ac9190613029565b6113b69190613052565b600389608181106113c9576113c9612fba565b0155505b5050505b505050505b50600101610fb4565b5050505b6113ed6001600055565b505050505050565b6113fd61255c565b6085546001600160a01b0316331480159061142357506084546001600160a01b03163314155b1561144157604051630b4a87e760e11b815260040160405180910390fd5b6040516307d691e360e41b81526000805160206130a58339815191526004820152602481018290526000604482015261080590637d691e30906064015b600060405180830381600087803b15801561149857600080fd5b505af11580156114ac573d6000803e3d6000fd5b505050506114ba6001600055565b50565b6114c561255c565b6085546001600160a01b031633146114f0576040516330cd747160e01b815260040160405180910390fd5b828181146115115760405163512509d360e11b815260040160405180910390fd5b60005b8181101561175d57600086868381811061153057611530612fba565b9050602002013590506000819050600086868581811061155257611552612fba565b6040516369e38bc360e01b815261ffff8616600482015260209091029290920135925060009161080891506369e38bc390602401602060405180830381865afa1580156115a3573d6000803e3d6000fd5b505050506040513d601f19601f820116820180604052508101906115c79190612fd0565b905080821161174e576040516371dacc7d60e11b81526000805160206130a583398151915260048201526000805160206130c58339815191526024820152604481018590526000906108059063e3b598fa90606401602060405180830381865afa158015611639573d6000803e3d6000fd5b505050506040513d601f19601f8201168201806040525081019061165d9190612fd0565b9050801561174c57604051632d67f0b960e01b8152600481018690526024810182905273d689d29f7ea0c511f4dde84171b10d34078bb17c90632d67f0b990604401600060405180830381600087803b1580156116b957600080fd5b505af11580156116cd573d6000803e3d6000fd5b50506040516369e38bc360e01b815261ffff8716600482015261080892506369e38bc39150602401602060405180830381865afa158015611712573d6000803e3d6000fd5b505050506040513d601f19601f820116820180604052508101906117369190612fd0565b6003866081811061174957611749612fba565b01555b505b84600101945050505050611514565b50506117696001600055565b50505050565b61177761255c565b60875460ff161561179b5760405163a62baeb760e01b815260040160405180910390fd5b6000610e106117ad6201518042613066565b6117b79190613052565b9050600e8110806117c9575060108110155b156117e75760405163cc1de8d960e01b815260040160405180910390fd5b6084546001600160a01b0316331461181257604051632d99bc8360e21b815260040160405180910390fd5b6001600160a01b0383166118395760405163e6c4247b60e01b815260040160405180910390fd5b8160000361185a576040516365e52d5160e11b815260040160405180910390fd5b6000836001600160a01b03168360405160006040518083038185875af1925050503d80600081146118a7576040519150601f19603f3d011682016040523d82523d6000602084013e6118ac565b606091505b50509050806118ce576040516312171d8360e31b815260040160405180910390fd5b50506118da6001600055565b5050565b6118e661255c565b6085546001600160a01b0316331480159061190c57506084546001600160a01b03163314155b1561192a57604051630b4a87e760e11b815260040160405180910390fd5b604051631fc9b14160e01b81526000805160206130a58339815191526004820152602481018290526000604482015261080590631fc9b1419060640161147e565b61197361255c565b6085546001600160a01b0316331480159061199957506084546001600160a01b03163314155b156119b757604051630b4a87e760e11b815260040160405180910390fd5b60405163d4626bb960e01b81526000805160206130a58339815191526004820152600060248201526108059063d4626bb990604401600060405180830381600087803b158015611a0657600080fd5b505af1158015611a1a573d6000803e3d6000fd5b50505050611a286001600055565b565b6085546001600160a01b03163314611a55576040516330cd747160e01b815260040160405180910390fd5b611a6160018383612a14565b505050565b611a6e61255c565b60875460ff1615611a925760405163a62baeb760e01b815260040160405180910390fd5b6084546001600160a01b03163314611abd57604051632d99bc8360e21b815260040160405180910390fd5b6040516257c71b60e41b8152600481018290526000805160206130c5833981519152602482015273d689d29f7ea0c511f4dde84171b10d34078bb17c9063057c71b09060440161147e565b611b106129f5565b611b186127ec565b905090565b60018181548110611b2d57600080fd5b6000918252602090912001546001600160a01b0316905081565b611b4f61255c565b6085546001600160a01b03163314801590611b7557506084546001600160a01b03163314155b15611b9357604051630b4a87e760e11b815260040160405180910390fd5b60405163d4626bb960e01b81526000805160206130a58339815191526004820152602481018290526108059063d4626bb99060440161147e565b611bd56129f5565b611b1861273d565b6085546001600160a01b03163314611c08576040516330cd747160e01b815260040160405180910390fd5b82818114611c295760405163512509d360e11b815260040160405180910390fd5b60005b818110156113ed57838382818110611c4657611c46612fba565b905060200201356003878784818110611c6157611c61612fba565b9050602002013560818110611c7857611c78612fba565b0155600101611c2c565b611c8a6129f5565b611b18612699565b6085546001600160a01b03163314611cbd576040516330cd747160e01b815260040160405180910390fd5b6087805460ff19166001179055565b611cd461255c565b6085546001600160a01b03163314611cff576040516330cd747160e01b815260040160405180910390fd5b86858414611d205760405163512509d360e11b815260040160405180910390fd5b60005b81811015611efa5760008a8a83818110611d3f57611d3f612fba565b905060200201359050611d6e81868685818110611d5e57611d5e612fba565b905060200201358b8b8b8b6125b9565b15611ef1576040516371dacc7d60e11b81526000805160206130a583398151915260048201526000805160206130c58339815191526024820152604481018290526000906108059063e3b598fa90606401602060405180830381865afa158015611ddc573d6000803e3d6000fd5b505050506040513d601f19601f82011682018060405250810190611e009190612fd0565b90508015611eef57604051632d67f0b960e01b8152600481018390526024810182905273d689d29f7ea0c511f4dde84171b10d34078bb17c90632d67f0b990604401600060405180830381600087803b158015611e5c57600080fd5b505af1158015611e70573d6000803e3d6000fd5b50506040516369e38bc360e01b815261ffff8516600482015261080892506369e38bc39150602401602060405180830381865afa158015611eb5573d6000803e3d6000fd5b505050506040513d601f19601f82011682018060405250810190611ed99190612fd0565b60038360818110611eec57611eec612fba565b01555b505b50600101611d23565b5050611f066001600055565b5050505050505050565b611f1861255c565b60875460ff1615611f3c5760405163a62baeb760e01b815260040160405180910390fd5b6085546001600160a01b03163314611f67576040516330cd747160e01b815260040160405180910390fd5b6001600160a01b038216611f8e5760405163e6c4247b60e01b815260040160405180910390fd5b80600003611faf576040516365e52d5160e11b815260040160405180910390fd5b670de0b6b3a7640000811115611fd857604051630625040160e01b815260040160405180910390fd5b61a8c0608654611fe89190613029565b4210156120085760405163034932ef60e51b815260040160405180910390fd5b426086556040516000906001600160a01b0384169083908381818185875af1925050503d8060008114612057576040519150601f19603f3d011682016040523d82523d6000602084013e61205c565b606091505b505090508061207e576040516312171d8360e31b815260040160405180910390fd5b506118da6001600055565b6084546001600160a01b031633146120b457604051632d99bc8360e21b815260040160405180910390fd5b6087805460ff19169055565b600381608181106120d057600080fd5b0154905081565b6120df61255c565b6085546001600160a01b0316331480159061210557506084546001600160a01b03163314155b1561212357604051630b4a87e760e11b815260040160405180910390fd5b476000819003612146576040516365e52d5160e11b815260040160405180910390fd5b610805631fc9b1416000805160206130a583398151915261216b633b9aca0085613052565b6040516001600160e01b031960e085901b1681526004810192909252602482015260006044820152606401600060405180830381600087803b1580156121b057600080fd5b505af11580156121c4573d6000803e3d6000fd5b5050505050611a286001600055565b6121db61255c565b6084546001600160a01b0316331461220657604051632d99bc8360e21b815260040160405180910390fd5b6001600160a01b03821661222d5760405163e6c4247b60e01b815260040160405180910390fd5b8061224b5760405163666b0c5d60e01b815260040160405180910390fd5b60405163f4f1726b60e01b81526001600160a01b03831660048201526024810182905273d689d29f7ea0c511f4dde84171b10d34078bb17c9063f4f1726b90604401600060405180830381600087803b1580156122a757600080fd5b505af11580156122bb573d6000803e3d6000fd5b505050506118da6001600055565b6085546001600160a01b031633146122f4576040516330cd747160e01b815260040160405180910390fd5b806123125760405163666b0c5d60e01b815260040160405180910390fd5b600255565b61231f61255c565b60875460ff16156123435760405163a62baeb760e01b815260040160405180910390fd5b6000610e106123556201518042613066565b61235f9190613052565b9050600e811080612371575060108110155b1561238f5760405163cc1de8d960e01b815260040160405180910390fd5b6084546001600160a01b031633146123ba57604051632d99bc8360e21b815260040160405180910390fd5b6001600160a01b0382166123e15760405163e6c4247b60e01b815260040160405180910390fd5b476000819003612404576040516365e52d5160e11b815260040160405180910390fd5b6000836001600160a01b03168260405160006040518083038185875af1925050503d8060008114612451576040519150601f19603f3d011682016040523d82523d6000602084013e612456565b606091505b5050905080612478576040516312171d8360e31b815260040160405180910390fd5b5050506114ba6001600055565b60008084815b8181101561254f5761080563e3b598fa8989848181106124ad576124ad612fba565b905060200201358888858181106124c6576124c6612fba565b6040516001600160e01b031960e087901b16815260048101949094526020029190910135602483015250604481018c9052606401602060405180830381865afa158015612517573d6000803e3d6000fd5b505050506040513d601f19601f8201168201806040525081019061253b9190612fd0565b6125459084613029565b925060010161248b565b5090979650505050505050565b6002600054036125b25760405162461bcd60e51b815260206004820152601f60248201527f5265656e7472616e637947756172643a207265656e7472616e742063616c6c00604482015260640160405180910390fd5b6002600055565b600083815b81811015612688578761080563e3b598fa8989858181106125e1576125e1612fba565b905060200201358888868181106125fa576125fa612fba565b6040516001600160e01b031960e087901b16815260048101949094526020029190910135602483015250604481018d9052606401602060405180830381865afa15801561264b573d6000803e3d6000fd5b505050506040513d601f19601f8201168201806040525081019061266f9190612fd0565b11156126805760019250505061268f565b6001016125be565b5060009150505b9695505050505050565b6126a16129f5565b60005b608161ffff82161015612739576040516369e38bc360e01b815261ffff82166004820152610808906369e38bc390602401602060405180830381865afa92505050801561270e575060408051601f3d908101601f1916820190925261270b91810190612fd0565b60015b156127315780838361ffff166081811061272a5761272a612fba565b6020020152505b6001016126a4565b5090565b6127456129f5565b60005b608161ffff8216101561273957604051632d9bfc7160e01b815261ffff8216600482015261080890632d9bfc7190602401602060405180830381865afa9250505080156127b2575060408051601f3d908101601f191682019092526127af9181019061307a565b60015b156127e45780838361ffff16608181106127ce576127ce612fba565b67ffffffffffffffff9092166020929092020152505b600101612748565b6127f46129f5565b60005b608161ffff821610156127395760405163c2ba9e8760e01b815261ffff821660048201526108089063c2ba9e8790602401602060405180830381865afa925050508015612861575060408051601f3d908101601f1916820190925261285e9181019061307a565b60015b156128935780838361ffff166081811061287d5761287d612fba565b67ffffffffffffffff9092166020929092020152505b6001016127f7565b6128a36129f5565b60015b608181101561293e576040516371dacc7d60e11b81526004810185905260248101849052604481018290526108059063e3b598fa90606401602060405180830381865afa1580156128fb573d6000803e3d6000fd5b505050506040513d601f19601f8201168201806040525081019061291f9190612fd0565b82826081811061293157612931612fba565b60200201526001016128a6565b5092915050565b60018054606091908067ffffffffffffffff81111561296657612966612fa4565b60405190808252806020026020018201604052801561298f578160200160208202803683370190505b50925060005b818110156129ef578281815481106129af576129af612fba565b60009182526020909120015484516001600160a01b0390911631908590839081106129dc576129dc612fba565b6020908102919091010152600101612995565b50505090565b6040518061102001604052806081906020820280368337509192915050565b828054828255906000526020600020908101928215612a67579160200282015b82811115612a675781546001600160a01b0319166001600160a01b03843516178255602090920191600190910190612a34565b506127399291505b808211156127395760008155600101612a6f565b60008083601f840112612a9557600080fd5b50813567ffffffffffffffff811115612aad57600080fd5b6020830191508360208260051b8501011115612ac857600080fd5b9250929050565b60008060008060008060608789031215612ae857600080fd5b863567ffffffffffffffff80821115612b0057600080fd5b612b0c8a838b01612a83565b90985096506020890135915080821115612b2557600080fd5b612b318a838b01612a83565b90965094506040890135915080821115612b4a57600080fd5b50612b5789828a01612a83565b979a9699509497509295939492505050565b60008151808452602080850194506020840160005b83811015612b9a57815187529582019590820190600101612b7e565b509495945050505050565b602081526000612bb86020830184612b69565b9392505050565b80356001600160a01b0381168114612bd657600080fd5b919050565b600060208284031215612bed57600080fd5b612bb882612bbf565b80358015158114612bd657600080fd5b600080600080600080600080600080600060c08c8e031215612c2757600080fd5b67ffffffffffffffff808d351115612c3e57600080fd5b612c4b8e8e358f01612a83565b909c509a5060208d0135811015612c6157600080fd5b612c718e60208f01358f01612a83565b909a50985060408d0135811015612c8757600080fd5b612c978e60408f01358f01612a83565b909850965060608d0135811015612cad57600080fd5b612cbd8e60608f01358f01612a83565b909650945060808d0135811015612cd357600080fd5b50612ce48d60808e01358e01612a83565b9093509150612cf560a08d01612bf6565b90509295989b509295989b9093969950565b60008060008060408587031215612d1d57600080fd5b843567ffffffffffffffff80821115612d3557600080fd5b612d4188838901612a83565b90965094506020870135915080821115612d5a57600080fd5b50612d6787828801612a83565b95989497509550505050565b8060005b6081811015611769578151845260209384019390910190600101612d77565b6110208101612da58284612d73565b92915050565b8060005b608181101561176957815167ffffffffffffffff16845260209384019390910190600101612daf565b6000615100612de7838c612d73565b612df561102084018b612dab565b612e0361204084018a612dab565b612e11613060840189612d73565b612e1f614080840188612d73565b806150a0840152612e3281840187612b69565b6150c084019590955250506150e001529695505050505050565b600060208284031215612e5e57600080fd5b5035919050565b60008060408385031215612e7857600080fd5b612e8183612bbf565b946020939093013593505050565b60008060208385031215612ea257600080fd5b823567ffffffffffffffff811115612eb957600080fd5b612ec585828601612a83565b90969095509350505050565b6110208101612da58284612dab565b6000806000806000806000806080898b031215612efc57600080fd5b883567ffffffffffffffff80821115612f1457600080fd5b612f208c838d01612a83565b909a50985060208b0135915080821115612f3957600080fd5b612f458c838d01612a83565b909850965060408b0135915080821115612f5e57600080fd5b612f6a8c838d01612a83565b909650945060608b0135915080821115612f8357600080fd5b50612f908b828c01612a83565b999c989b5096995094979396929594505050565b634e487b7160e01b600052604160045260246000fd5b634e487b7160e01b600052603260045260246000fd5b600060208284031215612fe257600080fd5b5051919050565b634e487b7160e01b600052601160045260246000fd5b81810381811115612da557612da5612fe9565b8082028115828204841417612da557612da5612fe9565b80820180821115612da557612da5612fe9565b634e487b7160e01b600052601260045260246000fd5b6000826130615761306161303c565b500490565b6000826130755761307561303c565b500690565b60006020828403121561308c57600080fd5b815167ffffffffffffffff81168114612bb857600080fdfeb4c087119097fbe3985298eef52f35ef6271c48322a8c2d430902a9cc38d94735bc73267f9990b1554109dc41e624a7dab56b1128f1ef2f62f6314294c038f9da264697066735822122016b78843f814c838f314b79753eecf0f74696bf7800b7a08f02f4942642cd97b64736f6c63430008160033",
  "linkReferences": {},
  "deployedLinkReferences": {}
}