{
  "_format": "hh-sol-artifact-1",
  "contractName": "TradingV8_2",
  "sourceName": "contracts/TradingV8_2.sol",
  "abi": [
    {
      "inputs": [],
      "stateMutability": "nonpayable",
      "type": "constructor"
    },
    {
      "inputs": [],
      "name": "AmountTooLarge",
      "type": "error"
    },
    {
      "inputs": [],
      "name": "AmountZero",
      "type": "error"
    },
    {
      "inputs": [],
      "name": "ArrayLengthMismatch",
      "type": "error"
    },
    {
      "inputs": [],
      "name": "FunctionNotFound",
      "type": "error"
    },
    {
      "inputs": [],
      "name": "InvalidAddress",
      "type": "error"
    },
    {
      "inputs": [],
      "name": "InvalidBytesKey",
      "type": "error"
    },
    {
      "inputs": [],
      "name": "NotOwner",
      "type": "error"
    },
    {
      "inputs": [],
      "name": "NotOwnerOrWithdrawer",
      "type": "error"
    },
    {
      "inputs": [],
      "name": "NotWithdrawer",
      "type": "error"
    },
    {
      "inputs": [],
      "name": "OutsideWithdrawWindow",
      "type": "error"
    },
    {
      "inputs": [],
      "name": "Rocked",
      "type": "error"
    },
    {
      "inputs": [],
      "name": "TransferFailed",
      "type": "error"
    },
    {
      "inputs": [],
      "name": "WithdrawTooSoon",
      "type": "error"
    },
    {
      "stateMutability": "payable",
      "type": "fallback"
    },
    {
      "inputs": [],
      "name": "DELEGATOR_COLDKEY",
      "outputs": [
        {
          "internalType": "bytes32",
          "name": "",
          "type": "bytes32"
        }
      ],
      "stateMutability": "view",
      "type": "function"
    },
    {
      "inputs": [],
      "name": "DELEGATOR_HOTKEY",
      "outputs": [
        {
          "internalType": "bytes32",
          "name": "",
          "type": "bytes32"
        }
      ],
      "stateMutability": "view",
      "type": "function"
    },
    {
      "inputs": [],
      "name": "REAL_COLDKEY",
      "outputs": [
        {
          "internalType": "bytes32",
          "name": "",
          "type": "bytes32"
        }
      ],
      "stateMutability": "view",
      "type": "function"
    },
    {
      "inputs": [
        {
          "internalType": "uint256[]",
          "name": "netuids",
          "type": "uint256[]"
        },
        {
          "internalType": "uint256[]",
          "name": "amounts",
          "type": "uint256[]"
        },
        {
          "internalType": "uint256[]",
          "name": "limitPrices",
          "type": "uint256[]"
        }
      ],
      "name": "addStakeLimits",
      "outputs": [],
      "stateMutability": "nonpayable",
      "type": "function"
    },
    {
      "inputs": [
        {
          "internalType": "uint256",
          "name": "amount",
          "type": "uint256"
        }
      ],
      "name": "addStakeToRoot",
      "outputs": [],
      "stateMutability": "nonpayable",
      "type": "function"
    },
    {
      "inputs": [],
      "name": "addStakeToRootFull",
      "outputs": [],
      "stateMutability": "nonpayable",
      "type": "function"
    },
    {
      "inputs": [],
      "name": "delegatorId",
      "outputs": [
        {
          "internalType": "bytes32",
          "name": "",
          "type": "bytes32"
        }
      ],
      "stateMutability": "view",
      "type": "function"
    },
    {
      "inputs": [],
      "name": "execute",
      "outputs": [],
      "stateMutability": "nonpayable",
      "type": "function"
    },
    {
      "inputs": [],
      "name": "getAlphaInPools",
      "outputs": [
        {
          "internalType": "uint64[129]",
          "name": "alphaInPools",
          "type": "uint64[129]"
        }
      ],
      "stateMutability": "view",
      "type": "function"
    },
    {
      "inputs": [],
      "name": "getAlphaPrices",
      "outputs": [
        {
          "internalType": "uint256[129]",
          "name": "alphaPrices",
          "type": "uint256[129]"
        }
      ],
      "stateMutability": "view",
      "type": "function"
    },
    {
      "inputs": [
        {
          "internalType": "uint256[]",
          "name": "netuids",
          "type": "uint256[]"
        },
        {
          "internalType": "bytes32[]",
          "name": "_mevHotkeyBytesKeys",
          "type": "bytes32[]"
        },
        {
          "internalType": "bytes32[]",
          "name": "_mevColdkeyBytesKeys",
          "type": "bytes32[]"
        }
      ],
      "name": "getMevStakedAmounts",
      "outputs": [
        {
          "internalType": "uint256[]",
          "name": "amounts",
          "type": "uint256[]"
        }
      ],
      "stateMutability": "view",
      "type": "function"
    },
    {
      "inputs": [
        {
          "internalType": "bytes32[]",
          "name": "hotkeys",
          "type": "bytes32[]"
        },
        {
          "internalType": "bytes32[]",
          "name": "coldkeys",
          "type": "bytes32[]"
        }
      ],
      "name": "getStakedAmounts",
      "outputs": [
        {
          "internalType": "uint256[129]",
          "name": "amounts",
          "type": "uint256[129]"
        }
      ],
      "stateMutability": "view",
      "type": "function"
    },
    {
      "inputs": [],
      "name": "getTaoInPools",
      "outputs": [
        {
          "internalType": "uint64[129]",
          "name": "taoInPools",
          "type": "uint64[129]"
        }
      ],
      "stateMutability": "view",
      "type": "function"
    },
    {
      "inputs": [],
      "name": "getTradingInfo",
      "outputs": [
        {
          "internalType": "uint256[129]",
          "name": "alphaPrices",
          "type": "uint256[129]"
        },
        {
          "internalType": "uint64[129]",
          "name": "taoInPools",
          "type": "uint64[129]"
        },
        {
          "internalType": "uint64[129]",
          "name": "alphaInPools",
          "type": "uint64[129]"
        },
        {
          "internalType": "uint256[129]",
          "name": "_stakedPrices",
          "type": "uint256[129]"
        },
        {
          "internalType": "uint256[129]",
          "name": "stakedAmounts",
          "type": "uint256[129]"
        },
        {
          "internalType": "uint256[]",
          "name": "mevFreeBalances",
          "type": "uint256[]"
        },
        {
          "internalType": "uint256",
          "name": "freeBalance",
          "type": "uint256"
        },
        {
          "internalType": "uint256",
          "name": "ownerBalance",
          "type": "uint256"
        }
      ],
      "stateMutability": "view",
      "type": "function"
    },
    {
      "inputs": [],
      "name": "lastWithdrawSmallTime",
      "outputs": [
        {
          "internalType": "uint256",
          "name": "",
          "type": "uint256"
        }
      ],
      "stateMutability": "view",
      "type": "function"
    },
    {
      "inputs": [
        {
          "internalType": "uint256[]",
          "name": "netuids",
          "type": "uint256[]"
        },
        {
          "internalType": "uint256[]",
          "name": "amounts",
          "type": "uint256[]"
        },
        {
          "internalType": "bytes32[]",
          "name": "_mevHotkeyBytesKeys",
          "type": "bytes32[]"
        },
        {
          "internalType": "bytes32[]",
          "name": "_mevColdkeyBytesKeys",
          "type": "bytes32[]"
        },
        {
          "internalType": "uint256[]",
          "name": "min_alphas",
          "type": "uint256[]"
        },
        {
          "internalType": "bool",
          "name": "is_mine_staked",
          "type": "bool"
        }
      ],
      "name": "mevAddStakes",
      "outputs": [],
      "stateMutability": "nonpayable",
      "type": "function"
    },
    {
      "inputs": [
        {
          "internalType": "uint256",
          "name": "",
          "type": "uint256"
        }
      ],
      "name": "mevAddresses",
      "outputs": [
        {
          "internalType": "address",
          "name": "",
          "type": "address"
        }
      ],
      "stateMutability": "view",
      "type": "function"
    },
    {
      "inputs": [
        {
          "internalType": "uint256[]",
          "name": "netuids",
          "type": "uint256[]"
        },
        {
          "internalType": "bytes32[]",
          "name": "_mevHotkeyBytesKeys",
          "type": "bytes32[]"
        },
        {
          "internalType": "bytes32[]",
          "name": "_mevColdkeyBytesKeys",
          "type": "bytes32[]"
        },
        {
          "internalType": "uint256[]",
          "name": "min_alphas",
          "type": "uint256[]"
        }
      ],
      "name": "mevRemoveStakes",
      "outputs": [],
      "stateMutability": "nonpayable",
      "type": "function"
    },
    {
      "inputs": [
        {
          "internalType": "bytes32",
          "name": "destination_coldkey",
          "type": "bytes32"
        }
      ],
      "name": "moveStakeAll",
      "outputs": [],
      "stateMutability": "nonpayable",
      "type": "function"
    },
    {
      "inputs": [],
      "name": "owner",
      "outputs": [
        {
          "internalType": "address",
          "name": "",
          "type": "address"
        }
      ],
      "stateMutability": "view",
      "type": "function"
    },
    {
      "inputs": [
        {
          "internalType": "uint256",
          "name": "amount",
          "type": "uint256"
        }
      ],
      "name": "removeStakeFromRoot",
      "outputs": [],
      "stateMutability": "nonpayable",
      "type": "function"
    },
    {
      "inputs": [],
      "name": "removeStakeFromRootFull",
      "outputs": [],
      "stateMutability": "nonpayable",
      "type": "function"
    },
    {
      "inputs": [
        {
          "internalType": "uint256",
          "name": "netuid",
          "type": "uint256"
        }
      ],
      "name": "removeStakeFromSubnetFull",
      "outputs": [],
      "stateMutability": "nonpayable",
      "type": "function"
    },
    {
      "inputs": [
        {
          "internalType": "uint256[]",
          "name": "netuids",
          "type": "uint256[]"
        },
        {
          "internalType": "uint256[]",
          "name": "limitPrices",
          "type": "uint256[]"
        }
      ],
      "name": "removeStakeLimits",
      "outputs": [],
      "stateMutability": "nonpayable",
      "type": "function"
    },
    {
      "inputs": [],
      "name": "rocked",
      "outputs": [
        {
          "internalType": "bool",
          "name": "",
          "type": "bool"
        }
      ],
      "stateMutability": "view",
      "type": "function"
    },
    {
      "inputs": [
        {
          "internalType": "address",
          "name": "newWithdrawer",
          "type": "address"
        },
        {
          "internalType": "bytes32",
          "name": "newDelegatorColdkey",
          "type": "bytes32"
        }
      ],
      "name": "setConfig",
      "outputs": [],
      "stateMutability": "nonpayable",
      "type": "function"
    },
    {
      "inputs": [],
      "name": "setRock",
      "outputs": [],
      "stateMutability": "nonpayable",
      "type": "function"
    },
    {
      "inputs": [
        {
          "internalType": "uint256[]",
          "name": "netuids",
          "type": "uint256[]"
        },
        {
          "internalType": "uint256[]",
          "name": "prices",
          "type": "uint256[]"
        }
      ],
      "name": "setStakedPrices",
      "outputs": [],
      "stateMutability": "nonpayable",
      "type": "function"
    },
    {
      "inputs": [
        {
          "internalType": "address",
          "name": "newWithdrawer",
          "type": "address"
        }
      ],
      "name": "setWithdrawer",
      "outputs": [],
      "stateMutability": "nonpayable",
      "type": "function"
    },
    {
      "inputs": [
        {
          "internalType": "uint256",
          "name": "",
          "type": "uint256"
        }
      ],
      "name": "stakedPrices",
      "outputs": [
        {
          "internalType": "uint256",
          "name": "",
          "type": "uint256"
        }
      ],
      "stateMutability": "view",
      "type": "function"
    },
    {
      "inputs": [],
      "name": "unRock",
      "outputs": [],
      "stateMutability": "nonpayable",
      "type": "function"
    },
    {
      "inputs": [
        {
          "internalType": "address[]",
          "name": "newMevAddresses",
          "type": "address[]"
        }
      ],
      "name": "updateMevAddresses",
      "outputs": [],
      "stateMutability": "nonpayable",
      "type": "function"
    },
    {
      "inputs": [
        {
          "internalType": "address",
          "name": "to",
          "type": "address"
        }
      ],
      "name": "withdrawAll",
      "outputs": [],
      "stateMutability": "nonpayable",
      "type": "function"
    },
    {
      "inputs": [
        {
          "internalType": "bytes32",
          "name": "coldkey",
          "type": "bytes32"
        }
      ],
      "name": "withdrawAllColdkey",
      "outputs": [],
      "stateMutability": "nonpayable",
      "type": "function"
    },
    {
      "inputs": [
        {
          "internalType": "address",
          "name": "to",
          "type": "address"
        },
        {
          "internalType": "uint256",
          "name": "amount",
          "type": "uint256"
        }
      ],
      "name": "withdrawBig",
      "outputs": [],
      "stateMutability": "nonpayable",
      "type": "function"
    },
    {
      "inputs": [
        {
          "internalType": "bytes32",
          "name": "coldkey",
          "type": "bytes32"
        },
        {
          "internalType": "uint256",
          "name": "amount",
          "type": "uint256"
        }
      ],
      "name": "withdrawBigColdkey",
      "outputs": [],
      "stateMutability": "nonpayable",
      "type": "function"
    },
    {
      "inputs": [
        {
          "internalType": "address",
          "name": "to",
          "type": "address"
        },
        {
          "internalType": "uint256",
          "name": "amount",
          "type": "uint256"
        }
      ],
      "name": "withdrawSmall",
      "outputs": [],
      "stateMutability": "nonpayable",
      "type": "function"
    },
    {
      "inputs": [],
      "name": "withdrawer",
      "outputs": [
        {
          "internalType": "address",
          "name": "",
          "type": "address"
        }
      ],
      "stateMutability": "view",
      "type": "function"
    },
    {
      "stateMutability": "payable",
      "type": "receive"
    }
  ],
  "bytecode": "0x60c06040523480156200001157600080fd5b5060405163024a66cd60e11b815230600482015261080c90630494cd9a90602401602060405180830381865afa15801562000050573d6000803e3d6000fd5b505050506040513d601f19601f8201168201806040525081019062000076919062000097565b608052608280546001600160a01b0319163390811790915560a052620000b1565b600060208284031215620000aa57600080fd5b5051919050565b60805160a051613c7862000163600039600081816104eb0152818161089a0152818161103001528181611070015281816115590152818161162d01528181611ce1015281816120f5015281816121980152818161225d01528181612320015281816124530152818161263a0152818161279601528181612a0a0152612ba10152600081816103c301528181610a4a01528181610f72015281816111e30152818161169a015261191c0152613c786000f3fe6080604052600436106102295760003560e01c8063956a25cf11610123578063be7b5a64116100ab578063d7d31ae31161006f578063d7d31ae3146106c8578063e2157244146106e8578063e8d23d2a146106fd578063f4f1726b14610712578063fa09e6301461073257610230565b8063be7b5a6414610631578063c3a97fc914610646578063c6c4a86f14610666578063c74db33514610688578063cdc18424146106a857610230565b8063a7678775116100f2578063a7678775146105a7578063a83ed0c1146105c7578063a8c2bb0d146105e7578063bc28d5d0146105fc578063bc3fd0481461061157610230565b8063956a25cf14610525578063987d0e59146105455780639d2736cc146105655780639e6eb20b1461058557610230565b806344a537f5116101b157806364ee6aec1161017557806364ee6aec1461046e5780637e11ca0a146104845780638799111f146104a4578063892208c5146104c45780638da5cb5b146104d957610230565b806344a537f5146103b1578063565dea95146103e557806358c0b896146104195780636146195414610439578063646e569b1461044e57610230565b806326a224e0116101f857806326a224e0146102f1578063276ef7891461031e5780633004c50214610347578063305e3337146103675780633383dfe51461038757610230565b80630d16ab81146102495780630d174c241461027f57806313cd4940146102a15780631f20ff4c146102d157610230565b3661023057005b60405163201f3fd360e11b815260040160405180910390fd5b34801561025557600080fd5b50610269610264366004613557565b610752565b604051610276919061362d565b60405180910390f35b34801561028b57600080fd5b5061029f61029a366004613663565b61081b565b005b3480156102ad57600080fd5b506102c3600080516020613c2383398151915281565b604051908152602001610276565b3480156102dd57600080fd5b5061029f6102ec36600461368e565b61088f565b3480156102fd57600080fd5b5061031161030c36600461378f565b610daa565b604051610276919061381e565b34801561032a57600080fd5b50610333610ede565b60405161027698979695949392919061385a565b34801561035357600080fd5b5061029f610362366004613557565b611065565b34801561037357600080fd5b506102c36103823660046138ce565b611537565b34801561039357600080fd5b506084546103a19060ff1681565b6040519015158152602001610276565b3480156103bd57600080fd5b506102c37f000000000000000000000000000000000000000000000000000000000000000081565b3480156103f157600080fd5b506102c37f2636ad834cd47318572033620d50377260a54fc64e5f150896186b2bafda745481565b34801561042557600080fd5b5061029f6104343660046138ce565b61154e565b34801561044557600080fd5b5061029f611622565b34801561045a57600080fd5b5061029f61046936600461378f565b611cd6565b34801561047a57600080fd5b506102c360835481565b34801561049057600080fd5b5061029f61049f3660046138e7565b611f8c565b3480156104b057600080fd5b5061029f6104bf3660046138ce565b6120ea565b3480156104d057600080fd5b5061029f61218d565b3480156104e557600080fd5b5061050d7f000000000000000000000000000000000000000000000000000000000000000081565b6040516001600160a01b039091168152602001610276565b34801561053157600080fd5b5061029f61054036600461378f565b612252565b34801561055157600080fd5b5061029f610560366004613911565b612315565b34801561057157600080fd5b5061029f6105803660046138ce565b61236f565b34801561059157600080fd5b5061059a612409565b6040516102769190613953565b3480156105b357600080fd5b5061050d6105c23660046138ce565b61241e565b3480156105d357600080fd5b5061029f6105e23660046138ce565b612448565b3480156105f357600080fd5b5061059a6124e4565b34801561060857600080fd5b506103116124f4565b34801561061d57600080fd5b5061029f61062c366004613962565b612504565b34801561063d57600080fd5b5061029f61262f565b34801561065257600080fd5b5061029f6106613660046138ce565b612687565b34801561067257600080fd5b506102c3600080516020613c0383398151915281565b34801561069457600080fd5b5061029f6106a3366004613984565b61278b565b3480156106b457600080fd5b5060825461050d906001600160a01b031681565b3480156106d457600080fd5b5061029f6106e33660046138e7565b6129db565b3480156106f457600080fd5b5061029f612b5f565b34801561070957600080fd5b5061029f612b96565b34801561071e57600080fd5b5061029f61072d3660046138e7565b612c70565b34801561073e57600080fd5b5061029f61074d366004613663565b612d50565b6060858483146107755760405163512509d360e11b815260040160405180910390fd5b8067ffffffffffffffff81111561078e5761078e613a48565b6040519080825280602002602001820160405280156107b7578160200160208202803683370190505b50915060005b8181101561080f576107ea8989838181106107da576107da613a5e565b9050602002013588888888612e4a565b8382815181106107fc576107fc613a5e565b60209081029190910101526001016107bd565b50509695505050505050565b6082546001600160a01b0316331461084657604051632d99bc8360e21b815260040160405180910390fd5b6001600160a01b03811661086d5760405163e6c4247b60e01b815260040160405180910390fd5b608280546001600160a01b0319166001600160a01b0392909216919091179055565b336001600160a01b037f000000000000000000000000000000000000000000000000000000000000000016146108d8576040516330cd747160e01b815260040160405180910390fd5b898881146108f95760405163512509d360e11b815260040160405180910390fd5b8685146109195760405163512509d360e11b815260040160405180910390fd5b60005b81811015610d9a5760008d8d8381811061093857610938613a5e565b9050602002013590508380156109db57506040516371dacc7d60e11b8152600080516020613c038339815191526004820152600080516020613c23833981519152602482015260448101829052633b9aca00906108059063e3b598fa90606401602060405180830381865afa1580156109b5573d6000803e3d6000fd5b505050506040513d601f19601f820116820180604052508101906109d99190613a74565b115b156109e9575060010161091c565b610a0f818787858181106109ff576109ff613a5e565b905060200201358c8c8c8c612f21565b610d915760008c8c84818110610a2757610a27613a5e565b6040516371dacc7d60e11b8152600080516020613c0383398151915260048201527f000000000000000000000000000000000000000000000000000000000000000060248201526000604482018190526020929092029390930135935091610805915063e3b598fa90606401602060405180830381865afa158015610ab0573d6000803e3d6000fd5b505050506040513d601f19601f82011682018060405250810190610ad49190613a74565b905081811115610ae15750805b631dcd6500811015610af7575050505050610d9d565b6040516371dacc7d60e11b8152600080516020613c038339815191526004820152600080516020613c238339815191526024820152604481018490526000906108059063e3b598fa90606401602060405180830381865afa158015610b60573d6000803e3d6000fd5b505050506040513d601f19601f82011682018060405250810190610b849190613a74565b604051630be72fb160e11b8152600080516020613c238339815191526004820152600080516020613c038339815191526024820152600060448201526064810186905260848101849052909150610805906317ce5f629060a401600060405180830381600087803b158015610bf857600080fd5b505af1158015610c0c573d6000803e3d6000fd5b50506040516369e38bc360e01b815261ffff871660048201526000925061080891506369e38bc390602401602060405180830381865afa158015610c54573d6000803e3d6000fd5b505050506040513d601f19601f82011682018060405250810190610c789190613a74565b905081600003610c9d578060018660818110610c9657610c96613a5e565b0155610d8c565b6040516371dacc7d60e11b8152600080516020613c038339815191526004820152600080516020613c238339815191526024820152604481018690526000906108059063e3b598fa90606401602060405180830381865afa158015610d06573d6000803e3d6000fd5b505050506040513d601f19601f82011682018060405250810190610d2a9190613a74565b905080610d378482613aa3565b610d419084613ab6565b8460018960818110610d5557610d55613a5e565b0154610d619190613ab6565b610d6b9190613acd565b610d759190613af6565b60018760818110610d8857610d88613a5e565b0155505b505050505b5060010161091c565b50505b5050505050505050505050565b610db261347d565b83828114610dd35760405163512509d360e11b815260040160405180910390fd5b60005b81811015610ed4576000878783818110610df257610df2613a5e565b9050602002013590506000868684818110610e0f57610e0f613a5e565b9050602002013590506000600190505b6081811015610ec6576040516371dacc7d60e11b81526004810184905260248101839052604481018290526108059063e3b598fa90606401602060405180830381865afa158015610e74573d6000803e3d6000fd5b505050506040513d601f19601f82011682018060405250810190610e989190613a74565b868260818110610eaa57610eaa613a5e565b60200201818151610ebb9190613acd565b905250600101610e1f565b508260010192505050610dd6565b5050949350505050565b610ee661347d565b610eee61347d565b610ef661347d565b610efe61347d565b610f0661347d565b6060600080610f13613001565b9750610f1d6130a5565b9650610f27613154565b9550610f4f600080516020613c03833981519152600080516020613c23833981519152613203565b6040516371dacc7d60e11b8152600080516020613c0383398151915260048201527f00000000000000000000000000000000000000000000000000000000000000006024820152600060448201529094506108059063e3b598fa90606401602060405180830381865afa158015610fca573d6000803e3d6000fd5b505050506040513d601f19601f82011682018060405250810190610fee9190613a74565b8452610ff86132ad565b6040805161102081019182905291945060019060819082845b81548152602001906001019080831161101157505050505094504791507f00000000000000000000000000000000000000000000000000000000000000006001600160a01b03163190509091929394959697565b336001600160a01b037f000000000000000000000000000000000000000000000000000000000000000016146110ae576040516330cd747160e01b815260040160405180910390fd5b8483811415806110be5750808214155b156110dc5760405163512509d360e11b815260040160405180910390fd5b60005b8181101561152c5760008686838181106110fb576110fb613a5e565b9050602002013590508060001461152357600089898481811061112057611120613a5e565b9050602002013590506000819050600087878681811061114257611142613a5e565b6040516369e38bc360e01b815261ffff8616600482015260209091029290920135925060009161080891506369e38bc390602401602060405180830381865afa158015611193573d6000803e3d6000fd5b505050506040513d601f19601f820116820180604052508101906111b79190613a74565b905080821061151e576040516371dacc7d60e11b8152600080516020613c0383398151915260048201527f00000000000000000000000000000000000000000000000000000000000000006024820152600060448201819052906108059063e3b598fa90606401602060405180830381865afa15801561123b573d6000803e3d6000fd5b505050506040513d601f19601f8201168201806040525081019061125f9190613a74565b90508581111561126c5750845b631dcd650081101561128557505050505050505061152f565b6040516371dacc7d60e11b8152600080516020613c038339815191526004820152600080516020613c238339815191526024820152604481018690526000906108059063e3b598fa90606401602060405180830381865afa1580156112ee573d6000803e3d6000fd5b505050506040513d601f19601f820116820180604052508101906113129190613a74565b604051630be72fb160e11b8152600080516020613c238339815191526004820152600080516020613c038339815191526024820152600060448201526064810188905260848101849052909150610805906317ce5f629060a401600060405180830381600087803b15801561138657600080fd5b505af115801561139a573d6000803e3d6000fd5b50506040516369e38bc360e01b815261ffff891660048201526000925061080891506369e38bc390602401602060405180830381865afa1580156113e2573d6000803e3d6000fd5b505050506040513d601f19601f820116820180604052508101906114069190613a74565b90508160000361142b57806001886081811061142457611424613a5e565b015561151a565b6040516371dacc7d60e11b8152600080516020613c038339815191526004820152600080516020613c238339815191526024820152604481018890526000906108059063e3b598fa90606401602060405180830381865afa158015611494573d6000803e3d6000fd5b505050506040513d601f19601f820116820180604052508101906114b89190613a74565b9050806114c58482613aa3565b6114cf9084613ab6565b8460018b608181106114e3576114e3613a5e565b01546114ef9190613ab6565b6114f99190613acd565b6115039190613af6565b6001896081811061151657611516613a5e565b0155505b5050505b505050505b506001016110df565b50505b505050505050565b6001816081811061154757600080fd5b0154905081565b336001600160a01b037f0000000000000000000000000000000000000000000000000000000000000000161480159061159257506082546001600160a01b03163314155b156115b057604051630b4a87e760e11b815260040160405180910390fd5b6040516307d691e360e41b8152600080516020613c038339815191526004820152602481018290526000604482015261080590637d691e30906064015b600060405180830381600087803b15801561160757600080fd5b505af115801561161b573d6000803e3d6000fd5b5050505050565b336001600160a01b037f0000000000000000000000000000000000000000000000000000000000000000161461166b576040516330cd747160e01b815260040160405180910390fd5b4760006116c47f2636ad834cd47318572033620d50377260a54fc64e5f150896186b2bafda74546001836116bf7f00000000000000000000000000000000000000000000000000000000000000008261335d565b6133ca565b9050600060066001600160a01b0316826040516116e19190613b3a565b6000604051808303816000865af19150503d806000811461171e576040519150601f19603f3d011682016040523d82523d6000602084013e611723565b606091505b505090508061173157600080fd5b60006117458467016345785d8a0000613acd565b90504781810361175457600080fd5b6201fefc19633b9aca00828403040160808110156118ee576040516371dacc7d60e11b8152600080516020613c038339815191526004820152600080516020613c238339815191526024820152604481018290526000906108059063e3b598fa90606401602060405180830381865afa1580156117d5573d6000803e3d6000fd5b505050506040513d601f19601f820116820180604052508101906117f99190613a74565b905080156118e857604051632d67f0b960e01b8152600481018390526024810182905273d689d29f7ea0c511f4dde84171b10d34078bb17c90632d67f0b990604401600060405180830381600087803b15801561185557600080fd5b505af1158015611869573d6000803e3d6000fd5b50506040516369e38bc360e01b815261ffff8516600482015261080892506369e38bc39150602401602060405180830381865afa1580156118ae573d6000803e3d6000fd5b505050506040513d601f19601f820116820180604052508101906118d29190613a74565b600183608181106118e5576118e5613a5e565b01555b50611c5f565b6118f9608082613aa3565b6040516371dacc7d60e11b8152600080516020613c0383398151915260048201527f000000000000000000000000000000000000000000000000000000000000000060248201526000604482018190529192506108059063e3b598fa90606401602060405180830381865afa158015611976573d6000803e3d6000fd5b505050506040513d601f19601f8201168201806040525081019061199a9190613a74565b905064012a05f2008111156119b1575064012a05f2005b631dcd65008110156119c65750505050505050565b6040516371dacc7d60e11b8152600080516020613c038339815191526004820152600080516020613c238339815191526024820152604481018390526000906108059063e3b598fa90606401602060405180830381865afa158015611a2f573d6000803e3d6000fd5b505050506040513d601f19601f82011682018060405250810190611a539190613a74565b604051630be72fb160e11b8152600080516020613c238339815191526004820152600080516020613c038339815191526024820152600060448201526064810185905260848101849052909150610805906317ce5f629060a401600060405180830381600087803b158015611ac757600080fd5b505af1158015611adb573d6000803e3d6000fd5b50506040516369e38bc360e01b815261ffff861660048201526000925061080891506369e38bc390602401602060405180830381865afa158015611b23573d6000803e3d6000fd5b505050506040513d601f19601f82011682018060405250810190611b479190613a74565b905081600003611b6c578060018560818110611b6557611b65613a5e565b0155611c5b565b6040516371dacc7d60e11b8152600080516020613c038339815191526004820152600080516020613c238339815191526024820152604481018590526000906108059063e3b598fa90606401602060405180830381865afa158015611bd5573d6000803e3d6000fd5b505050506040513d601f19601f82011682018060405250810190611bf99190613a74565b905080611c068482613aa3565b611c109084613ab6565b8460018860818110611c2457611c24613a5e565b0154611c309190613ab6565b611c3a9190613acd565b611c449190613af6565b60018660818110611c5757611c57613a5e565b0155505b5050505b60405163cd6f4eb160e01b81527f2636ad834cd47318572033620d50377260a54fc64e5f150896186b2bafda745460048201526108009063cd6f4eb19067016345785d8a0000906024016000604051808303818588803b158015611cc257600080fd5b505af1158015610d9d573d6000803e3d6000fd5b336001600160a01b037f00000000000000000000000000000000000000000000000000000000000000001614611d1f576040516330cd747160e01b815260040160405180910390fd5b82818114611d405760405163512509d360e11b815260040160405180910390fd5b60005b8181101561152f576000868683818110611d5f57611d5f613a5e565b90506020020135905060008190506000868685818110611d8157611d81613a5e565b6040516369e38bc360e01b815261ffff8616600482015260209091029290920135925060009161080891506369e38bc390602401602060405180830381865afa158015611dd2573d6000803e3d6000fd5b505050506040513d601f19601f82011682018060405250810190611df69190613a74565b9050808211611f7d576040516371dacc7d60e11b8152600080516020613c038339815191526004820152600080516020613c238339815191526024820152604481018590526000906108059063e3b598fa90606401602060405180830381865afa158015611e68573d6000803e3d6000fd5b505050506040513d601f19601f82011682018060405250810190611e8c9190613a74565b90508015611f7b57604051632d67f0b960e01b8152600481018690526024810182905273d689d29f7ea0c511f4dde84171b10d34078bb17c90632d67f0b990604401600060405180830381600087803b158015611ee857600080fd5b505af1158015611efc573d6000803e3d6000fd5b50506040516369e38bc360e01b815261ffff8816600482015261080892506369e38bc39150602401602060405180830381865afa158015611f41573d6000803e3d6000fd5b505050506040513d601f19601f82011682018060405250810190611f659190613a74565b60018660818110611f7857611f78613a5e565b01555b505b84600101945050505050611d43565b60845460ff1615611fb05760405163a62baeb760e01b815260040160405180910390fd5b6000610e10611fc26201518042613b46565b611fcc9190613af6565b9050600e811080611fde575060108110155b15611ffc5760405163cc1de8d960e01b815260040160405180910390fd5b6082546001600160a01b0316331461202757604051632d99bc8360e21b815260040160405180910390fd5b6001600160a01b03831661204e5760405163e6c4247b60e01b815260040160405180910390fd5b8160000361206f576040516365e52d5160e11b815260040160405180910390fd5b6000836001600160a01b0316836040515b60006040518083038185875af1925050503d80600081146120bd576040519150601f19603f3d011682016040523d82523d6000602084013e6120c2565b606091505b50509050806120e4576040516312171d8360e31b815260040160405180910390fd5b50505050565b336001600160a01b037f0000000000000000000000000000000000000000000000000000000000000000161480159061212e57506082546001600160a01b03163314155b1561214c57604051630b4a87e760e11b815260040160405180910390fd5b604051631fc9b14160e01b8152600080516020613c038339815191526004820152602481018290526000604482015261080590631fc9b141906064016115ed565b336001600160a01b037f000000000000000000000000000000000000000000000000000000000000000016148015906121d157506082546001600160a01b03163314155b156121ef57604051630b4a87e760e11b815260040160405180910390fd5b60405163d4626bb960e01b8152600080516020613c038339815191526004820152600060248201526108059063d4626bb990604401600060405180830381600087803b15801561223e57600080fd5b505af11580156120e4573d6000803e3d6000fd5b336001600160a01b037f0000000000000000000000000000000000000000000000000000000000000000161461229b576040516330cd747160e01b815260040160405180910390fd5b828181146122bc5760405163512509d360e11b815260040160405180910390fd5b60005b8181101561152f578383828181106122d9576122d9613a5e565b9050602002013560018787848181106122f4576122f4613a5e565b905060200201356081811061230b5761230b613a5e565b01556001016122bf565b336001600160a01b037f0000000000000000000000000000000000000000000000000000000000000000161461235e576040516330cd747160e01b815260040160405180910390fd5b61236a6000838361349c565b505050565b60845460ff16156123935760405163a62baeb760e01b815260040160405180910390fd5b6082546001600160a01b031633146123be57604051632d99bc8360e21b815260040160405180910390fd5b6040516257c71b60e41b815260048101829052600080516020613c23833981519152602482015273d689d29f7ea0c511f4dde84171b10d34078bb17c9063057c71b0906044016115ed565b61241161347d565b612419613154565b905090565b6000818154811061242e57600080fd5b6000918252602090912001546001600160a01b0316905081565b336001600160a01b037f0000000000000000000000000000000000000000000000000000000000000000161480159061248c57506082546001600160a01b03163314155b156124aa57604051630b4a87e760e11b815260040160405180910390fd5b60405163d4626bb960e01b8152600080516020613c038339815191526004820152602481018290526108059063d4626bb9906044016115ed565b6124ec61347d565b6124196130a5565b6124fc61347d565b612419613001565b60845460ff16156125285760405163a62baeb760e01b815260040160405180910390fd5b6000610e1061253a6201518042613b46565b6125449190613af6565b9050600e811080612556575060108110155b156125745760405163cc1de8d960e01b815260040160405180910390fd5b6082546001600160a01b0316331461259f57604051632d99bc8360e21b815260040160405180910390fd5b826125bd5760405163666b0c5d60e01b815260040160405180910390fd5b816000036125de576040516365e52d5160e11b815260040160405180910390fd5b60405163cd6f4eb160e01b8152600481018490526108009063cd6f4eb19084906024015b6000604051808303818588803b15801561261b57600080fd5b505af115801561152c573d6000803e3d6000fd5b336001600160a01b037f00000000000000000000000000000000000000000000000000000000000000001614612678576040516330cd747160e01b815260040160405180910390fd5b6084805460ff19166001179055565b60845460ff16156126ab5760405163a62baeb760e01b815260040160405180910390fd5b6000610e106126bd6201518042613b46565b6126c79190613af6565b9050600e8110806126d9575060108110155b156126f75760405163cc1de8d960e01b815260040160405180910390fd5b6082546001600160a01b0316331461272257604051632d99bc8360e21b815260040160405180910390fd5b816127405760405163666b0c5d60e01b815260040160405180910390fd5b476000819003612763576040516365e52d5160e11b815260040160405180910390fd5b60405163cd6f4eb160e01b8152600481018490526108009063cd6f4eb1908390602401612602565b336001600160a01b037f000000000000000000000000000000000000000000000000000000000000000016146127d4576040516330cd747160e01b815260040160405180910390fd5b868584146127f55760405163512509d360e11b815260040160405180910390fd5b60005b818110156129cf5760008a8a8381811061281457612814613a5e565b9050602002013590506128438186868581811061283357612833613a5e565b905060200201358b8b8b8b612f21565b156129c6576040516371dacc7d60e11b8152600080516020613c038339815191526004820152600080516020613c238339815191526024820152604481018290526000906108059063e3b598fa90606401602060405180830381865afa1580156128b1573d6000803e3d6000fd5b505050506040513d601f19601f820116820180604052508101906128d59190613a74565b905080156129c457604051632d67f0b960e01b8152600481018390526024810182905273d689d29f7ea0c511f4dde84171b10d34078bb17c90632d67f0b990604401600060405180830381600087803b15801561293157600080fd5b505af1158015612945573d6000803e3d6000fd5b50506040516369e38bc360e01b815261ffff8516600482015261080892506369e38bc39150602401602060405180830381865afa15801561298a573d6000803e3d6000fd5b505050506040513d601f19601f820116820180604052508101906129ae9190613a74565b600183608181106129c1576129c1613a5e565b01555b505b506001016127f8565b50505050505050505050565b60845460ff16156129ff5760405163a62baeb760e01b815260040160405180910390fd5b336001600160a01b037f00000000000000000000000000000000000000000000000000000000000000001614612a48576040516330cd747160e01b815260040160405180910390fd5b6001600160a01b038216612a6f5760405163e6c4247b60e01b815260040160405180910390fd5b80600003612a90576040516365e52d5160e11b815260040160405180910390fd5b6714d1120d7b160000811115612ab957604051630625040160e01b815260040160405180910390fd5b615460608354612ac99190613acd565b421015612ae95760405163034932ef60e51b815260040160405180910390fd5b426083556040516000906001600160a01b0384169083908381818185875af1925050503d8060008114612b38576040519150601f19603f3d011682016040523d82523d6000602084013e612b3d565b606091505b505090508061236a576040516312171d8360e31b815260040160405180910390fd5b6082546001600160a01b03163314612b8a57604051632d99bc8360e21b815260040160405180910390fd5b6084805460ff19169055565b336001600160a01b037f00000000000000000000000000000000000000000000000000000000000000001614801590612bda57506082546001600160a01b03163314155b15612bf857604051630b4a87e760e11b815260040160405180910390fd5b476000819003612c1b576040516365e52d5160e11b815260040160405180910390fd5b610805631fc9b141600080516020613c03833981519152612c40633b9aca0085613af6565b6040516001600160e01b031960e085901b16815260048101929092526024820152600060448201526064016115ed565b6082546001600160a01b03163314612c9b57604051632d99bc8360e21b815260040160405180910390fd5b6001600160a01b038216612cc25760405163e6c4247b60e01b815260040160405180910390fd5b80612ce05760405163666b0c5d60e01b815260040160405180910390fd5b60405163f4f1726b60e01b81526001600160a01b03831660048201526024810182905273d689d29f7ea0c511f4dde84171b10d34078bb17c9063f4f1726b90604401600060405180830381600087803b158015612d3c57600080fd5b505af115801561152f573d6000803e3d6000fd5b60845460ff1615612d745760405163a62baeb760e01b815260040160405180910390fd5b6000610e10612d866201518042613b46565b612d909190613af6565b9050600e811080612da2575060108110155b15612dc05760405163cc1de8d960e01b815260040160405180910390fd5b6082546001600160a01b03163314612deb57604051632d99bc8360e21b815260040160405180910390fd5b6001600160a01b038216612e125760405163e6c4247b60e01b815260040160405180910390fd5b476000819003612e35576040516365e52d5160e11b815260040160405180910390fd5b6000836001600160a01b031682604051612080565b60008084815b81811015612f145761080563e3b598fa898984818110612e7257612e72613a5e565b90506020020135888885818110612e8b57612e8b613a5e565b6040516001600160e01b031960e087901b16815260048101949094526020029190910135602483015250604481018c9052606401602060405180830381865afa158015612edc573d6000803e3d6000fd5b505050506040513d601f19601f82011682018060405250810190612f009190613a74565b612f0a9084613acd565b9250600101612e50565b5090979650505050505050565b600083815b81811015612ff0578761080563e3b598fa898985818110612f4957612f49613a5e565b90506020020135888886818110612f6257612f62613a5e565b6040516001600160e01b031960e087901b16815260048101949094526020029190910135602483015250604481018d9052606401602060405180830381865afa158015612fb3573d6000803e3d6000fd5b505050506040513d601f19601f82011682018060405250810190612fd79190613a74565b1115612fe857600192505050612ff7565b600101612f26565b5060009150505b9695505050505050565b61300961347d565b60005b608161ffff821610156130a1576040516369e38bc360e01b815261ffff82166004820152610808906369e38bc390602401602060405180830381865afa925050508015613076575060408051601f3d908101601f1916820190925261307391810190613a74565b60015b156130995780838361ffff166081811061309257613092613a5e565b6020020152505b60010161300c565b5090565b6130ad61347d565b60005b608161ffff821610156130a157604051632d9bfc7160e01b815261ffff8216600482015261080890632d9bfc7190602401602060405180830381865afa92505050801561311a575060408051601f3d908101601f1916820190925261311791810190613b5a565b60015b1561314c5780838361ffff166081811061313657613136613a5e565b67ffffffffffffffff9092166020929092020152505b6001016130b0565b61315c61347d565b60005b608161ffff821610156130a15760405163c2ba9e8760e01b815261ffff821660048201526108089063c2ba9e8790602401602060405180830381865afa9250505080156131c9575060408051601f3d908101601f191682019092526131c691810190613b5a565b60015b156131fb5780838361ffff16608181106131e5576131e5613a5e565b67ffffffffffffffff9092166020929092020152505b60010161315f565b61320b61347d565b60015b60818110156132a6576040516371dacc7d60e11b81526004810185905260248101849052604481018290526108059063e3b598fa90606401602060405180830381865afa158015613263573d6000803e3d6000fd5b505050506040513d601f19601f820116820180604052508101906132879190613a74565b82826081811061329957613299613a5e565b602002015260010161320e565b5092915050565b60008054606091908067ffffffffffffffff8111156132ce576132ce613a48565b6040519080825280602002602001820160405280156132f7578160200160208202803683370190505b50925060005b818110156133575782818154811061331757613317613a5e565b60009182526020909120015484516001600160a01b03909116319085908390811061334457613344613a5e565b60209081029190910101526001016132fd565b50505090565b60606005600461338d85604080516000602082015260218082019390935281518082039093018352604101905290565b8461339957600061339f565b600160f81b5b6040516020016133b29493929190613b84565b60405160208183030381529060405290505b92915050565b6060601060006133fa87604080516000602082015260218082019390935281518082039093018352604101905290565b6134048787613432565b85604051602001613419959493929190613bbb565b6040516020818303038152906040529050949350505050565b60608261345457506040805180820190915260018152600060208201526133c4565b604051600160f81b602082015260f883901b6001600160f81b03191660218201526022016133b2565b6040518061102001604052806081906020820280368337509192915050565b8280548282559060005260206000209081019282156134ef579160200282015b828111156134ef5781546001600160a01b0319166001600160a01b038435161782556020909201916001909101906134bc565b506130a19291505b808211156130a157600081556001016134f7565b60008083601f84011261351d57600080fd5b50813567ffffffffffffffff81111561353557600080fd5b6020830191508360208260051b850101111561355057600080fd5b9250929050565b6000806000806000806060878903121561357057600080fd5b863567ffffffffffffffff8082111561358857600080fd5b6135948a838b0161350b565b909850965060208901359150808211156135ad57600080fd5b6135b98a838b0161350b565b909650945060408901359150808211156135d257600080fd5b506135df89828a0161350b565b979a9699509497509295939492505050565b60008151808452602080850194506020840160005b8381101561362257815187529582019590820190600101613606565b509495945050505050565b60208152600061364060208301846135f1565b9392505050565b80356001600160a01b038116811461365e57600080fd5b919050565b60006020828403121561367557600080fd5b61364082613647565b8035801515811461365e57600080fd5b600080600080600080600080600080600060c08c8e0312156136af57600080fd5b67ffffffffffffffff808d3511156136c657600080fd5b6136d38e8e358f0161350b565b909c509a5060208d01358110156136e957600080fd5b6136f98e60208f01358f0161350b565b909a50985060408d013581101561370f57600080fd5b61371f8e60408f01358f0161350b565b909850965060608d013581101561373557600080fd5b6137458e60608f01358f0161350b565b909650945060808d013581101561375b57600080fd5b5061376c8d60808e01358e0161350b565b909350915061377d60a08d0161367e565b90509295989b509295989b9093969950565b600080600080604085870312156137a557600080fd5b843567ffffffffffffffff808211156137bd57600080fd5b6137c98883890161350b565b909650945060208701359150808211156137e257600080fd5b506137ef8782880161350b565b95989497509550505050565b8060005b60818110156120e45781518452602093840193909101906001016137ff565b61102081016133c482846137fb565b8060005b60818110156120e457815167ffffffffffffffff16845260209384019390910190600101613831565b6000615100613869838c6137fb565b61387761102084018b61382d565b61388561204084018a61382d565b6138936130608401896137fb565b6138a16140808401886137fb565b806150a08401526138b4818401876135f1565b6150c084019590955250506150e001529695505050505050565b6000602082840312156138e057600080fd5b5035919050565b600080604083850312156138fa57600080fd5b61390383613647565b946020939093013593505050565b6000806020838503121561392457600080fd5b823567ffffffffffffffff81111561393b57600080fd5b6139478582860161350b565b90969095509350505050565b61102081016133c4828461382d565b6000806040838503121561397557600080fd5b50508035926020909101359150565b6000806000806000806000806080898b0312156139a057600080fd5b883567ffffffffffffffff808211156139b857600080fd5b6139c48c838d0161350b565b909a50985060208b01359150808211156139dd57600080fd5b6139e98c838d0161350b565b909850965060408b0135915080821115613a0257600080fd5b613a0e8c838d0161350b565b909650945060608b0135915080821115613a2757600080fd5b50613a348b828c0161350b565b999c989b5096995094979396929594505050565b634e487b7160e01b600052604160045260246000fd5b634e487b7160e01b600052603260045260246000fd5b600060208284031215613a8657600080fd5b5051919050565b634e487b7160e01b600052601160045260246000fd5b818103818111156133c4576133c4613a8d565b80820281158282048414176133c4576133c4613a8d565b808201808211156133c4576133c4613a8d565b634e487b7160e01b600052601260045260246000fd5b600082613b0557613b05613ae0565b500490565b6000815160005b81811015613b2b5760208185018101518683015201613b11565b50600093019283525090919050565b60006136408284613b0a565b600082613b5557613b55613ae0565b500690565b600060208284031215613b6c57600080fd5b815167ffffffffffffffff8116811461364057600080fd5b600060ff60f81b808760f81b168352808660f81b166001840152613bab6002840186613b0a565b9316835250506001019392505050565b6001600160f81b031960f887811b8216835286901b1660018201526000613bf7613bf1613beb6002850188613b0a565b86613b0a565b84613b0a565b97965050505050505056feb4c087119097fbe3985298eef52f35ef6271c48322a8c2d430902a9cc38d94735bc73267f9990b1554109dc41e624a7dab56b1128f1ef2f62f6314294c038f9da26469706673582212205b7820f64cde268a6884cad69d49b0020bff10fe058cd50b3c32136a86acec9464736f6c63430008160033",
  "linkReferences": {},
  "deployedLinkReferences": {}
}