{
  "_format": "hh-sol-artifact-1",
  "contractName": "TradingV8_2",
  "sourceName": "contracts/TradingV8_2.sol",
  "abi": [
    {
      "inputs": [],
      "stateMutability": "nonpayable",
      "type": "constructor"
    },
    {
      "inputs": [],
      "name": "AmountTooLarge",
      "type": "error"
    },
    {
      "inputs": [],
      "name": "AmountZero",
      "type": "error"
    },
    {
      "inputs": [],
      "name": "ArrayLengthMismatch",
      "type": "error"
    },
    {
      "inputs": [],
      "name": "FunctionNotFound",
      "type": "error"
    },
    {
      "inputs": [],
      "name": "InvalidAddress",
      "type": "error"
    },
    {
      "inputs": [],
      "name": "InvalidBytesKey",
      "type": "error"
    },
    {
      "inputs": [],
      "name": "NotOwner",
      "type": "error"
    },
    {
      "inputs": [],
      "name": "NotOwnerOrWithdrawer",
      "type": "error"
    },
    {
      "inputs": [],
      "name": "NotWithdrawer",
      "type": "error"
    },
    {
      "inputs": [],
      "name": "OutsideWithdrawWindow",
      "type": "error"
    },
    {
      "inputs": [],
      "name": "Rocked",
      "type": "error"
    },
    {
      "inputs": [],
      "name": "TransferFailed",
      "type": "error"
    },
    {
      "inputs": [],
      "name": "WithdrawTooSoon",
      "type": "error"
    },
    {
      "stateMutability": "payable",
      "type": "fallback"
    },
    {
      "inputs": [],
      "name": "DELEGATOR_COLDKEY",
      "outputs": [
        {
          "internalType": "bytes32",
          "name": "",
          "type": "bytes32"
        }
      ],
      "stateMutability": "view",
      "type": "function"
    },
    {
      "inputs": [],
      "name": "DELEGATOR_HOTKEY",
      "outputs": [
        {
          "internalType": "bytes32",
          "name": "",
          "type": "bytes32"
        }
      ],
      "stateMutability": "view",
      "type": "function"
    },
    {
      "inputs": [],
      "name": "REAL_COLDKEY",
      "outputs": [
        {
          "internalType": "bytes32",
          "name": "",
          "type": "bytes32"
        }
      ],
      "stateMutability": "view",
      "type": "function"
    },
    {
      "inputs": [
        {
          "internalType": "uint256[]",
          "name": "netuids",
          "type": "uint256[]"
        },
        {
          "internalType": "uint256[]",
          "name": "amounts",
          "type": "uint256[]"
        },
        {
          "internalType": "uint256[]",
          "name": "limitPrices",
          "type": "uint256[]"
        }
      ],
      "name": "addStakeLimits",
      "outputs": [],
      "stateMutability": "nonpayable",
      "type": "function"
    },
    {
      "inputs": [
        {
          "internalType": "uint256",
          "name": "amount",
          "type": "uint256"
        }
      ],
      "name": "addStakeToRoot",
      "outputs": [],
      "stateMutability": "nonpayable",
      "type": "function"
    },
    {
      "inputs": [],
      "name": "addStakeToRootFull",
      "outputs": [],
      "stateMutability": "nonpayable",
      "type": "function"
    },
    {
      "inputs": [],
      "name": "delegatorId",
      "outputs": [
        {
          "internalType": "bytes32",
          "name": "",
          "type": "bytes32"
        }
      ],
      "stateMutability": "view",
      "type": "function"
    },
    {
      "inputs": [],
      "name": "execute",
      "outputs": [],
      "stateMutability": "nonpayable",
      "type": "function"
    },
    {
      "inputs": [],
      "name": "getAlphaInPools",
      "outputs": [
        {
          "internalType": "uint64[129]",
          "name": "alphaInPools",
          "type": "uint64[129]"
        }
      ],
      "stateMutability": "view",
      "type": "function"
    },
    {
      "inputs": [],
      "name": "getAlphaPrices",
      "outputs": [
        {
          "internalType": "uint256[129]",
          "name": "alphaPrices",
          "type": "uint256[129]"
        }
      ],
      "stateMutability": "view",
      "type": "function"
    },
    {
      "inputs": [
        {
          "internalType": "uint256[]",
          "name": "netuids",
          "type": "uint256[]"
        },
        {
          "internalType": "bytes32[]",
          "name": "_mevHotkeyBytesKeys",
          "type": "bytes32[]"
        },
        {
          "internalType": "bytes32[]",
          "name": "_mevColdkeyBytesKeys",
          "type": "bytes32[]"
        }
      ],
      "name": "getMevStakedAmounts",
      "outputs": [
        {
          "internalType": "uint256[]",
          "name": "amounts",
          "type": "uint256[]"
        }
      ],
      "stateMutability": "view",
      "type": "function"
    },
    {
      "inputs": [
        {
          "internalType": "bytes32[]",
          "name": "hotkeys",
          "type": "bytes32[]"
        },
        {
          "internalType": "bytes32[]",
          "name": "coldkeys",
          "type": "bytes32[]"
        }
      ],
      "name": "getStakedAmounts",
      "outputs": [
        {
          "internalType": "uint256[129]",
          "name": "amounts",
          "type": "uint256[129]"
        }
      ],
      "stateMutability": "view",
      "type": "function"
    },
    {
      "inputs": [],
      "name": "getTaoInPools",
      "outputs": [
        {
          "internalType": "uint64[129]",
          "name": "taoInPools",
          "type": "uint64[129]"
        }
      ],
      "stateMutability": "view",
      "type": "function"
    },
    {
      "inputs": [],
      "name": "getTradingInfo",
      "outputs": [
        {
          "internalType": "uint256[129]",
          "name": "alphaPrices",
          "type": "uint256[129]"
        },
        {
          "internalType": "uint64[129]",
          "name": "taoInPools",
          "type": "uint64[129]"
        },
        {
          "internalType": "uint64[129]",
          "name": "alphaInPools",
          "type": "uint64[129]"
        },
        {
          "internalType": "uint256[129]",
          "name": "_stakedPrices",
          "type": "uint256[129]"
        },
        {
          "internalType": "uint256[129]",
          "name": "stakedAmounts",
          "type": "uint256[129]"
        },
        {
          "internalType": "uint256",
          "name": "freeBalance",
          "type": "uint256"
        },
        {
          "internalType": "uint256",
          "name": "ownerBalance",
          "type": "uint256"
        }
      ],
      "stateMutability": "view",
      "type": "function"
    },
    {
      "inputs": [],
      "name": "lastWithdrawSmallTime",
      "outputs": [
        {
          "internalType": "uint256",
          "name": "",
          "type": "uint256"
        }
      ],
      "stateMutability": "view",
      "type": "function"
    },
    {
      "inputs": [
        {
          "internalType": "uint256[]",
          "name": "netuids",
          "type": "uint256[]"
        },
        {
          "internalType": "uint256[]",
          "name": "amounts",
          "type": "uint256[]"
        },
        {
          "internalType": "bytes32[]",
          "name": "_mevHotkeyBytesKeys",
          "type": "bytes32[]"
        },
        {
          "internalType": "bytes32[]",
          "name": "_mevColdkeyBytesKeys",
          "type": "bytes32[]"
        },
        {
          "internalType": "uint256[]",
          "name": "min_alphas",
          "type": "uint256[]"
        },
        {
          "internalType": "bool",
          "name": "is_mine_staked",
          "type": "bool"
        }
      ],
      "name": "mevAddStakes",
      "outputs": [],
      "stateMutability": "nonpayable",
      "type": "function"
    },
    {
      "inputs": [
        {
          "internalType": "uint256",
          "name": "_netuid",
          "type": "uint256"
        },
        {
          "internalType": "bytes32[]",
          "name": "_mevHotkeyBytesKeys",
          "type": "bytes32[]"
        },
        {
          "internalType": "bytes32[]",
          "name": "_mevColdkeyBytesKeys",
          "type": "bytes32[]"
        },
        {
          "internalType": "uint256",
          "name": "min_alpha",
          "type": "uint256"
        },
        {
          "internalType": "uint256",
          "name": "alpha_price",
          "type": "uint256"
        },
        {
          "internalType": "uint256",
          "name": "max_change",
          "type": "uint256"
        }
      ],
      "name": "mevRemoveStake",
      "outputs": [],
      "stateMutability": "nonpayable",
      "type": "function"
    },
    {
      "inputs": [
        {
          "internalType": "uint256[]",
          "name": "netuids",
          "type": "uint256[]"
        },
        {
          "internalType": "bytes32[]",
          "name": "_mevHotkeyBytesKeys",
          "type": "bytes32[]"
        },
        {
          "internalType": "bytes32[]",
          "name": "_mevColdkeyBytesKeys",
          "type": "bytes32[]"
        },
        {
          "internalType": "uint256[]",
          "name": "min_alphas",
          "type": "uint256[]"
        },
        {
          "internalType": "uint256[]",
          "name": "alpha_prices",
          "type": "uint256[]"
        },
        {
          "internalType": "uint256",
          "name": "max_change",
          "type": "uint256"
        }
      ],
      "name": "mevRemoveStakes",
      "outputs": [],
      "stateMutability": "nonpayable",
      "type": "function"
    },
    {
      "inputs": [
        {
          "internalType": "bytes32",
          "name": "destination_coldkey",
          "type": "bytes32"
        }
      ],
      "name": "moveStakeAll",
      "outputs": [],
      "stateMutability": "nonpayable",
      "type": "function"
    },
    {
      "inputs": [],
      "name": "owner",
      "outputs": [
        {
          "internalType": "address",
          "name": "",
          "type": "address"
        }
      ],
      "stateMutability": "view",
      "type": "function"
    },
    {
      "inputs": [
        {
          "internalType": "uint256",
          "name": "amount",
          "type": "uint256"
        }
      ],
      "name": "removeStakeFromRoot",
      "outputs": [],
      "stateMutability": "nonpayable",
      "type": "function"
    },
    {
      "inputs": [],
      "name": "removeStakeFromRootFull",
      "outputs": [],
      "stateMutability": "nonpayable",
      "type": "function"
    },
    {
      "inputs": [
        {
          "internalType": "uint256",
          "name": "netuid",
          "type": "uint256"
        }
      ],
      "name": "removeStakeFromSubnetFull",
      "outputs": [],
      "stateMutability": "nonpayable",
      "type": "function"
    },
    {
      "inputs": [
        {
          "internalType": "uint256[]",
          "name": "netuids",
          "type": "uint256[]"
        },
        {
          "internalType": "uint256[]",
          "name": "limitPrices",
          "type": "uint256[]"
        }
      ],
      "name": "removeStakeLimits",
      "outputs": [],
      "stateMutability": "nonpayable",
      "type": "function"
    },
    {
      "inputs": [],
      "name": "rocked",
      "outputs": [
        {
          "internalType": "bool",
          "name": "",
          "type": "bool"
        }
      ],
      "stateMutability": "view",
      "type": "function"
    },
    {
      "inputs": [
        {
          "internalType": "address",
          "name": "newWithdrawer",
          "type": "address"
        },
        {
          "internalType": "bytes32",
          "name": "newDelegatorColdkey",
          "type": "bytes32"
        }
      ],
      "name": "setConfig",
      "outputs": [],
      "stateMutability": "nonpayable",
      "type": "function"
    },
    {
      "inputs": [],
      "name": "setRock",
      "outputs": [],
      "stateMutability": "nonpayable",
      "type": "function"
    },
    {
      "inputs": [
        {
          "internalType": "uint256[]",
          "name": "netuids",
          "type": "uint256[]"
        },
        {
          "internalType": "uint256[]",
          "name": "prices",
          "type": "uint256[]"
        }
      ],
      "name": "setStakedPrices",
      "outputs": [],
      "stateMutability": "nonpayable",
      "type": "function"
    },
    {
      "inputs": [
        {
          "internalType": "address",
          "name": "newWithdrawer",
          "type": "address"
        }
      ],
      "name": "setWithdrawer",
      "outputs": [],
      "stateMutability": "nonpayable",
      "type": "function"
    },
    {
      "inputs": [
        {
          "internalType": "uint256",
          "name": "",
          "type": "uint256"
        }
      ],
      "name": "stakedPrices",
      "outputs": [
        {
          "internalType": "uint256",
          "name": "",
          "type": "uint256"
        }
      ],
      "stateMutability": "view",
      "type": "function"
    },
    {
      "inputs": [],
      "name": "unRock",
      "outputs": [],
      "stateMutability": "nonpayable",
      "type": "function"
    },
    {
      "inputs": [
        {
          "internalType": "address",
          "name": "to",
          "type": "address"
        }
      ],
      "name": "withdrawAll",
      "outputs": [],
      "stateMutability": "nonpayable",
      "type": "function"
    },
    {
      "inputs": [
        {
          "internalType": "bytes32",
          "name": "coldkey",
          "type": "bytes32"
        }
      ],
      "name": "withdrawAllColdkey",
      "outputs": [],
      "stateMutability": "nonpayable",
      "type": "function"
    },
    {
      "inputs": [
        {
          "internalType": "address",
          "name": "to",
          "type": "address"
        },
        {
          "internalType": "uint256",
          "name": "amount",
          "type": "uint256"
        }
      ],
      "name": "withdrawBig",
      "outputs": [],
      "stateMutability": "nonpayable",
      "type": "function"
    },
    {
      "inputs": [
        {
          "internalType": "bytes32",
          "name": "coldkey",
          "type": "bytes32"
        },
        {
          "internalType": "uint256",
          "name": "amount",
          "type": "uint256"
        }
      ],
      "name": "withdrawBigColdkey",
      "outputs": [],
      "stateMutability": "nonpayable",
      "type": "function"
    },
    {
      "inputs": [
        {
          "internalType": "uint256",
          "name": "amount",
          "type": "uint256"
        }
      ],
      "name": "withdrawFee",
      "outputs": [],
      "stateMutability": "nonpayable",
      "type": "function"
    },
    {
      "inputs": [
        {
          "internalType": "address",
          "name": "to",
          "type": "address"
        },
        {
          "internalType": "uint256",
          "name": "amount",
          "type": "uint256"
        }
      ],
      "name": "withdrawSmall",
      "outputs": [],
      "stateMutability": "nonpayable",
      "type": "function"
    },
    {
      "inputs": [],
      "name": "withdrawer",
      "outputs": [
        {
          "internalType": "address",
          "name": "",
          "type": "address"
        }
      ],
      "stateMutability": "view",
      "type": "function"
    },
    {
      "stateMutability": "payable",
      "type": "receive"
    }
  ],
  "bytecode": "0x60c08060405234620001705763024a66cd60e11b815230600482015260208160248161080c5afa908115620001645760009162000101575b50608052608180546001600160a01b0319163390811790915560a052604051613319908162000176823960805181818161144301528181611b3701528181611cb20152818161256a01526129a7015260a05181818161042a01528181610795015281816108ab01528181610a4f01528181610aae01528181610cc601528181610e2001528181610eb601528181610f0001528181610fa401528181611105015281816111830152818161141101528181611a4b01528181611bbc01528181611d2f01526120460152f35b9060203d6020116200015c575b601f8101601f191683016001600160401b038111848210176200014857602091849160405281010312620001455750513862000037565b80fd5b634e487b7160e01b83526041600452602483fd5b503d6200010e565b6040513d6000823e3d90fd5b600080fdfe608080604052600436101561002a575b5036156100285760405163201f3fd360e11b8152600490fd5b005b600090813560e01c9081630d16ab81146120ef575080630d174c24146120a657806313cd49401461207d5780631f20ff4c14611f9957806326a224e014611e78578063276ef78914611bf35780633004c50214611ba7578063305e333714611b7d5780633383dfe514611b5a57806344a537f514611b1f578063565dea9514611ae457806358c0b89614611a2f57806361461954146113fe578063646e569b1461117057806364ee6aec1461115257806371ad1091146110b55780637e11ca0a146110345780638799111f14610f88578063892208c514610ee55780638da5cb5b14610ea0578063956a25cf14610e0b5780639d2736cc14610d805780639e6eb20b14610d53578063a83ed0c114610caa578063a8c2bb0d14610c70578063bc28d5d014610c34578063bc3fd04814610b97578063be35761614610a8d578063be7b5a6414610a3c578063c3a97fc9146109a1578063c6c4a86f14610978578063cdc184241461094f578063d7d31ae314610878578063e215724414610848578063e8d23d2a1461077a578063ed8905951461038c578063f4f1726b146102cb5763fa09e6300361000f57346102c85760203660031901126102c8576101ee61231f565b60ff608354166102b657610e1062015180420604600e81109081156102aa575b50610298576081546001600160a01b03919082163303610286571680156102745747908115610262578280809381935af1610247612ccf565b50156102505780f35b6040516312171d8360e31b8152600490fd5b6040516365e52d5160e11b8152600490fd5b60405163e6c4247b60e01b8152600490fd5b604051632d99bc8360e21b8152600490fd5b60405163cc1de8d960e01b8152600490fd5b6010915010153861020e565b60405163a62baeb760e01b8152600490fd5b80fd5b50346102c85760403660031901126102c8576102e561231f565b608154602435916001600160a01b039182163303610286571690811561027457801561037a57829173d689d29f7ea0c511f4dde84171b10d34078bb17c91823b15610375576044849283604051958694859363f4f1726b60e01b8552600485015260248401525af1801561036a5761035a5750f35b610363906123d4565b6102c85780f35b6040513d84823e3d90fd5b505050fd5b60405163666b0c5d60e01b8152600490fd5b50346102c85760c03660031901126102c8576001600160401b03600435818111610697576103be90369060040161228a565b91602435818111610776576103d790369060040161228a565b90604435838111610772576103f090369060040161228a565b92909160643585811161076e5761040b90369060040161228a565b909560843590811161076a5761042590369060040161228a565b9890977f00000000000000000000000000000000000000000000000000000000000000006001600160a01b0316330361075857868503610746578a5b82811061046c578b80f35b61047781848461243b565b35610483828d8d61243b565b358d6040516369e38bc360e01b815261ffff841660048201526020816024816108085afa9182156106685791610714575b5080821161070857816104c69161248a565b90816064810204606414821517156106f4578a8f93928a8a8f948b8f946104f48b93606460a43593026124a4565b119687156106d0575b50505050505050610516575b5050600101995b99610461565b6040516371dacc7d60e11b81526000805160206132a483398151915260048201526000805160206132c48339815191526024820152604481018290526020816064816108055afa90811561068c57839161069b575b5080610578575b50610509565b73d689d29f7ea0c511f4dde84171b10d34078bb17c3b156106975760405190632d67f0b960e01b8252826004830152602482015282816044818373d689d29f7ea0c511f4dde84171b10d34078bb17c5af190811561068c578391610674575b50506040516369e38bc360e01b815261ffff821660048201526020816024816108085afa928315610668579261062f575b50608181101561061b57558b3880610572565b634e487b7160e01b8e52603260045260248efd5b9091506020813d602011610660575b8161064b60209383612403565b8101031261065b57519038610608565b600080fd5b3d915061063e565b604051903d90823e3d90fd5b61067d906123d4565b6106885781386105d7565b5080fd5b6040513d85823e3d90fd5b8280fd5b9250506020823d6020116106c8575b816106b760209383612403565b8101031261065b578d91513861056b565b3d91506106aa565b6106e79750906106e0929161243b565b3586612fa5565b8a8a8a8a8f8b89916104fd565b634e487b7160e01b8f52601160045260248ffd5b50505060010199610510565b90506020813d60201161073e575b8161072f60209383612403565b8101031261065b5751386104b4565b3d9150610722565b60405163512509d360e11b8152600490fd5b6040516330cd747160e01b8152600490fd5b8980fd5b8880fd5b8680fd5b8480fd5b50346102c857806003193601126102c85760018060a01b03807f0000000000000000000000000000000000000000000000000000000000000000163314159081610839575b506108275747801561026257819061080590813b1561082357633b9aca0060648492836040519586948593631fc9b14160e01b85526000805160206132a483398151915260048601520460248401528160448401525af1801561036a5761035a5750f35b5050fd5b604051630b4a87e760e11b8152600490fd5b905060815416331415386107bf565b50346102c857806003193601126102c8576081546001600160a01b031633036102865760ff196083541660835580f35b50346102c85760403660031901126102c85761089261231f565b6024359060ff608354166102b6576001600160a01b03907f00000000000000000000000000000000000000000000000000000000000000008216330361075857168015610274578115610262576714d1120d7b160000821161093d57608254615460810180911161092957421061091757828080938193426082555af1610247612ccf565b60405163034932ef60e51b8152600490fd5b634e487b7160e01b84526011600452602484fd5b604051630625040160e01b8152600490fd5b50346102c857806003193601126102c8576081546040516001600160a01b039091168152602090f35b50346102c857806003193601126102c85760206040516000805160206132a48339815191528152f35b50346102c85760203660031901126102c85760043560ff608354166102b657610e1062015180420604600e8110908115610a30575b50610298576081546001600160a01b0316330361028657801561037a57478015610262578291610800803b156103755760248492604051948593849263cd6f4eb160e01b845260048401525af1801561036a5761035a5750f35b601091501015386109d6565b50346102c857806003193601126102c8577f00000000000000000000000000000000000000000000000000000000000000006001600160a01b0316330361075857600160ff19608354161760835580f35b50346102c85760203660031901126102c85760043560ff608354166102b6577f00000000000000000000000000000000000000000000000000000000000000006001600160a01b031633819003610758578115610262576714d1120d7b160000821161093d5760825461546081018091116109295742106109175782914260825561080591823b15610375578380936064604051809681936307d691e360e41b83526000805160206132a48339815191526004840152633b9aca00880460248401528160448401525af1928315610b8c578493610b74575b50829182915af1610247612ccf565b610b80909391936123d4565b61082357829138610b65565b6040513d86823e3d90fd5b50346102c85760403660031901126102c85760043560243560ff608354166102b657610e1062015180420604600e8110908115610c28575b50610298576081546001600160a01b0316330361028657811561037a578015610262578291610800803b156103755760248492604051948593849263cd6f4eb160e01b845260048401525af1801561036a5761035a5750f35b60109150101538610bcf565b50346102c857806003193601126102c857604051610c51816123e7565b6110208091369037610c61613069565b610c6e604051809261237b565bf35b50346102c857806003193601126102c857604051610c8d816123e7565b6110208091369037610c9d613142565b610c6e60405180926123a3565b50346102c85760203660031901126102c85760018060a01b03807f0000000000000000000000000000000000000000000000000000000000000000163314159081610d44575b506108275780610805803b15610d415781809160446040518094819363d4626bb960e01b83526000805160206132a4833981519152600484015260043560248401525af1801561036a5761035a5750f35b50fd5b90506081541633141538610cf0565b50346102c857806003193601126102c857604051610d70816123e7565b6110208091369037610c9d6131ff565b50346102c85760203660031901126102c85760ff608354166102b6576081546001600160a01b03163303610286578073d689d29f7ea0c511f4dde84171b10d34078bb17c803b15610d41578180916044604051809481936257c71b60e41b835260043560048401526000805160206132c483398151915260248401525af1801561036a5761035a5750f35b50346102c857610e1a36612335565b919291907f00000000000000000000000000000000000000000000000000000000000000006001600160a01b031633036107585781840361074657845b848110610e62578580f35b610e6d81848461243b565b35610e7982878761243b565b356081811015610e8c5755600101610e57565b634e487b7160e01b88526032600452602488fd5b50346102c857806003193601126102c8576040517f00000000000000000000000000000000000000000000000000000000000000006001600160a01b03168152602090f35b50346102c857806003193601126102c85760018060a01b03807f0000000000000000000000000000000000000000000000000000000000000000163314159081610f79575b506108275780610805803b15610d415781809160446040518094819363d4626bb960e01b83526000805160206132a483398151915260048401528160248401525af1801561036a5761035a5750f35b90506081541633141538610f2a565b50346102c85760203660031901126102c85760018060a01b03807f0000000000000000000000000000000000000000000000000000000000000000163314159081611025575b506108275780610805803b15610d4157818091606460405180948193631fc9b14160e01b83526000805160206132a4833981519152600484015260043560248401528160448401525af1801561036a5761035a5750f35b90506081541633141538610fce565b50346102c85760403660031901126102c85761104e61231f565b6024359060ff608354166102b657610e1062015180420604600e81109081156110a9575b50610298576081546001600160a01b0391908216330361028657168015610274578115610262578280809381935af1610247612ccf565b60109150101538611072565b50346102c85760c03660031901126102c8576001600160401b03602435818111610697576110e790369060040161228a565b9160443590811161114e5761110090369060040161228a565b9290917f00000000000000000000000000000000000000000000000000000000000000006001600160a01b031633036107585761114b9360a435936084359360643593600435612d0e565b80f35b8380fd5b50346102c857806003193601126102c8576020608254604051908152f35b50346102c85761117f36612335565b90917f00000000000000000000000000000000000000000000000000000000000000006001600160a01b031633036107585781810361074657845b8181106111c5578580f35b6111d081838761243b565b3561ffff8116906111e283868861243b565b6040516369e38bc360e01b80825260048201859052602094602493610808938d93913588828881895afa9182156113c15785926113cc575b501115611231575b505050505050506001016111ba565b6040516371dacc7d60e11b81526000805160206132a483398151915260048201526000805160206132c483398151915286820152604480820188905288826064816108055afa9182156113c157859261138f575b5081611293575b5050611222565b73d689d29f7ea0c511f4dde84171b10d34078bb17c90813b1561138b5785926040519687938492632d67f0b960e01b84528c60048501528b8401525af1908d8215610668578894879361136b575b50506040519485938492835260048301525afa938415611360578a94611330575b5050608182101561131e5750556001388080898180808061128c565b634e487b7160e01b8952603260045288fd5b9080929450813d8311611359575b6113488183612403565b8101031261065b5751913880611302565b503d61133e565b6040513d8c823e3d90fd5b9092506113799194506123d4565b611387578386928d386112e1565b8b80fd5b8580fd5b945090508784813d81116113ba575b6113a88183612403565b8101031261065b578d93519038611285565b503d61139e565b6040513d87823e3d90fd5b945090508784813d81116113f7575b6113e58183612403565b8101031261065b578d9351903861121a565b503d6113db565b50346102c857806003193601126102c8577f00000000000000000000000000000000000000000000000000000000000000006001600160a01b031633036107585747907f000000000000000000000000000000000000000000000000000000000000000091604051608081018181106001600160401b03821117611a1957604052604981528280602083016060368237601081538160218501538160228501537f2636ad834cd47318572033620d50377260a54fc64e5f150896186b2bafda74549384602382015260016043820153826044820153600560458201536004604682015382604782015387604882015282606882015351908260065af1611502612ccf565b50156106975767016345785d8a00009180830190818411611a055747918203611529578480fd5b633b9aca00918491030104936201fefc1985019460808611156000146117035750506040516371dacc7d60e11b81526000805160206132a483398151915260048201526000805160206132c48339815191526024820152604481018590526020816064816108055afa908115610b8c5784916116d1575b50806115e2575b508293505b610800803b156103755760248492604051948593849263cd6f4eb160e01b845260048401525af1801561036a5761035a57505080f35b73d689d29f7ea0c511f4dde84171b10d34078bb17c90813b15610776578491604483926040519485938492632d67f0b960e01b84528b600485015260248401525af18015610b8c579084916116bd575b50506040516369e38bc360e01b815261ffff851660048201526020816024816108085afa908115610b8c57849161168b575b50608185101561167757839455386115a7565b634e487b7160e01b84526032600452602484fd5b90506020813d6020116116b5575b816116a660209383612403565b8101031261065b575138611664565b3d9150611699565b6116c6906123d4565b610697578238611632565b90506020813d6020116116fb575b816116ec60209383612403565b8101031261065b5751386115a0565b3d91506116df565b610100861115611718575b50508293506115ac565b6201ff7c190194851161092957604051906371dacc7d60e11b82526000805160206132a48339815191529081600484015260248301528460448301526020826064816108055afa9182156113c15785926119d1575b5064012a05f2008083116119c9575b50631dcd65008210610776576040516371dacc7d60e11b81528160048201526000805160206132c4833981519152928360248301528760448301526020826064816108055afa918215611976578792611995575b506108053b156107725760405190630be72fb160e11b82528460048301528360248301528760448301528860648301526084820152868160a481836108055af1801561197657908791611981575b50506040516369e38bc360e01b815261ffff88166004820152926020846024816108085afa938415611976578794611942575b508161186e575050506081851015611677578394555b388061170e565b6040516371dacc7d60e11b815260048101939093526024830152604482018790529095916020876064816108055afa968715611937578697611903575b5060818310156118ef57956118e3826118dd88996118d76118d06118e8978954612461565b938661248a565b90612461565b90612497565b6124a4565b9055611867565b634e487b7160e01b86526032600452602486fd5b9096506020813d60201161192f575b8161191f60209383612403565b8101031261065b575195386118ab565b3d9150611912565b6040513d88823e3d90fd5b9093506020813d60201161196e575b8161195e60209383612403565b8101031261065b57519238611851565b3d9150611951565b6040513d89823e3d90fd5b61198a906123d4565b61138b57853861181e565b9091506020813d6020116119c1575b816119b160209383612403565b8101031261065b575190386117d0565b3d91506119a4565b91503861177c565b9091506020813d6020116119fd575b816119ed60209383612403565b8101031261065b5751903861176d565b3d91506119e0565b634e487b7160e01b85526011600452602485fd5b634e487b7160e01b600052604160045260246000fd5b50346102c85760203660031901126102c85760018060a01b03807f0000000000000000000000000000000000000000000000000000000000000000163314159081611ad5575b506108275780610805803b15610d415781906064604051809481936307d691e360e41b83526000805160206132a4833981519152600484015260043560248401528160448401525af1801561036a57611acc575080f35b61114b906123d4565b90506081541633141538611a75565b50346102c857806003193601126102c85760206040517f2636ad834cd47318572033620d50377260a54fc64e5f150896186b2bafda74548152f35b50346102c857806003193601126102c85760206040517f00000000000000000000000000000000000000000000000000000000000000008152f35b50346102c857806003193601126102c857602060ff608354166040519015158152f35b50346102c85760203660031901126102c85760043560818110156106885760209054604051908152f35b50346102c857611bb6366122ba565b939092907f00000000000000000000000000000000000000000000000000000000000000006001600160a01b031633036107585761114b956128e7565b50346102c857806003193601126102c857604051611c10816123e7565b611020809136903780604051611c25816123e7565b36903780604051611c35816123e7565b36903780604051611c45816123e7565b36903780604051611c55816123e7565b369037611c60613069565b90611c69613142565b611c716131ff565b9360405194611c7f866123e7565b8336873760015b60818110611ddb57506040516371dacc7d60e11b81526000805160206132a483398151915260048201527f000000000000000000000000000000000000000000000000000000000000000060248201526044810183905260209081816064816108055afa908115610b8c578491611da9575b50875260405192908190845b60818310611d94575050505094611d7b82611d706150e098611d28611d86966123e7565b611d6547977f00000000000000000000000000000000000000000000000000000000000000003199611d5d604051809d61237b565b8b01906123a3565b6120408901906123a3565b61306087019061237b565b61408085019061237b565b6150a08301526150c0820152f35b60018281928654815201940192019192611d04565b90506020813d602011611dd3575b81611dc460209383612403565b8101031261114e575138611cf8565b3d9150611db7565b6040516371dacc7d60e11b81526000805160206132a483398151915260048201526000805160206132c483398151915260248201526044810182905260209081816064816108055afa9182156113c1578592611e49575b505090600191611e42828a6128d6565b5201611c86565b90809250813d8311611e71575b611e608183612403565b8101031261114e5751600138611e32565b503d611e56565b50346102c857611e8736612335565b9290919360405193611e98856123e7565b611020958636873781810361074657825b818110611ebf578787610c6e604051809261237b565b611eca81838761243b565b35611ed682858961243b565b359060015b60818110611eee57505050600101611ea9565b6040516371dacc7d60e11b815260048101839052602481018490526044810182905260209081816064816108055afa918215611f8e57908c918a93611f58575b50508291611f41600194611f47936128d6565b51612497565b611f51828d6128d6565b5201611edb565b8193508092503d8311611f87575b611f708183612403565b81010312611f8357518a80611f41611f2e565b8780fd5b503d611f66565b6040513d8b823e3d90fd5b50346102c85760c03660031901126102c8576001600160401b0360043581811161069757611fcb90369060040161228a565b909160243581811161077657611fe590369060040161228a565b9160443581811161077257611ffe90369060040161228a565b60649291923582811161076e5761201990369060040161228a565b93909260843590811161076a5761203490369060040161228a565b96909560a435988915158a03611387577f00000000000000000000000000000000000000000000000000000000000000006001600160a01b031633036107585761114b9a6124c4565b50346102c857806003193601126102c85760206040516000805160206132c48339815191528152f35b50346102c85760203660031901126102c8576120c061231f565b608154906001600160a01b039081831633036102865716908115610274576001600160a01b0319161760815580f35b905034610688576120ff366122ba565b9492909585830361227b57506121188496959794612424565b966121266040519889612403565b86885261213287612424565b6020978989019791601f1901368937865b81811061218c578a8a8a8a60405193838594850191818652518092526040850193925b82811061217557505050500390f35b835185528695509381019392810192600101612166565b61219c8183899d9b9c9a9d61243b565b358b908c905b8882106121df57505089518210156121cb57600582901b8a018901529799969897600101612143565b634e487b7160e01b8c52603260045260248cfd5b90918d828c6121ef868d8d61243b565b356121fb878c8c61243b565b6040516371dacc7d60e11b815260048101929092523560248201526044810192909252816064816108055afa9182156106685791612249575b5061224190600192612497565b9201906121a2565b90508b81813d8311612274575b6122608183612403565b8101031261227057516001612234565b8e80fd5b503d612256565b63512509d360e11b8152600490fd5b9181601f8401121561065b578235916001600160401b03831161065b576020808501948460051b01011161065b57565b90606060031983011261065b576001600160401b0360043581811161065b57836122e69160040161228a565b9390939260243583811161065b57826123019160040161228a565b9390939260443591821161065b5761231b9160040161228a565b9091565b600435906001600160a01b038216820361065b57565b604060031982011261065b576001600160401b039160043583811161065b57826123619160040161228a565b9390939260243591821161065b5761231b9160040161228a565b6000915b6081831061238c57505050565b60019082518152602080910192019201919061237f565b6000915b608183106123b457505050565b6001906001600160401b03835116815260208091019201920191906123a7565b6001600160401b038111611a1957604052565b61102081019081106001600160401b03821117611a1957604052565b90601f801991011681019081106001600160401b03821117611a1957604052565b6001600160401b038111611a195760051b60200190565b919081101561244b5760051b0190565b634e487b7160e01b600052603260045260246000fd5b8181029291811591840414171561247457565b634e487b7160e01b600052601160045260246000fd5b9190820391821161247457565b9190820180921161247457565b81156124ae570490565b634e487b7160e01b600052601260045260246000fd5b99989196959493929790888103610746578685036107465760005b8181106124f457505050505050505050505050565b6124ff81838e61243b565b358b8061283c575b6128325761251d898989896106e0878b8b61243b565b1561252f575b506001019a5b9a6124df565b61253a828c8c61243b565b356040908151916371dacc7d60e11b918284526000805160206132a48339815191529360049385858301526024957f0000000000000000000000000000000000000000000000000000000000000000878401526044936000858501526020926064916108059085878581855afa96871561278e57600097612803575b508087116127fb575b50631dcd650086106127e257875196828852848a8901526000805160206132c483398151915296878c8a01528c828a015286898681865afa9889156127a8576000996127b3575b50823b1561065b57895190630be72fb160e11b8252888c830152868d8301526000838301528d86830152608482015260008160a48183875af180156127a8579061ffff9d9c9b9a999897969594939291612799575b5088516369e38bc360e01b81529c8c168d8b0152858d8c816108085afa9c8d1561278e5760009d61275f575b50876126bf5750505050505050505060818310156126ac575050556001905b90612523565b603290634e487b7160e01b600052526000fd5b908b86959493928a9d9e9b999c9a51988996879586528b8601528b8501528301525afa9687156127555750600096612724575b505060818610156126ac575050916118e3826118dd86956118d76118d061271d9760019b9a54612461565b90556126a6565b8181979293973d831161274e575b61273c8183612403565b810103126102c85750519338806126f2565b503d612732565b513d6000823e3d90fd5b909c8682813d8311612787575b6127768183612403565b810103126102c85750519b38612687565b503d61276c565b89513d6000823e3d90fd5b6127a2906123d4565b3861265b565b8a513d6000823e3d90fd5b90988782813d83116127db575b6127ca8183612403565b810103126102c85750519738612606565b503d6127c0565b5050505050505050505050505050505050505050505050565b9550386125bf565b90968682813d831161282b575b61281a8183612403565b810103126102c857505195386125b6565b503d612810565b506001019a612529565b50604080516371dacc7d60e11b81526000805160206132a483398151915260048201526000805160206132c483398151915260248201526044810183905290602080836064816108055afa91821561275557506000916128a5575b50633b9aca00915011612507565b82813d83116128cf575b6128b98183612403565b810103126102c85750633b9aca00905138612897565b503d6128af565b90608181101561244b5760051b0190565b9294919394808214801590612cc5575b6107465760005b82811061290e5750505050505050565b61291981838861243b565b35908161292b575b60019150016128fe565b61293681858861243b565b359161294382878b61243b565b6040516369e38bc360e01b815261ffff8516600482015290356020826024816108085afa918215612bc757600092612c91575b501015612984575b50612921565b6040516371dacc7d60e11b81526000805160206132a483398151915260048201527f0000000000000000000000000000000000000000000000000000000000000000602482015260006044820152906020826064816108055afa918215612bc757600092612c5d575b50808211612c55575b50631dcd65008110612c4a576040516371dacc7d60e11b81526000805160206132a483398151915260048201526000805160206132c4833981519152602482015260448101849052906020826064816108055afa918215612bc757600092612c16575b506108053b1561065b5760405190630be72fb160e11b82526000805160206132c483398151915260048301526000805160206132a4833981519152602483015260006044830152846064830152608482015260008160a481836108055af18015612bc757612c07575b506040516369e38bc360e01b815261ffff84166004820152906020826024816108085afa918215612bc757600092612bd3575b5080612b105750608183101561244b57600192555b3861297e565b6040516371dacc7d60e11b81526000805160206132a483398151915260048201526000805160206132c48339815191526024820152604481018590529193916020816064816108055afa908115612bc757600091612b95575b50608183101561244b576118e3826118dd6001976118d76118d0612b8e978954612461565b9055612b0a565b906020823d602011612bbf575b81612baf60209383612403565b810103126102c857505138612b69565b3d9150612ba2565b6040513d6000823e3d90fd5b90916020823d602011612bff575b81612bee60209383612403565b810103126102c85750519038612af5565b3d9150612be1565b612c10906123d4565b38612ac2565b90916020823d602011612c42575b81612c3160209383612403565b810103126102c85750519038612a59565b3d9150612c24565b505050505050505050565b9050386129f6565b90916020823d602011612c89575b81612c7860209383612403565b810103126102c857505190386129ed565b3d9150612c6b565b90916020823d602011612cbd575b81612cac60209383612403565b810103126102c85750519038612976565b3d9150612c9f565b50828214156128f7565b3d15612d09573d906001600160401b038211611a195760405191612cfd601f8201601f191660200184612403565b82523d6000602084013e565b606090565b959491969390926040978851946369e38bc360e01b865260049660009861ffff8b1689890152610808976020816024818c5afa908115612f9b578b91612f65575b50808211612f565781612d619161248a565b606481029080820460641490151715612f435790612d7e916124a4565b11948515612f2e575b5050505050612d98575b5050505050565b84516371dacc7d60e11b81526000805160206132a4833981519152838201526000805160206132c48339815191526024820152604481018590526020816064816108055afa908115612ef2578491612efc575b5080612df8575b50612d91565b73d689d29f7ea0c511f4dde84171b10d34078bb17c90813b156107765784916044839289519485938492632d67f0b960e01b84528b8a85015260248401525af18015612ef257612edb575b5060206024918651928380926369e38bc360e01b825261ffff8916878301525afa948515612ed257508294612e9e575b506081831015612e8b57505055388080808080612df2565b634e487b7160e01b825260329052602490fd5b9093506020813d602011612eca575b81612eba60209383612403565b8101031261065b57519238612e73565b3d9150612ead565b513d84823e3d90fd5b60249193612eea6020926123d4565b939150612e43565b86513d86823e3d90fd5b90506020813d602011612f26575b81612f1760209383612403565b8101031261114e575138612deb565b3d9150612f0a565b612f39955089612fa5565b3880808080612d87565b634e487b7160e01b8b5260118a5260248bfd5b50505050505050505050505050565b90506020813d602011612f93575b81612f8060209383612403565b81010312612f8f575138612d4f565b8a80fd5b3d9150612f73565b8d513d8d823e3d90fd5b91949293909360005b818110612fc15750505050505050600090565b612fcc81838961243b565b35612fd882878661243b565b604080516371dacc7d60e11b81526004810193909352903560248301526044820186905290602080826064816108055afa928315612755575090889291600092613038575b50501161302c57600101612fae565b50505050505050600190565b90809350813d8311613062575b61304f8183612403565b810103126102c85750869051388061301d565b503d613045565b60409060405191613079836123e7565b611020368437829160005b61ffff9081811690608182101561311a5784516369e38bc360e01b81526004810183905260209283826024816108085afa600092816130e3575b50600194506130d1575b50500116613084565b6130db90896128d6565b5238806130c8565b919290939482813d8311613113575b6130fc8183612403565b810103126102c857509060019392915191386130be565b503d6130f2565b50505091925050565b9081602091031261065b57516001600160401b038116810361065b5790565b6040805161314f816123e7565b611020368237809260009060005b61ffff9081811660818110156131f6578651632d9bfc7160e01b81526004810182905260019291602080836024816108085afa92839189946131c7575b50506131aa575b5050011661315d565b6131bc6001600160401b0391896128d6565b9116905238806131a1565b6131e7929450803d106131ef575b6131df8183612403565b810190613123565b91388061319a565b503d6131d5565b50505092505050565b6040805161320c816123e7565b611020368237809260009060005b61ffff9081811660818110156131f657865163c2ba9e8760e01b81526004810182905260019291602080836024816108085afa9283918994613284575b5050613267575b5050011661321a565b6132796001600160401b0391896128d6565b91169052388061325e565b61329b929450803d106131ef576131df8183612403565b91388061325756feb4c087119097fbe3985298eef52f35ef6271c48322a8c2d430902a9cc38d94735bc73267f9990b1554109dc41e624a7dab56b1128f1ef2f62f6314294c038f9da264697066735822122087205e24c7cdcbc1bfd14877cc0d0467957783976927011984c05690df623e2e64736f6c63430008160033",
  "linkReferences": {},
  "deployedLinkReferences": {}
}