{
  "_format": "hh-sol-artifact-1",
  "contractName": "TradingV7",
  "sourceName": "contracts/TradingV7.sol",
  "abi": [
    {
      "inputs": [],
      "stateMutability": "nonpayable",
      "type": "constructor"
    },
    {
      "inputs": [],
      "name": "AmountZero",
      "type": "error"
    },
    {
      "inputs": [],
      "name": "ArrayLengthMismatch",
      "type": "error"
    },
    {
      "inputs": [],
      "name": "FunctionNotFound",
      "type": "error"
    },
    {
      "inputs": [],
      "name": "InvalidAddress",
      "type": "error"
    },
    {
      "inputs": [],
      "name": "InvalidBytesKey",
      "type": "error"
    },
    {
      "inputs": [],
      "name": "NotWithdrawer",
      "type": "error"
    },
    {
      "inputs": [],
      "name": "TransferFailed",
      "type": "error"
    },
    {
      "anonymous": false,
      "inputs": [
        {
          "indexed": true,
          "internalType": "address",
          "name": "previousOwner",
          "type": "address"
        },
        {
          "indexed": true,
          "internalType": "address",
          "name": "newOwner",
          "type": "address"
        }
      ],
      "name": "OwnershipTransferred",
      "type": "event"
    },
    {
      "stateMutability": "payable",
      "type": "fallback"
    },
    {
      "inputs": [],
      "name": "DELEGATOR_BYTES_KEY",
      "outputs": [
        {
          "internalType": "bytes32",
          "name": "",
          "type": "bytes32"
        }
      ],
      "stateMutability": "view",
      "type": "function"
    },
    {
      "inputs": [
        {
          "internalType": "uint256[]",
          "name": "netuids",
          "type": "uint256[]"
        },
        {
          "internalType": "uint256[]",
          "name": "amounts",
          "type": "uint256[]"
        },
        {
          "internalType": "uint256[]",
          "name": "limitPrices",
          "type": "uint256[]"
        }
      ],
      "name": "addStakeLimits",
      "outputs": [],
      "stateMutability": "payable",
      "type": "function"
    },
    {
      "inputs": [],
      "name": "contractBytesKey",
      "outputs": [
        {
          "internalType": "bytes32",
          "name": "",
          "type": "bytes32"
        }
      ],
      "stateMutability": "view",
      "type": "function"
    },
    {
      "inputs": [
        {
          "internalType": "address",
          "name": "to",
          "type": "address"
        },
        {
          "internalType": "uint256",
          "name": "amount",
          "type": "uint256"
        }
      ],
      "name": "emergencyWithdrawTao",
      "outputs": [],
      "stateMutability": "nonpayable",
      "type": "function"
    },
    {
      "inputs": [],
      "name": "getAlphaPrices",
      "outputs": [
        {
          "internalType": "uint256[129]",
          "name": "alphaPrices",
          "type": "uint256[129]"
        }
      ],
      "stateMutability": "view",
      "type": "function"
    },
    {
      "inputs": [
        {
          "internalType": "uint256[]",
          "name": "netuids",
          "type": "uint256[]"
        },
        {
          "internalType": "bytes32[]",
          "name": "_mevHotkeyBytesKeys",
          "type": "bytes32[]"
        },
        {
          "internalType": "bytes32[]",
          "name": "_mevColdkeyBytesKeys",
          "type": "bytes32[]"
        }
      ],
      "name": "getMevStakedAmounts",
      "outputs": [
        {
          "internalType": "uint256[]",
          "name": "amounts",
          "type": "uint256[]"
        }
      ],
      "stateMutability": "view",
      "type": "function"
    },
    {
      "inputs": [
        {
          "internalType": "bytes32[]",
          "name": "hotkeys",
          "type": "bytes32[]"
        },
        {
          "internalType": "bytes32[]",
          "name": "coldkeys",
          "type": "bytes32[]"
        }
      ],
      "name": "getStakedAmounts",
      "outputs": [
        {
          "internalType": "uint256[129]",
          "name": "amounts",
          "type": "uint256[129]"
        }
      ],
      "stateMutability": "view",
      "type": "function"
    },
    {
      "inputs": [],
      "name": "getTaoInPools",
      "outputs": [
        {
          "internalType": "uint64[129]",
          "name": "taoInPools",
          "type": "uint64[129]"
        }
      ],
      "stateMutability": "view",
      "type": "function"
    },
    {
      "inputs": [],
      "name": "getTradingInfo",
      "outputs": [
        {
          "internalType": "uint256[129]",
          "name": "alphaPrices",
          "type": "uint256[129]"
        },
        {
          "internalType": "uint64[129]",
          "name": "taoInPools",
          "type": "uint64[129]"
        },
        {
          "internalType": "bool[129]",
          "name": "staked",
          "type": "bool[129]"
        },
        {
          "internalType": "uint256[129]",
          "name": "limitPrices",
          "type": "uint256[129]"
        },
        {
          "internalType": "uint256[129]",
          "name": "stakedAmounts",
          "type": "uint256[129]"
        },
        {
          "internalType": "uint256[]",
          "name": "mevFreeBalances",
          "type": "uint256[]"
        },
        {
          "internalType": "uint256",
          "name": "freeBalance",
          "type": "uint256"
        },
        {
          "internalType": "uint256",
          "name": "ownerBalance",
          "type": "uint256"
        }
      ],
      "stateMutability": "view",
      "type": "function"
    },
    {
      "inputs": [
        {
          "internalType": "uint256",
          "name": "",
          "type": "uint256"
        }
      ],
      "name": "isStaked",
      "outputs": [
        {
          "internalType": "bool",
          "name": "",
          "type": "bool"
        }
      ],
      "stateMutability": "view",
      "type": "function"
    },
    {
      "inputs": [
        {
          "internalType": "uint256",
          "name": "",
          "type": "uint256"
        }
      ],
      "name": "lastLimitPrices",
      "outputs": [
        {
          "internalType": "uint256",
          "name": "",
          "type": "uint256"
        }
      ],
      "stateMutability": "view",
      "type": "function"
    },
    {
      "inputs": [
        {
          "internalType": "uint256",
          "name": "",
          "type": "uint256"
        }
      ],
      "name": "lastStakeTimestamps",
      "outputs": [
        {
          "internalType": "uint256",
          "name": "",
          "type": "uint256"
        }
      ],
      "stateMutability": "view",
      "type": "function"
    },
    {
      "inputs": [
        {
          "internalType": "uint256[]",
          "name": "netuids",
          "type": "uint256[]"
        },
        {
          "internalType": "uint256[]",
          "name": "amounts",
          "type": "uint256[]"
        },
        {
          "internalType": "bytes32[]",
          "name": "_mevHotkeyBytesKeys",
          "type": "bytes32[]"
        },
        {
          "internalType": "bytes32[]",
          "name": "_mevColdkeyBytesKeys",
          "type": "bytes32[]"
        }
      ],
      "name": "mevAddStakes",
      "outputs": [],
      "stateMutability": "payable",
      "type": "function"
    },
    {
      "inputs": [
        {
          "internalType": "uint256",
          "name": "",
          "type": "uint256"
        }
      ],
      "name": "mevAddresses",
      "outputs": [
        {
          "internalType": "address",
          "name": "",
          "type": "address"
        }
      ],
      "stateMutability": "view",
      "type": "function"
    },
    {
      "inputs": [
        {
          "internalType": "uint256[]",
          "name": "netuids",
          "type": "uint256[]"
        },
        {
          "internalType": "bytes32[]",
          "name": "_mevHotkeyBytesKeys",
          "type": "bytes32[]"
        },
        {
          "internalType": "bytes32[]",
          "name": "_mevColdkeyBytesKeys",
          "type": "bytes32[]"
        }
      ],
      "name": "mevRemoveStakes",
      "outputs": [],
      "stateMutability": "payable",
      "type": "function"
    },
    {
      "inputs": [],
      "name": "owner",
      "outputs": [
        {
          "internalType": "address",
          "name": "",
          "type": "address"
        }
      ],
      "stateMutability": "view",
      "type": "function"
    },
    {
      "inputs": [
        {
          "internalType": "uint256[]",
          "name": "netuids",
          "type": "uint256[]"
        }
      ],
      "name": "removeDeregisteredStakes",
      "outputs": [],
      "stateMutability": "nonpayable",
      "type": "function"
    },
    {
      "inputs": [
        {
          "internalType": "uint256[]",
          "name": "netuids",
          "type": "uint256[]"
        },
        {
          "internalType": "uint256[]",
          "name": "limitPrices",
          "type": "uint256[]"
        }
      ],
      "name": "removeStakeLimits",
      "outputs": [],
      "stateMutability": "payable",
      "type": "function"
    },
    {
      "inputs": [],
      "name": "renounceOwnership",
      "outputs": [],
      "stateMutability": "nonpayable",
      "type": "function"
    },
    {
      "inputs": [
        {
          "internalType": "uint256[]",
          "name": "netuids",
          "type": "uint256[]"
        }
      ],
      "name": "resetLimitPrices",
      "outputs": [],
      "stateMutability": "nonpayable",
      "type": "function"
    },
    {
      "inputs": [
        {
          "internalType": "address",
          "name": "newWithdrawer",
          "type": "address"
        }
      ],
      "name": "setWithdrawer",
      "outputs": [],
      "stateMutability": "nonpayable",
      "type": "function"
    },
    {
      "inputs": [
        {
          "internalType": "address",
          "name": "newOwner",
          "type": "address"
        }
      ],
      "name": "transferOwnership",
      "outputs": [],
      "stateMutability": "nonpayable",
      "type": "function"
    },
    {
      "inputs": [
        {
          "internalType": "bytes32",
          "name": "newContractBytesKey",
          "type": "bytes32"
        }
      ],
      "name": "updateContractBytesKey",
      "outputs": [],
      "stateMutability": "nonpayable",
      "type": "function"
    },
    {
      "inputs": [
        {
          "internalType": "address[]",
          "name": "newMevAddresses",
          "type": "address[]"
        }
      ],
      "name": "updateMevAddresses",
      "outputs": [],
      "stateMutability": "nonpayable",
      "type": "function"
    },
    {
      "inputs": [
        {
          "internalType": "address",
          "name": "to",
          "type": "address"
        }
      ],
      "name": "withdrawAll",
      "outputs": [],
      "stateMutability": "nonpayable",
      "type": "function"
    },
    {
      "inputs": [],
      "name": "withdrawer",
      "outputs": [
        {
          "internalType": "address",
          "name": "",
          "type": "address"
        }
      ],
      "stateMutability": "view",
      "type": "function"
    },
    {
      "stateMutability": "payable",
      "type": "receive"
    }
  ],
  "bytecode": "0x608060405234801561001057600080fd5b5061001a33610036565b6001805561010b80546001600160a01b03191633179055610086565b600080546001600160a01b038381166001600160a01b0319831681178455604051919092169283917f8be0079c531659141344cd1fd0a4f28419497f9722a3daafe3b4186f6b6457e09190a35050565b6122e6806100956000396000f3fe6080604052600436106101855760003560e01c8063a8c2bb0d116100d1578063e2edac251161008a578063f528c62e11610064578063f528c62e14610472578063f9036f0214610492578063fa09e630146104b2578063fcd1a8d6146104d25761018c565b8063e2edac2514610412578063e4240e7f14610432578063f2fde38b146104525761018c565b8063a8c2bb0d1461034a578063af31a15d1461036c578063baa51f861461038c578063bc28d5d0146103bc578063c6df7daf146103d1578063cdc18424146103f15761018c565b8063646e569b1161013e5780638da5cb5b116101185780638da5cb5b146102b4578063947d3c3f146102e6578063987d0e591461030a578063a76787751461032a5761018c565b8063646e569b14610279578063696862751461028c578063715018a61461029f5761018c565b80630d16ab81146101a55780630d174c24146101db57806326a224e0146101fd578063276ef7891461022a5780633004c502146102535780635c45f3ef146102665761018c565b3661018c57005b60405163201f3fd360e11b815260040160405180910390fd5b3480156101b157600080fd5b506101c56101c0366004611dfb565b6104f4565b6040516101d29190611ed1565b60405180910390f35b3480156101e757600080fd5b506101fb6101f6366004611f07565b6105bd565b005b34801561020957600080fd5b5061021d610218366004611f22565b61063e565b6040516101d29190611fb1565b34801561023657600080fd5b5061023f610772565b6040516101d2989796959493929190611ff3565b6101fb610261366004611dfb565b610888565b6101fb610274366004611dfb565b610b42565b6101fb610287366004611f22565b610db0565b6101fb61029a366004612086565b610ff3565b3480156102ab57600080fd5b506101fb611301565b3480156102c057600080fd5b506000546001600160a01b03165b6040516001600160a01b0390911681526020016101d2565b3480156102f257600080fd5b506102fc60035481565b6040519081526020016101d2565b34801561031657600080fd5b506101fb61032536600461214a565b611315565b34801561033657600080fd5b506102ce61034536600461218c565b61133f565b34801561035657600080fd5b5061035f611369565b6040516101d291906121a5565b34801561037857600080fd5b506102fc61038736600461218c565b61137e565b34801561039857600080fd5b506103ac6103a736600461218c565b611395565b60405190151581526020016101d2565b3480156103c857600080fd5b5061021d6113bf565b3480156103dd57600080fd5b506101fb6103ec36600461214a565b6113cf565b3480156103fd57600080fd5b5061010b546102ce906001600160a01b031681565b34801561041e57600080fd5b506102fc61042d36600461218c565b6114b3565b34801561043e57600080fd5b506101fb61044d36600461214a565b6114c3565b34801561045e57600080fd5b506101fb61046d366004611f07565b6115c7565b34801561047e57600080fd5b506101fb61048d3660046121b4565b611642565b34801561049e57600080fd5b506101fb6104ad36600461218c565b611732565b3480156104be57600080fd5b506101fb6104cd366004611f07565b61176e565b3480156104de57600080fd5b506102fc60008051602061229183398151915281565b6060858483146105175760405163512509d360e11b815260040160405180910390fd5b8067ffffffffffffffff811115610530576105306121de565b604051908082528060200260200182016040528015610559578160200160208202803683370190505b50915060005b818110156105b15761058c89898381811061057c5761057c6121f4565b905060200201358888888861186b565b83828151811061059e5761059e6121f4565b602090810291909101015260010161055f565b50509695505050505050565b6105c5611942565b61010b546001600160a01b031633146105f157604051632d99bc8360e21b815260040160405180910390fd5b6001600160a01b0381166106185760405163e6c4247b60e01b815260040160405180910390fd5b61010b80546001600160a01b0319166001600160a01b0383161790556001805550565b50565b610646611d21565b838281146106675760405163512509d360e11b815260040160405180910390fd5b60005b81811015610768576000878783818110610686576106866121f4565b90506020020135905060008686848181106106a3576106a36121f4565b9050602002013590506000600190505b608181101561075a576040516371dacc7d60e11b81526004810184905260248101839052604481018290526108059063e3b598fa90606401602060405180830381865afa158015610708573d6000803e3d6000fd5b505050506040513d601f19601f8201168201806040525081019061072c919061220a565b86826081811061073e5761073e6121f4565b6020020181815161074f9190612223565b9052506001016106b3565b50826001019250505061066a565b5050949350505050565b61077a611d21565b610782611d21565b61078a611d21565b610792611d21565b61079a611d21565b60606000806107a761199b565b97506107b1611a3f565b60408051611020810191829052919850600490608190826000855b825461010083900a900460ff1615158152602060019283018181049485019490930390920291018084116107cc5790505050505050955061082060008051602061229183398151915260001b600354611aee565b935061082a611bc7565b6040805161102081019182905291945060099060819082845b81548152602001906001019080831161084357505050505094504791506108726000546001600160a01b031690565b6001600160a01b03163190509091929394959697565b610890611942565b610898611c77565b8483811415806108a85750808214155b156108c65760405163512509d360e11b815260040160405180910390fd5b4260005b82811015610b2e5760008787838181106108e6576108e66121f4565b90506020020135905080600014610b255760008a8a8481811061090b5761090b6121f4565b9050602002013590506000819050600088888681811061092d5761092d6121f4565b6040516369e38bc360e01b815261ffff8616600482015260209091029290920135925060009161080891506369e38bc390602401602060405180830381865afa15801561097e573d6000803e3d6000fd5b505050506040513d601f19601f820116820180604052508101906109a2919061220a565b9050808210610b205747858111156109b75750845b806000036109d8576040516365e52d5160e11b815260040160405180910390fd5b610805631fc9b1416000805160206122918339815191526109fd633b9aca0085612244565b6040516001600160e01b031960e085901b1681526004810192909252602482015260448101889052606401600060405180830381600087803b158015610a4257600080fd5b505af1158015610a56573d6000803e3d6000fd5b50506040516369e38bc360e01b815261ffff8716600482015261080892506369e38bc39150602401602060405180830381865afa158015610a9b573d6000803e3d6000fd5b505050506040513d601f19601f82011682018060405250810190610abf919061220a565b60098660818110610ad257610ad26121f4565b0155600160048660818110610ae957610ae96121f4565b602091828204019190066101000a81548160ff02191690831515021790555087608a8660818110610b1c57610b1c6121f4565b0155505b505050505b506001016108ca565b505050610b3a60018055565b505050505050565b610b4a611942565b610b52611c77565b84838214610b735760405163512509d360e11b815260040160405180910390fd5b834260005b83811015610da35760008a8a83818110610b9457610b946121f4565b905060200201359050608a8160818110610bb057610bb06121f4565b01548314610d9a5760005b84811015610d9857633b9aca0061080563e3b598fa8c8c85818110610be257610be26121f4565b905060200201358b8b86818110610bfb57610bfb6121f4565b6040516001600160e01b031960e087901b1681526004810194909452602002919091013560248301525060448101869052606401602060405180830381865afa158015610c4c573d6000803e3d6000fd5b505050506040513d601f19601f82011682018060405250810190610c70919061220a565b1115610d905760405163d4626bb960e01b81526000805160206122918339815191526004820152602481018390526108059063d4626bb990604401600060405180830381600087803b158015610cc557600080fd5b505af1158015610cd9573d6000803e3d6000fd5b50506040516369e38bc360e01b815261ffff8516600482015261080892506369e38bc39150602401602060405180830381865afa158015610d1e573d6000803e3d6000fd5b505050506040513d601f19601f82011682018060405250810190610d42919061220a565b60098360818110610d5557610d556121f4565b0155600060048360818110610d6c57610d6c6121f4565b602091828204019190066101000a81548160ff021916908315150217905550610d98565b600101610bbb565b505b50600101610b78565b50505050610b3a60018055565b610db8611942565b610dc0611c77565b82818114610de15760405163512509d360e11b815260040160405180910390fd5b4260005b82811015610fe1576000878783818110610e0157610e016121f4565b90506020020135905060008190506000878785818110610e2357610e236121f4565b6040516369e38bc360e01b815261ffff8616600482015260209091029290920135925060009161080891506369e38bc390602401602060405180830381865afa158015610e74573d6000803e3d6000fd5b505050506040513d601f19601f82011682018060405250810190610e98919061220a565b9050808211610fd257608a8460818110610eb457610eb46121f4565b01548614610fd25760405163d4626bb960e01b81526000805160206122918339815191526004820152602481018590526108059063d4626bb990604401600060405180830381600087803b158015610f0b57600080fd5b505af1158015610f1f573d6000803e3d6000fd5b50506040516369e38bc360e01b815261ffff8616600482015261080892506369e38bc39150602401602060405180830381865afa158015610f64573d6000803e3d6000fd5b505050506040513d601f19601f82011682018060405250810190610f88919061220a565b60098560818110610f9b57610f9b6121f4565b0155600060048560818110610fb257610fb26121f4565b602091828204019190066101000a81548160ff0219169083151502179055505b84600101945050505050610de5565b505050610fed60018055565b50505050565b610ffb611942565b611003611c77565b868581146110245760405163512509d360e11b815260040160405180910390fd5b8382146110445760405163512509d360e11b815260040160405180910390fd5b834260005b838110156112ea5760008c8c83818110611065576110656121f4565b9050602002013590506000805b8581101561113e57633b9aca0061080563e3b598fa8d8d85818110611099576110996121f4565b905060200201358c8c868181106110b2576110b26121f4565b6040516001600160e01b031960e087901b1681526004810194909452602002919091013560248301525060448101879052606401602060405180830381865afa158015611103573d6000803e3d6000fd5b505050506040513d601f19601f82011682018060405250810190611127919061220a565b1115611136576001915061113e565b600101611072565b50806112e05760008c8c85818110611158576111586121f4565b9050602002013590506000479050818111156111715750805b80600003611192576040516365e52d5160e11b815260040160405180910390fd5b610805631fc9b1416000805160206122918339815191526111b7633b9aca0085612244565b6040516001600160e01b031960e085901b1681526004810192909252602482015260448101879052606401600060405180830381600087803b1580156111fc57600080fd5b505af1158015611210573d6000803e3d6000fd5b50505050600160048560818110611229576112296121f4565b602081049091018054921515601f9092166101000a91820260ff909202199092161790556040516369e38bc360e01b815261ffff85166004820152610808906369e38bc390602401602060405180830381865afa15801561128e573d6000803e3d6000fd5b505050506040513d601f19601f820116820180604052508101906112b2919061220a565b600985608181106112c5576112c56121f4565b015585608a85608181106112db576112db6121f4565b015550505b5050600101611049565b505050506112f760018055565b5050505050505050565b611309611c77565b6113136000611cd1565b565b61131d611942565b611325611c77565b61133160028383611d40565b5061133b60018055565b5050565b6002818154811061134f57600080fd5b6000918252602090912001546001600160a01b0316905081565b611371611d21565b611379611a3f565b905090565b608a816081811061138e57600080fd5b0154905081565b600481608181106113a557600080fd5b60209182820401919006915054906101000a900460ff1681565b6113c7611d21565b61137961199b565b6113d7611942565b6113df611c77565b804260005b828110156114a7576000858583818110611400576114006121f4565b6040516369e38bc360e01b815261ffff6020909202939093013590811660048401529250610808916369e38bc39150602401602060405180830381865afa15801561144f573d6000803e3d6000fd5b505050506040513d601f19601f82011682018060405250810190611473919061220a565b60098260818110611486576114866121f4565b015582608a826081811061149c5761149c6121f4565b0155506001016113e4565b50505061133b60018055565b6009816081811061138e57600080fd5b6114cb611942565b6114d3611c77565b600354819060005b828110156114a75760008585838181106114f7576114f76121f4565b6040516371dacc7d60e11b815260008051602061229183398151915260048201526024810187905260209190910292909201356044830181905292506108059163e3b598fa9150606401602060405180830381865afa15801561155e573d6000803e3d6000fd5b505050506040513d601f19601f82011682018060405250810190611582919061220a565b6000036115be5760006004826081811061159e5761159e6121f4565b602091828204019190066101000a81548160ff0219169083151502179055505b506001016114db565b6115cf611c77565b6001600160a01b0381166116395760405162461bcd60e51b815260206004820152602660248201527f4f776e61626c653a206e6577206f776e657220697320746865207a65726f206160448201526564647265737360d01b60648201526084015b60405180910390fd5b61063b81611cd1565b61164a611942565b61010b546001600160a01b0316331461167657604051632d99bc8360e21b815260040160405180910390fd5b6001600160a01b03821661169d5760405163e6c4247b60e01b815260040160405180910390fd5b806000036116be576040516365e52d5160e11b815260040160405180910390fd5b6000826001600160a01b03168260405160006040518083038185875af1925050503d806000811461170b576040519150601f19603f3d011682016040523d82523d6000602084013e611710565b606091505b5050905080611331576040516312171d8360e31b815260040160405180910390fd5b61173a611942565b611742611c77565b806117605760405163666b0c5d60e01b815260040160405180910390fd5b600381905561063b60018055565b611776611942565b61010b546001600160a01b031633146117a257604051632d99bc8360e21b815260040160405180910390fd5b6001600160a01b0381166117c95760405163e6c4247b60e01b815260040160405180910390fd5b4760008190036117ec576040516365e52d5160e11b815260040160405180910390fd5b6000826001600160a01b03168260405160006040518083038185875af1925050503d8060008114611839576040519150601f19603f3d011682016040523d82523d6000602084013e61183e565b606091505b5050905080611860576040516312171d8360e31b815260040160405180910390fd5b505061063b60018055565b60008084815b818110156119355761080563e3b598fa898984818110611893576118936121f4565b905060200201358888858181106118ac576118ac6121f4565b6040516001600160e01b031960e087901b16815260048101949094526020029190910135602483015250604481018c9052606401602060405180830381865afa1580156118fd573d6000803e3d6000fd5b505050506040513d601f19601f82011682018060405250810190611921919061220a565b61192b9084612223565b9250600101611871565b5090979650505050505050565b6002600154036119945760405162461bcd60e51b815260206004820152601f60248201527f5265656e7472616e637947756172643a207265656e7472616e742063616c6c006044820152606401611630565b6002600155565b6119a3611d21565b60005b608161ffff82161015611a3b576040516369e38bc360e01b815261ffff82166004820152610808906369e38bc390602401602060405180830381865afa925050508015611a10575060408051601f3d908101601f19168201909252611a0d9181019061220a565b60015b15611a335780838361ffff1660818110611a2c57611a2c6121f4565b6020020152505b6001016119a6565b5090565b611a47611d21565b60005b608161ffff82161015611a3b57604051632d9bfc7160e01b815261ffff8216600482015261080890632d9bfc7190602401602060405180830381865afa925050508015611ab4575060408051601f3d908101601f19168201909252611ab191810190612266565b60015b15611ae65780838361ffff1660818110611ad057611ad06121f4565b67ffffffffffffffff9092166020929092020152505b600101611a4a565b611af6611d21565b60015b6081811015611bc05760048160818110611b1557611b156121f4565b602081049091015460ff601f9092166101000a90041615611bb8576040516371dacc7d60e11b81526004810185905260248101849052604481018290526108059063e3b598fa90606401602060405180830381865afa158015611b7c573d6000803e3d6000fd5b505050506040513d601f19601f82011682018060405250810190611ba0919061220a565b828260818110611bb257611bb26121f4565b60200201525b600101611af9565b5092915050565b60028054606091908067ffffffffffffffff811115611be857611be86121de565b604051908082528060200260200182016040528015611c11578160200160208202803683370190505b50925060005b81811015611c7157828181548110611c3157611c316121f4565b60009182526020909120015484516001600160a01b039091163190859083908110611c5e57611c5e6121f4565b6020908102919091010152600101611c17565b50505090565b6000546001600160a01b031633146113135760405162461bcd60e51b815260206004820181905260248201527f4f776e61626c653a2063616c6c6572206973206e6f7420746865206f776e65726044820152606401611630565b600080546001600160a01b038381166001600160a01b0319831681178455604051919092169283917f8be0079c531659141344cd1fd0a4f28419497f9722a3daafe3b4186f6b6457e09190a35050565b6040518061102001604052806081906020820280368337509192915050565b828054828255906000526020600020908101928215611d93579160200282015b82811115611d935781546001600160a01b0319166001600160a01b03843516178255602090920191600190910190611d60565b50611a3b9291505b80821115611a3b5760008155600101611d9b565b60008083601f840112611dc157600080fd5b50813567ffffffffffffffff811115611dd957600080fd5b6020830191508360208260051b8501011115611df457600080fd5b9250929050565b60008060008060008060608789031215611e1457600080fd5b863567ffffffffffffffff80821115611e2c57600080fd5b611e388a838b01611daf565b90985096506020890135915080821115611e5157600080fd5b611e5d8a838b01611daf565b90965094506040890135915080821115611e7657600080fd5b50611e8389828a01611daf565b979a9699509497509295939492505050565b60008151808452602080850194506020840160005b83811015611ec657815187529582019590820190600101611eaa565b509495945050505050565b602081526000611ee46020830184611e95565b9392505050565b80356001600160a01b0381168114611f0257600080fd5b919050565b600060208284031215611f1957600080fd5b611ee482611eeb565b60008060008060408587031215611f3857600080fd5b843567ffffffffffffffff80821115611f5057600080fd5b611f5c88838901611daf565b90965094506020870135915080821115611f7557600080fd5b50611f8287828801611daf565b95989497509550505050565b8060005b6081811015610fed578151845260209384019390910190600101611f92565b6110208101611fc08284611f8e565b92915050565b8060005b6081811015610fed57815167ffffffffffffffff16845260209384019390910190600101611fca565b6000615100612002838c611f8e565b61201061102084018b611fc6565b61204083018960005b608181101561203a5781511515835260209283019290910190600101612019565b50505061204b613060840189611f8e565b612059614080840188611f8e565b806150a084015261206c81840187611e95565b6150c084019590955250506150e001529695505050505050565b6000806000806000806000806080898b0312156120a257600080fd5b883567ffffffffffffffff808211156120ba57600080fd5b6120c68c838d01611daf565b909a50985060208b01359150808211156120df57600080fd5b6120eb8c838d01611daf565b909850965060408b013591508082111561210457600080fd5b6121108c838d01611daf565b909650945060608b013591508082111561212957600080fd5b506121368b828c01611daf565b999c989b5096995094979396929594505050565b6000806020838503121561215d57600080fd5b823567ffffffffffffffff81111561217457600080fd5b61218085828601611daf565b90969095509350505050565b60006020828403121561219e57600080fd5b5035919050565b6110208101611fc08284611fc6565b600080604083850312156121c757600080fd5b6121d083611eeb565b946020939093013593505050565b634e487b7160e01b600052604160045260246000fd5b634e487b7160e01b600052603260045260246000fd5b60006020828403121561221c57600080fd5b5051919050565b80820180821115611fc057634e487b7160e01b600052601160045260246000fd5b60008261226157634e487b7160e01b600052601260045260246000fd5b500490565b60006020828403121561227857600080fd5b815167ffffffffffffffff81168114611ee457600080fdfeb4c087119097fbe3985298eef52f35ef6271c48322a8c2d430902a9cc38d9473a26469706673582212202798a1c182e3151f6550634b418b8b99e5b509724774c2799fc4b8cc84fba12464736f6c63430008160033",
  "linkReferences": {},
  "deployedLinkReferences": {}
}