{
  "_format": "hh-sol-artifact-1",
  "contractName": "TransferStake",
  "sourceName": "contracts/TransferStake.sol",
  "abi": [
    {
      "inputs": [],
      "stateMutability": "nonpayable",
      "type": "constructor"
    },
    {
      "inputs": [],
      "name": "DELEGATOR_COLDKEY",
      "outputs": [
        {
          "internalType": "bytes32",
          "name": "",
          "type": "bytes32"
        }
      ],
      "stateMutability": "view",
      "type": "function"
    },
    {
      "inputs": [],
      "name": "DELEGATOR_HOTKEY",
      "outputs": [
        {
          "internalType": "bytes32",
          "name": "",
          "type": "bytes32"
        }
      ],
      "stateMutability": "view",
      "type": "function"
    },
    {
      "inputs": [],
      "name": "REAL_COLDKEY",
      "outputs": [
        {
          "internalType": "bytes32",
          "name": "",
          "type": "bytes32"
        }
      ],
      "stateMutability": "view",
      "type": "function"
    },
    {
      "inputs": [],
      "name": "delegatorId",
      "outputs": [
        {
          "internalType": "bytes32",
          "name": "",
          "type": "bytes32"
        }
      ],
      "stateMutability": "view",
      "type": "function"
    },
    {
      "inputs": [],
      "name": "execute",
      "outputs": [],
      "stateMutability": "nonpayable",
      "type": "function"
    },
    {
      "inputs": [],
      "name": "owner",
      "outputs": [
        {
          "internalType": "address",
          "name": "",
          "type": "address"
        }
      ],
      "stateMutability": "view",
      "type": "function"
    },
    {
      "inputs": [],
      "name": "transfer",
      "outputs": [],
      "stateMutability": "payable",
      "type": "function"
    },
    {
      "inputs": [],
      "name": "transfer_asm",
      "outputs": [],
      "stateMutability": "payable",
      "type": "function"
    }
  ],
  "bytecode": "0x60c080604052346100cd5763024a66cd60e11b815230600482015260208160248161080c5afa9081156100c157600091610063575b506080523360a0526040516103fd90816100d38239608051816102d8015260a05181818160d001526101120152f35b9060203d6020116100ba575b601f8101601f191683016001600160401b038111848210176100a6576020918491604052810103126100a357505138610034565b80fd5b634e487b7160e01b83526041600452602483fd5b503d61006f565b6040513d6000823e3d90fd5b600080fdfe60806040818152600436101561001457600080fd5b600091823560e01c90816313cd4940146102fb5750806344a537f5146102c1578063565dea951461028757806361461954146100ff5780638a4068dd146100b75780638da5cb5b146100bc5780639aa88b8b146100b75763c6c4a86f1461007a57600080fd5b346100b357816003193601126100b357602090517fb4c087119097fbe3985298eef52f35ef6271c48322a8c2d430902a9cc38d94738152f35b5080fd5b610335565b50346100b357816003193601126100b357517f00000000000000000000000000000000000000000000000000000000000000006001600160a01b03168152602090f35b50346100b357816003193601126100b3577f00000000000000000000000000000000000000000000000000000000000000006001600160a01b031633036100b357805167ffffffffffffffff9190608081018381118282101761026c57849182918452604e81526020810190606036833760078253605660218201537f5bc73267f9990b1554109dc41e624a7dab56b1128f1ef2f62f6314294c038f9d60228201527fb4c087119097fbe3985298eef52f35ef6271c48322a8c2d430902a9cc38d947360428201528260628201538260638201538460648201538260658201536305f5e10060668201536205f5e160678201536105f560688201536005606982015382606a82015382606b82015382606c82015382606d82015351908260065af1913d15610280573d9181831161026c57603f601f9182199283915195011601168201918210911117610258575b156102555780f35b80fd5b634e487b7160e01b82526041600452602482fd5b634e487b7160e01b85526041600452602485fd5b505061024d565b50346100b357816003193601126100b357602090517f2636ad834cd47318572033620d50377260a54fc64e5f150896186b2bafda74548152f35b50346100b357816003193601126100b357602090517f00000000000000000000000000000000000000000000000000000000000000008152f35b8390346100b357816003193601126100b357807f5bc73267f9990b1554109dc41e624a7dab56b1128f1ef2f62f6314294c038f9d60209252f35b600080600319360112610255574781610800803b156100b35760246040518094819363cd6f4eb160e01b83527f2636ad834cd47318572033620d50377260a54fc64e5f150896186b2bafda745460048401525af180156103bc57610397575080f35b67ffffffffffffffff106103a85780f35b634e487b7160e01b81526041600452602490fd5b6040513d84823e3d90fdfea264697066735822122099d675c6f67c258a01e6faa175119ac93f1a414ca39eb0b6dc5d181f7aa4971464736f6c63430008160033",
  "linkReferences": {},
  "deployedLinkReferences": {}
}